{
	"DutchAuction.sol": {
		"DutchAuction": {
			"abi": [
				{
					"inputs": [
						{
							"internalType": "uint256",
							"name": "_startingPrice",
							"type": "uint256"
						},
						{
							"internalType": "uint256",
							"name": "_discountRate",
							"type": "uint256"
						},
						{
							"internalType": "address",
							"name": "_nft",
							"type": "address"
						},
						{
							"internalType": "uint256",
							"name": "_nftId",
							"type": "uint256"
						}
					],
					"stateMutability": "payable",
					"type": "constructor"
				},
				{
					"anonymous": false,
					"inputs": [
						{
							"indexed": false,
							"internalType": "address",
							"name": "buyer",
							"type": "address"
						},
						{
							"indexed": false,
							"internalType": "uint256",
							"name": "price",
							"type": "uint256"
						},
						{
							"indexed": false,
							"internalType": "uint256",
							"name": "nftId",
							"type": "uint256"
						}
					],
					"name": "DealDone",
					"type": "event"
				},
				{
					"anonymous": false,
					"inputs": [
						{
							"indexed": false,
							"internalType": "uint256",
							"name": "msgValue",
							"type": "uint256"
						},
						{
							"indexed": false,
							"internalType": "uint256",
							"name": "refund",
							"type": "uint256"
						}
					],
					"name": "debugInfo",
					"type": "event"
				},
				{
					"anonymous": false,
					"inputs": [
						{
							"indexed": false,
							"internalType": "uint256",
							"name": "startingPrice",
							"type": "uint256"
						},
						{
							"indexed": false,
							"internalType": "uint256",
							"name": "discountRate",
							"type": "uint256"
						},
						{
							"indexed": false,
							"internalType": "uint256",
							"name": "duration",
							"type": "uint256"
						}
					],
					"name": "testMoney",
					"type": "event"
				},
				{
					"inputs": [],
					"name": "buy",
					"outputs": [],
					"stateMutability": "payable",
					"type": "function"
				},
				{
					"inputs": [],
					"name": "currentBuyer",
					"outputs": [
						{
							"internalType": "address",
							"name": "",
							"type": "address"
						}
					],
					"stateMutability": "view",
					"type": "function"
				},
				{
					"inputs": [],
					"name": "discountRate",
					"outputs": [
						{
							"internalType": "uint256",
							"name": "",
							"type": "uint256"
						}
					],
					"stateMutability": "view",
					"type": "function"
				},
				{
					"inputs": [],
					"name": "expiresAt",
					"outputs": [
						{
							"internalType": "uint256",
							"name": "",
							"type": "uint256"
						}
					],
					"stateMutability": "view",
					"type": "function"
				},
				{
					"inputs": [],
					"name": "getCurrentPrice",
					"outputs": [
						{
							"internalType": "uint256",
							"name": "",
							"type": "uint256"
						}
					],
					"stateMutability": "view",
					"type": "function"
				},
				{
					"inputs": [],
					"name": "isSold",
					"outputs": [
						{
							"internalType": "bool",
							"name": "",
							"type": "bool"
						}
					],
					"stateMutability": "view",
					"type": "function"
				},
				{
					"inputs": [],
					"name": "nft",
					"outputs": [
						{
							"internalType": "contract IERC721",
							"name": "",
							"type": "address"
						}
					],
					"stateMutability": "view",
					"type": "function"
				},
				{
					"inputs": [],
					"name": "nftId",
					"outputs": [
						{
							"internalType": "uint256",
							"name": "",
							"type": "uint256"
						}
					],
					"stateMutability": "view",
					"type": "function"
				},
				{
					"inputs": [],
					"name": "seller",
					"outputs": [
						{
							"internalType": "address",
							"name": "",
							"type": "address"
						}
					],
					"stateMutability": "view",
					"type": "function"
				},
				{
					"inputs": [],
					"name": "startingPrice",
					"outputs": [
						{
							"internalType": "uint256",
							"name": "",
							"type": "uint256"
						}
					],
					"stateMutability": "view",
					"type": "function"
				},
				{
					"inputs": [],
					"name": "startsAt",
					"outputs": [
						{
							"internalType": "uint256",
							"name": "",
							"type": "uint256"
						}
					],
					"stateMutability": "view",
					"type": "function"
				},
				{
					"stateMutability": "payable",
					"type": "receive"
				}
			],
			"devdoc": {
				"kind": "dev",
				"methods": {},
				"version": 1
			},
			"evm": {
				"assembly": "    /* \"DutchAuction.sol\":196:3138  contract DutchAuction{... */\n  mstore(0x40, 0x0140)\n    /* \"DutchAuction.sol\":959:1715  constructor (uint _startingPrice, uint _discountRate, address _nft, uint _nftId) payable {... */\n  mload(0x40)\n  sub(codesize, bytecodeSize)\n  dup1\n  bytecodeSize\n  dup4\n  codecopy\n  dup2\n  dup2\n  add\n  0x40\n  mstore\n  dup2\n  add\n  swap1\n  tag_1\n  swap2\n  swap1\n  tag_2\n  jump\t// in\ntag_1:\n    /* \"DutchAuction.sol\":1097:1147  testMoney(_startingPrice, _discountRate, DURATION) */\n  0x311c8328af52a7c29efefcd3fb942689ba08aa749c24b387844e3fb121356c55\n    /* \"DutchAuction.sol\":1107:1121  _startingPrice */\n  dup5\n    /* \"DutchAuction.sol\":1123:1136  _discountRate */\n  dup5\n    /* \"DutchAuction.sol\":257:263  7 days */\n  0x093a80\n    /* \"DutchAuction.sol\":1097:1147  testMoney(_startingPrice, _discountRate, DURATION) */\n  mload(0x40)\n  tag_5\n  swap4\n  swap3\n  swap2\n  swap1\n  tag_6\n  jump\t// in\ntag_5:\n  mload(0x40)\n  dup1\n  swap2\n  sub\n  swap1\n  log1\n    /* \"DutchAuction.sol\":257:263  7 days */\n  0x093a80\n    /* \"DutchAuction.sol\":1184:1197  _discountRate */\n  dup4\n    /* \"DutchAuction.sol\":1184:1208  _discountRate * DURATION */\n  tag_7\n  swap2\n  swap1\n  tag_8\n  jump\t// in\ntag_7:\n    /* \"DutchAuction.sol\":1166:1180  _startingPrice */\n  dup5\n    /* \"DutchAuction.sol\":1166:1208  _startingPrice >= _discountRate * DURATION */\n  lt\n  iszero\n    /* \"DutchAuction.sol\":1158:1245  require(_startingPrice >= _discountRate * DURATION, \"starting price <= total discount\") */\n  tag_9\n  jumpi\n  mload(0x40)\n  0x08c379a000000000000000000000000000000000000000000000000000000000\n  dup2\n  mstore\n  0x04\n  add\n  tag_10\n  swap1\n  tag_11\n  jump\t// in\ntag_10:\n  mload(0x40)\n  dup1\n  swap2\n  sub\n  swap1\n  revert\ntag_9:\n    /* \"DutchAuction.sol\":1258:1270  uint timeNow */\n  0x00\n    /* \"DutchAuction.sol\":1273:1288  block.timestamp */\n  timestamp\n    /* \"DutchAuction.sol\":1258:1288  uint timeNow = block.timestamp */\n  swap1\n  pop\n    /* \"DutchAuction.sol\":1318:1328  msg.sender */\n  caller\n    /* \"DutchAuction.sol\":1301:1329  seller = payable(msg.sender) */\n  0xffffffffffffffffffffffffffffffffffffffff\n  and\n  0x0120\n  dup2\n  0xffffffffffffffffffffffffffffffffffffffff\n  and\n  dup2\n  mstore\n  pop\n  pop\n    /* \"DutchAuction.sol\":1351:1358  timeNow */\n  dup1\n    /* \"DutchAuction.sol\":1340:1358  startsAt = timeNow */\n  0x80\n  dup2\n  dup2\n  mstore\n  pop\n  pop\n    /* \"DutchAuction.sol\":257:263  7 days */\n  0x093a80\n    /* \"DutchAuction.sol\":1381:1388  timeNow */\n  dup2\n    /* \"DutchAuction.sol\":1381:1399  timeNow + DURATION */\n  tag_12\n  swap2\n  swap1\n  tag_13\n  jump\t// in\ntag_12:\n    /* \"DutchAuction.sol\":1369:1399  expiresAt = timeNow + DURATION */\n  0xa0\n  dup2\n  dup2\n  mstore\n  pop\n  pop\n    /* \"DutchAuction.sol\":1425:1438  _discountRate */\n  dup4\n    /* \"DutchAuction.sol\":1410:1438  discountRate = _discountRate */\n  0xe0\n  dup2\n  dup2\n  mstore\n  pop\n  pop\n    /* \"DutchAuction.sol\":1499:1513  _startingPrice */\n  dup5\n    /* \"DutchAuction.sol\":1483:1513  startingPrice = _startingPrice */\n  0xc0\n  dup2\n  dup2\n  mstore\n  pop\n  pop\n    /* \"DutchAuction.sol\":1540:1544  _nft */\n  dup3\n    /* \"DutchAuction.sol\":1526:1529  nft */\n  0x00\n  dup1\n    /* \"DutchAuction.sol\":1526:1545  nft = IERC721(_nft) */\n  0x0100\n  exp\n  dup2\n  sload\n  dup2\n  0xffffffffffffffffffffffffffffffffffffffff\n  mul\n  not\n  and\n  swap1\n  dup4\n  0xffffffffffffffffffffffffffffffffffffffff\n  and\n  mul\n  or\n  swap1\n  sstore\n  pop\n    /* \"DutchAuction.sol\":1676:1682  _nftId */\n  dup2\n    /* \"DutchAuction.sol\":1668:1682  nftId = _nftId */\n  0x0100\n  dup2\n  dup2\n  mstore\n  pop\n  pop\n    /* \"DutchAuction.sol\":1702:1707  false */\n  0x00\n    /* \"DutchAuction.sol\":1693:1699  isSold */\n  0x01\n  0x14\n    /* \"DutchAuction.sol\":1693:1707  isSold = false */\n  0x0100\n  exp\n  dup2\n  sload\n  dup2\n  0xff\n  mul\n  not\n  and\n  swap1\n  dup4\n  iszero\n  iszero\n  mul\n  or\n  swap1\n  sstore\n  pop\n    /* \"DutchAuction.sol\":1048:1715  {... */\n  pop\n    /* \"DutchAuction.sol\":959:1715  constructor (uint _startingPrice, uint _discountRate, address _nft, uint _nftId) payable {... */\n  pop\n  pop\n  pop\n  pop\n    /* \"DutchAuction.sol\":196:3138  contract DutchAuction{... */\n  jump(tag_14)\n    /* \"#utility.yul\":88:205   */\ntag_16:\n    /* \"#utility.yul\":197:198   */\n  0x00\n    /* \"#utility.yul\":194:195   */\n  dup1\n    /* \"#utility.yul\":187:199   */\n  revert\n    /* \"#utility.yul\":334:411   */\ntag_18:\n    /* \"#utility.yul\":371:378   */\n  0x00\n    /* \"#utility.yul\":400:405   */\n  dup2\n    /* \"#utility.yul\":389:405   */\n  swap1\n  pop\n    /* \"#utility.yul\":334:411   */\n  swap2\n  swap1\n  pop\n  jump\t// out\n    /* \"#utility.yul\":417:539   */\ntag_19:\n    /* \"#utility.yul\":490:514   */\n  tag_36\n    /* \"#utility.yul\":508:513   */\n  dup2\n    /* \"#utility.yul\":490:514   */\n  tag_18\n  jump\t// in\ntag_36:\n    /* \"#utility.yul\":483:488   */\n  dup2\n    /* \"#utility.yul\":480:515   */\n  eq\n    /* \"#utility.yul\":470:533   */\n  tag_37\n  jumpi\n    /* \"#utility.yul\":529:530   */\n  0x00\n    /* \"#utility.yul\":526:527   */\n  dup1\n    /* \"#utility.yul\":519:531   */\n  revert\n    /* \"#utility.yul\":470:533   */\ntag_37:\n    /* \"#utility.yul\":417:539   */\n  pop\n  jump\t// out\n    /* \"#utility.yul\":545:688   */\ntag_20:\n    /* \"#utility.yul\":602:607   */\n  0x00\n    /* \"#utility.yul\":633:639   */\n  dup2\n    /* \"#utility.yul\":627:640   */\n  mload\n    /* \"#utility.yul\":618:640   */\n  swap1\n  pop\n    /* \"#utility.yul\":649:682   */\n  tag_39\n    /* \"#utility.yul\":676:681   */\n  dup2\n    /* \"#utility.yul\":649:682   */\n  tag_19\n  jump\t// in\ntag_39:\n    /* \"#utility.yul\":545:688   */\n  swap3\n  swap2\n  pop\n  pop\n  jump\t// out\n    /* \"#utility.yul\":694:820   */\ntag_21:\n    /* \"#utility.yul\":731:738   */\n  0x00\n    /* \"#utility.yul\":771:813   */\n  0xffffffffffffffffffffffffffffffffffffffff\n    /* \"#utility.yul\":764:769   */\n  dup3\n    /* \"#utility.yul\":760:814   */\n  and\n    /* \"#utility.yul\":749:814   */\n  swap1\n  pop\n    /* \"#utility.yul\":694:820   */\n  swap2\n  swap1\n  pop\n  jump\t// out\n    /* \"#utility.yul\":826:922   */\ntag_22:\n    /* \"#utility.yul\":863:870   */\n  0x00\n    /* \"#utility.yul\":892:916   */\n  tag_42\n    /* \"#utility.yul\":910:915   */\n  dup3\n    /* \"#utility.yul\":892:916   */\n  tag_21\n  jump\t// in\ntag_42:\n    /* \"#utility.yul\":881:916   */\n  swap1\n  pop\n    /* \"#utility.yul\":826:922   */\n  swap2\n  swap1\n  pop\n  jump\t// out\n    /* \"#utility.yul\":928:1050   */\ntag_23:\n    /* \"#utility.yul\":1001:1025   */\n  tag_44\n    /* \"#utility.yul\":1019:1024   */\n  dup2\n    /* \"#utility.yul\":1001:1025   */\n  tag_22\n  jump\t// in\ntag_44:\n    /* \"#utility.yul\":994:999   */\n  dup2\n    /* \"#utility.yul\":991:1026   */\n  eq\n    /* \"#utility.yul\":981:1044   */\n  tag_45\n  jumpi\n    /* \"#utility.yul\":1040:1041   */\n  0x00\n    /* \"#utility.yul\":1037:1038   */\n  dup1\n    /* \"#utility.yul\":1030:1042   */\n  revert\n    /* \"#utility.yul\":981:1044   */\ntag_45:\n    /* \"#utility.yul\":928:1050   */\n  pop\n  jump\t// out\n    /* \"#utility.yul\":1056:1199   */\ntag_24:\n    /* \"#utility.yul\":1113:1118   */\n  0x00\n    /* \"#utility.yul\":1144:1150   */\n  dup2\n    /* \"#utility.yul\":1138:1151   */\n  mload\n    /* \"#utility.yul\":1129:1151   */\n  swap1\n  pop\n    /* \"#utility.yul\":1160:1193   */\n  tag_47\n    /* \"#utility.yul\":1187:1192   */\n  dup2\n    /* \"#utility.yul\":1160:1193   */\n  tag_23\n  jump\t// in\ntag_47:\n    /* \"#utility.yul\":1056:1199   */\n  swap3\n  swap2\n  pop\n  pop\n  jump\t// out\n    /* \"#utility.yul\":1205:2025   */\ntag_2:\n    /* \"#utility.yul\":1302:1308   */\n  0x00\n    /* \"#utility.yul\":1310:1316   */\n  dup1\n    /* \"#utility.yul\":1318:1324   */\n  0x00\n    /* \"#utility.yul\":1326:1332   */\n  dup1\n    /* \"#utility.yul\":1375:1378   */\n  0x80\n    /* \"#utility.yul\":1363:1372   */\n  dup6\n    /* \"#utility.yul\":1354:1361   */\n  dup8\n    /* \"#utility.yul\":1350:1373   */\n  sub\n    /* \"#utility.yul\":1346:1379   */\n  slt\n    /* \"#utility.yul\":1343:1463   */\n  iszero\n  tag_49\n  jumpi\n    /* \"#utility.yul\":1382:1461   */\n  tag_50\n  tag_16\n  jump\t// in\ntag_50:\n    /* \"#utility.yul\":1343:1463   */\ntag_49:\n    /* \"#utility.yul\":1502:1503   */\n  0x00\n    /* \"#utility.yul\":1527:1591   */\n  tag_51\n    /* \"#utility.yul\":1583:1590   */\n  dup8\n    /* \"#utility.yul\":1574:1580   */\n  dup3\n    /* \"#utility.yul\":1563:1572   */\n  dup9\n    /* \"#utility.yul\":1559:1581   */\n  add\n    /* \"#utility.yul\":1527:1591   */\n  tag_20\n  jump\t// in\ntag_51:\n    /* \"#utility.yul\":1517:1591   */\n  swap5\n  pop\n    /* \"#utility.yul\":1473:1601   */\n  pop\n    /* \"#utility.yul\":1640:1642   */\n  0x20\n    /* \"#utility.yul\":1666:1730   */\n  tag_52\n    /* \"#utility.yul\":1722:1729   */\n  dup8\n    /* \"#utility.yul\":1713:1719   */\n  dup3\n    /* \"#utility.yul\":1702:1711   */\n  dup9\n    /* \"#utility.yul\":1698:1720   */\n  add\n    /* \"#utility.yul\":1666:1730   */\n  tag_20\n  jump\t// in\ntag_52:\n    /* \"#utility.yul\":1656:1730   */\n  swap4\n  pop\n    /* \"#utility.yul\":1611:1740   */\n  pop\n    /* \"#utility.yul\":1779:1781   */\n  0x40\n    /* \"#utility.yul\":1805:1869   */\n  tag_53\n    /* \"#utility.yul\":1861:1868   */\n  dup8\n    /* \"#utility.yul\":1852:1858   */\n  dup3\n    /* \"#utility.yul\":1841:1850   */\n  dup9\n    /* \"#utility.yul\":1837:1859   */\n  add\n    /* \"#utility.yul\":1805:1869   */\n  tag_24\n  jump\t// in\ntag_53:\n    /* \"#utility.yul\":1795:1869   */\n  swap3\n  pop\n    /* \"#utility.yul\":1750:1879   */\n  pop\n    /* \"#utility.yul\":1918:1920   */\n  0x60\n    /* \"#utility.yul\":1944:2008   */\n  tag_54\n    /* \"#utility.yul\":2000:2007   */\n  dup8\n    /* \"#utility.yul\":1991:1997   */\n  dup3\n    /* \"#utility.yul\":1980:1989   */\n  dup9\n    /* \"#utility.yul\":1976:1998   */\n  add\n    /* \"#utility.yul\":1944:2008   */\n  tag_20\n  jump\t// in\ntag_54:\n    /* \"#utility.yul\":1934:2008   */\n  swap2\n  pop\n    /* \"#utility.yul\":1889:2018   */\n  pop\n    /* \"#utility.yul\":1205:2025   */\n  swap3\n  swap6\n  swap2\n  swap5\n  pop\n  swap3\n  pop\n  jump\t// out\n    /* \"#utility.yul\":2031:2149   */\ntag_25:\n    /* \"#utility.yul\":2118:2142   */\n  tag_56\n    /* \"#utility.yul\":2136:2141   */\n  dup2\n    /* \"#utility.yul\":2118:2142   */\n  tag_18\n  jump\t// in\ntag_56:\n    /* \"#utility.yul\":2113:2116   */\n  dup3\n    /* \"#utility.yul\":2106:2143   */\n  mstore\n    /* \"#utility.yul\":2031:2149   */\n  pop\n  pop\n  jump\t// out\n    /* \"#utility.yul\":2155:2597   */\ntag_6:\n    /* \"#utility.yul\":2304:2308   */\n  0x00\n    /* \"#utility.yul\":2342:2344   */\n  0x60\n    /* \"#utility.yul\":2331:2340   */\n  dup3\n    /* \"#utility.yul\":2327:2345   */\n  add\n    /* \"#utility.yul\":2319:2345   */\n  swap1\n  pop\n    /* \"#utility.yul\":2355:2426   */\n  tag_58\n    /* \"#utility.yul\":2423:2424   */\n  0x00\n    /* \"#utility.yul\":2412:2421   */\n  dup4\n    /* \"#utility.yul\":2408:2425   */\n  add\n    /* \"#utility.yul\":2399:2405   */\n  dup7\n    /* \"#utility.yul\":2355:2426   */\n  tag_25\n  jump\t// in\ntag_58:\n    /* \"#utility.yul\":2436:2508   */\n  tag_59\n    /* \"#utility.yul\":2504:2506   */\n  0x20\n    /* \"#utility.yul\":2493:2502   */\n  dup4\n    /* \"#utility.yul\":2489:2507   */\n  add\n    /* \"#utility.yul\":2480:2486   */\n  dup6\n    /* \"#utility.yul\":2436:2508   */\n  tag_25\n  jump\t// in\ntag_59:\n    /* \"#utility.yul\":2518:2590   */\n  tag_60\n    /* \"#utility.yul\":2586:2588   */\n  0x40\n    /* \"#utility.yul\":2575:2584   */\n  dup4\n    /* \"#utility.yul\":2571:2589   */\n  add\n    /* \"#utility.yul\":2562:2568   */\n  dup5\n    /* \"#utility.yul\":2518:2590   */\n  tag_25\n  jump\t// in\ntag_60:\n    /* \"#utility.yul\":2155:2597   */\n  swap5\n  swap4\n  pop\n  pop\n  pop\n  pop\n  jump\t// out\n    /* \"#utility.yul\":2603:2783   */\ntag_26:\n    /* \"#utility.yul\":2651:2728   */\n  0x4e487b7100000000000000000000000000000000000000000000000000000000\n    /* \"#utility.yul\":2648:2649   */\n  0x00\n    /* \"#utility.yul\":2641:2729   */\n  mstore\n    /* \"#utility.yul\":2748:2752   */\n  0x11\n    /* \"#utility.yul\":2745:2746   */\n  0x04\n    /* \"#utility.yul\":2738:2753   */\n  mstore\n    /* \"#utility.yul\":2772:2776   */\n  0x24\n    /* \"#utility.yul\":2769:2770   */\n  0x00\n    /* \"#utility.yul\":2762:2777   */\n  revert\n    /* \"#utility.yul\":2789:3199   */\ntag_8:\n    /* \"#utility.yul\":2829:2836   */\n  0x00\n    /* \"#utility.yul\":2852:2872   */\n  tag_63\n    /* \"#utility.yul\":2870:2871   */\n  dup3\n    /* \"#utility.yul\":2852:2872   */\n  tag_18\n  jump\t// in\ntag_63:\n    /* \"#utility.yul\":2847:2872   */\n  swap2\n  pop\n    /* \"#utility.yul\":2886:2906   */\n  tag_64\n    /* \"#utility.yul\":2904:2905   */\n  dup4\n    /* \"#utility.yul\":2886:2906   */\n  tag_18\n  jump\t// in\ntag_64:\n    /* \"#utility.yul\":2881:2906   */\n  swap3\n  pop\n    /* \"#utility.yul\":2941:2942   */\n  dup3\n    /* \"#utility.yul\":2938:2939   */\n  dup3\n    /* \"#utility.yul\":2934:2943   */\n  mul\n    /* \"#utility.yul\":2963:2993   */\n  tag_65\n    /* \"#utility.yul\":2981:2992   */\n  dup2\n    /* \"#utility.yul\":2963:2993   */\n  tag_18\n  jump\t// in\ntag_65:\n    /* \"#utility.yul\":2952:2993   */\n  swap2\n  pop\n    /* \"#utility.yul\":3142:3143   */\n  dup3\n    /* \"#utility.yul\":3133:3140   */\n  dup3\n    /* \"#utility.yul\":3129:3144   */\n  div\n    /* \"#utility.yul\":3126:3127   */\n  dup5\n    /* \"#utility.yul\":3123:3145   */\n  eq\n    /* \"#utility.yul\":3103:3104   */\n  dup4\n    /* \"#utility.yul\":3096:3105   */\n  iszero\n    /* \"#utility.yul\":3076:3159   */\n  or\n    /* \"#utility.yul\":3053:3192   */\n  tag_66\n  jumpi\n    /* \"#utility.yul\":3172:3190   */\n  tag_67\n  tag_26\n  jump\t// in\ntag_67:\n    /* \"#utility.yul\":3053:3192   */\ntag_66:\n    /* \"#utility.yul\":2837:3199   */\n  pop\n    /* \"#utility.yul\":2789:3199   */\n  swap3\n  swap2\n  pop\n  pop\n  jump\t// out\n    /* \"#utility.yul\":3205:3374   */\ntag_27:\n    /* \"#utility.yul\":3289:3300   */\n  0x00\n    /* \"#utility.yul\":3323:3329   */\n  dup3\n    /* \"#utility.yul\":3318:3321   */\n  dup3\n    /* \"#utility.yul\":3311:3330   */\n  mstore\n    /* \"#utility.yul\":3363:3367   */\n  0x20\n    /* \"#utility.yul\":3358:3361   */\n  dup3\n    /* \"#utility.yul\":3354:3368   */\n  add\n    /* \"#utility.yul\":3339:3368   */\n  swap1\n  pop\n    /* \"#utility.yul\":3205:3374   */\n  swap3\n  swap2\n  pop\n  pop\n  jump\t// out\n    /* \"#utility.yul\":3380:3562   */\ntag_28:\n    /* \"#utility.yul\":3520:3554   */\n  0x7374617274696e67207072696365203c3d20746f74616c20646973636f756e74\n    /* \"#utility.yul\":3516:3517   */\n  0x00\n    /* \"#utility.yul\":3508:3514   */\n  dup3\n    /* \"#utility.yul\":3504:3518   */\n  add\n    /* \"#utility.yul\":3497:3555   */\n  mstore\n    /* \"#utility.yul\":3380:3562   */\n  pop\n  jump\t// out\n    /* \"#utility.yul\":3568:3934   */\ntag_29:\n    /* \"#utility.yul\":3710:3713   */\n  0x00\n    /* \"#utility.yul\":3731:3798   */\n  tag_71\n    /* \"#utility.yul\":3795:3797   */\n  0x20\n    /* \"#utility.yul\":3790:3793   */\n  dup4\n    /* \"#utility.yul\":3731:3798   */\n  tag_27\n  jump\t// in\ntag_71:\n    /* \"#utility.yul\":3724:3798   */\n  swap2\n  pop\n    /* \"#utility.yul\":3807:3900   */\n  tag_72\n    /* \"#utility.yul\":3896:3899   */\n  dup3\n    /* \"#utility.yul\":3807:3900   */\n  tag_28\n  jump\t// in\ntag_72:\n    /* \"#utility.yul\":3925:3927   */\n  0x20\n    /* \"#utility.yul\":3920:3923   */\n  dup3\n    /* \"#utility.yul\":3916:3928   */\n  add\n    /* \"#utility.yul\":3909:3928   */\n  swap1\n  pop\n    /* \"#utility.yul\":3568:3934   */\n  swap2\n  swap1\n  pop\n  jump\t// out\n    /* \"#utility.yul\":3940:4359   */\ntag_11:\n    /* \"#utility.yul\":4106:4110   */\n  0x00\n    /* \"#utility.yul\":4144:4146   */\n  0x20\n    /* \"#utility.yul\":4133:4142   */\n  dup3\n    /* \"#utility.yul\":4129:4147   */\n  add\n    /* \"#utility.yul\":4121:4147   */\n  swap1\n  pop\n    /* \"#utility.yul\":4193:4202   */\n  dup2\n    /* \"#utility.yul\":4187:4191   */\n  dup2\n    /* \"#utility.yul\":4183:4203   */\n  sub\n    /* \"#utility.yul\":4179:4180   */\n  0x00\n    /* \"#utility.yul\":4168:4177   */\n  dup4\n    /* \"#utility.yul\":4164:4181   */\n  add\n    /* \"#utility.yul\":4157:4204   */\n  mstore\n    /* \"#utility.yul\":4221:4352   */\n  tag_74\n    /* \"#utility.yul\":4347:4351   */\n  dup2\n    /* \"#utility.yul\":4221:4352   */\n  tag_29\n  jump\t// in\ntag_74:\n    /* \"#utility.yul\":4213:4352   */\n  swap1\n  pop\n    /* \"#utility.yul\":3940:4359   */\n  swap2\n  swap1\n  pop\n  jump\t// out\n    /* \"#utility.yul\":4365:4556   */\ntag_13:\n    /* \"#utility.yul\":4405:4408   */\n  0x00\n    /* \"#utility.yul\":4424:4444   */\n  tag_76\n    /* \"#utility.yul\":4442:4443   */\n  dup3\n    /* \"#utility.yul\":4424:4444   */\n  tag_18\n  jump\t// in\ntag_76:\n    /* \"#utility.yul\":4419:4444   */\n  swap2\n  pop\n    /* \"#utility.yul\":4458:4478   */\n  tag_77\n    /* \"#utility.yul\":4476:4477   */\n  dup4\n    /* \"#utility.yul\":4458:4478   */\n  tag_18\n  jump\t// in\ntag_77:\n    /* \"#utility.yul\":4453:4478   */\n  swap3\n  pop\n    /* \"#utility.yul\":4501:4502   */\n  dup3\n    /* \"#utility.yul\":4498:4499   */\n  dup3\n    /* \"#utility.yul\":4494:4503   */\n  add\n    /* \"#utility.yul\":4487:4503   */\n  swap1\n  pop\n    /* \"#utility.yul\":4522:4525   */\n  dup1\n    /* \"#utility.yul\":4519:4520   */\n  dup3\n    /* \"#utility.yul\":4516:4526   */\n  gt\n    /* \"#utility.yul\":4513:4549   */\n  iszero\n  tag_78\n  jumpi\n    /* \"#utility.yul\":4529:4547   */\n  tag_79\n  tag_26\n  jump\t// in\ntag_79:\n    /* \"#utility.yul\":4513:4549   */\ntag_78:\n    /* \"#utility.yul\":4365:4556   */\n  swap3\n  swap2\n  pop\n  pop\n  jump\t// out\n    /* \"DutchAuction.sol\":196:3138  contract DutchAuction{... */\ntag_14:\n  mload(0x80)\n  mload(0xa0)\n  mload(0xc0)\n  mload(0xe0)\n  mload(0x0100)\n  mload(0x0120)\n  codecopy(0x00, dataOffset(sub_0), dataSize(sub_0))\n  0x00\n  assignImmutable(\"0x7749cc8014201da2069c21d93ba99c584b6f62d393fde534ed47eac227e31561\")\n  0x00\n  assignImmutable(\"0x58a280f74f57bf051c40f060139dc747e015be52f68c57e2c4ab2e4bd4146f43\")\n  0x00\n  assignImmutable(\"0xd4d1a59767271eefdc7830a772b9732a11d503531d972ab8c981a6b1c0e666e5\")\n  0x00\n  assignImmutable(\"0x731dc163f73d31d8c68f9917ce4ff967753939f70432973c04fd2c2a48148607\")\n  0x00\n  assignImmutable(\"0x8fef2229291b68be841adf029e58b87f39ba144b2d3b0af1760243d0a9bc6a1c\")\n  0x00\n  assignImmutable(\"0x277ab82e5a4641341820a4a2933a62c1de997e42e92548657ae21b3728d580fe\")\n  return(0x00, dataSize(sub_0))\nstop\n\nsub_0: assembly {\n        /* \"DutchAuction.sol\":196:3138  contract DutchAuction{... */\n      mstore(0x40, 0x80)\n      jumpi(tag_1, lt(calldatasize, 0x04))\n      shr(0xe0, calldataload(0x00))\n      dup1\n      0xaf468682\n      gt\n      tag_14\n      jumpi\n      dup1\n      0xaf468682\n      eq\n      tag_8\n      jumpi\n      dup1\n      0xc6bc5182\n      eq\n      tag_9\n      jumpi\n      dup1\n      0xd6fbf202\n      eq\n      tag_10\n      jumpi\n      dup1\n      0xe6c0e6d5\n      eq\n      tag_11\n      jumpi\n      dup1\n      0xe852e741\n      eq\n      tag_12\n      jumpi\n      dup1\n      0xeb91d37e\n      eq\n      tag_13\n      jumpi\n      jump(tag_2)\n    tag_14:\n      dup1\n      0x08551a53\n      eq\n      tag_3\n      jumpi\n      dup1\n      0x47ccca02\n      eq\n      tag_4\n      jumpi\n      dup1\n      0x5bf3c518\n      eq\n      tag_5\n      jumpi\n      dup1\n      0x8622a689\n      eq\n      tag_6\n      jumpi\n      dup1\n      0xa6f2ae3a\n      eq\n      tag_7\n      jumpi\n      jump(tag_2)\n    tag_1:\n      jumpi(tag_2, calldatasize)\n      stop\n    tag_2:\n      0x00\n      dup1\n      revert\n        /* \"DutchAuction.sol\":634:665  address public immutable seller */\n    tag_3:\n      callvalue\n      dup1\n      iszero\n      tag_17\n      jumpi\n      0x00\n      dup1\n      revert\n    tag_17:\n      pop\n      tag_18\n      tag_19\n      jump\t// in\n    tag_18:\n      mload(0x40)\n      tag_20\n      swap2\n      swap1\n      tag_21\n      jump\t// in\n    tag_20:\n      mload(0x40)\n      dup1\n      swap2\n      sub\n      swap1\n      return\n        /* \"DutchAuction.sol\":574:593  IERC721 public  nft */\n    tag_4:\n      callvalue\n      dup1\n      iszero\n      tag_22\n      jumpi\n      0x00\n      dup1\n      revert\n    tag_22:\n      pop\n      tag_23\n      tag_24\n      jump\t// in\n    tag_23:\n      mload(0x40)\n      tag_25\n      swap2\n      swap1\n      tag_26\n      jump\t// in\n    tag_25:\n      mload(0x40)\n      dup1\n      swap2\n      sub\n      swap1\n      return\n        /* \"DutchAuction.sol\":672:699  address public currentBuyer */\n    tag_5:\n      callvalue\n      dup1\n      iszero\n      tag_27\n      jumpi\n      0x00\n      dup1\n      revert\n    tag_27:\n      pop\n      tag_28\n      tag_29\n      jump\t// in\n    tag_28:\n      mload(0x40)\n      tag_30\n      swap2\n      swap1\n      tag_21\n      jump\t// in\n    tag_30:\n      mload(0x40)\n      dup1\n      swap2\n      sub\n      swap1\n      return\n        /* \"DutchAuction.sol\":398:429  uint public immutable expiresAt */\n    tag_6:\n      callvalue\n      dup1\n      iszero\n      tag_31\n      jumpi\n      0x00\n      dup1\n      revert\n    tag_31:\n      pop\n      tag_32\n      tag_33\n      jump\t// in\n    tag_32:\n      mload(0x40)\n      tag_34\n      swap2\n      swap1\n      tag_35\n      jump\t// in\n    tag_34:\n      mload(0x40)\n      dup1\n      swap2\n      sub\n      swap1\n      return\n        /* \"DutchAuction.sol\":1906:3131  function buy() external  payable {... */\n    tag_7:\n      tag_36\n      tag_37\n      jump\t// in\n    tag_36:\n      stop\n        /* \"DutchAuction.sol\":339:369  uint public immutable startsAt */\n    tag_8:\n      callvalue\n      dup1\n      iszero\n      tag_38\n      jumpi\n      0x00\n      dup1\n      revert\n    tag_38:\n      pop\n      tag_39\n      tag_40\n      jump\t// in\n    tag_39:\n      mload(0x40)\n      tag_41\n      swap2\n      swap1\n      tag_35\n      jump\t// in\n    tag_41:\n      mload(0x40)\n      dup1\n      swap2\n      sub\n      swap1\n      return\n        /* \"DutchAuction.sol\":600:627  uint public immutable nftId */\n    tag_9:\n      callvalue\n      dup1\n      iszero\n      tag_42\n      jumpi\n      0x00\n      dup1\n      revert\n    tag_42:\n      pop\n      tag_43\n      tag_44\n      jump\t// in\n    tag_43:\n      mload(0x40)\n      tag_45\n      swap2\n      swap1\n      tag_35\n      jump\t// in\n    tag_45:\n      mload(0x40)\n      dup1\n      swap2\n      sub\n      swap1\n      return\n        /* \"DutchAuction.sol\":436:471  uint public immutable startingPrice */\n    tag_10:\n      callvalue\n      dup1\n      iszero\n      tag_46\n      jumpi\n      0x00\n      dup1\n      revert\n    tag_46:\n      pop\n      tag_47\n      tag_48\n      jump\t// in\n    tag_47:\n      mload(0x40)\n      tag_49\n      swap2\n      swap1\n      tag_35\n      jump\t// in\n    tag_49:\n      mload(0x40)\n      dup1\n      swap2\n      sub\n      swap1\n      return\n        /* \"DutchAuction.sol\":492:526  uint public immutable discountRate */\n    tag_11:\n      callvalue\n      dup1\n      iszero\n      tag_50\n      jumpi\n      0x00\n      dup1\n      revert\n    tag_50:\n      pop\n      tag_51\n      tag_52\n      jump\t// in\n    tag_51:\n      mload(0x40)\n      tag_53\n      swap2\n      swap1\n      tag_35\n      jump\t// in\n    tag_53:\n      mload(0x40)\n      dup1\n      swap2\n      sub\n      swap1\n      return\n        /* \"DutchAuction.sol\":706:724  bool public isSold */\n    tag_12:\n      callvalue\n      dup1\n      iszero\n      tag_54\n      jumpi\n      0x00\n      dup1\n      revert\n    tag_54:\n      pop\n      tag_55\n      tag_56\n      jump\t// in\n    tag_55:\n      mload(0x40)\n      tag_57\n      swap2\n      swap1\n      tag_58\n      jump\t// in\n    tag_57:\n      mload(0x40)\n      dup1\n      swap2\n      sub\n      swap1\n      return\n        /* \"DutchAuction.sol\":1723:1900  function getCurrentPrice() public  view returns(uint){... */\n    tag_13:\n      callvalue\n      dup1\n      iszero\n      tag_59\n      jumpi\n      0x00\n      dup1\n      revert\n    tag_59:\n      pop\n      tag_60\n      tag_61\n      jump\t// in\n    tag_60:\n      mload(0x40)\n      tag_62\n      swap2\n      swap1\n      tag_35\n      jump\t// in\n    tag_62:\n      mload(0x40)\n      dup1\n      swap2\n      sub\n      swap1\n      return\n        /* \"DutchAuction.sol\":634:665  address public immutable seller */\n    tag_19:\n      immutable(\"0x7749cc8014201da2069c21d93ba99c584b6f62d393fde534ed47eac227e31561\")\n      dup2\n      jump\t// out\n        /* \"DutchAuction.sol\":574:593  IERC721 public  nft */\n    tag_24:\n      0x00\n      dup1\n      sload\n      swap1\n      0x0100\n      exp\n      swap1\n      div\n      0xffffffffffffffffffffffffffffffffffffffff\n      and\n      dup2\n      jump\t// out\n        /* \"DutchAuction.sol\":672:699  address public currentBuyer */\n    tag_29:\n      0x01\n      0x00\n      swap1\n      sload\n      swap1\n      0x0100\n      exp\n      swap1\n      div\n      0xffffffffffffffffffffffffffffffffffffffff\n      and\n      dup2\n      jump\t// out\n        /* \"DutchAuction.sol\":398:429  uint public immutable expiresAt */\n    tag_33:\n      immutable(\"0x8fef2229291b68be841adf029e58b87f39ba144b2d3b0af1760243d0a9bc6a1c\")\n      dup2\n      jump\t// out\n        /* \"DutchAuction.sol\":1906:3131  function buy() external  payable {... */\n    tag_37:\n        /* \"DutchAuction.sol\":2035:2044  expiresAt */\n      immutable(\"0x8fef2229291b68be841adf029e58b87f39ba144b2d3b0af1760243d0a9bc6a1c\")\n        /* \"DutchAuction.sol\":2016:2031  block.timestamp */\n      timestamp\n        /* \"DutchAuction.sol\":2016:2044  block.timestamp <= expiresAt */\n      gt\n      iszero\n        /* \"DutchAuction.sol\":2008:2068  require(block.timestamp <= expiresAt, \"auction has expired\") */\n      tag_64\n      jumpi\n      mload(0x40)\n      0x08c379a000000000000000000000000000000000000000000000000000000000\n      dup2\n      mstore\n      0x04\n      add\n      tag_65\n      swap1\n      tag_66\n      jump\t// in\n    tag_65:\n      mload(0x40)\n      dup1\n      swap2\n      sub\n      swap1\n      revert\n    tag_64:\n        /* \"DutchAuction.sol\":2088:2094  isSold */\n      0x01\n      0x14\n      swap1\n      sload\n      swap1\n      0x0100\n      exp\n      swap1\n      div\n      0xff\n      and\n        /* \"DutchAuction.sol\":2087:2094  !isSold */\n      iszero\n        /* \"DutchAuction.sol\":2079:2116  require(!isSold, \"nft has been sold\") */\n      tag_67\n      jumpi\n      mload(0x40)\n      0x08c379a000000000000000000000000000000000000000000000000000000000\n      dup2\n      mstore\n      0x04\n      add\n      tag_68\n      swap1\n      tag_69\n      jump\t// in\n    tag_68:\n      mload(0x40)\n      dup1\n      swap2\n      sub\n      swap1\n      revert\n    tag_67:\n        /* \"DutchAuction.sol\":2129:2144  uint buyerMoney */\n      0x00\n        /* \"DutchAuction.sol\":2147:2156  msg.value */\n      callvalue\n        /* \"DutchAuction.sol\":2129:2156  uint buyerMoney = msg.value */\n      swap1\n      pop\n        /* \"DutchAuction.sol\":2167:2180  uint curPrice */\n      0x00\n        /* \"DutchAuction.sol\":2183:2200  getCurrentPrice() */\n      tag_70\n        /* \"DutchAuction.sol\":2183:2198  getCurrentPrice */\n      tag_61\n        /* \"DutchAuction.sol\":2183:2200  getCurrentPrice() */\n      jump\t// in\n    tag_70:\n        /* \"DutchAuction.sol\":2167:2200  uint curPrice = getCurrentPrice() */\n      swap1\n      pop\n        /* \"DutchAuction.sol\":2233:2241  curPrice */\n      dup1\n        /* \"DutchAuction.sol\":2219:2229  buyerMoney */\n      dup3\n        /* \"DutchAuction.sol\":2219:2241  buyerMoney >= curPrice */\n      lt\n      iszero\n        /* \"DutchAuction.sol\":2211:2267  require(buyerMoney >= curPrice, \"not enough ETH to buy\") */\n      tag_71\n      jumpi\n      mload(0x40)\n      0x08c379a000000000000000000000000000000000000000000000000000000000\n      dup2\n      mstore\n      0x04\n      add\n      tag_72\n      swap1\n      tag_73\n      jump\t// in\n    tag_72:\n      mload(0x40)\n      dup1\n      swap2\n      sub\n      swap1\n      revert\n    tag_71:\n        /* \"DutchAuction.sol\":2293:2303  msg.sender */\n      caller\n        /* \"DutchAuction.sol\":2278:2290  currentBuyer */\n      0x01\n      0x00\n        /* \"DutchAuction.sol\":2278:2303  currentBuyer = msg.sender */\n      0x0100\n      exp\n      dup2\n      sload\n      dup2\n      0xffffffffffffffffffffffffffffffffffffffff\n      mul\n      not\n      and\n      swap1\n      dup4\n      0xffffffffffffffffffffffffffffffffffffffff\n      and\n      mul\n      or\n      swap1\n      sstore\n      pop\n        /* \"DutchAuction.sol\":2326:2329  nft */\n      0x00\n      dup1\n      sload\n      swap1\n      0x0100\n      exp\n      swap1\n      div\n      0xffffffffffffffffffffffffffffffffffffffff\n      and\n        /* \"DutchAuction.sol\":2326:2342  nft.transferFrom */\n      0xffffffffffffffffffffffffffffffffffffffff\n      and\n      0x23b872dd\n        /* \"DutchAuction.sol\":2343:2349  seller */\n      immutable(\"0x7749cc8014201da2069c21d93ba99c584b6f62d393fde534ed47eac227e31561\")\n        /* \"DutchAuction.sol\":2351:2361  msg.sender */\n      caller\n        /* \"DutchAuction.sol\":2363:2368  nftId */\n      immutable(\"0x58a280f74f57bf051c40f060139dc747e015be52f68c57e2c4ab2e4bd4146f43\")\n        /* \"DutchAuction.sol\":2326:2369  nft.transferFrom(seller, msg.sender, nftId) */\n      mload(0x40)\n      dup5\n      0xffffffff\n      and\n      0xe0\n      shl\n      dup2\n      mstore\n      0x04\n      add\n      tag_74\n      swap4\n      swap3\n      swap2\n      swap1\n      tag_75\n      jump\t// in\n    tag_74:\n      0x00\n      mload(0x40)\n      dup1\n      dup4\n      sub\n      dup2\n      0x00\n      dup8\n      dup1\n      extcodesize\n      iszero\n      dup1\n      iszero\n      tag_76\n      jumpi\n      0x00\n      dup1\n      revert\n    tag_76:\n      pop\n      gas\n      call\n      iszero\n      dup1\n      iszero\n      tag_78\n      jumpi\n      returndatasize\n      0x00\n      dup1\n      returndatacopy\n      revert(0x00, returndatasize)\n    tag_78:\n      pop\n      pop\n      pop\n      pop\n        /* \"DutchAuction.sol\":2833:2844  uint refund */\n      0x00\n        /* \"DutchAuction.sol\":2860:2868  curPrice */\n      dup2\n        /* \"DutchAuction.sol\":2847:2857  buyerMoney */\n      dup4\n        /* \"DutchAuction.sol\":2847:2868  buyerMoney - curPrice */\n      tag_79\n      swap2\n      swap1\n      tag_80\n      jump\t// in\n    tag_79:\n        /* \"DutchAuction.sol\":2833:2868  uint refund = buyerMoney - curPrice */\n      swap1\n      pop\n        /* \"DutchAuction.sol\":2891:2892  0 */\n      0x00\n        /* \"DutchAuction.sol\":2882:2888  refund */\n      dup2\n        /* \"DutchAuction.sol\":2882:2892  refund > 0 */\n      gt\n        /* \"DutchAuction.sol\":2879:2993  if(refund > 0){... */\n      iszero\n      tag_81\n      jumpi\n        /* \"DutchAuction.sol\":2916:2926  msg.sender */\n      caller\n        /* \"DutchAuction.sol\":2908:2936  payable(msg.sender).transfer */\n      0xffffffffffffffffffffffffffffffffffffffff\n      and\n        /* \"DutchAuction.sol\":2908:2944  payable(msg.sender).transfer(refund) */\n      0x08fc\n        /* \"DutchAuction.sol\":2937:2943  refund */\n      dup3\n        /* \"DutchAuction.sol\":2908:2944  payable(msg.sender).transfer(refund) */\n      swap1\n      dup2\n      iszero\n      mul\n      swap1\n      mload(0x40)\n      0x00\n      mload(0x40)\n      dup1\n      dup4\n      sub\n      dup2\n      dup6\n      dup9\n      dup9\n      call\n      swap4\n      pop\n      pop\n      pop\n      pop\n      iszero\n      dup1\n      iszero\n      tag_83\n      jumpi\n      returndatasize\n      0x00\n      dup1\n      returndatacopy\n      revert(0x00, returndatasize)\n    tag_83:\n      pop\n        /* \"DutchAuction.sol\":2879:2993  if(refund > 0){... */\n    tag_81:\n        /* \"DutchAuction.sol\":3012:3016  true */\n      0x01\n        /* \"DutchAuction.sol\":3003:3009  isSold */\n      dup1\n      0x14\n        /* \"DutchAuction.sol\":3003:3016  isSold = true */\n      0x0100\n      exp\n      dup2\n      sload\n      dup2\n      0xff\n      mul\n      not\n      and\n      swap1\n      dup4\n      iszero\n      iszero\n      mul\n      or\n      swap1\n      sstore\n      pop\n        /* \"DutchAuction.sol\":3032:3060  debugInfo(msg.value, refund) */\n      0x45b742c48fb8553be82191015da224595235c234b7a74985da4298ef792b6d1a\n        /* \"DutchAuction.sol\":3042:3051  msg.value */\n      callvalue\n        /* \"DutchAuction.sol\":3053:3059  refund */\n      dup3\n        /* \"DutchAuction.sol\":3032:3060  debugInfo(msg.value, refund) */\n      mload(0x40)\n      tag_84\n      swap3\n      swap2\n      swap1\n      tag_85\n      jump\t// in\n    tag_84:\n      mload(0x40)\n      dup1\n      swap2\n      sub\n      swap1\n      log1\n        /* \"DutchAuction.sol\":3076:3113  DealDone(msg.sender, curPrice, nftId) */\n      0x4727ffe484377b131981193ecf4914647219409c0c7a0721fdf1cb2c64deb4ca\n        /* \"DutchAuction.sol\":3085:3095  msg.sender */\n      caller\n        /* \"DutchAuction.sol\":3097:3105  curPrice */\n      dup4\n        /* \"DutchAuction.sol\":3107:3112  nftId */\n      immutable(\"0x58a280f74f57bf051c40f060139dc747e015be52f68c57e2c4ab2e4bd4146f43\")\n        /* \"DutchAuction.sol\":3076:3113  DealDone(msg.sender, curPrice, nftId) */\n      mload(0x40)\n      tag_86\n      swap4\n      swap3\n      swap2\n      swap1\n      tag_87\n      jump\t// in\n    tag_86:\n      mload(0x40)\n      dup1\n      swap2\n      sub\n      swap1\n      log1\n        /* \"DutchAuction.sol\":1939:3131  {... */\n      pop\n      pop\n      pop\n        /* \"DutchAuction.sol\":1906:3131  function buy() external  payable {... */\n      jump\t// out\n        /* \"DutchAuction.sol\":339:369  uint public immutable startsAt */\n    tag_40:\n      immutable(\"0x277ab82e5a4641341820a4a2933a62c1de997e42e92548657ae21b3728d580fe\")\n      dup2\n      jump\t// out\n        /* \"DutchAuction.sol\":600:627  uint public immutable nftId */\n    tag_44:\n      immutable(\"0x58a280f74f57bf051c40f060139dc747e015be52f68c57e2c4ab2e4bd4146f43\")\n      dup2\n      jump\t// out\n        /* \"DutchAuction.sol\":436:471  uint public immutable startingPrice */\n    tag_48:\n      immutable(\"0x731dc163f73d31d8c68f9917ce4ff967753939f70432973c04fd2c2a48148607\")\n      dup2\n      jump\t// out\n        /* \"DutchAuction.sol\":492:526  uint public immutable discountRate */\n    tag_52:\n      immutable(\"0xd4d1a59767271eefdc7830a772b9732a11d503531d972ab8c981a6b1c0e666e5\")\n      dup2\n      jump\t// out\n        /* \"DutchAuction.sol\":706:724  bool public isSold */\n    tag_56:\n      0x01\n      0x14\n      swap1\n      sload\n      swap1\n      0x0100\n      exp\n      swap1\n      div\n      0xff\n      and\n      dup2\n      jump\t// out\n        /* \"DutchAuction.sol\":1723:1900  function getCurrentPrice() public  view returns(uint){... */\n    tag_61:\n        /* \"DutchAuction.sol\":1771:1775  uint */\n      0x00\n        /* \"DutchAuction.sol\":1787:1803  uint elapsedTime */\n      dup1\n        /* \"DutchAuction.sol\":1824:1832  startsAt */\n      immutable(\"0x277ab82e5a4641341820a4a2933a62c1de997e42e92548657ae21b3728d580fe\")\n        /* \"DutchAuction.sol\":1806:1821  block.timestamp */\n      timestamp\n        /* \"DutchAuction.sol\":1806:1832  block.timestamp - startsAt */\n      tag_89\n      swap2\n      swap1\n      tag_80\n      jump\t// in\n    tag_89:\n        /* \"DutchAuction.sol\":1787:1832  uint elapsedTime = block.timestamp - startsAt */\n      swap1\n      pop\n        /* \"DutchAuction.sol\":1881:1892  elapsedTime */\n      dup1\n        /* \"DutchAuction.sol\":1866:1878  discountRate */\n      immutable(\"0xd4d1a59767271eefdc7830a772b9732a11d503531d972ab8c981a6b1c0e666e5\")\n        /* \"DutchAuction.sol\":1866:1892  discountRate * elapsedTime */\n      tag_90\n      swap2\n      swap1\n      tag_91\n      jump\t// in\n    tag_90:\n        /* \"DutchAuction.sol\":1850:1863  startingPrice */\n      immutable(\"0x731dc163f73d31d8c68f9917ce4ff967753939f70432973c04fd2c2a48148607\")\n        /* \"DutchAuction.sol\":1850:1892  startingPrice - discountRate * elapsedTime */\n      tag_92\n      swap2\n      swap1\n      tag_80\n      jump\t// in\n    tag_92:\n        /* \"DutchAuction.sol\":1843:1892  return startingPrice - discountRate * elapsedTime */\n      swap2\n      pop\n      pop\n        /* \"DutchAuction.sol\":1723:1900  function getCurrentPrice() public  view returns(uint){... */\n      swap1\n      jump\t// out\n        /* \"#utility.yul\":7:133   */\n    tag_93:\n        /* \"#utility.yul\":44:51   */\n      0x00\n        /* \"#utility.yul\":84:126   */\n      0xffffffffffffffffffffffffffffffffffffffff\n        /* \"#utility.yul\":77:82   */\n      dup3\n        /* \"#utility.yul\":73:127   */\n      and\n        /* \"#utility.yul\":62:127   */\n      swap1\n      pop\n        /* \"#utility.yul\":7:133   */\n      swap2\n      swap1\n      pop\n      jump\t// out\n        /* \"#utility.yul\":139:235   */\n    tag_94:\n        /* \"#utility.yul\":176:183   */\n      0x00\n        /* \"#utility.yul\":205:229   */\n      tag_116\n        /* \"#utility.yul\":223:228   */\n      dup3\n        /* \"#utility.yul\":205:229   */\n      tag_93\n      jump\t// in\n    tag_116:\n        /* \"#utility.yul\":194:229   */\n      swap1\n      pop\n        /* \"#utility.yul\":139:235   */\n      swap2\n      swap1\n      pop\n      jump\t// out\n        /* \"#utility.yul\":241:359   */\n    tag_95:\n        /* \"#utility.yul\":328:352   */\n      tag_118\n        /* \"#utility.yul\":346:351   */\n      dup2\n        /* \"#utility.yul\":328:352   */\n      tag_94\n      jump\t// in\n    tag_118:\n        /* \"#utility.yul\":323:326   */\n      dup3\n        /* \"#utility.yul\":316:353   */\n      mstore\n        /* \"#utility.yul\":241:359   */\n      pop\n      pop\n      jump\t// out\n        /* \"#utility.yul\":365:587   */\n    tag_21:\n        /* \"#utility.yul\":458:462   */\n      0x00\n        /* \"#utility.yul\":496:498   */\n      0x20\n        /* \"#utility.yul\":485:494   */\n      dup3\n        /* \"#utility.yul\":481:499   */\n      add\n        /* \"#utility.yul\":473:499   */\n      swap1\n      pop\n        /* \"#utility.yul\":509:580   */\n      tag_120\n        /* \"#utility.yul\":577:578   */\n      0x00\n        /* \"#utility.yul\":566:575   */\n      dup4\n        /* \"#utility.yul\":562:579   */\n      add\n        /* \"#utility.yul\":553:559   */\n      dup5\n        /* \"#utility.yul\":509:580   */\n      tag_95\n      jump\t// in\n    tag_120:\n        /* \"#utility.yul\":365:587   */\n      swap3\n      swap2\n      pop\n      pop\n      jump\t// out\n        /* \"#utility.yul\":593:653   */\n    tag_96:\n        /* \"#utility.yul\":621:624   */\n      0x00\n        /* \"#utility.yul\":642:647   */\n      dup2\n        /* \"#utility.yul\":635:647   */\n      swap1\n      pop\n        /* \"#utility.yul\":593:653   */\n      swap2\n      swap1\n      pop\n      jump\t// out\n        /* \"#utility.yul\":659:801   */\n    tag_97:\n        /* \"#utility.yul\":709:718   */\n      0x00\n        /* \"#utility.yul\":742:795   */\n      tag_123\n        /* \"#utility.yul\":760:794   */\n      tag_124\n        /* \"#utility.yul\":769:793   */\n      tag_125\n        /* \"#utility.yul\":787:792   */\n      dup5\n        /* \"#utility.yul\":769:793   */\n      tag_93\n      jump\t// in\n    tag_125:\n        /* \"#utility.yul\":760:794   */\n      tag_96\n      jump\t// in\n    tag_124:\n        /* \"#utility.yul\":742:795   */\n      tag_93\n      jump\t// in\n    tag_123:\n        /* \"#utility.yul\":729:795   */\n      swap1\n      pop\n        /* \"#utility.yul\":659:801   */\n      swap2\n      swap1\n      pop\n      jump\t// out\n        /* \"#utility.yul\":807:933   */\n    tag_98:\n        /* \"#utility.yul\":857:866   */\n      0x00\n        /* \"#utility.yul\":890:927   */\n      tag_127\n        /* \"#utility.yul\":921:926   */\n      dup3\n        /* \"#utility.yul\":890:927   */\n      tag_97\n      jump\t// in\n    tag_127:\n        /* \"#utility.yul\":877:927   */\n      swap1\n      pop\n        /* \"#utility.yul\":807:933   */\n      swap2\n      swap1\n      pop\n      jump\t// out\n        /* \"#utility.yul\":939:1079   */\n    tag_99:\n        /* \"#utility.yul\":1003:1012   */\n      0x00\n        /* \"#utility.yul\":1036:1073   */\n      tag_129\n        /* \"#utility.yul\":1067:1072   */\n      dup3\n        /* \"#utility.yul\":1036:1073   */\n      tag_98\n      jump\t// in\n    tag_129:\n        /* \"#utility.yul\":1023:1073   */\n      swap1\n      pop\n        /* \"#utility.yul\":939:1079   */\n      swap2\n      swap1\n      pop\n      jump\t// out\n        /* \"#utility.yul\":1085:1244   */\n    tag_100:\n        /* \"#utility.yul\":1186:1237   */\n      tag_131\n        /* \"#utility.yul\":1231:1236   */\n      dup2\n        /* \"#utility.yul\":1186:1237   */\n      tag_99\n      jump\t// in\n    tag_131:\n        /* \"#utility.yul\":1181:1184   */\n      dup3\n        /* \"#utility.yul\":1174:1238   */\n      mstore\n        /* \"#utility.yul\":1085:1244   */\n      pop\n      pop\n      jump\t// out\n        /* \"#utility.yul\":1250:1500   */\n    tag_26:\n        /* \"#utility.yul\":1357:1361   */\n      0x00\n        /* \"#utility.yul\":1395:1397   */\n      0x20\n        /* \"#utility.yul\":1384:1393   */\n      dup3\n        /* \"#utility.yul\":1380:1398   */\n      add\n        /* \"#utility.yul\":1372:1398   */\n      swap1\n      pop\n        /* \"#utility.yul\":1408:1493   */\n      tag_133\n        /* \"#utility.yul\":1490:1491   */\n      0x00\n        /* \"#utility.yul\":1479:1488   */\n      dup4\n        /* \"#utility.yul\":1475:1492   */\n      add\n        /* \"#utility.yul\":1466:1472   */\n      dup5\n        /* \"#utility.yul\":1408:1493   */\n      tag_100\n      jump\t// in\n    tag_133:\n        /* \"#utility.yul\":1250:1500   */\n      swap3\n      swap2\n      pop\n      pop\n      jump\t// out\n        /* \"#utility.yul\":1506:1583   */\n    tag_101:\n        /* \"#utility.yul\":1543:1550   */\n      0x00\n        /* \"#utility.yul\":1572:1577   */\n      dup2\n        /* \"#utility.yul\":1561:1577   */\n      swap1\n      pop\n        /* \"#utility.yul\":1506:1583   */\n      swap2\n      swap1\n      pop\n      jump\t// out\n        /* \"#utility.yul\":1589:1707   */\n    tag_102:\n        /* \"#utility.yul\":1676:1700   */\n      tag_136\n        /* \"#utility.yul\":1694:1699   */\n      dup2\n        /* \"#utility.yul\":1676:1700   */\n      tag_101\n      jump\t// in\n    tag_136:\n        /* \"#utility.yul\":1671:1674   */\n      dup3\n        /* \"#utility.yul\":1664:1701   */\n      mstore\n        /* \"#utility.yul\":1589:1707   */\n      pop\n      pop\n      jump\t// out\n        /* \"#utility.yul\":1713:1935   */\n    tag_35:\n        /* \"#utility.yul\":1806:1810   */\n      0x00\n        /* \"#utility.yul\":1844:1846   */\n      0x20\n        /* \"#utility.yul\":1833:1842   */\n      dup3\n        /* \"#utility.yul\":1829:1847   */\n      add\n        /* \"#utility.yul\":1821:1847   */\n      swap1\n      pop\n        /* \"#utility.yul\":1857:1928   */\n      tag_138\n        /* \"#utility.yul\":1925:1926   */\n      0x00\n        /* \"#utility.yul\":1914:1923   */\n      dup4\n        /* \"#utility.yul\":1910:1927   */\n      add\n        /* \"#utility.yul\":1901:1907   */\n      dup5\n        /* \"#utility.yul\":1857:1928   */\n      tag_102\n      jump\t// in\n    tag_138:\n        /* \"#utility.yul\":1713:1935   */\n      swap3\n      swap2\n      pop\n      pop\n      jump\t// out\n        /* \"#utility.yul\":1941:2031   */\n    tag_103:\n        /* \"#utility.yul\":1975:1982   */\n      0x00\n        /* \"#utility.yul\":2018:2023   */\n      dup2\n        /* \"#utility.yul\":2011:2024   */\n      iszero\n        /* \"#utility.yul\":2004:2025   */\n      iszero\n        /* \"#utility.yul\":1993:2025   */\n      swap1\n      pop\n        /* \"#utility.yul\":1941:2031   */\n      swap2\n      swap1\n      pop\n      jump\t// out\n        /* \"#utility.yul\":2037:2146   */\n    tag_104:\n        /* \"#utility.yul\":2118:2139   */\n      tag_141\n        /* \"#utility.yul\":2133:2138   */\n      dup2\n        /* \"#utility.yul\":2118:2139   */\n      tag_103\n      jump\t// in\n    tag_141:\n        /* \"#utility.yul\":2113:2116   */\n      dup3\n        /* \"#utility.yul\":2106:2140   */\n      mstore\n        /* \"#utility.yul\":2037:2146   */\n      pop\n      pop\n      jump\t// out\n        /* \"#utility.yul\":2152:2362   */\n    tag_58:\n        /* \"#utility.yul\":2239:2243   */\n      0x00\n        /* \"#utility.yul\":2277:2279   */\n      0x20\n        /* \"#utility.yul\":2266:2275   */\n      dup3\n        /* \"#utility.yul\":2262:2280   */\n      add\n        /* \"#utility.yul\":2254:2280   */\n      swap1\n      pop\n        /* \"#utility.yul\":2290:2355   */\n      tag_143\n        /* \"#utility.yul\":2352:2353   */\n      0x00\n        /* \"#utility.yul\":2341:2350   */\n      dup4\n        /* \"#utility.yul\":2337:2354   */\n      add\n        /* \"#utility.yul\":2328:2334   */\n      dup5\n        /* \"#utility.yul\":2290:2355   */\n      tag_104\n      jump\t// in\n    tag_143:\n        /* \"#utility.yul\":2152:2362   */\n      swap3\n      swap2\n      pop\n      pop\n      jump\t// out\n        /* \"#utility.yul\":2368:2537   */\n    tag_105:\n        /* \"#utility.yul\":2452:2463   */\n      0x00\n        /* \"#utility.yul\":2486:2492   */\n      dup3\n        /* \"#utility.yul\":2481:2484   */\n      dup3\n        /* \"#utility.yul\":2474:2493   */\n      mstore\n        /* \"#utility.yul\":2526:2530   */\n      0x20\n        /* \"#utility.yul\":2521:2524   */\n      dup3\n        /* \"#utility.yul\":2517:2531   */\n      add\n        /* \"#utility.yul\":2502:2531   */\n      swap1\n      pop\n        /* \"#utility.yul\":2368:2537   */\n      swap3\n      swap2\n      pop\n      pop\n      jump\t// out\n        /* \"#utility.yul\":2543:2712   */\n    tag_106:\n        /* \"#utility.yul\":2683:2704   */\n      0x61756374696f6e20686173206578706972656400000000000000000000000000\n        /* \"#utility.yul\":2679:2680   */\n      0x00\n        /* \"#utility.yul\":2671:2677   */\n      dup3\n        /* \"#utility.yul\":2667:2681   */\n      add\n        /* \"#utility.yul\":2660:2705   */\n      mstore\n        /* \"#utility.yul\":2543:2712   */\n      pop\n      jump\t// out\n        /* \"#utility.yul\":2718:3084   */\n    tag_107:\n        /* \"#utility.yul\":2860:2863   */\n      0x00\n        /* \"#utility.yul\":2881:2948   */\n      tag_147\n        /* \"#utility.yul\":2945:2947   */\n      0x13\n        /* \"#utility.yul\":2940:2943   */\n      dup4\n        /* \"#utility.yul\":2881:2948   */\n      tag_105\n      jump\t// in\n    tag_147:\n        /* \"#utility.yul\":2874:2948   */\n      swap2\n      pop\n        /* \"#utility.yul\":2957:3050   */\n      tag_148\n        /* \"#utility.yul\":3046:3049   */\n      dup3\n        /* \"#utility.yul\":2957:3050   */\n      tag_106\n      jump\t// in\n    tag_148:\n        /* \"#utility.yul\":3075:3077   */\n      0x20\n        /* \"#utility.yul\":3070:3073   */\n      dup3\n        /* \"#utility.yul\":3066:3078   */\n      add\n        /* \"#utility.yul\":3059:3078   */\n      swap1\n      pop\n        /* \"#utility.yul\":2718:3084   */\n      swap2\n      swap1\n      pop\n      jump\t// out\n        /* \"#utility.yul\":3090:3509   */\n    tag_66:\n        /* \"#utility.yul\":3256:3260   */\n      0x00\n        /* \"#utility.yul\":3294:3296   */\n      0x20\n        /* \"#utility.yul\":3283:3292   */\n      dup3\n        /* \"#utility.yul\":3279:3297   */\n      add\n        /* \"#utility.yul\":3271:3297   */\n      swap1\n      pop\n        /* \"#utility.yul\":3343:3352   */\n      dup2\n        /* \"#utility.yul\":3337:3341   */\n      dup2\n        /* \"#utility.yul\":3333:3353   */\n      sub\n        /* \"#utility.yul\":3329:3330   */\n      0x00\n        /* \"#utility.yul\":3318:3327   */\n      dup4\n        /* \"#utility.yul\":3314:3331   */\n      add\n        /* \"#utility.yul\":3307:3354   */\n      mstore\n        /* \"#utility.yul\":3371:3502   */\n      tag_150\n        /* \"#utility.yul\":3497:3501   */\n      dup2\n        /* \"#utility.yul\":3371:3502   */\n      tag_107\n      jump\t// in\n    tag_150:\n        /* \"#utility.yul\":3363:3502   */\n      swap1\n      pop\n        /* \"#utility.yul\":3090:3509   */\n      swap2\n      swap1\n      pop\n      jump\t// out\n        /* \"#utility.yul\":3515:3682   */\n    tag_108:\n        /* \"#utility.yul\":3655:3674   */\n      0x6e667420686173206265656e20736f6c64000000000000000000000000000000\n        /* \"#utility.yul\":3651:3652   */\n      0x00\n        /* \"#utility.yul\":3643:3649   */\n      dup3\n        /* \"#utility.yul\":3639:3653   */\n      add\n        /* \"#utility.yul\":3632:3675   */\n      mstore\n        /* \"#utility.yul\":3515:3682   */\n      pop\n      jump\t// out\n        /* \"#utility.yul\":3688:4054   */\n    tag_109:\n        /* \"#utility.yul\":3830:3833   */\n      0x00\n        /* \"#utility.yul\":3851:3918   */\n      tag_153\n        /* \"#utility.yul\":3915:3917   */\n      0x11\n        /* \"#utility.yul\":3910:3913   */\n      dup4\n        /* \"#utility.yul\":3851:3918   */\n      tag_105\n      jump\t// in\n    tag_153:\n        /* \"#utility.yul\":3844:3918   */\n      swap2\n      pop\n        /* \"#utility.yul\":3927:4020   */\n      tag_154\n        /* \"#utility.yul\":4016:4019   */\n      dup3\n        /* \"#utility.yul\":3927:4020   */\n      tag_108\n      jump\t// in\n    tag_154:\n        /* \"#utility.yul\":4045:4047   */\n      0x20\n        /* \"#utility.yul\":4040:4043   */\n      dup3\n        /* \"#utility.yul\":4036:4048   */\n      add\n        /* \"#utility.yul\":4029:4048   */\n      swap1\n      pop\n        /* \"#utility.yul\":3688:4054   */\n      swap2\n      swap1\n      pop\n      jump\t// out\n        /* \"#utility.yul\":4060:4479   */\n    tag_69:\n        /* \"#utility.yul\":4226:4230   */\n      0x00\n        /* \"#utility.yul\":4264:4266   */\n      0x20\n        /* \"#utility.yul\":4253:4262   */\n      dup3\n        /* \"#utility.yul\":4249:4267   */\n      add\n        /* \"#utility.yul\":4241:4267   */\n      swap1\n      pop\n        /* \"#utility.yul\":4313:4322   */\n      dup2\n        /* \"#utility.yul\":4307:4311   */\n      dup2\n        /* \"#utility.yul\":4303:4323   */\n      sub\n        /* \"#utility.yul\":4299:4300   */\n      0x00\n        /* \"#utility.yul\":4288:4297   */\n      dup4\n        /* \"#utility.yul\":4284:4301   */\n      add\n        /* \"#utility.yul\":4277:4324   */\n      mstore\n        /* \"#utility.yul\":4341:4472   */\n      tag_156\n        /* \"#utility.yul\":4467:4471   */\n      dup2\n        /* \"#utility.yul\":4341:4472   */\n      tag_109\n      jump\t// in\n    tag_156:\n        /* \"#utility.yul\":4333:4472   */\n      swap1\n      pop\n        /* \"#utility.yul\":4060:4479   */\n      swap2\n      swap1\n      pop\n      jump\t// out\n        /* \"#utility.yul\":4485:4656   */\n    tag_110:\n        /* \"#utility.yul\":4625:4648   */\n      0x6e6f7420656e6f7567682045544820746f206275790000000000000000000000\n        /* \"#utility.yul\":4621:4622   */\n      0x00\n        /* \"#utility.yul\":4613:4619   */\n      dup3\n        /* \"#utility.yul\":4609:4623   */\n      add\n        /* \"#utility.yul\":4602:4649   */\n      mstore\n        /* \"#utility.yul\":4485:4656   */\n      pop\n      jump\t// out\n        /* \"#utility.yul\":4662:5028   */\n    tag_111:\n        /* \"#utility.yul\":4804:4807   */\n      0x00\n        /* \"#utility.yul\":4825:4892   */\n      tag_159\n        /* \"#utility.yul\":4889:4891   */\n      0x15\n        /* \"#utility.yul\":4884:4887   */\n      dup4\n        /* \"#utility.yul\":4825:4892   */\n      tag_105\n      jump\t// in\n    tag_159:\n        /* \"#utility.yul\":4818:4892   */\n      swap2\n      pop\n        /* \"#utility.yul\":4901:4994   */\n      tag_160\n        /* \"#utility.yul\":4990:4993   */\n      dup3\n        /* \"#utility.yul\":4901:4994   */\n      tag_110\n      jump\t// in\n    tag_160:\n        /* \"#utility.yul\":5019:5021   */\n      0x20\n        /* \"#utility.yul\":5014:5017   */\n      dup3\n        /* \"#utility.yul\":5010:5022   */\n      add\n        /* \"#utility.yul\":5003:5022   */\n      swap1\n      pop\n        /* \"#utility.yul\":4662:5028   */\n      swap2\n      swap1\n      pop\n      jump\t// out\n        /* \"#utility.yul\":5034:5453   */\n    tag_73:\n        /* \"#utility.yul\":5200:5204   */\n      0x00\n        /* \"#utility.yul\":5238:5240   */\n      0x20\n        /* \"#utility.yul\":5227:5236   */\n      dup3\n        /* \"#utility.yul\":5223:5241   */\n      add\n        /* \"#utility.yul\":5215:5241   */\n      swap1\n      pop\n        /* \"#utility.yul\":5287:5296   */\n      dup2\n        /* \"#utility.yul\":5281:5285   */\n      dup2\n        /* \"#utility.yul\":5277:5297   */\n      sub\n        /* \"#utility.yul\":5273:5274   */\n      0x00\n        /* \"#utility.yul\":5262:5271   */\n      dup4\n        /* \"#utility.yul\":5258:5275   */\n      add\n        /* \"#utility.yul\":5251:5298   */\n      mstore\n        /* \"#utility.yul\":5315:5446   */\n      tag_162\n        /* \"#utility.yul\":5441:5445   */\n      dup2\n        /* \"#utility.yul\":5315:5446   */\n      tag_111\n      jump\t// in\n    tag_162:\n        /* \"#utility.yul\":5307:5446   */\n      swap1\n      pop\n        /* \"#utility.yul\":5034:5453   */\n      swap2\n      swap1\n      pop\n      jump\t// out\n        /* \"#utility.yul\":5459:5901   */\n    tag_75:\n        /* \"#utility.yul\":5608:5612   */\n      0x00\n        /* \"#utility.yul\":5646:5648   */\n      0x60\n        /* \"#utility.yul\":5635:5644   */\n      dup3\n        /* \"#utility.yul\":5631:5649   */\n      add\n        /* \"#utility.yul\":5623:5649   */\n      swap1\n      pop\n        /* \"#utility.yul\":5659:5730   */\n      tag_164\n        /* \"#utility.yul\":5727:5728   */\n      0x00\n        /* \"#utility.yul\":5716:5725   */\n      dup4\n        /* \"#utility.yul\":5712:5729   */\n      add\n        /* \"#utility.yul\":5703:5709   */\n      dup7\n        /* \"#utility.yul\":5659:5730   */\n      tag_95\n      jump\t// in\n    tag_164:\n        /* \"#utility.yul\":5740:5812   */\n      tag_165\n        /* \"#utility.yul\":5808:5810   */\n      0x20\n        /* \"#utility.yul\":5797:5806   */\n      dup4\n        /* \"#utility.yul\":5793:5811   */\n      add\n        /* \"#utility.yul\":5784:5790   */\n      dup6\n        /* \"#utility.yul\":5740:5812   */\n      tag_95\n      jump\t// in\n    tag_165:\n        /* \"#utility.yul\":5822:5894   */\n      tag_166\n        /* \"#utility.yul\":5890:5892   */\n      0x40\n        /* \"#utility.yul\":5879:5888   */\n      dup4\n        /* \"#utility.yul\":5875:5893   */\n      add\n        /* \"#utility.yul\":5866:5872   */\n      dup5\n        /* \"#utility.yul\":5822:5894   */\n      tag_102\n      jump\t// in\n    tag_166:\n        /* \"#utility.yul\":5459:5901   */\n      swap5\n      swap4\n      pop\n      pop\n      pop\n      pop\n      jump\t// out\n        /* \"#utility.yul\":5907:6087   */\n    tag_112:\n        /* \"#utility.yul\":5955:6032   */\n      0x4e487b7100000000000000000000000000000000000000000000000000000000\n        /* \"#utility.yul\":5952:5953   */\n      0x00\n        /* \"#utility.yul\":5945:6033   */\n      mstore\n        /* \"#utility.yul\":6052:6056   */\n      0x11\n        /* \"#utility.yul\":6049:6050   */\n      0x04\n        /* \"#utility.yul\":6042:6057   */\n      mstore\n        /* \"#utility.yul\":6076:6080   */\n      0x24\n        /* \"#utility.yul\":6073:6074   */\n      0x00\n        /* \"#utility.yul\":6066:6081   */\n      revert\n        /* \"#utility.yul\":6093:6287   */\n    tag_80:\n        /* \"#utility.yul\":6133:6137   */\n      0x00\n        /* \"#utility.yul\":6153:6173   */\n      tag_169\n        /* \"#utility.yul\":6171:6172   */\n      dup3\n        /* \"#utility.yul\":6153:6173   */\n      tag_101\n      jump\t// in\n    tag_169:\n        /* \"#utility.yul\":6148:6173   */\n      swap2\n      pop\n        /* \"#utility.yul\":6187:6207   */\n      tag_170\n        /* \"#utility.yul\":6205:6206   */\n      dup4\n        /* \"#utility.yul\":6187:6207   */\n      tag_101\n      jump\t// in\n    tag_170:\n        /* \"#utility.yul\":6182:6207   */\n      swap3\n      pop\n        /* \"#utility.yul\":6231:6232   */\n      dup3\n        /* \"#utility.yul\":6228:6229   */\n      dup3\n        /* \"#utility.yul\":6224:6233   */\n      sub\n        /* \"#utility.yul\":6216:6233   */\n      swap1\n      pop\n        /* \"#utility.yul\":6255:6256   */\n      dup2\n        /* \"#utility.yul\":6249:6253   */\n      dup2\n        /* \"#utility.yul\":6246:6257   */\n      gt\n        /* \"#utility.yul\":6243:6280   */\n      iszero\n      tag_171\n      jumpi\n        /* \"#utility.yul\":6260:6278   */\n      tag_172\n      tag_112\n      jump\t// in\n    tag_172:\n        /* \"#utility.yul\":6243:6280   */\n    tag_171:\n        /* \"#utility.yul\":6093:6287   */\n      swap3\n      swap2\n      pop\n      pop\n      jump\t// out\n        /* \"#utility.yul\":6293:6625   */\n    tag_85:\n        /* \"#utility.yul\":6414:6418   */\n      0x00\n        /* \"#utility.yul\":6452:6454   */\n      0x40\n        /* \"#utility.yul\":6441:6450   */\n      dup3\n        /* \"#utility.yul\":6437:6455   */\n      add\n        /* \"#utility.yul\":6429:6455   */\n      swap1\n      pop\n        /* \"#utility.yul\":6465:6536   */\n      tag_174\n        /* \"#utility.yul\":6533:6534   */\n      0x00\n        /* \"#utility.yul\":6522:6531   */\n      dup4\n        /* \"#utility.yul\":6518:6535   */\n      add\n        /* \"#utility.yul\":6509:6515   */\n      dup6\n        /* \"#utility.yul\":6465:6536   */\n      tag_102\n      jump\t// in\n    tag_174:\n        /* \"#utility.yul\":6546:6618   */\n      tag_175\n        /* \"#utility.yul\":6614:6616   */\n      0x20\n        /* \"#utility.yul\":6603:6612   */\n      dup4\n        /* \"#utility.yul\":6599:6617   */\n      add\n        /* \"#utility.yul\":6590:6596   */\n      dup5\n        /* \"#utility.yul\":6546:6618   */\n      tag_102\n      jump\t// in\n    tag_175:\n        /* \"#utility.yul\":6293:6625   */\n      swap4\n      swap3\n      pop\n      pop\n      pop\n      jump\t// out\n        /* \"#utility.yul\":6631:7073   */\n    tag_87:\n        /* \"#utility.yul\":6780:6784   */\n      0x00\n        /* \"#utility.yul\":6818:6820   */\n      0x60\n        /* \"#utility.yul\":6807:6816   */\n      dup3\n        /* \"#utility.yul\":6803:6821   */\n      add\n        /* \"#utility.yul\":6795:6821   */\n      swap1\n      pop\n        /* \"#utility.yul\":6831:6902   */\n      tag_177\n        /* \"#utility.yul\":6899:6900   */\n      0x00\n        /* \"#utility.yul\":6888:6897   */\n      dup4\n        /* \"#utility.yul\":6884:6901   */\n      add\n        /* \"#utility.yul\":6875:6881   */\n      dup7\n        /* \"#utility.yul\":6831:6902   */\n      tag_95\n      jump\t// in\n    tag_177:\n        /* \"#utility.yul\":6912:6984   */\n      tag_178\n        /* \"#utility.yul\":6980:6982   */\n      0x20\n        /* \"#utility.yul\":6969:6978   */\n      dup4\n        /* \"#utility.yul\":6965:6983   */\n      add\n        /* \"#utility.yul\":6956:6962   */\n      dup6\n        /* \"#utility.yul\":6912:6984   */\n      tag_102\n      jump\t// in\n    tag_178:\n        /* \"#utility.yul\":6994:7066   */\n      tag_179\n        /* \"#utility.yul\":7062:7064   */\n      0x40\n        /* \"#utility.yul\":7051:7060   */\n      dup4\n        /* \"#utility.yul\":7047:7065   */\n      add\n        /* \"#utility.yul\":7038:7044   */\n      dup5\n        /* \"#utility.yul\":6994:7066   */\n      tag_102\n      jump\t// in\n    tag_179:\n        /* \"#utility.yul\":6631:7073   */\n      swap5\n      swap4\n      pop\n      pop\n      pop\n      pop\n      jump\t// out\n        /* \"#utility.yul\":7079:7489   */\n    tag_91:\n        /* \"#utility.yul\":7119:7126   */\n      0x00\n        /* \"#utility.yul\":7142:7162   */\n      tag_181\n        /* \"#utility.yul\":7160:7161   */\n      dup3\n        /* \"#utility.yul\":7142:7162   */\n      tag_101\n      jump\t// in\n    tag_181:\n        /* \"#utility.yul\":7137:7162   */\n      swap2\n      pop\n        /* \"#utility.yul\":7176:7196   */\n      tag_182\n        /* \"#utility.yul\":7194:7195   */\n      dup4\n        /* \"#utility.yul\":7176:7196   */\n      tag_101\n      jump\t// in\n    tag_182:\n        /* \"#utility.yul\":7171:7196   */\n      swap3\n      pop\n        /* \"#utility.yul\":7231:7232   */\n      dup3\n        /* \"#utility.yul\":7228:7229   */\n      dup3\n        /* \"#utility.yul\":7224:7233   */\n      mul\n        /* \"#utility.yul\":7253:7283   */\n      tag_183\n        /* \"#utility.yul\":7271:7282   */\n      dup2\n        /* \"#utility.yul\":7253:7283   */\n      tag_101\n      jump\t// in\n    tag_183:\n        /* \"#utility.yul\":7242:7283   */\n      swap2\n      pop\n        /* \"#utility.yul\":7432:7433   */\n      dup3\n        /* \"#utility.yul\":7423:7430   */\n      dup3\n        /* \"#utility.yul\":7419:7434   */\n      div\n        /* \"#utility.yul\":7416:7417   */\n      dup5\n        /* \"#utility.yul\":7413:7435   */\n      eq\n        /* \"#utility.yul\":7393:7394   */\n      dup4\n        /* \"#utility.yul\":7386:7395   */\n      iszero\n        /* \"#utility.yul\":7366:7449   */\n      or\n        /* \"#utility.yul\":7343:7482   */\n      tag_184\n      jumpi\n        /* \"#utility.yul\":7462:7480   */\n      tag_185\n      tag_112\n      jump\t// in\n    tag_185:\n        /* \"#utility.yul\":7343:7482   */\n    tag_184:\n        /* \"#utility.yul\":7127:7489   */\n      pop\n        /* \"#utility.yul\":7079:7489   */\n      swap3\n      swap2\n      pop\n      pop\n      jump\t// out\n\n    auxdata: 0xa2646970667358221220dd18314c3d576be081d406646ef34bf4549b19aa8a35d10bb0fd0e4a720e77b564736f6c634300081a0033\n}\n",
				"bytecode": {
					"linkReferences": {},
					"object": "610140604052604051610f67380380610f6783398181016040528101906100269190610219565b7f311c8328af52a7c29efefcd3fb942689ba08aa749c24b387844e3fb121356c55848462093a8060405161005c9392919061028c565b60405180910390a162093a808361007391906102ee565b8410156100b5576040517f08c379a00000000000000000000000000000000000000000000000000000000081526004016100ac90610389565b60405180910390fd5b5f4290503373ffffffffffffffffffffffffffffffffffffffff166101208173ffffffffffffffffffffffffffffffffffffffff1681525050806080818152505062093a808161010591906103a7565b60a081815250508360e081815250508460c08181525050825f806101000a81548173ffffffffffffffffffffffffffffffffffffffff021916908373ffffffffffffffffffffffffffffffffffffffff1602179055508161010081815250505f600160146101000a81548160ff02191690831515021790555050505050506103da565b5f80fd5b5f819050919050565b61019e8161018c565b81146101a8575f80fd5b50565b5f815190506101b981610195565b92915050565b5f73ffffffffffffffffffffffffffffffffffffffff82169050919050565b5f6101e8826101bf565b9050919050565b6101f8816101de565b8114610202575f80fd5b50565b5f81519050610213816101ef565b92915050565b5f805f806080858703121561023157610230610188565b5b5f61023e878288016101ab565b945050602061024f878288016101ab565b935050604061026087828801610205565b9250506060610271878288016101ab565b91505092959194509250565b6102868161018c565b82525050565b5f60608201905061029f5f83018661027d565b6102ac602083018561027d565b6102b9604083018461027d565b949350505050565b7f4e487b71000000000000000000000000000000000000000000000000000000005f52601160045260245ffd5b5f6102f88261018c565b91506103038361018c565b92508282026103118161018c565b91508282048414831517610328576103276102c1565b5b5092915050565b5f82825260208201905092915050565b7f7374617274696e67207072696365203c3d20746f74616c20646973636f756e745f82015250565b5f61037360208361032f565b915061037e8261033f565b602082019050919050565b5f6020820190508181035f8301526103a081610367565b9050919050565b5f6103b18261018c565b91506103bc8361018c565b92508282019050808211156103d4576103d36102c1565b5b92915050565b60805160a05160c05160e0516101005161012051610b156104525f395f818161025a015261046a01525f818161048c015281816105ca015261062b01525f818161067301526106db01525f818161064f015261070601525f81816102c601526102ea01525f818161060701526106ac0152610b155ff3fe60806040526004361061009f575f3560e01c8063af46868211610063578063af4686821461015c578063c6bc518214610186578063d6fbf202146101b0578063e6c0e6d5146101da578063e852e74114610204578063eb91d37e1461022e576100a6565b806308551a53146100aa57806347ccca02146100d45780635bf3c518146100fe5780638622a68914610128578063a6f2ae3a14610152576100a6565b366100a657005b5f80fd5b3480156100b5575f80fd5b506100be610258565b6040516100cb9190610774565b60405180910390f35b3480156100df575f80fd5b506100e861027c565b6040516100f591906107e8565b60405180910390f35b348015610109575f80fd5b5061011261029f565b60405161011f9190610774565b60405180910390f35b348015610133575f80fd5b5061013c6102c4565b6040516101499190610819565b60405180910390f35b61015a6102e8565b005b348015610167575f80fd5b50610170610605565b60405161017d9190610819565b60405180910390f35b348015610191575f80fd5b5061019a610629565b6040516101a79190610819565b60405180910390f35b3480156101bb575f80fd5b506101c461064d565b6040516101d19190610819565b60405180910390f35b3480156101e5575f80fd5b506101ee610671565b6040516101fb9190610819565b60405180910390f35b34801561020f575f80fd5b50610218610695565b604051610225919061084c565b60405180910390f35b348015610239575f80fd5b506102426106a8565b60405161024f9190610819565b60405180910390f35b7f000000000000000000000000000000000000000000000000000000000000000081565b5f8054906101000a900473ffffffffffffffffffffffffffffffffffffffff1681565b60015f9054906101000a900473ffffffffffffffffffffffffffffffffffffffff1681565b7f000000000000000000000000000000000000000000000000000000000000000081565b7f000000000000000000000000000000000000000000000000000000000000000042111561034b576040517f08c379a0000000000000000000000000000000000000000000000000000000008152600401610342906108bf565b60405180910390fd5b600160149054906101000a900460ff161561039b576040517f08c379a000000000000000000000000000000000000000000000000000000000815260040161039290610927565b60405180910390fd5b5f3490505f6103a86106a8565b9050808210156103ed576040517f08c379a00000000000000000000000000000000000000000000000000000000081526004016103e49061098f565b60405180910390fd5b3360015f6101000a81548173ffffffffffffffffffffffffffffffffffffffff021916908373ffffffffffffffffffffffffffffffffffffffff1602179055505f8054906101000a900473ffffffffffffffffffffffffffffffffffffffff1673ffffffffffffffffffffffffffffffffffffffff166323b872dd7f0000000000000000000000000000000000000000000000000000000000000000337f00000000000000000000000000000000000000000000000000000000000000006040518463ffffffff1660e01b81526004016104c9939291906109ad565b5f604051808303815f87803b1580156104e0575f80fd5b505af11580156104f2573d5f803e3d5ffd5b505050505f81836105039190610a0f565b90505f811115610552573373ffffffffffffffffffffffffffffffffffffffff166108fc8290811502906040515f60405180830381858888f19350505050158015610550573d5f803e3d5ffd5b505b60018060146101000a81548160ff0219169083151502179055507f45b742c48fb8553be82191015da224595235c234b7a74985da4298ef792b6d1a348260405161059d929190610a42565b60405180910390a17f4727ffe484377b131981193ecf4914647219409c0c7a0721fdf1cb2c64deb4ca33837f00000000000000000000000000000000000000000000000000000000000000006040516105f893929190610a69565b60405180910390a1505050565b7f000000000000000000000000000000000000000000000000000000000000000081565b7f000000000000000000000000000000000000000000000000000000000000000081565b7f000000000000000000000000000000000000000000000000000000000000000081565b7f000000000000000000000000000000000000000000000000000000000000000081565b600160149054906101000a900460ff1681565b5f807f0000000000000000000000000000000000000000000000000000000000000000426106d69190610a0f565b9050807f00000000000000000000000000000000000000000000000000000000000000006107049190610a9e565b7f000000000000000000000000000000000000000000000000000000000000000061072f9190610a0f565b91505090565b5f73ffffffffffffffffffffffffffffffffffffffff82169050919050565b5f61075e82610735565b9050919050565b61076e81610754565b82525050565b5f6020820190506107875f830184610765565b92915050565b5f819050919050565b5f6107b06107ab6107a684610735565b61078d565b610735565b9050919050565b5f6107c182610796565b9050919050565b5f6107d2826107b7565b9050919050565b6107e2816107c8565b82525050565b5f6020820190506107fb5f8301846107d9565b92915050565b5f819050919050565b61081381610801565b82525050565b5f60208201905061082c5f83018461080a565b92915050565b5f8115159050919050565b61084681610832565b82525050565b5f60208201905061085f5f83018461083d565b92915050565b5f82825260208201905092915050565b7f61756374696f6e206861732065787069726564000000000000000000000000005f82015250565b5f6108a9601383610865565b91506108b482610875565b602082019050919050565b5f6020820190508181035f8301526108d68161089d565b9050919050565b7f6e667420686173206265656e20736f6c640000000000000000000000000000005f82015250565b5f610911601183610865565b915061091c826108dd565b602082019050919050565b5f6020820190508181035f83015261093e81610905565b9050919050565b7f6e6f7420656e6f7567682045544820746f2062757900000000000000000000005f82015250565b5f610979601583610865565b915061098482610945565b602082019050919050565b5f6020820190508181035f8301526109a68161096d565b9050919050565b5f6060820190506109c05f830186610765565b6109cd6020830185610765565b6109da604083018461080a565b949350505050565b7f4e487b71000000000000000000000000000000000000000000000000000000005f52601160045260245ffd5b5f610a1982610801565b9150610a2483610801565b9250828203905081811115610a3c57610a3b6109e2565b5b92915050565b5f604082019050610a555f83018561080a565b610a62602083018461080a565b9392505050565b5f606082019050610a7c5f830186610765565b610a89602083018561080a565b610a96604083018461080a565b949350505050565b5f610aa882610801565b9150610ab383610801565b9250828202610ac181610801565b91508282048414831517610ad857610ad76109e2565b5b509291505056fea2646970667358221220dd18314c3d576be081d406646ef34bf4549b19aa8a35d10bb0fd0e4a720e77b564736f6c634300081a0033",
					"opcodes": "PUSH2 0x140 PUSH1 0x40 MSTORE PUSH1 0x40 MLOAD PUSH2 0xF67 CODESIZE SUB DUP1 PUSH2 0xF67 DUP4 CODECOPY DUP2 DUP2 ADD PUSH1 0x40 MSTORE DUP2 ADD SWAP1 PUSH2 0x26 SWAP2 SWAP1 PUSH2 0x219 JUMP JUMPDEST PUSH32 0x311C8328AF52A7C29EFEFCD3FB942689BA08AA749C24B387844E3FB121356C55 DUP5 DUP5 PUSH3 0x93A80 PUSH1 0x40 MLOAD PUSH2 0x5C SWAP4 SWAP3 SWAP2 SWAP1 PUSH2 0x28C JUMP JUMPDEST PUSH1 0x40 MLOAD DUP1 SWAP2 SUB SWAP1 LOG1 PUSH3 0x93A80 DUP4 PUSH2 0x73 SWAP2 SWAP1 PUSH2 0x2EE JUMP JUMPDEST DUP5 LT ISZERO PUSH2 0xB5 JUMPI PUSH1 0x40 MLOAD PUSH32 0x8C379A000000000000000000000000000000000000000000000000000000000 DUP2 MSTORE PUSH1 0x4 ADD PUSH2 0xAC SWAP1 PUSH2 0x389 JUMP JUMPDEST PUSH1 0x40 MLOAD DUP1 SWAP2 SUB SWAP1 REVERT JUMPDEST PUSH0 TIMESTAMP SWAP1 POP CALLER PUSH20 0xFFFFFFFFFFFFFFFFFFFFFFFFFFFFFFFFFFFFFFFF AND PUSH2 0x120 DUP2 PUSH20 0xFFFFFFFFFFFFFFFFFFFFFFFFFFFFFFFFFFFFFFFF AND DUP2 MSTORE POP POP DUP1 PUSH1 0x80 DUP2 DUP2 MSTORE POP POP PUSH3 0x93A80 DUP2 PUSH2 0x105 SWAP2 SWAP1 PUSH2 0x3A7 JUMP JUMPDEST PUSH1 0xA0 DUP2 DUP2 MSTORE POP POP DUP4 PUSH1 0xE0 DUP2 DUP2 MSTORE POP POP DUP5 PUSH1 0xC0 DUP2 DUP2 MSTORE POP POP DUP3 PUSH0 DUP1 PUSH2 0x100 EXP DUP2 SLOAD DUP2 PUSH20 0xFFFFFFFFFFFFFFFFFFFFFFFFFFFFFFFFFFFFFFFF MUL NOT AND SWAP1 DUP4 PUSH20 0xFFFFFFFFFFFFFFFFFFFFFFFFFFFFFFFFFFFFFFFF AND MUL OR SWAP1 SSTORE POP DUP2 PUSH2 0x100 DUP2 DUP2 MSTORE POP POP PUSH0 PUSH1 0x1 PUSH1 0x14 PUSH2 0x100 EXP DUP2 SLOAD DUP2 PUSH1 0xFF MUL NOT AND SWAP1 DUP4 ISZERO ISZERO MUL OR SWAP1 SSTORE POP POP POP POP POP POP PUSH2 0x3DA JUMP JUMPDEST PUSH0 DUP1 REVERT JUMPDEST PUSH0 DUP2 SWAP1 POP SWAP2 SWAP1 POP JUMP JUMPDEST PUSH2 0x19E DUP2 PUSH2 0x18C JUMP JUMPDEST DUP2 EQ PUSH2 0x1A8 JUMPI PUSH0 DUP1 REVERT JUMPDEST POP JUMP JUMPDEST PUSH0 DUP2 MLOAD SWAP1 POP PUSH2 0x1B9 DUP2 PUSH2 0x195 JUMP JUMPDEST SWAP3 SWAP2 POP POP JUMP JUMPDEST PUSH0 PUSH20 0xFFFFFFFFFFFFFFFFFFFFFFFFFFFFFFFFFFFFFFFF DUP3 AND SWAP1 POP SWAP2 SWAP1 POP JUMP JUMPDEST PUSH0 PUSH2 0x1E8 DUP3 PUSH2 0x1BF JUMP JUMPDEST SWAP1 POP SWAP2 SWAP1 POP JUMP JUMPDEST PUSH2 0x1F8 DUP2 PUSH2 0x1DE JUMP JUMPDEST DUP2 EQ PUSH2 0x202 JUMPI PUSH0 DUP1 REVERT JUMPDEST POP JUMP JUMPDEST PUSH0 DUP2 MLOAD SWAP1 POP PUSH2 0x213 DUP2 PUSH2 0x1EF JUMP JUMPDEST SWAP3 SWAP2 POP POP JUMP JUMPDEST PUSH0 DUP1 PUSH0 DUP1 PUSH1 0x80 DUP6 DUP8 SUB SLT ISZERO PUSH2 0x231 JUMPI PUSH2 0x230 PUSH2 0x188 JUMP JUMPDEST JUMPDEST PUSH0 PUSH2 0x23E DUP8 DUP3 DUP9 ADD PUSH2 0x1AB JUMP JUMPDEST SWAP5 POP POP PUSH1 0x20 PUSH2 0x24F DUP8 DUP3 DUP9 ADD PUSH2 0x1AB JUMP JUMPDEST SWAP4 POP POP PUSH1 0x40 PUSH2 0x260 DUP8 DUP3 DUP9 ADD PUSH2 0x205 JUMP JUMPDEST SWAP3 POP POP PUSH1 0x60 PUSH2 0x271 DUP8 DUP3 DUP9 ADD PUSH2 0x1AB JUMP JUMPDEST SWAP2 POP POP SWAP3 SWAP6 SWAP2 SWAP5 POP SWAP3 POP JUMP JUMPDEST PUSH2 0x286 DUP2 PUSH2 0x18C JUMP JUMPDEST DUP3 MSTORE POP POP JUMP JUMPDEST PUSH0 PUSH1 0x60 DUP3 ADD SWAP1 POP PUSH2 0x29F PUSH0 DUP4 ADD DUP7 PUSH2 0x27D JUMP JUMPDEST PUSH2 0x2AC PUSH1 0x20 DUP4 ADD DUP6 PUSH2 0x27D JUMP JUMPDEST PUSH2 0x2B9 PUSH1 0x40 DUP4 ADD DUP5 PUSH2 0x27D JUMP JUMPDEST SWAP5 SWAP4 POP POP POP POP JUMP JUMPDEST PUSH32 0x4E487B7100000000000000000000000000000000000000000000000000000000 PUSH0 MSTORE PUSH1 0x11 PUSH1 0x4 MSTORE PUSH1 0x24 PUSH0 REVERT JUMPDEST PUSH0 PUSH2 0x2F8 DUP3 PUSH2 0x18C JUMP JUMPDEST SWAP2 POP PUSH2 0x303 DUP4 PUSH2 0x18C JUMP JUMPDEST SWAP3 POP DUP3 DUP3 MUL PUSH2 0x311 DUP2 PUSH2 0x18C JUMP JUMPDEST SWAP2 POP DUP3 DUP3 DIV DUP5 EQ DUP4 ISZERO OR PUSH2 0x328 JUMPI PUSH2 0x327 PUSH2 0x2C1 JUMP JUMPDEST JUMPDEST POP SWAP3 SWAP2 POP POP JUMP JUMPDEST PUSH0 DUP3 DUP3 MSTORE PUSH1 0x20 DUP3 ADD SWAP1 POP SWAP3 SWAP2 POP POP JUMP JUMPDEST PUSH32 0x7374617274696E67207072696365203C3D20746F74616C20646973636F756E74 PUSH0 DUP3 ADD MSTORE POP JUMP JUMPDEST PUSH0 PUSH2 0x373 PUSH1 0x20 DUP4 PUSH2 0x32F JUMP JUMPDEST SWAP2 POP PUSH2 0x37E DUP3 PUSH2 0x33F JUMP JUMPDEST PUSH1 0x20 DUP3 ADD SWAP1 POP SWAP2 SWAP1 POP JUMP JUMPDEST PUSH0 PUSH1 0x20 DUP3 ADD SWAP1 POP DUP2 DUP2 SUB PUSH0 DUP4 ADD MSTORE PUSH2 0x3A0 DUP2 PUSH2 0x367 JUMP JUMPDEST SWAP1 POP SWAP2 SWAP1 POP JUMP JUMPDEST PUSH0 PUSH2 0x3B1 DUP3 PUSH2 0x18C JUMP JUMPDEST SWAP2 POP PUSH2 0x3BC DUP4 PUSH2 0x18C JUMP JUMPDEST SWAP3 POP DUP3 DUP3 ADD SWAP1 POP DUP1 DUP3 GT ISZERO PUSH2 0x3D4 JUMPI PUSH2 0x3D3 PUSH2 0x2C1 JUMP JUMPDEST JUMPDEST SWAP3 SWAP2 POP POP JUMP JUMPDEST PUSH1 0x80 MLOAD PUSH1 0xA0 MLOAD PUSH1 0xC0 MLOAD PUSH1 0xE0 MLOAD PUSH2 0x100 MLOAD PUSH2 0x120 MLOAD PUSH2 0xB15 PUSH2 0x452 PUSH0 CODECOPY PUSH0 DUP2 DUP2 PUSH2 0x25A ADD MSTORE PUSH2 0x46A ADD MSTORE PUSH0 DUP2 DUP2 PUSH2 0x48C ADD MSTORE DUP2 DUP2 PUSH2 0x5CA ADD MSTORE PUSH2 0x62B ADD MSTORE PUSH0 DUP2 DUP2 PUSH2 0x673 ADD MSTORE PUSH2 0x6DB ADD MSTORE PUSH0 DUP2 DUP2 PUSH2 0x64F ADD MSTORE PUSH2 0x706 ADD MSTORE PUSH0 DUP2 DUP2 PUSH2 0x2C6 ADD MSTORE PUSH2 0x2EA ADD MSTORE PUSH0 DUP2 DUP2 PUSH2 0x607 ADD MSTORE PUSH2 0x6AC ADD MSTORE PUSH2 0xB15 PUSH0 RETURN INVALID PUSH1 0x80 PUSH1 0x40 MSTORE PUSH1 0x4 CALLDATASIZE LT PUSH2 0x9F JUMPI PUSH0 CALLDATALOAD PUSH1 0xE0 SHR DUP1 PUSH4 0xAF468682 GT PUSH2 0x63 JUMPI DUP1 PUSH4 0xAF468682 EQ PUSH2 0x15C JUMPI DUP1 PUSH4 0xC6BC5182 EQ PUSH2 0x186 JUMPI DUP1 PUSH4 0xD6FBF202 EQ PUSH2 0x1B0 JUMPI DUP1 PUSH4 0xE6C0E6D5 EQ PUSH2 0x1DA JUMPI DUP1 PUSH4 0xE852E741 EQ PUSH2 0x204 JUMPI DUP1 PUSH4 0xEB91D37E EQ PUSH2 0x22E JUMPI PUSH2 0xA6 JUMP JUMPDEST DUP1 PUSH4 0x8551A53 EQ PUSH2 0xAA JUMPI DUP1 PUSH4 0x47CCCA02 EQ PUSH2 0xD4 JUMPI DUP1 PUSH4 0x5BF3C518 EQ PUSH2 0xFE JUMPI DUP1 PUSH4 0x8622A689 EQ PUSH2 0x128 JUMPI DUP1 PUSH4 0xA6F2AE3A EQ PUSH2 0x152 JUMPI PUSH2 0xA6 JUMP JUMPDEST CALLDATASIZE PUSH2 0xA6 JUMPI STOP JUMPDEST PUSH0 DUP1 REVERT JUMPDEST CALLVALUE DUP1 ISZERO PUSH2 0xB5 JUMPI PUSH0 DUP1 REVERT JUMPDEST POP PUSH2 0xBE PUSH2 0x258 JUMP JUMPDEST PUSH1 0x40 MLOAD PUSH2 0xCB SWAP2 SWAP1 PUSH2 0x774 JUMP JUMPDEST PUSH1 0x40 MLOAD DUP1 SWAP2 SUB SWAP1 RETURN JUMPDEST CALLVALUE DUP1 ISZERO PUSH2 0xDF JUMPI PUSH0 DUP1 REVERT JUMPDEST POP PUSH2 0xE8 PUSH2 0x27C JUMP JUMPDEST PUSH1 0x40 MLOAD PUSH2 0xF5 SWAP2 SWAP1 PUSH2 0x7E8 JUMP JUMPDEST PUSH1 0x40 MLOAD DUP1 SWAP2 SUB SWAP1 RETURN JUMPDEST CALLVALUE DUP1 ISZERO PUSH2 0x109 JUMPI PUSH0 DUP1 REVERT JUMPDEST POP PUSH2 0x112 PUSH2 0x29F JUMP JUMPDEST PUSH1 0x40 MLOAD PUSH2 0x11F SWAP2 SWAP1 PUSH2 0x774 JUMP JUMPDEST PUSH1 0x40 MLOAD DUP1 SWAP2 SUB SWAP1 RETURN JUMPDEST CALLVALUE DUP1 ISZERO PUSH2 0x133 JUMPI PUSH0 DUP1 REVERT JUMPDEST POP PUSH2 0x13C PUSH2 0x2C4 JUMP JUMPDEST PUSH1 0x40 MLOAD PUSH2 0x149 SWAP2 SWAP1 PUSH2 0x819 JUMP JUMPDEST PUSH1 0x40 MLOAD DUP1 SWAP2 SUB SWAP1 RETURN JUMPDEST PUSH2 0x15A PUSH2 0x2E8 JUMP JUMPDEST STOP JUMPDEST CALLVALUE DUP1 ISZERO PUSH2 0x167 JUMPI PUSH0 DUP1 REVERT JUMPDEST POP PUSH2 0x170 PUSH2 0x605 JUMP JUMPDEST PUSH1 0x40 MLOAD PUSH2 0x17D SWAP2 SWAP1 PUSH2 0x819 JUMP JUMPDEST PUSH1 0x40 MLOAD DUP1 SWAP2 SUB SWAP1 RETURN JUMPDEST CALLVALUE DUP1 ISZERO PUSH2 0x191 JUMPI PUSH0 DUP1 REVERT JUMPDEST POP PUSH2 0x19A PUSH2 0x629 JUMP JUMPDEST PUSH1 0x40 MLOAD PUSH2 0x1A7 SWAP2 SWAP1 PUSH2 0x819 JUMP JUMPDEST PUSH1 0x40 MLOAD DUP1 SWAP2 SUB SWAP1 RETURN JUMPDEST CALLVALUE DUP1 ISZERO PUSH2 0x1BB JUMPI PUSH0 DUP1 REVERT JUMPDEST POP PUSH2 0x1C4 PUSH2 0x64D JUMP JUMPDEST PUSH1 0x40 MLOAD PUSH2 0x1D1 SWAP2 SWAP1 PUSH2 0x819 JUMP JUMPDEST PUSH1 0x40 MLOAD DUP1 SWAP2 SUB SWAP1 RETURN JUMPDEST CALLVALUE DUP1 ISZERO PUSH2 0x1E5 JUMPI PUSH0 DUP1 REVERT JUMPDEST POP PUSH2 0x1EE PUSH2 0x671 JUMP JUMPDEST PUSH1 0x40 MLOAD PUSH2 0x1FB SWAP2 SWAP1 PUSH2 0x819 JUMP JUMPDEST PUSH1 0x40 MLOAD DUP1 SWAP2 SUB SWAP1 RETURN JUMPDEST CALLVALUE DUP1 ISZERO PUSH2 0x20F JUMPI PUSH0 DUP1 REVERT JUMPDEST POP PUSH2 0x218 PUSH2 0x695 JUMP JUMPDEST PUSH1 0x40 MLOAD PUSH2 0x225 SWAP2 SWAP1 PUSH2 0x84C JUMP JUMPDEST PUSH1 0x40 MLOAD DUP1 SWAP2 SUB SWAP1 RETURN JUMPDEST CALLVALUE DUP1 ISZERO PUSH2 0x239 JUMPI PUSH0 DUP1 REVERT JUMPDEST POP PUSH2 0x242 PUSH2 0x6A8 JUMP JUMPDEST PUSH1 0x40 MLOAD PUSH2 0x24F SWAP2 SWAP1 PUSH2 0x819 JUMP JUMPDEST PUSH1 0x40 MLOAD DUP1 SWAP2 SUB SWAP1 RETURN JUMPDEST PUSH32 0x0 DUP2 JUMP JUMPDEST PUSH0 DUP1 SLOAD SWAP1 PUSH2 0x100 EXP SWAP1 DIV PUSH20 0xFFFFFFFFFFFFFFFFFFFFFFFFFFFFFFFFFFFFFFFF AND DUP2 JUMP JUMPDEST PUSH1 0x1 PUSH0 SWAP1 SLOAD SWAP1 PUSH2 0x100 EXP SWAP1 DIV PUSH20 0xFFFFFFFFFFFFFFFFFFFFFFFFFFFFFFFFFFFFFFFF AND DUP2 JUMP JUMPDEST PUSH32 0x0 DUP2 JUMP JUMPDEST PUSH32 0x0 TIMESTAMP GT ISZERO PUSH2 0x34B JUMPI PUSH1 0x40 MLOAD PUSH32 0x8C379A000000000000000000000000000000000000000000000000000000000 DUP2 MSTORE PUSH1 0x4 ADD PUSH2 0x342 SWAP1 PUSH2 0x8BF JUMP JUMPDEST PUSH1 0x40 MLOAD DUP1 SWAP2 SUB SWAP1 REVERT JUMPDEST PUSH1 0x1 PUSH1 0x14 SWAP1 SLOAD SWAP1 PUSH2 0x100 EXP SWAP1 DIV PUSH1 0xFF AND ISZERO PUSH2 0x39B JUMPI PUSH1 0x40 MLOAD PUSH32 0x8C379A000000000000000000000000000000000000000000000000000000000 DUP2 MSTORE PUSH1 0x4 ADD PUSH2 0x392 SWAP1 PUSH2 0x927 JUMP JUMPDEST PUSH1 0x40 MLOAD DUP1 SWAP2 SUB SWAP1 REVERT JUMPDEST PUSH0 CALLVALUE SWAP1 POP PUSH0 PUSH2 0x3A8 PUSH2 0x6A8 JUMP JUMPDEST SWAP1 POP DUP1 DUP3 LT ISZERO PUSH2 0x3ED JUMPI PUSH1 0x40 MLOAD PUSH32 0x8C379A000000000000000000000000000000000000000000000000000000000 DUP2 MSTORE PUSH1 0x4 ADD PUSH2 0x3E4 SWAP1 PUSH2 0x98F JUMP JUMPDEST PUSH1 0x40 MLOAD DUP1 SWAP2 SUB SWAP1 REVERT JUMPDEST CALLER PUSH1 0x1 PUSH0 PUSH2 0x100 EXP DUP2 SLOAD DUP2 PUSH20 0xFFFFFFFFFFFFFFFFFFFFFFFFFFFFFFFFFFFFFFFF MUL NOT AND SWAP1 DUP4 PUSH20 0xFFFFFFFFFFFFFFFFFFFFFFFFFFFFFFFFFFFFFFFF AND MUL OR SWAP1 SSTORE POP PUSH0 DUP1 SLOAD SWAP1 PUSH2 0x100 EXP SWAP1 DIV PUSH20 0xFFFFFFFFFFFFFFFFFFFFFFFFFFFFFFFFFFFFFFFF AND PUSH20 0xFFFFFFFFFFFFFFFFFFFFFFFFFFFFFFFFFFFFFFFF AND PUSH4 0x23B872DD PUSH32 0x0 CALLER PUSH32 0x0 PUSH1 0x40 MLOAD DUP5 PUSH4 0xFFFFFFFF AND PUSH1 0xE0 SHL DUP2 MSTORE PUSH1 0x4 ADD PUSH2 0x4C9 SWAP4 SWAP3 SWAP2 SWAP1 PUSH2 0x9AD JUMP JUMPDEST PUSH0 PUSH1 0x40 MLOAD DUP1 DUP4 SUB DUP2 PUSH0 DUP8 DUP1 EXTCODESIZE ISZERO DUP1 ISZERO PUSH2 0x4E0 JUMPI PUSH0 DUP1 REVERT JUMPDEST POP GAS CALL ISZERO DUP1 ISZERO PUSH2 0x4F2 JUMPI RETURNDATASIZE PUSH0 DUP1 RETURNDATACOPY RETURNDATASIZE PUSH0 REVERT JUMPDEST POP POP POP POP PUSH0 DUP2 DUP4 PUSH2 0x503 SWAP2 SWAP1 PUSH2 0xA0F JUMP JUMPDEST SWAP1 POP PUSH0 DUP2 GT ISZERO PUSH2 0x552 JUMPI CALLER PUSH20 0xFFFFFFFFFFFFFFFFFFFFFFFFFFFFFFFFFFFFFFFF AND PUSH2 0x8FC DUP3 SWAP1 DUP2 ISZERO MUL SWAP1 PUSH1 0x40 MLOAD PUSH0 PUSH1 0x40 MLOAD DUP1 DUP4 SUB DUP2 DUP6 DUP9 DUP9 CALL SWAP4 POP POP POP POP ISZERO DUP1 ISZERO PUSH2 0x550 JUMPI RETURNDATASIZE PUSH0 DUP1 RETURNDATACOPY RETURNDATASIZE PUSH0 REVERT JUMPDEST POP JUMPDEST PUSH1 0x1 DUP1 PUSH1 0x14 PUSH2 0x100 EXP DUP2 SLOAD DUP2 PUSH1 0xFF MUL NOT AND SWAP1 DUP4 ISZERO ISZERO MUL OR SWAP1 SSTORE POP PUSH32 0x45B742C48FB8553BE82191015DA224595235C234B7A74985DA4298EF792B6D1A CALLVALUE DUP3 PUSH1 0x40 MLOAD PUSH2 0x59D SWAP3 SWAP2 SWAP1 PUSH2 0xA42 JUMP JUMPDEST PUSH1 0x40 MLOAD DUP1 SWAP2 SUB SWAP1 LOG1 PUSH32 0x4727FFE484377B131981193ECF4914647219409C0C7A0721FDF1CB2C64DEB4CA CALLER DUP4 PUSH32 0x0 PUSH1 0x40 MLOAD PUSH2 0x5F8 SWAP4 SWAP3 SWAP2 SWAP1 PUSH2 0xA69 JUMP JUMPDEST PUSH1 0x40 MLOAD DUP1 SWAP2 SUB SWAP1 LOG1 POP POP POP JUMP JUMPDEST PUSH32 0x0 DUP2 JUMP JUMPDEST PUSH32 0x0 DUP2 JUMP JUMPDEST PUSH32 0x0 DUP2 JUMP JUMPDEST PUSH32 0x0 DUP2 JUMP JUMPDEST PUSH1 0x1 PUSH1 0x14 SWAP1 SLOAD SWAP1 PUSH2 0x100 EXP SWAP1 DIV PUSH1 0xFF AND DUP2 JUMP JUMPDEST PUSH0 DUP1 PUSH32 0x0 TIMESTAMP PUSH2 0x6D6 SWAP2 SWAP1 PUSH2 0xA0F JUMP JUMPDEST SWAP1 POP DUP1 PUSH32 0x0 PUSH2 0x704 SWAP2 SWAP1 PUSH2 0xA9E JUMP JUMPDEST PUSH32 0x0 PUSH2 0x72F SWAP2 SWAP1 PUSH2 0xA0F JUMP JUMPDEST SWAP2 POP POP SWAP1 JUMP JUMPDEST PUSH0 PUSH20 0xFFFFFFFFFFFFFFFFFFFFFFFFFFFFFFFFFFFFFFFF DUP3 AND SWAP1 POP SWAP2 SWAP1 POP JUMP JUMPDEST PUSH0 PUSH2 0x75E DUP3 PUSH2 0x735 JUMP JUMPDEST SWAP1 POP SWAP2 SWAP1 POP JUMP JUMPDEST PUSH2 0x76E DUP2 PUSH2 0x754 JUMP JUMPDEST DUP3 MSTORE POP POP JUMP JUMPDEST PUSH0 PUSH1 0x20 DUP3 ADD SWAP1 POP PUSH2 0x787 PUSH0 DUP4 ADD DUP5 PUSH2 0x765 JUMP JUMPDEST SWAP3 SWAP2 POP POP JUMP JUMPDEST PUSH0 DUP2 SWAP1 POP SWAP2 SWAP1 POP JUMP JUMPDEST PUSH0 PUSH2 0x7B0 PUSH2 0x7AB PUSH2 0x7A6 DUP5 PUSH2 0x735 JUMP JUMPDEST PUSH2 0x78D JUMP JUMPDEST PUSH2 0x735 JUMP JUMPDEST SWAP1 POP SWAP2 SWAP1 POP JUMP JUMPDEST PUSH0 PUSH2 0x7C1 DUP3 PUSH2 0x796 JUMP JUMPDEST SWAP1 POP SWAP2 SWAP1 POP JUMP JUMPDEST PUSH0 PUSH2 0x7D2 DUP3 PUSH2 0x7B7 JUMP JUMPDEST SWAP1 POP SWAP2 SWAP1 POP JUMP JUMPDEST PUSH2 0x7E2 DUP2 PUSH2 0x7C8 JUMP JUMPDEST DUP3 MSTORE POP POP JUMP JUMPDEST PUSH0 PUSH1 0x20 DUP3 ADD SWAP1 POP PUSH2 0x7FB PUSH0 DUP4 ADD DUP5 PUSH2 0x7D9 JUMP JUMPDEST SWAP3 SWAP2 POP POP JUMP JUMPDEST PUSH0 DUP2 SWAP1 POP SWAP2 SWAP1 POP JUMP JUMPDEST PUSH2 0x813 DUP2 PUSH2 0x801 JUMP JUMPDEST DUP3 MSTORE POP POP JUMP JUMPDEST PUSH0 PUSH1 0x20 DUP3 ADD SWAP1 POP PUSH2 0x82C PUSH0 DUP4 ADD DUP5 PUSH2 0x80A JUMP JUMPDEST SWAP3 SWAP2 POP POP JUMP JUMPDEST PUSH0 DUP2 ISZERO ISZERO SWAP1 POP SWAP2 SWAP1 POP JUMP JUMPDEST PUSH2 0x846 DUP2 PUSH2 0x832 JUMP JUMPDEST DUP3 MSTORE POP POP JUMP JUMPDEST PUSH0 PUSH1 0x20 DUP3 ADD SWAP1 POP PUSH2 0x85F PUSH0 DUP4 ADD DUP5 PUSH2 0x83D JUMP JUMPDEST SWAP3 SWAP2 POP POP JUMP JUMPDEST PUSH0 DUP3 DUP3 MSTORE PUSH1 0x20 DUP3 ADD SWAP1 POP SWAP3 SWAP2 POP POP JUMP JUMPDEST PUSH32 0x61756374696F6E20686173206578706972656400000000000000000000000000 PUSH0 DUP3 ADD MSTORE POP JUMP JUMPDEST PUSH0 PUSH2 0x8A9 PUSH1 0x13 DUP4 PUSH2 0x865 JUMP JUMPDEST SWAP2 POP PUSH2 0x8B4 DUP3 PUSH2 0x875 JUMP JUMPDEST PUSH1 0x20 DUP3 ADD SWAP1 POP SWAP2 SWAP1 POP JUMP JUMPDEST PUSH0 PUSH1 0x20 DUP3 ADD SWAP1 POP DUP2 DUP2 SUB PUSH0 DUP4 ADD MSTORE PUSH2 0x8D6 DUP2 PUSH2 0x89D JUMP JUMPDEST SWAP1 POP SWAP2 SWAP1 POP JUMP JUMPDEST PUSH32 0x6E667420686173206265656E20736F6C64000000000000000000000000000000 PUSH0 DUP3 ADD MSTORE POP JUMP JUMPDEST PUSH0 PUSH2 0x911 PUSH1 0x11 DUP4 PUSH2 0x865 JUMP JUMPDEST SWAP2 POP PUSH2 0x91C DUP3 PUSH2 0x8DD JUMP JUMPDEST PUSH1 0x20 DUP3 ADD SWAP1 POP SWAP2 SWAP1 POP JUMP JUMPDEST PUSH0 PUSH1 0x20 DUP3 ADD SWAP1 POP DUP2 DUP2 SUB PUSH0 DUP4 ADD MSTORE PUSH2 0x93E DUP2 PUSH2 0x905 JUMP JUMPDEST SWAP1 POP SWAP2 SWAP1 POP JUMP JUMPDEST PUSH32 0x6E6F7420656E6F7567682045544820746F206275790000000000000000000000 PUSH0 DUP3 ADD MSTORE POP JUMP JUMPDEST PUSH0 PUSH2 0x979 PUSH1 0x15 DUP4 PUSH2 0x865 JUMP JUMPDEST SWAP2 POP PUSH2 0x984 DUP3 PUSH2 0x945 JUMP JUMPDEST PUSH1 0x20 DUP3 ADD SWAP1 POP SWAP2 SWAP1 POP JUMP JUMPDEST PUSH0 PUSH1 0x20 DUP3 ADD SWAP1 POP DUP2 DUP2 SUB PUSH0 DUP4 ADD MSTORE PUSH2 0x9A6 DUP2 PUSH2 0x96D JUMP JUMPDEST SWAP1 POP SWAP2 SWAP1 POP JUMP JUMPDEST PUSH0 PUSH1 0x60 DUP3 ADD SWAP1 POP PUSH2 0x9C0 PUSH0 DUP4 ADD DUP7 PUSH2 0x765 JUMP JUMPDEST PUSH2 0x9CD PUSH1 0x20 DUP4 ADD DUP6 PUSH2 0x765 JUMP JUMPDEST PUSH2 0x9DA PUSH1 0x40 DUP4 ADD DUP5 PUSH2 0x80A JUMP JUMPDEST SWAP5 SWAP4 POP POP POP POP JUMP JUMPDEST PUSH32 0x4E487B7100000000000000000000000000000000000000000000000000000000 PUSH0 MSTORE PUSH1 0x11 PUSH1 0x4 MSTORE PUSH1 0x24 PUSH0 REVERT JUMPDEST PUSH0 PUSH2 0xA19 DUP3 PUSH2 0x801 JUMP JUMPDEST SWAP2 POP PUSH2 0xA24 DUP4 PUSH2 0x801 JUMP JUMPDEST SWAP3 POP DUP3 DUP3 SUB SWAP1 POP DUP2 DUP2 GT ISZERO PUSH2 0xA3C JUMPI PUSH2 0xA3B PUSH2 0x9E2 JUMP JUMPDEST JUMPDEST SWAP3 SWAP2 POP POP JUMP JUMPDEST PUSH0 PUSH1 0x40 DUP3 ADD SWAP1 POP PUSH2 0xA55 PUSH0 DUP4 ADD DUP6 PUSH2 0x80A JUMP JUMPDEST PUSH2 0xA62 PUSH1 0x20 DUP4 ADD DUP5 PUSH2 0x80A JUMP JUMPDEST SWAP4 SWAP3 POP POP POP JUMP JUMPDEST PUSH0 PUSH1 0x60 DUP3 ADD SWAP1 POP PUSH2 0xA7C PUSH0 DUP4 ADD DUP7 PUSH2 0x765 JUMP JUMPDEST PUSH2 0xA89 PUSH1 0x20 DUP4 ADD DUP6 PUSH2 0x80A JUMP JUMPDEST PUSH2 0xA96 PUSH1 0x40 DUP4 ADD DUP5 PUSH2 0x80A JUMP JUMPDEST SWAP5 SWAP4 POP POP POP POP JUMP JUMPDEST PUSH0 PUSH2 0xAA8 DUP3 PUSH2 0x801 JUMP JUMPDEST SWAP2 POP PUSH2 0xAB3 DUP4 PUSH2 0x801 JUMP JUMPDEST SWAP3 POP DUP3 DUP3 MUL PUSH2 0xAC1 DUP2 PUSH2 0x801 JUMP JUMPDEST SWAP2 POP DUP3 DUP3 DIV DUP5 EQ DUP4 ISZERO OR PUSH2 0xAD8 JUMPI PUSH2 0xAD7 PUSH2 0x9E2 JUMP JUMPDEST JUMPDEST POP SWAP3 SWAP2 POP POP JUMP INVALID LOG2 PUSH5 0x6970667358 0x22 SLT KECCAK256 0xDD XOR BALANCE 0x4C RETURNDATASIZE JUMPI PUSH12 0xE081D406646EF34BF4549B19 0xAA DUP11 CALLDATALOAD 0xD1 SIGNEXTEND 0xB0 REVERT 0xE BLOBBASEFEE PUSH19 0xE77B564736F6C634300081A00330000000000 "
				},
				"gasEstimates": {
					"creation": {
						"codeDepositCost": "567400",
						"executionCost": "infinite",
						"totalCost": "infinite"
					},
					"external": {
						"buy()": "infinite",
						"currentBuyer()": "2553",
						"discountRate()": "infinite",
						"expiresAt()": "infinite",
						"getCurrentPrice()": "infinite",
						"isSold()": "2605",
						"nft()": "infinite",
						"nftId()": "infinite",
						"seller()": "infinite",
						"startingPrice()": "infinite",
						"startsAt()": "infinite"
					}
				},
				"methodIdentifiers": {
					"buy()": "a6f2ae3a",
					"currentBuyer()": "5bf3c518",
					"discountRate()": "e6c0e6d5",
					"expiresAt()": "8622a689",
					"getCurrentPrice()": "eb91d37e",
					"isSold()": "e852e741",
					"nft()": "47ccca02",
					"nftId()": "c6bc5182",
					"seller()": "08551a53",
					"startingPrice()": "d6fbf202",
					"startsAt()": "af468682"
				}
			},
			"storageLayout": {
				"storage": [
					{
						"astId": 25,
						"contract": "DutchAuction.sol:DutchAuction",
						"label": "nft",
						"offset": 0,
						"slot": "0",
						"type": "t_contract(IERC721)11"
					},
					{
						"astId": 31,
						"contract": "DutchAuction.sol:DutchAuction",
						"label": "currentBuyer",
						"offset": 0,
						"slot": "1",
						"type": "t_address"
					},
					{
						"astId": 33,
						"contract": "DutchAuction.sol:DutchAuction",
						"label": "isSold",
						"offset": 20,
						"slot": "1",
						"type": "t_bool"
					}
				],
				"types": {
					"t_address": {
						"encoding": "inplace",
						"label": "address",
						"numberOfBytes": "20"
					},
					"t_bool": {
						"encoding": "inplace",
						"label": "bool",
						"numberOfBytes": "1"
					},
					"t_contract(IERC721)11": {
						"encoding": "inplace",
						"label": "contract IERC721",
						"numberOfBytes": "20"
					}
				}
			},
			"userdoc": {
				"kind": "user",
				"methods": {},
				"version": 1
			}
		}
	}
}