{
	"FuncSelector.sol": {
		"test": {
			"abi": [
				{
					"anonymous": false,
					"inputs": [
						{
							"indexed": false,
							"internalType": "bytes",
							"name": "",
							"type": "bytes"
						}
					],
					"name": "getFuncData",
					"type": "event"
				},
				{
					"anonymous": false,
					"inputs": [
						{
							"indexed": false,
							"internalType": "bytes",
							"name": "",
							"type": "bytes"
						}
					],
					"name": "sendCode2Proxy",
					"type": "event"
				},
				{
					"anonymous": false,
					"inputs": [
						{
							"indexed": false,
							"internalType": "bool",
							"name": "",
							"type": "bool"
						}
					],
					"name": "sendExecute2Proxy",
					"type": "event"
				},
				{
					"inputs": [
						{
							"internalType": "address",
							"name": "_contractAddr",
							"type": "address"
						},
						{
							"internalType": "uint256",
							"name": "_x",
							"type": "uint256"
						}
					],
					"name": "executeSet",
					"outputs": [],
					"stateMutability": "payable",
					"type": "function"
				},
				{
					"inputs": [],
					"name": "getByteCode",
					"outputs": [
						{
							"internalType": "bytes",
							"name": "code",
							"type": "bytes"
						}
					],
					"stateMutability": "nonpayable",
					"type": "function"
				},
				{
					"inputs": [
						{
							"internalType": "string",
							"name": "_func",
							"type": "string"
						}
					],
					"name": "getFuncSelector",
					"outputs": [
						{
							"internalType": "bytes4",
							"name": "",
							"type": "bytes4"
						}
					],
					"stateMutability": "pure",
					"type": "function"
				},
				{
					"inputs": [
						{
							"internalType": "uint256",
							"name": "_x",
							"type": "uint256"
						},
						{
							"internalType": "uint256",
							"name": "_y",
							"type": "uint256"
						},
						{
							"internalType": "address",
							"name": "_z",
							"type": "address"
						}
					],
					"name": "testMsgdata",
					"outputs": [],
					"stateMutability": "payable",
					"type": "function"
				}
			],
			"devdoc": {
				"kind": "dev",
				"methods": {},
				"version": 1
			},
			"evm": {
				"assembly": "    /* \"FuncSelector.sol\":90:1569  contract test{... */\n  mstore(0x40, 0x80)\n  callvalue\n  dup1\n  iszero\n  tag_1\n  jumpi\n  0x00\n  dup1\n  revert\ntag_1:\n  pop\n  dataSize(sub_0)\n  dup1\n  dataOffset(sub_0)\n  0x00\n  codecopy\n  0x00\n  return\nstop\n\nsub_0: assembly {\n        /* \"FuncSelector.sol\":90:1569  contract test{... */\n      mstore(0x40, 0x80)\n      jumpi(tag_1, lt(calldatasize, 0x04))\n      shr(0xe0, calldataload(0x00))\n      dup1\n      0x57ac6566\n      eq\n      tag_2\n      jumpi\n      dup1\n      0xa843bcad\n      eq\n      tag_3\n      jumpi\n      dup1\n      0xb9ca6d98\n      eq\n      tag_4\n      jumpi\n      dup1\n      0xf1a16a43\n      eq\n      tag_5\n      jumpi\n    tag_1:\n      0x00\n      dup1\n      revert\n        /* \"FuncSelector.sol\":289:439  function getByteCode() public returns(bytes memory code){... */\n    tag_2:\n      callvalue\n      dup1\n      iszero\n      tag_6\n      jumpi\n      0x00\n      dup1\n      revert\n    tag_6:\n      pop\n      tag_7\n      tag_8\n      jump\t// in\n    tag_7:\n      mload(0x40)\n      tag_9\n      swap2\n      swap1\n      tag_10\n      jump\t// in\n    tag_9:\n      mload(0x40)\n      dup1\n      swap2\n      sub\n      swap1\n      return\n        /* \"FuncSelector.sol\":1211:1425  function testMsgdata(uint _x, uint _y, address _z) public payable  {... */\n    tag_3:\n      tag_11\n      0x04\n      dup1\n      calldatasize\n      sub\n      dup2\n      add\n      swap1\n      tag_12\n      swap2\n      swap1\n      tag_13\n      jump\t// in\n    tag_12:\n      tag_14\n      jump\t// in\n    tag_11:\n      stop\n        /* \"FuncSelector.sol\":1433:1566  function getFuncSelector(string calldata _func) public  pure returns(bytes4){... */\n    tag_4:\n      callvalue\n      dup1\n      iszero\n      tag_15\n      jumpi\n      0x00\n      dup1\n      revert\n    tag_15:\n      pop\n      tag_16\n      0x04\n      dup1\n      calldatasize\n      sub\n      dup2\n      add\n      swap1\n      tag_17\n      swap2\n      swap1\n      tag_18\n      jump\t// in\n    tag_17:\n      tag_19\n      jump\t// in\n    tag_16:\n      mload(0x40)\n      tag_20\n      swap2\n      swap1\n      tag_21\n      jump\t// in\n    tag_20:\n      mload(0x40)\n      dup1\n      swap2\n      sub\n      swap1\n      return\n        /* \"FuncSelector.sol\":449:793  function executeSet(address _contractAddr, uint _x) public payable  {... */\n    tag_5:\n      tag_22\n      0x04\n      dup1\n      calldatasize\n      sub\n      dup2\n      add\n      swap1\n      tag_23\n      swap2\n      swap1\n      tag_24\n      jump\t// in\n    tag_23:\n      tag_25\n      jump\t// in\n    tag_22:\n      stop\n        /* \"FuncSelector.sol\":289:439  function getByteCode() public returns(bytes memory code){... */\n    tag_8:\n        /* \"FuncSelector.sol\":327:344  bytes memory code */\n      0x60\n        /* \"FuncSelector.sol\":363:395  type(storeContract).creationCode */\n      mload(0x40)\n      dup1\n      0x20\n      add\n      tag_27\n      swap1\n      tag_28\n      jump\t// in\n    tag_27:\n      0x20\n      dup3\n      add\n      dup2\n      sub\n      dup3\n      mstore\n      not(0x1f)\n      0x1f\n      dup3\n      add\n      and\n      0x40\n      mstore\n      pop\n        /* \"FuncSelector.sol\":356:395  code = type(storeContract).creationCode */\n      swap1\n      pop\n        /* \"FuncSelector.sol\":411:431  sendCode2Proxy(code) */\n      0xdb43982ccb96281af5f34cfbefb3f78363f4aca73d97fc39f9146baaaa9ef436\n        /* \"FuncSelector.sol\":426:430  code */\n      dup2\n        /* \"FuncSelector.sol\":411:431  sendCode2Proxy(code) */\n      mload(0x40)\n      tag_29\n      swap2\n      swap1\n      tag_10\n      jump\t// in\n    tag_29:\n      mload(0x40)\n      dup1\n      swap2\n      sub\n      swap1\n      log1\n        /* \"FuncSelector.sol\":289:439  function getByteCode() public returns(bytes memory code){... */\n      swap1\n      jump\t// out\n        /* \"FuncSelector.sol\":1211:1425  function testMsgdata(uint _x, uint _y, address _z) public payable  {... */\n    tag_14:\n        /* \"FuncSelector.sol\":1289:1310  bytes memory funcData */\n      0x00\n        /* \"FuncSelector.sol\":1369:1371  _x */\n      dup4\n        /* \"FuncSelector.sol\":1373:1375  _y */\n      dup4\n        /* \"FuncSelector.sol\":1377:1379  _z */\n      dup4\n        /* \"FuncSelector.sol\":1313:1380  abi.encodeWithSignature(\"set(uint256,uint256,address)\", _x, _y, _z) */\n      add(0x24, mload(0x40))\n      tag_31\n      swap4\n      swap3\n      swap2\n      swap1\n      tag_32\n      jump\t// in\n    tag_31:\n      mload(0x40)\n      0x20\n      dup2\n      dup4\n      sub\n      sub\n      dup2\n      mstore\n      swap1\n      0x40\n      mstore\n      and(not(0xffffffffffffffffffffffffffffffffffffffffffffffffffffffff), 0x8a1017ed00000000000000000000000000000000000000000000000000000000)\n      0x20\n      dup3\n      add\n      dup1\n      mload\n      0xffffffffffffffffffffffffffffffffffffffffffffffffffffffff\n      dup4\n      dup2\n      dup4\n      and\n      or\n      dup4\n      mstore\n      pop\n      pop\n      pop\n      pop\n        /* \"FuncSelector.sol\":1289:1380  bytes memory funcData = abi.encodeWithSignature(\"set(uint256,uint256,address)\", _x, _y, _z) */\n      swap1\n      pop\n        /* \"FuncSelector.sol\":1396:1417  getFuncData(funcData) */\n      0x4f893acf93ad7b2224af286ecf88db98f2b04b04caeaf1da6df4a969d3139cb2\n        /* \"FuncSelector.sol\":1408:1416  funcData */\n      dup2\n        /* \"FuncSelector.sol\":1396:1417  getFuncData(funcData) */\n      mload(0x40)\n      tag_33\n      swap2\n      swap1\n      tag_10\n      jump\t// in\n    tag_33:\n      mload(0x40)\n      dup1\n      swap2\n      sub\n      swap1\n      log1\n        /* \"FuncSelector.sol\":1278:1425  {... */\n      pop\n        /* \"FuncSelector.sol\":1211:1425  function testMsgdata(uint _x, uint _y, address _z) public payable  {... */\n      pop\n      pop\n      pop\n      jump\t// out\n        /* \"FuncSelector.sol\":1433:1566  function getFuncSelector(string calldata _func) public  pure returns(bytes4){... */\n    tag_19:\n        /* \"FuncSelector.sol\":1502:1508  bytes4 */\n      0x00\n        /* \"FuncSelector.sol\":1550:1555  _func */\n      dup3\n      dup3\n        /* \"FuncSelector.sol\":1534:1557  keccak256(bytes(_func)) */\n      mload(0x40)\n      tag_35\n      swap3\n      swap2\n      swap1\n      tag_36\n      jump\t// in\n    tag_35:\n      mload(0x40)\n      dup1\n      swap2\n      sub\n      swap1\n      keccak256\n        /* \"FuncSelector.sol\":1520:1558  return bytes4(keccak256(bytes(_func))) */\n      swap1\n      pop\n        /* \"FuncSelector.sol\":1433:1566  function getFuncSelector(string calldata _func) public  pure returns(bytes4){... */\n      swap3\n      swap2\n      pop\n      pop\n      jump\t// out\n        /* \"FuncSelector.sol\":449:793  function executeSet(address _contractAddr, uint _x) public payable  {... */\n    tag_25:\n        /* \"FuncSelector.sol\":528:549  bytes memory funcData */\n      0x00\n        /* \"FuncSelector.sol\":589:591  _x */\n      dup2\n        /* \"FuncSelector.sol\":552:592  abi.encodeWithSignature(\"set(uint)\", _x) */\n      add(0x24, mload(0x40))\n      tag_38\n      swap2\n      swap1\n      tag_39\n      jump\t// in\n    tag_38:\n      mload(0x40)\n      0x20\n      dup2\n      dup4\n      sub\n      sub\n      dup2\n      mstore\n      swap1\n      0x40\n      mstore\n      and(not(0xffffffffffffffffffffffffffffffffffffffffffffffffffffffff), 0xcccdda2c00000000000000000000000000000000000000000000000000000000)\n      0x20\n      dup3\n      add\n      dup1\n      mload\n      0xffffffffffffffffffffffffffffffffffffffffffffffffffffffff\n      dup4\n      dup2\n      dup4\n      and\n      or\n      dup4\n      mstore\n      pop\n      pop\n      pop\n      pop\n        /* \"FuncSelector.sol\":528:592  bytes memory funcData = abi.encodeWithSignature(\"set(uint)\", _x) */\n      swap1\n      pop\n        /* \"FuncSelector.sol\":608:629  getFuncData(funcData) */\n      0x4f893acf93ad7b2224af286ecf88db98f2b04b04caeaf1da6df4a969d3139cb2\n        /* \"FuncSelector.sol\":620:628  funcData */\n      dup2\n        /* \"FuncSelector.sol\":608:629  getFuncData(funcData) */\n      mload(0x40)\n      tag_40\n      swap2\n      swap1\n      tag_10\n      jump\t// in\n    tag_40:\n      mload(0x40)\n      dup1\n      swap2\n      sub\n      swap1\n      log1\n        /* \"FuncSelector.sol\":641:649  bool ret */\n      0x00\n        /* \"FuncSelector.sol\":654:667  _contractAddr */\n      dup4\n        /* \"FuncSelector.sol\":654:672  _contractAddr.call */\n      0xffffffffffffffffffffffffffffffffffffffff\n      and\n        /* \"FuncSelector.sol\":680:689  msg.value */\n      callvalue\n        /* \"FuncSelector.sol\":691:699  funcData */\n      dup4\n        /* \"FuncSelector.sol\":654:700  _contractAddr.call{value: msg.value}(funcData) */\n      mload(0x40)\n      tag_41\n      swap2\n      swap1\n      tag_42\n      jump\t// in\n    tag_41:\n      0x00\n      mload(0x40)\n      dup1\n      dup4\n      sub\n      dup2\n      dup6\n      dup8\n      gas\n      call\n      swap3\n      pop\n      pop\n      pop\n      returndatasize\n      dup1\n      0x00\n      dup2\n      eq\n      tag_45\n      jumpi\n      mload(0x40)\n      swap2\n      pop\n      and(add(returndatasize, 0x3f), not(0x1f))\n      dup3\n      add\n      0x40\n      mstore\n      returndatasize\n      dup3\n      mstore\n      returndatasize\n      0x00\n      0x20\n      dup5\n      add\n      returndatacopy\n      jump(tag_44)\n    tag_45:\n      0x60\n      swap2\n      pop\n    tag_44:\n      pop\n        /* \"FuncSelector.sol\":640:700  (bool ret,) = _contractAddr.call{value: msg.value}(funcData) */\n      pop\n      swap1\n      pop\n        /* \"FuncSelector.sol\":719:722  ret */\n      dup1\n        /* \"FuncSelector.sol\":711:745  require(ret, \"execute set() fail\") */\n      tag_46\n      jumpi\n      mload(0x40)\n      0x08c379a000000000000000000000000000000000000000000000000000000000\n      dup2\n      mstore\n      0x04\n      add\n      tag_47\n      swap1\n      tag_48\n      jump\t// in\n    tag_47:\n      mload(0x40)\n      dup1\n      swap2\n      sub\n      swap1\n      revert\n    tag_46:\n        /* \"FuncSelector.sol\":761:783  sendExecute2Proxy(ret) */\n      0xf25edb80beee5f459cb200976ea19576df975c790dbdf83bb9d9bec4ff45f38c\n        /* \"FuncSelector.sol\":779:782  ret */\n      dup2\n        /* \"FuncSelector.sol\":761:783  sendExecute2Proxy(ret) */\n      mload(0x40)\n      tag_49\n      swap2\n      swap1\n      tag_50\n      jump\t// in\n    tag_49:\n      mload(0x40)\n      dup1\n      swap2\n      sub\n      swap1\n      log1\n        /* \"FuncSelector.sol\":517:793  {... */\n      pop\n      pop\n        /* \"FuncSelector.sol\":449:793  function executeSet(address _contractAddr, uint _x) public payable  {... */\n      pop\n      pop\n      jump\t// out\n    tag_28:\n      dataSize(sub_0)\n      dup1\n      dataOffset(sub_0)\n      dup4\n      codecopy\n      add\n      swap1\n      jump\t// out\n        /* \"#utility.yul\":7:105   */\n    tag_51:\n        /* \"#utility.yul\":58:64   */\n      0x00\n        /* \"#utility.yul\":92:97   */\n      dup2\n        /* \"#utility.yul\":86:98   */\n      mload\n        /* \"#utility.yul\":76:98   */\n      swap1\n      pop\n        /* \"#utility.yul\":7:105   */\n      swap2\n      swap1\n      pop\n      jump\t// out\n        /* \"#utility.yul\":111:279   */\n    tag_52:\n        /* \"#utility.yul\":194:205   */\n      0x00\n        /* \"#utility.yul\":228:234   */\n      dup3\n        /* \"#utility.yul\":223:226   */\n      dup3\n        /* \"#utility.yul\":216:235   */\n      mstore\n        /* \"#utility.yul\":268:272   */\n      0x20\n        /* \"#utility.yul\":263:266   */\n      dup3\n        /* \"#utility.yul\":259:273   */\n      add\n        /* \"#utility.yul\":244:273   */\n      swap1\n      pop\n        /* \"#utility.yul\":111:279   */\n      swap3\n      swap2\n      pop\n      pop\n      jump\t// out\n        /* \"#utility.yul\":285:424   */\n    tag_53:\n        /* \"#utility.yul\":374:380   */\n      dup3\n        /* \"#utility.yul\":369:372   */\n      dup2\n        /* \"#utility.yul\":364:367   */\n      dup4\n        /* \"#utility.yul\":358:381   */\n      mcopy\n        /* \"#utility.yul\":415:416   */\n      0x00\n        /* \"#utility.yul\":406:412   */\n      dup4\n        /* \"#utility.yul\":401:404   */\n      dup4\n        /* \"#utility.yul\":397:413   */\n      add\n        /* \"#utility.yul\":390:417   */\n      mstore\n        /* \"#utility.yul\":285:424   */\n      pop\n      pop\n      pop\n      jump\t// out\n        /* \"#utility.yul\":430:532   */\n    tag_54:\n        /* \"#utility.yul\":471:477   */\n      0x00\n        /* \"#utility.yul\":522:524   */\n      0x1f\n        /* \"#utility.yul\":518:525   */\n      not\n        /* \"#utility.yul\":513:515   */\n      0x1f\n        /* \"#utility.yul\":506:511   */\n      dup4\n        /* \"#utility.yul\":502:516   */\n      add\n        /* \"#utility.yul\":498:526   */\n      and\n        /* \"#utility.yul\":488:526   */\n      swap1\n      pop\n        /* \"#utility.yul\":430:532   */\n      swap2\n      swap1\n      pop\n      jump\t// out\n        /* \"#utility.yul\":538:911   */\n    tag_55:\n        /* \"#utility.yul\":624:627   */\n      0x00\n        /* \"#utility.yul\":652:690   */\n      tag_89\n        /* \"#utility.yul\":684:689   */\n      dup3\n        /* \"#utility.yul\":652:690   */\n      tag_51\n      jump\t// in\n    tag_89:\n        /* \"#utility.yul\":706:776   */\n      tag_90\n        /* \"#utility.yul\":769:775   */\n      dup2\n        /* \"#utility.yul\":764:767   */\n      dup6\n        /* \"#utility.yul\":706:776   */\n      tag_52\n      jump\t// in\n    tag_90:\n        /* \"#utility.yul\":699:776   */\n      swap4\n      pop\n        /* \"#utility.yul\":785:850   */\n      tag_91\n        /* \"#utility.yul\":843:849   */\n      dup2\n        /* \"#utility.yul\":838:841   */\n      dup6\n        /* \"#utility.yul\":831:835   */\n      0x20\n        /* \"#utility.yul\":824:829   */\n      dup7\n        /* \"#utility.yul\":820:836   */\n      add\n        /* \"#utility.yul\":785:850   */\n      tag_53\n      jump\t// in\n    tag_91:\n        /* \"#utility.yul\":875:904   */\n      tag_92\n        /* \"#utility.yul\":897:903   */\n      dup2\n        /* \"#utility.yul\":875:904   */\n      tag_54\n      jump\t// in\n    tag_92:\n        /* \"#utility.yul\":870:873   */\n      dup5\n        /* \"#utility.yul\":866:905   */\n      add\n        /* \"#utility.yul\":859:905   */\n      swap2\n      pop\n        /* \"#utility.yul\":628:911   */\n      pop\n        /* \"#utility.yul\":538:911   */\n      swap3\n      swap2\n      pop\n      pop\n      jump\t// out\n        /* \"#utility.yul\":917:1226   */\n    tag_10:\n        /* \"#utility.yul\":1028:1032   */\n      0x00\n        /* \"#utility.yul\":1066:1068   */\n      0x20\n        /* \"#utility.yul\":1055:1064   */\n      dup3\n        /* \"#utility.yul\":1051:1069   */\n      add\n        /* \"#utility.yul\":1043:1069   */\n      swap1\n      pop\n        /* \"#utility.yul\":1115:1124   */\n      dup2\n        /* \"#utility.yul\":1109:1113   */\n      dup2\n        /* \"#utility.yul\":1105:1125   */\n      sub\n        /* \"#utility.yul\":1101:1102   */\n      0x00\n        /* \"#utility.yul\":1090:1099   */\n      dup4\n        /* \"#utility.yul\":1086:1103   */\n      add\n        /* \"#utility.yul\":1079:1126   */\n      mstore\n        /* \"#utility.yul\":1143:1219   */\n      tag_94\n        /* \"#utility.yul\":1214:1218   */\n      dup2\n        /* \"#utility.yul\":1205:1211   */\n      dup5\n        /* \"#utility.yul\":1143:1219   */\n      tag_55\n      jump\t// in\n    tag_94:\n        /* \"#utility.yul\":1135:1219   */\n      swap1\n      pop\n        /* \"#utility.yul\":917:1226   */\n      swap3\n      swap2\n      pop\n      pop\n      jump\t// out\n        /* \"#utility.yul\":1313:1430   */\n    tag_57:\n        /* \"#utility.yul\":1422:1423   */\n      0x00\n        /* \"#utility.yul\":1419:1420   */\n      dup1\n        /* \"#utility.yul\":1412:1424   */\n      revert\n        /* \"#utility.yul\":1436:1553   */\n    tag_58:\n        /* \"#utility.yul\":1545:1546   */\n      0x00\n        /* \"#utility.yul\":1542:1543   */\n      dup1\n        /* \"#utility.yul\":1535:1547   */\n      revert\n        /* \"#utility.yul\":1559:1636   */\n    tag_59:\n        /* \"#utility.yul\":1596:1603   */\n      0x00\n        /* \"#utility.yul\":1625:1630   */\n      dup2\n        /* \"#utility.yul\":1614:1630   */\n      swap1\n      pop\n        /* \"#utility.yul\":1559:1636   */\n      swap2\n      swap1\n      pop\n      jump\t// out\n        /* \"#utility.yul\":1642:1764   */\n    tag_60:\n        /* \"#utility.yul\":1715:1739   */\n      tag_100\n        /* \"#utility.yul\":1733:1738   */\n      dup2\n        /* \"#utility.yul\":1715:1739   */\n      tag_59\n      jump\t// in\n    tag_100:\n        /* \"#utility.yul\":1708:1713   */\n      dup2\n        /* \"#utility.yul\":1705:1740   */\n      eq\n        /* \"#utility.yul\":1695:1758   */\n      tag_101\n      jumpi\n        /* \"#utility.yul\":1754:1755   */\n      0x00\n        /* \"#utility.yul\":1751:1752   */\n      dup1\n        /* \"#utility.yul\":1744:1756   */\n      revert\n        /* \"#utility.yul\":1695:1758   */\n    tag_101:\n        /* \"#utility.yul\":1642:1764   */\n      pop\n      jump\t// out\n        /* \"#utility.yul\":1770:1909   */\n    tag_61:\n        /* \"#utility.yul\":1816:1821   */\n      0x00\n        /* \"#utility.yul\":1854:1860   */\n      dup2\n        /* \"#utility.yul\":1841:1861   */\n      calldataload\n        /* \"#utility.yul\":1832:1861   */\n      swap1\n      pop\n        /* \"#utility.yul\":1870:1903   */\n      tag_103\n        /* \"#utility.yul\":1897:1902   */\n      dup2\n        /* \"#utility.yul\":1870:1903   */\n      tag_60\n      jump\t// in\n    tag_103:\n        /* \"#utility.yul\":1770:1909   */\n      swap3\n      swap2\n      pop\n      pop\n      jump\t// out\n        /* \"#utility.yul\":1915:2041   */\n    tag_62:\n        /* \"#utility.yul\":1952:1959   */\n      0x00\n        /* \"#utility.yul\":1992:2034   */\n      0xffffffffffffffffffffffffffffffffffffffff\n        /* \"#utility.yul\":1985:1990   */\n      dup3\n        /* \"#utility.yul\":1981:2035   */\n      and\n        /* \"#utility.yul\":1970:2035   */\n      swap1\n      pop\n        /* \"#utility.yul\":1915:2041   */\n      swap2\n      swap1\n      pop\n      jump\t// out\n        /* \"#utility.yul\":2047:2143   */\n    tag_63:\n        /* \"#utility.yul\":2084:2091   */\n      0x00\n        /* \"#utility.yul\":2113:2137   */\n      tag_106\n        /* \"#utility.yul\":2131:2136   */\n      dup3\n        /* \"#utility.yul\":2113:2137   */\n      tag_62\n      jump\t// in\n    tag_106:\n        /* \"#utility.yul\":2102:2137   */\n      swap1\n      pop\n        /* \"#utility.yul\":2047:2143   */\n      swap2\n      swap1\n      pop\n      jump\t// out\n        /* \"#utility.yul\":2149:2271   */\n    tag_64:\n        /* \"#utility.yul\":2222:2246   */\n      tag_108\n        /* \"#utility.yul\":2240:2245   */\n      dup2\n        /* \"#utility.yul\":2222:2246   */\n      tag_63\n      jump\t// in\n    tag_108:\n        /* \"#utility.yul\":2215:2220   */\n      dup2\n        /* \"#utility.yul\":2212:2247   */\n      eq\n        /* \"#utility.yul\":2202:2265   */\n      tag_109\n      jumpi\n        /* \"#utility.yul\":2261:2262   */\n      0x00\n        /* \"#utility.yul\":2258:2259   */\n      dup1\n        /* \"#utility.yul\":2251:2263   */\n      revert\n        /* \"#utility.yul\":2202:2265   */\n    tag_109:\n        /* \"#utility.yul\":2149:2271   */\n      pop\n      jump\t// out\n        /* \"#utility.yul\":2277:2416   */\n    tag_65:\n        /* \"#utility.yul\":2323:2328   */\n      0x00\n        /* \"#utility.yul\":2361:2367   */\n      dup2\n        /* \"#utility.yul\":2348:2368   */\n      calldataload\n        /* \"#utility.yul\":2339:2368   */\n      swap1\n      pop\n        /* \"#utility.yul\":2377:2410   */\n      tag_111\n        /* \"#utility.yul\":2404:2409   */\n      dup2\n        /* \"#utility.yul\":2377:2410   */\n      tag_64\n      jump\t// in\n    tag_111:\n        /* \"#utility.yul\":2277:2416   */\n      swap3\n      swap2\n      pop\n      pop\n      jump\t// out\n        /* \"#utility.yul\":2422:3041   */\n    tag_13:\n        /* \"#utility.yul\":2499:2505   */\n      0x00\n        /* \"#utility.yul\":2507:2513   */\n      dup1\n        /* \"#utility.yul\":2515:2521   */\n      0x00\n        /* \"#utility.yul\":2564:2566   */\n      0x60\n        /* \"#utility.yul\":2552:2561   */\n      dup5\n        /* \"#utility.yul\":2543:2550   */\n      dup7\n        /* \"#utility.yul\":2539:2562   */\n      sub\n        /* \"#utility.yul\":2535:2567   */\n      slt\n        /* \"#utility.yul\":2532:2651   */\n      iszero\n      tag_113\n      jumpi\n        /* \"#utility.yul\":2570:2649   */\n      tag_114\n      tag_57\n      jump\t// in\n    tag_114:\n        /* \"#utility.yul\":2532:2651   */\n    tag_113:\n        /* \"#utility.yul\":2690:2691   */\n      0x00\n        /* \"#utility.yul\":2715:2768   */\n      tag_115\n        /* \"#utility.yul\":2760:2767   */\n      dup7\n        /* \"#utility.yul\":2751:2757   */\n      dup3\n        /* \"#utility.yul\":2740:2749   */\n      dup8\n        /* \"#utility.yul\":2736:2758   */\n      add\n        /* \"#utility.yul\":2715:2768   */\n      tag_61\n      jump\t// in\n    tag_115:\n        /* \"#utility.yul\":2705:2768   */\n      swap4\n      pop\n        /* \"#utility.yul\":2661:2778   */\n      pop\n        /* \"#utility.yul\":2817:2819   */\n      0x20\n        /* \"#utility.yul\":2843:2896   */\n      tag_116\n        /* \"#utility.yul\":2888:2895   */\n      dup7\n        /* \"#utility.yul\":2879:2885   */\n      dup3\n        /* \"#utility.yul\":2868:2877   */\n      dup8\n        /* \"#utility.yul\":2864:2886   */\n      add\n        /* \"#utility.yul\":2843:2896   */\n      tag_61\n      jump\t// in\n    tag_116:\n        /* \"#utility.yul\":2833:2896   */\n      swap3\n      pop\n        /* \"#utility.yul\":2788:2906   */\n      pop\n        /* \"#utility.yul\":2945:2947   */\n      0x40\n        /* \"#utility.yul\":2971:3024   */\n      tag_117\n        /* \"#utility.yul\":3016:3023   */\n      dup7\n        /* \"#utility.yul\":3007:3013   */\n      dup3\n        /* \"#utility.yul\":2996:3005   */\n      dup8\n        /* \"#utility.yul\":2992:3014   */\n      add\n        /* \"#utility.yul\":2971:3024   */\n      tag_65\n      jump\t// in\n    tag_117:\n        /* \"#utility.yul\":2961:3024   */\n      swap2\n      pop\n        /* \"#utility.yul\":2916:3034   */\n      pop\n        /* \"#utility.yul\":2422:3041   */\n      swap3\n      pop\n      swap3\n      pop\n      swap3\n      jump\t// out\n        /* \"#utility.yul\":3047:3164   */\n    tag_66:\n        /* \"#utility.yul\":3156:3157   */\n      0x00\n        /* \"#utility.yul\":3153:3154   */\n      dup1\n        /* \"#utility.yul\":3146:3158   */\n      revert\n        /* \"#utility.yul\":3170:3287   */\n    tag_67:\n        /* \"#utility.yul\":3279:3280   */\n      0x00\n        /* \"#utility.yul\":3276:3277   */\n      dup1\n        /* \"#utility.yul\":3269:3281   */\n      revert\n        /* \"#utility.yul\":3293:3410   */\n    tag_68:\n        /* \"#utility.yul\":3402:3403   */\n      0x00\n        /* \"#utility.yul\":3399:3400   */\n      dup1\n        /* \"#utility.yul\":3392:3404   */\n      revert\n        /* \"#utility.yul\":3430:3983   */\n    tag_69:\n        /* \"#utility.yul\":3488:3496   */\n      0x00\n        /* \"#utility.yul\":3498:3504   */\n      dup1\n        /* \"#utility.yul\":3548:3551   */\n      dup4\n        /* \"#utility.yul\":3541:3545   */\n      0x1f\n        /* \"#utility.yul\":3533:3539   */\n      dup5\n        /* \"#utility.yul\":3529:3546   */\n      add\n        /* \"#utility.yul\":3525:3552   */\n      slt\n        /* \"#utility.yul\":3515:3637   */\n      tag_122\n      jumpi\n        /* \"#utility.yul\":3556:3635   */\n      tag_123\n      tag_66\n      jump\t// in\n    tag_123:\n        /* \"#utility.yul\":3515:3637   */\n    tag_122:\n        /* \"#utility.yul\":3669:3675   */\n      dup3\n        /* \"#utility.yul\":3656:3676   */\n      calldataload\n        /* \"#utility.yul\":3646:3676   */\n      swap1\n      pop\n        /* \"#utility.yul\":3699:3717   */\n      0xffffffffffffffff\n        /* \"#utility.yul\":3691:3697   */\n      dup2\n        /* \"#utility.yul\":3688:3718   */\n      gt\n        /* \"#utility.yul\":3685:3802   */\n      iszero\n      tag_124\n      jumpi\n        /* \"#utility.yul\":3721:3800   */\n      tag_125\n      tag_67\n      jump\t// in\n    tag_125:\n        /* \"#utility.yul\":3685:3802   */\n    tag_124:\n        /* \"#utility.yul\":3835:3839   */\n      0x20\n        /* \"#utility.yul\":3827:3833   */\n      dup4\n        /* \"#utility.yul\":3823:3840   */\n      add\n        /* \"#utility.yul\":3811:3840   */\n      swap2\n      pop\n        /* \"#utility.yul\":3889:3892   */\n      dup4\n        /* \"#utility.yul\":3881:3885   */\n      0x01\n        /* \"#utility.yul\":3873:3879   */\n      dup3\n        /* \"#utility.yul\":3869:3886   */\n      mul\n        /* \"#utility.yul\":3859:3867   */\n      dup4\n        /* \"#utility.yul\":3855:3887   */\n      add\n        /* \"#utility.yul\":3852:3893   */\n      gt\n        /* \"#utility.yul\":3849:3977   */\n      iszero\n      tag_126\n      jumpi\n        /* \"#utility.yul\":3896:3975   */\n      tag_127\n      tag_68\n      jump\t// in\n    tag_127:\n        /* \"#utility.yul\":3849:3977   */\n    tag_126:\n        /* \"#utility.yul\":3430:3983   */\n      swap3\n      pop\n      swap3\n      swap1\n      pop\n      jump\t// out\n        /* \"#utility.yul\":3989:4518   */\n    tag_18:\n        /* \"#utility.yul\":4060:4066   */\n      0x00\n        /* \"#utility.yul\":4068:4074   */\n      dup1\n        /* \"#utility.yul\":4117:4119   */\n      0x20\n        /* \"#utility.yul\":4105:4114   */\n      dup4\n        /* \"#utility.yul\":4096:4103   */\n      dup6\n        /* \"#utility.yul\":4092:4115   */\n      sub\n        /* \"#utility.yul\":4088:4120   */\n      slt\n        /* \"#utility.yul\":4085:4204   */\n      iszero\n      tag_129\n      jumpi\n        /* \"#utility.yul\":4123:4202   */\n      tag_130\n      tag_57\n      jump\t// in\n    tag_130:\n        /* \"#utility.yul\":4085:4204   */\n    tag_129:\n        /* \"#utility.yul\":4271:4272   */\n      0x00\n        /* \"#utility.yul\":4260:4269   */\n      dup4\n        /* \"#utility.yul\":4256:4273   */\n      add\n        /* \"#utility.yul\":4243:4274   */\n      calldataload\n        /* \"#utility.yul\":4301:4319   */\n      0xffffffffffffffff\n        /* \"#utility.yul\":4293:4299   */\n      dup2\n        /* \"#utility.yul\":4290:4320   */\n      gt\n        /* \"#utility.yul\":4287:4404   */\n      iszero\n      tag_131\n      jumpi\n        /* \"#utility.yul\":4323:4402   */\n      tag_132\n      tag_58\n      jump\t// in\n    tag_132:\n        /* \"#utility.yul\":4287:4404   */\n    tag_131:\n        /* \"#utility.yul\":4436:4501   */\n      tag_133\n        /* \"#utility.yul\":4493:4500   */\n      dup6\n        /* \"#utility.yul\":4484:4490   */\n      dup3\n        /* \"#utility.yul\":4473:4482   */\n      dup7\n        /* \"#utility.yul\":4469:4491   */\n      add\n        /* \"#utility.yul\":4436:4501   */\n      tag_69\n      jump\t// in\n    tag_133:\n        /* \"#utility.yul\":4418:4501   */\n      swap3\n      pop\n      swap3\n      pop\n        /* \"#utility.yul\":4214:4511   */\n      pop\n        /* \"#utility.yul\":3989:4518   */\n      swap3\n      pop\n      swap3\n      swap1\n      pop\n      jump\t// out\n        /* \"#utility.yul\":4524:4673   */\n    tag_70:\n        /* \"#utility.yul\":4560:4567   */\n      0x00\n        /* \"#utility.yul\":4600:4666   */\n      0xffffffff00000000000000000000000000000000000000000000000000000000\n        /* \"#utility.yul\":4593:4598   */\n      dup3\n        /* \"#utility.yul\":4589:4667   */\n      and\n        /* \"#utility.yul\":4578:4667   */\n      swap1\n      pop\n        /* \"#utility.yul\":4524:4673   */\n      swap2\n      swap1\n      pop\n      jump\t// out\n        /* \"#utility.yul\":4679:4794   */\n    tag_71:\n        /* \"#utility.yul\":4764:4787   */\n      tag_136\n        /* \"#utility.yul\":4781:4786   */\n      dup2\n        /* \"#utility.yul\":4764:4787   */\n      tag_70\n      jump\t// in\n    tag_136:\n        /* \"#utility.yul\":4759:4762   */\n      dup3\n        /* \"#utility.yul\":4752:4788   */\n      mstore\n        /* \"#utility.yul\":4679:4794   */\n      pop\n      pop\n      jump\t// out\n        /* \"#utility.yul\":4800:5018   */\n    tag_21:\n        /* \"#utility.yul\":4891:4895   */\n      0x00\n        /* \"#utility.yul\":4929:4931   */\n      0x20\n        /* \"#utility.yul\":4918:4927   */\n      dup3\n        /* \"#utility.yul\":4914:4932   */\n      add\n        /* \"#utility.yul\":4906:4932   */\n      swap1\n      pop\n        /* \"#utility.yul\":4942:5011   */\n      tag_138\n        /* \"#utility.yul\":5008:5009   */\n      0x00\n        /* \"#utility.yul\":4997:5006   */\n      dup4\n        /* \"#utility.yul\":4993:5010   */\n      add\n        /* \"#utility.yul\":4984:4990   */\n      dup5\n        /* \"#utility.yul\":4942:5011   */\n      tag_71\n      jump\t// in\n    tag_138:\n        /* \"#utility.yul\":4800:5018   */\n      swap3\n      swap2\n      pop\n      pop\n      jump\t// out\n        /* \"#utility.yul\":5024:5498   */\n    tag_24:\n        /* \"#utility.yul\":5092:5098   */\n      0x00\n        /* \"#utility.yul\":5100:5106   */\n      dup1\n        /* \"#utility.yul\":5149:5151   */\n      0x40\n        /* \"#utility.yul\":5137:5146   */\n      dup4\n        /* \"#utility.yul\":5128:5135   */\n      dup6\n        /* \"#utility.yul\":5124:5147   */\n      sub\n        /* \"#utility.yul\":5120:5152   */\n      slt\n        /* \"#utility.yul\":5117:5236   */\n      iszero\n      tag_140\n      jumpi\n        /* \"#utility.yul\":5155:5234   */\n      tag_141\n      tag_57\n      jump\t// in\n    tag_141:\n        /* \"#utility.yul\":5117:5236   */\n    tag_140:\n        /* \"#utility.yul\":5275:5276   */\n      0x00\n        /* \"#utility.yul\":5300:5353   */\n      tag_142\n        /* \"#utility.yul\":5345:5352   */\n      dup6\n        /* \"#utility.yul\":5336:5342   */\n      dup3\n        /* \"#utility.yul\":5325:5334   */\n      dup7\n        /* \"#utility.yul\":5321:5343   */\n      add\n        /* \"#utility.yul\":5300:5353   */\n      tag_65\n      jump\t// in\n    tag_142:\n        /* \"#utility.yul\":5290:5353   */\n      swap3\n      pop\n        /* \"#utility.yul\":5246:5363   */\n      pop\n        /* \"#utility.yul\":5402:5404   */\n      0x20\n        /* \"#utility.yul\":5428:5481   */\n      tag_143\n        /* \"#utility.yul\":5473:5480   */\n      dup6\n        /* \"#utility.yul\":5464:5470   */\n      dup3\n        /* \"#utility.yul\":5453:5462   */\n      dup7\n        /* \"#utility.yul\":5449:5471   */\n      add\n        /* \"#utility.yul\":5428:5481   */\n      tag_61\n      jump\t// in\n    tag_143:\n        /* \"#utility.yul\":5418:5481   */\n      swap2\n      pop\n        /* \"#utility.yul\":5373:5491   */\n      pop\n        /* \"#utility.yul\":5024:5498   */\n      swap3\n      pop\n      swap3\n      swap1\n      pop\n      jump\t// out\n        /* \"#utility.yul\":5504:5622   */\n    tag_72:\n        /* \"#utility.yul\":5591:5615   */\n      tag_145\n        /* \"#utility.yul\":5609:5614   */\n      dup2\n        /* \"#utility.yul\":5591:5615   */\n      tag_59\n      jump\t// in\n    tag_145:\n        /* \"#utility.yul\":5586:5589   */\n      dup3\n        /* \"#utility.yul\":5579:5616   */\n      mstore\n        /* \"#utility.yul\":5504:5622   */\n      pop\n      pop\n      jump\t// out\n        /* \"#utility.yul\":5628:5746   */\n    tag_73:\n        /* \"#utility.yul\":5715:5739   */\n      tag_147\n        /* \"#utility.yul\":5733:5738   */\n      dup2\n        /* \"#utility.yul\":5715:5739   */\n      tag_63\n      jump\t// in\n    tag_147:\n        /* \"#utility.yul\":5710:5713   */\n      dup3\n        /* \"#utility.yul\":5703:5740   */\n      mstore\n        /* \"#utility.yul\":5628:5746   */\n      pop\n      pop\n      jump\t// out\n        /* \"#utility.yul\":5752:6194   */\n    tag_32:\n        /* \"#utility.yul\":5901:5905   */\n      0x00\n        /* \"#utility.yul\":5939:5941   */\n      0x60\n        /* \"#utility.yul\":5928:5937   */\n      dup3\n        /* \"#utility.yul\":5924:5942   */\n      add\n        /* \"#utility.yul\":5916:5942   */\n      swap1\n      pop\n        /* \"#utility.yul\":5952:6023   */\n      tag_149\n        /* \"#utility.yul\":6020:6021   */\n      0x00\n        /* \"#utility.yul\":6009:6018   */\n      dup4\n        /* \"#utility.yul\":6005:6022   */\n      add\n        /* \"#utility.yul\":5996:6002   */\n      dup7\n        /* \"#utility.yul\":5952:6023   */\n      tag_72\n      jump\t// in\n    tag_149:\n        /* \"#utility.yul\":6033:6105   */\n      tag_150\n        /* \"#utility.yul\":6101:6103   */\n      0x20\n        /* \"#utility.yul\":6090:6099   */\n      dup4\n        /* \"#utility.yul\":6086:6104   */\n      add\n        /* \"#utility.yul\":6077:6083   */\n      dup6\n        /* \"#utility.yul\":6033:6105   */\n      tag_72\n      jump\t// in\n    tag_150:\n        /* \"#utility.yul\":6115:6187   */\n      tag_151\n        /* \"#utility.yul\":6183:6185   */\n      0x40\n        /* \"#utility.yul\":6172:6181   */\n      dup4\n        /* \"#utility.yul\":6168:6186   */\n      add\n        /* \"#utility.yul\":6159:6165   */\n      dup5\n        /* \"#utility.yul\":6115:6187   */\n      tag_73\n      jump\t// in\n    tag_151:\n        /* \"#utility.yul\":5752:6194   */\n      swap5\n      swap4\n      pop\n      pop\n      pop\n      pop\n      jump\t// out\n        /* \"#utility.yul\":6200:6347   */\n    tag_74:\n        /* \"#utility.yul\":6301:6312   */\n      0x00\n        /* \"#utility.yul\":6338:6341   */\n      dup2\n        /* \"#utility.yul\":6323:6341   */\n      swap1\n      pop\n        /* \"#utility.yul\":6200:6347   */\n      swap3\n      swap2\n      pop\n      pop\n      jump\t// out\n        /* \"#utility.yul\":6353:6501   */\n    tag_75:\n        /* \"#utility.yul\":6451:6457   */\n      dup3\n        /* \"#utility.yul\":6446:6449   */\n      dup2\n        /* \"#utility.yul\":6441:6444   */\n      dup4\n        /* \"#utility.yul\":6428:6458   */\n      calldatacopy\n        /* \"#utility.yul\":6492:6493   */\n      0x00\n        /* \"#utility.yul\":6483:6489   */\n      dup4\n        /* \"#utility.yul\":6478:6481   */\n      dup4\n        /* \"#utility.yul\":6474:6490   */\n      add\n        /* \"#utility.yul\":6467:6494   */\n      mstore\n        /* \"#utility.yul\":6353:6501   */\n      pop\n      pop\n      pop\n      jump\t// out\n        /* \"#utility.yul\":6529:6856   */\n    tag_76:\n        /* \"#utility.yul\":6643:6646   */\n      0x00\n        /* \"#utility.yul\":6664:6752   */\n      tag_155\n        /* \"#utility.yul\":6745:6751   */\n      dup4\n        /* \"#utility.yul\":6740:6743   */\n      dup6\n        /* \"#utility.yul\":6664:6752   */\n      tag_74\n      jump\t// in\n    tag_155:\n        /* \"#utility.yul\":6657:6752   */\n      swap4\n      pop\n        /* \"#utility.yul\":6762:6818   */\n      tag_156\n        /* \"#utility.yul\":6811:6817   */\n      dup4\n        /* \"#utility.yul\":6806:6809   */\n      dup6\n        /* \"#utility.yul\":6799:6804   */\n      dup5\n        /* \"#utility.yul\":6762:6818   */\n      tag_75\n      jump\t// in\n    tag_156:\n        /* \"#utility.yul\":6843:6849   */\n      dup3\n        /* \"#utility.yul\":6838:6841   */\n      dup5\n        /* \"#utility.yul\":6834:6850   */\n      add\n        /* \"#utility.yul\":6827:6850   */\n      swap1\n      pop\n        /* \"#utility.yul\":6529:6856   */\n      swap4\n      swap3\n      pop\n      pop\n      pop\n      jump\t// out\n        /* \"#utility.yul\":6862:7153   */\n    tag_36:\n        /* \"#utility.yul\":7002:7005   */\n      0x00\n        /* \"#utility.yul\":7024:7127   */\n      tag_158\n        /* \"#utility.yul\":7123:7126   */\n      dup3\n        /* \"#utility.yul\":7114:7120   */\n      dup5\n        /* \"#utility.yul\":7106:7112   */\n      dup7\n        /* \"#utility.yul\":7024:7127   */\n      tag_76\n      jump\t// in\n    tag_158:\n        /* \"#utility.yul\":7017:7127   */\n      swap2\n      pop\n        /* \"#utility.yul\":7144:7147   */\n      dup2\n        /* \"#utility.yul\":7137:7147   */\n      swap1\n      pop\n        /* \"#utility.yul\":6862:7153   */\n      swap4\n      swap3\n      pop\n      pop\n      pop\n      jump\t// out\n        /* \"#utility.yul\":7159:7381   */\n    tag_39:\n        /* \"#utility.yul\":7252:7256   */\n      0x00\n        /* \"#utility.yul\":7290:7292   */\n      0x20\n        /* \"#utility.yul\":7279:7288   */\n      dup3\n        /* \"#utility.yul\":7275:7293   */\n      add\n        /* \"#utility.yul\":7267:7293   */\n      swap1\n      pop\n        /* \"#utility.yul\":7303:7374   */\n      tag_160\n        /* \"#utility.yul\":7371:7372   */\n      0x00\n        /* \"#utility.yul\":7360:7369   */\n      dup4\n        /* \"#utility.yul\":7356:7373   */\n      add\n        /* \"#utility.yul\":7347:7353   */\n      dup5\n        /* \"#utility.yul\":7303:7374   */\n      tag_72\n      jump\t// in\n    tag_160:\n        /* \"#utility.yul\":7159:7381   */\n      swap3\n      swap2\n      pop\n      pop\n      jump\t// out\n        /* \"#utility.yul\":7387:7773   */\n    tag_77:\n        /* \"#utility.yul\":7491:7494   */\n      0x00\n        /* \"#utility.yul\":7519:7557   */\n      tag_162\n        /* \"#utility.yul\":7551:7556   */\n      dup3\n        /* \"#utility.yul\":7519:7557   */\n      tag_51\n      jump\t// in\n    tag_162:\n        /* \"#utility.yul\":7573:7661   */\n      tag_163\n        /* \"#utility.yul\":7654:7660   */\n      dup2\n        /* \"#utility.yul\":7649:7652   */\n      dup6\n        /* \"#utility.yul\":7573:7661   */\n      tag_74\n      jump\t// in\n    tag_163:\n        /* \"#utility.yul\":7566:7661   */\n      swap4\n      pop\n        /* \"#utility.yul\":7670:7735   */\n      tag_164\n        /* \"#utility.yul\":7728:7734   */\n      dup2\n        /* \"#utility.yul\":7723:7726   */\n      dup6\n        /* \"#utility.yul\":7716:7720   */\n      0x20\n        /* \"#utility.yul\":7709:7714   */\n      dup7\n        /* \"#utility.yul\":7705:7721   */\n      add\n        /* \"#utility.yul\":7670:7735   */\n      tag_53\n      jump\t// in\n    tag_164:\n        /* \"#utility.yul\":7760:7766   */\n      dup1\n        /* \"#utility.yul\":7755:7758   */\n      dup5\n        /* \"#utility.yul\":7751:7767   */\n      add\n        /* \"#utility.yul\":7744:7767   */\n      swap2\n      pop\n        /* \"#utility.yul\":7495:7773   */\n      pop\n        /* \"#utility.yul\":7387:7773   */\n      swap3\n      swap2\n      pop\n      pop\n      jump\t// out\n        /* \"#utility.yul\":7779:8050   */\n    tag_42:\n        /* \"#utility.yul\":7909:7912   */\n      0x00\n        /* \"#utility.yul\":7931:8024   */\n      tag_166\n        /* \"#utility.yul\":8020:8023   */\n      dup3\n        /* \"#utility.yul\":8011:8017   */\n      dup5\n        /* \"#utility.yul\":7931:8024   */\n      tag_77\n      jump\t// in\n    tag_166:\n        /* \"#utility.yul\":7924:8024   */\n      swap2\n      pop\n        /* \"#utility.yul\":8041:8044   */\n      dup2\n        /* \"#utility.yul\":8034:8044   */\n      swap1\n      pop\n        /* \"#utility.yul\":7779:8050   */\n      swap3\n      swap2\n      pop\n      pop\n      jump\t// out\n        /* \"#utility.yul\":8056:8225   */\n    tag_78:\n        /* \"#utility.yul\":8140:8151   */\n      0x00\n        /* \"#utility.yul\":8174:8180   */\n      dup3\n        /* \"#utility.yul\":8169:8172   */\n      dup3\n        /* \"#utility.yul\":8162:8181   */\n      mstore\n        /* \"#utility.yul\":8214:8218   */\n      0x20\n        /* \"#utility.yul\":8209:8212   */\n      dup3\n        /* \"#utility.yul\":8205:8219   */\n      add\n        /* \"#utility.yul\":8190:8219   */\n      swap1\n      pop\n        /* \"#utility.yul\":8056:8225   */\n      swap3\n      swap2\n      pop\n      pop\n      jump\t// out\n        /* \"#utility.yul\":8231:8399   */\n    tag_79:\n        /* \"#utility.yul\":8371:8391   */\n      0x65786563757465207365742829206661696c0000000000000000000000000000\n        /* \"#utility.yul\":8367:8368   */\n      0x00\n        /* \"#utility.yul\":8359:8365   */\n      dup3\n        /* \"#utility.yul\":8355:8369   */\n      add\n        /* \"#utility.yul\":8348:8392   */\n      mstore\n        /* \"#utility.yul\":8231:8399   */\n      pop\n      jump\t// out\n        /* \"#utility.yul\":8405:8771   */\n    tag_80:\n        /* \"#utility.yul\":8547:8550   */\n      0x00\n        /* \"#utility.yul\":8568:8635   */\n      tag_170\n        /* \"#utility.yul\":8632:8634   */\n      0x12\n        /* \"#utility.yul\":8627:8630   */\n      dup4\n        /* \"#utility.yul\":8568:8635   */\n      tag_78\n      jump\t// in\n    tag_170:\n        /* \"#utility.yul\":8561:8635   */\n      swap2\n      pop\n        /* \"#utility.yul\":8644:8737   */\n      tag_171\n        /* \"#utility.yul\":8733:8736   */\n      dup3\n        /* \"#utility.yul\":8644:8737   */\n      tag_79\n      jump\t// in\n    tag_171:\n        /* \"#utility.yul\":8762:8764   */\n      0x20\n        /* \"#utility.yul\":8757:8760   */\n      dup3\n        /* \"#utility.yul\":8753:8765   */\n      add\n        /* \"#utility.yul\":8746:8765   */\n      swap1\n      pop\n        /* \"#utility.yul\":8405:8771   */\n      swap2\n      swap1\n      pop\n      jump\t// out\n        /* \"#utility.yul\":8777:9196   */\n    tag_48:\n        /* \"#utility.yul\":8943:8947   */\n      0x00\n        /* \"#utility.yul\":8981:8983   */\n      0x20\n        /* \"#utility.yul\":8970:8979   */\n      dup3\n        /* \"#utility.yul\":8966:8984   */\n      add\n        /* \"#utility.yul\":8958:8984   */\n      swap1\n      pop\n        /* \"#utility.yul\":9030:9039   */\n      dup2\n        /* \"#utility.yul\":9024:9028   */\n      dup2\n        /* \"#utility.yul\":9020:9040   */\n      sub\n        /* \"#utility.yul\":9016:9017   */\n      0x00\n        /* \"#utility.yul\":9005:9014   */\n      dup4\n        /* \"#utility.yul\":9001:9018   */\n      add\n        /* \"#utility.yul\":8994:9041   */\n      mstore\n        /* \"#utility.yul\":9058:9189   */\n      tag_173\n        /* \"#utility.yul\":9184:9188   */\n      dup2\n        /* \"#utility.yul\":9058:9189   */\n      tag_80\n      jump\t// in\n    tag_173:\n        /* \"#utility.yul\":9050:9189   */\n      swap1\n      pop\n        /* \"#utility.yul\":8777:9196   */\n      swap2\n      swap1\n      pop\n      jump\t// out\n        /* \"#utility.yul\":9202:9292   */\n    tag_81:\n        /* \"#utility.yul\":9236:9243   */\n      0x00\n        /* \"#utility.yul\":9279:9284   */\n      dup2\n        /* \"#utility.yul\":9272:9285   */\n      iszero\n        /* \"#utility.yul\":9265:9286   */\n      iszero\n        /* \"#utility.yul\":9254:9286   */\n      swap1\n      pop\n        /* \"#utility.yul\":9202:9292   */\n      swap2\n      swap1\n      pop\n      jump\t// out\n        /* \"#utility.yul\":9298:9407   */\n    tag_82:\n        /* \"#utility.yul\":9379:9400   */\n      tag_176\n        /* \"#utility.yul\":9394:9399   */\n      dup2\n        /* \"#utility.yul\":9379:9400   */\n      tag_81\n      jump\t// in\n    tag_176:\n        /* \"#utility.yul\":9374:9377   */\n      dup3\n        /* \"#utility.yul\":9367:9401   */\n      mstore\n        /* \"#utility.yul\":9298:9407   */\n      pop\n      pop\n      jump\t// out\n        /* \"#utility.yul\":9413:9623   */\n    tag_50:\n        /* \"#utility.yul\":9500:9504   */\n      0x00\n        /* \"#utility.yul\":9538:9540   */\n      0x20\n        /* \"#utility.yul\":9527:9536   */\n      dup3\n        /* \"#utility.yul\":9523:9541   */\n      add\n        /* \"#utility.yul\":9515:9541   */\n      swap1\n      pop\n        /* \"#utility.yul\":9551:9616   */\n      tag_178\n        /* \"#utility.yul\":9613:9614   */\n      0x00\n        /* \"#utility.yul\":9602:9611   */\n      dup4\n        /* \"#utility.yul\":9598:9615   */\n      add\n        /* \"#utility.yul\":9589:9595   */\n      dup5\n        /* \"#utility.yul\":9551:9616   */\n      tag_82\n      jump\t// in\n    tag_178:\n        /* \"#utility.yul\":9413:9623   */\n      swap3\n      swap2\n      pop\n      pop\n      jump\t// out\n    stop\n\n    sub_0: assembly {\n            /* \"FuncSelector.sol\":58:88  contract storeContract{... */\n          mstore(0x40, 0x80)\n          callvalue\n          dup1\n          iszero\n          tag_1\n          jumpi\n          0x00\n          dup1\n          revert\n        tag_1:\n          pop\n          dataSize(sub_0)\n          dup1\n          dataOffset(sub_0)\n          0x00\n          codecopy\n          0x00\n          return\n        stop\n\n        sub_0: assembly {\n                /* \"FuncSelector.sol\":58:88  contract storeContract{... */\n              mstore(0x40, 0x80)\n              0x00\n              dup1\n              revert\n\n            auxdata: 0xa264697066735822122083d2129b9ca0a9e728fe8f80417804f339c0fd0f275ca3d291e532af9dcd9b2e64736f6c634300081a0033\n        }\n    }\n\n    auxdata: 0xa2646970667358221220994a9f50b6a3fba32106eb4c3adfd5ca2cc8bb1b141fd62c7f407cbde742f55764736f6c634300081a0033\n}\n",
				"bytecode": {
					"linkReferences": {},
					"object": "6080604052348015600e575f80fd5b506108e18061001c5f395ff3fe60806040526004361061003e575f3560e01c806357ac656614610042578063a843bcad1461006c578063b9ca6d9814610088578063f1a16a43146100c4575b5f80fd5b34801561004d575f80fd5b506100566100e0565b6040516100639190610460565b60405180910390f35b61008660048036038101906100819190610515565b610142565b005b348015610093575f80fd5b506100ae60048036038101906100a991906105c6565b610214565b6040516100bb919061064b565b60405180910390f35b6100de60048036038101906100d99190610664565b610235565b005b6060604051806020016100f2906103e4565b6020820181038252601f19601f8201166040525090507fdb43982ccb96281af5f34cfbefb3f78363f4aca73d97fc39f9146baaaa9ef436816040516101379190610460565b60405180910390a190565b5f838383604051602401610158939291906106c0565b6040516020818303038152906040527f8a1017ed000000000000000000000000000000000000000000000000000000007bffffffffffffffffffffffffffffffffffffffffffffffffffffffff19166020820180517bffffffffffffffffffffffffffffffffffffffffffffffffffffffff838183161783525050505090507f4f893acf93ad7b2224af286ecf88db98f2b04b04caeaf1da6df4a969d3139cb2816040516102069190610460565b60405180910390a150505050565b5f8282604051610225929190610731565b6040518091039020905092915050565b5f816040516024016102479190610749565b6040516020818303038152906040527fcccdda2c000000000000000000000000000000000000000000000000000000007bffffffffffffffffffffffffffffffffffffffffffffffffffffffff19166020820180517bffffffffffffffffffffffffffffffffffffffffffffffffffffffff838183161783525050505090507f4f893acf93ad7b2224af286ecf88db98f2b04b04caeaf1da6df4a969d3139cb2816040516102f59190610460565b60405180910390a15f8373ffffffffffffffffffffffffffffffffffffffff1634836040516103249190610792565b5f6040518083038185875af1925050503d805f811461035e576040519150601f19603f3d011682016040523d82523d5f602084013e610363565b606091505b50509050806103a7576040517f08c379a000000000000000000000000000000000000000000000000000000000815260040161039e90610802565b60405180910390fd5b7ff25edb80beee5f459cb200976ea19576df975c790dbdf83bb9d9bec4ff45f38c816040516103d6919061083a565b60405180910390a150505050565b60588061085483390190565b5f81519050919050565b5f82825260208201905092915050565b8281835e5f83830152505050565b5f601f19601f8301169050919050565b5f610432826103f0565b61043c81856103fa565b935061044c81856020860161040a565b61045581610418565b840191505092915050565b5f6020820190508181035f8301526104788184610428565b905092915050565b5f80fd5b5f80fd5b5f819050919050565b61049a81610488565b81146104a4575f80fd5b50565b5f813590506104b581610491565b92915050565b5f73ffffffffffffffffffffffffffffffffffffffff82169050919050565b5f6104e4826104bb565b9050919050565b6104f4816104da565b81146104fe575f80fd5b50565b5f8135905061050f816104eb565b92915050565b5f805f6060848603121561052c5761052b610480565b5b5f610539868287016104a7565b935050602061054a868287016104a7565b925050604061055b86828701610501565b9150509250925092565b5f80fd5b5f80fd5b5f80fd5b5f8083601f84011261058657610585610565565b5b8235905067ffffffffffffffff8111156105a3576105a2610569565b5b6020830191508360018202830111156105bf576105be61056d565b5b9250929050565b5f80602083850312156105dc576105db610480565b5b5f83013567ffffffffffffffff8111156105f9576105f8610484565b5b61060585828601610571565b92509250509250929050565b5f7fffffffff0000000000000000000000000000000000000000000000000000000082169050919050565b61064581610611565b82525050565b5f60208201905061065e5f83018461063c565b92915050565b5f806040838503121561067a57610679610480565b5b5f61068785828601610501565b9250506020610698858286016104a7565b9150509250929050565b6106ab81610488565b82525050565b6106ba816104da565b82525050565b5f6060820190506106d35f8301866106a2565b6106e060208301856106a2565b6106ed60408301846106b1565b949350505050565b5f81905092915050565b828183375f83830152505050565b5f61071883856106f5565b93506107258385846106ff565b82840190509392505050565b5f61073d82848661070d565b91508190509392505050565b5f60208201905061075c5f8301846106a2565b92915050565b5f61076c826103f0565b61077681856106f5565b935061078681856020860161040a565b80840191505092915050565b5f61079d8284610762565b915081905092915050565b5f82825260208201905092915050565b7f65786563757465207365742829206661696c00000000000000000000000000005f82015250565b5f6107ec6012836107a8565b91506107f7826107b8565b602082019050919050565b5f6020820190508181035f830152610819816107e0565b9050919050565b5f8115159050919050565b61083481610820565b82525050565b5f60208201905061084d5f83018461082b565b9291505056fe6080604052348015600e575f80fd5b50603e80601a5f395ff3fe60806040525f80fdfea264697066735822122083d2129b9ca0a9e728fe8f80417804f339c0fd0f275ca3d291e532af9dcd9b2e64736f6c634300081a0033a2646970667358221220994a9f50b6a3fba32106eb4c3adfd5ca2cc8bb1b141fd62c7f407cbde742f55764736f6c634300081a0033",
					"opcodes": "PUSH1 0x80 PUSH1 0x40 MSTORE CALLVALUE DUP1 ISZERO PUSH1 0xE JUMPI PUSH0 DUP1 REVERT JUMPDEST POP PUSH2 0x8E1 DUP1 PUSH2 0x1C PUSH0 CODECOPY PUSH0 RETURN INVALID PUSH1 0x80 PUSH1 0x40 MSTORE PUSH1 0x4 CALLDATASIZE LT PUSH2 0x3E JUMPI PUSH0 CALLDATALOAD PUSH1 0xE0 SHR DUP1 PUSH4 0x57AC6566 EQ PUSH2 0x42 JUMPI DUP1 PUSH4 0xA843BCAD EQ PUSH2 0x6C JUMPI DUP1 PUSH4 0xB9CA6D98 EQ PUSH2 0x88 JUMPI DUP1 PUSH4 0xF1A16A43 EQ PUSH2 0xC4 JUMPI JUMPDEST PUSH0 DUP1 REVERT JUMPDEST CALLVALUE DUP1 ISZERO PUSH2 0x4D JUMPI PUSH0 DUP1 REVERT JUMPDEST POP PUSH2 0x56 PUSH2 0xE0 JUMP JUMPDEST PUSH1 0x40 MLOAD PUSH2 0x63 SWAP2 SWAP1 PUSH2 0x460 JUMP JUMPDEST PUSH1 0x40 MLOAD DUP1 SWAP2 SUB SWAP1 RETURN JUMPDEST PUSH2 0x86 PUSH1 0x4 DUP1 CALLDATASIZE SUB DUP2 ADD SWAP1 PUSH2 0x81 SWAP2 SWAP1 PUSH2 0x515 JUMP JUMPDEST PUSH2 0x142 JUMP JUMPDEST STOP JUMPDEST CALLVALUE DUP1 ISZERO PUSH2 0x93 JUMPI PUSH0 DUP1 REVERT JUMPDEST POP PUSH2 0xAE PUSH1 0x4 DUP1 CALLDATASIZE SUB DUP2 ADD SWAP1 PUSH2 0xA9 SWAP2 SWAP1 PUSH2 0x5C6 JUMP JUMPDEST PUSH2 0x214 JUMP JUMPDEST PUSH1 0x40 MLOAD PUSH2 0xBB SWAP2 SWAP1 PUSH2 0x64B JUMP JUMPDEST PUSH1 0x40 MLOAD DUP1 SWAP2 SUB SWAP1 RETURN JUMPDEST PUSH2 0xDE PUSH1 0x4 DUP1 CALLDATASIZE SUB DUP2 ADD SWAP1 PUSH2 0xD9 SWAP2 SWAP1 PUSH2 0x664 JUMP JUMPDEST PUSH2 0x235 JUMP JUMPDEST STOP JUMPDEST PUSH1 0x60 PUSH1 0x40 MLOAD DUP1 PUSH1 0x20 ADD PUSH2 0xF2 SWAP1 PUSH2 0x3E4 JUMP JUMPDEST PUSH1 0x20 DUP3 ADD DUP2 SUB DUP3 MSTORE PUSH1 0x1F NOT PUSH1 0x1F DUP3 ADD AND PUSH1 0x40 MSTORE POP SWAP1 POP PUSH32 0xDB43982CCB96281AF5F34CFBEFB3F78363F4ACA73D97FC39F9146BAAAA9EF436 DUP2 PUSH1 0x40 MLOAD PUSH2 0x137 SWAP2 SWAP1 PUSH2 0x460 JUMP JUMPDEST PUSH1 0x40 MLOAD DUP1 SWAP2 SUB SWAP1 LOG1 SWAP1 JUMP JUMPDEST PUSH0 DUP4 DUP4 DUP4 PUSH1 0x40 MLOAD PUSH1 0x24 ADD PUSH2 0x158 SWAP4 SWAP3 SWAP2 SWAP1 PUSH2 0x6C0 JUMP JUMPDEST PUSH1 0x40 MLOAD PUSH1 0x20 DUP2 DUP4 SUB SUB DUP2 MSTORE SWAP1 PUSH1 0x40 MSTORE PUSH32 0x8A1017ED00000000000000000000000000000000000000000000000000000000 PUSH28 0xFFFFFFFFFFFFFFFFFFFFFFFFFFFFFFFFFFFFFFFFFFFFFFFFFFFFFFFF NOT AND PUSH1 0x20 DUP3 ADD DUP1 MLOAD PUSH28 0xFFFFFFFFFFFFFFFFFFFFFFFFFFFFFFFFFFFFFFFFFFFFFFFFFFFFFFFF DUP4 DUP2 DUP4 AND OR DUP4 MSTORE POP POP POP POP SWAP1 POP PUSH32 0x4F893ACF93AD7B2224AF286ECF88DB98F2B04B04CAEAF1DA6DF4A969D3139CB2 DUP2 PUSH1 0x40 MLOAD PUSH2 0x206 SWAP2 SWAP1 PUSH2 0x460 JUMP JUMPDEST PUSH1 0x40 MLOAD DUP1 SWAP2 SUB SWAP1 LOG1 POP POP POP POP JUMP JUMPDEST PUSH0 DUP3 DUP3 PUSH1 0x40 MLOAD PUSH2 0x225 SWAP3 SWAP2 SWAP1 PUSH2 0x731 JUMP JUMPDEST PUSH1 0x40 MLOAD DUP1 SWAP2 SUB SWAP1 KECCAK256 SWAP1 POP SWAP3 SWAP2 POP POP JUMP JUMPDEST PUSH0 DUP2 PUSH1 0x40 MLOAD PUSH1 0x24 ADD PUSH2 0x247 SWAP2 SWAP1 PUSH2 0x749 JUMP JUMPDEST PUSH1 0x40 MLOAD PUSH1 0x20 DUP2 DUP4 SUB SUB DUP2 MSTORE SWAP1 PUSH1 0x40 MSTORE PUSH32 0xCCCDDA2C00000000000000000000000000000000000000000000000000000000 PUSH28 0xFFFFFFFFFFFFFFFFFFFFFFFFFFFFFFFFFFFFFFFFFFFFFFFFFFFFFFFF NOT AND PUSH1 0x20 DUP3 ADD DUP1 MLOAD PUSH28 0xFFFFFFFFFFFFFFFFFFFFFFFFFFFFFFFFFFFFFFFFFFFFFFFFFFFFFFFF DUP4 DUP2 DUP4 AND OR DUP4 MSTORE POP POP POP POP SWAP1 POP PUSH32 0x4F893ACF93AD7B2224AF286ECF88DB98F2B04B04CAEAF1DA6DF4A969D3139CB2 DUP2 PUSH1 0x40 MLOAD PUSH2 0x2F5 SWAP2 SWAP1 PUSH2 0x460 JUMP JUMPDEST PUSH1 0x40 MLOAD DUP1 SWAP2 SUB SWAP1 LOG1 PUSH0 DUP4 PUSH20 0xFFFFFFFFFFFFFFFFFFFFFFFFFFFFFFFFFFFFFFFF AND CALLVALUE DUP4 PUSH1 0x40 MLOAD PUSH2 0x324 SWAP2 SWAP1 PUSH2 0x792 JUMP JUMPDEST PUSH0 PUSH1 0x40 MLOAD DUP1 DUP4 SUB DUP2 DUP6 DUP8 GAS CALL SWAP3 POP POP POP RETURNDATASIZE DUP1 PUSH0 DUP2 EQ PUSH2 0x35E JUMPI PUSH1 0x40 MLOAD SWAP2 POP PUSH1 0x1F NOT PUSH1 0x3F RETURNDATASIZE ADD AND DUP3 ADD PUSH1 0x40 MSTORE RETURNDATASIZE DUP3 MSTORE RETURNDATASIZE PUSH0 PUSH1 0x20 DUP5 ADD RETURNDATACOPY PUSH2 0x363 JUMP JUMPDEST PUSH1 0x60 SWAP2 POP JUMPDEST POP POP SWAP1 POP DUP1 PUSH2 0x3A7 JUMPI PUSH1 0x40 MLOAD PUSH32 0x8C379A000000000000000000000000000000000000000000000000000000000 DUP2 MSTORE PUSH1 0x4 ADD PUSH2 0x39E SWAP1 PUSH2 0x802 JUMP JUMPDEST PUSH1 0x40 MLOAD DUP1 SWAP2 SUB SWAP1 REVERT JUMPDEST PUSH32 0xF25EDB80BEEE5F459CB200976EA19576DF975C790DBDF83BB9D9BEC4FF45F38C DUP2 PUSH1 0x40 MLOAD PUSH2 0x3D6 SWAP2 SWAP1 PUSH2 0x83A JUMP JUMPDEST PUSH1 0x40 MLOAD DUP1 SWAP2 SUB SWAP1 LOG1 POP POP POP POP JUMP JUMPDEST PUSH1 0x58 DUP1 PUSH2 0x854 DUP4 CODECOPY ADD SWAP1 JUMP JUMPDEST PUSH0 DUP2 MLOAD SWAP1 POP SWAP2 SWAP1 POP JUMP JUMPDEST PUSH0 DUP3 DUP3 MSTORE PUSH1 0x20 DUP3 ADD SWAP1 POP SWAP3 SWAP2 POP POP JUMP JUMPDEST DUP3 DUP2 DUP4 MCOPY PUSH0 DUP4 DUP4 ADD MSTORE POP POP POP JUMP JUMPDEST PUSH0 PUSH1 0x1F NOT PUSH1 0x1F DUP4 ADD AND SWAP1 POP SWAP2 SWAP1 POP JUMP JUMPDEST PUSH0 PUSH2 0x432 DUP3 PUSH2 0x3F0 JUMP JUMPDEST PUSH2 0x43C DUP2 DUP6 PUSH2 0x3FA JUMP JUMPDEST SWAP4 POP PUSH2 0x44C DUP2 DUP6 PUSH1 0x20 DUP7 ADD PUSH2 0x40A JUMP JUMPDEST PUSH2 0x455 DUP2 PUSH2 0x418 JUMP JUMPDEST DUP5 ADD SWAP2 POP POP SWAP3 SWAP2 POP POP JUMP JUMPDEST PUSH0 PUSH1 0x20 DUP3 ADD SWAP1 POP DUP2 DUP2 SUB PUSH0 DUP4 ADD MSTORE PUSH2 0x478 DUP2 DUP5 PUSH2 0x428 JUMP JUMPDEST SWAP1 POP SWAP3 SWAP2 POP POP JUMP JUMPDEST PUSH0 DUP1 REVERT JUMPDEST PUSH0 DUP1 REVERT JUMPDEST PUSH0 DUP2 SWAP1 POP SWAP2 SWAP1 POP JUMP JUMPDEST PUSH2 0x49A DUP2 PUSH2 0x488 JUMP JUMPDEST DUP2 EQ PUSH2 0x4A4 JUMPI PUSH0 DUP1 REVERT JUMPDEST POP JUMP JUMPDEST PUSH0 DUP2 CALLDATALOAD SWAP1 POP PUSH2 0x4B5 DUP2 PUSH2 0x491 JUMP JUMPDEST SWAP3 SWAP2 POP POP JUMP JUMPDEST PUSH0 PUSH20 0xFFFFFFFFFFFFFFFFFFFFFFFFFFFFFFFFFFFFFFFF DUP3 AND SWAP1 POP SWAP2 SWAP1 POP JUMP JUMPDEST PUSH0 PUSH2 0x4E4 DUP3 PUSH2 0x4BB JUMP JUMPDEST SWAP1 POP SWAP2 SWAP1 POP JUMP JUMPDEST PUSH2 0x4F4 DUP2 PUSH2 0x4DA JUMP JUMPDEST DUP2 EQ PUSH2 0x4FE JUMPI PUSH0 DUP1 REVERT JUMPDEST POP JUMP JUMPDEST PUSH0 DUP2 CALLDATALOAD SWAP1 POP PUSH2 0x50F DUP2 PUSH2 0x4EB JUMP JUMPDEST SWAP3 SWAP2 POP POP JUMP JUMPDEST PUSH0 DUP1 PUSH0 PUSH1 0x60 DUP5 DUP7 SUB SLT ISZERO PUSH2 0x52C JUMPI PUSH2 0x52B PUSH2 0x480 JUMP JUMPDEST JUMPDEST PUSH0 PUSH2 0x539 DUP7 DUP3 DUP8 ADD PUSH2 0x4A7 JUMP JUMPDEST SWAP4 POP POP PUSH1 0x20 PUSH2 0x54A DUP7 DUP3 DUP8 ADD PUSH2 0x4A7 JUMP JUMPDEST SWAP3 POP POP PUSH1 0x40 PUSH2 0x55B DUP7 DUP3 DUP8 ADD PUSH2 0x501 JUMP JUMPDEST SWAP2 POP POP SWAP3 POP SWAP3 POP SWAP3 JUMP JUMPDEST PUSH0 DUP1 REVERT JUMPDEST PUSH0 DUP1 REVERT JUMPDEST PUSH0 DUP1 REVERT JUMPDEST PUSH0 DUP1 DUP4 PUSH1 0x1F DUP5 ADD SLT PUSH2 0x586 JUMPI PUSH2 0x585 PUSH2 0x565 JUMP JUMPDEST JUMPDEST DUP3 CALLDATALOAD SWAP1 POP PUSH8 0xFFFFFFFFFFFFFFFF DUP2 GT ISZERO PUSH2 0x5A3 JUMPI PUSH2 0x5A2 PUSH2 0x569 JUMP JUMPDEST JUMPDEST PUSH1 0x20 DUP4 ADD SWAP2 POP DUP4 PUSH1 0x1 DUP3 MUL DUP4 ADD GT ISZERO PUSH2 0x5BF JUMPI PUSH2 0x5BE PUSH2 0x56D JUMP JUMPDEST JUMPDEST SWAP3 POP SWAP3 SWAP1 POP JUMP JUMPDEST PUSH0 DUP1 PUSH1 0x20 DUP4 DUP6 SUB SLT ISZERO PUSH2 0x5DC JUMPI PUSH2 0x5DB PUSH2 0x480 JUMP JUMPDEST JUMPDEST PUSH0 DUP4 ADD CALLDATALOAD PUSH8 0xFFFFFFFFFFFFFFFF DUP2 GT ISZERO PUSH2 0x5F9 JUMPI PUSH2 0x5F8 PUSH2 0x484 JUMP JUMPDEST JUMPDEST PUSH2 0x605 DUP6 DUP3 DUP7 ADD PUSH2 0x571 JUMP JUMPDEST SWAP3 POP SWAP3 POP POP SWAP3 POP SWAP3 SWAP1 POP JUMP JUMPDEST PUSH0 PUSH32 0xFFFFFFFF00000000000000000000000000000000000000000000000000000000 DUP3 AND SWAP1 POP SWAP2 SWAP1 POP JUMP JUMPDEST PUSH2 0x645 DUP2 PUSH2 0x611 JUMP JUMPDEST DUP3 MSTORE POP POP JUMP JUMPDEST PUSH0 PUSH1 0x20 DUP3 ADD SWAP1 POP PUSH2 0x65E PUSH0 DUP4 ADD DUP5 PUSH2 0x63C JUMP JUMPDEST SWAP3 SWAP2 POP POP JUMP JUMPDEST PUSH0 DUP1 PUSH1 0x40 DUP4 DUP6 SUB SLT ISZERO PUSH2 0x67A JUMPI PUSH2 0x679 PUSH2 0x480 JUMP JUMPDEST JUMPDEST PUSH0 PUSH2 0x687 DUP6 DUP3 DUP7 ADD PUSH2 0x501 JUMP JUMPDEST SWAP3 POP POP PUSH1 0x20 PUSH2 0x698 DUP6 DUP3 DUP7 ADD PUSH2 0x4A7 JUMP JUMPDEST SWAP2 POP POP SWAP3 POP SWAP3 SWAP1 POP JUMP JUMPDEST PUSH2 0x6AB DUP2 PUSH2 0x488 JUMP JUMPDEST DUP3 MSTORE POP POP JUMP JUMPDEST PUSH2 0x6BA DUP2 PUSH2 0x4DA JUMP JUMPDEST DUP3 MSTORE POP POP JUMP JUMPDEST PUSH0 PUSH1 0x60 DUP3 ADD SWAP1 POP PUSH2 0x6D3 PUSH0 DUP4 ADD DUP7 PUSH2 0x6A2 JUMP JUMPDEST PUSH2 0x6E0 PUSH1 0x20 DUP4 ADD DUP6 PUSH2 0x6A2 JUMP JUMPDEST PUSH2 0x6ED PUSH1 0x40 DUP4 ADD DUP5 PUSH2 0x6B1 JUMP JUMPDEST SWAP5 SWAP4 POP POP POP POP JUMP JUMPDEST PUSH0 DUP2 SWAP1 POP SWAP3 SWAP2 POP POP JUMP JUMPDEST DUP3 DUP2 DUP4 CALLDATACOPY PUSH0 DUP4 DUP4 ADD MSTORE POP POP POP JUMP JUMPDEST PUSH0 PUSH2 0x718 DUP4 DUP6 PUSH2 0x6F5 JUMP JUMPDEST SWAP4 POP PUSH2 0x725 DUP4 DUP6 DUP5 PUSH2 0x6FF JUMP JUMPDEST DUP3 DUP5 ADD SWAP1 POP SWAP4 SWAP3 POP POP POP JUMP JUMPDEST PUSH0 PUSH2 0x73D DUP3 DUP5 DUP7 PUSH2 0x70D JUMP JUMPDEST SWAP2 POP DUP2 SWAP1 POP SWAP4 SWAP3 POP POP POP JUMP JUMPDEST PUSH0 PUSH1 0x20 DUP3 ADD SWAP1 POP PUSH2 0x75C PUSH0 DUP4 ADD DUP5 PUSH2 0x6A2 JUMP JUMPDEST SWAP3 SWAP2 POP POP JUMP JUMPDEST PUSH0 PUSH2 0x76C DUP3 PUSH2 0x3F0 JUMP JUMPDEST PUSH2 0x776 DUP2 DUP6 PUSH2 0x6F5 JUMP JUMPDEST SWAP4 POP PUSH2 0x786 DUP2 DUP6 PUSH1 0x20 DUP7 ADD PUSH2 0x40A JUMP JUMPDEST DUP1 DUP5 ADD SWAP2 POP POP SWAP3 SWAP2 POP POP JUMP JUMPDEST PUSH0 PUSH2 0x79D DUP3 DUP5 PUSH2 0x762 JUMP JUMPDEST SWAP2 POP DUP2 SWAP1 POP SWAP3 SWAP2 POP POP JUMP JUMPDEST PUSH0 DUP3 DUP3 MSTORE PUSH1 0x20 DUP3 ADD SWAP1 POP SWAP3 SWAP2 POP POP JUMP JUMPDEST PUSH32 0x65786563757465207365742829206661696C0000000000000000000000000000 PUSH0 DUP3 ADD MSTORE POP JUMP JUMPDEST PUSH0 PUSH2 0x7EC PUSH1 0x12 DUP4 PUSH2 0x7A8 JUMP JUMPDEST SWAP2 POP PUSH2 0x7F7 DUP3 PUSH2 0x7B8 JUMP JUMPDEST PUSH1 0x20 DUP3 ADD SWAP1 POP SWAP2 SWAP1 POP JUMP JUMPDEST PUSH0 PUSH1 0x20 DUP3 ADD SWAP1 POP DUP2 DUP2 SUB PUSH0 DUP4 ADD MSTORE PUSH2 0x819 DUP2 PUSH2 0x7E0 JUMP JUMPDEST SWAP1 POP SWAP2 SWAP1 POP JUMP JUMPDEST PUSH0 DUP2 ISZERO ISZERO SWAP1 POP SWAP2 SWAP1 POP JUMP JUMPDEST PUSH2 0x834 DUP2 PUSH2 0x820 JUMP JUMPDEST DUP3 MSTORE POP POP JUMP JUMPDEST PUSH0 PUSH1 0x20 DUP3 ADD SWAP1 POP PUSH2 0x84D PUSH0 DUP4 ADD DUP5 PUSH2 0x82B JUMP JUMPDEST SWAP3 SWAP2 POP POP JUMP INVALID PUSH1 0x80 PUSH1 0x40 MSTORE CALLVALUE DUP1 ISZERO PUSH1 0xE JUMPI PUSH0 DUP1 REVERT JUMPDEST POP PUSH1 0x3E DUP1 PUSH1 0x1A PUSH0 CODECOPY PUSH0 RETURN INVALID PUSH1 0x80 PUSH1 0x40 MSTORE PUSH0 DUP1 REVERT INVALID LOG2 PUSH5 0x6970667358 0x22 SLT KECCAK256 DUP4 0xD2 SLT SWAP12 SWAP13 LOG0 0xA9 0xE7 0x28 INVALID DUP16 DUP1 COINBASE PUSH25 0x4F339C0FD0F275CA3D291E532AF9DCD9B2E64736F6C634300 ADDMOD BYTE STOP CALLER LOG2 PUSH5 0x6970667358 0x22 SLT KECCAK256 SWAP10 BLOBBASEFEE SWAP16 POP 0xB6 LOG3 0xFB LOG3 0x21 MOD 0xEB 0x4C GASPRICE 0xDF 0xD5 0xCA 0x2C 0xC8 0xBB SHL EQ 0x1F 0xD6 0x2C PUSH32 0x407CBDE742F55764736F6C634300081A00330000000000000000000000000000 "
				},
				"gasEstimates": {
					"creation": {
						"codeDepositCost": "454600",
						"executionCost": "491",
						"totalCost": "455091"
					},
					"external": {
						"executeSet(address,uint256)": "infinite",
						"getByteCode()": "infinite",
						"getFuncSelector(string)": "infinite",
						"testMsgdata(uint256,uint256,address)": "infinite"
					}
				},
				"methodIdentifiers": {
					"executeSet(address,uint256)": "f1a16a43",
					"getByteCode()": "57ac6566",
					"getFuncSelector(string)": "b9ca6d98",
					"testMsgdata(uint256,uint256,address)": "a843bcad"
				}
			},
			"storageLayout": {
				"storage": [],
				"types": null
			},
			"userdoc": {
				"kind": "user",
				"methods": {},
				"version": 1
			}
		}
	}
}