{
	"MultipleFuncOutput.sol": {
		"MultipleFuncOutput": {
			"abi": [
				{
					"inputs": [],
					"name": "b",
					"outputs": [
						{
							"internalType": "bool",
							"name": "",
							"type": "bool"
						}
					],
					"stateMutability": "view",
					"type": "function"
				},
				{
					"inputs": [],
					"name": "captureOutputs",
					"outputs": [],
					"stateMutability": "nonpayable",
					"type": "function"
				},
				{
					"inputs": [],
					"name": "displayOutputs",
					"outputs": [
						{
							"internalType": "int256",
							"name": "",
							"type": "int256"
						},
						{
							"internalType": "bool",
							"name": "",
							"type": "bool"
						},
						{
							"internalType": "string",
							"name": "",
							"type": "string"
						}
					],
					"stateMutability": "view",
					"type": "function"
				},
				{
					"inputs": [],
					"name": "i",
					"outputs": [
						{
							"internalType": "int256",
							"name": "",
							"type": "int256"
						}
					],
					"stateMutability": "view",
					"type": "function"
				},
				{
					"inputs": [],
					"name": "namedOutput",
					"outputs": [
						{
							"internalType": "int256",
							"name": "ii",
							"type": "int256"
						},
						{
							"internalType": "bool",
							"name": "bb",
							"type": "bool"
						},
						{
							"internalType": "string",
							"name": "ss",
							"type": "string"
						}
					],
					"stateMutability": "pure",
					"type": "function"
				},
				{
					"inputs": [],
					"name": "returnMultiple",
					"outputs": [
						{
							"internalType": "int256",
							"name": "",
							"type": "int256"
						},
						{
							"internalType": "bool",
							"name": "",
							"type": "bool"
						},
						{
							"internalType": "string",
							"name": "",
							"type": "string"
						}
					],
					"stateMutability": "pure",
					"type": "function"
				},
				{
					"inputs": [],
					"name": "s",
					"outputs": [
						{
							"internalType": "string",
							"name": "",
							"type": "string"
						}
					],
					"stateMutability": "view",
					"type": "function"
				}
			],
			"devdoc": {
				"kind": "dev",
				"methods": {},
				"version": 1
			},
			"evm": {
				"assembly": "    /* \"MultipleFuncOutput.sol\":60:681  contract MultipleFuncOutput{... */\n  mstore(0x40, 0x80)\n  callvalue\n  dup1\n  iszero\n  tag_1\n  jumpi\n  0x00\n  dup1\n  revert\ntag_1:\n  pop\n  dataSize(sub_0)\n  dup1\n  dataOffset(sub_0)\n  0x00\n  codecopy\n  0x00\n  return\nstop\n\nsub_0: assembly {\n        /* \"MultipleFuncOutput.sol\":60:681  contract MultipleFuncOutput{... */\n      mstore(0x40, 0x80)\n      callvalue\n      dup1\n      iszero\n      tag_1\n      jumpi\n      0x00\n      dup1\n      revert\n    tag_1:\n      pop\n      jumpi(tag_2, lt(calldatasize, 0x04))\n      shr(0xe0, calldataload(0x00))\n      dup1\n      0x64f13521\n      gt\n      tag_10\n      jumpi\n      dup1\n      0x64f13521\n      eq\n      tag_6\n      jumpi\n      dup1\n      0x86b714e2\n      eq\n      tag_7\n      jumpi\n      dup1\n      0xe5aa3d58\n      eq\n      tag_8\n      jumpi\n      dup1\n      0xe61e4008\n      eq\n      tag_9\n      jumpi\n      jump(tag_2)\n    tag_10:\n      dup1\n      0x26a89e04\n      eq\n      tag_3\n      jumpi\n      dup1\n      0x4df7e3d0\n      eq\n      tag_4\n      jumpi\n      dup1\n      0x5e632bd5\n      eq\n      tag_5\n      jumpi\n    tag_2:\n      0x00\n      dup1\n      revert\n        /* \"MultipleFuncOutput.sol\":485:565  function captureOutputs() public {... */\n    tag_3:\n      tag_11\n      tag_12\n      jump\t// in\n    tag_11:\n      stop\n        /* \"MultipleFuncOutput.sol\":113:126  bool public b */\n    tag_4:\n      tag_13\n      tag_14\n      jump\t// in\n    tag_13:\n      mload(0x40)\n      tag_15\n      swap2\n      swap1\n      tag_16\n      jump\t// in\n    tag_15:\n      mload(0x40)\n      dup1\n      swap2\n      sub\n      swap1\n      return\n        /* \"MultipleFuncOutput.sol\":281:477  function namedOutput() public pure returns(int ii, bool bb, string memory ss) {... */\n    tag_5:\n      tag_17\n      tag_18\n      jump\t// in\n    tag_17:\n      mload(0x40)\n      tag_19\n      swap4\n      swap3\n      swap2\n      swap1\n      tag_20\n      jump\t// in\n    tag_19:\n      mload(0x40)\n      dup1\n      swap2\n      sub\n      swap1\n      return\n        /* \"MultipleFuncOutput.sol\":573:678  function displayOutputs() public view returns(int, bool, string memory){... */\n    tag_6:\n      tag_21\n      tag_22\n      jump\t// in\n    tag_21:\n      mload(0x40)\n      tag_23\n      swap4\n      swap3\n      swap2\n      swap1\n      tag_20\n      jump\t// in\n    tag_23:\n      mload(0x40)\n      dup1\n      swap2\n      sub\n      swap1\n      return\n        /* \"MultipleFuncOutput.sol\":133:148  string public s */\n    tag_7:\n      tag_24\n      tag_25\n      jump\t// in\n    tag_24:\n      mload(0x40)\n      tag_26\n      swap2\n      swap1\n      tag_27\n      jump\t// in\n    tag_26:\n      mload(0x40)\n      dup1\n      swap2\n      sub\n      swap1\n      return\n        /* \"MultipleFuncOutput.sol\":94:106  int public i */\n    tag_8:\n      tag_28\n      tag_29\n      jump\t// in\n    tag_28:\n      mload(0x40)\n      tag_30\n      swap2\n      swap1\n      tag_31\n      jump\t// in\n    tag_30:\n      mload(0x40)\n      dup1\n      swap2\n      sub\n      swap1\n      return\n        /* \"MultipleFuncOutput.sol\":157:273  function returnMultiple() public pure returns(int, bool, string memory) {... */\n    tag_9:\n      tag_32\n      tag_33\n      jump\t// in\n    tag_32:\n      mload(0x40)\n      tag_34\n      swap4\n      swap3\n      swap2\n      swap1\n      tag_20\n      jump\t// in\n    tag_34:\n      mload(0x40)\n      dup1\n      swap2\n      sub\n      swap1\n      return\n        /* \"MultipleFuncOutput.sol\":485:565  function captureOutputs() public {... */\n    tag_12:\n        /* \"MultipleFuncOutput.sol\":541:557  returnMultiple() */\n      tag_36\n        /* \"MultipleFuncOutput.sol\":541:555  returnMultiple */\n      tag_33\n        /* \"MultipleFuncOutput.sol\":541:557  returnMultiple() */\n      jump\t// in\n    tag_36:\n        /* \"MultipleFuncOutput.sol\":530:531  i */\n      0x00\n      dup1\n        /* \"MultipleFuncOutput.sol\":533:534  b */\n      0x01\n      0x00\n        /* \"MultipleFuncOutput.sol\":536:537  s */\n      0x02\n      0x00\n        /* \"MultipleFuncOutput.sol\":529:557  (i, b, s) = returnMultiple() */\n      dup7\n      swap2\n      swap1\n      pop\n      swap1\n      dup2\n      tag_37\n      swap2\n      swap1\n      tag_38\n      jump\t// in\n    tag_37:\n      pop\n      dup6\n      swap2\n      swap1\n      0x0100\n      exp\n      dup2\n      sload\n      dup2\n      0xff\n      mul\n      not\n      and\n      swap1\n      dup4\n      iszero\n      iszero\n      mul\n      or\n      swap1\n      sstore\n      pop\n      dup5\n      swap2\n      swap1\n      pop\n      sstore\n      pop\n      pop\n      pop\n        /* \"MultipleFuncOutput.sol\":485:565  function captureOutputs() public {... */\n      jump\t// out\n        /* \"MultipleFuncOutput.sol\":113:126  bool public b */\n    tag_14:\n      0x01\n      0x00\n      swap1\n      sload\n      swap1\n      0x0100\n      exp\n      swap1\n      div\n      0xff\n      and\n      dup2\n      jump\t// out\n        /* \"MultipleFuncOutput.sol\":281:477  function namedOutput() public pure returns(int ii, bool bb, string memory ss) {... */\n    tag_18:\n        /* \"MultipleFuncOutput.sol\":324:330  int ii */\n      0x00\n        /* \"MultipleFuncOutput.sol\":332:339  bool bb */\n      dup1\n        /* \"MultipleFuncOutput.sol\":341:357  string memory ss */\n      0x60\n        /* \"MultipleFuncOutput.sol\":419:420  2 */\n      0x02\n        /* \"MultipleFuncOutput.sol\":414:420  ii = 2 */\n      swap3\n      pop\n        /* \"MultipleFuncOutput.sol\":436:440  true */\n      0x01\n        /* \"MultipleFuncOutput.sol\":431:440  bb = true */\n      swap2\n      pop\n        /* \"MultipleFuncOutput.sol\":451:469  ss = \"dummy named\" */\n      mload(0x40)\n      dup1\n      0x40\n      add\n      0x40\n      mstore\n      dup1\n      0x0b\n      dup2\n      mstore\n      0x20\n      add\n      0x64756d6d79206e616d6564000000000000000000000000000000000000000000\n      dup2\n      mstore\n      pop\n      swap1\n      pop\n        /* \"MultipleFuncOutput.sol\":281:477  function namedOutput() public pure returns(int ii, bool bb, string memory ss) {... */\n      swap1\n      swap2\n      swap3\n      jump\t// out\n        /* \"MultipleFuncOutput.sol\":573:678  function displayOutputs() public view returns(int, bool, string memory){... */\n    tag_22:\n        /* \"MultipleFuncOutput.sol\":619:622  int */\n      0x00\n        /* \"MultipleFuncOutput.sol\":624:628  bool */\n      dup1\n        /* \"MultipleFuncOutput.sol\":630:643  string memory */\n      0x60\n        /* \"MultipleFuncOutput.sol\":662:663  i */\n      sload(0x00)\n        /* \"MultipleFuncOutput.sol\":665:666  b */\n      0x01\n      0x00\n      swap1\n      sload\n      swap1\n      0x0100\n      exp\n      swap1\n      div\n      0xff\n      and\n        /* \"MultipleFuncOutput.sol\":668:669  s */\n      0x02\n        /* \"MultipleFuncOutput.sol\":655:670  return(i, b, s) */\n      dup1\n      dup1\n      sload\n      tag_41\n      swap1\n      tag_42\n      jump\t// in\n    tag_41:\n      dup1\n      0x1f\n      add\n      0x20\n      dup1\n      swap2\n      div\n      mul\n      0x20\n      add\n      mload(0x40)\n      swap1\n      dup2\n      add\n      0x40\n      mstore\n      dup1\n      swap3\n      swap2\n      swap1\n      dup2\n      dup2\n      mstore\n      0x20\n      add\n      dup3\n      dup1\n      sload\n      tag_43\n      swap1\n      tag_42\n      jump\t// in\n    tag_43:\n      dup1\n      iszero\n      tag_44\n      jumpi\n      dup1\n      0x1f\n      lt\n      tag_45\n      jumpi\n      0x0100\n      dup1\n      dup4\n      sload\n      div\n      mul\n      dup4\n      mstore\n      swap2\n      0x20\n      add\n      swap2\n      jump(tag_44)\n    tag_45:\n      dup3\n      add\n      swap2\n      swap1\n      0x00\n      mstore\n      keccak256(0x00, 0x20)\n      swap1\n    tag_46:\n      dup2\n      sload\n      dup2\n      mstore\n      swap1\n      0x01\n      add\n      swap1\n      0x20\n      add\n      dup1\n      dup4\n      gt\n      tag_46\n      jumpi\n      dup3\n      swap1\n      sub\n      0x1f\n      and\n      dup3\n      add\n      swap2\n    tag_44:\n      pop\n      pop\n      pop\n      pop\n      pop\n      swap1\n      pop\n      swap3\n      pop\n      swap3\n      pop\n      swap3\n      pop\n        /* \"MultipleFuncOutput.sol\":573:678  function displayOutputs() public view returns(int, bool, string memory){... */\n      swap1\n      swap2\n      swap3\n      jump\t// out\n        /* \"MultipleFuncOutput.sol\":133:148  string public s */\n    tag_25:\n      0x02\n      dup1\n      sload\n      tag_47\n      swap1\n      tag_42\n      jump\t// in\n    tag_47:\n      dup1\n      0x1f\n      add\n      0x20\n      dup1\n      swap2\n      div\n      mul\n      0x20\n      add\n      mload(0x40)\n      swap1\n      dup2\n      add\n      0x40\n      mstore\n      dup1\n      swap3\n      swap2\n      swap1\n      dup2\n      dup2\n      mstore\n      0x20\n      add\n      dup3\n      dup1\n      sload\n      tag_48\n      swap1\n      tag_42\n      jump\t// in\n    tag_48:\n      dup1\n      iszero\n      tag_49\n      jumpi\n      dup1\n      0x1f\n      lt\n      tag_50\n      jumpi\n      0x0100\n      dup1\n      dup4\n      sload\n      div\n      mul\n      dup4\n      mstore\n      swap2\n      0x20\n      add\n      swap2\n      jump(tag_49)\n    tag_50:\n      dup3\n      add\n      swap2\n      swap1\n      0x00\n      mstore\n      keccak256(0x00, 0x20)\n      swap1\n    tag_51:\n      dup2\n      sload\n      dup2\n      mstore\n      swap1\n      0x01\n      add\n      swap1\n      0x20\n      add\n      dup1\n      dup4\n      gt\n      tag_51\n      jumpi\n      dup3\n      swap1\n      sub\n      0x1f\n      and\n      dup3\n      add\n      swap2\n    tag_49:\n      pop\n      pop\n      pop\n      pop\n      pop\n      dup2\n      jump\t// out\n        /* \"MultipleFuncOutput.sol\":94:106  int public i */\n    tag_29:\n      sload(0x00)\n      dup2\n      jump\t// out\n        /* \"MultipleFuncOutput.sol\":157:273  function returnMultiple() public pure returns(int, bool, string memory) {... */\n    tag_33:\n        /* \"MultipleFuncOutput.sol\":203:206  int */\n      0x00\n        /* \"MultipleFuncOutput.sol\":208:212  bool */\n      dup1\n        /* \"MultipleFuncOutput.sol\":214:227  string memory */\n      0x60\n        /* \"MultipleFuncOutput.sol\":247:248  1 */\n      0x01\n        /* \"MultipleFuncOutput.sol\":250:255  false */\n      0x00\n        /* \"MultipleFuncOutput.sol\":240:265  return(1, false, \"dummy\") */\n      mload(0x40)\n      dup1\n      0x40\n      add\n      0x40\n      mstore\n      dup1\n      0x05\n      dup2\n      mstore\n      0x20\n      add\n      0x64756d6d79000000000000000000000000000000000000000000000000000000\n      dup2\n      mstore\n      pop\n      swap3\n      pop\n      swap3\n      pop\n      swap3\n      pop\n        /* \"MultipleFuncOutput.sol\":157:273  function returnMultiple() public pure returns(int, bool, string memory) {... */\n      swap1\n      swap2\n      swap3\n      jump\t// out\n        /* \"#utility.yul\":7:97   */\n    tag_53:\n        /* \"#utility.yul\":41:48   */\n      0x00\n        /* \"#utility.yul\":84:89   */\n      dup2\n        /* \"#utility.yul\":77:90   */\n      iszero\n        /* \"#utility.yul\":70:91   */\n      iszero\n        /* \"#utility.yul\":59:91   */\n      swap1\n      pop\n        /* \"#utility.yul\":7:97   */\n      swap2\n      swap1\n      pop\n      jump\t// out\n        /* \"#utility.yul\":103:212   */\n    tag_54:\n        /* \"#utility.yul\":184:205   */\n      tag_83\n        /* \"#utility.yul\":199:204   */\n      dup2\n        /* \"#utility.yul\":184:205   */\n      tag_53\n      jump\t// in\n    tag_83:\n        /* \"#utility.yul\":179:182   */\n      dup3\n        /* \"#utility.yul\":172:206   */\n      mstore\n        /* \"#utility.yul\":103:212   */\n      pop\n      pop\n      jump\t// out\n        /* \"#utility.yul\":218:428   */\n    tag_16:\n        /* \"#utility.yul\":305:309   */\n      0x00\n        /* \"#utility.yul\":343:345   */\n      0x20\n        /* \"#utility.yul\":332:341   */\n      dup3\n        /* \"#utility.yul\":328:346   */\n      add\n        /* \"#utility.yul\":320:346   */\n      swap1\n      pop\n        /* \"#utility.yul\":356:421   */\n      tag_85\n        /* \"#utility.yul\":418:419   */\n      0x00\n        /* \"#utility.yul\":407:416   */\n      dup4\n        /* \"#utility.yul\":403:420   */\n      add\n        /* \"#utility.yul\":394:400   */\n      dup5\n        /* \"#utility.yul\":356:421   */\n      tag_54\n      jump\t// in\n    tag_85:\n        /* \"#utility.yul\":218:428   */\n      swap3\n      swap2\n      pop\n      pop\n      jump\t// out\n        /* \"#utility.yul\":434:510   */\n    tag_55:\n        /* \"#utility.yul\":470:477   */\n      0x00\n        /* \"#utility.yul\":499:504   */\n      dup2\n        /* \"#utility.yul\":488:504   */\n      swap1\n      pop\n        /* \"#utility.yul\":434:510   */\n      swap2\n      swap1\n      pop\n      jump\t// out\n        /* \"#utility.yul\":516:631   */\n    tag_56:\n        /* \"#utility.yul\":601:624   */\n      tag_88\n        /* \"#utility.yul\":618:623   */\n      dup2\n        /* \"#utility.yul\":601:624   */\n      tag_55\n      jump\t// in\n    tag_88:\n        /* \"#utility.yul\":596:599   */\n      dup3\n        /* \"#utility.yul\":589:625   */\n      mstore\n        /* \"#utility.yul\":516:631   */\n      pop\n      pop\n      jump\t// out\n        /* \"#utility.yul\":637:736   */\n    tag_57:\n        /* \"#utility.yul\":689:695   */\n      0x00\n        /* \"#utility.yul\":723:728   */\n      dup2\n        /* \"#utility.yul\":717:729   */\n      mload\n        /* \"#utility.yul\":707:729   */\n      swap1\n      pop\n        /* \"#utility.yul\":637:736   */\n      swap2\n      swap1\n      pop\n      jump\t// out\n        /* \"#utility.yul\":742:911   */\n    tag_58:\n        /* \"#utility.yul\":826:837   */\n      0x00\n        /* \"#utility.yul\":860:866   */\n      dup3\n        /* \"#utility.yul\":855:858   */\n      dup3\n        /* \"#utility.yul\":848:867   */\n      mstore\n        /* \"#utility.yul\":900:904   */\n      0x20\n        /* \"#utility.yul\":895:898   */\n      dup3\n        /* \"#utility.yul\":891:905   */\n      add\n        /* \"#utility.yul\":876:905   */\n      swap1\n      pop\n        /* \"#utility.yul\":742:911   */\n      swap3\n      swap2\n      pop\n      pop\n      jump\t// out\n        /* \"#utility.yul\":917:1056   */\n    tag_59:\n        /* \"#utility.yul\":1006:1012   */\n      dup3\n        /* \"#utility.yul\":1001:1004   */\n      dup2\n        /* \"#utility.yul\":996:999   */\n      dup4\n        /* \"#utility.yul\":990:1013   */\n      mcopy\n        /* \"#utility.yul\":1047:1048   */\n      0x00\n        /* \"#utility.yul\":1038:1044   */\n      dup4\n        /* \"#utility.yul\":1033:1036   */\n      dup4\n        /* \"#utility.yul\":1029:1045   */\n      add\n        /* \"#utility.yul\":1022:1049   */\n      mstore\n        /* \"#utility.yul\":917:1056   */\n      pop\n      pop\n      pop\n      jump\t// out\n        /* \"#utility.yul\":1062:1164   */\n    tag_60:\n        /* \"#utility.yul\":1103:1109   */\n      0x00\n        /* \"#utility.yul\":1154:1156   */\n      0x1f\n        /* \"#utility.yul\":1150:1157   */\n      not\n        /* \"#utility.yul\":1145:1147   */\n      0x1f\n        /* \"#utility.yul\":1138:1143   */\n      dup4\n        /* \"#utility.yul\":1134:1148   */\n      add\n        /* \"#utility.yul\":1130:1158   */\n      and\n        /* \"#utility.yul\":1120:1158   */\n      swap1\n      pop\n        /* \"#utility.yul\":1062:1164   */\n      swap2\n      swap1\n      pop\n      jump\t// out\n        /* \"#utility.yul\":1170:1547   */\n    tag_61:\n        /* \"#utility.yul\":1258:1261   */\n      0x00\n        /* \"#utility.yul\":1286:1325   */\n      tag_94\n        /* \"#utility.yul\":1319:1324   */\n      dup3\n        /* \"#utility.yul\":1286:1325   */\n      tag_57\n      jump\t// in\n    tag_94:\n        /* \"#utility.yul\":1341:1412   */\n      tag_95\n        /* \"#utility.yul\":1405:1411   */\n      dup2\n        /* \"#utility.yul\":1400:1403   */\n      dup6\n        /* \"#utility.yul\":1341:1412   */\n      tag_58\n      jump\t// in\n    tag_95:\n        /* \"#utility.yul\":1334:1412   */\n      swap4\n      pop\n        /* \"#utility.yul\":1421:1486   */\n      tag_96\n        /* \"#utility.yul\":1479:1485   */\n      dup2\n        /* \"#utility.yul\":1474:1477   */\n      dup6\n        /* \"#utility.yul\":1467:1471   */\n      0x20\n        /* \"#utility.yul\":1460:1465   */\n      dup7\n        /* \"#utility.yul\":1456:1472   */\n      add\n        /* \"#utility.yul\":1421:1486   */\n      tag_59\n      jump\t// in\n    tag_96:\n        /* \"#utility.yul\":1511:1540   */\n      tag_97\n        /* \"#utility.yul\":1533:1539   */\n      dup2\n        /* \"#utility.yul\":1511:1540   */\n      tag_60\n      jump\t// in\n    tag_97:\n        /* \"#utility.yul\":1506:1509   */\n      dup5\n        /* \"#utility.yul\":1502:1541   */\n      add\n        /* \"#utility.yul\":1495:1541   */\n      swap2\n      pop\n        /* \"#utility.yul\":1262:1547   */\n      pop\n        /* \"#utility.yul\":1170:1547   */\n      swap3\n      swap2\n      pop\n      pop\n      jump\t// out\n        /* \"#utility.yul\":1553:2070   */\n    tag_20:\n        /* \"#utility.yul\":1714:1718   */\n      0x00\n        /* \"#utility.yul\":1752:1754   */\n      0x60\n        /* \"#utility.yul\":1741:1750   */\n      dup3\n        /* \"#utility.yul\":1737:1755   */\n      add\n        /* \"#utility.yul\":1729:1755   */\n      swap1\n      pop\n        /* \"#utility.yul\":1765:1834   */\n      tag_99\n        /* \"#utility.yul\":1831:1832   */\n      0x00\n        /* \"#utility.yul\":1820:1829   */\n      dup4\n        /* \"#utility.yul\":1816:1833   */\n      add\n        /* \"#utility.yul\":1807:1813   */\n      dup7\n        /* \"#utility.yul\":1765:1834   */\n      tag_56\n      jump\t// in\n    tag_99:\n        /* \"#utility.yul\":1844:1910   */\n      tag_100\n        /* \"#utility.yul\":1906:1908   */\n      0x20\n        /* \"#utility.yul\":1895:1904   */\n      dup4\n        /* \"#utility.yul\":1891:1909   */\n      add\n        /* \"#utility.yul\":1882:1888   */\n      dup6\n        /* \"#utility.yul\":1844:1910   */\n      tag_54\n      jump\t// in\n    tag_100:\n        /* \"#utility.yul\":1957:1966   */\n      dup2\n        /* \"#utility.yul\":1951:1955   */\n      dup2\n        /* \"#utility.yul\":1947:1967   */\n      sub\n        /* \"#utility.yul\":1942:1944   */\n      0x40\n        /* \"#utility.yul\":1931:1940   */\n      dup4\n        /* \"#utility.yul\":1927:1945   */\n      add\n        /* \"#utility.yul\":1920:1968   */\n      mstore\n        /* \"#utility.yul\":1985:2063   */\n      tag_101\n        /* \"#utility.yul\":2058:2062   */\n      dup2\n        /* \"#utility.yul\":2049:2055   */\n      dup5\n        /* \"#utility.yul\":1985:2063   */\n      tag_61\n      jump\t// in\n    tag_101:\n        /* \"#utility.yul\":1977:2063   */\n      swap1\n      pop\n        /* \"#utility.yul\":1553:2070   */\n      swap5\n      swap4\n      pop\n      pop\n      pop\n      pop\n      jump\t// out\n        /* \"#utility.yul\":2076:2389   */\n    tag_27:\n        /* \"#utility.yul\":2189:2193   */\n      0x00\n        /* \"#utility.yul\":2227:2229   */\n      0x20\n        /* \"#utility.yul\":2216:2225   */\n      dup3\n        /* \"#utility.yul\":2212:2230   */\n      add\n        /* \"#utility.yul\":2204:2230   */\n      swap1\n      pop\n        /* \"#utility.yul\":2276:2285   */\n      dup2\n        /* \"#utility.yul\":2270:2274   */\n      dup2\n        /* \"#utility.yul\":2266:2286   */\n      sub\n        /* \"#utility.yul\":2262:2263   */\n      0x00\n        /* \"#utility.yul\":2251:2260   */\n      dup4\n        /* \"#utility.yul\":2247:2264   */\n      add\n        /* \"#utility.yul\":2240:2287   */\n      mstore\n        /* \"#utility.yul\":2304:2382   */\n      tag_103\n        /* \"#utility.yul\":2377:2381   */\n      dup2\n        /* \"#utility.yul\":2368:2374   */\n      dup5\n        /* \"#utility.yul\":2304:2382   */\n      tag_61\n      jump\t// in\n    tag_103:\n        /* \"#utility.yul\":2296:2382   */\n      swap1\n      pop\n        /* \"#utility.yul\":2076:2389   */\n      swap3\n      swap2\n      pop\n      pop\n      jump\t// out\n        /* \"#utility.yul\":2395:2613   */\n    tag_31:\n        /* \"#utility.yul\":2486:2490   */\n      0x00\n        /* \"#utility.yul\":2524:2526   */\n      0x20\n        /* \"#utility.yul\":2513:2522   */\n      dup3\n        /* \"#utility.yul\":2509:2527   */\n      add\n        /* \"#utility.yul\":2501:2527   */\n      swap1\n      pop\n        /* \"#utility.yul\":2537:2606   */\n      tag_105\n        /* \"#utility.yul\":2603:2604   */\n      0x00\n        /* \"#utility.yul\":2592:2601   */\n      dup4\n        /* \"#utility.yul\":2588:2605   */\n      add\n        /* \"#utility.yul\":2579:2585   */\n      dup5\n        /* \"#utility.yul\":2537:2606   */\n      tag_56\n      jump\t// in\n    tag_105:\n        /* \"#utility.yul\":2395:2613   */\n      swap3\n      swap2\n      pop\n      pop\n      jump\t// out\n        /* \"#utility.yul\":2619:2799   */\n    tag_62:\n        /* \"#utility.yul\":2667:2744   */\n      0x4e487b7100000000000000000000000000000000000000000000000000000000\n        /* \"#utility.yul\":2664:2665   */\n      0x00\n        /* \"#utility.yul\":2657:2745   */\n      mstore\n        /* \"#utility.yul\":2764:2768   */\n      0x41\n        /* \"#utility.yul\":2761:2762   */\n      0x04\n        /* \"#utility.yul\":2754:2769   */\n      mstore\n        /* \"#utility.yul\":2788:2792   */\n      0x24\n        /* \"#utility.yul\":2785:2786   */\n      0x00\n        /* \"#utility.yul\":2778:2793   */\n      revert\n        /* \"#utility.yul\":2805:2985   */\n    tag_63:\n        /* \"#utility.yul\":2853:2930   */\n      0x4e487b7100000000000000000000000000000000000000000000000000000000\n        /* \"#utility.yul\":2850:2851   */\n      0x00\n        /* \"#utility.yul\":2843:2931   */\n      mstore\n        /* \"#utility.yul\":2950:2954   */\n      0x22\n        /* \"#utility.yul\":2947:2948   */\n      0x04\n        /* \"#utility.yul\":2940:2955   */\n      mstore\n        /* \"#utility.yul\":2974:2978   */\n      0x24\n        /* \"#utility.yul\":2971:2972   */\n      0x00\n        /* \"#utility.yul\":2964:2979   */\n      revert\n        /* \"#utility.yul\":2991:3311   */\n    tag_42:\n        /* \"#utility.yul\":3035:3041   */\n      0x00\n        /* \"#utility.yul\":3072:3073   */\n      0x02\n        /* \"#utility.yul\":3066:3070   */\n      dup3\n        /* \"#utility.yul\":3062:3074   */\n      div\n        /* \"#utility.yul\":3052:3074   */\n      swap1\n      pop\n        /* \"#utility.yul\":3119:3120   */\n      0x01\n        /* \"#utility.yul\":3113:3117   */\n      dup3\n        /* \"#utility.yul\":3109:3121   */\n      and\n        /* \"#utility.yul\":3140:3158   */\n      dup1\n        /* \"#utility.yul\":3130:3211   */\n      tag_109\n      jumpi\n        /* \"#utility.yul\":3196:3200   */\n      0x7f\n        /* \"#utility.yul\":3188:3194   */\n      dup3\n        /* \"#utility.yul\":3184:3201   */\n      and\n        /* \"#utility.yul\":3174:3201   */\n      swap2\n      pop\n        /* \"#utility.yul\":3130:3211   */\n    tag_109:\n        /* \"#utility.yul\":3258:3260   */\n      0x20\n        /* \"#utility.yul\":3250:3256   */\n      dup3\n        /* \"#utility.yul\":3247:3261   */\n      lt\n        /* \"#utility.yul\":3227:3245   */\n      dup2\n        /* \"#utility.yul\":3224:3262   */\n      sub\n        /* \"#utility.yul\":3221:3305   */\n      tag_110\n      jumpi\n        /* \"#utility.yul\":3277:3295   */\n      tag_111\n      tag_63\n      jump\t// in\n    tag_111:\n        /* \"#utility.yul\":3221:3305   */\n    tag_110:\n        /* \"#utility.yul\":3042:3311   */\n      pop\n        /* \"#utility.yul\":2991:3311   */\n      swap2\n      swap1\n      pop\n      jump\t// out\n        /* \"#utility.yul\":3317:3458   */\n    tag_64:\n        /* \"#utility.yul\":3366:3370   */\n      0x00\n        /* \"#utility.yul\":3389:3392   */\n      dup2\n        /* \"#utility.yul\":3381:3392   */\n      swap1\n      pop\n        /* \"#utility.yul\":3412:3415   */\n      dup2\n        /* \"#utility.yul\":3409:3410   */\n      0x00\n        /* \"#utility.yul\":3402:3416   */\n      mstore\n        /* \"#utility.yul\":3446:3450   */\n      0x20\n        /* \"#utility.yul\":3443:3444   */\n      0x00\n        /* \"#utility.yul\":3433:3451   */\n      keccak256\n        /* \"#utility.yul\":3425:3451   */\n      swap1\n      pop\n        /* \"#utility.yul\":3317:3458   */\n      swap2\n      swap1\n      pop\n      jump\t// out\n        /* \"#utility.yul\":3464:3557   */\n    tag_65:\n        /* \"#utility.yul\":3501:3507   */\n      0x00\n        /* \"#utility.yul\":3548:3550   */\n      0x20\n        /* \"#utility.yul\":3543:3545   */\n      0x1f\n        /* \"#utility.yul\":3536:3541   */\n      dup4\n        /* \"#utility.yul\":3532:3546   */\n      add\n        /* \"#utility.yul\":3528:3551   */\n      div\n        /* \"#utility.yul\":3518:3551   */\n      swap1\n      pop\n        /* \"#utility.yul\":3464:3557   */\n      swap2\n      swap1\n      pop\n      jump\t// out\n        /* \"#utility.yul\":3563:3670   */\n    tag_66:\n        /* \"#utility.yul\":3607:3615   */\n      0x00\n        /* \"#utility.yul\":3657:3662   */\n      dup3\n        /* \"#utility.yul\":3651:3655   */\n      dup3\n        /* \"#utility.yul\":3647:3663   */\n      shl\n        /* \"#utility.yul\":3626:3663   */\n      swap1\n      pop\n        /* \"#utility.yul\":3563:3670   */\n      swap3\n      swap2\n      pop\n      pop\n      jump\t// out\n        /* \"#utility.yul\":3676:4069   */\n    tag_67:\n        /* \"#utility.yul\":3745:3751   */\n      0x00\n        /* \"#utility.yul\":3795:3796   */\n      0x08\n        /* \"#utility.yul\":3783:3793   */\n      dup4\n        /* \"#utility.yul\":3779:3797   */\n      mul\n        /* \"#utility.yul\":3818:3915   */\n      tag_116\n        /* \"#utility.yul\":3848:3914   */\n      0xffffffffffffffffffffffffffffffffffffffffffffffffffffffffffffffff\n        /* \"#utility.yul\":3837:3846   */\n      dup3\n        /* \"#utility.yul\":3818:3915   */\n      tag_66\n      jump\t// in\n    tag_116:\n        /* \"#utility.yul\":3936:3975   */\n      tag_117\n        /* \"#utility.yul\":3966:3974   */\n      dup7\n        /* \"#utility.yul\":3955:3964   */\n      dup4\n        /* \"#utility.yul\":3936:3975   */\n      tag_66\n      jump\t// in\n    tag_117:\n        /* \"#utility.yul\":3924:3975   */\n      swap6\n      pop\n        /* \"#utility.yul\":4008:4012   */\n      dup1\n        /* \"#utility.yul\":4004:4013   */\n      not\n        /* \"#utility.yul\":3997:4002   */\n      dup5\n        /* \"#utility.yul\":3993:4014   */\n      and\n        /* \"#utility.yul\":3984:4014   */\n      swap4\n      pop\n        /* \"#utility.yul\":4057:4061   */\n      dup1\n        /* \"#utility.yul\":4047:4055   */\n      dup7\n        /* \"#utility.yul\":4043:4062   */\n      and\n        /* \"#utility.yul\":4036:4041   */\n      dup5\n        /* \"#utility.yul\":4033:4063   */\n      or\n        /* \"#utility.yul\":4023:4063   */\n      swap3\n      pop\n        /* \"#utility.yul\":3752:4069   */\n      pop\n      pop\n        /* \"#utility.yul\":3676:4069   */\n      swap4\n      swap3\n      pop\n      pop\n      pop\n      jump\t// out\n        /* \"#utility.yul\":4075:4152   */\n    tag_68:\n        /* \"#utility.yul\":4112:4119   */\n      0x00\n        /* \"#utility.yul\":4141:4146   */\n      dup2\n        /* \"#utility.yul\":4130:4146   */\n      swap1\n      pop\n        /* \"#utility.yul\":4075:4152   */\n      swap2\n      swap1\n      pop\n      jump\t// out\n        /* \"#utility.yul\":4158:4218   */\n    tag_69:\n        /* \"#utility.yul\":4186:4189   */\n      0x00\n        /* \"#utility.yul\":4207:4212   */\n      dup2\n        /* \"#utility.yul\":4200:4212   */\n      swap1\n      pop\n        /* \"#utility.yul\":4158:4218   */\n      swap2\n      swap1\n      pop\n      jump\t// out\n        /* \"#utility.yul\":4224:4366   */\n    tag_70:\n        /* \"#utility.yul\":4274:4283   */\n      0x00\n        /* \"#utility.yul\":4307:4360   */\n      tag_121\n        /* \"#utility.yul\":4325:4359   */\n      tag_122\n        /* \"#utility.yul\":4334:4358   */\n      tag_123\n        /* \"#utility.yul\":4352:4357   */\n      dup5\n        /* \"#utility.yul\":4334:4358   */\n      tag_68\n      jump\t// in\n    tag_123:\n        /* \"#utility.yul\":4325:4359   */\n      tag_69\n      jump\t// in\n    tag_122:\n        /* \"#utility.yul\":4307:4360   */\n      tag_68\n      jump\t// in\n    tag_121:\n        /* \"#utility.yul\":4294:4360   */\n      swap1\n      pop\n        /* \"#utility.yul\":4224:4366   */\n      swap2\n      swap1\n      pop\n      jump\t// out\n        /* \"#utility.yul\":4372:4447   */\n    tag_71:\n        /* \"#utility.yul\":4415:4418   */\n      0x00\n        /* \"#utility.yul\":4436:4441   */\n      dup2\n        /* \"#utility.yul\":4429:4441   */\n      swap1\n      pop\n        /* \"#utility.yul\":4372:4447   */\n      swap2\n      swap1\n      pop\n      jump\t// out\n        /* \"#utility.yul\":4453:4722   */\n    tag_72:\n        /* \"#utility.yul\":4563:4602   */\n      tag_126\n        /* \"#utility.yul\":4594:4601   */\n      dup4\n        /* \"#utility.yul\":4563:4602   */\n      tag_70\n      jump\t// in\n    tag_126:\n        /* \"#utility.yul\":4624:4715   */\n      tag_127\n        /* \"#utility.yul\":4673:4714   */\n      tag_128\n        /* \"#utility.yul\":4697:4713   */\n      dup3\n        /* \"#utility.yul\":4673:4714   */\n      tag_71\n      jump\t// in\n    tag_128:\n        /* \"#utility.yul\":4665:4671   */\n      dup5\n        /* \"#utility.yul\":4658:4662   */\n      dup5\n        /* \"#utility.yul\":4652:4663   */\n      sload\n        /* \"#utility.yul\":4624:4715   */\n      tag_67\n      jump\t// in\n    tag_127:\n        /* \"#utility.yul\":4618:4622   */\n      dup3\n        /* \"#utility.yul\":4611:4716   */\n      sstore\n        /* \"#utility.yul\":4529:4722   */\n      pop\n        /* \"#utility.yul\":4453:4722   */\n      pop\n      pop\n      pop\n      jump\t// out\n        /* \"#utility.yul\":4728:4801   */\n    tag_73:\n        /* \"#utility.yul\":4773:4776   */\n      0x00\n        /* \"#utility.yul\":4728:4801   */\n      swap1\n      jump\t// out\n        /* \"#utility.yul\":4807:4996   */\n    tag_74:\n        /* \"#utility.yul\":4884:4916   */\n      tag_131\n      tag_73\n      jump\t// in\n    tag_131:\n        /* \"#utility.yul\":4925:4990   */\n      tag_132\n        /* \"#utility.yul\":4983:4989   */\n      dup2\n        /* \"#utility.yul\":4975:4981   */\n      dup5\n        /* \"#utility.yul\":4969:4973   */\n      dup5\n        /* \"#utility.yul\":4925:4990   */\n      tag_72\n      jump\t// in\n    tag_132:\n        /* \"#utility.yul\":4860:4996   */\n      pop\n        /* \"#utility.yul\":4807:4996   */\n      pop\n      pop\n      jump\t// out\n        /* \"#utility.yul\":5002:5188   */\n    tag_75:\n        /* \"#utility.yul\":5062:5182   */\n    tag_134:\n        /* \"#utility.yul\":5079:5082   */\n      dup2\n        /* \"#utility.yul\":5072:5077   */\n      dup2\n        /* \"#utility.yul\":5069:5083   */\n      lt\n        /* \"#utility.yul\":5062:5182   */\n      iszero\n      tag_136\n      jumpi\n        /* \"#utility.yul\":5133:5172   */\n      tag_137\n        /* \"#utility.yul\":5170:5171   */\n      0x00\n        /* \"#utility.yul\":5163:5168   */\n      dup3\n        /* \"#utility.yul\":5133:5172   */\n      tag_74\n      jump\t// in\n    tag_137:\n        /* \"#utility.yul\":5106:5107   */\n      0x01\n        /* \"#utility.yul\":5099:5104   */\n      dup2\n        /* \"#utility.yul\":5095:5108   */\n      add\n        /* \"#utility.yul\":5086:5108   */\n      swap1\n      pop\n        /* \"#utility.yul\":5062:5182   */\n      jump(tag_134)\n    tag_136:\n        /* \"#utility.yul\":5002:5188   */\n      pop\n      pop\n      jump\t// out\n        /* \"#utility.yul\":5194:5737   */\n    tag_76:\n        /* \"#utility.yul\":5295:5297   */\n      0x1f\n        /* \"#utility.yul\":5290:5293   */\n      dup3\n        /* \"#utility.yul\":5287:5298   */\n      gt\n        /* \"#utility.yul\":5284:5730   */\n      iszero\n      tag_139\n      jumpi\n        /* \"#utility.yul\":5329:5367   */\n      tag_140\n        /* \"#utility.yul\":5361:5366   */\n      dup2\n        /* \"#utility.yul\":5329:5367   */\n      tag_64\n      jump\t// in\n    tag_140:\n        /* \"#utility.yul\":5413:5442   */\n      tag_141\n        /* \"#utility.yul\":5431:5441   */\n      dup5\n        /* \"#utility.yul\":5413:5442   */\n      tag_65\n      jump\t// in\n    tag_141:\n        /* \"#utility.yul\":5403:5411   */\n      dup2\n        /* \"#utility.yul\":5399:5443   */\n      add\n        /* \"#utility.yul\":5596:5598   */\n      0x20\n        /* \"#utility.yul\":5584:5594   */\n      dup6\n        /* \"#utility.yul\":5581:5599   */\n      lt\n        /* \"#utility.yul\":5578:5627   */\n      iszero\n      tag_142\n      jumpi\n        /* \"#utility.yul\":5617:5625   */\n      dup2\n        /* \"#utility.yul\":5602:5625   */\n      swap1\n      pop\n        /* \"#utility.yul\":5578:5627   */\n    tag_142:\n        /* \"#utility.yul\":5640:5720   */\n      tag_143\n        /* \"#utility.yul\":5696:5718   */\n      tag_144\n        /* \"#utility.yul\":5714:5717   */\n      dup6\n        /* \"#utility.yul\":5696:5718   */\n      tag_65\n      jump\t// in\n    tag_144:\n        /* \"#utility.yul\":5686:5694   */\n      dup4\n        /* \"#utility.yul\":5682:5719   */\n      add\n        /* \"#utility.yul\":5669:5680   */\n      dup3\n        /* \"#utility.yul\":5640:5720   */\n      tag_75\n      jump\t// in\n    tag_143:\n        /* \"#utility.yul\":5299:5730   */\n      pop\n      pop\n        /* \"#utility.yul\":5284:5730   */\n    tag_139:\n        /* \"#utility.yul\":5194:5737   */\n      pop\n      pop\n      pop\n      jump\t// out\n        /* \"#utility.yul\":5743:5860   */\n    tag_77:\n        /* \"#utility.yul\":5797:5805   */\n      0x00\n        /* \"#utility.yul\":5847:5852   */\n      dup3\n        /* \"#utility.yul\":5841:5845   */\n      dup3\n        /* \"#utility.yul\":5837:5853   */\n      shr\n        /* \"#utility.yul\":5816:5853   */\n      swap1\n      pop\n        /* \"#utility.yul\":5743:5860   */\n      swap3\n      swap2\n      pop\n      pop\n      jump\t// out\n        /* \"#utility.yul\":5866:6035   */\n    tag_78:\n        /* \"#utility.yul\":5910:5916   */\n      0x00\n        /* \"#utility.yul\":5943:5994   */\n      tag_147\n        /* \"#utility.yul\":5991:5992   */\n      0x00\n        /* \"#utility.yul\":5987:5993   */\n      not\n        /* \"#utility.yul\":5979:5984   */\n      dup5\n        /* \"#utility.yul\":5976:5977   */\n      0x08\n        /* \"#utility.yul\":5972:5985   */\n      mul\n        /* \"#utility.yul\":5943:5994   */\n      tag_77\n      jump\t// in\n    tag_147:\n        /* \"#utility.yul\":5939:5995   */\n      not\n        /* \"#utility.yul\":6024:6028   */\n      dup1\n        /* \"#utility.yul\":6018:6022   */\n      dup4\n        /* \"#utility.yul\":6014:6029   */\n      and\n        /* \"#utility.yul\":6004:6029   */\n      swap2\n      pop\n        /* \"#utility.yul\":5917:6035   */\n      pop\n        /* \"#utility.yul\":5866:6035   */\n      swap3\n      swap2\n      pop\n      pop\n      jump\t// out\n        /* \"#utility.yul\":6040:6335   */\n    tag_79:\n        /* \"#utility.yul\":6116:6120   */\n      0x00\n        /* \"#utility.yul\":6262:6291   */\n      tag_149\n        /* \"#utility.yul\":6287:6290   */\n      dup4\n        /* \"#utility.yul\":6281:6285   */\n      dup4\n        /* \"#utility.yul\":6262:6291   */\n      tag_78\n      jump\t// in\n    tag_149:\n        /* \"#utility.yul\":6254:6291   */\n      swap2\n      pop\n        /* \"#utility.yul\":6324:6327   */\n      dup3\n        /* \"#utility.yul\":6321:6322   */\n      0x02\n        /* \"#utility.yul\":6317:6328   */\n      mul\n        /* \"#utility.yul\":6311:6315   */\n      dup3\n        /* \"#utility.yul\":6308:6329   */\n      or\n        /* \"#utility.yul\":6300:6329   */\n      swap1\n      pop\n        /* \"#utility.yul\":6040:6335   */\n      swap3\n      swap2\n      pop\n      pop\n      jump\t// out\n        /* \"#utility.yul\":6340:7735   */\n    tag_38:\n        /* \"#utility.yul\":6457:6494   */\n      tag_151\n        /* \"#utility.yul\":6490:6493   */\n      dup3\n        /* \"#utility.yul\":6457:6494   */\n      tag_57\n      jump\t// in\n    tag_151:\n        /* \"#utility.yul\":6559:6577   */\n      0xffffffffffffffff\n        /* \"#utility.yul\":6551:6557   */\n      dup2\n        /* \"#utility.yul\":6548:6578   */\n      gt\n        /* \"#utility.yul\":6545:6601   */\n      iszero\n      tag_152\n      jumpi\n        /* \"#utility.yul\":6581:6599   */\n      tag_153\n      tag_62\n      jump\t// in\n    tag_153:\n        /* \"#utility.yul\":6545:6601   */\n    tag_152:\n        /* \"#utility.yul\":6625:6663   */\n      tag_154\n        /* \"#utility.yul\":6657:6661   */\n      dup3\n        /* \"#utility.yul\":6651:6662   */\n      sload\n        /* \"#utility.yul\":6625:6663   */\n      tag_42\n      jump\t// in\n    tag_154:\n        /* \"#utility.yul\":6710:6777   */\n      tag_155\n        /* \"#utility.yul\":6770:6776   */\n      dup3\n        /* \"#utility.yul\":6762:6768   */\n      dup3\n        /* \"#utility.yul\":6756:6760   */\n      dup6\n        /* \"#utility.yul\":6710:6777   */\n      tag_76\n      jump\t// in\n    tag_155:\n        /* \"#utility.yul\":6804:6805   */\n      0x00\n        /* \"#utility.yul\":6828:6832   */\n      0x20\n        /* \"#utility.yul\":6815:6832   */\n      swap1\n      pop\n        /* \"#utility.yul\":6860:6862   */\n      0x1f\n        /* \"#utility.yul\":6852:6858   */\n      dup4\n        /* \"#utility.yul\":6849:6863   */\n      gt\n        /* \"#utility.yul\":6877:6878   */\n      0x01\n        /* \"#utility.yul\":6872:7490   */\n      dup2\n      eq\n      tag_157\n      jumpi\n        /* \"#utility.yul\":7534:7535   */\n      0x00\n        /* \"#utility.yul\":7551:7557   */\n      dup5\n        /* \"#utility.yul\":7548:7625   */\n      iszero\n      tag_158\n      jumpi\n        /* \"#utility.yul\":7600:7609   */\n      dup3\n        /* \"#utility.yul\":7595:7598   */\n      dup8\n        /* \"#utility.yul\":7591:7610   */\n      add\n        /* \"#utility.yul\":7585:7611   */\n      mload\n        /* \"#utility.yul\":7576:7611   */\n      swap1\n      pop\n        /* \"#utility.yul\":7548:7625   */\n    tag_158:\n        /* \"#utility.yul\":7651:7718   */\n      tag_159\n        /* \"#utility.yul\":7711:7717   */\n      dup6\n        /* \"#utility.yul\":7704:7709   */\n      dup3\n        /* \"#utility.yul\":7651:7718   */\n      tag_79\n      jump\t// in\n    tag_159:\n        /* \"#utility.yul\":7645:7649   */\n      dup7\n        /* \"#utility.yul\":7638:7719   */\n      sstore\n        /* \"#utility.yul\":7507:7729   */\n      pop\n        /* \"#utility.yul\":6842:7729   */\n      jump(tag_156)\n        /* \"#utility.yul\":6872:7490   */\n    tag_157:\n        /* \"#utility.yul\":6924:6928   */\n      0x1f\n        /* \"#utility.yul\":6920:6929   */\n      not\n        /* \"#utility.yul\":6912:6918   */\n      dup5\n        /* \"#utility.yul\":6908:6930   */\n      and\n        /* \"#utility.yul\":6958:6995   */\n      tag_160\n        /* \"#utility.yul\":6990:6994   */\n      dup7\n        /* \"#utility.yul\":6958:6995   */\n      tag_64\n      jump\t// in\n    tag_160:\n        /* \"#utility.yul\":7017:7018   */\n      0x00\n        /* \"#utility.yul\":7031:7239   */\n    tag_161:\n        /* \"#utility.yul\":7045:7052   */\n      dup3\n        /* \"#utility.yul\":7042:7043   */\n      dup2\n        /* \"#utility.yul\":7039:7053   */\n      lt\n        /* \"#utility.yul\":7031:7239   */\n      iszero\n      tag_163\n      jumpi\n        /* \"#utility.yul\":7124:7133   */\n      dup5\n        /* \"#utility.yul\":7119:7122   */\n      dup10\n        /* \"#utility.yul\":7115:7134   */\n      add\n        /* \"#utility.yul\":7109:7135   */\n      mload\n        /* \"#utility.yul\":7101:7107   */\n      dup3\n        /* \"#utility.yul\":7094:7136   */\n      sstore\n        /* \"#utility.yul\":7175:7176   */\n      0x01\n        /* \"#utility.yul\":7167:7173   */\n      dup3\n        /* \"#utility.yul\":7163:7177   */\n      add\n        /* \"#utility.yul\":7153:7177   */\n      swap2\n      pop\n        /* \"#utility.yul\":7222:7224   */\n      0x20\n        /* \"#utility.yul\":7211:7220   */\n      dup6\n        /* \"#utility.yul\":7207:7225   */\n      add\n        /* \"#utility.yul\":7194:7225   */\n      swap5\n      pop\n        /* \"#utility.yul\":7068:7072   */\n      0x20\n        /* \"#utility.yul\":7065:7066   */\n      dup2\n        /* \"#utility.yul\":7061:7073   */\n      add\n        /* \"#utility.yul\":7056:7073   */\n      swap1\n      pop\n        /* \"#utility.yul\":7031:7239   */\n      jump(tag_161)\n    tag_163:\n        /* \"#utility.yul\":7267:7273   */\n      dup7\n        /* \"#utility.yul\":7258:7265   */\n      dup4\n        /* \"#utility.yul\":7255:7274   */\n      lt\n        /* \"#utility.yul\":7252:7431   */\n      iszero\n      tag_164\n      jumpi\n        /* \"#utility.yul\":7325:7334   */\n      dup5\n        /* \"#utility.yul\":7320:7323   */\n      dup10\n        /* \"#utility.yul\":7316:7335   */\n      add\n        /* \"#utility.yul\":7310:7336   */\n      mload\n        /* \"#utility.yul\":7368:7416   */\n      tag_165\n        /* \"#utility.yul\":7410:7414   */\n      0x1f\n        /* \"#utility.yul\":7402:7408   */\n      dup10\n        /* \"#utility.yul\":7398:7415   */\n      and\n        /* \"#utility.yul\":7387:7396   */\n      dup3\n        /* \"#utility.yul\":7368:7416   */\n      tag_78\n      jump\t// in\n    tag_165:\n        /* \"#utility.yul\":7360:7366   */\n      dup4\n        /* \"#utility.yul\":7353:7417   */\n      sstore\n        /* \"#utility.yul\":7275:7431   */\n      pop\n        /* \"#utility.yul\":7252:7431   */\n    tag_164:\n        /* \"#utility.yul\":7477:7478   */\n      0x01\n        /* \"#utility.yul\":7473:7474   */\n      0x02\n        /* \"#utility.yul\":7465:7471   */\n      dup9\n        /* \"#utility.yul\":7461:7475   */\n      mul\n        /* \"#utility.yul\":7457:7479   */\n      add\n        /* \"#utility.yul\":7451:7455   */\n      dup9\n        /* \"#utility.yul\":7444:7480   */\n      sstore\n        /* \"#utility.yul\":6879:7490   */\n      pop\n      pop\n      pop\n        /* \"#utility.yul\":6842:7729   */\n    tag_156:\n      pop\n        /* \"#utility.yul\":6432:7735   */\n      pop\n      pop\n      pop\n        /* \"#utility.yul\":6340:7735   */\n      pop\n      pop\n      jump\t// out\n\n    auxdata: 0xa2646970667358221220f4064113e3e91fed1738d291d27f3335937ce993d7ad5e47912656df942c69a964736f6c634300081a0033\n}\n",
				"bytecode": {
					"linkReferences": {},
					"object": "6080604052348015600e575f80fd5b506107cb8061001c5f395ff3fe608060405234801561000f575f80fd5b506004361061007b575f3560e01c806364f135211161005957806364f13521146100c757806386b714e2146100e7578063e5aa3d5814610105578063e61e4008146101235761007b565b806326a89e041461007f5780634df7e3d0146100895780635e632bd5146100a7575b5f80fd5b610087610143565b005b610091610186565b60405161009e9190610380565b60405180910390f35b6100af610198565b6040516100be93929190610421565b60405180910390f35b6100cf6101e1565b6040516100de93929190610421565b60405180910390f35b6100ef61028d565b6040516100fc919061045d565b60405180910390f35b61010d610319565b60405161011a919061047d565b60405180910390f35b61012b61031e565b60405161013a93929190610421565b60405180910390f35b61014b61031e565b5f8060015f60025f86919050908161016391906106c6565b508591906101000a81548160ff0219169083151502179055508491905055505050565b60015f9054906101000a900460ff1681565b5f80606060029250600191506040518060400160405280600b81526020017f64756d6d79206e616d65640000000000000000000000000000000000000000008152509050909192565b5f8060605f5460015f9054906101000a900460ff166002808054610204906104f0565b80601f0160208091040260200160405190810160405280929190818152602001828054610230906104f0565b801561027b5780601f106102525761010080835404028352916020019161027b565b820191905f5260205f20905b81548152906001019060200180831161025e57829003601f168201915b50505050509050925092509250909192565b6002805461029a906104f0565b80601f01602080910402602001604051908101604052809291908181526020018280546102c6906104f0565b80156103115780601f106102e857610100808354040283529160200191610311565b820191905f5260205f20905b8154815290600101906020018083116102f457829003601f168201915b505050505081565b5f5481565b5f80606060015f6040518060400160405280600581526020017f64756d6d79000000000000000000000000000000000000000000000000000000815250925092509250909192565b5f8115159050919050565b61037a81610366565b82525050565b5f6020820190506103935f830184610371565b92915050565b5f819050919050565b6103ab81610399565b82525050565b5f81519050919050565b5f82825260208201905092915050565b8281835e5f83830152505050565b5f601f19601f8301169050919050565b5f6103f3826103b1565b6103fd81856103bb565b935061040d8185602086016103cb565b610416816103d9565b840191505092915050565b5f6060820190506104345f8301866103a2565b6104416020830185610371565b818103604083015261045381846103e9565b9050949350505050565b5f6020820190508181035f83015261047581846103e9565b905092915050565b5f6020820190506104905f8301846103a2565b92915050565b7f4e487b71000000000000000000000000000000000000000000000000000000005f52604160045260245ffd5b7f4e487b71000000000000000000000000000000000000000000000000000000005f52602260045260245ffd5b5f600282049050600182168061050757607f821691505b60208210810361051a576105196104c3565b5b50919050565b5f819050815f5260205f209050919050565b5f6020601f8301049050919050565b5f82821b905092915050565b5f6008830261057c7fffffffffffffffffffffffffffffffffffffffffffffffffffffffffffffffff82610541565b6105868683610541565b95508019841693508086168417925050509392505050565b5f819050919050565b5f819050919050565b5f6105ca6105c56105c08461059e565b6105a7565b61059e565b9050919050565b5f819050919050565b6105e3836105b0565b6105f76105ef826105d1565b84845461054d565b825550505050565b5f90565b61060b6105ff565b6106168184846105da565b505050565b5b818110156106395761062e5f82610603565b60018101905061061c565b5050565b601f82111561067e5761064f81610520565b61065884610532565b81016020851015610667578190505b61067b61067385610532565b83018261061b565b50505b505050565b5f82821c905092915050565b5f61069e5f1984600802610683565b1980831691505092915050565b5f6106b6838361068f565b9150826002028217905092915050565b6106cf826103b1565b67ffffffffffffffff8111156106e8576106e7610496565b5b6106f282546104f0565b6106fd82828561063d565b5f60209050601f83116001811461072e575f841561071c578287015190505b61072685826106ab565b86555061078d565b601f19841661073c86610520565b5f5b828110156107635784890151825560018201915060208501945060208101905061073e565b86831015610780578489015161077c601f89168261068f565b8355505b6001600288020188555050505b50505050505056fea2646970667358221220f4064113e3e91fed1738d291d27f3335937ce993d7ad5e47912656df942c69a964736f6c634300081a0033",
					"opcodes": "PUSH1 0x80 PUSH1 0x40 MSTORE CALLVALUE DUP1 ISZERO PUSH1 0xE JUMPI PUSH0 DUP1 REVERT JUMPDEST POP PUSH2 0x7CB DUP1 PUSH2 0x1C PUSH0 CODECOPY PUSH0 RETURN INVALID PUSH1 0x80 PUSH1 0x40 MSTORE CALLVALUE DUP1 ISZERO PUSH2 0xF JUMPI PUSH0 DUP1 REVERT JUMPDEST POP PUSH1 0x4 CALLDATASIZE LT PUSH2 0x7B JUMPI PUSH0 CALLDATALOAD PUSH1 0xE0 SHR DUP1 PUSH4 0x64F13521 GT PUSH2 0x59 JUMPI DUP1 PUSH4 0x64F13521 EQ PUSH2 0xC7 JUMPI DUP1 PUSH4 0x86B714E2 EQ PUSH2 0xE7 JUMPI DUP1 PUSH4 0xE5AA3D58 EQ PUSH2 0x105 JUMPI DUP1 PUSH4 0xE61E4008 EQ PUSH2 0x123 JUMPI PUSH2 0x7B JUMP JUMPDEST DUP1 PUSH4 0x26A89E04 EQ PUSH2 0x7F JUMPI DUP1 PUSH4 0x4DF7E3D0 EQ PUSH2 0x89 JUMPI DUP1 PUSH4 0x5E632BD5 EQ PUSH2 0xA7 JUMPI JUMPDEST PUSH0 DUP1 REVERT JUMPDEST PUSH2 0x87 PUSH2 0x143 JUMP JUMPDEST STOP JUMPDEST PUSH2 0x91 PUSH2 0x186 JUMP JUMPDEST PUSH1 0x40 MLOAD PUSH2 0x9E SWAP2 SWAP1 PUSH2 0x380 JUMP JUMPDEST PUSH1 0x40 MLOAD DUP1 SWAP2 SUB SWAP1 RETURN JUMPDEST PUSH2 0xAF PUSH2 0x198 JUMP JUMPDEST PUSH1 0x40 MLOAD PUSH2 0xBE SWAP4 SWAP3 SWAP2 SWAP1 PUSH2 0x421 JUMP JUMPDEST PUSH1 0x40 MLOAD DUP1 SWAP2 SUB SWAP1 RETURN JUMPDEST PUSH2 0xCF PUSH2 0x1E1 JUMP JUMPDEST PUSH1 0x40 MLOAD PUSH2 0xDE SWAP4 SWAP3 SWAP2 SWAP1 PUSH2 0x421 JUMP JUMPDEST PUSH1 0x40 MLOAD DUP1 SWAP2 SUB SWAP1 RETURN JUMPDEST PUSH2 0xEF PUSH2 0x28D JUMP JUMPDEST PUSH1 0x40 MLOAD PUSH2 0xFC SWAP2 SWAP1 PUSH2 0x45D JUMP JUMPDEST PUSH1 0x40 MLOAD DUP1 SWAP2 SUB SWAP1 RETURN JUMPDEST PUSH2 0x10D PUSH2 0x319 JUMP JUMPDEST PUSH1 0x40 MLOAD PUSH2 0x11A SWAP2 SWAP1 PUSH2 0x47D JUMP JUMPDEST PUSH1 0x40 MLOAD DUP1 SWAP2 SUB SWAP1 RETURN JUMPDEST PUSH2 0x12B PUSH2 0x31E JUMP JUMPDEST PUSH1 0x40 MLOAD PUSH2 0x13A SWAP4 SWAP3 SWAP2 SWAP1 PUSH2 0x421 JUMP JUMPDEST PUSH1 0x40 MLOAD DUP1 SWAP2 SUB SWAP1 RETURN JUMPDEST PUSH2 0x14B PUSH2 0x31E JUMP JUMPDEST PUSH0 DUP1 PUSH1 0x1 PUSH0 PUSH1 0x2 PUSH0 DUP7 SWAP2 SWAP1 POP SWAP1 DUP2 PUSH2 0x163 SWAP2 SWAP1 PUSH2 0x6C6 JUMP JUMPDEST POP DUP6 SWAP2 SWAP1 PUSH2 0x100 EXP DUP2 SLOAD DUP2 PUSH1 0xFF MUL NOT AND SWAP1 DUP4 ISZERO ISZERO MUL OR SWAP1 SSTORE POP DUP5 SWAP2 SWAP1 POP SSTORE POP POP POP JUMP JUMPDEST PUSH1 0x1 PUSH0 SWAP1 SLOAD SWAP1 PUSH2 0x100 EXP SWAP1 DIV PUSH1 0xFF AND DUP2 JUMP JUMPDEST PUSH0 DUP1 PUSH1 0x60 PUSH1 0x2 SWAP3 POP PUSH1 0x1 SWAP2 POP PUSH1 0x40 MLOAD DUP1 PUSH1 0x40 ADD PUSH1 0x40 MSTORE DUP1 PUSH1 0xB DUP2 MSTORE PUSH1 0x20 ADD PUSH32 0x64756D6D79206E616D6564000000000000000000000000000000000000000000 DUP2 MSTORE POP SWAP1 POP SWAP1 SWAP2 SWAP3 JUMP JUMPDEST PUSH0 DUP1 PUSH1 0x60 PUSH0 SLOAD PUSH1 0x1 PUSH0 SWAP1 SLOAD SWAP1 PUSH2 0x100 EXP SWAP1 DIV PUSH1 0xFF AND PUSH1 0x2 DUP1 DUP1 SLOAD PUSH2 0x204 SWAP1 PUSH2 0x4F0 JUMP JUMPDEST DUP1 PUSH1 0x1F ADD PUSH1 0x20 DUP1 SWAP2 DIV MUL PUSH1 0x20 ADD PUSH1 0x40 MLOAD SWAP1 DUP2 ADD PUSH1 0x40 MSTORE DUP1 SWAP3 SWAP2 SWAP1 DUP2 DUP2 MSTORE PUSH1 0x20 ADD DUP3 DUP1 SLOAD PUSH2 0x230 SWAP1 PUSH2 0x4F0 JUMP JUMPDEST DUP1 ISZERO PUSH2 0x27B JUMPI DUP1 PUSH1 0x1F LT PUSH2 0x252 JUMPI PUSH2 0x100 DUP1 DUP4 SLOAD DIV MUL DUP4 MSTORE SWAP2 PUSH1 0x20 ADD SWAP2 PUSH2 0x27B JUMP JUMPDEST DUP3 ADD SWAP2 SWAP1 PUSH0 MSTORE PUSH1 0x20 PUSH0 KECCAK256 SWAP1 JUMPDEST DUP2 SLOAD DUP2 MSTORE SWAP1 PUSH1 0x1 ADD SWAP1 PUSH1 0x20 ADD DUP1 DUP4 GT PUSH2 0x25E JUMPI DUP3 SWAP1 SUB PUSH1 0x1F AND DUP3 ADD SWAP2 JUMPDEST POP POP POP POP POP SWAP1 POP SWAP3 POP SWAP3 POP SWAP3 POP SWAP1 SWAP2 SWAP3 JUMP JUMPDEST PUSH1 0x2 DUP1 SLOAD PUSH2 0x29A SWAP1 PUSH2 0x4F0 JUMP JUMPDEST DUP1 PUSH1 0x1F ADD PUSH1 0x20 DUP1 SWAP2 DIV MUL PUSH1 0x20 ADD PUSH1 0x40 MLOAD SWAP1 DUP2 ADD PUSH1 0x40 MSTORE DUP1 SWAP3 SWAP2 SWAP1 DUP2 DUP2 MSTORE PUSH1 0x20 ADD DUP3 DUP1 SLOAD PUSH2 0x2C6 SWAP1 PUSH2 0x4F0 JUMP JUMPDEST DUP1 ISZERO PUSH2 0x311 JUMPI DUP1 PUSH1 0x1F LT PUSH2 0x2E8 JUMPI PUSH2 0x100 DUP1 DUP4 SLOAD DIV MUL DUP4 MSTORE SWAP2 PUSH1 0x20 ADD SWAP2 PUSH2 0x311 JUMP JUMPDEST DUP3 ADD SWAP2 SWAP1 PUSH0 MSTORE PUSH1 0x20 PUSH0 KECCAK256 SWAP1 JUMPDEST DUP2 SLOAD DUP2 MSTORE SWAP1 PUSH1 0x1 ADD SWAP1 PUSH1 0x20 ADD DUP1 DUP4 GT PUSH2 0x2F4 JUMPI DUP3 SWAP1 SUB PUSH1 0x1F AND DUP3 ADD SWAP2 JUMPDEST POP POP POP POP POP DUP2 JUMP JUMPDEST PUSH0 SLOAD DUP2 JUMP JUMPDEST PUSH0 DUP1 PUSH1 0x60 PUSH1 0x1 PUSH0 PUSH1 0x40 MLOAD DUP1 PUSH1 0x40 ADD PUSH1 0x40 MSTORE DUP1 PUSH1 0x5 DUP2 MSTORE PUSH1 0x20 ADD PUSH32 0x64756D6D79000000000000000000000000000000000000000000000000000000 DUP2 MSTORE POP SWAP3 POP SWAP3 POP SWAP3 POP SWAP1 SWAP2 SWAP3 JUMP JUMPDEST PUSH0 DUP2 ISZERO ISZERO SWAP1 POP SWAP2 SWAP1 POP JUMP JUMPDEST PUSH2 0x37A DUP2 PUSH2 0x366 JUMP JUMPDEST DUP3 MSTORE POP POP JUMP JUMPDEST PUSH0 PUSH1 0x20 DUP3 ADD SWAP1 POP PUSH2 0x393 PUSH0 DUP4 ADD DUP5 PUSH2 0x371 JUMP JUMPDEST SWAP3 SWAP2 POP POP JUMP JUMPDEST PUSH0 DUP2 SWAP1 POP SWAP2 SWAP1 POP JUMP JUMPDEST PUSH2 0x3AB DUP2 PUSH2 0x399 JUMP JUMPDEST DUP3 MSTORE POP POP JUMP JUMPDEST PUSH0 DUP2 MLOAD SWAP1 POP SWAP2 SWAP1 POP JUMP JUMPDEST PUSH0 DUP3 DUP3 MSTORE PUSH1 0x20 DUP3 ADD SWAP1 POP SWAP3 SWAP2 POP POP JUMP JUMPDEST DUP3 DUP2 DUP4 MCOPY PUSH0 DUP4 DUP4 ADD MSTORE POP POP POP JUMP JUMPDEST PUSH0 PUSH1 0x1F NOT PUSH1 0x1F DUP4 ADD AND SWAP1 POP SWAP2 SWAP1 POP JUMP JUMPDEST PUSH0 PUSH2 0x3F3 DUP3 PUSH2 0x3B1 JUMP JUMPDEST PUSH2 0x3FD DUP2 DUP6 PUSH2 0x3BB JUMP JUMPDEST SWAP4 POP PUSH2 0x40D DUP2 DUP6 PUSH1 0x20 DUP7 ADD PUSH2 0x3CB JUMP JUMPDEST PUSH2 0x416 DUP2 PUSH2 0x3D9 JUMP JUMPDEST DUP5 ADD SWAP2 POP POP SWAP3 SWAP2 POP POP JUMP JUMPDEST PUSH0 PUSH1 0x60 DUP3 ADD SWAP1 POP PUSH2 0x434 PUSH0 DUP4 ADD DUP7 PUSH2 0x3A2 JUMP JUMPDEST PUSH2 0x441 PUSH1 0x20 DUP4 ADD DUP6 PUSH2 0x371 JUMP JUMPDEST DUP2 DUP2 SUB PUSH1 0x40 DUP4 ADD MSTORE PUSH2 0x453 DUP2 DUP5 PUSH2 0x3E9 JUMP JUMPDEST SWAP1 POP SWAP5 SWAP4 POP POP POP POP JUMP JUMPDEST PUSH0 PUSH1 0x20 DUP3 ADD SWAP1 POP DUP2 DUP2 SUB PUSH0 DUP4 ADD MSTORE PUSH2 0x475 DUP2 DUP5 PUSH2 0x3E9 JUMP JUMPDEST SWAP1 POP SWAP3 SWAP2 POP POP JUMP JUMPDEST PUSH0 PUSH1 0x20 DUP3 ADD SWAP1 POP PUSH2 0x490 PUSH0 DUP4 ADD DUP5 PUSH2 0x3A2 JUMP JUMPDEST SWAP3 SWAP2 POP POP JUMP JUMPDEST PUSH32 0x4E487B7100000000000000000000000000000000000000000000000000000000 PUSH0 MSTORE PUSH1 0x41 PUSH1 0x4 MSTORE PUSH1 0x24 PUSH0 REVERT JUMPDEST PUSH32 0x4E487B7100000000000000000000000000000000000000000000000000000000 PUSH0 MSTORE PUSH1 0x22 PUSH1 0x4 MSTORE PUSH1 0x24 PUSH0 REVERT JUMPDEST PUSH0 PUSH1 0x2 DUP3 DIV SWAP1 POP PUSH1 0x1 DUP3 AND DUP1 PUSH2 0x507 JUMPI PUSH1 0x7F DUP3 AND SWAP2 POP JUMPDEST PUSH1 0x20 DUP3 LT DUP2 SUB PUSH2 0x51A JUMPI PUSH2 0x519 PUSH2 0x4C3 JUMP JUMPDEST JUMPDEST POP SWAP2 SWAP1 POP JUMP JUMPDEST PUSH0 DUP2 SWAP1 POP DUP2 PUSH0 MSTORE PUSH1 0x20 PUSH0 KECCAK256 SWAP1 POP SWAP2 SWAP1 POP JUMP JUMPDEST PUSH0 PUSH1 0x20 PUSH1 0x1F DUP4 ADD DIV SWAP1 POP SWAP2 SWAP1 POP JUMP JUMPDEST PUSH0 DUP3 DUP3 SHL SWAP1 POP SWAP3 SWAP2 POP POP JUMP JUMPDEST PUSH0 PUSH1 0x8 DUP4 MUL PUSH2 0x57C PUSH32 0xFFFFFFFFFFFFFFFFFFFFFFFFFFFFFFFFFFFFFFFFFFFFFFFFFFFFFFFFFFFFFFFF DUP3 PUSH2 0x541 JUMP JUMPDEST PUSH2 0x586 DUP7 DUP4 PUSH2 0x541 JUMP JUMPDEST SWAP6 POP DUP1 NOT DUP5 AND SWAP4 POP DUP1 DUP7 AND DUP5 OR SWAP3 POP POP POP SWAP4 SWAP3 POP POP POP JUMP JUMPDEST PUSH0 DUP2 SWAP1 POP SWAP2 SWAP1 POP JUMP JUMPDEST PUSH0 DUP2 SWAP1 POP SWAP2 SWAP1 POP JUMP JUMPDEST PUSH0 PUSH2 0x5CA PUSH2 0x5C5 PUSH2 0x5C0 DUP5 PUSH2 0x59E JUMP JUMPDEST PUSH2 0x5A7 JUMP JUMPDEST PUSH2 0x59E JUMP JUMPDEST SWAP1 POP SWAP2 SWAP1 POP JUMP JUMPDEST PUSH0 DUP2 SWAP1 POP SWAP2 SWAP1 POP JUMP JUMPDEST PUSH2 0x5E3 DUP4 PUSH2 0x5B0 JUMP JUMPDEST PUSH2 0x5F7 PUSH2 0x5EF DUP3 PUSH2 0x5D1 JUMP JUMPDEST DUP5 DUP5 SLOAD PUSH2 0x54D JUMP JUMPDEST DUP3 SSTORE POP POP POP POP JUMP JUMPDEST PUSH0 SWAP1 JUMP JUMPDEST PUSH2 0x60B PUSH2 0x5FF JUMP JUMPDEST PUSH2 0x616 DUP2 DUP5 DUP5 PUSH2 0x5DA JUMP JUMPDEST POP POP POP JUMP JUMPDEST JUMPDEST DUP2 DUP2 LT ISZERO PUSH2 0x639 JUMPI PUSH2 0x62E PUSH0 DUP3 PUSH2 0x603 JUMP JUMPDEST PUSH1 0x1 DUP2 ADD SWAP1 POP PUSH2 0x61C JUMP JUMPDEST POP POP JUMP JUMPDEST PUSH1 0x1F DUP3 GT ISZERO PUSH2 0x67E JUMPI PUSH2 0x64F DUP2 PUSH2 0x520 JUMP JUMPDEST PUSH2 0x658 DUP5 PUSH2 0x532 JUMP JUMPDEST DUP2 ADD PUSH1 0x20 DUP6 LT ISZERO PUSH2 0x667 JUMPI DUP2 SWAP1 POP JUMPDEST PUSH2 0x67B PUSH2 0x673 DUP6 PUSH2 0x532 JUMP JUMPDEST DUP4 ADD DUP3 PUSH2 0x61B JUMP JUMPDEST POP POP JUMPDEST POP POP POP JUMP JUMPDEST PUSH0 DUP3 DUP3 SHR SWAP1 POP SWAP3 SWAP2 POP POP JUMP JUMPDEST PUSH0 PUSH2 0x69E PUSH0 NOT DUP5 PUSH1 0x8 MUL PUSH2 0x683 JUMP JUMPDEST NOT DUP1 DUP4 AND SWAP2 POP POP SWAP3 SWAP2 POP POP JUMP JUMPDEST PUSH0 PUSH2 0x6B6 DUP4 DUP4 PUSH2 0x68F JUMP JUMPDEST SWAP2 POP DUP3 PUSH1 0x2 MUL DUP3 OR SWAP1 POP SWAP3 SWAP2 POP POP JUMP JUMPDEST PUSH2 0x6CF DUP3 PUSH2 0x3B1 JUMP JUMPDEST PUSH8 0xFFFFFFFFFFFFFFFF DUP2 GT ISZERO PUSH2 0x6E8 JUMPI PUSH2 0x6E7 PUSH2 0x496 JUMP JUMPDEST JUMPDEST PUSH2 0x6F2 DUP3 SLOAD PUSH2 0x4F0 JUMP JUMPDEST PUSH2 0x6FD DUP3 DUP3 DUP6 PUSH2 0x63D JUMP JUMPDEST PUSH0 PUSH1 0x20 SWAP1 POP PUSH1 0x1F DUP4 GT PUSH1 0x1 DUP2 EQ PUSH2 0x72E JUMPI PUSH0 DUP5 ISZERO PUSH2 0x71C JUMPI DUP3 DUP8 ADD MLOAD SWAP1 POP JUMPDEST PUSH2 0x726 DUP6 DUP3 PUSH2 0x6AB JUMP JUMPDEST DUP7 SSTORE POP PUSH2 0x78D JUMP JUMPDEST PUSH1 0x1F NOT DUP5 AND PUSH2 0x73C DUP7 PUSH2 0x520 JUMP JUMPDEST PUSH0 JUMPDEST DUP3 DUP2 LT ISZERO PUSH2 0x763 JUMPI DUP5 DUP10 ADD MLOAD DUP3 SSTORE PUSH1 0x1 DUP3 ADD SWAP2 POP PUSH1 0x20 DUP6 ADD SWAP5 POP PUSH1 0x20 DUP2 ADD SWAP1 POP PUSH2 0x73E JUMP JUMPDEST DUP7 DUP4 LT ISZERO PUSH2 0x780 JUMPI DUP5 DUP10 ADD MLOAD PUSH2 0x77C PUSH1 0x1F DUP10 AND DUP3 PUSH2 0x68F JUMP JUMPDEST DUP4 SSTORE POP JUMPDEST PUSH1 0x1 PUSH1 0x2 DUP9 MUL ADD DUP9 SSTORE POP POP POP JUMPDEST POP POP POP POP POP POP JUMP INVALID LOG2 PUSH5 0x6970667358 0x22 SLT KECCAK256 DELEGATECALL MOD COINBASE SGT 0xE3 0xE9 0x1F 0xED OR CODESIZE 0xD2 SWAP2 0xD2 PUSH32 0x3335937CE993D7AD5E47912656DF942C69A964736F6C634300081A0033000000 "
				},
				"gasEstimates": {
					"creation": {
						"codeDepositCost": "399000",
						"executionCost": "434",
						"totalCost": "399434"
					},
					"external": {
						"b()": "2489",
						"captureOutputs()": "infinite",
						"displayOutputs()": "infinite",
						"i()": "2468",
						"namedOutput()": "infinite",
						"returnMultiple()": "infinite",
						"s()": "infinite"
					}
				},
				"methodIdentifiers": {
					"b()": "4df7e3d0",
					"captureOutputs()": "26a89e04",
					"displayOutputs()": "64f13521",
					"i()": "e5aa3d58",
					"namedOutput()": "5e632bd5",
					"returnMultiple()": "e61e4008",
					"s()": "86b714e2"
				}
			},
			"storageLayout": {
				"storage": [
					{
						"astId": 3,
						"contract": "MultipleFuncOutput.sol:MultipleFuncOutput",
						"label": "i",
						"offset": 0,
						"slot": "0",
						"type": "t_int256"
					},
					{
						"astId": 5,
						"contract": "MultipleFuncOutput.sol:MultipleFuncOutput",
						"label": "b",
						"offset": 0,
						"slot": "1",
						"type": "t_bool"
					},
					{
						"astId": 7,
						"contract": "MultipleFuncOutput.sol:MultipleFuncOutput",
						"label": "s",
						"offset": 0,
						"slot": "2",
						"type": "t_string_storage"
					}
				],
				"types": {
					"t_bool": {
						"encoding": "inplace",
						"label": "bool",
						"numberOfBytes": "1"
					},
					"t_int256": {
						"encoding": "inplace",
						"label": "int256",
						"numberOfBytes": "32"
					},
					"t_string_storage": {
						"encoding": "bytes",
						"label": "string",
						"numberOfBytes": "32"
					}
				}
			},
			"userdoc": {
				"kind": "user",
				"methods": {},
				"version": 1
			}
		}
	}
}