{
	"arrayHelper.sol": {
		"arrayHelper": {
			"abi": [
				{
					"inputs": [],
					"stateMutability": "nonpayable",
					"type": "constructor"
				},
				{
					"inputs": [
						{
							"internalType": "uint256",
							"name": "",
							"type": "uint256"
						}
					],
					"name": "StateDynamicArray",
					"outputs": [
						{
							"internalType": "uint256",
							"name": "",
							"type": "uint256"
						}
					],
					"stateMutability": "view",
					"type": "function"
				},
				{
					"inputs": [
						{
							"internalType": "uint256",
							"name": "",
							"type": "uint256"
						}
					],
					"name": "StateFixedArray",
					"outputs": [
						{
							"internalType": "uint256",
							"name": "",
							"type": "uint256"
						}
					],
					"stateMutability": "view",
					"type": "function"
				},
				{
					"inputs": [
						{
							"internalType": "uint256",
							"name": "",
							"type": "uint256"
						}
					],
					"name": "emptyArray",
					"outputs": [
						{
							"internalType": "uint256",
							"name": "",
							"type": "uint256"
						}
					],
					"stateMutability": "view",
					"type": "function"
				},
				{
					"inputs": [],
					"name": "getEmptyArrayLength",
					"outputs": [
						{
							"internalType": "uint256",
							"name": "",
							"type": "uint256"
						}
					],
					"stateMutability": "view",
					"type": "function"
				},
				{
					"inputs": [],
					"name": "lenDyn",
					"outputs": [
						{
							"internalType": "uint256",
							"name": "",
							"type": "uint256"
						}
					],
					"stateMutability": "view",
					"type": "function"
				},
				{
					"inputs": [],
					"name": "lenFix",
					"outputs": [
						{
							"internalType": "uint256",
							"name": "",
							"type": "uint256"
						}
					],
					"stateMutability": "view",
					"type": "function"
				},
				{
					"inputs": [],
					"name": "showarrayDyn",
					"outputs": [
						{
							"internalType": "string",
							"name": "",
							"type": "string"
						}
					],
					"stateMutability": "view",
					"type": "function"
				},
				{
					"inputs": [],
					"name": "showarrayFix",
					"outputs": [
						{
							"internalType": "string",
							"name": "",
							"type": "string"
						}
					],
					"stateMutability": "view",
					"type": "function"
				},
				{
					"inputs": [
						{
							"internalType": "string",
							"name": "_a",
							"type": "string"
						},
						{
							"internalType": "string",
							"name": "_b",
							"type": "string"
						}
					],
					"name": "strConcat",
					"outputs": [
						{
							"internalType": "string",
							"name": "",
							"type": "string"
						}
					],
					"stateMutability": "pure",
					"type": "function"
				},
				{
					"inputs": [],
					"name": "testStateArray",
					"outputs": [
						{
							"internalType": "uint256",
							"name": "",
							"type": "uint256"
						}
					],
					"stateMutability": "nonpayable",
					"type": "function"
				},
				{
					"inputs": [
						{
							"internalType": "uint256",
							"name": "value",
							"type": "uint256"
						}
					],
					"name": "toStr",
					"outputs": [
						{
							"internalType": "string",
							"name": "",
							"type": "string"
						}
					],
					"stateMutability": "pure",
					"type": "function"
				},
				{
					"inputs": [
						{
							"internalType": "uint256",
							"name": "_uint",
							"type": "uint256"
						}
					],
					"name": "uintToString",
					"outputs": [
						{
							"internalType": "string",
							"name": "str",
							"type": "string"
						}
					],
					"stateMutability": "pure",
					"type": "function"
				}
			],
			"devdoc": {
				"kind": "dev",
				"methods": {},
				"version": 1
			},
			"evm": {
				"assembly": "    /* \"arrayHelper.sol\":60:3834  contract arrayHelper {... */\n  mstore(0x40, 0x80)\n    /* \"arrayHelper.sol\":374:631  constructor(){... */\n  callvalue\n  dup1\n  iszero\n  tag_1\n  jumpi\n  0x00\n  dup1\n  revert\ntag_1:\n  pop\n    /* \"arrayHelper.sol\":398:430  StateDynamicArray =[11,22,33,44] */\n  mload(0x40)\n  dup1\n  0x80\n  add\n  0x40\n  mstore\n  dup1\n    /* \"arrayHelper.sol\":418:420  11 */\n  0x0b\n    /* \"arrayHelper.sol\":398:430  StateDynamicArray =[11,22,33,44] */\n  0xff\n  and\n  dup2\n  mstore\n  0x20\n  add\n    /* \"arrayHelper.sol\":421:423  22 */\n  0x16\n    /* \"arrayHelper.sol\":398:430  StateDynamicArray =[11,22,33,44] */\n  0xff\n  and\n  dup2\n  mstore\n  0x20\n  add\n    /* \"arrayHelper.sol\":424:426  33 */\n  0x21\n    /* \"arrayHelper.sol\":398:430  StateDynamicArray =[11,22,33,44] */\n  0xff\n  and\n  dup2\n  mstore\n  0x20\n  add\n    /* \"arrayHelper.sol\":427:429  44 */\n  0x2c\n    /* \"arrayHelper.sol\":398:430  StateDynamicArray =[11,22,33,44] */\n  0xff\n  and\n  dup2\n  mstore\n  pop\n    /* \"arrayHelper.sol\":398:415  StateDynamicArray */\n  0x00\n    /* \"arrayHelper.sol\":398:430  StateDynamicArray =[11,22,33,44] */\n  swap1\n  0x04\n  tag_4\n  swap3\n  swap2\n  swap1\n  tag_5\n  jump\t// in\ntag_4:\n  pop\n    /* \"arrayHelper.sol\":441:472  StateFixedArray = [111,222,333] */\n  mload(0x40)\n  dup1\n  0x60\n  add\n  0x40\n  mstore\n  dup1\n    /* \"arrayHelper.sol\":460:463  111 */\n  0x6f\n    /* \"arrayHelper.sol\":441:472  StateFixedArray = [111,222,333] */\n  0xffff\n  and\n  dup2\n  mstore\n  0x20\n  add\n    /* \"arrayHelper.sol\":464:467  222 */\n  0xde\n    /* \"arrayHelper.sol\":441:472  StateFixedArray = [111,222,333] */\n  0xffff\n  and\n  dup2\n  mstore\n  0x20\n  add\n    /* \"arrayHelper.sol\":468:471  333 */\n  0x014d\n    /* \"arrayHelper.sol\":441:472  StateFixedArray = [111,222,333] */\n  0xffff\n  and\n  dup2\n  mstore\n  pop\n    /* \"arrayHelper.sol\":441:456  StateFixedArray */\n  0x01\n    /* \"arrayHelper.sol\":441:472  StateFixedArray = [111,222,333] */\n  swap1\n  0x03\n  tag_6\n  swap3\n  swap2\n  swap1\n  tag_7\n  jump\t// in\ntag_6:\n  pop\n    /* \"arrayHelper.sol\":492:509  StateDynamicArray */\n  0x00\n    /* \"arrayHelper.sol\":492:516  StateDynamicArray.length */\n  dup1\n  sload\n  swap1\n  pop\n    /* \"arrayHelper.sol\":483:489  lenDyn */\n  0x04\n    /* \"arrayHelper.sol\":483:516  lenDyn = StateDynamicArray.length */\n  dup2\n  swap1\n  sstore\n  pop\n    /* \"arrayHelper.sol\":536:558  StateFixedArray.length */\n  0x03\n    /* \"arrayHelper.sol\":527:533  lenFix */\n  0x05\n    /* \"arrayHelper.sol\":527:558  lenFix = StateFixedArray.length */\n  dup2\n  swap1\n  sstore\n  pop\n    /* \"arrayHelper.sol\":60:3834  contract arrayHelper {... */\n  jump(tag_8)\ntag_5:\n  dup3\n  dup1\n  sload\n  dup3\n  dup3\n  sstore\n  swap1\n  0x00\n  mstore\n  keccak256(0x00, 0x20)\n  swap1\n  dup2\n  add\n  swap3\n  dup3\n  iszero\n  tag_9\n  jumpi\n  swap2\n  0x20\n  mul\n  dup3\n  add\ntag_10:\n  dup3\n  dup2\n  gt\n  iszero\n  tag_11\n  jumpi\n  dup3\n  mload\n  dup3\n  swap1\n  0xff\n  and\n  swap1\n  sstore\n  swap2\n  0x20\n  add\n  swap2\n  swap1\n  0x01\n  add\n  swap1\n  jump(tag_10)\ntag_11:\ntag_9:\n  pop\n  swap1\n  pop\n  tag_12\n  swap2\n  swap1\n  tag_13\n  jump\t// in\ntag_12:\n  pop\n  swap1\n  jump\t// out\ntag_7:\n  dup3\n  0x03\n  dup2\n  add\n  swap3\n  dup3\n  iszero\n  tag_14\n  jumpi\n  swap2\n  0x20\n  mul\n  dup3\n  add\ntag_15:\n  dup3\n  dup2\n  gt\n  iszero\n  tag_16\n  jumpi\n  dup3\n  mload\n  dup3\n  swap1\n  0xffff\n  and\n  swap1\n  sstore\n  swap2\n  0x20\n  add\n  swap2\n  swap1\n  0x01\n  add\n  swap1\n  jump(tag_15)\ntag_16:\ntag_14:\n  pop\n  swap1\n  pop\n  tag_17\n  swap2\n  swap1\n  tag_13\n  jump\t// in\ntag_17:\n  pop\n  swap1\n  jump\t// out\ntag_13:\ntag_18:\n  dup1\n  dup3\n  gt\n  iszero\n  tag_19\n  jumpi\n  0x00\n  dup2\n  0x00\n  swap1\n  sstore\n  pop\n  0x01\n  add\n  jump(tag_18)\ntag_19:\n  pop\n  swap1\n  jump\t// out\ntag_8:\n  dataSize(sub_0)\n  dup1\n  dataOffset(sub_0)\n  0x00\n  codecopy\n  0x00\n  return\nstop\n\nsub_0: assembly {\n        /* \"arrayHelper.sol\":60:3834  contract arrayHelper {... */\n      mstore(0x40, 0x80)\n      callvalue\n      dup1\n      iszero\n      tag_1\n      jumpi\n      0x00\n      dup1\n      revert\n    tag_1:\n      pop\n      jumpi(tag_2, lt(calldatasize, 0x04))\n      shr(0xe0, calldataload(0x00))\n      dup1\n      0xcc84e4b9\n      gt\n      tag_15\n      jumpi\n      dup1\n      0xcc84e4b9\n      eq\n      tag_9\n      jumpi\n      dup1\n      0xd12c412d\n      eq\n      tag_10\n      jumpi\n      dup1\n      0xe9395679\n      eq\n      tag_11\n      jumpi\n      dup1\n      0xf00861f8\n      eq\n      tag_12\n      jumpi\n      dup1\n      0xfc430d5c\n      eq\n      tag_13\n      jumpi\n      dup1\n      0xff74927b\n      eq\n      tag_14\n      jumpi\n      jump(tag_2)\n    tag_15:\n      dup1\n      0x26028a06\n      eq\n      tag_3\n      jumpi\n      dup1\n      0x55f45e26\n      eq\n      tag_4\n      jumpi\n      dup1\n      0x8e9b3e89\n      eq\n      tag_5\n      jumpi\n      dup1\n      0x91d6df7d\n      eq\n      tag_6\n      jumpi\n      dup1\n      0x966fa992\n      eq\n      tag_7\n      jumpi\n      dup1\n      0xa214a93b\n      eq\n      tag_8\n      jumpi\n    tag_2:\n      0x00\n      dup1\n      revert\n        /* \"arrayHelper.sol\":186:204  uint public lenDyn */\n    tag_3:\n      tag_16\n      tag_17\n      jump\t// in\n    tag_16:\n      mload(0x40)\n      tag_18\n      swap2\n      swap1\n      tag_19\n      jump\t// in\n    tag_18:\n      mload(0x40)\n      dup1\n      swap2\n      sub\n      swap1\n      return\n        /* \"arrayHelper.sol\":3428:3831  function showarrayDyn() public view returns(string memory){... */\n    tag_4:\n      tag_20\n      tag_21\n      jump\t// in\n    tag_20:\n      mload(0x40)\n      tag_22\n      swap2\n      swap1\n      tag_23\n      jump\t// in\n    tag_22:\n      mload(0x40)\n      dup1\n      swap2\n      sub\n      swap1\n      return\n        /* \"arrayHelper.sol\":88:119  uint[] public StateDynamicArray */\n    tag_5:\n      tag_24\n      0x04\n      dup1\n      calldatasize\n      sub\n      dup2\n      add\n      swap1\n      tag_25\n      swap2\n      swap1\n      tag_26\n      jump\t// in\n    tag_25:\n      tag_27\n      jump\t// in\n    tag_24:\n      mload(0x40)\n      tag_28\n      swap2\n      swap1\n      tag_19\n      jump\t// in\n    tag_28:\n      mload(0x40)\n      dup1\n      swap2\n      sub\n      swap1\n      return\n        /* \"arrayHelper.sol\":1957:2478  function toStr(uint256 value) public pure returns(string memory) {... */\n    tag_6:\n      tag_29\n      0x04\n      dup1\n      calldatasize\n      sub\n      dup2\n      add\n      swap1\n      tag_30\n      swap2\n      swap1\n      tag_26\n      jump\t// in\n    tag_30:\n      tag_31\n      jump\t// in\n    tag_29:\n      mload(0x40)\n      tag_32\n      swap2\n      swap1\n      tag_23\n      jump\t// in\n    tag_32:\n      mload(0x40)\n      dup1\n      swap2\n      sub\n      swap1\n      return\n        /* \"arrayHelper.sol\":140:170  uint[3] public StateFixedArray */\n    tag_7:\n      tag_33\n      0x04\n      dup1\n      calldatasize\n      sub\n      dup2\n      add\n      swap1\n      tag_34\n      swap2\n      swap1\n      tag_26\n      jump\t// in\n    tag_34:\n      tag_35\n      jump\t// in\n    tag_33:\n      mload(0x40)\n      tag_36\n      swap2\n      swap1\n      tag_19\n      jump\t// in\n    tag_36:\n      mload(0x40)\n      dup1\n      swap2\n      sub\n      swap1\n      return\n        /* \"arrayHelper.sol\":3021:3422  function showarrayFix() public view returns(string memory){... */\n    tag_8:\n      tag_37\n      tag_38\n      jump\t// in\n    tag_37:\n      mload(0x40)\n      tag_39\n      swap2\n      swap1\n      tag_23\n      jump\t// in\n    tag_39:\n      mload(0x40)\n      dup1\n      swap2\n      sub\n      swap1\n      return\n        /* \"arrayHelper.sol\":211:229  uint public lenFix */\n    tag_9:\n      tag_40\n      tag_41\n      jump\t// in\n    tag_40:\n      mload(0x40)\n      tag_42\n      swap2\n      swap1\n      tag_19\n      jump\t// in\n    tag_42:\n      mload(0x40)\n      dup1\n      swap2\n      sub\n      swap1\n      return\n        /* \"arrayHelper.sol\":640:741  function getEmptyArrayLength() external view returns(uint){... */\n    tag_10:\n      tag_43\n      tag_44\n      jump\t// in\n    tag_43:\n      mload(0x40)\n      tag_45\n      swap2\n      swap1\n      tag_19\n      jump\t// in\n    tag_45:\n      mload(0x40)\n      dup1\n      swap2\n      sub\n      swap1\n      return\n        /* \"arrayHelper.sol\":2561:3013  function uintToString(uint _uint) public pure returns (string memory str) {... */\n    tag_11:\n      tag_46\n      0x04\n      dup1\n      calldatasize\n      sub\n      dup2\n      add\n      swap1\n      tag_47\n      swap2\n      swap1\n      tag_26\n      jump\t// in\n    tag_47:\n      tag_48\n      jump\t// in\n    tag_46:\n      mload(0x40)\n      tag_49\n      swap2\n      swap1\n      tag_23\n      jump\t// in\n    tag_49:\n      mload(0x40)\n      dup1\n      swap2\n      sub\n      swap1\n      return\n        /* \"arrayHelper.sol\":749:1300  function testStateArray() public returns(uint){... */\n    tag_12:\n      tag_50\n      tag_51\n      jump\t// in\n    tag_50:\n      mload(0x40)\n      tag_52\n      swap2\n      swap1\n      tag_19\n      jump\t// in\n    tag_52:\n      mload(0x40)\n      dup1\n      swap2\n      sub\n      swap1\n      return\n        /* \"arrayHelper.sol\":236:260  uint[] public emptyArray */\n    tag_13:\n      tag_53\n      0x04\n      dup1\n      calldatasize\n      sub\n      dup2\n      add\n      swap1\n      tag_54\n      swap2\n      swap1\n      tag_26\n      jump\t// in\n    tag_54:\n      tag_55\n      jump\t// in\n    tag_53:\n      mload(0x40)\n      tag_56\n      swap2\n      swap1\n      tag_19\n      jump\t// in\n    tag_56:\n      mload(0x40)\n      dup1\n      swap2\n      sub\n      swap1\n      return\n        /* \"arrayHelper.sol\":1379:1846  function strConcat(string memory _a, string memory _b) public pure returns (string memory){... */\n    tag_14:\n      tag_57\n      0x04\n      dup1\n      calldatasize\n      sub\n      dup2\n      add\n      swap1\n      tag_58\n      swap2\n      swap1\n      tag_59\n      jump\t// in\n    tag_58:\n      tag_60\n      jump\t// in\n    tag_57:\n      mload(0x40)\n      tag_61\n      swap2\n      swap1\n      tag_23\n      jump\t// in\n    tag_61:\n      mload(0x40)\n      dup1\n      swap2\n      sub\n      swap1\n      return\n        /* \"arrayHelper.sol\":186:204  uint public lenDyn */\n    tag_17:\n      sload(0x04)\n      dup2\n      jump\t// out\n        /* \"arrayHelper.sol\":3428:3831  function showarrayDyn() public view returns(string memory){... */\n    tag_21:\n        /* \"arrayHelper.sol\":3472:3485  string memory */\n      0x60\n        /* \"arrayHelper.sol\":3497:3505  uint len */\n      0x00\n        /* \"arrayHelper.sol\":3508:3514  lenDyn */\n      sload(0x04)\n        /* \"arrayHelper.sol\":3497:3514  uint len = lenDyn */\n      swap1\n      pop\n        /* \"arrayHelper.sol\":3525:3545  string memory outStr */\n      0x60\n        /* \"arrayHelper.sol\":3561:3567  uint i */\n      0x00\n        /* \"arrayHelper.sol\":3556:3796  for (uint i = 0; i<len;++i){... */\n    tag_63:\n        /* \"arrayHelper.sol\":3575:3578  len */\n      dup3\n        /* \"arrayHelper.sol\":3573:3574  i */\n      dup2\n        /* \"arrayHelper.sol\":3573:3578  i<len */\n      lt\n        /* \"arrayHelper.sol\":3556:3796  for (uint i = 0; i<len;++i){... */\n      iszero\n      tag_64\n      jumpi\n        /* \"arrayHelper.sol\":3682:3735  strConcat(outStr, uintToString(StateDynamicArray[i])) */\n      tag_66\n        /* \"arrayHelper.sol\":3692:3698  outStr */\n      dup3\n        /* \"arrayHelper.sol\":3700:3734  uintToString(StateDynamicArray[i]) */\n      tag_67\n        /* \"arrayHelper.sol\":3713:3730  StateDynamicArray */\n      0x00\n        /* \"arrayHelper.sol\":3731:3732  i */\n      dup5\n        /* \"arrayHelper.sol\":3713:3733  StateDynamicArray[i] */\n      dup2\n      sload\n      dup2\n      lt\n      tag_68\n      jumpi\n      tag_69\n      tag_70\n      jump\t// in\n    tag_69:\n    tag_68:\n      swap1\n      0x00\n      mstore\n      keccak256(0x00, 0x20)\n      add\n      sload\n        /* \"arrayHelper.sol\":3700:3712  uintToString */\n      tag_48\n        /* \"arrayHelper.sol\":3700:3734  uintToString(StateDynamicArray[i]) */\n      jump\t// in\n    tag_67:\n        /* \"arrayHelper.sol\":3682:3691  strConcat */\n      tag_60\n        /* \"arrayHelper.sol\":3682:3735  strConcat(outStr, uintToString(StateDynamicArray[i])) */\n      jump\t// in\n    tag_66:\n        /* \"arrayHelper.sol\":3673:3735  outStr = strConcat(outStr, uintToString(StateDynamicArray[i])) */\n      swap2\n      pop\n        /* \"arrayHelper.sol\":3759:3782  strConcat(outStr, \"  \") */\n      tag_72\n        /* \"arrayHelper.sol\":3769:3775  outStr */\n      dup3\n        /* \"arrayHelper.sol\":3759:3782  strConcat(outStr, \"  \") */\n      mload(0x40)\n      dup1\n      0x40\n      add\n      0x40\n      mstore\n      dup1\n      0x02\n      dup2\n      mstore\n      0x20\n      add\n      0x2020000000000000000000000000000000000000000000000000000000000000\n      dup2\n      mstore\n      pop\n        /* \"arrayHelper.sol\":3759:3768  strConcat */\n      tag_60\n        /* \"arrayHelper.sol\":3759:3782  strConcat(outStr, \"  \") */\n      jump\t// in\n    tag_72:\n        /* \"arrayHelper.sol\":3750:3782  outStr = strConcat(outStr, \"  \") */\n      swap2\n      pop\n        /* \"arrayHelper.sol\":3579:3582  ++i */\n      dup1\n      0x01\n      add\n      swap1\n      pop\n        /* \"arrayHelper.sol\":3556:3796  for (uint i = 0; i<len;++i){... */\n      jump(tag_63)\n    tag_64:\n      pop\n        /* \"arrayHelper.sol\":3815:3821  outStr */\n      dup1\n        /* \"arrayHelper.sol\":3808:3821  return outStr */\n      swap3\n      pop\n      pop\n      pop\n        /* \"arrayHelper.sol\":3428:3831  function showarrayDyn() public view returns(string memory){... */\n      swap1\n      jump\t// out\n        /* \"arrayHelper.sol\":88:119  uint[] public StateDynamicArray */\n    tag_27:\n      0x00\n      dup2\n      dup2\n      sload\n      dup2\n      lt\n      tag_73\n      jumpi\n      0x00\n      dup1\n      revert\n    tag_73:\n      swap1\n      0x00\n      mstore\n      keccak256(0x00, 0x20)\n      add\n      0x00\n      swap2\n      pop\n      swap1\n      pop\n      sload\n      dup2\n      jump\t// out\n        /* \"arrayHelper.sol\":1957:2478  function toStr(uint256 value) public pure returns(string memory) {... */\n    tag_31:\n        /* \"arrayHelper.sol\":2007:2020  string memory */\n      0x60\n        /* \"arrayHelper.sol\":2033:2054  bytes memory alphabet */\n      0x00\n        /* \"arrayHelper.sol\":2033:2075  bytes memory alphabet = \"0123456789abcdef\" */\n      mload(0x40)\n      dup1\n      0x40\n      add\n      0x40\n      mstore\n      dup1\n      0x10\n      dup2\n      mstore\n      0x20\n      add\n      0x3031323334353637383961626364656600000000000000000000000000000000\n      dup2\n      mstore\n      pop\n      swap1\n      pop\n        /* \"arrayHelper.sol\":2213:2230  bytes memory data */\n      0x00\n        /* \"arrayHelper.sol\":2250:2255  value */\n      dup4\n        /* \"arrayHelper.sol\":2233:2256  abi.encodePacked(value) */\n      add(0x20, mload(0x40))\n      tag_76\n      swap2\n      swap1\n      tag_77\n      jump\t// in\n    tag_76:\n      mload(0x40)\n      0x20\n      dup2\n      dup4\n      sub\n      sub\n      dup2\n      mstore\n      swap1\n      0x40\n      mstore\n        /* \"arrayHelper.sol\":2213:2256  bytes memory data = abi.encodePacked(value) */\n      swap1\n      pop\n        /* \"arrayHelper.sol\":2267:2283  bytes memory str */\n      0x00\n        /* \"arrayHelper.sol\":2296:2297  1 */\n      0x01\n        /* \"arrayHelper.sol\":2286:2298  new bytes(1) */\n      0xffffffffffffffff\n      dup2\n      gt\n      iszero\n      tag_78\n      jumpi\n      tag_79\n      tag_80\n      jump\t// in\n    tag_79:\n    tag_78:\n      mload(0x40)\n      swap1\n      dup1\n      dup3\n      mstore\n      dup1\n      0x1f\n      add\n      not(0x1f)\n      and\n      0x20\n      add\n      dup3\n      add\n      0x40\n      mstore\n      dup1\n      iszero\n      tag_81\n      jumpi\n      dup2\n      0x20\n      add\n      0x01\n      dup3\n      mul\n      dup1\n      calldatasize\n      dup4\n      calldatacopy\n      dup1\n      dup3\n      add\n      swap2\n      pop\n      pop\n      swap1\n      pop\n    tag_81:\n      pop\n        /* \"arrayHelper.sol\":2267:2298  bytes memory str = new bytes(1) */\n      swap1\n      pop\n        /* \"arrayHelper.sol\":2360:2366  uint i */\n      0x00\n        /* \"arrayHelper.sol\":2383:2384  1 */\n      0x01\n        /* \"arrayHelper.sol\":2369:2373  data */\n      dup4\n        /* \"arrayHelper.sol\":2369:2380  data.length */\n      mload\n        /* \"arrayHelper.sol\":2369:2384  data.length - 1 */\n      tag_82\n      swap2\n      swap1\n      tag_83\n      jump\t// in\n    tag_82:\n        /* \"arrayHelper.sol\":2360:2384  uint i = data.length - 1 */\n      swap1\n      pop\n        /* \"arrayHelper.sol\":2404:2412  alphabet */\n      dup4\n        /* \"arrayHelper.sol\":2434:2438  0x0f */\n      0x0f\n        /* \"arrayHelper.sol\":2424:2438  data[i] & 0x0f */\n      0xf8\n      shl\n        /* \"arrayHelper.sol\":2424:2428  data */\n      dup5\n        /* \"arrayHelper.sol\":2429:2430  i */\n      dup4\n        /* \"arrayHelper.sol\":2424:2431  data[i] */\n      dup2\n      mload\n      dup2\n      lt\n      tag_84\n      jumpi\n      tag_85\n      tag_70\n      jump\t// in\n    tag_85:\n    tag_84:\n      0x20\n      add\n      add\n      mload\n      0xf8\n      shr\n      0xf8\n      shl\n        /* \"arrayHelper.sol\":2424:2438  data[i] & 0x0f */\n      and\n        /* \"arrayHelper.sol\":2418:2439  uint8(data[i] & 0x0f) */\n      0xf8\n      shr\n        /* \"arrayHelper.sol\":2413:2440  uint(uint8(data[i] & 0x0f)) */\n      0xff\n      and\n        /* \"arrayHelper.sol\":2404:2441  alphabet[uint(uint8(data[i] & 0x0f))] */\n      dup2\n      mload\n      dup2\n      lt\n      tag_86\n      jumpi\n      tag_87\n      tag_70\n      jump\t// in\n    tag_87:\n    tag_86:\n      0x20\n      add\n      add\n      mload\n      0xf8\n      shr\n      0xf8\n      shl\n        /* \"arrayHelper.sol\":2395:2398  str */\n      dup3\n        /* \"arrayHelper.sol\":2399:2400  0 */\n      0x00\n        /* \"arrayHelper.sol\":2395:2401  str[0] */\n      dup2\n      mload\n      dup2\n      lt\n      tag_88\n      jumpi\n      tag_89\n      tag_70\n      jump\t// in\n    tag_89:\n    tag_88:\n      0x20\n      add\n      add\n        /* \"arrayHelper.sol\":2395:2441  str[0] = alphabet[uint(uint8(data[i] & 0x0f))] */\n      swap1\n      not(0xffffffffffffffffffffffffffffffffffffffffffffffffffffffffffffff)\n      and\n      swap1\n      dup2\n      0x00\n      byte\n      swap1\n      mstore8\n      pop\n        /* \"arrayHelper.sol\":2466:2469  str */\n      dup2\n        /* \"arrayHelper.sol\":2452:2470  return string(str) */\n      swap5\n      pop\n      pop\n      pop\n      pop\n      pop\n        /* \"arrayHelper.sol\":1957:2478  function toStr(uint256 value) public pure returns(string memory) {... */\n      swap2\n      swap1\n      pop\n      jump\t// out\n        /* \"arrayHelper.sol\":140:170  uint[3] public StateFixedArray */\n    tag_35:\n      0x01\n      dup2\n      0x03\n      dup2\n      lt\n      tag_90\n      jumpi\n      0x00\n      dup1\n      revert\n    tag_90:\n      add\n      0x00\n      swap2\n      pop\n      swap1\n      pop\n      sload\n      dup2\n      jump\t// out\n        /* \"arrayHelper.sol\":3021:3422  function showarrayFix() public view returns(string memory){... */\n    tag_38:\n        /* \"arrayHelper.sol\":3065:3078  string memory */\n      0x60\n        /* \"arrayHelper.sol\":3090:3098  uint len */\n      0x00\n        /* \"arrayHelper.sol\":3101:3107  lenFix */\n      sload(0x05)\n        /* \"arrayHelper.sol\":3090:3107  uint len = lenFix */\n      swap1\n      pop\n        /* \"arrayHelper.sol\":3118:3138  string memory outStr */\n      0x60\n        /* \"arrayHelper.sol\":3154:3160  uint i */\n      0x00\n        /* \"arrayHelper.sol\":3149:3387  for (uint i = 0; i<len;++i){... */\n    tag_93:\n        /* \"arrayHelper.sol\":3168:3171  len */\n      dup3\n        /* \"arrayHelper.sol\":3166:3167  i */\n      dup2\n        /* \"arrayHelper.sol\":3166:3171  i<len */\n      lt\n        /* \"arrayHelper.sol\":3149:3387  for (uint i = 0; i<len;++i){... */\n      iszero\n      tag_94\n      jumpi\n        /* \"arrayHelper.sol\":3275:3326  strConcat(outStr, uintToString(StateFixedArray[i])) */\n      tag_96\n        /* \"arrayHelper.sol\":3285:3291  outStr */\n      dup3\n        /* \"arrayHelper.sol\":3293:3325  uintToString(StateFixedArray[i]) */\n      tag_97\n        /* \"arrayHelper.sol\":3306:3321  StateFixedArray */\n      0x01\n        /* \"arrayHelper.sol\":3322:3323  i */\n      dup5\n        /* \"arrayHelper.sol\":3306:3324  StateFixedArray[i] */\n      0x03\n      dup2\n      lt\n      tag_98\n      jumpi\n      tag_99\n      tag_70\n      jump\t// in\n    tag_99:\n    tag_98:\n      add\n      sload\n        /* \"arrayHelper.sol\":3293:3305  uintToString */\n      tag_48\n        /* \"arrayHelper.sol\":3293:3325  uintToString(StateFixedArray[i]) */\n      jump\t// in\n    tag_97:\n        /* \"arrayHelper.sol\":3275:3284  strConcat */\n      tag_60\n        /* \"arrayHelper.sol\":3275:3326  strConcat(outStr, uintToString(StateFixedArray[i])) */\n      jump\t// in\n    tag_96:\n        /* \"arrayHelper.sol\":3266:3326  outStr = strConcat(outStr, uintToString(StateFixedArray[i])) */\n      swap2\n      pop\n        /* \"arrayHelper.sol\":3350:3373  strConcat(outStr, \"  \") */\n      tag_101\n        /* \"arrayHelper.sol\":3360:3366  outStr */\n      dup3\n        /* \"arrayHelper.sol\":3350:3373  strConcat(outStr, \"  \") */\n      mload(0x40)\n      dup1\n      0x40\n      add\n      0x40\n      mstore\n      dup1\n      0x02\n      dup2\n      mstore\n      0x20\n      add\n      0x2020000000000000000000000000000000000000000000000000000000000000\n      dup2\n      mstore\n      pop\n        /* \"arrayHelper.sol\":3350:3359  strConcat */\n      tag_60\n        /* \"arrayHelper.sol\":3350:3373  strConcat(outStr, \"  \") */\n      jump\t// in\n    tag_101:\n        /* \"arrayHelper.sol\":3341:3373  outStr = strConcat(outStr, \"  \") */\n      swap2\n      pop\n        /* \"arrayHelper.sol\":3172:3175  ++i */\n      dup1\n      0x01\n      add\n      swap1\n      pop\n        /* \"arrayHelper.sol\":3149:3387  for (uint i = 0; i<len;++i){... */\n      jump(tag_93)\n    tag_94:\n      pop\n        /* \"arrayHelper.sol\":3406:3412  outStr */\n      dup1\n        /* \"arrayHelper.sol\":3399:3412  return outStr */\n      swap3\n      pop\n      pop\n      pop\n        /* \"arrayHelper.sol\":3021:3422  function showarrayFix() public view returns(string memory){... */\n      swap1\n      jump\t// out\n        /* \"arrayHelper.sol\":211:229  uint public lenFix */\n    tag_41:\n      sload(0x05)\n      dup2\n      jump\t// out\n        /* \"arrayHelper.sol\":640:741  function getEmptyArrayLength() external view returns(uint){... */\n    tag_44:\n        /* \"arrayHelper.sol\":693:697  uint */\n      0x00\n        /* \"arrayHelper.sol\":716:726  emptyArray */\n      0x06\n        /* \"arrayHelper.sol\":716:733  emptyArray.length */\n      dup1\n      sload\n      swap1\n      pop\n        /* \"arrayHelper.sol\":709:733  return emptyArray.length */\n      swap1\n      pop\n        /* \"arrayHelper.sol\":640:741  function getEmptyArrayLength() external view returns(uint){... */\n      swap1\n      jump\t// out\n        /* \"arrayHelper.sol\":2561:3013  function uintToString(uint _uint) public pure returns (string memory str) {... */\n    tag_48:\n        /* \"arrayHelper.sol\":2616:2633  string memory str */\n      0x60\n        /* \"arrayHelper.sol\":2659:2660  0 */\n      0x00\n        /* \"arrayHelper.sol\":2652:2657  _uint */\n      dup3\n        /* \"arrayHelper.sol\":2652:2660  _uint==0 */\n      sub\n        /* \"arrayHelper.sol\":2649:2672  if(_uint==0) return '0' */\n      tag_104\n      jumpi\n        /* \"arrayHelper.sol\":2662:2672  return '0' */\n      mload(0x40)\n      dup1\n      0x40\n      add\n      0x40\n      mstore\n      dup1\n      0x01\n      dup2\n      mstore\n      0x20\n      add\n      0x3000000000000000000000000000000000000000000000000000000000000000\n      dup2\n      mstore\n      pop\n      swap1\n      pop\n      jump(tag_103)\n        /* \"arrayHelper.sol\":2649:2672  if(_uint==0) return '0' */\n    tag_104:\n        /* \"arrayHelper.sol\":2686:3003  while (_uint != 0) {... */\n    tag_105:\n        /* \"arrayHelper.sol\":2702:2703  0 */\n      0x00\n        /* \"arrayHelper.sol\":2693:2698  _uint */\n      dup3\n        /* \"arrayHelper.sol\":2693:2703  _uint != 0 */\n      eq\n        /* \"arrayHelper.sol\":2686:3003  while (_uint != 0) {... */\n      tag_106\n      jumpi\n        /* \"arrayHelper.sol\":2742:2756  uint remainder */\n      0x00\n        /* \"arrayHelper.sol\":2767:2769  10 */\n      0x0a\n        /* \"arrayHelper.sol\":2759:2764  _uint */\n      dup4\n        /* \"arrayHelper.sol\":2759:2769  _uint % 10 */\n      tag_107\n      swap2\n      swap1\n      tag_108\n      jump\t// in\n    tag_107:\n        /* \"arrayHelper.sol\":2742:2769  uint remainder = _uint % 10 */\n      swap1\n      pop\n        /* \"arrayHelper.sol\":2885:2887  10 */\n      0x0a\n        /* \"arrayHelper.sol\":2877:2882  _uint */\n      dup4\n        /* \"arrayHelper.sol\":2877:2887  _uint / 10 */\n      tag_109\n      swap2\n      swap1\n      tag_110\n      jump\t// in\n    tag_109:\n        /* \"arrayHelper.sol\":2869:2887  _uint = _uint / 10 */\n      swap3\n      pop\n        /* \"arrayHelper.sol\":2960:2991  strConcat(toStr(remainder),str) */\n      tag_111\n        /* \"arrayHelper.sol\":2970:2986  toStr(remainder) */\n      tag_112\n        /* \"arrayHelper.sol\":2976:2985  remainder */\n      dup3\n        /* \"arrayHelper.sol\":2970:2975  toStr */\n      tag_31\n        /* \"arrayHelper.sol\":2970:2986  toStr(remainder) */\n      jump\t// in\n    tag_112:\n        /* \"arrayHelper.sol\":2987:2990  str */\n      dup4\n        /* \"arrayHelper.sol\":2960:2969  strConcat */\n      tag_60\n        /* \"arrayHelper.sol\":2960:2991  strConcat(toStr(remainder),str) */\n      jump\t// in\n    tag_111:\n        /* \"arrayHelper.sol\":2954:2991  str = strConcat(toStr(remainder),str) */\n      swap2\n      pop\n        /* \"arrayHelper.sol\":2705:3003  {... */\n      pop\n        /* \"arrayHelper.sol\":2686:3003  while (_uint != 0) {... */\n      jump(tag_105)\n    tag_106:\n        /* \"arrayHelper.sol\":2561:3013  function uintToString(uint _uint) public pure returns (string memory str) {... */\n    tag_103:\n      swap2\n      swap1\n      pop\n      jump\t// out\n        /* \"arrayHelper.sol\":749:1300  function testStateArray() public returns(uint){... */\n    tag_51:\n        /* \"arrayHelper.sol\":790:794  uint */\n      0x00\n        /* \"arrayHelper.sol\":829:831  77 */\n      0x4d\n        /* \"arrayHelper.sol\":806:823  StateDynamicArray */\n      0x00\n        /* \"arrayHelper.sol\":824:825  2 */\n      0x02\n        /* \"arrayHelper.sol\":806:826  StateDynamicArray[2] */\n      dup2\n      sload\n      dup2\n      lt\n      tag_114\n      jumpi\n      tag_115\n      tag_70\n      jump\t// in\n    tag_115:\n    tag_114:\n      swap1\n      0x00\n      mstore\n      keccak256(0x00, 0x20)\n      add\n        /* \"arrayHelper.sol\":806:831  StateDynamicArray[2] = 77 */\n      dup2\n      swap1\n      sstore\n      pop\n        /* \"arrayHelper.sol\":843:860  StateDynamicArray */\n      0x00\n        /* \"arrayHelper.sol\":866:868  88 */\n      0x58\n        /* \"arrayHelper.sol\":843:869  StateDynamicArray.push(88) */\n      swap1\n      dup1\n      0x01\n      dup2\n      sload\n      add\n      dup1\n      dup3\n      sstore\n      dup1\n      swap2\n      pop\n      pop\n      0x01\n      swap1\n      sub\n      swap1\n      0x00\n      mstore\n      keccak256(0x00, 0x20)\n      add\n      0x00\n      swap1\n      swap2\n      swap1\n      swap2\n      swap1\n      swap2\n      pop\n      sstore\n        /* \"arrayHelper.sol\":880:897  StateDynamicArray */\n      0x00\n        /* \"arrayHelper.sol\":903:905  99 */\n      0x63\n        /* \"arrayHelper.sol\":880:906  StateDynamicArray.push(99) */\n      swap1\n      dup1\n      0x01\n      dup2\n      sload\n      add\n      dup1\n      dup3\n      sstore\n      dup1\n      swap2\n      pop\n      pop\n      0x01\n      swap1\n      sub\n      swap1\n      0x00\n      mstore\n      keccak256(0x00, 0x20)\n      add\n      0x00\n      swap1\n      swap2\n      swap1\n      swap2\n      swap1\n      swap2\n      pop\n      sstore\n        /* \"arrayHelper.sol\":917:934  StateDynamicArray */\n      0x00\n        /* \"arrayHelper.sol\":940:941  0 */\n      dup1\n        /* \"arrayHelper.sol\":917:942  StateDynamicArray.push(0) */\n      dup1\n      0x01\n      dup2\n      sload\n      add\n      dup1\n      dup3\n      sstore\n      dup1\n      swap2\n      pop\n      pop\n      0x01\n      swap1\n      sub\n      swap1\n      0x00\n      mstore\n      keccak256(0x00, 0x20)\n      add\n      0x00\n      swap1\n      swap2\n      swap1\n      swap2\n      swap1\n      swap2\n      pop\n      sstore\n        /* \"arrayHelper.sol\":955:972  StateDynamicArray */\n      0x00\n        /* \"arrayHelper.sol\":955:978  StateDynamicArray.pop() */\n      dup1\n      sload\n      dup1\n      tag_120\n      jumpi\n      tag_121\n      tag_122\n      jump\t// in\n    tag_121:\n    tag_120:\n      0x01\n      swap1\n      sub\n      dup2\n      dup2\n      swap1\n      0x00\n      mstore\n      keccak256(0x00, 0x20)\n      add\n      0x00\n      swap1\n      sstore\n      swap1\n      sstore\n        /* \"arrayHelper.sol\":998:1015  StateDynamicArray */\n      0x00\n        /* \"arrayHelper.sol\":1016:1017  0 */\n      dup1\n        /* \"arrayHelper.sol\":998:1018  StateDynamicArray[0] */\n      dup2\n      sload\n      dup2\n      lt\n      tag_124\n      jumpi\n      tag_125\n      tag_70\n      jump\t// in\n    tag_125:\n    tag_124:\n      swap1\n      0x00\n      mstore\n      keccak256(0x00, 0x20)\n      add\n        /* \"arrayHelper.sol\":991:1018  delete StateDynamicArray[0] */\n      0x00\n      swap1\n      sstore\n        /* \"arrayHelper.sol\":1036:1051  StateFixedArray */\n      0x01\n        /* \"arrayHelper.sol\":1052:1053  1 */\n      dup1\n        /* \"arrayHelper.sol\":1036:1054  StateFixedArray[1] */\n      0x03\n      dup2\n      lt\n      tag_127\n      jumpi\n      tag_128\n      tag_70\n      jump\t// in\n    tag_128:\n    tag_127:\n      add\n        /* \"arrayHelper.sol\":1029:1054  delete StateFixedArray[1] */\n      0x00\n      swap1\n      sstore\n        /* \"arrayHelper.sol\":1090:1093  888 */\n      0x0378\n        /* \"arrayHelper.sol\":1067:1084  StateDynamicArray */\n      0x00\n        /* \"arrayHelper.sol\":1085:1086  0 */\n      dup1\n        /* \"arrayHelper.sol\":1067:1087  StateDynamicArray[0] */\n      dup2\n      sload\n      dup2\n      lt\n      tag_130\n      jumpi\n      tag_131\n      tag_70\n      jump\t// in\n    tag_131:\n    tag_130:\n      swap1\n      0x00\n      mstore\n      keccak256(0x00, 0x20)\n      add\n        /* \"arrayHelper.sol\":1067:1093  StateDynamicArray[0] = 888 */\n      dup2\n      swap1\n      sstore\n      pop\n        /* \"arrayHelper.sol\":1125:1129  9999 */\n      0x270f\n        /* \"arrayHelper.sol\":1104:1119  StateFixedArray */\n      0x01\n        /* \"arrayHelper.sol\":1120:1121  1 */\n      dup1\n        /* \"arrayHelper.sol\":1104:1122  StateFixedArray[1] */\n      0x03\n      dup2\n      lt\n      tag_133\n      jumpi\n      tag_134\n      tag_70\n      jump\t// in\n    tag_134:\n    tag_133:\n      add\n        /* \"arrayHelper.sol\":1104:1129  StateFixedArray[1] = 9999 */\n      dup2\n      swap1\n      sstore\n      pop\n        /* \"arrayHelper.sol\":1140:1148  uint len */\n      0x00\n        /* \"arrayHelper.sol\":1151:1168  StateDynamicArray */\n      dup1\n        /* \"arrayHelper.sol\":1151:1175  StateDynamicArray.length */\n      dup1\n      sload\n      swap1\n      pop\n        /* \"arrayHelper.sol\":1140:1175  uint len = StateDynamicArray.length */\n      swap1\n      pop\n        /* \"arrayHelper.sol\":1198:1215  StateDynamicArray */\n      0x00\n        /* \"arrayHelper.sol\":1198:1222  StateDynamicArray.length */\n      dup1\n      sload\n      swap1\n      pop\n        /* \"arrayHelper.sol\":1189:1195  lenDyn */\n      0x04\n        /* \"arrayHelper.sol\":1189:1222  lenDyn = StateDynamicArray.length */\n      dup2\n      swap1\n      sstore\n      pop\n        /* \"arrayHelper.sol\":1242:1264  StateFixedArray.length */\n      0x03\n        /* \"arrayHelper.sol\":1233:1239  lenFix */\n      0x05\n        /* \"arrayHelper.sol\":1233:1264  lenFix = StateFixedArray.length */\n      dup2\n      swap1\n      sstore\n      pop\n        /* \"arrayHelper.sol\":1282:1285  len */\n      dup1\n        /* \"arrayHelper.sol\":1275:1285  return len */\n      swap2\n      pop\n      pop\n        /* \"arrayHelper.sol\":749:1300  function testStateArray() public returns(uint){... */\n      swap1\n      jump\t// out\n        /* \"arrayHelper.sol\":236:260  uint[] public emptyArray */\n    tag_55:\n      0x06\n      dup2\n      dup2\n      sload\n      dup2\n      lt\n      tag_136\n      jumpi\n      0x00\n      dup1\n      revert\n    tag_136:\n      swap1\n      0x00\n      mstore\n      keccak256(0x00, 0x20)\n      add\n      0x00\n      swap2\n      pop\n      swap1\n      pop\n      sload\n      dup2\n      jump\t// out\n        /* \"arrayHelper.sol\":1379:1846  function strConcat(string memory _a, string memory _b) public pure returns (string memory){... */\n    tag_60:\n        /* \"arrayHelper.sol\":1455:1468  string memory */\n      0x60\n        /* \"arrayHelper.sol\":1480:1496  bytes memory _ba */\n      0x00\n        /* \"arrayHelper.sol\":1505:1507  _a */\n      dup4\n        /* \"arrayHelper.sol\":1480:1508  bytes memory _ba = bytes(_a) */\n      swap1\n      pop\n        /* \"arrayHelper.sol\":1519:1535  bytes memory _bb */\n      0x00\n        /* \"arrayHelper.sol\":1544:1546  _b */\n      dup4\n        /* \"arrayHelper.sol\":1519:1547  bytes memory _bb = bytes(_b) */\n      swap1\n      pop\n        /* \"arrayHelper.sol\":1558:1575  string memory ret */\n      0x00\n        /* \"arrayHelper.sol\":1602:1605  _bb */\n      dup2\n        /* \"arrayHelper.sol\":1602:1612  _bb.length */\n      mload\n        /* \"arrayHelper.sol\":1589:1592  _ba */\n      dup4\n        /* \"arrayHelper.sol\":1589:1599  _ba.length */\n      mload\n        /* \"arrayHelper.sol\":1589:1612  _ba.length + _bb.length */\n      tag_139\n      swap2\n      swap1\n      tag_140\n      jump\t// in\n    tag_139:\n        /* \"arrayHelper.sol\":1578:1613  new string(_ba.length + _bb.length) */\n      0xffffffffffffffff\n      dup2\n      gt\n      iszero\n      tag_141\n      jumpi\n      tag_142\n      tag_80\n      jump\t// in\n    tag_142:\n    tag_141:\n      mload(0x40)\n      swap1\n      dup1\n      dup3\n      mstore\n      dup1\n      0x1f\n      add\n      not(0x1f)\n      and\n      0x20\n      add\n      dup3\n      add\n      0x40\n      mstore\n      dup1\n      iszero\n      tag_143\n      jumpi\n      dup2\n      0x20\n      add\n      0x01\n      dup3\n      mul\n      dup1\n      calldatasize\n      dup4\n      calldatacopy\n      dup1\n      dup3\n      add\n      swap2\n      pop\n      pop\n      swap1\n      pop\n    tag_143:\n      pop\n        /* \"arrayHelper.sol\":1558:1613  string memory ret = new string(_ba.length + _bb.length) */\n      swap1\n      pop\n        /* \"arrayHelper.sol\":1624:1641  bytes memory bret */\n      0x00\n        /* \"arrayHelper.sol\":1650:1653  ret */\n      dup2\n        /* \"arrayHelper.sol\":1624:1654  bytes memory bret = bytes(ret) */\n      swap1\n      pop\n        /* \"arrayHelper.sol\":1665:1671  uint k */\n      0x00\n        /* \"arrayHelper.sol\":1691:1697  uint i */\n      dup1\n        /* \"arrayHelper.sol\":1686:1742  for (uint i = 0; i < _ba.length; i++) bret[k++] = _ba[i] */\n    tag_144:\n        /* \"arrayHelper.sol\":1707:1710  _ba */\n      dup6\n        /* \"arrayHelper.sol\":1707:1717  _ba.length */\n      mload\n        /* \"arrayHelper.sol\":1703:1704  i */\n      dup2\n        /* \"arrayHelper.sol\":1703:1717  i < _ba.length */\n      lt\n        /* \"arrayHelper.sol\":1686:1742  for (uint i = 0; i < _ba.length; i++) bret[k++] = _ba[i] */\n      iszero\n      tag_145\n      jumpi\n        /* \"arrayHelper.sol\":1736:1739  _ba */\n      dup6\n        /* \"arrayHelper.sol\":1740:1741  i */\n      dup2\n        /* \"arrayHelper.sol\":1736:1742  _ba[i] */\n      dup2\n      mload\n      dup2\n      lt\n      tag_147\n      jumpi\n      tag_148\n      tag_70\n      jump\t// in\n    tag_148:\n    tag_147:\n      0x20\n      add\n      add\n      mload\n      0xf8\n      shr\n      0xf8\n      shl\n        /* \"arrayHelper.sol\":1724:1728  bret */\n      dup4\n        /* \"arrayHelper.sol\":1729:1732  k++ */\n      dup4\n      dup1\n      tag_149\n      swap1\n      tag_150\n      jump\t// in\n    tag_149:\n      swap5\n      pop\n        /* \"arrayHelper.sol\":1724:1733  bret[k++] */\n      dup2\n      mload\n      dup2\n      lt\n      tag_151\n      jumpi\n      tag_152\n      tag_70\n      jump\t// in\n    tag_152:\n    tag_151:\n      0x20\n      add\n      add\n        /* \"arrayHelper.sol\":1724:1742  bret[k++] = _ba[i] */\n      swap1\n      not(0xffffffffffffffffffffffffffffffffffffffffffffffffffffffffffffff)\n      and\n      swap1\n      dup2\n      0x00\n      byte\n      swap1\n      mstore8\n      pop\n        /* \"arrayHelper.sol\":1719:1722  i++ */\n      dup1\n      dup1\n      0x01\n      add\n      swap2\n      pop\n      pop\n        /* \"arrayHelper.sol\":1686:1742  for (uint i = 0; i < _ba.length; i++) bret[k++] = _ba[i] */\n      jump(tag_144)\n    tag_145:\n      pop\n        /* \"arrayHelper.sol\":1758:1764  uint i */\n      0x00\n        /* \"arrayHelper.sol\":1753:1809  for (uint i = 0; i < _bb.length; i++) bret[k++] = _bb[i] */\n    tag_153:\n        /* \"arrayHelper.sol\":1774:1777  _bb */\n      dup5\n        /* \"arrayHelper.sol\":1774:1784  _bb.length */\n      mload\n        /* \"arrayHelper.sol\":1770:1771  i */\n      dup2\n        /* \"arrayHelper.sol\":1770:1784  i < _bb.length */\n      lt\n        /* \"arrayHelper.sol\":1753:1809  for (uint i = 0; i < _bb.length; i++) bret[k++] = _bb[i] */\n      iszero\n      tag_154\n      jumpi\n        /* \"arrayHelper.sol\":1803:1806  _bb */\n      dup5\n        /* \"arrayHelper.sol\":1807:1808  i */\n      dup2\n        /* \"arrayHelper.sol\":1803:1809  _bb[i] */\n      dup2\n      mload\n      dup2\n      lt\n      tag_156\n      jumpi\n      tag_157\n      tag_70\n      jump\t// in\n    tag_157:\n    tag_156:\n      0x20\n      add\n      add\n      mload\n      0xf8\n      shr\n      0xf8\n      shl\n        /* \"arrayHelper.sol\":1791:1795  bret */\n      dup4\n        /* \"arrayHelper.sol\":1796:1799  k++ */\n      dup4\n      dup1\n      tag_158\n      swap1\n      tag_150\n      jump\t// in\n    tag_158:\n      swap5\n      pop\n        /* \"arrayHelper.sol\":1791:1800  bret[k++] */\n      dup2\n      mload\n      dup2\n      lt\n      tag_159\n      jumpi\n      tag_160\n      tag_70\n      jump\t// in\n    tag_160:\n    tag_159:\n      0x20\n      add\n      add\n        /* \"arrayHelper.sol\":1791:1809  bret[k++] = _bb[i] */\n      swap1\n      not(0xffffffffffffffffffffffffffffffffffffffffffffffffffffffffffffff)\n      and\n      swap1\n      dup2\n      0x00\n      byte\n      swap1\n      mstore8\n      pop\n        /* \"arrayHelper.sol\":1786:1789  i++ */\n      dup1\n      dup1\n      0x01\n      add\n      swap2\n      pop\n      pop\n        /* \"arrayHelper.sol\":1753:1809  for (uint i = 0; i < _bb.length; i++) bret[k++] = _bb[i] */\n      jump(tag_153)\n    tag_154:\n      pop\n        /* \"arrayHelper.sol\":1834:1837  ret */\n      dup3\n        /* \"arrayHelper.sol\":1820:1838  return string(ret) */\n      swap6\n      pop\n      pop\n      pop\n      pop\n      pop\n      pop\n        /* \"arrayHelper.sol\":1379:1846  function strConcat(string memory _a, string memory _b) public pure returns (string memory){... */\n      swap3\n      swap2\n      pop\n      pop\n      jump\t// out\n        /* \"#utility.yul\":7:84   */\n    tag_161:\n        /* \"#utility.yul\":44:51   */\n      0x00\n        /* \"#utility.yul\":73:78   */\n      dup2\n        /* \"#utility.yul\":62:78   */\n      swap1\n      pop\n        /* \"#utility.yul\":7:84   */\n      swap2\n      swap1\n      pop\n      jump\t// out\n        /* \"#utility.yul\":90:208   */\n    tag_162:\n        /* \"#utility.yul\":177:201   */\n      tag_188\n        /* \"#utility.yul\":195:200   */\n      dup2\n        /* \"#utility.yul\":177:201   */\n      tag_161\n      jump\t// in\n    tag_188:\n        /* \"#utility.yul\":172:175   */\n      dup3\n        /* \"#utility.yul\":165:202   */\n      mstore\n        /* \"#utility.yul\":90:208   */\n      pop\n      pop\n      jump\t// out\n        /* \"#utility.yul\":214:436   */\n    tag_19:\n        /* \"#utility.yul\":307:311   */\n      0x00\n        /* \"#utility.yul\":345:347   */\n      0x20\n        /* \"#utility.yul\":334:343   */\n      dup3\n        /* \"#utility.yul\":330:348   */\n      add\n        /* \"#utility.yul\":322:348   */\n      swap1\n      pop\n        /* \"#utility.yul\":358:429   */\n      tag_190\n        /* \"#utility.yul\":426:427   */\n      0x00\n        /* \"#utility.yul\":415:424   */\n      dup4\n        /* \"#utility.yul\":411:428   */\n      add\n        /* \"#utility.yul\":402:408   */\n      dup5\n        /* \"#utility.yul\":358:429   */\n      tag_162\n      jump\t// in\n    tag_190:\n        /* \"#utility.yul\":214:436   */\n      swap3\n      swap2\n      pop\n      pop\n      jump\t// out\n        /* \"#utility.yul\":442:541   */\n    tag_163:\n        /* \"#utility.yul\":494:500   */\n      0x00\n        /* \"#utility.yul\":528:533   */\n      dup2\n        /* \"#utility.yul\":522:534   */\n      mload\n        /* \"#utility.yul\":512:534   */\n      swap1\n      pop\n        /* \"#utility.yul\":442:541   */\n      swap2\n      swap1\n      pop\n      jump\t// out\n        /* \"#utility.yul\":547:716   */\n    tag_164:\n        /* \"#utility.yul\":631:642   */\n      0x00\n        /* \"#utility.yul\":665:671   */\n      dup3\n        /* \"#utility.yul\":660:663   */\n      dup3\n        /* \"#utility.yul\":653:672   */\n      mstore\n        /* \"#utility.yul\":705:709   */\n      0x20\n        /* \"#utility.yul\":700:703   */\n      dup3\n        /* \"#utility.yul\":696:710   */\n      add\n        /* \"#utility.yul\":681:710   */\n      swap1\n      pop\n        /* \"#utility.yul\":547:716   */\n      swap3\n      swap2\n      pop\n      pop\n      jump\t// out\n        /* \"#utility.yul\":722:861   */\n    tag_165:\n        /* \"#utility.yul\":811:817   */\n      dup3\n        /* \"#utility.yul\":806:809   */\n      dup2\n        /* \"#utility.yul\":801:804   */\n      dup4\n        /* \"#utility.yul\":795:818   */\n      mcopy\n        /* \"#utility.yul\":852:853   */\n      0x00\n        /* \"#utility.yul\":843:849   */\n      dup4\n        /* \"#utility.yul\":838:841   */\n      dup4\n        /* \"#utility.yul\":834:850   */\n      add\n        /* \"#utility.yul\":827:854   */\n      mstore\n        /* \"#utility.yul\":722:861   */\n      pop\n      pop\n      pop\n      jump\t// out\n        /* \"#utility.yul\":867:969   */\n    tag_166:\n        /* \"#utility.yul\":908:914   */\n      0x00\n        /* \"#utility.yul\":959:961   */\n      0x1f\n        /* \"#utility.yul\":955:962   */\n      not\n        /* \"#utility.yul\":950:952   */\n      0x1f\n        /* \"#utility.yul\":943:948   */\n      dup4\n        /* \"#utility.yul\":939:953   */\n      add\n        /* \"#utility.yul\":935:963   */\n      and\n        /* \"#utility.yul\":925:963   */\n      swap1\n      pop\n        /* \"#utility.yul\":867:969   */\n      swap2\n      swap1\n      pop\n      jump\t// out\n        /* \"#utility.yul\":975:1352   */\n    tag_167:\n        /* \"#utility.yul\":1063:1066   */\n      0x00\n        /* \"#utility.yul\":1091:1130   */\n      tag_196\n        /* \"#utility.yul\":1124:1129   */\n      dup3\n        /* \"#utility.yul\":1091:1130   */\n      tag_163\n      jump\t// in\n    tag_196:\n        /* \"#utility.yul\":1146:1217   */\n      tag_197\n        /* \"#utility.yul\":1210:1216   */\n      dup2\n        /* \"#utility.yul\":1205:1208   */\n      dup6\n        /* \"#utility.yul\":1146:1217   */\n      tag_164\n      jump\t// in\n    tag_197:\n        /* \"#utility.yul\":1139:1217   */\n      swap4\n      pop\n        /* \"#utility.yul\":1226:1291   */\n      tag_198\n        /* \"#utility.yul\":1284:1290   */\n      dup2\n        /* \"#utility.yul\":1279:1282   */\n      dup6\n        /* \"#utility.yul\":1272:1276   */\n      0x20\n        /* \"#utility.yul\":1265:1270   */\n      dup7\n        /* \"#utility.yul\":1261:1277   */\n      add\n        /* \"#utility.yul\":1226:1291   */\n      tag_165\n      jump\t// in\n    tag_198:\n        /* \"#utility.yul\":1316:1345   */\n      tag_199\n        /* \"#utility.yul\":1338:1344   */\n      dup2\n        /* \"#utility.yul\":1316:1345   */\n      tag_166\n      jump\t// in\n    tag_199:\n        /* \"#utility.yul\":1311:1314   */\n      dup5\n        /* \"#utility.yul\":1307:1346   */\n      add\n        /* \"#utility.yul\":1300:1346   */\n      swap2\n      pop\n        /* \"#utility.yul\":1067:1352   */\n      pop\n        /* \"#utility.yul\":975:1352   */\n      swap3\n      swap2\n      pop\n      pop\n      jump\t// out\n        /* \"#utility.yul\":1358:1671   */\n    tag_23:\n        /* \"#utility.yul\":1471:1475   */\n      0x00\n        /* \"#utility.yul\":1509:1511   */\n      0x20\n        /* \"#utility.yul\":1498:1507   */\n      dup3\n        /* \"#utility.yul\":1494:1512   */\n      add\n        /* \"#utility.yul\":1486:1512   */\n      swap1\n      pop\n        /* \"#utility.yul\":1558:1567   */\n      dup2\n        /* \"#utility.yul\":1552:1556   */\n      dup2\n        /* \"#utility.yul\":1548:1568   */\n      sub\n        /* \"#utility.yul\":1544:1545   */\n      0x00\n        /* \"#utility.yul\":1533:1542   */\n      dup4\n        /* \"#utility.yul\":1529:1546   */\n      add\n        /* \"#utility.yul\":1522:1569   */\n      mstore\n        /* \"#utility.yul\":1586:1664   */\n      tag_201\n        /* \"#utility.yul\":1659:1663   */\n      dup2\n        /* \"#utility.yul\":1650:1656   */\n      dup5\n        /* \"#utility.yul\":1586:1664   */\n      tag_167\n      jump\t// in\n    tag_201:\n        /* \"#utility.yul\":1578:1664   */\n      swap1\n      pop\n        /* \"#utility.yul\":1358:1671   */\n      swap3\n      swap2\n      pop\n      pop\n      jump\t// out\n        /* \"#utility.yul\":1677:1752   */\n    tag_168:\n        /* \"#utility.yul\":1710:1716   */\n      0x00\n        /* \"#utility.yul\":1743:1745   */\n      0x40\n        /* \"#utility.yul\":1737:1746   */\n      mload\n        /* \"#utility.yul\":1727:1746   */\n      swap1\n      pop\n        /* \"#utility.yul\":1677:1752   */\n      swap1\n      jump\t// out\n        /* \"#utility.yul\":1758:1875   */\n    tag_169:\n        /* \"#utility.yul\":1867:1868   */\n      0x00\n        /* \"#utility.yul\":1864:1865   */\n      dup1\n        /* \"#utility.yul\":1857:1869   */\n      revert\n        /* \"#utility.yul\":1881:1998   */\n    tag_170:\n        /* \"#utility.yul\":1990:1991   */\n      0x00\n        /* \"#utility.yul\":1987:1988   */\n      dup1\n        /* \"#utility.yul\":1980:1992   */\n      revert\n        /* \"#utility.yul\":2004:2126   */\n    tag_171:\n        /* \"#utility.yul\":2077:2101   */\n      tag_206\n        /* \"#utility.yul\":2095:2100   */\n      dup2\n        /* \"#utility.yul\":2077:2101   */\n      tag_161\n      jump\t// in\n    tag_206:\n        /* \"#utility.yul\":2070:2075   */\n      dup2\n        /* \"#utility.yul\":2067:2102   */\n      eq\n        /* \"#utility.yul\":2057:2120   */\n      tag_207\n      jumpi\n        /* \"#utility.yul\":2116:2117   */\n      0x00\n        /* \"#utility.yul\":2113:2114   */\n      dup1\n        /* \"#utility.yul\":2106:2118   */\n      revert\n        /* \"#utility.yul\":2057:2120   */\n    tag_207:\n        /* \"#utility.yul\":2004:2126   */\n      pop\n      jump\t// out\n        /* \"#utility.yul\":2132:2271   */\n    tag_172:\n        /* \"#utility.yul\":2178:2183   */\n      0x00\n        /* \"#utility.yul\":2216:2222   */\n      dup2\n        /* \"#utility.yul\":2203:2223   */\n      calldataload\n        /* \"#utility.yul\":2194:2223   */\n      swap1\n      pop\n        /* \"#utility.yul\":2232:2265   */\n      tag_209\n        /* \"#utility.yul\":2259:2264   */\n      dup2\n        /* \"#utility.yul\":2232:2265   */\n      tag_171\n      jump\t// in\n    tag_209:\n        /* \"#utility.yul\":2132:2271   */\n      swap3\n      swap2\n      pop\n      pop\n      jump\t// out\n        /* \"#utility.yul\":2277:2606   */\n    tag_26:\n        /* \"#utility.yul\":2336:2342   */\n      0x00\n        /* \"#utility.yul\":2385:2387   */\n      0x20\n        /* \"#utility.yul\":2373:2382   */\n      dup3\n        /* \"#utility.yul\":2364:2371   */\n      dup5\n        /* \"#utility.yul\":2360:2383   */\n      sub\n        /* \"#utility.yul\":2356:2388   */\n      slt\n        /* \"#utility.yul\":2353:2472   */\n      iszero\n      tag_211\n      jumpi\n        /* \"#utility.yul\":2391:2470   */\n      tag_212\n      tag_169\n      jump\t// in\n    tag_212:\n        /* \"#utility.yul\":2353:2472   */\n    tag_211:\n        /* \"#utility.yul\":2511:2512   */\n      0x00\n        /* \"#utility.yul\":2536:2589   */\n      tag_213\n        /* \"#utility.yul\":2581:2588   */\n      dup5\n        /* \"#utility.yul\":2572:2578   */\n      dup3\n        /* \"#utility.yul\":2561:2570   */\n      dup6\n        /* \"#utility.yul\":2557:2579   */\n      add\n        /* \"#utility.yul\":2536:2589   */\n      tag_172\n      jump\t// in\n    tag_213:\n        /* \"#utility.yul\":2526:2589   */\n      swap2\n      pop\n        /* \"#utility.yul\":2482:2599   */\n      pop\n        /* \"#utility.yul\":2277:2606   */\n      swap3\n      swap2\n      pop\n      pop\n      jump\t// out\n        /* \"#utility.yul\":2612:2729   */\n    tag_173:\n        /* \"#utility.yul\":2721:2722   */\n      0x00\n        /* \"#utility.yul\":2718:2719   */\n      dup1\n        /* \"#utility.yul\":2711:2723   */\n      revert\n        /* \"#utility.yul\":2735:2852   */\n    tag_174:\n        /* \"#utility.yul\":2844:2845   */\n      0x00\n        /* \"#utility.yul\":2841:2842   */\n      dup1\n        /* \"#utility.yul\":2834:2846   */\n      revert\n        /* \"#utility.yul\":2858:3038   */\n    tag_80:\n        /* \"#utility.yul\":2906:2983   */\n      0x4e487b7100000000000000000000000000000000000000000000000000000000\n        /* \"#utility.yul\":2903:2904   */\n      0x00\n        /* \"#utility.yul\":2896:2984   */\n      mstore\n        /* \"#utility.yul\":3003:3007   */\n      0x41\n        /* \"#utility.yul\":3000:3001   */\n      0x04\n        /* \"#utility.yul\":2993:3008   */\n      mstore\n        /* \"#utility.yul\":3027:3031   */\n      0x24\n        /* \"#utility.yul\":3024:3025   */\n      0x00\n        /* \"#utility.yul\":3017:3032   */\n      revert\n        /* \"#utility.yul\":3044:3325   */\n    tag_175:\n        /* \"#utility.yul\":3127:3154   */\n      tag_218\n        /* \"#utility.yul\":3149:3153   */\n      dup3\n        /* \"#utility.yul\":3127:3154   */\n      tag_166\n      jump\t// in\n    tag_218:\n        /* \"#utility.yul\":3119:3125   */\n      dup2\n        /* \"#utility.yul\":3115:3155   */\n      add\n        /* \"#utility.yul\":3257:3263   */\n      dup2\n        /* \"#utility.yul\":3245:3255   */\n      dup2\n        /* \"#utility.yul\":3242:3264   */\n      lt\n        /* \"#utility.yul\":3221:3239   */\n      0xffffffffffffffff\n        /* \"#utility.yul\":3209:3219   */\n      dup3\n        /* \"#utility.yul\":3206:3240   */\n      gt\n        /* \"#utility.yul\":3203:3265   */\n      or\n        /* \"#utility.yul\":3200:3288   */\n      iszero\n      tag_219\n      jumpi\n        /* \"#utility.yul\":3268:3286   */\n      tag_220\n      tag_80\n      jump\t// in\n    tag_220:\n        /* \"#utility.yul\":3200:3288   */\n    tag_219:\n        /* \"#utility.yul\":3308:3318   */\n      dup1\n        /* \"#utility.yul\":3304:3306   */\n      0x40\n        /* \"#utility.yul\":3297:3319   */\n      mstore\n        /* \"#utility.yul\":3087:3325   */\n      pop\n        /* \"#utility.yul\":3044:3325   */\n      pop\n      pop\n      jump\t// out\n        /* \"#utility.yul\":3331:3460   */\n    tag_176:\n        /* \"#utility.yul\":3365:3371   */\n      0x00\n        /* \"#utility.yul\":3392:3412   */\n      tag_222\n      tag_168\n      jump\t// in\n    tag_222:\n        /* \"#utility.yul\":3382:3412   */\n      swap1\n      pop\n        /* \"#utility.yul\":3421:3454   */\n      tag_223\n        /* \"#utility.yul\":3449:3453   */\n      dup3\n        /* \"#utility.yul\":3441:3447   */\n      dup3\n        /* \"#utility.yul\":3421:3454   */\n      tag_175\n      jump\t// in\n    tag_223:\n        /* \"#utility.yul\":3331:3460   */\n      swap2\n      swap1\n      pop\n      jump\t// out\n        /* \"#utility.yul\":3466:3774   */\n    tag_177:\n        /* \"#utility.yul\":3528:3532   */\n      0x00\n        /* \"#utility.yul\":3618:3636   */\n      0xffffffffffffffff\n        /* \"#utility.yul\":3610:3616   */\n      dup3\n        /* \"#utility.yul\":3607:3637   */\n      gt\n        /* \"#utility.yul\":3604:3660   */\n      iszero\n      tag_225\n      jumpi\n        /* \"#utility.yul\":3640:3658   */\n      tag_226\n      tag_80\n      jump\t// in\n    tag_226:\n        /* \"#utility.yul\":3604:3660   */\n    tag_225:\n        /* \"#utility.yul\":3678:3707   */\n      tag_227\n        /* \"#utility.yul\":3700:3706   */\n      dup3\n        /* \"#utility.yul\":3678:3707   */\n      tag_166\n      jump\t// in\n    tag_227:\n        /* \"#utility.yul\":3670:3707   */\n      swap1\n      pop\n        /* \"#utility.yul\":3762:3766   */\n      0x20\n        /* \"#utility.yul\":3756:3760   */\n      dup2\n        /* \"#utility.yul\":3752:3767   */\n      add\n        /* \"#utility.yul\":3744:3767   */\n      swap1\n      pop\n        /* \"#utility.yul\":3466:3774   */\n      swap2\n      swap1\n      pop\n      jump\t// out\n        /* \"#utility.yul\":3780:3928   */\n    tag_178:\n        /* \"#utility.yul\":3878:3884   */\n      dup3\n        /* \"#utility.yul\":3873:3876   */\n      dup2\n        /* \"#utility.yul\":3868:3871   */\n      dup4\n        /* \"#utility.yul\":3855:3885   */\n      calldatacopy\n        /* \"#utility.yul\":3919:3920   */\n      0x00\n        /* \"#utility.yul\":3910:3916   */\n      dup4\n        /* \"#utility.yul\":3905:3908   */\n      dup4\n        /* \"#utility.yul\":3901:3917   */\n      add\n        /* \"#utility.yul\":3894:3921   */\n      mstore\n        /* \"#utility.yul\":3780:3928   */\n      pop\n      pop\n      pop\n      jump\t// out\n        /* \"#utility.yul\":3934:4359   */\n    tag_179:\n        /* \"#utility.yul\":4012:4017   */\n      0x00\n        /* \"#utility.yul\":4037:4103   */\n      tag_230\n        /* \"#utility.yul\":4053:4102   */\n      tag_231\n        /* \"#utility.yul\":4095:4101   */\n      dup5\n        /* \"#utility.yul\":4053:4102   */\n      tag_177\n      jump\t// in\n    tag_231:\n        /* \"#utility.yul\":4037:4103   */\n      tag_176\n      jump\t// in\n    tag_230:\n        /* \"#utility.yul\":4028:4103   */\n      swap1\n      pop\n        /* \"#utility.yul\":4126:4132   */\n      dup3\n        /* \"#utility.yul\":4119:4124   */\n      dup2\n        /* \"#utility.yul\":4112:4133   */\n      mstore\n        /* \"#utility.yul\":4164:4168   */\n      0x20\n        /* \"#utility.yul\":4157:4162   */\n      dup2\n        /* \"#utility.yul\":4153:4169   */\n      add\n        /* \"#utility.yul\":4202:4205   */\n      dup5\n        /* \"#utility.yul\":4193:4199   */\n      dup5\n        /* \"#utility.yul\":4188:4191   */\n      dup5\n        /* \"#utility.yul\":4184:4200   */\n      add\n        /* \"#utility.yul\":4181:4206   */\n      gt\n        /* \"#utility.yul\":4178:4290   */\n      iszero\n      tag_232\n      jumpi\n        /* \"#utility.yul\":4209:4288   */\n      tag_233\n      tag_174\n      jump\t// in\n    tag_233:\n        /* \"#utility.yul\":4178:4290   */\n    tag_232:\n        /* \"#utility.yul\":4299:4353   */\n      tag_234\n        /* \"#utility.yul\":4346:4352   */\n      dup5\n        /* \"#utility.yul\":4341:4344   */\n      dup3\n        /* \"#utility.yul\":4336:4339   */\n      dup6\n        /* \"#utility.yul\":4299:4353   */\n      tag_178\n      jump\t// in\n    tag_234:\n        /* \"#utility.yul\":4018:4359   */\n      pop\n        /* \"#utility.yul\":3934:4359   */\n      swap4\n      swap3\n      pop\n      pop\n      pop\n      jump\t// out\n        /* \"#utility.yul\":4379:4719   */\n    tag_180:\n        /* \"#utility.yul\":4435:4440   */\n      0x00\n        /* \"#utility.yul\":4484:4487   */\n      dup3\n        /* \"#utility.yul\":4477:4481   */\n      0x1f\n        /* \"#utility.yul\":4469:4475   */\n      dup4\n        /* \"#utility.yul\":4465:4482   */\n      add\n        /* \"#utility.yul\":4461:4488   */\n      slt\n        /* \"#utility.yul\":4451:4573   */\n      tag_236\n      jumpi\n        /* \"#utility.yul\":4492:4571   */\n      tag_237\n      tag_173\n      jump\t// in\n    tag_237:\n        /* \"#utility.yul\":4451:4573   */\n    tag_236:\n        /* \"#utility.yul\":4609:4615   */\n      dup2\n        /* \"#utility.yul\":4596:4616   */\n      calldataload\n        /* \"#utility.yul\":4634:4713   */\n      tag_238\n        /* \"#utility.yul\":4709:4712   */\n      dup5\n        /* \"#utility.yul\":4701:4707   */\n      dup3\n        /* \"#utility.yul\":4694:4698   */\n      0x20\n        /* \"#utility.yul\":4686:4692   */\n      dup7\n        /* \"#utility.yul\":4682:4699   */\n      add\n        /* \"#utility.yul\":4634:4713   */\n      tag_179\n      jump\t// in\n    tag_238:\n        /* \"#utility.yul\":4625:4713   */\n      swap2\n      pop\n        /* \"#utility.yul\":4441:4719   */\n      pop\n        /* \"#utility.yul\":4379:4719   */\n      swap3\n      swap2\n      pop\n      pop\n      jump\t// out\n        /* \"#utility.yul\":4725:5559   */\n    tag_59:\n        /* \"#utility.yul\":4813:4819   */\n      0x00\n        /* \"#utility.yul\":4821:4827   */\n      dup1\n        /* \"#utility.yul\":4870:4872   */\n      0x40\n        /* \"#utility.yul\":4858:4867   */\n      dup4\n        /* \"#utility.yul\":4849:4856   */\n      dup6\n        /* \"#utility.yul\":4845:4868   */\n      sub\n        /* \"#utility.yul\":4841:4873   */\n      slt\n        /* \"#utility.yul\":4838:4957   */\n      iszero\n      tag_240\n      jumpi\n        /* \"#utility.yul\":4876:4955   */\n      tag_241\n      tag_169\n      jump\t// in\n    tag_241:\n        /* \"#utility.yul\":4838:4957   */\n    tag_240:\n        /* \"#utility.yul\":5024:5025   */\n      0x00\n        /* \"#utility.yul\":5013:5022   */\n      dup4\n        /* \"#utility.yul\":5009:5026   */\n      add\n        /* \"#utility.yul\":4996:5027   */\n      calldataload\n        /* \"#utility.yul\":5054:5072   */\n      0xffffffffffffffff\n        /* \"#utility.yul\":5046:5052   */\n      dup2\n        /* \"#utility.yul\":5043:5073   */\n      gt\n        /* \"#utility.yul\":5040:5157   */\n      iszero\n      tag_242\n      jumpi\n        /* \"#utility.yul\":5076:5155   */\n      tag_243\n      tag_170\n      jump\t// in\n    tag_243:\n        /* \"#utility.yul\":5040:5157   */\n    tag_242:\n        /* \"#utility.yul\":5181:5244   */\n      tag_244\n        /* \"#utility.yul\":5236:5243   */\n      dup6\n        /* \"#utility.yul\":5227:5233   */\n      dup3\n        /* \"#utility.yul\":5216:5225   */\n      dup7\n        /* \"#utility.yul\":5212:5234   */\n      add\n        /* \"#utility.yul\":5181:5244   */\n      tag_180\n      jump\t// in\n    tag_244:\n        /* \"#utility.yul\":5171:5244   */\n      swap3\n      pop\n        /* \"#utility.yul\":4967:5254   */\n      pop\n        /* \"#utility.yul\":5321:5323   */\n      0x20\n        /* \"#utility.yul\":5310:5319   */\n      dup4\n        /* \"#utility.yul\":5306:5324   */\n      add\n        /* \"#utility.yul\":5293:5325   */\n      calldataload\n        /* \"#utility.yul\":5352:5370   */\n      0xffffffffffffffff\n        /* \"#utility.yul\":5344:5350   */\n      dup2\n        /* \"#utility.yul\":5341:5371   */\n      gt\n        /* \"#utility.yul\":5338:5455   */\n      iszero\n      tag_245\n      jumpi\n        /* \"#utility.yul\":5374:5453   */\n      tag_246\n      tag_170\n      jump\t// in\n    tag_246:\n        /* \"#utility.yul\":5338:5455   */\n    tag_245:\n        /* \"#utility.yul\":5479:5542   */\n      tag_247\n        /* \"#utility.yul\":5534:5541   */\n      dup6\n        /* \"#utility.yul\":5525:5531   */\n      dup3\n        /* \"#utility.yul\":5514:5523   */\n      dup7\n        /* \"#utility.yul\":5510:5532   */\n      add\n        /* \"#utility.yul\":5479:5542   */\n      tag_180\n      jump\t// in\n    tag_247:\n        /* \"#utility.yul\":5469:5542   */\n      swap2\n      pop\n        /* \"#utility.yul\":5264:5552   */\n      pop\n        /* \"#utility.yul\":4725:5559   */\n      swap3\n      pop\n      swap3\n      swap1\n      pop\n      jump\t// out\n        /* \"#utility.yul\":5565:5745   */\n    tag_70:\n        /* \"#utility.yul\":5613:5690   */\n      0x4e487b7100000000000000000000000000000000000000000000000000000000\n        /* \"#utility.yul\":5610:5611   */\n      0x00\n        /* \"#utility.yul\":5603:5691   */\n      mstore\n        /* \"#utility.yul\":5710:5714   */\n      0x32\n        /* \"#utility.yul\":5707:5708   */\n      0x04\n        /* \"#utility.yul\":5700:5715   */\n      mstore\n        /* \"#utility.yul\":5734:5738   */\n      0x24\n        /* \"#utility.yul\":5731:5732   */\n      0x00\n        /* \"#utility.yul\":5724:5739   */\n      revert\n        /* \"#utility.yul\":5751:5830   */\n    tag_181:\n        /* \"#utility.yul\":5790:5797   */\n      0x00\n        /* \"#utility.yul\":5819:5824   */\n      dup2\n        /* \"#utility.yul\":5808:5824   */\n      swap1\n      pop\n        /* \"#utility.yul\":5751:5830   */\n      swap2\n      swap1\n      pop\n      jump\t// out\n        /* \"#utility.yul\":5836:5993   */\n    tag_182:\n        /* \"#utility.yul\":5941:5986   */\n      tag_251\n        /* \"#utility.yul\":5961:5985   */\n      tag_252\n        /* \"#utility.yul\":5979:5984   */\n      dup3\n        /* \"#utility.yul\":5961:5985   */\n      tag_161\n      jump\t// in\n    tag_252:\n        /* \"#utility.yul\":5941:5986   */\n      tag_181\n      jump\t// in\n    tag_251:\n        /* \"#utility.yul\":5936:5939   */\n      dup3\n        /* \"#utility.yul\":5929:5987   */\n      mstore\n        /* \"#utility.yul\":5836:5993   */\n      pop\n      pop\n      jump\t// out\n        /* \"#utility.yul\":5999:6255   */\n    tag_77:\n        /* \"#utility.yul\":6111:6114   */\n      0x00\n        /* \"#utility.yul\":6126:6201   */\n      tag_254\n        /* \"#utility.yul\":6197:6200   */\n      dup3\n        /* \"#utility.yul\":6188:6194   */\n      dup5\n        /* \"#utility.yul\":6126:6201   */\n      tag_182\n      jump\t// in\n    tag_254:\n        /* \"#utility.yul\":6226:6228   */\n      0x20\n        /* \"#utility.yul\":6221:6224   */\n      dup3\n        /* \"#utility.yul\":6217:6229   */\n      add\n        /* \"#utility.yul\":6210:6229   */\n      swap2\n      pop\n        /* \"#utility.yul\":6246:6249   */\n      dup2\n        /* \"#utility.yul\":6239:6249   */\n      swap1\n      pop\n        /* \"#utility.yul\":5999:6255   */\n      swap3\n      swap2\n      pop\n      pop\n      jump\t// out\n        /* \"#utility.yul\":6261:6441   */\n    tag_183:\n        /* \"#utility.yul\":6309:6386   */\n      0x4e487b7100000000000000000000000000000000000000000000000000000000\n        /* \"#utility.yul\":6306:6307   */\n      0x00\n        /* \"#utility.yul\":6299:6387   */\n      mstore\n        /* \"#utility.yul\":6406:6410   */\n      0x11\n        /* \"#utility.yul\":6403:6404   */\n      0x04\n        /* \"#utility.yul\":6396:6411   */\n      mstore\n        /* \"#utility.yul\":6430:6434   */\n      0x24\n        /* \"#utility.yul\":6427:6428   */\n      0x00\n        /* \"#utility.yul\":6420:6435   */\n      revert\n        /* \"#utility.yul\":6447:6641   */\n    tag_83:\n        /* \"#utility.yul\":6487:6491   */\n      0x00\n        /* \"#utility.yul\":6507:6527   */\n      tag_257\n        /* \"#utility.yul\":6525:6526   */\n      dup3\n        /* \"#utility.yul\":6507:6527   */\n      tag_161\n      jump\t// in\n    tag_257:\n        /* \"#utility.yul\":6502:6527   */\n      swap2\n      pop\n        /* \"#utility.yul\":6541:6561   */\n      tag_258\n        /* \"#utility.yul\":6559:6560   */\n      dup4\n        /* \"#utility.yul\":6541:6561   */\n      tag_161\n      jump\t// in\n    tag_258:\n        /* \"#utility.yul\":6536:6561   */\n      swap3\n      pop\n        /* \"#utility.yul\":6585:6586   */\n      dup3\n        /* \"#utility.yul\":6582:6583   */\n      dup3\n        /* \"#utility.yul\":6578:6587   */\n      sub\n        /* \"#utility.yul\":6570:6587   */\n      swap1\n      pop\n        /* \"#utility.yul\":6609:6610   */\n      dup2\n        /* \"#utility.yul\":6603:6607   */\n      dup2\n        /* \"#utility.yul\":6600:6611   */\n      gt\n        /* \"#utility.yul\":6597:6634   */\n      iszero\n      tag_259\n      jumpi\n        /* \"#utility.yul\":6614:6632   */\n      tag_260\n      tag_183\n      jump\t// in\n    tag_260:\n        /* \"#utility.yul\":6597:6634   */\n    tag_259:\n        /* \"#utility.yul\":6447:6641   */\n      swap3\n      swap2\n      pop\n      pop\n      jump\t// out\n        /* \"#utility.yul\":6647:6827   */\n    tag_184:\n        /* \"#utility.yul\":6695:6772   */\n      0x4e487b7100000000000000000000000000000000000000000000000000000000\n        /* \"#utility.yul\":6692:6693   */\n      0x00\n        /* \"#utility.yul\":6685:6773   */\n      mstore\n        /* \"#utility.yul\":6792:6796   */\n      0x12\n        /* \"#utility.yul\":6789:6790   */\n      0x04\n        /* \"#utility.yul\":6782:6797   */\n      mstore\n        /* \"#utility.yul\":6816:6820   */\n      0x24\n        /* \"#utility.yul\":6813:6814   */\n      0x00\n        /* \"#utility.yul\":6806:6821   */\n      revert\n        /* \"#utility.yul\":6833:7009   */\n    tag_108:\n        /* \"#utility.yul\":6865:6866   */\n      0x00\n        /* \"#utility.yul\":6882:6902   */\n      tag_263\n        /* \"#utility.yul\":6900:6901   */\n      dup3\n        /* \"#utility.yul\":6882:6902   */\n      tag_161\n      jump\t// in\n    tag_263:\n        /* \"#utility.yul\":6877:6902   */\n      swap2\n      pop\n        /* \"#utility.yul\":6916:6936   */\n      tag_264\n        /* \"#utility.yul\":6934:6935   */\n      dup4\n        /* \"#utility.yul\":6916:6936   */\n      tag_161\n      jump\t// in\n    tag_264:\n        /* \"#utility.yul\":6911:6936   */\n      swap3\n      pop\n        /* \"#utility.yul\":6955:6956   */\n      dup3\n        /* \"#utility.yul\":6945:6980   */\n      tag_265\n      jumpi\n        /* \"#utility.yul\":6960:6978   */\n      tag_266\n      tag_184\n      jump\t// in\n    tag_266:\n        /* \"#utility.yul\":6945:6980   */\n    tag_265:\n        /* \"#utility.yul\":7001:7002   */\n      dup3\n        /* \"#utility.yul\":6998:6999   */\n      dup3\n        /* \"#utility.yul\":6994:7003   */\n      mod\n        /* \"#utility.yul\":6989:7003   */\n      swap1\n      pop\n        /* \"#utility.yul\":6833:7009   */\n      swap3\n      swap2\n      pop\n      pop\n      jump\t// out\n        /* \"#utility.yul\":7015:7200   */\n    tag_110:\n        /* \"#utility.yul\":7055:7056   */\n      0x00\n        /* \"#utility.yul\":7072:7092   */\n      tag_268\n        /* \"#utility.yul\":7090:7091   */\n      dup3\n        /* \"#utility.yul\":7072:7092   */\n      tag_161\n      jump\t// in\n    tag_268:\n        /* \"#utility.yul\":7067:7092   */\n      swap2\n      pop\n        /* \"#utility.yul\":7106:7126   */\n      tag_269\n        /* \"#utility.yul\":7124:7125   */\n      dup4\n        /* \"#utility.yul\":7106:7126   */\n      tag_161\n      jump\t// in\n    tag_269:\n        /* \"#utility.yul\":7101:7126   */\n      swap3\n      pop\n        /* \"#utility.yul\":7145:7146   */\n      dup3\n        /* \"#utility.yul\":7135:7170   */\n      tag_270\n      jumpi\n        /* \"#utility.yul\":7150:7168   */\n      tag_271\n      tag_184\n      jump\t// in\n    tag_271:\n        /* \"#utility.yul\":7135:7170   */\n    tag_270:\n        /* \"#utility.yul\":7192:7193   */\n      dup3\n        /* \"#utility.yul\":7189:7190   */\n      dup3\n        /* \"#utility.yul\":7185:7194   */\n      div\n        /* \"#utility.yul\":7180:7194   */\n      swap1\n      pop\n        /* \"#utility.yul\":7015:7200   */\n      swap3\n      swap2\n      pop\n      pop\n      jump\t// out\n        /* \"#utility.yul\":7206:7386   */\n    tag_122:\n        /* \"#utility.yul\":7254:7331   */\n      0x4e487b7100000000000000000000000000000000000000000000000000000000\n        /* \"#utility.yul\":7251:7252   */\n      0x00\n        /* \"#utility.yul\":7244:7332   */\n      mstore\n        /* \"#utility.yul\":7351:7355   */\n      0x31\n        /* \"#utility.yul\":7348:7349   */\n      0x04\n        /* \"#utility.yul\":7341:7356   */\n      mstore\n        /* \"#utility.yul\":7375:7379   */\n      0x24\n        /* \"#utility.yul\":7372:7373   */\n      0x00\n        /* \"#utility.yul\":7365:7380   */\n      revert\n        /* \"#utility.yul\":7392:7583   */\n    tag_140:\n        /* \"#utility.yul\":7432:7435   */\n      0x00\n        /* \"#utility.yul\":7451:7471   */\n      tag_274\n        /* \"#utility.yul\":7469:7470   */\n      dup3\n        /* \"#utility.yul\":7451:7471   */\n      tag_161\n      jump\t// in\n    tag_274:\n        /* \"#utility.yul\":7446:7471   */\n      swap2\n      pop\n        /* \"#utility.yul\":7485:7505   */\n      tag_275\n        /* \"#utility.yul\":7503:7504   */\n      dup4\n        /* \"#utility.yul\":7485:7505   */\n      tag_161\n      jump\t// in\n    tag_275:\n        /* \"#utility.yul\":7480:7505   */\n      swap3\n      pop\n        /* \"#utility.yul\":7528:7529   */\n      dup3\n        /* \"#utility.yul\":7525:7526   */\n      dup3\n        /* \"#utility.yul\":7521:7530   */\n      add\n        /* \"#utility.yul\":7514:7530   */\n      swap1\n      pop\n        /* \"#utility.yul\":7549:7552   */\n      dup1\n        /* \"#utility.yul\":7546:7547   */\n      dup3\n        /* \"#utility.yul\":7543:7553   */\n      gt\n        /* \"#utility.yul\":7540:7576   */\n      iszero\n      tag_276\n      jumpi\n        /* \"#utility.yul\":7556:7574   */\n      tag_277\n      tag_183\n      jump\t// in\n    tag_277:\n        /* \"#utility.yul\":7540:7576   */\n    tag_276:\n        /* \"#utility.yul\":7392:7583   */\n      swap3\n      swap2\n      pop\n      pop\n      jump\t// out\n        /* \"#utility.yul\":7589:7822   */\n    tag_150:\n        /* \"#utility.yul\":7628:7631   */\n      0x00\n        /* \"#utility.yul\":7651:7675   */\n      tag_279\n        /* \"#utility.yul\":7669:7674   */\n      dup3\n        /* \"#utility.yul\":7651:7675   */\n      tag_161\n      jump\t// in\n    tag_279:\n        /* \"#utility.yul\":7642:7675   */\n      swap2\n      pop\n        /* \"#utility.yul\":7697:7763   */\n      0xffffffffffffffffffffffffffffffffffffffffffffffffffffffffffffffff\n        /* \"#utility.yul\":7690:7695   */\n      dup3\n        /* \"#utility.yul\":7687:7764   */\n      sub\n        /* \"#utility.yul\":7684:7787   */\n      tag_280\n      jumpi\n        /* \"#utility.yul\":7767:7785   */\n      tag_281\n      tag_183\n      jump\t// in\n    tag_281:\n        /* \"#utility.yul\":7684:7787   */\n    tag_280:\n        /* \"#utility.yul\":7814:7815   */\n      0x01\n        /* \"#utility.yul\":7807:7812   */\n      dup3\n        /* \"#utility.yul\":7803:7816   */\n      add\n        /* \"#utility.yul\":7796:7816   */\n      swap1\n      pop\n        /* \"#utility.yul\":7589:7822   */\n      swap2\n      swap1\n      pop\n      jump\t// out\n\n    auxdata: 0xa2646970667358221220f4757e7b8cd133523b96813e41b6a8e2fa172fd5f1e89db7f1efcfe999aca7eb64736f6c634300081a0033\n}\n",
				"bytecode": {
					"linkReferences": {},
					"object": "608060405234801561000f575f80fd5b506040518060800160405280600b60ff168152602001601660ff168152602001602160ff168152602001602c60ff168152505f9060046100509291906100a5565b506040518060600160405280606f61ffff16815260200160de61ffff16815260200161014d61ffff16815250600190600361008c9291906100f5565b505f805490506004819055506003600581905550610156565b828054828255905f5260205f209081019282156100e4579160200282015b828111156100e3578251829060ff169055916020019190600101906100c3565b5b5090506100f1919061013b565b5090565b826003810192821561012a579160200282015b82811115610129578251829061ffff16905591602001919060010190610108565b5b509050610137919061013b565b5090565b5b80821115610152575f815f90555060010161013c565b5090565b610dce806101635f395ff3fe608060405234801561000f575f80fd5b50600436106100b2575f3560e01c8063cc84e4b91161006f578063cc84e4b9146101a0578063d12c412d146101be578063e9395679146101dc578063f00861f81461020c578063fc430d5c1461022a578063ff74927b1461025a576100b2565b806326028a06146100b657806355f45e26146100d45780638e9b3e89146100f257806391d6df7d14610122578063966fa99214610152578063a214a93b14610182575b5f80fd5b6100be61028a565b6040516100cb91906108ec565b60405180910390f35b6100dc610290565b6040516100e99190610975565b60405180910390f35b61010c600480360381019061010791906109d0565b610328565b60405161011991906108ec565b60405180910390f35b61013c600480360381019061013791906109d0565b610347565b6040516101499190610975565b60405180910390f35b61016c600480360381019061016791906109d0565b61049b565b60405161017991906108ec565b60405180910390f35b61018a6104b4565b6040516101979190610975565b60405180910390f35b6101a8610546565b6040516101b591906108ec565b60405180910390f35b6101c661054c565b6040516101d391906108ec565b60405180910390f35b6101f660048036038101906101f191906109d0565b610558565b6040516102039190610975565b60405180910390f35b6102146105e5565b60405161022191906108ec565b60405180910390f35b610244600480360381019061023f91906109d0565b610732565b60405161025191906108ec565b60405180910390f35b610274600480360381019061026f9190610b27565b610752565b6040516102819190610975565b60405180910390f35b60045481565b60605f600454905060605f5b8281101561031f576102d1826102cc5f84815481106102be576102bd610b9d565b5b905f5260205f200154610558565b610752565b9150610312826040518060400160405280600281526020017f2020000000000000000000000000000000000000000000000000000000000000815250610752565b915080600101905061029c565b50809250505090565b5f8181548110610336575f80fd5b905f5260205f20015f915090505481565b60605f6040518060400160405280601081526020017f303132333435363738396162636465660000000000000000000000000000000081525090505f836040516020016103949190610bea565b60405160208183030381529060405290505f600167ffffffffffffffff8111156103c1576103c0610a03565b5b6040519080825280601f01601f1916602001820160405280156103f35781602001600182028036833780820191505090505b5090505f600183516104059190610c31565b905083600f60f81b8483815181106104205761041f610b9d565b5b602001015160f81c60f81b1660f81c60ff168151811061044357610442610b9d565b5b602001015160f81c60f81b825f8151811061046157610460610b9d565b5b60200101907effffffffffffffffffffffffffffffffffffffffffffffffffffffffffffff191690815f1a90535081945050505050919050565b600181600381106104aa575f80fd5b015f915090505481565b60605f600554905060605f5b8281101561053d576104ef826104ea600184600381106104e3576104e2610b9d565b5b0154610558565b610752565b9150610530826040518060400160405280600281526020017f2020000000000000000000000000000000000000000000000000000000000000815250610752565b91508060010190506104c0565b50809250505090565b60055481565b5f600680549050905090565b60605f820361059e576040518060400160405280600181526020017f300000000000000000000000000000000000000000000000000000000000000081525090506105e0565b5b5f82146105df575f600a836105b49190610c91565b9050600a836105c39190610cc1565b92506105d76105d182610347565b83610752565b91505061059f565b5b919050565b5f604d5f6002815481106105fc576105fb610b9d565b5b905f5260205f2001819055505f6058908060018154018082558091505060019003905f5260205f20015f90919091909150555f6063908060018154018082558091505060019003905f5260205f20015f90919091909150555f808060018154018082558091505060019003905f5260205f20015f90919091909150555f80548061068957610688610cf1565b5b600190038181905f5260205f20015f905590555f80815481106106af576106ae610b9d565b5b905f5260205f20015f9055600180600381106106ce576106cd610b9d565b5b015f90556103785f80815481106106e8576106e7610b9d565b5b905f5260205f20018190555061270f6001806003811061070b5761070a610b9d565b5b01819055505f808054905090505f8054905060048190555060036005819055508091505090565b60068181548110610741575f80fd5b905f5260205f20015f915090505481565b60605f8390505f8390505f8151835161076b9190610d1e565b67ffffffffffffffff81111561078457610783610a03565b5b6040519080825280601f01601f1916602001820160405280156107b65781602001600182028036833780820191505090505b5090505f8190505f805b8551811015610841578581815181106107dc576107db610b9d565b5b602001015160f81c60f81b8383806107f390610d51565b94508151811061080657610805610b9d565b5b60200101907effffffffffffffffffffffffffffffffffffffffffffffffffffffffffffff191690815f1a90535080806001019150506107c0565b505f5b84518110156108c5578481815181106108605761085f610b9d565b5b602001015160f81c60f81b83838061087790610d51565b94508151811061088a57610889610b9d565b5b60200101907effffffffffffffffffffffffffffffffffffffffffffffffffffffffffffff191690815f1a9053508080600101915050610844565b50829550505050505092915050565b5f819050919050565b6108e6816108d4565b82525050565b5f6020820190506108ff5f8301846108dd565b92915050565b5f81519050919050565b5f82825260208201905092915050565b8281835e5f83830152505050565b5f601f19601f8301169050919050565b5f61094782610905565b610951818561090f565b935061096181856020860161091f565b61096a8161092d565b840191505092915050565b5f6020820190508181035f83015261098d818461093d565b905092915050565b5f604051905090565b5f80fd5b5f80fd5b6109af816108d4565b81146109b9575f80fd5b50565b5f813590506109ca816109a6565b92915050565b5f602082840312156109e5576109e461099e565b5b5f6109f2848285016109bc565b91505092915050565b5f80fd5b5f80fd5b7f4e487b71000000000000000000000000000000000000000000000000000000005f52604160045260245ffd5b610a398261092d565b810181811067ffffffffffffffff82111715610a5857610a57610a03565b5b80604052505050565b5f610a6a610995565b9050610a768282610a30565b919050565b5f67ffffffffffffffff821115610a9557610a94610a03565b5b610a9e8261092d565b9050602081019050919050565b828183375f83830152505050565b5f610acb610ac684610a7b565b610a61565b905082815260208101848484011115610ae757610ae66109ff565b5b610af2848285610aab565b509392505050565b5f82601f830112610b0e57610b0d6109fb565b5b8135610b1e848260208601610ab9565b91505092915050565b5f8060408385031215610b3d57610b3c61099e565b5b5f83013567ffffffffffffffff811115610b5a57610b596109a2565b5b610b6685828601610afa565b925050602083013567ffffffffffffffff811115610b8757610b866109a2565b5b610b9385828601610afa565b9150509250929050565b7f4e487b71000000000000000000000000000000000000000000000000000000005f52603260045260245ffd5b5f819050919050565b610be4610bdf826108d4565b610bca565b82525050565b5f610bf58284610bd3565b60208201915081905092915050565b7f4e487b71000000000000000000000000000000000000000000000000000000005f52601160045260245ffd5b5f610c3b826108d4565b9150610c46836108d4565b9250828203905081811115610c5e57610c5d610c04565b5b92915050565b7f4e487b71000000000000000000000000000000000000000000000000000000005f52601260045260245ffd5b5f610c9b826108d4565b9150610ca6836108d4565b925082610cb657610cb5610c64565b5b828206905092915050565b5f610ccb826108d4565b9150610cd6836108d4565b925082610ce657610ce5610c64565b5b828204905092915050565b7f4e487b71000000000000000000000000000000000000000000000000000000005f52603160045260245ffd5b5f610d28826108d4565b9150610d33836108d4565b9250828201905080821115610d4b57610d4a610c04565b5b92915050565b5f610d5b826108d4565b91507fffffffffffffffffffffffffffffffffffffffffffffffffffffffffffffffff8203610d8d57610d8c610c04565b5b60018201905091905056fea2646970667358221220f4757e7b8cd133523b96813e41b6a8e2fa172fd5f1e89db7f1efcfe999aca7eb64736f6c634300081a0033",
					"opcodes": "PUSH1 0x80 PUSH1 0x40 MSTORE CALLVALUE DUP1 ISZERO PUSH2 0xF JUMPI PUSH0 DUP1 REVERT JUMPDEST POP PUSH1 0x40 MLOAD DUP1 PUSH1 0x80 ADD PUSH1 0x40 MSTORE DUP1 PUSH1 0xB PUSH1 0xFF AND DUP2 MSTORE PUSH1 0x20 ADD PUSH1 0x16 PUSH1 0xFF AND DUP2 MSTORE PUSH1 0x20 ADD PUSH1 0x21 PUSH1 0xFF AND DUP2 MSTORE PUSH1 0x20 ADD PUSH1 0x2C PUSH1 0xFF AND DUP2 MSTORE POP PUSH0 SWAP1 PUSH1 0x4 PUSH2 0x50 SWAP3 SWAP2 SWAP1 PUSH2 0xA5 JUMP JUMPDEST POP PUSH1 0x40 MLOAD DUP1 PUSH1 0x60 ADD PUSH1 0x40 MSTORE DUP1 PUSH1 0x6F PUSH2 0xFFFF AND DUP2 MSTORE PUSH1 0x20 ADD PUSH1 0xDE PUSH2 0xFFFF AND DUP2 MSTORE PUSH1 0x20 ADD PUSH2 0x14D PUSH2 0xFFFF AND DUP2 MSTORE POP PUSH1 0x1 SWAP1 PUSH1 0x3 PUSH2 0x8C SWAP3 SWAP2 SWAP1 PUSH2 0xF5 JUMP JUMPDEST POP PUSH0 DUP1 SLOAD SWAP1 POP PUSH1 0x4 DUP2 SWAP1 SSTORE POP PUSH1 0x3 PUSH1 0x5 DUP2 SWAP1 SSTORE POP PUSH2 0x156 JUMP JUMPDEST DUP3 DUP1 SLOAD DUP3 DUP3 SSTORE SWAP1 PUSH0 MSTORE PUSH1 0x20 PUSH0 KECCAK256 SWAP1 DUP2 ADD SWAP3 DUP3 ISZERO PUSH2 0xE4 JUMPI SWAP2 PUSH1 0x20 MUL DUP3 ADD JUMPDEST DUP3 DUP2 GT ISZERO PUSH2 0xE3 JUMPI DUP3 MLOAD DUP3 SWAP1 PUSH1 0xFF AND SWAP1 SSTORE SWAP2 PUSH1 0x20 ADD SWAP2 SWAP1 PUSH1 0x1 ADD SWAP1 PUSH2 0xC3 JUMP JUMPDEST JUMPDEST POP SWAP1 POP PUSH2 0xF1 SWAP2 SWAP1 PUSH2 0x13B JUMP JUMPDEST POP SWAP1 JUMP JUMPDEST DUP3 PUSH1 0x3 DUP2 ADD SWAP3 DUP3 ISZERO PUSH2 0x12A JUMPI SWAP2 PUSH1 0x20 MUL DUP3 ADD JUMPDEST DUP3 DUP2 GT ISZERO PUSH2 0x129 JUMPI DUP3 MLOAD DUP3 SWAP1 PUSH2 0xFFFF AND SWAP1 SSTORE SWAP2 PUSH1 0x20 ADD SWAP2 SWAP1 PUSH1 0x1 ADD SWAP1 PUSH2 0x108 JUMP JUMPDEST JUMPDEST POP SWAP1 POP PUSH2 0x137 SWAP2 SWAP1 PUSH2 0x13B JUMP JUMPDEST POP SWAP1 JUMP JUMPDEST JUMPDEST DUP1 DUP3 GT ISZERO PUSH2 0x152 JUMPI PUSH0 DUP2 PUSH0 SWAP1 SSTORE POP PUSH1 0x1 ADD PUSH2 0x13C JUMP JUMPDEST POP SWAP1 JUMP JUMPDEST PUSH2 0xDCE DUP1 PUSH2 0x163 PUSH0 CODECOPY PUSH0 RETURN INVALID PUSH1 0x80 PUSH1 0x40 MSTORE CALLVALUE DUP1 ISZERO PUSH2 0xF JUMPI PUSH0 DUP1 REVERT JUMPDEST POP PUSH1 0x4 CALLDATASIZE LT PUSH2 0xB2 JUMPI PUSH0 CALLDATALOAD PUSH1 0xE0 SHR DUP1 PUSH4 0xCC84E4B9 GT PUSH2 0x6F JUMPI DUP1 PUSH4 0xCC84E4B9 EQ PUSH2 0x1A0 JUMPI DUP1 PUSH4 0xD12C412D EQ PUSH2 0x1BE JUMPI DUP1 PUSH4 0xE9395679 EQ PUSH2 0x1DC JUMPI DUP1 PUSH4 0xF00861F8 EQ PUSH2 0x20C JUMPI DUP1 PUSH4 0xFC430D5C EQ PUSH2 0x22A JUMPI DUP1 PUSH4 0xFF74927B EQ PUSH2 0x25A JUMPI PUSH2 0xB2 JUMP JUMPDEST DUP1 PUSH4 0x26028A06 EQ PUSH2 0xB6 JUMPI DUP1 PUSH4 0x55F45E26 EQ PUSH2 0xD4 JUMPI DUP1 PUSH4 0x8E9B3E89 EQ PUSH2 0xF2 JUMPI DUP1 PUSH4 0x91D6DF7D EQ PUSH2 0x122 JUMPI DUP1 PUSH4 0x966FA992 EQ PUSH2 0x152 JUMPI DUP1 PUSH4 0xA214A93B EQ PUSH2 0x182 JUMPI JUMPDEST PUSH0 DUP1 REVERT JUMPDEST PUSH2 0xBE PUSH2 0x28A JUMP JUMPDEST PUSH1 0x40 MLOAD PUSH2 0xCB SWAP2 SWAP1 PUSH2 0x8EC JUMP JUMPDEST PUSH1 0x40 MLOAD DUP1 SWAP2 SUB SWAP1 RETURN JUMPDEST PUSH2 0xDC PUSH2 0x290 JUMP JUMPDEST PUSH1 0x40 MLOAD PUSH2 0xE9 SWAP2 SWAP1 PUSH2 0x975 JUMP JUMPDEST PUSH1 0x40 MLOAD DUP1 SWAP2 SUB SWAP1 RETURN JUMPDEST PUSH2 0x10C PUSH1 0x4 DUP1 CALLDATASIZE SUB DUP2 ADD SWAP1 PUSH2 0x107 SWAP2 SWAP1 PUSH2 0x9D0 JUMP JUMPDEST PUSH2 0x328 JUMP JUMPDEST PUSH1 0x40 MLOAD PUSH2 0x119 SWAP2 SWAP1 PUSH2 0x8EC JUMP JUMPDEST PUSH1 0x40 MLOAD DUP1 SWAP2 SUB SWAP1 RETURN JUMPDEST PUSH2 0x13C PUSH1 0x4 DUP1 CALLDATASIZE SUB DUP2 ADD SWAP1 PUSH2 0x137 SWAP2 SWAP1 PUSH2 0x9D0 JUMP JUMPDEST PUSH2 0x347 JUMP JUMPDEST PUSH1 0x40 MLOAD PUSH2 0x149 SWAP2 SWAP1 PUSH2 0x975 JUMP JUMPDEST PUSH1 0x40 MLOAD DUP1 SWAP2 SUB SWAP1 RETURN JUMPDEST PUSH2 0x16C PUSH1 0x4 DUP1 CALLDATASIZE SUB DUP2 ADD SWAP1 PUSH2 0x167 SWAP2 SWAP1 PUSH2 0x9D0 JUMP JUMPDEST PUSH2 0x49B JUMP JUMPDEST PUSH1 0x40 MLOAD PUSH2 0x179 SWAP2 SWAP1 PUSH2 0x8EC JUMP JUMPDEST PUSH1 0x40 MLOAD DUP1 SWAP2 SUB SWAP1 RETURN JUMPDEST PUSH2 0x18A PUSH2 0x4B4 JUMP JUMPDEST PUSH1 0x40 MLOAD PUSH2 0x197 SWAP2 SWAP1 PUSH2 0x975 JUMP JUMPDEST PUSH1 0x40 MLOAD DUP1 SWAP2 SUB SWAP1 RETURN JUMPDEST PUSH2 0x1A8 PUSH2 0x546 JUMP JUMPDEST PUSH1 0x40 MLOAD PUSH2 0x1B5 SWAP2 SWAP1 PUSH2 0x8EC JUMP JUMPDEST PUSH1 0x40 MLOAD DUP1 SWAP2 SUB SWAP1 RETURN JUMPDEST PUSH2 0x1C6 PUSH2 0x54C JUMP JUMPDEST PUSH1 0x40 MLOAD PUSH2 0x1D3 SWAP2 SWAP1 PUSH2 0x8EC JUMP JUMPDEST PUSH1 0x40 MLOAD DUP1 SWAP2 SUB SWAP1 RETURN JUMPDEST PUSH2 0x1F6 PUSH1 0x4 DUP1 CALLDATASIZE SUB DUP2 ADD SWAP1 PUSH2 0x1F1 SWAP2 SWAP1 PUSH2 0x9D0 JUMP JUMPDEST PUSH2 0x558 JUMP JUMPDEST PUSH1 0x40 MLOAD PUSH2 0x203 SWAP2 SWAP1 PUSH2 0x975 JUMP JUMPDEST PUSH1 0x40 MLOAD DUP1 SWAP2 SUB SWAP1 RETURN JUMPDEST PUSH2 0x214 PUSH2 0x5E5 JUMP JUMPDEST PUSH1 0x40 MLOAD PUSH2 0x221 SWAP2 SWAP1 PUSH2 0x8EC JUMP JUMPDEST PUSH1 0x40 MLOAD DUP1 SWAP2 SUB SWAP1 RETURN JUMPDEST PUSH2 0x244 PUSH1 0x4 DUP1 CALLDATASIZE SUB DUP2 ADD SWAP1 PUSH2 0x23F SWAP2 SWAP1 PUSH2 0x9D0 JUMP JUMPDEST PUSH2 0x732 JUMP JUMPDEST PUSH1 0x40 MLOAD PUSH2 0x251 SWAP2 SWAP1 PUSH2 0x8EC JUMP JUMPDEST PUSH1 0x40 MLOAD DUP1 SWAP2 SUB SWAP1 RETURN JUMPDEST PUSH2 0x274 PUSH1 0x4 DUP1 CALLDATASIZE SUB DUP2 ADD SWAP1 PUSH2 0x26F SWAP2 SWAP1 PUSH2 0xB27 JUMP JUMPDEST PUSH2 0x752 JUMP JUMPDEST PUSH1 0x40 MLOAD PUSH2 0x281 SWAP2 SWAP1 PUSH2 0x975 JUMP JUMPDEST PUSH1 0x40 MLOAD DUP1 SWAP2 SUB SWAP1 RETURN JUMPDEST PUSH1 0x4 SLOAD DUP2 JUMP JUMPDEST PUSH1 0x60 PUSH0 PUSH1 0x4 SLOAD SWAP1 POP PUSH1 0x60 PUSH0 JUMPDEST DUP3 DUP2 LT ISZERO PUSH2 0x31F JUMPI PUSH2 0x2D1 DUP3 PUSH2 0x2CC PUSH0 DUP5 DUP2 SLOAD DUP2 LT PUSH2 0x2BE JUMPI PUSH2 0x2BD PUSH2 0xB9D JUMP JUMPDEST JUMPDEST SWAP1 PUSH0 MSTORE PUSH1 0x20 PUSH0 KECCAK256 ADD SLOAD PUSH2 0x558 JUMP JUMPDEST PUSH2 0x752 JUMP JUMPDEST SWAP2 POP PUSH2 0x312 DUP3 PUSH1 0x40 MLOAD DUP1 PUSH1 0x40 ADD PUSH1 0x40 MSTORE DUP1 PUSH1 0x2 DUP2 MSTORE PUSH1 0x20 ADD PUSH32 0x2020000000000000000000000000000000000000000000000000000000000000 DUP2 MSTORE POP PUSH2 0x752 JUMP JUMPDEST SWAP2 POP DUP1 PUSH1 0x1 ADD SWAP1 POP PUSH2 0x29C JUMP JUMPDEST POP DUP1 SWAP3 POP POP POP SWAP1 JUMP JUMPDEST PUSH0 DUP2 DUP2 SLOAD DUP2 LT PUSH2 0x336 JUMPI PUSH0 DUP1 REVERT JUMPDEST SWAP1 PUSH0 MSTORE PUSH1 0x20 PUSH0 KECCAK256 ADD PUSH0 SWAP2 POP SWAP1 POP SLOAD DUP2 JUMP JUMPDEST PUSH1 0x60 PUSH0 PUSH1 0x40 MLOAD DUP1 PUSH1 0x40 ADD PUSH1 0x40 MSTORE DUP1 PUSH1 0x10 DUP2 MSTORE PUSH1 0x20 ADD PUSH32 0x3031323334353637383961626364656600000000000000000000000000000000 DUP2 MSTORE POP SWAP1 POP PUSH0 DUP4 PUSH1 0x40 MLOAD PUSH1 0x20 ADD PUSH2 0x394 SWAP2 SWAP1 PUSH2 0xBEA JUMP JUMPDEST PUSH1 0x40 MLOAD PUSH1 0x20 DUP2 DUP4 SUB SUB DUP2 MSTORE SWAP1 PUSH1 0x40 MSTORE SWAP1 POP PUSH0 PUSH1 0x1 PUSH8 0xFFFFFFFFFFFFFFFF DUP2 GT ISZERO PUSH2 0x3C1 JUMPI PUSH2 0x3C0 PUSH2 0xA03 JUMP JUMPDEST JUMPDEST PUSH1 0x40 MLOAD SWAP1 DUP1 DUP3 MSTORE DUP1 PUSH1 0x1F ADD PUSH1 0x1F NOT AND PUSH1 0x20 ADD DUP3 ADD PUSH1 0x40 MSTORE DUP1 ISZERO PUSH2 0x3F3 JUMPI DUP2 PUSH1 0x20 ADD PUSH1 0x1 DUP3 MUL DUP1 CALLDATASIZE DUP4 CALLDATACOPY DUP1 DUP3 ADD SWAP2 POP POP SWAP1 POP JUMPDEST POP SWAP1 POP PUSH0 PUSH1 0x1 DUP4 MLOAD PUSH2 0x405 SWAP2 SWAP1 PUSH2 0xC31 JUMP JUMPDEST SWAP1 POP DUP4 PUSH1 0xF PUSH1 0xF8 SHL DUP5 DUP4 DUP2 MLOAD DUP2 LT PUSH2 0x420 JUMPI PUSH2 0x41F PUSH2 0xB9D JUMP JUMPDEST JUMPDEST PUSH1 0x20 ADD ADD MLOAD PUSH1 0xF8 SHR PUSH1 0xF8 SHL AND PUSH1 0xF8 SHR PUSH1 0xFF AND DUP2 MLOAD DUP2 LT PUSH2 0x443 JUMPI PUSH2 0x442 PUSH2 0xB9D JUMP JUMPDEST JUMPDEST PUSH1 0x20 ADD ADD MLOAD PUSH1 0xF8 SHR PUSH1 0xF8 SHL DUP3 PUSH0 DUP2 MLOAD DUP2 LT PUSH2 0x461 JUMPI PUSH2 0x460 PUSH2 0xB9D JUMP JUMPDEST JUMPDEST PUSH1 0x20 ADD ADD SWAP1 PUSH31 0xFFFFFFFFFFFFFFFFFFFFFFFFFFFFFFFFFFFFFFFFFFFFFFFFFFFFFFFFFFFFFF NOT AND SWAP1 DUP2 PUSH0 BYTE SWAP1 MSTORE8 POP DUP2 SWAP5 POP POP POP POP POP SWAP2 SWAP1 POP JUMP JUMPDEST PUSH1 0x1 DUP2 PUSH1 0x3 DUP2 LT PUSH2 0x4AA JUMPI PUSH0 DUP1 REVERT JUMPDEST ADD PUSH0 SWAP2 POP SWAP1 POP SLOAD DUP2 JUMP JUMPDEST PUSH1 0x60 PUSH0 PUSH1 0x5 SLOAD SWAP1 POP PUSH1 0x60 PUSH0 JUMPDEST DUP3 DUP2 LT ISZERO PUSH2 0x53D JUMPI PUSH2 0x4EF DUP3 PUSH2 0x4EA PUSH1 0x1 DUP5 PUSH1 0x3 DUP2 LT PUSH2 0x4E3 JUMPI PUSH2 0x4E2 PUSH2 0xB9D JUMP JUMPDEST JUMPDEST ADD SLOAD PUSH2 0x558 JUMP JUMPDEST PUSH2 0x752 JUMP JUMPDEST SWAP2 POP PUSH2 0x530 DUP3 PUSH1 0x40 MLOAD DUP1 PUSH1 0x40 ADD PUSH1 0x40 MSTORE DUP1 PUSH1 0x2 DUP2 MSTORE PUSH1 0x20 ADD PUSH32 0x2020000000000000000000000000000000000000000000000000000000000000 DUP2 MSTORE POP PUSH2 0x752 JUMP JUMPDEST SWAP2 POP DUP1 PUSH1 0x1 ADD SWAP1 POP PUSH2 0x4C0 JUMP JUMPDEST POP DUP1 SWAP3 POP POP POP SWAP1 JUMP JUMPDEST PUSH1 0x5 SLOAD DUP2 JUMP JUMPDEST PUSH0 PUSH1 0x6 DUP1 SLOAD SWAP1 POP SWAP1 POP SWAP1 JUMP JUMPDEST PUSH1 0x60 PUSH0 DUP3 SUB PUSH2 0x59E JUMPI PUSH1 0x40 MLOAD DUP1 PUSH1 0x40 ADD PUSH1 0x40 MSTORE DUP1 PUSH1 0x1 DUP2 MSTORE PUSH1 0x20 ADD PUSH32 0x3000000000000000000000000000000000000000000000000000000000000000 DUP2 MSTORE POP SWAP1 POP PUSH2 0x5E0 JUMP JUMPDEST JUMPDEST PUSH0 DUP3 EQ PUSH2 0x5DF JUMPI PUSH0 PUSH1 0xA DUP4 PUSH2 0x5B4 SWAP2 SWAP1 PUSH2 0xC91 JUMP JUMPDEST SWAP1 POP PUSH1 0xA DUP4 PUSH2 0x5C3 SWAP2 SWAP1 PUSH2 0xCC1 JUMP JUMPDEST SWAP3 POP PUSH2 0x5D7 PUSH2 0x5D1 DUP3 PUSH2 0x347 JUMP JUMPDEST DUP4 PUSH2 0x752 JUMP JUMPDEST SWAP2 POP POP PUSH2 0x59F JUMP JUMPDEST JUMPDEST SWAP2 SWAP1 POP JUMP JUMPDEST PUSH0 PUSH1 0x4D PUSH0 PUSH1 0x2 DUP2 SLOAD DUP2 LT PUSH2 0x5FC JUMPI PUSH2 0x5FB PUSH2 0xB9D JUMP JUMPDEST JUMPDEST SWAP1 PUSH0 MSTORE PUSH1 0x20 PUSH0 KECCAK256 ADD DUP2 SWAP1 SSTORE POP PUSH0 PUSH1 0x58 SWAP1 DUP1 PUSH1 0x1 DUP2 SLOAD ADD DUP1 DUP3 SSTORE DUP1 SWAP2 POP POP PUSH1 0x1 SWAP1 SUB SWAP1 PUSH0 MSTORE PUSH1 0x20 PUSH0 KECCAK256 ADD PUSH0 SWAP1 SWAP2 SWAP1 SWAP2 SWAP1 SWAP2 POP SSTORE PUSH0 PUSH1 0x63 SWAP1 DUP1 PUSH1 0x1 DUP2 SLOAD ADD DUP1 DUP3 SSTORE DUP1 SWAP2 POP POP PUSH1 0x1 SWAP1 SUB SWAP1 PUSH0 MSTORE PUSH1 0x20 PUSH0 KECCAK256 ADD PUSH0 SWAP1 SWAP2 SWAP1 SWAP2 SWAP1 SWAP2 POP SSTORE PUSH0 DUP1 DUP1 PUSH1 0x1 DUP2 SLOAD ADD DUP1 DUP3 SSTORE DUP1 SWAP2 POP POP PUSH1 0x1 SWAP1 SUB SWAP1 PUSH0 MSTORE PUSH1 0x20 PUSH0 KECCAK256 ADD PUSH0 SWAP1 SWAP2 SWAP1 SWAP2 SWAP1 SWAP2 POP SSTORE PUSH0 DUP1 SLOAD DUP1 PUSH2 0x689 JUMPI PUSH2 0x688 PUSH2 0xCF1 JUMP JUMPDEST JUMPDEST PUSH1 0x1 SWAP1 SUB DUP2 DUP2 SWAP1 PUSH0 MSTORE PUSH1 0x20 PUSH0 KECCAK256 ADD PUSH0 SWAP1 SSTORE SWAP1 SSTORE PUSH0 DUP1 DUP2 SLOAD DUP2 LT PUSH2 0x6AF JUMPI PUSH2 0x6AE PUSH2 0xB9D JUMP JUMPDEST JUMPDEST SWAP1 PUSH0 MSTORE PUSH1 0x20 PUSH0 KECCAK256 ADD PUSH0 SWAP1 SSTORE PUSH1 0x1 DUP1 PUSH1 0x3 DUP2 LT PUSH2 0x6CE JUMPI PUSH2 0x6CD PUSH2 0xB9D JUMP JUMPDEST JUMPDEST ADD PUSH0 SWAP1 SSTORE PUSH2 0x378 PUSH0 DUP1 DUP2 SLOAD DUP2 LT PUSH2 0x6E8 JUMPI PUSH2 0x6E7 PUSH2 0xB9D JUMP JUMPDEST JUMPDEST SWAP1 PUSH0 MSTORE PUSH1 0x20 PUSH0 KECCAK256 ADD DUP2 SWAP1 SSTORE POP PUSH2 0x270F PUSH1 0x1 DUP1 PUSH1 0x3 DUP2 LT PUSH2 0x70B JUMPI PUSH2 0x70A PUSH2 0xB9D JUMP JUMPDEST JUMPDEST ADD DUP2 SWAP1 SSTORE POP PUSH0 DUP1 DUP1 SLOAD SWAP1 POP SWAP1 POP PUSH0 DUP1 SLOAD SWAP1 POP PUSH1 0x4 DUP2 SWAP1 SSTORE POP PUSH1 0x3 PUSH1 0x5 DUP2 SWAP1 SSTORE POP DUP1 SWAP2 POP POP SWAP1 JUMP JUMPDEST PUSH1 0x6 DUP2 DUP2 SLOAD DUP2 LT PUSH2 0x741 JUMPI PUSH0 DUP1 REVERT JUMPDEST SWAP1 PUSH0 MSTORE PUSH1 0x20 PUSH0 KECCAK256 ADD PUSH0 SWAP2 POP SWAP1 POP SLOAD DUP2 JUMP JUMPDEST PUSH1 0x60 PUSH0 DUP4 SWAP1 POP PUSH0 DUP4 SWAP1 POP PUSH0 DUP2 MLOAD DUP4 MLOAD PUSH2 0x76B SWAP2 SWAP1 PUSH2 0xD1E JUMP JUMPDEST PUSH8 0xFFFFFFFFFFFFFFFF DUP2 GT ISZERO PUSH2 0x784 JUMPI PUSH2 0x783 PUSH2 0xA03 JUMP JUMPDEST JUMPDEST PUSH1 0x40 MLOAD SWAP1 DUP1 DUP3 MSTORE DUP1 PUSH1 0x1F ADD PUSH1 0x1F NOT AND PUSH1 0x20 ADD DUP3 ADD PUSH1 0x40 MSTORE DUP1 ISZERO PUSH2 0x7B6 JUMPI DUP2 PUSH1 0x20 ADD PUSH1 0x1 DUP3 MUL DUP1 CALLDATASIZE DUP4 CALLDATACOPY DUP1 DUP3 ADD SWAP2 POP POP SWAP1 POP JUMPDEST POP SWAP1 POP PUSH0 DUP2 SWAP1 POP PUSH0 DUP1 JUMPDEST DUP6 MLOAD DUP2 LT ISZERO PUSH2 0x841 JUMPI DUP6 DUP2 DUP2 MLOAD DUP2 LT PUSH2 0x7DC JUMPI PUSH2 0x7DB PUSH2 0xB9D JUMP JUMPDEST JUMPDEST PUSH1 0x20 ADD ADD MLOAD PUSH1 0xF8 SHR PUSH1 0xF8 SHL DUP4 DUP4 DUP1 PUSH2 0x7F3 SWAP1 PUSH2 0xD51 JUMP JUMPDEST SWAP5 POP DUP2 MLOAD DUP2 LT PUSH2 0x806 JUMPI PUSH2 0x805 PUSH2 0xB9D JUMP JUMPDEST JUMPDEST PUSH1 0x20 ADD ADD SWAP1 PUSH31 0xFFFFFFFFFFFFFFFFFFFFFFFFFFFFFFFFFFFFFFFFFFFFFFFFFFFFFFFFFFFFFF NOT AND SWAP1 DUP2 PUSH0 BYTE SWAP1 MSTORE8 POP DUP1 DUP1 PUSH1 0x1 ADD SWAP2 POP POP PUSH2 0x7C0 JUMP JUMPDEST POP PUSH0 JUMPDEST DUP5 MLOAD DUP2 LT ISZERO PUSH2 0x8C5 JUMPI DUP5 DUP2 DUP2 MLOAD DUP2 LT PUSH2 0x860 JUMPI PUSH2 0x85F PUSH2 0xB9D JUMP JUMPDEST JUMPDEST PUSH1 0x20 ADD ADD MLOAD PUSH1 0xF8 SHR PUSH1 0xF8 SHL DUP4 DUP4 DUP1 PUSH2 0x877 SWAP1 PUSH2 0xD51 JUMP JUMPDEST SWAP5 POP DUP2 MLOAD DUP2 LT PUSH2 0x88A JUMPI PUSH2 0x889 PUSH2 0xB9D JUMP JUMPDEST JUMPDEST PUSH1 0x20 ADD ADD SWAP1 PUSH31 0xFFFFFFFFFFFFFFFFFFFFFFFFFFFFFFFFFFFFFFFFFFFFFFFFFFFFFFFFFFFFFF NOT AND SWAP1 DUP2 PUSH0 BYTE SWAP1 MSTORE8 POP DUP1 DUP1 PUSH1 0x1 ADD SWAP2 POP POP PUSH2 0x844 JUMP JUMPDEST POP DUP3 SWAP6 POP POP POP POP POP POP SWAP3 SWAP2 POP POP JUMP JUMPDEST PUSH0 DUP2 SWAP1 POP SWAP2 SWAP1 POP JUMP JUMPDEST PUSH2 0x8E6 DUP2 PUSH2 0x8D4 JUMP JUMPDEST DUP3 MSTORE POP POP JUMP JUMPDEST PUSH0 PUSH1 0x20 DUP3 ADD SWAP1 POP PUSH2 0x8FF PUSH0 DUP4 ADD DUP5 PUSH2 0x8DD JUMP JUMPDEST SWAP3 SWAP2 POP POP JUMP JUMPDEST PUSH0 DUP2 MLOAD SWAP1 POP SWAP2 SWAP1 POP JUMP JUMPDEST PUSH0 DUP3 DUP3 MSTORE PUSH1 0x20 DUP3 ADD SWAP1 POP SWAP3 SWAP2 POP POP JUMP JUMPDEST DUP3 DUP2 DUP4 MCOPY PUSH0 DUP4 DUP4 ADD MSTORE POP POP POP JUMP JUMPDEST PUSH0 PUSH1 0x1F NOT PUSH1 0x1F DUP4 ADD AND SWAP1 POP SWAP2 SWAP1 POP JUMP JUMPDEST PUSH0 PUSH2 0x947 DUP3 PUSH2 0x905 JUMP JUMPDEST PUSH2 0x951 DUP2 DUP6 PUSH2 0x90F JUMP JUMPDEST SWAP4 POP PUSH2 0x961 DUP2 DUP6 PUSH1 0x20 DUP7 ADD PUSH2 0x91F JUMP JUMPDEST PUSH2 0x96A DUP2 PUSH2 0x92D JUMP JUMPDEST DUP5 ADD SWAP2 POP POP SWAP3 SWAP2 POP POP JUMP JUMPDEST PUSH0 PUSH1 0x20 DUP3 ADD SWAP1 POP DUP2 DUP2 SUB PUSH0 DUP4 ADD MSTORE PUSH2 0x98D DUP2 DUP5 PUSH2 0x93D JUMP JUMPDEST SWAP1 POP SWAP3 SWAP2 POP POP JUMP JUMPDEST PUSH0 PUSH1 0x40 MLOAD SWAP1 POP SWAP1 JUMP JUMPDEST PUSH0 DUP1 REVERT JUMPDEST PUSH0 DUP1 REVERT JUMPDEST PUSH2 0x9AF DUP2 PUSH2 0x8D4 JUMP JUMPDEST DUP2 EQ PUSH2 0x9B9 JUMPI PUSH0 DUP1 REVERT JUMPDEST POP JUMP JUMPDEST PUSH0 DUP2 CALLDATALOAD SWAP1 POP PUSH2 0x9CA DUP2 PUSH2 0x9A6 JUMP JUMPDEST SWAP3 SWAP2 POP POP JUMP JUMPDEST PUSH0 PUSH1 0x20 DUP3 DUP5 SUB SLT ISZERO PUSH2 0x9E5 JUMPI PUSH2 0x9E4 PUSH2 0x99E JUMP JUMPDEST JUMPDEST PUSH0 PUSH2 0x9F2 DUP5 DUP3 DUP6 ADD PUSH2 0x9BC JUMP JUMPDEST SWAP2 POP POP SWAP3 SWAP2 POP POP JUMP JUMPDEST PUSH0 DUP1 REVERT JUMPDEST PUSH0 DUP1 REVERT JUMPDEST PUSH32 0x4E487B7100000000000000000000000000000000000000000000000000000000 PUSH0 MSTORE PUSH1 0x41 PUSH1 0x4 MSTORE PUSH1 0x24 PUSH0 REVERT JUMPDEST PUSH2 0xA39 DUP3 PUSH2 0x92D JUMP JUMPDEST DUP2 ADD DUP2 DUP2 LT PUSH8 0xFFFFFFFFFFFFFFFF DUP3 GT OR ISZERO PUSH2 0xA58 JUMPI PUSH2 0xA57 PUSH2 0xA03 JUMP JUMPDEST JUMPDEST DUP1 PUSH1 0x40 MSTORE POP POP POP JUMP JUMPDEST PUSH0 PUSH2 0xA6A PUSH2 0x995 JUMP JUMPDEST SWAP1 POP PUSH2 0xA76 DUP3 DUP3 PUSH2 0xA30 JUMP JUMPDEST SWAP2 SWAP1 POP JUMP JUMPDEST PUSH0 PUSH8 0xFFFFFFFFFFFFFFFF DUP3 GT ISZERO PUSH2 0xA95 JUMPI PUSH2 0xA94 PUSH2 0xA03 JUMP JUMPDEST JUMPDEST PUSH2 0xA9E DUP3 PUSH2 0x92D JUMP JUMPDEST SWAP1 POP PUSH1 0x20 DUP2 ADD SWAP1 POP SWAP2 SWAP1 POP JUMP JUMPDEST DUP3 DUP2 DUP4 CALLDATACOPY PUSH0 DUP4 DUP4 ADD MSTORE POP POP POP JUMP JUMPDEST PUSH0 PUSH2 0xACB PUSH2 0xAC6 DUP5 PUSH2 0xA7B JUMP JUMPDEST PUSH2 0xA61 JUMP JUMPDEST SWAP1 POP DUP3 DUP2 MSTORE PUSH1 0x20 DUP2 ADD DUP5 DUP5 DUP5 ADD GT ISZERO PUSH2 0xAE7 JUMPI PUSH2 0xAE6 PUSH2 0x9FF JUMP JUMPDEST JUMPDEST PUSH2 0xAF2 DUP5 DUP3 DUP6 PUSH2 0xAAB JUMP JUMPDEST POP SWAP4 SWAP3 POP POP POP JUMP JUMPDEST PUSH0 DUP3 PUSH1 0x1F DUP4 ADD SLT PUSH2 0xB0E JUMPI PUSH2 0xB0D PUSH2 0x9FB JUMP JUMPDEST JUMPDEST DUP2 CALLDATALOAD PUSH2 0xB1E DUP5 DUP3 PUSH1 0x20 DUP7 ADD PUSH2 0xAB9 JUMP JUMPDEST SWAP2 POP POP SWAP3 SWAP2 POP POP JUMP JUMPDEST PUSH0 DUP1 PUSH1 0x40 DUP4 DUP6 SUB SLT ISZERO PUSH2 0xB3D JUMPI PUSH2 0xB3C PUSH2 0x99E JUMP JUMPDEST JUMPDEST PUSH0 DUP4 ADD CALLDATALOAD PUSH8 0xFFFFFFFFFFFFFFFF DUP2 GT ISZERO PUSH2 0xB5A JUMPI PUSH2 0xB59 PUSH2 0x9A2 JUMP JUMPDEST JUMPDEST PUSH2 0xB66 DUP6 DUP3 DUP7 ADD PUSH2 0xAFA JUMP JUMPDEST SWAP3 POP POP PUSH1 0x20 DUP4 ADD CALLDATALOAD PUSH8 0xFFFFFFFFFFFFFFFF DUP2 GT ISZERO PUSH2 0xB87 JUMPI PUSH2 0xB86 PUSH2 0x9A2 JUMP JUMPDEST JUMPDEST PUSH2 0xB93 DUP6 DUP3 DUP7 ADD PUSH2 0xAFA JUMP JUMPDEST SWAP2 POP POP SWAP3 POP SWAP3 SWAP1 POP JUMP JUMPDEST PUSH32 0x4E487B7100000000000000000000000000000000000000000000000000000000 PUSH0 MSTORE PUSH1 0x32 PUSH1 0x4 MSTORE PUSH1 0x24 PUSH0 REVERT JUMPDEST PUSH0 DUP2 SWAP1 POP SWAP2 SWAP1 POP JUMP JUMPDEST PUSH2 0xBE4 PUSH2 0xBDF DUP3 PUSH2 0x8D4 JUMP JUMPDEST PUSH2 0xBCA JUMP JUMPDEST DUP3 MSTORE POP POP JUMP JUMPDEST PUSH0 PUSH2 0xBF5 DUP3 DUP5 PUSH2 0xBD3 JUMP JUMPDEST PUSH1 0x20 DUP3 ADD SWAP2 POP DUP2 SWAP1 POP SWAP3 SWAP2 POP POP JUMP JUMPDEST PUSH32 0x4E487B7100000000000000000000000000000000000000000000000000000000 PUSH0 MSTORE PUSH1 0x11 PUSH1 0x4 MSTORE PUSH1 0x24 PUSH0 REVERT JUMPDEST PUSH0 PUSH2 0xC3B DUP3 PUSH2 0x8D4 JUMP JUMPDEST SWAP2 POP PUSH2 0xC46 DUP4 PUSH2 0x8D4 JUMP JUMPDEST SWAP3 POP DUP3 DUP3 SUB SWAP1 POP DUP2 DUP2 GT ISZERO PUSH2 0xC5E JUMPI PUSH2 0xC5D PUSH2 0xC04 JUMP JUMPDEST JUMPDEST SWAP3 SWAP2 POP POP JUMP JUMPDEST PUSH32 0x4E487B7100000000000000000000000000000000000000000000000000000000 PUSH0 MSTORE PUSH1 0x12 PUSH1 0x4 MSTORE PUSH1 0x24 PUSH0 REVERT JUMPDEST PUSH0 PUSH2 0xC9B DUP3 PUSH2 0x8D4 JUMP JUMPDEST SWAP2 POP PUSH2 0xCA6 DUP4 PUSH2 0x8D4 JUMP JUMPDEST SWAP3 POP DUP3 PUSH2 0xCB6 JUMPI PUSH2 0xCB5 PUSH2 0xC64 JUMP JUMPDEST JUMPDEST DUP3 DUP3 MOD SWAP1 POP SWAP3 SWAP2 POP POP JUMP JUMPDEST PUSH0 PUSH2 0xCCB DUP3 PUSH2 0x8D4 JUMP JUMPDEST SWAP2 POP PUSH2 0xCD6 DUP4 PUSH2 0x8D4 JUMP JUMPDEST SWAP3 POP DUP3 PUSH2 0xCE6 JUMPI PUSH2 0xCE5 PUSH2 0xC64 JUMP JUMPDEST JUMPDEST DUP3 DUP3 DIV SWAP1 POP SWAP3 SWAP2 POP POP JUMP JUMPDEST PUSH32 0x4E487B7100000000000000000000000000000000000000000000000000000000 PUSH0 MSTORE PUSH1 0x31 PUSH1 0x4 MSTORE PUSH1 0x24 PUSH0 REVERT JUMPDEST PUSH0 PUSH2 0xD28 DUP3 PUSH2 0x8D4 JUMP JUMPDEST SWAP2 POP PUSH2 0xD33 DUP4 PUSH2 0x8D4 JUMP JUMPDEST SWAP3 POP DUP3 DUP3 ADD SWAP1 POP DUP1 DUP3 GT ISZERO PUSH2 0xD4B JUMPI PUSH2 0xD4A PUSH2 0xC04 JUMP JUMPDEST JUMPDEST SWAP3 SWAP2 POP POP JUMP JUMPDEST PUSH0 PUSH2 0xD5B DUP3 PUSH2 0x8D4 JUMP JUMPDEST SWAP2 POP PUSH32 0xFFFFFFFFFFFFFFFFFFFFFFFFFFFFFFFFFFFFFFFFFFFFFFFFFFFFFFFFFFFFFFFF DUP3 SUB PUSH2 0xD8D JUMPI PUSH2 0xD8C PUSH2 0xC04 JUMP JUMPDEST JUMPDEST PUSH1 0x1 DUP3 ADD SWAP1 POP SWAP2 SWAP1 POP JUMP INVALID LOG2 PUSH5 0x6970667358 0x22 SLT KECCAK256 DELEGATECALL PUSH22 0x7E7B8CD133523B96813E41B6A8E2FA172FD5F1E89DB7 CALL 0xEF 0xCF 0xE9 SWAP10 0xAC 0xA7 0xEB PUSH5 0x736F6C6343 STOP ADDMOD BYTE STOP CALLER "
				},
				"gasEstimates": {
					"creation": {
						"codeDepositCost": "706800",
						"executionCost": "infinite",
						"totalCost": "infinite"
					},
					"external": {
						"StateDynamicArray(uint256)": "infinite",
						"StateFixedArray(uint256)": "infinite",
						"emptyArray(uint256)": "infinite",
						"getEmptyArrayLength()": "2462",
						"lenDyn()": "2426",
						"lenFix()": "2425",
						"showarrayDyn()": "infinite",
						"showarrayFix()": "infinite",
						"strConcat(string,string)": "infinite",
						"testStateArray()": "283251",
						"toStr(uint256)": "infinite",
						"uintToString(uint256)": "infinite"
					}
				},
				"methodIdentifiers": {
					"StateDynamicArray(uint256)": "8e9b3e89",
					"StateFixedArray(uint256)": "966fa992",
					"emptyArray(uint256)": "fc430d5c",
					"getEmptyArrayLength()": "d12c412d",
					"lenDyn()": "26028a06",
					"lenFix()": "cc84e4b9",
					"showarrayDyn()": "55f45e26",
					"showarrayFix()": "a214a93b",
					"strConcat(string,string)": "ff74927b",
					"testStateArray()": "f00861f8",
					"toStr(uint256)": "91d6df7d",
					"uintToString(uint256)": "e9395679"
				}
			},
			"storageLayout": {
				"storage": [
					{
						"astId": 4,
						"contract": "arrayHelper.sol:arrayHelper",
						"label": "StateDynamicArray",
						"offset": 0,
						"slot": "0",
						"type": "t_array(t_uint256)dyn_storage"
					},
					{
						"astId": 8,
						"contract": "arrayHelper.sol:arrayHelper",
						"label": "StateFixedArray",
						"offset": 0,
						"slot": "1",
						"type": "t_array(t_uint256)3_storage"
					},
					{
						"astId": 10,
						"contract": "arrayHelper.sol:arrayHelper",
						"label": "lenDyn",
						"offset": 0,
						"slot": "4",
						"type": "t_uint256"
					},
					{
						"astId": 12,
						"contract": "arrayHelper.sol:arrayHelper",
						"label": "lenFix",
						"offset": 0,
						"slot": "5",
						"type": "t_uint256"
					},
					{
						"astId": 15,
						"contract": "arrayHelper.sol:arrayHelper",
						"label": "emptyArray",
						"offset": 0,
						"slot": "6",
						"type": "t_array(t_uint256)dyn_storage"
					}
				],
				"types": {
					"t_array(t_uint256)3_storage": {
						"base": "t_uint256",
						"encoding": "inplace",
						"label": "uint256[3]",
						"numberOfBytes": "96"
					},
					"t_array(t_uint256)dyn_storage": {
						"base": "t_uint256",
						"encoding": "dynamic_array",
						"label": "uint256[]",
						"numberOfBytes": "32"
					},
					"t_uint256": {
						"encoding": "inplace",
						"label": "uint256",
						"numberOfBytes": "32"
					}
				}
			},
			"userdoc": {
				"kind": "user",
				"methods": {},
				"version": 1
			}
		}
	}
}