{
	"todo.sol": {
		"MyToDo": {
			"abi": [
				{
					"inputs": [
						{
							"internalType": "string",
							"name": "_t",
							"type": "string"
						}
					],
					"name": "addTask",
					"outputs": [],
					"stateMutability": "nonpayable",
					"type": "function"
				},
				{
					"inputs": [
						{
							"internalType": "uint256",
							"name": "",
							"type": "uint256"
						}
					],
					"name": "myTasks",
					"outputs": [
						{
							"internalType": "string",
							"name": "text",
							"type": "string"
						},
						{
							"internalType": "bool",
							"name": "finished",
							"type": "bool"
						}
					],
					"stateMutability": "view",
					"type": "function"
				},
				{
					"inputs": [],
					"name": "size",
					"outputs": [
						{
							"internalType": "uint256",
							"name": "",
							"type": "uint256"
						}
					],
					"stateMutability": "view",
					"type": "function"
				},
				{
					"inputs": [
						{
							"internalType": "uint256",
							"name": "_idx",
							"type": "uint256"
						}
					],
					"name": "toggleCompleted",
					"outputs": [],
					"stateMutability": "nonpayable",
					"type": "function"
				},
				{
					"inputs": [
						{
							"internalType": "uint256",
							"name": "_idx",
							"type": "uint256"
						},
						{
							"internalType": "string",
							"name": "_text",
							"type": "string"
						}
					],
					"name": "updateTask",
					"outputs": [],
					"stateMutability": "nonpayable",
					"type": "function"
				}
			],
			"devdoc": {
				"kind": "dev",
				"methods": {},
				"version": 1
			},
			"evm": {
				"assembly": "    /* \"todo.sol\":60:838  contract MyToDo{... */\n  mstore(0x40, 0x80)\n  callvalue\n  dup1\n  iszero\n  tag_1\n  jumpi\n  0x00\n  dup1\n  revert\ntag_1:\n  pop\n  dataSize(sub_0)\n  dup1\n  dataOffset(sub_0)\n  0x00\n  codecopy\n  0x00\n  return\nstop\n\nsub_0: assembly {\n        /* \"todo.sol\":60:838  contract MyToDo{... */\n      mstore(0x40, 0x80)\n      callvalue\n      dup1\n      iszero\n      tag_1\n      jumpi\n      0x00\n      dup1\n      revert\n    tag_1:\n      pop\n      jumpi(tag_2, lt(calldatasize, 0x04))\n      shr(0xe0, calldataload(0x00))\n      dup1\n      0x455f5024\n      eq\n      tag_3\n      jumpi\n      dup1\n      0x67238562\n      eq\n      tag_4\n      jumpi\n      dup1\n      0x86533f6c\n      eq\n      tag_5\n      jumpi\n      dup1\n      0x949d225d\n      eq\n      tag_6\n      jumpi\n      dup1\n      0xdbc28245\n      eq\n      tag_7\n      jumpi\n    tag_2:\n      0x00\n      dup1\n      revert\n        /* \"todo.sol\":704:833  function toggleCompleted(uint _idx) indexValid(_idx) external {... */\n    tag_3:\n      tag_8\n      0x04\n      dup1\n      calldatasize\n      sub\n      dup2\n      add\n      swap1\n      tag_9\n      swap2\n      swap1\n      tag_10\n      jump\t// in\n    tag_9:\n      tag_11\n      jump\t// in\n    tag_8:\n      stop\n        /* \"todo.sol\":331:475  function addTask(string calldata _t) external {... */\n    tag_4:\n      tag_12\n      0x04\n      dup1\n      calldatasize\n      sub\n      dup2\n      add\n      swap1\n      tag_13\n      swap2\n      swap1\n      tag_14\n      jump\t// in\n    tag_13:\n      tag_15\n      jump\t// in\n    tag_12:\n      stop\n        /* \"todo.sol\":481:608  function updateTask(uint _idx, string calldata _text) indexValid(_idx) external {... */\n    tag_5:\n      tag_16\n      0x04\n      dup1\n      calldatasize\n      sub\n      dup2\n      add\n      swap1\n      tag_17\n      swap2\n      swap1\n      tag_18\n      jump\t// in\n    tag_17:\n      tag_19\n      jump\t// in\n    tag_16:\n      stop\n        /* \"todo.sol\":614:696  function size()external view returns(uint){... */\n    tag_6:\n      tag_20\n      tag_21\n      jump\t// in\n    tag_20:\n      mload(0x40)\n      tag_22\n      swap2\n      swap1\n      tag_23\n      jump\t// in\n    tag_22:\n      mload(0x40)\n      dup1\n      swap2\n      sub\n      swap1\n      return\n        /* \"todo.sol\":155:176  task[] public myTasks */\n    tag_7:\n      tag_24\n      0x04\n      dup1\n      calldatasize\n      sub\n      dup2\n      add\n      swap1\n      tag_25\n      swap2\n      swap1\n      tag_10\n      jump\t// in\n    tag_25:\n      tag_26\n      jump\t// in\n    tag_24:\n      mload(0x40)\n      tag_27\n      swap3\n      swap2\n      swap1\n      tag_28\n      jump\t// in\n    tag_27:\n      mload(0x40)\n      dup1\n      swap2\n      sub\n      swap1\n      return\n        /* \"todo.sol\":704:833  function toggleCompleted(uint _idx) indexValid(_idx) external {... */\n    tag_11:\n        /* \"todo.sol\":751:755  _idx */\n      dup1\n        /* \"todo.sol\":226:234  uint len */\n      0x00\n        /* \"todo.sol\":238:245  myTasks */\n      dup1\n        /* \"todo.sol\":238:252  myTasks.length */\n      dup1\n      sload\n      swap1\n      pop\n        /* \"todo.sol\":226:252  uint len =  myTasks.length */\n      swap1\n      pop\n        /* \"todo.sol\":282:283  1 */\n      0x01\n        /* \"todo.sol\":278:281  len */\n      dup2\n        /* \"todo.sol\":278:283  len-1 */\n      tag_30\n      swap2\n      swap1\n      tag_31\n      jump\t// in\n    tag_30:\n        /* \"todo.sol\":271:275  _idx */\n      dup3\n        /* \"todo.sol\":271:283  _idx < len-1 */\n      lt\n        /* \"todo.sol\":263:305  require(_idx < len-1,\"index out of range\") */\n      tag_32\n      jumpi\n      mload(0x40)\n      0x08c379a000000000000000000000000000000000000000000000000000000000\n      dup2\n      mstore\n      0x04\n      add\n      tag_33\n      swap1\n      tag_34\n      jump\t// in\n    tag_33:\n      mload(0x40)\n      dup1\n      swap2\n      sub\n      swap1\n      revert\n    tag_32:\n        /* \"todo.sol\":803:810  myTasks */\n      0x00\n        /* \"todo.sol\":811:815  _idx */\n      dup4\n        /* \"todo.sol\":803:816  myTasks[_idx] */\n      dup2\n      sload\n      dup2\n      lt\n      tag_36\n      jumpi\n      tag_37\n      tag_38\n      jump\t// in\n    tag_37:\n    tag_36:\n      swap1\n      0x00\n      mstore\n      keccak256(0x00, 0x20)\n      swap1\n      0x02\n      mul\n      add\n        /* \"todo.sol\":803:825  myTasks[_idx].finished */\n      0x01\n      add\n      0x00\n      swap1\n      sload\n      swap1\n      0x0100\n      exp\n      swap1\n      div\n      0xff\n      and\n        /* \"todo.sol\":802:825  !myTasks[_idx].finished */\n      iszero\n        /* \"todo.sol\":777:784  myTasks */\n      0x00\n        /* \"todo.sol\":785:789  _idx */\n      dup5\n        /* \"todo.sol\":777:790  myTasks[_idx] */\n      dup2\n      sload\n      dup2\n      lt\n      tag_40\n      jumpi\n      tag_41\n      tag_38\n      jump\t// in\n    tag_41:\n    tag_40:\n      swap1\n      0x00\n      mstore\n      keccak256(0x00, 0x20)\n      swap1\n      0x02\n      mul\n      add\n        /* \"todo.sol\":777:799  myTasks[_idx].finished */\n      0x01\n      add\n      0x00\n        /* \"todo.sol\":777:825  myTasks[_idx].finished = !myTasks[_idx].finished */\n      0x0100\n      exp\n      dup2\n      sload\n      dup2\n      0xff\n      mul\n      not\n      and\n      swap1\n      dup4\n      iszero\n      iszero\n      mul\n      or\n      swap1\n      sstore\n      pop\n        /* \"todo.sol\":215:325  {... */\n      pop\n        /* \"todo.sol\":704:833  function toggleCompleted(uint _idx) indexValid(_idx) external {... */\n      pop\n      pop\n      jump\t// out\n        /* \"todo.sol\":331:475  function addTask(string calldata _t) external {... */\n    tag_15:\n        /* \"todo.sol\":388:403  task memory tmp */\n      0x00\n        /* \"todo.sol\":406:439  task({text: _t, finished: false}) */\n      mload(0x40)\n      dup1\n      0x40\n      add\n      0x40\n      mstore\n      dup1\n        /* \"todo.sol\":418:420  _t */\n      dup5\n      dup5\n        /* \"todo.sol\":406:439  task({text: _t, finished: false}) */\n      dup1\n      dup1\n      0x1f\n      add\n      0x20\n      dup1\n      swap2\n      div\n      mul\n      0x20\n      add\n      mload(0x40)\n      swap1\n      dup2\n      add\n      0x40\n      mstore\n      dup1\n      swap4\n      swap3\n      swap2\n      swap1\n      dup2\n      dup2\n      mstore\n      0x20\n      add\n      dup4\n      dup4\n      dup1\n      dup3\n      dup5\n      calldatacopy\n      0x00\n      dup2\n      dup5\n      add\n      mstore\n      not(0x1f)\n      0x1f\n      dup3\n      add\n      and\n      swap1\n      pop\n      dup1\n      dup4\n      add\n      swap3\n      pop\n      pop\n      pop\n      pop\n      pop\n      pop\n      pop\n      dup2\n      mstore\n      0x20\n      add\n        /* \"todo.sol\":432:437  false */\n      0x00\n        /* \"todo.sol\":406:439  task({text: _t, finished: false}) */\n      iszero\n      iszero\n      dup2\n      mstore\n      pop\n        /* \"todo.sol\":388:439  task memory tmp = task({text: _t, finished: false}) */\n      swap1\n      pop\n        /* \"todo.sol\":450:457  myTasks */\n      0x00\n        /* \"todo.sol\":463:466  tmp */\n      dup2\n        /* \"todo.sol\":450:467  myTasks.push(tmp) */\n      swap1\n      dup1\n      0x01\n      dup2\n      sload\n      add\n      dup1\n      dup3\n      sstore\n      dup1\n      swap2\n      pop\n      pop\n      0x01\n      swap1\n      sub\n      swap1\n      0x00\n      mstore\n      keccak256(0x00, 0x20)\n      swap1\n      0x02\n      mul\n      add\n      0x00\n      swap1\n      swap2\n      swap1\n      swap2\n      swap1\n      swap2\n      pop\n      0x00\n      dup3\n      add\n      mload\n      dup2\n      0x00\n      add\n      swap1\n      dup2\n      tag_45\n      swap2\n      swap1\n      tag_46\n      jump\t// in\n    tag_45:\n      pop\n      0x20\n      dup3\n      add\n      mload\n      dup2\n      0x01\n      add\n      exp(0x0100, 0x00)\n      dup2\n      sload\n      dup2\n      0xff\n      mul\n      not\n      and\n      swap1\n      dup4\n      iszero\n      iszero\n      mul\n      or\n      swap1\n      sstore\n      pop\n      pop\n      pop\n        /* \"todo.sol\":377:475  {... */\n      pop\n        /* \"todo.sol\":331:475  function addTask(string calldata _t) external {... */\n      pop\n      pop\n      jump\t// out\n        /* \"todo.sol\":481:608  function updateTask(uint _idx, string calldata _text) indexValid(_idx) external {... */\n    tag_19:\n        /* \"todo.sol\":546:550  _idx */\n      dup3\n        /* \"todo.sol\":226:234  uint len */\n      0x00\n        /* \"todo.sol\":238:245  myTasks */\n      dup1\n        /* \"todo.sol\":238:252  myTasks.length */\n      dup1\n      sload\n      swap1\n      pop\n        /* \"todo.sol\":226:252  uint len =  myTasks.length */\n      swap1\n      pop\n        /* \"todo.sol\":282:283  1 */\n      0x01\n        /* \"todo.sol\":278:281  len */\n      dup2\n        /* \"todo.sol\":278:283  len-1 */\n      tag_48\n      swap2\n      swap1\n      tag_31\n      jump\t// in\n    tag_48:\n        /* \"todo.sol\":271:275  _idx */\n      dup3\n        /* \"todo.sol\":271:283  _idx < len-1 */\n      lt\n        /* \"todo.sol\":263:305  require(_idx < len-1,\"index out of range\") */\n      tag_49\n      jumpi\n      mload(0x40)\n      0x08c379a000000000000000000000000000000000000000000000000000000000\n      dup2\n      mstore\n      0x04\n      add\n      tag_50\n      swap1\n      tag_34\n      jump\t// in\n    tag_50:\n      mload(0x40)\n      dup1\n      swap2\n      sub\n      swap1\n      revert\n    tag_49:\n        /* \"todo.sol\":595:600  _text */\n      dup4\n      dup4\n        /* \"todo.sol\":574:581  myTasks */\n      0x00\n        /* \"todo.sol\":582:586  _idx */\n      dup8\n        /* \"todo.sol\":574:587  myTasks[_idx] */\n      dup2\n      sload\n      dup2\n      lt\n      tag_52\n      jumpi\n      tag_53\n      tag_38\n      jump\t// in\n    tag_53:\n    tag_52:\n      swap1\n      0x00\n      mstore\n      keccak256(0x00, 0x20)\n      swap1\n      0x02\n      mul\n      add\n        /* \"todo.sol\":574:592  myTasks[_idx].text */\n      0x00\n      add\n        /* \"todo.sol\":574:600  myTasks[_idx].text = _text */\n      swap2\n      dup3\n      tag_55\n      swap3\n      swap2\n      swap1\n      tag_56\n      jump\t// in\n    tag_55:\n      pop\n        /* \"todo.sol\":215:325  {... */\n      pop\n        /* \"todo.sol\":481:608  function updateTask(uint _idx, string calldata _text) indexValid(_idx) external {... */\n      pop\n      pop\n      pop\n      pop\n      jump\t// out\n        /* \"todo.sol\":614:696  function size()external view returns(uint){... */\n    tag_21:\n        /* \"todo.sol\":651:655  uint */\n      0x00\n        /* \"todo.sol\":674:681  myTasks */\n      dup1\n        /* \"todo.sol\":674:688  myTasks.length */\n      dup1\n      sload\n      swap1\n      pop\n        /* \"todo.sol\":667:688  return myTasks.length */\n      swap1\n      pop\n        /* \"todo.sol\":614:696  function size()external view returns(uint){... */\n      swap1\n      jump\t// out\n        /* \"todo.sol\":155:176  task[] public myTasks */\n    tag_26:\n      0x00\n      dup2\n      dup2\n      sload\n      dup2\n      lt\n      tag_58\n      jumpi\n      0x00\n      dup1\n      revert\n    tag_58:\n      swap1\n      0x00\n      mstore\n      keccak256(0x00, 0x20)\n      swap1\n      0x02\n      mul\n      add\n      0x00\n      swap2\n      pop\n      swap1\n      pop\n      dup1\n      0x00\n      add\n      dup1\n      sload\n      tag_60\n      swap1\n      tag_61\n      jump\t// in\n    tag_60:\n      dup1\n      0x1f\n      add\n      0x20\n      dup1\n      swap2\n      div\n      mul\n      0x20\n      add\n      mload(0x40)\n      swap1\n      dup2\n      add\n      0x40\n      mstore\n      dup1\n      swap3\n      swap2\n      swap1\n      dup2\n      dup2\n      mstore\n      0x20\n      add\n      dup3\n      dup1\n      sload\n      tag_62\n      swap1\n      tag_61\n      jump\t// in\n    tag_62:\n      dup1\n      iszero\n      tag_63\n      jumpi\n      dup1\n      0x1f\n      lt\n      tag_64\n      jumpi\n      0x0100\n      dup1\n      dup4\n      sload\n      div\n      mul\n      dup4\n      mstore\n      swap2\n      0x20\n      add\n      swap2\n      jump(tag_63)\n    tag_64:\n      dup3\n      add\n      swap2\n      swap1\n      0x00\n      mstore\n      keccak256(0x00, 0x20)\n      swap1\n    tag_65:\n      dup2\n      sload\n      dup2\n      mstore\n      swap1\n      0x01\n      add\n      swap1\n      0x20\n      add\n      dup1\n      dup4\n      gt\n      tag_65\n      jumpi\n      dup3\n      swap1\n      sub\n      0x1f\n      and\n      dup3\n      add\n      swap2\n    tag_63:\n      pop\n      pop\n      pop\n      pop\n      pop\n      swap1\n      dup1\n      0x01\n      add\n      0x00\n      swap1\n      sload\n      swap1\n      0x0100\n      exp\n      swap1\n      div\n      0xff\n      and\n      swap1\n      pop\n      dup3\n      jump\t// out\n        /* \"#utility.yul\":88:205   */\n    tag_67:\n        /* \"#utility.yul\":197:198   */\n      0x00\n        /* \"#utility.yul\":194:195   */\n      dup1\n        /* \"#utility.yul\":187:199   */\n      revert\n        /* \"#utility.yul\":211:328   */\n    tag_68:\n        /* \"#utility.yul\":320:321   */\n      0x00\n        /* \"#utility.yul\":317:318   */\n      dup1\n        /* \"#utility.yul\":310:322   */\n      revert\n        /* \"#utility.yul\":334:411   */\n    tag_69:\n        /* \"#utility.yul\":371:378   */\n      0x00\n        /* \"#utility.yul\":400:405   */\n      dup2\n        /* \"#utility.yul\":389:405   */\n      swap1\n      pop\n        /* \"#utility.yul\":334:411   */\n      swap2\n      swap1\n      pop\n      jump\t// out\n        /* \"#utility.yul\":417:539   */\n    tag_70:\n        /* \"#utility.yul\":490:514   */\n      tag_111\n        /* \"#utility.yul\":508:513   */\n      dup2\n        /* \"#utility.yul\":490:514   */\n      tag_69\n      jump\t// in\n    tag_111:\n        /* \"#utility.yul\":483:488   */\n      dup2\n        /* \"#utility.yul\":480:515   */\n      eq\n        /* \"#utility.yul\":470:533   */\n      tag_112\n      jumpi\n        /* \"#utility.yul\":529:530   */\n      0x00\n        /* \"#utility.yul\":526:527   */\n      dup1\n        /* \"#utility.yul\":519:531   */\n      revert\n        /* \"#utility.yul\":470:533   */\n    tag_112:\n        /* \"#utility.yul\":417:539   */\n      pop\n      jump\t// out\n        /* \"#utility.yul\":545:684   */\n    tag_71:\n        /* \"#utility.yul\":591:596   */\n      0x00\n        /* \"#utility.yul\":629:635   */\n      dup2\n        /* \"#utility.yul\":616:636   */\n      calldataload\n        /* \"#utility.yul\":607:636   */\n      swap1\n      pop\n        /* \"#utility.yul\":645:678   */\n      tag_114\n        /* \"#utility.yul\":672:677   */\n      dup2\n        /* \"#utility.yul\":645:678   */\n      tag_70\n      jump\t// in\n    tag_114:\n        /* \"#utility.yul\":545:684   */\n      swap3\n      swap2\n      pop\n      pop\n      jump\t// out\n        /* \"#utility.yul\":690:1019   */\n    tag_10:\n        /* \"#utility.yul\":749:755   */\n      0x00\n        /* \"#utility.yul\":798:800   */\n      0x20\n        /* \"#utility.yul\":786:795   */\n      dup3\n        /* \"#utility.yul\":777:784   */\n      dup5\n        /* \"#utility.yul\":773:796   */\n      sub\n        /* \"#utility.yul\":769:801   */\n      slt\n        /* \"#utility.yul\":766:885   */\n      iszero\n      tag_116\n      jumpi\n        /* \"#utility.yul\":804:883   */\n      tag_117\n      tag_67\n      jump\t// in\n    tag_117:\n        /* \"#utility.yul\":766:885   */\n    tag_116:\n        /* \"#utility.yul\":924:925   */\n      0x00\n        /* \"#utility.yul\":949:1002   */\n      tag_118\n        /* \"#utility.yul\":994:1001   */\n      dup5\n        /* \"#utility.yul\":985:991   */\n      dup3\n        /* \"#utility.yul\":974:983   */\n      dup6\n        /* \"#utility.yul\":970:992   */\n      add\n        /* \"#utility.yul\":949:1002   */\n      tag_71\n      jump\t// in\n    tag_118:\n        /* \"#utility.yul\":939:1002   */\n      swap2\n      pop\n        /* \"#utility.yul\":895:1012   */\n      pop\n        /* \"#utility.yul\":690:1019   */\n      swap3\n      swap2\n      pop\n      pop\n      jump\t// out\n        /* \"#utility.yul\":1025:1142   */\n    tag_72:\n        /* \"#utility.yul\":1134:1135   */\n      0x00\n        /* \"#utility.yul\":1131:1132   */\n      dup1\n        /* \"#utility.yul\":1124:1136   */\n      revert\n        /* \"#utility.yul\":1148:1265   */\n    tag_73:\n        /* \"#utility.yul\":1257:1258   */\n      0x00\n        /* \"#utility.yul\":1254:1255   */\n      dup1\n        /* \"#utility.yul\":1247:1259   */\n      revert\n        /* \"#utility.yul\":1271:1388   */\n    tag_74:\n        /* \"#utility.yul\":1380:1381   */\n      0x00\n        /* \"#utility.yul\":1377:1378   */\n      dup1\n        /* \"#utility.yul\":1370:1382   */\n      revert\n        /* \"#utility.yul\":1408:1961   */\n    tag_75:\n        /* \"#utility.yul\":1466:1474   */\n      0x00\n        /* \"#utility.yul\":1476:1482   */\n      dup1\n        /* \"#utility.yul\":1526:1529   */\n      dup4\n        /* \"#utility.yul\":1519:1523   */\n      0x1f\n        /* \"#utility.yul\":1511:1517   */\n      dup5\n        /* \"#utility.yul\":1507:1524   */\n      add\n        /* \"#utility.yul\":1503:1530   */\n      slt\n        /* \"#utility.yul\":1493:1615   */\n      tag_123\n      jumpi\n        /* \"#utility.yul\":1534:1613   */\n      tag_124\n      tag_72\n      jump\t// in\n    tag_124:\n        /* \"#utility.yul\":1493:1615   */\n    tag_123:\n        /* \"#utility.yul\":1647:1653   */\n      dup3\n        /* \"#utility.yul\":1634:1654   */\n      calldataload\n        /* \"#utility.yul\":1624:1654   */\n      swap1\n      pop\n        /* \"#utility.yul\":1677:1695   */\n      0xffffffffffffffff\n        /* \"#utility.yul\":1669:1675   */\n      dup2\n        /* \"#utility.yul\":1666:1696   */\n      gt\n        /* \"#utility.yul\":1663:1780   */\n      iszero\n      tag_125\n      jumpi\n        /* \"#utility.yul\":1699:1778   */\n      tag_126\n      tag_73\n      jump\t// in\n    tag_126:\n        /* \"#utility.yul\":1663:1780   */\n    tag_125:\n        /* \"#utility.yul\":1813:1817   */\n      0x20\n        /* \"#utility.yul\":1805:1811   */\n      dup4\n        /* \"#utility.yul\":1801:1818   */\n      add\n        /* \"#utility.yul\":1789:1818   */\n      swap2\n      pop\n        /* \"#utility.yul\":1867:1870   */\n      dup4\n        /* \"#utility.yul\":1859:1863   */\n      0x01\n        /* \"#utility.yul\":1851:1857   */\n      dup3\n        /* \"#utility.yul\":1847:1864   */\n      mul\n        /* \"#utility.yul\":1837:1845   */\n      dup4\n        /* \"#utility.yul\":1833:1865   */\n      add\n        /* \"#utility.yul\":1830:1871   */\n      gt\n        /* \"#utility.yul\":1827:1955   */\n      iszero\n      tag_127\n      jumpi\n        /* \"#utility.yul\":1874:1953   */\n      tag_128\n      tag_74\n      jump\t// in\n    tag_128:\n        /* \"#utility.yul\":1827:1955   */\n    tag_127:\n        /* \"#utility.yul\":1408:1961   */\n      swap3\n      pop\n      swap3\n      swap1\n      pop\n      jump\t// out\n        /* \"#utility.yul\":1967:2496   */\n    tag_14:\n        /* \"#utility.yul\":2038:2044   */\n      0x00\n        /* \"#utility.yul\":2046:2052   */\n      dup1\n        /* \"#utility.yul\":2095:2097   */\n      0x20\n        /* \"#utility.yul\":2083:2092   */\n      dup4\n        /* \"#utility.yul\":2074:2081   */\n      dup6\n        /* \"#utility.yul\":2070:2093   */\n      sub\n        /* \"#utility.yul\":2066:2098   */\n      slt\n        /* \"#utility.yul\":2063:2182   */\n      iszero\n      tag_130\n      jumpi\n        /* \"#utility.yul\":2101:2180   */\n      tag_131\n      tag_67\n      jump\t// in\n    tag_131:\n        /* \"#utility.yul\":2063:2182   */\n    tag_130:\n        /* \"#utility.yul\":2249:2250   */\n      0x00\n        /* \"#utility.yul\":2238:2247   */\n      dup4\n        /* \"#utility.yul\":2234:2251   */\n      add\n        /* \"#utility.yul\":2221:2252   */\n      calldataload\n        /* \"#utility.yul\":2279:2297   */\n      0xffffffffffffffff\n        /* \"#utility.yul\":2271:2277   */\n      dup2\n        /* \"#utility.yul\":2268:2298   */\n      gt\n        /* \"#utility.yul\":2265:2382   */\n      iszero\n      tag_132\n      jumpi\n        /* \"#utility.yul\":2301:2380   */\n      tag_133\n      tag_68\n      jump\t// in\n    tag_133:\n        /* \"#utility.yul\":2265:2382   */\n    tag_132:\n        /* \"#utility.yul\":2414:2479   */\n      tag_134\n        /* \"#utility.yul\":2471:2478   */\n      dup6\n        /* \"#utility.yul\":2462:2468   */\n      dup3\n        /* \"#utility.yul\":2451:2460   */\n      dup7\n        /* \"#utility.yul\":2447:2469   */\n      add\n        /* \"#utility.yul\":2414:2479   */\n      tag_75\n      jump\t// in\n    tag_134:\n        /* \"#utility.yul\":2396:2479   */\n      swap3\n      pop\n      swap3\n      pop\n        /* \"#utility.yul\":2192:2489   */\n      pop\n        /* \"#utility.yul\":1967:2496   */\n      swap3\n      pop\n      swap3\n      swap1\n      pop\n      jump\t// out\n        /* \"#utility.yul\":2502:3176   */\n    tag_18:\n        /* \"#utility.yul\":2582:2588   */\n      0x00\n        /* \"#utility.yul\":2590:2596   */\n      dup1\n        /* \"#utility.yul\":2598:2604   */\n      0x00\n        /* \"#utility.yul\":2647:2649   */\n      0x40\n        /* \"#utility.yul\":2635:2644   */\n      dup5\n        /* \"#utility.yul\":2626:2633   */\n      dup7\n        /* \"#utility.yul\":2622:2645   */\n      sub\n        /* \"#utility.yul\":2618:2650   */\n      slt\n        /* \"#utility.yul\":2615:2734   */\n      iszero\n      tag_136\n      jumpi\n        /* \"#utility.yul\":2653:2732   */\n      tag_137\n      tag_67\n      jump\t// in\n    tag_137:\n        /* \"#utility.yul\":2615:2734   */\n    tag_136:\n        /* \"#utility.yul\":2773:2774   */\n      0x00\n        /* \"#utility.yul\":2798:2851   */\n      tag_138\n        /* \"#utility.yul\":2843:2850   */\n      dup7\n        /* \"#utility.yul\":2834:2840   */\n      dup3\n        /* \"#utility.yul\":2823:2832   */\n      dup8\n        /* \"#utility.yul\":2819:2841   */\n      add\n        /* \"#utility.yul\":2798:2851   */\n      tag_71\n      jump\t// in\n    tag_138:\n        /* \"#utility.yul\":2788:2851   */\n      swap4\n      pop\n        /* \"#utility.yul\":2744:2861   */\n      pop\n        /* \"#utility.yul\":2928:2930   */\n      0x20\n        /* \"#utility.yul\":2917:2926   */\n      dup5\n        /* \"#utility.yul\":2913:2931   */\n      add\n        /* \"#utility.yul\":2900:2932   */\n      calldataload\n        /* \"#utility.yul\":2959:2977   */\n      0xffffffffffffffff\n        /* \"#utility.yul\":2951:2957   */\n      dup2\n        /* \"#utility.yul\":2948:2978   */\n      gt\n        /* \"#utility.yul\":2945:3062   */\n      iszero\n      tag_139\n      jumpi\n        /* \"#utility.yul\":2981:3060   */\n      tag_140\n      tag_68\n      jump\t// in\n    tag_140:\n        /* \"#utility.yul\":2945:3062   */\n    tag_139:\n        /* \"#utility.yul\":3094:3159   */\n      tag_141\n        /* \"#utility.yul\":3151:3158   */\n      dup7\n        /* \"#utility.yul\":3142:3148   */\n      dup3\n        /* \"#utility.yul\":3131:3140   */\n      dup8\n        /* \"#utility.yul\":3127:3149   */\n      add\n        /* \"#utility.yul\":3094:3159   */\n      tag_75\n      jump\t// in\n    tag_141:\n        /* \"#utility.yul\":3076:3159   */\n      swap3\n      pop\n      swap3\n      pop\n        /* \"#utility.yul\":2871:3169   */\n      pop\n        /* \"#utility.yul\":2502:3176   */\n      swap3\n      pop\n      swap3\n      pop\n      swap3\n      jump\t// out\n        /* \"#utility.yul\":3182:3300   */\n    tag_76:\n        /* \"#utility.yul\":3269:3293   */\n      tag_143\n        /* \"#utility.yul\":3287:3292   */\n      dup2\n        /* \"#utility.yul\":3269:3293   */\n      tag_69\n      jump\t// in\n    tag_143:\n        /* \"#utility.yul\":3264:3267   */\n      dup3\n        /* \"#utility.yul\":3257:3294   */\n      mstore\n        /* \"#utility.yul\":3182:3300   */\n      pop\n      pop\n      jump\t// out\n        /* \"#utility.yul\":3306:3528   */\n    tag_23:\n        /* \"#utility.yul\":3399:3403   */\n      0x00\n        /* \"#utility.yul\":3437:3439   */\n      0x20\n        /* \"#utility.yul\":3426:3435   */\n      dup3\n        /* \"#utility.yul\":3422:3440   */\n      add\n        /* \"#utility.yul\":3414:3440   */\n      swap1\n      pop\n        /* \"#utility.yul\":3450:3521   */\n      tag_145\n        /* \"#utility.yul\":3518:3519   */\n      0x00\n        /* \"#utility.yul\":3507:3516   */\n      dup4\n        /* \"#utility.yul\":3503:3520   */\n      add\n        /* \"#utility.yul\":3494:3500   */\n      dup5\n        /* \"#utility.yul\":3450:3521   */\n      tag_76\n      jump\t// in\n    tag_145:\n        /* \"#utility.yul\":3306:3528   */\n      swap3\n      swap2\n      pop\n      pop\n      jump\t// out\n        /* \"#utility.yul\":3534:3633   */\n    tag_77:\n        /* \"#utility.yul\":3586:3592   */\n      0x00\n        /* \"#utility.yul\":3620:3625   */\n      dup2\n        /* \"#utility.yul\":3614:3626   */\n      mload\n        /* \"#utility.yul\":3604:3626   */\n      swap1\n      pop\n        /* \"#utility.yul\":3534:3633   */\n      swap2\n      swap1\n      pop\n      jump\t// out\n        /* \"#utility.yul\":3639:3808   */\n    tag_78:\n        /* \"#utility.yul\":3723:3734   */\n      0x00\n        /* \"#utility.yul\":3757:3763   */\n      dup3\n        /* \"#utility.yul\":3752:3755   */\n      dup3\n        /* \"#utility.yul\":3745:3764   */\n      mstore\n        /* \"#utility.yul\":3797:3801   */\n      0x20\n        /* \"#utility.yul\":3792:3795   */\n      dup3\n        /* \"#utility.yul\":3788:3802   */\n      add\n        /* \"#utility.yul\":3773:3802   */\n      swap1\n      pop\n        /* \"#utility.yul\":3639:3808   */\n      swap3\n      swap2\n      pop\n      pop\n      jump\t// out\n        /* \"#utility.yul\":3814:3953   */\n    tag_79:\n        /* \"#utility.yul\":3903:3909   */\n      dup3\n        /* \"#utility.yul\":3898:3901   */\n      dup2\n        /* \"#utility.yul\":3893:3896   */\n      dup4\n        /* \"#utility.yul\":3887:3910   */\n      mcopy\n        /* \"#utility.yul\":3944:3945   */\n      0x00\n        /* \"#utility.yul\":3935:3941   */\n      dup4\n        /* \"#utility.yul\":3930:3933   */\n      dup4\n        /* \"#utility.yul\":3926:3942   */\n      add\n        /* \"#utility.yul\":3919:3946   */\n      mstore\n        /* \"#utility.yul\":3814:3953   */\n      pop\n      pop\n      pop\n      jump\t// out\n        /* \"#utility.yul\":3959:4061   */\n    tag_80:\n        /* \"#utility.yul\":4000:4006   */\n      0x00\n        /* \"#utility.yul\":4051:4053   */\n      0x1f\n        /* \"#utility.yul\":4047:4054   */\n      not\n        /* \"#utility.yul\":4042:4044   */\n      0x1f\n        /* \"#utility.yul\":4035:4040   */\n      dup4\n        /* \"#utility.yul\":4031:4045   */\n      add\n        /* \"#utility.yul\":4027:4055   */\n      and\n        /* \"#utility.yul\":4017:4055   */\n      swap1\n      pop\n        /* \"#utility.yul\":3959:4061   */\n      swap2\n      swap1\n      pop\n      jump\t// out\n        /* \"#utility.yul\":4067:4444   */\n    tag_81:\n        /* \"#utility.yul\":4155:4158   */\n      0x00\n        /* \"#utility.yul\":4183:4222   */\n      tag_151\n        /* \"#utility.yul\":4216:4221   */\n      dup3\n        /* \"#utility.yul\":4183:4222   */\n      tag_77\n      jump\t// in\n    tag_151:\n        /* \"#utility.yul\":4238:4309   */\n      tag_152\n        /* \"#utility.yul\":4302:4308   */\n      dup2\n        /* \"#utility.yul\":4297:4300   */\n      dup6\n        /* \"#utility.yul\":4238:4309   */\n      tag_78\n      jump\t// in\n    tag_152:\n        /* \"#utility.yul\":4231:4309   */\n      swap4\n      pop\n        /* \"#utility.yul\":4318:4383   */\n      tag_153\n        /* \"#utility.yul\":4376:4382   */\n      dup2\n        /* \"#utility.yul\":4371:4374   */\n      dup6\n        /* \"#utility.yul\":4364:4368   */\n      0x20\n        /* \"#utility.yul\":4357:4362   */\n      dup7\n        /* \"#utility.yul\":4353:4369   */\n      add\n        /* \"#utility.yul\":4318:4383   */\n      tag_79\n      jump\t// in\n    tag_153:\n        /* \"#utility.yul\":4408:4437   */\n      tag_154\n        /* \"#utility.yul\":4430:4436   */\n      dup2\n        /* \"#utility.yul\":4408:4437   */\n      tag_80\n      jump\t// in\n    tag_154:\n        /* \"#utility.yul\":4403:4406   */\n      dup5\n        /* \"#utility.yul\":4399:4438   */\n      add\n        /* \"#utility.yul\":4392:4438   */\n      swap2\n      pop\n        /* \"#utility.yul\":4159:4444   */\n      pop\n        /* \"#utility.yul\":4067:4444   */\n      swap3\n      swap2\n      pop\n      pop\n      jump\t// out\n        /* \"#utility.yul\":4450:4540   */\n    tag_82:\n        /* \"#utility.yul\":4484:4491   */\n      0x00\n        /* \"#utility.yul\":4527:4532   */\n      dup2\n        /* \"#utility.yul\":4520:4533   */\n      iszero\n        /* \"#utility.yul\":4513:4534   */\n      iszero\n        /* \"#utility.yul\":4502:4534   */\n      swap1\n      pop\n        /* \"#utility.yul\":4450:4540   */\n      swap2\n      swap1\n      pop\n      jump\t// out\n        /* \"#utility.yul\":4546:4655   */\n    tag_83:\n        /* \"#utility.yul\":4627:4648   */\n      tag_157\n        /* \"#utility.yul\":4642:4647   */\n      dup2\n        /* \"#utility.yul\":4627:4648   */\n      tag_82\n      jump\t// in\n    tag_157:\n        /* \"#utility.yul\":4622:4625   */\n      dup3\n        /* \"#utility.yul\":4615:4649   */\n      mstore\n        /* \"#utility.yul\":4546:4655   */\n      pop\n      pop\n      jump\t// out\n        /* \"#utility.yul\":4661:5072   */\n    tag_28:\n        /* \"#utility.yul\":4796:4800   */\n      0x00\n        /* \"#utility.yul\":4834:4836   */\n      0x40\n        /* \"#utility.yul\":4823:4832   */\n      dup3\n        /* \"#utility.yul\":4819:4837   */\n      add\n        /* \"#utility.yul\":4811:4837   */\n      swap1\n      pop\n        /* \"#utility.yul\":4883:4892   */\n      dup2\n        /* \"#utility.yul\":4877:4881   */\n      dup2\n        /* \"#utility.yul\":4873:4893   */\n      sub\n        /* \"#utility.yul\":4869:4870   */\n      0x00\n        /* \"#utility.yul\":4858:4867   */\n      dup4\n        /* \"#utility.yul\":4854:4871   */\n      add\n        /* \"#utility.yul\":4847:4894   */\n      mstore\n        /* \"#utility.yul\":4911:4989   */\n      tag_159\n        /* \"#utility.yul\":4984:4988   */\n      dup2\n        /* \"#utility.yul\":4975:4981   */\n      dup6\n        /* \"#utility.yul\":4911:4989   */\n      tag_81\n      jump\t// in\n    tag_159:\n        /* \"#utility.yul\":4903:4989   */\n      swap1\n      pop\n        /* \"#utility.yul\":4999:5065   */\n      tag_160\n        /* \"#utility.yul\":5061:5063   */\n      0x20\n        /* \"#utility.yul\":5050:5059   */\n      dup4\n        /* \"#utility.yul\":5046:5064   */\n      add\n        /* \"#utility.yul\":5037:5043   */\n      dup5\n        /* \"#utility.yul\":4999:5065   */\n      tag_83\n      jump\t// in\n    tag_160:\n        /* \"#utility.yul\":4661:5072   */\n      swap4\n      swap3\n      pop\n      pop\n      pop\n      jump\t// out\n        /* \"#utility.yul\":5078:5258   */\n    tag_84:\n        /* \"#utility.yul\":5126:5203   */\n      0x4e487b7100000000000000000000000000000000000000000000000000000000\n        /* \"#utility.yul\":5123:5124   */\n      0x00\n        /* \"#utility.yul\":5116:5204   */\n      mstore\n        /* \"#utility.yul\":5223:5227   */\n      0x11\n        /* \"#utility.yul\":5220:5221   */\n      0x04\n        /* \"#utility.yul\":5213:5228   */\n      mstore\n        /* \"#utility.yul\":5247:5251   */\n      0x24\n        /* \"#utility.yul\":5244:5245   */\n      0x00\n        /* \"#utility.yul\":5237:5252   */\n      revert\n        /* \"#utility.yul\":5264:5458   */\n    tag_31:\n        /* \"#utility.yul\":5304:5308   */\n      0x00\n        /* \"#utility.yul\":5324:5344   */\n      tag_163\n        /* \"#utility.yul\":5342:5343   */\n      dup3\n        /* \"#utility.yul\":5324:5344   */\n      tag_69\n      jump\t// in\n    tag_163:\n        /* \"#utility.yul\":5319:5344   */\n      swap2\n      pop\n        /* \"#utility.yul\":5358:5378   */\n      tag_164\n        /* \"#utility.yul\":5376:5377   */\n      dup4\n        /* \"#utility.yul\":5358:5378   */\n      tag_69\n      jump\t// in\n    tag_164:\n        /* \"#utility.yul\":5353:5378   */\n      swap3\n      pop\n        /* \"#utility.yul\":5402:5403   */\n      dup3\n        /* \"#utility.yul\":5399:5400   */\n      dup3\n        /* \"#utility.yul\":5395:5404   */\n      sub\n        /* \"#utility.yul\":5387:5404   */\n      swap1\n      pop\n        /* \"#utility.yul\":5426:5427   */\n      dup2\n        /* \"#utility.yul\":5420:5424   */\n      dup2\n        /* \"#utility.yul\":5417:5428   */\n      gt\n        /* \"#utility.yul\":5414:5451   */\n      iszero\n      tag_165\n      jumpi\n        /* \"#utility.yul\":5431:5449   */\n      tag_166\n      tag_84\n      jump\t// in\n    tag_166:\n        /* \"#utility.yul\":5414:5451   */\n    tag_165:\n        /* \"#utility.yul\":5264:5458   */\n      swap3\n      swap2\n      pop\n      pop\n      jump\t// out\n        /* \"#utility.yul\":5464:5632   */\n    tag_85:\n        /* \"#utility.yul\":5604:5624   */\n      0x696e646578206f7574206f662072616e67650000000000000000000000000000\n        /* \"#utility.yul\":5600:5601   */\n      0x00\n        /* \"#utility.yul\":5592:5598   */\n      dup3\n        /* \"#utility.yul\":5588:5602   */\n      add\n        /* \"#utility.yul\":5581:5625   */\n      mstore\n        /* \"#utility.yul\":5464:5632   */\n      pop\n      jump\t// out\n        /* \"#utility.yul\":5638:6004   */\n    tag_86:\n        /* \"#utility.yul\":5780:5783   */\n      0x00\n        /* \"#utility.yul\":5801:5868   */\n      tag_169\n        /* \"#utility.yul\":5865:5867   */\n      0x12\n        /* \"#utility.yul\":5860:5863   */\n      dup4\n        /* \"#utility.yul\":5801:5868   */\n      tag_78\n      jump\t// in\n    tag_169:\n        /* \"#utility.yul\":5794:5868   */\n      swap2\n      pop\n        /* \"#utility.yul\":5877:5970   */\n      tag_170\n        /* \"#utility.yul\":5966:5969   */\n      dup3\n        /* \"#utility.yul\":5877:5970   */\n      tag_85\n      jump\t// in\n    tag_170:\n        /* \"#utility.yul\":5995:5997   */\n      0x20\n        /* \"#utility.yul\":5990:5993   */\n      dup3\n        /* \"#utility.yul\":5986:5998   */\n      add\n        /* \"#utility.yul\":5979:5998   */\n      swap1\n      pop\n        /* \"#utility.yul\":5638:6004   */\n      swap2\n      swap1\n      pop\n      jump\t// out\n        /* \"#utility.yul\":6010:6429   */\n    tag_34:\n        /* \"#utility.yul\":6176:6180   */\n      0x00\n        /* \"#utility.yul\":6214:6216   */\n      0x20\n        /* \"#utility.yul\":6203:6212   */\n      dup3\n        /* \"#utility.yul\":6199:6217   */\n      add\n        /* \"#utility.yul\":6191:6217   */\n      swap1\n      pop\n        /* \"#utility.yul\":6263:6272   */\n      dup2\n        /* \"#utility.yul\":6257:6261   */\n      dup2\n        /* \"#utility.yul\":6253:6273   */\n      sub\n        /* \"#utility.yul\":6249:6250   */\n      0x00\n        /* \"#utility.yul\":6238:6247   */\n      dup4\n        /* \"#utility.yul\":6234:6251   */\n      add\n        /* \"#utility.yul\":6227:6274   */\n      mstore\n        /* \"#utility.yul\":6291:6422   */\n      tag_172\n        /* \"#utility.yul\":6417:6421   */\n      dup2\n        /* \"#utility.yul\":6291:6422   */\n      tag_86\n      jump\t// in\n    tag_172:\n        /* \"#utility.yul\":6283:6422   */\n      swap1\n      pop\n        /* \"#utility.yul\":6010:6429   */\n      swap2\n      swap1\n      pop\n      jump\t// out\n        /* \"#utility.yul\":6435:6615   */\n    tag_38:\n        /* \"#utility.yul\":6483:6560   */\n      0x4e487b7100000000000000000000000000000000000000000000000000000000\n        /* \"#utility.yul\":6480:6481   */\n      0x00\n        /* \"#utility.yul\":6473:6561   */\n      mstore\n        /* \"#utility.yul\":6580:6584   */\n      0x32\n        /* \"#utility.yul\":6577:6578   */\n      0x04\n        /* \"#utility.yul\":6570:6585   */\n      mstore\n        /* \"#utility.yul\":6604:6608   */\n      0x24\n        /* \"#utility.yul\":6601:6602   */\n      0x00\n        /* \"#utility.yul\":6594:6609   */\n      revert\n        /* \"#utility.yul\":6621:6801   */\n    tag_87:\n        /* \"#utility.yul\":6669:6746   */\n      0x4e487b7100000000000000000000000000000000000000000000000000000000\n        /* \"#utility.yul\":6666:6667   */\n      0x00\n        /* \"#utility.yul\":6659:6747   */\n      mstore\n        /* \"#utility.yul\":6766:6770   */\n      0x41\n        /* \"#utility.yul\":6763:6764   */\n      0x04\n        /* \"#utility.yul\":6756:6771   */\n      mstore\n        /* \"#utility.yul\":6790:6794   */\n      0x24\n        /* \"#utility.yul\":6787:6788   */\n      0x00\n        /* \"#utility.yul\":6780:6795   */\n      revert\n        /* \"#utility.yul\":6807:6987   */\n    tag_88:\n        /* \"#utility.yul\":6855:6932   */\n      0x4e487b7100000000000000000000000000000000000000000000000000000000\n        /* \"#utility.yul\":6852:6853   */\n      0x00\n        /* \"#utility.yul\":6845:6933   */\n      mstore\n        /* \"#utility.yul\":6952:6956   */\n      0x22\n        /* \"#utility.yul\":6949:6950   */\n      0x04\n        /* \"#utility.yul\":6942:6957   */\n      mstore\n        /* \"#utility.yul\":6976:6980   */\n      0x24\n        /* \"#utility.yul\":6973:6974   */\n      0x00\n        /* \"#utility.yul\":6966:6981   */\n      revert\n        /* \"#utility.yul\":6993:7313   */\n    tag_61:\n        /* \"#utility.yul\":7037:7043   */\n      0x00\n        /* \"#utility.yul\":7074:7075   */\n      0x02\n        /* \"#utility.yul\":7068:7072   */\n      dup3\n        /* \"#utility.yul\":7064:7076   */\n      div\n        /* \"#utility.yul\":7054:7076   */\n      swap1\n      pop\n        /* \"#utility.yul\":7121:7122   */\n      0x01\n        /* \"#utility.yul\":7115:7119   */\n      dup3\n        /* \"#utility.yul\":7111:7123   */\n      and\n        /* \"#utility.yul\":7142:7160   */\n      dup1\n        /* \"#utility.yul\":7132:7213   */\n      tag_177\n      jumpi\n        /* \"#utility.yul\":7198:7202   */\n      0x7f\n        /* \"#utility.yul\":7190:7196   */\n      dup3\n        /* \"#utility.yul\":7186:7203   */\n      and\n        /* \"#utility.yul\":7176:7203   */\n      swap2\n      pop\n        /* \"#utility.yul\":7132:7213   */\n    tag_177:\n        /* \"#utility.yul\":7260:7262   */\n      0x20\n        /* \"#utility.yul\":7252:7258   */\n      dup3\n        /* \"#utility.yul\":7249:7263   */\n      lt\n        /* \"#utility.yul\":7229:7247   */\n      dup2\n        /* \"#utility.yul\":7226:7264   */\n      sub\n        /* \"#utility.yul\":7223:7307   */\n      tag_178\n      jumpi\n        /* \"#utility.yul\":7279:7297   */\n      tag_179\n      tag_88\n      jump\t// in\n    tag_179:\n        /* \"#utility.yul\":7223:7307   */\n    tag_178:\n        /* \"#utility.yul\":7044:7313   */\n      pop\n        /* \"#utility.yul\":6993:7313   */\n      swap2\n      swap1\n      pop\n      jump\t// out\n        /* \"#utility.yul\":7319:7460   */\n    tag_89:\n        /* \"#utility.yul\":7368:7372   */\n      0x00\n        /* \"#utility.yul\":7391:7394   */\n      dup2\n        /* \"#utility.yul\":7383:7394   */\n      swap1\n      pop\n        /* \"#utility.yul\":7414:7417   */\n      dup2\n        /* \"#utility.yul\":7411:7412   */\n      0x00\n        /* \"#utility.yul\":7404:7418   */\n      mstore\n        /* \"#utility.yul\":7448:7452   */\n      0x20\n        /* \"#utility.yul\":7445:7446   */\n      0x00\n        /* \"#utility.yul\":7435:7453   */\n      keccak256\n        /* \"#utility.yul\":7427:7453   */\n      swap1\n      pop\n        /* \"#utility.yul\":7319:7460   */\n      swap2\n      swap1\n      pop\n      jump\t// out\n        /* \"#utility.yul\":7466:7559   */\n    tag_90:\n        /* \"#utility.yul\":7503:7509   */\n      0x00\n        /* \"#utility.yul\":7550:7552   */\n      0x20\n        /* \"#utility.yul\":7545:7547   */\n      0x1f\n        /* \"#utility.yul\":7538:7543   */\n      dup4\n        /* \"#utility.yul\":7534:7548   */\n      add\n        /* \"#utility.yul\":7530:7553   */\n      div\n        /* \"#utility.yul\":7520:7553   */\n      swap1\n      pop\n        /* \"#utility.yul\":7466:7559   */\n      swap2\n      swap1\n      pop\n      jump\t// out\n        /* \"#utility.yul\":7565:7672   */\n    tag_91:\n        /* \"#utility.yul\":7609:7617   */\n      0x00\n        /* \"#utility.yul\":7659:7664   */\n      dup3\n        /* \"#utility.yul\":7653:7657   */\n      dup3\n        /* \"#utility.yul\":7649:7665   */\n      shl\n        /* \"#utility.yul\":7628:7665   */\n      swap1\n      pop\n        /* \"#utility.yul\":7565:7672   */\n      swap3\n      swap2\n      pop\n      pop\n      jump\t// out\n        /* \"#utility.yul\":7678:8071   */\n    tag_92:\n        /* \"#utility.yul\":7747:7753   */\n      0x00\n        /* \"#utility.yul\":7797:7798   */\n      0x08\n        /* \"#utility.yul\":7785:7795   */\n      dup4\n        /* \"#utility.yul\":7781:7799   */\n      mul\n        /* \"#utility.yul\":7820:7917   */\n      tag_184\n        /* \"#utility.yul\":7850:7916   */\n      0xffffffffffffffffffffffffffffffffffffffffffffffffffffffffffffffff\n        /* \"#utility.yul\":7839:7848   */\n      dup3\n        /* \"#utility.yul\":7820:7917   */\n      tag_91\n      jump\t// in\n    tag_184:\n        /* \"#utility.yul\":7938:7977   */\n      tag_185\n        /* \"#utility.yul\":7968:7976   */\n      dup7\n        /* \"#utility.yul\":7957:7966   */\n      dup4\n        /* \"#utility.yul\":7938:7977   */\n      tag_91\n      jump\t// in\n    tag_185:\n        /* \"#utility.yul\":7926:7977   */\n      swap6\n      pop\n        /* \"#utility.yul\":8010:8014   */\n      dup1\n        /* \"#utility.yul\":8006:8015   */\n      not\n        /* \"#utility.yul\":7999:8004   */\n      dup5\n        /* \"#utility.yul\":7995:8016   */\n      and\n        /* \"#utility.yul\":7986:8016   */\n      swap4\n      pop\n        /* \"#utility.yul\":8059:8063   */\n      dup1\n        /* \"#utility.yul\":8049:8057   */\n      dup7\n        /* \"#utility.yul\":8045:8064   */\n      and\n        /* \"#utility.yul\":8038:8043   */\n      dup5\n        /* \"#utility.yul\":8035:8065   */\n      or\n        /* \"#utility.yul\":8025:8065   */\n      swap3\n      pop\n        /* \"#utility.yul\":7754:8071   */\n      pop\n      pop\n        /* \"#utility.yul\":7678:8071   */\n      swap4\n      swap3\n      pop\n      pop\n      pop\n      jump\t// out\n        /* \"#utility.yul\":8077:8137   */\n    tag_93:\n        /* \"#utility.yul\":8105:8108   */\n      0x00\n        /* \"#utility.yul\":8126:8131   */\n      dup2\n        /* \"#utility.yul\":8119:8131   */\n      swap1\n      pop\n        /* \"#utility.yul\":8077:8137   */\n      swap2\n      swap1\n      pop\n      jump\t// out\n        /* \"#utility.yul\":8143:8285   */\n    tag_94:\n        /* \"#utility.yul\":8193:8202   */\n      0x00\n        /* \"#utility.yul\":8226:8279   */\n      tag_188\n        /* \"#utility.yul\":8244:8278   */\n      tag_189\n        /* \"#utility.yul\":8253:8277   */\n      tag_190\n        /* \"#utility.yul\":8271:8276   */\n      dup5\n        /* \"#utility.yul\":8253:8277   */\n      tag_69\n      jump\t// in\n    tag_190:\n        /* \"#utility.yul\":8244:8278   */\n      tag_93\n      jump\t// in\n    tag_189:\n        /* \"#utility.yul\":8226:8279   */\n      tag_69\n      jump\t// in\n    tag_188:\n        /* \"#utility.yul\":8213:8279   */\n      swap1\n      pop\n        /* \"#utility.yul\":8143:8285   */\n      swap2\n      swap1\n      pop\n      jump\t// out\n        /* \"#utility.yul\":8291:8366   */\n    tag_95:\n        /* \"#utility.yul\":8334:8337   */\n      0x00\n        /* \"#utility.yul\":8355:8360   */\n      dup2\n        /* \"#utility.yul\":8348:8360   */\n      swap1\n      pop\n        /* \"#utility.yul\":8291:8366   */\n      swap2\n      swap1\n      pop\n      jump\t// out\n        /* \"#utility.yul\":8372:8641   */\n    tag_96:\n        /* \"#utility.yul\":8482:8521   */\n      tag_193\n        /* \"#utility.yul\":8513:8520   */\n      dup4\n        /* \"#utility.yul\":8482:8521   */\n      tag_94\n      jump\t// in\n    tag_193:\n        /* \"#utility.yul\":8543:8634   */\n      tag_194\n        /* \"#utility.yul\":8592:8633   */\n      tag_195\n        /* \"#utility.yul\":8616:8632   */\n      dup3\n        /* \"#utility.yul\":8592:8633   */\n      tag_95\n      jump\t// in\n    tag_195:\n        /* \"#utility.yul\":8584:8590   */\n      dup5\n        /* \"#utility.yul\":8577:8581   */\n      dup5\n        /* \"#utility.yul\":8571:8582   */\n      sload\n        /* \"#utility.yul\":8543:8634   */\n      tag_92\n      jump\t// in\n    tag_194:\n        /* \"#utility.yul\":8537:8541   */\n      dup3\n        /* \"#utility.yul\":8530:8635   */\n      sstore\n        /* \"#utility.yul\":8448:8641   */\n      pop\n        /* \"#utility.yul\":8372:8641   */\n      pop\n      pop\n      pop\n      jump\t// out\n        /* \"#utility.yul\":8647:8720   */\n    tag_97:\n        /* \"#utility.yul\":8692:8695   */\n      0x00\n        /* \"#utility.yul\":8647:8720   */\n      swap1\n      jump\t// out\n        /* \"#utility.yul\":8726:8915   */\n    tag_98:\n        /* \"#utility.yul\":8803:8835   */\n      tag_198\n      tag_97\n      jump\t// in\n    tag_198:\n        /* \"#utility.yul\":8844:8909   */\n      tag_199\n        /* \"#utility.yul\":8902:8908   */\n      dup2\n        /* \"#utility.yul\":8894:8900   */\n      dup5\n        /* \"#utility.yul\":8888:8892   */\n      dup5\n        /* \"#utility.yul\":8844:8909   */\n      tag_96\n      jump\t// in\n    tag_199:\n        /* \"#utility.yul\":8779:8915   */\n      pop\n        /* \"#utility.yul\":8726:8915   */\n      pop\n      pop\n      jump\t// out\n        /* \"#utility.yul\":8921:9107   */\n    tag_99:\n        /* \"#utility.yul\":8981:9101   */\n    tag_201:\n        /* \"#utility.yul\":8998:9001   */\n      dup2\n        /* \"#utility.yul\":8991:8996   */\n      dup2\n        /* \"#utility.yul\":8988:9002   */\n      lt\n        /* \"#utility.yul\":8981:9101   */\n      iszero\n      tag_203\n      jumpi\n        /* \"#utility.yul\":9052:9091   */\n      tag_204\n        /* \"#utility.yul\":9089:9090   */\n      0x00\n        /* \"#utility.yul\":9082:9087   */\n      dup3\n        /* \"#utility.yul\":9052:9091   */\n      tag_98\n      jump\t// in\n    tag_204:\n        /* \"#utility.yul\":9025:9026   */\n      0x01\n        /* \"#utility.yul\":9018:9023   */\n      dup2\n        /* \"#utility.yul\":9014:9027   */\n      add\n        /* \"#utility.yul\":9005:9027   */\n      swap1\n      pop\n        /* \"#utility.yul\":8981:9101   */\n      jump(tag_201)\n    tag_203:\n        /* \"#utility.yul\":8921:9107   */\n      pop\n      pop\n      jump\t// out\n        /* \"#utility.yul\":9113:9656   */\n    tag_100:\n        /* \"#utility.yul\":9214:9216   */\n      0x1f\n        /* \"#utility.yul\":9209:9212   */\n      dup3\n        /* \"#utility.yul\":9206:9217   */\n      gt\n        /* \"#utility.yul\":9203:9649   */\n      iszero\n      tag_206\n      jumpi\n        /* \"#utility.yul\":9248:9286   */\n      tag_207\n        /* \"#utility.yul\":9280:9285   */\n      dup2\n        /* \"#utility.yul\":9248:9286   */\n      tag_89\n      jump\t// in\n    tag_207:\n        /* \"#utility.yul\":9332:9361   */\n      tag_208\n        /* \"#utility.yul\":9350:9360   */\n      dup5\n        /* \"#utility.yul\":9332:9361   */\n      tag_90\n      jump\t// in\n    tag_208:\n        /* \"#utility.yul\":9322:9330   */\n      dup2\n        /* \"#utility.yul\":9318:9362   */\n      add\n        /* \"#utility.yul\":9515:9517   */\n      0x20\n        /* \"#utility.yul\":9503:9513   */\n      dup6\n        /* \"#utility.yul\":9500:9518   */\n      lt\n        /* \"#utility.yul\":9497:9546   */\n      iszero\n      tag_209\n      jumpi\n        /* \"#utility.yul\":9536:9544   */\n      dup2\n        /* \"#utility.yul\":9521:9544   */\n      swap1\n      pop\n        /* \"#utility.yul\":9497:9546   */\n    tag_209:\n        /* \"#utility.yul\":9559:9639   */\n      tag_210\n        /* \"#utility.yul\":9615:9637   */\n      tag_211\n        /* \"#utility.yul\":9633:9636   */\n      dup6\n        /* \"#utility.yul\":9615:9637   */\n      tag_90\n      jump\t// in\n    tag_211:\n        /* \"#utility.yul\":9605:9613   */\n      dup4\n        /* \"#utility.yul\":9601:9638   */\n      add\n        /* \"#utility.yul\":9588:9599   */\n      dup3\n        /* \"#utility.yul\":9559:9639   */\n      tag_99\n      jump\t// in\n    tag_210:\n        /* \"#utility.yul\":9218:9649   */\n      pop\n      pop\n        /* \"#utility.yul\":9203:9649   */\n    tag_206:\n        /* \"#utility.yul\":9113:9656   */\n      pop\n      pop\n      pop\n      jump\t// out\n        /* \"#utility.yul\":9662:9779   */\n    tag_101:\n        /* \"#utility.yul\":9716:9724   */\n      0x00\n        /* \"#utility.yul\":9766:9771   */\n      dup3\n        /* \"#utility.yul\":9760:9764   */\n      dup3\n        /* \"#utility.yul\":9756:9772   */\n      shr\n        /* \"#utility.yul\":9735:9772   */\n      swap1\n      pop\n        /* \"#utility.yul\":9662:9779   */\n      swap3\n      swap2\n      pop\n      pop\n      jump\t// out\n        /* \"#utility.yul\":9785:9954   */\n    tag_102:\n        /* \"#utility.yul\":9829:9835   */\n      0x00\n        /* \"#utility.yul\":9862:9913   */\n      tag_214\n        /* \"#utility.yul\":9910:9911   */\n      0x00\n        /* \"#utility.yul\":9906:9912   */\n      not\n        /* \"#utility.yul\":9898:9903   */\n      dup5\n        /* \"#utility.yul\":9895:9896   */\n      0x08\n        /* \"#utility.yul\":9891:9904   */\n      mul\n        /* \"#utility.yul\":9862:9913   */\n      tag_101\n      jump\t// in\n    tag_214:\n        /* \"#utility.yul\":9858:9914   */\n      not\n        /* \"#utility.yul\":9943:9947   */\n      dup1\n        /* \"#utility.yul\":9937:9941   */\n      dup4\n        /* \"#utility.yul\":9933:9948   */\n      and\n        /* \"#utility.yul\":9923:9948   */\n      swap2\n      pop\n        /* \"#utility.yul\":9836:9954   */\n      pop\n        /* \"#utility.yul\":9785:9954   */\n      swap3\n      swap2\n      pop\n      pop\n      jump\t// out\n        /* \"#utility.yul\":9959:10254   */\n    tag_103:\n        /* \"#utility.yul\":10035:10039   */\n      0x00\n        /* \"#utility.yul\":10181:10210   */\n      tag_216\n        /* \"#utility.yul\":10206:10209   */\n      dup4\n        /* \"#utility.yul\":10200:10204   */\n      dup4\n        /* \"#utility.yul\":10181:10210   */\n      tag_102\n      jump\t// in\n    tag_216:\n        /* \"#utility.yul\":10173:10210   */\n      swap2\n      pop\n        /* \"#utility.yul\":10243:10246   */\n      dup3\n        /* \"#utility.yul\":10240:10241   */\n      0x02\n        /* \"#utility.yul\":10236:10247   */\n      mul\n        /* \"#utility.yul\":10230:10234   */\n      dup3\n        /* \"#utility.yul\":10227:10248   */\n      or\n        /* \"#utility.yul\":10219:10248   */\n      swap1\n      pop\n        /* \"#utility.yul\":9959:10254   */\n      swap3\n      swap2\n      pop\n      pop\n      jump\t// out\n        /* \"#utility.yul\":10259:11654   */\n    tag_46:\n        /* \"#utility.yul\":10376:10413   */\n      tag_218\n        /* \"#utility.yul\":10409:10412   */\n      dup3\n        /* \"#utility.yul\":10376:10413   */\n      tag_77\n      jump\t// in\n    tag_218:\n        /* \"#utility.yul\":10478:10496   */\n      0xffffffffffffffff\n        /* \"#utility.yul\":10470:10476   */\n      dup2\n        /* \"#utility.yul\":10467:10497   */\n      gt\n        /* \"#utility.yul\":10464:10520   */\n      iszero\n      tag_219\n      jumpi\n        /* \"#utility.yul\":10500:10518   */\n      tag_220\n      tag_87\n      jump\t// in\n    tag_220:\n        /* \"#utility.yul\":10464:10520   */\n    tag_219:\n        /* \"#utility.yul\":10544:10582   */\n      tag_221\n        /* \"#utility.yul\":10576:10580   */\n      dup3\n        /* \"#utility.yul\":10570:10581   */\n      sload\n        /* \"#utility.yul\":10544:10582   */\n      tag_61\n      jump\t// in\n    tag_221:\n        /* \"#utility.yul\":10629:10696   */\n      tag_222\n        /* \"#utility.yul\":10689:10695   */\n      dup3\n        /* \"#utility.yul\":10681:10687   */\n      dup3\n        /* \"#utility.yul\":10675:10679   */\n      dup6\n        /* \"#utility.yul\":10629:10696   */\n      tag_100\n      jump\t// in\n    tag_222:\n        /* \"#utility.yul\":10723:10724   */\n      0x00\n        /* \"#utility.yul\":10747:10751   */\n      0x20\n        /* \"#utility.yul\":10734:10751   */\n      swap1\n      pop\n        /* \"#utility.yul\":10779:10781   */\n      0x1f\n        /* \"#utility.yul\":10771:10777   */\n      dup4\n        /* \"#utility.yul\":10768:10782   */\n      gt\n        /* \"#utility.yul\":10796:10797   */\n      0x01\n        /* \"#utility.yul\":10791:11409   */\n      dup2\n      eq\n      tag_224\n      jumpi\n        /* \"#utility.yul\":11453:11454   */\n      0x00\n        /* \"#utility.yul\":11470:11476   */\n      dup5\n        /* \"#utility.yul\":11467:11544   */\n      iszero\n      tag_225\n      jumpi\n        /* \"#utility.yul\":11519:11528   */\n      dup3\n        /* \"#utility.yul\":11514:11517   */\n      dup8\n        /* \"#utility.yul\":11510:11529   */\n      add\n        /* \"#utility.yul\":11504:11530   */\n      mload\n        /* \"#utility.yul\":11495:11530   */\n      swap1\n      pop\n        /* \"#utility.yul\":11467:11544   */\n    tag_225:\n        /* \"#utility.yul\":11570:11637   */\n      tag_226\n        /* \"#utility.yul\":11630:11636   */\n      dup6\n        /* \"#utility.yul\":11623:11628   */\n      dup3\n        /* \"#utility.yul\":11570:11637   */\n      tag_103\n      jump\t// in\n    tag_226:\n        /* \"#utility.yul\":11564:11568   */\n      dup7\n        /* \"#utility.yul\":11557:11638   */\n      sstore\n        /* \"#utility.yul\":11426:11648   */\n      pop\n        /* \"#utility.yul\":10761:11648   */\n      jump(tag_223)\n        /* \"#utility.yul\":10791:11409   */\n    tag_224:\n        /* \"#utility.yul\":10843:10847   */\n      0x1f\n        /* \"#utility.yul\":10839:10848   */\n      not\n        /* \"#utility.yul\":10831:10837   */\n      dup5\n        /* \"#utility.yul\":10827:10849   */\n      and\n        /* \"#utility.yul\":10877:10914   */\n      tag_227\n        /* \"#utility.yul\":10909:10913   */\n      dup7\n        /* \"#utility.yul\":10877:10914   */\n      tag_89\n      jump\t// in\n    tag_227:\n        /* \"#utility.yul\":10936:10937   */\n      0x00\n        /* \"#utility.yul\":10950:11158   */\n    tag_228:\n        /* \"#utility.yul\":10964:10971   */\n      dup3\n        /* \"#utility.yul\":10961:10962   */\n      dup2\n        /* \"#utility.yul\":10958:10972   */\n      lt\n        /* \"#utility.yul\":10950:11158   */\n      iszero\n      tag_230\n      jumpi\n        /* \"#utility.yul\":11043:11052   */\n      dup5\n        /* \"#utility.yul\":11038:11041   */\n      dup10\n        /* \"#utility.yul\":11034:11053   */\n      add\n        /* \"#utility.yul\":11028:11054   */\n      mload\n        /* \"#utility.yul\":11020:11026   */\n      dup3\n        /* \"#utility.yul\":11013:11055   */\n      sstore\n        /* \"#utility.yul\":11094:11095   */\n      0x01\n        /* \"#utility.yul\":11086:11092   */\n      dup3\n        /* \"#utility.yul\":11082:11096   */\n      add\n        /* \"#utility.yul\":11072:11096   */\n      swap2\n      pop\n        /* \"#utility.yul\":11141:11143   */\n      0x20\n        /* \"#utility.yul\":11130:11139   */\n      dup6\n        /* \"#utility.yul\":11126:11144   */\n      add\n        /* \"#utility.yul\":11113:11144   */\n      swap5\n      pop\n        /* \"#utility.yul\":10987:10991   */\n      0x20\n        /* \"#utility.yul\":10984:10985   */\n      dup2\n        /* \"#utility.yul\":10980:10992   */\n      add\n        /* \"#utility.yul\":10975:10992   */\n      swap1\n      pop\n        /* \"#utility.yul\":10950:11158   */\n      jump(tag_228)\n    tag_230:\n        /* \"#utility.yul\":11186:11192   */\n      dup7\n        /* \"#utility.yul\":11177:11184   */\n      dup4\n        /* \"#utility.yul\":11174:11193   */\n      lt\n        /* \"#utility.yul\":11171:11350   */\n      iszero\n      tag_231\n      jumpi\n        /* \"#utility.yul\":11244:11253   */\n      dup5\n        /* \"#utility.yul\":11239:11242   */\n      dup10\n        /* \"#utility.yul\":11235:11254   */\n      add\n        /* \"#utility.yul\":11229:11255   */\n      mload\n        /* \"#utility.yul\":11287:11335   */\n      tag_232\n        /* \"#utility.yul\":11329:11333   */\n      0x1f\n        /* \"#utility.yul\":11321:11327   */\n      dup10\n        /* \"#utility.yul\":11317:11334   */\n      and\n        /* \"#utility.yul\":11306:11315   */\n      dup3\n        /* \"#utility.yul\":11287:11335   */\n      tag_102\n      jump\t// in\n    tag_232:\n        /* \"#utility.yul\":11279:11285   */\n      dup4\n        /* \"#utility.yul\":11272:11336   */\n      sstore\n        /* \"#utility.yul\":11194:11350   */\n      pop\n        /* \"#utility.yul\":11171:11350   */\n    tag_231:\n        /* \"#utility.yul\":11396:11397   */\n      0x01\n        /* \"#utility.yul\":11392:11393   */\n      0x02\n        /* \"#utility.yul\":11384:11390   */\n      dup9\n        /* \"#utility.yul\":11380:11394   */\n      mul\n        /* \"#utility.yul\":11376:11398   */\n      add\n        /* \"#utility.yul\":11370:11374   */\n      dup9\n        /* \"#utility.yul\":11363:11399   */\n      sstore\n        /* \"#utility.yul\":10798:11409   */\n      pop\n      pop\n      pop\n        /* \"#utility.yul\":10761:11648   */\n    tag_223:\n      pop\n        /* \"#utility.yul\":10351:11654   */\n      pop\n      pop\n      pop\n        /* \"#utility.yul\":10259:11654   */\n      pop\n      pop\n      jump\t// out\n        /* \"#utility.yul\":11660:11757   */\n    tag_104:\n        /* \"#utility.yul\":11719:11725   */\n      0x00\n        /* \"#utility.yul\":11747:11750   */\n      dup3\n        /* \"#utility.yul\":11737:11750   */\n      swap1\n      pop\n        /* \"#utility.yul\":11660:11757   */\n      swap3\n      swap2\n      pop\n      pop\n      jump\t// out\n        /* \"#utility.yul\":11763:13166   */\n    tag_56:\n        /* \"#utility.yul\":11887:11931   */\n      tag_235\n        /* \"#utility.yul\":11927:11930   */\n      dup4\n        /* \"#utility.yul\":11922:11925   */\n      dup4\n        /* \"#utility.yul\":11887:11931   */\n      tag_104\n      jump\t// in\n    tag_235:\n        /* \"#utility.yul\":11996:12014   */\n      0xffffffffffffffff\n        /* \"#utility.yul\":11988:11994   */\n      dup2\n        /* \"#utility.yul\":11985:12015   */\n      gt\n        /* \"#utility.yul\":11982:12038   */\n      iszero\n      tag_236\n      jumpi\n        /* \"#utility.yul\":12018:12036   */\n      tag_237\n      tag_87\n      jump\t// in\n    tag_237:\n        /* \"#utility.yul\":11982:12038   */\n    tag_236:\n        /* \"#utility.yul\":12062:12100   */\n      tag_238\n        /* \"#utility.yul\":12094:12098   */\n      dup3\n        /* \"#utility.yul\":12088:12099   */\n      sload\n        /* \"#utility.yul\":12062:12100   */\n      tag_61\n      jump\t// in\n    tag_238:\n        /* \"#utility.yul\":12147:12214   */\n      tag_239\n        /* \"#utility.yul\":12207:12213   */\n      dup3\n        /* \"#utility.yul\":12199:12205   */\n      dup3\n        /* \"#utility.yul\":12193:12197   */\n      dup6\n        /* \"#utility.yul\":12147:12214   */\n      tag_100\n      jump\t// in\n    tag_239:\n        /* \"#utility.yul\":12241:12242   */\n      0x00\n        /* \"#utility.yul\":12270:12272   */\n      0x1f\n        /* \"#utility.yul\":12262:12268   */\n      dup4\n        /* \"#utility.yul\":12259:12273   */\n      gt\n        /* \"#utility.yul\":12287:12288   */\n      0x01\n        /* \"#utility.yul\":12282:12914   */\n      dup2\n      eq\n      tag_241\n      jumpi\n        /* \"#utility.yul\":12958:12959   */\n      0x00\n        /* \"#utility.yul\":12975:12981   */\n      dup5\n        /* \"#utility.yul\":12972:13056   */\n      iszero\n      tag_242\n      jumpi\n        /* \"#utility.yul\":13031:13040   */\n      dup3\n        /* \"#utility.yul\":13026:13029   */\n      dup8\n        /* \"#utility.yul\":13022:13041   */\n      add\n        /* \"#utility.yul\":13009:13042   */\n      calldataload\n        /* \"#utility.yul\":13000:13042   */\n      swap1\n      pop\n        /* \"#utility.yul\":12972:13056   */\n    tag_242:\n        /* \"#utility.yul\":13082:13149   */\n      tag_243\n        /* \"#utility.yul\":13142:13148   */\n      dup6\n        /* \"#utility.yul\":13135:13140   */\n      dup3\n        /* \"#utility.yul\":13082:13149   */\n      tag_103\n      jump\t// in\n    tag_243:\n        /* \"#utility.yul\":13076:13080   */\n      dup7\n        /* \"#utility.yul\":13069:13150   */\n      sstore\n        /* \"#utility.yul\":12931:13160   */\n      pop\n        /* \"#utility.yul\":12252:13160   */\n      jump(tag_240)\n        /* \"#utility.yul\":12282:12914   */\n    tag_241:\n        /* \"#utility.yul\":12334:12338   */\n      0x1f\n        /* \"#utility.yul\":12330:12339   */\n      not\n        /* \"#utility.yul\":12322:12328   */\n      dup5\n        /* \"#utility.yul\":12318:12340   */\n      and\n        /* \"#utility.yul\":12368:12405   */\n      tag_244\n        /* \"#utility.yul\":12400:12404   */\n      dup7\n        /* \"#utility.yul\":12368:12405   */\n      tag_89\n      jump\t// in\n    tag_244:\n        /* \"#utility.yul\":12427:12428   */\n      0x00\n        /* \"#utility.yul\":12441:12656   */\n    tag_245:\n        /* \"#utility.yul\":12455:12462   */\n      dup3\n        /* \"#utility.yul\":12452:12453   */\n      dup2\n        /* \"#utility.yul\":12449:12463   */\n      lt\n        /* \"#utility.yul\":12441:12656   */\n      iszero\n      tag_247\n      jumpi\n        /* \"#utility.yul\":12541:12550   */\n      dup5\n        /* \"#utility.yul\":12536:12539   */\n      dup10\n        /* \"#utility.yul\":12532:12551   */\n      add\n        /* \"#utility.yul\":12519:12552   */\n      calldataload\n        /* \"#utility.yul\":12511:12517   */\n      dup3\n        /* \"#utility.yul\":12504:12553   */\n      sstore\n        /* \"#utility.yul\":12592:12593   */\n      0x01\n        /* \"#utility.yul\":12584:12590   */\n      dup3\n        /* \"#utility.yul\":12580:12594   */\n      add\n        /* \"#utility.yul\":12570:12594   */\n      swap2\n      pop\n        /* \"#utility.yul\":12639:12641   */\n      0x20\n        /* \"#utility.yul\":12628:12637   */\n      dup6\n        /* \"#utility.yul\":12624:12642   */\n      add\n        /* \"#utility.yul\":12611:12642   */\n      swap5\n      pop\n        /* \"#utility.yul\":12478:12482   */\n      0x20\n        /* \"#utility.yul\":12475:12476   */\n      dup2\n        /* \"#utility.yul\":12471:12483   */\n      add\n        /* \"#utility.yul\":12466:12483   */\n      swap1\n      pop\n        /* \"#utility.yul\":12441:12656   */\n      jump(tag_245)\n    tag_247:\n        /* \"#utility.yul\":12684:12690   */\n      dup7\n        /* \"#utility.yul\":12675:12682   */\n      dup4\n        /* \"#utility.yul\":12672:12691   */\n      lt\n        /* \"#utility.yul\":12669:12855   */\n      iszero\n      tag_248\n      jumpi\n        /* \"#utility.yul\":12749:12758   */\n      dup5\n        /* \"#utility.yul\":12744:12747   */\n      dup10\n        /* \"#utility.yul\":12740:12759   */\n      add\n        /* \"#utility.yul\":12727:12760   */\n      calldataload\n        /* \"#utility.yul\":12792:12840   */\n      tag_249\n        /* \"#utility.yul\":12834:12838   */\n      0x1f\n        /* \"#utility.yul\":12826:12832   */\n      dup10\n        /* \"#utility.yul\":12822:12839   */\n      and\n        /* \"#utility.yul\":12811:12820   */\n      dup3\n        /* \"#utility.yul\":12792:12840   */\n      tag_102\n      jump\t// in\n    tag_249:\n        /* \"#utility.yul\":12784:12790   */\n      dup4\n        /* \"#utility.yul\":12777:12841   */\n      sstore\n        /* \"#utility.yul\":12692:12855   */\n      pop\n        /* \"#utility.yul\":12669:12855   */\n    tag_248:\n        /* \"#utility.yul\":12901:12902   */\n      0x01\n        /* \"#utility.yul\":12897:12898   */\n      0x02\n        /* \"#utility.yul\":12889:12895   */\n      dup9\n        /* \"#utility.yul\":12885:12899   */\n      mul\n        /* \"#utility.yul\":12881:12903   */\n      add\n        /* \"#utility.yul\":12875:12879   */\n      dup9\n        /* \"#utility.yul\":12868:12904   */\n      sstore\n        /* \"#utility.yul\":12289:12914   */\n      pop\n      pop\n      pop\n        /* \"#utility.yul\":12252:13160   */\n    tag_240:\n      pop\n        /* \"#utility.yul\":11862:13166   */\n      pop\n      pop\n      pop\n        /* \"#utility.yul\":11763:13166   */\n      pop\n      pop\n      pop\n      jump\t// out\n\n    auxdata: 0xa264697066735822122086856658c7e2d0226d183e0ed04a773e8052f4ae5f31a3b81162fe8716e3189564736f6c634300081a0033\n}\n",
				"bytecode": {
					"linkReferences": {},
					"object": "6080604052348015600e575f80fd5b50610b208061001c5f395ff3fe608060405234801561000f575f80fd5b5060043610610055575f3560e01c8063455f502414610059578063672385621461007557806386533f6c14610091578063949d225d146100ad578063dbc28245146100cb575b5f80fd5b610073600480360381019061006e9190610414565b6100fc565b005b61008f600480360381019061008a91906104a0565b6101c0565b005b6100ab60048036038101906100a691906104eb565b61027f565b005b6100b561030e565b6040516100c29190610557565b60405180910390f35b6100e560048036038101906100e09190610414565b610319565b6040516100f39291906105fa565b60405180910390f35b805f808054905090506001816101129190610655565b8210610153576040517f08c379a000000000000000000000000000000000000000000000000000000000815260040161014a906106d2565b60405180910390fd5b5f8381548110610166576101656106f0565b5b905f5260205f2090600202016001015f9054906101000a900460ff16155f8481548110610196576101956106f0565b5b905f5260205f2090600202016001015f6101000a81548160ff021916908315150217905550505050565b5f604051806040016040528084848080601f0160208091040260200160405190810160405280939291908181526020018383808284375f81840152601f19601f8201169050808301925050505050505081526020015f151581525090505f81908060018154018082558091505060019003905f5260205f2090600202015f909190919091505f820151815f0190816102589190610944565b506020820151816001015f6101000a81548160ff0219169083151502179055505050505050565b825f808054905090506001816102959190610655565b82106102d6576040517f08c379a00000000000000000000000000000000000000000000000000000000081526004016102cd906106d2565b60405180910390fd5b83835f87815481106102eb576102ea6106f0565b5b905f5260205f2090600202015f019182610306929190610a1d565b505050505050565b5f8080549050905090565b5f8181548110610327575f80fd5b905f5260205f2090600202015f91509050805f01805461034690610777565b80601f016020809104026020016040519081016040528092919081815260200182805461037290610777565b80156103bd5780601f10610394576101008083540402835291602001916103bd565b820191905f5260205f20905b8154815290600101906020018083116103a057829003601f168201915b505050505090806001015f9054906101000a900460ff16905082565b5f80fd5b5f80fd5b5f819050919050565b6103f3816103e1565b81146103fd575f80fd5b50565b5f8135905061040e816103ea565b92915050565b5f60208284031215610429576104286103d9565b5b5f61043684828501610400565b91505092915050565b5f80fd5b5f80fd5b5f80fd5b5f8083601f8401126104605761045f61043f565b5b8235905067ffffffffffffffff81111561047d5761047c610443565b5b60208301915083600182028301111561049957610498610447565b5b9250929050565b5f80602083850312156104b6576104b56103d9565b5b5f83013567ffffffffffffffff8111156104d3576104d26103dd565b5b6104df8582860161044b565b92509250509250929050565b5f805f60408486031215610502576105016103d9565b5b5f61050f86828701610400565b935050602084013567ffffffffffffffff8111156105305761052f6103dd565b5b61053c8682870161044b565b92509250509250925092565b610551816103e1565b82525050565b5f60208201905061056a5f830184610548565b92915050565b5f81519050919050565b5f82825260208201905092915050565b8281835e5f83830152505050565b5f601f19601f8301169050919050565b5f6105b282610570565b6105bc818561057a565b93506105cc81856020860161058a565b6105d581610598565b840191505092915050565b5f8115159050919050565b6105f4816105e0565b82525050565b5f6040820190508181035f83015261061281856105a8565b905061062160208301846105eb565b9392505050565b7f4e487b71000000000000000000000000000000000000000000000000000000005f52601160045260245ffd5b5f61065f826103e1565b915061066a836103e1565b925082820390508181111561068257610681610628565b5b92915050565b7f696e646578206f7574206f662072616e676500000000000000000000000000005f82015250565b5f6106bc60128361057a565b91506106c782610688565b602082019050919050565b5f6020820190508181035f8301526106e9816106b0565b9050919050565b7f4e487b71000000000000000000000000000000000000000000000000000000005f52603260045260245ffd5b7f4e487b71000000000000000000000000000000000000000000000000000000005f52604160045260245ffd5b7f4e487b71000000000000000000000000000000000000000000000000000000005f52602260045260245ffd5b5f600282049050600182168061078e57607f821691505b6020821081036107a1576107a061074a565b5b50919050565b5f819050815f5260205f209050919050565b5f6020601f8301049050919050565b5f82821b905092915050565b5f600883026108037fffffffffffffffffffffffffffffffffffffffffffffffffffffffffffffffff826107c8565b61080d86836107c8565b95508019841693508086168417925050509392505050565b5f819050919050565b5f61084861084361083e846103e1565b610825565b6103e1565b9050919050565b5f819050919050565b6108618361082e565b61087561086d8261084f565b8484546107d4565b825550505050565b5f90565b61088961087d565b610894818484610858565b505050565b5b818110156108b7576108ac5f82610881565b60018101905061089a565b5050565b601f8211156108fc576108cd816107a7565b6108d6846107b9565b810160208510156108e5578190505b6108f96108f1856107b9565b830182610899565b50505b505050565b5f82821c905092915050565b5f61091c5f1984600802610901565b1980831691505092915050565b5f610934838361090d565b9150826002028217905092915050565b61094d82610570565b67ffffffffffffffff8111156109665761096561071d565b5b6109708254610777565b61097b8282856108bb565b5f60209050601f8311600181146109ac575f841561099a578287015190505b6109a48582610929565b865550610a0b565b601f1984166109ba866107a7565b5f5b828110156109e1578489015182556001820191506020850194506020810190506109bc565b868310156109fe57848901516109fa601f89168261090d565b8355505b6001600288020188555050505b505050505050565b5f82905092915050565b610a278383610a13565b67ffffffffffffffff811115610a4057610a3f61071d565b5b610a4a8254610777565b610a558282856108bb565b5f601f831160018114610a82575f8415610a70578287013590505b610a7a8582610929565b865550610ae1565b601f198416610a90866107a7565b5f5b82811015610ab757848901358255600182019150602085019450602081019050610a92565b86831015610ad45784890135610ad0601f89168261090d565b8355505b6001600288020188555050505b5050505050505056fea264697066735822122086856658c7e2d0226d183e0ed04a773e8052f4ae5f31a3b81162fe8716e3189564736f6c634300081a0033",
					"opcodes": "PUSH1 0x80 PUSH1 0x40 MSTORE CALLVALUE DUP1 ISZERO PUSH1 0xE JUMPI PUSH0 DUP1 REVERT JUMPDEST POP PUSH2 0xB20 DUP1 PUSH2 0x1C PUSH0 CODECOPY PUSH0 RETURN INVALID PUSH1 0x80 PUSH1 0x40 MSTORE CALLVALUE DUP1 ISZERO PUSH2 0xF JUMPI PUSH0 DUP1 REVERT JUMPDEST POP PUSH1 0x4 CALLDATASIZE LT PUSH2 0x55 JUMPI PUSH0 CALLDATALOAD PUSH1 0xE0 SHR DUP1 PUSH4 0x455F5024 EQ PUSH2 0x59 JUMPI DUP1 PUSH4 0x67238562 EQ PUSH2 0x75 JUMPI DUP1 PUSH4 0x86533F6C EQ PUSH2 0x91 JUMPI DUP1 PUSH4 0x949D225D EQ PUSH2 0xAD JUMPI DUP1 PUSH4 0xDBC28245 EQ PUSH2 0xCB JUMPI JUMPDEST PUSH0 DUP1 REVERT JUMPDEST PUSH2 0x73 PUSH1 0x4 DUP1 CALLDATASIZE SUB DUP2 ADD SWAP1 PUSH2 0x6E SWAP2 SWAP1 PUSH2 0x414 JUMP JUMPDEST PUSH2 0xFC JUMP JUMPDEST STOP JUMPDEST PUSH2 0x8F PUSH1 0x4 DUP1 CALLDATASIZE SUB DUP2 ADD SWAP1 PUSH2 0x8A SWAP2 SWAP1 PUSH2 0x4A0 JUMP JUMPDEST PUSH2 0x1C0 JUMP JUMPDEST STOP JUMPDEST PUSH2 0xAB PUSH1 0x4 DUP1 CALLDATASIZE SUB DUP2 ADD SWAP1 PUSH2 0xA6 SWAP2 SWAP1 PUSH2 0x4EB JUMP JUMPDEST PUSH2 0x27F JUMP JUMPDEST STOP JUMPDEST PUSH2 0xB5 PUSH2 0x30E JUMP JUMPDEST PUSH1 0x40 MLOAD PUSH2 0xC2 SWAP2 SWAP1 PUSH2 0x557 JUMP JUMPDEST PUSH1 0x40 MLOAD DUP1 SWAP2 SUB SWAP1 RETURN JUMPDEST PUSH2 0xE5 PUSH1 0x4 DUP1 CALLDATASIZE SUB DUP2 ADD SWAP1 PUSH2 0xE0 SWAP2 SWAP1 PUSH2 0x414 JUMP JUMPDEST PUSH2 0x319 JUMP JUMPDEST PUSH1 0x40 MLOAD PUSH2 0xF3 SWAP3 SWAP2 SWAP1 PUSH2 0x5FA JUMP JUMPDEST PUSH1 0x40 MLOAD DUP1 SWAP2 SUB SWAP1 RETURN JUMPDEST DUP1 PUSH0 DUP1 DUP1 SLOAD SWAP1 POP SWAP1 POP PUSH1 0x1 DUP2 PUSH2 0x112 SWAP2 SWAP1 PUSH2 0x655 JUMP JUMPDEST DUP3 LT PUSH2 0x153 JUMPI PUSH1 0x40 MLOAD PUSH32 0x8C379A000000000000000000000000000000000000000000000000000000000 DUP2 MSTORE PUSH1 0x4 ADD PUSH2 0x14A SWAP1 PUSH2 0x6D2 JUMP JUMPDEST PUSH1 0x40 MLOAD DUP1 SWAP2 SUB SWAP1 REVERT JUMPDEST PUSH0 DUP4 DUP2 SLOAD DUP2 LT PUSH2 0x166 JUMPI PUSH2 0x165 PUSH2 0x6F0 JUMP JUMPDEST JUMPDEST SWAP1 PUSH0 MSTORE PUSH1 0x20 PUSH0 KECCAK256 SWAP1 PUSH1 0x2 MUL ADD PUSH1 0x1 ADD PUSH0 SWAP1 SLOAD SWAP1 PUSH2 0x100 EXP SWAP1 DIV PUSH1 0xFF AND ISZERO PUSH0 DUP5 DUP2 SLOAD DUP2 LT PUSH2 0x196 JUMPI PUSH2 0x195 PUSH2 0x6F0 JUMP JUMPDEST JUMPDEST SWAP1 PUSH0 MSTORE PUSH1 0x20 PUSH0 KECCAK256 SWAP1 PUSH1 0x2 MUL ADD PUSH1 0x1 ADD PUSH0 PUSH2 0x100 EXP DUP2 SLOAD DUP2 PUSH1 0xFF MUL NOT AND SWAP1 DUP4 ISZERO ISZERO MUL OR SWAP1 SSTORE POP POP POP POP JUMP JUMPDEST PUSH0 PUSH1 0x40 MLOAD DUP1 PUSH1 0x40 ADD PUSH1 0x40 MSTORE DUP1 DUP5 DUP5 DUP1 DUP1 PUSH1 0x1F ADD PUSH1 0x20 DUP1 SWAP2 DIV MUL PUSH1 0x20 ADD PUSH1 0x40 MLOAD SWAP1 DUP2 ADD PUSH1 0x40 MSTORE DUP1 SWAP4 SWAP3 SWAP2 SWAP1 DUP2 DUP2 MSTORE PUSH1 0x20 ADD DUP4 DUP4 DUP1 DUP3 DUP5 CALLDATACOPY PUSH0 DUP2 DUP5 ADD MSTORE PUSH1 0x1F NOT PUSH1 0x1F DUP3 ADD AND SWAP1 POP DUP1 DUP4 ADD SWAP3 POP POP POP POP POP POP POP DUP2 MSTORE PUSH1 0x20 ADD PUSH0 ISZERO ISZERO DUP2 MSTORE POP SWAP1 POP PUSH0 DUP2 SWAP1 DUP1 PUSH1 0x1 DUP2 SLOAD ADD DUP1 DUP3 SSTORE DUP1 SWAP2 POP POP PUSH1 0x1 SWAP1 SUB SWAP1 PUSH0 MSTORE PUSH1 0x20 PUSH0 KECCAK256 SWAP1 PUSH1 0x2 MUL ADD PUSH0 SWAP1 SWAP2 SWAP1 SWAP2 SWAP1 SWAP2 POP PUSH0 DUP3 ADD MLOAD DUP2 PUSH0 ADD SWAP1 DUP2 PUSH2 0x258 SWAP2 SWAP1 PUSH2 0x944 JUMP JUMPDEST POP PUSH1 0x20 DUP3 ADD MLOAD DUP2 PUSH1 0x1 ADD PUSH0 PUSH2 0x100 EXP DUP2 SLOAD DUP2 PUSH1 0xFF MUL NOT AND SWAP1 DUP4 ISZERO ISZERO MUL OR SWAP1 SSTORE POP POP POP POP POP POP JUMP JUMPDEST DUP3 PUSH0 DUP1 DUP1 SLOAD SWAP1 POP SWAP1 POP PUSH1 0x1 DUP2 PUSH2 0x295 SWAP2 SWAP1 PUSH2 0x655 JUMP JUMPDEST DUP3 LT PUSH2 0x2D6 JUMPI PUSH1 0x40 MLOAD PUSH32 0x8C379A000000000000000000000000000000000000000000000000000000000 DUP2 MSTORE PUSH1 0x4 ADD PUSH2 0x2CD SWAP1 PUSH2 0x6D2 JUMP JUMPDEST PUSH1 0x40 MLOAD DUP1 SWAP2 SUB SWAP1 REVERT JUMPDEST DUP4 DUP4 PUSH0 DUP8 DUP2 SLOAD DUP2 LT PUSH2 0x2EB JUMPI PUSH2 0x2EA PUSH2 0x6F0 JUMP JUMPDEST JUMPDEST SWAP1 PUSH0 MSTORE PUSH1 0x20 PUSH0 KECCAK256 SWAP1 PUSH1 0x2 MUL ADD PUSH0 ADD SWAP2 DUP3 PUSH2 0x306 SWAP3 SWAP2 SWAP1 PUSH2 0xA1D JUMP JUMPDEST POP POP POP POP POP POP JUMP JUMPDEST PUSH0 DUP1 DUP1 SLOAD SWAP1 POP SWAP1 POP SWAP1 JUMP JUMPDEST PUSH0 DUP2 DUP2 SLOAD DUP2 LT PUSH2 0x327 JUMPI PUSH0 DUP1 REVERT JUMPDEST SWAP1 PUSH0 MSTORE PUSH1 0x20 PUSH0 KECCAK256 SWAP1 PUSH1 0x2 MUL ADD PUSH0 SWAP2 POP SWAP1 POP DUP1 PUSH0 ADD DUP1 SLOAD PUSH2 0x346 SWAP1 PUSH2 0x777 JUMP JUMPDEST DUP1 PUSH1 0x1F ADD PUSH1 0x20 DUP1 SWAP2 DIV MUL PUSH1 0x20 ADD PUSH1 0x40 MLOAD SWAP1 DUP2 ADD PUSH1 0x40 MSTORE DUP1 SWAP3 SWAP2 SWAP1 DUP2 DUP2 MSTORE PUSH1 0x20 ADD DUP3 DUP1 SLOAD PUSH2 0x372 SWAP1 PUSH2 0x777 JUMP JUMPDEST DUP1 ISZERO PUSH2 0x3BD JUMPI DUP1 PUSH1 0x1F LT PUSH2 0x394 JUMPI PUSH2 0x100 DUP1 DUP4 SLOAD DIV MUL DUP4 MSTORE SWAP2 PUSH1 0x20 ADD SWAP2 PUSH2 0x3BD JUMP JUMPDEST DUP3 ADD SWAP2 SWAP1 PUSH0 MSTORE PUSH1 0x20 PUSH0 KECCAK256 SWAP1 JUMPDEST DUP2 SLOAD DUP2 MSTORE SWAP1 PUSH1 0x1 ADD SWAP1 PUSH1 0x20 ADD DUP1 DUP4 GT PUSH2 0x3A0 JUMPI DUP3 SWAP1 SUB PUSH1 0x1F AND DUP3 ADD SWAP2 JUMPDEST POP POP POP POP POP SWAP1 DUP1 PUSH1 0x1 ADD PUSH0 SWAP1 SLOAD SWAP1 PUSH2 0x100 EXP SWAP1 DIV PUSH1 0xFF AND SWAP1 POP DUP3 JUMP JUMPDEST PUSH0 DUP1 REVERT JUMPDEST PUSH0 DUP1 REVERT JUMPDEST PUSH0 DUP2 SWAP1 POP SWAP2 SWAP1 POP JUMP JUMPDEST PUSH2 0x3F3 DUP2 PUSH2 0x3E1 JUMP JUMPDEST DUP2 EQ PUSH2 0x3FD JUMPI PUSH0 DUP1 REVERT JUMPDEST POP JUMP JUMPDEST PUSH0 DUP2 CALLDATALOAD SWAP1 POP PUSH2 0x40E DUP2 PUSH2 0x3EA JUMP JUMPDEST SWAP3 SWAP2 POP POP JUMP JUMPDEST PUSH0 PUSH1 0x20 DUP3 DUP5 SUB SLT ISZERO PUSH2 0x429 JUMPI PUSH2 0x428 PUSH2 0x3D9 JUMP JUMPDEST JUMPDEST PUSH0 PUSH2 0x436 DUP5 DUP3 DUP6 ADD PUSH2 0x400 JUMP JUMPDEST SWAP2 POP POP SWAP3 SWAP2 POP POP JUMP JUMPDEST PUSH0 DUP1 REVERT JUMPDEST PUSH0 DUP1 REVERT JUMPDEST PUSH0 DUP1 REVERT JUMPDEST PUSH0 DUP1 DUP4 PUSH1 0x1F DUP5 ADD SLT PUSH2 0x460 JUMPI PUSH2 0x45F PUSH2 0x43F JUMP JUMPDEST JUMPDEST DUP3 CALLDATALOAD SWAP1 POP PUSH8 0xFFFFFFFFFFFFFFFF DUP2 GT ISZERO PUSH2 0x47D JUMPI PUSH2 0x47C PUSH2 0x443 JUMP JUMPDEST JUMPDEST PUSH1 0x20 DUP4 ADD SWAP2 POP DUP4 PUSH1 0x1 DUP3 MUL DUP4 ADD GT ISZERO PUSH2 0x499 JUMPI PUSH2 0x498 PUSH2 0x447 JUMP JUMPDEST JUMPDEST SWAP3 POP SWAP3 SWAP1 POP JUMP JUMPDEST PUSH0 DUP1 PUSH1 0x20 DUP4 DUP6 SUB SLT ISZERO PUSH2 0x4B6 JUMPI PUSH2 0x4B5 PUSH2 0x3D9 JUMP JUMPDEST JUMPDEST PUSH0 DUP4 ADD CALLDATALOAD PUSH8 0xFFFFFFFFFFFFFFFF DUP2 GT ISZERO PUSH2 0x4D3 JUMPI PUSH2 0x4D2 PUSH2 0x3DD JUMP JUMPDEST JUMPDEST PUSH2 0x4DF DUP6 DUP3 DUP7 ADD PUSH2 0x44B JUMP JUMPDEST SWAP3 POP SWAP3 POP POP SWAP3 POP SWAP3 SWAP1 POP JUMP JUMPDEST PUSH0 DUP1 PUSH0 PUSH1 0x40 DUP5 DUP7 SUB SLT ISZERO PUSH2 0x502 JUMPI PUSH2 0x501 PUSH2 0x3D9 JUMP JUMPDEST JUMPDEST PUSH0 PUSH2 0x50F DUP7 DUP3 DUP8 ADD PUSH2 0x400 JUMP JUMPDEST SWAP4 POP POP PUSH1 0x20 DUP5 ADD CALLDATALOAD PUSH8 0xFFFFFFFFFFFFFFFF DUP2 GT ISZERO PUSH2 0x530 JUMPI PUSH2 0x52F PUSH2 0x3DD JUMP JUMPDEST JUMPDEST PUSH2 0x53C DUP7 DUP3 DUP8 ADD PUSH2 0x44B JUMP JUMPDEST SWAP3 POP SWAP3 POP POP SWAP3 POP SWAP3 POP SWAP3 JUMP JUMPDEST PUSH2 0x551 DUP2 PUSH2 0x3E1 JUMP JUMPDEST DUP3 MSTORE POP POP JUMP JUMPDEST PUSH0 PUSH1 0x20 DUP3 ADD SWAP1 POP PUSH2 0x56A PUSH0 DUP4 ADD DUP5 PUSH2 0x548 JUMP JUMPDEST SWAP3 SWAP2 POP POP JUMP JUMPDEST PUSH0 DUP2 MLOAD SWAP1 POP SWAP2 SWAP1 POP JUMP JUMPDEST PUSH0 DUP3 DUP3 MSTORE PUSH1 0x20 DUP3 ADD SWAP1 POP SWAP3 SWAP2 POP POP JUMP JUMPDEST DUP3 DUP2 DUP4 MCOPY PUSH0 DUP4 DUP4 ADD MSTORE POP POP POP JUMP JUMPDEST PUSH0 PUSH1 0x1F NOT PUSH1 0x1F DUP4 ADD AND SWAP1 POP SWAP2 SWAP1 POP JUMP JUMPDEST PUSH0 PUSH2 0x5B2 DUP3 PUSH2 0x570 JUMP JUMPDEST PUSH2 0x5BC DUP2 DUP6 PUSH2 0x57A JUMP JUMPDEST SWAP4 POP PUSH2 0x5CC DUP2 DUP6 PUSH1 0x20 DUP7 ADD PUSH2 0x58A JUMP JUMPDEST PUSH2 0x5D5 DUP2 PUSH2 0x598 JUMP JUMPDEST DUP5 ADD SWAP2 POP POP SWAP3 SWAP2 POP POP JUMP JUMPDEST PUSH0 DUP2 ISZERO ISZERO SWAP1 POP SWAP2 SWAP1 POP JUMP JUMPDEST PUSH2 0x5F4 DUP2 PUSH2 0x5E0 JUMP JUMPDEST DUP3 MSTORE POP POP JUMP JUMPDEST PUSH0 PUSH1 0x40 DUP3 ADD SWAP1 POP DUP2 DUP2 SUB PUSH0 DUP4 ADD MSTORE PUSH2 0x612 DUP2 DUP6 PUSH2 0x5A8 JUMP JUMPDEST SWAP1 POP PUSH2 0x621 PUSH1 0x20 DUP4 ADD DUP5 PUSH2 0x5EB JUMP JUMPDEST SWAP4 SWAP3 POP POP POP JUMP JUMPDEST PUSH32 0x4E487B7100000000000000000000000000000000000000000000000000000000 PUSH0 MSTORE PUSH1 0x11 PUSH1 0x4 MSTORE PUSH1 0x24 PUSH0 REVERT JUMPDEST PUSH0 PUSH2 0x65F DUP3 PUSH2 0x3E1 JUMP JUMPDEST SWAP2 POP PUSH2 0x66A DUP4 PUSH2 0x3E1 JUMP JUMPDEST SWAP3 POP DUP3 DUP3 SUB SWAP1 POP DUP2 DUP2 GT ISZERO PUSH2 0x682 JUMPI PUSH2 0x681 PUSH2 0x628 JUMP JUMPDEST JUMPDEST SWAP3 SWAP2 POP POP JUMP JUMPDEST PUSH32 0x696E646578206F7574206F662072616E67650000000000000000000000000000 PUSH0 DUP3 ADD MSTORE POP JUMP JUMPDEST PUSH0 PUSH2 0x6BC PUSH1 0x12 DUP4 PUSH2 0x57A JUMP JUMPDEST SWAP2 POP PUSH2 0x6C7 DUP3 PUSH2 0x688 JUMP JUMPDEST PUSH1 0x20 DUP3 ADD SWAP1 POP SWAP2 SWAP1 POP JUMP JUMPDEST PUSH0 PUSH1 0x20 DUP3 ADD SWAP1 POP DUP2 DUP2 SUB PUSH0 DUP4 ADD MSTORE PUSH2 0x6E9 DUP2 PUSH2 0x6B0 JUMP JUMPDEST SWAP1 POP SWAP2 SWAP1 POP JUMP JUMPDEST PUSH32 0x4E487B7100000000000000000000000000000000000000000000000000000000 PUSH0 MSTORE PUSH1 0x32 PUSH1 0x4 MSTORE PUSH1 0x24 PUSH0 REVERT JUMPDEST PUSH32 0x4E487B7100000000000000000000000000000000000000000000000000000000 PUSH0 MSTORE PUSH1 0x41 PUSH1 0x4 MSTORE PUSH1 0x24 PUSH0 REVERT JUMPDEST PUSH32 0x4E487B7100000000000000000000000000000000000000000000000000000000 PUSH0 MSTORE PUSH1 0x22 PUSH1 0x4 MSTORE PUSH1 0x24 PUSH0 REVERT JUMPDEST PUSH0 PUSH1 0x2 DUP3 DIV SWAP1 POP PUSH1 0x1 DUP3 AND DUP1 PUSH2 0x78E JUMPI PUSH1 0x7F DUP3 AND SWAP2 POP JUMPDEST PUSH1 0x20 DUP3 LT DUP2 SUB PUSH2 0x7A1 JUMPI PUSH2 0x7A0 PUSH2 0x74A JUMP JUMPDEST JUMPDEST POP SWAP2 SWAP1 POP JUMP JUMPDEST PUSH0 DUP2 SWAP1 POP DUP2 PUSH0 MSTORE PUSH1 0x20 PUSH0 KECCAK256 SWAP1 POP SWAP2 SWAP1 POP JUMP JUMPDEST PUSH0 PUSH1 0x20 PUSH1 0x1F DUP4 ADD DIV SWAP1 POP SWAP2 SWAP1 POP JUMP JUMPDEST PUSH0 DUP3 DUP3 SHL SWAP1 POP SWAP3 SWAP2 POP POP JUMP JUMPDEST PUSH0 PUSH1 0x8 DUP4 MUL PUSH2 0x803 PUSH32 0xFFFFFFFFFFFFFFFFFFFFFFFFFFFFFFFFFFFFFFFFFFFFFFFFFFFFFFFFFFFFFFFF DUP3 PUSH2 0x7C8 JUMP JUMPDEST PUSH2 0x80D DUP7 DUP4 PUSH2 0x7C8 JUMP JUMPDEST SWAP6 POP DUP1 NOT DUP5 AND SWAP4 POP DUP1 DUP7 AND DUP5 OR SWAP3 POP POP POP SWAP4 SWAP3 POP POP POP JUMP JUMPDEST PUSH0 DUP2 SWAP1 POP SWAP2 SWAP1 POP JUMP JUMPDEST PUSH0 PUSH2 0x848 PUSH2 0x843 PUSH2 0x83E DUP5 PUSH2 0x3E1 JUMP JUMPDEST PUSH2 0x825 JUMP JUMPDEST PUSH2 0x3E1 JUMP JUMPDEST SWAP1 POP SWAP2 SWAP1 POP JUMP JUMPDEST PUSH0 DUP2 SWAP1 POP SWAP2 SWAP1 POP JUMP JUMPDEST PUSH2 0x861 DUP4 PUSH2 0x82E JUMP JUMPDEST PUSH2 0x875 PUSH2 0x86D DUP3 PUSH2 0x84F JUMP JUMPDEST DUP5 DUP5 SLOAD PUSH2 0x7D4 JUMP JUMPDEST DUP3 SSTORE POP POP POP POP JUMP JUMPDEST PUSH0 SWAP1 JUMP JUMPDEST PUSH2 0x889 PUSH2 0x87D JUMP JUMPDEST PUSH2 0x894 DUP2 DUP5 DUP5 PUSH2 0x858 JUMP JUMPDEST POP POP POP JUMP JUMPDEST JUMPDEST DUP2 DUP2 LT ISZERO PUSH2 0x8B7 JUMPI PUSH2 0x8AC PUSH0 DUP3 PUSH2 0x881 JUMP JUMPDEST PUSH1 0x1 DUP2 ADD SWAP1 POP PUSH2 0x89A JUMP JUMPDEST POP POP JUMP JUMPDEST PUSH1 0x1F DUP3 GT ISZERO PUSH2 0x8FC JUMPI PUSH2 0x8CD DUP2 PUSH2 0x7A7 JUMP JUMPDEST PUSH2 0x8D6 DUP5 PUSH2 0x7B9 JUMP JUMPDEST DUP2 ADD PUSH1 0x20 DUP6 LT ISZERO PUSH2 0x8E5 JUMPI DUP2 SWAP1 POP JUMPDEST PUSH2 0x8F9 PUSH2 0x8F1 DUP6 PUSH2 0x7B9 JUMP JUMPDEST DUP4 ADD DUP3 PUSH2 0x899 JUMP JUMPDEST POP POP JUMPDEST POP POP POP JUMP JUMPDEST PUSH0 DUP3 DUP3 SHR SWAP1 POP SWAP3 SWAP2 POP POP JUMP JUMPDEST PUSH0 PUSH2 0x91C PUSH0 NOT DUP5 PUSH1 0x8 MUL PUSH2 0x901 JUMP JUMPDEST NOT DUP1 DUP4 AND SWAP2 POP POP SWAP3 SWAP2 POP POP JUMP JUMPDEST PUSH0 PUSH2 0x934 DUP4 DUP4 PUSH2 0x90D JUMP JUMPDEST SWAP2 POP DUP3 PUSH1 0x2 MUL DUP3 OR SWAP1 POP SWAP3 SWAP2 POP POP JUMP JUMPDEST PUSH2 0x94D DUP3 PUSH2 0x570 JUMP JUMPDEST PUSH8 0xFFFFFFFFFFFFFFFF DUP2 GT ISZERO PUSH2 0x966 JUMPI PUSH2 0x965 PUSH2 0x71D JUMP JUMPDEST JUMPDEST PUSH2 0x970 DUP3 SLOAD PUSH2 0x777 JUMP JUMPDEST PUSH2 0x97B DUP3 DUP3 DUP6 PUSH2 0x8BB JUMP JUMPDEST PUSH0 PUSH1 0x20 SWAP1 POP PUSH1 0x1F DUP4 GT PUSH1 0x1 DUP2 EQ PUSH2 0x9AC JUMPI PUSH0 DUP5 ISZERO PUSH2 0x99A JUMPI DUP3 DUP8 ADD MLOAD SWAP1 POP JUMPDEST PUSH2 0x9A4 DUP6 DUP3 PUSH2 0x929 JUMP JUMPDEST DUP7 SSTORE POP PUSH2 0xA0B JUMP JUMPDEST PUSH1 0x1F NOT DUP5 AND PUSH2 0x9BA DUP7 PUSH2 0x7A7 JUMP JUMPDEST PUSH0 JUMPDEST DUP3 DUP2 LT ISZERO PUSH2 0x9E1 JUMPI DUP5 DUP10 ADD MLOAD DUP3 SSTORE PUSH1 0x1 DUP3 ADD SWAP2 POP PUSH1 0x20 DUP6 ADD SWAP5 POP PUSH1 0x20 DUP2 ADD SWAP1 POP PUSH2 0x9BC JUMP JUMPDEST DUP7 DUP4 LT ISZERO PUSH2 0x9FE JUMPI DUP5 DUP10 ADD MLOAD PUSH2 0x9FA PUSH1 0x1F DUP10 AND DUP3 PUSH2 0x90D JUMP JUMPDEST DUP4 SSTORE POP JUMPDEST PUSH1 0x1 PUSH1 0x2 DUP9 MUL ADD DUP9 SSTORE POP POP POP JUMPDEST POP POP POP POP POP POP JUMP JUMPDEST PUSH0 DUP3 SWAP1 POP SWAP3 SWAP2 POP POP JUMP JUMPDEST PUSH2 0xA27 DUP4 DUP4 PUSH2 0xA13 JUMP JUMPDEST PUSH8 0xFFFFFFFFFFFFFFFF DUP2 GT ISZERO PUSH2 0xA40 JUMPI PUSH2 0xA3F PUSH2 0x71D JUMP JUMPDEST JUMPDEST PUSH2 0xA4A DUP3 SLOAD PUSH2 0x777 JUMP JUMPDEST PUSH2 0xA55 DUP3 DUP3 DUP6 PUSH2 0x8BB JUMP JUMPDEST PUSH0 PUSH1 0x1F DUP4 GT PUSH1 0x1 DUP2 EQ PUSH2 0xA82 JUMPI PUSH0 DUP5 ISZERO PUSH2 0xA70 JUMPI DUP3 DUP8 ADD CALLDATALOAD SWAP1 POP JUMPDEST PUSH2 0xA7A DUP6 DUP3 PUSH2 0x929 JUMP JUMPDEST DUP7 SSTORE POP PUSH2 0xAE1 JUMP JUMPDEST PUSH1 0x1F NOT DUP5 AND PUSH2 0xA90 DUP7 PUSH2 0x7A7 JUMP JUMPDEST PUSH0 JUMPDEST DUP3 DUP2 LT ISZERO PUSH2 0xAB7 JUMPI DUP5 DUP10 ADD CALLDATALOAD DUP3 SSTORE PUSH1 0x1 DUP3 ADD SWAP2 POP PUSH1 0x20 DUP6 ADD SWAP5 POP PUSH1 0x20 DUP2 ADD SWAP1 POP PUSH2 0xA92 JUMP JUMPDEST DUP7 DUP4 LT ISZERO PUSH2 0xAD4 JUMPI DUP5 DUP10 ADD CALLDATALOAD PUSH2 0xAD0 PUSH1 0x1F DUP10 AND DUP3 PUSH2 0x90D JUMP JUMPDEST DUP4 SSTORE POP JUMPDEST PUSH1 0x1 PUSH1 0x2 DUP9 MUL ADD DUP9 SSTORE POP POP POP JUMPDEST POP POP POP POP POP POP POP JUMP INVALID LOG2 PUSH5 0x6970667358 0x22 SLT KECCAK256 DUP7 DUP6 PUSH7 0x58C7E2D0226D18 RETURNDATACOPY 0xE 0xD0 BLOBBASEFEE PUSH24 0x3E8052F4AE5F31A3B81162FE8716E3189564736F6C634300 ADDMOD BYTE STOP CALLER "
				},
				"gasEstimates": {
					"creation": {
						"codeDepositCost": "569600",
						"executionCost": "598",
						"totalCost": "570198"
					},
					"external": {
						"addTask(string)": "infinite",
						"myTasks(uint256)": "infinite",
						"size()": "2484",
						"toggleCompleted(uint256)": "infinite",
						"updateTask(uint256,string)": "infinite"
					}
				},
				"methodIdentifiers": {
					"addTask(string)": "67238562",
					"myTasks(uint256)": "dbc28245",
					"size()": "949d225d",
					"toggleCompleted(uint256)": "455f5024",
					"updateTask(uint256,string)": "86533f6c"
				}
			},
			"storageLayout": {
				"storage": [
					{
						"astId": 10,
						"contract": "todo.sol:MyToDo",
						"label": "myTasks",
						"offset": 0,
						"slot": "0",
						"type": "t_array(t_struct(task)6_storage)dyn_storage"
					}
				],
				"types": {
					"t_array(t_struct(task)6_storage)dyn_storage": {
						"base": "t_struct(task)6_storage",
						"encoding": "dynamic_array",
						"label": "struct MyToDo.task[]",
						"numberOfBytes": "32"
					},
					"t_bool": {
						"encoding": "inplace",
						"label": "bool",
						"numberOfBytes": "1"
					},
					"t_string_storage": {
						"encoding": "bytes",
						"label": "string",
						"numberOfBytes": "32"
					},
					"t_struct(task)6_storage": {
						"encoding": "inplace",
						"label": "struct MyToDo.task",
						"members": [
							{
								"astId": 3,
								"contract": "todo.sol:MyToDo",
								"label": "text",
								"offset": 0,
								"slot": "0",
								"type": "t_string_storage"
							},
							{
								"astId": 5,
								"contract": "todo.sol:MyToDo",
								"label": "finished",
								"offset": 0,
								"slot": "1",
								"type": "t_bool"
							}
						],
						"numberOfBytes": "64"
					}
				}
			},
			"userdoc": {
				"kind": "user",
				"methods": {},
				"version": 1
			}
		}
	}
}