{
	"removeArray.sol": {
		"RemoveArray": {
			"abi": [
				{
					"inputs": [
						{
							"internalType": "uint256",
							"name": "",
							"type": "uint256"
						}
					],
					"name": "MyArray",
					"outputs": [
						{
							"internalType": "uint256",
							"name": "",
							"type": "uint256"
						}
					],
					"stateMutability": "view",
					"type": "function"
				},
				{
					"inputs": [
						{
							"internalType": "uint256",
							"name": "idx",
							"type": "uint256"
						},
						{
							"internalType": "bool",
							"name": "keepOrder",
							"type": "bool"
						}
					],
					"name": "removeEleByIdx",
					"outputs": [
						{
							"internalType": "uint256",
							"name": "len",
							"type": "uint256"
						}
					],
					"stateMutability": "nonpayable",
					"type": "function"
				}
			],
			"devdoc": {
				"kind": "dev",
				"methods": {},
				"version": 1
			},
			"evm": {
				"assembly": "    /* \"removeArray.sol\":94:2171  contract RemoveArray{... */\n  mstore(0x40, 0x80)\n    /* \"removeArray.sol\":172:209  uint[] public MyArray = [1,2,3,4,5,6] */\n  mload(0x40)\n  dup1\n  0xc0\n  add\n  0x40\n  mstore\n  dup1\n    /* \"removeArray.sol\":197:198  1 */\n  0x01\n    /* \"removeArray.sol\":172:209  uint[] public MyArray = [1,2,3,4,5,6] */\n  0xff\n  and\n  dup2\n  mstore\n  0x20\n  add\n    /* \"removeArray.sol\":199:200  2 */\n  0x02\n    /* \"removeArray.sol\":172:209  uint[] public MyArray = [1,2,3,4,5,6] */\n  0xff\n  and\n  dup2\n  mstore\n  0x20\n  add\n    /* \"removeArray.sol\":201:202  3 */\n  0x03\n    /* \"removeArray.sol\":172:209  uint[] public MyArray = [1,2,3,4,5,6] */\n  0xff\n  and\n  dup2\n  mstore\n  0x20\n  add\n    /* \"removeArray.sol\":203:204  4 */\n  0x04\n    /* \"removeArray.sol\":172:209  uint[] public MyArray = [1,2,3,4,5,6] */\n  0xff\n  and\n  dup2\n  mstore\n  0x20\n  add\n    /* \"removeArray.sol\":205:206  5 */\n  0x05\n    /* \"removeArray.sol\":172:209  uint[] public MyArray = [1,2,3,4,5,6] */\n  0xff\n  and\n  dup2\n  mstore\n  0x20\n  add\n    /* \"removeArray.sol\":207:208  6 */\n  0x06\n    /* \"removeArray.sol\":172:209  uint[] public MyArray = [1,2,3,4,5,6] */\n  0xff\n  and\n  dup2\n  mstore\n  pop\n  0x00\n  swap1\n  0x06\n  tag_1\n  swap3\n  swap2\n  swap1\n  tag_2\n  jump\t// in\ntag_1:\n  pop\n    /* \"removeArray.sol\":94:2171  contract RemoveArray{... */\n  callvalue\n  dup1\n  iszero\n  tag_3\n  jumpi\n  0x00\n  dup1\n  revert\ntag_3:\n  pop\n  jump(tag_4)\ntag_2:\n  dup3\n  dup1\n  sload\n  dup3\n  dup3\n  sstore\n  swap1\n  0x00\n  mstore\n  keccak256(0x00, 0x20)\n  swap1\n  dup2\n  add\n  swap3\n  dup3\n  iszero\n  tag_5\n  jumpi\n  swap2\n  0x20\n  mul\n  dup3\n  add\ntag_6:\n  dup3\n  dup2\n  gt\n  iszero\n  tag_7\n  jumpi\n  dup3\n  mload\n  dup3\n  swap1\n  0xff\n  and\n  swap1\n  sstore\n  swap2\n  0x20\n  add\n  swap2\n  swap1\n  0x01\n  add\n  swap1\n  jump(tag_6)\ntag_7:\ntag_5:\n  pop\n  swap1\n  pop\n  tag_8\n  swap2\n  swap1\n  tag_9\n  jump\t// in\ntag_8:\n  pop\n  swap1\n  jump\t// out\ntag_9:\ntag_10:\n  dup1\n  dup3\n  gt\n  iszero\n  tag_11\n  jumpi\n  0x00\n  dup2\n  0x00\n  swap1\n  sstore\n  pop\n  0x01\n  add\n  jump(tag_10)\ntag_11:\n  pop\n  swap1\n  jump\t// out\ntag_4:\n  dataSize(sub_0)\n  dup1\n  dataOffset(sub_0)\n  0x00\n  codecopy\n  0x00\n  return\nstop\n\nsub_0: assembly {\n        /* \"removeArray.sol\":94:2171  contract RemoveArray{... */\n      mstore(0x40, 0x80)\n      callvalue\n      dup1\n      iszero\n      tag_1\n      jumpi\n      0x00\n      dup1\n      revert\n    tag_1:\n      pop\n      jumpi(tag_2, lt(calldatasize, 0x04))\n      shr(0xe0, calldataload(0x00))\n      dup1\n      0x1ae5d4aa\n      eq\n      tag_3\n      jumpi\n      dup1\n      0xc6e7a394\n      eq\n      tag_4\n      jumpi\n    tag_2:\n      0x00\n      dup1\n      revert\n        /* \"removeArray.sol\":172:209  uint[] public MyArray = [1,2,3,4,5,6] */\n    tag_3:\n      tag_5\n      0x04\n      dup1\n      calldatasize\n      sub\n      dup2\n      add\n      swap1\n      tag_6\n      swap2\n      swap1\n      tag_7\n      jump\t// in\n    tag_6:\n      tag_8\n      jump\t// in\n    tag_5:\n      mload(0x40)\n      tag_9\n      swap2\n      swap1\n      tag_10\n      jump\t// in\n    tag_9:\n      mload(0x40)\n      dup1\n      swap2\n      sub\n      swap1\n      return\n        /* \"removeArray.sol\":331:1198  function removeEleByIdx(uint idx, bool keepOrder) public returns(uint len){... */\n    tag_4:\n      tag_11\n      0x04\n      dup1\n      calldatasize\n      sub\n      dup2\n      add\n      swap1\n      tag_12\n      swap2\n      swap1\n      tag_13\n      jump\t// in\n    tag_12:\n      tag_14\n      jump\t// in\n    tag_11:\n      mload(0x40)\n      tag_15\n      swap2\n      swap1\n      tag_10\n      jump\t// in\n    tag_15:\n      mload(0x40)\n      dup1\n      swap2\n      sub\n      swap1\n      return\n        /* \"removeArray.sol\":172:209  uint[] public MyArray = [1,2,3,4,5,6] */\n    tag_8:\n      0x00\n      dup2\n      dup2\n      sload\n      dup2\n      lt\n      tag_16\n      jumpi\n      0x00\n      dup1\n      revert\n    tag_16:\n      swap1\n      0x00\n      mstore\n      keccak256(0x00, 0x20)\n      add\n      0x00\n      swap2\n      pop\n      swap1\n      pop\n      sload\n      dup2\n      jump\t// out\n        /* \"removeArray.sol\":331:1198  function removeEleByIdx(uint idx, bool keepOrder) public returns(uint len){... */\n    tag_14:\n        /* \"removeArray.sol\":396:404  uint len */\n      0x00\n        /* \"removeArray.sol\":495:502  MyArray */\n      dup1\n        /* \"removeArray.sol\":495:509  MyArray.length */\n      dup1\n      sload\n      swap1\n      pop\n        /* \"removeArray.sol\":489:509  len = MyArray.length */\n      swap1\n      pop\n        /* \"removeArray.sol\":534:535  0 */\n      0x00\n        /* \"removeArray.sol\":528:531  len */\n      dup2\n        /* \"removeArray.sol\":528:535  len > 0 */\n      gt\n        /* \"removeArray.sol\":520:577  require(len > 0, \"the array is empty, can't be removed.\") */\n      tag_19\n      jumpi\n      mload(0x40)\n      0x08c379a000000000000000000000000000000000000000000000000000000000\n      dup2\n      mstore\n      0x04\n      add\n      tag_20\n      swap1\n      tag_21\n      jump\t// in\n    tag_20:\n      mload(0x40)\n      dup1\n      swap2\n      sub\n      swap1\n      revert\n    tag_19:\n        /* \"removeArray.sol\":609:610  1 */\n      0x01\n        /* \"removeArray.sol\":603:606  len */\n      dup2\n        /* \"removeArray.sol\":603:610  len - 1 */\n      tag_22\n      swap2\n      swap1\n      tag_23\n      jump\t// in\n    tag_22:\n        /* \"removeArray.sol\":596:599  idx */\n      dup4\n        /* \"removeArray.sol\":596:610  idx <= len - 1 */\n      gt\n      iszero\n        /* \"removeArray.sol\":588:637  require(idx <= len - 1, \"Index is out of range.\") */\n      tag_24\n      jumpi\n      mload(0x40)\n      0x08c379a000000000000000000000000000000000000000000000000000000000\n      dup2\n      mstore\n      0x04\n      add\n      tag_25\n      swap1\n      tag_26\n      jump\t// in\n    tag_25:\n      mload(0x40)\n      dup1\n      swap2\n      sub\n      swap1\n      revert\n    tag_24:\n        /* \"removeArray.sol\":713:714  1 */\n      0x01\n        /* \"removeArray.sol\":706:709  len */\n      dup2\n        /* \"removeArray.sol\":706:714  len == 1 */\n      sub\n        /* \"removeArray.sol\":702:739  if (len == 1)... */\n      iszero\n        /* \"removeArray.sol\":729:739  return len */\n      tag_18\n        /* \"removeArray.sol\":702:739  if (len == 1)... */\n      jumpi\n        /* \"removeArray.sol\":752:758  uint i */\n      0x00\n        /* \"removeArray.sol\":761:764  idx */\n      dup4\n        /* \"removeArray.sol\":752:764  uint i = idx */\n      swap1\n      pop\n        /* \"removeArray.sol\":780:789  keepOrder */\n      dup3\n        /* \"removeArray.sol\":777:1170  if(keepOrder){... */\n      iszero\n      tag_28\n      jumpi\n        /* \"removeArray.sol\":877:956  while (i < len - 1){... */\n    tag_29:\n        /* \"removeArray.sol\":894:895  1 */\n      0x01\n        /* \"removeArray.sol\":888:891  len */\n      dup3\n        /* \"removeArray.sol\":888:895  len - 1 */\n      tag_31\n      swap2\n      swap1\n      tag_23\n      jump\t// in\n    tag_31:\n        /* \"removeArray.sol\":884:885  i */\n      dup2\n        /* \"removeArray.sol\":884:895  i < len - 1 */\n      lt\n        /* \"removeArray.sol\":877:956  while (i < len - 1){... */\n      iszero\n      tag_30\n      jumpi\n        /* \"removeArray.sol\":928:935  MyArray */\n      0x00\n        /* \"removeArray.sol\":938:939  1 */\n      0x01\n        /* \"removeArray.sol\":936:937  i */\n      dup3\n        /* \"removeArray.sol\":936:939  i+1 */\n      tag_32\n      swap2\n      swap1\n      tag_33\n      jump\t// in\n    tag_32:\n        /* \"removeArray.sol\":928:940  MyArray[i+1] */\n      dup2\n      sload\n      dup2\n      lt\n      tag_34\n      jumpi\n      tag_35\n      tag_36\n      jump\t// in\n    tag_35:\n    tag_34:\n      swap1\n      0x00\n      mstore\n      keccak256(0x00, 0x20)\n      add\n      sload\n        /* \"removeArray.sol\":915:922  MyArray */\n      0x00\n        /* \"removeArray.sol\":923:924  i */\n      dup3\n        /* \"removeArray.sol\":915:925  MyArray[i] */\n      dup2\n      sload\n      dup2\n      lt\n      tag_38\n      jumpi\n      tag_39\n      tag_36\n      jump\t// in\n    tag_39:\n    tag_38:\n      swap1\n      0x00\n      mstore\n      keccak256(0x00, 0x20)\n      add\n        /* \"removeArray.sol\":915:940  MyArray[i] = MyArray[i+1] */\n      dup2\n      swap1\n      sstore\n      pop\n        /* \"removeArray.sol\":877:956  while (i < len - 1){... */\n      jump(tag_29)\n    tag_30:\n        /* \"removeArray.sol\":970:977  MyArray */\n      0x00\n        /* \"removeArray.sol\":970:983  MyArray.pop() */\n      dup1\n      sload\n      dup1\n      tag_41\n      jumpi\n      tag_42\n      tag_43\n      jump\t// in\n    tag_42:\n    tag_41:\n      0x01\n      swap1\n      sub\n      dup2\n      dup2\n      swap1\n      0x00\n      mstore\n      keccak256(0x00, 0x20)\n      add\n      0x00\n      swap1\n      sstore\n      swap1\n      sstore\n        /* \"removeArray.sol\":777:1170  if(keepOrder){... */\n      jump(tag_45)\n    tag_28:\n        /* \"removeArray.sol\":1113:1120  MyArray */\n      0x00\n        /* \"removeArray.sol\":1127:1128  1 */\n      0x01\n        /* \"removeArray.sol\":1121:1124  len */\n      dup4\n        /* \"removeArray.sol\":1121:1128  len - 1 */\n      tag_46\n      swap2\n      swap1\n      tag_23\n      jump\t// in\n    tag_46:\n        /* \"removeArray.sol\":1113:1130  MyArray[len - 1 ] */\n      dup2\n      sload\n      dup2\n      lt\n      tag_47\n      jumpi\n      tag_48\n      tag_36\n      jump\t// in\n    tag_48:\n    tag_47:\n      swap1\n      0x00\n      mstore\n      keccak256(0x00, 0x20)\n      add\n      sload\n        /* \"removeArray.sol\":1100:1107  MyArray */\n      0x00\n        /* \"removeArray.sol\":1108:1109  i */\n      dup3\n        /* \"removeArray.sol\":1100:1110  MyArray[i] */\n      dup2\n      sload\n      dup2\n      lt\n      tag_50\n      jumpi\n      tag_51\n      tag_36\n      jump\t// in\n    tag_51:\n    tag_50:\n      swap1\n      0x00\n      mstore\n      keccak256(0x00, 0x20)\n      add\n        /* \"removeArray.sol\":1100:1130  MyArray[i] = MyArray[len - 1 ] */\n      dup2\n      swap1\n      sstore\n      pop\n        /* \"removeArray.sol\":1145:1152  MyArray */\n      0x00\n        /* \"removeArray.sol\":1145:1158  MyArray.pop() */\n      dup1\n      sload\n      dup1\n      tag_53\n      jumpi\n      tag_54\n      tag_43\n      jump\t// in\n    tag_54:\n    tag_53:\n      0x01\n      swap1\n      sub\n      dup2\n      dup2\n      swap1\n      0x00\n      mstore\n      keccak256(0x00, 0x20)\n      add\n      0x00\n      swap1\n      sstore\n      swap1\n      sstore\n        /* \"removeArray.sol\":777:1170  if(keepOrder){... */\n    tag_45:\n        /* \"removeArray.sol\":1180:1190  return len */\n      pop\n        /* \"removeArray.sol\":331:1198  function removeEleByIdx(uint idx, bool keepOrder) public returns(uint len){... */\n    tag_18:\n      swap3\n      swap2\n      pop\n      pop\n      jump\t// out\n        /* \"#utility.yul\":88:205   */\n    tag_57:\n        /* \"#utility.yul\":197:198   */\n      0x00\n        /* \"#utility.yul\":194:195   */\n      dup1\n        /* \"#utility.yul\":187:199   */\n      revert\n        /* \"#utility.yul\":334:411   */\n    tag_59:\n        /* \"#utility.yul\":371:378   */\n      0x00\n        /* \"#utility.yul\":400:405   */\n      dup2\n        /* \"#utility.yul\":389:405   */\n      swap1\n      pop\n        /* \"#utility.yul\":334:411   */\n      swap2\n      swap1\n      pop\n      jump\t// out\n        /* \"#utility.yul\":417:539   */\n    tag_60:\n        /* \"#utility.yul\":490:514   */\n      tag_78\n        /* \"#utility.yul\":508:513   */\n      dup2\n        /* \"#utility.yul\":490:514   */\n      tag_59\n      jump\t// in\n    tag_78:\n        /* \"#utility.yul\":483:488   */\n      dup2\n        /* \"#utility.yul\":480:515   */\n      eq\n        /* \"#utility.yul\":470:533   */\n      tag_79\n      jumpi\n        /* \"#utility.yul\":529:530   */\n      0x00\n        /* \"#utility.yul\":526:527   */\n      dup1\n        /* \"#utility.yul\":519:531   */\n      revert\n        /* \"#utility.yul\":470:533   */\n    tag_79:\n        /* \"#utility.yul\":417:539   */\n      pop\n      jump\t// out\n        /* \"#utility.yul\":545:684   */\n    tag_61:\n        /* \"#utility.yul\":591:596   */\n      0x00\n        /* \"#utility.yul\":629:635   */\n      dup2\n        /* \"#utility.yul\":616:636   */\n      calldataload\n        /* \"#utility.yul\":607:636   */\n      swap1\n      pop\n        /* \"#utility.yul\":645:678   */\n      tag_81\n        /* \"#utility.yul\":672:677   */\n      dup2\n        /* \"#utility.yul\":645:678   */\n      tag_60\n      jump\t// in\n    tag_81:\n        /* \"#utility.yul\":545:684   */\n      swap3\n      swap2\n      pop\n      pop\n      jump\t// out\n        /* \"#utility.yul\":690:1019   */\n    tag_7:\n        /* \"#utility.yul\":749:755   */\n      0x00\n        /* \"#utility.yul\":798:800   */\n      0x20\n        /* \"#utility.yul\":786:795   */\n      dup3\n        /* \"#utility.yul\":777:784   */\n      dup5\n        /* \"#utility.yul\":773:796   */\n      sub\n        /* \"#utility.yul\":769:801   */\n      slt\n        /* \"#utility.yul\":766:885   */\n      iszero\n      tag_83\n      jumpi\n        /* \"#utility.yul\":804:883   */\n      tag_84\n      tag_57\n      jump\t// in\n    tag_84:\n        /* \"#utility.yul\":766:885   */\n    tag_83:\n        /* \"#utility.yul\":924:925   */\n      0x00\n        /* \"#utility.yul\":949:1002   */\n      tag_85\n        /* \"#utility.yul\":994:1001   */\n      dup5\n        /* \"#utility.yul\":985:991   */\n      dup3\n        /* \"#utility.yul\":974:983   */\n      dup6\n        /* \"#utility.yul\":970:992   */\n      add\n        /* \"#utility.yul\":949:1002   */\n      tag_61\n      jump\t// in\n    tag_85:\n        /* \"#utility.yul\":939:1002   */\n      swap2\n      pop\n        /* \"#utility.yul\":895:1012   */\n      pop\n        /* \"#utility.yul\":690:1019   */\n      swap3\n      swap2\n      pop\n      pop\n      jump\t// out\n        /* \"#utility.yul\":1025:1143   */\n    tag_62:\n        /* \"#utility.yul\":1112:1136   */\n      tag_87\n        /* \"#utility.yul\":1130:1135   */\n      dup2\n        /* \"#utility.yul\":1112:1136   */\n      tag_59\n      jump\t// in\n    tag_87:\n        /* \"#utility.yul\":1107:1110   */\n      dup3\n        /* \"#utility.yul\":1100:1137   */\n      mstore\n        /* \"#utility.yul\":1025:1143   */\n      pop\n      pop\n      jump\t// out\n        /* \"#utility.yul\":1149:1371   */\n    tag_10:\n        /* \"#utility.yul\":1242:1246   */\n      0x00\n        /* \"#utility.yul\":1280:1282   */\n      0x20\n        /* \"#utility.yul\":1269:1278   */\n      dup3\n        /* \"#utility.yul\":1265:1283   */\n      add\n        /* \"#utility.yul\":1257:1283   */\n      swap1\n      pop\n        /* \"#utility.yul\":1293:1364   */\n      tag_89\n        /* \"#utility.yul\":1361:1362   */\n      0x00\n        /* \"#utility.yul\":1350:1359   */\n      dup4\n        /* \"#utility.yul\":1346:1363   */\n      add\n        /* \"#utility.yul\":1337:1343   */\n      dup5\n        /* \"#utility.yul\":1293:1364   */\n      tag_62\n      jump\t// in\n    tag_89:\n        /* \"#utility.yul\":1149:1371   */\n      swap3\n      swap2\n      pop\n      pop\n      jump\t// out\n        /* \"#utility.yul\":1377:1467   */\n    tag_63:\n        /* \"#utility.yul\":1411:1418   */\n      0x00\n        /* \"#utility.yul\":1454:1459   */\n      dup2\n        /* \"#utility.yul\":1447:1460   */\n      iszero\n        /* \"#utility.yul\":1440:1461   */\n      iszero\n        /* \"#utility.yul\":1429:1461   */\n      swap1\n      pop\n        /* \"#utility.yul\":1377:1467   */\n      swap2\n      swap1\n      pop\n      jump\t// out\n        /* \"#utility.yul\":1473:1589   */\n    tag_64:\n        /* \"#utility.yul\":1543:1564   */\n      tag_92\n        /* \"#utility.yul\":1558:1563   */\n      dup2\n        /* \"#utility.yul\":1543:1564   */\n      tag_63\n      jump\t// in\n    tag_92:\n        /* \"#utility.yul\":1536:1541   */\n      dup2\n        /* \"#utility.yul\":1533:1565   */\n      eq\n        /* \"#utility.yul\":1523:1583   */\n      tag_93\n      jumpi\n        /* \"#utility.yul\":1579:1580   */\n      0x00\n        /* \"#utility.yul\":1576:1577   */\n      dup1\n        /* \"#utility.yul\":1569:1581   */\n      revert\n        /* \"#utility.yul\":1523:1583   */\n    tag_93:\n        /* \"#utility.yul\":1473:1589   */\n      pop\n      jump\t// out\n        /* \"#utility.yul\":1595:1728   */\n    tag_65:\n        /* \"#utility.yul\":1638:1643   */\n      0x00\n        /* \"#utility.yul\":1676:1682   */\n      dup2\n        /* \"#utility.yul\":1663:1683   */\n      calldataload\n        /* \"#utility.yul\":1654:1683   */\n      swap1\n      pop\n        /* \"#utility.yul\":1692:1722   */\n      tag_95\n        /* \"#utility.yul\":1716:1721   */\n      dup2\n        /* \"#utility.yul\":1692:1722   */\n      tag_64\n      jump\t// in\n    tag_95:\n        /* \"#utility.yul\":1595:1728   */\n      swap3\n      swap2\n      pop\n      pop\n      jump\t// out\n        /* \"#utility.yul\":1734:2202   */\n    tag_13:\n        /* \"#utility.yul\":1799:1805   */\n      0x00\n        /* \"#utility.yul\":1807:1813   */\n      dup1\n        /* \"#utility.yul\":1856:1858   */\n      0x40\n        /* \"#utility.yul\":1844:1853   */\n      dup4\n        /* \"#utility.yul\":1835:1842   */\n      dup6\n        /* \"#utility.yul\":1831:1854   */\n      sub\n        /* \"#utility.yul\":1827:1859   */\n      slt\n        /* \"#utility.yul\":1824:1943   */\n      iszero\n      tag_97\n      jumpi\n        /* \"#utility.yul\":1862:1941   */\n      tag_98\n      tag_57\n      jump\t// in\n    tag_98:\n        /* \"#utility.yul\":1824:1943   */\n    tag_97:\n        /* \"#utility.yul\":1982:1983   */\n      0x00\n        /* \"#utility.yul\":2007:2060   */\n      tag_99\n        /* \"#utility.yul\":2052:2059   */\n      dup6\n        /* \"#utility.yul\":2043:2049   */\n      dup3\n        /* \"#utility.yul\":2032:2041   */\n      dup7\n        /* \"#utility.yul\":2028:2050   */\n      add\n        /* \"#utility.yul\":2007:2060   */\n      tag_61\n      jump\t// in\n    tag_99:\n        /* \"#utility.yul\":1997:2060   */\n      swap3\n      pop\n        /* \"#utility.yul\":1953:2070   */\n      pop\n        /* \"#utility.yul\":2109:2111   */\n      0x20\n        /* \"#utility.yul\":2135:2185   */\n      tag_100\n        /* \"#utility.yul\":2177:2184   */\n      dup6\n        /* \"#utility.yul\":2168:2174   */\n      dup3\n        /* \"#utility.yul\":2157:2166   */\n      dup7\n        /* \"#utility.yul\":2153:2175   */\n      add\n        /* \"#utility.yul\":2135:2185   */\n      tag_65\n      jump\t// in\n    tag_100:\n        /* \"#utility.yul\":2125:2185   */\n      swap2\n      pop\n        /* \"#utility.yul\":2080:2195   */\n      pop\n        /* \"#utility.yul\":1734:2202   */\n      swap3\n      pop\n      swap3\n      swap1\n      pop\n      jump\t// out\n        /* \"#utility.yul\":2208:2377   */\n    tag_66:\n        /* \"#utility.yul\":2292:2303   */\n      0x00\n        /* \"#utility.yul\":2326:2332   */\n      dup3\n        /* \"#utility.yul\":2321:2324   */\n      dup3\n        /* \"#utility.yul\":2314:2333   */\n      mstore\n        /* \"#utility.yul\":2366:2370   */\n      0x20\n        /* \"#utility.yul\":2361:2364   */\n      dup3\n        /* \"#utility.yul\":2357:2371   */\n      add\n        /* \"#utility.yul\":2342:2371   */\n      swap1\n      pop\n        /* \"#utility.yul\":2208:2377   */\n      swap3\n      swap2\n      pop\n      pop\n      jump\t// out\n        /* \"#utility.yul\":2383:2607   */\n    tag_67:\n        /* \"#utility.yul\":2523:2557   */\n      0x74686520617272617920697320656d7074792c2063616e27742062652072656d\n        /* \"#utility.yul\":2519:2520   */\n      0x00\n        /* \"#utility.yul\":2511:2517   */\n      dup3\n        /* \"#utility.yul\":2507:2521   */\n      add\n        /* \"#utility.yul\":2500:2558   */\n      mstore\n        /* \"#utility.yul\":2592:2599   */\n      0x6f7665642e000000000000000000000000000000000000000000000000000000\n        /* \"#utility.yul\":2587:2589   */\n      0x20\n        /* \"#utility.yul\":2579:2585   */\n      dup3\n        /* \"#utility.yul\":2575:2590   */\n      add\n        /* \"#utility.yul\":2568:2600   */\n      mstore\n        /* \"#utility.yul\":2383:2607   */\n      pop\n      jump\t// out\n        /* \"#utility.yul\":2613:2979   */\n    tag_68:\n        /* \"#utility.yul\":2755:2758   */\n      0x00\n        /* \"#utility.yul\":2776:2843   */\n      tag_104\n        /* \"#utility.yul\":2840:2842   */\n      0x25\n        /* \"#utility.yul\":2835:2838   */\n      dup4\n        /* \"#utility.yul\":2776:2843   */\n      tag_66\n      jump\t// in\n    tag_104:\n        /* \"#utility.yul\":2769:2843   */\n      swap2\n      pop\n        /* \"#utility.yul\":2852:2945   */\n      tag_105\n        /* \"#utility.yul\":2941:2944   */\n      dup3\n        /* \"#utility.yul\":2852:2945   */\n      tag_67\n      jump\t// in\n    tag_105:\n        /* \"#utility.yul\":2970:2972   */\n      0x40\n        /* \"#utility.yul\":2965:2968   */\n      dup3\n        /* \"#utility.yul\":2961:2973   */\n      add\n        /* \"#utility.yul\":2954:2973   */\n      swap1\n      pop\n        /* \"#utility.yul\":2613:2979   */\n      swap2\n      swap1\n      pop\n      jump\t// out\n        /* \"#utility.yul\":2985:3404   */\n    tag_21:\n        /* \"#utility.yul\":3151:3155   */\n      0x00\n        /* \"#utility.yul\":3189:3191   */\n      0x20\n        /* \"#utility.yul\":3178:3187   */\n      dup3\n        /* \"#utility.yul\":3174:3192   */\n      add\n        /* \"#utility.yul\":3166:3192   */\n      swap1\n      pop\n        /* \"#utility.yul\":3238:3247   */\n      dup2\n        /* \"#utility.yul\":3232:3236   */\n      dup2\n        /* \"#utility.yul\":3228:3248   */\n      sub\n        /* \"#utility.yul\":3224:3225   */\n      0x00\n        /* \"#utility.yul\":3213:3222   */\n      dup4\n        /* \"#utility.yul\":3209:3226   */\n      add\n        /* \"#utility.yul\":3202:3249   */\n      mstore\n        /* \"#utility.yul\":3266:3397   */\n      tag_107\n        /* \"#utility.yul\":3392:3396   */\n      dup2\n        /* \"#utility.yul\":3266:3397   */\n      tag_68\n      jump\t// in\n    tag_107:\n        /* \"#utility.yul\":3258:3397   */\n      swap1\n      pop\n        /* \"#utility.yul\":2985:3404   */\n      swap2\n      swap1\n      pop\n      jump\t// out\n        /* \"#utility.yul\":3410:3590   */\n    tag_69:\n        /* \"#utility.yul\":3458:3535   */\n      0x4e487b7100000000000000000000000000000000000000000000000000000000\n        /* \"#utility.yul\":3455:3456   */\n      0x00\n        /* \"#utility.yul\":3448:3536   */\n      mstore\n        /* \"#utility.yul\":3555:3559   */\n      0x11\n        /* \"#utility.yul\":3552:3553   */\n      0x04\n        /* \"#utility.yul\":3545:3560   */\n      mstore\n        /* \"#utility.yul\":3579:3583   */\n      0x24\n        /* \"#utility.yul\":3576:3577   */\n      0x00\n        /* \"#utility.yul\":3569:3584   */\n      revert\n        /* \"#utility.yul\":3596:3790   */\n    tag_23:\n        /* \"#utility.yul\":3636:3640   */\n      0x00\n        /* \"#utility.yul\":3656:3676   */\n      tag_110\n        /* \"#utility.yul\":3674:3675   */\n      dup3\n        /* \"#utility.yul\":3656:3676   */\n      tag_59\n      jump\t// in\n    tag_110:\n        /* \"#utility.yul\":3651:3676   */\n      swap2\n      pop\n        /* \"#utility.yul\":3690:3710   */\n      tag_111\n        /* \"#utility.yul\":3708:3709   */\n      dup4\n        /* \"#utility.yul\":3690:3710   */\n      tag_59\n      jump\t// in\n    tag_111:\n        /* \"#utility.yul\":3685:3710   */\n      swap3\n      pop\n        /* \"#utility.yul\":3734:3735   */\n      dup3\n        /* \"#utility.yul\":3731:3732   */\n      dup3\n        /* \"#utility.yul\":3727:3736   */\n      sub\n        /* \"#utility.yul\":3719:3736   */\n      swap1\n      pop\n        /* \"#utility.yul\":3758:3759   */\n      dup2\n        /* \"#utility.yul\":3752:3756   */\n      dup2\n        /* \"#utility.yul\":3749:3760   */\n      gt\n        /* \"#utility.yul\":3746:3783   */\n      iszero\n      tag_112\n      jumpi\n        /* \"#utility.yul\":3763:3781   */\n      tag_113\n      tag_69\n      jump\t// in\n    tag_113:\n        /* \"#utility.yul\":3746:3783   */\n    tag_112:\n        /* \"#utility.yul\":3596:3790   */\n      swap3\n      swap2\n      pop\n      pop\n      jump\t// out\n        /* \"#utility.yul\":3796:3968   */\n    tag_70:\n        /* \"#utility.yul\":3936:3960   */\n      0x496e646578206973206f7574206f662072616e67652e00000000000000000000\n        /* \"#utility.yul\":3932:3933   */\n      0x00\n        /* \"#utility.yul\":3924:3930   */\n      dup3\n        /* \"#utility.yul\":3920:3934   */\n      add\n        /* \"#utility.yul\":3913:3961   */\n      mstore\n        /* \"#utility.yul\":3796:3968   */\n      pop\n      jump\t// out\n        /* \"#utility.yul\":3974:4340   */\n    tag_71:\n        /* \"#utility.yul\":4116:4119   */\n      0x00\n        /* \"#utility.yul\":4137:4204   */\n      tag_116\n        /* \"#utility.yul\":4201:4203   */\n      0x16\n        /* \"#utility.yul\":4196:4199   */\n      dup4\n        /* \"#utility.yul\":4137:4204   */\n      tag_66\n      jump\t// in\n    tag_116:\n        /* \"#utility.yul\":4130:4204   */\n      swap2\n      pop\n        /* \"#utility.yul\":4213:4306   */\n      tag_117\n        /* \"#utility.yul\":4302:4305   */\n      dup3\n        /* \"#utility.yul\":4213:4306   */\n      tag_70\n      jump\t// in\n    tag_117:\n        /* \"#utility.yul\":4331:4333   */\n      0x20\n        /* \"#utility.yul\":4326:4329   */\n      dup3\n        /* \"#utility.yul\":4322:4334   */\n      add\n        /* \"#utility.yul\":4315:4334   */\n      swap1\n      pop\n        /* \"#utility.yul\":3974:4340   */\n      swap2\n      swap1\n      pop\n      jump\t// out\n        /* \"#utility.yul\":4346:4765   */\n    tag_26:\n        /* \"#utility.yul\":4512:4516   */\n      0x00\n        /* \"#utility.yul\":4550:4552   */\n      0x20\n        /* \"#utility.yul\":4539:4548   */\n      dup3\n        /* \"#utility.yul\":4535:4553   */\n      add\n        /* \"#utility.yul\":4527:4553   */\n      swap1\n      pop\n        /* \"#utility.yul\":4599:4608   */\n      dup2\n        /* \"#utility.yul\":4593:4597   */\n      dup2\n        /* \"#utility.yul\":4589:4609   */\n      sub\n        /* \"#utility.yul\":4585:4586   */\n      0x00\n        /* \"#utility.yul\":4574:4583   */\n      dup4\n        /* \"#utility.yul\":4570:4587   */\n      add\n        /* \"#utility.yul\":4563:4610   */\n      mstore\n        /* \"#utility.yul\":4627:4758   */\n      tag_119\n        /* \"#utility.yul\":4753:4757   */\n      dup2\n        /* \"#utility.yul\":4627:4758   */\n      tag_71\n      jump\t// in\n    tag_119:\n        /* \"#utility.yul\":4619:4758   */\n      swap1\n      pop\n        /* \"#utility.yul\":4346:4765   */\n      swap2\n      swap1\n      pop\n      jump\t// out\n        /* \"#utility.yul\":4771:4962   */\n    tag_33:\n        /* \"#utility.yul\":4811:4814   */\n      0x00\n        /* \"#utility.yul\":4830:4850   */\n      tag_121\n        /* \"#utility.yul\":4848:4849   */\n      dup3\n        /* \"#utility.yul\":4830:4850   */\n      tag_59\n      jump\t// in\n    tag_121:\n        /* \"#utility.yul\":4825:4850   */\n      swap2\n      pop\n        /* \"#utility.yul\":4864:4884   */\n      tag_122\n        /* \"#utility.yul\":4882:4883   */\n      dup4\n        /* \"#utility.yul\":4864:4884   */\n      tag_59\n      jump\t// in\n    tag_122:\n        /* \"#utility.yul\":4859:4884   */\n      swap3\n      pop\n        /* \"#utility.yul\":4907:4908   */\n      dup3\n        /* \"#utility.yul\":4904:4905   */\n      dup3\n        /* \"#utility.yul\":4900:4909   */\n      add\n        /* \"#utility.yul\":4893:4909   */\n      swap1\n      pop\n        /* \"#utility.yul\":4928:4931   */\n      dup1\n        /* \"#utility.yul\":4925:4926   */\n      dup3\n        /* \"#utility.yul\":4922:4932   */\n      gt\n        /* \"#utility.yul\":4919:4955   */\n      iszero\n      tag_123\n      jumpi\n        /* \"#utility.yul\":4935:4953   */\n      tag_124\n      tag_69\n      jump\t// in\n    tag_124:\n        /* \"#utility.yul\":4919:4955   */\n    tag_123:\n        /* \"#utility.yul\":4771:4962   */\n      swap3\n      swap2\n      pop\n      pop\n      jump\t// out\n        /* \"#utility.yul\":4968:5148   */\n    tag_36:\n        /* \"#utility.yul\":5016:5093   */\n      0x4e487b7100000000000000000000000000000000000000000000000000000000\n        /* \"#utility.yul\":5013:5014   */\n      0x00\n        /* \"#utility.yul\":5006:5094   */\n      mstore\n        /* \"#utility.yul\":5113:5117   */\n      0x32\n        /* \"#utility.yul\":5110:5111   */\n      0x04\n        /* \"#utility.yul\":5103:5118   */\n      mstore\n        /* \"#utility.yul\":5137:5141   */\n      0x24\n        /* \"#utility.yul\":5134:5135   */\n      0x00\n        /* \"#utility.yul\":5127:5142   */\n      revert\n        /* \"#utility.yul\":5154:5334   */\n    tag_43:\n        /* \"#utility.yul\":5202:5279   */\n      0x4e487b7100000000000000000000000000000000000000000000000000000000\n        /* \"#utility.yul\":5199:5200   */\n      0x00\n        /* \"#utility.yul\":5192:5280   */\n      mstore\n        /* \"#utility.yul\":5299:5303   */\n      0x31\n        /* \"#utility.yul\":5296:5297   */\n      0x04\n        /* \"#utility.yul\":5289:5304   */\n      mstore\n        /* \"#utility.yul\":5323:5327   */\n      0x24\n        /* \"#utility.yul\":5320:5321   */\n      0x00\n        /* \"#utility.yul\":5313:5328   */\n      revert\n\n    auxdata: 0xa26469706673582212202bd7c3f76fb1fd0237b36fc87b04d6b885be950d63f46fbdc3e1fc23ddc4019064736f6c634300081a0033\n}\n",
				"bytecode": {
					"linkReferences": {},
					"object": "60806040526040518060c00160405280600160ff168152602001600260ff168152602001600360ff168152602001600460ff168152602001600560ff168152602001600660ff168152505f90600660569291906066565b503480156061575f80fd5b5060ca565b828054828255905f5260205f2090810192821560a2579160200282015b8281111560a1578251829060ff169055916020019190600101906083565b5b50905060ad919060b1565b5090565b5b8082111560c6575f815f90555060010160b2565b5090565b610587806100d75f395ff3fe608060405234801561000f575f80fd5b5060043610610034575f3560e01c80631ae5d4aa14610038578063c6e7a39414610068575b5f80fd5b610052600480360381019061004d9190610298565b610098565b60405161005f91906102d2565b60405180910390f35b610082600480360381019061007d9190610320565b6100b7565b60405161008f91906102d2565b60405180910390f35b5f81815481106100a6575f80fd5b905f5260205f20015f915090505481565b5f808054905090505f8111610101576040517f08c379a00000000000000000000000000000000000000000000000000000000081526004016100f8906103de565b60405180910390fd5b60018161010e9190610429565b831115610150576040517f08c379a0000000000000000000000000000000000000000000000000000000008152600401610147906104a6565b60405180910390fd5b600181031561025b575f83905082156101ed575b6001826101719190610429565b8110156101c4575f60018261018691906104c4565b81548110610197576101966104f7565b5b905f5260205f2001545f82815481106101b3576101b26104f7565b5b905f5260205f200181905550610164565b5f8054806101d5576101d4610524565b5b600190038181905f5260205f20015f90559055610259565b5f6001836101fb9190610429565b8154811061020c5761020b6104f7565b5b905f5260205f2001545f8281548110610228576102276104f7565b5b905f5260205f2001819055505f80548061024557610244610524565b5b600190038181905f5260205f20015f905590555b505b92915050565b5f80fd5b5f819050919050565b61027781610265565b8114610281575f80fd5b50565b5f813590506102928161026e565b92915050565b5f602082840312156102ad576102ac610261565b5b5f6102ba84828501610284565b91505092915050565b6102cc81610265565b82525050565b5f6020820190506102e55f8301846102c3565b92915050565b5f8115159050919050565b6102ff816102eb565b8114610309575f80fd5b50565b5f8135905061031a816102f6565b92915050565b5f806040838503121561033657610335610261565b5b5f61034385828601610284565b92505060206103548582860161030c565b9150509250929050565b5f82825260208201905092915050565b7f74686520617272617920697320656d7074792c2063616e27742062652072656d5f8201527f6f7665642e000000000000000000000000000000000000000000000000000000602082015250565b5f6103c860258361035e565b91506103d38261036e565b604082019050919050565b5f6020820190508181035f8301526103f5816103bc565b9050919050565b7f4e487b71000000000000000000000000000000000000000000000000000000005f52601160045260245ffd5b5f61043382610265565b915061043e83610265565b9250828203905081811115610456576104556103fc565b5b92915050565b7f496e646578206973206f7574206f662072616e67652e000000000000000000005f82015250565b5f61049060168361035e565b915061049b8261045c565b602082019050919050565b5f6020820190508181035f8301526104bd81610484565b9050919050565b5f6104ce82610265565b91506104d983610265565b92508282019050808211156104f1576104f06103fc565b5b92915050565b7f4e487b71000000000000000000000000000000000000000000000000000000005f52603260045260245ffd5b7f4e487b71000000000000000000000000000000000000000000000000000000005f52603160045260245ffdfea26469706673582212202bd7c3f76fb1fd0237b36fc87b04d6b885be950d63f46fbdc3e1fc23ddc4019064736f6c634300081a0033",
					"opcodes": "PUSH1 0x80 PUSH1 0x40 MSTORE PUSH1 0x40 MLOAD DUP1 PUSH1 0xC0 ADD PUSH1 0x40 MSTORE DUP1 PUSH1 0x1 PUSH1 0xFF AND DUP2 MSTORE PUSH1 0x20 ADD PUSH1 0x2 PUSH1 0xFF AND DUP2 MSTORE PUSH1 0x20 ADD PUSH1 0x3 PUSH1 0xFF AND DUP2 MSTORE PUSH1 0x20 ADD PUSH1 0x4 PUSH1 0xFF AND DUP2 MSTORE PUSH1 0x20 ADD PUSH1 0x5 PUSH1 0xFF AND DUP2 MSTORE PUSH1 0x20 ADD PUSH1 0x6 PUSH1 0xFF AND DUP2 MSTORE POP PUSH0 SWAP1 PUSH1 0x6 PUSH1 0x56 SWAP3 SWAP2 SWAP1 PUSH1 0x66 JUMP JUMPDEST POP CALLVALUE DUP1 ISZERO PUSH1 0x61 JUMPI PUSH0 DUP1 REVERT JUMPDEST POP PUSH1 0xCA JUMP JUMPDEST DUP3 DUP1 SLOAD DUP3 DUP3 SSTORE SWAP1 PUSH0 MSTORE PUSH1 0x20 PUSH0 KECCAK256 SWAP1 DUP2 ADD SWAP3 DUP3 ISZERO PUSH1 0xA2 JUMPI SWAP2 PUSH1 0x20 MUL DUP3 ADD JUMPDEST DUP3 DUP2 GT ISZERO PUSH1 0xA1 JUMPI DUP3 MLOAD DUP3 SWAP1 PUSH1 0xFF AND SWAP1 SSTORE SWAP2 PUSH1 0x20 ADD SWAP2 SWAP1 PUSH1 0x1 ADD SWAP1 PUSH1 0x83 JUMP JUMPDEST JUMPDEST POP SWAP1 POP PUSH1 0xAD SWAP2 SWAP1 PUSH1 0xB1 JUMP JUMPDEST POP SWAP1 JUMP JUMPDEST JUMPDEST DUP1 DUP3 GT ISZERO PUSH1 0xC6 JUMPI PUSH0 DUP2 PUSH0 SWAP1 SSTORE POP PUSH1 0x1 ADD PUSH1 0xB2 JUMP JUMPDEST POP SWAP1 JUMP JUMPDEST PUSH2 0x587 DUP1 PUSH2 0xD7 PUSH0 CODECOPY PUSH0 RETURN INVALID PUSH1 0x80 PUSH1 0x40 MSTORE CALLVALUE DUP1 ISZERO PUSH2 0xF JUMPI PUSH0 DUP1 REVERT JUMPDEST POP PUSH1 0x4 CALLDATASIZE LT PUSH2 0x34 JUMPI PUSH0 CALLDATALOAD PUSH1 0xE0 SHR DUP1 PUSH4 0x1AE5D4AA EQ PUSH2 0x38 JUMPI DUP1 PUSH4 0xC6E7A394 EQ PUSH2 0x68 JUMPI JUMPDEST PUSH0 DUP1 REVERT JUMPDEST PUSH2 0x52 PUSH1 0x4 DUP1 CALLDATASIZE SUB DUP2 ADD SWAP1 PUSH2 0x4D SWAP2 SWAP1 PUSH2 0x298 JUMP JUMPDEST PUSH2 0x98 JUMP JUMPDEST PUSH1 0x40 MLOAD PUSH2 0x5F SWAP2 SWAP1 PUSH2 0x2D2 JUMP JUMPDEST PUSH1 0x40 MLOAD DUP1 SWAP2 SUB SWAP1 RETURN JUMPDEST PUSH2 0x82 PUSH1 0x4 DUP1 CALLDATASIZE SUB DUP2 ADD SWAP1 PUSH2 0x7D SWAP2 SWAP1 PUSH2 0x320 JUMP JUMPDEST PUSH2 0xB7 JUMP JUMPDEST PUSH1 0x40 MLOAD PUSH2 0x8F SWAP2 SWAP1 PUSH2 0x2D2 JUMP JUMPDEST PUSH1 0x40 MLOAD DUP1 SWAP2 SUB SWAP1 RETURN JUMPDEST PUSH0 DUP2 DUP2 SLOAD DUP2 LT PUSH2 0xA6 JUMPI PUSH0 DUP1 REVERT JUMPDEST SWAP1 PUSH0 MSTORE PUSH1 0x20 PUSH0 KECCAK256 ADD PUSH0 SWAP2 POP SWAP1 POP SLOAD DUP2 JUMP JUMPDEST PUSH0 DUP1 DUP1 SLOAD SWAP1 POP SWAP1 POP PUSH0 DUP2 GT PUSH2 0x101 JUMPI PUSH1 0x40 MLOAD PUSH32 0x8C379A000000000000000000000000000000000000000000000000000000000 DUP2 MSTORE PUSH1 0x4 ADD PUSH2 0xF8 SWAP1 PUSH2 0x3DE JUMP JUMPDEST PUSH1 0x40 MLOAD DUP1 SWAP2 SUB SWAP1 REVERT JUMPDEST PUSH1 0x1 DUP2 PUSH2 0x10E SWAP2 SWAP1 PUSH2 0x429 JUMP JUMPDEST DUP4 GT ISZERO PUSH2 0x150 JUMPI PUSH1 0x40 MLOAD PUSH32 0x8C379A000000000000000000000000000000000000000000000000000000000 DUP2 MSTORE PUSH1 0x4 ADD PUSH2 0x147 SWAP1 PUSH2 0x4A6 JUMP JUMPDEST PUSH1 0x40 MLOAD DUP1 SWAP2 SUB SWAP1 REVERT JUMPDEST PUSH1 0x1 DUP2 SUB ISZERO PUSH2 0x25B JUMPI PUSH0 DUP4 SWAP1 POP DUP3 ISZERO PUSH2 0x1ED JUMPI JUMPDEST PUSH1 0x1 DUP3 PUSH2 0x171 SWAP2 SWAP1 PUSH2 0x429 JUMP JUMPDEST DUP2 LT ISZERO PUSH2 0x1C4 JUMPI PUSH0 PUSH1 0x1 DUP3 PUSH2 0x186 SWAP2 SWAP1 PUSH2 0x4C4 JUMP JUMPDEST DUP2 SLOAD DUP2 LT PUSH2 0x197 JUMPI PUSH2 0x196 PUSH2 0x4F7 JUMP JUMPDEST JUMPDEST SWAP1 PUSH0 MSTORE PUSH1 0x20 PUSH0 KECCAK256 ADD SLOAD PUSH0 DUP3 DUP2 SLOAD DUP2 LT PUSH2 0x1B3 JUMPI PUSH2 0x1B2 PUSH2 0x4F7 JUMP JUMPDEST JUMPDEST SWAP1 PUSH0 MSTORE PUSH1 0x20 PUSH0 KECCAK256 ADD DUP2 SWAP1 SSTORE POP PUSH2 0x164 JUMP JUMPDEST PUSH0 DUP1 SLOAD DUP1 PUSH2 0x1D5 JUMPI PUSH2 0x1D4 PUSH2 0x524 JUMP JUMPDEST JUMPDEST PUSH1 0x1 SWAP1 SUB DUP2 DUP2 SWAP1 PUSH0 MSTORE PUSH1 0x20 PUSH0 KECCAK256 ADD PUSH0 SWAP1 SSTORE SWAP1 SSTORE PUSH2 0x259 JUMP JUMPDEST PUSH0 PUSH1 0x1 DUP4 PUSH2 0x1FB SWAP2 SWAP1 PUSH2 0x429 JUMP JUMPDEST DUP2 SLOAD DUP2 LT PUSH2 0x20C JUMPI PUSH2 0x20B PUSH2 0x4F7 JUMP JUMPDEST JUMPDEST SWAP1 PUSH0 MSTORE PUSH1 0x20 PUSH0 KECCAK256 ADD SLOAD PUSH0 DUP3 DUP2 SLOAD DUP2 LT PUSH2 0x228 JUMPI PUSH2 0x227 PUSH2 0x4F7 JUMP JUMPDEST JUMPDEST SWAP1 PUSH0 MSTORE PUSH1 0x20 PUSH0 KECCAK256 ADD DUP2 SWAP1 SSTORE POP PUSH0 DUP1 SLOAD DUP1 PUSH2 0x245 JUMPI PUSH2 0x244 PUSH2 0x524 JUMP JUMPDEST JUMPDEST PUSH1 0x1 SWAP1 SUB DUP2 DUP2 SWAP1 PUSH0 MSTORE PUSH1 0x20 PUSH0 KECCAK256 ADD PUSH0 SWAP1 SSTORE SWAP1 SSTORE JUMPDEST POP JUMPDEST SWAP3 SWAP2 POP POP JUMP JUMPDEST PUSH0 DUP1 REVERT JUMPDEST PUSH0 DUP2 SWAP1 POP SWAP2 SWAP1 POP JUMP JUMPDEST PUSH2 0x277 DUP2 PUSH2 0x265 JUMP JUMPDEST DUP2 EQ PUSH2 0x281 JUMPI PUSH0 DUP1 REVERT JUMPDEST POP JUMP JUMPDEST PUSH0 DUP2 CALLDATALOAD SWAP1 POP PUSH2 0x292 DUP2 PUSH2 0x26E JUMP JUMPDEST SWAP3 SWAP2 POP POP JUMP JUMPDEST PUSH0 PUSH1 0x20 DUP3 DUP5 SUB SLT ISZERO PUSH2 0x2AD JUMPI PUSH2 0x2AC PUSH2 0x261 JUMP JUMPDEST JUMPDEST PUSH0 PUSH2 0x2BA DUP5 DUP3 DUP6 ADD PUSH2 0x284 JUMP JUMPDEST SWAP2 POP POP SWAP3 SWAP2 POP POP JUMP JUMPDEST PUSH2 0x2CC DUP2 PUSH2 0x265 JUMP JUMPDEST DUP3 MSTORE POP POP JUMP JUMPDEST PUSH0 PUSH1 0x20 DUP3 ADD SWAP1 POP PUSH2 0x2E5 PUSH0 DUP4 ADD DUP5 PUSH2 0x2C3 JUMP JUMPDEST SWAP3 SWAP2 POP POP JUMP JUMPDEST PUSH0 DUP2 ISZERO ISZERO SWAP1 POP SWAP2 SWAP1 POP JUMP JUMPDEST PUSH2 0x2FF DUP2 PUSH2 0x2EB JUMP JUMPDEST DUP2 EQ PUSH2 0x309 JUMPI PUSH0 DUP1 REVERT JUMPDEST POP JUMP JUMPDEST PUSH0 DUP2 CALLDATALOAD SWAP1 POP PUSH2 0x31A DUP2 PUSH2 0x2F6 JUMP JUMPDEST SWAP3 SWAP2 POP POP JUMP JUMPDEST PUSH0 DUP1 PUSH1 0x40 DUP4 DUP6 SUB SLT ISZERO PUSH2 0x336 JUMPI PUSH2 0x335 PUSH2 0x261 JUMP JUMPDEST JUMPDEST PUSH0 PUSH2 0x343 DUP6 DUP3 DUP7 ADD PUSH2 0x284 JUMP JUMPDEST SWAP3 POP POP PUSH1 0x20 PUSH2 0x354 DUP6 DUP3 DUP7 ADD PUSH2 0x30C JUMP JUMPDEST SWAP2 POP POP SWAP3 POP SWAP3 SWAP1 POP JUMP JUMPDEST PUSH0 DUP3 DUP3 MSTORE PUSH1 0x20 DUP3 ADD SWAP1 POP SWAP3 SWAP2 POP POP JUMP JUMPDEST PUSH32 0x74686520617272617920697320656D7074792C2063616E27742062652072656D PUSH0 DUP3 ADD MSTORE PUSH32 0x6F7665642E000000000000000000000000000000000000000000000000000000 PUSH1 0x20 DUP3 ADD MSTORE POP JUMP JUMPDEST PUSH0 PUSH2 0x3C8 PUSH1 0x25 DUP4 PUSH2 0x35E JUMP JUMPDEST SWAP2 POP PUSH2 0x3D3 DUP3 PUSH2 0x36E JUMP JUMPDEST PUSH1 0x40 DUP3 ADD SWAP1 POP SWAP2 SWAP1 POP JUMP JUMPDEST PUSH0 PUSH1 0x20 DUP3 ADD SWAP1 POP DUP2 DUP2 SUB PUSH0 DUP4 ADD MSTORE PUSH2 0x3F5 DUP2 PUSH2 0x3BC JUMP JUMPDEST SWAP1 POP SWAP2 SWAP1 POP JUMP JUMPDEST PUSH32 0x4E487B7100000000000000000000000000000000000000000000000000000000 PUSH0 MSTORE PUSH1 0x11 PUSH1 0x4 MSTORE PUSH1 0x24 PUSH0 REVERT JUMPDEST PUSH0 PUSH2 0x433 DUP3 PUSH2 0x265 JUMP JUMPDEST SWAP2 POP PUSH2 0x43E DUP4 PUSH2 0x265 JUMP JUMPDEST SWAP3 POP DUP3 DUP3 SUB SWAP1 POP DUP2 DUP2 GT ISZERO PUSH2 0x456 JUMPI PUSH2 0x455 PUSH2 0x3FC JUMP JUMPDEST JUMPDEST SWAP3 SWAP2 POP POP JUMP JUMPDEST PUSH32 0x496E646578206973206F7574206F662072616E67652E00000000000000000000 PUSH0 DUP3 ADD MSTORE POP JUMP JUMPDEST PUSH0 PUSH2 0x490 PUSH1 0x16 DUP4 PUSH2 0x35E JUMP JUMPDEST SWAP2 POP PUSH2 0x49B DUP3 PUSH2 0x45C JUMP JUMPDEST PUSH1 0x20 DUP3 ADD SWAP1 POP SWAP2 SWAP1 POP JUMP JUMPDEST PUSH0 PUSH1 0x20 DUP3 ADD SWAP1 POP DUP2 DUP2 SUB PUSH0 DUP4 ADD MSTORE PUSH2 0x4BD DUP2 PUSH2 0x484 JUMP JUMPDEST SWAP1 POP SWAP2 SWAP1 POP JUMP JUMPDEST PUSH0 PUSH2 0x4CE DUP3 PUSH2 0x265 JUMP JUMPDEST SWAP2 POP PUSH2 0x4D9 DUP4 PUSH2 0x265 JUMP JUMPDEST SWAP3 POP DUP3 DUP3 ADD SWAP1 POP DUP1 DUP3 GT ISZERO PUSH2 0x4F1 JUMPI PUSH2 0x4F0 PUSH2 0x3FC JUMP JUMPDEST JUMPDEST SWAP3 SWAP2 POP POP JUMP JUMPDEST PUSH32 0x4E487B7100000000000000000000000000000000000000000000000000000000 PUSH0 MSTORE PUSH1 0x32 PUSH1 0x4 MSTORE PUSH1 0x24 PUSH0 REVERT JUMPDEST PUSH32 0x4E487B7100000000000000000000000000000000000000000000000000000000 PUSH0 MSTORE PUSH1 0x31 PUSH1 0x4 MSTORE PUSH1 0x24 PUSH0 REVERT INVALID LOG2 PUSH5 0x6970667358 0x22 SLT KECCAK256 0x2B 0xD7 0xC3 0xF7 PUSH16 0xB1FD0237B36FC87B04D6B885BE950D63 DELEGATECALL PUSH16 0xBDC3E1FC23DDC4019064736F6C634300 ADDMOD BYTE STOP CALLER "
				},
				"gasEstimates": {
					"creation": {
						"codeDepositCost": "283000",
						"executionCost": "infinite",
						"totalCost": "infinite"
					},
					"external": {
						"MyArray(uint256)": "infinite",
						"removeEleByIdx(uint256,bool)": "infinite"
					},
					"internal": {
						"removeEleByIdx2(uint256[] storage pointer,uint256,bool)": "infinite"
					}
				},
				"methodIdentifiers": {
					"MyArray(uint256)": "1ae5d4aa",
					"removeEleByIdx(uint256,bool)": "c6e7a394"
				}
			},
			"storageLayout": {
				"storage": [
					{
						"astId": 11,
						"contract": "removeArray.sol:RemoveArray",
						"label": "MyArray",
						"offset": 0,
						"slot": "0",
						"type": "t_array(t_uint256)dyn_storage"
					}
				],
				"types": {
					"t_array(t_uint256)dyn_storage": {
						"base": "t_uint256",
						"encoding": "dynamic_array",
						"label": "uint256[]",
						"numberOfBytes": "32"
					},
					"t_uint256": {
						"encoding": "inplace",
						"label": "uint256",
						"numberOfBytes": "32"
					}
				}
			},
			"userdoc": {
				"kind": "user",
				"methods": {},
				"version": 1
			}
		}
	}
}