{
	"CSAMM.sol": {
		"MyCSAMM": {
			"abi": [
				{
					"inputs": [
						{
							"internalType": "address",
							"name": "_tokenAddr0",
							"type": "address"
						},
						{
							"internalType": "address",
							"name": "_tokenAddr1",
							"type": "address"
						}
					],
					"stateMutability": "nonpayable",
					"type": "constructor"
				},
				{
					"anonymous": false,
					"inputs": [
						{
							"indexed": true,
							"internalType": "address",
							"name": "sender",
							"type": "address"
						},
						{
							"indexed": false,
							"internalType": "uint256",
							"name": "token0In",
							"type": "uint256"
						},
						{
							"indexed": false,
							"internalType": "uint256",
							"name": "token1In",
							"type": "uint256"
						},
						{
							"indexed": false,
							"internalType": "uint256",
							"name": "token0Out",
							"type": "uint256"
						},
						{
							"indexed": false,
							"internalType": "uint256",
							"name": "token1Out",
							"type": "uint256"
						}
					],
					"name": "Swap",
					"type": "event"
				},
				{
					"inputs": [
						{
							"internalType": "uint256",
							"name": "_amountIn0",
							"type": "uint256"
						},
						{
							"internalType": "uint256",
							"name": "_amountIn1",
							"type": "uint256"
						}
					],
					"name": "addLiquidity",
					"outputs": [
						{
							"internalType": "uint256",
							"name": "_share",
							"type": "uint256"
						}
					],
					"stateMutability": "payable",
					"type": "function"
				},
				{
					"inputs": [
						{
							"internalType": "address",
							"name": "",
							"type": "address"
						}
					],
					"name": "balanceOf",
					"outputs": [
						{
							"internalType": "uint256",
							"name": "",
							"type": "uint256"
						}
					],
					"stateMutability": "view",
					"type": "function"
				},
				{
					"inputs": [
						{
							"internalType": "uint256",
							"name": "_share",
							"type": "uint256"
						}
					],
					"name": "removeLiquidity",
					"outputs": [
						{
							"internalType": "uint256",
							"name": "",
							"type": "uint256"
						},
						{
							"internalType": "uint256",
							"name": "",
							"type": "uint256"
						}
					],
					"stateMutability": "payable",
					"type": "function"
				},
				{
					"inputs": [],
					"name": "reverse0",
					"outputs": [
						{
							"internalType": "uint256",
							"name": "",
							"type": "uint256"
						}
					],
					"stateMutability": "view",
					"type": "function"
				},
				{
					"inputs": [],
					"name": "reverse1",
					"outputs": [
						{
							"internalType": "uint256",
							"name": "",
							"type": "uint256"
						}
					],
					"stateMutability": "view",
					"type": "function"
				},
				{
					"inputs": [
						{
							"internalType": "address",
							"name": "_token",
							"type": "address"
						},
						{
							"internalType": "uint256",
							"name": "_amountIn",
							"type": "uint256"
						}
					],
					"name": "swap",
					"outputs": [
						{
							"internalType": "uint256",
							"name": "",
							"type": "uint256"
						}
					],
					"stateMutability": "payable",
					"type": "function"
				},
				{
					"inputs": [],
					"name": "totalSupplyShares",
					"outputs": [
						{
							"internalType": "uint256",
							"name": "",
							"type": "uint256"
						}
					],
					"stateMutability": "view",
					"type": "function"
				}
			],
			"devdoc": {
				"kind": "dev",
				"methods": {},
				"version": 1
			},
			"evm": {
				"assembly": "    /* \"CSAMM.sol\":119:5386  contract MyCSAMM {... */\n  mstore(0x40, 0xc0)\n    /* \"CSAMM.sol\":680:1123  constructor(address _tokenAddr0, address _tokenAddr1){... */\n  callvalue\n  dup1\n  iszero\n  tag_1\n  jumpi\n  0x00\n  dup1\n  revert\ntag_1:\n  pop\n  mload(0x40)\n  sub(codesize, bytecodeSize)\n  dup1\n  bytecodeSize\n  dup4\n  codecopy\n  dup2\n  dup2\n  add\n  0x40\n  mstore\n  dup2\n  add\n  swap1\n  tag_2\n  swap2\n  swap1\n  tag_3\n  jump\t// in\ntag_2:\n    /* \"CSAMM.sol\":760:771  _tokenAddr0 */\n  dup2\n    /* \"CSAMM.sol\":744:772  token0 = IERC20(_tokenAddr0) */\n  0xffffffffffffffffffffffffffffffffffffffff\n  and\n  0x80\n  dup2\n  0xffffffffffffffffffffffffffffffffffffffff\n  and\n  dup2\n  mstore\n  pop\n  pop\n    /* \"CSAMM.sol\":799:810  _tokenAddr1 */\n  dup1\n    /* \"CSAMM.sol\":783:811  token1 = IERC20(_tokenAddr1) */\n  0xffffffffffffffffffffffffffffffffffffffff\n  and\n  0xa0\n  dup2\n  0xffffffffffffffffffffffffffffffffffffffff\n  and\n  dup2\n  mstore\n  pop\n  pop\n    /* \"CSAMM.sol\":680:1123  constructor(address _tokenAddr0, address _tokenAddr1){... */\n  pop\n  pop\n    /* \"CSAMM.sol\":119:5386  contract MyCSAMM {... */\n  jump(tag_6)\n    /* \"#utility.yul\":88:205   */\ntag_8:\n    /* \"#utility.yul\":197:198   */\n  0x00\n    /* \"#utility.yul\":194:195   */\n  dup1\n    /* \"#utility.yul\":187:199   */\n  revert\n    /* \"#utility.yul\":334:460   */\ntag_10:\n    /* \"#utility.yul\":371:378   */\n  0x00\n    /* \"#utility.yul\":411:453   */\n  0xffffffffffffffffffffffffffffffffffffffff\n    /* \"#utility.yul\":404:409   */\n  dup3\n    /* \"#utility.yul\":400:454   */\n  and\n    /* \"#utility.yul\":389:454   */\n  swap1\n  pop\n    /* \"#utility.yul\":334:460   */\n  swap2\n  swap1\n  pop\n  jump\t// out\n    /* \"#utility.yul\":466:562   */\ntag_11:\n    /* \"#utility.yul\":503:510   */\n  0x00\n    /* \"#utility.yul\":532:556   */\n  tag_20\n    /* \"#utility.yul\":550:555   */\n  dup3\n    /* \"#utility.yul\":532:556   */\n  tag_10\n  jump\t// in\ntag_20:\n    /* \"#utility.yul\":521:556   */\n  swap1\n  pop\n    /* \"#utility.yul\":466:562   */\n  swap2\n  swap1\n  pop\n  jump\t// out\n    /* \"#utility.yul\":568:690   */\ntag_12:\n    /* \"#utility.yul\":641:665   */\n  tag_22\n    /* \"#utility.yul\":659:664   */\n  dup2\n    /* \"#utility.yul\":641:665   */\n  tag_11\n  jump\t// in\ntag_22:\n    /* \"#utility.yul\":634:639   */\n  dup2\n    /* \"#utility.yul\":631:666   */\n  eq\n    /* \"#utility.yul\":621:684   */\n  tag_23\n  jumpi\n    /* \"#utility.yul\":680:681   */\n  0x00\n    /* \"#utility.yul\":677:678   */\n  dup1\n    /* \"#utility.yul\":670:682   */\n  revert\n    /* \"#utility.yul\":621:684   */\ntag_23:\n    /* \"#utility.yul\":568:690   */\n  pop\n  jump\t// out\n    /* \"#utility.yul\":696:839   */\ntag_13:\n    /* \"#utility.yul\":753:758   */\n  0x00\n    /* \"#utility.yul\":784:790   */\n  dup2\n    /* \"#utility.yul\":778:791   */\n  mload\n    /* \"#utility.yul\":769:791   */\n  swap1\n  pop\n    /* \"#utility.yul\":800:833   */\n  tag_25\n    /* \"#utility.yul\":827:832   */\n  dup2\n    /* \"#utility.yul\":800:833   */\n  tag_12\n  jump\t// in\ntag_25:\n    /* \"#utility.yul\":696:839   */\n  swap3\n  swap2\n  pop\n  pop\n  jump\t// out\n    /* \"#utility.yul\":845:1352   */\ntag_3:\n    /* \"#utility.yul\":924:930   */\n  0x00\n    /* \"#utility.yul\":932:938   */\n  dup1\n    /* \"#utility.yul\":981:983   */\n  0x40\n    /* \"#utility.yul\":969:978   */\n  dup4\n    /* \"#utility.yul\":960:967   */\n  dup6\n    /* \"#utility.yul\":956:979   */\n  sub\n    /* \"#utility.yul\":952:984   */\n  slt\n    /* \"#utility.yul\":949:1068   */\n  iszero\n  tag_27\n  jumpi\n    /* \"#utility.yul\":987:1066   */\n  tag_28\n  tag_8\n  jump\t// in\ntag_28:\n    /* \"#utility.yul\":949:1068   */\ntag_27:\n    /* \"#utility.yul\":1107:1108   */\n  0x00\n    /* \"#utility.yul\":1132:1196   */\n  tag_29\n    /* \"#utility.yul\":1188:1195   */\n  dup6\n    /* \"#utility.yul\":1179:1185   */\n  dup3\n    /* \"#utility.yul\":1168:1177   */\n  dup7\n    /* \"#utility.yul\":1164:1186   */\n  add\n    /* \"#utility.yul\":1132:1196   */\n  tag_13\n  jump\t// in\ntag_29:\n    /* \"#utility.yul\":1122:1196   */\n  swap3\n  pop\n    /* \"#utility.yul\":1078:1206   */\n  pop\n    /* \"#utility.yul\":1245:1247   */\n  0x20\n    /* \"#utility.yul\":1271:1335   */\n  tag_30\n    /* \"#utility.yul\":1327:1334   */\n  dup6\n    /* \"#utility.yul\":1318:1324   */\n  dup3\n    /* \"#utility.yul\":1307:1316   */\n  dup7\n    /* \"#utility.yul\":1303:1325   */\n  add\n    /* \"#utility.yul\":1271:1335   */\n  tag_13\n  jump\t// in\ntag_30:\n    /* \"#utility.yul\":1261:1335   */\n  swap2\n  pop\n    /* \"#utility.yul\":1216:1345   */\n  pop\n    /* \"#utility.yul\":845:1352   */\n  swap3\n  pop\n  swap3\n  swap1\n  pop\n  jump\t// out\n    /* \"CSAMM.sol\":119:5386  contract MyCSAMM {... */\ntag_6:\n  mload(0x80)\n  mload(0xa0)\n  codecopy(0x00, dataOffset(sub_0), dataSize(sub_0))\n  0x00\n  assignImmutable(\"0x6d7e9d25f7937a025d098651c32892e1256b8f7bcedf36aadd28cccf92a5a08d\")\n  0x00\n  assignImmutable(\"0x2d16435b3faa4516e45c961fcfb8946768323ac70484540b7ee099d570719013\")\n  return(0x00, dataSize(sub_0))\nstop\n\nsub_0: assembly {\n        /* \"CSAMM.sol\":119:5386  contract MyCSAMM {... */\n      mstore(0x40, 0x80)\n      jumpi(tag_1, lt(calldatasize, 0x04))\n      shr(0xe0, calldataload(0x00))\n      dup1\n      0x9c8f9f23\n      gt\n      tag_9\n      jumpi\n      dup1\n      0x9c8f9f23\n      eq\n      tag_5\n      jumpi\n      dup1\n      0x9cd441da\n      eq\n      tag_6\n      jumpi\n      dup1\n      0xba7bde55\n      eq\n      tag_7\n      jumpi\n      dup1\n      0xd004f0f7\n      eq\n      tag_8\n      jumpi\n      jump(tag_1)\n    tag_9:\n      dup1\n      0x0d5eb908\n      eq\n      tag_2\n      jumpi\n      dup1\n      0x4da296a9\n      eq\n      tag_3\n      jumpi\n      dup1\n      0x70a08231\n      eq\n      tag_4\n      jumpi\n    tag_1:\n      0x00\n      dup1\n      revert\n        /* \"CSAMM.sol\":434:454  uint public reverse1 */\n    tag_2:\n      callvalue\n      dup1\n      iszero\n      tag_10\n      jumpi\n      0x00\n      dup1\n      revert\n    tag_10:\n      pop\n      tag_11\n      tag_12\n      jump\t// in\n    tag_11:\n      mload(0x40)\n      tag_13\n      swap2\n      swap1\n      tag_14\n      jump\t// in\n    tag_13:\n      mload(0x40)\n      dup1\n      swap2\n      sub\n      swap1\n      return\n        /* \"CSAMM.sol\":351:371  uint public reverse0 */\n    tag_3:\n      callvalue\n      dup1\n      iszero\n      tag_15\n      jumpi\n      0x00\n      dup1\n      revert\n    tag_15:\n      pop\n      tag_16\n      tag_17\n      jump\t// in\n    tag_16:\n      mload(0x40)\n      tag_18\n      swap2\n      swap1\n      tag_14\n      jump\t// in\n    tag_18:\n      mload(0x40)\n      dup1\n      swap2\n      sub\n      swap1\n      return\n        /* \"CSAMM.sol\":604:646  mapping (address => uint) public balanceOf */\n    tag_4:\n      callvalue\n      dup1\n      iszero\n      tag_19\n      jumpi\n      0x00\n      dup1\n      revert\n    tag_19:\n      pop\n      tag_20\n      0x04\n      dup1\n      calldatasize\n      sub\n      dup2\n      add\n      swap1\n      tag_21\n      swap2\n      swap1\n      tag_22\n      jump\t// in\n    tag_21:\n      tag_23\n      jump\t// in\n    tag_20:\n      mload(0x40)\n      tag_24\n      swap2\n      swap1\n      tag_14\n      jump\t// in\n    tag_24:\n      mload(0x40)\n      dup1\n      swap2\n      sub\n      swap1\n      return\n        /* \"CSAMM.sol\":4172:5260  function removeLiquidity(uint _share) external  payable returns(uint, uint){... */\n    tag_5:\n      tag_25\n      0x04\n      dup1\n      calldatasize\n      sub\n      dup2\n      add\n      swap1\n      tag_26\n      swap2\n      swap1\n      tag_27\n      jump\t// in\n    tag_26:\n      tag_28\n      jump\t// in\n    tag_25:\n      mload(0x40)\n      tag_29\n      swap3\n      swap2\n      swap1\n      tag_30\n      jump\t// in\n    tag_29:\n      mload(0x40)\n      dup1\n      swap2\n      sub\n      swap1\n      return\n        /* \"CSAMM.sol\":2843:4164  function addLiquidity(uint _amountIn0, uint _amountIn1) external payable returns(uint _share){... */\n    tag_6:\n      tag_31\n      0x04\n      dup1\n      calldatasize\n      sub\n      dup2\n      add\n      swap1\n      tag_32\n      swap2\n      swap1\n      tag_33\n      jump\t// in\n    tag_32:\n      tag_34\n      jump\t// in\n    tag_31:\n      mload(0x40)\n      tag_35\n      swap2\n      swap1\n      tag_14\n      jump\t// in\n    tag_35:\n      mload(0x40)\n      dup1\n      swap2\n      sub\n      swap1\n      return\n        /* \"CSAMM.sol\":519:548  uint public totalSupplyShares */\n    tag_7:\n      callvalue\n      dup1\n      iszero\n      tag_36\n      jumpi\n      0x00\n      dup1\n      revert\n    tag_36:\n      pop\n      tag_37\n      tag_38\n      jump\t// in\n    tag_37:\n      mload(0x40)\n      tag_39\n      swap2\n      swap1\n      tag_14\n      jump\t// in\n    tag_39:\n      mload(0x40)\n      dup1\n      swap2\n      sub\n      swap1\n      return\n        /* \"CSAMM.sol\":1542:2835  function swap(address _token, uint _amountIn) external payable returns(uint){... */\n    tag_8:\n      tag_40\n      0x04\n      dup1\n      calldatasize\n      sub\n      dup2\n      add\n      swap1\n      tag_41\n      swap2\n      swap1\n      tag_42\n      jump\t// in\n    tag_41:\n      tag_43\n      jump\t// in\n    tag_40:\n      mload(0x40)\n      tag_44\n      swap2\n      swap1\n      tag_14\n      jump\t// in\n    tag_44:\n      mload(0x40)\n      dup1\n      swap2\n      sub\n      swap1\n      return\n        /* \"CSAMM.sol\":434:454  uint public reverse1 */\n    tag_12:\n      sload(0x01)\n      dup2\n      jump\t// out\n        /* \"CSAMM.sol\":351:371  uint public reverse0 */\n    tag_17:\n      sload(0x00)\n      dup2\n      jump\t// out\n        /* \"CSAMM.sol\":604:646  mapping (address => uint) public balanceOf */\n    tag_23:\n      mstore(0x20, 0x03)\n      dup1\n      0x00\n      mstore\n      keccak256(0x00, 0x40)\n      0x00\n      swap2\n      pop\n      swap1\n      pop\n      sload\n      dup2\n      jump\t// out\n        /* \"CSAMM.sol\":4172:5260  function removeLiquidity(uint _share) external  payable returns(uint, uint){... */\n    tag_28:\n        /* \"CSAMM.sol\":4236:4240  uint */\n      0x00\n        /* \"CSAMM.sol\":4242:4246  uint */\n      dup1\n        /* \"CSAMM.sol\":4275:4276  0 */\n      0x00\n        /* \"CSAMM.sol\":4266:4272  _share */\n      dup4\n        /* \"CSAMM.sol\":4266:4276  _share > 0 */\n      gt\n        /* \"CSAMM.sol\":4258:4299  require(_share > 0 , \" share should > 0\") */\n      tag_46\n      jumpi\n      mload(0x40)\n      0x08c379a000000000000000000000000000000000000000000000000000000000\n      dup2\n      mstore\n      0x04\n      add\n      tag_47\n      swap1\n      tag_48\n      jump\t// in\n    tag_47:\n      mload(0x40)\n      dup1\n      swap2\n      sub\n      swap1\n      revert\n    tag_46:\n        /* \"CSAMM.sol\":4351:4373  address payable sender */\n      0x00\n        /* \"CSAMM.sol\":4385:4395  msg.sender */\n      caller\n        /* \"CSAMM.sol\":4351:4396  address payable sender = payable (msg.sender) */\n      swap1\n      pop\n        /* \"CSAMM.sol\":4407:4415  uint bal */\n      0x00\n        /* \"CSAMM.sol\":4418:4427  balanceOf */\n      0x03\n        /* \"CSAMM.sol\":4418:4435  balanceOf[sender] */\n      0x00\n        /* \"CSAMM.sol\":4428:4434  sender */\n      dup4\n        /* \"CSAMM.sol\":4418:4435  balanceOf[sender] */\n      0xffffffffffffffffffffffffffffffffffffffff\n      and\n      0xffffffffffffffffffffffffffffffffffffffff\n      and\n      dup2\n      mstore\n      0x20\n      add\n      swap1\n      dup2\n      mstore\n      0x20\n      add\n      0x00\n      keccak256\n      sload\n        /* \"CSAMM.sol\":4407:4435  uint bal = balanceOf[sender] */\n      swap1\n      pop\n        /* \"CSAMM.sol\":4465:4468  bal */\n      dup1\n        /* \"CSAMM.sol\":4454:4460  _share */\n      dup6\n        /* \"CSAMM.sol\":4454:4468  _share <=  bal */\n      gt\n      iszero\n        /* \"CSAMM.sol\":4446:4500  require(_share <=  bal, \"not enough shares to remove\") */\n      tag_49\n      jumpi\n      mload(0x40)\n      0x08c379a000000000000000000000000000000000000000000000000000000000\n      dup2\n      mstore\n      0x04\n      add\n      tag_50\n      swap1\n      tag_51\n      jump\t// in\n    tag_50:\n      mload(0x40)\n      dup1\n      swap2\n      sub\n      swap1\n      revert\n    tag_49:\n        /* \"CSAMM.sol\":4766:4775  uint res0 */\n      0x00\n        /* \"CSAMM.sol\":4778:4786  reverse0 */\n      dup1\n      sload\n        /* \"CSAMM.sol\":4766:4786  uint res0 = reverse0 */\n      swap1\n      pop\n        /* \"CSAMM.sol\":4797:4806  uint res1 */\n      0x00\n        /* \"CSAMM.sol\":4809:4817  reverse1 */\n      sload(0x01)\n        /* \"CSAMM.sol\":4797:4817  uint res1 = reverse1 */\n      swap1\n      pop\n        /* \"CSAMM.sol\":4828:4835  uint d0 */\n      0x00\n        /* \"CSAMM.sol\":4854:4871  totalSupplyShares */\n      sload(0x02)\n        /* \"CSAMM.sol\":4845:4851  _share */\n      dup9\n        /* \"CSAMM.sol\":4838:4842  res0 */\n      dup5\n        /* \"CSAMM.sol\":4838:4851  res0 * _share */\n      tag_52\n      swap2\n      swap1\n      tag_53\n      jump\t// in\n    tag_52:\n        /* \"CSAMM.sol\":4838:4871  res0 * _share / totalSupplyShares */\n      tag_54\n      swap2\n      swap1\n      tag_55\n      jump\t// in\n    tag_54:\n        /* \"CSAMM.sol\":4828:4871  uint d0 = res0 * _share / totalSupplyShares */\n      swap1\n      pop\n        /* \"CSAMM.sol\":4882:4889  uint d1 */\n      0x00\n        /* \"CSAMM.sol\":4908:4925  totalSupplyShares */\n      sload(0x02)\n        /* \"CSAMM.sol\":4899:4905  _share */\n      dup10\n        /* \"CSAMM.sol\":4892:4896  res1 */\n      dup5\n        /* \"CSAMM.sol\":4892:4905  res1 * _share */\n      tag_56\n      swap2\n      swap1\n      tag_53\n      jump\t// in\n    tag_56:\n        /* \"CSAMM.sol\":4892:4925  res1 * _share / totalSupplyShares */\n      tag_57\n      swap2\n      swap1\n      tag_55\n      jump\t// in\n    tag_57:\n        /* \"CSAMM.sol\":4882:4925  uint d1 = res1 * _share / totalSupplyShares */\n      swap1\n      pop\n        /* \"CSAMM.sol\":4978:4979  0 */\n      0x00\n        /* \"CSAMM.sol\":4973:4975  d0 */\n      dup3\n        /* \"CSAMM.sol\":4973:4979  d0 > 0 */\n      gt\n        /* \"CSAMM.sol\":4969:5021  if (d0 > 0)... */\n      iszero\n      tag_58\n      jumpi\n        /* \"CSAMM.sol\":4994:5000  token0 */\n      immutable(\"0x2d16435b3faa4516e45c961fcfb8946768323ac70484540b7ee099d570719013\")\n        /* \"CSAMM.sol\":4994:5009  token0.transfer */\n      0xffffffffffffffffffffffffffffffffffffffff\n      and\n      0xa9059cbb\n        /* \"CSAMM.sol\":5010:5016  sender */\n      dup8\n        /* \"CSAMM.sol\":5018:5020  d0 */\n      dup5\n        /* \"CSAMM.sol\":4994:5021  token0.transfer(sender, d0) */\n      mload(0x40)\n      dup4\n      0xffffffff\n      and\n      0xe0\n      shl\n      dup2\n      mstore\n      0x04\n      add\n      tag_59\n      swap3\n      swap2\n      swap1\n      tag_60\n      jump\t// in\n    tag_59:\n      0x20\n      mload(0x40)\n      dup1\n      dup4\n      sub\n      dup2\n      0x00\n      dup8\n      gas\n      call\n      iszero\n      dup1\n      iszero\n      tag_62\n      jumpi\n      returndatasize\n      0x00\n      dup1\n      returndatacopy\n      revert(0x00, returndatasize)\n    tag_62:\n      pop\n      pop\n      pop\n      pop\n      mload(0x40)\n      returndatasize\n      not(0x1f)\n      0x1f\n      dup3\n      add\n      and\n      dup3\n      add\n      dup1\n      0x40\n      mstore\n      pop\n      dup2\n      add\n      swap1\n      tag_63\n      swap2\n      swap1\n      tag_64\n      jump\t// in\n    tag_63:\n      pop\n        /* \"CSAMM.sol\":4969:5021  if (d0 > 0)... */\n    tag_58:\n        /* \"CSAMM.sol\":5041:5042  0 */\n      0x00\n        /* \"CSAMM.sol\":5036:5038  d1 */\n      dup2\n        /* \"CSAMM.sol\":5036:5042  d1 > 0 */\n      gt\n        /* \"CSAMM.sol\":5032:5088  if (d1 > 0)    ... */\n      iszero\n      tag_65\n      jumpi\n        /* \"CSAMM.sol\":5061:5067  token1 */\n      immutable(\"0x6d7e9d25f7937a025d098651c32892e1256b8f7bcedf36aadd28cccf92a5a08d\")\n        /* \"CSAMM.sol\":5061:5076  token1.transfer */\n      0xffffffffffffffffffffffffffffffffffffffff\n      and\n      0xa9059cbb\n        /* \"CSAMM.sol\":5077:5083  sender */\n      dup8\n        /* \"CSAMM.sol\":5085:5087  d1 */\n      dup4\n        /* \"CSAMM.sol\":5061:5088  token1.transfer(sender, d1) */\n      mload(0x40)\n      dup4\n      0xffffffff\n      and\n      0xe0\n      shl\n      dup2\n      mstore\n      0x04\n      add\n      tag_66\n      swap3\n      swap2\n      swap1\n      tag_60\n      jump\t// in\n    tag_66:\n      0x20\n      mload(0x40)\n      dup1\n      dup4\n      sub\n      dup2\n      0x00\n      dup8\n      gas\n      call\n      iszero\n      dup1\n      iszero\n      tag_68\n      jumpi\n      returndatasize\n      0x00\n      dup1\n      returndatacopy\n      revert(0x00, returndatasize)\n    tag_68:\n      pop\n      pop\n      pop\n      pop\n      mload(0x40)\n      returndatasize\n      not(0x1f)\n      0x1f\n      dup3\n      add\n      and\n      dup3\n      add\n      dup1\n      0x40\n      mstore\n      pop\n      dup2\n      add\n      swap1\n      tag_69\n      swap2\n      swap1\n      tag_64\n      jump\t// in\n    tag_69:\n      pop\n        /* \"CSAMM.sol\":5032:5088  if (d1 > 0)    ... */\n    tag_65:\n        /* \"CSAMM.sol\":5128:5166  _updateLiquidity(res0 - d0, res1 - d1) */\n      tag_70\n        /* \"CSAMM.sol\":5152:5154  d0 */\n      dup3\n        /* \"CSAMM.sol\":5145:5149  res0 */\n      dup6\n        /* \"CSAMM.sol\":5145:5154  res0 - d0 */\n      tag_71\n      swap2\n      swap1\n      tag_72\n      jump\t// in\n    tag_71:\n        /* \"CSAMM.sol\":5163:5165  d1 */\n      dup3\n        /* \"CSAMM.sol\":5156:5160  res1 */\n      dup6\n        /* \"CSAMM.sol\":5156:5165  res1 - d1 */\n      tag_73\n      swap2\n      swap1\n      tag_72\n      jump\t// in\n    tag_73:\n        /* \"CSAMM.sol\":5128:5144  _updateLiquidity */\n      tag_74\n        /* \"CSAMM.sol\":5128:5166  _updateLiquidity(res0 - d0, res1 - d1) */\n      jump\t// in\n    tag_70:\n        /* \"CSAMM.sol\":5201:5222  _burn(sender, _share) */\n      tag_75\n        /* \"CSAMM.sol\":5207:5213  sender */\n      dup7\n        /* \"CSAMM.sol\":5215:5221  _share */\n      dup11\n        /* \"CSAMM.sol\":5201:5206  _burn */\n      tag_76\n        /* \"CSAMM.sol\":5201:5222  _burn(sender, _share) */\n      jump\t// in\n    tag_75:\n        /* \"CSAMM.sol\":5243:5245  d0 */\n      dup2\n        /* \"CSAMM.sol\":5247:5249  d1 */\n      dup2\n        /* \"CSAMM.sol\":5235:5250  return (d0, d1) */\n      swap8\n      pop\n      swap8\n      pop\n      pop\n      pop\n      pop\n      pop\n      pop\n      pop\n        /* \"CSAMM.sol\":4172:5260  function removeLiquidity(uint _share) external  payable returns(uint, uint){... */\n      swap2\n      pop\n      swap2\n      jump\t// out\n        /* \"CSAMM.sol\":2843:4164  function addLiquidity(uint _amountIn0, uint _amountIn1) external payable returns(uint _share){... */\n    tag_34:\n        /* \"CSAMM.sol\":2924:2935  uint _share */\n      0x00\n        /* \"CSAMM.sol\":2947:2970  address payable  sender */\n      dup1\n        /* \"CSAMM.sol\":2982:2992  msg.sender */\n      caller\n        /* \"CSAMM.sol\":2947:2993  address payable  sender = payable (msg.sender) */\n      swap1\n      pop\n        /* \"CSAMM.sol\":3035:3041  token0 */\n      immutable(\"0x2d16435b3faa4516e45c961fcfb8946768323ac70484540b7ee099d570719013\")\n        /* \"CSAMM.sol\":3035:3054  token0.transferFrom */\n      0xffffffffffffffffffffffffffffffffffffffff\n      and\n      0x23b872dd\n        /* \"CSAMM.sol\":3055:3061  sender */\n      dup3\n        /* \"CSAMM.sol\":3071:3075  this */\n      address\n        /* \"CSAMM.sol\":3078:3088  _amountIn0 */\n      dup8\n        /* \"CSAMM.sol\":3035:3089  token0.transferFrom(sender, address(this), _amountIn0) */\n      mload(0x40)\n      dup5\n      0xffffffff\n      and\n      0xe0\n      shl\n      dup2\n      mstore\n      0x04\n      add\n      tag_78\n      swap4\n      swap3\n      swap2\n      swap1\n      tag_79\n      jump\t// in\n    tag_78:\n      0x20\n      mload(0x40)\n      dup1\n      dup4\n      sub\n      dup2\n      0x00\n      dup8\n      gas\n      call\n      iszero\n      dup1\n      iszero\n      tag_81\n      jumpi\n      returndatasize\n      0x00\n      dup1\n      returndatacopy\n      revert(0x00, returndatasize)\n    tag_81:\n      pop\n      pop\n      pop\n      pop\n      mload(0x40)\n      returndatasize\n      not(0x1f)\n      0x1f\n      dup3\n      add\n      and\n      dup3\n      add\n      dup1\n      0x40\n      mstore\n      pop\n      dup2\n      add\n      swap1\n      tag_82\n      swap2\n      swap1\n      tag_64\n      jump\t// in\n    tag_82:\n      pop\n        /* \"CSAMM.sol\":3100:3106  token1 */\n      immutable(\"0x6d7e9d25f7937a025d098651c32892e1256b8f7bcedf36aadd28cccf92a5a08d\")\n        /* \"CSAMM.sol\":3100:3119  token1.transferFrom */\n      0xffffffffffffffffffffffffffffffffffffffff\n      and\n      0x23b872dd\n        /* \"CSAMM.sol\":3120:3126  sender */\n      dup3\n        /* \"CSAMM.sol\":3136:3140  this */\n      address\n        /* \"CSAMM.sol\":3143:3153  _amountIn1 */\n      dup7\n        /* \"CSAMM.sol\":3100:3154  token1.transferFrom(sender, address(this), _amountIn1) */\n      mload(0x40)\n      dup5\n      0xffffffff\n      and\n      0xe0\n      shl\n      dup2\n      mstore\n      0x04\n      add\n      tag_83\n      swap4\n      swap3\n      swap2\n      swap1\n      tag_79\n      jump\t// in\n    tag_83:\n      0x20\n      mload(0x40)\n      dup1\n      dup4\n      sub\n      dup2\n      0x00\n      dup8\n      gas\n      call\n      iszero\n      dup1\n      iszero\n      tag_85\n      jumpi\n      returndatasize\n      0x00\n      dup1\n      returndatacopy\n      revert(0x00, returndatasize)\n    tag_85:\n      pop\n      pop\n      pop\n      pop\n      mload(0x40)\n      returndatasize\n      not(0x1f)\n      0x1f\n      dup3\n      add\n      and\n      dup3\n      add\n      dup1\n      0x40\n      mstore\n      pop\n      dup2\n      add\n      swap1\n      tag_86\n      swap2\n      swap1\n      tag_64\n      jump\t// in\n    tag_86:\n      pop\n        /* \"CSAMM.sol\":3167:3176  uint bal0 */\n      0x00\n        /* \"CSAMM.sol\":3179:3185  token0 */\n      immutable(\"0x2d16435b3faa4516e45c961fcfb8946768323ac70484540b7ee099d570719013\")\n        /* \"CSAMM.sol\":3179:3195  token0.balanceOf */\n      0xffffffffffffffffffffffffffffffffffffffff\n      and\n      0x70a08231\n        /* \"CSAMM.sol\":3204:3208  this */\n      address\n        /* \"CSAMM.sol\":3179:3210  token0.balanceOf(address(this)) */\n      mload(0x40)\n      dup3\n      0xffffffff\n      and\n      0xe0\n      shl\n      dup2\n      mstore\n      0x04\n      add\n      tag_87\n      swap2\n      swap1\n      tag_88\n      jump\t// in\n    tag_87:\n      0x20\n      mload(0x40)\n      dup1\n      dup4\n      sub\n      dup2\n      dup7\n      gas\n      staticcall\n      iszero\n      dup1\n      iszero\n      tag_90\n      jumpi\n      returndatasize\n      0x00\n      dup1\n      returndatacopy\n      revert(0x00, returndatasize)\n    tag_90:\n      pop\n      pop\n      pop\n      pop\n      mload(0x40)\n      returndatasize\n      not(0x1f)\n      0x1f\n      dup3\n      add\n      and\n      dup3\n      add\n      dup1\n      0x40\n      mstore\n      pop\n      dup2\n      add\n      swap1\n      tag_91\n      swap2\n      swap1\n      tag_92\n      jump\t// in\n    tag_91:\n        /* \"CSAMM.sol\":3167:3210  uint bal0 = token0.balanceOf(address(this)) */\n      swap1\n      pop\n        /* \"CSAMM.sol\":3221:3230  uint bal1 */\n      0x00\n        /* \"CSAMM.sol\":3233:3239  token1 */\n      immutable(\"0x6d7e9d25f7937a025d098651c32892e1256b8f7bcedf36aadd28cccf92a5a08d\")\n        /* \"CSAMM.sol\":3233:3249  token1.balanceOf */\n      0xffffffffffffffffffffffffffffffffffffffff\n      and\n      0x70a08231\n        /* \"CSAMM.sol\":3258:3262  this */\n      address\n        /* \"CSAMM.sol\":3233:3264  token1.balanceOf(address(this)) */\n      mload(0x40)\n      dup3\n      0xffffffff\n      and\n      0xe0\n      shl\n      dup2\n      mstore\n      0x04\n      add\n      tag_93\n      swap2\n      swap1\n      tag_88\n      jump\t// in\n    tag_93:\n      0x20\n      mload(0x40)\n      dup1\n      dup4\n      sub\n      dup2\n      dup7\n      gas\n      staticcall\n      iszero\n      dup1\n      iszero\n      tag_95\n      jumpi\n      returndatasize\n      0x00\n      dup1\n      returndatacopy\n      revert(0x00, returndatasize)\n    tag_95:\n      pop\n      pop\n      pop\n      pop\n      mload(0x40)\n      returndatasize\n      not(0x1f)\n      0x1f\n      dup3\n      add\n      and\n      dup3\n      add\n      dup1\n      0x40\n      mstore\n      pop\n      dup2\n      add\n      swap1\n      tag_96\n      swap2\n      swap1\n      tag_92\n      jump\t// in\n    tag_96:\n        /* \"CSAMM.sol\":3221:3264  uint bal1 = token1.balanceOf(address(this)) */\n      swap1\n      pop\n        /* \"CSAMM.sol\":3277:3284  uint d0 */\n      0x00\n        /* \"CSAMM.sol\":3294:3302  reverse0 */\n      dup1\n      sload\n        /* \"CSAMM.sol\":3287:3291  bal0 */\n      dup4\n        /* \"CSAMM.sol\":3287:3302  bal0 - reverse0 */\n      tag_97\n      swap2\n      swap1\n      tag_72\n      jump\t// in\n    tag_97:\n        /* \"CSAMM.sol\":3277:3302  uint d0 = bal0 - reverse0 */\n      swap1\n      pop\n        /* \"CSAMM.sol\":3313:3320  uint d1 */\n      0x00\n        /* \"CSAMM.sol\":3330:3338  reverse1 */\n      sload(0x01)\n        /* \"CSAMM.sol\":3323:3327  bal1 */\n      dup4\n        /* \"CSAMM.sol\":3323:3338  bal1 - reverse1 */\n      tag_98\n      swap2\n      swap1\n      tag_72\n      jump\t// in\n    tag_98:\n        /* \"CSAMM.sol\":3313:3338  uint d1 = bal1 - reverse1 */\n      swap1\n      pop\n        /* \"CSAMM.sol\":3658:3671  uint origRes0 */\n      0x00\n        /* \"CSAMM.sol\":3674:3682  reverse0 */\n      dup1\n      sload\n        /* \"CSAMM.sol\":3658:3682  uint origRes0 = reverse0 */\n      swap1\n      pop\n        /* \"CSAMM.sol\":3693:3706  uint origRes1 */\n      0x00\n        /* \"CSAMM.sol\":3709:3717  reverse1 */\n      sload(0x01)\n        /* \"CSAMM.sol\":3693:3717  uint origRes1 = reverse1 */\n      swap1\n      pop\n        /* \"CSAMM.sol\":3752:3753  0 */\n      0x00\n        /* \"CSAMM.sol\":3731:3748  totalSupplyShares */\n      sload(0x02)\n        /* \"CSAMM.sol\":3731:3753  totalSupplyShares == 0 */\n      sub\n        /* \"CSAMM.sol\":3728:3901  if(totalSupplyShares == 0){... */\n      tag_99\n      jumpi\n        /* \"CSAMM.sol\":3783:3785  d1 */\n      dup3\n        /* \"CSAMM.sol\":3778:3780  d0 */\n      dup5\n        /* \"CSAMM.sol\":3778:3785  d0 + d1 */\n      tag_100\n      swap2\n      swap1\n      tag_101\n      jump\t// in\n    tag_100:\n        /* \"CSAMM.sol\":3769:3785  _share = d0 + d1 */\n      swap8\n      pop\n        /* \"CSAMM.sol\":3728:3901  if(totalSupplyShares == 0){... */\n      jump(tag_102)\n    tag_99:\n        /* \"CSAMM.sol\":3880:3888  origRes1 */\n      dup1\n        /* \"CSAMM.sol\":3868:3876  origRes0 */\n      dup3\n        /* \"CSAMM.sol\":3868:3888  origRes0 +  origRes1 */\n      tag_103\n      swap2\n      swap1\n      tag_101\n      jump\t// in\n    tag_103:\n        /* \"CSAMM.sol\":3848:3865  totalSupplyShares */\n      sload(0x02)\n        /* \"CSAMM.sol\":3842:3844  d1 */\n      dup5\n        /* \"CSAMM.sol\":3837:3839  d0 */\n      dup7\n        /* \"CSAMM.sol\":3837:3844  d0 + d1 */\n      tag_104\n      swap2\n      swap1\n      tag_101\n      jump\t// in\n    tag_104:\n        /* \"CSAMM.sol\":3836:3865  (d0 + d1) * totalSupplyShares */\n      tag_105\n      swap2\n      swap1\n      tag_53\n      jump\t// in\n    tag_105:\n        /* \"CSAMM.sol\":3835:3889  ((d0 + d1) * totalSupplyShares)/(origRes0 +  origRes1) */\n      tag_106\n      swap2\n      swap1\n      tag_55\n      jump\t// in\n    tag_106:\n        /* \"CSAMM.sol\":3826:3889  _share = ((d0 + d1) * totalSupplyShares)/(origRes0 +  origRes1) */\n      swap8\n      pop\n        /* \"CSAMM.sol\":3728:3901  if(totalSupplyShares == 0){... */\n    tag_102:\n        /* \"CSAMM.sol\":3978:3979  0 */\n      0x00\n        /* \"CSAMM.sol\":3969:3975  _share */\n      dup9\n        /* \"CSAMM.sol\":3969:3979  _share > 0 */\n      gt\n        /* \"CSAMM.sol\":3961:3994  require(_share > 0, \"shares < 0\") */\n      tag_107\n      jumpi\n      mload(0x40)\n      0x08c379a000000000000000000000000000000000000000000000000000000000\n      dup2\n      mstore\n      0x04\n      add\n      tag_108\n      swap1\n      tag_109\n      jump\t// in\n    tag_108:\n      mload(0x40)\n      dup1\n      swap2\n      sub\n      swap1\n      revert\n    tag_107:\n        /* \"CSAMM.sol\":4078:4099  _mint(sender, _share) */\n      tag_110\n        /* \"CSAMM.sol\":4084:4090  sender */\n      dup8\n        /* \"CSAMM.sol\":4092:4098  _share */\n      dup10\n        /* \"CSAMM.sol\":4078:4083  _mint */\n      tag_111\n        /* \"CSAMM.sol\":4078:4099  _mint(sender, _share) */\n      jump\t// in\n    tag_110:\n        /* \"CSAMM.sol\":4110:4156  _updateLiquidity(origRes0 + d0, origRes1 + d1) */\n      tag_112\n        /* \"CSAMM.sol\":4138:4140  d0 */\n      dup5\n        /* \"CSAMM.sol\":4127:4135  origRes0 */\n      dup4\n        /* \"CSAMM.sol\":4127:4140  origRes0 + d0 */\n      tag_113\n      swap2\n      swap1\n      tag_101\n      jump\t// in\n    tag_113:\n        /* \"CSAMM.sol\":4153:4155  d1 */\n      dup5\n        /* \"CSAMM.sol\":4142:4150  origRes1 */\n      dup4\n        /* \"CSAMM.sol\":4142:4155  origRes1 + d1 */\n      tag_114\n      swap2\n      swap1\n      tag_101\n      jump\t// in\n    tag_114:\n        /* \"CSAMM.sol\":4110:4126  _updateLiquidity */\n      tag_74\n        /* \"CSAMM.sol\":4110:4156  _updateLiquidity(origRes0 + d0, origRes1 + d1) */\n      jump\t// in\n    tag_112:\n        /* \"CSAMM.sol\":2936:4164  {... */\n      pop\n      pop\n      pop\n      pop\n      pop\n      pop\n      pop\n        /* \"CSAMM.sol\":2843:4164  function addLiquidity(uint _amountIn0, uint _amountIn1) external payable returns(uint _share){... */\n      swap3\n      swap2\n      pop\n      pop\n      jump\t// out\n        /* \"CSAMM.sol\":519:548  uint public totalSupplyShares */\n    tag_38:\n      sload(0x02)\n      dup2\n      jump\t// out\n        /* \"CSAMM.sol\":1542:2835  function swap(address _token, uint _amountIn) external payable returns(uint){... */\n    tag_43:\n        /* \"CSAMM.sol\":1613:1617  uint */\n      0x00\n        /* \"CSAMM.sol\":1629:1652  address payable  sender */\n      dup1\n        /* \"CSAMM.sol\":1664:1674  msg.sender */\n      caller\n        /* \"CSAMM.sol\":1629:1675  address payable  sender = payable (msg.sender) */\n      swap1\n      pop\n        /* \"CSAMM.sol\":1712:1718  token0 */\n      immutable(\"0x2d16435b3faa4516e45c961fcfb8946768323ac70484540b7ee099d570719013\")\n        /* \"CSAMM.sol\":1694:1719  _token == address(token0) */\n      0xffffffffffffffffffffffffffffffffffffffff\n      and\n        /* \"CSAMM.sol\":1694:1700  _token */\n      dup5\n        /* \"CSAMM.sol\":1694:1719  _token == address(token0) */\n      0xffffffffffffffffffffffffffffffffffffffff\n      and\n      eq\n        /* \"CSAMM.sol\":1694:1748  _token == address(token0) || _token == address(token1) */\n      dup1\n      tag_116\n      jumpi\n      pop\n        /* \"CSAMM.sol\":1741:1747  token1 */\n      immutable(\"0x6d7e9d25f7937a025d098651c32892e1256b8f7bcedf36aadd28cccf92a5a08d\")\n        /* \"CSAMM.sol\":1723:1748  _token == address(token1) */\n      0xffffffffffffffffffffffffffffffffffffffff\n      and\n        /* \"CSAMM.sol\":1723:1729  _token */\n      dup5\n        /* \"CSAMM.sol\":1723:1748  _token == address(token1) */\n      0xffffffffffffffffffffffffffffffffffffffff\n      and\n      eq\n        /* \"CSAMM.sol\":1694:1748  _token == address(token0) || _token == address(token1) */\n    tag_116:\n        /* \"CSAMM.sol\":1686:1766  require(_token == address(token0) || _token == address(token1), \"Token invalid\") */\n      tag_117\n      jumpi\n      mload(0x40)\n      0x08c379a000000000000000000000000000000000000000000000000000000000\n      dup2\n      mstore\n      0x04\n      add\n      tag_118\n      swap1\n      tag_119\n      jump\t// in\n    tag_118:\n      mload(0x40)\n      dup1\n      swap2\n      sub\n      swap1\n      revert\n    tag_117:\n        /* \"CSAMM.sol\":1779:1792  bool isToken0 */\n      0x00\n        /* \"CSAMM.sol\":1814:1820  token0 */\n      immutable(\"0x2d16435b3faa4516e45c961fcfb8946768323ac70484540b7ee099d570719013\")\n        /* \"CSAMM.sol\":1796:1821  _token == address(token0) */\n      0xffffffffffffffffffffffffffffffffffffffff\n      and\n        /* \"CSAMM.sol\":1796:1802  _token */\n      dup6\n        /* \"CSAMM.sol\":1796:1821  _token == address(token0) */\n      0xffffffffffffffffffffffffffffffffffffffff\n      and\n      eq\n        /* \"CSAMM.sol\":1779:1822  bool isToken0 = (_token == address(token0)) */\n      swap1\n      pop\n        /* \"CSAMM.sol\":1834:1848  IERC20 tokenIn */\n      0x00\n        /* \"CSAMM.sol\":1850:1865  IERC20 tokenOut */\n      dup1\n        /* \"CSAMM.sol\":1869:1877  isToken0 */\n      dup3\n        /* \"CSAMM.sol\":1869:1913  isToken0 ? (token0, token1):(token1, token0) */\n      tag_120\n      jumpi\n        /* \"CSAMM.sol\":1898:1904  token1 */\n      immutable(\"0x6d7e9d25f7937a025d098651c32892e1256b8f7bcedf36aadd28cccf92a5a08d\")\n        /* \"CSAMM.sol\":1906:1912  token0 */\n      immutable(\"0x2d16435b3faa4516e45c961fcfb8946768323ac70484540b7ee099d570719013\")\n        /* \"CSAMM.sol\":1869:1913  isToken0 ? (token0, token1):(token1, token0) */\n      jump(tag_121)\n    tag_120:\n        /* \"CSAMM.sol\":1881:1887  token0 */\n      immutable(\"0x2d16435b3faa4516e45c961fcfb8946768323ac70484540b7ee099d570719013\")\n        /* \"CSAMM.sol\":1889:1895  token1 */\n      immutable(\"0x6d7e9d25f7937a025d098651c32892e1256b8f7bcedf36aadd28cccf92a5a08d\")\n        /* \"CSAMM.sol\":1869:1913  isToken0 ? (token0, token1):(token1, token0) */\n    tag_121:\n        /* \"CSAMM.sol\":1833:1913  (IERC20 tokenIn, IERC20 tokenOut) = isToken0 ? (token0, token1):(token1, token0) */\n      swap2\n      pop\n      swap2\n      pop\n        /* \"CSAMM.sol\":2030:2043  uint amountIn */\n      0x00\n        /* \"CSAMM.sol\":2046:2055  _amountIn */\n      dup7\n        /* \"CSAMM.sol\":2030:2055  uint amountIn = _amountIn */\n      swap1\n      pop\n        /* \"CSAMM.sol\":2066:2076  uint resIn */\n      0x00\n        /* \"CSAMM.sol\":2079:2087  isToken0 */\n      dup5\n        /* \"CSAMM.sol\":2079:2109  isToken0 ? reverse0 : reverse1 */\n      tag_122\n      jumpi\n        /* \"CSAMM.sol\":2101:2109  reverse1 */\n      sload(0x01)\n        /* \"CSAMM.sol\":2079:2109  isToken0 ? reverse0 : reverse1 */\n      jump(tag_123)\n    tag_122:\n        /* \"CSAMM.sol\":2090:2098  reverse0 */\n      sload(0x00)\n        /* \"CSAMM.sol\":2079:2109  isToken0 ? reverse0 : reverse1 */\n    tag_123:\n        /* \"CSAMM.sol\":2066:2109  uint resIn = isToken0 ? reverse0 : reverse1 */\n      swap1\n      pop\n        /* \"CSAMM.sol\":2154:2164  uint tmpIn */\n      0x00\n        /* \"CSAMM.sol\":2175:2182  tokenIn */\n      dup5\n        /* \"CSAMM.sol\":2175:2195  tokenIn.transferFrom */\n      0xffffffffffffffffffffffffffffffffffffffff\n      and\n      0x23b872dd\n        /* \"CSAMM.sol\":2196:2202  sender */\n      dup9\n        /* \"CSAMM.sol\":2212:2216  this */\n      address\n        /* \"CSAMM.sol\":2219:2227  amountIn */\n      dup7\n        /* \"CSAMM.sol\":2175:2228  tokenIn.transferFrom(sender, address(this), amountIn) */\n      mload(0x40)\n      dup5\n      0xffffffff\n      and\n      0xe0\n      shl\n      dup2\n      mstore\n      0x04\n      add\n      tag_124\n      swap4\n      swap3\n      swap2\n      swap1\n      tag_79\n      jump\t// in\n    tag_124:\n      0x20\n      mload(0x40)\n      dup1\n      dup4\n      sub\n      dup2\n      0x00\n      dup8\n      gas\n      call\n      iszero\n      dup1\n      iszero\n      tag_126\n      jumpi\n      returndatasize\n      0x00\n      dup1\n      returndatacopy\n      revert(0x00, returndatasize)\n    tag_126:\n      pop\n      pop\n      pop\n      pop\n      mload(0x40)\n      returndatasize\n      not(0x1f)\n      0x1f\n      dup3\n      add\n      and\n      dup3\n      add\n      dup1\n      0x40\n      mstore\n      pop\n      dup2\n      add\n      swap1\n      tag_127\n      swap2\n      swap1\n      tag_64\n      jump\t// in\n    tag_127:\n      pop\n        /* \"CSAMM.sol\":2308:2313  resIn */\n      dup2\n        /* \"CSAMM.sol\":2273:2280  tokenIn */\n      dup6\n        /* \"CSAMM.sol\":2273:2290  tokenIn.balanceOf */\n      0xffffffffffffffffffffffffffffffffffffffff\n      and\n      0x70a08231\n        /* \"CSAMM.sol\":2299:2303  this */\n      address\n        /* \"CSAMM.sol\":2273:2305  tokenIn.balanceOf(address(this)) */\n      mload(0x40)\n      dup3\n      0xffffffff\n      and\n      0xe0\n      shl\n      dup2\n      mstore\n      0x04\n      add\n      tag_128\n      swap2\n      swap1\n      tag_88\n      jump\t// in\n    tag_128:\n      0x20\n      mload(0x40)\n      dup1\n      dup4\n      sub\n      dup2\n      dup7\n      gas\n      staticcall\n      iszero\n      dup1\n      iszero\n      tag_130\n      jumpi\n      returndatasize\n      0x00\n      dup1\n      returndatacopy\n      revert(0x00, returndatasize)\n    tag_130:\n      pop\n      pop\n      pop\n      pop\n      mload(0x40)\n      returndatasize\n      not(0x1f)\n      0x1f\n      dup3\n      add\n      and\n      dup3\n      add\n      dup1\n      0x40\n      mstore\n      pop\n      dup2\n      add\n      swap1\n      tag_131\n      swap2\n      swap1\n      tag_92\n      jump\t// in\n    tag_131:\n        /* \"CSAMM.sol\":2273:2313  tokenIn.balanceOf(address(this)) - resIn */\n      tag_132\n      swap2\n      swap1\n      tag_72\n      jump\t// in\n    tag_132:\n        /* \"CSAMM.sol\":2265:2313  tmpIn = tokenIn.balanceOf(address(this)) - resIn */\n      swap1\n      pop\n        /* \"CSAMM.sol\":2324:2338  uint amountOut */\n      0x00\n        /* \"CSAMM.sol\":2355:2359  1000 */\n      0x03e8\n        /* \"CSAMM.sol\":2349:2352  997 */\n      0x03e5\n        /* \"CSAMM.sol\":2341:2346  tmpIn */\n      dup4\n        /* \"CSAMM.sol\":2341:2352  tmpIn * 997 */\n      tag_133\n      swap2\n      swap1\n      tag_53\n      jump\t// in\n    tag_133:\n        /* \"CSAMM.sol\":2341:2359  tmpIn * 997 / 1000 */\n      tag_134\n      swap2\n      swap1\n      tag_55\n      jump\t// in\n    tag_134:\n        /* \"CSAMM.sol\":2324:2359  uint amountOut = tmpIn * 997 / 1000 */\n      swap1\n      pop\n        /* \"CSAMM.sol\":2412:2420  tokenOut */\n      dup5\n        /* \"CSAMM.sol\":2412:2429  tokenOut.transfer */\n      0xffffffffffffffffffffffffffffffffffffffff\n      and\n      0xa9059cbb\n        /* \"CSAMM.sol\":2430:2436  sender */\n      dup10\n        /* \"CSAMM.sol\":2438:2447  amountOut */\n      dup4\n        /* \"CSAMM.sol\":2412:2448  tokenOut.transfer(sender, amountOut) */\n      mload(0x40)\n      dup4\n      0xffffffff\n      and\n      0xe0\n      shl\n      dup2\n      mstore\n      0x04\n      add\n      tag_135\n      swap3\n      swap2\n      swap1\n      tag_60\n      jump\t// in\n    tag_135:\n      0x20\n      mload(0x40)\n      dup1\n      dup4\n      sub\n      dup2\n      0x00\n      dup8\n      gas\n      call\n      iszero\n      dup1\n      iszero\n      tag_137\n      jumpi\n      returndatasize\n      0x00\n      dup1\n      returndatacopy\n      revert(0x00, returndatasize)\n    tag_137:\n      pop\n      pop\n      pop\n      pop\n      mload(0x40)\n      returndatasize\n      not(0x1f)\n      0x1f\n      dup3\n      add\n      and\n      dup3\n      add\n      dup1\n      0x40\n      mstore\n      pop\n      dup2\n      add\n      swap1\n      tag_138\n      swap2\n      swap1\n      tag_64\n      jump\t// in\n    tag_138:\n      pop\n        /* \"CSAMM.sol\":2492:2500  isToken0 */\n      dup7\n        /* \"CSAMM.sol\":2488:2799  if (isToken0){... */\n      iszero\n      tag_139\n      jumpi\n        /* \"CSAMM.sol\":2528:2536  amountIn */\n      dup4\n        /* \"CSAMM.sol\":2516:2524  reverse0 */\n      0x00\n      dup1\n        /* \"CSAMM.sol\":2516:2536  reverse0 += amountIn */\n      dup3\n      dup3\n      sload\n      tag_140\n      swap2\n      swap1\n      tag_101\n      jump\t// in\n    tag_140:\n      swap3\n      pop\n      pop\n      dup2\n      swap1\n      sstore\n      pop\n        /* \"CSAMM.sol\":2563:2572  amountOut */\n      dup1\n        /* \"CSAMM.sol\":2551:2559  reverse1 */\n      0x01\n      0x00\n        /* \"CSAMM.sol\":2551:2572  reverse1 -= amountOut */\n      dup3\n      dup3\n      sload\n      tag_141\n      swap2\n      swap1\n      tag_72\n      jump\t// in\n    tag_141:\n      swap3\n      pop\n      pop\n      dup2\n      swap1\n      sstore\n      pop\n        /* \"CSAMM.sol\":2597:2603  sender */\n      dup8\n        /* \"CSAMM.sol\":2592:2631  Swap(sender, amountIn, 0, amountOut, 0) */\n      0xffffffffffffffffffffffffffffffffffffffff\n      and\n      0x49926bbebe8474393f434dfa4f78694c0923efa07d19f2284518bfabd06eb737\n        /* \"CSAMM.sol\":2605:2613  amountIn */\n      dup6\n        /* \"CSAMM.sol\":2615:2616  0 */\n      0x00\n        /* \"CSAMM.sol\":2618:2627  amountOut */\n      dup5\n        /* \"CSAMM.sol\":2629:2630  0 */\n      0x00\n        /* \"CSAMM.sol\":2592:2631  Swap(sender, amountIn, 0, amountOut, 0) */\n      mload(0x40)\n      tag_142\n      swap5\n      swap4\n      swap3\n      swap2\n      swap1\n      tag_143\n      jump\t// in\n    tag_142:\n      mload(0x40)\n      dup1\n      swap2\n      sub\n      swap1\n      log2\n        /* \"CSAMM.sol\":2488:2799  if (isToken0){... */\n      jump(tag_144)\n    tag_139:\n        /* \"CSAMM.sol\":2684:2693  amountOut */\n      dup1\n        /* \"CSAMM.sol\":2672:2680  reverse0 */\n      0x00\n      dup1\n        /* \"CSAMM.sol\":2672:2693  reverse0 -= amountOut */\n      dup3\n      dup3\n      sload\n      tag_145\n      swap2\n      swap1\n      tag_72\n      jump\t// in\n    tag_145:\n      swap3\n      pop\n      pop\n      dup2\n      swap1\n      sstore\n      pop\n        /* \"CSAMM.sol\":2720:2728  amountIn */\n      dup4\n        /* \"CSAMM.sol\":2708:2716  reverse1 */\n      0x01\n      0x00\n        /* \"CSAMM.sol\":2708:2728  reverse1 += amountIn */\n      dup3\n      dup3\n      sload\n      tag_146\n      swap2\n      swap1\n      tag_101\n      jump\t// in\n    tag_146:\n      swap3\n      pop\n      pop\n      dup2\n      swap1\n      sstore\n      pop\n        /* \"CSAMM.sol\":2753:2759  sender */\n      dup8\n        /* \"CSAMM.sol\":2748:2787  Swap(sender, 0, amountIn, 0, amountOut) */\n      0xffffffffffffffffffffffffffffffffffffffff\n      and\n      0x49926bbebe8474393f434dfa4f78694c0923efa07d19f2284518bfabd06eb737\n        /* \"CSAMM.sol\":2761:2762  0 */\n      0x00\n        /* \"CSAMM.sol\":2764:2772  amountIn */\n      dup7\n        /* \"CSAMM.sol\":2774:2775  0 */\n      0x00\n        /* \"CSAMM.sol\":2777:2786  amountOut */\n      dup6\n        /* \"CSAMM.sol\":2748:2787  Swap(sender, 0, amountIn, 0, amountOut) */\n      mload(0x40)\n      tag_147\n      swap5\n      swap4\n      swap3\n      swap2\n      swap1\n      tag_148\n      jump\t// in\n    tag_147:\n      mload(0x40)\n      dup1\n      swap2\n      sub\n      swap1\n      log2\n        /* \"CSAMM.sol\":2488:2799  if (isToken0){... */\n    tag_144:\n        /* \"CSAMM.sol\":2816:2825  amountOut */\n      dup1\n        /* \"CSAMM.sol\":2809:2825  return amountOut */\n      swap9\n      pop\n      pop\n      pop\n      pop\n      pop\n      pop\n      pop\n      pop\n      pop\n        /* \"CSAMM.sol\":1542:2835  function swap(address _token, uint _amountIn) external payable returns(uint){... */\n      swap3\n      swap2\n      pop\n      pop\n      jump\t// out\n        /* \"CSAMM.sol\":1415:1536  function _updateLiquidity(uint _res0, uint _res1) internal {... */\n    tag_74:\n        /* \"CSAMM.sol\":1496:1501  _res0 */\n      dup2\n        /* \"CSAMM.sol\":1485:1493  reverse0 */\n      0x00\n        /* \"CSAMM.sol\":1485:1501  reverse0 = _res0 */\n      dup2\n      swap1\n      sstore\n      pop\n        /* \"CSAMM.sol\":1523:1528  _res1 */\n      dup1\n        /* \"CSAMM.sol\":1512:1520  reverse1 */\n      0x01\n        /* \"CSAMM.sol\":1512:1528  reverse1 = _res1 */\n      dup2\n      swap1\n      sstore\n      pop\n        /* \"CSAMM.sol\":1415:1536  function _updateLiquidity(uint _res0, uint _res1) internal {... */\n      pop\n      pop\n      jump\t// out\n        /* \"CSAMM.sol\":1271:1409  function _burn(address _from, uint _amount) internal {... */\n    tag_76:\n        /* \"CSAMM.sol\":1356:1363  _amount */\n      dup1\n        /* \"CSAMM.sol\":1335:1352  totalSupplyShares */\n      0x02\n      0x00\n        /* \"CSAMM.sol\":1335:1363  totalSupplyShares -= _amount */\n      dup3\n      dup3\n      sload\n      tag_151\n      swap2\n      swap1\n      tag_72\n      jump\t// in\n    tag_151:\n      swap3\n      pop\n      pop\n      dup2\n      swap1\n      sstore\n      pop\n        /* \"CSAMM.sol\":1394:1401  _amount */\n      dup1\n        /* \"CSAMM.sol\":1374:1383  balanceOf */\n      0x03\n        /* \"CSAMM.sol\":1374:1390  balanceOf[_from] */\n      0x00\n        /* \"CSAMM.sol\":1384:1389  _from */\n      dup5\n        /* \"CSAMM.sol\":1374:1390  balanceOf[_from] */\n      0xffffffffffffffffffffffffffffffffffffffff\n      and\n      0xffffffffffffffffffffffffffffffffffffffff\n      and\n      dup2\n      mstore\n      0x20\n      add\n      swap1\n      dup2\n      mstore\n      0x20\n      add\n      0x00\n      keccak256\n      0x00\n        /* \"CSAMM.sol\":1374:1401  balanceOf[_from] -= _amount */\n      dup3\n      dup3\n      sload\n      tag_152\n      swap2\n      swap1\n      tag_72\n      jump\t// in\n    tag_152:\n      swap3\n      pop\n      pop\n      dup2\n      swap1\n      sstore\n      pop\n        /* \"CSAMM.sol\":1271:1409  function _burn(address _from, uint _amount) internal {... */\n      pop\n      pop\n      jump\t// out\n        /* \"CSAMM.sol\":1131:1265  function _mint(address _to, uint _amount) internal {... */\n    tag_111:\n        /* \"CSAMM.sol\":1214:1221  _amount */\n      dup1\n        /* \"CSAMM.sol\":1193:1210  totalSupplyShares */\n      0x02\n      0x00\n        /* \"CSAMM.sol\":1193:1221  totalSupplyShares += _amount */\n      dup3\n      dup3\n      sload\n      tag_154\n      swap2\n      swap1\n      tag_101\n      jump\t// in\n    tag_154:\n      swap3\n      pop\n      pop\n      dup2\n      swap1\n      sstore\n      pop\n        /* \"CSAMM.sol\":1250:1257  _amount */\n      dup1\n        /* \"CSAMM.sol\":1232:1241  balanceOf */\n      0x03\n        /* \"CSAMM.sol\":1232:1246  balanceOf[_to] */\n      0x00\n        /* \"CSAMM.sol\":1242:1245  _to */\n      dup5\n        /* \"CSAMM.sol\":1232:1246  balanceOf[_to] */\n      0xffffffffffffffffffffffffffffffffffffffff\n      and\n      0xffffffffffffffffffffffffffffffffffffffff\n      and\n      dup2\n      mstore\n      0x20\n      add\n      swap1\n      dup2\n      mstore\n      0x20\n      add\n      0x00\n      keccak256\n      0x00\n        /* \"CSAMM.sol\":1232:1257  balanceOf[_to] += _amount */\n      dup3\n      dup3\n      sload\n      tag_155\n      swap2\n      swap1\n      tag_101\n      jump\t// in\n    tag_155:\n      swap3\n      pop\n      pop\n      dup2\n      swap1\n      sstore\n      pop\n        /* \"CSAMM.sol\":1131:1265  function _mint(address _to, uint _amount) internal {... */\n      pop\n      pop\n      jump\t// out\n        /* \"#utility.yul\":7:84   */\n    tag_156:\n        /* \"#utility.yul\":44:51   */\n      0x00\n        /* \"#utility.yul\":73:78   */\n      dup2\n        /* \"#utility.yul\":62:78   */\n      swap1\n      pop\n        /* \"#utility.yul\":7:84   */\n      swap2\n      swap1\n      pop\n      jump\t// out\n        /* \"#utility.yul\":90:208   */\n    tag_157:\n        /* \"#utility.yul\":177:201   */\n      tag_194\n        /* \"#utility.yul\":195:200   */\n      dup2\n        /* \"#utility.yul\":177:201   */\n      tag_156\n      jump\t// in\n    tag_194:\n        /* \"#utility.yul\":172:175   */\n      dup3\n        /* \"#utility.yul\":165:202   */\n      mstore\n        /* \"#utility.yul\":90:208   */\n      pop\n      pop\n      jump\t// out\n        /* \"#utility.yul\":214:436   */\n    tag_14:\n        /* \"#utility.yul\":307:311   */\n      0x00\n        /* \"#utility.yul\":345:347   */\n      0x20\n        /* \"#utility.yul\":334:343   */\n      dup3\n        /* \"#utility.yul\":330:348   */\n      add\n        /* \"#utility.yul\":322:348   */\n      swap1\n      pop\n        /* \"#utility.yul\":358:429   */\n      tag_196\n        /* \"#utility.yul\":426:427   */\n      0x00\n        /* \"#utility.yul\":415:424   */\n      dup4\n        /* \"#utility.yul\":411:428   */\n      add\n        /* \"#utility.yul\":402:408   */\n      dup5\n        /* \"#utility.yul\":358:429   */\n      tag_157\n      jump\t// in\n    tag_196:\n        /* \"#utility.yul\":214:436   */\n      swap3\n      swap2\n      pop\n      pop\n      jump\t// out\n        /* \"#utility.yul\":523:640   */\n    tag_159:\n        /* \"#utility.yul\":632:633   */\n      0x00\n        /* \"#utility.yul\":629:630   */\n      dup1\n        /* \"#utility.yul\":622:634   */\n      revert\n        /* \"#utility.yul\":769:895   */\n    tag_161:\n        /* \"#utility.yul\":806:813   */\n      0x00\n        /* \"#utility.yul\":846:888   */\n      0xffffffffffffffffffffffffffffffffffffffff\n        /* \"#utility.yul\":839:844   */\n      dup3\n        /* \"#utility.yul\":835:889   */\n      and\n        /* \"#utility.yul\":824:889   */\n      swap1\n      pop\n        /* \"#utility.yul\":769:895   */\n      swap2\n      swap1\n      pop\n      jump\t// out\n        /* \"#utility.yul\":901:997   */\n    tag_162:\n        /* \"#utility.yul\":938:945   */\n      0x00\n        /* \"#utility.yul\":967:991   */\n      tag_202\n        /* \"#utility.yul\":985:990   */\n      dup3\n        /* \"#utility.yul\":967:991   */\n      tag_161\n      jump\t// in\n    tag_202:\n        /* \"#utility.yul\":956:991   */\n      swap1\n      pop\n        /* \"#utility.yul\":901:997   */\n      swap2\n      swap1\n      pop\n      jump\t// out\n        /* \"#utility.yul\":1003:1125   */\n    tag_163:\n        /* \"#utility.yul\":1076:1100   */\n      tag_204\n        /* \"#utility.yul\":1094:1099   */\n      dup2\n        /* \"#utility.yul\":1076:1100   */\n      tag_162\n      jump\t// in\n    tag_204:\n        /* \"#utility.yul\":1069:1074   */\n      dup2\n        /* \"#utility.yul\":1066:1101   */\n      eq\n        /* \"#utility.yul\":1056:1119   */\n      tag_205\n      jumpi\n        /* \"#utility.yul\":1115:1116   */\n      0x00\n        /* \"#utility.yul\":1112:1113   */\n      dup1\n        /* \"#utility.yul\":1105:1117   */\n      revert\n        /* \"#utility.yul\":1056:1119   */\n    tag_205:\n        /* \"#utility.yul\":1003:1125   */\n      pop\n      jump\t// out\n        /* \"#utility.yul\":1131:1270   */\n    tag_164:\n        /* \"#utility.yul\":1177:1182   */\n      0x00\n        /* \"#utility.yul\":1215:1221   */\n      dup2\n        /* \"#utility.yul\":1202:1222   */\n      calldataload\n        /* \"#utility.yul\":1193:1222   */\n      swap1\n      pop\n        /* \"#utility.yul\":1231:1264   */\n      tag_207\n        /* \"#utility.yul\":1258:1263   */\n      dup2\n        /* \"#utility.yul\":1231:1264   */\n      tag_163\n      jump\t// in\n    tag_207:\n        /* \"#utility.yul\":1131:1270   */\n      swap3\n      swap2\n      pop\n      pop\n      jump\t// out\n        /* \"#utility.yul\":1276:1605   */\n    tag_22:\n        /* \"#utility.yul\":1335:1341   */\n      0x00\n        /* \"#utility.yul\":1384:1386   */\n      0x20\n        /* \"#utility.yul\":1372:1381   */\n      dup3\n        /* \"#utility.yul\":1363:1370   */\n      dup5\n        /* \"#utility.yul\":1359:1382   */\n      sub\n        /* \"#utility.yul\":1355:1387   */\n      slt\n        /* \"#utility.yul\":1352:1471   */\n      iszero\n      tag_209\n      jumpi\n        /* \"#utility.yul\":1390:1469   */\n      tag_210\n      tag_159\n      jump\t// in\n    tag_210:\n        /* \"#utility.yul\":1352:1471   */\n    tag_209:\n        /* \"#utility.yul\":1510:1511   */\n      0x00\n        /* \"#utility.yul\":1535:1588   */\n      tag_211\n        /* \"#utility.yul\":1580:1587   */\n      dup5\n        /* \"#utility.yul\":1571:1577   */\n      dup3\n        /* \"#utility.yul\":1560:1569   */\n      dup6\n        /* \"#utility.yul\":1556:1578   */\n      add\n        /* \"#utility.yul\":1535:1588   */\n      tag_164\n      jump\t// in\n    tag_211:\n        /* \"#utility.yul\":1525:1588   */\n      swap2\n      pop\n        /* \"#utility.yul\":1481:1598   */\n      pop\n        /* \"#utility.yul\":1276:1605   */\n      swap3\n      swap2\n      pop\n      pop\n      jump\t// out\n        /* \"#utility.yul\":1611:1733   */\n    tag_165:\n        /* \"#utility.yul\":1684:1708   */\n      tag_213\n        /* \"#utility.yul\":1702:1707   */\n      dup2\n        /* \"#utility.yul\":1684:1708   */\n      tag_156\n      jump\t// in\n    tag_213:\n        /* \"#utility.yul\":1677:1682   */\n      dup2\n        /* \"#utility.yul\":1674:1709   */\n      eq\n        /* \"#utility.yul\":1664:1727   */\n      tag_214\n      jumpi\n        /* \"#utility.yul\":1723:1724   */\n      0x00\n        /* \"#utility.yul\":1720:1721   */\n      dup1\n        /* \"#utility.yul\":1713:1725   */\n      revert\n        /* \"#utility.yul\":1664:1727   */\n    tag_214:\n        /* \"#utility.yul\":1611:1733   */\n      pop\n      jump\t// out\n        /* \"#utility.yul\":1739:1878   */\n    tag_166:\n        /* \"#utility.yul\":1785:1790   */\n      0x00\n        /* \"#utility.yul\":1823:1829   */\n      dup2\n        /* \"#utility.yul\":1810:1830   */\n      calldataload\n        /* \"#utility.yul\":1801:1830   */\n      swap1\n      pop\n        /* \"#utility.yul\":1839:1872   */\n      tag_216\n        /* \"#utility.yul\":1866:1871   */\n      dup2\n        /* \"#utility.yul\":1839:1872   */\n      tag_165\n      jump\t// in\n    tag_216:\n        /* \"#utility.yul\":1739:1878   */\n      swap3\n      swap2\n      pop\n      pop\n      jump\t// out\n        /* \"#utility.yul\":1884:2213   */\n    tag_27:\n        /* \"#utility.yul\":1943:1949   */\n      0x00\n        /* \"#utility.yul\":1992:1994   */\n      0x20\n        /* \"#utility.yul\":1980:1989   */\n      dup3\n        /* \"#utility.yul\":1971:1978   */\n      dup5\n        /* \"#utility.yul\":1967:1990   */\n      sub\n        /* \"#utility.yul\":1963:1995   */\n      slt\n        /* \"#utility.yul\":1960:2079   */\n      iszero\n      tag_218\n      jumpi\n        /* \"#utility.yul\":1998:2077   */\n      tag_219\n      tag_159\n      jump\t// in\n    tag_219:\n        /* \"#utility.yul\":1960:2079   */\n    tag_218:\n        /* \"#utility.yul\":2118:2119   */\n      0x00\n        /* \"#utility.yul\":2143:2196   */\n      tag_220\n        /* \"#utility.yul\":2188:2195   */\n      dup5\n        /* \"#utility.yul\":2179:2185   */\n      dup3\n        /* \"#utility.yul\":2168:2177   */\n      dup6\n        /* \"#utility.yul\":2164:2186   */\n      add\n        /* \"#utility.yul\":2143:2196   */\n      tag_166\n      jump\t// in\n    tag_220:\n        /* \"#utility.yul\":2133:2196   */\n      swap2\n      pop\n        /* \"#utility.yul\":2089:2206   */\n      pop\n        /* \"#utility.yul\":1884:2213   */\n      swap3\n      swap2\n      pop\n      pop\n      jump\t// out\n        /* \"#utility.yul\":2219:2551   */\n    tag_30:\n        /* \"#utility.yul\":2340:2344   */\n      0x00\n        /* \"#utility.yul\":2378:2380   */\n      0x40\n        /* \"#utility.yul\":2367:2376   */\n      dup3\n        /* \"#utility.yul\":2363:2381   */\n      add\n        /* \"#utility.yul\":2355:2381   */\n      swap1\n      pop\n        /* \"#utility.yul\":2391:2462   */\n      tag_222\n        /* \"#utility.yul\":2459:2460   */\n      0x00\n        /* \"#utility.yul\":2448:2457   */\n      dup4\n        /* \"#utility.yul\":2444:2461   */\n      add\n        /* \"#utility.yul\":2435:2441   */\n      dup6\n        /* \"#utility.yul\":2391:2462   */\n      tag_157\n      jump\t// in\n    tag_222:\n        /* \"#utility.yul\":2472:2544   */\n      tag_223\n        /* \"#utility.yul\":2540:2542   */\n      0x20\n        /* \"#utility.yul\":2529:2538   */\n      dup4\n        /* \"#utility.yul\":2525:2543   */\n      add\n        /* \"#utility.yul\":2516:2522   */\n      dup5\n        /* \"#utility.yul\":2472:2544   */\n      tag_157\n      jump\t// in\n    tag_223:\n        /* \"#utility.yul\":2219:2551   */\n      swap4\n      swap3\n      pop\n      pop\n      pop\n      jump\t// out\n        /* \"#utility.yul\":2557:3031   */\n    tag_33:\n        /* \"#utility.yul\":2625:2631   */\n      0x00\n        /* \"#utility.yul\":2633:2639   */\n      dup1\n        /* \"#utility.yul\":2682:2684   */\n      0x40\n        /* \"#utility.yul\":2670:2679   */\n      dup4\n        /* \"#utility.yul\":2661:2668   */\n      dup6\n        /* \"#utility.yul\":2657:2680   */\n      sub\n        /* \"#utility.yul\":2653:2685   */\n      slt\n        /* \"#utility.yul\":2650:2769   */\n      iszero\n      tag_225\n      jumpi\n        /* \"#utility.yul\":2688:2767   */\n      tag_226\n      tag_159\n      jump\t// in\n    tag_226:\n        /* \"#utility.yul\":2650:2769   */\n    tag_225:\n        /* \"#utility.yul\":2808:2809   */\n      0x00\n        /* \"#utility.yul\":2833:2886   */\n      tag_227\n        /* \"#utility.yul\":2878:2885   */\n      dup6\n        /* \"#utility.yul\":2869:2875   */\n      dup3\n        /* \"#utility.yul\":2858:2867   */\n      dup7\n        /* \"#utility.yul\":2854:2876   */\n      add\n        /* \"#utility.yul\":2833:2886   */\n      tag_166\n      jump\t// in\n    tag_227:\n        /* \"#utility.yul\":2823:2886   */\n      swap3\n      pop\n        /* \"#utility.yul\":2779:2896   */\n      pop\n        /* \"#utility.yul\":2935:2937   */\n      0x20\n        /* \"#utility.yul\":2961:3014   */\n      tag_228\n        /* \"#utility.yul\":3006:3013   */\n      dup6\n        /* \"#utility.yul\":2997:3003   */\n      dup3\n        /* \"#utility.yul\":2986:2995   */\n      dup7\n        /* \"#utility.yul\":2982:3004   */\n      add\n        /* \"#utility.yul\":2961:3014   */\n      tag_166\n      jump\t// in\n    tag_228:\n        /* \"#utility.yul\":2951:3014   */\n      swap2\n      pop\n        /* \"#utility.yul\":2906:3024   */\n      pop\n        /* \"#utility.yul\":2557:3031   */\n      swap3\n      pop\n      swap3\n      swap1\n      pop\n      jump\t// out\n        /* \"#utility.yul\":3037:3511   */\n    tag_42:\n        /* \"#utility.yul\":3105:3111   */\n      0x00\n        /* \"#utility.yul\":3113:3119   */\n      dup1\n        /* \"#utility.yul\":3162:3164   */\n      0x40\n        /* \"#utility.yul\":3150:3159   */\n      dup4\n        /* \"#utility.yul\":3141:3148   */\n      dup6\n        /* \"#utility.yul\":3137:3160   */\n      sub\n        /* \"#utility.yul\":3133:3165   */\n      slt\n        /* \"#utility.yul\":3130:3249   */\n      iszero\n      tag_230\n      jumpi\n        /* \"#utility.yul\":3168:3247   */\n      tag_231\n      tag_159\n      jump\t// in\n    tag_231:\n        /* \"#utility.yul\":3130:3249   */\n    tag_230:\n        /* \"#utility.yul\":3288:3289   */\n      0x00\n        /* \"#utility.yul\":3313:3366   */\n      tag_232\n        /* \"#utility.yul\":3358:3365   */\n      dup6\n        /* \"#utility.yul\":3349:3355   */\n      dup3\n        /* \"#utility.yul\":3338:3347   */\n      dup7\n        /* \"#utility.yul\":3334:3356   */\n      add\n        /* \"#utility.yul\":3313:3366   */\n      tag_164\n      jump\t// in\n    tag_232:\n        /* \"#utility.yul\":3303:3366   */\n      swap3\n      pop\n        /* \"#utility.yul\":3259:3376   */\n      pop\n        /* \"#utility.yul\":3415:3417   */\n      0x20\n        /* \"#utility.yul\":3441:3494   */\n      tag_233\n        /* \"#utility.yul\":3486:3493   */\n      dup6\n        /* \"#utility.yul\":3477:3483   */\n      dup3\n        /* \"#utility.yul\":3466:3475   */\n      dup7\n        /* \"#utility.yul\":3462:3484   */\n      add\n        /* \"#utility.yul\":3441:3494   */\n      tag_166\n      jump\t// in\n    tag_233:\n        /* \"#utility.yul\":3431:3494   */\n      swap2\n      pop\n        /* \"#utility.yul\":3386:3504   */\n      pop\n        /* \"#utility.yul\":3037:3511   */\n      swap3\n      pop\n      swap3\n      swap1\n      pop\n      jump\t// out\n        /* \"#utility.yul\":3517:3686   */\n    tag_167:\n        /* \"#utility.yul\":3601:3612   */\n      0x00\n        /* \"#utility.yul\":3635:3641   */\n      dup3\n        /* \"#utility.yul\":3630:3633   */\n      dup3\n        /* \"#utility.yul\":3623:3642   */\n      mstore\n        /* \"#utility.yul\":3675:3679   */\n      0x20\n        /* \"#utility.yul\":3670:3673   */\n      dup3\n        /* \"#utility.yul\":3666:3680   */\n      add\n        /* \"#utility.yul\":3651:3680   */\n      swap1\n      pop\n        /* \"#utility.yul\":3517:3686   */\n      swap3\n      swap2\n      pop\n      pop\n      jump\t// out\n        /* \"#utility.yul\":3692:3859   */\n    tag_168:\n        /* \"#utility.yul\":3832:3851   */\n      0x2073686172652073686f756c64203e2030000000000000000000000000000000\n        /* \"#utility.yul\":3828:3829   */\n      0x00\n        /* \"#utility.yul\":3820:3826   */\n      dup3\n        /* \"#utility.yul\":3816:3830   */\n      add\n        /* \"#utility.yul\":3809:3852   */\n      mstore\n        /* \"#utility.yul\":3692:3859   */\n      pop\n      jump\t// out\n        /* \"#utility.yul\":3865:4231   */\n    tag_169:\n        /* \"#utility.yul\":4007:4010   */\n      0x00\n        /* \"#utility.yul\":4028:4095   */\n      tag_237\n        /* \"#utility.yul\":4092:4094   */\n      0x11\n        /* \"#utility.yul\":4087:4090   */\n      dup4\n        /* \"#utility.yul\":4028:4095   */\n      tag_167\n      jump\t// in\n    tag_237:\n        /* \"#utility.yul\":4021:4095   */\n      swap2\n      pop\n        /* \"#utility.yul\":4104:4197   */\n      tag_238\n        /* \"#utility.yul\":4193:4196   */\n      dup3\n        /* \"#utility.yul\":4104:4197   */\n      tag_168\n      jump\t// in\n    tag_238:\n        /* \"#utility.yul\":4222:4224   */\n      0x20\n        /* \"#utility.yul\":4217:4220   */\n      dup3\n        /* \"#utility.yul\":4213:4225   */\n      add\n        /* \"#utility.yul\":4206:4225   */\n      swap1\n      pop\n        /* \"#utility.yul\":3865:4231   */\n      swap2\n      swap1\n      pop\n      jump\t// out\n        /* \"#utility.yul\":4237:4656   */\n    tag_48:\n        /* \"#utility.yul\":4403:4407   */\n      0x00\n        /* \"#utility.yul\":4441:4443   */\n      0x20\n        /* \"#utility.yul\":4430:4439   */\n      dup3\n        /* \"#utility.yul\":4426:4444   */\n      add\n        /* \"#utility.yul\":4418:4444   */\n      swap1\n      pop\n        /* \"#utility.yul\":4490:4499   */\n      dup2\n        /* \"#utility.yul\":4484:4488   */\n      dup2\n        /* \"#utility.yul\":4480:4500   */\n      sub\n        /* \"#utility.yul\":4476:4477   */\n      0x00\n        /* \"#utility.yul\":4465:4474   */\n      dup4\n        /* \"#utility.yul\":4461:4478   */\n      add\n        /* \"#utility.yul\":4454:4501   */\n      mstore\n        /* \"#utility.yul\":4518:4649   */\n      tag_240\n        /* \"#utility.yul\":4644:4648   */\n      dup2\n        /* \"#utility.yul\":4518:4649   */\n      tag_169\n      jump\t// in\n    tag_240:\n        /* \"#utility.yul\":4510:4649   */\n      swap1\n      pop\n        /* \"#utility.yul\":4237:4656   */\n      swap2\n      swap1\n      pop\n      jump\t// out\n        /* \"#utility.yul\":4662:4839   */\n    tag_170:\n        /* \"#utility.yul\":4802:4831   */\n      0x6e6f7420656e6f7567682073686172657320746f2072656d6f76650000000000\n        /* \"#utility.yul\":4798:4799   */\n      0x00\n        /* \"#utility.yul\":4790:4796   */\n      dup3\n        /* \"#utility.yul\":4786:4800   */\n      add\n        /* \"#utility.yul\":4779:4832   */\n      mstore\n        /* \"#utility.yul\":4662:4839   */\n      pop\n      jump\t// out\n        /* \"#utility.yul\":4845:5211   */\n    tag_171:\n        /* \"#utility.yul\":4987:4990   */\n      0x00\n        /* \"#utility.yul\":5008:5075   */\n      tag_243\n        /* \"#utility.yul\":5072:5074   */\n      0x1b\n        /* \"#utility.yul\":5067:5070   */\n      dup4\n        /* \"#utility.yul\":5008:5075   */\n      tag_167\n      jump\t// in\n    tag_243:\n        /* \"#utility.yul\":5001:5075   */\n      swap2\n      pop\n        /* \"#utility.yul\":5084:5177   */\n      tag_244\n        /* \"#utility.yul\":5173:5176   */\n      dup3\n        /* \"#utility.yul\":5084:5177   */\n      tag_170\n      jump\t// in\n    tag_244:\n        /* \"#utility.yul\":5202:5204   */\n      0x20\n        /* \"#utility.yul\":5197:5200   */\n      dup3\n        /* \"#utility.yul\":5193:5205   */\n      add\n        /* \"#utility.yul\":5186:5205   */\n      swap1\n      pop\n        /* \"#utility.yul\":4845:5211   */\n      swap2\n      swap1\n      pop\n      jump\t// out\n        /* \"#utility.yul\":5217:5636   */\n    tag_51:\n        /* \"#utility.yul\":5383:5387   */\n      0x00\n        /* \"#utility.yul\":5421:5423   */\n      0x20\n        /* \"#utility.yul\":5410:5419   */\n      dup3\n        /* \"#utility.yul\":5406:5424   */\n      add\n        /* \"#utility.yul\":5398:5424   */\n      swap1\n      pop\n        /* \"#utility.yul\":5470:5479   */\n      dup2\n        /* \"#utility.yul\":5464:5468   */\n      dup2\n        /* \"#utility.yul\":5460:5480   */\n      sub\n        /* \"#utility.yul\":5456:5457   */\n      0x00\n        /* \"#utility.yul\":5445:5454   */\n      dup4\n        /* \"#utility.yul\":5441:5458   */\n      add\n        /* \"#utility.yul\":5434:5481   */\n      mstore\n        /* \"#utility.yul\":5498:5629   */\n      tag_246\n        /* \"#utility.yul\":5624:5628   */\n      dup2\n        /* \"#utility.yul\":5498:5629   */\n      tag_171\n      jump\t// in\n    tag_246:\n        /* \"#utility.yul\":5490:5629   */\n      swap1\n      pop\n        /* \"#utility.yul\":5217:5636   */\n      swap2\n      swap1\n      pop\n      jump\t// out\n        /* \"#utility.yul\":5642:5822   */\n    tag_172:\n        /* \"#utility.yul\":5690:5767   */\n      0x4e487b7100000000000000000000000000000000000000000000000000000000\n        /* \"#utility.yul\":5687:5688   */\n      0x00\n        /* \"#utility.yul\":5680:5768   */\n      mstore\n        /* \"#utility.yul\":5787:5791   */\n      0x11\n        /* \"#utility.yul\":5784:5785   */\n      0x04\n        /* \"#utility.yul\":5777:5792   */\n      mstore\n        /* \"#utility.yul\":5811:5815   */\n      0x24\n        /* \"#utility.yul\":5808:5809   */\n      0x00\n        /* \"#utility.yul\":5801:5816   */\n      revert\n        /* \"#utility.yul\":5828:6238   */\n    tag_53:\n        /* \"#utility.yul\":5868:5875   */\n      0x00\n        /* \"#utility.yul\":5891:5911   */\n      tag_249\n        /* \"#utility.yul\":5909:5910   */\n      dup3\n        /* \"#utility.yul\":5891:5911   */\n      tag_156\n      jump\t// in\n    tag_249:\n        /* \"#utility.yul\":5886:5911   */\n      swap2\n      pop\n        /* \"#utility.yul\":5925:5945   */\n      tag_250\n        /* \"#utility.yul\":5943:5944   */\n      dup4\n        /* \"#utility.yul\":5925:5945   */\n      tag_156\n      jump\t// in\n    tag_250:\n        /* \"#utility.yul\":5920:5945   */\n      swap3\n      pop\n        /* \"#utility.yul\":5980:5981   */\n      dup3\n        /* \"#utility.yul\":5977:5978   */\n      dup3\n        /* \"#utility.yul\":5973:5982   */\n      mul\n        /* \"#utility.yul\":6002:6032   */\n      tag_251\n        /* \"#utility.yul\":6020:6031   */\n      dup2\n        /* \"#utility.yul\":6002:6032   */\n      tag_156\n      jump\t// in\n    tag_251:\n        /* \"#utility.yul\":5991:6032   */\n      swap2\n      pop\n        /* \"#utility.yul\":6181:6182   */\n      dup3\n        /* \"#utility.yul\":6172:6179   */\n      dup3\n        /* \"#utility.yul\":6168:6183   */\n      div\n        /* \"#utility.yul\":6165:6166   */\n      dup5\n        /* \"#utility.yul\":6162:6184   */\n      eq\n        /* \"#utility.yul\":6142:6143   */\n      dup4\n        /* \"#utility.yul\":6135:6144   */\n      iszero\n        /* \"#utility.yul\":6115:6198   */\n      or\n        /* \"#utility.yul\":6092:6231   */\n      tag_252\n      jumpi\n        /* \"#utility.yul\":6211:6229   */\n      tag_253\n      tag_172\n      jump\t// in\n    tag_253:\n        /* \"#utility.yul\":6092:6231   */\n    tag_252:\n        /* \"#utility.yul\":5876:6238   */\n      pop\n        /* \"#utility.yul\":5828:6238   */\n      swap3\n      swap2\n      pop\n      pop\n      jump\t// out\n        /* \"#utility.yul\":6244:6424   */\n    tag_173:\n        /* \"#utility.yul\":6292:6369   */\n      0x4e487b7100000000000000000000000000000000000000000000000000000000\n        /* \"#utility.yul\":6289:6290   */\n      0x00\n        /* \"#utility.yul\":6282:6370   */\n      mstore\n        /* \"#utility.yul\":6389:6393   */\n      0x12\n        /* \"#utility.yul\":6386:6387   */\n      0x04\n        /* \"#utility.yul\":6379:6394   */\n      mstore\n        /* \"#utility.yul\":6413:6417   */\n      0x24\n        /* \"#utility.yul\":6410:6411   */\n      0x00\n        /* \"#utility.yul\":6403:6418   */\n      revert\n        /* \"#utility.yul\":6430:6615   */\n    tag_55:\n        /* \"#utility.yul\":6470:6471   */\n      0x00\n        /* \"#utility.yul\":6487:6507   */\n      tag_256\n        /* \"#utility.yul\":6505:6506   */\n      dup3\n        /* \"#utility.yul\":6487:6507   */\n      tag_156\n      jump\t// in\n    tag_256:\n        /* \"#utility.yul\":6482:6507   */\n      swap2\n      pop\n        /* \"#utility.yul\":6521:6541   */\n      tag_257\n        /* \"#utility.yul\":6539:6540   */\n      dup4\n        /* \"#utility.yul\":6521:6541   */\n      tag_156\n      jump\t// in\n    tag_257:\n        /* \"#utility.yul\":6516:6541   */\n      swap3\n      pop\n        /* \"#utility.yul\":6560:6561   */\n      dup3\n        /* \"#utility.yul\":6550:6585   */\n      tag_258\n      jumpi\n        /* \"#utility.yul\":6565:6583   */\n      tag_259\n      tag_173\n      jump\t// in\n    tag_259:\n        /* \"#utility.yul\":6550:6585   */\n    tag_258:\n        /* \"#utility.yul\":6607:6608   */\n      dup3\n        /* \"#utility.yul\":6604:6605   */\n      dup3\n        /* \"#utility.yul\":6600:6609   */\n      div\n        /* \"#utility.yul\":6595:6609   */\n      swap1\n      pop\n        /* \"#utility.yul\":6430:6615   */\n      swap3\n      swap2\n      pop\n      pop\n      jump\t// out\n        /* \"#utility.yul\":6621:6681   */\n    tag_174:\n        /* \"#utility.yul\":6649:6652   */\n      0x00\n        /* \"#utility.yul\":6670:6675   */\n      dup2\n        /* \"#utility.yul\":6663:6675   */\n      swap1\n      pop\n        /* \"#utility.yul\":6621:6681   */\n      swap2\n      swap1\n      pop\n      jump\t// out\n        /* \"#utility.yul\":6687:6829   */\n    tag_175:\n        /* \"#utility.yul\":6737:6746   */\n      0x00\n        /* \"#utility.yul\":6770:6823   */\n      tag_262\n        /* \"#utility.yul\":6788:6822   */\n      tag_263\n        /* \"#utility.yul\":6797:6821   */\n      tag_264\n        /* \"#utility.yul\":6815:6820   */\n      dup5\n        /* \"#utility.yul\":6797:6821   */\n      tag_161\n      jump\t// in\n    tag_264:\n        /* \"#utility.yul\":6788:6822   */\n      tag_174\n      jump\t// in\n    tag_263:\n        /* \"#utility.yul\":6770:6823   */\n      tag_161\n      jump\t// in\n    tag_262:\n        /* \"#utility.yul\":6757:6823   */\n      swap1\n      pop\n        /* \"#utility.yul\":6687:6829   */\n      swap2\n      swap1\n      pop\n      jump\t// out\n        /* \"#utility.yul\":6835:6961   */\n    tag_176:\n        /* \"#utility.yul\":6885:6894   */\n      0x00\n        /* \"#utility.yul\":6918:6955   */\n      tag_266\n        /* \"#utility.yul\":6949:6954   */\n      dup3\n        /* \"#utility.yul\":6918:6955   */\n      tag_175\n      jump\t// in\n    tag_266:\n        /* \"#utility.yul\":6905:6955   */\n      swap1\n      pop\n        /* \"#utility.yul\":6835:6961   */\n      swap2\n      swap1\n      pop\n      jump\t// out\n        /* \"#utility.yul\":6967:7101   */\n    tag_177:\n        /* \"#utility.yul\":7025:7034   */\n      0x00\n        /* \"#utility.yul\":7058:7095   */\n      tag_268\n        /* \"#utility.yul\":7089:7094   */\n      dup3\n        /* \"#utility.yul\":7058:7095   */\n      tag_176\n      jump\t// in\n    tag_268:\n        /* \"#utility.yul\":7045:7095   */\n      swap1\n      pop\n        /* \"#utility.yul\":6967:7101   */\n      swap2\n      swap1\n      pop\n      jump\t// out\n        /* \"#utility.yul\":7107:7254   */\n    tag_178:\n        /* \"#utility.yul\":7202:7247   */\n      tag_270\n        /* \"#utility.yul\":7241:7246   */\n      dup2\n        /* \"#utility.yul\":7202:7247   */\n      tag_177\n      jump\t// in\n    tag_270:\n        /* \"#utility.yul\":7197:7200   */\n      dup3\n        /* \"#utility.yul\":7190:7248   */\n      mstore\n        /* \"#utility.yul\":7107:7254   */\n      pop\n      pop\n      jump\t// out\n        /* \"#utility.yul\":7260:7608   */\n    tag_60:\n        /* \"#utility.yul\":7389:7393   */\n      0x00\n        /* \"#utility.yul\":7427:7429   */\n      0x40\n        /* \"#utility.yul\":7416:7425   */\n      dup3\n        /* \"#utility.yul\":7412:7430   */\n      add\n        /* \"#utility.yul\":7404:7430   */\n      swap1\n      pop\n        /* \"#utility.yul\":7440:7519   */\n      tag_272\n        /* \"#utility.yul\":7516:7517   */\n      0x00\n        /* \"#utility.yul\":7505:7514   */\n      dup4\n        /* \"#utility.yul\":7501:7518   */\n      add\n        /* \"#utility.yul\":7492:7498   */\n      dup6\n        /* \"#utility.yul\":7440:7519   */\n      tag_178\n      jump\t// in\n    tag_272:\n        /* \"#utility.yul\":7529:7601   */\n      tag_273\n        /* \"#utility.yul\":7597:7599   */\n      0x20\n        /* \"#utility.yul\":7586:7595   */\n      dup4\n        /* \"#utility.yul\":7582:7600   */\n      add\n        /* \"#utility.yul\":7573:7579   */\n      dup5\n        /* \"#utility.yul\":7529:7601   */\n      tag_157\n      jump\t// in\n    tag_273:\n        /* \"#utility.yul\":7260:7608   */\n      swap4\n      swap3\n      pop\n      pop\n      pop\n      jump\t// out\n        /* \"#utility.yul\":7614:7704   */\n    tag_179:\n        /* \"#utility.yul\":7648:7655   */\n      0x00\n        /* \"#utility.yul\":7691:7696   */\n      dup2\n        /* \"#utility.yul\":7684:7697   */\n      iszero\n        /* \"#utility.yul\":7677:7698   */\n      iszero\n        /* \"#utility.yul\":7666:7698   */\n      swap1\n      pop\n        /* \"#utility.yul\":7614:7704   */\n      swap2\n      swap1\n      pop\n      jump\t// out\n        /* \"#utility.yul\":7710:7826   */\n    tag_180:\n        /* \"#utility.yul\":7780:7801   */\n      tag_276\n        /* \"#utility.yul\":7795:7800   */\n      dup2\n        /* \"#utility.yul\":7780:7801   */\n      tag_179\n      jump\t// in\n    tag_276:\n        /* \"#utility.yul\":7773:7778   */\n      dup2\n        /* \"#utility.yul\":7770:7802   */\n      eq\n        /* \"#utility.yul\":7760:7820   */\n      tag_277\n      jumpi\n        /* \"#utility.yul\":7816:7817   */\n      0x00\n        /* \"#utility.yul\":7813:7814   */\n      dup1\n        /* \"#utility.yul\":7806:7818   */\n      revert\n        /* \"#utility.yul\":7760:7820   */\n    tag_277:\n        /* \"#utility.yul\":7710:7826   */\n      pop\n      jump\t// out\n        /* \"#utility.yul\":7832:7969   */\n    tag_181:\n        /* \"#utility.yul\":7886:7891   */\n      0x00\n        /* \"#utility.yul\":7917:7923   */\n      dup2\n        /* \"#utility.yul\":7911:7924   */\n      mload\n        /* \"#utility.yul\":7902:7924   */\n      swap1\n      pop\n        /* \"#utility.yul\":7933:7963   */\n      tag_279\n        /* \"#utility.yul\":7957:7962   */\n      dup2\n        /* \"#utility.yul\":7933:7963   */\n      tag_180\n      jump\t// in\n    tag_279:\n        /* \"#utility.yul\":7832:7969   */\n      swap3\n      swap2\n      pop\n      pop\n      jump\t// out\n        /* \"#utility.yul\":7975:8320   */\n    tag_64:\n        /* \"#utility.yul\":8042:8048   */\n      0x00\n        /* \"#utility.yul\":8091:8093   */\n      0x20\n        /* \"#utility.yul\":8079:8088   */\n      dup3\n        /* \"#utility.yul\":8070:8077   */\n      dup5\n        /* \"#utility.yul\":8066:8089   */\n      sub\n        /* \"#utility.yul\":8062:8094   */\n      slt\n        /* \"#utility.yul\":8059:8178   */\n      iszero\n      tag_281\n      jumpi\n        /* \"#utility.yul\":8097:8176   */\n      tag_282\n      tag_159\n      jump\t// in\n    tag_282:\n        /* \"#utility.yul\":8059:8178   */\n    tag_281:\n        /* \"#utility.yul\":8217:8218   */\n      0x00\n        /* \"#utility.yul\":8242:8303   */\n      tag_283\n        /* \"#utility.yul\":8295:8302   */\n      dup5\n        /* \"#utility.yul\":8286:8292   */\n      dup3\n        /* \"#utility.yul\":8275:8284   */\n      dup6\n        /* \"#utility.yul\":8271:8293   */\n      add\n        /* \"#utility.yul\":8242:8303   */\n      tag_181\n      jump\t// in\n    tag_283:\n        /* \"#utility.yul\":8232:8303   */\n      swap2\n      pop\n        /* \"#utility.yul\":8188:8313   */\n      pop\n        /* \"#utility.yul\":7975:8320   */\n      swap3\n      swap2\n      pop\n      pop\n      jump\t// out\n        /* \"#utility.yul\":8326:8520   */\n    tag_72:\n        /* \"#utility.yul\":8366:8370   */\n      0x00\n        /* \"#utility.yul\":8386:8406   */\n      tag_285\n        /* \"#utility.yul\":8404:8405   */\n      dup3\n        /* \"#utility.yul\":8386:8406   */\n      tag_156\n      jump\t// in\n    tag_285:\n        /* \"#utility.yul\":8381:8406   */\n      swap2\n      pop\n        /* \"#utility.yul\":8420:8440   */\n      tag_286\n        /* \"#utility.yul\":8438:8439   */\n      dup4\n        /* \"#utility.yul\":8420:8440   */\n      tag_156\n      jump\t// in\n    tag_286:\n        /* \"#utility.yul\":8415:8440   */\n      swap3\n      pop\n        /* \"#utility.yul\":8464:8465   */\n      dup3\n        /* \"#utility.yul\":8461:8462   */\n      dup3\n        /* \"#utility.yul\":8457:8466   */\n      sub\n        /* \"#utility.yul\":8449:8466   */\n      swap1\n      pop\n        /* \"#utility.yul\":8488:8489   */\n      dup2\n        /* \"#utility.yul\":8482:8486   */\n      dup2\n        /* \"#utility.yul\":8479:8490   */\n      gt\n        /* \"#utility.yul\":8476:8513   */\n      iszero\n      tag_287\n      jumpi\n        /* \"#utility.yul\":8493:8511   */\n      tag_288\n      tag_172\n      jump\t// in\n    tag_288:\n        /* \"#utility.yul\":8476:8513   */\n    tag_287:\n        /* \"#utility.yul\":8326:8520   */\n      swap3\n      swap2\n      pop\n      pop\n      jump\t// out\n        /* \"#utility.yul\":8526:8644   */\n    tag_182:\n        /* \"#utility.yul\":8613:8637   */\n      tag_290\n        /* \"#utility.yul\":8631:8636   */\n      dup2\n        /* \"#utility.yul\":8613:8637   */\n      tag_162\n      jump\t// in\n    tag_290:\n        /* \"#utility.yul\":8608:8611   */\n      dup3\n        /* \"#utility.yul\":8601:8638   */\n      mstore\n        /* \"#utility.yul\":8526:8644   */\n      pop\n      pop\n      jump\t// out\n        /* \"#utility.yul\":8650:9108   */\n    tag_79:\n        /* \"#utility.yul\":8807:8811   */\n      0x00\n        /* \"#utility.yul\":8845:8847   */\n      0x60\n        /* \"#utility.yul\":8834:8843   */\n      dup3\n        /* \"#utility.yul\":8830:8848   */\n      add\n        /* \"#utility.yul\":8822:8848   */\n      swap1\n      pop\n        /* \"#utility.yul\":8858:8937   */\n      tag_292\n        /* \"#utility.yul\":8934:8935   */\n      0x00\n        /* \"#utility.yul\":8923:8932   */\n      dup4\n        /* \"#utility.yul\":8919:8936   */\n      add\n        /* \"#utility.yul\":8910:8916   */\n      dup7\n        /* \"#utility.yul\":8858:8937   */\n      tag_178\n      jump\t// in\n    tag_292:\n        /* \"#utility.yul\":8947:9019   */\n      tag_293\n        /* \"#utility.yul\":9015:9017   */\n      0x20\n        /* \"#utility.yul\":9004:9013   */\n      dup4\n        /* \"#utility.yul\":9000:9018   */\n      add\n        /* \"#utility.yul\":8991:8997   */\n      dup6\n        /* \"#utility.yul\":8947:9019   */\n      tag_182\n      jump\t// in\n    tag_293:\n        /* \"#utility.yul\":9029:9101   */\n      tag_294\n        /* \"#utility.yul\":9097:9099   */\n      0x40\n        /* \"#utility.yul\":9086:9095   */\n      dup4\n        /* \"#utility.yul\":9082:9100   */\n      add\n        /* \"#utility.yul\":9073:9079   */\n      dup5\n        /* \"#utility.yul\":9029:9101   */\n      tag_157\n      jump\t// in\n    tag_294:\n        /* \"#utility.yul\":8650:9108   */\n      swap5\n      swap4\n      pop\n      pop\n      pop\n      pop\n      jump\t// out\n        /* \"#utility.yul\":9114:9336   */\n    tag_88:\n        /* \"#utility.yul\":9207:9211   */\n      0x00\n        /* \"#utility.yul\":9245:9247   */\n      0x20\n        /* \"#utility.yul\":9234:9243   */\n      dup3\n        /* \"#utility.yul\":9230:9248   */\n      add\n        /* \"#utility.yul\":9222:9248   */\n      swap1\n      pop\n        /* \"#utility.yul\":9258:9329   */\n      tag_296\n        /* \"#utility.yul\":9326:9327   */\n      0x00\n        /* \"#utility.yul\":9315:9324   */\n      dup4\n        /* \"#utility.yul\":9311:9328   */\n      add\n        /* \"#utility.yul\":9302:9308   */\n      dup5\n        /* \"#utility.yul\":9258:9329   */\n      tag_182\n      jump\t// in\n    tag_296:\n        /* \"#utility.yul\":9114:9336   */\n      swap3\n      swap2\n      pop\n      pop\n      jump\t// out\n        /* \"#utility.yul\":9342:9485   */\n    tag_183:\n        /* \"#utility.yul\":9399:9404   */\n      0x00\n        /* \"#utility.yul\":9430:9436   */\n      dup2\n        /* \"#utility.yul\":9424:9437   */\n      mload\n        /* \"#utility.yul\":9415:9437   */\n      swap1\n      pop\n        /* \"#utility.yul\":9446:9479   */\n      tag_298\n        /* \"#utility.yul\":9473:9478   */\n      dup2\n        /* \"#utility.yul\":9446:9479   */\n      tag_165\n      jump\t// in\n    tag_298:\n        /* \"#utility.yul\":9342:9485   */\n      swap3\n      swap2\n      pop\n      pop\n      jump\t// out\n        /* \"#utility.yul\":9491:9842   */\n    tag_92:\n        /* \"#utility.yul\":9561:9567   */\n      0x00\n        /* \"#utility.yul\":9610:9612   */\n      0x20\n        /* \"#utility.yul\":9598:9607   */\n      dup3\n        /* \"#utility.yul\":9589:9596   */\n      dup5\n        /* \"#utility.yul\":9585:9608   */\n      sub\n        /* \"#utility.yul\":9581:9613   */\n      slt\n        /* \"#utility.yul\":9578:9697   */\n      iszero\n      tag_300\n      jumpi\n        /* \"#utility.yul\":9616:9695   */\n      tag_301\n      tag_159\n      jump\t// in\n    tag_301:\n        /* \"#utility.yul\":9578:9697   */\n    tag_300:\n        /* \"#utility.yul\":9736:9737   */\n      0x00\n        /* \"#utility.yul\":9761:9825   */\n      tag_302\n        /* \"#utility.yul\":9817:9824   */\n      dup5\n        /* \"#utility.yul\":9808:9814   */\n      dup3\n        /* \"#utility.yul\":9797:9806   */\n      dup6\n        /* \"#utility.yul\":9793:9815   */\n      add\n        /* \"#utility.yul\":9761:9825   */\n      tag_183\n      jump\t// in\n    tag_302:\n        /* \"#utility.yul\":9751:9825   */\n      swap2\n      pop\n        /* \"#utility.yul\":9707:9835   */\n      pop\n        /* \"#utility.yul\":9491:9842   */\n      swap3\n      swap2\n      pop\n      pop\n      jump\t// out\n        /* \"#utility.yul\":9848:10039   */\n    tag_101:\n        /* \"#utility.yul\":9888:9891   */\n      0x00\n        /* \"#utility.yul\":9907:9927   */\n      tag_304\n        /* \"#utility.yul\":9925:9926   */\n      dup3\n        /* \"#utility.yul\":9907:9927   */\n      tag_156\n      jump\t// in\n    tag_304:\n        /* \"#utility.yul\":9902:9927   */\n      swap2\n      pop\n        /* \"#utility.yul\":9941:9961   */\n      tag_305\n        /* \"#utility.yul\":9959:9960   */\n      dup4\n        /* \"#utility.yul\":9941:9961   */\n      tag_156\n      jump\t// in\n    tag_305:\n        /* \"#utility.yul\":9936:9961   */\n      swap3\n      pop\n        /* \"#utility.yul\":9984:9985   */\n      dup3\n        /* \"#utility.yul\":9981:9982   */\n      dup3\n        /* \"#utility.yul\":9977:9986   */\n      add\n        /* \"#utility.yul\":9970:9986   */\n      swap1\n      pop\n        /* \"#utility.yul\":10005:10008   */\n      dup1\n        /* \"#utility.yul\":10002:10003   */\n      dup3\n        /* \"#utility.yul\":9999:10009   */\n      gt\n        /* \"#utility.yul\":9996:10032   */\n      iszero\n      tag_306\n      jumpi\n        /* \"#utility.yul\":10012:10030   */\n      tag_307\n      tag_172\n      jump\t// in\n    tag_307:\n        /* \"#utility.yul\":9996:10032   */\n    tag_306:\n        /* \"#utility.yul\":9848:10039   */\n      swap3\n      swap2\n      pop\n      pop\n      jump\t// out\n        /* \"#utility.yul\":10045:10205   */\n    tag_184:\n        /* \"#utility.yul\":10185:10197   */\n      0x736861726573203c203000000000000000000000000000000000000000000000\n        /* \"#utility.yul\":10181:10182   */\n      0x00\n        /* \"#utility.yul\":10173:10179   */\n      dup3\n        /* \"#utility.yul\":10169:10183   */\n      add\n        /* \"#utility.yul\":10162:10198   */\n      mstore\n        /* \"#utility.yul\":10045:10205   */\n      pop\n      jump\t// out\n        /* \"#utility.yul\":10211:10577   */\n    tag_185:\n        /* \"#utility.yul\":10353:10356   */\n      0x00\n        /* \"#utility.yul\":10374:10441   */\n      tag_310\n        /* \"#utility.yul\":10438:10440   */\n      0x0a\n        /* \"#utility.yul\":10433:10436   */\n      dup4\n        /* \"#utility.yul\":10374:10441   */\n      tag_167\n      jump\t// in\n    tag_310:\n        /* \"#utility.yul\":10367:10441   */\n      swap2\n      pop\n        /* \"#utility.yul\":10450:10543   */\n      tag_311\n        /* \"#utility.yul\":10539:10542   */\n      dup3\n        /* \"#utility.yul\":10450:10543   */\n      tag_184\n      jump\t// in\n    tag_311:\n        /* \"#utility.yul\":10568:10570   */\n      0x20\n        /* \"#utility.yul\":10563:10566   */\n      dup3\n        /* \"#utility.yul\":10559:10571   */\n      add\n        /* \"#utility.yul\":10552:10571   */\n      swap1\n      pop\n        /* \"#utility.yul\":10211:10577   */\n      swap2\n      swap1\n      pop\n      jump\t// out\n        /* \"#utility.yul\":10583:11002   */\n    tag_109:\n        /* \"#utility.yul\":10749:10753   */\n      0x00\n        /* \"#utility.yul\":10787:10789   */\n      0x20\n        /* \"#utility.yul\":10776:10785   */\n      dup3\n        /* \"#utility.yul\":10772:10790   */\n      add\n        /* \"#utility.yul\":10764:10790   */\n      swap1\n      pop\n        /* \"#utility.yul\":10836:10845   */\n      dup2\n        /* \"#utility.yul\":10830:10834   */\n      dup2\n        /* \"#utility.yul\":10826:10846   */\n      sub\n        /* \"#utility.yul\":10822:10823   */\n      0x00\n        /* \"#utility.yul\":10811:10820   */\n      dup4\n        /* \"#utility.yul\":10807:10824   */\n      add\n        /* \"#utility.yul\":10800:10847   */\n      mstore\n        /* \"#utility.yul\":10864:10995   */\n      tag_313\n        /* \"#utility.yul\":10990:10994   */\n      dup2\n        /* \"#utility.yul\":10864:10995   */\n      tag_185\n      jump\t// in\n    tag_313:\n        /* \"#utility.yul\":10856:10995   */\n      swap1\n      pop\n        /* \"#utility.yul\":10583:11002   */\n      swap2\n      swap1\n      pop\n      jump\t// out\n        /* \"#utility.yul\":11008:11171   */\n    tag_186:\n        /* \"#utility.yul\":11148:11163   */\n      0x546f6b656e20696e76616c696400000000000000000000000000000000000000\n        /* \"#utility.yul\":11144:11145   */\n      0x00\n        /* \"#utility.yul\":11136:11142   */\n      dup3\n        /* \"#utility.yul\":11132:11146   */\n      add\n        /* \"#utility.yul\":11125:11164   */\n      mstore\n        /* \"#utility.yul\":11008:11171   */\n      pop\n      jump\t// out\n        /* \"#utility.yul\":11177:11543   */\n    tag_187:\n        /* \"#utility.yul\":11319:11322   */\n      0x00\n        /* \"#utility.yul\":11340:11407   */\n      tag_316\n        /* \"#utility.yul\":11404:11406   */\n      0x0d\n        /* \"#utility.yul\":11399:11402   */\n      dup4\n        /* \"#utility.yul\":11340:11407   */\n      tag_167\n      jump\t// in\n    tag_316:\n        /* \"#utility.yul\":11333:11407   */\n      swap2\n      pop\n        /* \"#utility.yul\":11416:11509   */\n      tag_317\n        /* \"#utility.yul\":11505:11508   */\n      dup3\n        /* \"#utility.yul\":11416:11509   */\n      tag_186\n      jump\t// in\n    tag_317:\n        /* \"#utility.yul\":11534:11536   */\n      0x20\n        /* \"#utility.yul\":11529:11532   */\n      dup3\n        /* \"#utility.yul\":11525:11537   */\n      add\n        /* \"#utility.yul\":11518:11537   */\n      swap1\n      pop\n        /* \"#utility.yul\":11177:11543   */\n      swap2\n      swap1\n      pop\n      jump\t// out\n        /* \"#utility.yul\":11549:11968   */\n    tag_119:\n        /* \"#utility.yul\":11715:11719   */\n      0x00\n        /* \"#utility.yul\":11753:11755   */\n      0x20\n        /* \"#utility.yul\":11742:11751   */\n      dup3\n        /* \"#utility.yul\":11738:11756   */\n      add\n        /* \"#utility.yul\":11730:11756   */\n      swap1\n      pop\n        /* \"#utility.yul\":11802:11811   */\n      dup2\n        /* \"#utility.yul\":11796:11800   */\n      dup2\n        /* \"#utility.yul\":11792:11812   */\n      sub\n        /* \"#utility.yul\":11788:11789   */\n      0x00\n        /* \"#utility.yul\":11777:11786   */\n      dup4\n        /* \"#utility.yul\":11773:11790   */\n      add\n        /* \"#utility.yul\":11766:11813   */\n      mstore\n        /* \"#utility.yul\":11830:11961   */\n      tag_319\n        /* \"#utility.yul\":11956:11960   */\n      dup2\n        /* \"#utility.yul\":11830:11961   */\n      tag_187\n      jump\t// in\n    tag_319:\n        /* \"#utility.yul\":11822:11961   */\n      swap1\n      pop\n        /* \"#utility.yul\":11549:11968   */\n      swap2\n      swap1\n      pop\n      jump\t// out\n        /* \"#utility.yul\":11974:12059   */\n    tag_188:\n        /* \"#utility.yul\":12019:12026   */\n      0x00\n        /* \"#utility.yul\":12048:12053   */\n      dup2\n        /* \"#utility.yul\":12037:12053   */\n      swap1\n      pop\n        /* \"#utility.yul\":11974:12059   */\n      swap2\n      swap1\n      pop\n      jump\t// out\n        /* \"#utility.yul\":12065:12223   */\n    tag_189:\n        /* \"#utility.yul\":12123:12132   */\n      0x00\n        /* \"#utility.yul\":12156:12217   */\n      tag_322\n        /* \"#utility.yul\":12174:12216   */\n      tag_323\n        /* \"#utility.yul\":12183:12215   */\n      tag_324\n        /* \"#utility.yul\":12209:12214   */\n      dup5\n        /* \"#utility.yul\":12183:12215   */\n      tag_188\n      jump\t// in\n    tag_324:\n        /* \"#utility.yul\":12174:12216   */\n      tag_174\n      jump\t// in\n    tag_323:\n        /* \"#utility.yul\":12156:12217   */\n      tag_156\n      jump\t// in\n    tag_322:\n        /* \"#utility.yul\":12143:12217   */\n      swap1\n      pop\n        /* \"#utility.yul\":12065:12223   */\n      swap2\n      swap1\n      pop\n      jump\t// out\n        /* \"#utility.yul\":12229:12376   */\n    tag_190:\n        /* \"#utility.yul\":12324:12369   */\n      tag_326\n        /* \"#utility.yul\":12363:12368   */\n      dup2\n        /* \"#utility.yul\":12324:12369   */\n      tag_189\n      jump\t// in\n    tag_326:\n        /* \"#utility.yul\":12319:12322   */\n      dup3\n        /* \"#utility.yul\":12312:12370   */\n      mstore\n        /* \"#utility.yul\":12229:12376   */\n      pop\n      pop\n      jump\t// out\n        /* \"#utility.yul\":12382:12967   */\n    tag_143:\n        /* \"#utility.yul\":12575:12579   */\n      0x00\n        /* \"#utility.yul\":12613:12616   */\n      0x80\n        /* \"#utility.yul\":12602:12611   */\n      dup3\n        /* \"#utility.yul\":12598:12617   */\n      add\n        /* \"#utility.yul\":12590:12617   */\n      swap1\n      pop\n        /* \"#utility.yul\":12627:12698   */\n      tag_328\n        /* \"#utility.yul\":12695:12696   */\n      0x00\n        /* \"#utility.yul\":12684:12693   */\n      dup4\n        /* \"#utility.yul\":12680:12697   */\n      add\n        /* \"#utility.yul\":12671:12677   */\n      dup8\n        /* \"#utility.yul\":12627:12698   */\n      tag_157\n      jump\t// in\n    tag_328:\n        /* \"#utility.yul\":12708:12788   */\n      tag_329\n        /* \"#utility.yul\":12784:12786   */\n      0x20\n        /* \"#utility.yul\":12773:12782   */\n      dup4\n        /* \"#utility.yul\":12769:12787   */\n      add\n        /* \"#utility.yul\":12760:12766   */\n      dup7\n        /* \"#utility.yul\":12708:12788   */\n      tag_190\n      jump\t// in\n    tag_329:\n        /* \"#utility.yul\":12798:12870   */\n      tag_330\n        /* \"#utility.yul\":12866:12868   */\n      0x40\n        /* \"#utility.yul\":12855:12864   */\n      dup4\n        /* \"#utility.yul\":12851:12869   */\n      add\n        /* \"#utility.yul\":12842:12848   */\n      dup6\n        /* \"#utility.yul\":12798:12870   */\n      tag_157\n      jump\t// in\n    tag_330:\n        /* \"#utility.yul\":12880:12960   */\n      tag_331\n        /* \"#utility.yul\":12956:12958   */\n      0x60\n        /* \"#utility.yul\":12945:12954   */\n      dup4\n        /* \"#utility.yul\":12941:12959   */\n      add\n        /* \"#utility.yul\":12932:12938   */\n      dup5\n        /* \"#utility.yul\":12880:12960   */\n      tag_190\n      jump\t// in\n    tag_331:\n        /* \"#utility.yul\":12382:12967   */\n      swap6\n      swap5\n      pop\n      pop\n      pop\n      pop\n      pop\n      jump\t// out\n        /* \"#utility.yul\":12973:13558   */\n    tag_148:\n        /* \"#utility.yul\":13166:13170   */\n      0x00\n        /* \"#utility.yul\":13204:13207   */\n      0x80\n        /* \"#utility.yul\":13193:13202   */\n      dup3\n        /* \"#utility.yul\":13189:13208   */\n      add\n        /* \"#utility.yul\":13181:13208   */\n      swap1\n      pop\n        /* \"#utility.yul\":13218:13297   */\n      tag_333\n        /* \"#utility.yul\":13294:13295   */\n      0x00\n        /* \"#utility.yul\":13283:13292   */\n      dup4\n        /* \"#utility.yul\":13279:13296   */\n      add\n        /* \"#utility.yul\":13270:13276   */\n      dup8\n        /* \"#utility.yul\":13218:13297   */\n      tag_190\n      jump\t// in\n    tag_333:\n        /* \"#utility.yul\":13307:13379   */\n      tag_334\n        /* \"#utility.yul\":13375:13377   */\n      0x20\n        /* \"#utility.yul\":13364:13373   */\n      dup4\n        /* \"#utility.yul\":13360:13378   */\n      add\n        /* \"#utility.yul\":13351:13357   */\n      dup7\n        /* \"#utility.yul\":13307:13379   */\n      tag_157\n      jump\t// in\n    tag_334:\n        /* \"#utility.yul\":13389:13469   */\n      tag_335\n        /* \"#utility.yul\":13465:13467   */\n      0x40\n        /* \"#utility.yul\":13454:13463   */\n      dup4\n        /* \"#utility.yul\":13450:13468   */\n      add\n        /* \"#utility.yul\":13441:13447   */\n      dup6\n        /* \"#utility.yul\":13389:13469   */\n      tag_190\n      jump\t// in\n    tag_335:\n        /* \"#utility.yul\":13479:13551   */\n      tag_336\n        /* \"#utility.yul\":13547:13549   */\n      0x60\n        /* \"#utility.yul\":13536:13545   */\n      dup4\n        /* \"#utility.yul\":13532:13550   */\n      add\n        /* \"#utility.yul\":13523:13529   */\n      dup5\n        /* \"#utility.yul\":13479:13551   */\n      tag_157\n      jump\t// in\n    tag_336:\n        /* \"#utility.yul\":12973:13558   */\n      swap6\n      swap5\n      pop\n      pop\n      pop\n      pop\n      pop\n      jump\t// out\n\n    auxdata: 0xa2646970667358221220716af96a7c0cc24bf8dc59848307eafde54e80d4640b06577239b2187679b9f364736f6c634300081a0033\n}\n",
				"bytecode": {
					"linkReferences": {},
					"object": "60c060405234801561000f575f80fd5b50604051611629380380611629833981810160405281019061003191906100fe565b8173ffffffffffffffffffffffffffffffffffffffff1660808173ffffffffffffffffffffffffffffffffffffffff16815250508073ffffffffffffffffffffffffffffffffffffffff1660a08173ffffffffffffffffffffffffffffffffffffffff1681525050505061013c565b5f80fd5b5f73ffffffffffffffffffffffffffffffffffffffff82169050919050565b5f6100cd826100a4565b9050919050565b6100dd816100c3565b81146100e7575f80fd5b50565b5f815190506100f8816100d4565b92915050565b5f8060408385031215610114576101136100a0565b5b5f610121858286016100ea565b9250506020610132858286016100ea565b9150509250929050565b60805160a05161147f6101aa5f395f818161039c01528181610517015281816106510152818161083e01528181610926015261098e01525f81816102f701528181610479015281816105b6015281816107e9015281816108ce01528181610947015261096d015261147f5ff3fe60806040526004361061006f575f3560e01c80639c8f9f231161004d5780639c8f9f23146101035780639cd441da14610134578063ba7bde5514610164578063d004f0f71461018e5761006f565b80630d5eb908146100735780634da296a91461009d57806370a08231146100c7575b5f80fd5b34801561007e575f80fd5b506100876101be565b6040516100949190610d91565b60405180910390f35b3480156100a8575f80fd5b506100b16101c4565b6040516100be9190610d91565b60405180910390f35b3480156100d2575f80fd5b506100ed60048036038101906100e89190610e08565b6101c9565b6040516100fa9190610d91565b60405180910390f35b61011d60048036038101906101189190610e5d565b6101de565b60405161012b929190610e88565b60405180910390f35b61014e60048036038101906101499190610eaf565b610472565b60405161015b9190610d91565b60405180910390f35b34801561016f575f80fd5b506101786107dc565b6040516101859190610d91565b60405180910390f35b6101a860048036038101906101a39190610eed565b6107e2565b6040516101b59190610d91565b60405180910390f35b60015481565b5f5481565b6003602052805f5260405f205f915090505481565b5f805f8311610222576040517f08c379a000000000000000000000000000000000000000000000000000000000815260040161021990610f85565b60405180910390fd5b5f3390505f60035f8373ffffffffffffffffffffffffffffffffffffffff1673ffffffffffffffffffffffffffffffffffffffff1681526020019081526020015f20549050808511156102aa576040517f08c379a00000000000000000000000000000000000000000000000000000000081526004016102a190610fed565b60405180910390fd5b5f805490505f60015490505f60025488846102c59190611038565b6102cf91906110a6565b90505f60025489846102e19190611038565b6102eb91906110a6565b90505f821115610392577f000000000000000000000000000000000000000000000000000000000000000073ffffffffffffffffffffffffffffffffffffffff1663a9059cbb87846040518363ffffffff1660e01b8152600401610350929190611131565b6020604051808303815f875af115801561036c573d5f803e3d5ffd5b505050506040513d601f19601f82011682018060405250810190610390919061118d565b505b5f811115610437577f000000000000000000000000000000000000000000000000000000000000000073ffffffffffffffffffffffffffffffffffffffff1663a9059cbb87836040518363ffffffff1660e01b81526004016103f5929190611131565b6020604051808303815f875af1158015610411573d5f803e3d5ffd5b505050506040513d601f19601f82011682018060405250810190610435919061118d565b505b610457828561044691906111b8565b828561045291906111b8565b610c8a565b610461868a610c9b565b818197509750505050505050915091565b5f803390507f000000000000000000000000000000000000000000000000000000000000000073ffffffffffffffffffffffffffffffffffffffff166323b872dd8230876040518463ffffffff1660e01b81526004016104d4939291906111fa565b6020604051808303815f875af11580156104f0573d5f803e3d5ffd5b505050506040513d601f19601f82011682018060405250810190610514919061118d565b507f000000000000000000000000000000000000000000000000000000000000000073ffffffffffffffffffffffffffffffffffffffff166323b872dd8230866040518463ffffffff1660e01b8152600401610572939291906111fa565b6020604051808303815f875af115801561058e573d5f803e3d5ffd5b505050506040513d601f19601f820116820180604052508101906105b2919061118d565b505f7f000000000000000000000000000000000000000000000000000000000000000073ffffffffffffffffffffffffffffffffffffffff166370a08231306040518263ffffffff1660e01b815260040161060d919061122f565b602060405180830381865afa158015610628573d5f803e3d5ffd5b505050506040513d601f19601f8201168201806040525081019061064c919061125c565b90505f7f000000000000000000000000000000000000000000000000000000000000000073ffffffffffffffffffffffffffffffffffffffff166370a08231306040518263ffffffff1660e01b81526004016106a8919061122f565b602060405180830381865afa1580156106c3573d5f803e3d5ffd5b505050506040513d601f19601f820116820180604052508101906106e7919061125c565b90505f8054836106f791906111b8565b90505f6001548361070891906111b8565b90505f805490505f60015490505f6002540361073157828461072a9190611287565b9750610763565b808261073d9190611287565b600254848661074c9190611287565b6107569190611038565b61076091906110a6565b97505b5f88116107a5576040517f08c379a000000000000000000000000000000000000000000000000000000000815260040161079c90611304565b60405180910390fd5b6107af8789610d0a565b6107cf84836107be9190611287565b84836107ca9190611287565b610c8a565b5050505050505092915050565b60025481565b5f803390507f000000000000000000000000000000000000000000000000000000000000000073ffffffffffffffffffffffffffffffffffffffff168473ffffffffffffffffffffffffffffffffffffffff16148061088c57507f000000000000000000000000000000000000000000000000000000000000000073ffffffffffffffffffffffffffffffffffffffff168473ffffffffffffffffffffffffffffffffffffffff16145b6108cb576040517f08c379a00000000000000000000000000000000000000000000000000000000081526004016108c29061136c565b60405180910390fd5b5f7f000000000000000000000000000000000000000000000000000000000000000073ffffffffffffffffffffffffffffffffffffffff168573ffffffffffffffffffffffffffffffffffffffff161490505f808261096b577f00000000000000000000000000000000000000000000000000000000000000007f00000000000000000000000000000000000000000000000000000000000000006109ae565b7f00000000000000000000000000000000000000000000000000000000000000007f00000000000000000000000000000000000000000000000000000000000000005b915091505f8690505f846109c4576001546109c7565b5f545b90505f8473ffffffffffffffffffffffffffffffffffffffff166323b872dd8830866040518463ffffffff1660e01b8152600401610a07939291906111fa565b6020604051808303815f875af1158015610a23573d5f803e3d5ffd5b505050506040513d601f19601f82011682018060405250810190610a47919061118d565b50818573ffffffffffffffffffffffffffffffffffffffff166370a08231306040518263ffffffff1660e01b8152600401610a82919061122f565b602060405180830381865afa158015610a9d573d5f803e3d5ffd5b505050506040513d601f19601f82011682018060405250810190610ac1919061125c565b610acb91906111b8565b90505f6103e86103e583610adf9190611038565b610ae991906110a6565b90508473ffffffffffffffffffffffffffffffffffffffff1663a9059cbb89836040518363ffffffff1660e01b8152600401610b26929190611131565b6020604051808303815f875af1158015610b42573d5f803e3d5ffd5b505050506040513d601f19601f82011682018060405250810190610b66919061118d565b508615610bf557835f80828254610b7d9190611287565b925050819055508060015f828254610b9591906111b8565b925050819055508773ffffffffffffffffffffffffffffffffffffffff167f49926bbebe8474393f434dfa4f78694c0923efa07d19f2284518bfabd06eb737855f845f604051610be894939291906113c3565b60405180910390a2610c79565b805f80828254610c0591906111b8565b925050819055508360015f828254610c1d9190611287565b925050819055508773ffffffffffffffffffffffffffffffffffffffff167f49926bbebe8474393f434dfa4f78694c0923efa07d19f2284518bfabd06eb7375f865f85604051610c709493929190611406565b60405180910390a25b809850505050505050505092915050565b815f81905550806001819055505050565b8060025f828254610cac91906111b8565b925050819055508060035f8473ffffffffffffffffffffffffffffffffffffffff1673ffffffffffffffffffffffffffffffffffffffff1681526020019081526020015f205f828254610cff91906111b8565b925050819055505050565b8060025f828254610d1b9190611287565b925050819055508060035f8473ffffffffffffffffffffffffffffffffffffffff1673ffffffffffffffffffffffffffffffffffffffff1681526020019081526020015f205f828254610d6e9190611287565b925050819055505050565b5f819050919050565b610d8b81610d79565b82525050565b5f602082019050610da45f830184610d82565b92915050565b5f80fd5b5f73ffffffffffffffffffffffffffffffffffffffff82169050919050565b5f610dd782610dae565b9050919050565b610de781610dcd565b8114610df1575f80fd5b50565b5f81359050610e0281610dde565b92915050565b5f60208284031215610e1d57610e1c610daa565b5b5f610e2a84828501610df4565b91505092915050565b610e3c81610d79565b8114610e46575f80fd5b50565b5f81359050610e5781610e33565b92915050565b5f60208284031215610e7257610e71610daa565b5b5f610e7f84828501610e49565b91505092915050565b5f604082019050610e9b5f830185610d82565b610ea86020830184610d82565b9392505050565b5f8060408385031215610ec557610ec4610daa565b5b5f610ed285828601610e49565b9250506020610ee385828601610e49565b9150509250929050565b5f8060408385031215610f0357610f02610daa565b5b5f610f1085828601610df4565b9250506020610f2185828601610e49565b9150509250929050565b5f82825260208201905092915050565b7f2073686172652073686f756c64203e20300000000000000000000000000000005f82015250565b5f610f6f601183610f2b565b9150610f7a82610f3b565b602082019050919050565b5f6020820190508181035f830152610f9c81610f63565b9050919050565b7f6e6f7420656e6f7567682073686172657320746f2072656d6f766500000000005f82015250565b5f610fd7601b83610f2b565b9150610fe282610fa3565b602082019050919050565b5f6020820190508181035f83015261100481610fcb565b9050919050565b7f4e487b71000000000000000000000000000000000000000000000000000000005f52601160045260245ffd5b5f61104282610d79565b915061104d83610d79565b925082820261105b81610d79565b915082820484148315176110725761107161100b565b5b5092915050565b7f4e487b71000000000000000000000000000000000000000000000000000000005f52601260045260245ffd5b5f6110b082610d79565b91506110bb83610d79565b9250826110cb576110ca611079565b5b828204905092915050565b5f819050919050565b5f6110f96110f46110ef84610dae565b6110d6565b610dae565b9050919050565b5f61110a826110df565b9050919050565b5f61111b82611100565b9050919050565b61112b81611111565b82525050565b5f6040820190506111445f830185611122565b6111516020830184610d82565b9392505050565b5f8115159050919050565b61116c81611158565b8114611176575f80fd5b50565b5f8151905061118781611163565b92915050565b5f602082840312156111a2576111a1610daa565b5b5f6111af84828501611179565b91505092915050565b5f6111c282610d79565b91506111cd83610d79565b92508282039050818111156111e5576111e461100b565b5b92915050565b6111f481610dcd565b82525050565b5f60608201905061120d5f830186611122565b61121a60208301856111eb565b6112276040830184610d82565b949350505050565b5f6020820190506112425f8301846111eb565b92915050565b5f8151905061125681610e33565b92915050565b5f6020828403121561127157611270610daa565b5b5f61127e84828501611248565b91505092915050565b5f61129182610d79565b915061129c83610d79565b92508282019050808211156112b4576112b361100b565b5b92915050565b7f736861726573203c2030000000000000000000000000000000000000000000005f82015250565b5f6112ee600a83610f2b565b91506112f9826112ba565b602082019050919050565b5f6020820190508181035f83015261131b816112e2565b9050919050565b7f546f6b656e20696e76616c6964000000000000000000000000000000000000005f82015250565b5f611356600d83610f2b565b915061136182611322565b602082019050919050565b5f6020820190508181035f8301526113838161134a565b9050919050565b5f819050919050565b5f6113ad6113a86113a38461138a565b6110d6565b610d79565b9050919050565b6113bd81611393565b82525050565b5f6080820190506113d65f830187610d82565b6113e360208301866113b4565b6113f06040830185610d82565b6113fd60608301846113b4565b95945050505050565b5f6080820190506114195f8301876113b4565b6114266020830186610d82565b61143360408301856113b4565b6114406060830184610d82565b9594505050505056fea2646970667358221220716af96a7c0cc24bf8dc59848307eafde54e80d4640b06577239b2187679b9f364736f6c634300081a0033",
					"opcodes": "PUSH1 0xC0 PUSH1 0x40 MSTORE CALLVALUE DUP1 ISZERO PUSH2 0xF JUMPI PUSH0 DUP1 REVERT JUMPDEST POP PUSH1 0x40 MLOAD PUSH2 0x1629 CODESIZE SUB DUP1 PUSH2 0x1629 DUP4 CODECOPY DUP2 DUP2 ADD PUSH1 0x40 MSTORE DUP2 ADD SWAP1 PUSH2 0x31 SWAP2 SWAP1 PUSH2 0xFE JUMP JUMPDEST DUP2 PUSH20 0xFFFFFFFFFFFFFFFFFFFFFFFFFFFFFFFFFFFFFFFF AND PUSH1 0x80 DUP2 PUSH20 0xFFFFFFFFFFFFFFFFFFFFFFFFFFFFFFFFFFFFFFFF AND DUP2 MSTORE POP POP DUP1 PUSH20 0xFFFFFFFFFFFFFFFFFFFFFFFFFFFFFFFFFFFFFFFF AND PUSH1 0xA0 DUP2 PUSH20 0xFFFFFFFFFFFFFFFFFFFFFFFFFFFFFFFFFFFFFFFF AND DUP2 MSTORE POP POP POP POP PUSH2 0x13C JUMP JUMPDEST PUSH0 DUP1 REVERT JUMPDEST PUSH0 PUSH20 0xFFFFFFFFFFFFFFFFFFFFFFFFFFFFFFFFFFFFFFFF DUP3 AND SWAP1 POP SWAP2 SWAP1 POP JUMP JUMPDEST PUSH0 PUSH2 0xCD DUP3 PUSH2 0xA4 JUMP JUMPDEST SWAP1 POP SWAP2 SWAP1 POP JUMP JUMPDEST PUSH2 0xDD DUP2 PUSH2 0xC3 JUMP JUMPDEST DUP2 EQ PUSH2 0xE7 JUMPI PUSH0 DUP1 REVERT JUMPDEST POP JUMP JUMPDEST PUSH0 DUP2 MLOAD SWAP1 POP PUSH2 0xF8 DUP2 PUSH2 0xD4 JUMP JUMPDEST SWAP3 SWAP2 POP POP JUMP JUMPDEST PUSH0 DUP1 PUSH1 0x40 DUP4 DUP6 SUB SLT ISZERO PUSH2 0x114 JUMPI PUSH2 0x113 PUSH2 0xA0 JUMP JUMPDEST JUMPDEST PUSH0 PUSH2 0x121 DUP6 DUP3 DUP7 ADD PUSH2 0xEA JUMP JUMPDEST SWAP3 POP POP PUSH1 0x20 PUSH2 0x132 DUP6 DUP3 DUP7 ADD PUSH2 0xEA JUMP JUMPDEST SWAP2 POP POP SWAP3 POP SWAP3 SWAP1 POP JUMP JUMPDEST PUSH1 0x80 MLOAD PUSH1 0xA0 MLOAD PUSH2 0x147F PUSH2 0x1AA PUSH0 CODECOPY PUSH0 DUP2 DUP2 PUSH2 0x39C ADD MSTORE DUP2 DUP2 PUSH2 0x517 ADD MSTORE DUP2 DUP2 PUSH2 0x651 ADD MSTORE DUP2 DUP2 PUSH2 0x83E ADD MSTORE DUP2 DUP2 PUSH2 0x926 ADD MSTORE PUSH2 0x98E ADD MSTORE PUSH0 DUP2 DUP2 PUSH2 0x2F7 ADD MSTORE DUP2 DUP2 PUSH2 0x479 ADD MSTORE DUP2 DUP2 PUSH2 0x5B6 ADD MSTORE DUP2 DUP2 PUSH2 0x7E9 ADD MSTORE DUP2 DUP2 PUSH2 0x8CE ADD MSTORE DUP2 DUP2 PUSH2 0x947 ADD MSTORE PUSH2 0x96D ADD MSTORE PUSH2 0x147F PUSH0 RETURN INVALID PUSH1 0x80 PUSH1 0x40 MSTORE PUSH1 0x4 CALLDATASIZE LT PUSH2 0x6F JUMPI PUSH0 CALLDATALOAD PUSH1 0xE0 SHR DUP1 PUSH4 0x9C8F9F23 GT PUSH2 0x4D JUMPI DUP1 PUSH4 0x9C8F9F23 EQ PUSH2 0x103 JUMPI DUP1 PUSH4 0x9CD441DA EQ PUSH2 0x134 JUMPI DUP1 PUSH4 0xBA7BDE55 EQ PUSH2 0x164 JUMPI DUP1 PUSH4 0xD004F0F7 EQ PUSH2 0x18E JUMPI PUSH2 0x6F JUMP JUMPDEST DUP1 PUSH4 0xD5EB908 EQ PUSH2 0x73 JUMPI DUP1 PUSH4 0x4DA296A9 EQ PUSH2 0x9D JUMPI DUP1 PUSH4 0x70A08231 EQ PUSH2 0xC7 JUMPI JUMPDEST PUSH0 DUP1 REVERT JUMPDEST CALLVALUE DUP1 ISZERO PUSH2 0x7E JUMPI PUSH0 DUP1 REVERT JUMPDEST POP PUSH2 0x87 PUSH2 0x1BE JUMP JUMPDEST PUSH1 0x40 MLOAD PUSH2 0x94 SWAP2 SWAP1 PUSH2 0xD91 JUMP JUMPDEST PUSH1 0x40 MLOAD DUP1 SWAP2 SUB SWAP1 RETURN JUMPDEST CALLVALUE DUP1 ISZERO PUSH2 0xA8 JUMPI PUSH0 DUP1 REVERT JUMPDEST POP PUSH2 0xB1 PUSH2 0x1C4 JUMP JUMPDEST PUSH1 0x40 MLOAD PUSH2 0xBE SWAP2 SWAP1 PUSH2 0xD91 JUMP JUMPDEST PUSH1 0x40 MLOAD DUP1 SWAP2 SUB SWAP1 RETURN JUMPDEST CALLVALUE DUP1 ISZERO PUSH2 0xD2 JUMPI PUSH0 DUP1 REVERT JUMPDEST POP PUSH2 0xED PUSH1 0x4 DUP1 CALLDATASIZE SUB DUP2 ADD SWAP1 PUSH2 0xE8 SWAP2 SWAP1 PUSH2 0xE08 JUMP JUMPDEST PUSH2 0x1C9 JUMP JUMPDEST PUSH1 0x40 MLOAD PUSH2 0xFA SWAP2 SWAP1 PUSH2 0xD91 JUMP JUMPDEST PUSH1 0x40 MLOAD DUP1 SWAP2 SUB SWAP1 RETURN JUMPDEST PUSH2 0x11D PUSH1 0x4 DUP1 CALLDATASIZE SUB DUP2 ADD SWAP1 PUSH2 0x118 SWAP2 SWAP1 PUSH2 0xE5D JUMP JUMPDEST PUSH2 0x1DE JUMP JUMPDEST PUSH1 0x40 MLOAD PUSH2 0x12B SWAP3 SWAP2 SWAP1 PUSH2 0xE88 JUMP JUMPDEST PUSH1 0x40 MLOAD DUP1 SWAP2 SUB SWAP1 RETURN JUMPDEST PUSH2 0x14E PUSH1 0x4 DUP1 CALLDATASIZE SUB DUP2 ADD SWAP1 PUSH2 0x149 SWAP2 SWAP1 PUSH2 0xEAF JUMP JUMPDEST PUSH2 0x472 JUMP JUMPDEST PUSH1 0x40 MLOAD PUSH2 0x15B SWAP2 SWAP1 PUSH2 0xD91 JUMP JUMPDEST PUSH1 0x40 MLOAD DUP1 SWAP2 SUB SWAP1 RETURN JUMPDEST CALLVALUE DUP1 ISZERO PUSH2 0x16F JUMPI PUSH0 DUP1 REVERT JUMPDEST POP PUSH2 0x178 PUSH2 0x7DC JUMP JUMPDEST PUSH1 0x40 MLOAD PUSH2 0x185 SWAP2 SWAP1 PUSH2 0xD91 JUMP JUMPDEST PUSH1 0x40 MLOAD DUP1 SWAP2 SUB SWAP1 RETURN JUMPDEST PUSH2 0x1A8 PUSH1 0x4 DUP1 CALLDATASIZE SUB DUP2 ADD SWAP1 PUSH2 0x1A3 SWAP2 SWAP1 PUSH2 0xEED JUMP JUMPDEST PUSH2 0x7E2 JUMP JUMPDEST PUSH1 0x40 MLOAD PUSH2 0x1B5 SWAP2 SWAP1 PUSH2 0xD91 JUMP JUMPDEST PUSH1 0x40 MLOAD DUP1 SWAP2 SUB SWAP1 RETURN JUMPDEST PUSH1 0x1 SLOAD DUP2 JUMP JUMPDEST PUSH0 SLOAD DUP2 JUMP JUMPDEST PUSH1 0x3 PUSH1 0x20 MSTORE DUP1 PUSH0 MSTORE PUSH1 0x40 PUSH0 KECCAK256 PUSH0 SWAP2 POP SWAP1 POP SLOAD DUP2 JUMP JUMPDEST PUSH0 DUP1 PUSH0 DUP4 GT PUSH2 0x222 JUMPI PUSH1 0x40 MLOAD PUSH32 0x8C379A000000000000000000000000000000000000000000000000000000000 DUP2 MSTORE PUSH1 0x4 ADD PUSH2 0x219 SWAP1 PUSH2 0xF85 JUMP JUMPDEST PUSH1 0x40 MLOAD DUP1 SWAP2 SUB SWAP1 REVERT JUMPDEST PUSH0 CALLER SWAP1 POP PUSH0 PUSH1 0x3 PUSH0 DUP4 PUSH20 0xFFFFFFFFFFFFFFFFFFFFFFFFFFFFFFFFFFFFFFFF AND PUSH20 0xFFFFFFFFFFFFFFFFFFFFFFFFFFFFFFFFFFFFFFFF AND DUP2 MSTORE PUSH1 0x20 ADD SWAP1 DUP2 MSTORE PUSH1 0x20 ADD PUSH0 KECCAK256 SLOAD SWAP1 POP DUP1 DUP6 GT ISZERO PUSH2 0x2AA JUMPI PUSH1 0x40 MLOAD PUSH32 0x8C379A000000000000000000000000000000000000000000000000000000000 DUP2 MSTORE PUSH1 0x4 ADD PUSH2 0x2A1 SWAP1 PUSH2 0xFED JUMP JUMPDEST PUSH1 0x40 MLOAD DUP1 SWAP2 SUB SWAP1 REVERT JUMPDEST PUSH0 DUP1 SLOAD SWAP1 POP PUSH0 PUSH1 0x1 SLOAD SWAP1 POP PUSH0 PUSH1 0x2 SLOAD DUP9 DUP5 PUSH2 0x2C5 SWAP2 SWAP1 PUSH2 0x1038 JUMP JUMPDEST PUSH2 0x2CF SWAP2 SWAP1 PUSH2 0x10A6 JUMP JUMPDEST SWAP1 POP PUSH0 PUSH1 0x2 SLOAD DUP10 DUP5 PUSH2 0x2E1 SWAP2 SWAP1 PUSH2 0x1038 JUMP JUMPDEST PUSH2 0x2EB SWAP2 SWAP1 PUSH2 0x10A6 JUMP JUMPDEST SWAP1 POP PUSH0 DUP3 GT ISZERO PUSH2 0x392 JUMPI PUSH32 0x0 PUSH20 0xFFFFFFFFFFFFFFFFFFFFFFFFFFFFFFFFFFFFFFFF AND PUSH4 0xA9059CBB DUP8 DUP5 PUSH1 0x40 MLOAD DUP4 PUSH4 0xFFFFFFFF AND PUSH1 0xE0 SHL DUP2 MSTORE PUSH1 0x4 ADD PUSH2 0x350 SWAP3 SWAP2 SWAP1 PUSH2 0x1131 JUMP JUMPDEST PUSH1 0x20 PUSH1 0x40 MLOAD DUP1 DUP4 SUB DUP2 PUSH0 DUP8 GAS CALL ISZERO DUP1 ISZERO PUSH2 0x36C JUMPI RETURNDATASIZE PUSH0 DUP1 RETURNDATACOPY RETURNDATASIZE PUSH0 REVERT JUMPDEST POP POP POP POP PUSH1 0x40 MLOAD RETURNDATASIZE PUSH1 0x1F NOT PUSH1 0x1F DUP3 ADD AND DUP3 ADD DUP1 PUSH1 0x40 MSTORE POP DUP2 ADD SWAP1 PUSH2 0x390 SWAP2 SWAP1 PUSH2 0x118D JUMP JUMPDEST POP JUMPDEST PUSH0 DUP2 GT ISZERO PUSH2 0x437 JUMPI PUSH32 0x0 PUSH20 0xFFFFFFFFFFFFFFFFFFFFFFFFFFFFFFFFFFFFFFFF AND PUSH4 0xA9059CBB DUP8 DUP4 PUSH1 0x40 MLOAD DUP4 PUSH4 0xFFFFFFFF AND PUSH1 0xE0 SHL DUP2 MSTORE PUSH1 0x4 ADD PUSH2 0x3F5 SWAP3 SWAP2 SWAP1 PUSH2 0x1131 JUMP JUMPDEST PUSH1 0x20 PUSH1 0x40 MLOAD DUP1 DUP4 SUB DUP2 PUSH0 DUP8 GAS CALL ISZERO DUP1 ISZERO PUSH2 0x411 JUMPI RETURNDATASIZE PUSH0 DUP1 RETURNDATACOPY RETURNDATASIZE PUSH0 REVERT JUMPDEST POP POP POP POP PUSH1 0x40 MLOAD RETURNDATASIZE PUSH1 0x1F NOT PUSH1 0x1F DUP3 ADD AND DUP3 ADD DUP1 PUSH1 0x40 MSTORE POP DUP2 ADD SWAP1 PUSH2 0x435 SWAP2 SWAP1 PUSH2 0x118D JUMP JUMPDEST POP JUMPDEST PUSH2 0x457 DUP3 DUP6 PUSH2 0x446 SWAP2 SWAP1 PUSH2 0x11B8 JUMP JUMPDEST DUP3 DUP6 PUSH2 0x452 SWAP2 SWAP1 PUSH2 0x11B8 JUMP JUMPDEST PUSH2 0xC8A JUMP JUMPDEST PUSH2 0x461 DUP7 DUP11 PUSH2 0xC9B JUMP JUMPDEST DUP2 DUP2 SWAP8 POP SWAP8 POP POP POP POP POP POP POP SWAP2 POP SWAP2 JUMP JUMPDEST PUSH0 DUP1 CALLER SWAP1 POP PUSH32 0x0 PUSH20 0xFFFFFFFFFFFFFFFFFFFFFFFFFFFFFFFFFFFFFFFF AND PUSH4 0x23B872DD DUP3 ADDRESS DUP8 PUSH1 0x40 MLOAD DUP5 PUSH4 0xFFFFFFFF AND PUSH1 0xE0 SHL DUP2 MSTORE PUSH1 0x4 ADD PUSH2 0x4D4 SWAP4 SWAP3 SWAP2 SWAP1 PUSH2 0x11FA JUMP JUMPDEST PUSH1 0x20 PUSH1 0x40 MLOAD DUP1 DUP4 SUB DUP2 PUSH0 DUP8 GAS CALL ISZERO DUP1 ISZERO PUSH2 0x4F0 JUMPI RETURNDATASIZE PUSH0 DUP1 RETURNDATACOPY RETURNDATASIZE PUSH0 REVERT JUMPDEST POP POP POP POP PUSH1 0x40 MLOAD RETURNDATASIZE PUSH1 0x1F NOT PUSH1 0x1F DUP3 ADD AND DUP3 ADD DUP1 PUSH1 0x40 MSTORE POP DUP2 ADD SWAP1 PUSH2 0x514 SWAP2 SWAP1 PUSH2 0x118D JUMP JUMPDEST POP PUSH32 0x0 PUSH20 0xFFFFFFFFFFFFFFFFFFFFFFFFFFFFFFFFFFFFFFFF AND PUSH4 0x23B872DD DUP3 ADDRESS DUP7 PUSH1 0x40 MLOAD DUP5 PUSH4 0xFFFFFFFF AND PUSH1 0xE0 SHL DUP2 MSTORE PUSH1 0x4 ADD PUSH2 0x572 SWAP4 SWAP3 SWAP2 SWAP1 PUSH2 0x11FA JUMP JUMPDEST PUSH1 0x20 PUSH1 0x40 MLOAD DUP1 DUP4 SUB DUP2 PUSH0 DUP8 GAS CALL ISZERO DUP1 ISZERO PUSH2 0x58E JUMPI RETURNDATASIZE PUSH0 DUP1 RETURNDATACOPY RETURNDATASIZE PUSH0 REVERT JUMPDEST POP POP POP POP PUSH1 0x40 MLOAD RETURNDATASIZE PUSH1 0x1F NOT PUSH1 0x1F DUP3 ADD AND DUP3 ADD DUP1 PUSH1 0x40 MSTORE POP DUP2 ADD SWAP1 PUSH2 0x5B2 SWAP2 SWAP1 PUSH2 0x118D JUMP JUMPDEST POP PUSH0 PUSH32 0x0 PUSH20 0xFFFFFFFFFFFFFFFFFFFFFFFFFFFFFFFFFFFFFFFF AND PUSH4 0x70A08231 ADDRESS PUSH1 0x40 MLOAD DUP3 PUSH4 0xFFFFFFFF AND PUSH1 0xE0 SHL DUP2 MSTORE PUSH1 0x4 ADD PUSH2 0x60D SWAP2 SWAP1 PUSH2 0x122F JUMP JUMPDEST PUSH1 0x20 PUSH1 0x40 MLOAD DUP1 DUP4 SUB DUP2 DUP7 GAS STATICCALL ISZERO DUP1 ISZERO PUSH2 0x628 JUMPI RETURNDATASIZE PUSH0 DUP1 RETURNDATACOPY RETURNDATASIZE PUSH0 REVERT JUMPDEST POP POP POP POP PUSH1 0x40 MLOAD RETURNDATASIZE PUSH1 0x1F NOT PUSH1 0x1F DUP3 ADD AND DUP3 ADD DUP1 PUSH1 0x40 MSTORE POP DUP2 ADD SWAP1 PUSH2 0x64C SWAP2 SWAP1 PUSH2 0x125C JUMP JUMPDEST SWAP1 POP PUSH0 PUSH32 0x0 PUSH20 0xFFFFFFFFFFFFFFFFFFFFFFFFFFFFFFFFFFFFFFFF AND PUSH4 0x70A08231 ADDRESS PUSH1 0x40 MLOAD DUP3 PUSH4 0xFFFFFFFF AND PUSH1 0xE0 SHL DUP2 MSTORE PUSH1 0x4 ADD PUSH2 0x6A8 SWAP2 SWAP1 PUSH2 0x122F JUMP JUMPDEST PUSH1 0x20 PUSH1 0x40 MLOAD DUP1 DUP4 SUB DUP2 DUP7 GAS STATICCALL ISZERO DUP1 ISZERO PUSH2 0x6C3 JUMPI RETURNDATASIZE PUSH0 DUP1 RETURNDATACOPY RETURNDATASIZE PUSH0 REVERT JUMPDEST POP POP POP POP PUSH1 0x40 MLOAD RETURNDATASIZE PUSH1 0x1F NOT PUSH1 0x1F DUP3 ADD AND DUP3 ADD DUP1 PUSH1 0x40 MSTORE POP DUP2 ADD SWAP1 PUSH2 0x6E7 SWAP2 SWAP1 PUSH2 0x125C JUMP JUMPDEST SWAP1 POP PUSH0 DUP1 SLOAD DUP4 PUSH2 0x6F7 SWAP2 SWAP1 PUSH2 0x11B8 JUMP JUMPDEST SWAP1 POP PUSH0 PUSH1 0x1 SLOAD DUP4 PUSH2 0x708 SWAP2 SWAP1 PUSH2 0x11B8 JUMP JUMPDEST SWAP1 POP PUSH0 DUP1 SLOAD SWAP1 POP PUSH0 PUSH1 0x1 SLOAD SWAP1 POP PUSH0 PUSH1 0x2 SLOAD SUB PUSH2 0x731 JUMPI DUP3 DUP5 PUSH2 0x72A SWAP2 SWAP1 PUSH2 0x1287 JUMP JUMPDEST SWAP8 POP PUSH2 0x763 JUMP JUMPDEST DUP1 DUP3 PUSH2 0x73D SWAP2 SWAP1 PUSH2 0x1287 JUMP JUMPDEST PUSH1 0x2 SLOAD DUP5 DUP7 PUSH2 0x74C SWAP2 SWAP1 PUSH2 0x1287 JUMP JUMPDEST PUSH2 0x756 SWAP2 SWAP1 PUSH2 0x1038 JUMP JUMPDEST PUSH2 0x760 SWAP2 SWAP1 PUSH2 0x10A6 JUMP JUMPDEST SWAP8 POP JUMPDEST PUSH0 DUP9 GT PUSH2 0x7A5 JUMPI PUSH1 0x40 MLOAD PUSH32 0x8C379A000000000000000000000000000000000000000000000000000000000 DUP2 MSTORE PUSH1 0x4 ADD PUSH2 0x79C SWAP1 PUSH2 0x1304 JUMP JUMPDEST PUSH1 0x40 MLOAD DUP1 SWAP2 SUB SWAP1 REVERT JUMPDEST PUSH2 0x7AF DUP8 DUP10 PUSH2 0xD0A JUMP JUMPDEST PUSH2 0x7CF DUP5 DUP4 PUSH2 0x7BE SWAP2 SWAP1 PUSH2 0x1287 JUMP JUMPDEST DUP5 DUP4 PUSH2 0x7CA SWAP2 SWAP1 PUSH2 0x1287 JUMP JUMPDEST PUSH2 0xC8A JUMP JUMPDEST POP POP POP POP POP POP POP SWAP3 SWAP2 POP POP JUMP JUMPDEST PUSH1 0x2 SLOAD DUP2 JUMP JUMPDEST PUSH0 DUP1 CALLER SWAP1 POP PUSH32 0x0 PUSH20 0xFFFFFFFFFFFFFFFFFFFFFFFFFFFFFFFFFFFFFFFF AND DUP5 PUSH20 0xFFFFFFFFFFFFFFFFFFFFFFFFFFFFFFFFFFFFFFFF AND EQ DUP1 PUSH2 0x88C JUMPI POP PUSH32 0x0 PUSH20 0xFFFFFFFFFFFFFFFFFFFFFFFFFFFFFFFFFFFFFFFF AND DUP5 PUSH20 0xFFFFFFFFFFFFFFFFFFFFFFFFFFFFFFFFFFFFFFFF AND EQ JUMPDEST PUSH2 0x8CB JUMPI PUSH1 0x40 MLOAD PUSH32 0x8C379A000000000000000000000000000000000000000000000000000000000 DUP2 MSTORE PUSH1 0x4 ADD PUSH2 0x8C2 SWAP1 PUSH2 0x136C JUMP JUMPDEST PUSH1 0x40 MLOAD DUP1 SWAP2 SUB SWAP1 REVERT JUMPDEST PUSH0 PUSH32 0x0 PUSH20 0xFFFFFFFFFFFFFFFFFFFFFFFFFFFFFFFFFFFFFFFF AND DUP6 PUSH20 0xFFFFFFFFFFFFFFFFFFFFFFFFFFFFFFFFFFFFFFFF AND EQ SWAP1 POP PUSH0 DUP1 DUP3 PUSH2 0x96B JUMPI PUSH32 0x0 PUSH32 0x0 PUSH2 0x9AE JUMP JUMPDEST PUSH32 0x0 PUSH32 0x0 JUMPDEST SWAP2 POP SWAP2 POP PUSH0 DUP7 SWAP1 POP PUSH0 DUP5 PUSH2 0x9C4 JUMPI PUSH1 0x1 SLOAD PUSH2 0x9C7 JUMP JUMPDEST PUSH0 SLOAD JUMPDEST SWAP1 POP PUSH0 DUP5 PUSH20 0xFFFFFFFFFFFFFFFFFFFFFFFFFFFFFFFFFFFFFFFF AND PUSH4 0x23B872DD DUP9 ADDRESS DUP7 PUSH1 0x40 MLOAD DUP5 PUSH4 0xFFFFFFFF AND PUSH1 0xE0 SHL DUP2 MSTORE PUSH1 0x4 ADD PUSH2 0xA07 SWAP4 SWAP3 SWAP2 SWAP1 PUSH2 0x11FA JUMP JUMPDEST PUSH1 0x20 PUSH1 0x40 MLOAD DUP1 DUP4 SUB DUP2 PUSH0 DUP8 GAS CALL ISZERO DUP1 ISZERO PUSH2 0xA23 JUMPI RETURNDATASIZE PUSH0 DUP1 RETURNDATACOPY RETURNDATASIZE PUSH0 REVERT JUMPDEST POP POP POP POP PUSH1 0x40 MLOAD RETURNDATASIZE PUSH1 0x1F NOT PUSH1 0x1F DUP3 ADD AND DUP3 ADD DUP1 PUSH1 0x40 MSTORE POP DUP2 ADD SWAP1 PUSH2 0xA47 SWAP2 SWAP1 PUSH2 0x118D JUMP JUMPDEST POP DUP2 DUP6 PUSH20 0xFFFFFFFFFFFFFFFFFFFFFFFFFFFFFFFFFFFFFFFF AND PUSH4 0x70A08231 ADDRESS PUSH1 0x40 MLOAD DUP3 PUSH4 0xFFFFFFFF AND PUSH1 0xE0 SHL DUP2 MSTORE PUSH1 0x4 ADD PUSH2 0xA82 SWAP2 SWAP1 PUSH2 0x122F JUMP JUMPDEST PUSH1 0x20 PUSH1 0x40 MLOAD DUP1 DUP4 SUB DUP2 DUP7 GAS STATICCALL ISZERO DUP1 ISZERO PUSH2 0xA9D JUMPI RETURNDATASIZE PUSH0 DUP1 RETURNDATACOPY RETURNDATASIZE PUSH0 REVERT JUMPDEST POP POP POP POP PUSH1 0x40 MLOAD RETURNDATASIZE PUSH1 0x1F NOT PUSH1 0x1F DUP3 ADD AND DUP3 ADD DUP1 PUSH1 0x40 MSTORE POP DUP2 ADD SWAP1 PUSH2 0xAC1 SWAP2 SWAP1 PUSH2 0x125C JUMP JUMPDEST PUSH2 0xACB SWAP2 SWAP1 PUSH2 0x11B8 JUMP JUMPDEST SWAP1 POP PUSH0 PUSH2 0x3E8 PUSH2 0x3E5 DUP4 PUSH2 0xADF SWAP2 SWAP1 PUSH2 0x1038 JUMP JUMPDEST PUSH2 0xAE9 SWAP2 SWAP1 PUSH2 0x10A6 JUMP JUMPDEST SWAP1 POP DUP5 PUSH20 0xFFFFFFFFFFFFFFFFFFFFFFFFFFFFFFFFFFFFFFFF AND PUSH4 0xA9059CBB DUP10 DUP4 PUSH1 0x40 MLOAD DUP4 PUSH4 0xFFFFFFFF AND PUSH1 0xE0 SHL DUP2 MSTORE PUSH1 0x4 ADD PUSH2 0xB26 SWAP3 SWAP2 SWAP1 PUSH2 0x1131 JUMP JUMPDEST PUSH1 0x20 PUSH1 0x40 MLOAD DUP1 DUP4 SUB DUP2 PUSH0 DUP8 GAS CALL ISZERO DUP1 ISZERO PUSH2 0xB42 JUMPI RETURNDATASIZE PUSH0 DUP1 RETURNDATACOPY RETURNDATASIZE PUSH0 REVERT JUMPDEST POP POP POP POP PUSH1 0x40 MLOAD RETURNDATASIZE PUSH1 0x1F NOT PUSH1 0x1F DUP3 ADD AND DUP3 ADD DUP1 PUSH1 0x40 MSTORE POP DUP2 ADD SWAP1 PUSH2 0xB66 SWAP2 SWAP1 PUSH2 0x118D JUMP JUMPDEST POP DUP7 ISZERO PUSH2 0xBF5 JUMPI DUP4 PUSH0 DUP1 DUP3 DUP3 SLOAD PUSH2 0xB7D SWAP2 SWAP1 PUSH2 0x1287 JUMP JUMPDEST SWAP3 POP POP DUP2 SWAP1 SSTORE POP DUP1 PUSH1 0x1 PUSH0 DUP3 DUP3 SLOAD PUSH2 0xB95 SWAP2 SWAP1 PUSH2 0x11B8 JUMP JUMPDEST SWAP3 POP POP DUP2 SWAP1 SSTORE POP DUP8 PUSH20 0xFFFFFFFFFFFFFFFFFFFFFFFFFFFFFFFFFFFFFFFF AND PUSH32 0x49926BBEBE8474393F434DFA4F78694C0923EFA07D19F2284518BFABD06EB737 DUP6 PUSH0 DUP5 PUSH0 PUSH1 0x40 MLOAD PUSH2 0xBE8 SWAP5 SWAP4 SWAP3 SWAP2 SWAP1 PUSH2 0x13C3 JUMP JUMPDEST PUSH1 0x40 MLOAD DUP1 SWAP2 SUB SWAP1 LOG2 PUSH2 0xC79 JUMP JUMPDEST DUP1 PUSH0 DUP1 DUP3 DUP3 SLOAD PUSH2 0xC05 SWAP2 SWAP1 PUSH2 0x11B8 JUMP JUMPDEST SWAP3 POP POP DUP2 SWAP1 SSTORE POP DUP4 PUSH1 0x1 PUSH0 DUP3 DUP3 SLOAD PUSH2 0xC1D SWAP2 SWAP1 PUSH2 0x1287 JUMP JUMPDEST SWAP3 POP POP DUP2 SWAP1 SSTORE POP DUP8 PUSH20 0xFFFFFFFFFFFFFFFFFFFFFFFFFFFFFFFFFFFFFFFF AND PUSH32 0x49926BBEBE8474393F434DFA4F78694C0923EFA07D19F2284518BFABD06EB737 PUSH0 DUP7 PUSH0 DUP6 PUSH1 0x40 MLOAD PUSH2 0xC70 SWAP5 SWAP4 SWAP3 SWAP2 SWAP1 PUSH2 0x1406 JUMP JUMPDEST PUSH1 0x40 MLOAD DUP1 SWAP2 SUB SWAP1 LOG2 JUMPDEST DUP1 SWAP9 POP POP POP POP POP POP POP POP POP SWAP3 SWAP2 POP POP JUMP JUMPDEST DUP2 PUSH0 DUP2 SWAP1 SSTORE POP DUP1 PUSH1 0x1 DUP2 SWAP1 SSTORE POP POP POP JUMP JUMPDEST DUP1 PUSH1 0x2 PUSH0 DUP3 DUP3 SLOAD PUSH2 0xCAC SWAP2 SWAP1 PUSH2 0x11B8 JUMP JUMPDEST SWAP3 POP POP DUP2 SWAP1 SSTORE POP DUP1 PUSH1 0x3 PUSH0 DUP5 PUSH20 0xFFFFFFFFFFFFFFFFFFFFFFFFFFFFFFFFFFFFFFFF AND PUSH20 0xFFFFFFFFFFFFFFFFFFFFFFFFFFFFFFFFFFFFFFFF AND DUP2 MSTORE PUSH1 0x20 ADD SWAP1 DUP2 MSTORE PUSH1 0x20 ADD PUSH0 KECCAK256 PUSH0 DUP3 DUP3 SLOAD PUSH2 0xCFF SWAP2 SWAP1 PUSH2 0x11B8 JUMP JUMPDEST SWAP3 POP POP DUP2 SWAP1 SSTORE POP POP POP JUMP JUMPDEST DUP1 PUSH1 0x2 PUSH0 DUP3 DUP3 SLOAD PUSH2 0xD1B SWAP2 SWAP1 PUSH2 0x1287 JUMP JUMPDEST SWAP3 POP POP DUP2 SWAP1 SSTORE POP DUP1 PUSH1 0x3 PUSH0 DUP5 PUSH20 0xFFFFFFFFFFFFFFFFFFFFFFFFFFFFFFFFFFFFFFFF AND PUSH20 0xFFFFFFFFFFFFFFFFFFFFFFFFFFFFFFFFFFFFFFFF AND DUP2 MSTORE PUSH1 0x20 ADD SWAP1 DUP2 MSTORE PUSH1 0x20 ADD PUSH0 KECCAK256 PUSH0 DUP3 DUP3 SLOAD PUSH2 0xD6E SWAP2 SWAP1 PUSH2 0x1287 JUMP JUMPDEST SWAP3 POP POP DUP2 SWAP1 SSTORE POP POP POP JUMP JUMPDEST PUSH0 DUP2 SWAP1 POP SWAP2 SWAP1 POP JUMP JUMPDEST PUSH2 0xD8B DUP2 PUSH2 0xD79 JUMP JUMPDEST DUP3 MSTORE POP POP JUMP JUMPDEST PUSH0 PUSH1 0x20 DUP3 ADD SWAP1 POP PUSH2 0xDA4 PUSH0 DUP4 ADD DUP5 PUSH2 0xD82 JUMP JUMPDEST SWAP3 SWAP2 POP POP JUMP JUMPDEST PUSH0 DUP1 REVERT JUMPDEST PUSH0 PUSH20 0xFFFFFFFFFFFFFFFFFFFFFFFFFFFFFFFFFFFFFFFF DUP3 AND SWAP1 POP SWAP2 SWAP1 POP JUMP JUMPDEST PUSH0 PUSH2 0xDD7 DUP3 PUSH2 0xDAE JUMP JUMPDEST SWAP1 POP SWAP2 SWAP1 POP JUMP JUMPDEST PUSH2 0xDE7 DUP2 PUSH2 0xDCD JUMP JUMPDEST DUP2 EQ PUSH2 0xDF1 JUMPI PUSH0 DUP1 REVERT JUMPDEST POP JUMP JUMPDEST PUSH0 DUP2 CALLDATALOAD SWAP1 POP PUSH2 0xE02 DUP2 PUSH2 0xDDE JUMP JUMPDEST SWAP3 SWAP2 POP POP JUMP JUMPDEST PUSH0 PUSH1 0x20 DUP3 DUP5 SUB SLT ISZERO PUSH2 0xE1D JUMPI PUSH2 0xE1C PUSH2 0xDAA JUMP JUMPDEST JUMPDEST PUSH0 PUSH2 0xE2A DUP5 DUP3 DUP6 ADD PUSH2 0xDF4 JUMP JUMPDEST SWAP2 POP POP SWAP3 SWAP2 POP POP JUMP JUMPDEST PUSH2 0xE3C DUP2 PUSH2 0xD79 JUMP JUMPDEST DUP2 EQ PUSH2 0xE46 JUMPI PUSH0 DUP1 REVERT JUMPDEST POP JUMP JUMPDEST PUSH0 DUP2 CALLDATALOAD SWAP1 POP PUSH2 0xE57 DUP2 PUSH2 0xE33 JUMP JUMPDEST SWAP3 SWAP2 POP POP JUMP JUMPDEST PUSH0 PUSH1 0x20 DUP3 DUP5 SUB SLT ISZERO PUSH2 0xE72 JUMPI PUSH2 0xE71 PUSH2 0xDAA JUMP JUMPDEST JUMPDEST PUSH0 PUSH2 0xE7F DUP5 DUP3 DUP6 ADD PUSH2 0xE49 JUMP JUMPDEST SWAP2 POP POP SWAP3 SWAP2 POP POP JUMP JUMPDEST PUSH0 PUSH1 0x40 DUP3 ADD SWAP1 POP PUSH2 0xE9B PUSH0 DUP4 ADD DUP6 PUSH2 0xD82 JUMP JUMPDEST PUSH2 0xEA8 PUSH1 0x20 DUP4 ADD DUP5 PUSH2 0xD82 JUMP JUMPDEST SWAP4 SWAP3 POP POP POP JUMP JUMPDEST PUSH0 DUP1 PUSH1 0x40 DUP4 DUP6 SUB SLT ISZERO PUSH2 0xEC5 JUMPI PUSH2 0xEC4 PUSH2 0xDAA JUMP JUMPDEST JUMPDEST PUSH0 PUSH2 0xED2 DUP6 DUP3 DUP7 ADD PUSH2 0xE49 JUMP JUMPDEST SWAP3 POP POP PUSH1 0x20 PUSH2 0xEE3 DUP6 DUP3 DUP7 ADD PUSH2 0xE49 JUMP JUMPDEST SWAP2 POP POP SWAP3 POP SWAP3 SWAP1 POP JUMP JUMPDEST PUSH0 DUP1 PUSH1 0x40 DUP4 DUP6 SUB SLT ISZERO PUSH2 0xF03 JUMPI PUSH2 0xF02 PUSH2 0xDAA JUMP JUMPDEST JUMPDEST PUSH0 PUSH2 0xF10 DUP6 DUP3 DUP7 ADD PUSH2 0xDF4 JUMP JUMPDEST SWAP3 POP POP PUSH1 0x20 PUSH2 0xF21 DUP6 DUP3 DUP7 ADD PUSH2 0xE49 JUMP JUMPDEST SWAP2 POP POP SWAP3 POP SWAP3 SWAP1 POP JUMP JUMPDEST PUSH0 DUP3 DUP3 MSTORE PUSH1 0x20 DUP3 ADD SWAP1 POP SWAP3 SWAP2 POP POP JUMP JUMPDEST PUSH32 0x2073686172652073686F756C64203E2030000000000000000000000000000000 PUSH0 DUP3 ADD MSTORE POP JUMP JUMPDEST PUSH0 PUSH2 0xF6F PUSH1 0x11 DUP4 PUSH2 0xF2B JUMP JUMPDEST SWAP2 POP PUSH2 0xF7A DUP3 PUSH2 0xF3B JUMP JUMPDEST PUSH1 0x20 DUP3 ADD SWAP1 POP SWAP2 SWAP1 POP JUMP JUMPDEST PUSH0 PUSH1 0x20 DUP3 ADD SWAP1 POP DUP2 DUP2 SUB PUSH0 DUP4 ADD MSTORE PUSH2 0xF9C DUP2 PUSH2 0xF63 JUMP JUMPDEST SWAP1 POP SWAP2 SWAP1 POP JUMP JUMPDEST PUSH32 0x6E6F7420656E6F7567682073686172657320746F2072656D6F76650000000000 PUSH0 DUP3 ADD MSTORE POP JUMP JUMPDEST PUSH0 PUSH2 0xFD7 PUSH1 0x1B DUP4 PUSH2 0xF2B JUMP JUMPDEST SWAP2 POP PUSH2 0xFE2 DUP3 PUSH2 0xFA3 JUMP JUMPDEST PUSH1 0x20 DUP3 ADD SWAP1 POP SWAP2 SWAP1 POP JUMP JUMPDEST PUSH0 PUSH1 0x20 DUP3 ADD SWAP1 POP DUP2 DUP2 SUB PUSH0 DUP4 ADD MSTORE PUSH2 0x1004 DUP2 PUSH2 0xFCB JUMP JUMPDEST SWAP1 POP SWAP2 SWAP1 POP JUMP JUMPDEST PUSH32 0x4E487B7100000000000000000000000000000000000000000000000000000000 PUSH0 MSTORE PUSH1 0x11 PUSH1 0x4 MSTORE PUSH1 0x24 PUSH0 REVERT JUMPDEST PUSH0 PUSH2 0x1042 DUP3 PUSH2 0xD79 JUMP JUMPDEST SWAP2 POP PUSH2 0x104D DUP4 PUSH2 0xD79 JUMP JUMPDEST SWAP3 POP DUP3 DUP3 MUL PUSH2 0x105B DUP2 PUSH2 0xD79 JUMP JUMPDEST SWAP2 POP DUP3 DUP3 DIV DUP5 EQ DUP4 ISZERO OR PUSH2 0x1072 JUMPI PUSH2 0x1071 PUSH2 0x100B JUMP JUMPDEST JUMPDEST POP SWAP3 SWAP2 POP POP JUMP JUMPDEST PUSH32 0x4E487B7100000000000000000000000000000000000000000000000000000000 PUSH0 MSTORE PUSH1 0x12 PUSH1 0x4 MSTORE PUSH1 0x24 PUSH0 REVERT JUMPDEST PUSH0 PUSH2 0x10B0 DUP3 PUSH2 0xD79 JUMP JUMPDEST SWAP2 POP PUSH2 0x10BB DUP4 PUSH2 0xD79 JUMP JUMPDEST SWAP3 POP DUP3 PUSH2 0x10CB JUMPI PUSH2 0x10CA PUSH2 0x1079 JUMP JUMPDEST JUMPDEST DUP3 DUP3 DIV SWAP1 POP SWAP3 SWAP2 POP POP JUMP JUMPDEST PUSH0 DUP2 SWAP1 POP SWAP2 SWAP1 POP JUMP JUMPDEST PUSH0 PUSH2 0x10F9 PUSH2 0x10F4 PUSH2 0x10EF DUP5 PUSH2 0xDAE JUMP JUMPDEST PUSH2 0x10D6 JUMP JUMPDEST PUSH2 0xDAE JUMP JUMPDEST SWAP1 POP SWAP2 SWAP1 POP JUMP JUMPDEST PUSH0 PUSH2 0x110A DUP3 PUSH2 0x10DF JUMP JUMPDEST SWAP1 POP SWAP2 SWAP1 POP JUMP JUMPDEST PUSH0 PUSH2 0x111B DUP3 PUSH2 0x1100 JUMP JUMPDEST SWAP1 POP SWAP2 SWAP1 POP JUMP JUMPDEST PUSH2 0x112B DUP2 PUSH2 0x1111 JUMP JUMPDEST DUP3 MSTORE POP POP JUMP JUMPDEST PUSH0 PUSH1 0x40 DUP3 ADD SWAP1 POP PUSH2 0x1144 PUSH0 DUP4 ADD DUP6 PUSH2 0x1122 JUMP JUMPDEST PUSH2 0x1151 PUSH1 0x20 DUP4 ADD DUP5 PUSH2 0xD82 JUMP JUMPDEST SWAP4 SWAP3 POP POP POP JUMP JUMPDEST PUSH0 DUP2 ISZERO ISZERO SWAP1 POP SWAP2 SWAP1 POP JUMP JUMPDEST PUSH2 0x116C DUP2 PUSH2 0x1158 JUMP JUMPDEST DUP2 EQ PUSH2 0x1176 JUMPI PUSH0 DUP1 REVERT JUMPDEST POP JUMP JUMPDEST PUSH0 DUP2 MLOAD SWAP1 POP PUSH2 0x1187 DUP2 PUSH2 0x1163 JUMP JUMPDEST SWAP3 SWAP2 POP POP JUMP JUMPDEST PUSH0 PUSH1 0x20 DUP3 DUP5 SUB SLT ISZERO PUSH2 0x11A2 JUMPI PUSH2 0x11A1 PUSH2 0xDAA JUMP JUMPDEST JUMPDEST PUSH0 PUSH2 0x11AF DUP5 DUP3 DUP6 ADD PUSH2 0x1179 JUMP JUMPDEST SWAP2 POP POP SWAP3 SWAP2 POP POP JUMP JUMPDEST PUSH0 PUSH2 0x11C2 DUP3 PUSH2 0xD79 JUMP JUMPDEST SWAP2 POP PUSH2 0x11CD DUP4 PUSH2 0xD79 JUMP JUMPDEST SWAP3 POP DUP3 DUP3 SUB SWAP1 POP DUP2 DUP2 GT ISZERO PUSH2 0x11E5 JUMPI PUSH2 0x11E4 PUSH2 0x100B JUMP JUMPDEST JUMPDEST SWAP3 SWAP2 POP POP JUMP JUMPDEST PUSH2 0x11F4 DUP2 PUSH2 0xDCD JUMP JUMPDEST DUP3 MSTORE POP POP JUMP JUMPDEST PUSH0 PUSH1 0x60 DUP3 ADD SWAP1 POP PUSH2 0x120D PUSH0 DUP4 ADD DUP7 PUSH2 0x1122 JUMP JUMPDEST PUSH2 0x121A PUSH1 0x20 DUP4 ADD DUP6 PUSH2 0x11EB JUMP JUMPDEST PUSH2 0x1227 PUSH1 0x40 DUP4 ADD DUP5 PUSH2 0xD82 JUMP JUMPDEST SWAP5 SWAP4 POP POP POP POP JUMP JUMPDEST PUSH0 PUSH1 0x20 DUP3 ADD SWAP1 POP PUSH2 0x1242 PUSH0 DUP4 ADD DUP5 PUSH2 0x11EB JUMP JUMPDEST SWAP3 SWAP2 POP POP JUMP JUMPDEST PUSH0 DUP2 MLOAD SWAP1 POP PUSH2 0x1256 DUP2 PUSH2 0xE33 JUMP JUMPDEST SWAP3 SWAP2 POP POP JUMP JUMPDEST PUSH0 PUSH1 0x20 DUP3 DUP5 SUB SLT ISZERO PUSH2 0x1271 JUMPI PUSH2 0x1270 PUSH2 0xDAA JUMP JUMPDEST JUMPDEST PUSH0 PUSH2 0x127E DUP5 DUP3 DUP6 ADD PUSH2 0x1248 JUMP JUMPDEST SWAP2 POP POP SWAP3 SWAP2 POP POP JUMP JUMPDEST PUSH0 PUSH2 0x1291 DUP3 PUSH2 0xD79 JUMP JUMPDEST SWAP2 POP PUSH2 0x129C DUP4 PUSH2 0xD79 JUMP JUMPDEST SWAP3 POP DUP3 DUP3 ADD SWAP1 POP DUP1 DUP3 GT ISZERO PUSH2 0x12B4 JUMPI PUSH2 0x12B3 PUSH2 0x100B JUMP JUMPDEST JUMPDEST SWAP3 SWAP2 POP POP JUMP JUMPDEST PUSH32 0x736861726573203C203000000000000000000000000000000000000000000000 PUSH0 DUP3 ADD MSTORE POP JUMP JUMPDEST PUSH0 PUSH2 0x12EE PUSH1 0xA DUP4 PUSH2 0xF2B JUMP JUMPDEST SWAP2 POP PUSH2 0x12F9 DUP3 PUSH2 0x12BA JUMP JUMPDEST PUSH1 0x20 DUP3 ADD SWAP1 POP SWAP2 SWAP1 POP JUMP JUMPDEST PUSH0 PUSH1 0x20 DUP3 ADD SWAP1 POP DUP2 DUP2 SUB PUSH0 DUP4 ADD MSTORE PUSH2 0x131B DUP2 PUSH2 0x12E2 JUMP JUMPDEST SWAP1 POP SWAP2 SWAP1 POP JUMP JUMPDEST PUSH32 0x546F6B656E20696E76616C696400000000000000000000000000000000000000 PUSH0 DUP3 ADD MSTORE POP JUMP JUMPDEST PUSH0 PUSH2 0x1356 PUSH1 0xD DUP4 PUSH2 0xF2B JUMP JUMPDEST SWAP2 POP PUSH2 0x1361 DUP3 PUSH2 0x1322 JUMP JUMPDEST PUSH1 0x20 DUP3 ADD SWAP1 POP SWAP2 SWAP1 POP JUMP JUMPDEST PUSH0 PUSH1 0x20 DUP3 ADD SWAP1 POP DUP2 DUP2 SUB PUSH0 DUP4 ADD MSTORE PUSH2 0x1383 DUP2 PUSH2 0x134A JUMP JUMPDEST SWAP1 POP SWAP2 SWAP1 POP JUMP JUMPDEST PUSH0 DUP2 SWAP1 POP SWAP2 SWAP1 POP JUMP JUMPDEST PUSH0 PUSH2 0x13AD PUSH2 0x13A8 PUSH2 0x13A3 DUP5 PUSH2 0x138A JUMP JUMPDEST PUSH2 0x10D6 JUMP JUMPDEST PUSH2 0xD79 JUMP JUMPDEST SWAP1 POP SWAP2 SWAP1 POP JUMP JUMPDEST PUSH2 0x13BD DUP2 PUSH2 0x1393 JUMP JUMPDEST DUP3 MSTORE POP POP JUMP JUMPDEST PUSH0 PUSH1 0x80 DUP3 ADD SWAP1 POP PUSH2 0x13D6 PUSH0 DUP4 ADD DUP8 PUSH2 0xD82 JUMP JUMPDEST PUSH2 0x13E3 PUSH1 0x20 DUP4 ADD DUP7 PUSH2 0x13B4 JUMP JUMPDEST PUSH2 0x13F0 PUSH1 0x40 DUP4 ADD DUP6 PUSH2 0xD82 JUMP JUMPDEST PUSH2 0x13FD PUSH1 0x60 DUP4 ADD DUP5 PUSH2 0x13B4 JUMP JUMPDEST SWAP6 SWAP5 POP POP POP POP POP JUMP JUMPDEST PUSH0 PUSH1 0x80 DUP3 ADD SWAP1 POP PUSH2 0x1419 PUSH0 DUP4 ADD DUP8 PUSH2 0x13B4 JUMP JUMPDEST PUSH2 0x1426 PUSH1 0x20 DUP4 ADD DUP7 PUSH2 0xD82 JUMP JUMPDEST PUSH2 0x1433 PUSH1 0x40 DUP4 ADD DUP6 PUSH2 0x13B4 JUMP JUMPDEST PUSH2 0x1440 PUSH1 0x60 DUP4 ADD DUP5 PUSH2 0xD82 JUMP JUMPDEST SWAP6 SWAP5 POP POP POP POP POP JUMP INVALID LOG2 PUSH5 0x6970667358 0x22 SLT KECCAK256 PUSH18 0x6AF96A7C0CC24BF8DC59848307EAFDE54E80 0xD4 PUSH5 0xB06577239 0xB2 XOR PUSH23 0x79B9F364736F6C634300081A0033000000000000000000 "
				},
				"gasEstimates": {
					"creation": {
						"codeDepositCost": "1049400",
						"executionCost": "infinite",
						"totalCost": "infinite"
					},
					"external": {
						"addLiquidity(uint256,uint256)": "infinite",
						"balanceOf(address)": "2847",
						"removeLiquidity(uint256)": "infinite",
						"reverse0()": "2447",
						"reverse1()": "2426",
						"swap(address,uint256)": "infinite",
						"totalSupplyShares()": "2469"
					},
					"internal": {
						"_burn(address,uint256)": "infinite",
						"_mint(address,uint256)": "infinite",
						"_updateLiquidity(uint256,uint256)": "44240"
					}
				},
				"methodIdentifiers": {
					"addLiquidity(uint256,uint256)": "9cd441da",
					"balanceOf(address)": "70a08231",
					"removeLiquidity(uint256)": "9c8f9f23",
					"reverse0()": "4da296a9",
					"reverse1()": "0d5eb908",
					"swap(address,uint256)": "d004f0f7",
					"totalSupplyShares()": "ba7bde55"
				}
			},
			"storageLayout": {
				"storage": [
					{
						"astId": 808,
						"contract": "CSAMM.sol:MyCSAMM",
						"label": "reverse0",
						"offset": 0,
						"slot": "0",
						"type": "t_uint256"
					},
					{
						"astId": 810,
						"contract": "CSAMM.sol:MyCSAMM",
						"label": "reverse1",
						"offset": 0,
						"slot": "1",
						"type": "t_uint256"
					},
					{
						"astId": 812,
						"contract": "CSAMM.sol:MyCSAMM",
						"label": "totalSupplyShares",
						"offset": 0,
						"slot": "2",
						"type": "t_uint256"
					},
					{
						"astId": 816,
						"contract": "CSAMM.sol:MyCSAMM",
						"label": "balanceOf",
						"offset": 0,
						"slot": "3",
						"type": "t_mapping(t_address,t_uint256)"
					}
				],
				"types": {
					"t_address": {
						"encoding": "inplace",
						"label": "address",
						"numberOfBytes": "20"
					},
					"t_mapping(t_address,t_uint256)": {
						"encoding": "mapping",
						"key": "t_address",
						"label": "mapping(address => uint256)",
						"numberOfBytes": "32",
						"value": "t_uint256"
					},
					"t_uint256": {
						"encoding": "inplace",
						"label": "uint256",
						"numberOfBytes": "32"
					}
				}
			},
			"userdoc": {
				"kind": "user",
				"methods": {},
				"version": 1
			}
		}
	}
}