{
	"ERC721.sol": {
		"MyNFT": {
			"abi": [
				{
					"anonymous": false,
					"inputs": [
						{
							"indexed": true,
							"internalType": "address",
							"name": "owner",
							"type": "address"
						},
						{
							"indexed": true,
							"internalType": "address",
							"name": "spender",
							"type": "address"
						},
						{
							"indexed": true,
							"internalType": "uint256",
							"name": "id",
							"type": "uint256"
						}
					],
					"name": "Approval",
					"type": "event"
				},
				{
					"anonymous": false,
					"inputs": [
						{
							"indexed": true,
							"internalType": "address",
							"name": "owner",
							"type": "address"
						},
						{
							"indexed": true,
							"internalType": "address",
							"name": "operator",
							"type": "address"
						},
						{
							"indexed": false,
							"internalType": "bool",
							"name": "approved",
							"type": "bool"
						}
					],
					"name": "ApprovalForAll",
					"type": "event"
				},
				{
					"anonymous": false,
					"inputs": [
						{
							"indexed": true,
							"internalType": "address",
							"name": "from",
							"type": "address"
						},
						{
							"indexed": true,
							"internalType": "address",
							"name": "to",
							"type": "address"
						},
						{
							"indexed": true,
							"internalType": "uint256",
							"name": "id",
							"type": "uint256"
						}
					],
					"name": "Transfer",
					"type": "event"
				},
				{
					"inputs": [
						{
							"internalType": "address",
							"name": "spender",
							"type": "address"
						},
						{
							"internalType": "uint256",
							"name": "id",
							"type": "uint256"
						}
					],
					"name": "approve",
					"outputs": [],
					"stateMutability": "nonpayable",
					"type": "function"
				},
				{
					"inputs": [
						{
							"internalType": "address",
							"name": "owner",
							"type": "address"
						}
					],
					"name": "balanceOf",
					"outputs": [
						{
							"internalType": "uint256",
							"name": "",
							"type": "uint256"
						}
					],
					"stateMutability": "view",
					"type": "function"
				},
				{
					"inputs": [
						{
							"internalType": "uint256",
							"name": "id",
							"type": "uint256"
						}
					],
					"name": "burn",
					"outputs": [],
					"stateMutability": "nonpayable",
					"type": "function"
				},
				{
					"inputs": [
						{
							"internalType": "uint256",
							"name": "id",
							"type": "uint256"
						}
					],
					"name": "getApproved",
					"outputs": [
						{
							"internalType": "address",
							"name": "",
							"type": "address"
						}
					],
					"stateMutability": "view",
					"type": "function"
				},
				{
					"inputs": [
						{
							"internalType": "uint256",
							"name": "id",
							"type": "uint256"
						}
					],
					"name": "getNFTApproved",
					"outputs": [
						{
							"internalType": "address",
							"name": "",
							"type": "address"
						}
					],
					"stateMutability": "view",
					"type": "function"
				},
				{
					"inputs": [
						{
							"internalType": "address",
							"name": "",
							"type": "address"
						},
						{
							"internalType": "address",
							"name": "",
							"type": "address"
						}
					],
					"name": "isApprovedForAll",
					"outputs": [
						{
							"internalType": "bool",
							"name": "",
							"type": "bool"
						}
					],
					"stateMutability": "view",
					"type": "function"
				},
				{
					"inputs": [
						{
							"internalType": "address",
							"name": "to",
							"type": "address"
						},
						{
							"internalType": "uint256",
							"name": "id",
							"type": "uint256"
						}
					],
					"name": "mint",
					"outputs": [],
					"stateMutability": "nonpayable",
					"type": "function"
				},
				{
					"inputs": [
						{
							"internalType": "uint256",
							"name": "id",
							"type": "uint256"
						}
					],
					"name": "ownerOf",
					"outputs": [
						{
							"internalType": "address",
							"name": "owner",
							"type": "address"
						}
					],
					"stateMutability": "view",
					"type": "function"
				},
				{
					"inputs": [
						{
							"internalType": "address",
							"name": "from",
							"type": "address"
						},
						{
							"internalType": "address",
							"name": "to",
							"type": "address"
						},
						{
							"internalType": "uint256",
							"name": "id",
							"type": "uint256"
						}
					],
					"name": "safeTransferFrom",
					"outputs": [],
					"stateMutability": "nonpayable",
					"type": "function"
				},
				{
					"inputs": [
						{
							"internalType": "address",
							"name": "from",
							"type": "address"
						},
						{
							"internalType": "address",
							"name": "to",
							"type": "address"
						},
						{
							"internalType": "uint256",
							"name": "id",
							"type": "uint256"
						},
						{
							"internalType": "bytes",
							"name": "data",
							"type": "bytes"
						}
					],
					"name": "safeTransferFrom",
					"outputs": [],
					"stateMutability": "nonpayable",
					"type": "function"
				},
				{
					"inputs": [
						{
							"internalType": "address",
							"name": "operator",
							"type": "address"
						},
						{
							"internalType": "bool",
							"name": "approved",
							"type": "bool"
						}
					],
					"name": "setApprovalForAll",
					"outputs": [],
					"stateMutability": "nonpayable",
					"type": "function"
				},
				{
					"inputs": [
						{
							"internalType": "bytes4",
							"name": "interfaceId",
							"type": "bytes4"
						}
					],
					"name": "supportsInterface",
					"outputs": [
						{
							"internalType": "bool",
							"name": "",
							"type": "bool"
						}
					],
					"stateMutability": "pure",
					"type": "function"
				},
				{
					"inputs": [
						{
							"internalType": "address",
							"name": "from",
							"type": "address"
						},
						{
							"internalType": "address",
							"name": "to",
							"type": "address"
						},
						{
							"internalType": "uint256",
							"name": "id",
							"type": "uint256"
						}
					],
					"name": "transferFrom",
					"outputs": [],
					"stateMutability": "nonpayable",
					"type": "function"
				}
			],
			"devdoc": {
				"kind": "dev",
				"methods": {},
				"version": 1
			},
			"evm": {
				"assembly": "    /* \"ERC721.sol\":5648:6084  contract MyNFT is ERC721 {... */\n  mstore(0x40, 0x80)\n  callvalue\n  dup1\n  iszero\n  tag_1\n  jumpi\n  0x00\n  dup1\n  revert\ntag_1:\n  pop\n  dataSize(sub_0)\n  dup1\n  dataOffset(sub_0)\n  0x00\n  codecopy\n  0x00\n  return\nstop\n\nsub_0: assembly {\n        /* \"ERC721.sol\":5648:6084  contract MyNFT is ERC721 {... */\n      mstore(0x40, 0x80)\n      callvalue\n      dup1\n      iszero\n      tag_1\n      jumpi\n      0x00\n      dup1\n      revert\n    tag_1:\n      pop\n      jumpi(tag_2, lt(calldatasize, 0x04))\n      shr(0xe0, calldataload(0x00))\n      dup1\n      0x42966c68\n      gt\n      tag_16\n      jumpi\n      dup1\n      0xa22cb465\n      gt\n      tag_17\n      jumpi\n      dup1\n      0xa22cb465\n      eq\n      tag_12\n      jumpi\n      dup1\n      0xb88d4fde\n      eq\n      tag_13\n      jumpi\n      dup1\n      0xe2006861\n      eq\n      tag_14\n      jumpi\n      dup1\n      0xe985e9c5\n      eq\n      tag_15\n      jumpi\n      jump(tag_2)\n    tag_17:\n      dup1\n      0x42966c68\n      eq\n      tag_9\n      jumpi\n      dup1\n      0x6352211e\n      eq\n      tag_10\n      jumpi\n      dup1\n      0x70a08231\n      eq\n      tag_11\n      jumpi\n      jump(tag_2)\n    tag_16:\n      dup1\n      0x01ffc9a7\n      eq\n      tag_3\n      jumpi\n      dup1\n      0x081812fc\n      eq\n      tag_4\n      jumpi\n      dup1\n      0x095ea7b3\n      eq\n      tag_5\n      jumpi\n      dup1\n      0x23b872dd\n      eq\n      tag_6\n      jumpi\n      dup1\n      0x40c10f19\n      eq\n      tag_7\n      jumpi\n      dup1\n      0x42842e0e\n      eq\n      tag_8\n      jumpi\n    tag_2:\n      0x00\n      dup1\n      revert\n        /* \"ERC721.sol\":2195:2426  function supportsInterface(bytes4 interfaceId)... */\n    tag_3:\n      tag_18\n      0x04\n      dup1\n      calldatasize\n      sub\n      dup2\n      add\n      swap1\n      tag_19\n      swap2\n      swap1\n      tag_20\n      jump\t// in\n    tag_19:\n      tag_21\n      jump\t// in\n    tag_18:\n      mload(0x40)\n      tag_22\n      swap2\n      swap1\n      tag_23\n      jump\t// in\n    tag_22:\n      mload(0x40)\n      dup1\n      swap2\n      sub\n      swap1\n      return\n        /* \"ERC721.sol\":3323:3497  function getApproved(uint256 id) external view returns (address) {... */\n    tag_4:\n      tag_24\n      0x04\n      dup1\n      calldatasize\n      sub\n      dup2\n      add\n      swap1\n      tag_25\n      swap2\n      swap1\n      tag_26\n      jump\t// in\n    tag_25:\n      tag_27\n      jump\t// in\n    tag_24:\n      mload(0x40)\n      tag_28\n      swap2\n      swap1\n      tag_29\n      jump\t// in\n    tag_28:\n      mload(0x40)\n      dup1\n      swap2\n      sub\n      swap1\n      return\n        /* \"ERC721.sol\":2997:3315  function approve(address spender, uint256 id) external {... */\n    tag_5:\n      tag_30\n      0x04\n      dup1\n      calldatasize\n      sub\n      dup2\n      add\n      swap1\n      tag_31\n      swap2\n      swap1\n      tag_32\n      jump\t// in\n    tag_31:\n      tag_33\n      jump\t// in\n    tag_30:\n      stop\n        /* \"ERC721.sol\":3796:4246  function transferFrom(address from, address to, uint256 id) public {... */\n    tag_6:\n      tag_34\n      0x04\n      dup1\n      calldatasize\n      sub\n      dup2\n      add\n      swap1\n      tag_35\n      swap2\n      swap1\n      tag_36\n      jump\t// in\n    tag_35:\n      tag_37\n      jump\t// in\n    tag_34:\n      stop\n        /* \"ERC721.sol\":5680:5759  function mint(address to, uint256 id) external {... */\n    tag_7:\n      tag_38\n      0x04\n      dup1\n      calldatasize\n      sub\n      dup2\n      add\n      swap1\n      tag_39\n      swap2\n      swap1\n      tag_32\n      jump\t// in\n    tag_39:\n      tag_40\n      jump\t// in\n    tag_38:\n      stop\n        /* \"ERC721.sol\":4254:4619  function safeTransferFrom(address from, address to, uint256 id) external {... */\n    tag_8:\n      tag_41\n      0x04\n      dup1\n      calldatasize\n      sub\n      dup2\n      add\n      swap1\n      tag_42\n      swap2\n      swap1\n      tag_36\n      jump\t// in\n    tag_42:\n      tag_43\n      jump\t// in\n    tag_41:\n      stop\n        /* \"ERC721.sol\":5767:5889  function burn(uint256 id) external {... */\n    tag_9:\n      tag_44\n      0x04\n      dup1\n      calldatasize\n      sub\n      dup2\n      add\n      swap1\n      tag_45\n      swap2\n      swap1\n      tag_26\n      jump\t// in\n    tag_45:\n      tag_46\n      jump\t// in\n    tag_44:\n      stop\n        /* \"ERC721.sol\":2434:2602  function ownerOf(uint256 id) external view returns (address owner) {... */\n    tag_10:\n      tag_47\n      0x04\n      dup1\n      calldatasize\n      sub\n      dup2\n      add\n      swap1\n      tag_48\n      swap2\n      swap1\n      tag_26\n      jump\t// in\n    tag_48:\n      tag_49\n      jump\t// in\n    tag_47:\n      mload(0x40)\n      tag_50\n      swap2\n      swap1\n      tag_29\n      jump\t// in\n    tag_50:\n      mload(0x40)\n      dup1\n      swap2\n      sub\n      swap1\n      return\n        /* \"ERC721.sol\":2610:2782  function balanceOf(address owner) external view returns (uint256) {... */\n    tag_11:\n      tag_51\n      0x04\n      dup1\n      calldatasize\n      sub\n      dup2\n      add\n      swap1\n      tag_52\n      swap2\n      swap1\n      tag_53\n      jump\t// in\n    tag_52:\n      tag_54\n      jump\t// in\n    tag_51:\n      mload(0x40)\n      tag_55\n      swap2\n      swap1\n      tag_56\n      jump\t// in\n    tag_55:\n      mload(0x40)\n      dup1\n      swap2\n      sub\n      swap1\n      return\n        /* \"ERC721.sol\":2790:2989  function setApprovalForAll(address operator, bool approved) external {... */\n    tag_12:\n      tag_57\n      0x04\n      dup1\n      calldatasize\n      sub\n      dup2\n      add\n      swap1\n      tag_58\n      swap2\n      swap1\n      tag_59\n      jump\t// in\n    tag_58:\n      tag_60\n      jump\t// in\n    tag_57:\n      stop\n        /* \"ERC721.sol\":4627:5058  function safeTransferFrom(... */\n    tag_13:\n      tag_61\n      0x04\n      dup1\n      calldatasize\n      sub\n      dup2\n      add\n      swap1\n      tag_62\n      swap2\n      swap1\n      tag_63\n      jump\t// in\n    tag_62:\n      tag_64\n      jump\t// in\n    tag_61:\n      stop\n        /* \"ERC721.sol\":5897:6081  function getNFTApproved(uint256 id) external view returns (address) {... */\n    tag_14:\n      tag_65\n      0x04\n      dup1\n      calldatasize\n      sub\n      dup2\n      add\n      swap1\n      tag_66\n      swap2\n      swap1\n      tag_26\n      jump\t// in\n    tag_66:\n      tag_67\n      jump\t// in\n    tag_65:\n      mload(0x40)\n      tag_68\n      swap2\n      swap1\n      tag_29\n      jump\t// in\n    tag_68:\n      mload(0x40)\n      dup1\n      swap2\n      sub\n      swap1\n      return\n        /* \"ERC721.sol\":2118:2186  mapping(address => mapping(address => bool)) public isApprovedForAll */\n    tag_15:\n      tag_69\n      0x04\n      dup1\n      calldatasize\n      sub\n      dup2\n      add\n      swap1\n      tag_70\n      swap2\n      swap1\n      tag_71\n      jump\t// in\n    tag_70:\n      tag_72\n      jump\t// in\n    tag_69:\n      mload(0x40)\n      tag_73\n      swap2\n      swap1\n      tag_23\n      jump\t// in\n    tag_73:\n      mload(0x40)\n      dup1\n      swap2\n      sub\n      swap1\n      return\n        /* \"ERC721.sol\":2195:2426  function supportsInterface(bytes4 interfaceId)... */\n    tag_21:\n        /* \"ERC721.sol\":2292:2296  bool */\n      0x00\n        /* \"ERC721.sol\":2336:2361  type(IERC721).interfaceId */\n      0x80ac58cd00000000000000000000000000000000000000000000000000000000\n        /* \"ERC721.sol\":2321:2361  interfaceId == type(IERC721).interfaceId */\n      not(0xffffffffffffffffffffffffffffffffffffffffffffffffffffffff)\n      and\n        /* \"ERC721.sol\":2321:2332  interfaceId */\n      dup3\n        /* \"ERC721.sol\":2321:2361  interfaceId == type(IERC721).interfaceId */\n      not(0xffffffffffffffffffffffffffffffffffffffffffffffffffffffff)\n      and\n      eq\n        /* \"ERC721.sol\":2321:2418  interfaceId == type(IERC721).interfaceId... */\n      dup1\n      tag_75\n      jumpi\n      pop\n        /* \"ERC721.sol\":2393:2418  type(IERC165).interfaceId */\n      0x01ffc9a700000000000000000000000000000000000000000000000000000000\n        /* \"ERC721.sol\":2378:2418  interfaceId == type(IERC165).interfaceId */\n      not(0xffffffffffffffffffffffffffffffffffffffffffffffffffffffff)\n      and\n        /* \"ERC721.sol\":2378:2389  interfaceId */\n      dup3\n        /* \"ERC721.sol\":2378:2418  interfaceId == type(IERC165).interfaceId */\n      not(0xffffffffffffffffffffffffffffffffffffffffffffffffffffffff)\n      and\n      eq\n        /* \"ERC721.sol\":2321:2418  interfaceId == type(IERC721).interfaceId... */\n    tag_75:\n        /* \"ERC721.sol\":2314:2418  return interfaceId == type(IERC721).interfaceId... */\n      swap1\n      pop\n        /* \"ERC721.sol\":2195:2426  function supportsInterface(bytes4 interfaceId)... */\n      swap2\n      swap1\n      pop\n      jump\t// out\n        /* \"ERC721.sol\":3323:3497  function getApproved(uint256 id) external view returns (address) {... */\n    tag_27:\n        /* \"ERC721.sol\":3379:3386  address */\n      0x00\n        /* \"ERC721.sol\":3431:3432  0 */\n      dup1\n        /* \"ERC721.sol\":3407:3433  _ownerOf[id] != address(0) */\n      0xffffffffffffffffffffffffffffffffffffffff\n      and\n        /* \"ERC721.sol\":3407:3415  _ownerOf */\n      0x00\n        /* \"ERC721.sol\":3407:3419  _ownerOf[id] */\n      dup1\n        /* \"ERC721.sol\":3416:3418  id */\n      dup5\n        /* \"ERC721.sol\":3407:3419  _ownerOf[id] */\n      dup2\n      mstore\n      0x20\n      add\n      swap1\n      dup2\n      mstore\n      0x20\n      add\n      0x00\n      keccak256\n      0x00\n      swap1\n      sload\n      swap1\n      0x0100\n      exp\n      swap1\n      div\n      0xffffffffffffffffffffffffffffffffffffffff\n      and\n        /* \"ERC721.sol\":3407:3433  _ownerOf[id] != address(0) */\n      0xffffffffffffffffffffffffffffffffffffffff\n      and\n      sub\n        /* \"ERC721.sol\":3399:3457  require(_ownerOf[id] != address(0), \"token doesn't exist\") */\n      tag_77\n      jumpi\n      mload(0x40)\n      0x08c379a000000000000000000000000000000000000000000000000000000000\n      dup2\n      mstore\n      0x04\n      add\n      tag_78\n      swap1\n      tag_79\n      jump\t// in\n    tag_78:\n      mload(0x40)\n      dup1\n      swap2\n      sub\n      swap1\n      revert\n    tag_77:\n        /* \"ERC721.sol\":3475:3485  _approvals */\n      0x02\n        /* \"ERC721.sol\":3475:3489  _approvals[id] */\n      0x00\n        /* \"ERC721.sol\":3486:3488  id */\n      dup4\n        /* \"ERC721.sol\":3475:3489  _approvals[id] */\n      dup2\n      mstore\n      0x20\n      add\n      swap1\n      dup2\n      mstore\n      0x20\n      add\n      0x00\n      keccak256\n      0x00\n      swap1\n      sload\n      swap1\n      0x0100\n      exp\n      swap1\n      div\n      0xffffffffffffffffffffffffffffffffffffffff\n      and\n        /* \"ERC721.sol\":3468:3489  return _approvals[id] */\n      swap1\n      pop\n        /* \"ERC721.sol\":3323:3497  function getApproved(uint256 id) external view returns (address) {... */\n      swap2\n      swap1\n      pop\n      jump\t// out\n        /* \"ERC721.sol\":2997:3315  function approve(address spender, uint256 id) external {... */\n    tag_33:\n        /* \"ERC721.sol\":3063:3076  address owner */\n      0x00\n        /* \"ERC721.sol\":3079:3087  _ownerOf */\n      dup1\n        /* \"ERC721.sol\":3079:3091  _ownerOf[id] */\n      0x00\n        /* \"ERC721.sol\":3088:3090  id */\n      dup4\n        /* \"ERC721.sol\":3079:3091  _ownerOf[id] */\n      dup2\n      mstore\n      0x20\n      add\n      swap1\n      dup2\n      mstore\n      0x20\n      add\n      0x00\n      keccak256\n      0x00\n      swap1\n      sload\n      swap1\n      0x0100\n      exp\n      swap1\n      div\n      0xffffffffffffffffffffffffffffffffffffffff\n      and\n        /* \"ERC721.sol\":3063:3091  address owner = _ownerOf[id] */\n      swap1\n      pop\n        /* \"ERC721.sol\":3138:3143  owner */\n      dup1\n        /* \"ERC721.sol\":3124:3143  msg.sender == owner */\n      0xffffffffffffffffffffffffffffffffffffffff\n      and\n        /* \"ERC721.sol\":3124:3134  msg.sender */\n      caller\n        /* \"ERC721.sol\":3124:3143  msg.sender == owner */\n      0xffffffffffffffffffffffffffffffffffffffff\n      and\n      eq\n        /* \"ERC721.sol\":3124:3182  msg.sender == owner || isApprovedForAll[owner][msg.sender] */\n      dup1\n      tag_81\n      jumpi\n      pop\n        /* \"ERC721.sol\":3147:3163  isApprovedForAll */\n      0x03\n        /* \"ERC721.sol\":3147:3170  isApprovedForAll[owner] */\n      0x00\n        /* \"ERC721.sol\":3164:3169  owner */\n      dup3\n        /* \"ERC721.sol\":3147:3170  isApprovedForAll[owner] */\n      0xffffffffffffffffffffffffffffffffffffffff\n      and\n      0xffffffffffffffffffffffffffffffffffffffff\n      and\n      dup2\n      mstore\n      0x20\n      add\n      swap1\n      dup2\n      mstore\n      0x20\n      add\n      0x00\n      keccak256\n        /* \"ERC721.sol\":3147:3182  isApprovedForAll[owner][msg.sender] */\n      0x00\n        /* \"ERC721.sol\":3171:3181  msg.sender */\n      caller\n        /* \"ERC721.sol\":3147:3182  isApprovedForAll[owner][msg.sender] */\n      0xffffffffffffffffffffffffffffffffffffffff\n      and\n      0xffffffffffffffffffffffffffffffffffffffff\n      and\n      dup2\n      mstore\n      0x20\n      add\n      swap1\n      dup2\n      mstore\n      0x20\n      add\n      0x00\n      keccak256\n      0x00\n      swap1\n      sload\n      swap1\n      0x0100\n      exp\n      swap1\n      div\n      0xff\n      and\n        /* \"ERC721.sol\":3124:3182  msg.sender == owner || isApprovedForAll[owner][msg.sender] */\n    tag_81:\n        /* \"ERC721.sol\":3102:3224  require(... */\n      tag_82\n      jumpi\n      mload(0x40)\n      0x08c379a000000000000000000000000000000000000000000000000000000000\n      dup2\n      mstore\n      0x04\n      add\n      tag_83\n      swap1\n      tag_84\n      jump\t// in\n    tag_83:\n      mload(0x40)\n      dup1\n      swap2\n      sub\n      swap1\n      revert\n    tag_82:\n        /* \"ERC721.sol\":3254:3261  spender */\n      dup3\n        /* \"ERC721.sol\":3237:3247  _approvals */\n      0x02\n        /* \"ERC721.sol\":3237:3251  _approvals[id] */\n      0x00\n        /* \"ERC721.sol\":3248:3250  id */\n      dup5\n        /* \"ERC721.sol\":3237:3251  _approvals[id] */\n      dup2\n      mstore\n      0x20\n      add\n      swap1\n      dup2\n      mstore\n      0x20\n      add\n      0x00\n      keccak256\n      0x00\n        /* \"ERC721.sol\":3237:3261  _approvals[id] = spender */\n      0x0100\n      exp\n      dup2\n      sload\n      dup2\n      0xffffffffffffffffffffffffffffffffffffffff\n      mul\n      not\n      and\n      swap1\n      dup4\n      0xffffffffffffffffffffffffffffffffffffffff\n      and\n      mul\n      or\n      swap1\n      sstore\n      pop\n        /* \"ERC721.sol\":3304:3306  id */\n      dup2\n        /* \"ERC721.sol\":3295:3302  spender */\n      dup4\n        /* \"ERC721.sol\":3279:3307  Approval(owner, spender, id) */\n      0xffffffffffffffffffffffffffffffffffffffff\n      and\n        /* \"ERC721.sol\":3288:3293  owner */\n      dup3\n        /* \"ERC721.sol\":3279:3307  Approval(owner, spender, id) */\n      0xffffffffffffffffffffffffffffffffffffffff\n      and\n      0x8c5be1e5ebec7d5bd14f71427d1e84f3dd0314c0f7b2291e5b200ac8c7c3b925\n      mload(0x40)\n      mload(0x40)\n      dup1\n      swap2\n      sub\n      swap1\n      log4\n        /* \"ERC721.sol\":3052:3315  {... */\n      pop\n        /* \"ERC721.sol\":2997:3315  function approve(address spender, uint256 id) external {... */\n      pop\n      pop\n      jump\t// out\n        /* \"ERC721.sol\":3796:4246  function transferFrom(address from, address to, uint256 id) public {... */\n    tag_37:\n        /* \"ERC721.sol\":3890:3898  _ownerOf */\n      0x00\n        /* \"ERC721.sol\":3890:3902  _ownerOf[id] */\n      dup1\n        /* \"ERC721.sol\":3899:3901  id */\n      dup3\n        /* \"ERC721.sol\":3890:3902  _ownerOf[id] */\n      dup2\n      mstore\n      0x20\n      add\n      swap1\n      dup2\n      mstore\n      0x20\n      add\n      0x00\n      keccak256\n      0x00\n      swap1\n      sload\n      swap1\n      0x0100\n      exp\n      swap1\n      div\n      0xffffffffffffffffffffffffffffffffffffffff\n      and\n        /* \"ERC721.sol\":3882:3902  from == _ownerOf[id] */\n      0xffffffffffffffffffffffffffffffffffffffff\n      and\n        /* \"ERC721.sol\":3882:3886  from */\n      dup4\n        /* \"ERC721.sol\":3882:3902  from == _ownerOf[id] */\n      0xffffffffffffffffffffffffffffffffffffffff\n      and\n      eq\n        /* \"ERC721.sol\":3874:3920  require(from == _ownerOf[id], \"from != owner\") */\n      tag_86\n      jumpi\n      mload(0x40)\n      0x08c379a000000000000000000000000000000000000000000000000000000000\n      dup2\n      mstore\n      0x04\n      add\n      tag_87\n      swap1\n      tag_88\n      jump\t// in\n    tag_87:\n      mload(0x40)\n      dup1\n      swap2\n      sub\n      swap1\n      revert\n    tag_86:\n        /* \"ERC721.sol\":3953:3954  0 */\n      0x00\n        /* \"ERC721.sol\":3939:3955  to != address(0) */\n      0xffffffffffffffffffffffffffffffffffffffff\n      and\n        /* \"ERC721.sol\":3939:3941  to */\n      dup3\n        /* \"ERC721.sol\":3939:3955  to != address(0) */\n      0xffffffffffffffffffffffffffffffffffffffff\n      and\n      sub\n        /* \"ERC721.sol\":3931:3984  require(to != address(0), \"transfer to zero address\") */\n      tag_89\n      jumpi\n      mload(0x40)\n      0x08c379a000000000000000000000000000000000000000000000000000000000\n      dup2\n      mstore\n      0x04\n      add\n      tag_90\n      swap1\n      tag_91\n      jump\t// in\n    tag_90:\n      mload(0x40)\n      dup1\n      swap2\n      sub\n      swap1\n      revert\n    tag_89:\n        /* \"ERC721.sol\":4005:4045  _isApprovedOrOwner(from, msg.sender, id) */\n      tag_92\n        /* \"ERC721.sol\":4024:4028  from */\n      dup4\n        /* \"ERC721.sol\":4030:4040  msg.sender */\n      caller\n        /* \"ERC721.sol\":4042:4044  id */\n      dup4\n        /* \"ERC721.sol\":4005:4023  _isApprovedOrOwner */\n      tag_93\n        /* \"ERC721.sol\":4005:4045  _isApprovedOrOwner(from, msg.sender, id) */\n      jump\t// in\n    tag_92:\n        /* \"ERC721.sol\":3997:4078  require(_isApprovedOrOwner(from, msg.sender, id), \"transferFrom: not authorized\") */\n      tag_94\n      jumpi\n      mload(0x40)\n      0x08c379a000000000000000000000000000000000000000000000000000000000\n      dup2\n      mstore\n      0x04\n      add\n      tag_95\n      swap1\n      tag_96\n      jump\t// in\n    tag_95:\n      mload(0x40)\n      dup1\n      swap2\n      sub\n      swap1\n      revert\n    tag_94:\n        /* \"ERC721.sol\":4091:4101  _balanceOf */\n      0x01\n        /* \"ERC721.sol\":4091:4107  _balanceOf[from] */\n      0x00\n        /* \"ERC721.sol\":4102:4106  from */\n      dup5\n        /* \"ERC721.sol\":4091:4107  _balanceOf[from] */\n      0xffffffffffffffffffffffffffffffffffffffff\n      and\n      0xffffffffffffffffffffffffffffffffffffffff\n      and\n      dup2\n      mstore\n      0x20\n      add\n      swap1\n      dup2\n      mstore\n      0x20\n      add\n      0x00\n      keccak256\n      0x00\n        /* \"ERC721.sol\":4091:4109  _balanceOf[from]-- */\n      dup2\n      sload\n      dup1\n      swap3\n      swap2\n      swap1\n      tag_97\n      swap1\n      tag_98\n      jump\t// in\n    tag_97:\n      swap2\n      swap1\n      pop\n      sstore\n      pop\n        /* \"ERC721.sol\":4120:4130  _balanceOf */\n      0x01\n        /* \"ERC721.sol\":4120:4134  _balanceOf[to] */\n      0x00\n        /* \"ERC721.sol\":4131:4133  to */\n      dup4\n        /* \"ERC721.sol\":4120:4134  _balanceOf[to] */\n      0xffffffffffffffffffffffffffffffffffffffff\n      and\n      0xffffffffffffffffffffffffffffffffffffffff\n      and\n      dup2\n      mstore\n      0x20\n      add\n      swap1\n      dup2\n      mstore\n      0x20\n      add\n      0x00\n      keccak256\n      0x00\n        /* \"ERC721.sol\":4120:4136  _balanceOf[to]++ */\n      dup2\n      sload\n      dup1\n      swap3\n      swap2\n      swap1\n      tag_99\n      swap1\n      tag_100\n      jump\t// in\n    tag_99:\n      swap2\n      swap1\n      pop\n      sstore\n      pop\n        /* \"ERC721.sol\":4162:4164  to */\n      dup2\n        /* \"ERC721.sol\":4147:4155  _ownerOf */\n      0x00\n        /* \"ERC721.sol\":4147:4159  _ownerOf[id] */\n      dup1\n        /* \"ERC721.sol\":4156:4158  id */\n      dup4\n        /* \"ERC721.sol\":4147:4159  _ownerOf[id] */\n      dup2\n      mstore\n      0x20\n      add\n      swap1\n      dup2\n      mstore\n      0x20\n      add\n      0x00\n      keccak256\n      0x00\n        /* \"ERC721.sol\":4147:4164  _ownerOf[id] = to */\n      0x0100\n      exp\n      dup2\n      sload\n      dup2\n      0xffffffffffffffffffffffffffffffffffffffff\n      mul\n      not\n      and\n      swap1\n      dup4\n      0xffffffffffffffffffffffffffffffffffffffff\n      and\n      mul\n      or\n      swap1\n      sstore\n      pop\n        /* \"ERC721.sol\":4184:4194  _approvals */\n      0x02\n        /* \"ERC721.sol\":4184:4198  _approvals[id] */\n      0x00\n        /* \"ERC721.sol\":4195:4197  id */\n      dup3\n        /* \"ERC721.sol\":4184:4198  _approvals[id] */\n      dup2\n      mstore\n      0x20\n      add\n      swap1\n      dup2\n      mstore\n      0x20\n      add\n      0x00\n      keccak256\n      0x00\n        /* \"ERC721.sol\":4177:4198  delete _approvals[id] */\n      0x0100\n      exp\n      dup2\n      sload\n      swap1\n      0xffffffffffffffffffffffffffffffffffffffff\n      mul\n      not\n      and\n      swap1\n      sstore\n        /* \"ERC721.sol\":4235:4237  id */\n      dup1\n        /* \"ERC721.sol\":4231:4233  to */\n      dup3\n        /* \"ERC721.sol\":4216:4238  Transfer(from, to, id) */\n      0xffffffffffffffffffffffffffffffffffffffff\n      and\n        /* \"ERC721.sol\":4225:4229  from */\n      dup5\n        /* \"ERC721.sol\":4216:4238  Transfer(from, to, id) */\n      0xffffffffffffffffffffffffffffffffffffffff\n      and\n      0xddf252ad1be2c89b69c2b068fc378daa952ba7f163c4a11628f55a4df523b3ef\n      mload(0x40)\n      mload(0x40)\n      dup1\n      swap2\n      sub\n      swap1\n      log4\n        /* \"ERC721.sol\":3796:4246  function transferFrom(address from, address to, uint256 id) public {... */\n      pop\n      pop\n      pop\n      jump\t// out\n        /* \"ERC721.sol\":5680:5759  function mint(address to, uint256 id) external {... */\n    tag_40:\n        /* \"ERC721.sol\":5738:5751  _mint(to, id) */\n      tag_102\n        /* \"ERC721.sol\":5744:5746  to */\n      dup3\n        /* \"ERC721.sol\":5748:5750  id */\n      dup3\n        /* \"ERC721.sol\":5738:5743  _mint */\n      tag_103\n        /* \"ERC721.sol\":5738:5751  _mint(to, id) */\n      jump\t// in\n    tag_102:\n        /* \"ERC721.sol\":5680:5759  function mint(address to, uint256 id) external {... */\n      pop\n      pop\n      jump\t// out\n        /* \"ERC721.sol\":4254:4619  function safeTransferFrom(address from, address to, uint256 id) external {... */\n    tag_43:\n        /* \"ERC721.sol\":4338:4364  transferFrom(from, to, id) */\n      tag_105\n        /* \"ERC721.sol\":4351:4355  from */\n      dup4\n        /* \"ERC721.sol\":4357:4359  to */\n      dup4\n        /* \"ERC721.sol\":4361:4363  id */\n      dup4\n        /* \"ERC721.sol\":4338:4350  transferFrom */\n      tag_37\n        /* \"ERC721.sol\":4338:4364  transferFrom(from, to, id) */\n      jump\t// in\n    tag_105:\n        /* \"ERC721.sol\":4417:4418  0 */\n      0x00\n        /* \"ERC721.sol\":4399:4401  to */\n      dup3\n        /* \"ERC721.sol\":4399:4413  to.code.length */\n      0xffffffffffffffffffffffffffffffffffffffff\n      and\n      extcodesize\n        /* \"ERC721.sol\":4399:4418  to.code.length == 0 */\n      eq\n        /* \"ERC721.sol\":4399:4567  to.code.length == 0... */\n      dup1\n      tag_106\n      jumpi\n      pop\n        /* \"ERC721.sol\":4526:4567  IERC721Receiver.onERC721Received.selector */\n      shl(0xe0, 0x150b7a02)\n        /* \"ERC721.sol\":4439:4567  IERC721Receiver(to).onERC721Received(msg.sender, from, id, \"\")... */\n      not(0xffffffffffffffffffffffffffffffffffffffffffffffffffffffff)\n      and\n        /* \"ERC721.sol\":4455:4457  to */\n      dup3\n        /* \"ERC721.sol\":4439:4475  IERC721Receiver(to).onERC721Received */\n      0xffffffffffffffffffffffffffffffffffffffff\n      and\n      0x150b7a02\n        /* \"ERC721.sol\":4476:4486  msg.sender */\n      caller\n        /* \"ERC721.sol\":4488:4492  from */\n      dup7\n        /* \"ERC721.sol\":4494:4496  id */\n      dup6\n        /* \"ERC721.sol\":4439:4501  IERC721Receiver(to).onERC721Received(msg.sender, from, id, \"\") */\n      mload(0x40)\n      dup5\n      0xffffffff\n      and\n      0xe0\n      shl\n      dup2\n      mstore\n      0x04\n      add\n      tag_107\n      swap4\n      swap3\n      swap2\n      swap1\n      tag_108\n      jump\t// in\n    tag_107:\n      0x20\n      mload(0x40)\n      dup1\n      dup4\n      sub\n      dup2\n      0x00\n      dup8\n      gas\n      call\n      iszero\n      dup1\n      iszero\n      tag_110\n      jumpi\n      returndatasize\n      0x00\n      dup1\n      returndatacopy\n      revert(0x00, returndatasize)\n    tag_110:\n      pop\n      pop\n      pop\n      pop\n      mload(0x40)\n      returndatasize\n      not(0x1f)\n      0x1f\n      dup3\n      add\n      and\n      dup3\n      add\n      dup1\n      0x40\n      mstore\n      pop\n      dup2\n      add\n      swap1\n      tag_111\n      swap2\n      swap1\n      tag_112\n      jump\t// in\n    tag_111:\n        /* \"ERC721.sol\":4439:4567  IERC721Receiver(to).onERC721Received(msg.sender, from, id, \"\")... */\n      not(0xffffffffffffffffffffffffffffffffffffffffffffffffffffffff)\n      and\n      eq\n        /* \"ERC721.sol\":4399:4567  to.code.length == 0... */\n    tag_106:\n        /* \"ERC721.sol\":4377:4611  require(... */\n      tag_113\n      jumpi\n      mload(0x40)\n      0x08c379a000000000000000000000000000000000000000000000000000000000\n      dup2\n      mstore\n      0x04\n      add\n      tag_114\n      swap1\n      tag_115\n      jump\t// in\n    tag_114:\n      mload(0x40)\n      dup1\n      swap2\n      sub\n      swap1\n      revert\n    tag_113:\n        /* \"ERC721.sol\":4254:4619  function safeTransferFrom(address from, address to, uint256 id) external {... */\n      pop\n      pop\n      pop\n      jump\t// out\n        /* \"ERC721.sol\":5767:5889  function burn(uint256 id) external {... */\n    tag_46:\n        /* \"ERC721.sol\":5835:5843  _ownerOf */\n      0x00\n        /* \"ERC721.sol\":5835:5847  _ownerOf[id] */\n      dup1\n        /* \"ERC721.sol\":5844:5846  id */\n      dup3\n        /* \"ERC721.sol\":5835:5847  _ownerOf[id] */\n      dup2\n      mstore\n      0x20\n      add\n      swap1\n      dup2\n      mstore\n      0x20\n      add\n      0x00\n      keccak256\n      0x00\n      swap1\n      sload\n      swap1\n      0x0100\n      exp\n      swap1\n      div\n      0xffffffffffffffffffffffffffffffffffffffff\n      and\n        /* \"ERC721.sol\":5821:5847  msg.sender == _ownerOf[id] */\n      0xffffffffffffffffffffffffffffffffffffffff\n      and\n        /* \"ERC721.sol\":5821:5831  msg.sender */\n      caller\n        /* \"ERC721.sol\":5821:5847  msg.sender == _ownerOf[id] */\n      0xffffffffffffffffffffffffffffffffffffffff\n      and\n      eq\n        /* \"ERC721.sol\":5813:5861  require(msg.sender == _ownerOf[id], \"not owner\") */\n      tag_117\n      jumpi\n      mload(0x40)\n      0x08c379a000000000000000000000000000000000000000000000000000000000\n      dup2\n      mstore\n      0x04\n      add\n      tag_118\n      swap1\n      tag_119\n      jump\t// in\n    tag_118:\n      mload(0x40)\n      dup1\n      swap2\n      sub\n      swap1\n      revert\n    tag_117:\n        /* \"ERC721.sol\":5872:5881  _burn(id) */\n      tag_120\n        /* \"ERC721.sol\":5878:5880  id */\n      dup2\n        /* \"ERC721.sol\":5872:5877  _burn */\n      tag_121\n        /* \"ERC721.sol\":5872:5881  _burn(id) */\n      jump\t// in\n    tag_120:\n        /* \"ERC721.sol\":5767:5889  function burn(uint256 id) external {... */\n      pop\n      jump\t// out\n        /* \"ERC721.sol\":2434:2602  function ownerOf(uint256 id) external view returns (address owner) {... */\n    tag_49:\n        /* \"ERC721.sol\":2486:2499  address owner */\n      0x00\n        /* \"ERC721.sol\":2520:2528  _ownerOf */\n      dup1\n        /* \"ERC721.sol\":2520:2532  _ownerOf[id] */\n      0x00\n        /* \"ERC721.sol\":2529:2531  id */\n      dup4\n        /* \"ERC721.sol\":2520:2532  _ownerOf[id] */\n      dup2\n      mstore\n      0x20\n      add\n      swap1\n      dup2\n      mstore\n      0x20\n      add\n      0x00\n      keccak256\n      0x00\n      swap1\n      sload\n      swap1\n      0x0100\n      exp\n      swap1\n      div\n      0xffffffffffffffffffffffffffffffffffffffff\n      and\n        /* \"ERC721.sol\":2512:2532  owner = _ownerOf[id] */\n      swap1\n      pop\n        /* \"ERC721.sol\":2568:2569  0 */\n      0x00\n        /* \"ERC721.sol\":2551:2570  owner != address(0) */\n      0xffffffffffffffffffffffffffffffffffffffff\n      and\n        /* \"ERC721.sol\":2551:2556  owner */\n      dup2\n        /* \"ERC721.sol\":2551:2570  owner != address(0) */\n      0xffffffffffffffffffffffffffffffffffffffff\n      and\n      sub\n        /* \"ERC721.sol\":2543:2594  require(owner != address(0), \"token doesn't exist\") */\n      tag_123\n      jumpi\n      mload(0x40)\n      0x08c379a000000000000000000000000000000000000000000000000000000000\n      dup2\n      mstore\n      0x04\n      add\n      tag_124\n      swap1\n      tag_79\n      jump\t// in\n    tag_124:\n      mload(0x40)\n      dup1\n      swap2\n      sub\n      swap1\n      revert\n    tag_123:\n        /* \"ERC721.sol\":2434:2602  function ownerOf(uint256 id) external view returns (address owner) {... */\n      swap2\n      swap1\n      pop\n      jump\t// out\n        /* \"ERC721.sol\":2610:2782  function balanceOf(address owner) external view returns (uint256) {... */\n    tag_54:\n        /* \"ERC721.sol\":2667:2674  uint256 */\n      0x00\n        /* \"ERC721.sol\":2712:2713  0 */\n      dup1\n        /* \"ERC721.sol\":2695:2714  owner != address(0) */\n      0xffffffffffffffffffffffffffffffffffffffff\n      and\n        /* \"ERC721.sol\":2695:2700  owner */\n      dup3\n        /* \"ERC721.sol\":2695:2714  owner != address(0) */\n      0xffffffffffffffffffffffffffffffffffffffff\n      and\n      sub\n        /* \"ERC721.sol\":2687:2739  require(owner != address(0), \"owner = zero address\") */\n      tag_126\n      jumpi\n      mload(0x40)\n      0x08c379a000000000000000000000000000000000000000000000000000000000\n      dup2\n      mstore\n      0x04\n      add\n      tag_127\n      swap1\n      tag_128\n      jump\t// in\n    tag_127:\n      mload(0x40)\n      dup1\n      swap2\n      sub\n      swap1\n      revert\n    tag_126:\n        /* \"ERC721.sol\":2757:2767  _balanceOf */\n      0x01\n        /* \"ERC721.sol\":2757:2774  _balanceOf[owner] */\n      0x00\n        /* \"ERC721.sol\":2768:2773  owner */\n      dup4\n        /* \"ERC721.sol\":2757:2774  _balanceOf[owner] */\n      0xffffffffffffffffffffffffffffffffffffffff\n      and\n      0xffffffffffffffffffffffffffffffffffffffff\n      and\n      dup2\n      mstore\n      0x20\n      add\n      swap1\n      dup2\n      mstore\n      0x20\n      add\n      0x00\n      keccak256\n      sload\n        /* \"ERC721.sol\":2750:2774  return _balanceOf[owner] */\n      swap1\n      pop\n        /* \"ERC721.sol\":2610:2782  function balanceOf(address owner) external view returns (uint256) {... */\n      swap2\n      swap1\n      pop\n      jump\t// out\n        /* \"ERC721.sol\":2790:2989  function setApprovalForAll(address operator, bool approved) external {... */\n    tag_60:\n        /* \"ERC721.sol\":2911:2919  approved */\n      dup1\n        /* \"ERC721.sol\":2870:2886  isApprovedForAll */\n      0x03\n        /* \"ERC721.sol\":2870:2898  isApprovedForAll[msg.sender] */\n      0x00\n        /* \"ERC721.sol\":2887:2897  msg.sender */\n      caller\n        /* \"ERC721.sol\":2870:2898  isApprovedForAll[msg.sender] */\n      0xffffffffffffffffffffffffffffffffffffffff\n      and\n      0xffffffffffffffffffffffffffffffffffffffff\n      and\n      dup2\n      mstore\n      0x20\n      add\n      swap1\n      dup2\n      mstore\n      0x20\n      add\n      0x00\n      keccak256\n        /* \"ERC721.sol\":2870:2908  isApprovedForAll[msg.sender][operator] */\n      0x00\n        /* \"ERC721.sol\":2899:2907  operator */\n      dup5\n        /* \"ERC721.sol\":2870:2908  isApprovedForAll[msg.sender][operator] */\n      0xffffffffffffffffffffffffffffffffffffffff\n      and\n      0xffffffffffffffffffffffffffffffffffffffff\n      and\n      dup2\n      mstore\n      0x20\n      add\n      swap1\n      dup2\n      mstore\n      0x20\n      add\n      0x00\n      keccak256\n      0x00\n        /* \"ERC721.sol\":2870:2919  isApprovedForAll[msg.sender][operator] = approved */\n      0x0100\n      exp\n      dup2\n      sload\n      dup2\n      0xff\n      mul\n      not\n      and\n      swap1\n      dup4\n      iszero\n      iszero\n      mul\n      or\n      swap1\n      sstore\n      pop\n        /* \"ERC721.sol\":2962:2970  operator */\n      dup2\n        /* \"ERC721.sol\":2935:2981  ApprovalForAll(msg.sender, operator, approved) */\n      0xffffffffffffffffffffffffffffffffffffffff\n      and\n        /* \"ERC721.sol\":2950:2960  msg.sender */\n      caller\n        /* \"ERC721.sol\":2935:2981  ApprovalForAll(msg.sender, operator, approved) */\n      0xffffffffffffffffffffffffffffffffffffffff\n      and\n      0x17307eab39ab6107e8899845ad3d59bd9653f200f220920489ca2b5937696c31\n        /* \"ERC721.sol\":2972:2980  approved */\n      dup4\n        /* \"ERC721.sol\":2935:2981  ApprovalForAll(msg.sender, operator, approved) */\n      mload(0x40)\n      tag_130\n      swap2\n      swap1\n      tag_23\n      jump\t// in\n    tag_130:\n      mload(0x40)\n      dup1\n      swap2\n      sub\n      swap1\n      log3\n        /* \"ERC721.sol\":2790:2989  function setApprovalForAll(address operator, bool approved) external {... */\n      pop\n      pop\n      jump\t// out\n        /* \"ERC721.sol\":4627:5058  function safeTransferFrom(... */\n    tag_64:\n        /* \"ERC721.sol\":4775:4801  transferFrom(from, to, id) */\n      tag_132\n        /* \"ERC721.sol\":4788:4792  from */\n      dup6\n        /* \"ERC721.sol\":4794:4796  to */\n      dup6\n        /* \"ERC721.sol\":4798:4800  id */\n      dup6\n        /* \"ERC721.sol\":4775:4787  transferFrom */\n      tag_37\n        /* \"ERC721.sol\":4775:4801  transferFrom(from, to, id) */\n      jump\t// in\n    tag_132:\n        /* \"ERC721.sol\":4854:4855  0 */\n      0x00\n        /* \"ERC721.sol\":4836:4838  to */\n      dup5\n        /* \"ERC721.sol\":4836:4850  to.code.length */\n      0xffffffffffffffffffffffffffffffffffffffff\n      and\n      extcodesize\n        /* \"ERC721.sol\":4836:4855  to.code.length == 0 */\n      eq\n        /* \"ERC721.sol\":4836:5006  to.code.length == 0... */\n      dup1\n      tag_133\n      jumpi\n      pop\n        /* \"ERC721.sol\":4965:5006  IERC721Receiver.onERC721Received.selector */\n      shl(0xe0, 0x150b7a02)\n        /* \"ERC721.sol\":4876:5006  IERC721Receiver(to).onERC721Received(msg.sender, from, id, data)... */\n      not(0xffffffffffffffffffffffffffffffffffffffffffffffffffffffff)\n      and\n        /* \"ERC721.sol\":4892:4894  to */\n      dup5\n        /* \"ERC721.sol\":4876:4912  IERC721Receiver(to).onERC721Received */\n      0xffffffffffffffffffffffffffffffffffffffff\n      and\n      0x150b7a02\n        /* \"ERC721.sol\":4913:4923  msg.sender */\n      caller\n        /* \"ERC721.sol\":4925:4929  from */\n      dup9\n        /* \"ERC721.sol\":4931:4933  id */\n      dup8\n        /* \"ERC721.sol\":4935:4939  data */\n      dup8\n      dup8\n        /* \"ERC721.sol\":4876:4940  IERC721Receiver(to).onERC721Received(msg.sender, from, id, data) */\n      mload(0x40)\n      dup7\n      0xffffffff\n      and\n      0xe0\n      shl\n      dup2\n      mstore\n      0x04\n      add\n      tag_134\n      swap6\n      swap5\n      swap4\n      swap3\n      swap2\n      swap1\n      tag_135\n      jump\t// in\n    tag_134:\n      0x20\n      mload(0x40)\n      dup1\n      dup4\n      sub\n      dup2\n      0x00\n      dup8\n      gas\n      call\n      iszero\n      dup1\n      iszero\n      tag_137\n      jumpi\n      returndatasize\n      0x00\n      dup1\n      returndatacopy\n      revert(0x00, returndatasize)\n    tag_137:\n      pop\n      pop\n      pop\n      pop\n      mload(0x40)\n      returndatasize\n      not(0x1f)\n      0x1f\n      dup3\n      add\n      and\n      dup3\n      add\n      dup1\n      0x40\n      mstore\n      pop\n      dup2\n      add\n      swap1\n      tag_138\n      swap2\n      swap1\n      tag_112\n      jump\t// in\n    tag_138:\n        /* \"ERC721.sol\":4876:5006  IERC721Receiver(to).onERC721Received(msg.sender, from, id, data)... */\n      not(0xffffffffffffffffffffffffffffffffffffffffffffffffffffffff)\n      and\n      eq\n        /* \"ERC721.sol\":4836:5006  to.code.length == 0... */\n    tag_133:\n        /* \"ERC721.sol\":4814:5050  require(... */\n      tag_139\n      jumpi\n      mload(0x40)\n      0x08c379a000000000000000000000000000000000000000000000000000000000\n      dup2\n      mstore\n      0x04\n      add\n      tag_140\n      swap1\n      tag_115\n      jump\t// in\n    tag_140:\n      mload(0x40)\n      dup1\n      swap2\n      sub\n      swap1\n      revert\n    tag_139:\n        /* \"ERC721.sol\":4627:5058  function safeTransferFrom(... */\n      pop\n      pop\n      pop\n      pop\n      pop\n      jump\t// out\n        /* \"ERC721.sol\":5897:6081  function getNFTApproved(uint256 id) external view returns (address) {... */\n    tag_67:\n        /* \"ERC721.sol\":5956:5963  address */\n      0x00\n        /* \"ERC721.sol\":6008:6009  0 */\n      dup1\n        /* \"ERC721.sol\":5984:6010  _ownerOf[id] != address(0) */\n      0xffffffffffffffffffffffffffffffffffffffff\n      and\n        /* \"ERC721.sol\":5984:5992  _ownerOf */\n      0x00\n        /* \"ERC721.sol\":5984:5996  _ownerOf[id] */\n      dup1\n        /* \"ERC721.sol\":5993:5995  id */\n      dup5\n        /* \"ERC721.sol\":5984:5996  _ownerOf[id] */\n      dup2\n      mstore\n      0x20\n      add\n      swap1\n      dup2\n      mstore\n      0x20\n      add\n      0x00\n      keccak256\n      0x00\n      swap1\n      sload\n      swap1\n      0x0100\n      exp\n      swap1\n      div\n      0xffffffffffffffffffffffffffffffffffffffff\n      and\n        /* \"ERC721.sol\":5984:6010  _ownerOf[id] != address(0) */\n      0xffffffffffffffffffffffffffffffffffffffff\n      and\n      sub\n        /* \"ERC721.sol\":5976:6041  require(_ownerOf[id] != address(0), \"MyNFT, token doesn't exist\") */\n      tag_142\n      jumpi\n      mload(0x40)\n      0x08c379a000000000000000000000000000000000000000000000000000000000\n      dup2\n      mstore\n      0x04\n      add\n      tag_143\n      swap1\n      tag_144\n      jump\t// in\n    tag_143:\n      mload(0x40)\n      dup1\n      swap2\n      sub\n      swap1\n      revert\n    tag_142:\n        /* \"ERC721.sol\":6059:6069  _approvals */\n      0x02\n        /* \"ERC721.sol\":6059:6073  _approvals[id] */\n      0x00\n        /* \"ERC721.sol\":6070:6072  id */\n      dup4\n        /* \"ERC721.sol\":6059:6073  _approvals[id] */\n      dup2\n      mstore\n      0x20\n      add\n      swap1\n      dup2\n      mstore\n      0x20\n      add\n      0x00\n      keccak256\n      0x00\n      swap1\n      sload\n      swap1\n      0x0100\n      exp\n      swap1\n      div\n      0xffffffffffffffffffffffffffffffffffffffff\n      and\n        /* \"ERC721.sol\":6052:6073  return _approvals[id] */\n      swap1\n      pop\n        /* \"ERC721.sol\":5897:6081  function getNFTApproved(uint256 id) external view returns (address) {... */\n      swap2\n      swap1\n      pop\n      jump\t// out\n        /* \"ERC721.sol\":2118:2186  mapping(address => mapping(address => bool)) public isApprovedForAll */\n    tag_72:\n      mstore(0x20, 0x03)\n      dup2\n      0x00\n      mstore\n      mstore(0x20, keccak256(0x00, 0x40))\n      dup1\n      0x00\n      mstore\n      keccak256(0x00, 0x40)\n      0x00\n      swap2\n      pop\n      swap2\n      pop\n      swap1\n      sload\n      swap1\n      0x0100\n      exp\n      swap1\n      div\n      0xff\n      and\n      dup2\n      jump\t// out\n        /* \"ERC721.sol\":3505:3788  function _isApprovedOrOwner(address owner, address spender, uint256 id)... */\n    tag_93:\n        /* \"ERC721.sol\":3627:3631  bool */\n      0x00\n        /* \"ERC721.sol\":3682:3687  owner */\n      dup4\n        /* \"ERC721.sol\":3671:3687  spender == owner */\n      0xffffffffffffffffffffffffffffffffffffffff\n      and\n        /* \"ERC721.sol\":3671:3678  spender */\n      dup4\n        /* \"ERC721.sol\":3671:3687  spender == owner */\n      0xffffffffffffffffffffffffffffffffffffffff\n      and\n      eq\n        /* \"ERC721.sol\":3671:3723  spender == owner || isApprovedForAll[owner][spender] */\n      dup1\n      tag_146\n      jumpi\n      pop\n        /* \"ERC721.sol\":3691:3707  isApprovedForAll */\n      0x03\n        /* \"ERC721.sol\":3691:3714  isApprovedForAll[owner] */\n      0x00\n        /* \"ERC721.sol\":3708:3713  owner */\n      dup6\n        /* \"ERC721.sol\":3691:3714  isApprovedForAll[owner] */\n      0xffffffffffffffffffffffffffffffffffffffff\n      and\n      0xffffffffffffffffffffffffffffffffffffffff\n      and\n      dup2\n      mstore\n      0x20\n      add\n      swap1\n      dup2\n      mstore\n      0x20\n      add\n      0x00\n      keccak256\n        /* \"ERC721.sol\":3691:3723  isApprovedForAll[owner][spender] */\n      0x00\n        /* \"ERC721.sol\":3715:3722  spender */\n      dup5\n        /* \"ERC721.sol\":3691:3723  isApprovedForAll[owner][spender] */\n      0xffffffffffffffffffffffffffffffffffffffff\n      and\n      0xffffffffffffffffffffffffffffffffffffffff\n      and\n      dup2\n      mstore\n      0x20\n      add\n      swap1\n      dup2\n      mstore\n      0x20\n      add\n      0x00\n      keccak256\n      0x00\n      swap1\n      sload\n      swap1\n      0x0100\n      exp\n      swap1\n      div\n      0xff\n      and\n        /* \"ERC721.sol\":3671:3723  spender == owner || isApprovedForAll[owner][spender] */\n    tag_146:\n        /* \"ERC721.sol\":3671:3769  spender == owner || isApprovedForAll[owner][spender]... */\n      dup1\n      tag_147\n      jumpi\n      pop\n        /* \"ERC721.sol\":3755:3765  _approvals */\n      0x02\n        /* \"ERC721.sol\":3755:3769  _approvals[id] */\n      0x00\n        /* \"ERC721.sol\":3766:3768  id */\n      dup4\n        /* \"ERC721.sol\":3755:3769  _approvals[id] */\n      dup2\n      mstore\n      0x20\n      add\n      swap1\n      dup2\n      mstore\n      0x20\n      add\n      0x00\n      keccak256\n      0x00\n      swap1\n      sload\n      swap1\n      0x0100\n      exp\n      swap1\n      div\n      0xffffffffffffffffffffffffffffffffffffffff\n      and\n        /* \"ERC721.sol\":3744:3769  spender == _approvals[id] */\n      0xffffffffffffffffffffffffffffffffffffffff\n      and\n        /* \"ERC721.sol\":3744:3751  spender */\n      dup4\n        /* \"ERC721.sol\":3744:3769  spender == _approvals[id] */\n      0xffffffffffffffffffffffffffffffffffffffff\n      and\n      eq\n        /* \"ERC721.sol\":3671:3769  spender == owner || isApprovedForAll[owner][spender]... */\n    tag_147:\n        /* \"ERC721.sol\":3649:3780  return (... */\n      swap1\n      pop\n        /* \"ERC721.sol\":3505:3788  function _isApprovedOrOwner(address owner, address spender, uint256 id)... */\n      swap4\n      swap3\n      pop\n      pop\n      pop\n      jump\t// out\n        /* \"ERC721.sol\":5066:5349  function _mint(address to, uint256 id) internal {... */\n    tag_103:\n        /* \"ERC721.sol\":5147:5148  0 */\n      0x00\n        /* \"ERC721.sol\":5133:5149  to != address(0) */\n      0xffffffffffffffffffffffffffffffffffffffff\n      and\n        /* \"ERC721.sol\":5133:5135  to */\n      dup3\n        /* \"ERC721.sol\":5133:5149  to != address(0) */\n      0xffffffffffffffffffffffffffffffffffffffff\n      and\n      sub\n        /* \"ERC721.sol\":5125:5174  require(to != address(0), \"mint to zero address\") */\n      tag_149\n      jumpi\n      mload(0x40)\n      0x08c379a000000000000000000000000000000000000000000000000000000000\n      dup2\n      mstore\n      0x04\n      add\n      tag_150\n      swap1\n      tag_151\n      jump\t// in\n    tag_150:\n      mload(0x40)\n      dup1\n      swap2\n      sub\n      swap1\n      revert\n    tag_149:\n        /* \"ERC721.sol\":5217:5218  0 */\n      0x00\n        /* \"ERC721.sol\":5193:5219  _ownerOf[id] == address(0) */\n      0xffffffffffffffffffffffffffffffffffffffff\n      and\n        /* \"ERC721.sol\":5193:5201  _ownerOf */\n      0x00\n        /* \"ERC721.sol\":5193:5205  _ownerOf[id] */\n      dup1\n        /* \"ERC721.sol\":5202:5204  id */\n      dup4\n        /* \"ERC721.sol\":5193:5205  _ownerOf[id] */\n      dup2\n      mstore\n      0x20\n      add\n      swap1\n      dup2\n      mstore\n      0x20\n      add\n      0x00\n      keccak256\n      0x00\n      swap1\n      sload\n      swap1\n      0x0100\n      exp\n      swap1\n      div\n      0xffffffffffffffffffffffffffffffffffffffff\n      and\n        /* \"ERC721.sol\":5193:5219  _ownerOf[id] == address(0) */\n      0xffffffffffffffffffffffffffffffffffffffff\n      and\n      eq\n        /* \"ERC721.sol\":5185:5238  require(_ownerOf[id] == address(0), \"already minted\") */\n      tag_152\n      jumpi\n      mload(0x40)\n      0x08c379a000000000000000000000000000000000000000000000000000000000\n      dup2\n      mstore\n      0x04\n      add\n      tag_153\n      swap1\n      tag_154\n      jump\t// in\n    tag_153:\n      mload(0x40)\n      dup1\n      swap2\n      sub\n      swap1\n      revert\n    tag_152:\n        /* \"ERC721.sol\":5251:5261  _balanceOf */\n      0x01\n        /* \"ERC721.sol\":5251:5265  _balanceOf[to] */\n      0x00\n        /* \"ERC721.sol\":5262:5264  to */\n      dup4\n        /* \"ERC721.sol\":5251:5265  _balanceOf[to] */\n      0xffffffffffffffffffffffffffffffffffffffff\n      and\n      0xffffffffffffffffffffffffffffffffffffffff\n      and\n      dup2\n      mstore\n      0x20\n      add\n      swap1\n      dup2\n      mstore\n      0x20\n      add\n      0x00\n      keccak256\n      0x00\n        /* \"ERC721.sol\":5251:5267  _balanceOf[to]++ */\n      dup2\n      sload\n      dup1\n      swap3\n      swap2\n      swap1\n      tag_155\n      swap1\n      tag_100\n      jump\t// in\n    tag_155:\n      swap2\n      swap1\n      pop\n      sstore\n      pop\n        /* \"ERC721.sol\":5293:5295  to */\n      dup2\n        /* \"ERC721.sol\":5278:5286  _ownerOf */\n      0x00\n        /* \"ERC721.sol\":5278:5290  _ownerOf[id] */\n      dup1\n        /* \"ERC721.sol\":5287:5289  id */\n      dup4\n        /* \"ERC721.sol\":5278:5290  _ownerOf[id] */\n      dup2\n      mstore\n      0x20\n      add\n      swap1\n      dup2\n      mstore\n      0x20\n      add\n      0x00\n      keccak256\n      0x00\n        /* \"ERC721.sol\":5278:5295  _ownerOf[id] = to */\n      0x0100\n      exp\n      dup2\n      sload\n      dup2\n      0xffffffffffffffffffffffffffffffffffffffff\n      mul\n      not\n      and\n      swap1\n      dup4\n      0xffffffffffffffffffffffffffffffffffffffff\n      and\n      mul\n      or\n      swap1\n      sstore\n      pop\n        /* \"ERC721.sol\":5338:5340  id */\n      dup1\n        /* \"ERC721.sol\":5334:5336  to */\n      dup3\n        /* \"ERC721.sol\":5313:5341  Transfer(address(0), to, id) */\n      0xffffffffffffffffffffffffffffffffffffffff\n      and\n        /* \"ERC721.sol\":5330:5331  0 */\n      0x00\n        /* \"ERC721.sol\":5313:5341  Transfer(address(0), to, id) */\n      0xffffffffffffffffffffffffffffffffffffffff\n      and\n      0xddf252ad1be2c89b69c2b068fc378daa952ba7f163c4a11628f55a4df523b3ef\n      mload(0x40)\n      mload(0x40)\n      dup1\n      swap2\n      sub\n      swap1\n      log4\n        /* \"ERC721.sol\":5066:5349  function _mint(address to, uint256 id) internal {... */\n      pop\n      pop\n      jump\t// out\n        /* \"ERC721.sol\":5357:5641  function _burn(uint256 id) internal {... */\n    tag_121:\n        /* \"ERC721.sol\":5404:5417  address owner */\n      0x00\n        /* \"ERC721.sol\":5420:5428  _ownerOf */\n      dup1\n        /* \"ERC721.sol\":5420:5432  _ownerOf[id] */\n      0x00\n        /* \"ERC721.sol\":5429:5431  id */\n      dup4\n        /* \"ERC721.sol\":5420:5432  _ownerOf[id] */\n      dup2\n      mstore\n      0x20\n      add\n      swap1\n      dup2\n      mstore\n      0x20\n      add\n      0x00\n      keccak256\n      0x00\n      swap1\n      sload\n      swap1\n      0x0100\n      exp\n      swap1\n      div\n      0xffffffffffffffffffffffffffffffffffffffff\n      and\n        /* \"ERC721.sol\":5404:5432  address owner = _ownerOf[id] */\n      swap1\n      pop\n        /* \"ERC721.sol\":5468:5469  0 */\n      0x00\n        /* \"ERC721.sol\":5451:5470  owner != address(0) */\n      0xffffffffffffffffffffffffffffffffffffffff\n      and\n        /* \"ERC721.sol\":5451:5456  owner */\n      dup2\n        /* \"ERC721.sol\":5451:5470  owner != address(0) */\n      0xffffffffffffffffffffffffffffffffffffffff\n      and\n      sub\n        /* \"ERC721.sol\":5443:5485  require(owner != address(0), \"not minted\") */\n      tag_157\n      jumpi\n      mload(0x40)\n      0x08c379a000000000000000000000000000000000000000000000000000000000\n      dup2\n      mstore\n      0x04\n      add\n      tag_158\n      swap1\n      tag_159\n      jump\t// in\n    tag_158:\n      mload(0x40)\n      dup1\n      swap2\n      sub\n      swap1\n      revert\n    tag_157:\n        /* \"ERC721.sol\":5519:5520  1 */\n      0x01\n        /* \"ERC721.sol\":5498:5508  _balanceOf */\n      dup1\n        /* \"ERC721.sol\":5498:5515  _balanceOf[owner] */\n      0x00\n        /* \"ERC721.sol\":5509:5514  owner */\n      dup4\n        /* \"ERC721.sol\":5498:5515  _balanceOf[owner] */\n      0xffffffffffffffffffffffffffffffffffffffff\n      and\n      0xffffffffffffffffffffffffffffffffffffffff\n      and\n      dup2\n      mstore\n      0x20\n      add\n      swap1\n      dup2\n      mstore\n      0x20\n      add\n      0x00\n      keccak256\n      0x00\n        /* \"ERC721.sol\":5498:5520  _balanceOf[owner] -= 1 */\n      dup3\n      dup3\n      sload\n      tag_160\n      swap2\n      swap1\n      tag_161\n      jump\t// in\n    tag_160:\n      swap3\n      pop\n      pop\n      dup2\n      swap1\n      sstore\n      pop\n        /* \"ERC721.sol\":5540:5548  _ownerOf */\n      0x00\n        /* \"ERC721.sol\":5540:5552  _ownerOf[id] */\n      dup1\n        /* \"ERC721.sol\":5549:5551  id */\n      dup4\n        /* \"ERC721.sol\":5540:5552  _ownerOf[id] */\n      dup2\n      mstore\n      0x20\n      add\n      swap1\n      dup2\n      mstore\n      0x20\n      add\n      0x00\n      keccak256\n      0x00\n        /* \"ERC721.sol\":5533:5552  delete _ownerOf[id] */\n      0x0100\n      exp\n      dup2\n      sload\n      swap1\n      0xffffffffffffffffffffffffffffffffffffffff\n      mul\n      not\n      and\n      swap1\n      sstore\n        /* \"ERC721.sol\":5570:5580  _approvals */\n      0x02\n        /* \"ERC721.sol\":5570:5584  _approvals[id] */\n      0x00\n        /* \"ERC721.sol\":5581:5583  id */\n      dup4\n        /* \"ERC721.sol\":5570:5584  _approvals[id] */\n      dup2\n      mstore\n      0x20\n      add\n      swap1\n      dup2\n      mstore\n      0x20\n      add\n      0x00\n      keccak256\n      0x00\n        /* \"ERC721.sol\":5563:5584  delete _approvals[id] */\n      0x0100\n      exp\n      dup2\n      sload\n      swap1\n      0xffffffffffffffffffffffffffffffffffffffff\n      mul\n      not\n      and\n      swap1\n      sstore\n        /* \"ERC721.sol\":5630:5632  id */\n      dup2\n        /* \"ERC721.sol\":5626:5627  0 */\n      0x00\n        /* \"ERC721.sol\":5602:5633  Transfer(owner, address(0), id) */\n      0xffffffffffffffffffffffffffffffffffffffff\n      and\n        /* \"ERC721.sol\":5611:5616  owner */\n      dup3\n        /* \"ERC721.sol\":5602:5633  Transfer(owner, address(0), id) */\n      0xffffffffffffffffffffffffffffffffffffffff\n      and\n      0xddf252ad1be2c89b69c2b068fc378daa952ba7f163c4a11628f55a4df523b3ef\n      mload(0x40)\n      mload(0x40)\n      dup1\n      swap2\n      sub\n      swap1\n      log4\n        /* \"ERC721.sol\":5393:5641  {... */\n      pop\n        /* \"ERC721.sol\":5357:5641  function _burn(uint256 id) internal {... */\n      pop\n      jump\t// out\n        /* \"#utility.yul\":88:205   */\n    tag_163:\n        /* \"#utility.yul\":197:198   */\n      0x00\n        /* \"#utility.yul\":194:195   */\n      dup1\n        /* \"#utility.yul\":187:199   */\n      revert\n        /* \"#utility.yul\":211:328   */\n    tag_164:\n        /* \"#utility.yul\":320:321   */\n      0x00\n        /* \"#utility.yul\":317:318   */\n      dup1\n        /* \"#utility.yul\":310:322   */\n      revert\n        /* \"#utility.yul\":334:483   */\n    tag_165:\n        /* \"#utility.yul\":370:377   */\n      0x00\n        /* \"#utility.yul\":410:476   */\n      0xffffffff00000000000000000000000000000000000000000000000000000000\n        /* \"#utility.yul\":403:408   */\n      dup3\n        /* \"#utility.yul\":399:477   */\n      and\n        /* \"#utility.yul\":388:477   */\n      swap1\n      pop\n        /* \"#utility.yul\":334:483   */\n      swap2\n      swap1\n      pop\n      jump\t// out\n        /* \"#utility.yul\":489:609   */\n    tag_166:\n        /* \"#utility.yul\":561:584   */\n      tag_224\n        /* \"#utility.yul\":578:583   */\n      dup2\n        /* \"#utility.yul\":561:584   */\n      tag_165\n      jump\t// in\n    tag_224:\n        /* \"#utility.yul\":554:559   */\n      dup2\n        /* \"#utility.yul\":551:585   */\n      eq\n        /* \"#utility.yul\":541:603   */\n      tag_225\n      jumpi\n        /* \"#utility.yul\":599:600   */\n      0x00\n        /* \"#utility.yul\":596:597   */\n      dup1\n        /* \"#utility.yul\":589:601   */\n      revert\n        /* \"#utility.yul\":541:603   */\n    tag_225:\n        /* \"#utility.yul\":489:609   */\n      pop\n      jump\t// out\n        /* \"#utility.yul\":615:752   */\n    tag_167:\n        /* \"#utility.yul\":660:665   */\n      0x00\n        /* \"#utility.yul\":698:704   */\n      dup2\n        /* \"#utility.yul\":685:705   */\n      calldataload\n        /* \"#utility.yul\":676:705   */\n      swap1\n      pop\n        /* \"#utility.yul\":714:746   */\n      tag_227\n        /* \"#utility.yul\":740:745   */\n      dup2\n        /* \"#utility.yul\":714:746   */\n      tag_166\n      jump\t// in\n    tag_227:\n        /* \"#utility.yul\":615:752   */\n      swap3\n      swap2\n      pop\n      pop\n      jump\t// out\n        /* \"#utility.yul\":758:1085   */\n    tag_20:\n        /* \"#utility.yul\":816:822   */\n      0x00\n        /* \"#utility.yul\":865:867   */\n      0x20\n        /* \"#utility.yul\":853:862   */\n      dup3\n        /* \"#utility.yul\":844:851   */\n      dup5\n        /* \"#utility.yul\":840:863   */\n      sub\n        /* \"#utility.yul\":836:868   */\n      slt\n        /* \"#utility.yul\":833:952   */\n      iszero\n      tag_229\n      jumpi\n        /* \"#utility.yul\":871:950   */\n      tag_230\n      tag_163\n      jump\t// in\n    tag_230:\n        /* \"#utility.yul\":833:952   */\n    tag_229:\n        /* \"#utility.yul\":991:992   */\n      0x00\n        /* \"#utility.yul\":1016:1068   */\n      tag_231\n        /* \"#utility.yul\":1060:1067   */\n      dup5\n        /* \"#utility.yul\":1051:1057   */\n      dup3\n        /* \"#utility.yul\":1040:1049   */\n      dup6\n        /* \"#utility.yul\":1036:1058   */\n      add\n        /* \"#utility.yul\":1016:1068   */\n      tag_167\n      jump\t// in\n    tag_231:\n        /* \"#utility.yul\":1006:1068   */\n      swap2\n      pop\n        /* \"#utility.yul\":962:1078   */\n      pop\n        /* \"#utility.yul\":758:1085   */\n      swap3\n      swap2\n      pop\n      pop\n      jump\t// out\n        /* \"#utility.yul\":1091:1181   */\n    tag_168:\n        /* \"#utility.yul\":1125:1132   */\n      0x00\n        /* \"#utility.yul\":1168:1173   */\n      dup2\n        /* \"#utility.yul\":1161:1174   */\n      iszero\n        /* \"#utility.yul\":1154:1175   */\n      iszero\n        /* \"#utility.yul\":1143:1175   */\n      swap1\n      pop\n        /* \"#utility.yul\":1091:1181   */\n      swap2\n      swap1\n      pop\n      jump\t// out\n        /* \"#utility.yul\":1187:1296   */\n    tag_169:\n        /* \"#utility.yul\":1268:1289   */\n      tag_234\n        /* \"#utility.yul\":1283:1288   */\n      dup2\n        /* \"#utility.yul\":1268:1289   */\n      tag_168\n      jump\t// in\n    tag_234:\n        /* \"#utility.yul\":1263:1266   */\n      dup3\n        /* \"#utility.yul\":1256:1290   */\n      mstore\n        /* \"#utility.yul\":1187:1296   */\n      pop\n      pop\n      jump\t// out\n        /* \"#utility.yul\":1302:1512   */\n    tag_23:\n        /* \"#utility.yul\":1389:1393   */\n      0x00\n        /* \"#utility.yul\":1427:1429   */\n      0x20\n        /* \"#utility.yul\":1416:1425   */\n      dup3\n        /* \"#utility.yul\":1412:1430   */\n      add\n        /* \"#utility.yul\":1404:1430   */\n      swap1\n      pop\n        /* \"#utility.yul\":1440:1505   */\n      tag_236\n        /* \"#utility.yul\":1502:1503   */\n      0x00\n        /* \"#utility.yul\":1491:1500   */\n      dup4\n        /* \"#utility.yul\":1487:1504   */\n      add\n        /* \"#utility.yul\":1478:1484   */\n      dup5\n        /* \"#utility.yul\":1440:1505   */\n      tag_169\n      jump\t// in\n    tag_236:\n        /* \"#utility.yul\":1302:1512   */\n      swap3\n      swap2\n      pop\n      pop\n      jump\t// out\n        /* \"#utility.yul\":1518:1595   */\n    tag_170:\n        /* \"#utility.yul\":1555:1562   */\n      0x00\n        /* \"#utility.yul\":1584:1589   */\n      dup2\n        /* \"#utility.yul\":1573:1589   */\n      swap1\n      pop\n        /* \"#utility.yul\":1518:1595   */\n      swap2\n      swap1\n      pop\n      jump\t// out\n        /* \"#utility.yul\":1601:1723   */\n    tag_171:\n        /* \"#utility.yul\":1674:1698   */\n      tag_239\n        /* \"#utility.yul\":1692:1697   */\n      dup2\n        /* \"#utility.yul\":1674:1698   */\n      tag_170\n      jump\t// in\n    tag_239:\n        /* \"#utility.yul\":1667:1672   */\n      dup2\n        /* \"#utility.yul\":1664:1699   */\n      eq\n        /* \"#utility.yul\":1654:1717   */\n      tag_240\n      jumpi\n        /* \"#utility.yul\":1713:1714   */\n      0x00\n        /* \"#utility.yul\":1710:1711   */\n      dup1\n        /* \"#utility.yul\":1703:1715   */\n      revert\n        /* \"#utility.yul\":1654:1717   */\n    tag_240:\n        /* \"#utility.yul\":1601:1723   */\n      pop\n      jump\t// out\n        /* \"#utility.yul\":1729:1868   */\n    tag_172:\n        /* \"#utility.yul\":1775:1780   */\n      0x00\n        /* \"#utility.yul\":1813:1819   */\n      dup2\n        /* \"#utility.yul\":1800:1820   */\n      calldataload\n        /* \"#utility.yul\":1791:1820   */\n      swap1\n      pop\n        /* \"#utility.yul\":1829:1862   */\n      tag_242\n        /* \"#utility.yul\":1856:1861   */\n      dup2\n        /* \"#utility.yul\":1829:1862   */\n      tag_171\n      jump\t// in\n    tag_242:\n        /* \"#utility.yul\":1729:1868   */\n      swap3\n      swap2\n      pop\n      pop\n      jump\t// out\n        /* \"#utility.yul\":1874:2203   */\n    tag_26:\n        /* \"#utility.yul\":1933:1939   */\n      0x00\n        /* \"#utility.yul\":1982:1984   */\n      0x20\n        /* \"#utility.yul\":1970:1979   */\n      dup3\n        /* \"#utility.yul\":1961:1968   */\n      dup5\n        /* \"#utility.yul\":1957:1980   */\n      sub\n        /* \"#utility.yul\":1953:1985   */\n      slt\n        /* \"#utility.yul\":1950:2069   */\n      iszero\n      tag_244\n      jumpi\n        /* \"#utility.yul\":1988:2067   */\n      tag_245\n      tag_163\n      jump\t// in\n    tag_245:\n        /* \"#utility.yul\":1950:2069   */\n    tag_244:\n        /* \"#utility.yul\":2108:2109   */\n      0x00\n        /* \"#utility.yul\":2133:2186   */\n      tag_246\n        /* \"#utility.yul\":2178:2185   */\n      dup5\n        /* \"#utility.yul\":2169:2175   */\n      dup3\n        /* \"#utility.yul\":2158:2167   */\n      dup6\n        /* \"#utility.yul\":2154:2176   */\n      add\n        /* \"#utility.yul\":2133:2186   */\n      tag_172\n      jump\t// in\n    tag_246:\n        /* \"#utility.yul\":2123:2186   */\n      swap2\n      pop\n        /* \"#utility.yul\":2079:2196   */\n      pop\n        /* \"#utility.yul\":1874:2203   */\n      swap3\n      swap2\n      pop\n      pop\n      jump\t// out\n        /* \"#utility.yul\":2209:2335   */\n    tag_173:\n        /* \"#utility.yul\":2246:2253   */\n      0x00\n        /* \"#utility.yul\":2286:2328   */\n      0xffffffffffffffffffffffffffffffffffffffff\n        /* \"#utility.yul\":2279:2284   */\n      dup3\n        /* \"#utility.yul\":2275:2329   */\n      and\n        /* \"#utility.yul\":2264:2329   */\n      swap1\n      pop\n        /* \"#utility.yul\":2209:2335   */\n      swap2\n      swap1\n      pop\n      jump\t// out\n        /* \"#utility.yul\":2341:2437   */\n    tag_174:\n        /* \"#utility.yul\":2378:2385   */\n      0x00\n        /* \"#utility.yul\":2407:2431   */\n      tag_249\n        /* \"#utility.yul\":2425:2430   */\n      dup3\n        /* \"#utility.yul\":2407:2431   */\n      tag_173\n      jump\t// in\n    tag_249:\n        /* \"#utility.yul\":2396:2431   */\n      swap1\n      pop\n        /* \"#utility.yul\":2341:2437   */\n      swap2\n      swap1\n      pop\n      jump\t// out\n        /* \"#utility.yul\":2443:2561   */\n    tag_175:\n        /* \"#utility.yul\":2530:2554   */\n      tag_251\n        /* \"#utility.yul\":2548:2553   */\n      dup2\n        /* \"#utility.yul\":2530:2554   */\n      tag_174\n      jump\t// in\n    tag_251:\n        /* \"#utility.yul\":2525:2528   */\n      dup3\n        /* \"#utility.yul\":2518:2555   */\n      mstore\n        /* \"#utility.yul\":2443:2561   */\n      pop\n      pop\n      jump\t// out\n        /* \"#utility.yul\":2567:2789   */\n    tag_29:\n        /* \"#utility.yul\":2660:2664   */\n      0x00\n        /* \"#utility.yul\":2698:2700   */\n      0x20\n        /* \"#utility.yul\":2687:2696   */\n      dup3\n        /* \"#utility.yul\":2683:2701   */\n      add\n        /* \"#utility.yul\":2675:2701   */\n      swap1\n      pop\n        /* \"#utility.yul\":2711:2782   */\n      tag_253\n        /* \"#utility.yul\":2779:2780   */\n      0x00\n        /* \"#utility.yul\":2768:2777   */\n      dup4\n        /* \"#utility.yul\":2764:2781   */\n      add\n        /* \"#utility.yul\":2755:2761   */\n      dup5\n        /* \"#utility.yul\":2711:2782   */\n      tag_175\n      jump\t// in\n    tag_253:\n        /* \"#utility.yul\":2567:2789   */\n      swap3\n      swap2\n      pop\n      pop\n      jump\t// out\n        /* \"#utility.yul\":2795:2917   */\n    tag_176:\n        /* \"#utility.yul\":2868:2892   */\n      tag_255\n        /* \"#utility.yul\":2886:2891   */\n      dup2\n        /* \"#utility.yul\":2868:2892   */\n      tag_174\n      jump\t// in\n    tag_255:\n        /* \"#utility.yul\":2861:2866   */\n      dup2\n        /* \"#utility.yul\":2858:2893   */\n      eq\n        /* \"#utility.yul\":2848:2911   */\n      tag_256\n      jumpi\n        /* \"#utility.yul\":2907:2908   */\n      0x00\n        /* \"#utility.yul\":2904:2905   */\n      dup1\n        /* \"#utility.yul\":2897:2909   */\n      revert\n        /* \"#utility.yul\":2848:2911   */\n    tag_256:\n        /* \"#utility.yul\":2795:2917   */\n      pop\n      jump\t// out\n        /* \"#utility.yul\":2923:3062   */\n    tag_177:\n        /* \"#utility.yul\":2969:2974   */\n      0x00\n        /* \"#utility.yul\":3007:3013   */\n      dup2\n        /* \"#utility.yul\":2994:3014   */\n      calldataload\n        /* \"#utility.yul\":2985:3014   */\n      swap1\n      pop\n        /* \"#utility.yul\":3023:3056   */\n      tag_258\n        /* \"#utility.yul\":3050:3055   */\n      dup2\n        /* \"#utility.yul\":3023:3056   */\n      tag_176\n      jump\t// in\n    tag_258:\n        /* \"#utility.yul\":2923:3062   */\n      swap3\n      swap2\n      pop\n      pop\n      jump\t// out\n        /* \"#utility.yul\":3068:3542   */\n    tag_32:\n        /* \"#utility.yul\":3136:3142   */\n      0x00\n        /* \"#utility.yul\":3144:3150   */\n      dup1\n        /* \"#utility.yul\":3193:3195   */\n      0x40\n        /* \"#utility.yul\":3181:3190   */\n      dup4\n        /* \"#utility.yul\":3172:3179   */\n      dup6\n        /* \"#utility.yul\":3168:3191   */\n      sub\n        /* \"#utility.yul\":3164:3196   */\n      slt\n        /* \"#utility.yul\":3161:3280   */\n      iszero\n      tag_260\n      jumpi\n        /* \"#utility.yul\":3199:3278   */\n      tag_261\n      tag_163\n      jump\t// in\n    tag_261:\n        /* \"#utility.yul\":3161:3280   */\n    tag_260:\n        /* \"#utility.yul\":3319:3320   */\n      0x00\n        /* \"#utility.yul\":3344:3397   */\n      tag_262\n        /* \"#utility.yul\":3389:3396   */\n      dup6\n        /* \"#utility.yul\":3380:3386   */\n      dup3\n        /* \"#utility.yul\":3369:3378   */\n      dup7\n        /* \"#utility.yul\":3365:3387   */\n      add\n        /* \"#utility.yul\":3344:3397   */\n      tag_177\n      jump\t// in\n    tag_262:\n        /* \"#utility.yul\":3334:3397   */\n      swap3\n      pop\n        /* \"#utility.yul\":3290:3407   */\n      pop\n        /* \"#utility.yul\":3446:3448   */\n      0x20\n        /* \"#utility.yul\":3472:3525   */\n      tag_263\n        /* \"#utility.yul\":3517:3524   */\n      dup6\n        /* \"#utility.yul\":3508:3514   */\n      dup3\n        /* \"#utility.yul\":3497:3506   */\n      dup7\n        /* \"#utility.yul\":3493:3515   */\n      add\n        /* \"#utility.yul\":3472:3525   */\n      tag_172\n      jump\t// in\n    tag_263:\n        /* \"#utility.yul\":3462:3525   */\n      swap2\n      pop\n        /* \"#utility.yul\":3417:3535   */\n      pop\n        /* \"#utility.yul\":3068:3542   */\n      swap3\n      pop\n      swap3\n      swap1\n      pop\n      jump\t// out\n        /* \"#utility.yul\":3548:4167   */\n    tag_36:\n        /* \"#utility.yul\":3625:3631   */\n      0x00\n        /* \"#utility.yul\":3633:3639   */\n      dup1\n        /* \"#utility.yul\":3641:3647   */\n      0x00\n        /* \"#utility.yul\":3690:3692   */\n      0x60\n        /* \"#utility.yul\":3678:3687   */\n      dup5\n        /* \"#utility.yul\":3669:3676   */\n      dup7\n        /* \"#utility.yul\":3665:3688   */\n      sub\n        /* \"#utility.yul\":3661:3693   */\n      slt\n        /* \"#utility.yul\":3658:3777   */\n      iszero\n      tag_265\n      jumpi\n        /* \"#utility.yul\":3696:3775   */\n      tag_266\n      tag_163\n      jump\t// in\n    tag_266:\n        /* \"#utility.yul\":3658:3777   */\n    tag_265:\n        /* \"#utility.yul\":3816:3817   */\n      0x00\n        /* \"#utility.yul\":3841:3894   */\n      tag_267\n        /* \"#utility.yul\":3886:3893   */\n      dup7\n        /* \"#utility.yul\":3877:3883   */\n      dup3\n        /* \"#utility.yul\":3866:3875   */\n      dup8\n        /* \"#utility.yul\":3862:3884   */\n      add\n        /* \"#utility.yul\":3841:3894   */\n      tag_177\n      jump\t// in\n    tag_267:\n        /* \"#utility.yul\":3831:3894   */\n      swap4\n      pop\n        /* \"#utility.yul\":3787:3904   */\n      pop\n        /* \"#utility.yul\":3943:3945   */\n      0x20\n        /* \"#utility.yul\":3969:4022   */\n      tag_268\n        /* \"#utility.yul\":4014:4021   */\n      dup7\n        /* \"#utility.yul\":4005:4011   */\n      dup3\n        /* \"#utility.yul\":3994:4003   */\n      dup8\n        /* \"#utility.yul\":3990:4012   */\n      add\n        /* \"#utility.yul\":3969:4022   */\n      tag_177\n      jump\t// in\n    tag_268:\n        /* \"#utility.yul\":3959:4022   */\n      swap3\n      pop\n        /* \"#utility.yul\":3914:4032   */\n      pop\n        /* \"#utility.yul\":4071:4073   */\n      0x40\n        /* \"#utility.yul\":4097:4150   */\n      tag_269\n        /* \"#utility.yul\":4142:4149   */\n      dup7\n        /* \"#utility.yul\":4133:4139   */\n      dup3\n        /* \"#utility.yul\":4122:4131   */\n      dup8\n        /* \"#utility.yul\":4118:4140   */\n      add\n        /* \"#utility.yul\":4097:4150   */\n      tag_172\n      jump\t// in\n    tag_269:\n        /* \"#utility.yul\":4087:4150   */\n      swap2\n      pop\n        /* \"#utility.yul\":4042:4160   */\n      pop\n        /* \"#utility.yul\":3548:4167   */\n      swap3\n      pop\n      swap3\n      pop\n      swap3\n      jump\t// out\n        /* \"#utility.yul\":4173:4502   */\n    tag_53:\n        /* \"#utility.yul\":4232:4238   */\n      0x00\n        /* \"#utility.yul\":4281:4283   */\n      0x20\n        /* \"#utility.yul\":4269:4278   */\n      dup3\n        /* \"#utility.yul\":4260:4267   */\n      dup5\n        /* \"#utility.yul\":4256:4279   */\n      sub\n        /* \"#utility.yul\":4252:4284   */\n      slt\n        /* \"#utility.yul\":4249:4368   */\n      iszero\n      tag_271\n      jumpi\n        /* \"#utility.yul\":4287:4366   */\n      tag_272\n      tag_163\n      jump\t// in\n    tag_272:\n        /* \"#utility.yul\":4249:4368   */\n    tag_271:\n        /* \"#utility.yul\":4407:4408   */\n      0x00\n        /* \"#utility.yul\":4432:4485   */\n      tag_273\n        /* \"#utility.yul\":4477:4484   */\n      dup5\n        /* \"#utility.yul\":4468:4474   */\n      dup3\n        /* \"#utility.yul\":4457:4466   */\n      dup6\n        /* \"#utility.yul\":4453:4475   */\n      add\n        /* \"#utility.yul\":4432:4485   */\n      tag_177\n      jump\t// in\n    tag_273:\n        /* \"#utility.yul\":4422:4485   */\n      swap2\n      pop\n        /* \"#utility.yul\":4378:4495   */\n      pop\n        /* \"#utility.yul\":4173:4502   */\n      swap3\n      swap2\n      pop\n      pop\n      jump\t// out\n        /* \"#utility.yul\":4508:4626   */\n    tag_178:\n        /* \"#utility.yul\":4595:4619   */\n      tag_275\n        /* \"#utility.yul\":4613:4618   */\n      dup2\n        /* \"#utility.yul\":4595:4619   */\n      tag_170\n      jump\t// in\n    tag_275:\n        /* \"#utility.yul\":4590:4593   */\n      dup3\n        /* \"#utility.yul\":4583:4620   */\n      mstore\n        /* \"#utility.yul\":4508:4626   */\n      pop\n      pop\n      jump\t// out\n        /* \"#utility.yul\":4632:4854   */\n    tag_56:\n        /* \"#utility.yul\":4725:4729   */\n      0x00\n        /* \"#utility.yul\":4763:4765   */\n      0x20\n        /* \"#utility.yul\":4752:4761   */\n      dup3\n        /* \"#utility.yul\":4748:4766   */\n      add\n        /* \"#utility.yul\":4740:4766   */\n      swap1\n      pop\n        /* \"#utility.yul\":4776:4847   */\n      tag_277\n        /* \"#utility.yul\":4844:4845   */\n      0x00\n        /* \"#utility.yul\":4833:4842   */\n      dup4\n        /* \"#utility.yul\":4829:4846   */\n      add\n        /* \"#utility.yul\":4820:4826   */\n      dup5\n        /* \"#utility.yul\":4776:4847   */\n      tag_178\n      jump\t// in\n    tag_277:\n        /* \"#utility.yul\":4632:4854   */\n      swap3\n      swap2\n      pop\n      pop\n      jump\t// out\n        /* \"#utility.yul\":4860:4976   */\n    tag_179:\n        /* \"#utility.yul\":4930:4951   */\n      tag_279\n        /* \"#utility.yul\":4945:4950   */\n      dup2\n        /* \"#utility.yul\":4930:4951   */\n      tag_168\n      jump\t// in\n    tag_279:\n        /* \"#utility.yul\":4923:4928   */\n      dup2\n        /* \"#utility.yul\":4920:4952   */\n      eq\n        /* \"#utility.yul\":4910:4970   */\n      tag_280\n      jumpi\n        /* \"#utility.yul\":4966:4967   */\n      0x00\n        /* \"#utility.yul\":4963:4964   */\n      dup1\n        /* \"#utility.yul\":4956:4968   */\n      revert\n        /* \"#utility.yul\":4910:4970   */\n    tag_280:\n        /* \"#utility.yul\":4860:4976   */\n      pop\n      jump\t// out\n        /* \"#utility.yul\":4982:5115   */\n    tag_180:\n        /* \"#utility.yul\":5025:5030   */\n      0x00\n        /* \"#utility.yul\":5063:5069   */\n      dup2\n        /* \"#utility.yul\":5050:5070   */\n      calldataload\n        /* \"#utility.yul\":5041:5070   */\n      swap1\n      pop\n        /* \"#utility.yul\":5079:5109   */\n      tag_282\n        /* \"#utility.yul\":5103:5108   */\n      dup2\n        /* \"#utility.yul\":5079:5109   */\n      tag_179\n      jump\t// in\n    tag_282:\n        /* \"#utility.yul\":4982:5115   */\n      swap3\n      swap2\n      pop\n      pop\n      jump\t// out\n        /* \"#utility.yul\":5121:5589   */\n    tag_59:\n        /* \"#utility.yul\":5186:5192   */\n      0x00\n        /* \"#utility.yul\":5194:5200   */\n      dup1\n        /* \"#utility.yul\":5243:5245   */\n      0x40\n        /* \"#utility.yul\":5231:5240   */\n      dup4\n        /* \"#utility.yul\":5222:5229   */\n      dup6\n        /* \"#utility.yul\":5218:5241   */\n      sub\n        /* \"#utility.yul\":5214:5246   */\n      slt\n        /* \"#utility.yul\":5211:5330   */\n      iszero\n      tag_284\n      jumpi\n        /* \"#utility.yul\":5249:5328   */\n      tag_285\n      tag_163\n      jump\t// in\n    tag_285:\n        /* \"#utility.yul\":5211:5330   */\n    tag_284:\n        /* \"#utility.yul\":5369:5370   */\n      0x00\n        /* \"#utility.yul\":5394:5447   */\n      tag_286\n        /* \"#utility.yul\":5439:5446   */\n      dup6\n        /* \"#utility.yul\":5430:5436   */\n      dup3\n        /* \"#utility.yul\":5419:5428   */\n      dup7\n        /* \"#utility.yul\":5415:5437   */\n      add\n        /* \"#utility.yul\":5394:5447   */\n      tag_177\n      jump\t// in\n    tag_286:\n        /* \"#utility.yul\":5384:5447   */\n      swap3\n      pop\n        /* \"#utility.yul\":5340:5457   */\n      pop\n        /* \"#utility.yul\":5496:5498   */\n      0x20\n        /* \"#utility.yul\":5522:5572   */\n      tag_287\n        /* \"#utility.yul\":5564:5571   */\n      dup6\n        /* \"#utility.yul\":5555:5561   */\n      dup3\n        /* \"#utility.yul\":5544:5553   */\n      dup7\n        /* \"#utility.yul\":5540:5562   */\n      add\n        /* \"#utility.yul\":5522:5572   */\n      tag_180\n      jump\t// in\n    tag_287:\n        /* \"#utility.yul\":5512:5572   */\n      swap2\n      pop\n        /* \"#utility.yul\":5467:5582   */\n      pop\n        /* \"#utility.yul\":5121:5589   */\n      swap3\n      pop\n      swap3\n      swap1\n      pop\n      jump\t// out\n        /* \"#utility.yul\":5595:5712   */\n    tag_181:\n        /* \"#utility.yul\":5704:5705   */\n      0x00\n        /* \"#utility.yul\":5701:5702   */\n      dup1\n        /* \"#utility.yul\":5694:5706   */\n      revert\n        /* \"#utility.yul\":5718:5835   */\n    tag_182:\n        /* \"#utility.yul\":5827:5828   */\n      0x00\n        /* \"#utility.yul\":5824:5825   */\n      dup1\n        /* \"#utility.yul\":5817:5829   */\n      revert\n        /* \"#utility.yul\":5841:5958   */\n    tag_183:\n        /* \"#utility.yul\":5950:5951   */\n      0x00\n        /* \"#utility.yul\":5947:5948   */\n      dup1\n        /* \"#utility.yul\":5940:5952   */\n      revert\n        /* \"#utility.yul\":5977:6529   */\n    tag_184:\n        /* \"#utility.yul\":6034:6042   */\n      0x00\n        /* \"#utility.yul\":6044:6050   */\n      dup1\n        /* \"#utility.yul\":6094:6097   */\n      dup4\n        /* \"#utility.yul\":6087:6091   */\n      0x1f\n        /* \"#utility.yul\":6079:6085   */\n      dup5\n        /* \"#utility.yul\":6075:6092   */\n      add\n        /* \"#utility.yul\":6071:6098   */\n      slt\n        /* \"#utility.yul\":6061:6183   */\n      tag_292\n      jumpi\n        /* \"#utility.yul\":6102:6181   */\n      tag_293\n      tag_181\n      jump\t// in\n    tag_293:\n        /* \"#utility.yul\":6061:6183   */\n    tag_292:\n        /* \"#utility.yul\":6215:6221   */\n      dup3\n        /* \"#utility.yul\":6202:6222   */\n      calldataload\n        /* \"#utility.yul\":6192:6222   */\n      swap1\n      pop\n        /* \"#utility.yul\":6245:6263   */\n      0xffffffffffffffff\n        /* \"#utility.yul\":6237:6243   */\n      dup2\n        /* \"#utility.yul\":6234:6264   */\n      gt\n        /* \"#utility.yul\":6231:6348   */\n      iszero\n      tag_294\n      jumpi\n        /* \"#utility.yul\":6267:6346   */\n      tag_295\n      tag_182\n      jump\t// in\n    tag_295:\n        /* \"#utility.yul\":6231:6348   */\n    tag_294:\n        /* \"#utility.yul\":6381:6385   */\n      0x20\n        /* \"#utility.yul\":6373:6379   */\n      dup4\n        /* \"#utility.yul\":6369:6386   */\n      add\n        /* \"#utility.yul\":6357:6386   */\n      swap2\n      pop\n        /* \"#utility.yul\":6435:6438   */\n      dup4\n        /* \"#utility.yul\":6427:6431   */\n      0x01\n        /* \"#utility.yul\":6419:6425   */\n      dup3\n        /* \"#utility.yul\":6415:6432   */\n      mul\n        /* \"#utility.yul\":6405:6413   */\n      dup4\n        /* \"#utility.yul\":6401:6433   */\n      add\n        /* \"#utility.yul\":6398:6439   */\n      gt\n        /* \"#utility.yul\":6395:6523   */\n      iszero\n      tag_296\n      jumpi\n        /* \"#utility.yul\":6442:6521   */\n      tag_297\n      tag_183\n      jump\t// in\n    tag_297:\n        /* \"#utility.yul\":6395:6523   */\n    tag_296:\n        /* \"#utility.yul\":5977:6529   */\n      swap3\n      pop\n      swap3\n      swap1\n      pop\n      jump\t// out\n        /* \"#utility.yul\":6535:7498   */\n    tag_63:\n        /* \"#utility.yul\":6632:6638   */\n      0x00\n        /* \"#utility.yul\":6640:6646   */\n      dup1\n        /* \"#utility.yul\":6648:6654   */\n      0x00\n        /* \"#utility.yul\":6656:6662   */\n      dup1\n        /* \"#utility.yul\":6664:6670   */\n      0x00\n        /* \"#utility.yul\":6713:6716   */\n      0x80\n        /* \"#utility.yul\":6701:6710   */\n      dup7\n        /* \"#utility.yul\":6692:6699   */\n      dup9\n        /* \"#utility.yul\":6688:6711   */\n      sub\n        /* \"#utility.yul\":6684:6717   */\n      slt\n        /* \"#utility.yul\":6681:6801   */\n      iszero\n      tag_299\n      jumpi\n        /* \"#utility.yul\":6720:6799   */\n      tag_300\n      tag_163\n      jump\t// in\n    tag_300:\n        /* \"#utility.yul\":6681:6801   */\n    tag_299:\n        /* \"#utility.yul\":6840:6841   */\n      0x00\n        /* \"#utility.yul\":6865:6918   */\n      tag_301\n        /* \"#utility.yul\":6910:6917   */\n      dup9\n        /* \"#utility.yul\":6901:6907   */\n      dup3\n        /* \"#utility.yul\":6890:6899   */\n      dup10\n        /* \"#utility.yul\":6886:6908   */\n      add\n        /* \"#utility.yul\":6865:6918   */\n      tag_177\n      jump\t// in\n    tag_301:\n        /* \"#utility.yul\":6855:6918   */\n      swap6\n      pop\n        /* \"#utility.yul\":6811:6928   */\n      pop\n        /* \"#utility.yul\":6967:6969   */\n      0x20\n        /* \"#utility.yul\":6993:7046   */\n      tag_302\n        /* \"#utility.yul\":7038:7045   */\n      dup9\n        /* \"#utility.yul\":7029:7035   */\n      dup3\n        /* \"#utility.yul\":7018:7027   */\n      dup10\n        /* \"#utility.yul\":7014:7036   */\n      add\n        /* \"#utility.yul\":6993:7046   */\n      tag_177\n      jump\t// in\n    tag_302:\n        /* \"#utility.yul\":6983:7046   */\n      swap5\n      pop\n        /* \"#utility.yul\":6938:7056   */\n      pop\n        /* \"#utility.yul\":7095:7097   */\n      0x40\n        /* \"#utility.yul\":7121:7174   */\n      tag_303\n        /* \"#utility.yul\":7166:7173   */\n      dup9\n        /* \"#utility.yul\":7157:7163   */\n      dup3\n        /* \"#utility.yul\":7146:7155   */\n      dup10\n        /* \"#utility.yul\":7142:7164   */\n      add\n        /* \"#utility.yul\":7121:7174   */\n      tag_172\n      jump\t// in\n    tag_303:\n        /* \"#utility.yul\":7111:7174   */\n      swap4\n      pop\n        /* \"#utility.yul\":7066:7184   */\n      pop\n        /* \"#utility.yul\":7251:7253   */\n      0x60\n        /* \"#utility.yul\":7240:7249   */\n      dup7\n        /* \"#utility.yul\":7236:7254   */\n      add\n        /* \"#utility.yul\":7223:7255   */\n      calldataload\n        /* \"#utility.yul\":7282:7300   */\n      0xffffffffffffffff\n        /* \"#utility.yul\":7274:7280   */\n      dup2\n        /* \"#utility.yul\":7271:7301   */\n      gt\n        /* \"#utility.yul\":7268:7385   */\n      iszero\n      tag_304\n      jumpi\n        /* \"#utility.yul\":7304:7383   */\n      tag_305\n      tag_164\n      jump\t// in\n    tag_305:\n        /* \"#utility.yul\":7268:7385   */\n    tag_304:\n        /* \"#utility.yul\":7417:7481   */\n      tag_306\n        /* \"#utility.yul\":7473:7480   */\n      dup9\n        /* \"#utility.yul\":7464:7470   */\n      dup3\n        /* \"#utility.yul\":7453:7462   */\n      dup10\n        /* \"#utility.yul\":7449:7471   */\n      add\n        /* \"#utility.yul\":7417:7481   */\n      tag_184\n      jump\t// in\n    tag_306:\n        /* \"#utility.yul\":7399:7481   */\n      swap3\n      pop\n      swap3\n      pop\n        /* \"#utility.yul\":7194:7491   */\n      pop\n        /* \"#utility.yul\":6535:7498   */\n      swap3\n      swap6\n      pop\n      swap3\n      swap6\n      swap1\n      swap4\n      pop\n      jump\t// out\n        /* \"#utility.yul\":7504:7978   */\n    tag_71:\n        /* \"#utility.yul\":7572:7578   */\n      0x00\n        /* \"#utility.yul\":7580:7586   */\n      dup1\n        /* \"#utility.yul\":7629:7631   */\n      0x40\n        /* \"#utility.yul\":7617:7626   */\n      dup4\n        /* \"#utility.yul\":7608:7615   */\n      dup6\n        /* \"#utility.yul\":7604:7627   */\n      sub\n        /* \"#utility.yul\":7600:7632   */\n      slt\n        /* \"#utility.yul\":7597:7716   */\n      iszero\n      tag_308\n      jumpi\n        /* \"#utility.yul\":7635:7714   */\n      tag_309\n      tag_163\n      jump\t// in\n    tag_309:\n        /* \"#utility.yul\":7597:7716   */\n    tag_308:\n        /* \"#utility.yul\":7755:7756   */\n      0x00\n        /* \"#utility.yul\":7780:7833   */\n      tag_310\n        /* \"#utility.yul\":7825:7832   */\n      dup6\n        /* \"#utility.yul\":7816:7822   */\n      dup3\n        /* \"#utility.yul\":7805:7814   */\n      dup7\n        /* \"#utility.yul\":7801:7823   */\n      add\n        /* \"#utility.yul\":7780:7833   */\n      tag_177\n      jump\t// in\n    tag_310:\n        /* \"#utility.yul\":7770:7833   */\n      swap3\n      pop\n        /* \"#utility.yul\":7726:7843   */\n      pop\n        /* \"#utility.yul\":7882:7884   */\n      0x20\n        /* \"#utility.yul\":7908:7961   */\n      tag_311\n        /* \"#utility.yul\":7953:7960   */\n      dup6\n        /* \"#utility.yul\":7944:7950   */\n      dup3\n        /* \"#utility.yul\":7933:7942   */\n      dup7\n        /* \"#utility.yul\":7929:7951   */\n      add\n        /* \"#utility.yul\":7908:7961   */\n      tag_177\n      jump\t// in\n    tag_311:\n        /* \"#utility.yul\":7898:7961   */\n      swap2\n      pop\n        /* \"#utility.yul\":7853:7971   */\n      pop\n        /* \"#utility.yul\":7504:7978   */\n      swap3\n      pop\n      swap3\n      swap1\n      pop\n      jump\t// out\n        /* \"#utility.yul\":7984:8153   */\n    tag_185:\n        /* \"#utility.yul\":8068:8079   */\n      0x00\n        /* \"#utility.yul\":8102:8108   */\n      dup3\n        /* \"#utility.yul\":8097:8100   */\n      dup3\n        /* \"#utility.yul\":8090:8109   */\n      mstore\n        /* \"#utility.yul\":8142:8146   */\n      0x20\n        /* \"#utility.yul\":8137:8140   */\n      dup3\n        /* \"#utility.yul\":8133:8147   */\n      add\n        /* \"#utility.yul\":8118:8147   */\n      swap1\n      pop\n        /* \"#utility.yul\":7984:8153   */\n      swap3\n      swap2\n      pop\n      pop\n      jump\t// out\n        /* \"#utility.yul\":8159:8328   */\n    tag_186:\n        /* \"#utility.yul\":8299:8320   */\n      0x746f6b656e20646f65736e277420657869737400000000000000000000000000\n        /* \"#utility.yul\":8295:8296   */\n      0x00\n        /* \"#utility.yul\":8287:8293   */\n      dup3\n        /* \"#utility.yul\":8283:8297   */\n      add\n        /* \"#utility.yul\":8276:8321   */\n      mstore\n        /* \"#utility.yul\":8159:8328   */\n      pop\n      jump\t// out\n        /* \"#utility.yul\":8334:8700   */\n    tag_187:\n        /* \"#utility.yul\":8476:8479   */\n      0x00\n        /* \"#utility.yul\":8497:8564   */\n      tag_315\n        /* \"#utility.yul\":8561:8563   */\n      0x13\n        /* \"#utility.yul\":8556:8559   */\n      dup4\n        /* \"#utility.yul\":8497:8564   */\n      tag_185\n      jump\t// in\n    tag_315:\n        /* \"#utility.yul\":8490:8564   */\n      swap2\n      pop\n        /* \"#utility.yul\":8573:8666   */\n      tag_316\n        /* \"#utility.yul\":8662:8665   */\n      dup3\n        /* \"#utility.yul\":8573:8666   */\n      tag_186\n      jump\t// in\n    tag_316:\n        /* \"#utility.yul\":8691:8693   */\n      0x20\n        /* \"#utility.yul\":8686:8689   */\n      dup3\n        /* \"#utility.yul\":8682:8694   */\n      add\n        /* \"#utility.yul\":8675:8694   */\n      swap1\n      pop\n        /* \"#utility.yul\":8334:8700   */\n      swap2\n      swap1\n      pop\n      jump\t// out\n        /* \"#utility.yul\":8706:9125   */\n    tag_79:\n        /* \"#utility.yul\":8872:8876   */\n      0x00\n        /* \"#utility.yul\":8910:8912   */\n      0x20\n        /* \"#utility.yul\":8899:8908   */\n      dup3\n        /* \"#utility.yul\":8895:8913   */\n      add\n        /* \"#utility.yul\":8887:8913   */\n      swap1\n      pop\n        /* \"#utility.yul\":8959:8968   */\n      dup2\n        /* \"#utility.yul\":8953:8957   */\n      dup2\n        /* \"#utility.yul\":8949:8969   */\n      sub\n        /* \"#utility.yul\":8945:8946   */\n      0x00\n        /* \"#utility.yul\":8934:8943   */\n      dup4\n        /* \"#utility.yul\":8930:8947   */\n      add\n        /* \"#utility.yul\":8923:8970   */\n      mstore\n        /* \"#utility.yul\":8987:9118   */\n      tag_318\n        /* \"#utility.yul\":9113:9117   */\n      dup2\n        /* \"#utility.yul\":8987:9118   */\n      tag_187\n      jump\t// in\n    tag_318:\n        /* \"#utility.yul\":8979:9118   */\n      swap1\n      pop\n        /* \"#utility.yul\":8706:9125   */\n      swap2\n      swap1\n      pop\n      jump\t// out\n        /* \"#utility.yul\":9131:9295   */\n    tag_188:\n        /* \"#utility.yul\":9271:9287   */\n      0x6e6f7420617574686f72697a6564000000000000000000000000000000000000\n        /* \"#utility.yul\":9267:9268   */\n      0x00\n        /* \"#utility.yul\":9259:9265   */\n      dup3\n        /* \"#utility.yul\":9255:9269   */\n      add\n        /* \"#utility.yul\":9248:9288   */\n      mstore\n        /* \"#utility.yul\":9131:9295   */\n      pop\n      jump\t// out\n        /* \"#utility.yul\":9301:9667   */\n    tag_189:\n        /* \"#utility.yul\":9443:9446   */\n      0x00\n        /* \"#utility.yul\":9464:9531   */\n      tag_321\n        /* \"#utility.yul\":9528:9530   */\n      0x0e\n        /* \"#utility.yul\":9523:9526   */\n      dup4\n        /* \"#utility.yul\":9464:9531   */\n      tag_185\n      jump\t// in\n    tag_321:\n        /* \"#utility.yul\":9457:9531   */\n      swap2\n      pop\n        /* \"#utility.yul\":9540:9633   */\n      tag_322\n        /* \"#utility.yul\":9629:9632   */\n      dup3\n        /* \"#utility.yul\":9540:9633   */\n      tag_188\n      jump\t// in\n    tag_322:\n        /* \"#utility.yul\":9658:9660   */\n      0x20\n        /* \"#utility.yul\":9653:9656   */\n      dup3\n        /* \"#utility.yul\":9649:9661   */\n      add\n        /* \"#utility.yul\":9642:9661   */\n      swap1\n      pop\n        /* \"#utility.yul\":9301:9667   */\n      swap2\n      swap1\n      pop\n      jump\t// out\n        /* \"#utility.yul\":9673:10092   */\n    tag_84:\n        /* \"#utility.yul\":9839:9843   */\n      0x00\n        /* \"#utility.yul\":9877:9879   */\n      0x20\n        /* \"#utility.yul\":9866:9875   */\n      dup3\n        /* \"#utility.yul\":9862:9880   */\n      add\n        /* \"#utility.yul\":9854:9880   */\n      swap1\n      pop\n        /* \"#utility.yul\":9926:9935   */\n      dup2\n        /* \"#utility.yul\":9920:9924   */\n      dup2\n        /* \"#utility.yul\":9916:9936   */\n      sub\n        /* \"#utility.yul\":9912:9913   */\n      0x00\n        /* \"#utility.yul\":9901:9910   */\n      dup4\n        /* \"#utility.yul\":9897:9914   */\n      add\n        /* \"#utility.yul\":9890:9937   */\n      mstore\n        /* \"#utility.yul\":9954:10085   */\n      tag_324\n        /* \"#utility.yul\":10080:10084   */\n      dup2\n        /* \"#utility.yul\":9954:10085   */\n      tag_189\n      jump\t// in\n    tag_324:\n        /* \"#utility.yul\":9946:10085   */\n      swap1\n      pop\n        /* \"#utility.yul\":9673:10092   */\n      swap2\n      swap1\n      pop\n      jump\t// out\n        /* \"#utility.yul\":10098:10261   */\n    tag_190:\n        /* \"#utility.yul\":10238:10253   */\n      0x66726f6d20213d206f776e657200000000000000000000000000000000000000\n        /* \"#utility.yul\":10234:10235   */\n      0x00\n        /* \"#utility.yul\":10226:10232   */\n      dup3\n        /* \"#utility.yul\":10222:10236   */\n      add\n        /* \"#utility.yul\":10215:10254   */\n      mstore\n        /* \"#utility.yul\":10098:10261   */\n      pop\n      jump\t// out\n        /* \"#utility.yul\":10267:10633   */\n    tag_191:\n        /* \"#utility.yul\":10409:10412   */\n      0x00\n        /* \"#utility.yul\":10430:10497   */\n      tag_327\n        /* \"#utility.yul\":10494:10496   */\n      0x0d\n        /* \"#utility.yul\":10489:10492   */\n      dup4\n        /* \"#utility.yul\":10430:10497   */\n      tag_185\n      jump\t// in\n    tag_327:\n        /* \"#utility.yul\":10423:10497   */\n      swap2\n      pop\n        /* \"#utility.yul\":10506:10599   */\n      tag_328\n        /* \"#utility.yul\":10595:10598   */\n      dup3\n        /* \"#utility.yul\":10506:10599   */\n      tag_190\n      jump\t// in\n    tag_328:\n        /* \"#utility.yul\":10624:10626   */\n      0x20\n        /* \"#utility.yul\":10619:10622   */\n      dup3\n        /* \"#utility.yul\":10615:10627   */\n      add\n        /* \"#utility.yul\":10608:10627   */\n      swap1\n      pop\n        /* \"#utility.yul\":10267:10633   */\n      swap2\n      swap1\n      pop\n      jump\t// out\n        /* \"#utility.yul\":10639:11058   */\n    tag_88:\n        /* \"#utility.yul\":10805:10809   */\n      0x00\n        /* \"#utility.yul\":10843:10845   */\n      0x20\n        /* \"#utility.yul\":10832:10841   */\n      dup3\n        /* \"#utility.yul\":10828:10846   */\n      add\n        /* \"#utility.yul\":10820:10846   */\n      swap1\n      pop\n        /* \"#utility.yul\":10892:10901   */\n      dup2\n        /* \"#utility.yul\":10886:10890   */\n      dup2\n        /* \"#utility.yul\":10882:10902   */\n      sub\n        /* \"#utility.yul\":10878:10879   */\n      0x00\n        /* \"#utility.yul\":10867:10876   */\n      dup4\n        /* \"#utility.yul\":10863:10880   */\n      add\n        /* \"#utility.yul\":10856:10903   */\n      mstore\n        /* \"#utility.yul\":10920:11051   */\n      tag_330\n        /* \"#utility.yul\":11046:11050   */\n      dup2\n        /* \"#utility.yul\":10920:11051   */\n      tag_191\n      jump\t// in\n    tag_330:\n        /* \"#utility.yul\":10912:11051   */\n      swap1\n      pop\n        /* \"#utility.yul\":10639:11058   */\n      swap2\n      swap1\n      pop\n      jump\t// out\n        /* \"#utility.yul\":11064:11238   */\n    tag_192:\n        /* \"#utility.yul\":11204:11230   */\n      0x7472616e7366657220746f207a65726f20616464726573730000000000000000\n        /* \"#utility.yul\":11200:11201   */\n      0x00\n        /* \"#utility.yul\":11192:11198   */\n      dup3\n        /* \"#utility.yul\":11188:11202   */\n      add\n        /* \"#utility.yul\":11181:11231   */\n      mstore\n        /* \"#utility.yul\":11064:11238   */\n      pop\n      jump\t// out\n        /* \"#utility.yul\":11244:11610   */\n    tag_193:\n        /* \"#utility.yul\":11386:11389   */\n      0x00\n        /* \"#utility.yul\":11407:11474   */\n      tag_333\n        /* \"#utility.yul\":11471:11473   */\n      0x18\n        /* \"#utility.yul\":11466:11469   */\n      dup4\n        /* \"#utility.yul\":11407:11474   */\n      tag_185\n      jump\t// in\n    tag_333:\n        /* \"#utility.yul\":11400:11474   */\n      swap2\n      pop\n        /* \"#utility.yul\":11483:11576   */\n      tag_334\n        /* \"#utility.yul\":11572:11575   */\n      dup3\n        /* \"#utility.yul\":11483:11576   */\n      tag_192\n      jump\t// in\n    tag_334:\n        /* \"#utility.yul\":11601:11603   */\n      0x20\n        /* \"#utility.yul\":11596:11599   */\n      dup3\n        /* \"#utility.yul\":11592:11604   */\n      add\n        /* \"#utility.yul\":11585:11604   */\n      swap1\n      pop\n        /* \"#utility.yul\":11244:11610   */\n      swap2\n      swap1\n      pop\n      jump\t// out\n        /* \"#utility.yul\":11616:12035   */\n    tag_91:\n        /* \"#utility.yul\":11782:11786   */\n      0x00\n        /* \"#utility.yul\":11820:11822   */\n      0x20\n        /* \"#utility.yul\":11809:11818   */\n      dup3\n        /* \"#utility.yul\":11805:11823   */\n      add\n        /* \"#utility.yul\":11797:11823   */\n      swap1\n      pop\n        /* \"#utility.yul\":11869:11878   */\n      dup2\n        /* \"#utility.yul\":11863:11867   */\n      dup2\n        /* \"#utility.yul\":11859:11879   */\n      sub\n        /* \"#utility.yul\":11855:11856   */\n      0x00\n        /* \"#utility.yul\":11844:11853   */\n      dup4\n        /* \"#utility.yul\":11840:11857   */\n      add\n        /* \"#utility.yul\":11833:11880   */\n      mstore\n        /* \"#utility.yul\":11897:12028   */\n      tag_336\n        /* \"#utility.yul\":12023:12027   */\n      dup2\n        /* \"#utility.yul\":11897:12028   */\n      tag_193\n      jump\t// in\n    tag_336:\n        /* \"#utility.yul\":11889:12028   */\n      swap1\n      pop\n        /* \"#utility.yul\":11616:12035   */\n      swap2\n      swap1\n      pop\n      jump\t// out\n        /* \"#utility.yul\":12041:12219   */\n    tag_194:\n        /* \"#utility.yul\":12181:12211   */\n      0x7472616e7366657246726f6d3a206e6f7420617574686f72697a656400000000\n        /* \"#utility.yul\":12177:12178   */\n      0x00\n        /* \"#utility.yul\":12169:12175   */\n      dup3\n        /* \"#utility.yul\":12165:12179   */\n      add\n        /* \"#utility.yul\":12158:12212   */\n      mstore\n        /* \"#utility.yul\":12041:12219   */\n      pop\n      jump\t// out\n        /* \"#utility.yul\":12225:12591   */\n    tag_195:\n        /* \"#utility.yul\":12367:12370   */\n      0x00\n        /* \"#utility.yul\":12388:12455   */\n      tag_339\n        /* \"#utility.yul\":12452:12454   */\n      0x1c\n        /* \"#utility.yul\":12447:12450   */\n      dup4\n        /* \"#utility.yul\":12388:12455   */\n      tag_185\n      jump\t// in\n    tag_339:\n        /* \"#utility.yul\":12381:12455   */\n      swap2\n      pop\n        /* \"#utility.yul\":12464:12557   */\n      tag_340\n        /* \"#utility.yul\":12553:12556   */\n      dup3\n        /* \"#utility.yul\":12464:12557   */\n      tag_194\n      jump\t// in\n    tag_340:\n        /* \"#utility.yul\":12582:12584   */\n      0x20\n        /* \"#utility.yul\":12577:12580   */\n      dup3\n        /* \"#utility.yul\":12573:12585   */\n      add\n        /* \"#utility.yul\":12566:12585   */\n      swap1\n      pop\n        /* \"#utility.yul\":12225:12591   */\n      swap2\n      swap1\n      pop\n      jump\t// out\n        /* \"#utility.yul\":12597:13016   */\n    tag_96:\n        /* \"#utility.yul\":12763:12767   */\n      0x00\n        /* \"#utility.yul\":12801:12803   */\n      0x20\n        /* \"#utility.yul\":12790:12799   */\n      dup3\n        /* \"#utility.yul\":12786:12804   */\n      add\n        /* \"#utility.yul\":12778:12804   */\n      swap1\n      pop\n        /* \"#utility.yul\":12850:12859   */\n      dup2\n        /* \"#utility.yul\":12844:12848   */\n      dup2\n        /* \"#utility.yul\":12840:12860   */\n      sub\n        /* \"#utility.yul\":12836:12837   */\n      0x00\n        /* \"#utility.yul\":12825:12834   */\n      dup4\n        /* \"#utility.yul\":12821:12838   */\n      add\n        /* \"#utility.yul\":12814:12861   */\n      mstore\n        /* \"#utility.yul\":12878:13009   */\n      tag_342\n        /* \"#utility.yul\":13004:13008   */\n      dup2\n        /* \"#utility.yul\":12878:13009   */\n      tag_195\n      jump\t// in\n    tag_342:\n        /* \"#utility.yul\":12870:13009   */\n      swap1\n      pop\n        /* \"#utility.yul\":12597:13016   */\n      swap2\n      swap1\n      pop\n      jump\t// out\n        /* \"#utility.yul\":13022:13202   */\n    tag_196:\n        /* \"#utility.yul\":13070:13147   */\n      0x4e487b7100000000000000000000000000000000000000000000000000000000\n        /* \"#utility.yul\":13067:13068   */\n      0x00\n        /* \"#utility.yul\":13060:13148   */\n      mstore\n        /* \"#utility.yul\":13167:13171   */\n      0x11\n        /* \"#utility.yul\":13164:13165   */\n      0x04\n        /* \"#utility.yul\":13157:13172   */\n      mstore\n        /* \"#utility.yul\":13191:13195   */\n      0x24\n        /* \"#utility.yul\":13188:13189   */\n      0x00\n        /* \"#utility.yul\":13181:13196   */\n      revert\n        /* \"#utility.yul\":13208:13379   */\n    tag_98:\n        /* \"#utility.yul\":13247:13250   */\n      0x00\n        /* \"#utility.yul\":13270:13294   */\n      tag_345\n        /* \"#utility.yul\":13288:13293   */\n      dup3\n        /* \"#utility.yul\":13270:13294   */\n      tag_170\n      jump\t// in\n    tag_345:\n        /* \"#utility.yul\":13261:13294   */\n      swap2\n      pop\n        /* \"#utility.yul\":13316:13320   */\n      0x00\n        /* \"#utility.yul\":13309:13314   */\n      dup3\n        /* \"#utility.yul\":13306:13321   */\n      sub\n        /* \"#utility.yul\":13303:13344   */\n      tag_346\n      jumpi\n        /* \"#utility.yul\":13324:13342   */\n      tag_347\n      tag_196\n      jump\t// in\n    tag_347:\n        /* \"#utility.yul\":13303:13344   */\n    tag_346:\n        /* \"#utility.yul\":13371:13372   */\n      0x01\n        /* \"#utility.yul\":13364:13369   */\n      dup3\n        /* \"#utility.yul\":13360:13373   */\n      sub\n        /* \"#utility.yul\":13353:13373   */\n      swap1\n      pop\n        /* \"#utility.yul\":13208:13379   */\n      swap2\n      swap1\n      pop\n      jump\t// out\n        /* \"#utility.yul\":13385:13618   */\n    tag_100:\n        /* \"#utility.yul\":13424:13427   */\n      0x00\n        /* \"#utility.yul\":13447:13471   */\n      tag_349\n        /* \"#utility.yul\":13465:13470   */\n      dup3\n        /* \"#utility.yul\":13447:13471   */\n      tag_170\n      jump\t// in\n    tag_349:\n        /* \"#utility.yul\":13438:13471   */\n      swap2\n      pop\n        /* \"#utility.yul\":13493:13559   */\n      0xffffffffffffffffffffffffffffffffffffffffffffffffffffffffffffffff\n        /* \"#utility.yul\":13486:13491   */\n      dup3\n        /* \"#utility.yul\":13483:13560   */\n      sub\n        /* \"#utility.yul\":13480:13583   */\n      tag_350\n      jumpi\n        /* \"#utility.yul\":13563:13581   */\n      tag_351\n      tag_196\n      jump\t// in\n    tag_351:\n        /* \"#utility.yul\":13480:13583   */\n    tag_350:\n        /* \"#utility.yul\":13610:13611   */\n      0x01\n        /* \"#utility.yul\":13603:13608   */\n      dup3\n        /* \"#utility.yul\":13599:13612   */\n      add\n        /* \"#utility.yul\":13592:13612   */\n      swap1\n      pop\n        /* \"#utility.yul\":13385:13618   */\n      swap2\n      swap1\n      pop\n      jump\t// out\n        /* \"#utility.yul\":13624:13792   */\n    tag_197:\n        /* \"#utility.yul\":13707:13718   */\n      0x00\n        /* \"#utility.yul\":13741:13747   */\n      dup3\n        /* \"#utility.yul\":13736:13739   */\n      dup3\n        /* \"#utility.yul\":13729:13748   */\n      mstore\n        /* \"#utility.yul\":13781:13785   */\n      0x20\n        /* \"#utility.yul\":13776:13779   */\n      dup3\n        /* \"#utility.yul\":13772:13786   */\n      add\n        /* \"#utility.yul\":13757:13786   */\n      swap1\n      pop\n        /* \"#utility.yul\":13624:13792   */\n      swap3\n      swap2\n      pop\n      pop\n      jump\t// out\n        /* \"#utility.yul\":13798:13912   */\n    tag_198:\n      pop\n      jump\t// out\n        /* \"#utility.yul\":13918:14280   */\n    tag_199:\n        /* \"#utility.yul\":14059:14062   */\n      0x00\n        /* \"#utility.yul\":14080:14145   */\n      tag_355\n        /* \"#utility.yul\":14143:14144   */\n      0x00\n        /* \"#utility.yul\":14138:14141   */\n      dup4\n        /* \"#utility.yul\":14080:14145   */\n      tag_197\n      jump\t// in\n    tag_355:\n        /* \"#utility.yul\":14073:14145   */\n      swap2\n      pop\n        /* \"#utility.yul\":14154:14247   */\n      tag_356\n        /* \"#utility.yul\":14243:14246   */\n      dup3\n        /* \"#utility.yul\":14154:14247   */\n      tag_198\n      jump\t// in\n    tag_356:\n        /* \"#utility.yul\":14272:14273   */\n      0x00\n        /* \"#utility.yul\":14267:14270   */\n      dup3\n        /* \"#utility.yul\":14263:14274   */\n      add\n        /* \"#utility.yul\":14256:14274   */\n      swap1\n      pop\n        /* \"#utility.yul\":13918:14280   */\n      swap2\n      swap1\n      pop\n      jump\t// out\n        /* \"#utility.yul\":14286:15034   */\n    tag_108:\n        /* \"#utility.yul\":14535:14539   */\n      0x00\n        /* \"#utility.yul\":14573:14576   */\n      0x80\n        /* \"#utility.yul\":14562:14571   */\n      dup3\n        /* \"#utility.yul\":14558:14577   */\n      add\n        /* \"#utility.yul\":14550:14577   */\n      swap1\n      pop\n        /* \"#utility.yul\":14587:14658   */\n      tag_358\n        /* \"#utility.yul\":14655:14656   */\n      0x00\n        /* \"#utility.yul\":14644:14653   */\n      dup4\n        /* \"#utility.yul\":14640:14657   */\n      add\n        /* \"#utility.yul\":14631:14637   */\n      dup7\n        /* \"#utility.yul\":14587:14658   */\n      tag_175\n      jump\t// in\n    tag_358:\n        /* \"#utility.yul\":14668:14740   */\n      tag_359\n        /* \"#utility.yul\":14736:14738   */\n      0x20\n        /* \"#utility.yul\":14725:14734   */\n      dup4\n        /* \"#utility.yul\":14721:14739   */\n      add\n        /* \"#utility.yul\":14712:14718   */\n      dup6\n        /* \"#utility.yul\":14668:14740   */\n      tag_175\n      jump\t// in\n    tag_359:\n        /* \"#utility.yul\":14750:14822   */\n      tag_360\n        /* \"#utility.yul\":14818:14820   */\n      0x40\n        /* \"#utility.yul\":14807:14816   */\n      dup4\n        /* \"#utility.yul\":14803:14821   */\n      add\n        /* \"#utility.yul\":14794:14800   */\n      dup5\n        /* \"#utility.yul\":14750:14822   */\n      tag_178\n      jump\t// in\n    tag_360:\n        /* \"#utility.yul\":14869:14878   */\n      dup2\n        /* \"#utility.yul\":14863:14867   */\n      dup2\n        /* \"#utility.yul\":14859:14879   */\n      sub\n        /* \"#utility.yul\":14854:14856   */\n      0x60\n        /* \"#utility.yul\":14843:14852   */\n      dup4\n        /* \"#utility.yul\":14839:14857   */\n      add\n        /* \"#utility.yul\":14832:14880   */\n      mstore\n        /* \"#utility.yul\":14897:15027   */\n      tag_361\n        /* \"#utility.yul\":15022:15026   */\n      dup2\n        /* \"#utility.yul\":14897:15027   */\n      tag_199\n      jump\t// in\n    tag_361:\n        /* \"#utility.yul\":14889:15027   */\n      swap1\n      pop\n        /* \"#utility.yul\":14286:15034   */\n      swap5\n      swap4\n      pop\n      pop\n      pop\n      pop\n      jump\t// out\n        /* \"#utility.yul\":15040:15181   */\n    tag_200:\n        /* \"#utility.yul\":15096:15101   */\n      0x00\n        /* \"#utility.yul\":15127:15133   */\n      dup2\n        /* \"#utility.yul\":15121:15134   */\n      mload\n        /* \"#utility.yul\":15112:15134   */\n      swap1\n      pop\n        /* \"#utility.yul\":15143:15175   */\n      tag_363\n        /* \"#utility.yul\":15169:15174   */\n      dup2\n        /* \"#utility.yul\":15143:15175   */\n      tag_166\n      jump\t// in\n    tag_363:\n        /* \"#utility.yul\":15040:15181   */\n      swap3\n      swap2\n      pop\n      pop\n      jump\t// out\n        /* \"#utility.yul\":15187:15536   */\n    tag_112:\n        /* \"#utility.yul\":15256:15262   */\n      0x00\n        /* \"#utility.yul\":15305:15307   */\n      0x20\n        /* \"#utility.yul\":15293:15302   */\n      dup3\n        /* \"#utility.yul\":15284:15291   */\n      dup5\n        /* \"#utility.yul\":15280:15303   */\n      sub\n        /* \"#utility.yul\":15276:15308   */\n      slt\n        /* \"#utility.yul\":15273:15392   */\n      iszero\n      tag_365\n      jumpi\n        /* \"#utility.yul\":15311:15390   */\n      tag_366\n      tag_163\n      jump\t// in\n    tag_366:\n        /* \"#utility.yul\":15273:15392   */\n    tag_365:\n        /* \"#utility.yul\":15431:15432   */\n      0x00\n        /* \"#utility.yul\":15456:15519   */\n      tag_367\n        /* \"#utility.yul\":15511:15518   */\n      dup5\n        /* \"#utility.yul\":15502:15508   */\n      dup3\n        /* \"#utility.yul\":15491:15500   */\n      dup6\n        /* \"#utility.yul\":15487:15509   */\n      add\n        /* \"#utility.yul\":15456:15519   */\n      tag_200\n      jump\t// in\n    tag_367:\n        /* \"#utility.yul\":15446:15519   */\n      swap2\n      pop\n        /* \"#utility.yul\":15402:15529   */\n      pop\n        /* \"#utility.yul\":15187:15536   */\n      swap3\n      swap2\n      pop\n      pop\n      jump\t// out\n        /* \"#utility.yul\":15542:15708   */\n    tag_201:\n        /* \"#utility.yul\":15682:15700   */\n      0x756e7361666520726563697069656e7400000000000000000000000000000000\n        /* \"#utility.yul\":15678:15679   */\n      0x00\n        /* \"#utility.yul\":15670:15676   */\n      dup3\n        /* \"#utility.yul\":15666:15680   */\n      add\n        /* \"#utility.yul\":15659:15701   */\n      mstore\n        /* \"#utility.yul\":15542:15708   */\n      pop\n      jump\t// out\n        /* \"#utility.yul\":15714:16080   */\n    tag_202:\n        /* \"#utility.yul\":15856:15859   */\n      0x00\n        /* \"#utility.yul\":15877:15944   */\n      tag_370\n        /* \"#utility.yul\":15941:15943   */\n      0x10\n        /* \"#utility.yul\":15936:15939   */\n      dup4\n        /* \"#utility.yul\":15877:15944   */\n      tag_185\n      jump\t// in\n    tag_370:\n        /* \"#utility.yul\":15870:15944   */\n      swap2\n      pop\n        /* \"#utility.yul\":15953:16046   */\n      tag_371\n        /* \"#utility.yul\":16042:16045   */\n      dup3\n        /* \"#utility.yul\":15953:16046   */\n      tag_201\n      jump\t// in\n    tag_371:\n        /* \"#utility.yul\":16071:16073   */\n      0x20\n        /* \"#utility.yul\":16066:16069   */\n      dup3\n        /* \"#utility.yul\":16062:16074   */\n      add\n        /* \"#utility.yul\":16055:16074   */\n      swap1\n      pop\n        /* \"#utility.yul\":15714:16080   */\n      swap2\n      swap1\n      pop\n      jump\t// out\n        /* \"#utility.yul\":16086:16505   */\n    tag_115:\n        /* \"#utility.yul\":16252:16256   */\n      0x00\n        /* \"#utility.yul\":16290:16292   */\n      0x20\n        /* \"#utility.yul\":16279:16288   */\n      dup3\n        /* \"#utility.yul\":16275:16293   */\n      add\n        /* \"#utility.yul\":16267:16293   */\n      swap1\n      pop\n        /* \"#utility.yul\":16339:16348   */\n      dup2\n        /* \"#utility.yul\":16333:16337   */\n      dup2\n        /* \"#utility.yul\":16329:16349   */\n      sub\n        /* \"#utility.yul\":16325:16326   */\n      0x00\n        /* \"#utility.yul\":16314:16323   */\n      dup4\n        /* \"#utility.yul\":16310:16327   */\n      add\n        /* \"#utility.yul\":16303:16350   */\n      mstore\n        /* \"#utility.yul\":16367:16498   */\n      tag_373\n        /* \"#utility.yul\":16493:16497   */\n      dup2\n        /* \"#utility.yul\":16367:16498   */\n      tag_202\n      jump\t// in\n    tag_373:\n        /* \"#utility.yul\":16359:16498   */\n      swap1\n      pop\n        /* \"#utility.yul\":16086:16505   */\n      swap2\n      swap1\n      pop\n      jump\t// out\n        /* \"#utility.yul\":16511:16670   */\n    tag_203:\n        /* \"#utility.yul\":16651:16662   */\n      0x6e6f74206f776e65720000000000000000000000000000000000000000000000\n        /* \"#utility.yul\":16647:16648   */\n      0x00\n        /* \"#utility.yul\":16639:16645   */\n      dup3\n        /* \"#utility.yul\":16635:16649   */\n      add\n        /* \"#utility.yul\":16628:16663   */\n      mstore\n        /* \"#utility.yul\":16511:16670   */\n      pop\n      jump\t// out\n        /* \"#utility.yul\":16676:17041   */\n    tag_204:\n        /* \"#utility.yul\":16818:16821   */\n      0x00\n        /* \"#utility.yul\":16839:16905   */\n      tag_376\n        /* \"#utility.yul\":16903:16904   */\n      0x09\n        /* \"#utility.yul\":16898:16901   */\n      dup4\n        /* \"#utility.yul\":16839:16905   */\n      tag_185\n      jump\t// in\n    tag_376:\n        /* \"#utility.yul\":16832:16905   */\n      swap2\n      pop\n        /* \"#utility.yul\":16914:17007   */\n      tag_377\n        /* \"#utility.yul\":17003:17006   */\n      dup3\n        /* \"#utility.yul\":16914:17007   */\n      tag_203\n      jump\t// in\n    tag_377:\n        /* \"#utility.yul\":17032:17034   */\n      0x20\n        /* \"#utility.yul\":17027:17030   */\n      dup3\n        /* \"#utility.yul\":17023:17035   */\n      add\n        /* \"#utility.yul\":17016:17035   */\n      swap1\n      pop\n        /* \"#utility.yul\":16676:17041   */\n      swap2\n      swap1\n      pop\n      jump\t// out\n        /* \"#utility.yul\":17047:17466   */\n    tag_119:\n        /* \"#utility.yul\":17213:17217   */\n      0x00\n        /* \"#utility.yul\":17251:17253   */\n      0x20\n        /* \"#utility.yul\":17240:17249   */\n      dup3\n        /* \"#utility.yul\":17236:17254   */\n      add\n        /* \"#utility.yul\":17228:17254   */\n      swap1\n      pop\n        /* \"#utility.yul\":17300:17309   */\n      dup2\n        /* \"#utility.yul\":17294:17298   */\n      dup2\n        /* \"#utility.yul\":17290:17310   */\n      sub\n        /* \"#utility.yul\":17286:17287   */\n      0x00\n        /* \"#utility.yul\":17275:17284   */\n      dup4\n        /* \"#utility.yul\":17271:17288   */\n      add\n        /* \"#utility.yul\":17264:17311   */\n      mstore\n        /* \"#utility.yul\":17328:17459   */\n      tag_379\n        /* \"#utility.yul\":17454:17458   */\n      dup2\n        /* \"#utility.yul\":17328:17459   */\n      tag_204\n      jump\t// in\n    tag_379:\n        /* \"#utility.yul\":17320:17459   */\n      swap1\n      pop\n        /* \"#utility.yul\":17047:17466   */\n      swap2\n      swap1\n      pop\n      jump\t// out\n        /* \"#utility.yul\":17472:17642   */\n    tag_205:\n        /* \"#utility.yul\":17612:17634   */\n      0x6f776e6572203d207a65726f2061646472657373000000000000000000000000\n        /* \"#utility.yul\":17608:17609   */\n      0x00\n        /* \"#utility.yul\":17600:17606   */\n      dup3\n        /* \"#utility.yul\":17596:17610   */\n      add\n        /* \"#utility.yul\":17589:17635   */\n      mstore\n        /* \"#utility.yul\":17472:17642   */\n      pop\n      jump\t// out\n        /* \"#utility.yul\":17648:18014   */\n    tag_206:\n        /* \"#utility.yul\":17790:17793   */\n      0x00\n        /* \"#utility.yul\":17811:17878   */\n      tag_382\n        /* \"#utility.yul\":17875:17877   */\n      0x14\n        /* \"#utility.yul\":17870:17873   */\n      dup4\n        /* \"#utility.yul\":17811:17878   */\n      tag_185\n      jump\t// in\n    tag_382:\n        /* \"#utility.yul\":17804:17878   */\n      swap2\n      pop\n        /* \"#utility.yul\":17887:17980   */\n      tag_383\n        /* \"#utility.yul\":17976:17979   */\n      dup3\n        /* \"#utility.yul\":17887:17980   */\n      tag_205\n      jump\t// in\n    tag_383:\n        /* \"#utility.yul\":18005:18007   */\n      0x20\n        /* \"#utility.yul\":18000:18003   */\n      dup3\n        /* \"#utility.yul\":17996:18008   */\n      add\n        /* \"#utility.yul\":17989:18008   */\n      swap1\n      pop\n        /* \"#utility.yul\":17648:18014   */\n      swap2\n      swap1\n      pop\n      jump\t// out\n        /* \"#utility.yul\":18020:18439   */\n    tag_128:\n        /* \"#utility.yul\":18186:18190   */\n      0x00\n        /* \"#utility.yul\":18224:18226   */\n      0x20\n        /* \"#utility.yul\":18213:18222   */\n      dup3\n        /* \"#utility.yul\":18209:18227   */\n      add\n        /* \"#utility.yul\":18201:18227   */\n      swap1\n      pop\n        /* \"#utility.yul\":18273:18282   */\n      dup2\n        /* \"#utility.yul\":18267:18271   */\n      dup2\n        /* \"#utility.yul\":18263:18283   */\n      sub\n        /* \"#utility.yul\":18259:18260   */\n      0x00\n        /* \"#utility.yul\":18248:18257   */\n      dup4\n        /* \"#utility.yul\":18244:18261   */\n      add\n        /* \"#utility.yul\":18237:18284   */\n      mstore\n        /* \"#utility.yul\":18301:18432   */\n      tag_385\n        /* \"#utility.yul\":18427:18431   */\n      dup2\n        /* \"#utility.yul\":18301:18432   */\n      tag_206\n      jump\t// in\n    tag_385:\n        /* \"#utility.yul\":18293:18432   */\n      swap1\n      pop\n        /* \"#utility.yul\":18020:18439   */\n      swap2\n      swap1\n      pop\n      jump\t// out\n        /* \"#utility.yul\":18445:18593   */\n    tag_207:\n        /* \"#utility.yul\":18543:18549   */\n      dup3\n        /* \"#utility.yul\":18538:18541   */\n      dup2\n        /* \"#utility.yul\":18533:18536   */\n      dup4\n        /* \"#utility.yul\":18520:18550   */\n      calldatacopy\n        /* \"#utility.yul\":18584:18585   */\n      0x00\n        /* \"#utility.yul\":18575:18581   */\n      dup4\n        /* \"#utility.yul\":18570:18573   */\n      dup4\n        /* \"#utility.yul\":18566:18582   */\n      add\n        /* \"#utility.yul\":18559:18586   */\n      mstore\n        /* \"#utility.yul\":18445:18593   */\n      pop\n      pop\n      pop\n      jump\t// out\n        /* \"#utility.yul\":18599:18701   */\n    tag_208:\n        /* \"#utility.yul\":18640:18646   */\n      0x00\n        /* \"#utility.yul\":18691:18693   */\n      0x1f\n        /* \"#utility.yul\":18687:18694   */\n      not\n        /* \"#utility.yul\":18682:18684   */\n      0x1f\n        /* \"#utility.yul\":18675:18680   */\n      dup4\n        /* \"#utility.yul\":18671:18685   */\n      add\n        /* \"#utility.yul\":18667:18695   */\n      and\n        /* \"#utility.yul\":18657:18695   */\n      swap1\n      pop\n        /* \"#utility.yul\":18599:18701   */\n      swap2\n      swap1\n      pop\n      jump\t// out\n        /* \"#utility.yul\":18729:19043   */\n    tag_209:\n        /* \"#utility.yul\":18825:18828   */\n      0x00\n        /* \"#utility.yul\":18846:18916   */\n      tag_389\n        /* \"#utility.yul\":18909:18915   */\n      dup4\n        /* \"#utility.yul\":18904:18907   */\n      dup6\n        /* \"#utility.yul\":18846:18916   */\n      tag_197\n      jump\t// in\n    tag_389:\n        /* \"#utility.yul\":18839:18916   */\n      swap4\n      pop\n        /* \"#utility.yul\":18926:18982   */\n      tag_390\n        /* \"#utility.yul\":18975:18981   */\n      dup4\n        /* \"#utility.yul\":18970:18973   */\n      dup6\n        /* \"#utility.yul\":18963:18968   */\n      dup5\n        /* \"#utility.yul\":18926:18982   */\n      tag_207\n      jump\t// in\n    tag_390:\n        /* \"#utility.yul\":19007:19036   */\n      tag_391\n        /* \"#utility.yul\":19029:19035   */\n      dup4\n        /* \"#utility.yul\":19007:19036   */\n      tag_208\n      jump\t// in\n    tag_391:\n        /* \"#utility.yul\":19002:19005   */\n      dup5\n        /* \"#utility.yul\":18998:19037   */\n      add\n        /* \"#utility.yul\":18991:19037   */\n      swap1\n      pop\n        /* \"#utility.yul\":18729:19043   */\n      swap4\n      swap3\n      pop\n      pop\n      pop\n      jump\t// out\n        /* \"#utility.yul\":19049:19709   */\n    tag_135:\n        /* \"#utility.yul\":19254:19258   */\n      0x00\n        /* \"#utility.yul\":19292:19295   */\n      0x80\n        /* \"#utility.yul\":19281:19290   */\n      dup3\n        /* \"#utility.yul\":19277:19296   */\n      add\n        /* \"#utility.yul\":19269:19296   */\n      swap1\n      pop\n        /* \"#utility.yul\":19306:19377   */\n      tag_393\n        /* \"#utility.yul\":19374:19375   */\n      0x00\n        /* \"#utility.yul\":19363:19372   */\n      dup4\n        /* \"#utility.yul\":19359:19376   */\n      add\n        /* \"#utility.yul\":19350:19356   */\n      dup9\n        /* \"#utility.yul\":19306:19377   */\n      tag_175\n      jump\t// in\n    tag_393:\n        /* \"#utility.yul\":19387:19459   */\n      tag_394\n        /* \"#utility.yul\":19455:19457   */\n      0x20\n        /* \"#utility.yul\":19444:19453   */\n      dup4\n        /* \"#utility.yul\":19440:19458   */\n      add\n        /* \"#utility.yul\":19431:19437   */\n      dup8\n        /* \"#utility.yul\":19387:19459   */\n      tag_175\n      jump\t// in\n    tag_394:\n        /* \"#utility.yul\":19469:19541   */\n      tag_395\n        /* \"#utility.yul\":19537:19539   */\n      0x40\n        /* \"#utility.yul\":19526:19535   */\n      dup4\n        /* \"#utility.yul\":19522:19540   */\n      add\n        /* \"#utility.yul\":19513:19519   */\n      dup7\n        /* \"#utility.yul\":19469:19541   */\n      tag_178\n      jump\t// in\n    tag_395:\n        /* \"#utility.yul\":19588:19597   */\n      dup2\n        /* \"#utility.yul\":19582:19586   */\n      dup2\n        /* \"#utility.yul\":19578:19598   */\n      sub\n        /* \"#utility.yul\":19573:19575   */\n      0x60\n        /* \"#utility.yul\":19562:19571   */\n      dup4\n        /* \"#utility.yul\":19558:19576   */\n      add\n        /* \"#utility.yul\":19551:19599   */\n      mstore\n        /* \"#utility.yul\":19616:19702   */\n      tag_396\n        /* \"#utility.yul\":19697:19701   */\n      dup2\n        /* \"#utility.yul\":19688:19694   */\n      dup5\n        /* \"#utility.yul\":19680:19686   */\n      dup7\n        /* \"#utility.yul\":19616:19702   */\n      tag_209\n      jump\t// in\n    tag_396:\n        /* \"#utility.yul\":19608:19702   */\n      swap1\n      pop\n        /* \"#utility.yul\":19049:19709   */\n      swap7\n      swap6\n      pop\n      pop\n      pop\n      pop\n      pop\n      pop\n      jump\t// out\n        /* \"#utility.yul\":19715:19891   */\n    tag_210:\n        /* \"#utility.yul\":19855:19883   */\n      0x4d794e46542c20746f6b656e20646f65736e2774206578697374000000000000\n        /* \"#utility.yul\":19851:19852   */\n      0x00\n        /* \"#utility.yul\":19843:19849   */\n      dup3\n        /* \"#utility.yul\":19839:19853   */\n      add\n        /* \"#utility.yul\":19832:19884   */\n      mstore\n        /* \"#utility.yul\":19715:19891   */\n      pop\n      jump\t// out\n        /* \"#utility.yul\":19897:20263   */\n    tag_211:\n        /* \"#utility.yul\":20039:20042   */\n      0x00\n        /* \"#utility.yul\":20060:20127   */\n      tag_399\n        /* \"#utility.yul\":20124:20126   */\n      0x1a\n        /* \"#utility.yul\":20119:20122   */\n      dup4\n        /* \"#utility.yul\":20060:20127   */\n      tag_185\n      jump\t// in\n    tag_399:\n        /* \"#utility.yul\":20053:20127   */\n      swap2\n      pop\n        /* \"#utility.yul\":20136:20229   */\n      tag_400\n        /* \"#utility.yul\":20225:20228   */\n      dup3\n        /* \"#utility.yul\":20136:20229   */\n      tag_210\n      jump\t// in\n    tag_400:\n        /* \"#utility.yul\":20254:20256   */\n      0x20\n        /* \"#utility.yul\":20249:20252   */\n      dup3\n        /* \"#utility.yul\":20245:20257   */\n      add\n        /* \"#utility.yul\":20238:20257   */\n      swap1\n      pop\n        /* \"#utility.yul\":19897:20263   */\n      swap2\n      swap1\n      pop\n      jump\t// out\n        /* \"#utility.yul\":20269:20688   */\n    tag_144:\n        /* \"#utility.yul\":20435:20439   */\n      0x00\n        /* \"#utility.yul\":20473:20475   */\n      0x20\n        /* \"#utility.yul\":20462:20471   */\n      dup3\n        /* \"#utility.yul\":20458:20476   */\n      add\n        /* \"#utility.yul\":20450:20476   */\n      swap1\n      pop\n        /* \"#utility.yul\":20522:20531   */\n      dup2\n        /* \"#utility.yul\":20516:20520   */\n      dup2\n        /* \"#utility.yul\":20512:20532   */\n      sub\n        /* \"#utility.yul\":20508:20509   */\n      0x00\n        /* \"#utility.yul\":20497:20506   */\n      dup4\n        /* \"#utility.yul\":20493:20510   */\n      add\n        /* \"#utility.yul\":20486:20533   */\n      mstore\n        /* \"#utility.yul\":20550:20681   */\n      tag_402\n        /* \"#utility.yul\":20676:20680   */\n      dup2\n        /* \"#utility.yul\":20550:20681   */\n      tag_211\n      jump\t// in\n    tag_402:\n        /* \"#utility.yul\":20542:20681   */\n      swap1\n      pop\n        /* \"#utility.yul\":20269:20688   */\n      swap2\n      swap1\n      pop\n      jump\t// out\n        /* \"#utility.yul\":20694:20864   */\n    tag_212:\n        /* \"#utility.yul\":20834:20856   */\n      0x6d696e7420746f207a65726f2061646472657373000000000000000000000000\n        /* \"#utility.yul\":20830:20831   */\n      0x00\n        /* \"#utility.yul\":20822:20828   */\n      dup3\n        /* \"#utility.yul\":20818:20832   */\n      add\n        /* \"#utility.yul\":20811:20857   */\n      mstore\n        /* \"#utility.yul\":20694:20864   */\n      pop\n      jump\t// out\n        /* \"#utility.yul\":20870:21236   */\n    tag_213:\n        /* \"#utility.yul\":21012:21015   */\n      0x00\n        /* \"#utility.yul\":21033:21100   */\n      tag_405\n        /* \"#utility.yul\":21097:21099   */\n      0x14\n        /* \"#utility.yul\":21092:21095   */\n      dup4\n        /* \"#utility.yul\":21033:21100   */\n      tag_185\n      jump\t// in\n    tag_405:\n        /* \"#utility.yul\":21026:21100   */\n      swap2\n      pop\n        /* \"#utility.yul\":21109:21202   */\n      tag_406\n        /* \"#utility.yul\":21198:21201   */\n      dup3\n        /* \"#utility.yul\":21109:21202   */\n      tag_212\n      jump\t// in\n    tag_406:\n        /* \"#utility.yul\":21227:21229   */\n      0x20\n        /* \"#utility.yul\":21222:21225   */\n      dup3\n        /* \"#utility.yul\":21218:21230   */\n      add\n        /* \"#utility.yul\":21211:21230   */\n      swap1\n      pop\n        /* \"#utility.yul\":20870:21236   */\n      swap2\n      swap1\n      pop\n      jump\t// out\n        /* \"#utility.yul\":21242:21661   */\n    tag_151:\n        /* \"#utility.yul\":21408:21412   */\n      0x00\n        /* \"#utility.yul\":21446:21448   */\n      0x20\n        /* \"#utility.yul\":21435:21444   */\n      dup3\n        /* \"#utility.yul\":21431:21449   */\n      add\n        /* \"#utility.yul\":21423:21449   */\n      swap1\n      pop\n        /* \"#utility.yul\":21495:21504   */\n      dup2\n        /* \"#utility.yul\":21489:21493   */\n      dup2\n        /* \"#utility.yul\":21485:21505   */\n      sub\n        /* \"#utility.yul\":21481:21482   */\n      0x00\n        /* \"#utility.yul\":21470:21479   */\n      dup4\n        /* \"#utility.yul\":21466:21483   */\n      add\n        /* \"#utility.yul\":21459:21506   */\n      mstore\n        /* \"#utility.yul\":21523:21654   */\n      tag_408\n        /* \"#utility.yul\":21649:21653   */\n      dup2\n        /* \"#utility.yul\":21523:21654   */\n      tag_213\n      jump\t// in\n    tag_408:\n        /* \"#utility.yul\":21515:21654   */\n      swap1\n      pop\n        /* \"#utility.yul\":21242:21661   */\n      swap2\n      swap1\n      pop\n      jump\t// out\n        /* \"#utility.yul\":21667:21831   */\n    tag_214:\n        /* \"#utility.yul\":21807:21823   */\n      0x616c7265616479206d696e746564000000000000000000000000000000000000\n        /* \"#utility.yul\":21803:21804   */\n      0x00\n        /* \"#utility.yul\":21795:21801   */\n      dup3\n        /* \"#utility.yul\":21791:21805   */\n      add\n        /* \"#utility.yul\":21784:21824   */\n      mstore\n        /* \"#utility.yul\":21667:21831   */\n      pop\n      jump\t// out\n        /* \"#utility.yul\":21837:22203   */\n    tag_215:\n        /* \"#utility.yul\":21979:21982   */\n      0x00\n        /* \"#utility.yul\":22000:22067   */\n      tag_411\n        /* \"#utility.yul\":22064:22066   */\n      0x0e\n        /* \"#utility.yul\":22059:22062   */\n      dup4\n        /* \"#utility.yul\":22000:22067   */\n      tag_185\n      jump\t// in\n    tag_411:\n        /* \"#utility.yul\":21993:22067   */\n      swap2\n      pop\n        /* \"#utility.yul\":22076:22169   */\n      tag_412\n        /* \"#utility.yul\":22165:22168   */\n      dup3\n        /* \"#utility.yul\":22076:22169   */\n      tag_214\n      jump\t// in\n    tag_412:\n        /* \"#utility.yul\":22194:22196   */\n      0x20\n        /* \"#utility.yul\":22189:22192   */\n      dup3\n        /* \"#utility.yul\":22185:22197   */\n      add\n        /* \"#utility.yul\":22178:22197   */\n      swap1\n      pop\n        /* \"#utility.yul\":21837:22203   */\n      swap2\n      swap1\n      pop\n      jump\t// out\n        /* \"#utility.yul\":22209:22628   */\n    tag_154:\n        /* \"#utility.yul\":22375:22379   */\n      0x00\n        /* \"#utility.yul\":22413:22415   */\n      0x20\n        /* \"#utility.yul\":22402:22411   */\n      dup3\n        /* \"#utility.yul\":22398:22416   */\n      add\n        /* \"#utility.yul\":22390:22416   */\n      swap1\n      pop\n        /* \"#utility.yul\":22462:22471   */\n      dup2\n        /* \"#utility.yul\":22456:22460   */\n      dup2\n        /* \"#utility.yul\":22452:22472   */\n      sub\n        /* \"#utility.yul\":22448:22449   */\n      0x00\n        /* \"#utility.yul\":22437:22446   */\n      dup4\n        /* \"#utility.yul\":22433:22450   */\n      add\n        /* \"#utility.yul\":22426:22473   */\n      mstore\n        /* \"#utility.yul\":22490:22621   */\n      tag_414\n        /* \"#utility.yul\":22616:22620   */\n      dup2\n        /* \"#utility.yul\":22490:22621   */\n      tag_215\n      jump\t// in\n    tag_414:\n        /* \"#utility.yul\":22482:22621   */\n      swap1\n      pop\n        /* \"#utility.yul\":22209:22628   */\n      swap2\n      swap1\n      pop\n      jump\t// out\n        /* \"#utility.yul\":22634:22794   */\n    tag_216:\n        /* \"#utility.yul\":22774:22786   */\n      0x6e6f74206d696e74656400000000000000000000000000000000000000000000\n        /* \"#utility.yul\":22770:22771   */\n      0x00\n        /* \"#utility.yul\":22762:22768   */\n      dup3\n        /* \"#utility.yul\":22758:22772   */\n      add\n        /* \"#utility.yul\":22751:22787   */\n      mstore\n        /* \"#utility.yul\":22634:22794   */\n      pop\n      jump\t// out\n        /* \"#utility.yul\":22800:23166   */\n    tag_217:\n        /* \"#utility.yul\":22942:22945   */\n      0x00\n        /* \"#utility.yul\":22963:23030   */\n      tag_417\n        /* \"#utility.yul\":23027:23029   */\n      0x0a\n        /* \"#utility.yul\":23022:23025   */\n      dup4\n        /* \"#utility.yul\":22963:23030   */\n      tag_185\n      jump\t// in\n    tag_417:\n        /* \"#utility.yul\":22956:23030   */\n      swap2\n      pop\n        /* \"#utility.yul\":23039:23132   */\n      tag_418\n        /* \"#utility.yul\":23128:23131   */\n      dup3\n        /* \"#utility.yul\":23039:23132   */\n      tag_216\n      jump\t// in\n    tag_418:\n        /* \"#utility.yul\":23157:23159   */\n      0x20\n        /* \"#utility.yul\":23152:23155   */\n      dup3\n        /* \"#utility.yul\":23148:23160   */\n      add\n        /* \"#utility.yul\":23141:23160   */\n      swap1\n      pop\n        /* \"#utility.yul\":22800:23166   */\n      swap2\n      swap1\n      pop\n      jump\t// out\n        /* \"#utility.yul\":23172:23591   */\n    tag_159:\n        /* \"#utility.yul\":23338:23342   */\n      0x00\n        /* \"#utility.yul\":23376:23378   */\n      0x20\n        /* \"#utility.yul\":23365:23374   */\n      dup3\n        /* \"#utility.yul\":23361:23379   */\n      add\n        /* \"#utility.yul\":23353:23379   */\n      swap1\n      pop\n        /* \"#utility.yul\":23425:23434   */\n      dup2\n        /* \"#utility.yul\":23419:23423   */\n      dup2\n        /* \"#utility.yul\":23415:23435   */\n      sub\n        /* \"#utility.yul\":23411:23412   */\n      0x00\n        /* \"#utility.yul\":23400:23409   */\n      dup4\n        /* \"#utility.yul\":23396:23413   */\n      add\n        /* \"#utility.yul\":23389:23436   */\n      mstore\n        /* \"#utility.yul\":23453:23584   */\n      tag_420\n        /* \"#utility.yul\":23579:23583   */\n      dup2\n        /* \"#utility.yul\":23453:23584   */\n      tag_217\n      jump\t// in\n    tag_420:\n        /* \"#utility.yul\":23445:23584   */\n      swap1\n      pop\n        /* \"#utility.yul\":23172:23591   */\n      swap2\n      swap1\n      pop\n      jump\t// out\n        /* \"#utility.yul\":23597:23791   */\n    tag_161:\n        /* \"#utility.yul\":23637:23641   */\n      0x00\n        /* \"#utility.yul\":23657:23677   */\n      tag_422\n        /* \"#utility.yul\":23675:23676   */\n      dup3\n        /* \"#utility.yul\":23657:23677   */\n      tag_170\n      jump\t// in\n    tag_422:\n        /* \"#utility.yul\":23652:23677   */\n      swap2\n      pop\n        /* \"#utility.yul\":23691:23711   */\n      tag_423\n        /* \"#utility.yul\":23709:23710   */\n      dup4\n        /* \"#utility.yul\":23691:23711   */\n      tag_170\n      jump\t// in\n    tag_423:\n        /* \"#utility.yul\":23686:23711   */\n      swap3\n      pop\n        /* \"#utility.yul\":23735:23736   */\n      dup3\n        /* \"#utility.yul\":23732:23733   */\n      dup3\n        /* \"#utility.yul\":23728:23737   */\n      sub\n        /* \"#utility.yul\":23720:23737   */\n      swap1\n      pop\n        /* \"#utility.yul\":23759:23760   */\n      dup2\n        /* \"#utility.yul\":23753:23757   */\n      dup2\n        /* \"#utility.yul\":23750:23761   */\n      gt\n        /* \"#utility.yul\":23747:23784   */\n      iszero\n      tag_424\n      jumpi\n        /* \"#utility.yul\":23764:23782   */\n      tag_425\n      tag_196\n      jump\t// in\n    tag_425:\n        /* \"#utility.yul\":23747:23784   */\n    tag_424:\n        /* \"#utility.yul\":23597:23791   */\n      swap3\n      swap2\n      pop\n      pop\n      jump\t// out\n\n    auxdata: 0xa2646970667358221220b16b00b0ecf4e7c2434e8da3efb9de65d50388b2aa47233066af7b75f76b551664736f6c634300081a0033\n}\n",
				"bytecode": {
					"linkReferences": {},
					"object": "6080604052348015600e575f80fd5b50611fc18061001c5f395ff3fe608060405234801561000f575f80fd5b50600436106100cd575f3560e01c806342966c681161008a578063a22cb46511610064578063a22cb4651461021d578063b88d4fde14610239578063e200686114610255578063e985e9c514610285576100cd565b806342966c68146101a15780636352211e146101bd57806370a08231146101ed576100cd565b806301ffc9a7146100d1578063081812fc14610101578063095ea7b31461013157806323b872dd1461014d57806340c10f191461016957806342842e0e14610185575b5f80fd5b6100eb60048036038101906100e691906114d3565b6102b5565b6040516100f89190611518565b60405180910390f35b61011b60048036038101906101169190611564565b610386565b60405161012891906115ce565b60405180910390f35b61014b60048036038101906101469190611611565b61045c565b005b6101676004803603810190610162919061164f565b610638565b005b610183600480360381019061017e9190611611565b610912565b005b61019f600480360381019061019a919061164f565b610920565b005b6101bb60048036038101906101b69190611564565b610a54565b005b6101d760048036038101906101d29190611564565b610afd565b6040516101e491906115ce565b60405180910390f35b6102076004803603810190610202919061169f565b610ba3565b60405161021491906116d9565b60405180910390f35b6102376004803603810190610232919061171c565b610c57565b005b610253600480360381019061024e91906117bb565b610d4f565b005b61026f600480360381019061026a9190611564565b610e89565b60405161027c91906115ce565b60405180910390f35b61029f600480360381019061029a919061183f565b610f5f565b6040516102ac9190611518565b60405180910390f35b5f7f80ac58cd000000000000000000000000000000000000000000000000000000007bffffffffffffffffffffffffffffffffffffffffffffffffffffffff1916827bffffffffffffffffffffffffffffffffffffffffffffffffffffffff1916148061037f57507f01ffc9a7000000000000000000000000000000000000000000000000000000007bffffffffffffffffffffffffffffffffffffffffffffffffffffffff1916827bffffffffffffffffffffffffffffffffffffffffffffffffffffffff1916145b9050919050565b5f8073ffffffffffffffffffffffffffffffffffffffff165f808481526020019081526020015f205f9054906101000a900473ffffffffffffffffffffffffffffffffffffffff1673ffffffffffffffffffffffffffffffffffffffff1603610424576040517f08c379a000000000000000000000000000000000000000000000000000000000815260040161041b906118d7565b60405180910390fd5b60025f8381526020019081526020015f205f9054906101000a900473ffffffffffffffffffffffffffffffffffffffff169050919050565b5f805f8381526020019081526020015f205f9054906101000a900473ffffffffffffffffffffffffffffffffffffffff1690508073ffffffffffffffffffffffffffffffffffffffff163373ffffffffffffffffffffffffffffffffffffffff16148061054a575060035f8273ffffffffffffffffffffffffffffffffffffffff1673ffffffffffffffffffffffffffffffffffffffff1681526020019081526020015f205f3373ffffffffffffffffffffffffffffffffffffffff1673ffffffffffffffffffffffffffffffffffffffff1681526020019081526020015f205f9054906101000a900460ff165b610589576040517f08c379a00000000000000000000000000000000000000000000000000000000081526004016105809061193f565b60405180910390fd5b8260025f8481526020019081526020015f205f6101000a81548173ffffffffffffffffffffffffffffffffffffffff021916908373ffffffffffffffffffffffffffffffffffffffff160217905550818373ffffffffffffffffffffffffffffffffffffffff168273ffffffffffffffffffffffffffffffffffffffff167f8c5be1e5ebec7d5bd14f71427d1e84f3dd0314c0f7b2291e5b200ac8c7c3b92560405160405180910390a4505050565b5f808281526020019081526020015f205f9054906101000a900473ffffffffffffffffffffffffffffffffffffffff1673ffffffffffffffffffffffffffffffffffffffff168373ffffffffffffffffffffffffffffffffffffffff16146106d5576040517f08c379a00000000000000000000000000000000000000000000000000000000081526004016106cc906119a7565b60405180910390fd5b5f73ffffffffffffffffffffffffffffffffffffffff168273ffffffffffffffffffffffffffffffffffffffff1603610743576040517f08c379a000000000000000000000000000000000000000000000000000000000815260040161073a90611a0f565b60405180910390fd5b61074e833383610f89565b61078d576040517f08c379a000000000000000000000000000000000000000000000000000000000815260040161078490611a77565b60405180910390fd5b60015f8473ffffffffffffffffffffffffffffffffffffffff1673ffffffffffffffffffffffffffffffffffffffff1681526020019081526020015f205f8154809291906107da90611ac2565b919050555060015f8373ffffffffffffffffffffffffffffffffffffffff1673ffffffffffffffffffffffffffffffffffffffff1681526020019081526020015f205f81548092919061082c90611ae9565b9190505550815f808381526020019081526020015f205f6101000a81548173ffffffffffffffffffffffffffffffffffffffff021916908373ffffffffffffffffffffffffffffffffffffffff16021790555060025f8281526020019081526020015f205f6101000a81549073ffffffffffffffffffffffffffffffffffffffff0219169055808273ffffffffffffffffffffffffffffffffffffffff168473ffffffffffffffffffffffffffffffffffffffff167fddf252ad1be2c89b69c2b068fc378daa952ba7f163c4a11628f55a4df523b3ef60405160405180910390a4505050565b61091c82826110b4565b5050565b61092b838383610638565b5f8273ffffffffffffffffffffffffffffffffffffffff163b1480610a10575063150b7a0260e01b7bffffffffffffffffffffffffffffffffffffffffffffffffffffffff19168273ffffffffffffffffffffffffffffffffffffffff1663150b7a023386856040518463ffffffff1660e01b81526004016109af93929190611b63565b6020604051808303815f875af11580156109cb573d5f803e3d5ffd5b505050506040513d601f19601f820116820180604052508101906109ef9190611bbf565b7bffffffffffffffffffffffffffffffffffffffffffffffffffffffff1916145b610a4f576040517f08c379a0000000000000000000000000000000000000000000000000000000008152600401610a4690611c34565b60405180910390fd5b505050565b5f808281526020019081526020015f205f9054906101000a900473ffffffffffffffffffffffffffffffffffffffff1673ffffffffffffffffffffffffffffffffffffffff163373ffffffffffffffffffffffffffffffffffffffff1614610af1576040517f08c379a0000000000000000000000000000000000000000000000000000000008152600401610ae890611c9c565b60405180910390fd5b610afa816112be565b50565b5f805f8381526020019081526020015f205f9054906101000a900473ffffffffffffffffffffffffffffffffffffffff1690505f73ffffffffffffffffffffffffffffffffffffffff168173ffffffffffffffffffffffffffffffffffffffff1603610b9e576040517f08c379a0000000000000000000000000000000000000000000000000000000008152600401610b95906118d7565b60405180910390fd5b919050565b5f8073ffffffffffffffffffffffffffffffffffffffff168273ffffffffffffffffffffffffffffffffffffffff1603610c12576040517f08c379a0000000000000000000000000000000000000000000000000000000008152600401610c0990611d04565b60405180910390fd5b60015f8373ffffffffffffffffffffffffffffffffffffffff1673ffffffffffffffffffffffffffffffffffffffff1681526020019081526020015f20549050919050565b8060035f3373ffffffffffffffffffffffffffffffffffffffff1673ffffffffffffffffffffffffffffffffffffffff1681526020019081526020015f205f8473ffffffffffffffffffffffffffffffffffffffff1673ffffffffffffffffffffffffffffffffffffffff1681526020019081526020015f205f6101000a81548160ff0219169083151502179055508173ffffffffffffffffffffffffffffffffffffffff163373ffffffffffffffffffffffffffffffffffffffff167f17307eab39ab6107e8899845ad3d59bd9653f200f220920489ca2b5937696c3183604051610d439190611518565b60405180910390a35050565b610d5a858585610638565b5f8473ffffffffffffffffffffffffffffffffffffffff163b1480610e43575063150b7a0260e01b7bffffffffffffffffffffffffffffffffffffffffffffffffffffffff19168473ffffffffffffffffffffffffffffffffffffffff1663150b7a0233888787876040518663ffffffff1660e01b8152600401610de2959493929190611d6c565b6020604051808303815f875af1158015610dfe573d5f803e3d5ffd5b505050506040513d601f19601f82011682018060405250810190610e229190611bbf565b7bffffffffffffffffffffffffffffffffffffffffffffffffffffffff1916145b610e82576040517f08c379a0000000000000000000000000000000000000000000000000000000008152600401610e7990611c34565b60405180910390fd5b5050505050565b5f8073ffffffffffffffffffffffffffffffffffffffff165f808481526020019081526020015f205f9054906101000a900473ffffffffffffffffffffffffffffffffffffffff1673ffffffffffffffffffffffffffffffffffffffff1603610f27576040517f08c379a0000000000000000000000000000000000000000000000000000000008152600401610f1e90611e02565b60405180910390fd5b60025f8381526020019081526020015f205f9054906101000a900473ffffffffffffffffffffffffffffffffffffffff169050919050565b6003602052815f5260405f20602052805f5260405f205f915091509054906101000a900460ff1681565b5f8373ffffffffffffffffffffffffffffffffffffffff168373ffffffffffffffffffffffffffffffffffffffff161480611045575060035f8573ffffffffffffffffffffffffffffffffffffffff1673ffffffffffffffffffffffffffffffffffffffff1681526020019081526020015f205f8473ffffffffffffffffffffffffffffffffffffffff1673ffffffffffffffffffffffffffffffffffffffff1681526020019081526020015f205f9054906101000a900460ff165b806110ab575060025f8381526020019081526020015f205f9054906101000a900473ffffffffffffffffffffffffffffffffffffffff1673ffffffffffffffffffffffffffffffffffffffff168373ffffffffffffffffffffffffffffffffffffffff16145b90509392505050565b5f73ffffffffffffffffffffffffffffffffffffffff168273ffffffffffffffffffffffffffffffffffffffff1603611122576040517f08c379a000000000000000000000000000000000000000000000000000000000815260040161111990611e6a565b60405180910390fd5b5f73ffffffffffffffffffffffffffffffffffffffff165f808381526020019081526020015f205f9054906101000a900473ffffffffffffffffffffffffffffffffffffffff1673ffffffffffffffffffffffffffffffffffffffff16146111bf576040517f08c379a00000000000000000000000000000000000000000000000000000000081526004016111b690611ed2565b60405180910390fd5b60015f8373ffffffffffffffffffffffffffffffffffffffff1673ffffffffffffffffffffffffffffffffffffffff1681526020019081526020015f205f81548092919061120c90611ae9565b9190505550815f808381526020019081526020015f205f6101000a81548173ffffffffffffffffffffffffffffffffffffffff021916908373ffffffffffffffffffffffffffffffffffffffff160217905550808273ffffffffffffffffffffffffffffffffffffffff165f73ffffffffffffffffffffffffffffffffffffffff167fddf252ad1be2c89b69c2b068fc378daa952ba7f163c4a11628f55a4df523b3ef60405160405180910390a45050565b5f805f8381526020019081526020015f205f9054906101000a900473ffffffffffffffffffffffffffffffffffffffff1690505f73ffffffffffffffffffffffffffffffffffffffff168173ffffffffffffffffffffffffffffffffffffffff160361135f576040517f08c379a000000000000000000000000000000000000000000000000000000000815260040161135690611f3a565b60405180910390fd5b6001805f8373ffffffffffffffffffffffffffffffffffffffff1673ffffffffffffffffffffffffffffffffffffffff1681526020019081526020015f205f8282546113ab9190611f58565b925050819055505f808381526020019081526020015f205f6101000a81549073ffffffffffffffffffffffffffffffffffffffff021916905560025f8381526020019081526020015f205f6101000a81549073ffffffffffffffffffffffffffffffffffffffff0219169055815f73ffffffffffffffffffffffffffffffffffffffff168273ffffffffffffffffffffffffffffffffffffffff167fddf252ad1be2c89b69c2b068fc378daa952ba7f163c4a11628f55a4df523b3ef60405160405180910390a45050565b5f80fd5b5f80fd5b5f7fffffffff0000000000000000000000000000000000000000000000000000000082169050919050565b6114b28161147e565b81146114bc575f80fd5b50565b5f813590506114cd816114a9565b92915050565b5f602082840312156114e8576114e7611476565b5b5f6114f5848285016114bf565b91505092915050565b5f8115159050919050565b611512816114fe565b82525050565b5f60208201905061152b5f830184611509565b92915050565b5f819050919050565b61154381611531565b811461154d575f80fd5b50565b5f8135905061155e8161153a565b92915050565b5f6020828403121561157957611578611476565b5b5f61158684828501611550565b91505092915050565b5f73ffffffffffffffffffffffffffffffffffffffff82169050919050565b5f6115b88261158f565b9050919050565b6115c8816115ae565b82525050565b5f6020820190506115e15f8301846115bf565b92915050565b6115f0816115ae565b81146115fa575f80fd5b50565b5f8135905061160b816115e7565b92915050565b5f806040838503121561162757611626611476565b5b5f611634858286016115fd565b925050602061164585828601611550565b9150509250929050565b5f805f6060848603121561166657611665611476565b5b5f611673868287016115fd565b9350506020611684868287016115fd565b925050604061169586828701611550565b9150509250925092565b5f602082840312156116b4576116b3611476565b5b5f6116c1848285016115fd565b91505092915050565b6116d381611531565b82525050565b5f6020820190506116ec5f8301846116ca565b92915050565b6116fb816114fe565b8114611705575f80fd5b50565b5f81359050611716816116f2565b92915050565b5f806040838503121561173257611731611476565b5b5f61173f858286016115fd565b925050602061175085828601611708565b9150509250929050565b5f80fd5b5f80fd5b5f80fd5b5f8083601f84011261177b5761177a61175a565b5b8235905067ffffffffffffffff8111156117985761179761175e565b5b6020830191508360018202830111156117b4576117b3611762565b5b9250929050565b5f805f805f608086880312156117d4576117d3611476565b5b5f6117e1888289016115fd565b95505060206117f2888289016115fd565b945050604061180388828901611550565b935050606086013567ffffffffffffffff8111156118245761182361147a565b5b61183088828901611766565b92509250509295509295909350565b5f806040838503121561185557611854611476565b5b5f611862858286016115fd565b9250506020611873858286016115fd565b9150509250929050565b5f82825260208201905092915050565b7f746f6b656e20646f65736e2774206578697374000000000000000000000000005f82015250565b5f6118c160138361187d565b91506118cc8261188d565b602082019050919050565b5f6020820190508181035f8301526118ee816118b5565b9050919050565b7f6e6f7420617574686f72697a65640000000000000000000000000000000000005f82015250565b5f611929600e8361187d565b9150611934826118f5565b602082019050919050565b5f6020820190508181035f8301526119568161191d565b9050919050565b7f66726f6d20213d206f776e6572000000000000000000000000000000000000005f82015250565b5f611991600d8361187d565b915061199c8261195d565b602082019050919050565b5f6020820190508181035f8301526119be81611985565b9050919050565b7f7472616e7366657220746f207a65726f206164647265737300000000000000005f82015250565b5f6119f960188361187d565b9150611a04826119c5565b602082019050919050565b5f6020820190508181035f830152611a26816119ed565b9050919050565b7f7472616e7366657246726f6d3a206e6f7420617574686f72697a6564000000005f82015250565b5f611a61601c8361187d565b9150611a6c82611a2d565b602082019050919050565b5f6020820190508181035f830152611a8e81611a55565b9050919050565b7f4e487b71000000000000000000000000000000000000000000000000000000005f52601160045260245ffd5b5f611acc82611531565b91505f8203611ade57611add611a95565b5b600182039050919050565b5f611af382611531565b91507fffffffffffffffffffffffffffffffffffffffffffffffffffffffffffffffff8203611b2557611b24611a95565b5b600182019050919050565b5f82825260208201905092915050565b50565b5f611b4e5f83611b30565b9150611b5982611b40565b5f82019050919050565b5f608082019050611b765f8301866115bf565b611b8360208301856115bf565b611b9060408301846116ca565b8181036060830152611ba181611b43565b9050949350505050565b5f81519050611bb9816114a9565b92915050565b5f60208284031215611bd457611bd3611476565b5b5f611be184828501611bab565b91505092915050565b7f756e7361666520726563697069656e74000000000000000000000000000000005f82015250565b5f611c1e60108361187d565b9150611c2982611bea565b602082019050919050565b5f6020820190508181035f830152611c4b81611c12565b9050919050565b7f6e6f74206f776e657200000000000000000000000000000000000000000000005f82015250565b5f611c8660098361187d565b9150611c9182611c52565b602082019050919050565b5f6020820190508181035f830152611cb381611c7a565b9050919050565b7f6f776e6572203d207a65726f20616464726573730000000000000000000000005f82015250565b5f611cee60148361187d565b9150611cf982611cba565b602082019050919050565b5f6020820190508181035f830152611d1b81611ce2565b9050919050565b828183375f83830152505050565b5f601f19601f8301169050919050565b5f611d4b8385611b30565b9350611d58838584611d22565b611d6183611d30565b840190509392505050565b5f608082019050611d7f5f8301886115bf565b611d8c60208301876115bf565b611d9960408301866116ca565b8181036060830152611dac818486611d40565b90509695505050505050565b7f4d794e46542c20746f6b656e20646f65736e27742065786973740000000000005f82015250565b5f611dec601a8361187d565b9150611df782611db8565b602082019050919050565b5f6020820190508181035f830152611e1981611de0565b9050919050565b7f6d696e7420746f207a65726f20616464726573730000000000000000000000005f82015250565b5f611e5460148361187d565b9150611e5f82611e20565b602082019050919050565b5f6020820190508181035f830152611e8181611e48565b9050919050565b7f616c7265616479206d696e7465640000000000000000000000000000000000005f82015250565b5f611ebc600e8361187d565b9150611ec782611e88565b602082019050919050565b5f6020820190508181035f830152611ee981611eb0565b9050919050565b7f6e6f74206d696e746564000000000000000000000000000000000000000000005f82015250565b5f611f24600a8361187d565b9150611f2f82611ef0565b602082019050919050565b5f6020820190508181035f830152611f5181611f18565b9050919050565b5f611f6282611531565b9150611f6d83611531565b9250828203905081811115611f8557611f84611a95565b5b9291505056fea2646970667358221220b16b00b0ecf4e7c2434e8da3efb9de65d50388b2aa47233066af7b75f76b551664736f6c634300081a0033",
					"opcodes": "PUSH1 0x80 PUSH1 0x40 MSTORE CALLVALUE DUP1 ISZERO PUSH1 0xE JUMPI PUSH0 DUP1 REVERT JUMPDEST POP PUSH2 0x1FC1 DUP1 PUSH2 0x1C PUSH0 CODECOPY PUSH0 RETURN INVALID PUSH1 0x80 PUSH1 0x40 MSTORE CALLVALUE DUP1 ISZERO PUSH2 0xF JUMPI PUSH0 DUP1 REVERT JUMPDEST POP PUSH1 0x4 CALLDATASIZE LT PUSH2 0xCD JUMPI PUSH0 CALLDATALOAD PUSH1 0xE0 SHR DUP1 PUSH4 0x42966C68 GT PUSH2 0x8A JUMPI DUP1 PUSH4 0xA22CB465 GT PUSH2 0x64 JUMPI DUP1 PUSH4 0xA22CB465 EQ PUSH2 0x21D JUMPI DUP1 PUSH4 0xB88D4FDE EQ PUSH2 0x239 JUMPI DUP1 PUSH4 0xE2006861 EQ PUSH2 0x255 JUMPI DUP1 PUSH4 0xE985E9C5 EQ PUSH2 0x285 JUMPI PUSH2 0xCD JUMP JUMPDEST DUP1 PUSH4 0x42966C68 EQ PUSH2 0x1A1 JUMPI DUP1 PUSH4 0x6352211E EQ PUSH2 0x1BD JUMPI DUP1 PUSH4 0x70A08231 EQ PUSH2 0x1ED JUMPI PUSH2 0xCD JUMP JUMPDEST DUP1 PUSH4 0x1FFC9A7 EQ PUSH2 0xD1 JUMPI DUP1 PUSH4 0x81812FC EQ PUSH2 0x101 JUMPI DUP1 PUSH4 0x95EA7B3 EQ PUSH2 0x131 JUMPI DUP1 PUSH4 0x23B872DD EQ PUSH2 0x14D JUMPI DUP1 PUSH4 0x40C10F19 EQ PUSH2 0x169 JUMPI DUP1 PUSH4 0x42842E0E EQ PUSH2 0x185 JUMPI JUMPDEST PUSH0 DUP1 REVERT JUMPDEST PUSH2 0xEB PUSH1 0x4 DUP1 CALLDATASIZE SUB DUP2 ADD SWAP1 PUSH2 0xE6 SWAP2 SWAP1 PUSH2 0x14D3 JUMP JUMPDEST PUSH2 0x2B5 JUMP JUMPDEST PUSH1 0x40 MLOAD PUSH2 0xF8 SWAP2 SWAP1 PUSH2 0x1518 JUMP JUMPDEST PUSH1 0x40 MLOAD DUP1 SWAP2 SUB SWAP1 RETURN JUMPDEST PUSH2 0x11B PUSH1 0x4 DUP1 CALLDATASIZE SUB DUP2 ADD SWAP1 PUSH2 0x116 SWAP2 SWAP1 PUSH2 0x1564 JUMP JUMPDEST PUSH2 0x386 JUMP JUMPDEST PUSH1 0x40 MLOAD PUSH2 0x128 SWAP2 SWAP1 PUSH2 0x15CE JUMP JUMPDEST PUSH1 0x40 MLOAD DUP1 SWAP2 SUB SWAP1 RETURN JUMPDEST PUSH2 0x14B PUSH1 0x4 DUP1 CALLDATASIZE SUB DUP2 ADD SWAP1 PUSH2 0x146 SWAP2 SWAP1 PUSH2 0x1611 JUMP JUMPDEST PUSH2 0x45C JUMP JUMPDEST STOP JUMPDEST PUSH2 0x167 PUSH1 0x4 DUP1 CALLDATASIZE SUB DUP2 ADD SWAP1 PUSH2 0x162 SWAP2 SWAP1 PUSH2 0x164F JUMP JUMPDEST PUSH2 0x638 JUMP JUMPDEST STOP JUMPDEST PUSH2 0x183 PUSH1 0x4 DUP1 CALLDATASIZE SUB DUP2 ADD SWAP1 PUSH2 0x17E SWAP2 SWAP1 PUSH2 0x1611 JUMP JUMPDEST PUSH2 0x912 JUMP JUMPDEST STOP JUMPDEST PUSH2 0x19F PUSH1 0x4 DUP1 CALLDATASIZE SUB DUP2 ADD SWAP1 PUSH2 0x19A SWAP2 SWAP1 PUSH2 0x164F JUMP JUMPDEST PUSH2 0x920 JUMP JUMPDEST STOP JUMPDEST PUSH2 0x1BB PUSH1 0x4 DUP1 CALLDATASIZE SUB DUP2 ADD SWAP1 PUSH2 0x1B6 SWAP2 SWAP1 PUSH2 0x1564 JUMP JUMPDEST PUSH2 0xA54 JUMP JUMPDEST STOP JUMPDEST PUSH2 0x1D7 PUSH1 0x4 DUP1 CALLDATASIZE SUB DUP2 ADD SWAP1 PUSH2 0x1D2 SWAP2 SWAP1 PUSH2 0x1564 JUMP JUMPDEST PUSH2 0xAFD JUMP JUMPDEST PUSH1 0x40 MLOAD PUSH2 0x1E4 SWAP2 SWAP1 PUSH2 0x15CE JUMP JUMPDEST PUSH1 0x40 MLOAD DUP1 SWAP2 SUB SWAP1 RETURN JUMPDEST PUSH2 0x207 PUSH1 0x4 DUP1 CALLDATASIZE SUB DUP2 ADD SWAP1 PUSH2 0x202 SWAP2 SWAP1 PUSH2 0x169F JUMP JUMPDEST PUSH2 0xBA3 JUMP JUMPDEST PUSH1 0x40 MLOAD PUSH2 0x214 SWAP2 SWAP1 PUSH2 0x16D9 JUMP JUMPDEST PUSH1 0x40 MLOAD DUP1 SWAP2 SUB SWAP1 RETURN JUMPDEST PUSH2 0x237 PUSH1 0x4 DUP1 CALLDATASIZE SUB DUP2 ADD SWAP1 PUSH2 0x232 SWAP2 SWAP1 PUSH2 0x171C JUMP JUMPDEST PUSH2 0xC57 JUMP JUMPDEST STOP JUMPDEST PUSH2 0x253 PUSH1 0x4 DUP1 CALLDATASIZE SUB DUP2 ADD SWAP1 PUSH2 0x24E SWAP2 SWAP1 PUSH2 0x17BB JUMP JUMPDEST PUSH2 0xD4F JUMP JUMPDEST STOP JUMPDEST PUSH2 0x26F PUSH1 0x4 DUP1 CALLDATASIZE SUB DUP2 ADD SWAP1 PUSH2 0x26A SWAP2 SWAP1 PUSH2 0x1564 JUMP JUMPDEST PUSH2 0xE89 JUMP JUMPDEST PUSH1 0x40 MLOAD PUSH2 0x27C SWAP2 SWAP1 PUSH2 0x15CE JUMP JUMPDEST PUSH1 0x40 MLOAD DUP1 SWAP2 SUB SWAP1 RETURN JUMPDEST PUSH2 0x29F PUSH1 0x4 DUP1 CALLDATASIZE SUB DUP2 ADD SWAP1 PUSH2 0x29A SWAP2 SWAP1 PUSH2 0x183F JUMP JUMPDEST PUSH2 0xF5F JUMP JUMPDEST PUSH1 0x40 MLOAD PUSH2 0x2AC SWAP2 SWAP1 PUSH2 0x1518 JUMP JUMPDEST PUSH1 0x40 MLOAD DUP1 SWAP2 SUB SWAP1 RETURN JUMPDEST PUSH0 PUSH32 0x80AC58CD00000000000000000000000000000000000000000000000000000000 PUSH28 0xFFFFFFFFFFFFFFFFFFFFFFFFFFFFFFFFFFFFFFFFFFFFFFFFFFFFFFFF NOT AND DUP3 PUSH28 0xFFFFFFFFFFFFFFFFFFFFFFFFFFFFFFFFFFFFFFFFFFFFFFFFFFFFFFFF NOT AND EQ DUP1 PUSH2 0x37F JUMPI POP PUSH32 0x1FFC9A700000000000000000000000000000000000000000000000000000000 PUSH28 0xFFFFFFFFFFFFFFFFFFFFFFFFFFFFFFFFFFFFFFFFFFFFFFFFFFFFFFFF NOT AND DUP3 PUSH28 0xFFFFFFFFFFFFFFFFFFFFFFFFFFFFFFFFFFFFFFFFFFFFFFFFFFFFFFFF NOT AND EQ JUMPDEST SWAP1 POP SWAP2 SWAP1 POP JUMP JUMPDEST PUSH0 DUP1 PUSH20 0xFFFFFFFFFFFFFFFFFFFFFFFFFFFFFFFFFFFFFFFF AND PUSH0 DUP1 DUP5 DUP2 MSTORE PUSH1 0x20 ADD SWAP1 DUP2 MSTORE PUSH1 0x20 ADD PUSH0 KECCAK256 PUSH0 SWAP1 SLOAD SWAP1 PUSH2 0x100 EXP SWAP1 DIV PUSH20 0xFFFFFFFFFFFFFFFFFFFFFFFFFFFFFFFFFFFFFFFF AND PUSH20 0xFFFFFFFFFFFFFFFFFFFFFFFFFFFFFFFFFFFFFFFF AND SUB PUSH2 0x424 JUMPI PUSH1 0x40 MLOAD PUSH32 0x8C379A000000000000000000000000000000000000000000000000000000000 DUP2 MSTORE PUSH1 0x4 ADD PUSH2 0x41B SWAP1 PUSH2 0x18D7 JUMP JUMPDEST PUSH1 0x40 MLOAD DUP1 SWAP2 SUB SWAP1 REVERT JUMPDEST PUSH1 0x2 PUSH0 DUP4 DUP2 MSTORE PUSH1 0x20 ADD SWAP1 DUP2 MSTORE PUSH1 0x20 ADD PUSH0 KECCAK256 PUSH0 SWAP1 SLOAD SWAP1 PUSH2 0x100 EXP SWAP1 DIV PUSH20 0xFFFFFFFFFFFFFFFFFFFFFFFFFFFFFFFFFFFFFFFF AND SWAP1 POP SWAP2 SWAP1 POP JUMP JUMPDEST PUSH0 DUP1 PUSH0 DUP4 DUP2 MSTORE PUSH1 0x20 ADD SWAP1 DUP2 MSTORE PUSH1 0x20 ADD PUSH0 KECCAK256 PUSH0 SWAP1 SLOAD SWAP1 PUSH2 0x100 EXP SWAP1 DIV PUSH20 0xFFFFFFFFFFFFFFFFFFFFFFFFFFFFFFFFFFFFFFFF AND SWAP1 POP DUP1 PUSH20 0xFFFFFFFFFFFFFFFFFFFFFFFFFFFFFFFFFFFFFFFF AND CALLER PUSH20 0xFFFFFFFFFFFFFFFFFFFFFFFFFFFFFFFFFFFFFFFF AND EQ DUP1 PUSH2 0x54A JUMPI POP PUSH1 0x3 PUSH0 DUP3 PUSH20 0xFFFFFFFFFFFFFFFFFFFFFFFFFFFFFFFFFFFFFFFF AND PUSH20 0xFFFFFFFFFFFFFFFFFFFFFFFFFFFFFFFFFFFFFFFF AND DUP2 MSTORE PUSH1 0x20 ADD SWAP1 DUP2 MSTORE PUSH1 0x20 ADD PUSH0 KECCAK256 PUSH0 CALLER PUSH20 0xFFFFFFFFFFFFFFFFFFFFFFFFFFFFFFFFFFFFFFFF AND PUSH20 0xFFFFFFFFFFFFFFFFFFFFFFFFFFFFFFFFFFFFFFFF AND DUP2 MSTORE PUSH1 0x20 ADD SWAP1 DUP2 MSTORE PUSH1 0x20 ADD PUSH0 KECCAK256 PUSH0 SWAP1 SLOAD SWAP1 PUSH2 0x100 EXP SWAP1 DIV PUSH1 0xFF AND JUMPDEST PUSH2 0x589 JUMPI PUSH1 0x40 MLOAD PUSH32 0x8C379A000000000000000000000000000000000000000000000000000000000 DUP2 MSTORE PUSH1 0x4 ADD PUSH2 0x580 SWAP1 PUSH2 0x193F JUMP JUMPDEST PUSH1 0x40 MLOAD DUP1 SWAP2 SUB SWAP1 REVERT JUMPDEST DUP3 PUSH1 0x2 PUSH0 DUP5 DUP2 MSTORE PUSH1 0x20 ADD SWAP1 DUP2 MSTORE PUSH1 0x20 ADD PUSH0 KECCAK256 PUSH0 PUSH2 0x100 EXP DUP2 SLOAD DUP2 PUSH20 0xFFFFFFFFFFFFFFFFFFFFFFFFFFFFFFFFFFFFFFFF MUL NOT AND SWAP1 DUP4 PUSH20 0xFFFFFFFFFFFFFFFFFFFFFFFFFFFFFFFFFFFFFFFF AND MUL OR SWAP1 SSTORE POP DUP2 DUP4 PUSH20 0xFFFFFFFFFFFFFFFFFFFFFFFFFFFFFFFFFFFFFFFF AND DUP3 PUSH20 0xFFFFFFFFFFFFFFFFFFFFFFFFFFFFFFFFFFFFFFFF AND PUSH32 0x8C5BE1E5EBEC7D5BD14F71427D1E84F3DD0314C0F7B2291E5B200AC8C7C3B925 PUSH1 0x40 MLOAD PUSH1 0x40 MLOAD DUP1 SWAP2 SUB SWAP1 LOG4 POP POP POP JUMP JUMPDEST PUSH0 DUP1 DUP3 DUP2 MSTORE PUSH1 0x20 ADD SWAP1 DUP2 MSTORE PUSH1 0x20 ADD PUSH0 KECCAK256 PUSH0 SWAP1 SLOAD SWAP1 PUSH2 0x100 EXP SWAP1 DIV PUSH20 0xFFFFFFFFFFFFFFFFFFFFFFFFFFFFFFFFFFFFFFFF AND PUSH20 0xFFFFFFFFFFFFFFFFFFFFFFFFFFFFFFFFFFFFFFFF AND DUP4 PUSH20 0xFFFFFFFFFFFFFFFFFFFFFFFFFFFFFFFFFFFFFFFF AND EQ PUSH2 0x6D5 JUMPI PUSH1 0x40 MLOAD PUSH32 0x8C379A000000000000000000000000000000000000000000000000000000000 DUP2 MSTORE PUSH1 0x4 ADD PUSH2 0x6CC SWAP1 PUSH2 0x19A7 JUMP JUMPDEST PUSH1 0x40 MLOAD DUP1 SWAP2 SUB SWAP1 REVERT JUMPDEST PUSH0 PUSH20 0xFFFFFFFFFFFFFFFFFFFFFFFFFFFFFFFFFFFFFFFF AND DUP3 PUSH20 0xFFFFFFFFFFFFFFFFFFFFFFFFFFFFFFFFFFFFFFFF AND SUB PUSH2 0x743 JUMPI PUSH1 0x40 MLOAD PUSH32 0x8C379A000000000000000000000000000000000000000000000000000000000 DUP2 MSTORE PUSH1 0x4 ADD PUSH2 0x73A SWAP1 PUSH2 0x1A0F JUMP JUMPDEST PUSH1 0x40 MLOAD DUP1 SWAP2 SUB SWAP1 REVERT JUMPDEST PUSH2 0x74E DUP4 CALLER DUP4 PUSH2 0xF89 JUMP JUMPDEST PUSH2 0x78D JUMPI PUSH1 0x40 MLOAD PUSH32 0x8C379A000000000000000000000000000000000000000000000000000000000 DUP2 MSTORE PUSH1 0x4 ADD PUSH2 0x784 SWAP1 PUSH2 0x1A77 JUMP JUMPDEST PUSH1 0x40 MLOAD DUP1 SWAP2 SUB SWAP1 REVERT JUMPDEST PUSH1 0x1 PUSH0 DUP5 PUSH20 0xFFFFFFFFFFFFFFFFFFFFFFFFFFFFFFFFFFFFFFFF AND PUSH20 0xFFFFFFFFFFFFFFFFFFFFFFFFFFFFFFFFFFFFFFFF AND DUP2 MSTORE PUSH1 0x20 ADD SWAP1 DUP2 MSTORE PUSH1 0x20 ADD PUSH0 KECCAK256 PUSH0 DUP2 SLOAD DUP1 SWAP3 SWAP2 SWAP1 PUSH2 0x7DA SWAP1 PUSH2 0x1AC2 JUMP JUMPDEST SWAP2 SWAP1 POP SSTORE POP PUSH1 0x1 PUSH0 DUP4 PUSH20 0xFFFFFFFFFFFFFFFFFFFFFFFFFFFFFFFFFFFFFFFF AND PUSH20 0xFFFFFFFFFFFFFFFFFFFFFFFFFFFFFFFFFFFFFFFF AND DUP2 MSTORE PUSH1 0x20 ADD SWAP1 DUP2 MSTORE PUSH1 0x20 ADD PUSH0 KECCAK256 PUSH0 DUP2 SLOAD DUP1 SWAP3 SWAP2 SWAP1 PUSH2 0x82C SWAP1 PUSH2 0x1AE9 JUMP JUMPDEST SWAP2 SWAP1 POP SSTORE POP DUP2 PUSH0 DUP1 DUP4 DUP2 MSTORE PUSH1 0x20 ADD SWAP1 DUP2 MSTORE PUSH1 0x20 ADD PUSH0 KECCAK256 PUSH0 PUSH2 0x100 EXP DUP2 SLOAD DUP2 PUSH20 0xFFFFFFFFFFFFFFFFFFFFFFFFFFFFFFFFFFFFFFFF MUL NOT AND SWAP1 DUP4 PUSH20 0xFFFFFFFFFFFFFFFFFFFFFFFFFFFFFFFFFFFFFFFF AND MUL OR SWAP1 SSTORE POP PUSH1 0x2 PUSH0 DUP3 DUP2 MSTORE PUSH1 0x20 ADD SWAP1 DUP2 MSTORE PUSH1 0x20 ADD PUSH0 KECCAK256 PUSH0 PUSH2 0x100 EXP DUP2 SLOAD SWAP1 PUSH20 0xFFFFFFFFFFFFFFFFFFFFFFFFFFFFFFFFFFFFFFFF MUL NOT AND SWAP1 SSTORE DUP1 DUP3 PUSH20 0xFFFFFFFFFFFFFFFFFFFFFFFFFFFFFFFFFFFFFFFF AND DUP5 PUSH20 0xFFFFFFFFFFFFFFFFFFFFFFFFFFFFFFFFFFFFFFFF AND PUSH32 0xDDF252AD1BE2C89B69C2B068FC378DAA952BA7F163C4A11628F55A4DF523B3EF PUSH1 0x40 MLOAD PUSH1 0x40 MLOAD DUP1 SWAP2 SUB SWAP1 LOG4 POP POP POP JUMP JUMPDEST PUSH2 0x91C DUP3 DUP3 PUSH2 0x10B4 JUMP JUMPDEST POP POP JUMP JUMPDEST PUSH2 0x92B DUP4 DUP4 DUP4 PUSH2 0x638 JUMP JUMPDEST PUSH0 DUP3 PUSH20 0xFFFFFFFFFFFFFFFFFFFFFFFFFFFFFFFFFFFFFFFF AND EXTCODESIZE EQ DUP1 PUSH2 0xA10 JUMPI POP PUSH4 0x150B7A02 PUSH1 0xE0 SHL PUSH28 0xFFFFFFFFFFFFFFFFFFFFFFFFFFFFFFFFFFFFFFFFFFFFFFFFFFFFFFFF NOT AND DUP3 PUSH20 0xFFFFFFFFFFFFFFFFFFFFFFFFFFFFFFFFFFFFFFFF AND PUSH4 0x150B7A02 CALLER DUP7 DUP6 PUSH1 0x40 MLOAD DUP5 PUSH4 0xFFFFFFFF AND PUSH1 0xE0 SHL DUP2 MSTORE PUSH1 0x4 ADD PUSH2 0x9AF SWAP4 SWAP3 SWAP2 SWAP1 PUSH2 0x1B63 JUMP JUMPDEST PUSH1 0x20 PUSH1 0x40 MLOAD DUP1 DUP4 SUB DUP2 PUSH0 DUP8 GAS CALL ISZERO DUP1 ISZERO PUSH2 0x9CB JUMPI RETURNDATASIZE PUSH0 DUP1 RETURNDATACOPY RETURNDATASIZE PUSH0 REVERT JUMPDEST POP POP POP POP PUSH1 0x40 MLOAD RETURNDATASIZE PUSH1 0x1F NOT PUSH1 0x1F DUP3 ADD AND DUP3 ADD DUP1 PUSH1 0x40 MSTORE POP DUP2 ADD SWAP1 PUSH2 0x9EF SWAP2 SWAP1 PUSH2 0x1BBF JUMP JUMPDEST PUSH28 0xFFFFFFFFFFFFFFFFFFFFFFFFFFFFFFFFFFFFFFFFFFFFFFFFFFFFFFFF NOT AND EQ JUMPDEST PUSH2 0xA4F JUMPI PUSH1 0x40 MLOAD PUSH32 0x8C379A000000000000000000000000000000000000000000000000000000000 DUP2 MSTORE PUSH1 0x4 ADD PUSH2 0xA46 SWAP1 PUSH2 0x1C34 JUMP JUMPDEST PUSH1 0x40 MLOAD DUP1 SWAP2 SUB SWAP1 REVERT JUMPDEST POP POP POP JUMP JUMPDEST PUSH0 DUP1 DUP3 DUP2 MSTORE PUSH1 0x20 ADD SWAP1 DUP2 MSTORE PUSH1 0x20 ADD PUSH0 KECCAK256 PUSH0 SWAP1 SLOAD SWAP1 PUSH2 0x100 EXP SWAP1 DIV PUSH20 0xFFFFFFFFFFFFFFFFFFFFFFFFFFFFFFFFFFFFFFFF AND PUSH20 0xFFFFFFFFFFFFFFFFFFFFFFFFFFFFFFFFFFFFFFFF AND CALLER PUSH20 0xFFFFFFFFFFFFFFFFFFFFFFFFFFFFFFFFFFFFFFFF AND EQ PUSH2 0xAF1 JUMPI PUSH1 0x40 MLOAD PUSH32 0x8C379A000000000000000000000000000000000000000000000000000000000 DUP2 MSTORE PUSH1 0x4 ADD PUSH2 0xAE8 SWAP1 PUSH2 0x1C9C JUMP JUMPDEST PUSH1 0x40 MLOAD DUP1 SWAP2 SUB SWAP1 REVERT JUMPDEST PUSH2 0xAFA DUP2 PUSH2 0x12BE JUMP JUMPDEST POP JUMP JUMPDEST PUSH0 DUP1 PUSH0 DUP4 DUP2 MSTORE PUSH1 0x20 ADD SWAP1 DUP2 MSTORE PUSH1 0x20 ADD PUSH0 KECCAK256 PUSH0 SWAP1 SLOAD SWAP1 PUSH2 0x100 EXP SWAP1 DIV PUSH20 0xFFFFFFFFFFFFFFFFFFFFFFFFFFFFFFFFFFFFFFFF AND SWAP1 POP PUSH0 PUSH20 0xFFFFFFFFFFFFFFFFFFFFFFFFFFFFFFFFFFFFFFFF AND DUP2 PUSH20 0xFFFFFFFFFFFFFFFFFFFFFFFFFFFFFFFFFFFFFFFF AND SUB PUSH2 0xB9E JUMPI PUSH1 0x40 MLOAD PUSH32 0x8C379A000000000000000000000000000000000000000000000000000000000 DUP2 MSTORE PUSH1 0x4 ADD PUSH2 0xB95 SWAP1 PUSH2 0x18D7 JUMP JUMPDEST PUSH1 0x40 MLOAD DUP1 SWAP2 SUB SWAP1 REVERT JUMPDEST SWAP2 SWAP1 POP JUMP JUMPDEST PUSH0 DUP1 PUSH20 0xFFFFFFFFFFFFFFFFFFFFFFFFFFFFFFFFFFFFFFFF AND DUP3 PUSH20 0xFFFFFFFFFFFFFFFFFFFFFFFFFFFFFFFFFFFFFFFF AND SUB PUSH2 0xC12 JUMPI PUSH1 0x40 MLOAD PUSH32 0x8C379A000000000000000000000000000000000000000000000000000000000 DUP2 MSTORE PUSH1 0x4 ADD PUSH2 0xC09 SWAP1 PUSH2 0x1D04 JUMP JUMPDEST PUSH1 0x40 MLOAD DUP1 SWAP2 SUB SWAP1 REVERT JUMPDEST PUSH1 0x1 PUSH0 DUP4 PUSH20 0xFFFFFFFFFFFFFFFFFFFFFFFFFFFFFFFFFFFFFFFF AND PUSH20 0xFFFFFFFFFFFFFFFFFFFFFFFFFFFFFFFFFFFFFFFF AND DUP2 MSTORE PUSH1 0x20 ADD SWAP1 DUP2 MSTORE PUSH1 0x20 ADD PUSH0 KECCAK256 SLOAD SWAP1 POP SWAP2 SWAP1 POP JUMP JUMPDEST DUP1 PUSH1 0x3 PUSH0 CALLER PUSH20 0xFFFFFFFFFFFFFFFFFFFFFFFFFFFFFFFFFFFFFFFF AND PUSH20 0xFFFFFFFFFFFFFFFFFFFFFFFFFFFFFFFFFFFFFFFF AND DUP2 MSTORE PUSH1 0x20 ADD SWAP1 DUP2 MSTORE PUSH1 0x20 ADD PUSH0 KECCAK256 PUSH0 DUP5 PUSH20 0xFFFFFFFFFFFFFFFFFFFFFFFFFFFFFFFFFFFFFFFF AND PUSH20 0xFFFFFFFFFFFFFFFFFFFFFFFFFFFFFFFFFFFFFFFF AND DUP2 MSTORE PUSH1 0x20 ADD SWAP1 DUP2 MSTORE PUSH1 0x20 ADD PUSH0 KECCAK256 PUSH0 PUSH2 0x100 EXP DUP2 SLOAD DUP2 PUSH1 0xFF MUL NOT AND SWAP1 DUP4 ISZERO ISZERO MUL OR SWAP1 SSTORE POP DUP2 PUSH20 0xFFFFFFFFFFFFFFFFFFFFFFFFFFFFFFFFFFFFFFFF AND CALLER PUSH20 0xFFFFFFFFFFFFFFFFFFFFFFFFFFFFFFFFFFFFFFFF AND PUSH32 0x17307EAB39AB6107E8899845AD3D59BD9653F200F220920489CA2B5937696C31 DUP4 PUSH1 0x40 MLOAD PUSH2 0xD43 SWAP2 SWAP1 PUSH2 0x1518 JUMP JUMPDEST PUSH1 0x40 MLOAD DUP1 SWAP2 SUB SWAP1 LOG3 POP POP JUMP JUMPDEST PUSH2 0xD5A DUP6 DUP6 DUP6 PUSH2 0x638 JUMP JUMPDEST PUSH0 DUP5 PUSH20 0xFFFFFFFFFFFFFFFFFFFFFFFFFFFFFFFFFFFFFFFF AND EXTCODESIZE EQ DUP1 PUSH2 0xE43 JUMPI POP PUSH4 0x150B7A02 PUSH1 0xE0 SHL PUSH28 0xFFFFFFFFFFFFFFFFFFFFFFFFFFFFFFFFFFFFFFFFFFFFFFFFFFFFFFFF NOT AND DUP5 PUSH20 0xFFFFFFFFFFFFFFFFFFFFFFFFFFFFFFFFFFFFFFFF AND PUSH4 0x150B7A02 CALLER DUP9 DUP8 DUP8 DUP8 PUSH1 0x40 MLOAD DUP7 PUSH4 0xFFFFFFFF AND PUSH1 0xE0 SHL DUP2 MSTORE PUSH1 0x4 ADD PUSH2 0xDE2 SWAP6 SWAP5 SWAP4 SWAP3 SWAP2 SWAP1 PUSH2 0x1D6C JUMP JUMPDEST PUSH1 0x20 PUSH1 0x40 MLOAD DUP1 DUP4 SUB DUP2 PUSH0 DUP8 GAS CALL ISZERO DUP1 ISZERO PUSH2 0xDFE JUMPI RETURNDATASIZE PUSH0 DUP1 RETURNDATACOPY RETURNDATASIZE PUSH0 REVERT JUMPDEST POP POP POP POP PUSH1 0x40 MLOAD RETURNDATASIZE PUSH1 0x1F NOT PUSH1 0x1F DUP3 ADD AND DUP3 ADD DUP1 PUSH1 0x40 MSTORE POP DUP2 ADD SWAP1 PUSH2 0xE22 SWAP2 SWAP1 PUSH2 0x1BBF JUMP JUMPDEST PUSH28 0xFFFFFFFFFFFFFFFFFFFFFFFFFFFFFFFFFFFFFFFFFFFFFFFFFFFFFFFF NOT AND EQ JUMPDEST PUSH2 0xE82 JUMPI PUSH1 0x40 MLOAD PUSH32 0x8C379A000000000000000000000000000000000000000000000000000000000 DUP2 MSTORE PUSH1 0x4 ADD PUSH2 0xE79 SWAP1 PUSH2 0x1C34 JUMP JUMPDEST PUSH1 0x40 MLOAD DUP1 SWAP2 SUB SWAP1 REVERT JUMPDEST POP POP POP POP POP JUMP JUMPDEST PUSH0 DUP1 PUSH20 0xFFFFFFFFFFFFFFFFFFFFFFFFFFFFFFFFFFFFFFFF AND PUSH0 DUP1 DUP5 DUP2 MSTORE PUSH1 0x20 ADD SWAP1 DUP2 MSTORE PUSH1 0x20 ADD PUSH0 KECCAK256 PUSH0 SWAP1 SLOAD SWAP1 PUSH2 0x100 EXP SWAP1 DIV PUSH20 0xFFFFFFFFFFFFFFFFFFFFFFFFFFFFFFFFFFFFFFFF AND PUSH20 0xFFFFFFFFFFFFFFFFFFFFFFFFFFFFFFFFFFFFFFFF AND SUB PUSH2 0xF27 JUMPI PUSH1 0x40 MLOAD PUSH32 0x8C379A000000000000000000000000000000000000000000000000000000000 DUP2 MSTORE PUSH1 0x4 ADD PUSH2 0xF1E SWAP1 PUSH2 0x1E02 JUMP JUMPDEST PUSH1 0x40 MLOAD DUP1 SWAP2 SUB SWAP1 REVERT JUMPDEST PUSH1 0x2 PUSH0 DUP4 DUP2 MSTORE PUSH1 0x20 ADD SWAP1 DUP2 MSTORE PUSH1 0x20 ADD PUSH0 KECCAK256 PUSH0 SWAP1 SLOAD SWAP1 PUSH2 0x100 EXP SWAP1 DIV PUSH20 0xFFFFFFFFFFFFFFFFFFFFFFFFFFFFFFFFFFFFFFFF AND SWAP1 POP SWAP2 SWAP1 POP JUMP JUMPDEST PUSH1 0x3 PUSH1 0x20 MSTORE DUP2 PUSH0 MSTORE PUSH1 0x40 PUSH0 KECCAK256 PUSH1 0x20 MSTORE DUP1 PUSH0 MSTORE PUSH1 0x40 PUSH0 KECCAK256 PUSH0 SWAP2 POP SWAP2 POP SWAP1 SLOAD SWAP1 PUSH2 0x100 EXP SWAP1 DIV PUSH1 0xFF AND DUP2 JUMP JUMPDEST PUSH0 DUP4 PUSH20 0xFFFFFFFFFFFFFFFFFFFFFFFFFFFFFFFFFFFFFFFF AND DUP4 PUSH20 0xFFFFFFFFFFFFFFFFFFFFFFFFFFFFFFFFFFFFFFFF AND EQ DUP1 PUSH2 0x1045 JUMPI POP PUSH1 0x3 PUSH0 DUP6 PUSH20 0xFFFFFFFFFFFFFFFFFFFFFFFFFFFFFFFFFFFFFFFF AND PUSH20 0xFFFFFFFFFFFFFFFFFFFFFFFFFFFFFFFFFFFFFFFF AND DUP2 MSTORE PUSH1 0x20 ADD SWAP1 DUP2 MSTORE PUSH1 0x20 ADD PUSH0 KECCAK256 PUSH0 DUP5 PUSH20 0xFFFFFFFFFFFFFFFFFFFFFFFFFFFFFFFFFFFFFFFF AND PUSH20 0xFFFFFFFFFFFFFFFFFFFFFFFFFFFFFFFFFFFFFFFF AND DUP2 MSTORE PUSH1 0x20 ADD SWAP1 DUP2 MSTORE PUSH1 0x20 ADD PUSH0 KECCAK256 PUSH0 SWAP1 SLOAD SWAP1 PUSH2 0x100 EXP SWAP1 DIV PUSH1 0xFF AND JUMPDEST DUP1 PUSH2 0x10AB JUMPI POP PUSH1 0x2 PUSH0 DUP4 DUP2 MSTORE PUSH1 0x20 ADD SWAP1 DUP2 MSTORE PUSH1 0x20 ADD PUSH0 KECCAK256 PUSH0 SWAP1 SLOAD SWAP1 PUSH2 0x100 EXP SWAP1 DIV PUSH20 0xFFFFFFFFFFFFFFFFFFFFFFFFFFFFFFFFFFFFFFFF AND PUSH20 0xFFFFFFFFFFFFFFFFFFFFFFFFFFFFFFFFFFFFFFFF AND DUP4 PUSH20 0xFFFFFFFFFFFFFFFFFFFFFFFFFFFFFFFFFFFFFFFF AND EQ JUMPDEST SWAP1 POP SWAP4 SWAP3 POP POP POP JUMP JUMPDEST PUSH0 PUSH20 0xFFFFFFFFFFFFFFFFFFFFFFFFFFFFFFFFFFFFFFFF AND DUP3 PUSH20 0xFFFFFFFFFFFFFFFFFFFFFFFFFFFFFFFFFFFFFFFF AND SUB PUSH2 0x1122 JUMPI PUSH1 0x40 MLOAD PUSH32 0x8C379A000000000000000000000000000000000000000000000000000000000 DUP2 MSTORE PUSH1 0x4 ADD PUSH2 0x1119 SWAP1 PUSH2 0x1E6A JUMP JUMPDEST PUSH1 0x40 MLOAD DUP1 SWAP2 SUB SWAP1 REVERT JUMPDEST PUSH0 PUSH20 0xFFFFFFFFFFFFFFFFFFFFFFFFFFFFFFFFFFFFFFFF AND PUSH0 DUP1 DUP4 DUP2 MSTORE PUSH1 0x20 ADD SWAP1 DUP2 MSTORE PUSH1 0x20 ADD PUSH0 KECCAK256 PUSH0 SWAP1 SLOAD SWAP1 PUSH2 0x100 EXP SWAP1 DIV PUSH20 0xFFFFFFFFFFFFFFFFFFFFFFFFFFFFFFFFFFFFFFFF AND PUSH20 0xFFFFFFFFFFFFFFFFFFFFFFFFFFFFFFFFFFFFFFFF AND EQ PUSH2 0x11BF JUMPI PUSH1 0x40 MLOAD PUSH32 0x8C379A000000000000000000000000000000000000000000000000000000000 DUP2 MSTORE PUSH1 0x4 ADD PUSH2 0x11B6 SWAP1 PUSH2 0x1ED2 JUMP JUMPDEST PUSH1 0x40 MLOAD DUP1 SWAP2 SUB SWAP1 REVERT JUMPDEST PUSH1 0x1 PUSH0 DUP4 PUSH20 0xFFFFFFFFFFFFFFFFFFFFFFFFFFFFFFFFFFFFFFFF AND PUSH20 0xFFFFFFFFFFFFFFFFFFFFFFFFFFFFFFFFFFFFFFFF AND DUP2 MSTORE PUSH1 0x20 ADD SWAP1 DUP2 MSTORE PUSH1 0x20 ADD PUSH0 KECCAK256 PUSH0 DUP2 SLOAD DUP1 SWAP3 SWAP2 SWAP1 PUSH2 0x120C SWAP1 PUSH2 0x1AE9 JUMP JUMPDEST SWAP2 SWAP1 POP SSTORE POP DUP2 PUSH0 DUP1 DUP4 DUP2 MSTORE PUSH1 0x20 ADD SWAP1 DUP2 MSTORE PUSH1 0x20 ADD PUSH0 KECCAK256 PUSH0 PUSH2 0x100 EXP DUP2 SLOAD DUP2 PUSH20 0xFFFFFFFFFFFFFFFFFFFFFFFFFFFFFFFFFFFFFFFF MUL NOT AND SWAP1 DUP4 PUSH20 0xFFFFFFFFFFFFFFFFFFFFFFFFFFFFFFFFFFFFFFFF AND MUL OR SWAP1 SSTORE POP DUP1 DUP3 PUSH20 0xFFFFFFFFFFFFFFFFFFFFFFFFFFFFFFFFFFFFFFFF AND PUSH0 PUSH20 0xFFFFFFFFFFFFFFFFFFFFFFFFFFFFFFFFFFFFFFFF AND PUSH32 0xDDF252AD1BE2C89B69C2B068FC378DAA952BA7F163C4A11628F55A4DF523B3EF PUSH1 0x40 MLOAD PUSH1 0x40 MLOAD DUP1 SWAP2 SUB SWAP1 LOG4 POP POP JUMP JUMPDEST PUSH0 DUP1 PUSH0 DUP4 DUP2 MSTORE PUSH1 0x20 ADD SWAP1 DUP2 MSTORE PUSH1 0x20 ADD PUSH0 KECCAK256 PUSH0 SWAP1 SLOAD SWAP1 PUSH2 0x100 EXP SWAP1 DIV PUSH20 0xFFFFFFFFFFFFFFFFFFFFFFFFFFFFFFFFFFFFFFFF AND SWAP1 POP PUSH0 PUSH20 0xFFFFFFFFFFFFFFFFFFFFFFFFFFFFFFFFFFFFFFFF AND DUP2 PUSH20 0xFFFFFFFFFFFFFFFFFFFFFFFFFFFFFFFFFFFFFFFF AND SUB PUSH2 0x135F JUMPI PUSH1 0x40 MLOAD PUSH32 0x8C379A000000000000000000000000000000000000000000000000000000000 DUP2 MSTORE PUSH1 0x4 ADD PUSH2 0x1356 SWAP1 PUSH2 0x1F3A JUMP JUMPDEST PUSH1 0x40 MLOAD DUP1 SWAP2 SUB SWAP1 REVERT JUMPDEST PUSH1 0x1 DUP1 PUSH0 DUP4 PUSH20 0xFFFFFFFFFFFFFFFFFFFFFFFFFFFFFFFFFFFFFFFF AND PUSH20 0xFFFFFFFFFFFFFFFFFFFFFFFFFFFFFFFFFFFFFFFF AND DUP2 MSTORE PUSH1 0x20 ADD SWAP1 DUP2 MSTORE PUSH1 0x20 ADD PUSH0 KECCAK256 PUSH0 DUP3 DUP3 SLOAD PUSH2 0x13AB SWAP2 SWAP1 PUSH2 0x1F58 JUMP JUMPDEST SWAP3 POP POP DUP2 SWAP1 SSTORE POP PUSH0 DUP1 DUP4 DUP2 MSTORE PUSH1 0x20 ADD SWAP1 DUP2 MSTORE PUSH1 0x20 ADD PUSH0 KECCAK256 PUSH0 PUSH2 0x100 EXP DUP2 SLOAD SWAP1 PUSH20 0xFFFFFFFFFFFFFFFFFFFFFFFFFFFFFFFFFFFFFFFF MUL NOT AND SWAP1 SSTORE PUSH1 0x2 PUSH0 DUP4 DUP2 MSTORE PUSH1 0x20 ADD SWAP1 DUP2 MSTORE PUSH1 0x20 ADD PUSH0 KECCAK256 PUSH0 PUSH2 0x100 EXP DUP2 SLOAD SWAP1 PUSH20 0xFFFFFFFFFFFFFFFFFFFFFFFFFFFFFFFFFFFFFFFF MUL NOT AND SWAP1 SSTORE DUP2 PUSH0 PUSH20 0xFFFFFFFFFFFFFFFFFFFFFFFFFFFFFFFFFFFFFFFF AND DUP3 PUSH20 0xFFFFFFFFFFFFFFFFFFFFFFFFFFFFFFFFFFFFFFFF AND PUSH32 0xDDF252AD1BE2C89B69C2B068FC378DAA952BA7F163C4A11628F55A4DF523B3EF PUSH1 0x40 MLOAD PUSH1 0x40 MLOAD DUP1 SWAP2 SUB SWAP1 LOG4 POP POP JUMP JUMPDEST PUSH0 DUP1 REVERT JUMPDEST PUSH0 DUP1 REVERT JUMPDEST PUSH0 PUSH32 0xFFFFFFFF00000000000000000000000000000000000000000000000000000000 DUP3 AND SWAP1 POP SWAP2 SWAP1 POP JUMP JUMPDEST PUSH2 0x14B2 DUP2 PUSH2 0x147E JUMP JUMPDEST DUP2 EQ PUSH2 0x14BC JUMPI PUSH0 DUP1 REVERT JUMPDEST POP JUMP JUMPDEST PUSH0 DUP2 CALLDATALOAD SWAP1 POP PUSH2 0x14CD DUP2 PUSH2 0x14A9 JUMP JUMPDEST SWAP3 SWAP2 POP POP JUMP JUMPDEST PUSH0 PUSH1 0x20 DUP3 DUP5 SUB SLT ISZERO PUSH2 0x14E8 JUMPI PUSH2 0x14E7 PUSH2 0x1476 JUMP JUMPDEST JUMPDEST PUSH0 PUSH2 0x14F5 DUP5 DUP3 DUP6 ADD PUSH2 0x14BF JUMP JUMPDEST SWAP2 POP POP SWAP3 SWAP2 POP POP JUMP JUMPDEST PUSH0 DUP2 ISZERO ISZERO SWAP1 POP SWAP2 SWAP1 POP JUMP JUMPDEST PUSH2 0x1512 DUP2 PUSH2 0x14FE JUMP JUMPDEST DUP3 MSTORE POP POP JUMP JUMPDEST PUSH0 PUSH1 0x20 DUP3 ADD SWAP1 POP PUSH2 0x152B PUSH0 DUP4 ADD DUP5 PUSH2 0x1509 JUMP JUMPDEST SWAP3 SWAP2 POP POP JUMP JUMPDEST PUSH0 DUP2 SWAP1 POP SWAP2 SWAP1 POP JUMP JUMPDEST PUSH2 0x1543 DUP2 PUSH2 0x1531 JUMP JUMPDEST DUP2 EQ PUSH2 0x154D JUMPI PUSH0 DUP1 REVERT JUMPDEST POP JUMP JUMPDEST PUSH0 DUP2 CALLDATALOAD SWAP1 POP PUSH2 0x155E DUP2 PUSH2 0x153A JUMP JUMPDEST SWAP3 SWAP2 POP POP JUMP JUMPDEST PUSH0 PUSH1 0x20 DUP3 DUP5 SUB SLT ISZERO PUSH2 0x1579 JUMPI PUSH2 0x1578 PUSH2 0x1476 JUMP JUMPDEST JUMPDEST PUSH0 PUSH2 0x1586 DUP5 DUP3 DUP6 ADD PUSH2 0x1550 JUMP JUMPDEST SWAP2 POP POP SWAP3 SWAP2 POP POP JUMP JUMPDEST PUSH0 PUSH20 0xFFFFFFFFFFFFFFFFFFFFFFFFFFFFFFFFFFFFFFFF DUP3 AND SWAP1 POP SWAP2 SWAP1 POP JUMP JUMPDEST PUSH0 PUSH2 0x15B8 DUP3 PUSH2 0x158F JUMP JUMPDEST SWAP1 POP SWAP2 SWAP1 POP JUMP JUMPDEST PUSH2 0x15C8 DUP2 PUSH2 0x15AE JUMP JUMPDEST DUP3 MSTORE POP POP JUMP JUMPDEST PUSH0 PUSH1 0x20 DUP3 ADD SWAP1 POP PUSH2 0x15E1 PUSH0 DUP4 ADD DUP5 PUSH2 0x15BF JUMP JUMPDEST SWAP3 SWAP2 POP POP JUMP JUMPDEST PUSH2 0x15F0 DUP2 PUSH2 0x15AE JUMP JUMPDEST DUP2 EQ PUSH2 0x15FA JUMPI PUSH0 DUP1 REVERT JUMPDEST POP JUMP JUMPDEST PUSH0 DUP2 CALLDATALOAD SWAP1 POP PUSH2 0x160B DUP2 PUSH2 0x15E7 JUMP JUMPDEST SWAP3 SWAP2 POP POP JUMP JUMPDEST PUSH0 DUP1 PUSH1 0x40 DUP4 DUP6 SUB SLT ISZERO PUSH2 0x1627 JUMPI PUSH2 0x1626 PUSH2 0x1476 JUMP JUMPDEST JUMPDEST PUSH0 PUSH2 0x1634 DUP6 DUP3 DUP7 ADD PUSH2 0x15FD JUMP JUMPDEST SWAP3 POP POP PUSH1 0x20 PUSH2 0x1645 DUP6 DUP3 DUP7 ADD PUSH2 0x1550 JUMP JUMPDEST SWAP2 POP POP SWAP3 POP SWAP3 SWAP1 POP JUMP JUMPDEST PUSH0 DUP1 PUSH0 PUSH1 0x60 DUP5 DUP7 SUB SLT ISZERO PUSH2 0x1666 JUMPI PUSH2 0x1665 PUSH2 0x1476 JUMP JUMPDEST JUMPDEST PUSH0 PUSH2 0x1673 DUP7 DUP3 DUP8 ADD PUSH2 0x15FD JUMP JUMPDEST SWAP4 POP POP PUSH1 0x20 PUSH2 0x1684 DUP7 DUP3 DUP8 ADD PUSH2 0x15FD JUMP JUMPDEST SWAP3 POP POP PUSH1 0x40 PUSH2 0x1695 DUP7 DUP3 DUP8 ADD PUSH2 0x1550 JUMP JUMPDEST SWAP2 POP POP SWAP3 POP SWAP3 POP SWAP3 JUMP JUMPDEST PUSH0 PUSH1 0x20 DUP3 DUP5 SUB SLT ISZERO PUSH2 0x16B4 JUMPI PUSH2 0x16B3 PUSH2 0x1476 JUMP JUMPDEST JUMPDEST PUSH0 PUSH2 0x16C1 DUP5 DUP3 DUP6 ADD PUSH2 0x15FD JUMP JUMPDEST SWAP2 POP POP SWAP3 SWAP2 POP POP JUMP JUMPDEST PUSH2 0x16D3 DUP2 PUSH2 0x1531 JUMP JUMPDEST DUP3 MSTORE POP POP JUMP JUMPDEST PUSH0 PUSH1 0x20 DUP3 ADD SWAP1 POP PUSH2 0x16EC PUSH0 DUP4 ADD DUP5 PUSH2 0x16CA JUMP JUMPDEST SWAP3 SWAP2 POP POP JUMP JUMPDEST PUSH2 0x16FB DUP2 PUSH2 0x14FE JUMP JUMPDEST DUP2 EQ PUSH2 0x1705 JUMPI PUSH0 DUP1 REVERT JUMPDEST POP JUMP JUMPDEST PUSH0 DUP2 CALLDATALOAD SWAP1 POP PUSH2 0x1716 DUP2 PUSH2 0x16F2 JUMP JUMPDEST SWAP3 SWAP2 POP POP JUMP JUMPDEST PUSH0 DUP1 PUSH1 0x40 DUP4 DUP6 SUB SLT ISZERO PUSH2 0x1732 JUMPI PUSH2 0x1731 PUSH2 0x1476 JUMP JUMPDEST JUMPDEST PUSH0 PUSH2 0x173F DUP6 DUP3 DUP7 ADD PUSH2 0x15FD JUMP JUMPDEST SWAP3 POP POP PUSH1 0x20 PUSH2 0x1750 DUP6 DUP3 DUP7 ADD PUSH2 0x1708 JUMP JUMPDEST SWAP2 POP POP SWAP3 POP SWAP3 SWAP1 POP JUMP JUMPDEST PUSH0 DUP1 REVERT JUMPDEST PUSH0 DUP1 REVERT JUMPDEST PUSH0 DUP1 REVERT JUMPDEST PUSH0 DUP1 DUP4 PUSH1 0x1F DUP5 ADD SLT PUSH2 0x177B JUMPI PUSH2 0x177A PUSH2 0x175A JUMP JUMPDEST JUMPDEST DUP3 CALLDATALOAD SWAP1 POP PUSH8 0xFFFFFFFFFFFFFFFF DUP2 GT ISZERO PUSH2 0x1798 JUMPI PUSH2 0x1797 PUSH2 0x175E JUMP JUMPDEST JUMPDEST PUSH1 0x20 DUP4 ADD SWAP2 POP DUP4 PUSH1 0x1 DUP3 MUL DUP4 ADD GT ISZERO PUSH2 0x17B4 JUMPI PUSH2 0x17B3 PUSH2 0x1762 JUMP JUMPDEST JUMPDEST SWAP3 POP SWAP3 SWAP1 POP JUMP JUMPDEST PUSH0 DUP1 PUSH0 DUP1 PUSH0 PUSH1 0x80 DUP7 DUP9 SUB SLT ISZERO PUSH2 0x17D4 JUMPI PUSH2 0x17D3 PUSH2 0x1476 JUMP JUMPDEST JUMPDEST PUSH0 PUSH2 0x17E1 DUP9 DUP3 DUP10 ADD PUSH2 0x15FD JUMP JUMPDEST SWAP6 POP POP PUSH1 0x20 PUSH2 0x17F2 DUP9 DUP3 DUP10 ADD PUSH2 0x15FD JUMP JUMPDEST SWAP5 POP POP PUSH1 0x40 PUSH2 0x1803 DUP9 DUP3 DUP10 ADD PUSH2 0x1550 JUMP JUMPDEST SWAP4 POP POP PUSH1 0x60 DUP7 ADD CALLDATALOAD PUSH8 0xFFFFFFFFFFFFFFFF DUP2 GT ISZERO PUSH2 0x1824 JUMPI PUSH2 0x1823 PUSH2 0x147A JUMP JUMPDEST JUMPDEST PUSH2 0x1830 DUP9 DUP3 DUP10 ADD PUSH2 0x1766 JUMP JUMPDEST SWAP3 POP SWAP3 POP POP SWAP3 SWAP6 POP SWAP3 SWAP6 SWAP1 SWAP4 POP JUMP JUMPDEST PUSH0 DUP1 PUSH1 0x40 DUP4 DUP6 SUB SLT ISZERO PUSH2 0x1855 JUMPI PUSH2 0x1854 PUSH2 0x1476 JUMP JUMPDEST JUMPDEST PUSH0 PUSH2 0x1862 DUP6 DUP3 DUP7 ADD PUSH2 0x15FD JUMP JUMPDEST SWAP3 POP POP PUSH1 0x20 PUSH2 0x1873 DUP6 DUP3 DUP7 ADD PUSH2 0x15FD JUMP JUMPDEST SWAP2 POP POP SWAP3 POP SWAP3 SWAP1 POP JUMP JUMPDEST PUSH0 DUP3 DUP3 MSTORE PUSH1 0x20 DUP3 ADD SWAP1 POP SWAP3 SWAP2 POP POP JUMP JUMPDEST PUSH32 0x746F6B656E20646F65736E277420657869737400000000000000000000000000 PUSH0 DUP3 ADD MSTORE POP JUMP JUMPDEST PUSH0 PUSH2 0x18C1 PUSH1 0x13 DUP4 PUSH2 0x187D JUMP JUMPDEST SWAP2 POP PUSH2 0x18CC DUP3 PUSH2 0x188D JUMP JUMPDEST PUSH1 0x20 DUP3 ADD SWAP1 POP SWAP2 SWAP1 POP JUMP JUMPDEST PUSH0 PUSH1 0x20 DUP3 ADD SWAP1 POP DUP2 DUP2 SUB PUSH0 DUP4 ADD MSTORE PUSH2 0x18EE DUP2 PUSH2 0x18B5 JUMP JUMPDEST SWAP1 POP SWAP2 SWAP1 POP JUMP JUMPDEST PUSH32 0x6E6F7420617574686F72697A6564000000000000000000000000000000000000 PUSH0 DUP3 ADD MSTORE POP JUMP JUMPDEST PUSH0 PUSH2 0x1929 PUSH1 0xE DUP4 PUSH2 0x187D JUMP JUMPDEST SWAP2 POP PUSH2 0x1934 DUP3 PUSH2 0x18F5 JUMP JUMPDEST PUSH1 0x20 DUP3 ADD SWAP1 POP SWAP2 SWAP1 POP JUMP JUMPDEST PUSH0 PUSH1 0x20 DUP3 ADD SWAP1 POP DUP2 DUP2 SUB PUSH0 DUP4 ADD MSTORE PUSH2 0x1956 DUP2 PUSH2 0x191D JUMP JUMPDEST SWAP1 POP SWAP2 SWAP1 POP JUMP JUMPDEST PUSH32 0x66726F6D20213D206F776E657200000000000000000000000000000000000000 PUSH0 DUP3 ADD MSTORE POP JUMP JUMPDEST PUSH0 PUSH2 0x1991 PUSH1 0xD DUP4 PUSH2 0x187D JUMP JUMPDEST SWAP2 POP PUSH2 0x199C DUP3 PUSH2 0x195D JUMP JUMPDEST PUSH1 0x20 DUP3 ADD SWAP1 POP SWAP2 SWAP1 POP JUMP JUMPDEST PUSH0 PUSH1 0x20 DUP3 ADD SWAP1 POP DUP2 DUP2 SUB PUSH0 DUP4 ADD MSTORE PUSH2 0x19BE DUP2 PUSH2 0x1985 JUMP JUMPDEST SWAP1 POP SWAP2 SWAP1 POP JUMP JUMPDEST PUSH32 0x7472616E7366657220746F207A65726F20616464726573730000000000000000 PUSH0 DUP3 ADD MSTORE POP JUMP JUMPDEST PUSH0 PUSH2 0x19F9 PUSH1 0x18 DUP4 PUSH2 0x187D JUMP JUMPDEST SWAP2 POP PUSH2 0x1A04 DUP3 PUSH2 0x19C5 JUMP JUMPDEST PUSH1 0x20 DUP3 ADD SWAP1 POP SWAP2 SWAP1 POP JUMP JUMPDEST PUSH0 PUSH1 0x20 DUP3 ADD SWAP1 POP DUP2 DUP2 SUB PUSH0 DUP4 ADD MSTORE PUSH2 0x1A26 DUP2 PUSH2 0x19ED JUMP JUMPDEST SWAP1 POP SWAP2 SWAP1 POP JUMP JUMPDEST PUSH32 0x7472616E7366657246726F6D3A206E6F7420617574686F72697A656400000000 PUSH0 DUP3 ADD MSTORE POP JUMP JUMPDEST PUSH0 PUSH2 0x1A61 PUSH1 0x1C DUP4 PUSH2 0x187D JUMP JUMPDEST SWAP2 POP PUSH2 0x1A6C DUP3 PUSH2 0x1A2D JUMP JUMPDEST PUSH1 0x20 DUP3 ADD SWAP1 POP SWAP2 SWAP1 POP JUMP JUMPDEST PUSH0 PUSH1 0x20 DUP3 ADD SWAP1 POP DUP2 DUP2 SUB PUSH0 DUP4 ADD MSTORE PUSH2 0x1A8E DUP2 PUSH2 0x1A55 JUMP JUMPDEST SWAP1 POP SWAP2 SWAP1 POP JUMP JUMPDEST PUSH32 0x4E487B7100000000000000000000000000000000000000000000000000000000 PUSH0 MSTORE PUSH1 0x11 PUSH1 0x4 MSTORE PUSH1 0x24 PUSH0 REVERT JUMPDEST PUSH0 PUSH2 0x1ACC DUP3 PUSH2 0x1531 JUMP JUMPDEST SWAP2 POP PUSH0 DUP3 SUB PUSH2 0x1ADE JUMPI PUSH2 0x1ADD PUSH2 0x1A95 JUMP JUMPDEST JUMPDEST PUSH1 0x1 DUP3 SUB SWAP1 POP SWAP2 SWAP1 POP JUMP JUMPDEST PUSH0 PUSH2 0x1AF3 DUP3 PUSH2 0x1531 JUMP JUMPDEST SWAP2 POP PUSH32 0xFFFFFFFFFFFFFFFFFFFFFFFFFFFFFFFFFFFFFFFFFFFFFFFFFFFFFFFFFFFFFFFF DUP3 SUB PUSH2 0x1B25 JUMPI PUSH2 0x1B24 PUSH2 0x1A95 JUMP JUMPDEST JUMPDEST PUSH1 0x1 DUP3 ADD SWAP1 POP SWAP2 SWAP1 POP JUMP JUMPDEST PUSH0 DUP3 DUP3 MSTORE PUSH1 0x20 DUP3 ADD SWAP1 POP SWAP3 SWAP2 POP POP JUMP JUMPDEST POP JUMP JUMPDEST PUSH0 PUSH2 0x1B4E PUSH0 DUP4 PUSH2 0x1B30 JUMP JUMPDEST SWAP2 POP PUSH2 0x1B59 DUP3 PUSH2 0x1B40 JUMP JUMPDEST PUSH0 DUP3 ADD SWAP1 POP SWAP2 SWAP1 POP JUMP JUMPDEST PUSH0 PUSH1 0x80 DUP3 ADD SWAP1 POP PUSH2 0x1B76 PUSH0 DUP4 ADD DUP7 PUSH2 0x15BF JUMP JUMPDEST PUSH2 0x1B83 PUSH1 0x20 DUP4 ADD DUP6 PUSH2 0x15BF JUMP JUMPDEST PUSH2 0x1B90 PUSH1 0x40 DUP4 ADD DUP5 PUSH2 0x16CA JUMP JUMPDEST DUP2 DUP2 SUB PUSH1 0x60 DUP4 ADD MSTORE PUSH2 0x1BA1 DUP2 PUSH2 0x1B43 JUMP JUMPDEST SWAP1 POP SWAP5 SWAP4 POP POP POP POP JUMP JUMPDEST PUSH0 DUP2 MLOAD SWAP1 POP PUSH2 0x1BB9 DUP2 PUSH2 0x14A9 JUMP JUMPDEST SWAP3 SWAP2 POP POP JUMP JUMPDEST PUSH0 PUSH1 0x20 DUP3 DUP5 SUB SLT ISZERO PUSH2 0x1BD4 JUMPI PUSH2 0x1BD3 PUSH2 0x1476 JUMP JUMPDEST JUMPDEST PUSH0 PUSH2 0x1BE1 DUP5 DUP3 DUP6 ADD PUSH2 0x1BAB JUMP JUMPDEST SWAP2 POP POP SWAP3 SWAP2 POP POP JUMP JUMPDEST PUSH32 0x756E7361666520726563697069656E7400000000000000000000000000000000 PUSH0 DUP3 ADD MSTORE POP JUMP JUMPDEST PUSH0 PUSH2 0x1C1E PUSH1 0x10 DUP4 PUSH2 0x187D JUMP JUMPDEST SWAP2 POP PUSH2 0x1C29 DUP3 PUSH2 0x1BEA JUMP JUMPDEST PUSH1 0x20 DUP3 ADD SWAP1 POP SWAP2 SWAP1 POP JUMP JUMPDEST PUSH0 PUSH1 0x20 DUP3 ADD SWAP1 POP DUP2 DUP2 SUB PUSH0 DUP4 ADD MSTORE PUSH2 0x1C4B DUP2 PUSH2 0x1C12 JUMP JUMPDEST SWAP1 POP SWAP2 SWAP1 POP JUMP JUMPDEST PUSH32 0x6E6F74206F776E65720000000000000000000000000000000000000000000000 PUSH0 DUP3 ADD MSTORE POP JUMP JUMPDEST PUSH0 PUSH2 0x1C86 PUSH1 0x9 DUP4 PUSH2 0x187D JUMP JUMPDEST SWAP2 POP PUSH2 0x1C91 DUP3 PUSH2 0x1C52 JUMP JUMPDEST PUSH1 0x20 DUP3 ADD SWAP1 POP SWAP2 SWAP1 POP JUMP JUMPDEST PUSH0 PUSH1 0x20 DUP3 ADD SWAP1 POP DUP2 DUP2 SUB PUSH0 DUP4 ADD MSTORE PUSH2 0x1CB3 DUP2 PUSH2 0x1C7A JUMP JUMPDEST SWAP1 POP SWAP2 SWAP1 POP JUMP JUMPDEST PUSH32 0x6F776E6572203D207A65726F2061646472657373000000000000000000000000 PUSH0 DUP3 ADD MSTORE POP JUMP JUMPDEST PUSH0 PUSH2 0x1CEE PUSH1 0x14 DUP4 PUSH2 0x187D JUMP JUMPDEST SWAP2 POP PUSH2 0x1CF9 DUP3 PUSH2 0x1CBA JUMP JUMPDEST PUSH1 0x20 DUP3 ADD SWAP1 POP SWAP2 SWAP1 POP JUMP JUMPDEST PUSH0 PUSH1 0x20 DUP3 ADD SWAP1 POP DUP2 DUP2 SUB PUSH0 DUP4 ADD MSTORE PUSH2 0x1D1B DUP2 PUSH2 0x1CE2 JUMP JUMPDEST SWAP1 POP SWAP2 SWAP1 POP JUMP JUMPDEST DUP3 DUP2 DUP4 CALLDATACOPY PUSH0 DUP4 DUP4 ADD MSTORE POP POP POP JUMP JUMPDEST PUSH0 PUSH1 0x1F NOT PUSH1 0x1F DUP4 ADD AND SWAP1 POP SWAP2 SWAP1 POP JUMP JUMPDEST PUSH0 PUSH2 0x1D4B DUP4 DUP6 PUSH2 0x1B30 JUMP JUMPDEST SWAP4 POP PUSH2 0x1D58 DUP4 DUP6 DUP5 PUSH2 0x1D22 JUMP JUMPDEST PUSH2 0x1D61 DUP4 PUSH2 0x1D30 JUMP JUMPDEST DUP5 ADD SWAP1 POP SWAP4 SWAP3 POP POP POP JUMP JUMPDEST PUSH0 PUSH1 0x80 DUP3 ADD SWAP1 POP PUSH2 0x1D7F PUSH0 DUP4 ADD DUP9 PUSH2 0x15BF JUMP JUMPDEST PUSH2 0x1D8C PUSH1 0x20 DUP4 ADD DUP8 PUSH2 0x15BF JUMP JUMPDEST PUSH2 0x1D99 PUSH1 0x40 DUP4 ADD DUP7 PUSH2 0x16CA JUMP JUMPDEST DUP2 DUP2 SUB PUSH1 0x60 DUP4 ADD MSTORE PUSH2 0x1DAC DUP2 DUP5 DUP7 PUSH2 0x1D40 JUMP JUMPDEST SWAP1 POP SWAP7 SWAP6 POP POP POP POP POP POP JUMP JUMPDEST PUSH32 0x4D794E46542C20746F6B656E20646F65736E2774206578697374000000000000 PUSH0 DUP3 ADD MSTORE POP JUMP JUMPDEST PUSH0 PUSH2 0x1DEC PUSH1 0x1A DUP4 PUSH2 0x187D JUMP JUMPDEST SWAP2 POP PUSH2 0x1DF7 DUP3 PUSH2 0x1DB8 JUMP JUMPDEST PUSH1 0x20 DUP3 ADD SWAP1 POP SWAP2 SWAP1 POP JUMP JUMPDEST PUSH0 PUSH1 0x20 DUP3 ADD SWAP1 POP DUP2 DUP2 SUB PUSH0 DUP4 ADD MSTORE PUSH2 0x1E19 DUP2 PUSH2 0x1DE0 JUMP JUMPDEST SWAP1 POP SWAP2 SWAP1 POP JUMP JUMPDEST PUSH32 0x6D696E7420746F207A65726F2061646472657373000000000000000000000000 PUSH0 DUP3 ADD MSTORE POP JUMP JUMPDEST PUSH0 PUSH2 0x1E54 PUSH1 0x14 DUP4 PUSH2 0x187D JUMP JUMPDEST SWAP2 POP PUSH2 0x1E5F DUP3 PUSH2 0x1E20 JUMP JUMPDEST PUSH1 0x20 DUP3 ADD SWAP1 POP SWAP2 SWAP1 POP JUMP JUMPDEST PUSH0 PUSH1 0x20 DUP3 ADD SWAP1 POP DUP2 DUP2 SUB PUSH0 DUP4 ADD MSTORE PUSH2 0x1E81 DUP2 PUSH2 0x1E48 JUMP JUMPDEST SWAP1 POP SWAP2 SWAP1 POP JUMP JUMPDEST PUSH32 0x616C7265616479206D696E746564000000000000000000000000000000000000 PUSH0 DUP3 ADD MSTORE POP JUMP JUMPDEST PUSH0 PUSH2 0x1EBC PUSH1 0xE DUP4 PUSH2 0x187D JUMP JUMPDEST SWAP2 POP PUSH2 0x1EC7 DUP3 PUSH2 0x1E88 JUMP JUMPDEST PUSH1 0x20 DUP3 ADD SWAP1 POP SWAP2 SWAP1 POP JUMP JUMPDEST PUSH0 PUSH1 0x20 DUP3 ADD SWAP1 POP DUP2 DUP2 SUB PUSH0 DUP4 ADD MSTORE PUSH2 0x1EE9 DUP2 PUSH2 0x1EB0 JUMP JUMPDEST SWAP1 POP SWAP2 SWAP1 POP JUMP JUMPDEST PUSH32 0x6E6F74206D696E74656400000000000000000000000000000000000000000000 PUSH0 DUP3 ADD MSTORE POP JUMP JUMPDEST PUSH0 PUSH2 0x1F24 PUSH1 0xA DUP4 PUSH2 0x187D JUMP JUMPDEST SWAP2 POP PUSH2 0x1F2F DUP3 PUSH2 0x1EF0 JUMP JUMPDEST PUSH1 0x20 DUP3 ADD SWAP1 POP SWAP2 SWAP1 POP JUMP JUMPDEST PUSH0 PUSH1 0x20 DUP3 ADD SWAP1 POP DUP2 DUP2 SUB PUSH0 DUP4 ADD MSTORE PUSH2 0x1F51 DUP2 PUSH2 0x1F18 JUMP JUMPDEST SWAP1 POP SWAP2 SWAP1 POP JUMP JUMPDEST PUSH0 PUSH2 0x1F62 DUP3 PUSH2 0x1531 JUMP JUMPDEST SWAP2 POP PUSH2 0x1F6D DUP4 PUSH2 0x1531 JUMP JUMPDEST SWAP3 POP DUP3 DUP3 SUB SWAP1 POP DUP2 DUP2 GT ISZERO PUSH2 0x1F85 JUMPI PUSH2 0x1F84 PUSH2 0x1A95 JUMP JUMPDEST JUMPDEST SWAP3 SWAP2 POP POP JUMP INVALID LOG2 PUSH5 0x6970667358 0x22 SLT KECCAK256 0xB1 PUSH12 0xB0ECF4E7C2434E8DA3EFB9 0xDE PUSH6 0xD50388B2AA47 0x23 ADDRESS PUSH7 0xAF7B75F76B5516 PUSH5 0x736F6C6343 STOP ADDMOD BYTE STOP CALLER "
				},
				"gasEstimates": {
					"creation": {
						"codeDepositCost": "1625800",
						"executionCost": "1706",
						"totalCost": "1627506"
					},
					"external": {
						"approve(address,uint256)": "31519",
						"balanceOf(address)": "2931",
						"burn(uint256)": "infinite",
						"getApproved(uint256)": "5121",
						"getNFTApproved(uint256)": "5164",
						"isApprovedForAll(address,address)": "infinite",
						"mint(address,uint256)": "infinite",
						"ownerOf(uint256)": "2983",
						"safeTransferFrom(address,address,uint256)": "infinite",
						"safeTransferFrom(address,address,uint256,bytes)": "infinite",
						"setApprovalForAll(address,bool)": "infinite",
						"supportsInterface(bytes4)": "676",
						"transferFrom(address,address,uint256)": "infinite"
					}
				},
				"methodIdentifiers": {
					"approve(address,uint256)": "095ea7b3",
					"balanceOf(address)": "70a08231",
					"burn(uint256)": "42966c68",
					"getApproved(uint256)": "081812fc",
					"getNFTApproved(uint256)": "e2006861",
					"isApprovedForAll(address,address)": "e985e9c5",
					"mint(address,uint256)": "40c10f19",
					"ownerOf(uint256)": "6352211e",
					"safeTransferFrom(address,address,uint256)": "42842e0e",
					"safeTransferFrom(address,address,uint256,bytes)": "b88d4fde",
					"setApprovalForAll(address,bool)": "a22cb465",
					"supportsInterface(bytes4)": "01ffc9a7",
					"transferFrom(address,address,uint256)": "23b872dd"
				}
			},
			"storageLayout": {
				"storage": [
					{
						"astId": 129,
						"contract": "ERC721.sol:MyNFT",
						"label": "_ownerOf",
						"offset": 0,
						"slot": "0",
						"type": "t_mapping(t_uint256,t_address)"
					},
					{
						"astId": 133,
						"contract": "ERC721.sol:MyNFT",
						"label": "_balanceOf",
						"offset": 0,
						"slot": "1",
						"type": "t_mapping(t_address,t_uint256)"
					},
					{
						"astId": 137,
						"contract": "ERC721.sol:MyNFT",
						"label": "_approvals",
						"offset": 0,
						"slot": "2",
						"type": "t_mapping(t_uint256,t_address)"
					},
					{
						"astId": 143,
						"contract": "ERC721.sol:MyNFT",
						"label": "isApprovedForAll",
						"offset": 0,
						"slot": "3",
						"type": "t_mapping(t_address,t_mapping(t_address,t_bool))"
					}
				],
				"types": {
					"t_address": {
						"encoding": "inplace",
						"label": "address",
						"numberOfBytes": "20"
					},
					"t_bool": {
						"encoding": "inplace",
						"label": "bool",
						"numberOfBytes": "1"
					},
					"t_mapping(t_address,t_bool)": {
						"encoding": "mapping",
						"key": "t_address",
						"label": "mapping(address => bool)",
						"numberOfBytes": "32",
						"value": "t_bool"
					},
					"t_mapping(t_address,t_mapping(t_address,t_bool))": {
						"encoding": "mapping",
						"key": "t_address",
						"label": "mapping(address => mapping(address => bool))",
						"numberOfBytes": "32",
						"value": "t_mapping(t_address,t_bool)"
					},
					"t_mapping(t_address,t_uint256)": {
						"encoding": "mapping",
						"key": "t_address",
						"label": "mapping(address => uint256)",
						"numberOfBytes": "32",
						"value": "t_uint256"
					},
					"t_mapping(t_uint256,t_address)": {
						"encoding": "mapping",
						"key": "t_uint256",
						"label": "mapping(uint256 => address)",
						"numberOfBytes": "32",
						"value": "t_address"
					},
					"t_uint256": {
						"encoding": "inplace",
						"label": "uint256",
						"numberOfBytes": "32"
					}
				}
			},
			"userdoc": {
				"kind": "user",
				"methods": {},
				"version": 1
			}
		}
	}
}