{
	"storage.sol": {
		"MyStorage": {
			"abi": [
				{
					"inputs": [],
					"name": "a",
					"outputs": [
						{
							"internalType": "string",
							"name": "",
							"type": "string"
						}
					],
					"stateMutability": "view",
					"type": "function"
				},
				{
					"inputs": [
						{
							"internalType": "uint256[]",
							"name": "_a",
							"type": "uint256[]"
						}
					],
					"name": "getArray",
					"outputs": [
						{
							"internalType": "uint256[]",
							"name": "",
							"type": "uint256[]"
						}
					],
					"stateMutability": "pure",
					"type": "function"
				},
				{
					"inputs": [
						{
							"internalType": "string",
							"name": "_str",
							"type": "string"
						}
					],
					"name": "setStr",
					"outputs": [],
					"stateMutability": "nonpayable",
					"type": "function"
				},
				{
					"inputs": [],
					"name": "tt",
					"outputs": [
						{
							"internalType": "string",
							"name": "testStr",
							"type": "string"
						}
					],
					"stateMutability": "view",
					"type": "function"
				}
			],
			"devdoc": {
				"kind": "dev",
				"methods": {},
				"version": 1
			},
			"evm": {
				"assembly": "    /* \"storage.sol\":60:696  contract MyStorage{... */\n  mstore(0x40, 0x80)\n  callvalue\n  dup1\n  iszero\n  tag_1\n  jumpi\n  0x00\n  dup1\n  revert\ntag_1:\n  pop\n  dataSize(sub_0)\n  dup1\n  dataOffset(sub_0)\n  0x00\n  codecopy\n  0x00\n  return\nstop\n\nsub_0: assembly {\n        /* \"storage.sol\":60:696  contract MyStorage{... */\n      mstore(0x40, 0x80)\n      callvalue\n      dup1\n      iszero\n      tag_1\n      jumpi\n      0x00\n      dup1\n      revert\n    tag_1:\n      pop\n      jumpi(tag_2, lt(calldatasize, 0x04))\n      shr(0xe0, calldataload(0x00))\n      dup1\n      0x0dbe671f\n      eq\n      tag_3\n      jumpi\n      dup1\n      0x191347df\n      eq\n      tag_4\n      jumpi\n      dup1\n      0x1e36169e\n      eq\n      tag_5\n      jumpi\n      dup1\n      0xdd292604\n      eq\n      tag_6\n      jumpi\n    tag_2:\n      0x00\n      dup1\n      revert\n        /* \"storage.sol\":186:201  string public a */\n    tag_3:\n      tag_7\n      tag_8\n      jump\t// in\n    tag_7:\n      mload(0x40)\n      tag_9\n      swap2\n      swap1\n      tag_10\n      jump\t// in\n    tag_9:\n      mload(0x40)\n      dup1\n      swap2\n      sub\n      swap1\n      return\n        /* \"storage.sol\":210:442  function setStr(string memory _str)public {... */\n    tag_4:\n      tag_11\n      0x04\n      dup1\n      calldatasize\n      sub\n      dup2\n      add\n      swap1\n      tag_12\n      swap2\n      swap1\n      tag_13\n      jump\t// in\n    tag_12:\n      tag_14\n      jump\t// in\n    tag_11:\n      stop\n        /* \"storage.sol\":165:179  Test public tt */\n    tag_5:\n      tag_15\n      tag_16\n      jump\t// in\n    tag_15:\n      mload(0x40)\n      tag_17\n      swap2\n      swap1\n      tag_10\n      jump\t// in\n    tag_17:\n      mload(0x40)\n      dup1\n      swap2\n      sub\n      swap1\n      return\n        /* \"storage.sol\":539:689  function getArray(uint[] calldata _a) external pure returns(uint[] calldata){... */\n    tag_6:\n      tag_18\n      0x04\n      dup1\n      calldatasize\n      sub\n      dup2\n      add\n      swap1\n      tag_19\n      swap2\n      swap1\n      tag_20\n      jump\t// in\n    tag_19:\n      tag_21\n      jump\t// in\n    tag_18:\n      mload(0x40)\n      tag_22\n      swap3\n      swap2\n      swap1\n      tag_23\n      jump\t// in\n    tag_22:\n      mload(0x40)\n      dup1\n      swap2\n      sub\n      swap1\n      return\n        /* \"storage.sol\":186:201  string public a */\n    tag_8:\n      0x02\n      dup1\n      sload\n      tag_24\n      swap1\n      tag_25\n      jump\t// in\n    tag_24:\n      dup1\n      0x1f\n      add\n      0x20\n      dup1\n      swap2\n      div\n      mul\n      0x20\n      add\n      mload(0x40)\n      swap1\n      dup2\n      add\n      0x40\n      mstore\n      dup1\n      swap3\n      swap2\n      swap1\n      dup2\n      dup2\n      mstore\n      0x20\n      add\n      dup3\n      dup1\n      sload\n      tag_26\n      swap1\n      tag_25\n      jump\t// in\n    tag_26:\n      dup1\n      iszero\n      tag_27\n      jumpi\n      dup1\n      0x1f\n      lt\n      tag_28\n      jumpi\n      0x0100\n      dup1\n      dup4\n      sload\n      div\n      mul\n      dup4\n      mstore\n      swap2\n      0x20\n      add\n      swap2\n      jump(tag_27)\n    tag_28:\n      dup3\n      add\n      swap2\n      swap1\n      0x00\n      mstore\n      keccak256(0x00, 0x20)\n      swap1\n    tag_29:\n      dup2\n      sload\n      dup2\n      mstore\n      swap1\n      0x01\n      add\n      swap1\n      0x20\n      add\n      dup1\n      dup4\n      gt\n      tag_29\n      jumpi\n      dup3\n      swap1\n      sub\n      0x1f\n      and\n      dup3\n      add\n      swap2\n    tag_27:\n      pop\n      pop\n      pop\n      pop\n      pop\n      dup2\n      jump\t// out\n        /* \"storage.sol\":210:442  function setStr(string memory _str)public {... */\n    tag_14:\n        /* \"storage.sol\":375:379  _str */\n      dup1\n        /* \"storage.sol\":371:372  a */\n      0x02\n        /* \"storage.sol\":371:379  a = _str */\n      swap1\n      dup2\n      tag_31\n      swap2\n      swap1\n      tag_32\n      jump\t// in\n    tag_31:\n      pop\n        /* \"storage.sol\":390:400  _setStr(a) */\n      tag_33\n        /* \"storage.sol\":398:399  a */\n      0x02\n        /* \"storage.sol\":390:397  _setStr */\n      tag_34\n        /* \"storage.sol\":390:400  _setStr(a) */\n      jump\t// in\n    tag_33:\n        /* \"storage.sol\":210:442  function setStr(string memory _str)public {... */\n      pop\n      jump\t// out\n        /* \"storage.sol\":165:179  Test public tt */\n    tag_16:\n      0x00\n      dup1\n      0x00\n      add\n      dup1\n      sload\n      tag_35\n      swap1\n      tag_25\n      jump\t// in\n    tag_35:\n      dup1\n      0x1f\n      add\n      0x20\n      dup1\n      swap2\n      div\n      mul\n      0x20\n      add\n      mload(0x40)\n      swap1\n      dup2\n      add\n      0x40\n      mstore\n      dup1\n      swap3\n      swap2\n      swap1\n      dup2\n      dup2\n      mstore\n      0x20\n      add\n      dup3\n      dup1\n      sload\n      tag_36\n      swap1\n      tag_25\n      jump\t// in\n    tag_36:\n      dup1\n      iszero\n      tag_37\n      jumpi\n      dup1\n      0x1f\n      lt\n      tag_38\n      jumpi\n      0x0100\n      dup1\n      dup4\n      sload\n      div\n      mul\n      dup4\n      mstore\n      swap2\n      0x20\n      add\n      swap2\n      jump(tag_37)\n    tag_38:\n      dup3\n      add\n      swap2\n      swap1\n      0x00\n      mstore\n      keccak256(0x00, 0x20)\n      swap1\n    tag_39:\n      dup2\n      sload\n      dup2\n      mstore\n      swap1\n      0x01\n      add\n      swap1\n      0x20\n      add\n      dup1\n      dup4\n      gt\n      tag_39\n      jumpi\n      dup3\n      swap1\n      sub\n      0x1f\n      and\n      dup3\n      add\n      swap2\n    tag_37:\n      pop\n      pop\n      pop\n      pop\n      pop\n      swap1\n      pop\n      dup2\n      jump\t// out\n        /* \"storage.sol\":539:689  function getArray(uint[] calldata _a) external pure returns(uint[] calldata){... */\n    tag_21:\n        /* \"storage.sol\":599:614  uint[] calldata */\n      calldatasize\n      0x00\n        /* \"storage.sol\":626:650  uint[] calldata tmparray */\n      calldatasize\n      0x00\n        /* \"storage.sol\":653:655  _a */\n      dup6\n      dup6\n        /* \"storage.sol\":626:655  uint[] calldata tmparray = _a */\n      swap2\n      pop\n      swap2\n      pop\n        /* \"storage.sol\":673:681  tmparray */\n      dup2\n      dup2\n        /* \"storage.sol\":666:681  return tmparray */\n      swap4\n      pop\n      swap4\n      pop\n      pop\n      pop\n        /* \"storage.sol\":539:689  function getArray(uint[] calldata _a) external pure returns(uint[] calldata){... */\n      swap3\n      pop\n      swap3\n      swap1\n      pop\n      jump\t// out\n        /* \"storage.sol\":450:533  function _setStr(string storage _str) internal {... */\n    tag_34:\n        /* \"storage.sol\":521:525  _str */\n      dup1\n        /* \"storage.sol\":508:510  tt */\n      0x00\n        /* \"storage.sol\":508:518  tt.testStr */\n      dup1\n      add\n        /* \"storage.sol\":508:525  tt.testStr = _str */\n      swap1\n      dup2\n      tag_42\n      swap2\n      swap1\n      tag_43\n      jump\t// in\n    tag_42:\n      pop\n        /* \"storage.sol\":450:533  function _setStr(string storage _str) internal {... */\n      pop\n      jump\t// out\n        /* \"#utility.yul\":7:106   */\n    tag_44:\n        /* \"#utility.yul\":59:65   */\n      0x00\n        /* \"#utility.yul\":93:98   */\n      dup2\n        /* \"#utility.yul\":87:99   */\n      mload\n        /* \"#utility.yul\":77:99   */\n      swap1\n      pop\n        /* \"#utility.yul\":7:106   */\n      swap2\n      swap1\n      pop\n      jump\t// out\n        /* \"#utility.yul\":112:281   */\n    tag_45:\n        /* \"#utility.yul\":196:207   */\n      0x00\n        /* \"#utility.yul\":230:236   */\n      dup3\n        /* \"#utility.yul\":225:228   */\n      dup3\n        /* \"#utility.yul\":218:237   */\n      mstore\n        /* \"#utility.yul\":270:274   */\n      0x20\n        /* \"#utility.yul\":265:268   */\n      dup3\n        /* \"#utility.yul\":261:275   */\n      add\n        /* \"#utility.yul\":246:275   */\n      swap1\n      pop\n        /* \"#utility.yul\":112:281   */\n      swap3\n      swap2\n      pop\n      pop\n      jump\t// out\n        /* \"#utility.yul\":287:426   */\n    tag_46:\n        /* \"#utility.yul\":376:382   */\n      dup3\n        /* \"#utility.yul\":371:374   */\n      dup2\n        /* \"#utility.yul\":366:369   */\n      dup4\n        /* \"#utility.yul\":360:383   */\n      mcopy\n        /* \"#utility.yul\":417:418   */\n      0x00\n        /* \"#utility.yul\":408:414   */\n      dup4\n        /* \"#utility.yul\":403:406   */\n      dup4\n        /* \"#utility.yul\":399:415   */\n      add\n        /* \"#utility.yul\":392:419   */\n      mstore\n        /* \"#utility.yul\":287:426   */\n      pop\n      pop\n      pop\n      jump\t// out\n        /* \"#utility.yul\":432:534   */\n    tag_47:\n        /* \"#utility.yul\":473:479   */\n      0x00\n        /* \"#utility.yul\":524:526   */\n      0x1f\n        /* \"#utility.yul\":520:527   */\n      not\n        /* \"#utility.yul\":515:517   */\n      0x1f\n        /* \"#utility.yul\":508:513   */\n      dup4\n        /* \"#utility.yul\":504:518   */\n      add\n        /* \"#utility.yul\":500:528   */\n      and\n        /* \"#utility.yul\":490:528   */\n      swap1\n      pop\n        /* \"#utility.yul\":432:534   */\n      swap2\n      swap1\n      pop\n      jump\t// out\n        /* \"#utility.yul\":540:917   */\n    tag_48:\n        /* \"#utility.yul\":628:631   */\n      0x00\n        /* \"#utility.yul\":656:695   */\n      tag_93\n        /* \"#utility.yul\":689:694   */\n      dup3\n        /* \"#utility.yul\":656:695   */\n      tag_44\n      jump\t// in\n    tag_93:\n        /* \"#utility.yul\":711:782   */\n      tag_94\n        /* \"#utility.yul\":775:781   */\n      dup2\n        /* \"#utility.yul\":770:773   */\n      dup6\n        /* \"#utility.yul\":711:782   */\n      tag_45\n      jump\t// in\n    tag_94:\n        /* \"#utility.yul\":704:782   */\n      swap4\n      pop\n        /* \"#utility.yul\":791:856   */\n      tag_95\n        /* \"#utility.yul\":849:855   */\n      dup2\n        /* \"#utility.yul\":844:847   */\n      dup6\n        /* \"#utility.yul\":837:841   */\n      0x20\n        /* \"#utility.yul\":830:835   */\n      dup7\n        /* \"#utility.yul\":826:842   */\n      add\n        /* \"#utility.yul\":791:856   */\n      tag_46\n      jump\t// in\n    tag_95:\n        /* \"#utility.yul\":881:910   */\n      tag_96\n        /* \"#utility.yul\":903:909   */\n      dup2\n        /* \"#utility.yul\":881:910   */\n      tag_47\n      jump\t// in\n    tag_96:\n        /* \"#utility.yul\":876:879   */\n      dup5\n        /* \"#utility.yul\":872:911   */\n      add\n        /* \"#utility.yul\":865:911   */\n      swap2\n      pop\n        /* \"#utility.yul\":632:917   */\n      pop\n        /* \"#utility.yul\":540:917   */\n      swap3\n      swap2\n      pop\n      pop\n      jump\t// out\n        /* \"#utility.yul\":923:1236   */\n    tag_10:\n        /* \"#utility.yul\":1036:1040   */\n      0x00\n        /* \"#utility.yul\":1074:1076   */\n      0x20\n        /* \"#utility.yul\":1063:1072   */\n      dup3\n        /* \"#utility.yul\":1059:1077   */\n      add\n        /* \"#utility.yul\":1051:1077   */\n      swap1\n      pop\n        /* \"#utility.yul\":1123:1132   */\n      dup2\n        /* \"#utility.yul\":1117:1121   */\n      dup2\n        /* \"#utility.yul\":1113:1133   */\n      sub\n        /* \"#utility.yul\":1109:1110   */\n      0x00\n        /* \"#utility.yul\":1098:1107   */\n      dup4\n        /* \"#utility.yul\":1094:1111   */\n      add\n        /* \"#utility.yul\":1087:1134   */\n      mstore\n        /* \"#utility.yul\":1151:1229   */\n      tag_98\n        /* \"#utility.yul\":1224:1228   */\n      dup2\n        /* \"#utility.yul\":1215:1221   */\n      dup5\n        /* \"#utility.yul\":1151:1229   */\n      tag_48\n      jump\t// in\n    tag_98:\n        /* \"#utility.yul\":1143:1229   */\n      swap1\n      pop\n        /* \"#utility.yul\":923:1236   */\n      swap3\n      swap2\n      pop\n      pop\n      jump\t// out\n        /* \"#utility.yul\":1242:1317   */\n    tag_49:\n        /* \"#utility.yul\":1275:1281   */\n      0x00\n        /* \"#utility.yul\":1308:1310   */\n      0x40\n        /* \"#utility.yul\":1302:1311   */\n      mload\n        /* \"#utility.yul\":1292:1311   */\n      swap1\n      pop\n        /* \"#utility.yul\":1242:1317   */\n      swap1\n      jump\t// out\n        /* \"#utility.yul\":1323:1440   */\n    tag_50:\n        /* \"#utility.yul\":1432:1433   */\n      0x00\n        /* \"#utility.yul\":1429:1430   */\n      dup1\n        /* \"#utility.yul\":1422:1434   */\n      revert\n        /* \"#utility.yul\":1446:1563   */\n    tag_51:\n        /* \"#utility.yul\":1555:1556   */\n      0x00\n        /* \"#utility.yul\":1552:1553   */\n      dup1\n        /* \"#utility.yul\":1545:1557   */\n      revert\n        /* \"#utility.yul\":1569:1686   */\n    tag_52:\n        /* \"#utility.yul\":1678:1679   */\n      0x00\n        /* \"#utility.yul\":1675:1676   */\n      dup1\n        /* \"#utility.yul\":1668:1680   */\n      revert\n        /* \"#utility.yul\":1692:1809   */\n    tag_53:\n        /* \"#utility.yul\":1801:1802   */\n      0x00\n        /* \"#utility.yul\":1798:1799   */\n      dup1\n        /* \"#utility.yul\":1791:1803   */\n      revert\n        /* \"#utility.yul\":1815:1995   */\n    tag_54:\n        /* \"#utility.yul\":1863:1940   */\n      0x4e487b7100000000000000000000000000000000000000000000000000000000\n        /* \"#utility.yul\":1860:1861   */\n      0x00\n        /* \"#utility.yul\":1853:1941   */\n      mstore\n        /* \"#utility.yul\":1960:1964   */\n      0x41\n        /* \"#utility.yul\":1957:1958   */\n      0x04\n        /* \"#utility.yul\":1950:1965   */\n      mstore\n        /* \"#utility.yul\":1984:1988   */\n      0x24\n        /* \"#utility.yul\":1981:1982   */\n      0x00\n        /* \"#utility.yul\":1974:1989   */\n      revert\n        /* \"#utility.yul\":2001:2282   */\n    tag_55:\n        /* \"#utility.yul\":2084:2111   */\n      tag_106\n        /* \"#utility.yul\":2106:2110   */\n      dup3\n        /* \"#utility.yul\":2084:2111   */\n      tag_47\n      jump\t// in\n    tag_106:\n        /* \"#utility.yul\":2076:2082   */\n      dup2\n        /* \"#utility.yul\":2072:2112   */\n      add\n        /* \"#utility.yul\":2214:2220   */\n      dup2\n        /* \"#utility.yul\":2202:2212   */\n      dup2\n        /* \"#utility.yul\":2199:2221   */\n      lt\n        /* \"#utility.yul\":2178:2196   */\n      0xffffffffffffffff\n        /* \"#utility.yul\":2166:2176   */\n      dup3\n        /* \"#utility.yul\":2163:2197   */\n      gt\n        /* \"#utility.yul\":2160:2222   */\n      or\n        /* \"#utility.yul\":2157:2245   */\n      iszero\n      tag_107\n      jumpi\n        /* \"#utility.yul\":2225:2243   */\n      tag_108\n      tag_54\n      jump\t// in\n    tag_108:\n        /* \"#utility.yul\":2157:2245   */\n    tag_107:\n        /* \"#utility.yul\":2265:2275   */\n      dup1\n        /* \"#utility.yul\":2261:2263   */\n      0x40\n        /* \"#utility.yul\":2254:2276   */\n      mstore\n        /* \"#utility.yul\":2044:2282   */\n      pop\n        /* \"#utility.yul\":2001:2282   */\n      pop\n      pop\n      jump\t// out\n        /* \"#utility.yul\":2288:2417   */\n    tag_56:\n        /* \"#utility.yul\":2322:2328   */\n      0x00\n        /* \"#utility.yul\":2349:2369   */\n      tag_110\n      tag_49\n      jump\t// in\n    tag_110:\n        /* \"#utility.yul\":2339:2369   */\n      swap1\n      pop\n        /* \"#utility.yul\":2378:2411   */\n      tag_111\n        /* \"#utility.yul\":2406:2410   */\n      dup3\n        /* \"#utility.yul\":2398:2404   */\n      dup3\n        /* \"#utility.yul\":2378:2411   */\n      tag_55\n      jump\t// in\n    tag_111:\n        /* \"#utility.yul\":2288:2417   */\n      swap2\n      swap1\n      pop\n      jump\t// out\n        /* \"#utility.yul\":2423:2731   */\n    tag_57:\n        /* \"#utility.yul\":2485:2489   */\n      0x00\n        /* \"#utility.yul\":2575:2593   */\n      0xffffffffffffffff\n        /* \"#utility.yul\":2567:2573   */\n      dup3\n        /* \"#utility.yul\":2564:2594   */\n      gt\n        /* \"#utility.yul\":2561:2617   */\n      iszero\n      tag_113\n      jumpi\n        /* \"#utility.yul\":2597:2615   */\n      tag_114\n      tag_54\n      jump\t// in\n    tag_114:\n        /* \"#utility.yul\":2561:2617   */\n    tag_113:\n        /* \"#utility.yul\":2635:2664   */\n      tag_115\n        /* \"#utility.yul\":2657:2663   */\n      dup3\n        /* \"#utility.yul\":2635:2664   */\n      tag_47\n      jump\t// in\n    tag_115:\n        /* \"#utility.yul\":2627:2664   */\n      swap1\n      pop\n        /* \"#utility.yul\":2719:2723   */\n      0x20\n        /* \"#utility.yul\":2713:2717   */\n      dup2\n        /* \"#utility.yul\":2709:2724   */\n      add\n        /* \"#utility.yul\":2701:2724   */\n      swap1\n      pop\n        /* \"#utility.yul\":2423:2731   */\n      swap2\n      swap1\n      pop\n      jump\t// out\n        /* \"#utility.yul\":2737:2885   */\n    tag_58:\n        /* \"#utility.yul\":2835:2841   */\n      dup3\n        /* \"#utility.yul\":2830:2833   */\n      dup2\n        /* \"#utility.yul\":2825:2828   */\n      dup4\n        /* \"#utility.yul\":2812:2842   */\n      calldatacopy\n        /* \"#utility.yul\":2876:2877   */\n      0x00\n        /* \"#utility.yul\":2867:2873   */\n      dup4\n        /* \"#utility.yul\":2862:2865   */\n      dup4\n        /* \"#utility.yul\":2858:2874   */\n      add\n        /* \"#utility.yul\":2851:2878   */\n      mstore\n        /* \"#utility.yul\":2737:2885   */\n      pop\n      pop\n      pop\n      jump\t// out\n        /* \"#utility.yul\":2891:3316   */\n    tag_59:\n        /* \"#utility.yul\":2969:2974   */\n      0x00\n        /* \"#utility.yul\":2994:3060   */\n      tag_118\n        /* \"#utility.yul\":3010:3059   */\n      tag_119\n        /* \"#utility.yul\":3052:3058   */\n      dup5\n        /* \"#utility.yul\":3010:3059   */\n      tag_57\n      jump\t// in\n    tag_119:\n        /* \"#utility.yul\":2994:3060   */\n      tag_56\n      jump\t// in\n    tag_118:\n        /* \"#utility.yul\":2985:3060   */\n      swap1\n      pop\n        /* \"#utility.yul\":3083:3089   */\n      dup3\n        /* \"#utility.yul\":3076:3081   */\n      dup2\n        /* \"#utility.yul\":3069:3090   */\n      mstore\n        /* \"#utility.yul\":3121:3125   */\n      0x20\n        /* \"#utility.yul\":3114:3119   */\n      dup2\n        /* \"#utility.yul\":3110:3126   */\n      add\n        /* \"#utility.yul\":3159:3162   */\n      dup5\n        /* \"#utility.yul\":3150:3156   */\n      dup5\n        /* \"#utility.yul\":3145:3148   */\n      dup5\n        /* \"#utility.yul\":3141:3157   */\n      add\n        /* \"#utility.yul\":3138:3163   */\n      gt\n        /* \"#utility.yul\":3135:3247   */\n      iszero\n      tag_120\n      jumpi\n        /* \"#utility.yul\":3166:3245   */\n      tag_121\n      tag_53\n      jump\t// in\n    tag_121:\n        /* \"#utility.yul\":3135:3247   */\n    tag_120:\n        /* \"#utility.yul\":3256:3310   */\n      tag_122\n        /* \"#utility.yul\":3303:3309   */\n      dup5\n        /* \"#utility.yul\":3298:3301   */\n      dup3\n        /* \"#utility.yul\":3293:3296   */\n      dup6\n        /* \"#utility.yul\":3256:3310   */\n      tag_58\n      jump\t// in\n    tag_122:\n        /* \"#utility.yul\":2975:3316   */\n      pop\n        /* \"#utility.yul\":2891:3316   */\n      swap4\n      swap3\n      pop\n      pop\n      pop\n      jump\t// out\n        /* \"#utility.yul\":3336:3676   */\n    tag_60:\n        /* \"#utility.yul\":3392:3397   */\n      0x00\n        /* \"#utility.yul\":3441:3444   */\n      dup3\n        /* \"#utility.yul\":3434:3438   */\n      0x1f\n        /* \"#utility.yul\":3426:3432   */\n      dup4\n        /* \"#utility.yul\":3422:3439   */\n      add\n        /* \"#utility.yul\":3418:3445   */\n      slt\n        /* \"#utility.yul\":3408:3530   */\n      tag_124\n      jumpi\n        /* \"#utility.yul\":3449:3528   */\n      tag_125\n      tag_52\n      jump\t// in\n    tag_125:\n        /* \"#utility.yul\":3408:3530   */\n    tag_124:\n        /* \"#utility.yul\":3566:3572   */\n      dup2\n        /* \"#utility.yul\":3553:3573   */\n      calldataload\n        /* \"#utility.yul\":3591:3670   */\n      tag_126\n        /* \"#utility.yul\":3666:3669   */\n      dup5\n        /* \"#utility.yul\":3658:3664   */\n      dup3\n        /* \"#utility.yul\":3651:3655   */\n      0x20\n        /* \"#utility.yul\":3643:3649   */\n      dup7\n        /* \"#utility.yul\":3639:3656   */\n      add\n        /* \"#utility.yul\":3591:3670   */\n      tag_59\n      jump\t// in\n    tag_126:\n        /* \"#utility.yul\":3582:3670   */\n      swap2\n      pop\n        /* \"#utility.yul\":3398:3676   */\n      pop\n        /* \"#utility.yul\":3336:3676   */\n      swap3\n      swap2\n      pop\n      pop\n      jump\t// out\n        /* \"#utility.yul\":3682:4191   */\n    tag_13:\n        /* \"#utility.yul\":3751:3757   */\n      0x00\n        /* \"#utility.yul\":3800:3802   */\n      0x20\n        /* \"#utility.yul\":3788:3797   */\n      dup3\n        /* \"#utility.yul\":3779:3786   */\n      dup5\n        /* \"#utility.yul\":3775:3798   */\n      sub\n        /* \"#utility.yul\":3771:3803   */\n      slt\n        /* \"#utility.yul\":3768:3887   */\n      iszero\n      tag_128\n      jumpi\n        /* \"#utility.yul\":3806:3885   */\n      tag_129\n      tag_50\n      jump\t// in\n    tag_129:\n        /* \"#utility.yul\":3768:3887   */\n    tag_128:\n        /* \"#utility.yul\":3954:3955   */\n      0x00\n        /* \"#utility.yul\":3943:3952   */\n      dup3\n        /* \"#utility.yul\":3939:3956   */\n      add\n        /* \"#utility.yul\":3926:3957   */\n      calldataload\n        /* \"#utility.yul\":3984:4002   */\n      0xffffffffffffffff\n        /* \"#utility.yul\":3976:3982   */\n      dup2\n        /* \"#utility.yul\":3973:4003   */\n      gt\n        /* \"#utility.yul\":3970:4087   */\n      iszero\n      tag_130\n      jumpi\n        /* \"#utility.yul\":4006:4085   */\n      tag_131\n      tag_51\n      jump\t// in\n    tag_131:\n        /* \"#utility.yul\":3970:4087   */\n    tag_130:\n        /* \"#utility.yul\":4111:4174   */\n      tag_132\n        /* \"#utility.yul\":4166:4173   */\n      dup5\n        /* \"#utility.yul\":4157:4163   */\n      dup3\n        /* \"#utility.yul\":4146:4155   */\n      dup6\n        /* \"#utility.yul\":4142:4164   */\n      add\n        /* \"#utility.yul\":4111:4174   */\n      tag_60\n      jump\t// in\n    tag_132:\n        /* \"#utility.yul\":4101:4174   */\n      swap2\n      pop\n        /* \"#utility.yul\":3897:4184   */\n      pop\n        /* \"#utility.yul\":3682:4191   */\n      swap3\n      swap2\n      pop\n      pop\n      jump\t// out\n        /* \"#utility.yul\":4197:4314   */\n    tag_61:\n        /* \"#utility.yul\":4306:4307   */\n      0x00\n        /* \"#utility.yul\":4303:4304   */\n      dup1\n        /* \"#utility.yul\":4296:4308   */\n      revert\n        /* \"#utility.yul\":4320:4437   */\n    tag_62:\n        /* \"#utility.yul\":4429:4430   */\n      0x00\n        /* \"#utility.yul\":4426:4427   */\n      dup1\n        /* \"#utility.yul\":4419:4431   */\n      revert\n        /* \"#utility.yul\":4460:5028   */\n    tag_63:\n        /* \"#utility.yul\":4533:4541   */\n      0x00\n        /* \"#utility.yul\":4543:4549   */\n      dup1\n        /* \"#utility.yul\":4593:4596   */\n      dup4\n        /* \"#utility.yul\":4586:4590   */\n      0x1f\n        /* \"#utility.yul\":4578:4584   */\n      dup5\n        /* \"#utility.yul\":4574:4591   */\n      add\n        /* \"#utility.yul\":4570:4597   */\n      slt\n        /* \"#utility.yul\":4560:4682   */\n      tag_136\n      jumpi\n        /* \"#utility.yul\":4601:4680   */\n      tag_137\n      tag_52\n      jump\t// in\n    tag_137:\n        /* \"#utility.yul\":4560:4682   */\n    tag_136:\n        /* \"#utility.yul\":4714:4720   */\n      dup3\n        /* \"#utility.yul\":4701:4721   */\n      calldataload\n        /* \"#utility.yul\":4691:4721   */\n      swap1\n      pop\n        /* \"#utility.yul\":4744:4762   */\n      0xffffffffffffffff\n        /* \"#utility.yul\":4736:4742   */\n      dup2\n        /* \"#utility.yul\":4733:4763   */\n      gt\n        /* \"#utility.yul\":4730:4847   */\n      iszero\n      tag_138\n      jumpi\n        /* \"#utility.yul\":4766:4845   */\n      tag_139\n      tag_61\n      jump\t// in\n    tag_139:\n        /* \"#utility.yul\":4730:4847   */\n    tag_138:\n        /* \"#utility.yul\":4880:4884   */\n      0x20\n        /* \"#utility.yul\":4872:4878   */\n      dup4\n        /* \"#utility.yul\":4868:4885   */\n      add\n        /* \"#utility.yul\":4856:4885   */\n      swap2\n      pop\n        /* \"#utility.yul\":4934:4937   */\n      dup4\n        /* \"#utility.yul\":4926:4930   */\n      0x20\n        /* \"#utility.yul\":4918:4924   */\n      dup3\n        /* \"#utility.yul\":4914:4931   */\n      mul\n        /* \"#utility.yul\":4904:4912   */\n      dup4\n        /* \"#utility.yul\":4900:4932   */\n      add\n        /* \"#utility.yul\":4897:4938   */\n      gt\n        /* \"#utility.yul\":4894:5022   */\n      iszero\n      tag_140\n      jumpi\n        /* \"#utility.yul\":4941:5020   */\n      tag_141\n      tag_62\n      jump\t// in\n    tag_141:\n        /* \"#utility.yul\":4894:5022   */\n    tag_140:\n        /* \"#utility.yul\":4460:5028   */\n      swap3\n      pop\n      swap3\n      swap1\n      pop\n      jump\t// out\n        /* \"#utility.yul\":5034:5593   */\n    tag_20:\n        /* \"#utility.yul\":5120:5126   */\n      0x00\n        /* \"#utility.yul\":5128:5134   */\n      dup1\n        /* \"#utility.yul\":5177:5179   */\n      0x20\n        /* \"#utility.yul\":5165:5174   */\n      dup4\n        /* \"#utility.yul\":5156:5163   */\n      dup6\n        /* \"#utility.yul\":5152:5175   */\n      sub\n        /* \"#utility.yul\":5148:5180   */\n      slt\n        /* \"#utility.yul\":5145:5264   */\n      iszero\n      tag_143\n      jumpi\n        /* \"#utility.yul\":5183:5262   */\n      tag_144\n      tag_50\n      jump\t// in\n    tag_144:\n        /* \"#utility.yul\":5145:5264   */\n    tag_143:\n        /* \"#utility.yul\":5331:5332   */\n      0x00\n        /* \"#utility.yul\":5320:5329   */\n      dup4\n        /* \"#utility.yul\":5316:5333   */\n      add\n        /* \"#utility.yul\":5303:5334   */\n      calldataload\n        /* \"#utility.yul\":5361:5379   */\n      0xffffffffffffffff\n        /* \"#utility.yul\":5353:5359   */\n      dup2\n        /* \"#utility.yul\":5350:5380   */\n      gt\n        /* \"#utility.yul\":5347:5464   */\n      iszero\n      tag_145\n      jumpi\n        /* \"#utility.yul\":5383:5462   */\n      tag_146\n      tag_51\n      jump\t// in\n    tag_146:\n        /* \"#utility.yul\":5347:5464   */\n    tag_145:\n        /* \"#utility.yul\":5496:5576   */\n      tag_147\n        /* \"#utility.yul\":5568:5575   */\n      dup6\n        /* \"#utility.yul\":5559:5565   */\n      dup3\n        /* \"#utility.yul\":5548:5557   */\n      dup7\n        /* \"#utility.yul\":5544:5566   */\n      add\n        /* \"#utility.yul\":5496:5576   */\n      tag_63\n      jump\t// in\n    tag_147:\n        /* \"#utility.yul\":5478:5576   */\n      swap3\n      pop\n      swap3\n      pop\n        /* \"#utility.yul\":5274:5586   */\n      pop\n        /* \"#utility.yul\":5034:5593   */\n      swap3\n      pop\n      swap3\n      swap1\n      pop\n      jump\t// out\n        /* \"#utility.yul\":5599:5783   */\n    tag_64:\n        /* \"#utility.yul\":5698:5709   */\n      0x00\n        /* \"#utility.yul\":5732:5738   */\n      dup3\n        /* \"#utility.yul\":5727:5730   */\n      dup3\n        /* \"#utility.yul\":5720:5739   */\n      mstore\n        /* \"#utility.yul\":5772:5776   */\n      0x20\n        /* \"#utility.yul\":5767:5770   */\n      dup3\n        /* \"#utility.yul\":5763:5777   */\n      add\n        /* \"#utility.yul\":5748:5777   */\n      swap1\n      pop\n        /* \"#utility.yul\":5599:5783   */\n      swap3\n      swap2\n      pop\n      pop\n      jump\t// out\n        /* \"#utility.yul\":5789:5906   */\n    tag_65:\n        /* \"#utility.yul\":5898:5899   */\n      0x00\n        /* \"#utility.yul\":5895:5896   */\n      dup1\n        /* \"#utility.yul\":5888:5900   */\n      revert\n        /* \"#utility.yul\":5912:6011   */\n    tag_66:\n        /* \"#utility.yul\":5997:6003   */\n      dup3\n        /* \"#utility.yul\":5992:5995   */\n      dup2\n        /* \"#utility.yul\":5987:5990   */\n      dup4\n        /* \"#utility.yul\":5974:6004   */\n      calldatacopy\n        /* \"#utility.yul\":5912:6011   */\n      pop\n      pop\n      pop\n      jump\t// out\n        /* \"#utility.yul\":6047:6584   */\n    tag_67:\n        /* \"#utility.yul\":6175:6178   */\n      0x00\n        /* \"#utility.yul\":6196:6282   */\n      tag_152\n        /* \"#utility.yul\":6275:6281   */\n      dup4\n        /* \"#utility.yul\":6270:6273   */\n      dup6\n        /* \"#utility.yul\":6196:6282   */\n      tag_64\n      jump\t// in\n    tag_152:\n        /* \"#utility.yul\":6189:6282   */\n      swap4\n      pop\n        /* \"#utility.yul\":6306:6372   */\n      0x07ffffffffffffffffffffffffffffffffffffffffffffffffffffffffffffff\n        /* \"#utility.yul\":6298:6304   */\n      dup4\n        /* \"#utility.yul\":6295:6373   */\n      gt\n        /* \"#utility.yul\":6292:6457   */\n      iszero\n      tag_153\n      jumpi\n        /* \"#utility.yul\":6376:6455   */\n      tag_154\n      tag_65\n      jump\t// in\n    tag_154:\n        /* \"#utility.yul\":6292:6457   */\n    tag_153:\n        /* \"#utility.yul\":6488:6492   */\n      0x20\n        /* \"#utility.yul\":6480:6486   */\n      dup4\n        /* \"#utility.yul\":6476:6493   */\n      mul\n        /* \"#utility.yul\":6466:6493   */\n      swap3\n      pop\n        /* \"#utility.yul\":6503:6546   */\n      tag_155\n        /* \"#utility.yul\":6539:6545   */\n      dup4\n        /* \"#utility.yul\":6534:6537   */\n      dup6\n        /* \"#utility.yul\":6527:6532   */\n      dup5\n        /* \"#utility.yul\":6503:6546   */\n      tag_66\n      jump\t// in\n    tag_155:\n        /* \"#utility.yul\":6571:6577   */\n      dup3\n        /* \"#utility.yul\":6566:6569   */\n      dup5\n        /* \"#utility.yul\":6562:6578   */\n      add\n        /* \"#utility.yul\":6555:6578   */\n      swap1\n      pop\n        /* \"#utility.yul\":6047:6584   */\n      swap4\n      swap3\n      pop\n      pop\n      pop\n      jump\t// out\n        /* \"#utility.yul\":6590:6983   */\n    tag_23:\n        /* \"#utility.yul\":6743:6747   */\n      0x00\n        /* \"#utility.yul\":6781:6783   */\n      0x20\n        /* \"#utility.yul\":6770:6779   */\n      dup3\n        /* \"#utility.yul\":6766:6784   */\n      add\n        /* \"#utility.yul\":6758:6784   */\n      swap1\n      pop\n        /* \"#utility.yul\":6830:6839   */\n      dup2\n        /* \"#utility.yul\":6824:6828   */\n      dup2\n        /* \"#utility.yul\":6820:6840   */\n      sub\n        /* \"#utility.yul\":6816:6817   */\n      0x00\n        /* \"#utility.yul\":6805:6814   */\n      dup4\n        /* \"#utility.yul\":6801:6818   */\n      add\n        /* \"#utility.yul\":6794:6841   */\n      mstore\n        /* \"#utility.yul\":6858:6976   */\n      tag_157\n        /* \"#utility.yul\":6971:6975   */\n      dup2\n        /* \"#utility.yul\":6962:6968   */\n      dup5\n        /* \"#utility.yul\":6954:6960   */\n      dup7\n        /* \"#utility.yul\":6858:6976   */\n      tag_67\n      jump\t// in\n    tag_157:\n        /* \"#utility.yul\":6850:6976   */\n      swap1\n      pop\n        /* \"#utility.yul\":6590:6983   */\n      swap4\n      swap3\n      pop\n      pop\n      pop\n      jump\t// out\n        /* \"#utility.yul\":6989:7169   */\n    tag_68:\n        /* \"#utility.yul\":7037:7114   */\n      0x4e487b7100000000000000000000000000000000000000000000000000000000\n        /* \"#utility.yul\":7034:7035   */\n      0x00\n        /* \"#utility.yul\":7027:7115   */\n      mstore\n        /* \"#utility.yul\":7134:7138   */\n      0x22\n        /* \"#utility.yul\":7131:7132   */\n      0x04\n        /* \"#utility.yul\":7124:7139   */\n      mstore\n        /* \"#utility.yul\":7158:7162   */\n      0x24\n        /* \"#utility.yul\":7155:7156   */\n      0x00\n        /* \"#utility.yul\":7148:7163   */\n      revert\n        /* \"#utility.yul\":7175:7495   */\n    tag_25:\n        /* \"#utility.yul\":7219:7225   */\n      0x00\n        /* \"#utility.yul\":7256:7257   */\n      0x02\n        /* \"#utility.yul\":7250:7254   */\n      dup3\n        /* \"#utility.yul\":7246:7258   */\n      div\n        /* \"#utility.yul\":7236:7258   */\n      swap1\n      pop\n        /* \"#utility.yul\":7303:7304   */\n      0x01\n        /* \"#utility.yul\":7297:7301   */\n      dup3\n        /* \"#utility.yul\":7293:7305   */\n      and\n        /* \"#utility.yul\":7324:7342   */\n      dup1\n        /* \"#utility.yul\":7314:7395   */\n      tag_160\n      jumpi\n        /* \"#utility.yul\":7380:7384   */\n      0x7f\n        /* \"#utility.yul\":7372:7378   */\n      dup3\n        /* \"#utility.yul\":7368:7385   */\n      and\n        /* \"#utility.yul\":7358:7385   */\n      swap2\n      pop\n        /* \"#utility.yul\":7314:7395   */\n    tag_160:\n        /* \"#utility.yul\":7442:7444   */\n      0x20\n        /* \"#utility.yul\":7434:7440   */\n      dup3\n        /* \"#utility.yul\":7431:7445   */\n      lt\n        /* \"#utility.yul\":7411:7429   */\n      dup2\n        /* \"#utility.yul\":7408:7446   */\n      sub\n        /* \"#utility.yul\":7405:7489   */\n      tag_161\n      jumpi\n        /* \"#utility.yul\":7461:7479   */\n      tag_162\n      tag_68\n      jump\t// in\n    tag_162:\n        /* \"#utility.yul\":7405:7489   */\n    tag_161:\n        /* \"#utility.yul\":7226:7495   */\n      pop\n        /* \"#utility.yul\":7175:7495   */\n      swap2\n      swap1\n      pop\n      jump\t// out\n        /* \"#utility.yul\":7501:7642   */\n    tag_69:\n        /* \"#utility.yul\":7550:7554   */\n      0x00\n        /* \"#utility.yul\":7573:7576   */\n      dup2\n        /* \"#utility.yul\":7565:7576   */\n      swap1\n      pop\n        /* \"#utility.yul\":7596:7599   */\n      dup2\n        /* \"#utility.yul\":7593:7594   */\n      0x00\n        /* \"#utility.yul\":7586:7600   */\n      mstore\n        /* \"#utility.yul\":7630:7634   */\n      0x20\n        /* \"#utility.yul\":7627:7628   */\n      0x00\n        /* \"#utility.yul\":7617:7635   */\n      keccak256\n        /* \"#utility.yul\":7609:7635   */\n      swap1\n      pop\n        /* \"#utility.yul\":7501:7642   */\n      swap2\n      swap1\n      pop\n      jump\t// out\n        /* \"#utility.yul\":7648:7741   */\n    tag_70:\n        /* \"#utility.yul\":7685:7691   */\n      0x00\n        /* \"#utility.yul\":7732:7734   */\n      0x20\n        /* \"#utility.yul\":7727:7729   */\n      0x1f\n        /* \"#utility.yul\":7720:7725   */\n      dup4\n        /* \"#utility.yul\":7716:7730   */\n      add\n        /* \"#utility.yul\":7712:7735   */\n      div\n        /* \"#utility.yul\":7702:7735   */\n      swap1\n      pop\n        /* \"#utility.yul\":7648:7741   */\n      swap2\n      swap1\n      pop\n      jump\t// out\n        /* \"#utility.yul\":7747:7854   */\n    tag_71:\n        /* \"#utility.yul\":7791:7799   */\n      0x00\n        /* \"#utility.yul\":7841:7846   */\n      dup3\n        /* \"#utility.yul\":7835:7839   */\n      dup3\n        /* \"#utility.yul\":7831:7847   */\n      shl\n        /* \"#utility.yul\":7810:7847   */\n      swap1\n      pop\n        /* \"#utility.yul\":7747:7854   */\n      swap3\n      swap2\n      pop\n      pop\n      jump\t// out\n        /* \"#utility.yul\":7860:8253   */\n    tag_72:\n        /* \"#utility.yul\":7929:7935   */\n      0x00\n        /* \"#utility.yul\":7979:7980   */\n      0x08\n        /* \"#utility.yul\":7967:7977   */\n      dup4\n        /* \"#utility.yul\":7963:7981   */\n      mul\n        /* \"#utility.yul\":8002:8099   */\n      tag_167\n        /* \"#utility.yul\":8032:8098   */\n      0xffffffffffffffffffffffffffffffffffffffffffffffffffffffffffffffff\n        /* \"#utility.yul\":8021:8030   */\n      dup3\n        /* \"#utility.yul\":8002:8099   */\n      tag_71\n      jump\t// in\n    tag_167:\n        /* \"#utility.yul\":8120:8159   */\n      tag_168\n        /* \"#utility.yul\":8150:8158   */\n      dup7\n        /* \"#utility.yul\":8139:8148   */\n      dup4\n        /* \"#utility.yul\":8120:8159   */\n      tag_71\n      jump\t// in\n    tag_168:\n        /* \"#utility.yul\":8108:8159   */\n      swap6\n      pop\n        /* \"#utility.yul\":8192:8196   */\n      dup1\n        /* \"#utility.yul\":8188:8197   */\n      not\n        /* \"#utility.yul\":8181:8186   */\n      dup5\n        /* \"#utility.yul\":8177:8198   */\n      and\n        /* \"#utility.yul\":8168:8198   */\n      swap4\n      pop\n        /* \"#utility.yul\":8241:8245   */\n      dup1\n        /* \"#utility.yul\":8231:8239   */\n      dup7\n        /* \"#utility.yul\":8227:8246   */\n      and\n        /* \"#utility.yul\":8220:8225   */\n      dup5\n        /* \"#utility.yul\":8217:8247   */\n      or\n        /* \"#utility.yul\":8207:8247   */\n      swap3\n      pop\n        /* \"#utility.yul\":7936:8253   */\n      pop\n      pop\n        /* \"#utility.yul\":7860:8253   */\n      swap4\n      swap3\n      pop\n      pop\n      pop\n      jump\t// out\n        /* \"#utility.yul\":8259:8336   */\n    tag_73:\n        /* \"#utility.yul\":8296:8303   */\n      0x00\n        /* \"#utility.yul\":8325:8330   */\n      dup2\n        /* \"#utility.yul\":8314:8330   */\n      swap1\n      pop\n        /* \"#utility.yul\":8259:8336   */\n      swap2\n      swap1\n      pop\n      jump\t// out\n        /* \"#utility.yul\":8342:8402   */\n    tag_74:\n        /* \"#utility.yul\":8370:8373   */\n      0x00\n        /* \"#utility.yul\":8391:8396   */\n      dup2\n        /* \"#utility.yul\":8384:8396   */\n      swap1\n      pop\n        /* \"#utility.yul\":8342:8402   */\n      swap2\n      swap1\n      pop\n      jump\t// out\n        /* \"#utility.yul\":8408:8550   */\n    tag_75:\n        /* \"#utility.yul\":8458:8467   */\n      0x00\n        /* \"#utility.yul\":8491:8544   */\n      tag_172\n        /* \"#utility.yul\":8509:8543   */\n      tag_173\n        /* \"#utility.yul\":8518:8542   */\n      tag_174\n        /* \"#utility.yul\":8536:8541   */\n      dup5\n        /* \"#utility.yul\":8518:8542   */\n      tag_73\n      jump\t// in\n    tag_174:\n        /* \"#utility.yul\":8509:8543   */\n      tag_74\n      jump\t// in\n    tag_173:\n        /* \"#utility.yul\":8491:8544   */\n      tag_73\n      jump\t// in\n    tag_172:\n        /* \"#utility.yul\":8478:8544   */\n      swap1\n      pop\n        /* \"#utility.yul\":8408:8550   */\n      swap2\n      swap1\n      pop\n      jump\t// out\n        /* \"#utility.yul\":8556:8631   */\n    tag_76:\n        /* \"#utility.yul\":8599:8602   */\n      0x00\n        /* \"#utility.yul\":8620:8625   */\n      dup2\n        /* \"#utility.yul\":8613:8625   */\n      swap1\n      pop\n        /* \"#utility.yul\":8556:8631   */\n      swap2\n      swap1\n      pop\n      jump\t// out\n        /* \"#utility.yul\":8637:8906   */\n    tag_77:\n        /* \"#utility.yul\":8747:8786   */\n      tag_177\n        /* \"#utility.yul\":8778:8785   */\n      dup4\n        /* \"#utility.yul\":8747:8786   */\n      tag_75\n      jump\t// in\n    tag_177:\n        /* \"#utility.yul\":8808:8899   */\n      tag_178\n        /* \"#utility.yul\":8857:8898   */\n      tag_179\n        /* \"#utility.yul\":8881:8897   */\n      dup3\n        /* \"#utility.yul\":8857:8898   */\n      tag_76\n      jump\t// in\n    tag_179:\n        /* \"#utility.yul\":8849:8855   */\n      dup5\n        /* \"#utility.yul\":8842:8846   */\n      dup5\n        /* \"#utility.yul\":8836:8847   */\n      sload\n        /* \"#utility.yul\":8808:8899   */\n      tag_72\n      jump\t// in\n    tag_178:\n        /* \"#utility.yul\":8802:8806   */\n      dup3\n        /* \"#utility.yul\":8795:8900   */\n      sstore\n        /* \"#utility.yul\":8713:8906   */\n      pop\n        /* \"#utility.yul\":8637:8906   */\n      pop\n      pop\n      pop\n      jump\t// out\n        /* \"#utility.yul\":8912:8985   */\n    tag_78:\n        /* \"#utility.yul\":8957:8960   */\n      0x00\n        /* \"#utility.yul\":8912:8985   */\n      swap1\n      jump\t// out\n        /* \"#utility.yul\":8991:9180   */\n    tag_79:\n        /* \"#utility.yul\":9068:9100   */\n      tag_182\n      tag_78\n      jump\t// in\n    tag_182:\n        /* \"#utility.yul\":9109:9174   */\n      tag_183\n        /* \"#utility.yul\":9167:9173   */\n      dup2\n        /* \"#utility.yul\":9159:9165   */\n      dup5\n        /* \"#utility.yul\":9153:9157   */\n      dup5\n        /* \"#utility.yul\":9109:9174   */\n      tag_77\n      jump\t// in\n    tag_183:\n        /* \"#utility.yul\":9044:9180   */\n      pop\n        /* \"#utility.yul\":8991:9180   */\n      pop\n      pop\n      jump\t// out\n        /* \"#utility.yul\":9186:9372   */\n    tag_80:\n        /* \"#utility.yul\":9246:9366   */\n    tag_185:\n        /* \"#utility.yul\":9263:9266   */\n      dup2\n        /* \"#utility.yul\":9256:9261   */\n      dup2\n        /* \"#utility.yul\":9253:9267   */\n      lt\n        /* \"#utility.yul\":9246:9366   */\n      iszero\n      tag_187\n      jumpi\n        /* \"#utility.yul\":9317:9356   */\n      tag_188\n        /* \"#utility.yul\":9354:9355   */\n      0x00\n        /* \"#utility.yul\":9347:9352   */\n      dup3\n        /* \"#utility.yul\":9317:9356   */\n      tag_79\n      jump\t// in\n    tag_188:\n        /* \"#utility.yul\":9290:9291   */\n      0x01\n        /* \"#utility.yul\":9283:9288   */\n      dup2\n        /* \"#utility.yul\":9279:9292   */\n      add\n        /* \"#utility.yul\":9270:9292   */\n      swap1\n      pop\n        /* \"#utility.yul\":9246:9366   */\n      jump(tag_185)\n    tag_187:\n        /* \"#utility.yul\":9186:9372   */\n      pop\n      pop\n      jump\t// out\n        /* \"#utility.yul\":9378:9921   */\n    tag_81:\n        /* \"#utility.yul\":9479:9481   */\n      0x1f\n        /* \"#utility.yul\":9474:9477   */\n      dup3\n        /* \"#utility.yul\":9471:9482   */\n      gt\n        /* \"#utility.yul\":9468:9914   */\n      iszero\n      tag_190\n      jumpi\n        /* \"#utility.yul\":9513:9551   */\n      tag_191\n        /* \"#utility.yul\":9545:9550   */\n      dup2\n        /* \"#utility.yul\":9513:9551   */\n      tag_69\n      jump\t// in\n    tag_191:\n        /* \"#utility.yul\":9597:9626   */\n      tag_192\n        /* \"#utility.yul\":9615:9625   */\n      dup5\n        /* \"#utility.yul\":9597:9626   */\n      tag_70\n      jump\t// in\n    tag_192:\n        /* \"#utility.yul\":9587:9595   */\n      dup2\n        /* \"#utility.yul\":9583:9627   */\n      add\n        /* \"#utility.yul\":9780:9782   */\n      0x20\n        /* \"#utility.yul\":9768:9778   */\n      dup6\n        /* \"#utility.yul\":9765:9783   */\n      lt\n        /* \"#utility.yul\":9762:9811   */\n      iszero\n      tag_193\n      jumpi\n        /* \"#utility.yul\":9801:9809   */\n      dup2\n        /* \"#utility.yul\":9786:9809   */\n      swap1\n      pop\n        /* \"#utility.yul\":9762:9811   */\n    tag_193:\n        /* \"#utility.yul\":9824:9904   */\n      tag_194\n        /* \"#utility.yul\":9880:9902   */\n      tag_195\n        /* \"#utility.yul\":9898:9901   */\n      dup6\n        /* \"#utility.yul\":9880:9902   */\n      tag_70\n      jump\t// in\n    tag_195:\n        /* \"#utility.yul\":9870:9878   */\n      dup4\n        /* \"#utility.yul\":9866:9903   */\n      add\n        /* \"#utility.yul\":9853:9864   */\n      dup3\n        /* \"#utility.yul\":9824:9904   */\n      tag_80\n      jump\t// in\n    tag_194:\n        /* \"#utility.yul\":9483:9914   */\n      pop\n      pop\n        /* \"#utility.yul\":9468:9914   */\n    tag_190:\n        /* \"#utility.yul\":9378:9921   */\n      pop\n      pop\n      pop\n      jump\t// out\n        /* \"#utility.yul\":9927:10044   */\n    tag_82:\n        /* \"#utility.yul\":9981:9989   */\n      0x00\n        /* \"#utility.yul\":10031:10036   */\n      dup3\n        /* \"#utility.yul\":10025:10029   */\n      dup3\n        /* \"#utility.yul\":10021:10037   */\n      shr\n        /* \"#utility.yul\":10000:10037   */\n      swap1\n      pop\n        /* \"#utility.yul\":9927:10044   */\n      swap3\n      swap2\n      pop\n      pop\n      jump\t// out\n        /* \"#utility.yul\":10050:10219   */\n    tag_83:\n        /* \"#utility.yul\":10094:10100   */\n      0x00\n        /* \"#utility.yul\":10127:10178   */\n      tag_198\n        /* \"#utility.yul\":10175:10176   */\n      0x00\n        /* \"#utility.yul\":10171:10177   */\n      not\n        /* \"#utility.yul\":10163:10168   */\n      dup5\n        /* \"#utility.yul\":10160:10161   */\n      0x08\n        /* \"#utility.yul\":10156:10169   */\n      mul\n        /* \"#utility.yul\":10127:10178   */\n      tag_82\n      jump\t// in\n    tag_198:\n        /* \"#utility.yul\":10123:10179   */\n      not\n        /* \"#utility.yul\":10208:10212   */\n      dup1\n        /* \"#utility.yul\":10202:10206   */\n      dup4\n        /* \"#utility.yul\":10198:10213   */\n      and\n        /* \"#utility.yul\":10188:10213   */\n      swap2\n      pop\n        /* \"#utility.yul\":10101:10219   */\n      pop\n        /* \"#utility.yul\":10050:10219   */\n      swap3\n      swap2\n      pop\n      pop\n      jump\t// out\n        /* \"#utility.yul\":10224:10519   */\n    tag_84:\n        /* \"#utility.yul\":10300:10304   */\n      0x00\n        /* \"#utility.yul\":10446:10475   */\n      tag_200\n        /* \"#utility.yul\":10471:10474   */\n      dup4\n        /* \"#utility.yul\":10465:10469   */\n      dup4\n        /* \"#utility.yul\":10446:10475   */\n      tag_83\n      jump\t// in\n    tag_200:\n        /* \"#utility.yul\":10438:10475   */\n      swap2\n      pop\n        /* \"#utility.yul\":10508:10511   */\n      dup3\n        /* \"#utility.yul\":10505:10506   */\n      0x02\n        /* \"#utility.yul\":10501:10512   */\n      mul\n        /* \"#utility.yul\":10495:10499   */\n      dup3\n        /* \"#utility.yul\":10492:10513   */\n      or\n        /* \"#utility.yul\":10484:10513   */\n      swap1\n      pop\n        /* \"#utility.yul\":10224:10519   */\n      swap3\n      swap2\n      pop\n      pop\n      jump\t// out\n        /* \"#utility.yul\":10524:11919   */\n    tag_32:\n        /* \"#utility.yul\":10641:10678   */\n      tag_202\n        /* \"#utility.yul\":10674:10677   */\n      dup3\n        /* \"#utility.yul\":10641:10678   */\n      tag_44\n      jump\t// in\n    tag_202:\n        /* \"#utility.yul\":10743:10761   */\n      0xffffffffffffffff\n        /* \"#utility.yul\":10735:10741   */\n      dup2\n        /* \"#utility.yul\":10732:10762   */\n      gt\n        /* \"#utility.yul\":10729:10785   */\n      iszero\n      tag_203\n      jumpi\n        /* \"#utility.yul\":10765:10783   */\n      tag_204\n      tag_54\n      jump\t// in\n    tag_204:\n        /* \"#utility.yul\":10729:10785   */\n    tag_203:\n        /* \"#utility.yul\":10809:10847   */\n      tag_205\n        /* \"#utility.yul\":10841:10845   */\n      dup3\n        /* \"#utility.yul\":10835:10846   */\n      sload\n        /* \"#utility.yul\":10809:10847   */\n      tag_25\n      jump\t// in\n    tag_205:\n        /* \"#utility.yul\":10894:10961   */\n      tag_206\n        /* \"#utility.yul\":10954:10960   */\n      dup3\n        /* \"#utility.yul\":10946:10952   */\n      dup3\n        /* \"#utility.yul\":10940:10944   */\n      dup6\n        /* \"#utility.yul\":10894:10961   */\n      tag_81\n      jump\t// in\n    tag_206:\n        /* \"#utility.yul\":10988:10989   */\n      0x00\n        /* \"#utility.yul\":11012:11016   */\n      0x20\n        /* \"#utility.yul\":10999:11016   */\n      swap1\n      pop\n        /* \"#utility.yul\":11044:11046   */\n      0x1f\n        /* \"#utility.yul\":11036:11042   */\n      dup4\n        /* \"#utility.yul\":11033:11047   */\n      gt\n        /* \"#utility.yul\":11061:11062   */\n      0x01\n        /* \"#utility.yul\":11056:11674   */\n      dup2\n      eq\n      tag_208\n      jumpi\n        /* \"#utility.yul\":11718:11719   */\n      0x00\n        /* \"#utility.yul\":11735:11741   */\n      dup5\n        /* \"#utility.yul\":11732:11809   */\n      iszero\n      tag_209\n      jumpi\n        /* \"#utility.yul\":11784:11793   */\n      dup3\n        /* \"#utility.yul\":11779:11782   */\n      dup8\n        /* \"#utility.yul\":11775:11794   */\n      add\n        /* \"#utility.yul\":11769:11795   */\n      mload\n        /* \"#utility.yul\":11760:11795   */\n      swap1\n      pop\n        /* \"#utility.yul\":11732:11809   */\n    tag_209:\n        /* \"#utility.yul\":11835:11902   */\n      tag_210\n        /* \"#utility.yul\":11895:11901   */\n      dup6\n        /* \"#utility.yul\":11888:11893   */\n      dup3\n        /* \"#utility.yul\":11835:11902   */\n      tag_84\n      jump\t// in\n    tag_210:\n        /* \"#utility.yul\":11829:11833   */\n      dup7\n        /* \"#utility.yul\":11822:11903   */\n      sstore\n        /* \"#utility.yul\":11691:11913   */\n      pop\n        /* \"#utility.yul\":11026:11913   */\n      jump(tag_207)\n        /* \"#utility.yul\":11056:11674   */\n    tag_208:\n        /* \"#utility.yul\":11108:11112   */\n      0x1f\n        /* \"#utility.yul\":11104:11113   */\n      not\n        /* \"#utility.yul\":11096:11102   */\n      dup5\n        /* \"#utility.yul\":11092:11114   */\n      and\n        /* \"#utility.yul\":11142:11179   */\n      tag_211\n        /* \"#utility.yul\":11174:11178   */\n      dup7\n        /* \"#utility.yul\":11142:11179   */\n      tag_69\n      jump\t// in\n    tag_211:\n        /* \"#utility.yul\":11201:11202   */\n      0x00\n        /* \"#utility.yul\":11215:11423   */\n    tag_212:\n        /* \"#utility.yul\":11229:11236   */\n      dup3\n        /* \"#utility.yul\":11226:11227   */\n      dup2\n        /* \"#utility.yul\":11223:11237   */\n      lt\n        /* \"#utility.yul\":11215:11423   */\n      iszero\n      tag_214\n      jumpi\n        /* \"#utility.yul\":11308:11317   */\n      dup5\n        /* \"#utility.yul\":11303:11306   */\n      dup10\n        /* \"#utility.yul\":11299:11318   */\n      add\n        /* \"#utility.yul\":11293:11319   */\n      mload\n        /* \"#utility.yul\":11285:11291   */\n      dup3\n        /* \"#utility.yul\":11278:11320   */\n      sstore\n        /* \"#utility.yul\":11359:11360   */\n      0x01\n        /* \"#utility.yul\":11351:11357   */\n      dup3\n        /* \"#utility.yul\":11347:11361   */\n      add\n        /* \"#utility.yul\":11337:11361   */\n      swap2\n      pop\n        /* \"#utility.yul\":11406:11408   */\n      0x20\n        /* \"#utility.yul\":11395:11404   */\n      dup6\n        /* \"#utility.yul\":11391:11409   */\n      add\n        /* \"#utility.yul\":11378:11409   */\n      swap5\n      pop\n        /* \"#utility.yul\":11252:11256   */\n      0x20\n        /* \"#utility.yul\":11249:11250   */\n      dup2\n        /* \"#utility.yul\":11245:11257   */\n      add\n        /* \"#utility.yul\":11240:11257   */\n      swap1\n      pop\n        /* \"#utility.yul\":11215:11423   */\n      jump(tag_212)\n    tag_214:\n        /* \"#utility.yul\":11451:11457   */\n      dup7\n        /* \"#utility.yul\":11442:11449   */\n      dup4\n        /* \"#utility.yul\":11439:11458   */\n      lt\n        /* \"#utility.yul\":11436:11615   */\n      iszero\n      tag_215\n      jumpi\n        /* \"#utility.yul\":11509:11518   */\n      dup5\n        /* \"#utility.yul\":11504:11507   */\n      dup10\n        /* \"#utility.yul\":11500:11519   */\n      add\n        /* \"#utility.yul\":11494:11520   */\n      mload\n        /* \"#utility.yul\":11552:11600   */\n      tag_216\n        /* \"#utility.yul\":11594:11598   */\n      0x1f\n        /* \"#utility.yul\":11586:11592   */\n      dup10\n        /* \"#utility.yul\":11582:11599   */\n      and\n        /* \"#utility.yul\":11571:11580   */\n      dup3\n        /* \"#utility.yul\":11552:11600   */\n      tag_83\n      jump\t// in\n    tag_216:\n        /* \"#utility.yul\":11544:11550   */\n      dup4\n        /* \"#utility.yul\":11537:11601   */\n      sstore\n        /* \"#utility.yul\":11459:11615   */\n      pop\n        /* \"#utility.yul\":11436:11615   */\n    tag_215:\n        /* \"#utility.yul\":11661:11662   */\n      0x01\n        /* \"#utility.yul\":11657:11658   */\n      0x02\n        /* \"#utility.yul\":11649:11655   */\n      dup9\n        /* \"#utility.yul\":11645:11659   */\n      mul\n        /* \"#utility.yul\":11641:11663   */\n      add\n        /* \"#utility.yul\":11635:11639   */\n      dup9\n        /* \"#utility.yul\":11628:11664   */\n      sstore\n        /* \"#utility.yul\":11063:11674   */\n      pop\n      pop\n      pop\n        /* \"#utility.yul\":11026:11913   */\n    tag_207:\n      pop\n        /* \"#utility.yul\":10616:11919   */\n      pop\n      pop\n      pop\n        /* \"#utility.yul\":10524:11919   */\n      pop\n      pop\n      jump\t// out\n        /* \"#utility.yul\":11925:12078   */\n    tag_85:\n        /* \"#utility.yul\":11978:11984   */\n      0x00\n        /* \"#utility.yul\":12012:12017   */\n      dup2\n        /* \"#utility.yul\":12006:12018   */\n      sload\n        /* \"#utility.yul\":11996:12018   */\n      swap1\n      pop\n        /* \"#utility.yul\":12038:12071   */\n      tag_218\n        /* \"#utility.yul\":12064:12070   */\n      dup2\n        /* \"#utility.yul\":12038:12071   */\n      tag_25\n      jump\t// in\n    tag_218:\n        /* \"#utility.yul\":12028:12071   */\n      swap1\n      pop\n        /* \"#utility.yul\":11925:12078   */\n      swap2\n      swap1\n      pop\n      jump\t// out\n        /* \"#utility.yul\":12084:12229   */\n    tag_86:\n        /* \"#utility.yul\":12137:12141   */\n      0x00\n        /* \"#utility.yul\":12160:12163   */\n      dup2\n        /* \"#utility.yul\":12152:12163   */\n      swap1\n      pop\n        /* \"#utility.yul\":12183:12186   */\n      dup2\n        /* \"#utility.yul\":12180:12181   */\n      0x00\n        /* \"#utility.yul\":12173:12187   */\n      mstore\n        /* \"#utility.yul\":12217:12221   */\n      0x20\n        /* \"#utility.yul\":12214:12215   */\n      0x00\n        /* \"#utility.yul\":12204:12222   */\n      keccak256\n        /* \"#utility.yul\":12196:12222   */\n      swap1\n      pop\n        /* \"#utility.yul\":12084:12229   */\n      swap2\n      swap1\n      pop\n      jump\t// out\n        /* \"#utility.yul\":12235:13698   */\n    tag_43:\n        /* \"#utility.yul\":12350:12353   */\n      dup2\n        /* \"#utility.yul\":12344:12348   */\n      dup2\n        /* \"#utility.yul\":12341:12354   */\n      sub\n        /* \"#utility.yul\":12338:12364   */\n      tag_221\n      jumpi\n        /* \"#utility.yul\":12357:12362   */\n      pop\n      pop\n      jump(tag_220)\n        /* \"#utility.yul\":12338:12364   */\n    tag_221:\n        /* \"#utility.yul\":12388:12426   */\n      tag_222\n        /* \"#utility.yul\":12422:12425   */\n      dup3\n        /* \"#utility.yul\":12388:12426   */\n      tag_85\n      jump\t// in\n    tag_222:\n        /* \"#utility.yul\":12491:12509   */\n      0xffffffffffffffff\n        /* \"#utility.yul\":12483:12489   */\n      dup2\n        /* \"#utility.yul\":12480:12510   */\n      gt\n        /* \"#utility.yul\":12477:12533   */\n      iszero\n      tag_223\n      jumpi\n        /* \"#utility.yul\":12513:12531   */\n      tag_224\n      tag_54\n      jump\t// in\n    tag_224:\n        /* \"#utility.yul\":12477:12533   */\n    tag_223:\n        /* \"#utility.yul\":12557:12595   */\n      tag_225\n        /* \"#utility.yul\":12589:12593   */\n      dup3\n        /* \"#utility.yul\":12583:12594   */\n      sload\n        /* \"#utility.yul\":12557:12595   */\n      tag_25\n      jump\t// in\n    tag_225:\n        /* \"#utility.yul\":12642:12709   */\n      tag_226\n        /* \"#utility.yul\":12702:12708   */\n      dup3\n        /* \"#utility.yul\":12694:12700   */\n      dup3\n        /* \"#utility.yul\":12688:12692   */\n      dup6\n        /* \"#utility.yul\":12642:12709   */\n      tag_81\n      jump\t// in\n    tag_226:\n        /* \"#utility.yul\":12736:12737   */\n      0x00\n        /* \"#utility.yul\":12765:12767   */\n      0x1f\n        /* \"#utility.yul\":12757:12763   */\n      dup4\n        /* \"#utility.yul\":12754:12768   */\n      gt\n        /* \"#utility.yul\":12782:12783   */\n      0x01\n        /* \"#utility.yul\":12777:13453   */\n      dup2\n      eq\n      tag_228\n      jumpi\n        /* \"#utility.yul\":13497:13498   */\n      0x00\n        /* \"#utility.yul\":13514:13520   */\n      dup5\n        /* \"#utility.yul\":13511:13588   */\n      iszero\n      tag_229\n      jumpi\n        /* \"#utility.yul\":13563:13572   */\n      dup3\n        /* \"#utility.yul\":13558:13561   */\n      dup8\n        /* \"#utility.yul\":13554:13573   */\n      add\n        /* \"#utility.yul\":13548:13574   */\n      sload\n        /* \"#utility.yul\":13539:13574   */\n      swap1\n      pop\n        /* \"#utility.yul\":13511:13588   */\n    tag_229:\n        /* \"#utility.yul\":13614:13681   */\n      tag_230\n        /* \"#utility.yul\":13674:13680   */\n      dup6\n        /* \"#utility.yul\":13667:13672   */\n      dup3\n        /* \"#utility.yul\":13614:13681   */\n      tag_84\n      jump\t// in\n    tag_230:\n        /* \"#utility.yul\":13608:13612   */\n      dup7\n        /* \"#utility.yul\":13601:13682   */\n      sstore\n        /* \"#utility.yul\":13470:13692   */\n      pop\n        /* \"#utility.yul\":12747:13692   */\n      jump(tag_227)\n        /* \"#utility.yul\":12777:13453   */\n    tag_228:\n        /* \"#utility.yul\":12829:12833   */\n      0x1f\n        /* \"#utility.yul\":12825:12834   */\n      not\n        /* \"#utility.yul\":12817:12823   */\n      dup5\n        /* \"#utility.yul\":12813:12835   */\n      and\n        /* \"#utility.yul\":12855:12895   */\n      tag_231\n        /* \"#utility.yul\":12891:12894   */\n      dup8\n        /* \"#utility.yul\":12855:12895   */\n      tag_86\n      jump\t// in\n    tag_231:\n        /* \"#utility.yul\":12848:12895   */\n      swap7\n      pop\n        /* \"#utility.yul\":12922:12959   */\n      tag_232\n        /* \"#utility.yul\":12954:12958   */\n      dup7\n        /* \"#utility.yul\":12922:12959   */\n      tag_69\n      jump\t// in\n    tag_232:\n        /* \"#utility.yul\":12981:12982   */\n      0x00\n        /* \"#utility.yul\":12995:13202   */\n    tag_233:\n        /* \"#utility.yul\":13009:13016   */\n      dup3\n        /* \"#utility.yul\":13006:13007   */\n      dup2\n        /* \"#utility.yul\":13003:13017   */\n      lt\n        /* \"#utility.yul\":12995:13202   */\n      iszero\n      tag_235\n      jumpi\n        /* \"#utility.yul\":13088:13097   */\n      dup5\n        /* \"#utility.yul\":13083:13086   */\n      dup10\n        /* \"#utility.yul\":13079:13098   */\n      add\n        /* \"#utility.yul\":13073:13099   */\n      sload\n        /* \"#utility.yul\":13065:13071   */\n      dup3\n        /* \"#utility.yul\":13058:13100   */\n      sstore\n        /* \"#utility.yul\":13139:13140   */\n      0x01\n        /* \"#utility.yul\":13131:13137   */\n      dup3\n        /* \"#utility.yul\":13127:13141   */\n      add\n        /* \"#utility.yul\":13117:13141   */\n      swap2\n      pop\n        /* \"#utility.yul\":13186:13187   */\n      0x01\n        /* \"#utility.yul\":13175:13184   */\n      dup6\n        /* \"#utility.yul\":13171:13188   */\n      add\n        /* \"#utility.yul\":13158:13188   */\n      swap5\n      pop\n        /* \"#utility.yul\":13032:13036   */\n      0x20\n        /* \"#utility.yul\":13029:13030   */\n      dup2\n        /* \"#utility.yul\":13025:13037   */\n      add\n        /* \"#utility.yul\":13020:13037   */\n      swap1\n      pop\n        /* \"#utility.yul\":12995:13202   */\n      jump(tag_233)\n    tag_235:\n        /* \"#utility.yul\":13230:13236   */\n      dup7\n        /* \"#utility.yul\":13221:13228   */\n      dup4\n        /* \"#utility.yul\":13218:13237   */\n      lt\n        /* \"#utility.yul\":13215:13394   */\n      iszero\n      tag_236\n      jumpi\n        /* \"#utility.yul\":13288:13297   */\n      dup5\n        /* \"#utility.yul\":13283:13286   */\n      dup10\n        /* \"#utility.yul\":13279:13298   */\n      add\n        /* \"#utility.yul\":13273:13299   */\n      sload\n        /* \"#utility.yul\":13331:13379   */\n      tag_237\n        /* \"#utility.yul\":13373:13377   */\n      0x1f\n        /* \"#utility.yul\":13365:13371   */\n      dup10\n        /* \"#utility.yul\":13361:13378   */\n      and\n        /* \"#utility.yul\":13350:13359   */\n      dup3\n        /* \"#utility.yul\":13331:13379   */\n      tag_83\n      jump\t// in\n    tag_237:\n        /* \"#utility.yul\":13323:13329   */\n      dup4\n        /* \"#utility.yul\":13316:13380   */\n      sstore\n        /* \"#utility.yul\":13238:13394   */\n      pop\n        /* \"#utility.yul\":13215:13394   */\n    tag_236:\n        /* \"#utility.yul\":13440:13441   */\n      0x01\n        /* \"#utility.yul\":13436:13437   */\n      0x02\n        /* \"#utility.yul\":13428:13434   */\n      dup9\n        /* \"#utility.yul\":13424:13438   */\n      mul\n        /* \"#utility.yul\":13420:13442   */\n      add\n        /* \"#utility.yul\":13414:13418   */\n      dup9\n        /* \"#utility.yul\":13407:13443   */\n      sstore\n        /* \"#utility.yul\":12784:13453   */\n      pop\n      pop\n      pop\n        /* \"#utility.yul\":12747:13692   */\n    tag_227:\n      pop\n        /* \"#utility.yul\":12328:13698   */\n      pop\n      pop\n      pop\n        /* \"#utility.yul\":12235:13698   */\n      pop\n      pop\n    tag_220:\n      jump\t// out\n\n    auxdata: 0xa26469706673582212208ce651fc5909a1d086a31b30ec397cc2127231ce7dabf381ce74ac5a20e9ce9764736f6c634300081a0033\n}\n",
				"bytecode": {
					"linkReferences": {},
					"object": "6080604052348015600e575f80fd5b506109a78061001c5f395ff3fe608060405234801561000f575f80fd5b506004361061004a575f3560e01c80630dbe671f1461004e578063191347df1461006c5780631e36169e14610088578063dd292604146100a6575b5f80fd5b6100566100d7565b60405161006391906102ad565b60405180910390f35b6100866004803603810190610081919061040a565b610163565b005b610090610180565b60405161009d91906102ad565b60405180910390f35b6100c060048036038101906100bb91906104ae565b610210565b6040516100ce929190610571565b60405180910390f35b600280546100e4906105c0565b80601f0160208091040260200160405190810160405280929190818152602001828054610110906105c0565b801561015b5780601f106101325761010080835404028352916020019161015b565b820191905f5260205f20905b81548152906001019060200180831161013e57829003601f168201915b505050505081565b80600290816101729190610796565b5061017d6002610229565b50565b5f805f01805461018f906105c0565b80601f01602080910402602001604051908101604052809291908181526020018280546101bb906105c0565b80156102065780601f106101dd57610100808354040283529160200191610206565b820191905f5260205f20905b8154815290600101906020018083116101e957829003601f168201915b5050505050905081565b365f365f85859150915081819350935050509250929050565b805f80019081610239919061088c565b5050565b5f81519050919050565b5f82825260208201905092915050565b8281835e5f83830152505050565b5f601f19601f8301169050919050565b5f61027f8261023d565b6102898185610247565b9350610299818560208601610257565b6102a281610265565b840191505092915050565b5f6020820190508181035f8301526102c58184610275565b905092915050565b5f604051905090565b5f80fd5b5f80fd5b5f80fd5b5f80fd5b7f4e487b71000000000000000000000000000000000000000000000000000000005f52604160045260245ffd5b61031c82610265565b810181811067ffffffffffffffff8211171561033b5761033a6102e6565b5b80604052505050565b5f61034d6102cd565b90506103598282610313565b919050565b5f67ffffffffffffffff821115610378576103776102e6565b5b61038182610265565b9050602081019050919050565b828183375f83830152505050565b5f6103ae6103a98461035e565b610344565b9050828152602081018484840111156103ca576103c96102e2565b5b6103d584828561038e565b509392505050565b5f82601f8301126103f1576103f06102de565b5b813561040184826020860161039c565b91505092915050565b5f6020828403121561041f5761041e6102d6565b5b5f82013567ffffffffffffffff81111561043c5761043b6102da565b5b610448848285016103dd565b91505092915050565b5f80fd5b5f80fd5b5f8083601f84011261046e5761046d6102de565b5b8235905067ffffffffffffffff81111561048b5761048a610451565b5b6020830191508360208202830111156104a7576104a6610455565b5b9250929050565b5f80602083850312156104c4576104c36102d6565b5b5f83013567ffffffffffffffff8111156104e1576104e06102da565b5b6104ed85828601610459565b92509250509250929050565b5f82825260208201905092915050565b5f80fd5b82818337505050565b5f61052183856104f9565b93507f07ffffffffffffffffffffffffffffffffffffffffffffffffffffffffffffff83111561055457610553610509565b5b60208302925061056583858461050d565b82840190509392505050565b5f6020820190508181035f83015261058a818486610516565b90509392505050565b7f4e487b71000000000000000000000000000000000000000000000000000000005f52602260045260245ffd5b5f60028204905060018216806105d757607f821691505b6020821081036105ea576105e9610593565b5b50919050565b5f819050815f5260205f209050919050565b5f6020601f8301049050919050565b5f82821b905092915050565b5f6008830261064c7fffffffffffffffffffffffffffffffffffffffffffffffffffffffffffffffff82610611565b6106568683610611565b95508019841693508086168417925050509392505050565b5f819050919050565b5f819050919050565b5f61069a6106956106908461066e565b610677565b61066e565b9050919050565b5f819050919050565b6106b383610680565b6106c76106bf826106a1565b84845461061d565b825550505050565b5f90565b6106db6106cf565b6106e68184846106aa565b505050565b5b81811015610709576106fe5f826106d3565b6001810190506106ec565b5050565b601f82111561074e5761071f816105f0565b61072884610602565b81016020851015610737578190505b61074b61074385610602565b8301826106eb565b50505b505050565b5f82821c905092915050565b5f61076e5f1984600802610753565b1980831691505092915050565b5f610786838361075f565b9150826002028217905092915050565b61079f8261023d565b67ffffffffffffffff8111156107b8576107b76102e6565b5b6107c282546105c0565b6107cd82828561070d565b5f60209050601f8311600181146107fe575f84156107ec578287015190505b6107f6858261077b565b86555061085d565b601f19841661080c866105f0565b5f5b828110156108335784890151825560018201915060208501945060208101905061080e565b86831015610850578489015161084c601f89168261075f565b8355505b6001600288020188555050505b505050505050565b5f81549050610873816105c0565b9050919050565b5f819050815f5260205f209050919050565b81810361089a57505061096f565b6108a382610865565b67ffffffffffffffff8111156108bc576108bb6102e6565b5b6108c682546105c0565b6108d182828561070d565b5f601f8311600181146108fe575f84156108ec578287015490505b6108f6858261077b565b865550610968565b601f19841661090c8761087a565b9650610917866105f0565b5f5b8281101561093e57848901548255600182019150600185019450602081019050610919565b8683101561095b5784890154610957601f89168261075f565b8355505b6001600288020188555050505b5050505050505b56fea26469706673582212208ce651fc5909a1d086a31b30ec397cc2127231ce7dabf381ce74ac5a20e9ce9764736f6c634300081a0033",
					"opcodes": "PUSH1 0x80 PUSH1 0x40 MSTORE CALLVALUE DUP1 ISZERO PUSH1 0xE JUMPI PUSH0 DUP1 REVERT JUMPDEST POP PUSH2 0x9A7 DUP1 PUSH2 0x1C PUSH0 CODECOPY PUSH0 RETURN INVALID PUSH1 0x80 PUSH1 0x40 MSTORE CALLVALUE DUP1 ISZERO PUSH2 0xF JUMPI PUSH0 DUP1 REVERT JUMPDEST POP PUSH1 0x4 CALLDATASIZE LT PUSH2 0x4A JUMPI PUSH0 CALLDATALOAD PUSH1 0xE0 SHR DUP1 PUSH4 0xDBE671F EQ PUSH2 0x4E JUMPI DUP1 PUSH4 0x191347DF EQ PUSH2 0x6C JUMPI DUP1 PUSH4 0x1E36169E EQ PUSH2 0x88 JUMPI DUP1 PUSH4 0xDD292604 EQ PUSH2 0xA6 JUMPI JUMPDEST PUSH0 DUP1 REVERT JUMPDEST PUSH2 0x56 PUSH2 0xD7 JUMP JUMPDEST PUSH1 0x40 MLOAD PUSH2 0x63 SWAP2 SWAP1 PUSH2 0x2AD JUMP JUMPDEST PUSH1 0x40 MLOAD DUP1 SWAP2 SUB SWAP1 RETURN JUMPDEST PUSH2 0x86 PUSH1 0x4 DUP1 CALLDATASIZE SUB DUP2 ADD SWAP1 PUSH2 0x81 SWAP2 SWAP1 PUSH2 0x40A JUMP JUMPDEST PUSH2 0x163 JUMP JUMPDEST STOP JUMPDEST PUSH2 0x90 PUSH2 0x180 JUMP JUMPDEST PUSH1 0x40 MLOAD PUSH2 0x9D SWAP2 SWAP1 PUSH2 0x2AD JUMP JUMPDEST PUSH1 0x40 MLOAD DUP1 SWAP2 SUB SWAP1 RETURN JUMPDEST PUSH2 0xC0 PUSH1 0x4 DUP1 CALLDATASIZE SUB DUP2 ADD SWAP1 PUSH2 0xBB SWAP2 SWAP1 PUSH2 0x4AE JUMP JUMPDEST PUSH2 0x210 JUMP JUMPDEST PUSH1 0x40 MLOAD PUSH2 0xCE SWAP3 SWAP2 SWAP1 PUSH2 0x571 JUMP JUMPDEST PUSH1 0x40 MLOAD DUP1 SWAP2 SUB SWAP1 RETURN JUMPDEST PUSH1 0x2 DUP1 SLOAD PUSH2 0xE4 SWAP1 PUSH2 0x5C0 JUMP JUMPDEST DUP1 PUSH1 0x1F ADD PUSH1 0x20 DUP1 SWAP2 DIV MUL PUSH1 0x20 ADD PUSH1 0x40 MLOAD SWAP1 DUP2 ADD PUSH1 0x40 MSTORE DUP1 SWAP3 SWAP2 SWAP1 DUP2 DUP2 MSTORE PUSH1 0x20 ADD DUP3 DUP1 SLOAD PUSH2 0x110 SWAP1 PUSH2 0x5C0 JUMP JUMPDEST DUP1 ISZERO PUSH2 0x15B JUMPI DUP1 PUSH1 0x1F LT PUSH2 0x132 JUMPI PUSH2 0x100 DUP1 DUP4 SLOAD DIV MUL DUP4 MSTORE SWAP2 PUSH1 0x20 ADD SWAP2 PUSH2 0x15B JUMP JUMPDEST DUP3 ADD SWAP2 SWAP1 PUSH0 MSTORE PUSH1 0x20 PUSH0 KECCAK256 SWAP1 JUMPDEST DUP2 SLOAD DUP2 MSTORE SWAP1 PUSH1 0x1 ADD SWAP1 PUSH1 0x20 ADD DUP1 DUP4 GT PUSH2 0x13E JUMPI DUP3 SWAP1 SUB PUSH1 0x1F AND DUP3 ADD SWAP2 JUMPDEST POP POP POP POP POP DUP2 JUMP JUMPDEST DUP1 PUSH1 0x2 SWAP1 DUP2 PUSH2 0x172 SWAP2 SWAP1 PUSH2 0x796 JUMP JUMPDEST POP PUSH2 0x17D PUSH1 0x2 PUSH2 0x229 JUMP JUMPDEST POP JUMP JUMPDEST PUSH0 DUP1 PUSH0 ADD DUP1 SLOAD PUSH2 0x18F SWAP1 PUSH2 0x5C0 JUMP JUMPDEST DUP1 PUSH1 0x1F ADD PUSH1 0x20 DUP1 SWAP2 DIV MUL PUSH1 0x20 ADD PUSH1 0x40 MLOAD SWAP1 DUP2 ADD PUSH1 0x40 MSTORE DUP1 SWAP3 SWAP2 SWAP1 DUP2 DUP2 MSTORE PUSH1 0x20 ADD DUP3 DUP1 SLOAD PUSH2 0x1BB SWAP1 PUSH2 0x5C0 JUMP JUMPDEST DUP1 ISZERO PUSH2 0x206 JUMPI DUP1 PUSH1 0x1F LT PUSH2 0x1DD JUMPI PUSH2 0x100 DUP1 DUP4 SLOAD DIV MUL DUP4 MSTORE SWAP2 PUSH1 0x20 ADD SWAP2 PUSH2 0x206 JUMP JUMPDEST DUP3 ADD SWAP2 SWAP1 PUSH0 MSTORE PUSH1 0x20 PUSH0 KECCAK256 SWAP1 JUMPDEST DUP2 SLOAD DUP2 MSTORE SWAP1 PUSH1 0x1 ADD SWAP1 PUSH1 0x20 ADD DUP1 DUP4 GT PUSH2 0x1E9 JUMPI DUP3 SWAP1 SUB PUSH1 0x1F AND DUP3 ADD SWAP2 JUMPDEST POP POP POP POP POP SWAP1 POP DUP2 JUMP JUMPDEST CALLDATASIZE PUSH0 CALLDATASIZE PUSH0 DUP6 DUP6 SWAP2 POP SWAP2 POP DUP2 DUP2 SWAP4 POP SWAP4 POP POP POP SWAP3 POP SWAP3 SWAP1 POP JUMP JUMPDEST DUP1 PUSH0 DUP1 ADD SWAP1 DUP2 PUSH2 0x239 SWAP2 SWAP1 PUSH2 0x88C JUMP JUMPDEST POP POP JUMP JUMPDEST PUSH0 DUP2 MLOAD SWAP1 POP SWAP2 SWAP1 POP JUMP JUMPDEST PUSH0 DUP3 DUP3 MSTORE PUSH1 0x20 DUP3 ADD SWAP1 POP SWAP3 SWAP2 POP POP JUMP JUMPDEST DUP3 DUP2 DUP4 MCOPY PUSH0 DUP4 DUP4 ADD MSTORE POP POP POP JUMP JUMPDEST PUSH0 PUSH1 0x1F NOT PUSH1 0x1F DUP4 ADD AND SWAP1 POP SWAP2 SWAP1 POP JUMP JUMPDEST PUSH0 PUSH2 0x27F DUP3 PUSH2 0x23D JUMP JUMPDEST PUSH2 0x289 DUP2 DUP6 PUSH2 0x247 JUMP JUMPDEST SWAP4 POP PUSH2 0x299 DUP2 DUP6 PUSH1 0x20 DUP7 ADD PUSH2 0x257 JUMP JUMPDEST PUSH2 0x2A2 DUP2 PUSH2 0x265 JUMP JUMPDEST DUP5 ADD SWAP2 POP POP SWAP3 SWAP2 POP POP JUMP JUMPDEST PUSH0 PUSH1 0x20 DUP3 ADD SWAP1 POP DUP2 DUP2 SUB PUSH0 DUP4 ADD MSTORE PUSH2 0x2C5 DUP2 DUP5 PUSH2 0x275 JUMP JUMPDEST SWAP1 POP SWAP3 SWAP2 POP POP JUMP JUMPDEST PUSH0 PUSH1 0x40 MLOAD SWAP1 POP SWAP1 JUMP JUMPDEST PUSH0 DUP1 REVERT JUMPDEST PUSH0 DUP1 REVERT JUMPDEST PUSH0 DUP1 REVERT JUMPDEST PUSH0 DUP1 REVERT JUMPDEST PUSH32 0x4E487B7100000000000000000000000000000000000000000000000000000000 PUSH0 MSTORE PUSH1 0x41 PUSH1 0x4 MSTORE PUSH1 0x24 PUSH0 REVERT JUMPDEST PUSH2 0x31C DUP3 PUSH2 0x265 JUMP JUMPDEST DUP2 ADD DUP2 DUP2 LT PUSH8 0xFFFFFFFFFFFFFFFF DUP3 GT OR ISZERO PUSH2 0x33B JUMPI PUSH2 0x33A PUSH2 0x2E6 JUMP JUMPDEST JUMPDEST DUP1 PUSH1 0x40 MSTORE POP POP POP JUMP JUMPDEST PUSH0 PUSH2 0x34D PUSH2 0x2CD JUMP JUMPDEST SWAP1 POP PUSH2 0x359 DUP3 DUP3 PUSH2 0x313 JUMP JUMPDEST SWAP2 SWAP1 POP JUMP JUMPDEST PUSH0 PUSH8 0xFFFFFFFFFFFFFFFF DUP3 GT ISZERO PUSH2 0x378 JUMPI PUSH2 0x377 PUSH2 0x2E6 JUMP JUMPDEST JUMPDEST PUSH2 0x381 DUP3 PUSH2 0x265 JUMP JUMPDEST SWAP1 POP PUSH1 0x20 DUP2 ADD SWAP1 POP SWAP2 SWAP1 POP JUMP JUMPDEST DUP3 DUP2 DUP4 CALLDATACOPY PUSH0 DUP4 DUP4 ADD MSTORE POP POP POP JUMP JUMPDEST PUSH0 PUSH2 0x3AE PUSH2 0x3A9 DUP5 PUSH2 0x35E JUMP JUMPDEST PUSH2 0x344 JUMP JUMPDEST SWAP1 POP DUP3 DUP2 MSTORE PUSH1 0x20 DUP2 ADD DUP5 DUP5 DUP5 ADD GT ISZERO PUSH2 0x3CA JUMPI PUSH2 0x3C9 PUSH2 0x2E2 JUMP JUMPDEST JUMPDEST PUSH2 0x3D5 DUP5 DUP3 DUP6 PUSH2 0x38E JUMP JUMPDEST POP SWAP4 SWAP3 POP POP POP JUMP JUMPDEST PUSH0 DUP3 PUSH1 0x1F DUP4 ADD SLT PUSH2 0x3F1 JUMPI PUSH2 0x3F0 PUSH2 0x2DE JUMP JUMPDEST JUMPDEST DUP2 CALLDATALOAD PUSH2 0x401 DUP5 DUP3 PUSH1 0x20 DUP7 ADD PUSH2 0x39C JUMP JUMPDEST SWAP2 POP POP SWAP3 SWAP2 POP POP JUMP JUMPDEST PUSH0 PUSH1 0x20 DUP3 DUP5 SUB SLT ISZERO PUSH2 0x41F JUMPI PUSH2 0x41E PUSH2 0x2D6 JUMP JUMPDEST JUMPDEST PUSH0 DUP3 ADD CALLDATALOAD PUSH8 0xFFFFFFFFFFFFFFFF DUP2 GT ISZERO PUSH2 0x43C JUMPI PUSH2 0x43B PUSH2 0x2DA JUMP JUMPDEST JUMPDEST PUSH2 0x448 DUP5 DUP3 DUP6 ADD PUSH2 0x3DD JUMP JUMPDEST SWAP2 POP POP SWAP3 SWAP2 POP POP JUMP JUMPDEST PUSH0 DUP1 REVERT JUMPDEST PUSH0 DUP1 REVERT JUMPDEST PUSH0 DUP1 DUP4 PUSH1 0x1F DUP5 ADD SLT PUSH2 0x46E JUMPI PUSH2 0x46D PUSH2 0x2DE JUMP JUMPDEST JUMPDEST DUP3 CALLDATALOAD SWAP1 POP PUSH8 0xFFFFFFFFFFFFFFFF DUP2 GT ISZERO PUSH2 0x48B JUMPI PUSH2 0x48A PUSH2 0x451 JUMP JUMPDEST JUMPDEST PUSH1 0x20 DUP4 ADD SWAP2 POP DUP4 PUSH1 0x20 DUP3 MUL DUP4 ADD GT ISZERO PUSH2 0x4A7 JUMPI PUSH2 0x4A6 PUSH2 0x455 JUMP JUMPDEST JUMPDEST SWAP3 POP SWAP3 SWAP1 POP JUMP JUMPDEST PUSH0 DUP1 PUSH1 0x20 DUP4 DUP6 SUB SLT ISZERO PUSH2 0x4C4 JUMPI PUSH2 0x4C3 PUSH2 0x2D6 JUMP JUMPDEST JUMPDEST PUSH0 DUP4 ADD CALLDATALOAD PUSH8 0xFFFFFFFFFFFFFFFF DUP2 GT ISZERO PUSH2 0x4E1 JUMPI PUSH2 0x4E0 PUSH2 0x2DA JUMP JUMPDEST JUMPDEST PUSH2 0x4ED DUP6 DUP3 DUP7 ADD PUSH2 0x459 JUMP JUMPDEST SWAP3 POP SWAP3 POP POP SWAP3 POP SWAP3 SWAP1 POP JUMP JUMPDEST PUSH0 DUP3 DUP3 MSTORE PUSH1 0x20 DUP3 ADD SWAP1 POP SWAP3 SWAP2 POP POP JUMP JUMPDEST PUSH0 DUP1 REVERT JUMPDEST DUP3 DUP2 DUP4 CALLDATACOPY POP POP POP JUMP JUMPDEST PUSH0 PUSH2 0x521 DUP4 DUP6 PUSH2 0x4F9 JUMP JUMPDEST SWAP4 POP PUSH32 0x7FFFFFFFFFFFFFFFFFFFFFFFFFFFFFFFFFFFFFFFFFFFFFFFFFFFFFFFFFFFFFF DUP4 GT ISZERO PUSH2 0x554 JUMPI PUSH2 0x553 PUSH2 0x509 JUMP JUMPDEST JUMPDEST PUSH1 0x20 DUP4 MUL SWAP3 POP PUSH2 0x565 DUP4 DUP6 DUP5 PUSH2 0x50D JUMP JUMPDEST DUP3 DUP5 ADD SWAP1 POP SWAP4 SWAP3 POP POP POP JUMP JUMPDEST PUSH0 PUSH1 0x20 DUP3 ADD SWAP1 POP DUP2 DUP2 SUB PUSH0 DUP4 ADD MSTORE PUSH2 0x58A DUP2 DUP5 DUP7 PUSH2 0x516 JUMP JUMPDEST SWAP1 POP SWAP4 SWAP3 POP POP POP JUMP JUMPDEST PUSH32 0x4E487B7100000000000000000000000000000000000000000000000000000000 PUSH0 MSTORE PUSH1 0x22 PUSH1 0x4 MSTORE PUSH1 0x24 PUSH0 REVERT JUMPDEST PUSH0 PUSH1 0x2 DUP3 DIV SWAP1 POP PUSH1 0x1 DUP3 AND DUP1 PUSH2 0x5D7 JUMPI PUSH1 0x7F DUP3 AND SWAP2 POP JUMPDEST PUSH1 0x20 DUP3 LT DUP2 SUB PUSH2 0x5EA JUMPI PUSH2 0x5E9 PUSH2 0x593 JUMP JUMPDEST JUMPDEST POP SWAP2 SWAP1 POP JUMP JUMPDEST PUSH0 DUP2 SWAP1 POP DUP2 PUSH0 MSTORE PUSH1 0x20 PUSH0 KECCAK256 SWAP1 POP SWAP2 SWAP1 POP JUMP JUMPDEST PUSH0 PUSH1 0x20 PUSH1 0x1F DUP4 ADD DIV SWAP1 POP SWAP2 SWAP1 POP JUMP JUMPDEST PUSH0 DUP3 DUP3 SHL SWAP1 POP SWAP3 SWAP2 POP POP JUMP JUMPDEST PUSH0 PUSH1 0x8 DUP4 MUL PUSH2 0x64C PUSH32 0xFFFFFFFFFFFFFFFFFFFFFFFFFFFFFFFFFFFFFFFFFFFFFFFFFFFFFFFFFFFFFFFF DUP3 PUSH2 0x611 JUMP JUMPDEST PUSH2 0x656 DUP7 DUP4 PUSH2 0x611 JUMP JUMPDEST SWAP6 POP DUP1 NOT DUP5 AND SWAP4 POP DUP1 DUP7 AND DUP5 OR SWAP3 POP POP POP SWAP4 SWAP3 POP POP POP JUMP JUMPDEST PUSH0 DUP2 SWAP1 POP SWAP2 SWAP1 POP JUMP JUMPDEST PUSH0 DUP2 SWAP1 POP SWAP2 SWAP1 POP JUMP JUMPDEST PUSH0 PUSH2 0x69A PUSH2 0x695 PUSH2 0x690 DUP5 PUSH2 0x66E JUMP JUMPDEST PUSH2 0x677 JUMP JUMPDEST PUSH2 0x66E JUMP JUMPDEST SWAP1 POP SWAP2 SWAP1 POP JUMP JUMPDEST PUSH0 DUP2 SWAP1 POP SWAP2 SWAP1 POP JUMP JUMPDEST PUSH2 0x6B3 DUP4 PUSH2 0x680 JUMP JUMPDEST PUSH2 0x6C7 PUSH2 0x6BF DUP3 PUSH2 0x6A1 JUMP JUMPDEST DUP5 DUP5 SLOAD PUSH2 0x61D JUMP JUMPDEST DUP3 SSTORE POP POP POP POP JUMP JUMPDEST PUSH0 SWAP1 JUMP JUMPDEST PUSH2 0x6DB PUSH2 0x6CF JUMP JUMPDEST PUSH2 0x6E6 DUP2 DUP5 DUP5 PUSH2 0x6AA JUMP JUMPDEST POP POP POP JUMP JUMPDEST JUMPDEST DUP2 DUP2 LT ISZERO PUSH2 0x709 JUMPI PUSH2 0x6FE PUSH0 DUP3 PUSH2 0x6D3 JUMP JUMPDEST PUSH1 0x1 DUP2 ADD SWAP1 POP PUSH2 0x6EC JUMP JUMPDEST POP POP JUMP JUMPDEST PUSH1 0x1F DUP3 GT ISZERO PUSH2 0x74E JUMPI PUSH2 0x71F DUP2 PUSH2 0x5F0 JUMP JUMPDEST PUSH2 0x728 DUP5 PUSH2 0x602 JUMP JUMPDEST DUP2 ADD PUSH1 0x20 DUP6 LT ISZERO PUSH2 0x737 JUMPI DUP2 SWAP1 POP JUMPDEST PUSH2 0x74B PUSH2 0x743 DUP6 PUSH2 0x602 JUMP JUMPDEST DUP4 ADD DUP3 PUSH2 0x6EB JUMP JUMPDEST POP POP JUMPDEST POP POP POP JUMP JUMPDEST PUSH0 DUP3 DUP3 SHR SWAP1 POP SWAP3 SWAP2 POP POP JUMP JUMPDEST PUSH0 PUSH2 0x76E PUSH0 NOT DUP5 PUSH1 0x8 MUL PUSH2 0x753 JUMP JUMPDEST NOT DUP1 DUP4 AND SWAP2 POP POP SWAP3 SWAP2 POP POP JUMP JUMPDEST PUSH0 PUSH2 0x786 DUP4 DUP4 PUSH2 0x75F JUMP JUMPDEST SWAP2 POP DUP3 PUSH1 0x2 MUL DUP3 OR SWAP1 POP SWAP3 SWAP2 POP POP JUMP JUMPDEST PUSH2 0x79F DUP3 PUSH2 0x23D JUMP JUMPDEST PUSH8 0xFFFFFFFFFFFFFFFF DUP2 GT ISZERO PUSH2 0x7B8 JUMPI PUSH2 0x7B7 PUSH2 0x2E6 JUMP JUMPDEST JUMPDEST PUSH2 0x7C2 DUP3 SLOAD PUSH2 0x5C0 JUMP JUMPDEST PUSH2 0x7CD DUP3 DUP3 DUP6 PUSH2 0x70D JUMP JUMPDEST PUSH0 PUSH1 0x20 SWAP1 POP PUSH1 0x1F DUP4 GT PUSH1 0x1 DUP2 EQ PUSH2 0x7FE JUMPI PUSH0 DUP5 ISZERO PUSH2 0x7EC JUMPI DUP3 DUP8 ADD MLOAD SWAP1 POP JUMPDEST PUSH2 0x7F6 DUP6 DUP3 PUSH2 0x77B JUMP JUMPDEST DUP7 SSTORE POP PUSH2 0x85D JUMP JUMPDEST PUSH1 0x1F NOT DUP5 AND PUSH2 0x80C DUP7 PUSH2 0x5F0 JUMP JUMPDEST PUSH0 JUMPDEST DUP3 DUP2 LT ISZERO PUSH2 0x833 JUMPI DUP5 DUP10 ADD MLOAD DUP3 SSTORE PUSH1 0x1 DUP3 ADD SWAP2 POP PUSH1 0x20 DUP6 ADD SWAP5 POP PUSH1 0x20 DUP2 ADD SWAP1 POP PUSH2 0x80E JUMP JUMPDEST DUP7 DUP4 LT ISZERO PUSH2 0x850 JUMPI DUP5 DUP10 ADD MLOAD PUSH2 0x84C PUSH1 0x1F DUP10 AND DUP3 PUSH2 0x75F JUMP JUMPDEST DUP4 SSTORE POP JUMPDEST PUSH1 0x1 PUSH1 0x2 DUP9 MUL ADD DUP9 SSTORE POP POP POP JUMPDEST POP POP POP POP POP POP JUMP JUMPDEST PUSH0 DUP2 SLOAD SWAP1 POP PUSH2 0x873 DUP2 PUSH2 0x5C0 JUMP JUMPDEST SWAP1 POP SWAP2 SWAP1 POP JUMP JUMPDEST PUSH0 DUP2 SWAP1 POP DUP2 PUSH0 MSTORE PUSH1 0x20 PUSH0 KECCAK256 SWAP1 POP SWAP2 SWAP1 POP JUMP JUMPDEST DUP2 DUP2 SUB PUSH2 0x89A JUMPI POP POP PUSH2 0x96F JUMP JUMPDEST PUSH2 0x8A3 DUP3 PUSH2 0x865 JUMP JUMPDEST PUSH8 0xFFFFFFFFFFFFFFFF DUP2 GT ISZERO PUSH2 0x8BC JUMPI PUSH2 0x8BB PUSH2 0x2E6 JUMP JUMPDEST JUMPDEST PUSH2 0x8C6 DUP3 SLOAD PUSH2 0x5C0 JUMP JUMPDEST PUSH2 0x8D1 DUP3 DUP3 DUP6 PUSH2 0x70D JUMP JUMPDEST PUSH0 PUSH1 0x1F DUP4 GT PUSH1 0x1 DUP2 EQ PUSH2 0x8FE JUMPI PUSH0 DUP5 ISZERO PUSH2 0x8EC JUMPI DUP3 DUP8 ADD SLOAD SWAP1 POP JUMPDEST PUSH2 0x8F6 DUP6 DUP3 PUSH2 0x77B JUMP JUMPDEST DUP7 SSTORE POP PUSH2 0x968 JUMP JUMPDEST PUSH1 0x1F NOT DUP5 AND PUSH2 0x90C DUP8 PUSH2 0x87A JUMP JUMPDEST SWAP7 POP PUSH2 0x917 DUP7 PUSH2 0x5F0 JUMP JUMPDEST PUSH0 JUMPDEST DUP3 DUP2 LT ISZERO PUSH2 0x93E JUMPI DUP5 DUP10 ADD SLOAD DUP3 SSTORE PUSH1 0x1 DUP3 ADD SWAP2 POP PUSH1 0x1 DUP6 ADD SWAP5 POP PUSH1 0x20 DUP2 ADD SWAP1 POP PUSH2 0x919 JUMP JUMPDEST DUP7 DUP4 LT ISZERO PUSH2 0x95B JUMPI DUP5 DUP10 ADD SLOAD PUSH2 0x957 PUSH1 0x1F DUP10 AND DUP3 PUSH2 0x75F JUMP JUMPDEST DUP4 SSTORE POP JUMPDEST PUSH1 0x1 PUSH1 0x2 DUP9 MUL ADD DUP9 SSTORE POP POP POP JUMPDEST POP POP POP POP POP POP JUMPDEST JUMP INVALID LOG2 PUSH5 0x6970667358 0x22 SLT KECCAK256 DUP13 0xE6 MLOAD 0xFC MSIZE MULMOD LOG1 0xD0 DUP7 LOG3 SHL ADDRESS 0xEC CODECOPY PUSH29 0xC2127231CE7DABF381CE74AC5A20E9CE9764736F6C634300081A003300 "
				},
				"gasEstimates": {
					"creation": {
						"codeDepositCost": "494200",
						"executionCost": "528",
						"totalCost": "494728"
					},
					"external": {
						"a()": "infinite",
						"getArray(uint256[])": "infinite",
						"setStr(string)": "infinite",
						"tt()": "infinite"
					},
					"internal": {
						"_setStr(string storage pointer)": "infinite"
					}
				},
				"methodIdentifiers": {
					"a()": "0dbe671f",
					"getArray(uint256[])": "dd292604",
					"setStr(string)": "191347df",
					"tt()": "1e36169e"
				}
			},
			"storageLayout": {
				"storage": [
					{
						"astId": 10,
						"contract": "storage.sol:MyStorage",
						"label": "tt",
						"offset": 0,
						"slot": "0",
						"type": "t_struct(Test)7_storage"
					},
					{
						"astId": 12,
						"contract": "storage.sol:MyStorage",
						"label": "a",
						"offset": 0,
						"slot": "2",
						"type": "t_string_storage"
					}
				],
				"types": {
					"t_array(t_uint256)dyn_storage": {
						"base": "t_uint256",
						"encoding": "dynamic_array",
						"label": "uint256[]",
						"numberOfBytes": "32"
					},
					"t_string_storage": {
						"encoding": "bytes",
						"label": "string",
						"numberOfBytes": "32"
					},
					"t_struct(Test)7_storage": {
						"encoding": "inplace",
						"label": "struct MyStorage.Test",
						"members": [
							{
								"astId": 3,
								"contract": "storage.sol:MyStorage",
								"label": "testStr",
								"offset": 0,
								"slot": "0",
								"type": "t_string_storage"
							},
							{
								"astId": 6,
								"contract": "storage.sol:MyStorage",
								"label": "testArray",
								"offset": 0,
								"slot": "1",
								"type": "t_array(t_uint256)dyn_storage"
							}
						],
						"numberOfBytes": "64"
					},
					"t_uint256": {
						"encoding": "inplace",
						"label": "uint256",
						"numberOfBytes": "32"
					}
				}
			},
			"userdoc": {
				"kind": "user",
				"methods": {},
				"version": 1
			}
		}
	}
}