{
	"error.sol": {
		"myerrors": {
			"abi": [
				{
					"inputs": [
						{
							"internalType": "address",
							"name": "caller",
							"type": "address"
						},
						{
							"internalType": "bytes",
							"name": "data",
							"type": "bytes"
						},
						{
							"internalType": "uint256",
							"name": "i",
							"type": "uint256"
						}
					],
					"name": "MyErr",
					"type": "error"
				},
				{
					"inputs": [
						{
							"internalType": "uint256",
							"name": "x",
							"type": "uint256"
						}
					],
					"name": "checkInWithAssert",
					"outputs": [
						{
							"internalType": "uint256",
							"name": "",
							"type": "uint256"
						}
					],
					"stateMutability": "nonpayable",
					"type": "function"
				},
				{
					"inputs": [
						{
							"internalType": "uint256",
							"name": "x",
							"type": "uint256"
						}
					],
					"name": "checkInWithRevert",
					"outputs": [
						{
							"internalType": "uint256",
							"name": "",
							"type": "uint256"
						}
					],
					"stateMutability": "nonpayable",
					"type": "function"
				},
				{
					"inputs": [
						{
							"internalType": "uint256",
							"name": "x",
							"type": "uint256"
						}
					],
					"name": "checkInput",
					"outputs": [
						{
							"internalType": "uint256",
							"name": "",
							"type": "uint256"
						}
					],
					"stateMutability": "nonpayable",
					"type": "function"
				},
				{
					"inputs": [],
					"name": "m_count",
					"outputs": [
						{
							"internalType": "uint256",
							"name": "",
							"type": "uint256"
						}
					],
					"stateMutability": "view",
					"type": "function"
				},
				{
					"inputs": [],
					"name": "testAssert",
					"outputs": [],
					"stateMutability": "view",
					"type": "function"
				},
				{
					"inputs": [
						{
							"internalType": "uint256",
							"name": "x",
							"type": "uint256"
						}
					],
					"name": "testCostumError",
					"outputs": [],
					"stateMutability": "view",
					"type": "function"
				}
			],
			"devdoc": {
				"kind": "dev",
				"methods": {},
				"version": 1
			},
			"evm": {
				"assembly": "    /* \"error.sol\":60:937  contract myerrors{... */\n  mstore(0x40, 0x80)\n    /* \"error.sol\":106:108  10 */\n  0x0a\n    /* \"error.sol\":84:108  uint public m_count = 10 */\n  0x00\n  sstore\n    /* \"error.sol\":60:937  contract myerrors{... */\n  callvalue\n  dup1\n  iszero\n  tag_1\n  jumpi\n  0x00\n  dup1\n  revert\ntag_1:\n  pop\n  dataSize(sub_0)\n  dup1\n  dataOffset(sub_0)\n  0x00\n  codecopy\n  0x00\n  return\nstop\n\nsub_0: assembly {\n        /* \"error.sol\":60:937  contract myerrors{... */\n      mstore(0x40, 0x80)\n      callvalue\n      dup1\n      iszero\n      tag_1\n      jumpi\n      0x00\n      dup1\n      revert\n    tag_1:\n      pop\n      jumpi(tag_2, lt(calldatasize, 0x04))\n      shr(0xe0, calldataload(0x00))\n      dup1\n      0x021b8a7f\n      eq\n      tag_3\n      jumpi\n      dup1\n      0x2b813bc0\n      eq\n      tag_4\n      jumpi\n      dup1\n      0x5912a481\n      eq\n      tag_5\n      jumpi\n      dup1\n      0x5ae15b87\n      eq\n      tag_6\n      jumpi\n      dup1\n      0xeb7699c9\n      eq\n      tag_7\n      jumpi\n      dup1\n      0xfd097558\n      eq\n      tag_8\n      jumpi\n    tag_2:\n      0x00\n      dup1\n      revert\n        /* \"error.sol\":121:273  function checkInput(uint x) external returns(uint){... */\n    tag_3:\n      tag_9\n      0x04\n      dup1\n      calldatasize\n      sub\n      dup2\n      add\n      swap1\n      tag_10\n      swap2\n      swap1\n      tag_11\n      jump\t// in\n    tag_10:\n      tag_12\n      jump\t// in\n    tag_9:\n      mload(0x40)\n      tag_13\n      swap2\n      swap1\n      tag_14\n      jump\t// in\n    tag_13:\n      mload(0x40)\n      dup1\n      swap2\n      sub\n      swap1\n      return\n        /* \"error.sol\":663:736  function testAssert() public view{... */\n    tag_4:\n      tag_15\n      tag_16\n      jump\t// in\n    tag_15:\n      stop\n        /* \"error.sol\":84:108  uint public m_count = 10 */\n    tag_5:\n      tag_17\n      tag_18\n      jump\t// in\n    tag_17:\n      mload(0x40)\n      tag_19\n      swap2\n      swap1\n      tag_14\n      jump\t// in\n    tag_19:\n      mload(0x40)\n      dup1\n      swap2\n      sub\n      swap1\n      return\n        /* \"error.sol\":503:655  function checkInWithAssert(uint x) external returns(uint){... */\n    tag_6:\n      tag_20\n      0x04\n      dup1\n      calldatasize\n      sub\n      dup2\n      add\n      swap1\n      tag_21\n      swap2\n      swap1\n      tag_11\n      jump\t// in\n    tag_21:\n      tag_22\n      jump\t// in\n    tag_20:\n      mload(0x40)\n      tag_23\n      swap2\n      swap1\n      tag_14\n      jump\t// in\n    tag_23:\n      mload(0x40)\n      dup1\n      swap2\n      sub\n      swap1\n      return\n        /* \"error.sol\":281:495  function checkInWithRevert(uint x) external returns(uint){... */\n    tag_7:\n      tag_24\n      0x04\n      dup1\n      calldatasize\n      sub\n      dup2\n      add\n      swap1\n      tag_25\n      swap2\n      swap1\n      tag_11\n      jump\t// in\n    tag_25:\n      tag_26\n      jump\t// in\n    tag_24:\n      mload(0x40)\n      tag_27\n      swap2\n      swap1\n      tag_14\n      jump\t// in\n    tag_27:\n      mload(0x40)\n      dup1\n      swap2\n      sub\n      swap1\n      return\n        /* \"error.sol\":796:934  function testCostumError(uint x) public view{... */\n    tag_8:\n      tag_28\n      0x04\n      dup1\n      calldatasize\n      sub\n      dup2\n      add\n      swap1\n      tag_29\n      swap2\n      swap1\n      tag_11\n      jump\t// in\n    tag_29:\n      tag_30\n      jump\t// in\n    tag_28:\n      stop\n        /* \"error.sol\":121:273  function checkInput(uint x) external returns(uint){... */\n    tag_12:\n        /* \"error.sol\":166:170  uint */\n      0x00\n        /* \"error.sol\":182:189  m_count */\n      dup1\n      0x00\n        /* \"error.sol\":182:191  m_count++ */\n      dup2\n      sload\n      dup1\n      swap3\n      swap2\n      swap1\n      tag_32\n      swap1\n      tag_33\n      jump\t// in\n    tag_32:\n      swap2\n      swap1\n      pop\n      sstore\n      pop\n        /* \"error.sol\":214:217  100 */\n      0x64\n        /* \"error.sol\":210:211  x */\n      dup3\n        /* \"error.sol\":210:217  x > 100 */\n      gt\n        /* \"error.sol\":202:240  require(x > 100, \"input should > 100\") */\n      tag_34\n      jumpi\n      mload(0x40)\n      0x08c379a000000000000000000000000000000000000000000000000000000000\n      dup2\n      mstore\n      0x04\n      add\n      tag_35\n      swap1\n      tag_36\n      jump\t// in\n    tag_35:\n      mload(0x40)\n      dup1\n      swap2\n      sub\n      swap1\n      revert\n    tag_34:\n        /* \"error.sol\":258:265  m_count */\n      sload(0x00)\n        /* \"error.sol\":251:265  return m_count */\n      swap1\n      pop\n        /* \"error.sol\":121:273  function checkInput(uint x) external returns(uint){... */\n      swap2\n      swap1\n      pop\n      jump\t// out\n        /* \"error.sol\":663:736  function testAssert() public view{... */\n    tag_16:\n        /* \"error.sol\":725:727  10 */\n      0x0a\n        /* \"error.sol\":714:721  m_count */\n      sload(0x00)\n        /* \"error.sol\":714:727  m_count == 10 */\n      eq\n        /* \"error.sol\":707:728  assert(m_count == 10) */\n      tag_38\n      jumpi\n      tag_39\n      tag_40\n      jump\t// in\n    tag_39:\n    tag_38:\n        /* \"error.sol\":663:736  function testAssert() public view{... */\n      jump\t// out\n        /* \"error.sol\":84:108  uint public m_count = 10 */\n    tag_18:\n      sload(0x00)\n      dup2\n      jump\t// out\n        /* \"error.sol\":503:655  function checkInWithAssert(uint x) external returns(uint){... */\n    tag_22:\n        /* \"error.sol\":555:559  uint */\n      0x00\n        /* \"error.sol\":582:586  1000 */\n      0x03e8\n        /* \"error.sol\":571:578  m_count */\n      0x00\n      dup1\n        /* \"error.sol\":571:586  m_count += 1000 */\n      dup3\n      dup3\n      sload\n      tag_42\n      swap2\n      swap1\n      tag_43\n      jump\t// in\n    tag_42:\n      swap3\n      pop\n      pop\n      dup2\n      swap1\n      sstore\n      pop\n        /* \"error.sol\":609:611  50 */\n      0x32\n        /* \"error.sol\":604:605  x */\n      dup3\n        /* \"error.sol\":604:611  x >= 50 */\n      lt\n      iszero\n        /* \"error.sol\":604:621  x >= 50 && x <=60 */\n      dup1\n      iszero\n      tag_44\n      jumpi\n      pop\n        /* \"error.sol\":619:621  60 */\n      0x3c\n        /* \"error.sol\":615:616  x */\n      dup3\n        /* \"error.sol\":615:621  x <=60 */\n      gt\n      iszero\n        /* \"error.sol\":604:621  x >= 50 && x <=60 */\n    tag_44:\n        /* \"error.sol\":597:622  assert(x >= 50 && x <=60) */\n      tag_45\n      jumpi\n      tag_46\n      tag_40\n      jump\t// in\n    tag_46:\n    tag_45:\n        /* \"error.sol\":640:647  m_count */\n      sload(0x00)\n        /* \"error.sol\":633:647  return m_count */\n      swap1\n      pop\n        /* \"error.sol\":503:655  function checkInWithAssert(uint x) external returns(uint){... */\n      swap2\n      swap1\n      pop\n      jump\t// out\n        /* \"error.sol\":281:495  function checkInWithRevert(uint x) external returns(uint){... */\n    tag_26:\n        /* \"error.sol\":333:337  uint */\n      0x00\n        /* \"error.sol\":359:362  100 */\n      0x64\n        /* \"error.sol\":349:356  m_count */\n      0x00\n      dup1\n        /* \"error.sol\":349:362  m_count +=100 */\n      dup3\n      dup3\n      sload\n      tag_48\n      swap2\n      swap1\n      tag_43\n      jump\t// in\n    tag_48:\n      swap3\n      pop\n      pop\n      dup2\n      swap1\n      sstore\n      pop\n        /* \"error.sol\":381:383  20 */\n      0x14\n        /* \"error.sol\":377:378  x */\n      dup3\n        /* \"error.sol\":377:383  x < 20 */\n      lt\n        /* \"error.sol\":377:393  x < 20 || x > 40 */\n      dup1\n      tag_49\n      jumpi\n      pop\n        /* \"error.sol\":391:393  40 */\n      0x28\n        /* \"error.sol\":387:388  x */\n      dup3\n        /* \"error.sol\":387:393  x > 40 */\n      gt\n        /* \"error.sol\":377:393  x < 20 || x > 40 */\n    tag_49:\n        /* \"error.sol\":373:462  if (x < 20 || x > 40){... */\n      iszero\n      tag_50\n      jumpi\n        /* \"error.sol\":409:450  revert(\"input x should be 20 <= x <= 40\") */\n      mload(0x40)\n      0x08c379a000000000000000000000000000000000000000000000000000000000\n      dup2\n      mstore\n      0x04\n      add\n      tag_51\n      swap1\n      tag_52\n      jump\t// in\n    tag_51:\n      mload(0x40)\n      dup1\n      swap2\n      sub\n      swap1\n      revert\n        /* \"error.sol\":373:462  if (x < 20 || x > 40){... */\n    tag_50:\n        /* \"error.sol\":480:487  m_count */\n      sload(0x00)\n        /* \"error.sol\":473:487  return m_count */\n      swap1\n      pop\n        /* \"error.sol\":281:495  function checkInWithRevert(uint x) external returns(uint){... */\n      swap2\n      swap1\n      pop\n      jump\t// out\n        /* \"error.sol\":796:934  function testCostumError(uint x) public view{... */\n    tag_30:\n        /* \"error.sol\":859:862  100 */\n      0x64\n        /* \"error.sol\":855:856  x */\n      dup2\n        /* \"error.sol\":855:862  x > 100 */\n      gt\n        /* \"error.sol\":851:927  if (x > 100){... */\n      iszero\n      tag_54\n      jumpi\n        /* \"error.sol\":891:901  msg.sender */\n      caller\n        /* \"error.sol\":903:911  msg.data */\n      0x00\n      calldatasize\n        /* \"error.sol\":913:914  x */\n      dup4\n        /* \"error.sol\":885:915  MyErr(msg.sender, msg.data, x) */\n      mload(0x40)\n      0xf497982900000000000000000000000000000000000000000000000000000000\n      dup2\n      mstore\n      0x04\n      add\n      tag_55\n      swap5\n      swap4\n      swap3\n      swap2\n      swap1\n      tag_56\n      jump\t// in\n    tag_55:\n      mload(0x40)\n      dup1\n      swap2\n      sub\n      swap1\n      revert\n        /* \"error.sol\":851:927  if (x > 100){... */\n    tag_54:\n        /* \"error.sol\":796:934  function testCostumError(uint x) public view{... */\n      pop\n      jump\t// out\n        /* \"#utility.yul\":88:205   */\n    tag_58:\n        /* \"#utility.yul\":197:198   */\n      0x00\n        /* \"#utility.yul\":194:195   */\n      dup1\n        /* \"#utility.yul\":187:199   */\n      revert\n        /* \"#utility.yul\":334:411   */\n    tag_60:\n        /* \"#utility.yul\":371:378   */\n      0x00\n        /* \"#utility.yul\":400:405   */\n      dup2\n        /* \"#utility.yul\":389:405   */\n      swap1\n      pop\n        /* \"#utility.yul\":334:411   */\n      swap2\n      swap1\n      pop\n      jump\t// out\n        /* \"#utility.yul\":417:539   */\n    tag_61:\n        /* \"#utility.yul\":490:514   */\n      tag_83\n        /* \"#utility.yul\":508:513   */\n      dup2\n        /* \"#utility.yul\":490:514   */\n      tag_60\n      jump\t// in\n    tag_83:\n        /* \"#utility.yul\":483:488   */\n      dup2\n        /* \"#utility.yul\":480:515   */\n      eq\n        /* \"#utility.yul\":470:533   */\n      tag_84\n      jumpi\n        /* \"#utility.yul\":529:530   */\n      0x00\n        /* \"#utility.yul\":526:527   */\n      dup1\n        /* \"#utility.yul\":519:531   */\n      revert\n        /* \"#utility.yul\":470:533   */\n    tag_84:\n        /* \"#utility.yul\":417:539   */\n      pop\n      jump\t// out\n        /* \"#utility.yul\":545:684   */\n    tag_62:\n        /* \"#utility.yul\":591:596   */\n      0x00\n        /* \"#utility.yul\":629:635   */\n      dup2\n        /* \"#utility.yul\":616:636   */\n      calldataload\n        /* \"#utility.yul\":607:636   */\n      swap1\n      pop\n        /* \"#utility.yul\":645:678   */\n      tag_86\n        /* \"#utility.yul\":672:677   */\n      dup2\n        /* \"#utility.yul\":645:678   */\n      tag_61\n      jump\t// in\n    tag_86:\n        /* \"#utility.yul\":545:684   */\n      swap3\n      swap2\n      pop\n      pop\n      jump\t// out\n        /* \"#utility.yul\":690:1019   */\n    tag_11:\n        /* \"#utility.yul\":749:755   */\n      0x00\n        /* \"#utility.yul\":798:800   */\n      0x20\n        /* \"#utility.yul\":786:795   */\n      dup3\n        /* \"#utility.yul\":777:784   */\n      dup5\n        /* \"#utility.yul\":773:796   */\n      sub\n        /* \"#utility.yul\":769:801   */\n      slt\n        /* \"#utility.yul\":766:885   */\n      iszero\n      tag_88\n      jumpi\n        /* \"#utility.yul\":804:883   */\n      tag_89\n      tag_58\n      jump\t// in\n    tag_89:\n        /* \"#utility.yul\":766:885   */\n    tag_88:\n        /* \"#utility.yul\":924:925   */\n      0x00\n        /* \"#utility.yul\":949:1002   */\n      tag_90\n        /* \"#utility.yul\":994:1001   */\n      dup5\n        /* \"#utility.yul\":985:991   */\n      dup3\n        /* \"#utility.yul\":974:983   */\n      dup6\n        /* \"#utility.yul\":970:992   */\n      add\n        /* \"#utility.yul\":949:1002   */\n      tag_62\n      jump\t// in\n    tag_90:\n        /* \"#utility.yul\":939:1002   */\n      swap2\n      pop\n        /* \"#utility.yul\":895:1012   */\n      pop\n        /* \"#utility.yul\":690:1019   */\n      swap3\n      swap2\n      pop\n      pop\n      jump\t// out\n        /* \"#utility.yul\":1025:1143   */\n    tag_63:\n        /* \"#utility.yul\":1112:1136   */\n      tag_92\n        /* \"#utility.yul\":1130:1135   */\n      dup2\n        /* \"#utility.yul\":1112:1136   */\n      tag_60\n      jump\t// in\n    tag_92:\n        /* \"#utility.yul\":1107:1110   */\n      dup3\n        /* \"#utility.yul\":1100:1137   */\n      mstore\n        /* \"#utility.yul\":1025:1143   */\n      pop\n      pop\n      jump\t// out\n        /* \"#utility.yul\":1149:1371   */\n    tag_14:\n        /* \"#utility.yul\":1242:1246   */\n      0x00\n        /* \"#utility.yul\":1280:1282   */\n      0x20\n        /* \"#utility.yul\":1269:1278   */\n      dup3\n        /* \"#utility.yul\":1265:1283   */\n      add\n        /* \"#utility.yul\":1257:1283   */\n      swap1\n      pop\n        /* \"#utility.yul\":1293:1364   */\n      tag_94\n        /* \"#utility.yul\":1361:1362   */\n      0x00\n        /* \"#utility.yul\":1350:1359   */\n      dup4\n        /* \"#utility.yul\":1346:1363   */\n      add\n        /* \"#utility.yul\":1337:1343   */\n      dup5\n        /* \"#utility.yul\":1293:1364   */\n      tag_63\n      jump\t// in\n    tag_94:\n        /* \"#utility.yul\":1149:1371   */\n      swap3\n      swap2\n      pop\n      pop\n      jump\t// out\n        /* \"#utility.yul\":1377:1557   */\n    tag_64:\n        /* \"#utility.yul\":1425:1502   */\n      0x4e487b7100000000000000000000000000000000000000000000000000000000\n        /* \"#utility.yul\":1422:1423   */\n      0x00\n        /* \"#utility.yul\":1415:1503   */\n      mstore\n        /* \"#utility.yul\":1522:1526   */\n      0x11\n        /* \"#utility.yul\":1519:1520   */\n      0x04\n        /* \"#utility.yul\":1512:1527   */\n      mstore\n        /* \"#utility.yul\":1546:1550   */\n      0x24\n        /* \"#utility.yul\":1543:1544   */\n      0x00\n        /* \"#utility.yul\":1536:1551   */\n      revert\n        /* \"#utility.yul\":1563:1796   */\n    tag_33:\n        /* \"#utility.yul\":1602:1605   */\n      0x00\n        /* \"#utility.yul\":1625:1649   */\n      tag_97\n        /* \"#utility.yul\":1643:1648   */\n      dup3\n        /* \"#utility.yul\":1625:1649   */\n      tag_60\n      jump\t// in\n    tag_97:\n        /* \"#utility.yul\":1616:1649   */\n      swap2\n      pop\n        /* \"#utility.yul\":1671:1737   */\n      0xffffffffffffffffffffffffffffffffffffffffffffffffffffffffffffffff\n        /* \"#utility.yul\":1664:1669   */\n      dup3\n        /* \"#utility.yul\":1661:1738   */\n      sub\n        /* \"#utility.yul\":1658:1761   */\n      tag_98\n      jumpi\n        /* \"#utility.yul\":1741:1759   */\n      tag_99\n      tag_64\n      jump\t// in\n    tag_99:\n        /* \"#utility.yul\":1658:1761   */\n    tag_98:\n        /* \"#utility.yul\":1788:1789   */\n      0x01\n        /* \"#utility.yul\":1781:1786   */\n      dup3\n        /* \"#utility.yul\":1777:1790   */\n      add\n        /* \"#utility.yul\":1770:1790   */\n      swap1\n      pop\n        /* \"#utility.yul\":1563:1796   */\n      swap2\n      swap1\n      pop\n      jump\t// out\n        /* \"#utility.yul\":1802:1971   */\n    tag_65:\n        /* \"#utility.yul\":1886:1897   */\n      0x00\n        /* \"#utility.yul\":1920:1926   */\n      dup3\n        /* \"#utility.yul\":1915:1918   */\n      dup3\n        /* \"#utility.yul\":1908:1927   */\n      mstore\n        /* \"#utility.yul\":1960:1964   */\n      0x20\n        /* \"#utility.yul\":1955:1958   */\n      dup3\n        /* \"#utility.yul\":1951:1965   */\n      add\n        /* \"#utility.yul\":1936:1965   */\n      swap1\n      pop\n        /* \"#utility.yul\":1802:1971   */\n      swap3\n      swap2\n      pop\n      pop\n      jump\t// out\n        /* \"#utility.yul\":1977:2145   */\n    tag_66:\n        /* \"#utility.yul\":2117:2137   */\n      0x696e7075742073686f756c64203e203130300000000000000000000000000000\n        /* \"#utility.yul\":2113:2114   */\n      0x00\n        /* \"#utility.yul\":2105:2111   */\n      dup3\n        /* \"#utility.yul\":2101:2115   */\n      add\n        /* \"#utility.yul\":2094:2138   */\n      mstore\n        /* \"#utility.yul\":1977:2145   */\n      pop\n      jump\t// out\n        /* \"#utility.yul\":2151:2517   */\n    tag_67:\n        /* \"#utility.yul\":2293:2296   */\n      0x00\n        /* \"#utility.yul\":2314:2381   */\n      tag_103\n        /* \"#utility.yul\":2378:2380   */\n      0x12\n        /* \"#utility.yul\":2373:2376   */\n      dup4\n        /* \"#utility.yul\":2314:2381   */\n      tag_65\n      jump\t// in\n    tag_103:\n        /* \"#utility.yul\":2307:2381   */\n      swap2\n      pop\n        /* \"#utility.yul\":2390:2483   */\n      tag_104\n        /* \"#utility.yul\":2479:2482   */\n      dup3\n        /* \"#utility.yul\":2390:2483   */\n      tag_66\n      jump\t// in\n    tag_104:\n        /* \"#utility.yul\":2508:2510   */\n      0x20\n        /* \"#utility.yul\":2503:2506   */\n      dup3\n        /* \"#utility.yul\":2499:2511   */\n      add\n        /* \"#utility.yul\":2492:2511   */\n      swap1\n      pop\n        /* \"#utility.yul\":2151:2517   */\n      swap2\n      swap1\n      pop\n      jump\t// out\n        /* \"#utility.yul\":2523:2942   */\n    tag_36:\n        /* \"#utility.yul\":2689:2693   */\n      0x00\n        /* \"#utility.yul\":2727:2729   */\n      0x20\n        /* \"#utility.yul\":2716:2725   */\n      dup3\n        /* \"#utility.yul\":2712:2730   */\n      add\n        /* \"#utility.yul\":2704:2730   */\n      swap1\n      pop\n        /* \"#utility.yul\":2776:2785   */\n      dup2\n        /* \"#utility.yul\":2770:2774   */\n      dup2\n        /* \"#utility.yul\":2766:2786   */\n      sub\n        /* \"#utility.yul\":2762:2763   */\n      0x00\n        /* \"#utility.yul\":2751:2760   */\n      dup4\n        /* \"#utility.yul\":2747:2764   */\n      add\n        /* \"#utility.yul\":2740:2787   */\n      mstore\n        /* \"#utility.yul\":2804:2935   */\n      tag_106\n        /* \"#utility.yul\":2930:2934   */\n      dup2\n        /* \"#utility.yul\":2804:2935   */\n      tag_67\n      jump\t// in\n    tag_106:\n        /* \"#utility.yul\":2796:2935   */\n      swap1\n      pop\n        /* \"#utility.yul\":2523:2942   */\n      swap2\n      swap1\n      pop\n      jump\t// out\n        /* \"#utility.yul\":2948:3128   */\n    tag_40:\n        /* \"#utility.yul\":2996:3073   */\n      0x4e487b7100000000000000000000000000000000000000000000000000000000\n        /* \"#utility.yul\":2993:2994   */\n      0x00\n        /* \"#utility.yul\":2986:3074   */\n      mstore\n        /* \"#utility.yul\":3093:3097   */\n      0x01\n        /* \"#utility.yul\":3090:3091   */\n      0x04\n        /* \"#utility.yul\":3083:3098   */\n      mstore\n        /* \"#utility.yul\":3117:3121   */\n      0x24\n        /* \"#utility.yul\":3114:3115   */\n      0x00\n        /* \"#utility.yul\":3107:3122   */\n      revert\n        /* \"#utility.yul\":3134:3325   */\n    tag_43:\n        /* \"#utility.yul\":3174:3177   */\n      0x00\n        /* \"#utility.yul\":3193:3213   */\n      tag_109\n        /* \"#utility.yul\":3211:3212   */\n      dup3\n        /* \"#utility.yul\":3193:3213   */\n      tag_60\n      jump\t// in\n    tag_109:\n        /* \"#utility.yul\":3188:3213   */\n      swap2\n      pop\n        /* \"#utility.yul\":3227:3247   */\n      tag_110\n        /* \"#utility.yul\":3245:3246   */\n      dup4\n        /* \"#utility.yul\":3227:3247   */\n      tag_60\n      jump\t// in\n    tag_110:\n        /* \"#utility.yul\":3222:3247   */\n      swap3\n      pop\n        /* \"#utility.yul\":3270:3271   */\n      dup3\n        /* \"#utility.yul\":3267:3268   */\n      dup3\n        /* \"#utility.yul\":3263:3272   */\n      add\n        /* \"#utility.yul\":3256:3272   */\n      swap1\n      pop\n        /* \"#utility.yul\":3291:3294   */\n      dup1\n        /* \"#utility.yul\":3288:3289   */\n      dup3\n        /* \"#utility.yul\":3285:3295   */\n      gt\n        /* \"#utility.yul\":3282:3318   */\n      iszero\n      tag_111\n      jumpi\n        /* \"#utility.yul\":3298:3316   */\n      tag_112\n      tag_64\n      jump\t// in\n    tag_112:\n        /* \"#utility.yul\":3282:3318   */\n    tag_111:\n        /* \"#utility.yul\":3134:3325   */\n      swap3\n      swap2\n      pop\n      pop\n      jump\t// out\n        /* \"#utility.yul\":3331:3512   */\n    tag_68:\n        /* \"#utility.yul\":3471:3504   */\n      0x696e70757420782073686f756c64206265203230203c3d2078203c3d20343000\n        /* \"#utility.yul\":3467:3468   */\n      0x00\n        /* \"#utility.yul\":3459:3465   */\n      dup3\n        /* \"#utility.yul\":3455:3469   */\n      add\n        /* \"#utility.yul\":3448:3505   */\n      mstore\n        /* \"#utility.yul\":3331:3512   */\n      pop\n      jump\t// out\n        /* \"#utility.yul\":3518:3884   */\n    tag_69:\n        /* \"#utility.yul\":3660:3663   */\n      0x00\n        /* \"#utility.yul\":3681:3748   */\n      tag_115\n        /* \"#utility.yul\":3745:3747   */\n      0x1f\n        /* \"#utility.yul\":3740:3743   */\n      dup4\n        /* \"#utility.yul\":3681:3748   */\n      tag_65\n      jump\t// in\n    tag_115:\n        /* \"#utility.yul\":3674:3748   */\n      swap2\n      pop\n        /* \"#utility.yul\":3757:3850   */\n      tag_116\n        /* \"#utility.yul\":3846:3849   */\n      dup3\n        /* \"#utility.yul\":3757:3850   */\n      tag_68\n      jump\t// in\n    tag_116:\n        /* \"#utility.yul\":3875:3877   */\n      0x20\n        /* \"#utility.yul\":3870:3873   */\n      dup3\n        /* \"#utility.yul\":3866:3878   */\n      add\n        /* \"#utility.yul\":3859:3878   */\n      swap1\n      pop\n        /* \"#utility.yul\":3518:3884   */\n      swap2\n      swap1\n      pop\n      jump\t// out\n        /* \"#utility.yul\":3890:4309   */\n    tag_52:\n        /* \"#utility.yul\":4056:4060   */\n      0x00\n        /* \"#utility.yul\":4094:4096   */\n      0x20\n        /* \"#utility.yul\":4083:4092   */\n      dup3\n        /* \"#utility.yul\":4079:4097   */\n      add\n        /* \"#utility.yul\":4071:4097   */\n      swap1\n      pop\n        /* \"#utility.yul\":4143:4152   */\n      dup2\n        /* \"#utility.yul\":4137:4141   */\n      dup2\n        /* \"#utility.yul\":4133:4153   */\n      sub\n        /* \"#utility.yul\":4129:4130   */\n      0x00\n        /* \"#utility.yul\":4118:4127   */\n      dup4\n        /* \"#utility.yul\":4114:4131   */\n      add\n        /* \"#utility.yul\":4107:4154   */\n      mstore\n        /* \"#utility.yul\":4171:4302   */\n      tag_118\n        /* \"#utility.yul\":4297:4301   */\n      dup2\n        /* \"#utility.yul\":4171:4302   */\n      tag_69\n      jump\t// in\n    tag_118:\n        /* \"#utility.yul\":4163:4302   */\n      swap1\n      pop\n        /* \"#utility.yul\":3890:4309   */\n      swap2\n      swap1\n      pop\n      jump\t// out\n        /* \"#utility.yul\":4315:4441   */\n    tag_70:\n        /* \"#utility.yul\":4352:4359   */\n      0x00\n        /* \"#utility.yul\":4392:4434   */\n      0xffffffffffffffffffffffffffffffffffffffff\n        /* \"#utility.yul\":4385:4390   */\n      dup3\n        /* \"#utility.yul\":4381:4435   */\n      and\n        /* \"#utility.yul\":4370:4435   */\n      swap1\n      pop\n        /* \"#utility.yul\":4315:4441   */\n      swap2\n      swap1\n      pop\n      jump\t// out\n        /* \"#utility.yul\":4447:4543   */\n    tag_71:\n        /* \"#utility.yul\":4484:4491   */\n      0x00\n        /* \"#utility.yul\":4513:4537   */\n      tag_121\n        /* \"#utility.yul\":4531:4536   */\n      dup3\n        /* \"#utility.yul\":4513:4537   */\n      tag_70\n      jump\t// in\n    tag_121:\n        /* \"#utility.yul\":4502:4537   */\n      swap1\n      pop\n        /* \"#utility.yul\":4447:4543   */\n      swap2\n      swap1\n      pop\n      jump\t// out\n        /* \"#utility.yul\":4549:4667   */\n    tag_72:\n        /* \"#utility.yul\":4636:4660   */\n      tag_123\n        /* \"#utility.yul\":4654:4659   */\n      dup2\n        /* \"#utility.yul\":4636:4660   */\n      tag_71\n      jump\t// in\n    tag_123:\n        /* \"#utility.yul\":4631:4634   */\n      dup3\n        /* \"#utility.yul\":4624:4661   */\n      mstore\n        /* \"#utility.yul\":4549:4667   */\n      pop\n      pop\n      jump\t// out\n        /* \"#utility.yul\":4673:4841   */\n    tag_73:\n        /* \"#utility.yul\":4756:4767   */\n      0x00\n        /* \"#utility.yul\":4790:4796   */\n      dup3\n        /* \"#utility.yul\":4785:4788   */\n      dup3\n        /* \"#utility.yul\":4778:4797   */\n      mstore\n        /* \"#utility.yul\":4830:4834   */\n      0x20\n        /* \"#utility.yul\":4825:4828   */\n      dup3\n        /* \"#utility.yul\":4821:4835   */\n      add\n        /* \"#utility.yul\":4806:4835   */\n      swap1\n      pop\n        /* \"#utility.yul\":4673:4841   */\n      swap3\n      swap2\n      pop\n      pop\n      jump\t// out\n        /* \"#utility.yul\":4847:4995   */\n    tag_74:\n        /* \"#utility.yul\":4945:4951   */\n      dup3\n        /* \"#utility.yul\":4940:4943   */\n      dup2\n        /* \"#utility.yul\":4935:4938   */\n      dup4\n        /* \"#utility.yul\":4922:4952   */\n      calldatacopy\n        /* \"#utility.yul\":4986:4987   */\n      0x00\n        /* \"#utility.yul\":4977:4983   */\n      dup4\n        /* \"#utility.yul\":4972:4975   */\n      dup4\n        /* \"#utility.yul\":4968:4984   */\n      add\n        /* \"#utility.yul\":4961:4988   */\n      mstore\n        /* \"#utility.yul\":4847:4995   */\n      pop\n      pop\n      pop\n      jump\t// out\n        /* \"#utility.yul\":5001:5103   */\n    tag_75:\n        /* \"#utility.yul\":5042:5048   */\n      0x00\n        /* \"#utility.yul\":5093:5095   */\n      0x1f\n        /* \"#utility.yul\":5089:5096   */\n      not\n        /* \"#utility.yul\":5084:5086   */\n      0x1f\n        /* \"#utility.yul\":5077:5082   */\n      dup4\n        /* \"#utility.yul\":5073:5087   */\n      add\n        /* \"#utility.yul\":5069:5097   */\n      and\n        /* \"#utility.yul\":5059:5097   */\n      swap1\n      pop\n        /* \"#utility.yul\":5001:5103   */\n      swap2\n      swap1\n      pop\n      jump\t// out\n        /* \"#utility.yul\":5131:5445   */\n    tag_76:\n        /* \"#utility.yul\":5227:5230   */\n      0x00\n        /* \"#utility.yul\":5248:5318   */\n      tag_128\n        /* \"#utility.yul\":5311:5317   */\n      dup4\n        /* \"#utility.yul\":5306:5309   */\n      dup6\n        /* \"#utility.yul\":5248:5318   */\n      tag_73\n      jump\t// in\n    tag_128:\n        /* \"#utility.yul\":5241:5318   */\n      swap4\n      pop\n        /* \"#utility.yul\":5328:5384   */\n      tag_129\n        /* \"#utility.yul\":5377:5383   */\n      dup4\n        /* \"#utility.yul\":5372:5375   */\n      dup6\n        /* \"#utility.yul\":5365:5370   */\n      dup5\n        /* \"#utility.yul\":5328:5384   */\n      tag_74\n      jump\t// in\n    tag_129:\n        /* \"#utility.yul\":5409:5438   */\n      tag_130\n        /* \"#utility.yul\":5431:5437   */\n      dup4\n        /* \"#utility.yul\":5409:5438   */\n      tag_75\n      jump\t// in\n    tag_130:\n        /* \"#utility.yul\":5404:5407   */\n      dup5\n        /* \"#utility.yul\":5400:5439   */\n      add\n        /* \"#utility.yul\":5393:5439   */\n      swap1\n      pop\n        /* \"#utility.yul\":5131:5445   */\n      swap4\n      swap3\n      pop\n      pop\n      pop\n      jump\t// out\n        /* \"#utility.yul\":5451:6000   */\n    tag_56:\n        /* \"#utility.yul\":5628:5632   */\n      0x00\n        /* \"#utility.yul\":5666:5668   */\n      0x60\n        /* \"#utility.yul\":5655:5664   */\n      dup3\n        /* \"#utility.yul\":5651:5669   */\n      add\n        /* \"#utility.yul\":5643:5669   */\n      swap1\n      pop\n        /* \"#utility.yul\":5679:5750   */\n      tag_132\n        /* \"#utility.yul\":5747:5748   */\n      0x00\n        /* \"#utility.yul\":5736:5745   */\n      dup4\n        /* \"#utility.yul\":5732:5749   */\n      add\n        /* \"#utility.yul\":5723:5729   */\n      dup8\n        /* \"#utility.yul\":5679:5750   */\n      tag_72\n      jump\t// in\n    tag_132:\n        /* \"#utility.yul\":5797:5806   */\n      dup2\n        /* \"#utility.yul\":5791:5795   */\n      dup2\n        /* \"#utility.yul\":5787:5807   */\n      sub\n        /* \"#utility.yul\":5782:5784   */\n      0x20\n        /* \"#utility.yul\":5771:5780   */\n      dup4\n        /* \"#utility.yul\":5767:5785   */\n      add\n        /* \"#utility.yul\":5760:5808   */\n      mstore\n        /* \"#utility.yul\":5825:5911   */\n      tag_133\n        /* \"#utility.yul\":5906:5910   */\n      dup2\n        /* \"#utility.yul\":5897:5903   */\n      dup6\n        /* \"#utility.yul\":5889:5895   */\n      dup8\n        /* \"#utility.yul\":5825:5911   */\n      tag_76\n      jump\t// in\n    tag_133:\n        /* \"#utility.yul\":5817:5911   */\n      swap1\n      pop\n        /* \"#utility.yul\":5921:5993   */\n      tag_134\n        /* \"#utility.yul\":5989:5991   */\n      0x40\n        /* \"#utility.yul\":5978:5987   */\n      dup4\n        /* \"#utility.yul\":5974:5992   */\n      add\n        /* \"#utility.yul\":5965:5971   */\n      dup5\n        /* \"#utility.yul\":5921:5993   */\n      tag_63\n      jump\t// in\n    tag_134:\n        /* \"#utility.yul\":5451:6000   */\n      swap6\n      swap5\n      pop\n      pop\n      pop\n      pop\n      pop\n      jump\t// out\n\n    auxdata: 0xa2646970667358221220ae2b50fb526abe5b612a7c9b65d54a4e7f02bebc0f3c51fbe86ccf6835b3acd864736f6c634300081a0033\n}\n",
				"bytecode": {
					"linkReferences": {},
					"object": "6080604052600a5f553480156012575f80fd5b50610601806100205f395ff3fe608060405234801561000f575f80fd5b5060043610610060575f3560e01c8063021b8a7f146100645780632b813bc0146100945780635912a4811461009e5780635ae15b87146100bc578063eb7699c9146100ec578063fd0975581461011c575b5f80fd5b61007e600480360381019061007991906102ed565b610138565b60405161008b9190610327565b60405180910390f35b61009c61019b565b005b6100a66101af565b6040516100b39190610327565b60405180910390f35b6100d660048036038101906100d191906102ed565b6101b4565b6040516100e39190610327565b60405180910390f35b610106600480360381019061010191906102ed565b6101f6565b6040516101139190610327565b60405180910390f35b610136600480360381019061013191906102ed565b610267565b005b5f805f81548092919061014a9061036d565b919050555060648211610192576040517f08c379a00000000000000000000000000000000000000000000000000000000081526004016101899061040e565b60405180910390fd5b5f549050919050565b600a5f54146101ad576101ac61042c565b5b565b5f5481565b5f6103e85f808282546101c79190610459565b92505081905550603282101580156101e05750603c8211155b6101ed576101ec61042c565b5b5f549050919050565b5f60645f808282546102089190610459565b92505081905550601482108061021e5750602882115b1561025e576040517f08c379a0000000000000000000000000000000000000000000000000000000008152600401610255906104d6565b60405180910390fd5b5f549050919050565b60648111156102b357335f36836040517ff49798290000000000000000000000000000000000000000000000000000000081526004016102aa949392919061058d565b60405180910390fd5b50565b5f80fd5b5f819050919050565b6102cc816102ba565b81146102d6575f80fd5b50565b5f813590506102e7816102c3565b92915050565b5f60208284031215610302576103016102b6565b5b5f61030f848285016102d9565b91505092915050565b610321816102ba565b82525050565b5f60208201905061033a5f830184610318565b92915050565b7f4e487b71000000000000000000000000000000000000000000000000000000005f52601160045260245ffd5b5f610377826102ba565b91507fffffffffffffffffffffffffffffffffffffffffffffffffffffffffffffffff82036103a9576103a8610340565b5b600182019050919050565b5f82825260208201905092915050565b7f696e7075742073686f756c64203e2031303000000000000000000000000000005f82015250565b5f6103f86012836103b4565b9150610403826103c4565b602082019050919050565b5f6020820190508181035f830152610425816103ec565b9050919050565b7f4e487b71000000000000000000000000000000000000000000000000000000005f52600160045260245ffd5b5f610463826102ba565b915061046e836102ba565b925082820190508082111561048657610485610340565b5b92915050565b7f696e70757420782073686f756c64206265203230203c3d2078203c3d203430005f82015250565b5f6104c0601f836103b4565b91506104cb8261048c565b602082019050919050565b5f6020820190508181035f8301526104ed816104b4565b9050919050565b5f73ffffffffffffffffffffffffffffffffffffffff82169050919050565b5f61051d826104f4565b9050919050565b61052d81610513565b82525050565b5f82825260208201905092915050565b828183375f83830152505050565b5f601f19601f8301169050919050565b5f61056c8385610533565b9350610579838584610543565b61058283610551565b840190509392505050565b5f6060820190506105a05f830187610524565b81810360208301526105b3818587610561565b90506105c26040830184610318565b9594505050505056fea2646970667358221220ae2b50fb526abe5b612a7c9b65d54a4e7f02bebc0f3c51fbe86ccf6835b3acd864736f6c634300081a0033",
					"opcodes": "PUSH1 0x80 PUSH1 0x40 MSTORE PUSH1 0xA PUSH0 SSTORE CALLVALUE DUP1 ISZERO PUSH1 0x12 JUMPI PUSH0 DUP1 REVERT JUMPDEST POP PUSH2 0x601 DUP1 PUSH2 0x20 PUSH0 CODECOPY PUSH0 RETURN INVALID PUSH1 0x80 PUSH1 0x40 MSTORE CALLVALUE DUP1 ISZERO PUSH2 0xF JUMPI PUSH0 DUP1 REVERT JUMPDEST POP PUSH1 0x4 CALLDATASIZE LT PUSH2 0x60 JUMPI PUSH0 CALLDATALOAD PUSH1 0xE0 SHR DUP1 PUSH4 0x21B8A7F EQ PUSH2 0x64 JUMPI DUP1 PUSH4 0x2B813BC0 EQ PUSH2 0x94 JUMPI DUP1 PUSH4 0x5912A481 EQ PUSH2 0x9E JUMPI DUP1 PUSH4 0x5AE15B87 EQ PUSH2 0xBC JUMPI DUP1 PUSH4 0xEB7699C9 EQ PUSH2 0xEC JUMPI DUP1 PUSH4 0xFD097558 EQ PUSH2 0x11C JUMPI JUMPDEST PUSH0 DUP1 REVERT JUMPDEST PUSH2 0x7E PUSH1 0x4 DUP1 CALLDATASIZE SUB DUP2 ADD SWAP1 PUSH2 0x79 SWAP2 SWAP1 PUSH2 0x2ED JUMP JUMPDEST PUSH2 0x138 JUMP JUMPDEST PUSH1 0x40 MLOAD PUSH2 0x8B SWAP2 SWAP1 PUSH2 0x327 JUMP JUMPDEST PUSH1 0x40 MLOAD DUP1 SWAP2 SUB SWAP1 RETURN JUMPDEST PUSH2 0x9C PUSH2 0x19B JUMP JUMPDEST STOP JUMPDEST PUSH2 0xA6 PUSH2 0x1AF JUMP JUMPDEST PUSH1 0x40 MLOAD PUSH2 0xB3 SWAP2 SWAP1 PUSH2 0x327 JUMP JUMPDEST PUSH1 0x40 MLOAD DUP1 SWAP2 SUB SWAP1 RETURN JUMPDEST PUSH2 0xD6 PUSH1 0x4 DUP1 CALLDATASIZE SUB DUP2 ADD SWAP1 PUSH2 0xD1 SWAP2 SWAP1 PUSH2 0x2ED JUMP JUMPDEST PUSH2 0x1B4 JUMP JUMPDEST PUSH1 0x40 MLOAD PUSH2 0xE3 SWAP2 SWAP1 PUSH2 0x327 JUMP JUMPDEST PUSH1 0x40 MLOAD DUP1 SWAP2 SUB SWAP1 RETURN JUMPDEST PUSH2 0x106 PUSH1 0x4 DUP1 CALLDATASIZE SUB DUP2 ADD SWAP1 PUSH2 0x101 SWAP2 SWAP1 PUSH2 0x2ED JUMP JUMPDEST PUSH2 0x1F6 JUMP JUMPDEST PUSH1 0x40 MLOAD PUSH2 0x113 SWAP2 SWAP1 PUSH2 0x327 JUMP JUMPDEST PUSH1 0x40 MLOAD DUP1 SWAP2 SUB SWAP1 RETURN JUMPDEST PUSH2 0x136 PUSH1 0x4 DUP1 CALLDATASIZE SUB DUP2 ADD SWAP1 PUSH2 0x131 SWAP2 SWAP1 PUSH2 0x2ED JUMP JUMPDEST PUSH2 0x267 JUMP JUMPDEST STOP JUMPDEST PUSH0 DUP1 PUSH0 DUP2 SLOAD DUP1 SWAP3 SWAP2 SWAP1 PUSH2 0x14A SWAP1 PUSH2 0x36D JUMP JUMPDEST SWAP2 SWAP1 POP SSTORE POP PUSH1 0x64 DUP3 GT PUSH2 0x192 JUMPI PUSH1 0x40 MLOAD PUSH32 0x8C379A000000000000000000000000000000000000000000000000000000000 DUP2 MSTORE PUSH1 0x4 ADD PUSH2 0x189 SWAP1 PUSH2 0x40E JUMP JUMPDEST PUSH1 0x40 MLOAD DUP1 SWAP2 SUB SWAP1 REVERT JUMPDEST PUSH0 SLOAD SWAP1 POP SWAP2 SWAP1 POP JUMP JUMPDEST PUSH1 0xA PUSH0 SLOAD EQ PUSH2 0x1AD JUMPI PUSH2 0x1AC PUSH2 0x42C JUMP JUMPDEST JUMPDEST JUMP JUMPDEST PUSH0 SLOAD DUP2 JUMP JUMPDEST PUSH0 PUSH2 0x3E8 PUSH0 DUP1 DUP3 DUP3 SLOAD PUSH2 0x1C7 SWAP2 SWAP1 PUSH2 0x459 JUMP JUMPDEST SWAP3 POP POP DUP2 SWAP1 SSTORE POP PUSH1 0x32 DUP3 LT ISZERO DUP1 ISZERO PUSH2 0x1E0 JUMPI POP PUSH1 0x3C DUP3 GT ISZERO JUMPDEST PUSH2 0x1ED JUMPI PUSH2 0x1EC PUSH2 0x42C JUMP JUMPDEST JUMPDEST PUSH0 SLOAD SWAP1 POP SWAP2 SWAP1 POP JUMP JUMPDEST PUSH0 PUSH1 0x64 PUSH0 DUP1 DUP3 DUP3 SLOAD PUSH2 0x208 SWAP2 SWAP1 PUSH2 0x459 JUMP JUMPDEST SWAP3 POP POP DUP2 SWAP1 SSTORE POP PUSH1 0x14 DUP3 LT DUP1 PUSH2 0x21E JUMPI POP PUSH1 0x28 DUP3 GT JUMPDEST ISZERO PUSH2 0x25E JUMPI PUSH1 0x40 MLOAD PUSH32 0x8C379A000000000000000000000000000000000000000000000000000000000 DUP2 MSTORE PUSH1 0x4 ADD PUSH2 0x255 SWAP1 PUSH2 0x4D6 JUMP JUMPDEST PUSH1 0x40 MLOAD DUP1 SWAP2 SUB SWAP1 REVERT JUMPDEST PUSH0 SLOAD SWAP1 POP SWAP2 SWAP1 POP JUMP JUMPDEST PUSH1 0x64 DUP2 GT ISZERO PUSH2 0x2B3 JUMPI CALLER PUSH0 CALLDATASIZE DUP4 PUSH1 0x40 MLOAD PUSH32 0xF497982900000000000000000000000000000000000000000000000000000000 DUP2 MSTORE PUSH1 0x4 ADD PUSH2 0x2AA SWAP5 SWAP4 SWAP3 SWAP2 SWAP1 PUSH2 0x58D JUMP JUMPDEST PUSH1 0x40 MLOAD DUP1 SWAP2 SUB SWAP1 REVERT JUMPDEST POP JUMP JUMPDEST PUSH0 DUP1 REVERT JUMPDEST PUSH0 DUP2 SWAP1 POP SWAP2 SWAP1 POP JUMP JUMPDEST PUSH2 0x2CC DUP2 PUSH2 0x2BA JUMP JUMPDEST DUP2 EQ PUSH2 0x2D6 JUMPI PUSH0 DUP1 REVERT JUMPDEST POP JUMP JUMPDEST PUSH0 DUP2 CALLDATALOAD SWAP1 POP PUSH2 0x2E7 DUP2 PUSH2 0x2C3 JUMP JUMPDEST SWAP3 SWAP2 POP POP JUMP JUMPDEST PUSH0 PUSH1 0x20 DUP3 DUP5 SUB SLT ISZERO PUSH2 0x302 JUMPI PUSH2 0x301 PUSH2 0x2B6 JUMP JUMPDEST JUMPDEST PUSH0 PUSH2 0x30F DUP5 DUP3 DUP6 ADD PUSH2 0x2D9 JUMP JUMPDEST SWAP2 POP POP SWAP3 SWAP2 POP POP JUMP JUMPDEST PUSH2 0x321 DUP2 PUSH2 0x2BA JUMP JUMPDEST DUP3 MSTORE POP POP JUMP JUMPDEST PUSH0 PUSH1 0x20 DUP3 ADD SWAP1 POP PUSH2 0x33A PUSH0 DUP4 ADD DUP5 PUSH2 0x318 JUMP JUMPDEST SWAP3 SWAP2 POP POP JUMP JUMPDEST PUSH32 0x4E487B7100000000000000000000000000000000000000000000000000000000 PUSH0 MSTORE PUSH1 0x11 PUSH1 0x4 MSTORE PUSH1 0x24 PUSH0 REVERT JUMPDEST PUSH0 PUSH2 0x377 DUP3 PUSH2 0x2BA JUMP JUMPDEST SWAP2 POP PUSH32 0xFFFFFFFFFFFFFFFFFFFFFFFFFFFFFFFFFFFFFFFFFFFFFFFFFFFFFFFFFFFFFFFF DUP3 SUB PUSH2 0x3A9 JUMPI PUSH2 0x3A8 PUSH2 0x340 JUMP JUMPDEST JUMPDEST PUSH1 0x1 DUP3 ADD SWAP1 POP SWAP2 SWAP1 POP JUMP JUMPDEST PUSH0 DUP3 DUP3 MSTORE PUSH1 0x20 DUP3 ADD SWAP1 POP SWAP3 SWAP2 POP POP JUMP JUMPDEST PUSH32 0x696E7075742073686F756C64203E203130300000000000000000000000000000 PUSH0 DUP3 ADD MSTORE POP JUMP JUMPDEST PUSH0 PUSH2 0x3F8 PUSH1 0x12 DUP4 PUSH2 0x3B4 JUMP JUMPDEST SWAP2 POP PUSH2 0x403 DUP3 PUSH2 0x3C4 JUMP JUMPDEST PUSH1 0x20 DUP3 ADD SWAP1 POP SWAP2 SWAP1 POP JUMP JUMPDEST PUSH0 PUSH1 0x20 DUP3 ADD SWAP1 POP DUP2 DUP2 SUB PUSH0 DUP4 ADD MSTORE PUSH2 0x425 DUP2 PUSH2 0x3EC JUMP JUMPDEST SWAP1 POP SWAP2 SWAP1 POP JUMP JUMPDEST PUSH32 0x4E487B7100000000000000000000000000000000000000000000000000000000 PUSH0 MSTORE PUSH1 0x1 PUSH1 0x4 MSTORE PUSH1 0x24 PUSH0 REVERT JUMPDEST PUSH0 PUSH2 0x463 DUP3 PUSH2 0x2BA JUMP JUMPDEST SWAP2 POP PUSH2 0x46E DUP4 PUSH2 0x2BA JUMP JUMPDEST SWAP3 POP DUP3 DUP3 ADD SWAP1 POP DUP1 DUP3 GT ISZERO PUSH2 0x486 JUMPI PUSH2 0x485 PUSH2 0x340 JUMP JUMPDEST JUMPDEST SWAP3 SWAP2 POP POP JUMP JUMPDEST PUSH32 0x696E70757420782073686F756C64206265203230203C3D2078203C3D20343000 PUSH0 DUP3 ADD MSTORE POP JUMP JUMPDEST PUSH0 PUSH2 0x4C0 PUSH1 0x1F DUP4 PUSH2 0x3B4 JUMP JUMPDEST SWAP2 POP PUSH2 0x4CB DUP3 PUSH2 0x48C JUMP JUMPDEST PUSH1 0x20 DUP3 ADD SWAP1 POP SWAP2 SWAP1 POP JUMP JUMPDEST PUSH0 PUSH1 0x20 DUP3 ADD SWAP1 POP DUP2 DUP2 SUB PUSH0 DUP4 ADD MSTORE PUSH2 0x4ED DUP2 PUSH2 0x4B4 JUMP JUMPDEST SWAP1 POP SWAP2 SWAP1 POP JUMP JUMPDEST PUSH0 PUSH20 0xFFFFFFFFFFFFFFFFFFFFFFFFFFFFFFFFFFFFFFFF DUP3 AND SWAP1 POP SWAP2 SWAP1 POP JUMP JUMPDEST PUSH0 PUSH2 0x51D DUP3 PUSH2 0x4F4 JUMP JUMPDEST SWAP1 POP SWAP2 SWAP1 POP JUMP JUMPDEST PUSH2 0x52D DUP2 PUSH2 0x513 JUMP JUMPDEST DUP3 MSTORE POP POP JUMP JUMPDEST PUSH0 DUP3 DUP3 MSTORE PUSH1 0x20 DUP3 ADD SWAP1 POP SWAP3 SWAP2 POP POP JUMP JUMPDEST DUP3 DUP2 DUP4 CALLDATACOPY PUSH0 DUP4 DUP4 ADD MSTORE POP POP POP JUMP JUMPDEST PUSH0 PUSH1 0x1F NOT PUSH1 0x1F DUP4 ADD AND SWAP1 POP SWAP2 SWAP1 POP JUMP JUMPDEST PUSH0 PUSH2 0x56C DUP4 DUP6 PUSH2 0x533 JUMP JUMPDEST SWAP4 POP PUSH2 0x579 DUP4 DUP6 DUP5 PUSH2 0x543 JUMP JUMPDEST PUSH2 0x582 DUP4 PUSH2 0x551 JUMP JUMPDEST DUP5 ADD SWAP1 POP SWAP4 SWAP3 POP POP POP JUMP JUMPDEST PUSH0 PUSH1 0x60 DUP3 ADD SWAP1 POP PUSH2 0x5A0 PUSH0 DUP4 ADD DUP8 PUSH2 0x524 JUMP JUMPDEST DUP2 DUP2 SUB PUSH1 0x20 DUP4 ADD MSTORE PUSH2 0x5B3 DUP2 DUP6 DUP8 PUSH2 0x561 JUMP JUMPDEST SWAP1 POP PUSH2 0x5C2 PUSH1 0x40 DUP4 ADD DUP5 PUSH2 0x318 JUMP JUMPDEST SWAP6 SWAP5 POP POP POP POP POP JUMP INVALID LOG2 PUSH5 0x6970667358 0x22 SLT KECCAK256 0xAE 0x2B POP 0xFB MSTORE PUSH11 0xBE5B612A7C9B65D54A4E7F MUL 0xBE 0xBC 0xF EXTCODECOPY MLOAD 0xFB 0xE8 PUSH13 0xCF6835B3ACD864736F6C634300 ADDMOD BYTE STOP CALLER "
				},
				"gasEstimates": {
					"creation": {
						"codeDepositCost": "307400",
						"executionCost": "22452",
						"totalCost": "329852"
					},
					"external": {
						"checkInWithAssert(uint256)": "infinite",
						"checkInWithRevert(uint256)": "infinite",
						"checkInput(uint256)": "infinite",
						"m_count()": "2446",
						"testAssert()": "2292",
						"testCostumError(uint256)": "infinite"
					}
				},
				"methodIdentifiers": {
					"checkInWithAssert(uint256)": "5ae15b87",
					"checkInWithRevert(uint256)": "eb7699c9",
					"checkInput(uint256)": "021b8a7f",
					"m_count()": "5912a481",
					"testAssert()": "2b813bc0",
					"testCostumError(uint256)": "fd097558"
				}
			},
			"storageLayout": {
				"storage": [
					{
						"astId": 4,
						"contract": "error.sol:myerrors",
						"label": "m_count",
						"offset": 0,
						"slot": "0",
						"type": "t_uint256"
					}
				],
				"types": {
					"t_uint256": {
						"encoding": "inplace",
						"label": "uint256",
						"numberOfBytes": "32"
					}
				}
			},
			"userdoc": {
				"kind": "user",
				"methods": {},
				"version": 1
			}
		}
	}
}