{
	"structs.sol": {
		"MyStruct": {
			"abi": [
				{
					"inputs": [
						{
							"internalType": "string",
							"name": "_make",
							"type": "string"
						},
						{
							"internalType": "uint256",
							"name": "_year",
							"type": "uint256"
						},
						{
							"internalType": "address",
							"name": "_owner",
							"type": "address"
						}
					],
					"name": "add",
					"outputs": [],
					"stateMutability": "nonpayable",
					"type": "function"
				},
				{
					"inputs": [
						{
							"internalType": "string",
							"name": "_make",
							"type": "string"
						}
					],
					"name": "getYearByMake",
					"outputs": [
						{
							"components": [
								{
									"internalType": "string",
									"name": "make",
									"type": "string"
								},
								{
									"internalType": "uint256",
									"name": "year",
									"type": "uint256"
								},
								{
									"internalType": "address",
									"name": "owner",
									"type": "address"
								}
							],
							"internalType": "struct MyStruct.Vehicle[]",
							"name": "",
							"type": "tuple[]"
						}
					],
					"stateMutability": "view",
					"type": "function"
				},
				{
					"inputs": [
						{
							"internalType": "address",
							"name": "_owner",
							"type": "address"
						}
					],
					"name": "getYearByOwner",
					"outputs": [
						{
							"components": [
								{
									"internalType": "string",
									"name": "make",
									"type": "string"
								},
								{
									"internalType": "uint256",
									"name": "year",
									"type": "uint256"
								},
								{
									"internalType": "address",
									"name": "owner",
									"type": "address"
								}
							],
							"internalType": "struct MyStruct.Vehicle[]",
							"name": "",
							"type": "tuple[]"
						}
					],
					"stateMutability": "view",
					"type": "function"
				},
				{
					"inputs": [
						{
							"internalType": "uint256",
							"name": "",
							"type": "uint256"
						}
					],
					"name": "v",
					"outputs": [
						{
							"internalType": "string",
							"name": "make",
							"type": "string"
						},
						{
							"internalType": "uint256",
							"name": "year",
							"type": "uint256"
						},
						{
							"internalType": "address",
							"name": "owner",
							"type": "address"
						}
					],
					"stateMutability": "view",
					"type": "function"
				}
			],
			"devdoc": {
				"kind": "dev",
				"methods": {},
				"version": 1
			},
			"evm": {
				"assembly": "    /* \"structs.sol\":60:2172  contract MyStruct{... */\n  mstore(0x40, 0x80)\n  callvalue\n  dup1\n  iszero\n  tag_1\n  jumpi\n  0x00\n  dup1\n  revert\ntag_1:\n  pop\n  dataSize(sub_0)\n  dup1\n  dataOffset(sub_0)\n  0x00\n  codecopy\n  0x00\n  return\nstop\n\nsub_0: assembly {\n        /* \"structs.sol\":60:2172  contract MyStruct{... */\n      mstore(0x40, 0x80)\n      callvalue\n      dup1\n      iszero\n      tag_1\n      jumpi\n      0x00\n      dup1\n      revert\n    tag_1:\n      pop\n      jumpi(tag_2, lt(calldatasize, 0x04))\n      shr(0xe0, calldataload(0x00))\n      dup1\n      0x1d9ee5e6\n      eq\n      tag_3\n      jumpi\n      dup1\n      0x34f79275\n      eq\n      tag_4\n      jumpi\n      dup1\n      0xdb528ff5\n      eq\n      tag_5\n      jumpi\n      dup1\n      0xdb5da3fd\n      eq\n      tag_6\n      jumpi\n    tag_2:\n      0x00\n      dup1\n      revert\n        /* \"structs.sol\":180:198  Vehicle[] public v */\n    tag_3:\n      tag_7\n      0x04\n      dup1\n      calldatasize\n      sub\n      dup2\n      add\n      swap1\n      tag_8\n      swap2\n      swap1\n      tag_9\n      jump\t// in\n    tag_8:\n      tag_10\n      jump\t// in\n    tag_7:\n      mload(0x40)\n      tag_11\n      swap4\n      swap3\n      swap2\n      swap1\n      tag_12\n      jump\t// in\n    tag_11:\n      mload(0x40)\n      dup1\n      swap2\n      sub\n      swap1\n      return\n        /* \"structs.sol\":253:416  function add(string memory _make, uint _year, address _owner) public {... */\n    tag_4:\n      tag_13\n      0x04\n      dup1\n      calldatasize\n      sub\n      dup2\n      add\n      swap1\n      tag_14\n      swap2\n      swap1\n      tag_15\n      jump\t// in\n    tag_14:\n      tag_16\n      jump\t// in\n    tag_13:\n      stop\n        /* \"structs.sol\":1493:2165  function getYearByOwner(address _owner) public view returns(Vehicle[] memory){... */\n    tag_5:\n      tag_17\n      0x04\n      dup1\n      calldatasize\n      sub\n      dup2\n      add\n      swap1\n      tag_18\n      swap2\n      swap1\n      tag_19\n      jump\t// in\n    tag_18:\n      tag_20\n      jump\t// in\n    tag_17:\n      mload(0x40)\n      tag_21\n      swap2\n      swap1\n      tag_22\n      jump\t// in\n    tag_21:\n      mload(0x40)\n      dup1\n      swap2\n      sub\n      swap1\n      return\n        /* \"structs.sol\":745:1485  function getYearByMake(string memory _make) public view returns(Vehicle[] memory) {... */\n    tag_6:\n      tag_23\n      0x04\n      dup1\n      calldatasize\n      sub\n      dup2\n      add\n      swap1\n      tag_24\n      swap2\n      swap1\n      tag_25\n      jump\t// in\n    tag_24:\n      tag_26\n      jump\t// in\n    tag_23:\n      mload(0x40)\n      tag_27\n      swap2\n      swap1\n      tag_22\n      jump\t// in\n    tag_27:\n      mload(0x40)\n      dup1\n      swap2\n      sub\n      swap1\n      return\n        /* \"structs.sol\":180:198  Vehicle[] public v */\n    tag_10:\n      0x00\n      dup2\n      dup2\n      sload\n      dup2\n      lt\n      tag_28\n      jumpi\n      0x00\n      dup1\n      revert\n    tag_28:\n      swap1\n      0x00\n      mstore\n      keccak256(0x00, 0x20)\n      swap1\n      0x03\n      mul\n      add\n      0x00\n      swap2\n      pop\n      swap1\n      pop\n      dup1\n      0x00\n      add\n      dup1\n      sload\n      tag_30\n      swap1\n      tag_31\n      jump\t// in\n    tag_30:\n      dup1\n      0x1f\n      add\n      0x20\n      dup1\n      swap2\n      div\n      mul\n      0x20\n      add\n      mload(0x40)\n      swap1\n      dup2\n      add\n      0x40\n      mstore\n      dup1\n      swap3\n      swap2\n      swap1\n      dup2\n      dup2\n      mstore\n      0x20\n      add\n      dup3\n      dup1\n      sload\n      tag_32\n      swap1\n      tag_31\n      jump\t// in\n    tag_32:\n      dup1\n      iszero\n      tag_33\n      jumpi\n      dup1\n      0x1f\n      lt\n      tag_34\n      jumpi\n      0x0100\n      dup1\n      dup4\n      sload\n      div\n      mul\n      dup4\n      mstore\n      swap2\n      0x20\n      add\n      swap2\n      jump(tag_33)\n    tag_34:\n      dup3\n      add\n      swap2\n      swap1\n      0x00\n      mstore\n      keccak256(0x00, 0x20)\n      swap1\n    tag_35:\n      dup2\n      sload\n      dup2\n      mstore\n      swap1\n      0x01\n      add\n      swap1\n      0x20\n      add\n      dup1\n      dup4\n      gt\n      tag_35\n      jumpi\n      dup3\n      swap1\n      sub\n      0x1f\n      and\n      dup3\n      add\n      swap2\n    tag_33:\n      pop\n      pop\n      pop\n      pop\n      pop\n      swap1\n      dup1\n      0x01\n      add\n      sload\n      swap1\n      dup1\n      0x02\n      add\n      0x00\n      swap1\n      sload\n      swap1\n      0x0100\n      exp\n      swap1\n      div\n      0xffffffffffffffffffffffffffffffffffffffff\n      and\n      swap1\n      pop\n      dup4\n      jump\t// out\n        /* \"structs.sol\":253:416  function add(string memory _make, uint _year, address _owner) public {... */\n    tag_16:\n        /* \"structs.sol\":333:352  Vehicle memory temp */\n      0x00\n        /* \"structs.sol\":355:384  Vehicle(_make, _year, _owner) */\n      mload(0x40)\n      dup1\n      0x60\n      add\n      0x40\n      mstore\n      dup1\n        /* \"structs.sol\":363:368  _make */\n      dup6\n        /* \"structs.sol\":355:384  Vehicle(_make, _year, _owner) */\n      dup2\n      mstore\n      0x20\n      add\n        /* \"structs.sol\":370:375  _year */\n      dup5\n        /* \"structs.sol\":355:384  Vehicle(_make, _year, _owner) */\n      dup2\n      mstore\n      0x20\n      add\n        /* \"structs.sol\":377:383  _owner */\n      dup4\n        /* \"structs.sol\":355:384  Vehicle(_make, _year, _owner) */\n      0xffffffffffffffffffffffffffffffffffffffff\n      and\n      dup2\n      mstore\n      pop\n        /* \"structs.sol\":333:384  Vehicle memory temp = Vehicle(_make, _year, _owner) */\n      swap1\n      pop\n        /* \"structs.sol\":396:397  v */\n      0x00\n        /* \"structs.sol\":403:407  temp */\n      dup2\n        /* \"structs.sol\":396:408  v.push(temp) */\n      swap1\n      dup1\n      0x01\n      dup2\n      sload\n      add\n      dup1\n      dup3\n      sstore\n      dup1\n      swap2\n      pop\n      pop\n      0x01\n      swap1\n      sub\n      swap1\n      0x00\n      mstore\n      keccak256(0x00, 0x20)\n      swap1\n      0x03\n      mul\n      add\n      0x00\n      swap1\n      swap2\n      swap1\n      swap2\n      swap1\n      swap2\n      pop\n      0x00\n      dup3\n      add\n      mload\n      dup2\n      0x00\n      add\n      swap1\n      dup2\n      tag_38\n      swap2\n      swap1\n      tag_39\n      jump\t// in\n    tag_38:\n      pop\n      0x20\n      dup3\n      add\n      mload\n      dup2\n      0x01\n      add\n      sstore\n      0x40\n      dup3\n      add\n      mload\n      dup2\n      0x02\n      add\n      exp(0x0100, 0x00)\n      dup2\n      sload\n      dup2\n      0xffffffffffffffffffffffffffffffffffffffff\n      mul\n      not\n      and\n      swap1\n      dup4\n      0xffffffffffffffffffffffffffffffffffffffff\n      and\n      mul\n      or\n      swap1\n      sstore\n      pop\n      pop\n      pop\n        /* \"structs.sol\":322:416  {... */\n      pop\n        /* \"structs.sol\":253:416  function add(string memory _make, uint _year, address _owner) public {... */\n      pop\n      pop\n      pop\n      jump\t// out\n        /* \"structs.sol\":1493:2165  function getYearByOwner(address _owner) public view returns(Vehicle[] memory){... */\n    tag_20:\n        /* \"structs.sol\":1553:1569  Vehicle[] memory */\n      0x60\n        /* \"structs.sol\":1581:1589  uint len */\n      0x00\n        /* \"structs.sol\":1592:1593  v */\n      dup1\n        /* \"structs.sol\":1592:1600  v.length */\n      dup1\n      sload\n      swap1\n      pop\n        /* \"structs.sol\":1581:1600  uint len = v.length */\n      swap1\n      pop\n        /* \"structs.sol\":1611:1625  uint8 foundCnt */\n      0x00\n        /* \"structs.sol\":1640:1650  bool found */\n      dup1\n        /* \"structs.sol\":1670:1676  uint i */\n      0x00\n        /* \"structs.sol\":1689:1845  for(i = 0; i < len; ++i){... */\n    tag_41:\n        /* \"structs.sol\":1704:1707  len */\n      dup4\n        /* \"structs.sol\":1700:1701  i */\n      dup2\n        /* \"structs.sol\":1700:1707  i < len */\n      lt\n        /* \"structs.sol\":1689:1845  for(i = 0; i < len; ++i){... */\n      iszero\n      tag_42\n      jumpi\n        /* \"structs.sol\":1745:1751  _owner */\n      dup6\n        /* \"structs.sol\":1731:1751  v[i].owner == _owner */\n      0xffffffffffffffffffffffffffffffffffffffff\n      and\n        /* \"structs.sol\":1731:1732  v */\n      0x00\n        /* \"structs.sol\":1733:1734  i */\n      dup3\n        /* \"structs.sol\":1731:1735  v[i] */\n      dup2\n      sload\n      dup2\n      lt\n      tag_44\n      jumpi\n      tag_45\n      tag_46\n      jump\t// in\n    tag_45:\n    tag_44:\n      swap1\n      0x00\n      mstore\n      keccak256(0x00, 0x20)\n      swap1\n      0x03\n      mul\n      add\n        /* \"structs.sol\":1731:1741  v[i].owner */\n      0x02\n      add\n      0x00\n      swap1\n      sload\n      swap1\n      0x0100\n      exp\n      swap1\n      div\n      0xffffffffffffffffffffffffffffffffffffffff\n      and\n        /* \"structs.sol\":1731:1751  v[i].owner == _owner */\n      0xffffffffffffffffffffffffffffffffffffffff\n      and\n      sub\n        /* \"structs.sol\":1728:1832  if(v[i].owner == _owner){    ... */\n      tag_48\n      jumpi\n        /* \"structs.sol\":1783:1787  true */\n      0x01\n        /* \"structs.sol\":1775:1787  found = true */\n      swap2\n      pop\n        /* \"structs.sol\":1806:1816  foundCnt++ */\n      dup3\n      dup1\n      tag_49\n      swap1\n      tag_50\n      jump\t// in\n    tag_49:\n      swap4\n      pop\n      pop\n        /* \"structs.sol\":1728:1832  if(v[i].owner == _owner){    ... */\n    tag_48:\n        /* \"structs.sol\":1709:1712  ++i */\n      dup1\n      0x01\n      add\n      swap1\n      pop\n        /* \"structs.sol\":1689:1845  for(i = 0; i < len; ++i){... */\n      jump(tag_41)\n    tag_42:\n        /* \"structs.sol\":1872:1876  true */\n      0x01\n        /* \"structs.sol\":1862:1876  found ==  true */\n      iszero\n      iszero\n        /* \"structs.sol\":1862:1867  found */\n      dup3\n        /* \"structs.sol\":1862:1876  found ==  true */\n      iszero\n      iszero\n      eq\n        /* \"structs.sol\":1855:1877  assert(found ==  true) */\n      tag_51\n      jumpi\n      tag_52\n      tag_53\n      jump\t// in\n    tag_52:\n    tag_51:\n        /* \"structs.sol\":1890:1911  Vehicle[] memory outV */\n      0x00\n        /* \"structs.sol\":1928:1936  foundCnt */\n      dup4\n        /* \"structs.sol\":1914:1937  new Vehicle[](foundCnt) */\n      0xff\n      and\n      0xffffffffffffffff\n      dup2\n      gt\n      iszero\n      tag_54\n      jumpi\n      tag_55\n      tag_56\n      jump\t// in\n    tag_55:\n    tag_54:\n      mload(0x40)\n      swap1\n      dup1\n      dup3\n      mstore\n      dup1\n      0x20\n      mul\n      0x20\n      add\n      dup3\n      add\n      0x40\n      mstore\n      dup1\n      iszero\n      tag_57\n      jumpi\n      dup2\n      0x20\n      add\n    tag_58:\n      tag_59\n      tag_60\n      jump\t// in\n    tag_59:\n      dup2\n      mstore\n      0x20\n      add\n      swap1\n      0x01\n      swap1\n      sub\n      swap1\n      dup2\n      tag_58\n      jumpi\n      swap1\n      pop\n    tag_57:\n      pop\n        /* \"structs.sol\":1890:1937  Vehicle[] memory outV = new Vehicle[](foundCnt) */\n      swap1\n      pop\n        /* \"structs.sol\":1948:1955  uint8 j */\n      0x00\n        /* \"structs.sol\":1978:1979  0 */\n      dup1\n        /* \"structs.sol\":1974:1979  i = 0 */\n      swap3\n      pop\n        /* \"structs.sol\":1970:2126  for(i = 0; i < len; ++i){... */\n    tag_61:\n        /* \"structs.sol\":1985:1988  len */\n      dup6\n        /* \"structs.sol\":1981:1982  i */\n      dup4\n        /* \"structs.sol\":1981:1988  i < len */\n      lt\n        /* \"structs.sol\":1970:2126  for(i = 0; i < len; ++i){... */\n      iszero\n      tag_62\n      jumpi\n        /* \"structs.sol\":2054:2060  _owner */\n      dup8\n        /* \"structs.sol\":2040:2060  v[i].owner == _owner */\n      0xffffffffffffffffffffffffffffffffffffffff\n      and\n        /* \"structs.sol\":2040:2041  v */\n      0x00\n        /* \"structs.sol\":2042:2043  i */\n      dup5\n        /* \"structs.sol\":2040:2044  v[i] */\n      dup2\n      sload\n      dup2\n      lt\n      tag_64\n      jumpi\n      tag_65\n      tag_46\n      jump\t// in\n    tag_65:\n    tag_64:\n      swap1\n      0x00\n      mstore\n      keccak256(0x00, 0x20)\n      swap1\n      0x03\n      mul\n      add\n        /* \"structs.sol\":2040:2050  v[i].owner */\n      0x02\n      add\n      0x00\n      swap1\n      sload\n      swap1\n      0x0100\n      exp\n      swap1\n      div\n      0xffffffffffffffffffffffffffffffffffffffff\n      and\n        /* \"structs.sol\":2040:2060  v[i].owner == _owner */\n      0xffffffffffffffffffffffffffffffffffffffff\n      and\n      sub\n        /* \"structs.sol\":2037:2113  if(v[i].owner == _owner){ ... */\n      tag_67\n      jumpi\n        /* \"structs.sol\":2093:2094  v */\n      0x00\n        /* \"structs.sol\":2095:2096  i */\n      dup4\n        /* \"structs.sol\":2093:2097  v[i] */\n      dup2\n      sload\n      dup2\n      lt\n      tag_68\n      jumpi\n      tag_69\n      tag_46\n      jump\t// in\n    tag_69:\n    tag_68:\n      swap1\n      0x00\n      mstore\n      keccak256(0x00, 0x20)\n      swap1\n      0x03\n      mul\n      add\n        /* \"structs.sol\":2081:2097  outV[j++] = v[i] */\n      mload(0x40)\n      dup1\n      0x60\n      add\n      0x40\n      mstore\n      swap1\n      dup2\n      0x00\n      dup3\n      add\n      dup1\n      sload\n      tag_71\n      swap1\n      tag_31\n      jump\t// in\n    tag_71:\n      dup1\n      0x1f\n      add\n      0x20\n      dup1\n      swap2\n      div\n      mul\n      0x20\n      add\n      mload(0x40)\n      swap1\n      dup2\n      add\n      0x40\n      mstore\n      dup1\n      swap3\n      swap2\n      swap1\n      dup2\n      dup2\n      mstore\n      0x20\n      add\n      dup3\n      dup1\n      sload\n      tag_72\n      swap1\n      tag_31\n      jump\t// in\n    tag_72:\n      dup1\n      iszero\n      tag_73\n      jumpi\n      dup1\n      0x1f\n      lt\n      tag_74\n      jumpi\n      0x0100\n      dup1\n      dup4\n      sload\n      div\n      mul\n      dup4\n      mstore\n      swap2\n      0x20\n      add\n      swap2\n      jump(tag_73)\n    tag_74:\n      dup3\n      add\n      swap2\n      swap1\n      0x00\n      mstore\n      keccak256(0x00, 0x20)\n      swap1\n    tag_75:\n      dup2\n      sload\n      dup2\n      mstore\n      swap1\n      0x01\n      add\n      swap1\n      0x20\n      add\n      dup1\n      dup4\n      gt\n      tag_75\n      jumpi\n      dup3\n      swap1\n      sub\n      0x1f\n      and\n      dup3\n      add\n      swap2\n    tag_73:\n      pop\n      pop\n      pop\n      pop\n      pop\n      dup2\n      mstore\n      0x20\n      add\n      0x01\n      dup3\n      add\n      sload\n      dup2\n      mstore\n      0x20\n      add\n      0x02\n      dup3\n      add\n      0x00\n      swap1\n      sload\n      swap1\n      0x0100\n      exp\n      swap1\n      div\n      0xffffffffffffffffffffffffffffffffffffffff\n      and\n      0xffffffffffffffffffffffffffffffffffffffff\n      and\n      0xffffffffffffffffffffffffffffffffffffffff\n      and\n      dup2\n      mstore\n      pop\n      pop\n        /* \"structs.sol\":2081:2085  outV */\n      dup3\n        /* \"structs.sol\":2086:2089  j++ */\n      dup3\n      dup1\n      tag_76\n      swap1\n      tag_50\n      jump\t// in\n    tag_76:\n      swap4\n      pop\n        /* \"structs.sol\":2081:2090  outV[j++] */\n      0xff\n      and\n      dup2\n      mload\n      dup2\n      lt\n      tag_77\n      jumpi\n      tag_78\n      tag_46\n      jump\t// in\n    tag_78:\n    tag_77:\n      0x20\n      mul\n      0x20\n      add\n      add\n        /* \"structs.sol\":2081:2097  outV[j++] = v[i] */\n      dup2\n      swap1\n      mstore\n      pop\n        /* \"structs.sol\":2037:2113  if(v[i].owner == _owner){ ... */\n    tag_67:\n        /* \"structs.sol\":1990:1993  ++i */\n      dup3\n      0x01\n      add\n      swap3\n      pop\n        /* \"structs.sol\":1970:2126  for(i = 0; i < len; ++i){... */\n      jump(tag_61)\n    tag_62:\n        /* \"structs.sol\":2153:2157  outV */\n      dup2\n        /* \"structs.sol\":2146:2157  return outV */\n      swap7\n      pop\n      pop\n      pop\n      pop\n      pop\n      pop\n      pop\n        /* \"structs.sol\":1493:2165  function getYearByOwner(address _owner) public view returns(Vehicle[] memory){... */\n      swap2\n      swap1\n      pop\n      jump\t// out\n        /* \"structs.sol\":745:1485  function getYearByMake(string memory _make) public view returns(Vehicle[] memory) {... */\n    tag_26:\n        /* \"structs.sol\":809:825  Vehicle[] memory */\n      0x60\n        /* \"structs.sol\":838:846  uint len */\n      0x00\n        /* \"structs.sol\":849:850  v */\n      dup1\n        /* \"structs.sol\":849:857  v.length */\n      dup1\n      sload\n      swap1\n      pop\n        /* \"structs.sol\":838:857  uint len = v.length */\n      swap1\n      pop\n        /* \"structs.sol\":868:882  uint8 foundCnt */\n      0x00\n        /* \"structs.sol\":897:907  bool found */\n      dup1\n        /* \"structs.sol\":927:933  uint i */\n      0x00\n        /* \"structs.sol\":946:1132  for(i = 0; i < len; ++i){... */\n    tag_80:\n        /* \"structs.sol\":961:964  len */\n      dup4\n        /* \"structs.sol\":957:958  i */\n      dup2\n        /* \"structs.sol\":957:964  i < len */\n      lt\n        /* \"structs.sol\":946:1132  for(i = 0; i < len; ++i){... */\n      iszero\n      tag_81\n      jumpi\n        /* \"structs.sol\":1035:1040  _make */\n      dup6\n        /* \"structs.sol\":1019:1042  keccak256(bytes(_make)) */\n      dup1\n      mload\n      swap1\n      0x20\n      add\n      keccak256\n        /* \"structs.sol\":1004:1005  v */\n      0x00\n        /* \"structs.sol\":1006:1007  i */\n      dup3\n        /* \"structs.sol\":1004:1008  v[i] */\n      dup2\n      sload\n      dup2\n      lt\n      tag_83\n      jumpi\n      tag_84\n      tag_46\n      jump\t// in\n    tag_84:\n    tag_83:\n      swap1\n      0x00\n      mstore\n      keccak256(0x00, 0x20)\n      swap1\n      0x03\n      mul\n      add\n        /* \"structs.sol\":1004:1013  v[i].make */\n      0x00\n      add\n        /* \"structs.sol\":988:1015  keccak256(bytes(v[i].make)) */\n      mload(0x40)\n      tag_86\n      swap2\n      swap1\n      tag_87\n      jump\t// in\n    tag_86:\n      mload(0x40)\n      dup1\n      swap2\n      sub\n      swap1\n      keccak256\n        /* \"structs.sol\":988:1042  keccak256(bytes(v[i].make)) == keccak256(bytes(_make)) */\n      sub\n        /* \"structs.sol\":985:1119  if(keccak256(bytes(v[i].make)) == keccak256(bytes(_make))){... */\n      tag_88\n      jumpi\n        /* \"structs.sol\":1070:1074  true */\n      0x01\n        /* \"structs.sol\":1062:1074  found = true */\n      swap2\n      pop\n        /* \"structs.sol\":1093:1103  foundCnt++ */\n      dup3\n      dup1\n      tag_89\n      swap1\n      tag_50\n      jump\t// in\n    tag_89:\n      swap4\n      pop\n      pop\n        /* \"structs.sol\":985:1119  if(keccak256(bytes(v[i].make)) == keccak256(bytes(_make))){... */\n    tag_88:\n        /* \"structs.sol\":966:969  ++i */\n      dup1\n      0x01\n      add\n      swap1\n      pop\n        /* \"structs.sol\":946:1132  for(i = 0; i < len; ++i){... */\n      jump(tag_80)\n    tag_81:\n        /* \"structs.sol\":1159:1163  true */\n      0x01\n        /* \"structs.sol\":1149:1163  found ==  true */\n      iszero\n      iszero\n        /* \"structs.sol\":1149:1154  found */\n      dup3\n        /* \"structs.sol\":1149:1163  found ==  true */\n      iszero\n      iszero\n      eq\n        /* \"structs.sol\":1142:1164  assert(found ==  true) */\n      tag_90\n      jumpi\n      tag_91\n      tag_53\n      jump\t// in\n    tag_91:\n    tag_90:\n        /* \"structs.sol\":1177:1198  Vehicle[] memory outV */\n      0x00\n        /* \"structs.sol\":1215:1223  foundCnt */\n      dup4\n        /* \"structs.sol\":1201:1224  new Vehicle[](foundCnt) */\n      0xff\n      and\n      0xffffffffffffffff\n      dup2\n      gt\n      iszero\n      tag_92\n      jumpi\n      tag_93\n      tag_56\n      jump\t// in\n    tag_93:\n    tag_92:\n      mload(0x40)\n      swap1\n      dup1\n      dup3\n      mstore\n      dup1\n      0x20\n      mul\n      0x20\n      add\n      dup3\n      add\n      0x40\n      mstore\n      dup1\n      iszero\n      tag_94\n      jumpi\n      dup2\n      0x20\n      add\n    tag_95:\n      tag_96\n      tag_60\n      jump\t// in\n    tag_96:\n      dup2\n      mstore\n      0x20\n      add\n      swap1\n      0x01\n      swap1\n      sub\n      swap1\n      dup2\n      tag_95\n      jumpi\n      swap1\n      pop\n    tag_94:\n      pop\n        /* \"structs.sol\":1177:1224  Vehicle[] memory outV = new Vehicle[](foundCnt) */\n      swap1\n      pop\n        /* \"structs.sol\":1235:1242  uint8 j */\n      0x00\n        /* \"structs.sol\":1265:1266  0 */\n      dup1\n        /* \"structs.sol\":1261:1266  i = 0 */\n      swap3\n      pop\n        /* \"structs.sol\":1257:1446  for(i = 0; i < len; ++i){... */\n    tag_97:\n        /* \"structs.sol\":1272:1275  len */\n      dup6\n        /* \"structs.sol\":1268:1269  i */\n      dup4\n        /* \"structs.sol\":1268:1275  i < len */\n      lt\n        /* \"structs.sol\":1257:1446  for(i = 0; i < len; ++i){... */\n      iszero\n      tag_98\n      jumpi\n        /* \"structs.sol\":1374:1379  _make */\n      dup8\n        /* \"structs.sol\":1358:1381  keccak256(bytes(_make)) */\n      dup1\n      mload\n      swap1\n      0x20\n      add\n      keccak256\n        /* \"structs.sol\":1343:1344  v */\n      0x00\n        /* \"structs.sol\":1345:1346  i */\n      dup5\n        /* \"structs.sol\":1343:1347  v[i] */\n      dup2\n      sload\n      dup2\n      lt\n      tag_100\n      jumpi\n      tag_101\n      tag_46\n      jump\t// in\n    tag_101:\n    tag_100:\n      swap1\n      0x00\n      mstore\n      keccak256(0x00, 0x20)\n      swap1\n      0x03\n      mul\n      add\n        /* \"structs.sol\":1343:1352  v[i].make */\n      0x00\n      add\n        /* \"structs.sol\":1327:1354  keccak256(bytes(v[i].make)) */\n      mload(0x40)\n      tag_103\n      swap2\n      swap1\n      tag_87\n      jump\t// in\n    tag_103:\n      mload(0x40)\n      dup1\n      swap2\n      sub\n      swap1\n      keccak256\n        /* \"structs.sol\":1327:1381  keccak256(bytes(v[i].make)) == keccak256(bytes(_make)) */\n      sub\n        /* \"structs.sol\":1324:1433  if(keccak256(bytes(v[i].make)) == keccak256(bytes(_make))){... */\n      tag_104\n      jumpi\n        /* \"structs.sol\":1413:1414  v */\n      0x00\n        /* \"structs.sol\":1415:1416  i */\n      dup4\n        /* \"structs.sol\":1413:1417  v[i] */\n      dup2\n      sload\n      dup2\n      lt\n      tag_105\n      jumpi\n      tag_106\n      tag_46\n      jump\t// in\n    tag_106:\n    tag_105:\n      swap1\n      0x00\n      mstore\n      keccak256(0x00, 0x20)\n      swap1\n      0x03\n      mul\n      add\n        /* \"structs.sol\":1401:1417  outV[j++] = v[i] */\n      mload(0x40)\n      dup1\n      0x60\n      add\n      0x40\n      mstore\n      swap1\n      dup2\n      0x00\n      dup3\n      add\n      dup1\n      sload\n      tag_108\n      swap1\n      tag_31\n      jump\t// in\n    tag_108:\n      dup1\n      0x1f\n      add\n      0x20\n      dup1\n      swap2\n      div\n      mul\n      0x20\n      add\n      mload(0x40)\n      swap1\n      dup2\n      add\n      0x40\n      mstore\n      dup1\n      swap3\n      swap2\n      swap1\n      dup2\n      dup2\n      mstore\n      0x20\n      add\n      dup3\n      dup1\n      sload\n      tag_109\n      swap1\n      tag_31\n      jump\t// in\n    tag_109:\n      dup1\n      iszero\n      tag_110\n      jumpi\n      dup1\n      0x1f\n      lt\n      tag_111\n      jumpi\n      0x0100\n      dup1\n      dup4\n      sload\n      div\n      mul\n      dup4\n      mstore\n      swap2\n      0x20\n      add\n      swap2\n      jump(tag_110)\n    tag_111:\n      dup3\n      add\n      swap2\n      swap1\n      0x00\n      mstore\n      keccak256(0x00, 0x20)\n      swap1\n    tag_112:\n      dup2\n      sload\n      dup2\n      mstore\n      swap1\n      0x01\n      add\n      swap1\n      0x20\n      add\n      dup1\n      dup4\n      gt\n      tag_112\n      jumpi\n      dup3\n      swap1\n      sub\n      0x1f\n      and\n      dup3\n      add\n      swap2\n    tag_110:\n      pop\n      pop\n      pop\n      pop\n      pop\n      dup2\n      mstore\n      0x20\n      add\n      0x01\n      dup3\n      add\n      sload\n      dup2\n      mstore\n      0x20\n      add\n      0x02\n      dup3\n      add\n      0x00\n      swap1\n      sload\n      swap1\n      0x0100\n      exp\n      swap1\n      div\n      0xffffffffffffffffffffffffffffffffffffffff\n      and\n      0xffffffffffffffffffffffffffffffffffffffff\n      and\n      0xffffffffffffffffffffffffffffffffffffffff\n      and\n      dup2\n      mstore\n      pop\n      pop\n        /* \"structs.sol\":1401:1405  outV */\n      dup3\n        /* \"structs.sol\":1406:1409  j++ */\n      dup3\n      dup1\n      tag_113\n      swap1\n      tag_50\n      jump\t// in\n    tag_113:\n      swap4\n      pop\n        /* \"structs.sol\":1401:1410  outV[j++] */\n      0xff\n      and\n      dup2\n      mload\n      dup2\n      lt\n      tag_114\n      jumpi\n      tag_115\n      tag_46\n      jump\t// in\n    tag_115:\n    tag_114:\n      0x20\n      mul\n      0x20\n      add\n      add\n        /* \"structs.sol\":1401:1417  outV[j++] = v[i] */\n      dup2\n      swap1\n      mstore\n      pop\n        /* \"structs.sol\":1324:1433  if(keccak256(bytes(v[i].make)) == keccak256(bytes(_make))){... */\n    tag_104:\n        /* \"structs.sol\":1277:1280  ++i */\n      dup3\n      0x01\n      add\n      swap3\n      pop\n        /* \"structs.sol\":1257:1446  for(i = 0; i < len; ++i){... */\n      jump(tag_97)\n    tag_98:\n        /* \"structs.sol\":1473:1477  outV */\n      dup2\n        /* \"structs.sol\":1466:1477  return outV */\n      swap7\n      pop\n      pop\n      pop\n      pop\n      pop\n      pop\n      pop\n        /* \"structs.sol\":745:1485  function getYearByMake(string memory _make) public view returns(Vehicle[] memory) {... */\n      swap2\n      swap1\n      pop\n      jump\t// out\n    tag_60:\n      mload(0x40)\n      dup1\n      0x60\n      add\n      0x40\n      mstore\n      dup1\n      0x60\n      dup2\n      mstore\n      0x20\n      add\n      0x00\n      dup2\n      mstore\n      0x20\n      add\n      and(0xffffffffffffffffffffffffffffffffffffffff, 0x00)\n      dup2\n      mstore\n      pop\n      swap1\n      jump\t// out\n        /* \"#utility.yul\":7:82   */\n    tag_116:\n        /* \"#utility.yul\":40:46   */\n      0x00\n        /* \"#utility.yul\":73:75   */\n      0x40\n        /* \"#utility.yul\":67:76   */\n      mload\n        /* \"#utility.yul\":57:76   */\n      swap1\n      pop\n        /* \"#utility.yul\":7:82   */\n      swap1\n      jump\t// out\n        /* \"#utility.yul\":88:205   */\n    tag_117:\n        /* \"#utility.yul\":197:198   */\n      0x00\n        /* \"#utility.yul\":194:195   */\n      dup1\n        /* \"#utility.yul\":187:199   */\n      revert\n        /* \"#utility.yul\":211:328   */\n    tag_118:\n        /* \"#utility.yul\":320:321   */\n      0x00\n        /* \"#utility.yul\":317:318   */\n      dup1\n        /* \"#utility.yul\":310:322   */\n      revert\n        /* \"#utility.yul\":334:411   */\n    tag_119:\n        /* \"#utility.yul\":371:378   */\n      0x00\n        /* \"#utility.yul\":400:405   */\n      dup2\n        /* \"#utility.yul\":389:405   */\n      swap1\n      pop\n        /* \"#utility.yul\":334:411   */\n      swap2\n      swap1\n      pop\n      jump\t// out\n        /* \"#utility.yul\":417:539   */\n    tag_120:\n        /* \"#utility.yul\":490:514   */\n      tag_179\n        /* \"#utility.yul\":508:513   */\n      dup2\n        /* \"#utility.yul\":490:514   */\n      tag_119\n      jump\t// in\n    tag_179:\n        /* \"#utility.yul\":483:488   */\n      dup2\n        /* \"#utility.yul\":480:515   */\n      eq\n        /* \"#utility.yul\":470:533   */\n      tag_180\n      jumpi\n        /* \"#utility.yul\":529:530   */\n      0x00\n        /* \"#utility.yul\":526:527   */\n      dup1\n        /* \"#utility.yul\":519:531   */\n      revert\n        /* \"#utility.yul\":470:533   */\n    tag_180:\n        /* \"#utility.yul\":417:539   */\n      pop\n      jump\t// out\n        /* \"#utility.yul\":545:684   */\n    tag_121:\n        /* \"#utility.yul\":591:596   */\n      0x00\n        /* \"#utility.yul\":629:635   */\n      dup2\n        /* \"#utility.yul\":616:636   */\n      calldataload\n        /* \"#utility.yul\":607:636   */\n      swap1\n      pop\n        /* \"#utility.yul\":645:678   */\n      tag_182\n        /* \"#utility.yul\":672:677   */\n      dup2\n        /* \"#utility.yul\":645:678   */\n      tag_120\n      jump\t// in\n    tag_182:\n        /* \"#utility.yul\":545:684   */\n      swap3\n      swap2\n      pop\n      pop\n      jump\t// out\n        /* \"#utility.yul\":690:1019   */\n    tag_9:\n        /* \"#utility.yul\":749:755   */\n      0x00\n        /* \"#utility.yul\":798:800   */\n      0x20\n        /* \"#utility.yul\":786:795   */\n      dup3\n        /* \"#utility.yul\":777:784   */\n      dup5\n        /* \"#utility.yul\":773:796   */\n      sub\n        /* \"#utility.yul\":769:801   */\n      slt\n        /* \"#utility.yul\":766:885   */\n      iszero\n      tag_184\n      jumpi\n        /* \"#utility.yul\":804:883   */\n      tag_185\n      tag_117\n      jump\t// in\n    tag_185:\n        /* \"#utility.yul\":766:885   */\n    tag_184:\n        /* \"#utility.yul\":924:925   */\n      0x00\n        /* \"#utility.yul\":949:1002   */\n      tag_186\n        /* \"#utility.yul\":994:1001   */\n      dup5\n        /* \"#utility.yul\":985:991   */\n      dup3\n        /* \"#utility.yul\":974:983   */\n      dup6\n        /* \"#utility.yul\":970:992   */\n      add\n        /* \"#utility.yul\":949:1002   */\n      tag_121\n      jump\t// in\n    tag_186:\n        /* \"#utility.yul\":939:1002   */\n      swap2\n      pop\n        /* \"#utility.yul\":895:1012   */\n      pop\n        /* \"#utility.yul\":690:1019   */\n      swap3\n      swap2\n      pop\n      pop\n      jump\t// out\n        /* \"#utility.yul\":1025:1124   */\n    tag_122:\n        /* \"#utility.yul\":1077:1083   */\n      0x00\n        /* \"#utility.yul\":1111:1116   */\n      dup2\n        /* \"#utility.yul\":1105:1117   */\n      mload\n        /* \"#utility.yul\":1095:1117   */\n      swap1\n      pop\n        /* \"#utility.yul\":1025:1124   */\n      swap2\n      swap1\n      pop\n      jump\t// out\n        /* \"#utility.yul\":1130:1299   */\n    tag_123:\n        /* \"#utility.yul\":1214:1225   */\n      0x00\n        /* \"#utility.yul\":1248:1254   */\n      dup3\n        /* \"#utility.yul\":1243:1246   */\n      dup3\n        /* \"#utility.yul\":1236:1255   */\n      mstore\n        /* \"#utility.yul\":1288:1292   */\n      0x20\n        /* \"#utility.yul\":1283:1286   */\n      dup3\n        /* \"#utility.yul\":1279:1293   */\n      add\n        /* \"#utility.yul\":1264:1293   */\n      swap1\n      pop\n        /* \"#utility.yul\":1130:1299   */\n      swap3\n      swap2\n      pop\n      pop\n      jump\t// out\n        /* \"#utility.yul\":1305:1444   */\n    tag_124:\n        /* \"#utility.yul\":1394:1400   */\n      dup3\n        /* \"#utility.yul\":1389:1392   */\n      dup2\n        /* \"#utility.yul\":1384:1387   */\n      dup4\n        /* \"#utility.yul\":1378:1401   */\n      mcopy\n        /* \"#utility.yul\":1435:1436   */\n      0x00\n        /* \"#utility.yul\":1426:1432   */\n      dup4\n        /* \"#utility.yul\":1421:1424   */\n      dup4\n        /* \"#utility.yul\":1417:1433   */\n      add\n        /* \"#utility.yul\":1410:1437   */\n      mstore\n        /* \"#utility.yul\":1305:1444   */\n      pop\n      pop\n      pop\n      jump\t// out\n        /* \"#utility.yul\":1450:1552   */\n    tag_125:\n        /* \"#utility.yul\":1491:1497   */\n      0x00\n        /* \"#utility.yul\":1542:1544   */\n      0x1f\n        /* \"#utility.yul\":1538:1545   */\n      not\n        /* \"#utility.yul\":1533:1535   */\n      0x1f\n        /* \"#utility.yul\":1526:1531   */\n      dup4\n        /* \"#utility.yul\":1522:1536   */\n      add\n        /* \"#utility.yul\":1518:1546   */\n      and\n        /* \"#utility.yul\":1508:1546   */\n      swap1\n      pop\n        /* \"#utility.yul\":1450:1552   */\n      swap2\n      swap1\n      pop\n      jump\t// out\n        /* \"#utility.yul\":1558:1935   */\n    tag_126:\n        /* \"#utility.yul\":1646:1649   */\n      0x00\n        /* \"#utility.yul\":1674:1713   */\n      tag_192\n        /* \"#utility.yul\":1707:1712   */\n      dup3\n        /* \"#utility.yul\":1674:1713   */\n      tag_122\n      jump\t// in\n    tag_192:\n        /* \"#utility.yul\":1729:1800   */\n      tag_193\n        /* \"#utility.yul\":1793:1799   */\n      dup2\n        /* \"#utility.yul\":1788:1791   */\n      dup6\n        /* \"#utility.yul\":1729:1800   */\n      tag_123\n      jump\t// in\n    tag_193:\n        /* \"#utility.yul\":1722:1800   */\n      swap4\n      pop\n        /* \"#utility.yul\":1809:1874   */\n      tag_194\n        /* \"#utility.yul\":1867:1873   */\n      dup2\n        /* \"#utility.yul\":1862:1865   */\n      dup6\n        /* \"#utility.yul\":1855:1859   */\n      0x20\n        /* \"#utility.yul\":1848:1853   */\n      dup7\n        /* \"#utility.yul\":1844:1860   */\n      add\n        /* \"#utility.yul\":1809:1874   */\n      tag_124\n      jump\t// in\n    tag_194:\n        /* \"#utility.yul\":1899:1928   */\n      tag_195\n        /* \"#utility.yul\":1921:1927   */\n      dup2\n        /* \"#utility.yul\":1899:1928   */\n      tag_125\n      jump\t// in\n    tag_195:\n        /* \"#utility.yul\":1894:1897   */\n      dup5\n        /* \"#utility.yul\":1890:1929   */\n      add\n        /* \"#utility.yul\":1883:1929   */\n      swap2\n      pop\n        /* \"#utility.yul\":1650:1935   */\n      pop\n        /* \"#utility.yul\":1558:1935   */\n      swap3\n      swap2\n      pop\n      pop\n      jump\t// out\n        /* \"#utility.yul\":1941:2059   */\n    tag_127:\n        /* \"#utility.yul\":2028:2052   */\n      tag_197\n        /* \"#utility.yul\":2046:2051   */\n      dup2\n        /* \"#utility.yul\":2028:2052   */\n      tag_119\n      jump\t// in\n    tag_197:\n        /* \"#utility.yul\":2023:2026   */\n      dup3\n        /* \"#utility.yul\":2016:2053   */\n      mstore\n        /* \"#utility.yul\":1941:2059   */\n      pop\n      pop\n      jump\t// out\n        /* \"#utility.yul\":2065:2191   */\n    tag_128:\n        /* \"#utility.yul\":2102:2109   */\n      0x00\n        /* \"#utility.yul\":2142:2184   */\n      0xffffffffffffffffffffffffffffffffffffffff\n        /* \"#utility.yul\":2135:2140   */\n      dup3\n        /* \"#utility.yul\":2131:2185   */\n      and\n        /* \"#utility.yul\":2120:2185   */\n      swap1\n      pop\n        /* \"#utility.yul\":2065:2191   */\n      swap2\n      swap1\n      pop\n      jump\t// out\n        /* \"#utility.yul\":2197:2293   */\n    tag_129:\n        /* \"#utility.yul\":2234:2241   */\n      0x00\n        /* \"#utility.yul\":2263:2287   */\n      tag_200\n        /* \"#utility.yul\":2281:2286   */\n      dup3\n        /* \"#utility.yul\":2263:2287   */\n      tag_128\n      jump\t// in\n    tag_200:\n        /* \"#utility.yul\":2252:2287   */\n      swap1\n      pop\n        /* \"#utility.yul\":2197:2293   */\n      swap2\n      swap1\n      pop\n      jump\t// out\n        /* \"#utility.yul\":2299:2417   */\n    tag_130:\n        /* \"#utility.yul\":2386:2410   */\n      tag_202\n        /* \"#utility.yul\":2404:2409   */\n      dup2\n        /* \"#utility.yul\":2386:2410   */\n      tag_129\n      jump\t// in\n    tag_202:\n        /* \"#utility.yul\":2381:2384   */\n      dup3\n        /* \"#utility.yul\":2374:2411   */\n      mstore\n        /* \"#utility.yul\":2299:2417   */\n      pop\n      pop\n      jump\t// out\n        /* \"#utility.yul\":2423:2956   */\n    tag_12:\n        /* \"#utility.yul\":2592:2596   */\n      0x00\n        /* \"#utility.yul\":2630:2632   */\n      0x60\n        /* \"#utility.yul\":2619:2628   */\n      dup3\n        /* \"#utility.yul\":2615:2633   */\n      add\n        /* \"#utility.yul\":2607:2633   */\n      swap1\n      pop\n        /* \"#utility.yul\":2679:2688   */\n      dup2\n        /* \"#utility.yul\":2673:2677   */\n      dup2\n        /* \"#utility.yul\":2669:2689   */\n      sub\n        /* \"#utility.yul\":2665:2666   */\n      0x00\n        /* \"#utility.yul\":2654:2663   */\n      dup4\n        /* \"#utility.yul\":2650:2667   */\n      add\n        /* \"#utility.yul\":2643:2690   */\n      mstore\n        /* \"#utility.yul\":2707:2785   */\n      tag_204\n        /* \"#utility.yul\":2780:2784   */\n      dup2\n        /* \"#utility.yul\":2771:2777   */\n      dup7\n        /* \"#utility.yul\":2707:2785   */\n      tag_126\n      jump\t// in\n    tag_204:\n        /* \"#utility.yul\":2699:2785   */\n      swap1\n      pop\n        /* \"#utility.yul\":2795:2867   */\n      tag_205\n        /* \"#utility.yul\":2863:2865   */\n      0x20\n        /* \"#utility.yul\":2852:2861   */\n      dup4\n        /* \"#utility.yul\":2848:2866   */\n      add\n        /* \"#utility.yul\":2839:2845   */\n      dup6\n        /* \"#utility.yul\":2795:2867   */\n      tag_127\n      jump\t// in\n    tag_205:\n        /* \"#utility.yul\":2877:2949   */\n      tag_206\n        /* \"#utility.yul\":2945:2947   */\n      0x40\n        /* \"#utility.yul\":2934:2943   */\n      dup4\n        /* \"#utility.yul\":2930:2948   */\n      add\n        /* \"#utility.yul\":2921:2927   */\n      dup5\n        /* \"#utility.yul\":2877:2949   */\n      tag_130\n      jump\t// in\n    tag_206:\n        /* \"#utility.yul\":2423:2956   */\n      swap5\n      swap4\n      pop\n      pop\n      pop\n      pop\n      jump\t// out\n        /* \"#utility.yul\":2962:3079   */\n    tag_131:\n        /* \"#utility.yul\":3071:3072   */\n      0x00\n        /* \"#utility.yul\":3068:3069   */\n      dup1\n        /* \"#utility.yul\":3061:3073   */\n      revert\n        /* \"#utility.yul\":3085:3202   */\n    tag_132:\n        /* \"#utility.yul\":3194:3195   */\n      0x00\n        /* \"#utility.yul\":3191:3192   */\n      dup1\n        /* \"#utility.yul\":3184:3196   */\n      revert\n        /* \"#utility.yul\":3208:3388   */\n    tag_56:\n        /* \"#utility.yul\":3256:3333   */\n      0x4e487b7100000000000000000000000000000000000000000000000000000000\n        /* \"#utility.yul\":3253:3254   */\n      0x00\n        /* \"#utility.yul\":3246:3334   */\n      mstore\n        /* \"#utility.yul\":3353:3357   */\n      0x41\n        /* \"#utility.yul\":3350:3351   */\n      0x04\n        /* \"#utility.yul\":3343:3358   */\n      mstore\n        /* \"#utility.yul\":3377:3381   */\n      0x24\n        /* \"#utility.yul\":3374:3375   */\n      0x00\n        /* \"#utility.yul\":3367:3382   */\n      revert\n        /* \"#utility.yul\":3394:3675   */\n    tag_133:\n        /* \"#utility.yul\":3477:3504   */\n      tag_211\n        /* \"#utility.yul\":3499:3503   */\n      dup3\n        /* \"#utility.yul\":3477:3504   */\n      tag_125\n      jump\t// in\n    tag_211:\n        /* \"#utility.yul\":3469:3475   */\n      dup2\n        /* \"#utility.yul\":3465:3505   */\n      add\n        /* \"#utility.yul\":3607:3613   */\n      dup2\n        /* \"#utility.yul\":3595:3605   */\n      dup2\n        /* \"#utility.yul\":3592:3614   */\n      lt\n        /* \"#utility.yul\":3571:3589   */\n      0xffffffffffffffff\n        /* \"#utility.yul\":3559:3569   */\n      dup3\n        /* \"#utility.yul\":3556:3590   */\n      gt\n        /* \"#utility.yul\":3553:3615   */\n      or\n        /* \"#utility.yul\":3550:3638   */\n      iszero\n      tag_212\n      jumpi\n        /* \"#utility.yul\":3618:3636   */\n      tag_213\n      tag_56\n      jump\t// in\n    tag_213:\n        /* \"#utility.yul\":3550:3638   */\n    tag_212:\n        /* \"#utility.yul\":3658:3668   */\n      dup1\n        /* \"#utility.yul\":3654:3656   */\n      0x40\n        /* \"#utility.yul\":3647:3669   */\n      mstore\n        /* \"#utility.yul\":3437:3675   */\n      pop\n        /* \"#utility.yul\":3394:3675   */\n      pop\n      pop\n      jump\t// out\n        /* \"#utility.yul\":3681:3810   */\n    tag_134:\n        /* \"#utility.yul\":3715:3721   */\n      0x00\n        /* \"#utility.yul\":3742:3762   */\n      tag_215\n      tag_116\n      jump\t// in\n    tag_215:\n        /* \"#utility.yul\":3732:3762   */\n      swap1\n      pop\n        /* \"#utility.yul\":3771:3804   */\n      tag_216\n        /* \"#utility.yul\":3799:3803   */\n      dup3\n        /* \"#utility.yul\":3791:3797   */\n      dup3\n        /* \"#utility.yul\":3771:3804   */\n      tag_133\n      jump\t// in\n    tag_216:\n        /* \"#utility.yul\":3681:3810   */\n      swap2\n      swap1\n      pop\n      jump\t// out\n        /* \"#utility.yul\":3816:4124   */\n    tag_135:\n        /* \"#utility.yul\":3878:3882   */\n      0x00\n        /* \"#utility.yul\":3968:3986   */\n      0xffffffffffffffff\n        /* \"#utility.yul\":3960:3966   */\n      dup3\n        /* \"#utility.yul\":3957:3987   */\n      gt\n        /* \"#utility.yul\":3954:4010   */\n      iszero\n      tag_218\n      jumpi\n        /* \"#utility.yul\":3990:4008   */\n      tag_219\n      tag_56\n      jump\t// in\n    tag_219:\n        /* \"#utility.yul\":3954:4010   */\n    tag_218:\n        /* \"#utility.yul\":4028:4057   */\n      tag_220\n        /* \"#utility.yul\":4050:4056   */\n      dup3\n        /* \"#utility.yul\":4028:4057   */\n      tag_125\n      jump\t// in\n    tag_220:\n        /* \"#utility.yul\":4020:4057   */\n      swap1\n      pop\n        /* \"#utility.yul\":4112:4116   */\n      0x20\n        /* \"#utility.yul\":4106:4110   */\n      dup2\n        /* \"#utility.yul\":4102:4117   */\n      add\n        /* \"#utility.yul\":4094:4117   */\n      swap1\n      pop\n        /* \"#utility.yul\":3816:4124   */\n      swap2\n      swap1\n      pop\n      jump\t// out\n        /* \"#utility.yul\":4130:4278   */\n    tag_136:\n        /* \"#utility.yul\":4228:4234   */\n      dup3\n        /* \"#utility.yul\":4223:4226   */\n      dup2\n        /* \"#utility.yul\":4218:4221   */\n      dup4\n        /* \"#utility.yul\":4205:4235   */\n      calldatacopy\n        /* \"#utility.yul\":4269:4270   */\n      0x00\n        /* \"#utility.yul\":4260:4266   */\n      dup4\n        /* \"#utility.yul\":4255:4258   */\n      dup4\n        /* \"#utility.yul\":4251:4267   */\n      add\n        /* \"#utility.yul\":4244:4271   */\n      mstore\n        /* \"#utility.yul\":4130:4278   */\n      pop\n      pop\n      pop\n      jump\t// out\n        /* \"#utility.yul\":4284:4709   */\n    tag_137:\n        /* \"#utility.yul\":4362:4367   */\n      0x00\n        /* \"#utility.yul\":4387:4453   */\n      tag_223\n        /* \"#utility.yul\":4403:4452   */\n      tag_224\n        /* \"#utility.yul\":4445:4451   */\n      dup5\n        /* \"#utility.yul\":4403:4452   */\n      tag_135\n      jump\t// in\n    tag_224:\n        /* \"#utility.yul\":4387:4453   */\n      tag_134\n      jump\t// in\n    tag_223:\n        /* \"#utility.yul\":4378:4453   */\n      swap1\n      pop\n        /* \"#utility.yul\":4476:4482   */\n      dup3\n        /* \"#utility.yul\":4469:4474   */\n      dup2\n        /* \"#utility.yul\":4462:4483   */\n      mstore\n        /* \"#utility.yul\":4514:4518   */\n      0x20\n        /* \"#utility.yul\":4507:4512   */\n      dup2\n        /* \"#utility.yul\":4503:4519   */\n      add\n        /* \"#utility.yul\":4552:4555   */\n      dup5\n        /* \"#utility.yul\":4543:4549   */\n      dup5\n        /* \"#utility.yul\":4538:4541   */\n      dup5\n        /* \"#utility.yul\":4534:4550   */\n      add\n        /* \"#utility.yul\":4531:4556   */\n      gt\n        /* \"#utility.yul\":4528:4640   */\n      iszero\n      tag_225\n      jumpi\n        /* \"#utility.yul\":4559:4638   */\n      tag_226\n      tag_132\n      jump\t// in\n    tag_226:\n        /* \"#utility.yul\":4528:4640   */\n    tag_225:\n        /* \"#utility.yul\":4649:4703   */\n      tag_227\n        /* \"#utility.yul\":4696:4702   */\n      dup5\n        /* \"#utility.yul\":4691:4694   */\n      dup3\n        /* \"#utility.yul\":4686:4689   */\n      dup6\n        /* \"#utility.yul\":4649:4703   */\n      tag_136\n      jump\t// in\n    tag_227:\n        /* \"#utility.yul\":4368:4709   */\n      pop\n        /* \"#utility.yul\":4284:4709   */\n      swap4\n      swap3\n      pop\n      pop\n      pop\n      jump\t// out\n        /* \"#utility.yul\":4729:5069   */\n    tag_138:\n        /* \"#utility.yul\":4785:4790   */\n      0x00\n        /* \"#utility.yul\":4834:4837   */\n      dup3\n        /* \"#utility.yul\":4827:4831   */\n      0x1f\n        /* \"#utility.yul\":4819:4825   */\n      dup4\n        /* \"#utility.yul\":4815:4832   */\n      add\n        /* \"#utility.yul\":4811:4838   */\n      slt\n        /* \"#utility.yul\":4801:4923   */\n      tag_229\n      jumpi\n        /* \"#utility.yul\":4842:4921   */\n      tag_230\n      tag_131\n      jump\t// in\n    tag_230:\n        /* \"#utility.yul\":4801:4923   */\n    tag_229:\n        /* \"#utility.yul\":4959:4965   */\n      dup2\n        /* \"#utility.yul\":4946:4966   */\n      calldataload\n        /* \"#utility.yul\":4984:5063   */\n      tag_231\n        /* \"#utility.yul\":5059:5062   */\n      dup5\n        /* \"#utility.yul\":5051:5057   */\n      dup3\n        /* \"#utility.yul\":5044:5048   */\n      0x20\n        /* \"#utility.yul\":5036:5042   */\n      dup7\n        /* \"#utility.yul\":5032:5049   */\n      add\n        /* \"#utility.yul\":4984:5063   */\n      tag_137\n      jump\t// in\n    tag_231:\n        /* \"#utility.yul\":4975:5063   */\n      swap2\n      pop\n        /* \"#utility.yul\":4791:5069   */\n      pop\n        /* \"#utility.yul\":4729:5069   */\n      swap3\n      swap2\n      pop\n      pop\n      jump\t// out\n        /* \"#utility.yul\":5075:5197   */\n    tag_139:\n        /* \"#utility.yul\":5148:5172   */\n      tag_233\n        /* \"#utility.yul\":5166:5171   */\n      dup2\n        /* \"#utility.yul\":5148:5172   */\n      tag_129\n      jump\t// in\n    tag_233:\n        /* \"#utility.yul\":5141:5146   */\n      dup2\n        /* \"#utility.yul\":5138:5173   */\n      eq\n        /* \"#utility.yul\":5128:5191   */\n      tag_234\n      jumpi\n        /* \"#utility.yul\":5187:5188   */\n      0x00\n        /* \"#utility.yul\":5184:5185   */\n      dup1\n        /* \"#utility.yul\":5177:5189   */\n      revert\n        /* \"#utility.yul\":5128:5191   */\n    tag_234:\n        /* \"#utility.yul\":5075:5197   */\n      pop\n      jump\t// out\n        /* \"#utility.yul\":5203:5342   */\n    tag_140:\n        /* \"#utility.yul\":5249:5254   */\n      0x00\n        /* \"#utility.yul\":5287:5293   */\n      dup2\n        /* \"#utility.yul\":5274:5294   */\n      calldataload\n        /* \"#utility.yul\":5265:5294   */\n      swap1\n      pop\n        /* \"#utility.yul\":5303:5336   */\n      tag_236\n        /* \"#utility.yul\":5330:5335   */\n      dup2\n        /* \"#utility.yul\":5303:5336   */\n      tag_139\n      jump\t// in\n    tag_236:\n        /* \"#utility.yul\":5203:5342   */\n      swap3\n      swap2\n      pop\n      pop\n      jump\t// out\n        /* \"#utility.yul\":5348:6147   */\n    tag_15:\n        /* \"#utility.yul\":5435:5441   */\n      0x00\n        /* \"#utility.yul\":5443:5449   */\n      dup1\n        /* \"#utility.yul\":5451:5457   */\n      0x00\n        /* \"#utility.yul\":5500:5502   */\n      0x60\n        /* \"#utility.yul\":5488:5497   */\n      dup5\n        /* \"#utility.yul\":5479:5486   */\n      dup7\n        /* \"#utility.yul\":5475:5498   */\n      sub\n        /* \"#utility.yul\":5471:5503   */\n      slt\n        /* \"#utility.yul\":5468:5587   */\n      iszero\n      tag_238\n      jumpi\n        /* \"#utility.yul\":5506:5585   */\n      tag_239\n      tag_117\n      jump\t// in\n    tag_239:\n        /* \"#utility.yul\":5468:5587   */\n    tag_238:\n        /* \"#utility.yul\":5654:5655   */\n      0x00\n        /* \"#utility.yul\":5643:5652   */\n      dup5\n        /* \"#utility.yul\":5639:5656   */\n      add\n        /* \"#utility.yul\":5626:5657   */\n      calldataload\n        /* \"#utility.yul\":5684:5702   */\n      0xffffffffffffffff\n        /* \"#utility.yul\":5676:5682   */\n      dup2\n        /* \"#utility.yul\":5673:5703   */\n      gt\n        /* \"#utility.yul\":5670:5787   */\n      iszero\n      tag_240\n      jumpi\n        /* \"#utility.yul\":5706:5785   */\n      tag_241\n      tag_118\n      jump\t// in\n    tag_241:\n        /* \"#utility.yul\":5670:5787   */\n    tag_240:\n        /* \"#utility.yul\":5811:5874   */\n      tag_242\n        /* \"#utility.yul\":5866:5873   */\n      dup7\n        /* \"#utility.yul\":5857:5863   */\n      dup3\n        /* \"#utility.yul\":5846:5855   */\n      dup8\n        /* \"#utility.yul\":5842:5864   */\n      add\n        /* \"#utility.yul\":5811:5874   */\n      tag_138\n      jump\t// in\n    tag_242:\n        /* \"#utility.yul\":5801:5874   */\n      swap4\n      pop\n        /* \"#utility.yul\":5597:5884   */\n      pop\n        /* \"#utility.yul\":5923:5925   */\n      0x20\n        /* \"#utility.yul\":5949:6002   */\n      tag_243\n        /* \"#utility.yul\":5994:6001   */\n      dup7\n        /* \"#utility.yul\":5985:5991   */\n      dup3\n        /* \"#utility.yul\":5974:5983   */\n      dup8\n        /* \"#utility.yul\":5970:5992   */\n      add\n        /* \"#utility.yul\":5949:6002   */\n      tag_121\n      jump\t// in\n    tag_243:\n        /* \"#utility.yul\":5939:6002   */\n      swap3\n      pop\n        /* \"#utility.yul\":5894:6012   */\n      pop\n        /* \"#utility.yul\":6051:6053   */\n      0x40\n        /* \"#utility.yul\":6077:6130   */\n      tag_244\n        /* \"#utility.yul\":6122:6129   */\n      dup7\n        /* \"#utility.yul\":6113:6119   */\n      dup3\n        /* \"#utility.yul\":6102:6111   */\n      dup8\n        /* \"#utility.yul\":6098:6120   */\n      add\n        /* \"#utility.yul\":6077:6130   */\n      tag_140\n      jump\t// in\n    tag_244:\n        /* \"#utility.yul\":6067:6130   */\n      swap2\n      pop\n        /* \"#utility.yul\":6022:6140   */\n      pop\n        /* \"#utility.yul\":5348:6147   */\n      swap3\n      pop\n      swap3\n      pop\n      swap3\n      jump\t// out\n        /* \"#utility.yul\":6153:6482   */\n    tag_19:\n        /* \"#utility.yul\":6212:6218   */\n      0x00\n        /* \"#utility.yul\":6261:6263   */\n      0x20\n        /* \"#utility.yul\":6249:6258   */\n      dup3\n        /* \"#utility.yul\":6240:6247   */\n      dup5\n        /* \"#utility.yul\":6236:6259   */\n      sub\n        /* \"#utility.yul\":6232:6264   */\n      slt\n        /* \"#utility.yul\":6229:6348   */\n      iszero\n      tag_246\n      jumpi\n        /* \"#utility.yul\":6267:6346   */\n      tag_247\n      tag_117\n      jump\t// in\n    tag_247:\n        /* \"#utility.yul\":6229:6348   */\n    tag_246:\n        /* \"#utility.yul\":6387:6388   */\n      0x00\n        /* \"#utility.yul\":6412:6465   */\n      tag_248\n        /* \"#utility.yul\":6457:6464   */\n      dup5\n        /* \"#utility.yul\":6448:6454   */\n      dup3\n        /* \"#utility.yul\":6437:6446   */\n      dup6\n        /* \"#utility.yul\":6433:6455   */\n      add\n        /* \"#utility.yul\":6412:6465   */\n      tag_140\n      jump\t// in\n    tag_248:\n        /* \"#utility.yul\":6402:6465   */\n      swap2\n      pop\n        /* \"#utility.yul\":6358:6475   */\n      pop\n        /* \"#utility.yul\":6153:6482   */\n      swap3\n      swap2\n      pop\n      pop\n      jump\t// out\n        /* \"#utility.yul\":6488:6624   */\n    tag_141:\n        /* \"#utility.yul\":6577:6583   */\n      0x00\n        /* \"#utility.yul\":6611:6616   */\n      dup2\n        /* \"#utility.yul\":6605:6617   */\n      mload\n        /* \"#utility.yul\":6595:6617   */\n      swap1\n      pop\n        /* \"#utility.yul\":6488:6624   */\n      swap2\n      swap1\n      pop\n      jump\t// out\n        /* \"#utility.yul\":6630:6836   */\n    tag_142:\n        /* \"#utility.yul\":6751:6762   */\n      0x00\n        /* \"#utility.yul\":6785:6791   */\n      dup3\n        /* \"#utility.yul\":6780:6783   */\n      dup3\n        /* \"#utility.yul\":6773:6792   */\n      mstore\n        /* \"#utility.yul\":6825:6829   */\n      0x20\n        /* \"#utility.yul\":6820:6823   */\n      dup3\n        /* \"#utility.yul\":6816:6830   */\n      add\n        /* \"#utility.yul\":6801:6830   */\n      swap1\n      pop\n        /* \"#utility.yul\":6630:6836   */\n      swap3\n      swap2\n      pop\n      pop\n      jump\t// out\n        /* \"#utility.yul\":6842:6996   */\n    tag_143:\n        /* \"#utility.yul\":6931:6935   */\n      0x00\n        /* \"#utility.yul\":6954:6957   */\n      dup2\n        /* \"#utility.yul\":6946:6957   */\n      swap1\n      pop\n        /* \"#utility.yul\":6984:6988   */\n      0x20\n        /* \"#utility.yul\":6979:6982   */\n      dup3\n        /* \"#utility.yul\":6975:6989   */\n      add\n        /* \"#utility.yul\":6967:6989   */\n      swap1\n      pop\n        /* \"#utility.yul\":6842:6996   */\n      swap2\n      swap1\n      pop\n      jump\t// out\n        /* \"#utility.yul\":7002:7161   */\n    tag_144:\n        /* \"#utility.yul\":7076:7087   */\n      0x00\n        /* \"#utility.yul\":7110:7116   */\n      dup3\n        /* \"#utility.yul\":7105:7108   */\n      dup3\n        /* \"#utility.yul\":7098:7117   */\n      mstore\n        /* \"#utility.yul\":7150:7154   */\n      0x20\n        /* \"#utility.yul\":7145:7148   */\n      dup3\n        /* \"#utility.yul\":7141:7155   */\n      add\n        /* \"#utility.yul\":7126:7155   */\n      swap1\n      pop\n        /* \"#utility.yul\":7002:7161   */\n      swap3\n      swap2\n      pop\n      pop\n      jump\t// out\n        /* \"#utility.yul\":7167:7524   */\n    tag_145:\n        /* \"#utility.yul\":7245:7248   */\n      0x00\n        /* \"#utility.yul\":7273:7312   */\n      tag_254\n        /* \"#utility.yul\":7306:7311   */\n      dup3\n        /* \"#utility.yul\":7273:7312   */\n      tag_122\n      jump\t// in\n    tag_254:\n        /* \"#utility.yul\":7328:7389   */\n      tag_255\n        /* \"#utility.yul\":7382:7388   */\n      dup2\n        /* \"#utility.yul\":7377:7380   */\n      dup6\n        /* \"#utility.yul\":7328:7389   */\n      tag_144\n      jump\t// in\n    tag_255:\n        /* \"#utility.yul\":7321:7389   */\n      swap4\n      pop\n        /* \"#utility.yul\":7398:7463   */\n      tag_256\n        /* \"#utility.yul\":7456:7462   */\n      dup2\n        /* \"#utility.yul\":7451:7454   */\n      dup6\n        /* \"#utility.yul\":7444:7448   */\n      0x20\n        /* \"#utility.yul\":7437:7442   */\n      dup7\n        /* \"#utility.yul\":7433:7449   */\n      add\n        /* \"#utility.yul\":7398:7463   */\n      tag_124\n      jump\t// in\n    tag_256:\n        /* \"#utility.yul\":7488:7517   */\n      tag_257\n        /* \"#utility.yul\":7510:7516   */\n      dup2\n        /* \"#utility.yul\":7488:7517   */\n      tag_125\n      jump\t// in\n    tag_257:\n        /* \"#utility.yul\":7483:7486   */\n      dup5\n        /* \"#utility.yul\":7479:7518   */\n      add\n        /* \"#utility.yul\":7472:7518   */\n      swap2\n      pop\n        /* \"#utility.yul\":7249:7524   */\n      pop\n        /* \"#utility.yul\":7167:7524   */\n      swap3\n      swap2\n      pop\n      pop\n      jump\t// out\n        /* \"#utility.yul\":7530:7638   */\n    tag_146:\n        /* \"#utility.yul\":7607:7631   */\n      tag_259\n        /* \"#utility.yul\":7625:7630   */\n      dup2\n        /* \"#utility.yul\":7607:7631   */\n      tag_119\n      jump\t// in\n    tag_259:\n        /* \"#utility.yul\":7602:7605   */\n      dup3\n        /* \"#utility.yul\":7595:7632   */\n      mstore\n        /* \"#utility.yul\":7530:7638   */\n      pop\n      pop\n      jump\t// out\n        /* \"#utility.yul\":7644:7752   */\n    tag_147:\n        /* \"#utility.yul\":7721:7745   */\n      tag_261\n        /* \"#utility.yul\":7739:7744   */\n      dup2\n        /* \"#utility.yul\":7721:7745   */\n      tag_129\n      jump\t// in\n    tag_261:\n        /* \"#utility.yul\":7716:7719   */\n      dup3\n        /* \"#utility.yul\":7709:7746   */\n      mstore\n        /* \"#utility.yul\":7644:7752   */\n      pop\n      pop\n      jump\t// out\n        /* \"#utility.yul\":7816:8581   */\n    tag_148:\n        /* \"#utility.yul\":7919:7922   */\n      0x00\n        /* \"#utility.yul\":7955:7959   */\n      0x60\n        /* \"#utility.yul\":7950:7953   */\n      dup4\n        /* \"#utility.yul\":7946:7960   */\n      add\n        /* \"#utility.yul\":8042:8046   */\n      0x00\n        /* \"#utility.yul\":8035:8040   */\n      dup4\n        /* \"#utility.yul\":8031:8047   */\n      add\n        /* \"#utility.yul\":8025:8048   */\n      mload\n        /* \"#utility.yul\":8095:8098   */\n      dup5\n        /* \"#utility.yul\":8089:8093   */\n      dup3\n        /* \"#utility.yul\":8085:8099   */\n      sub\n        /* \"#utility.yul\":8078:8082   */\n      0x00\n        /* \"#utility.yul\":8073:8076   */\n      dup7\n        /* \"#utility.yul\":8069:8083   */\n      add\n        /* \"#utility.yul\":8062:8100   */\n      mstore\n        /* \"#utility.yul\":8121:8194   */\n      tag_263\n        /* \"#utility.yul\":8189:8193   */\n      dup3\n        /* \"#utility.yul\":8175:8187   */\n      dup3\n        /* \"#utility.yul\":8121:8194   */\n      tag_145\n      jump\t// in\n    tag_263:\n        /* \"#utility.yul\":8113:8194   */\n      swap2\n      pop\n        /* \"#utility.yul\":7970:8205   */\n      pop\n        /* \"#utility.yul\":8287:8291   */\n      0x20\n        /* \"#utility.yul\":8280:8285   */\n      dup4\n        /* \"#utility.yul\":8276:8292   */\n      add\n        /* \"#utility.yul\":8270:8293   */\n      mload\n        /* \"#utility.yul\":8306:8369   */\n      tag_264\n        /* \"#utility.yul\":8363:8367   */\n      0x20\n        /* \"#utility.yul\":8358:8361   */\n      dup7\n        /* \"#utility.yul\":8354:8368   */\n      add\n        /* \"#utility.yul\":8340:8352   */\n      dup3\n        /* \"#utility.yul\":8306:8369   */\n      tag_146\n      jump\t// in\n    tag_264:\n        /* \"#utility.yul\":8215:8379   */\n      pop\n        /* \"#utility.yul\":8462:8466   */\n      0x40\n        /* \"#utility.yul\":8455:8460   */\n      dup4\n        /* \"#utility.yul\":8451:8467   */\n      add\n        /* \"#utility.yul\":8445:8468   */\n      mload\n        /* \"#utility.yul\":8481:8544   */\n      tag_265\n        /* \"#utility.yul\":8538:8542   */\n      0x40\n        /* \"#utility.yul\":8533:8536   */\n      dup7\n        /* \"#utility.yul\":8529:8543   */\n      add\n        /* \"#utility.yul\":8515:8527   */\n      dup3\n        /* \"#utility.yul\":8481:8544   */\n      tag_147\n      jump\t// in\n    tag_265:\n        /* \"#utility.yul\":8389:8554   */\n      pop\n        /* \"#utility.yul\":8571:8575   */\n      dup1\n        /* \"#utility.yul\":8564:8575   */\n      swap2\n      pop\n        /* \"#utility.yul\":7924:8581   */\n      pop\n        /* \"#utility.yul\":7816:8581   */\n      swap3\n      swap2\n      pop\n      pop\n      jump\t// out\n        /* \"#utility.yul\":8587:8831   */\n    tag_149:\n        /* \"#utility.yul\":8700:8710   */\n      0x00\n        /* \"#utility.yul\":8735:8825   */\n      tag_267\n        /* \"#utility.yul\":8821:8824   */\n      dup4\n        /* \"#utility.yul\":8813:8819   */\n      dup4\n        /* \"#utility.yul\":8735:8825   */\n      tag_148\n      jump\t// in\n    tag_267:\n        /* \"#utility.yul\":8721:8825   */\n      swap1\n      pop\n        /* \"#utility.yul\":8587:8831   */\n      swap3\n      swap2\n      pop\n      pop\n      jump\t// out\n        /* \"#utility.yul\":8837:8972   */\n    tag_150:\n        /* \"#utility.yul\":8929:8933   */\n      0x00\n        /* \"#utility.yul\":8961:8965   */\n      0x20\n        /* \"#utility.yul\":8956:8959   */\n      dup3\n        /* \"#utility.yul\":8952:8966   */\n      add\n        /* \"#utility.yul\":8944:8966   */\n      swap1\n      pop\n        /* \"#utility.yul\":8837:8972   */\n      swap2\n      swap1\n      pop\n      jump\t// out\n        /* \"#utility.yul\":9040:10127   */\n    tag_151:\n        /* \"#utility.yul\":9203:9206   */\n      0x00\n        /* \"#utility.yul\":9232:9308   */\n      tag_270\n        /* \"#utility.yul\":9302:9307   */\n      dup3\n        /* \"#utility.yul\":9232:9308   */\n      tag_141\n      jump\t// in\n    tag_270:\n        /* \"#utility.yul\":9324:9432   */\n      tag_271\n        /* \"#utility.yul\":9425:9431   */\n      dup2\n        /* \"#utility.yul\":9420:9423   */\n      dup6\n        /* \"#utility.yul\":9324:9432   */\n      tag_142\n      jump\t// in\n    tag_271:\n        /* \"#utility.yul\":9317:9432   */\n      swap4\n      pop\n        /* \"#utility.yul\":9458:9461   */\n      dup4\n        /* \"#utility.yul\":9503:9507   */\n      0x20\n        /* \"#utility.yul\":9495:9501   */\n      dup3\n        /* \"#utility.yul\":9491:9508   */\n      mul\n        /* \"#utility.yul\":9486:9489   */\n      dup6\n        /* \"#utility.yul\":9482:9509   */\n      add\n        /* \"#utility.yul\":9533:9611   */\n      tag_272\n        /* \"#utility.yul\":9605:9610   */\n      dup6\n        /* \"#utility.yul\":9533:9611   */\n      tag_143\n      jump\t// in\n    tag_272:\n        /* \"#utility.yul\":9634:9641   */\n      dup1\n        /* \"#utility.yul\":9665:9666   */\n      0x00\n        /* \"#utility.yul\":9650:10082   */\n    tag_273:\n        /* \"#utility.yul\":9675:9681   */\n      dup6\n        /* \"#utility.yul\":9672:9673   */\n      dup2\n        /* \"#utility.yul\":9669:9682   */\n      lt\n        /* \"#utility.yul\":9650:10082   */\n      iszero\n      tag_275\n      jumpi\n        /* \"#utility.yul\":9746:9755   */\n      dup5\n        /* \"#utility.yul\":9740:9744   */\n      dup5\n        /* \"#utility.yul\":9736:9756   */\n      sub\n        /* \"#utility.yul\":9731:9734   */\n      dup10\n        /* \"#utility.yul\":9724:9757   */\n      mstore\n        /* \"#utility.yul\":9797:9803   */\n      dup2\n        /* \"#utility.yul\":9791:9804   */\n      mload\n        /* \"#utility.yul\":9825:9933   */\n      tag_276\n        /* \"#utility.yul\":9928:9932   */\n      dup6\n        /* \"#utility.yul\":9913:9926   */\n      dup3\n        /* \"#utility.yul\":9825:9933   */\n      tag_149\n      jump\t// in\n    tag_276:\n        /* \"#utility.yul\":9817:9933   */\n      swap5\n      pop\n        /* \"#utility.yul\":9956:10038   */\n      tag_277\n        /* \"#utility.yul\":10031:10037   */\n      dup4\n        /* \"#utility.yul\":9956:10038   */\n      tag_150\n      jump\t// in\n    tag_277:\n        /* \"#utility.yul\":9946:10038   */\n      swap3\n      pop\n        /* \"#utility.yul\":10067:10071   */\n      0x20\n        /* \"#utility.yul\":10062:10065   */\n      dup11\n        /* \"#utility.yul\":10058:10072   */\n      add\n        /* \"#utility.yul\":10051:10072   */\n      swap10\n      pop\n        /* \"#utility.yul\":9710:10082   */\n      pop\n        /* \"#utility.yul\":9697:9698   */\n      0x01\n        /* \"#utility.yul\":9694:9695   */\n      dup2\n        /* \"#utility.yul\":9690:9699   */\n      add\n        /* \"#utility.yul\":9685:9699   */\n      swap1\n      pop\n        /* \"#utility.yul\":9650:10082   */\n      jump(tag_273)\n    tag_275:\n        /* \"#utility.yul\":9654:9668   */\n      pop\n        /* \"#utility.yul\":10098:10102   */\n      dup3\n        /* \"#utility.yul\":10091:10102   */\n      swap8\n      pop\n        /* \"#utility.yul\":10118:10121   */\n      dup8\n        /* \"#utility.yul\":10111:10121   */\n      swap6\n      pop\n        /* \"#utility.yul\":9208:10127   */\n      pop\n      pop\n      pop\n      pop\n      pop\n        /* \"#utility.yul\":9040:10127   */\n      swap3\n      swap2\n      pop\n      pop\n      jump\t// out\n        /* \"#utility.yul\":10133:10594   */\n    tag_22:\n        /* \"#utility.yul\":10320:10324   */\n      0x00\n        /* \"#utility.yul\":10358:10360   */\n      0x20\n        /* \"#utility.yul\":10347:10356   */\n      dup3\n        /* \"#utility.yul\":10343:10361   */\n      add\n        /* \"#utility.yul\":10335:10361   */\n      swap1\n      pop\n        /* \"#utility.yul\":10407:10416   */\n      dup2\n        /* \"#utility.yul\":10401:10405   */\n      dup2\n        /* \"#utility.yul\":10397:10417   */\n      sub\n        /* \"#utility.yul\":10393:10394   */\n      0x00\n        /* \"#utility.yul\":10382:10391   */\n      dup4\n        /* \"#utility.yul\":10378:10395   */\n      add\n        /* \"#utility.yul\":10371:10418   */\n      mstore\n        /* \"#utility.yul\":10435:10587   */\n      tag_279\n        /* \"#utility.yul\":10582:10586   */\n      dup2\n        /* \"#utility.yul\":10573:10579   */\n      dup5\n        /* \"#utility.yul\":10435:10587   */\n      tag_151\n      jump\t// in\n    tag_279:\n        /* \"#utility.yul\":10427:10587   */\n      swap1\n      pop\n        /* \"#utility.yul\":10133:10594   */\n      swap3\n      swap2\n      pop\n      pop\n      jump\t// out\n        /* \"#utility.yul\":10600:11109   */\n    tag_25:\n        /* \"#utility.yul\":10669:10675   */\n      0x00\n        /* \"#utility.yul\":10718:10720   */\n      0x20\n        /* \"#utility.yul\":10706:10715   */\n      dup3\n        /* \"#utility.yul\":10697:10704   */\n      dup5\n        /* \"#utility.yul\":10693:10716   */\n      sub\n        /* \"#utility.yul\":10689:10721   */\n      slt\n        /* \"#utility.yul\":10686:10805   */\n      iszero\n      tag_281\n      jumpi\n        /* \"#utility.yul\":10724:10803   */\n      tag_282\n      tag_117\n      jump\t// in\n    tag_282:\n        /* \"#utility.yul\":10686:10805   */\n    tag_281:\n        /* \"#utility.yul\":10872:10873   */\n      0x00\n        /* \"#utility.yul\":10861:10870   */\n      dup3\n        /* \"#utility.yul\":10857:10874   */\n      add\n        /* \"#utility.yul\":10844:10875   */\n      calldataload\n        /* \"#utility.yul\":10902:10920   */\n      0xffffffffffffffff\n        /* \"#utility.yul\":10894:10900   */\n      dup2\n        /* \"#utility.yul\":10891:10921   */\n      gt\n        /* \"#utility.yul\":10888:11005   */\n      iszero\n      tag_283\n      jumpi\n        /* \"#utility.yul\":10924:11003   */\n      tag_284\n      tag_118\n      jump\t// in\n    tag_284:\n        /* \"#utility.yul\":10888:11005   */\n    tag_283:\n        /* \"#utility.yul\":11029:11092   */\n      tag_285\n        /* \"#utility.yul\":11084:11091   */\n      dup5\n        /* \"#utility.yul\":11075:11081   */\n      dup3\n        /* \"#utility.yul\":11064:11073   */\n      dup6\n        /* \"#utility.yul\":11060:11082   */\n      add\n        /* \"#utility.yul\":11029:11092   */\n      tag_138\n      jump\t// in\n    tag_285:\n        /* \"#utility.yul\":11019:11092   */\n      swap2\n      pop\n        /* \"#utility.yul\":10815:11102   */\n      pop\n        /* \"#utility.yul\":10600:11109   */\n      swap3\n      swap2\n      pop\n      pop\n      jump\t// out\n        /* \"#utility.yul\":11115:11295   */\n    tag_152:\n        /* \"#utility.yul\":11163:11240   */\n      0x4e487b7100000000000000000000000000000000000000000000000000000000\n        /* \"#utility.yul\":11160:11161   */\n      0x00\n        /* \"#utility.yul\":11153:11241   */\n      mstore\n        /* \"#utility.yul\":11260:11264   */\n      0x22\n        /* \"#utility.yul\":11257:11258   */\n      0x04\n        /* \"#utility.yul\":11250:11265   */\n      mstore\n        /* \"#utility.yul\":11284:11288   */\n      0x24\n        /* \"#utility.yul\":11281:11282   */\n      0x00\n        /* \"#utility.yul\":11274:11289   */\n      revert\n        /* \"#utility.yul\":11301:11621   */\n    tag_31:\n        /* \"#utility.yul\":11345:11351   */\n      0x00\n        /* \"#utility.yul\":11382:11383   */\n      0x02\n        /* \"#utility.yul\":11376:11380   */\n      dup3\n        /* \"#utility.yul\":11372:11384   */\n      div\n        /* \"#utility.yul\":11362:11384   */\n      swap1\n      pop\n        /* \"#utility.yul\":11429:11430   */\n      0x01\n        /* \"#utility.yul\":11423:11427   */\n      dup3\n        /* \"#utility.yul\":11419:11431   */\n      and\n        /* \"#utility.yul\":11450:11468   */\n      dup1\n        /* \"#utility.yul\":11440:11521   */\n      tag_288\n      jumpi\n        /* \"#utility.yul\":11506:11510   */\n      0x7f\n        /* \"#utility.yul\":11498:11504   */\n      dup3\n        /* \"#utility.yul\":11494:11511   */\n      and\n        /* \"#utility.yul\":11484:11511   */\n      swap2\n      pop\n        /* \"#utility.yul\":11440:11521   */\n    tag_288:\n        /* \"#utility.yul\":11568:11570   */\n      0x20\n        /* \"#utility.yul\":11560:11566   */\n      dup3\n        /* \"#utility.yul\":11557:11571   */\n      lt\n        /* \"#utility.yul\":11537:11555   */\n      dup2\n        /* \"#utility.yul\":11534:11572   */\n      sub\n        /* \"#utility.yul\":11531:11615   */\n      tag_289\n      jumpi\n        /* \"#utility.yul\":11587:11605   */\n      tag_290\n      tag_152\n      jump\t// in\n    tag_290:\n        /* \"#utility.yul\":11531:11615   */\n    tag_289:\n        /* \"#utility.yul\":11352:11621   */\n      pop\n        /* \"#utility.yul\":11301:11621   */\n      swap2\n      swap1\n      pop\n      jump\t// out\n        /* \"#utility.yul\":11627:11768   */\n    tag_153:\n        /* \"#utility.yul\":11676:11680   */\n      0x00\n        /* \"#utility.yul\":11699:11702   */\n      dup2\n        /* \"#utility.yul\":11691:11702   */\n      swap1\n      pop\n        /* \"#utility.yul\":11722:11725   */\n      dup2\n        /* \"#utility.yul\":11719:11720   */\n      0x00\n        /* \"#utility.yul\":11712:11726   */\n      mstore\n        /* \"#utility.yul\":11756:11760   */\n      0x20\n        /* \"#utility.yul\":11753:11754   */\n      0x00\n        /* \"#utility.yul\":11743:11761   */\n      keccak256\n        /* \"#utility.yul\":11735:11761   */\n      swap1\n      pop\n        /* \"#utility.yul\":11627:11768   */\n      swap2\n      swap1\n      pop\n      jump\t// out\n        /* \"#utility.yul\":11774:11867   */\n    tag_154:\n        /* \"#utility.yul\":11811:11817   */\n      0x00\n        /* \"#utility.yul\":11858:11860   */\n      0x20\n        /* \"#utility.yul\":11853:11855   */\n      0x1f\n        /* \"#utility.yul\":11846:11851   */\n      dup4\n        /* \"#utility.yul\":11842:11856   */\n      add\n        /* \"#utility.yul\":11838:11861   */\n      div\n        /* \"#utility.yul\":11828:11861   */\n      swap1\n      pop\n        /* \"#utility.yul\":11774:11867   */\n      swap2\n      swap1\n      pop\n      jump\t// out\n        /* \"#utility.yul\":11873:11980   */\n    tag_155:\n        /* \"#utility.yul\":11917:11925   */\n      0x00\n        /* \"#utility.yul\":11967:11972   */\n      dup3\n        /* \"#utility.yul\":11961:11965   */\n      dup3\n        /* \"#utility.yul\":11957:11973   */\n      shl\n        /* \"#utility.yul\":11936:11973   */\n      swap1\n      pop\n        /* \"#utility.yul\":11873:11980   */\n      swap3\n      swap2\n      pop\n      pop\n      jump\t// out\n        /* \"#utility.yul\":11986:12379   */\n    tag_156:\n        /* \"#utility.yul\":12055:12061   */\n      0x00\n        /* \"#utility.yul\":12105:12106   */\n      0x08\n        /* \"#utility.yul\":12093:12103   */\n      dup4\n        /* \"#utility.yul\":12089:12107   */\n      mul\n        /* \"#utility.yul\":12128:12225   */\n      tag_295\n        /* \"#utility.yul\":12158:12224   */\n      0xffffffffffffffffffffffffffffffffffffffffffffffffffffffffffffffff\n        /* \"#utility.yul\":12147:12156   */\n      dup3\n        /* \"#utility.yul\":12128:12225   */\n      tag_155\n      jump\t// in\n    tag_295:\n        /* \"#utility.yul\":12246:12285   */\n      tag_296\n        /* \"#utility.yul\":12276:12284   */\n      dup7\n        /* \"#utility.yul\":12265:12274   */\n      dup4\n        /* \"#utility.yul\":12246:12285   */\n      tag_155\n      jump\t// in\n    tag_296:\n        /* \"#utility.yul\":12234:12285   */\n      swap6\n      pop\n        /* \"#utility.yul\":12318:12322   */\n      dup1\n        /* \"#utility.yul\":12314:12323   */\n      not\n        /* \"#utility.yul\":12307:12312   */\n      dup5\n        /* \"#utility.yul\":12303:12324   */\n      and\n        /* \"#utility.yul\":12294:12324   */\n      swap4\n      pop\n        /* \"#utility.yul\":12367:12371   */\n      dup1\n        /* \"#utility.yul\":12357:12365   */\n      dup7\n        /* \"#utility.yul\":12353:12372   */\n      and\n        /* \"#utility.yul\":12346:12351   */\n      dup5\n        /* \"#utility.yul\":12343:12373   */\n      or\n        /* \"#utility.yul\":12333:12373   */\n      swap3\n      pop\n        /* \"#utility.yul\":12062:12379   */\n      pop\n      pop\n        /* \"#utility.yul\":11986:12379   */\n      swap4\n      swap3\n      pop\n      pop\n      pop\n      jump\t// out\n        /* \"#utility.yul\":12385:12445   */\n    tag_157:\n        /* \"#utility.yul\":12413:12416   */\n      0x00\n        /* \"#utility.yul\":12434:12439   */\n      dup2\n        /* \"#utility.yul\":12427:12439   */\n      swap1\n      pop\n        /* \"#utility.yul\":12385:12445   */\n      swap2\n      swap1\n      pop\n      jump\t// out\n        /* \"#utility.yul\":12451:12593   */\n    tag_158:\n        /* \"#utility.yul\":12501:12510   */\n      0x00\n        /* \"#utility.yul\":12534:12587   */\n      tag_299\n        /* \"#utility.yul\":12552:12586   */\n      tag_300\n        /* \"#utility.yul\":12561:12585   */\n      tag_301\n        /* \"#utility.yul\":12579:12584   */\n      dup5\n        /* \"#utility.yul\":12561:12585   */\n      tag_119\n      jump\t// in\n    tag_301:\n        /* \"#utility.yul\":12552:12586   */\n      tag_157\n      jump\t// in\n    tag_300:\n        /* \"#utility.yul\":12534:12587   */\n      tag_119\n      jump\t// in\n    tag_299:\n        /* \"#utility.yul\":12521:12587   */\n      swap1\n      pop\n        /* \"#utility.yul\":12451:12593   */\n      swap2\n      swap1\n      pop\n      jump\t// out\n        /* \"#utility.yul\":12599:12674   */\n    tag_159:\n        /* \"#utility.yul\":12642:12645   */\n      0x00\n        /* \"#utility.yul\":12663:12668   */\n      dup2\n        /* \"#utility.yul\":12656:12668   */\n      swap1\n      pop\n        /* \"#utility.yul\":12599:12674   */\n      swap2\n      swap1\n      pop\n      jump\t// out\n        /* \"#utility.yul\":12680:12949   */\n    tag_160:\n        /* \"#utility.yul\":12790:12829   */\n      tag_304\n        /* \"#utility.yul\":12821:12828   */\n      dup4\n        /* \"#utility.yul\":12790:12829   */\n      tag_158\n      jump\t// in\n    tag_304:\n        /* \"#utility.yul\":12851:12942   */\n      tag_305\n        /* \"#utility.yul\":12900:12941   */\n      tag_306\n        /* \"#utility.yul\":12924:12940   */\n      dup3\n        /* \"#utility.yul\":12900:12941   */\n      tag_159\n      jump\t// in\n    tag_306:\n        /* \"#utility.yul\":12892:12898   */\n      dup5\n        /* \"#utility.yul\":12885:12889   */\n      dup5\n        /* \"#utility.yul\":12879:12890   */\n      sload\n        /* \"#utility.yul\":12851:12942   */\n      tag_156\n      jump\t// in\n    tag_305:\n        /* \"#utility.yul\":12845:12849   */\n      dup3\n        /* \"#utility.yul\":12838:12943   */\n      sstore\n        /* \"#utility.yul\":12756:12949   */\n      pop\n        /* \"#utility.yul\":12680:12949   */\n      pop\n      pop\n      pop\n      jump\t// out\n        /* \"#utility.yul\":12955:13028   */\n    tag_161:\n        /* \"#utility.yul\":13000:13003   */\n      0x00\n        /* \"#utility.yul\":12955:13028   */\n      swap1\n      jump\t// out\n        /* \"#utility.yul\":13034:13223   */\n    tag_162:\n        /* \"#utility.yul\":13111:13143   */\n      tag_309\n      tag_161\n      jump\t// in\n    tag_309:\n        /* \"#utility.yul\":13152:13217   */\n      tag_310\n        /* \"#utility.yul\":13210:13216   */\n      dup2\n        /* \"#utility.yul\":13202:13208   */\n      dup5\n        /* \"#utility.yul\":13196:13200   */\n      dup5\n        /* \"#utility.yul\":13152:13217   */\n      tag_160\n      jump\t// in\n    tag_310:\n        /* \"#utility.yul\":13087:13223   */\n      pop\n        /* \"#utility.yul\":13034:13223   */\n      pop\n      pop\n      jump\t// out\n        /* \"#utility.yul\":13229:13415   */\n    tag_163:\n        /* \"#utility.yul\":13289:13409   */\n    tag_312:\n        /* \"#utility.yul\":13306:13309   */\n      dup2\n        /* \"#utility.yul\":13299:13304   */\n      dup2\n        /* \"#utility.yul\":13296:13310   */\n      lt\n        /* \"#utility.yul\":13289:13409   */\n      iszero\n      tag_314\n      jumpi\n        /* \"#utility.yul\":13360:13399   */\n      tag_315\n        /* \"#utility.yul\":13397:13398   */\n      0x00\n        /* \"#utility.yul\":13390:13395   */\n      dup3\n        /* \"#utility.yul\":13360:13399   */\n      tag_162\n      jump\t// in\n    tag_315:\n        /* \"#utility.yul\":13333:13334   */\n      0x01\n        /* \"#utility.yul\":13326:13331   */\n      dup2\n        /* \"#utility.yul\":13322:13335   */\n      add\n        /* \"#utility.yul\":13313:13335   */\n      swap1\n      pop\n        /* \"#utility.yul\":13289:13409   */\n      jump(tag_312)\n    tag_314:\n        /* \"#utility.yul\":13229:13415   */\n      pop\n      pop\n      jump\t// out\n        /* \"#utility.yul\":13421:13964   */\n    tag_164:\n        /* \"#utility.yul\":13522:13524   */\n      0x1f\n        /* \"#utility.yul\":13517:13520   */\n      dup3\n        /* \"#utility.yul\":13514:13525   */\n      gt\n        /* \"#utility.yul\":13511:13957   */\n      iszero\n      tag_317\n      jumpi\n        /* \"#utility.yul\":13556:13594   */\n      tag_318\n        /* \"#utility.yul\":13588:13593   */\n      dup2\n        /* \"#utility.yul\":13556:13594   */\n      tag_153\n      jump\t// in\n    tag_318:\n        /* \"#utility.yul\":13640:13669   */\n      tag_319\n        /* \"#utility.yul\":13658:13668   */\n      dup5\n        /* \"#utility.yul\":13640:13669   */\n      tag_154\n      jump\t// in\n    tag_319:\n        /* \"#utility.yul\":13630:13638   */\n      dup2\n        /* \"#utility.yul\":13626:13670   */\n      add\n        /* \"#utility.yul\":13823:13825   */\n      0x20\n        /* \"#utility.yul\":13811:13821   */\n      dup6\n        /* \"#utility.yul\":13808:13826   */\n      lt\n        /* \"#utility.yul\":13805:13854   */\n      iszero\n      tag_320\n      jumpi\n        /* \"#utility.yul\":13844:13852   */\n      dup2\n        /* \"#utility.yul\":13829:13852   */\n      swap1\n      pop\n        /* \"#utility.yul\":13805:13854   */\n    tag_320:\n        /* \"#utility.yul\":13867:13947   */\n      tag_321\n        /* \"#utility.yul\":13923:13945   */\n      tag_322\n        /* \"#utility.yul\":13941:13944   */\n      dup6\n        /* \"#utility.yul\":13923:13945   */\n      tag_154\n      jump\t// in\n    tag_322:\n        /* \"#utility.yul\":13913:13921   */\n      dup4\n        /* \"#utility.yul\":13909:13946   */\n      add\n        /* \"#utility.yul\":13896:13907   */\n      dup3\n        /* \"#utility.yul\":13867:13947   */\n      tag_163\n      jump\t// in\n    tag_321:\n        /* \"#utility.yul\":13526:13957   */\n      pop\n      pop\n        /* \"#utility.yul\":13511:13957   */\n    tag_317:\n        /* \"#utility.yul\":13421:13964   */\n      pop\n      pop\n      pop\n      jump\t// out\n        /* \"#utility.yul\":13970:14087   */\n    tag_165:\n        /* \"#utility.yul\":14024:14032   */\n      0x00\n        /* \"#utility.yul\":14074:14079   */\n      dup3\n        /* \"#utility.yul\":14068:14072   */\n      dup3\n        /* \"#utility.yul\":14064:14080   */\n      shr\n        /* \"#utility.yul\":14043:14080   */\n      swap1\n      pop\n        /* \"#utility.yul\":13970:14087   */\n      swap3\n      swap2\n      pop\n      pop\n      jump\t// out\n        /* \"#utility.yul\":14093:14262   */\n    tag_166:\n        /* \"#utility.yul\":14137:14143   */\n      0x00\n        /* \"#utility.yul\":14170:14221   */\n      tag_325\n        /* \"#utility.yul\":14218:14219   */\n      0x00\n        /* \"#utility.yul\":14214:14220   */\n      not\n        /* \"#utility.yul\":14206:14211   */\n      dup5\n        /* \"#utility.yul\":14203:14204   */\n      0x08\n        /* \"#utility.yul\":14199:14212   */\n      mul\n        /* \"#utility.yul\":14170:14221   */\n      tag_165\n      jump\t// in\n    tag_325:\n        /* \"#utility.yul\":14166:14222   */\n      not\n        /* \"#utility.yul\":14251:14255   */\n      dup1\n        /* \"#utility.yul\":14245:14249   */\n      dup4\n        /* \"#utility.yul\":14241:14256   */\n      and\n        /* \"#utility.yul\":14231:14256   */\n      swap2\n      pop\n        /* \"#utility.yul\":14144:14262   */\n      pop\n        /* \"#utility.yul\":14093:14262   */\n      swap3\n      swap2\n      pop\n      pop\n      jump\t// out\n        /* \"#utility.yul\":14267:14562   */\n    tag_167:\n        /* \"#utility.yul\":14343:14347   */\n      0x00\n        /* \"#utility.yul\":14489:14518   */\n      tag_327\n        /* \"#utility.yul\":14514:14517   */\n      dup4\n        /* \"#utility.yul\":14508:14512   */\n      dup4\n        /* \"#utility.yul\":14489:14518   */\n      tag_166\n      jump\t// in\n    tag_327:\n        /* \"#utility.yul\":14481:14518   */\n      swap2\n      pop\n        /* \"#utility.yul\":14551:14554   */\n      dup3\n        /* \"#utility.yul\":14548:14549   */\n      0x02\n        /* \"#utility.yul\":14544:14555   */\n      mul\n        /* \"#utility.yul\":14538:14542   */\n      dup3\n        /* \"#utility.yul\":14535:14556   */\n      or\n        /* \"#utility.yul\":14527:14556   */\n      swap1\n      pop\n        /* \"#utility.yul\":14267:14562   */\n      swap3\n      swap2\n      pop\n      pop\n      jump\t// out\n        /* \"#utility.yul\":14567:15962   */\n    tag_39:\n        /* \"#utility.yul\":14684:14721   */\n      tag_329\n        /* \"#utility.yul\":14717:14720   */\n      dup3\n        /* \"#utility.yul\":14684:14721   */\n      tag_122\n      jump\t// in\n    tag_329:\n        /* \"#utility.yul\":14786:14804   */\n      0xffffffffffffffff\n        /* \"#utility.yul\":14778:14784   */\n      dup2\n        /* \"#utility.yul\":14775:14805   */\n      gt\n        /* \"#utility.yul\":14772:14828   */\n      iszero\n      tag_330\n      jumpi\n        /* \"#utility.yul\":14808:14826   */\n      tag_331\n      tag_56\n      jump\t// in\n    tag_331:\n        /* \"#utility.yul\":14772:14828   */\n    tag_330:\n        /* \"#utility.yul\":14852:14890   */\n      tag_332\n        /* \"#utility.yul\":14884:14888   */\n      dup3\n        /* \"#utility.yul\":14878:14889   */\n      sload\n        /* \"#utility.yul\":14852:14890   */\n      tag_31\n      jump\t// in\n    tag_332:\n        /* \"#utility.yul\":14937:15004   */\n      tag_333\n        /* \"#utility.yul\":14997:15003   */\n      dup3\n        /* \"#utility.yul\":14989:14995   */\n      dup3\n        /* \"#utility.yul\":14983:14987   */\n      dup6\n        /* \"#utility.yul\":14937:15004   */\n      tag_164\n      jump\t// in\n    tag_333:\n        /* \"#utility.yul\":15031:15032   */\n      0x00\n        /* \"#utility.yul\":15055:15059   */\n      0x20\n        /* \"#utility.yul\":15042:15059   */\n      swap1\n      pop\n        /* \"#utility.yul\":15087:15089   */\n      0x1f\n        /* \"#utility.yul\":15079:15085   */\n      dup4\n        /* \"#utility.yul\":15076:15090   */\n      gt\n        /* \"#utility.yul\":15104:15105   */\n      0x01\n        /* \"#utility.yul\":15099:15717   */\n      dup2\n      eq\n      tag_335\n      jumpi\n        /* \"#utility.yul\":15761:15762   */\n      0x00\n        /* \"#utility.yul\":15778:15784   */\n      dup5\n        /* \"#utility.yul\":15775:15852   */\n      iszero\n      tag_336\n      jumpi\n        /* \"#utility.yul\":15827:15836   */\n      dup3\n        /* \"#utility.yul\":15822:15825   */\n      dup8\n        /* \"#utility.yul\":15818:15837   */\n      add\n        /* \"#utility.yul\":15812:15838   */\n      mload\n        /* \"#utility.yul\":15803:15838   */\n      swap1\n      pop\n        /* \"#utility.yul\":15775:15852   */\n    tag_336:\n        /* \"#utility.yul\":15878:15945   */\n      tag_337\n        /* \"#utility.yul\":15938:15944   */\n      dup6\n        /* \"#utility.yul\":15931:15936   */\n      dup3\n        /* \"#utility.yul\":15878:15945   */\n      tag_167\n      jump\t// in\n    tag_337:\n        /* \"#utility.yul\":15872:15876   */\n      dup7\n        /* \"#utility.yul\":15865:15946   */\n      sstore\n        /* \"#utility.yul\":15734:15956   */\n      pop\n        /* \"#utility.yul\":15069:15956   */\n      jump(tag_334)\n        /* \"#utility.yul\":15099:15717   */\n    tag_335:\n        /* \"#utility.yul\":15151:15155   */\n      0x1f\n        /* \"#utility.yul\":15147:15156   */\n      not\n        /* \"#utility.yul\":15139:15145   */\n      dup5\n        /* \"#utility.yul\":15135:15157   */\n      and\n        /* \"#utility.yul\":15185:15222   */\n      tag_338\n        /* \"#utility.yul\":15217:15221   */\n      dup7\n        /* \"#utility.yul\":15185:15222   */\n      tag_153\n      jump\t// in\n    tag_338:\n        /* \"#utility.yul\":15244:15245   */\n      0x00\n        /* \"#utility.yul\":15258:15466   */\n    tag_339:\n        /* \"#utility.yul\":15272:15279   */\n      dup3\n        /* \"#utility.yul\":15269:15270   */\n      dup2\n        /* \"#utility.yul\":15266:15280   */\n      lt\n        /* \"#utility.yul\":15258:15466   */\n      iszero\n      tag_341\n      jumpi\n        /* \"#utility.yul\":15351:15360   */\n      dup5\n        /* \"#utility.yul\":15346:15349   */\n      dup10\n        /* \"#utility.yul\":15342:15361   */\n      add\n        /* \"#utility.yul\":15336:15362   */\n      mload\n        /* \"#utility.yul\":15328:15334   */\n      dup3\n        /* \"#utility.yul\":15321:15363   */\n      sstore\n        /* \"#utility.yul\":15402:15403   */\n      0x01\n        /* \"#utility.yul\":15394:15400   */\n      dup3\n        /* \"#utility.yul\":15390:15404   */\n      add\n        /* \"#utility.yul\":15380:15404   */\n      swap2\n      pop\n        /* \"#utility.yul\":15449:15451   */\n      0x20\n        /* \"#utility.yul\":15438:15447   */\n      dup6\n        /* \"#utility.yul\":15434:15452   */\n      add\n        /* \"#utility.yul\":15421:15452   */\n      swap5\n      pop\n        /* \"#utility.yul\":15295:15299   */\n      0x20\n        /* \"#utility.yul\":15292:15293   */\n      dup2\n        /* \"#utility.yul\":15288:15300   */\n      add\n        /* \"#utility.yul\":15283:15300   */\n      swap1\n      pop\n        /* \"#utility.yul\":15258:15466   */\n      jump(tag_339)\n    tag_341:\n        /* \"#utility.yul\":15494:15500   */\n      dup7\n        /* \"#utility.yul\":15485:15492   */\n      dup4\n        /* \"#utility.yul\":15482:15501   */\n      lt\n        /* \"#utility.yul\":15479:15658   */\n      iszero\n      tag_342\n      jumpi\n        /* \"#utility.yul\":15552:15561   */\n      dup5\n        /* \"#utility.yul\":15547:15550   */\n      dup10\n        /* \"#utility.yul\":15543:15562   */\n      add\n        /* \"#utility.yul\":15537:15563   */\n      mload\n        /* \"#utility.yul\":15595:15643   */\n      tag_343\n        /* \"#utility.yul\":15637:15641   */\n      0x1f\n        /* \"#utility.yul\":15629:15635   */\n      dup10\n        /* \"#utility.yul\":15625:15642   */\n      and\n        /* \"#utility.yul\":15614:15623   */\n      dup3\n        /* \"#utility.yul\":15595:15643   */\n      tag_166\n      jump\t// in\n    tag_343:\n        /* \"#utility.yul\":15587:15593   */\n      dup4\n        /* \"#utility.yul\":15580:15644   */\n      sstore\n        /* \"#utility.yul\":15502:15658   */\n      pop\n        /* \"#utility.yul\":15479:15658   */\n    tag_342:\n        /* \"#utility.yul\":15704:15705   */\n      0x01\n        /* \"#utility.yul\":15700:15701   */\n      0x02\n        /* \"#utility.yul\":15692:15698   */\n      dup9\n        /* \"#utility.yul\":15688:15702   */\n      mul\n        /* \"#utility.yul\":15684:15706   */\n      add\n        /* \"#utility.yul\":15678:15682   */\n      dup9\n        /* \"#utility.yul\":15671:15707   */\n      sstore\n        /* \"#utility.yul\":15106:15717   */\n      pop\n      pop\n      pop\n        /* \"#utility.yul\":15069:15956   */\n    tag_334:\n      pop\n        /* \"#utility.yul\":14659:15962   */\n      pop\n      pop\n      pop\n        /* \"#utility.yul\":14567:15962   */\n      pop\n      pop\n      jump\t// out\n        /* \"#utility.yul\":15968:16148   */\n    tag_46:\n        /* \"#utility.yul\":16016:16093   */\n      0x4e487b7100000000000000000000000000000000000000000000000000000000\n        /* \"#utility.yul\":16013:16014   */\n      0x00\n        /* \"#utility.yul\":16006:16094   */\n      mstore\n        /* \"#utility.yul\":16113:16117   */\n      0x32\n        /* \"#utility.yul\":16110:16111   */\n      0x04\n        /* \"#utility.yul\":16103:16118   */\n      mstore\n        /* \"#utility.yul\":16137:16141   */\n      0x24\n        /* \"#utility.yul\":16134:16135   */\n      0x00\n        /* \"#utility.yul\":16127:16142   */\n      revert\n        /* \"#utility.yul\":16154:16334   */\n    tag_168:\n        /* \"#utility.yul\":16202:16279   */\n      0x4e487b7100000000000000000000000000000000000000000000000000000000\n        /* \"#utility.yul\":16199:16200   */\n      0x00\n        /* \"#utility.yul\":16192:16280   */\n      mstore\n        /* \"#utility.yul\":16299:16303   */\n      0x11\n        /* \"#utility.yul\":16296:16297   */\n      0x04\n        /* \"#utility.yul\":16289:16304   */\n      mstore\n        /* \"#utility.yul\":16323:16327   */\n      0x24\n        /* \"#utility.yul\":16320:16321   */\n      0x00\n        /* \"#utility.yul\":16313:16328   */\n      revert\n        /* \"#utility.yul\":16340:16426   */\n    tag_169:\n        /* \"#utility.yul\":16375:16382   */\n      0x00\n        /* \"#utility.yul\":16415:16419   */\n      0xff\n        /* \"#utility.yul\":16408:16413   */\n      dup3\n        /* \"#utility.yul\":16404:16420   */\n      and\n        /* \"#utility.yul\":16393:16420   */\n      swap1\n      pop\n        /* \"#utility.yul\":16340:16426   */\n      swap2\n      swap1\n      pop\n      jump\t// out\n        /* \"#utility.yul\":16432:16599   */\n    tag_50:\n        /* \"#utility.yul\":16469:16472   */\n      0x00\n        /* \"#utility.yul\":16492:16514   */\n      tag_348\n        /* \"#utility.yul\":16508:16513   */\n      dup3\n        /* \"#utility.yul\":16492:16514   */\n      tag_169\n      jump\t// in\n    tag_348:\n        /* \"#utility.yul\":16483:16514   */\n      swap2\n      pop\n        /* \"#utility.yul\":16536:16540   */\n      0xff\n        /* \"#utility.yul\":16529:16534   */\n      dup3\n        /* \"#utility.yul\":16526:16541   */\n      sub\n        /* \"#utility.yul\":16523:16564   */\n      tag_349\n      jumpi\n        /* \"#utility.yul\":16544:16562   */\n      tag_350\n      tag_168\n      jump\t// in\n    tag_350:\n        /* \"#utility.yul\":16523:16564   */\n    tag_349:\n        /* \"#utility.yul\":16591:16592   */\n      0x01\n        /* \"#utility.yul\":16584:16589   */\n      dup3\n        /* \"#utility.yul\":16580:16593   */\n      add\n        /* \"#utility.yul\":16573:16593   */\n      swap1\n      pop\n        /* \"#utility.yul\":16432:16599   */\n      swap2\n      swap1\n      pop\n      jump\t// out\n        /* \"#utility.yul\":16605:16785   */\n    tag_53:\n        /* \"#utility.yul\":16653:16730   */\n      0x4e487b7100000000000000000000000000000000000000000000000000000000\n        /* \"#utility.yul\":16650:16651   */\n      0x00\n        /* \"#utility.yul\":16643:16731   */\n      mstore\n        /* \"#utility.yul\":16750:16754   */\n      0x01\n        /* \"#utility.yul\":16747:16748   */\n      0x04\n        /* \"#utility.yul\":16740:16755   */\n      mstore\n        /* \"#utility.yul\":16774:16778   */\n      0x24\n        /* \"#utility.yul\":16771:16772   */\n      0x00\n        /* \"#utility.yul\":16764:16779   */\n      revert\n        /* \"#utility.yul\":16791:16938   */\n    tag_170:\n        /* \"#utility.yul\":16892:16903   */\n      0x00\n        /* \"#utility.yul\":16929:16932   */\n      dup2\n        /* \"#utility.yul\":16914:16932   */\n      swap1\n      pop\n        /* \"#utility.yul\":16791:16938   */\n      swap3\n      swap2\n      pop\n      pop\n      jump\t// out\n        /* \"#utility.yul\":16944:17088   */\n    tag_171:\n        /* \"#utility.yul\":16996:17000   */\n      0x00\n        /* \"#utility.yul\":17019:17022   */\n      dup2\n        /* \"#utility.yul\":17011:17022   */\n      swap1\n      pop\n        /* \"#utility.yul\":17042:17045   */\n      dup2\n        /* \"#utility.yul\":17039:17040   */\n      0x00\n        /* \"#utility.yul\":17032:17046   */\n      mstore\n        /* \"#utility.yul\":17076:17080   */\n      0x20\n        /* \"#utility.yul\":17073:17074   */\n      0x00\n        /* \"#utility.yul\":17063:17081   */\n      keccak256\n        /* \"#utility.yul\":17055:17081   */\n      swap1\n      pop\n        /* \"#utility.yul\":16944:17088   */\n      swap2\n      swap1\n      pop\n      jump\t// out\n        /* \"#utility.yul\":17116:17994   */\n    tag_172:\n        /* \"#utility.yul\":17221:17224   */\n      0x00\n        /* \"#utility.yul\":17258:17263   */\n      dup2\n        /* \"#utility.yul\":17252:17264   */\n      sload\n        /* \"#utility.yul\":17287:17323   */\n      tag_355\n        /* \"#utility.yul\":17313:17322   */\n      dup2\n        /* \"#utility.yul\":17287:17323   */\n      tag_31\n      jump\t// in\n    tag_355:\n        /* \"#utility.yul\":17339:17427   */\n      tag_356\n        /* \"#utility.yul\":17420:17426   */\n      dup2\n        /* \"#utility.yul\":17415:17418   */\n      dup7\n        /* \"#utility.yul\":17339:17427   */\n      tag_170\n      jump\t// in\n    tag_356:\n        /* \"#utility.yul\":17332:17427   */\n      swap5\n      pop\n        /* \"#utility.yul\":17458:17459   */\n      0x01\n        /* \"#utility.yul\":17447:17456   */\n      dup3\n        /* \"#utility.yul\":17443:17460   */\n      and\n        /* \"#utility.yul\":17474:17475   */\n      0x00\n        /* \"#utility.yul\":17469:17635   */\n      dup2\n      eq\n      tag_358\n      jumpi\n        /* \"#utility.yul\":17649:17650   */\n      0x01\n        /* \"#utility.yul\":17644:17988   */\n      dup2\n      eq\n      tag_359\n      jumpi\n        /* \"#utility.yul\":17436:17988   */\n      jump(tag_357)\n        /* \"#utility.yul\":17469:17635   */\n    tag_358:\n        /* \"#utility.yul\":17553:17557   */\n      0xff\n        /* \"#utility.yul\":17549:17558   */\n      not\n        /* \"#utility.yul\":17538:17547   */\n      dup4\n        /* \"#utility.yul\":17534:17559   */\n      and\n        /* \"#utility.yul\":17529:17532   */\n      dup7\n        /* \"#utility.yul\":17522:17560   */\n      mstore\n        /* \"#utility.yul\":17615:17621   */\n      dup2\n        /* \"#utility.yul\":17608:17622   */\n      iszero\n        /* \"#utility.yul\":17601:17623   */\n      iszero\n        /* \"#utility.yul\":17593:17599   */\n      dup3\n        /* \"#utility.yul\":17589:17624   */\n      mul\n        /* \"#utility.yul\":17584:17587   */\n      dup7\n        /* \"#utility.yul\":17580:17625   */\n      add\n        /* \"#utility.yul\":17573:17625   */\n      swap4\n      pop\n        /* \"#utility.yul\":17469:17635   */\n      jump(tag_357)\n        /* \"#utility.yul\":17644:17988   */\n    tag_359:\n        /* \"#utility.yul\":17711:17752   */\n      tag_360\n        /* \"#utility.yul\":17746:17751   */\n      dup6\n        /* \"#utility.yul\":17711:17752   */\n      tag_171\n      jump\t// in\n    tag_360:\n        /* \"#utility.yul\":17774:17775   */\n      0x00\n        /* \"#utility.yul\":17788:17942   */\n    tag_361:\n        /* \"#utility.yul\":17802:17808   */\n      dup4\n        /* \"#utility.yul\":17799:17800   */\n      dup2\n        /* \"#utility.yul\":17796:17809   */\n      lt\n        /* \"#utility.yul\":17788:17942   */\n      iszero\n      tag_363\n      jumpi\n        /* \"#utility.yul\":17876:17883   */\n      dup2\n        /* \"#utility.yul\":17870:17884   */\n      sload\n        /* \"#utility.yul\":17866:17867   */\n      dup2\n        /* \"#utility.yul\":17861:17864   */\n      dup10\n        /* \"#utility.yul\":17857:17868   */\n      add\n        /* \"#utility.yul\":17850:17885   */\n      mstore\n        /* \"#utility.yul\":17926:17927   */\n      0x01\n        /* \"#utility.yul\":17917:17924   */\n      dup3\n        /* \"#utility.yul\":17913:17928   */\n      add\n        /* \"#utility.yul\":17902:17928   */\n      swap2\n      pop\n        /* \"#utility.yul\":17824:17828   */\n      0x20\n        /* \"#utility.yul\":17821:17822   */\n      dup2\n        /* \"#utility.yul\":17817:17829   */\n      add\n        /* \"#utility.yul\":17812:17829   */\n      swap1\n      pop\n        /* \"#utility.yul\":17788:17942   */\n      jump(tag_361)\n    tag_363:\n        /* \"#utility.yul\":17971:17977   */\n      dup4\n        /* \"#utility.yul\":17966:17969   */\n      dup9\n        /* \"#utility.yul\":17962:17978   */\n      add\n        /* \"#utility.yul\":17955:17978   */\n      swap6\n      pop\n        /* \"#utility.yul\":17651:17988   */\n      pop\n      pop\n        /* \"#utility.yul\":17436:17988   */\n    tag_357:\n      pop\n        /* \"#utility.yul\":17225:17994   */\n      pop\n      pop\n        /* \"#utility.yul\":17116:17994   */\n      swap3\n      swap2\n      pop\n      pop\n      jump\t// out\n        /* \"#utility.yul\":18000:18273   */\n    tag_87:\n        /* \"#utility.yul\":18131:18134   */\n      0x00\n        /* \"#utility.yul\":18153:18247   */\n      tag_365\n        /* \"#utility.yul\":18243:18246   */\n      dup3\n        /* \"#utility.yul\":18234:18240   */\n      dup5\n        /* \"#utility.yul\":18153:18247   */\n      tag_172\n      jump\t// in\n    tag_365:\n        /* \"#utility.yul\":18146:18247   */\n      swap2\n      pop\n        /* \"#utility.yul\":18264:18267   */\n      dup2\n        /* \"#utility.yul\":18257:18267   */\n      swap1\n      pop\n        /* \"#utility.yul\":18000:18273   */\n      swap3\n      swap2\n      pop\n      pop\n      jump\t// out\n\n    auxdata: 0xa26469706673582212207979cce2acf45044ca69b7be2fe9121ed8267aa69814389ed7c8d5e14d12a2da64736f6c634300081a0033\n}\n",
				"bytecode": {
					"linkReferences": {},
					"object": "6080604052348015600e575f80fd5b506111f58061001c5f395ff3fe608060405234801561000f575f80fd5b506004361061004a575f3560e01c80631d9ee5e61461004e57806334f7927514610080578063db528ff51461009c578063db5da3fd146100cc575b5f80fd5b610068600480360381019061006391906108a2565b6100fc565b6040516100779392919061098b565b60405180910390f35b61009a60048036038101906100959190610b1d565b6101d5565b005b6100b660048036038101906100b19190610b89565b61029d565b6040516100c39190610d22565b60405180910390f35b6100e660048036038101906100e19190610d42565b610594565b6040516100f39190610d22565b60405180910390f35b5f818154811061010a575f80fd5b905f5260205f2090600302015f91509050805f01805461012990610db6565b80601f016020809104026020016040519081016040528092919081815260200182805461015590610db6565b80156101a05780601f10610177576101008083540402835291602001916101a0565b820191905f5260205f20905b81548152906001019060200180831161018357829003601f168201915b505050505090806001015490806002015f9054906101000a900473ffffffffffffffffffffffffffffffffffffffff16905083565b5f60405180606001604052808581526020018481526020018373ffffffffffffffffffffffffffffffffffffffff1681525090505f81908060018154018082558091505060019003905f5260205f2090600302015f909190919091505f820151815f0190816102449190610f83565b50602082015181600101556040820151816002015f6101000a81548173ffffffffffffffffffffffffffffffffffffffff021916908373ffffffffffffffffffffffffffffffffffffffff160217905550505050505050565b60605f808054905090505f805f5b83811015610345578573ffffffffffffffffffffffffffffffffffffffff165f82815481106102dd576102dc611052565b5b905f5260205f2090600302016002015f9054906101000a900473ffffffffffffffffffffffffffffffffffffffff1673ffffffffffffffffffffffffffffffffffffffff160361033a57600191508280610336906110b8565b9350505b8060010190506102ab565b600115158215151461035a576103596110e0565b5b5f8360ff1667ffffffffffffffff811115610378576103776109cf565b5b6040519080825280602002602001820160405280156103b157816020015b61039e610829565b8152602001906001900390816103965790505b5090505f8092505b85831015610586578773ffffffffffffffffffffffffffffffffffffffff165f84815481106103eb576103ea611052565b5b905f5260205f2090600302016002015f9054906101000a900473ffffffffffffffffffffffffffffffffffffffff1673ffffffffffffffffffffffffffffffffffffffff160361057b575f838154811061044857610447611052565b5b905f5260205f2090600302016040518060600160405290815f8201805461046e90610db6565b80601f016020809104026020016040519081016040528092919081815260200182805461049a90610db6565b80156104e55780601f106104bc576101008083540402835291602001916104e5565b820191905f5260205f20905b8154815290600101906020018083116104c857829003601f168201915b5050505050815260200160018201548152602001600282015f9054906101000a900473ffffffffffffffffffffffffffffffffffffffff1673ffffffffffffffffffffffffffffffffffffffff1673ffffffffffffffffffffffffffffffffffffffff1681525050828280610559906110b8565b935060ff168151811061056f5761056e611052565b5b60200260200101819052505b8260010192506103b9565b819650505050505050919050565b60605f808054905090505f805f5b8381101561060b5785805190602001205f82815481106105c5576105c4611052565b5b905f5260205f2090600302015f016040516105e091906111a9565b604051809103902003610600576001915082806105fc906110b8565b9350505b8060010190506105a2565b60011515821515146106205761061f6110e0565b5b5f8360ff1667ffffffffffffffff81111561063e5761063d6109cf565b5b60405190808252806020026020018201604052801561067757816020015b610664610829565b81526020019060019003908161065c5790505b5090505f8092505b8583101561081b5787805190602001205f84815481106106a2576106a1611052565b5b905f5260205f2090600302015f016040516106bd91906111a9565b604051809103902003610810575f83815481106106dd576106dc611052565b5b905f5260205f2090600302016040518060600160405290815f8201805461070390610db6565b80601f016020809104026020016040519081016040528092919081815260200182805461072f90610db6565b801561077a5780601f106107515761010080835404028352916020019161077a565b820191905f5260205f20905b81548152906001019060200180831161075d57829003601f168201915b5050505050815260200160018201548152602001600282015f9054906101000a900473ffffffffffffffffffffffffffffffffffffffff1673ffffffffffffffffffffffffffffffffffffffff1673ffffffffffffffffffffffffffffffffffffffff16815250508282806107ee906110b8565b935060ff168151811061080457610803611052565b5b60200260200101819052505b82600101925061067f565b819650505050505050919050565b6040518060600160405280606081526020015f81526020015f73ffffffffffffffffffffffffffffffffffffffff1681525090565b5f604051905090565b5f80fd5b5f80fd5b5f819050919050565b6108818161086f565b811461088b575f80fd5b50565b5f8135905061089c81610878565b92915050565b5f602082840312156108b7576108b6610867565b5b5f6108c48482850161088e565b91505092915050565b5f81519050919050565b5f82825260208201905092915050565b8281835e5f83830152505050565b5f601f19601f8301169050919050565b5f61090f826108cd565b61091981856108d7565b93506109298185602086016108e7565b610932816108f5565b840191505092915050565b6109468161086f565b82525050565b5f73ffffffffffffffffffffffffffffffffffffffff82169050919050565b5f6109758261094c565b9050919050565b6109858161096b565b82525050565b5f6060820190508181035f8301526109a38186610905565b90506109b2602083018561093d565b6109bf604083018461097c565b949350505050565b5f80fd5b5f80fd5b7f4e487b71000000000000000000000000000000000000000000000000000000005f52604160045260245ffd5b610a05826108f5565b810181811067ffffffffffffffff82111715610a2457610a236109cf565b5b80604052505050565b5f610a3661085e565b9050610a4282826109fc565b919050565b5f67ffffffffffffffff821115610a6157610a606109cf565b5b610a6a826108f5565b9050602081019050919050565b828183375f83830152505050565b5f610a97610a9284610a47565b610a2d565b905082815260208101848484011115610ab357610ab26109cb565b5b610abe848285610a77565b509392505050565b5f82601f830112610ada57610ad96109c7565b5b8135610aea848260208601610a85565b91505092915050565b610afc8161096b565b8114610b06575f80fd5b50565b5f81359050610b1781610af3565b92915050565b5f805f60608486031215610b3457610b33610867565b5b5f84013567ffffffffffffffff811115610b5157610b5061086b565b5b610b5d86828701610ac6565b9350506020610b6e8682870161088e565b9250506040610b7f86828701610b09565b9150509250925092565b5f60208284031215610b9e57610b9d610867565b5b5f610bab84828501610b09565b91505092915050565b5f81519050919050565b5f82825260208201905092915050565b5f819050602082019050919050565b5f82825260208201905092915050565b5f610bf7826108cd565b610c018185610bdd565b9350610c118185602086016108e7565b610c1a816108f5565b840191505092915050565b610c2e8161086f565b82525050565b610c3d8161096b565b82525050565b5f606083015f8301518482035f860152610c5d8282610bed565b9150506020830151610c726020860182610c25565b506040830151610c856040860182610c34565b508091505092915050565b5f610c9b8383610c43565b905092915050565b5f602082019050919050565b5f610cb982610bb4565b610cc38185610bbe565b935083602082028501610cd585610bce565b805f5b85811015610d105784840389528151610cf18582610c90565b9450610cfc83610ca3565b925060208a01995050600181019050610cd8565b50829750879550505050505092915050565b5f6020820190508181035f830152610d3a8184610caf565b905092915050565b5f60208284031215610d5757610d56610867565b5b5f82013567ffffffffffffffff811115610d7457610d7361086b565b5b610d8084828501610ac6565b91505092915050565b7f4e487b71000000000000000000000000000000000000000000000000000000005f52602260045260245ffd5b5f6002820490506001821680610dcd57607f821691505b602082108103610de057610ddf610d89565b5b50919050565b5f819050815f5260205f209050919050565b5f6020601f8301049050919050565b5f82821b905092915050565b5f60088302610e427fffffffffffffffffffffffffffffffffffffffffffffffffffffffffffffffff82610e07565b610e4c8683610e07565b95508019841693508086168417925050509392505050565b5f819050919050565b5f610e87610e82610e7d8461086f565b610e64565b61086f565b9050919050565b5f819050919050565b610ea083610e6d565b610eb4610eac82610e8e565b848454610e13565b825550505050565b5f90565b610ec8610ebc565b610ed3818484610e97565b505050565b5b81811015610ef657610eeb5f82610ec0565b600181019050610ed9565b5050565b601f821115610f3b57610f0c81610de6565b610f1584610df8565b81016020851015610f24578190505b610f38610f3085610df8565b830182610ed8565b50505b505050565b5f82821c905092915050565b5f610f5b5f1984600802610f40565b1980831691505092915050565b5f610f738383610f4c565b9150826002028217905092915050565b610f8c826108cd565b67ffffffffffffffff811115610fa557610fa46109cf565b5b610faf8254610db6565b610fba828285610efa565b5f60209050601f831160018114610feb575f8415610fd9578287015190505b610fe38582610f68565b86555061104a565b601f198416610ff986610de6565b5f5b8281101561102057848901518255600182019150602085019450602081019050610ffb565b8683101561103d5784890151611039601f891682610f4c565b8355505b6001600288020188555050505b505050505050565b7f4e487b71000000000000000000000000000000000000000000000000000000005f52603260045260245ffd5b7f4e487b71000000000000000000000000000000000000000000000000000000005f52601160045260245ffd5b5f60ff82169050919050565b5f6110c2826110ac565b915060ff82036110d5576110d461107f565b5b600182019050919050565b7f4e487b71000000000000000000000000000000000000000000000000000000005f52600160045260245ffd5b5f81905092915050565b5f819050815f5260205f209050919050565b5f815461113581610db6565b61113f818661110d565b9450600182165f8114611159576001811461116e576111a0565b60ff19831686528115158202860193506111a0565b61117785611117565b5f5b8381101561119857815481890152600182019150602081019050611179565b838801955050505b50505092915050565b5f6111b48284611129565b91508190509291505056fea26469706673582212207979cce2acf45044ca69b7be2fe9121ed8267aa69814389ed7c8d5e14d12a2da64736f6c634300081a0033",
					"opcodes": "PUSH1 0x80 PUSH1 0x40 MSTORE CALLVALUE DUP1 ISZERO PUSH1 0xE JUMPI PUSH0 DUP1 REVERT JUMPDEST POP PUSH2 0x11F5 DUP1 PUSH2 0x1C PUSH0 CODECOPY PUSH0 RETURN INVALID PUSH1 0x80 PUSH1 0x40 MSTORE CALLVALUE DUP1 ISZERO PUSH2 0xF JUMPI PUSH0 DUP1 REVERT JUMPDEST POP PUSH1 0x4 CALLDATASIZE LT PUSH2 0x4A JUMPI PUSH0 CALLDATALOAD PUSH1 0xE0 SHR DUP1 PUSH4 0x1D9EE5E6 EQ PUSH2 0x4E JUMPI DUP1 PUSH4 0x34F79275 EQ PUSH2 0x80 JUMPI DUP1 PUSH4 0xDB528FF5 EQ PUSH2 0x9C JUMPI DUP1 PUSH4 0xDB5DA3FD EQ PUSH2 0xCC JUMPI JUMPDEST PUSH0 DUP1 REVERT JUMPDEST PUSH2 0x68 PUSH1 0x4 DUP1 CALLDATASIZE SUB DUP2 ADD SWAP1 PUSH2 0x63 SWAP2 SWAP1 PUSH2 0x8A2 JUMP JUMPDEST PUSH2 0xFC JUMP JUMPDEST PUSH1 0x40 MLOAD PUSH2 0x77 SWAP4 SWAP3 SWAP2 SWAP1 PUSH2 0x98B JUMP JUMPDEST PUSH1 0x40 MLOAD DUP1 SWAP2 SUB SWAP1 RETURN JUMPDEST PUSH2 0x9A PUSH1 0x4 DUP1 CALLDATASIZE SUB DUP2 ADD SWAP1 PUSH2 0x95 SWAP2 SWAP1 PUSH2 0xB1D JUMP JUMPDEST PUSH2 0x1D5 JUMP JUMPDEST STOP JUMPDEST PUSH2 0xB6 PUSH1 0x4 DUP1 CALLDATASIZE SUB DUP2 ADD SWAP1 PUSH2 0xB1 SWAP2 SWAP1 PUSH2 0xB89 JUMP JUMPDEST PUSH2 0x29D JUMP JUMPDEST PUSH1 0x40 MLOAD PUSH2 0xC3 SWAP2 SWAP1 PUSH2 0xD22 JUMP JUMPDEST PUSH1 0x40 MLOAD DUP1 SWAP2 SUB SWAP1 RETURN JUMPDEST PUSH2 0xE6 PUSH1 0x4 DUP1 CALLDATASIZE SUB DUP2 ADD SWAP1 PUSH2 0xE1 SWAP2 SWAP1 PUSH2 0xD42 JUMP JUMPDEST PUSH2 0x594 JUMP JUMPDEST PUSH1 0x40 MLOAD PUSH2 0xF3 SWAP2 SWAP1 PUSH2 0xD22 JUMP JUMPDEST PUSH1 0x40 MLOAD DUP1 SWAP2 SUB SWAP1 RETURN JUMPDEST PUSH0 DUP2 DUP2 SLOAD DUP2 LT PUSH2 0x10A JUMPI PUSH0 DUP1 REVERT JUMPDEST SWAP1 PUSH0 MSTORE PUSH1 0x20 PUSH0 KECCAK256 SWAP1 PUSH1 0x3 MUL ADD PUSH0 SWAP2 POP SWAP1 POP DUP1 PUSH0 ADD DUP1 SLOAD PUSH2 0x129 SWAP1 PUSH2 0xDB6 JUMP JUMPDEST DUP1 PUSH1 0x1F ADD PUSH1 0x20 DUP1 SWAP2 DIV MUL PUSH1 0x20 ADD PUSH1 0x40 MLOAD SWAP1 DUP2 ADD PUSH1 0x40 MSTORE DUP1 SWAP3 SWAP2 SWAP1 DUP2 DUP2 MSTORE PUSH1 0x20 ADD DUP3 DUP1 SLOAD PUSH2 0x155 SWAP1 PUSH2 0xDB6 JUMP JUMPDEST DUP1 ISZERO PUSH2 0x1A0 JUMPI DUP1 PUSH1 0x1F LT PUSH2 0x177 JUMPI PUSH2 0x100 DUP1 DUP4 SLOAD DIV MUL DUP4 MSTORE SWAP2 PUSH1 0x20 ADD SWAP2 PUSH2 0x1A0 JUMP JUMPDEST DUP3 ADD SWAP2 SWAP1 PUSH0 MSTORE PUSH1 0x20 PUSH0 KECCAK256 SWAP1 JUMPDEST DUP2 SLOAD DUP2 MSTORE SWAP1 PUSH1 0x1 ADD SWAP1 PUSH1 0x20 ADD DUP1 DUP4 GT PUSH2 0x183 JUMPI DUP3 SWAP1 SUB PUSH1 0x1F AND DUP3 ADD SWAP2 JUMPDEST POP POP POP POP POP SWAP1 DUP1 PUSH1 0x1 ADD SLOAD SWAP1 DUP1 PUSH1 0x2 ADD PUSH0 SWAP1 SLOAD SWAP1 PUSH2 0x100 EXP SWAP1 DIV PUSH20 0xFFFFFFFFFFFFFFFFFFFFFFFFFFFFFFFFFFFFFFFF AND SWAP1 POP DUP4 JUMP JUMPDEST PUSH0 PUSH1 0x40 MLOAD DUP1 PUSH1 0x60 ADD PUSH1 0x40 MSTORE DUP1 DUP6 DUP2 MSTORE PUSH1 0x20 ADD DUP5 DUP2 MSTORE PUSH1 0x20 ADD DUP4 PUSH20 0xFFFFFFFFFFFFFFFFFFFFFFFFFFFFFFFFFFFFFFFF AND DUP2 MSTORE POP SWAP1 POP PUSH0 DUP2 SWAP1 DUP1 PUSH1 0x1 DUP2 SLOAD ADD DUP1 DUP3 SSTORE DUP1 SWAP2 POP POP PUSH1 0x1 SWAP1 SUB SWAP1 PUSH0 MSTORE PUSH1 0x20 PUSH0 KECCAK256 SWAP1 PUSH1 0x3 MUL ADD PUSH0 SWAP1 SWAP2 SWAP1 SWAP2 SWAP1 SWAP2 POP PUSH0 DUP3 ADD MLOAD DUP2 PUSH0 ADD SWAP1 DUP2 PUSH2 0x244 SWAP2 SWAP1 PUSH2 0xF83 JUMP JUMPDEST POP PUSH1 0x20 DUP3 ADD MLOAD DUP2 PUSH1 0x1 ADD SSTORE PUSH1 0x40 DUP3 ADD MLOAD DUP2 PUSH1 0x2 ADD PUSH0 PUSH2 0x100 EXP DUP2 SLOAD DUP2 PUSH20 0xFFFFFFFFFFFFFFFFFFFFFFFFFFFFFFFFFFFFFFFF MUL NOT AND SWAP1 DUP4 PUSH20 0xFFFFFFFFFFFFFFFFFFFFFFFFFFFFFFFFFFFFFFFF AND MUL OR SWAP1 SSTORE POP POP POP POP POP POP POP JUMP JUMPDEST PUSH1 0x60 PUSH0 DUP1 DUP1 SLOAD SWAP1 POP SWAP1 POP PUSH0 DUP1 PUSH0 JUMPDEST DUP4 DUP2 LT ISZERO PUSH2 0x345 JUMPI DUP6 PUSH20 0xFFFFFFFFFFFFFFFFFFFFFFFFFFFFFFFFFFFFFFFF AND PUSH0 DUP3 DUP2 SLOAD DUP2 LT PUSH2 0x2DD JUMPI PUSH2 0x2DC PUSH2 0x1052 JUMP JUMPDEST JUMPDEST SWAP1 PUSH0 MSTORE PUSH1 0x20 PUSH0 KECCAK256 SWAP1 PUSH1 0x3 MUL ADD PUSH1 0x2 ADD PUSH0 SWAP1 SLOAD SWAP1 PUSH2 0x100 EXP SWAP1 DIV PUSH20 0xFFFFFFFFFFFFFFFFFFFFFFFFFFFFFFFFFFFFFFFF AND PUSH20 0xFFFFFFFFFFFFFFFFFFFFFFFFFFFFFFFFFFFFFFFF AND SUB PUSH2 0x33A JUMPI PUSH1 0x1 SWAP2 POP DUP3 DUP1 PUSH2 0x336 SWAP1 PUSH2 0x10B8 JUMP JUMPDEST SWAP4 POP POP JUMPDEST DUP1 PUSH1 0x1 ADD SWAP1 POP PUSH2 0x2AB JUMP JUMPDEST PUSH1 0x1 ISZERO ISZERO DUP3 ISZERO ISZERO EQ PUSH2 0x35A JUMPI PUSH2 0x359 PUSH2 0x10E0 JUMP JUMPDEST JUMPDEST PUSH0 DUP4 PUSH1 0xFF AND PUSH8 0xFFFFFFFFFFFFFFFF DUP2 GT ISZERO PUSH2 0x378 JUMPI PUSH2 0x377 PUSH2 0x9CF JUMP JUMPDEST JUMPDEST PUSH1 0x40 MLOAD SWAP1 DUP1 DUP3 MSTORE DUP1 PUSH1 0x20 MUL PUSH1 0x20 ADD DUP3 ADD PUSH1 0x40 MSTORE DUP1 ISZERO PUSH2 0x3B1 JUMPI DUP2 PUSH1 0x20 ADD JUMPDEST PUSH2 0x39E PUSH2 0x829 JUMP JUMPDEST DUP2 MSTORE PUSH1 0x20 ADD SWAP1 PUSH1 0x1 SWAP1 SUB SWAP1 DUP2 PUSH2 0x396 JUMPI SWAP1 POP JUMPDEST POP SWAP1 POP PUSH0 DUP1 SWAP3 POP JUMPDEST DUP6 DUP4 LT ISZERO PUSH2 0x586 JUMPI DUP8 PUSH20 0xFFFFFFFFFFFFFFFFFFFFFFFFFFFFFFFFFFFFFFFF AND PUSH0 DUP5 DUP2 SLOAD DUP2 LT PUSH2 0x3EB JUMPI PUSH2 0x3EA PUSH2 0x1052 JUMP JUMPDEST JUMPDEST SWAP1 PUSH0 MSTORE PUSH1 0x20 PUSH0 KECCAK256 SWAP1 PUSH1 0x3 MUL ADD PUSH1 0x2 ADD PUSH0 SWAP1 SLOAD SWAP1 PUSH2 0x100 EXP SWAP1 DIV PUSH20 0xFFFFFFFFFFFFFFFFFFFFFFFFFFFFFFFFFFFFFFFF AND PUSH20 0xFFFFFFFFFFFFFFFFFFFFFFFFFFFFFFFFFFFFFFFF AND SUB PUSH2 0x57B JUMPI PUSH0 DUP4 DUP2 SLOAD DUP2 LT PUSH2 0x448 JUMPI PUSH2 0x447 PUSH2 0x1052 JUMP JUMPDEST JUMPDEST SWAP1 PUSH0 MSTORE PUSH1 0x20 PUSH0 KECCAK256 SWAP1 PUSH1 0x3 MUL ADD PUSH1 0x40 MLOAD DUP1 PUSH1 0x60 ADD PUSH1 0x40 MSTORE SWAP1 DUP2 PUSH0 DUP3 ADD DUP1 SLOAD PUSH2 0x46E SWAP1 PUSH2 0xDB6 JUMP JUMPDEST DUP1 PUSH1 0x1F ADD PUSH1 0x20 DUP1 SWAP2 DIV MUL PUSH1 0x20 ADD PUSH1 0x40 MLOAD SWAP1 DUP2 ADD PUSH1 0x40 MSTORE DUP1 SWAP3 SWAP2 SWAP1 DUP2 DUP2 MSTORE PUSH1 0x20 ADD DUP3 DUP1 SLOAD PUSH2 0x49A SWAP1 PUSH2 0xDB6 JUMP JUMPDEST DUP1 ISZERO PUSH2 0x4E5 JUMPI DUP1 PUSH1 0x1F LT PUSH2 0x4BC JUMPI PUSH2 0x100 DUP1 DUP4 SLOAD DIV MUL DUP4 MSTORE SWAP2 PUSH1 0x20 ADD SWAP2 PUSH2 0x4E5 JUMP JUMPDEST DUP3 ADD SWAP2 SWAP1 PUSH0 MSTORE PUSH1 0x20 PUSH0 KECCAK256 SWAP1 JUMPDEST DUP2 SLOAD DUP2 MSTORE SWAP1 PUSH1 0x1 ADD SWAP1 PUSH1 0x20 ADD DUP1 DUP4 GT PUSH2 0x4C8 JUMPI DUP3 SWAP1 SUB PUSH1 0x1F AND DUP3 ADD SWAP2 JUMPDEST POP POP POP POP POP DUP2 MSTORE PUSH1 0x20 ADD PUSH1 0x1 DUP3 ADD SLOAD DUP2 MSTORE PUSH1 0x20 ADD PUSH1 0x2 DUP3 ADD PUSH0 SWAP1 SLOAD SWAP1 PUSH2 0x100 EXP SWAP1 DIV PUSH20 0xFFFFFFFFFFFFFFFFFFFFFFFFFFFFFFFFFFFFFFFF AND PUSH20 0xFFFFFFFFFFFFFFFFFFFFFFFFFFFFFFFFFFFFFFFF AND PUSH20 0xFFFFFFFFFFFFFFFFFFFFFFFFFFFFFFFFFFFFFFFF AND DUP2 MSTORE POP POP DUP3 DUP3 DUP1 PUSH2 0x559 SWAP1 PUSH2 0x10B8 JUMP JUMPDEST SWAP4 POP PUSH1 0xFF AND DUP2 MLOAD DUP2 LT PUSH2 0x56F JUMPI PUSH2 0x56E PUSH2 0x1052 JUMP JUMPDEST JUMPDEST PUSH1 0x20 MUL PUSH1 0x20 ADD ADD DUP2 SWAP1 MSTORE POP JUMPDEST DUP3 PUSH1 0x1 ADD SWAP3 POP PUSH2 0x3B9 JUMP JUMPDEST DUP2 SWAP7 POP POP POP POP POP POP POP SWAP2 SWAP1 POP JUMP JUMPDEST PUSH1 0x60 PUSH0 DUP1 DUP1 SLOAD SWAP1 POP SWAP1 POP PUSH0 DUP1 PUSH0 JUMPDEST DUP4 DUP2 LT ISZERO PUSH2 0x60B JUMPI DUP6 DUP1 MLOAD SWAP1 PUSH1 0x20 ADD KECCAK256 PUSH0 DUP3 DUP2 SLOAD DUP2 LT PUSH2 0x5C5 JUMPI PUSH2 0x5C4 PUSH2 0x1052 JUMP JUMPDEST JUMPDEST SWAP1 PUSH0 MSTORE PUSH1 0x20 PUSH0 KECCAK256 SWAP1 PUSH1 0x3 MUL ADD PUSH0 ADD PUSH1 0x40 MLOAD PUSH2 0x5E0 SWAP2 SWAP1 PUSH2 0x11A9 JUMP JUMPDEST PUSH1 0x40 MLOAD DUP1 SWAP2 SUB SWAP1 KECCAK256 SUB PUSH2 0x600 JUMPI PUSH1 0x1 SWAP2 POP DUP3 DUP1 PUSH2 0x5FC SWAP1 PUSH2 0x10B8 JUMP JUMPDEST SWAP4 POP POP JUMPDEST DUP1 PUSH1 0x1 ADD SWAP1 POP PUSH2 0x5A2 JUMP JUMPDEST PUSH1 0x1 ISZERO ISZERO DUP3 ISZERO ISZERO EQ PUSH2 0x620 JUMPI PUSH2 0x61F PUSH2 0x10E0 JUMP JUMPDEST JUMPDEST PUSH0 DUP4 PUSH1 0xFF AND PUSH8 0xFFFFFFFFFFFFFFFF DUP2 GT ISZERO PUSH2 0x63E JUMPI PUSH2 0x63D PUSH2 0x9CF JUMP JUMPDEST JUMPDEST PUSH1 0x40 MLOAD SWAP1 DUP1 DUP3 MSTORE DUP1 PUSH1 0x20 MUL PUSH1 0x20 ADD DUP3 ADD PUSH1 0x40 MSTORE DUP1 ISZERO PUSH2 0x677 JUMPI DUP2 PUSH1 0x20 ADD JUMPDEST PUSH2 0x664 PUSH2 0x829 JUMP JUMPDEST DUP2 MSTORE PUSH1 0x20 ADD SWAP1 PUSH1 0x1 SWAP1 SUB SWAP1 DUP2 PUSH2 0x65C JUMPI SWAP1 POP JUMPDEST POP SWAP1 POP PUSH0 DUP1 SWAP3 POP JUMPDEST DUP6 DUP4 LT ISZERO PUSH2 0x81B JUMPI DUP8 DUP1 MLOAD SWAP1 PUSH1 0x20 ADD KECCAK256 PUSH0 DUP5 DUP2 SLOAD DUP2 LT PUSH2 0x6A2 JUMPI PUSH2 0x6A1 PUSH2 0x1052 JUMP JUMPDEST JUMPDEST SWAP1 PUSH0 MSTORE PUSH1 0x20 PUSH0 KECCAK256 SWAP1 PUSH1 0x3 MUL ADD PUSH0 ADD PUSH1 0x40 MLOAD PUSH2 0x6BD SWAP2 SWAP1 PUSH2 0x11A9 JUMP JUMPDEST PUSH1 0x40 MLOAD DUP1 SWAP2 SUB SWAP1 KECCAK256 SUB PUSH2 0x810 JUMPI PUSH0 DUP4 DUP2 SLOAD DUP2 LT PUSH2 0x6DD JUMPI PUSH2 0x6DC PUSH2 0x1052 JUMP JUMPDEST JUMPDEST SWAP1 PUSH0 MSTORE PUSH1 0x20 PUSH0 KECCAK256 SWAP1 PUSH1 0x3 MUL ADD PUSH1 0x40 MLOAD DUP1 PUSH1 0x60 ADD PUSH1 0x40 MSTORE SWAP1 DUP2 PUSH0 DUP3 ADD DUP1 SLOAD PUSH2 0x703 SWAP1 PUSH2 0xDB6 JUMP JUMPDEST DUP1 PUSH1 0x1F ADD PUSH1 0x20 DUP1 SWAP2 DIV MUL PUSH1 0x20 ADD PUSH1 0x40 MLOAD SWAP1 DUP2 ADD PUSH1 0x40 MSTORE DUP1 SWAP3 SWAP2 SWAP1 DUP2 DUP2 MSTORE PUSH1 0x20 ADD DUP3 DUP1 SLOAD PUSH2 0x72F SWAP1 PUSH2 0xDB6 JUMP JUMPDEST DUP1 ISZERO PUSH2 0x77A JUMPI DUP1 PUSH1 0x1F LT PUSH2 0x751 JUMPI PUSH2 0x100 DUP1 DUP4 SLOAD DIV MUL DUP4 MSTORE SWAP2 PUSH1 0x20 ADD SWAP2 PUSH2 0x77A JUMP JUMPDEST DUP3 ADD SWAP2 SWAP1 PUSH0 MSTORE PUSH1 0x20 PUSH0 KECCAK256 SWAP1 JUMPDEST DUP2 SLOAD DUP2 MSTORE SWAP1 PUSH1 0x1 ADD SWAP1 PUSH1 0x20 ADD DUP1 DUP4 GT PUSH2 0x75D JUMPI DUP3 SWAP1 SUB PUSH1 0x1F AND DUP3 ADD SWAP2 JUMPDEST POP POP POP POP POP DUP2 MSTORE PUSH1 0x20 ADD PUSH1 0x1 DUP3 ADD SLOAD DUP2 MSTORE PUSH1 0x20 ADD PUSH1 0x2 DUP3 ADD PUSH0 SWAP1 SLOAD SWAP1 PUSH2 0x100 EXP SWAP1 DIV PUSH20 0xFFFFFFFFFFFFFFFFFFFFFFFFFFFFFFFFFFFFFFFF AND PUSH20 0xFFFFFFFFFFFFFFFFFFFFFFFFFFFFFFFFFFFFFFFF AND PUSH20 0xFFFFFFFFFFFFFFFFFFFFFFFFFFFFFFFFFFFFFFFF AND DUP2 MSTORE POP POP DUP3 DUP3 DUP1 PUSH2 0x7EE SWAP1 PUSH2 0x10B8 JUMP JUMPDEST SWAP4 POP PUSH1 0xFF AND DUP2 MLOAD DUP2 LT PUSH2 0x804 JUMPI PUSH2 0x803 PUSH2 0x1052 JUMP JUMPDEST JUMPDEST PUSH1 0x20 MUL PUSH1 0x20 ADD ADD DUP2 SWAP1 MSTORE POP JUMPDEST DUP3 PUSH1 0x1 ADD SWAP3 POP PUSH2 0x67F JUMP JUMPDEST DUP2 SWAP7 POP POP POP POP POP POP POP SWAP2 SWAP1 POP JUMP JUMPDEST PUSH1 0x40 MLOAD DUP1 PUSH1 0x60 ADD PUSH1 0x40 MSTORE DUP1 PUSH1 0x60 DUP2 MSTORE PUSH1 0x20 ADD PUSH0 DUP2 MSTORE PUSH1 0x20 ADD PUSH0 PUSH20 0xFFFFFFFFFFFFFFFFFFFFFFFFFFFFFFFFFFFFFFFF AND DUP2 MSTORE POP SWAP1 JUMP JUMPDEST PUSH0 PUSH1 0x40 MLOAD SWAP1 POP SWAP1 JUMP JUMPDEST PUSH0 DUP1 REVERT JUMPDEST PUSH0 DUP1 REVERT JUMPDEST PUSH0 DUP2 SWAP1 POP SWAP2 SWAP1 POP JUMP JUMPDEST PUSH2 0x881 DUP2 PUSH2 0x86F JUMP JUMPDEST DUP2 EQ PUSH2 0x88B JUMPI PUSH0 DUP1 REVERT JUMPDEST POP JUMP JUMPDEST PUSH0 DUP2 CALLDATALOAD SWAP1 POP PUSH2 0x89C DUP2 PUSH2 0x878 JUMP JUMPDEST SWAP3 SWAP2 POP POP JUMP JUMPDEST PUSH0 PUSH1 0x20 DUP3 DUP5 SUB SLT ISZERO PUSH2 0x8B7 JUMPI PUSH2 0x8B6 PUSH2 0x867 JUMP JUMPDEST JUMPDEST PUSH0 PUSH2 0x8C4 DUP5 DUP3 DUP6 ADD PUSH2 0x88E JUMP JUMPDEST SWAP2 POP POP SWAP3 SWAP2 POP POP JUMP JUMPDEST PUSH0 DUP2 MLOAD SWAP1 POP SWAP2 SWAP1 POP JUMP JUMPDEST PUSH0 DUP3 DUP3 MSTORE PUSH1 0x20 DUP3 ADD SWAP1 POP SWAP3 SWAP2 POP POP JUMP JUMPDEST DUP3 DUP2 DUP4 MCOPY PUSH0 DUP4 DUP4 ADD MSTORE POP POP POP JUMP JUMPDEST PUSH0 PUSH1 0x1F NOT PUSH1 0x1F DUP4 ADD AND SWAP1 POP SWAP2 SWAP1 POP JUMP JUMPDEST PUSH0 PUSH2 0x90F DUP3 PUSH2 0x8CD JUMP JUMPDEST PUSH2 0x919 DUP2 DUP6 PUSH2 0x8D7 JUMP JUMPDEST SWAP4 POP PUSH2 0x929 DUP2 DUP6 PUSH1 0x20 DUP7 ADD PUSH2 0x8E7 JUMP JUMPDEST PUSH2 0x932 DUP2 PUSH2 0x8F5 JUMP JUMPDEST DUP5 ADD SWAP2 POP POP SWAP3 SWAP2 POP POP JUMP JUMPDEST PUSH2 0x946 DUP2 PUSH2 0x86F JUMP JUMPDEST DUP3 MSTORE POP POP JUMP JUMPDEST PUSH0 PUSH20 0xFFFFFFFFFFFFFFFFFFFFFFFFFFFFFFFFFFFFFFFF DUP3 AND SWAP1 POP SWAP2 SWAP1 POP JUMP JUMPDEST PUSH0 PUSH2 0x975 DUP3 PUSH2 0x94C JUMP JUMPDEST SWAP1 POP SWAP2 SWAP1 POP JUMP JUMPDEST PUSH2 0x985 DUP2 PUSH2 0x96B JUMP JUMPDEST DUP3 MSTORE POP POP JUMP JUMPDEST PUSH0 PUSH1 0x60 DUP3 ADD SWAP1 POP DUP2 DUP2 SUB PUSH0 DUP4 ADD MSTORE PUSH2 0x9A3 DUP2 DUP7 PUSH2 0x905 JUMP JUMPDEST SWAP1 POP PUSH2 0x9B2 PUSH1 0x20 DUP4 ADD DUP6 PUSH2 0x93D JUMP JUMPDEST PUSH2 0x9BF PUSH1 0x40 DUP4 ADD DUP5 PUSH2 0x97C JUMP JUMPDEST SWAP5 SWAP4 POP POP POP POP JUMP JUMPDEST PUSH0 DUP1 REVERT JUMPDEST PUSH0 DUP1 REVERT JUMPDEST PUSH32 0x4E487B7100000000000000000000000000000000000000000000000000000000 PUSH0 MSTORE PUSH1 0x41 PUSH1 0x4 MSTORE PUSH1 0x24 PUSH0 REVERT JUMPDEST PUSH2 0xA05 DUP3 PUSH2 0x8F5 JUMP JUMPDEST DUP2 ADD DUP2 DUP2 LT PUSH8 0xFFFFFFFFFFFFFFFF DUP3 GT OR ISZERO PUSH2 0xA24 JUMPI PUSH2 0xA23 PUSH2 0x9CF JUMP JUMPDEST JUMPDEST DUP1 PUSH1 0x40 MSTORE POP POP POP JUMP JUMPDEST PUSH0 PUSH2 0xA36 PUSH2 0x85E JUMP JUMPDEST SWAP1 POP PUSH2 0xA42 DUP3 DUP3 PUSH2 0x9FC JUMP JUMPDEST SWAP2 SWAP1 POP JUMP JUMPDEST PUSH0 PUSH8 0xFFFFFFFFFFFFFFFF DUP3 GT ISZERO PUSH2 0xA61 JUMPI PUSH2 0xA60 PUSH2 0x9CF JUMP JUMPDEST JUMPDEST PUSH2 0xA6A DUP3 PUSH2 0x8F5 JUMP JUMPDEST SWAP1 POP PUSH1 0x20 DUP2 ADD SWAP1 POP SWAP2 SWAP1 POP JUMP JUMPDEST DUP3 DUP2 DUP4 CALLDATACOPY PUSH0 DUP4 DUP4 ADD MSTORE POP POP POP JUMP JUMPDEST PUSH0 PUSH2 0xA97 PUSH2 0xA92 DUP5 PUSH2 0xA47 JUMP JUMPDEST PUSH2 0xA2D JUMP JUMPDEST SWAP1 POP DUP3 DUP2 MSTORE PUSH1 0x20 DUP2 ADD DUP5 DUP5 DUP5 ADD GT ISZERO PUSH2 0xAB3 JUMPI PUSH2 0xAB2 PUSH2 0x9CB JUMP JUMPDEST JUMPDEST PUSH2 0xABE DUP5 DUP3 DUP6 PUSH2 0xA77 JUMP JUMPDEST POP SWAP4 SWAP3 POP POP POP JUMP JUMPDEST PUSH0 DUP3 PUSH1 0x1F DUP4 ADD SLT PUSH2 0xADA JUMPI PUSH2 0xAD9 PUSH2 0x9C7 JUMP JUMPDEST JUMPDEST DUP2 CALLDATALOAD PUSH2 0xAEA DUP5 DUP3 PUSH1 0x20 DUP7 ADD PUSH2 0xA85 JUMP JUMPDEST SWAP2 POP POP SWAP3 SWAP2 POP POP JUMP JUMPDEST PUSH2 0xAFC DUP2 PUSH2 0x96B JUMP JUMPDEST DUP2 EQ PUSH2 0xB06 JUMPI PUSH0 DUP1 REVERT JUMPDEST POP JUMP JUMPDEST PUSH0 DUP2 CALLDATALOAD SWAP1 POP PUSH2 0xB17 DUP2 PUSH2 0xAF3 JUMP JUMPDEST SWAP3 SWAP2 POP POP JUMP JUMPDEST PUSH0 DUP1 PUSH0 PUSH1 0x60 DUP5 DUP7 SUB SLT ISZERO PUSH2 0xB34 JUMPI PUSH2 0xB33 PUSH2 0x867 JUMP JUMPDEST JUMPDEST PUSH0 DUP5 ADD CALLDATALOAD PUSH8 0xFFFFFFFFFFFFFFFF DUP2 GT ISZERO PUSH2 0xB51 JUMPI PUSH2 0xB50 PUSH2 0x86B JUMP JUMPDEST JUMPDEST PUSH2 0xB5D DUP7 DUP3 DUP8 ADD PUSH2 0xAC6 JUMP JUMPDEST SWAP4 POP POP PUSH1 0x20 PUSH2 0xB6E DUP7 DUP3 DUP8 ADD PUSH2 0x88E JUMP JUMPDEST SWAP3 POP POP PUSH1 0x40 PUSH2 0xB7F DUP7 DUP3 DUP8 ADD PUSH2 0xB09 JUMP JUMPDEST SWAP2 POP POP SWAP3 POP SWAP3 POP SWAP3 JUMP JUMPDEST PUSH0 PUSH1 0x20 DUP3 DUP5 SUB SLT ISZERO PUSH2 0xB9E JUMPI PUSH2 0xB9D PUSH2 0x867 JUMP JUMPDEST JUMPDEST PUSH0 PUSH2 0xBAB DUP5 DUP3 DUP6 ADD PUSH2 0xB09 JUMP JUMPDEST SWAP2 POP POP SWAP3 SWAP2 POP POP JUMP JUMPDEST PUSH0 DUP2 MLOAD SWAP1 POP SWAP2 SWAP1 POP JUMP JUMPDEST PUSH0 DUP3 DUP3 MSTORE PUSH1 0x20 DUP3 ADD SWAP1 POP SWAP3 SWAP2 POP POP JUMP JUMPDEST PUSH0 DUP2 SWAP1 POP PUSH1 0x20 DUP3 ADD SWAP1 POP SWAP2 SWAP1 POP JUMP JUMPDEST PUSH0 DUP3 DUP3 MSTORE PUSH1 0x20 DUP3 ADD SWAP1 POP SWAP3 SWAP2 POP POP JUMP JUMPDEST PUSH0 PUSH2 0xBF7 DUP3 PUSH2 0x8CD JUMP JUMPDEST PUSH2 0xC01 DUP2 DUP6 PUSH2 0xBDD JUMP JUMPDEST SWAP4 POP PUSH2 0xC11 DUP2 DUP6 PUSH1 0x20 DUP7 ADD PUSH2 0x8E7 JUMP JUMPDEST PUSH2 0xC1A DUP2 PUSH2 0x8F5 JUMP JUMPDEST DUP5 ADD SWAP2 POP POP SWAP3 SWAP2 POP POP JUMP JUMPDEST PUSH2 0xC2E DUP2 PUSH2 0x86F JUMP JUMPDEST DUP3 MSTORE POP POP JUMP JUMPDEST PUSH2 0xC3D DUP2 PUSH2 0x96B JUMP JUMPDEST DUP3 MSTORE POP POP JUMP JUMPDEST PUSH0 PUSH1 0x60 DUP4 ADD PUSH0 DUP4 ADD MLOAD DUP5 DUP3 SUB PUSH0 DUP7 ADD MSTORE PUSH2 0xC5D DUP3 DUP3 PUSH2 0xBED JUMP JUMPDEST SWAP2 POP POP PUSH1 0x20 DUP4 ADD MLOAD PUSH2 0xC72 PUSH1 0x20 DUP7 ADD DUP3 PUSH2 0xC25 JUMP JUMPDEST POP PUSH1 0x40 DUP4 ADD MLOAD PUSH2 0xC85 PUSH1 0x40 DUP7 ADD DUP3 PUSH2 0xC34 JUMP JUMPDEST POP DUP1 SWAP2 POP POP SWAP3 SWAP2 POP POP JUMP JUMPDEST PUSH0 PUSH2 0xC9B DUP4 DUP4 PUSH2 0xC43 JUMP JUMPDEST SWAP1 POP SWAP3 SWAP2 POP POP JUMP JUMPDEST PUSH0 PUSH1 0x20 DUP3 ADD SWAP1 POP SWAP2 SWAP1 POP JUMP JUMPDEST PUSH0 PUSH2 0xCB9 DUP3 PUSH2 0xBB4 JUMP JUMPDEST PUSH2 0xCC3 DUP2 DUP6 PUSH2 0xBBE JUMP JUMPDEST SWAP4 POP DUP4 PUSH1 0x20 DUP3 MUL DUP6 ADD PUSH2 0xCD5 DUP6 PUSH2 0xBCE JUMP JUMPDEST DUP1 PUSH0 JUMPDEST DUP6 DUP2 LT ISZERO PUSH2 0xD10 JUMPI DUP5 DUP5 SUB DUP10 MSTORE DUP2 MLOAD PUSH2 0xCF1 DUP6 DUP3 PUSH2 0xC90 JUMP JUMPDEST SWAP5 POP PUSH2 0xCFC DUP4 PUSH2 0xCA3 JUMP JUMPDEST SWAP3 POP PUSH1 0x20 DUP11 ADD SWAP10 POP POP PUSH1 0x1 DUP2 ADD SWAP1 POP PUSH2 0xCD8 JUMP JUMPDEST POP DUP3 SWAP8 POP DUP8 SWAP6 POP POP POP POP POP POP SWAP3 SWAP2 POP POP JUMP JUMPDEST PUSH0 PUSH1 0x20 DUP3 ADD SWAP1 POP DUP2 DUP2 SUB PUSH0 DUP4 ADD MSTORE PUSH2 0xD3A DUP2 DUP5 PUSH2 0xCAF JUMP JUMPDEST SWAP1 POP SWAP3 SWAP2 POP POP JUMP JUMPDEST PUSH0 PUSH1 0x20 DUP3 DUP5 SUB SLT ISZERO PUSH2 0xD57 JUMPI PUSH2 0xD56 PUSH2 0x867 JUMP JUMPDEST JUMPDEST PUSH0 DUP3 ADD CALLDATALOAD PUSH8 0xFFFFFFFFFFFFFFFF DUP2 GT ISZERO PUSH2 0xD74 JUMPI PUSH2 0xD73 PUSH2 0x86B JUMP JUMPDEST JUMPDEST PUSH2 0xD80 DUP5 DUP3 DUP6 ADD PUSH2 0xAC6 JUMP JUMPDEST SWAP2 POP POP SWAP3 SWAP2 POP POP JUMP JUMPDEST PUSH32 0x4E487B7100000000000000000000000000000000000000000000000000000000 PUSH0 MSTORE PUSH1 0x22 PUSH1 0x4 MSTORE PUSH1 0x24 PUSH0 REVERT JUMPDEST PUSH0 PUSH1 0x2 DUP3 DIV SWAP1 POP PUSH1 0x1 DUP3 AND DUP1 PUSH2 0xDCD JUMPI PUSH1 0x7F DUP3 AND SWAP2 POP JUMPDEST PUSH1 0x20 DUP3 LT DUP2 SUB PUSH2 0xDE0 JUMPI PUSH2 0xDDF PUSH2 0xD89 JUMP JUMPDEST JUMPDEST POP SWAP2 SWAP1 POP JUMP JUMPDEST PUSH0 DUP2 SWAP1 POP DUP2 PUSH0 MSTORE PUSH1 0x20 PUSH0 KECCAK256 SWAP1 POP SWAP2 SWAP1 POP JUMP JUMPDEST PUSH0 PUSH1 0x20 PUSH1 0x1F DUP4 ADD DIV SWAP1 POP SWAP2 SWAP1 POP JUMP JUMPDEST PUSH0 DUP3 DUP3 SHL SWAP1 POP SWAP3 SWAP2 POP POP JUMP JUMPDEST PUSH0 PUSH1 0x8 DUP4 MUL PUSH2 0xE42 PUSH32 0xFFFFFFFFFFFFFFFFFFFFFFFFFFFFFFFFFFFFFFFFFFFFFFFFFFFFFFFFFFFFFFFF DUP3 PUSH2 0xE07 JUMP JUMPDEST PUSH2 0xE4C DUP7 DUP4 PUSH2 0xE07 JUMP JUMPDEST SWAP6 POP DUP1 NOT DUP5 AND SWAP4 POP DUP1 DUP7 AND DUP5 OR SWAP3 POP POP POP SWAP4 SWAP3 POP POP POP JUMP JUMPDEST PUSH0 DUP2 SWAP1 POP SWAP2 SWAP1 POP JUMP JUMPDEST PUSH0 PUSH2 0xE87 PUSH2 0xE82 PUSH2 0xE7D DUP5 PUSH2 0x86F JUMP JUMPDEST PUSH2 0xE64 JUMP JUMPDEST PUSH2 0x86F JUMP JUMPDEST SWAP1 POP SWAP2 SWAP1 POP JUMP JUMPDEST PUSH0 DUP2 SWAP1 POP SWAP2 SWAP1 POP JUMP JUMPDEST PUSH2 0xEA0 DUP4 PUSH2 0xE6D JUMP JUMPDEST PUSH2 0xEB4 PUSH2 0xEAC DUP3 PUSH2 0xE8E JUMP JUMPDEST DUP5 DUP5 SLOAD PUSH2 0xE13 JUMP JUMPDEST DUP3 SSTORE POP POP POP POP JUMP JUMPDEST PUSH0 SWAP1 JUMP JUMPDEST PUSH2 0xEC8 PUSH2 0xEBC JUMP JUMPDEST PUSH2 0xED3 DUP2 DUP5 DUP5 PUSH2 0xE97 JUMP JUMPDEST POP POP POP JUMP JUMPDEST JUMPDEST DUP2 DUP2 LT ISZERO PUSH2 0xEF6 JUMPI PUSH2 0xEEB PUSH0 DUP3 PUSH2 0xEC0 JUMP JUMPDEST PUSH1 0x1 DUP2 ADD SWAP1 POP PUSH2 0xED9 JUMP JUMPDEST POP POP JUMP JUMPDEST PUSH1 0x1F DUP3 GT ISZERO PUSH2 0xF3B JUMPI PUSH2 0xF0C DUP2 PUSH2 0xDE6 JUMP JUMPDEST PUSH2 0xF15 DUP5 PUSH2 0xDF8 JUMP JUMPDEST DUP2 ADD PUSH1 0x20 DUP6 LT ISZERO PUSH2 0xF24 JUMPI DUP2 SWAP1 POP JUMPDEST PUSH2 0xF38 PUSH2 0xF30 DUP6 PUSH2 0xDF8 JUMP JUMPDEST DUP4 ADD DUP3 PUSH2 0xED8 JUMP JUMPDEST POP POP JUMPDEST POP POP POP JUMP JUMPDEST PUSH0 DUP3 DUP3 SHR SWAP1 POP SWAP3 SWAP2 POP POP JUMP JUMPDEST PUSH0 PUSH2 0xF5B PUSH0 NOT DUP5 PUSH1 0x8 MUL PUSH2 0xF40 JUMP JUMPDEST NOT DUP1 DUP4 AND SWAP2 POP POP SWAP3 SWAP2 POP POP JUMP JUMPDEST PUSH0 PUSH2 0xF73 DUP4 DUP4 PUSH2 0xF4C JUMP JUMPDEST SWAP2 POP DUP3 PUSH1 0x2 MUL DUP3 OR SWAP1 POP SWAP3 SWAP2 POP POP JUMP JUMPDEST PUSH2 0xF8C DUP3 PUSH2 0x8CD JUMP JUMPDEST PUSH8 0xFFFFFFFFFFFFFFFF DUP2 GT ISZERO PUSH2 0xFA5 JUMPI PUSH2 0xFA4 PUSH2 0x9CF JUMP JUMPDEST JUMPDEST PUSH2 0xFAF DUP3 SLOAD PUSH2 0xDB6 JUMP JUMPDEST PUSH2 0xFBA DUP3 DUP3 DUP6 PUSH2 0xEFA JUMP JUMPDEST PUSH0 PUSH1 0x20 SWAP1 POP PUSH1 0x1F DUP4 GT PUSH1 0x1 DUP2 EQ PUSH2 0xFEB JUMPI PUSH0 DUP5 ISZERO PUSH2 0xFD9 JUMPI DUP3 DUP8 ADD MLOAD SWAP1 POP JUMPDEST PUSH2 0xFE3 DUP6 DUP3 PUSH2 0xF68 JUMP JUMPDEST DUP7 SSTORE POP PUSH2 0x104A JUMP JUMPDEST PUSH1 0x1F NOT DUP5 AND PUSH2 0xFF9 DUP7 PUSH2 0xDE6 JUMP JUMPDEST PUSH0 JUMPDEST DUP3 DUP2 LT ISZERO PUSH2 0x1020 JUMPI DUP5 DUP10 ADD MLOAD DUP3 SSTORE PUSH1 0x1 DUP3 ADD SWAP2 POP PUSH1 0x20 DUP6 ADD SWAP5 POP PUSH1 0x20 DUP2 ADD SWAP1 POP PUSH2 0xFFB JUMP JUMPDEST DUP7 DUP4 LT ISZERO PUSH2 0x103D JUMPI DUP5 DUP10 ADD MLOAD PUSH2 0x1039 PUSH1 0x1F DUP10 AND DUP3 PUSH2 0xF4C JUMP JUMPDEST DUP4 SSTORE POP JUMPDEST PUSH1 0x1 PUSH1 0x2 DUP9 MUL ADD DUP9 SSTORE POP POP POP JUMPDEST POP POP POP POP POP POP JUMP JUMPDEST PUSH32 0x4E487B7100000000000000000000000000000000000000000000000000000000 PUSH0 MSTORE PUSH1 0x32 PUSH1 0x4 MSTORE PUSH1 0x24 PUSH0 REVERT JUMPDEST PUSH32 0x4E487B7100000000000000000000000000000000000000000000000000000000 PUSH0 MSTORE PUSH1 0x11 PUSH1 0x4 MSTORE PUSH1 0x24 PUSH0 REVERT JUMPDEST PUSH0 PUSH1 0xFF DUP3 AND SWAP1 POP SWAP2 SWAP1 POP JUMP JUMPDEST PUSH0 PUSH2 0x10C2 DUP3 PUSH2 0x10AC JUMP JUMPDEST SWAP2 POP PUSH1 0xFF DUP3 SUB PUSH2 0x10D5 JUMPI PUSH2 0x10D4 PUSH2 0x107F JUMP JUMPDEST JUMPDEST PUSH1 0x1 DUP3 ADD SWAP1 POP SWAP2 SWAP1 POP JUMP JUMPDEST PUSH32 0x4E487B7100000000000000000000000000000000000000000000000000000000 PUSH0 MSTORE PUSH1 0x1 PUSH1 0x4 MSTORE PUSH1 0x24 PUSH0 REVERT JUMPDEST PUSH0 DUP2 SWAP1 POP SWAP3 SWAP2 POP POP JUMP JUMPDEST PUSH0 DUP2 SWAP1 POP DUP2 PUSH0 MSTORE PUSH1 0x20 PUSH0 KECCAK256 SWAP1 POP SWAP2 SWAP1 POP JUMP JUMPDEST PUSH0 DUP2 SLOAD PUSH2 0x1135 DUP2 PUSH2 0xDB6 JUMP JUMPDEST PUSH2 0x113F DUP2 DUP7 PUSH2 0x110D JUMP JUMPDEST SWAP5 POP PUSH1 0x1 DUP3 AND PUSH0 DUP2 EQ PUSH2 0x1159 JUMPI PUSH1 0x1 DUP2 EQ PUSH2 0x116E JUMPI PUSH2 0x11A0 JUMP JUMPDEST PUSH1 0xFF NOT DUP4 AND DUP7 MSTORE DUP2 ISZERO ISZERO DUP3 MUL DUP7 ADD SWAP4 POP PUSH2 0x11A0 JUMP JUMPDEST PUSH2 0x1177 DUP6 PUSH2 0x1117 JUMP JUMPDEST PUSH0 JUMPDEST DUP4 DUP2 LT ISZERO PUSH2 0x1198 JUMPI DUP2 SLOAD DUP2 DUP10 ADD MSTORE PUSH1 0x1 DUP3 ADD SWAP2 POP PUSH1 0x20 DUP2 ADD SWAP1 POP PUSH2 0x1179 JUMP JUMPDEST DUP4 DUP9 ADD SWAP6 POP POP POP JUMPDEST POP POP POP SWAP3 SWAP2 POP POP JUMP JUMPDEST PUSH0 PUSH2 0x11B4 DUP3 DUP5 PUSH2 0x1129 JUMP JUMPDEST SWAP2 POP DUP2 SWAP1 POP SWAP3 SWAP2 POP POP JUMP INVALID LOG2 PUSH5 0x6970667358 0x22 SLT KECCAK256 PUSH26 0x79CCE2ACF45044CA69B7BE2FE9121ED8267AA69814389ED7C8D5 0xE1 0x4D SLT LOG2 0xDA PUSH5 0x736F6C6343 STOP ADDMOD BYTE STOP CALLER "
				},
				"gasEstimates": {
					"creation": {
						"codeDepositCost": "919400",
						"executionCost": "953",
						"totalCost": "920353"
					},
					"external": {
						"add(string,uint256,address)": "infinite",
						"getYearByMake(string)": "infinite",
						"getYearByOwner(address)": "infinite",
						"v(uint256)": "infinite"
					}
				},
				"methodIdentifiers": {
					"add(string,uint256,address)": "34f79275",
					"getYearByMake(string)": "db5da3fd",
					"getYearByOwner(address)": "db528ff5",
					"v(uint256)": "1d9ee5e6"
				}
			},
			"storageLayout": {
				"storage": [
					{
						"astId": 12,
						"contract": "structs.sol:MyStruct",
						"label": "v",
						"offset": 0,
						"slot": "0",
						"type": "t_array(t_struct(Vehicle)8_storage)dyn_storage"
					}
				],
				"types": {
					"t_address": {
						"encoding": "inplace",
						"label": "address",
						"numberOfBytes": "20"
					},
					"t_array(t_struct(Vehicle)8_storage)dyn_storage": {
						"base": "t_struct(Vehicle)8_storage",
						"encoding": "dynamic_array",
						"label": "struct MyStruct.Vehicle[]",
						"numberOfBytes": "32"
					},
					"t_string_storage": {
						"encoding": "bytes",
						"label": "string",
						"numberOfBytes": "32"
					},
					"t_struct(Vehicle)8_storage": {
						"encoding": "inplace",
						"label": "struct MyStruct.Vehicle",
						"members": [
							{
								"astId": 3,
								"contract": "structs.sol:MyStruct",
								"label": "make",
								"offset": 0,
								"slot": "0",
								"type": "t_string_storage"
							},
							{
								"astId": 5,
								"contract": "structs.sol:MyStruct",
								"label": "year",
								"offset": 0,
								"slot": "1",
								"type": "t_uint256"
							},
							{
								"astId": 7,
								"contract": "structs.sol:MyStruct",
								"label": "owner",
								"offset": 0,
								"slot": "2",
								"type": "t_address"
							}
						],
						"numberOfBytes": "96"
					},
					"t_uint256": {
						"encoding": "inplace",
						"label": "uint256",
						"numberOfBytes": "32"
					}
				}
			},
			"userdoc": {
				"kind": "user",
				"methods": {},
				"version": 1
			}
		}
	}
}