{
	"EnglishAuction.sol": {
		"EnglishAuction": {
			"abi": [
				{
					"inputs": [
						{
							"internalType": "uint256",
							"name": "_startPrice",
							"type": "uint256"
						},
						{
							"internalType": "uint256",
							"name": "_duration",
							"type": "uint256"
						},
						{
							"internalType": "address",
							"name": "_nftAddr",
							"type": "address"
						},
						{
							"internalType": "uint256",
							"name": "_nftId",
							"type": "uint256"
						}
					],
					"stateMutability": "nonpayable",
					"type": "constructor"
				},
				{
					"anonymous": false,
					"inputs": [
						{
							"indexed": true,
							"internalType": "address",
							"name": "sender",
							"type": "address"
						},
						{
							"indexed": false,
							"internalType": "uint256",
							"name": "amount",
							"type": "uint256"
						}
					],
					"name": "Bid",
					"type": "event"
				},
				{
					"anonymous": false,
					"inputs": [
						{
							"indexed": false,
							"internalType": "address",
							"name": "highestBidder",
							"type": "address"
						},
						{
							"indexed": false,
							"internalType": "uint256",
							"name": "highestBid",
							"type": "uint256"
						}
					],
					"name": "End",
					"type": "event"
				},
				{
					"anonymous": false,
					"inputs": [],
					"name": "Start",
					"type": "event"
				},
				{
					"anonymous": false,
					"inputs": [
						{
							"indexed": true,
							"internalType": "address",
							"name": "bidder",
							"type": "address"
						},
						{
							"indexed": false,
							"internalType": "uint256",
							"name": "amount",
							"type": "uint256"
						}
					],
					"name": "Withdraw",
					"type": "event"
				},
				{
					"inputs": [],
					"name": "bid",
					"outputs": [],
					"stateMutability": "payable",
					"type": "function"
				},
				{
					"inputs": [],
					"name": "duration",
					"outputs": [
						{
							"internalType": "uint256",
							"name": "",
							"type": "uint256"
						}
					],
					"stateMutability": "view",
					"type": "function"
				},
				{
					"inputs": [],
					"name": "endAt",
					"outputs": [
						{
							"internalType": "uint256",
							"name": "",
							"type": "uint256"
						}
					],
					"stateMutability": "view",
					"type": "function"
				},
				{
					"inputs": [],
					"name": "endAuction",
					"outputs": [],
					"stateMutability": "payable",
					"type": "function"
				},
				{
					"inputs": [],
					"name": "highestPrice",
					"outputs": [
						{
							"internalType": "uint256",
							"name": "",
							"type": "uint256"
						}
					],
					"stateMutability": "view",
					"type": "function"
				},
				{
					"inputs": [],
					"name": "nft",
					"outputs": [
						{
							"internalType": "contract IERC721",
							"name": "",
							"type": "address"
						}
					],
					"stateMutability": "view",
					"type": "function"
				},
				{
					"inputs": [],
					"name": "startAt",
					"outputs": [
						{
							"internalType": "uint256",
							"name": "",
							"type": "uint256"
						}
					],
					"stateMutability": "view",
					"type": "function"
				},
				{
					"inputs": [],
					"name": "startAuction",
					"outputs": [],
					"stateMutability": "nonpayable",
					"type": "function"
				},
				{
					"inputs": [],
					"name": "startingPrice",
					"outputs": [
						{
							"internalType": "uint256",
							"name": "",
							"type": "uint256"
						}
					],
					"stateMutability": "view",
					"type": "function"
				},
				{
					"inputs": [],
					"name": "withdraw",
					"outputs": [],
					"stateMutability": "payable",
					"type": "function"
				}
			],
			"devdoc": {
				"kind": "dev",
				"methods": {},
				"version": 1
			},
			"evm": {
				"assembly": "    /* \"EnglishAuction.sol\":169:5181  contract EnglishAuction {... */\n  mstore(0x40, 0x0100)\n    /* \"EnglishAuction.sol\":1025:1506  constructor (... */\n  callvalue\n  dup1\n  iszero\n  tag_1\n  jumpi\n  0x00\n  dup1\n  revert\ntag_1:\n  pop\n  mload(0x40)\n  sub(codesize, bytecodeSize)\n  dup1\n  bytecodeSize\n  dup4\n  codecopy\n  dup2\n  dup2\n  add\n  0x40\n  mstore\n  dup2\n  add\n  swap1\n  tag_2\n  swap2\n  swap1\n  tag_3\n  jump\t// in\ntag_2:\n    /* \"EnglishAuction.sol\":1177:1183  1 days */\n  0x015180\n    /* \"EnglishAuction.sol\":1164:1173  _duration */\n  dup4\n    /* \"EnglishAuction.sol\":1164:1183  _duration <= 1 days */\n  gt\n  iszero\n    /* \"EnglishAuction.sol\":1156:1211  require(_duration <= 1 days, \"dration should <= 1 day\") */\n  tag_6\n  jumpi\n  mload(0x40)\n  0x08c379a000000000000000000000000000000000000000000000000000000000\n  dup2\n  mstore\n  0x04\n  add\n  tag_7\n  swap1\n  tag_8\n  jump\t// in\ntag_7:\n  mload(0x40)\n  dup1\n  swap2\n  sub\n  swap1\n  revert\ntag_6:\n    /* \"EnglishAuction.sol\":1249:1250  0 */\n  0x00\n    /* \"EnglishAuction.sol\":1230:1251  _nftAddr !=address(0) */\n  0xffffffffffffffffffffffffffffffffffffffff\n  and\n    /* \"EnglishAuction.sol\":1230:1238  _nftAddr */\n  dup3\n    /* \"EnglishAuction.sol\":1230:1251  _nftAddr !=address(0) */\n  0xffffffffffffffffffffffffffffffffffffffff\n  and\n  sub\n    /* \"EnglishAuction.sol\":1222:1271  require(_nftAddr !=address(0), \"nft address = 0\") */\n  tag_9\n  jumpi\n  mload(0x40)\n  0x08c379a000000000000000000000000000000000000000000000000000000000\n  dup2\n  mstore\n  0x04\n  add\n  tag_10\n  swap1\n  tag_11\n  jump\t// in\ntag_10:\n  mload(0x40)\n  dup1\n  swap2\n  sub\n  swap1\n  revert\ntag_9:\n    /* \"EnglishAuction.sol\":1302:1312  msg.sender */\n  caller\n    /* \"EnglishAuction.sol\":1284:1290  seller */\n  0x00\n  dup1\n    /* \"EnglishAuction.sol\":1284:1313  seller = payable (msg.sender) */\n  0x0100\n  exp\n  dup2\n  sload\n  dup2\n  0xffffffffffffffffffffffffffffffffffffffff\n  mul\n  not\n  and\n  swap1\n  dup4\n  0xffffffffffffffffffffffffffffffffffffffff\n  and\n  mul\n  or\n  swap1\n  sstore\n  pop\n    /* \"EnglishAuction.sol\":1340:1351  _startPrice */\n  dup4\n    /* \"EnglishAuction.sol\":1324:1351  startingPrice = _startPrice */\n  0x80\n  dup2\n  dup2\n  mstore\n  pop\n  pop\n    /* \"EnglishAuction.sol\":1373:1382  _duration */\n  dup3\n    /* \"EnglishAuction.sol\":1362:1382  duration = _duration */\n  0xa0\n  dup2\n  dup2\n  mstore\n  pop\n  pop\n    /* \"EnglishAuction.sol\":1409:1417  _nftAddr */\n  dup2\n    /* \"EnglishAuction.sol\":1395:1418  nft = IERC721(_nftAddr) */\n  0xffffffffffffffffffffffffffffffffffffffff\n  and\n  0xc0\n  dup2\n  0xffffffffffffffffffffffffffffffffffffffff\n  and\n  dup2\n  mstore\n  pop\n  pop\n    /* \"EnglishAuction.sol\":1437:1443  _nftId */\n  dup1\n    /* \"EnglishAuction.sol\":1429:1443  nftId = _nftId */\n  0xe0\n  dup2\n  dup2\n  mstore\n  pop\n  pop\n    /* \"EnglishAuction.sol\":1466:1471  false */\n  0x00\n    /* \"EnglishAuction.sol\":1456:1463  isStart */\n  0x05\n  0x00\n    /* \"EnglishAuction.sol\":1456:1471  isStart = false */\n  0x0100\n  exp\n  dup2\n  sload\n  dup2\n  0xff\n  mul\n  not\n  and\n  swap1\n  dup4\n  iszero\n  iszero\n  mul\n  or\n  swap1\n  sstore\n  pop\n    /* \"EnglishAuction.sol\":1493:1498  false */\n  0x00\n    /* \"EnglishAuction.sol\":1482:1490  isClosed */\n  0x05\n  0x01\n    /* \"EnglishAuction.sol\":1482:1498  isClosed = false */\n  0x0100\n  exp\n  dup2\n  sload\n  dup2\n  0xff\n  mul\n  not\n  and\n  swap1\n  dup4\n  iszero\n  iszero\n  mul\n  or\n  swap1\n  sstore\n  pop\n    /* \"EnglishAuction.sol\":1025:1506  constructor (... */\n  pop\n  pop\n  pop\n  pop\n    /* \"EnglishAuction.sol\":169:5181  contract EnglishAuction {... */\n  jump(tag_12)\n    /* \"#utility.yul\":88:205   */\ntag_14:\n    /* \"#utility.yul\":197:198   */\n  0x00\n    /* \"#utility.yul\":194:195   */\n  dup1\n    /* \"#utility.yul\":187:199   */\n  revert\n    /* \"#utility.yul\":334:411   */\ntag_16:\n    /* \"#utility.yul\":371:378   */\n  0x00\n    /* \"#utility.yul\":400:405   */\n  dup2\n    /* \"#utility.yul\":389:405   */\n  swap1\n  pop\n    /* \"#utility.yul\":334:411   */\n  swap2\n  swap1\n  pop\n  jump\t// out\n    /* \"#utility.yul\":417:539   */\ntag_17:\n    /* \"#utility.yul\":490:514   */\n  tag_34\n    /* \"#utility.yul\":508:513   */\n  dup2\n    /* \"#utility.yul\":490:514   */\n  tag_16\n  jump\t// in\ntag_34:\n    /* \"#utility.yul\":483:488   */\n  dup2\n    /* \"#utility.yul\":480:515   */\n  eq\n    /* \"#utility.yul\":470:533   */\n  tag_35\n  jumpi\n    /* \"#utility.yul\":529:530   */\n  0x00\n    /* \"#utility.yul\":526:527   */\n  dup1\n    /* \"#utility.yul\":519:531   */\n  revert\n    /* \"#utility.yul\":470:533   */\ntag_35:\n    /* \"#utility.yul\":417:539   */\n  pop\n  jump\t// out\n    /* \"#utility.yul\":545:688   */\ntag_18:\n    /* \"#utility.yul\":602:607   */\n  0x00\n    /* \"#utility.yul\":633:639   */\n  dup2\n    /* \"#utility.yul\":627:640   */\n  mload\n    /* \"#utility.yul\":618:640   */\n  swap1\n  pop\n    /* \"#utility.yul\":649:682   */\n  tag_37\n    /* \"#utility.yul\":676:681   */\n  dup2\n    /* \"#utility.yul\":649:682   */\n  tag_17\n  jump\t// in\ntag_37:\n    /* \"#utility.yul\":545:688   */\n  swap3\n  swap2\n  pop\n  pop\n  jump\t// out\n    /* \"#utility.yul\":694:820   */\ntag_19:\n    /* \"#utility.yul\":731:738   */\n  0x00\n    /* \"#utility.yul\":771:813   */\n  0xffffffffffffffffffffffffffffffffffffffff\n    /* \"#utility.yul\":764:769   */\n  dup3\n    /* \"#utility.yul\":760:814   */\n  and\n    /* \"#utility.yul\":749:814   */\n  swap1\n  pop\n    /* \"#utility.yul\":694:820   */\n  swap2\n  swap1\n  pop\n  jump\t// out\n    /* \"#utility.yul\":826:922   */\ntag_20:\n    /* \"#utility.yul\":863:870   */\n  0x00\n    /* \"#utility.yul\":892:916   */\n  tag_40\n    /* \"#utility.yul\":910:915   */\n  dup3\n    /* \"#utility.yul\":892:916   */\n  tag_19\n  jump\t// in\ntag_40:\n    /* \"#utility.yul\":881:916   */\n  swap1\n  pop\n    /* \"#utility.yul\":826:922   */\n  swap2\n  swap1\n  pop\n  jump\t// out\n    /* \"#utility.yul\":928:1050   */\ntag_21:\n    /* \"#utility.yul\":1001:1025   */\n  tag_42\n    /* \"#utility.yul\":1019:1024   */\n  dup2\n    /* \"#utility.yul\":1001:1025   */\n  tag_20\n  jump\t// in\ntag_42:\n    /* \"#utility.yul\":994:999   */\n  dup2\n    /* \"#utility.yul\":991:1026   */\n  eq\n    /* \"#utility.yul\":981:1044   */\n  tag_43\n  jumpi\n    /* \"#utility.yul\":1040:1041   */\n  0x00\n    /* \"#utility.yul\":1037:1038   */\n  dup1\n    /* \"#utility.yul\":1030:1042   */\n  revert\n    /* \"#utility.yul\":981:1044   */\ntag_43:\n    /* \"#utility.yul\":928:1050   */\n  pop\n  jump\t// out\n    /* \"#utility.yul\":1056:1199   */\ntag_22:\n    /* \"#utility.yul\":1113:1118   */\n  0x00\n    /* \"#utility.yul\":1144:1150   */\n  dup2\n    /* \"#utility.yul\":1138:1151   */\n  mload\n    /* \"#utility.yul\":1129:1151   */\n  swap1\n  pop\n    /* \"#utility.yul\":1160:1193   */\n  tag_45\n    /* \"#utility.yul\":1187:1192   */\n  dup2\n    /* \"#utility.yul\":1160:1193   */\n  tag_21\n  jump\t// in\ntag_45:\n    /* \"#utility.yul\":1056:1199   */\n  swap3\n  swap2\n  pop\n  pop\n  jump\t// out\n    /* \"#utility.yul\":1205:2025   */\ntag_3:\n    /* \"#utility.yul\":1302:1308   */\n  0x00\n    /* \"#utility.yul\":1310:1316   */\n  dup1\n    /* \"#utility.yul\":1318:1324   */\n  0x00\n    /* \"#utility.yul\":1326:1332   */\n  dup1\n    /* \"#utility.yul\":1375:1378   */\n  0x80\n    /* \"#utility.yul\":1363:1372   */\n  dup6\n    /* \"#utility.yul\":1354:1361   */\n  dup8\n    /* \"#utility.yul\":1350:1373   */\n  sub\n    /* \"#utility.yul\":1346:1379   */\n  slt\n    /* \"#utility.yul\":1343:1463   */\n  iszero\n  tag_47\n  jumpi\n    /* \"#utility.yul\":1382:1461   */\n  tag_48\n  tag_14\n  jump\t// in\ntag_48:\n    /* \"#utility.yul\":1343:1463   */\ntag_47:\n    /* \"#utility.yul\":1502:1503   */\n  0x00\n    /* \"#utility.yul\":1527:1591   */\n  tag_49\n    /* \"#utility.yul\":1583:1590   */\n  dup8\n    /* \"#utility.yul\":1574:1580   */\n  dup3\n    /* \"#utility.yul\":1563:1572   */\n  dup9\n    /* \"#utility.yul\":1559:1581   */\n  add\n    /* \"#utility.yul\":1527:1591   */\n  tag_18\n  jump\t// in\ntag_49:\n    /* \"#utility.yul\":1517:1591   */\n  swap5\n  pop\n    /* \"#utility.yul\":1473:1601   */\n  pop\n    /* \"#utility.yul\":1640:1642   */\n  0x20\n    /* \"#utility.yul\":1666:1730   */\n  tag_50\n    /* \"#utility.yul\":1722:1729   */\n  dup8\n    /* \"#utility.yul\":1713:1719   */\n  dup3\n    /* \"#utility.yul\":1702:1711   */\n  dup9\n    /* \"#utility.yul\":1698:1720   */\n  add\n    /* \"#utility.yul\":1666:1730   */\n  tag_18\n  jump\t// in\ntag_50:\n    /* \"#utility.yul\":1656:1730   */\n  swap4\n  pop\n    /* \"#utility.yul\":1611:1740   */\n  pop\n    /* \"#utility.yul\":1779:1781   */\n  0x40\n    /* \"#utility.yul\":1805:1869   */\n  tag_51\n    /* \"#utility.yul\":1861:1868   */\n  dup8\n    /* \"#utility.yul\":1852:1858   */\n  dup3\n    /* \"#utility.yul\":1841:1850   */\n  dup9\n    /* \"#utility.yul\":1837:1859   */\n  add\n    /* \"#utility.yul\":1805:1869   */\n  tag_22\n  jump\t// in\ntag_51:\n    /* \"#utility.yul\":1795:1869   */\n  swap3\n  pop\n    /* \"#utility.yul\":1750:1879   */\n  pop\n    /* \"#utility.yul\":1918:1920   */\n  0x60\n    /* \"#utility.yul\":1944:2008   */\n  tag_52\n    /* \"#utility.yul\":2000:2007   */\n  dup8\n    /* \"#utility.yul\":1991:1997   */\n  dup3\n    /* \"#utility.yul\":1980:1989   */\n  dup9\n    /* \"#utility.yul\":1976:1998   */\n  add\n    /* \"#utility.yul\":1944:2008   */\n  tag_18\n  jump\t// in\ntag_52:\n    /* \"#utility.yul\":1934:2008   */\n  swap2\n  pop\n    /* \"#utility.yul\":1889:2018   */\n  pop\n    /* \"#utility.yul\":1205:2025   */\n  swap3\n  swap6\n  swap2\n  swap5\n  pop\n  swap3\n  pop\n  jump\t// out\n    /* \"#utility.yul\":2031:2200   */\ntag_23:\n    /* \"#utility.yul\":2115:2126   */\n  0x00\n    /* \"#utility.yul\":2149:2155   */\n  dup3\n    /* \"#utility.yul\":2144:2147   */\n  dup3\n    /* \"#utility.yul\":2137:2156   */\n  mstore\n    /* \"#utility.yul\":2189:2193   */\n  0x20\n    /* \"#utility.yul\":2184:2187   */\n  dup3\n    /* \"#utility.yul\":2180:2194   */\n  add\n    /* \"#utility.yul\":2165:2194   */\n  swap1\n  pop\n    /* \"#utility.yul\":2031:2200   */\n  swap3\n  swap2\n  pop\n  pop\n  jump\t// out\n    /* \"#utility.yul\":2206:2379   */\ntag_24:\n    /* \"#utility.yul\":2346:2371   */\n  0x64726174696f6e2073686f756c64203c3d203120646179000000000000000000\n    /* \"#utility.yul\":2342:2343   */\n  0x00\n    /* \"#utility.yul\":2334:2340   */\n  dup3\n    /* \"#utility.yul\":2330:2344   */\n  add\n    /* \"#utility.yul\":2323:2372   */\n  mstore\n    /* \"#utility.yul\":2206:2379   */\n  pop\n  jump\t// out\n    /* \"#utility.yul\":2385:2751   */\ntag_25:\n    /* \"#utility.yul\":2527:2530   */\n  0x00\n    /* \"#utility.yul\":2548:2615   */\n  tag_56\n    /* \"#utility.yul\":2612:2614   */\n  0x17\n    /* \"#utility.yul\":2607:2610   */\n  dup4\n    /* \"#utility.yul\":2548:2615   */\n  tag_23\n  jump\t// in\ntag_56:\n    /* \"#utility.yul\":2541:2615   */\n  swap2\n  pop\n    /* \"#utility.yul\":2624:2717   */\n  tag_57\n    /* \"#utility.yul\":2713:2716   */\n  dup3\n    /* \"#utility.yul\":2624:2717   */\n  tag_24\n  jump\t// in\ntag_57:\n    /* \"#utility.yul\":2742:2744   */\n  0x20\n    /* \"#utility.yul\":2737:2740   */\n  dup3\n    /* \"#utility.yul\":2733:2745   */\n  add\n    /* \"#utility.yul\":2726:2745   */\n  swap1\n  pop\n    /* \"#utility.yul\":2385:2751   */\n  swap2\n  swap1\n  pop\n  jump\t// out\n    /* \"#utility.yul\":2757:3176   */\ntag_8:\n    /* \"#utility.yul\":2923:2927   */\n  0x00\n    /* \"#utility.yul\":2961:2963   */\n  0x20\n    /* \"#utility.yul\":2950:2959   */\n  dup3\n    /* \"#utility.yul\":2946:2964   */\n  add\n    /* \"#utility.yul\":2938:2964   */\n  swap1\n  pop\n    /* \"#utility.yul\":3010:3019   */\n  dup2\n    /* \"#utility.yul\":3004:3008   */\n  dup2\n    /* \"#utility.yul\":3000:3020   */\n  sub\n    /* \"#utility.yul\":2996:2997   */\n  0x00\n    /* \"#utility.yul\":2985:2994   */\n  dup4\n    /* \"#utility.yul\":2981:2998   */\n  add\n    /* \"#utility.yul\":2974:3021   */\n  mstore\n    /* \"#utility.yul\":3038:3169   */\n  tag_59\n    /* \"#utility.yul\":3164:3168   */\n  dup2\n    /* \"#utility.yul\":3038:3169   */\n  tag_25\n  jump\t// in\ntag_59:\n    /* \"#utility.yul\":3030:3169   */\n  swap1\n  pop\n    /* \"#utility.yul\":2757:3176   */\n  swap2\n  swap1\n  pop\n  jump\t// out\n    /* \"#utility.yul\":3182:3347   */\ntag_26:\n    /* \"#utility.yul\":3322:3339   */\n  0x6e66742061646472657373203d20300000000000000000000000000000000000\n    /* \"#utility.yul\":3318:3319   */\n  0x00\n    /* \"#utility.yul\":3310:3316   */\n  dup3\n    /* \"#utility.yul\":3306:3320   */\n  add\n    /* \"#utility.yul\":3299:3340   */\n  mstore\n    /* \"#utility.yul\":3182:3347   */\n  pop\n  jump\t// out\n    /* \"#utility.yul\":3353:3719   */\ntag_27:\n    /* \"#utility.yul\":3495:3498   */\n  0x00\n    /* \"#utility.yul\":3516:3583   */\n  tag_62\n    /* \"#utility.yul\":3580:3582   */\n  0x0f\n    /* \"#utility.yul\":3575:3578   */\n  dup4\n    /* \"#utility.yul\":3516:3583   */\n  tag_23\n  jump\t// in\ntag_62:\n    /* \"#utility.yul\":3509:3583   */\n  swap2\n  pop\n    /* \"#utility.yul\":3592:3685   */\n  tag_63\n    /* \"#utility.yul\":3681:3684   */\n  dup3\n    /* \"#utility.yul\":3592:3685   */\n  tag_26\n  jump\t// in\ntag_63:\n    /* \"#utility.yul\":3710:3712   */\n  0x20\n    /* \"#utility.yul\":3705:3708   */\n  dup3\n    /* \"#utility.yul\":3701:3713   */\n  add\n    /* \"#utility.yul\":3694:3713   */\n  swap1\n  pop\n    /* \"#utility.yul\":3353:3719   */\n  swap2\n  swap1\n  pop\n  jump\t// out\n    /* \"#utility.yul\":3725:4144   */\ntag_11:\n    /* \"#utility.yul\":3891:3895   */\n  0x00\n    /* \"#utility.yul\":3929:3931   */\n  0x20\n    /* \"#utility.yul\":3918:3927   */\n  dup3\n    /* \"#utility.yul\":3914:3932   */\n  add\n    /* \"#utility.yul\":3906:3932   */\n  swap1\n  pop\n    /* \"#utility.yul\":3978:3987   */\n  dup2\n    /* \"#utility.yul\":3972:3976   */\n  dup2\n    /* \"#utility.yul\":3968:3988   */\n  sub\n    /* \"#utility.yul\":3964:3965   */\n  0x00\n    /* \"#utility.yul\":3953:3962   */\n  dup4\n    /* \"#utility.yul\":3949:3966   */\n  add\n    /* \"#utility.yul\":3942:3989   */\n  mstore\n    /* \"#utility.yul\":4006:4137   */\n  tag_65\n    /* \"#utility.yul\":4132:4136   */\n  dup2\n    /* \"#utility.yul\":4006:4137   */\n  tag_27\n  jump\t// in\ntag_65:\n    /* \"#utility.yul\":3998:4137   */\n  swap1\n  pop\n    /* \"#utility.yul\":3725:4144   */\n  swap2\n  swap1\n  pop\n  jump\t// out\n    /* \"EnglishAuction.sol\":169:5181  contract EnglishAuction {... */\ntag_12:\n  mload(0x80)\n  mload(0xa0)\n  mload(0xc0)\n  mload(0xe0)\n  codecopy(0x00, dataOffset(sub_0), dataSize(sub_0))\n  0x00\n  assignImmutable(\"0x215d56ac8bbcf4ec574772ebea743ba30ac9d1c5e1b1ff899e5de1045f5df803\")\n  0x00\n  assignImmutable(\"0x6304e47846f882085b0f4b1a184252ae95ffe5e2a02daf39c014f492dcb1441c\")\n  0x00\n  assignImmutable(\"0x4dfb3440902001bce9b7ebf7be7d95fe9e2056bd5ce309ceb83b32f4e00e21ed\")\n  0x00\n  assignImmutable(\"0x5bc0457d8881b800fd1bc0d6df907345b3bf287e43a5790ded3d08dbacf9c03a\")\n  return(0x00, dataSize(sub_0))\nstop\n\nsub_0: assembly {\n        /* \"EnglishAuction.sol\":169:5181  contract EnglishAuction {... */\n      mstore(0x40, 0x80)\n      jumpi(tag_1, lt(calldatasize, 0x04))\n      shr(0xe0, calldataload(0x00))\n      dup1\n      0x6b64c769\n      gt\n      tag_12\n      jumpi\n      dup1\n      0x6b64c769\n      eq\n      tag_7\n      jumpi\n      dup1\n      0x7cc3ae8c\n      eq\n      tag_8\n      jumpi\n      dup1\n      0xc7446565\n      eq\n      tag_9\n      jumpi\n      dup1\n      0xd6fbf202\n      eq\n      tag_10\n      jumpi\n      dup1\n      0xfe67a54b\n      eq\n      tag_11\n      jumpi\n      jump(tag_1)\n    tag_12:\n      dup1\n      0x0e8670e0\n      eq\n      tag_2\n      jumpi\n      dup1\n      0x0fb5a6b4\n      eq\n      tag_3\n      jumpi\n      dup1\n      0x1998aeef\n      eq\n      tag_4\n      jumpi\n      dup1\n      0x3ccfd60b\n      eq\n      tag_5\n      jumpi\n      dup1\n      0x47ccca02\n      eq\n      tag_6\n      jumpi\n    tag_1:\n      0x00\n      dup1\n      revert\n        /* \"EnglishAuction.sol\":554:578  uint public highestPrice */\n    tag_2:\n      callvalue\n      dup1\n      iszero\n      tag_13\n      jumpi\n      0x00\n      dup1\n      revert\n    tag_13:\n      pop\n      tag_14\n      tag_15\n      jump\t// in\n    tag_14:\n      mload(0x40)\n      tag_16\n      swap2\n      swap1\n      tag_17\n      jump\t// in\n    tag_16:\n      mload(0x40)\n      dup1\n      swap2\n      sub\n      swap1\n      return\n        /* \"EnglishAuction.sol\":639:669  uint public immutable duration */\n    tag_3:\n      callvalue\n      dup1\n      iszero\n      tag_18\n      jumpi\n      0x00\n      dup1\n      revert\n    tag_18:\n      pop\n      tag_19\n      tag_20\n      jump\t// in\n    tag_19:\n      mload(0x40)\n      tag_21\n      swap2\n      swap1\n      tag_17\n      jump\t// in\n    tag_21:\n      mload(0x40)\n      dup1\n      swap2\n      sub\n      swap1\n      return\n        /* \"EnglishAuction.sol\":2155:3105  function bid() external payable {... */\n    tag_4:\n      tag_22\n      tag_23\n      jump\t// in\n    tag_22:\n      stop\n        /* \"EnglishAuction.sol\":3113:3913  function withdraw() external payable  {... */\n    tag_5:\n      tag_24\n      tag_25\n      jump\t// in\n    tag_24:\n      stop\n        /* \"EnglishAuction.sol\":702:730  IERC721 public immutable nft */\n    tag_6:\n      callvalue\n      dup1\n      iszero\n      tag_26\n      jumpi\n      0x00\n      dup1\n      revert\n    tag_26:\n      pop\n      tag_27\n      tag_28\n      jump\t// in\n    tag_27:\n      mload(0x40)\n      tag_29\n      swap2\n      swap1\n      tag_30\n      jump\t// in\n    tag_29:\n      mload(0x40)\n      dup1\n      swap2\n      sub\n      swap1\n      return\n        /* \"EnglishAuction.sol\":1516:2147  function startAuction() external {  // owner call, start auction... */\n    tag_7:\n      callvalue\n      dup1\n      iszero\n      tag_31\n      jumpi\n      0x00\n      dup1\n      revert\n    tag_31:\n      pop\n      tag_32\n      tag_33\n      jump\t// in\n    tag_32:\n      stop\n        /* \"EnglishAuction.sol\":676:693  uint public endAt */\n    tag_8:\n      callvalue\n      dup1\n      iszero\n      tag_34\n      jumpi\n      0x00\n      dup1\n      revert\n    tag_34:\n      pop\n      tag_35\n      tag_36\n      jump\t// in\n    tag_35:\n      mload(0x40)\n      tag_37\n      swap2\n      swap1\n      tag_17\n      jump\t// in\n    tag_37:\n      mload(0x40)\n      dup1\n      swap2\n      sub\n      swap1\n      return\n        /* \"EnglishAuction.sol\":598:617  uint public startAt */\n    tag_9:\n      callvalue\n      dup1\n      iszero\n      tag_38\n      jumpi\n      0x00\n      dup1\n      revert\n    tag_38:\n      pop\n      tag_39\n      tag_40\n      jump\t// in\n    tag_39:\n      mload(0x40)\n      tag_41\n      swap2\n      swap1\n      tag_17\n      jump\t// in\n    tag_41:\n      mload(0x40)\n      dup1\n      swap2\n      sub\n      swap1\n      return\n        /* \"EnglishAuction.sol\":512:547  uint public immutable startingPrice */\n    tag_10:\n      callvalue\n      dup1\n      iszero\n      tag_42\n      jumpi\n      0x00\n      dup1\n      revert\n    tag_42:\n      pop\n      tag_43\n      tag_44\n      jump\t// in\n    tag_43:\n      mload(0x40)\n      tag_45\n      swap2\n      swap1\n      tag_17\n      jump\t// in\n    tag_45:\n      mload(0x40)\n      dup1\n      swap2\n      sub\n      swap1\n      return\n        /* \"EnglishAuction.sol\":3921:5174  function endAuction() external payable {... */\n    tag_11:\n      tag_46\n      tag_47\n      jump\t// in\n    tag_46:\n      stop\n        /* \"EnglishAuction.sol\":554:578  uint public highestPrice */\n    tag_15:\n      sload(0x02)\n      dup2\n      jump\t// out\n        /* \"EnglishAuction.sol\":639:669  uint public immutable duration */\n    tag_20:\n      immutable(\"0x4dfb3440902001bce9b7ebf7be7d95fe9e2056bd5ce309ceb83b32f4e00e21ed\")\n      dup2\n      jump\t// out\n        /* \"EnglishAuction.sol\":2155:3105  function bid() external payable {... */\n    tag_23:\n        /* \"EnglishAuction.sol\":2271:2285  address sender */\n      0x00\n        /* \"EnglishAuction.sol\":2288:2298  msg.sender */\n      caller\n        /* \"EnglishAuction.sol\":2271:2298  address sender = msg.sender */\n      swap1\n      pop\n        /* \"EnglishAuction.sol\":2327:2333  seller */\n      0x00\n      dup1\n      sload\n      swap1\n      0x0100\n      exp\n      swap1\n      div\n      0xffffffffffffffffffffffffffffffffffffffff\n      and\n        /* \"EnglishAuction.sol\":2317:2333  sender != seller */\n      0xffffffffffffffffffffffffffffffffffffffff\n      and\n        /* \"EnglishAuction.sol\":2317:2323  sender */\n      dup2\n        /* \"EnglishAuction.sol\":2317:2333  sender != seller */\n      0xffffffffffffffffffffffffffffffffffffffff\n      and\n      sub\n        /* \"EnglishAuction.sol\":2309:2355  require(sender != seller, \"sellber can't buy\") */\n      tag_49\n      jumpi\n      mload(0x40)\n      0x08c379a000000000000000000000000000000000000000000000000000000000\n      dup2\n      mstore\n      0x04\n      add\n      tag_50\n      swap1\n      tag_51\n      jump\t// in\n    tag_50:\n      mload(0x40)\n      dup1\n      swap2\n      sub\n      swap1\n      revert\n    tag_49:\n        /* \"EnglishAuction.sol\":2384:2397  highestBidder */\n      0x01\n      0x00\n      swap1\n      sload\n      swap1\n      0x0100\n      exp\n      swap1\n      div\n      0xffffffffffffffffffffffffffffffffffffffff\n      and\n        /* \"EnglishAuction.sol\":2374:2397  sender != highestBidder */\n      0xffffffffffffffffffffffffffffffffffffffff\n      and\n        /* \"EnglishAuction.sol\":2374:2380  sender */\n      dup2\n        /* \"EnglishAuction.sol\":2374:2397  sender != highestBidder */\n      0xffffffffffffffffffffffffffffffffffffffff\n      and\n      sub\n        /* \"EnglishAuction.sol\":2366:2436  require(sender != highestBidder, \"you are already the highest bidder\") */\n      tag_52\n      jumpi\n      mload(0x40)\n      0x08c379a000000000000000000000000000000000000000000000000000000000\n      dup2\n      mstore\n      0x04\n      add\n      tag_53\n      swap1\n      tag_54\n      jump\t// in\n    tag_53:\n      mload(0x40)\n      dup1\n      swap2\n      sub\n      swap1\n      revert\n    tag_52:\n        /* \"EnglishAuction.sol\":2473:2474  0 */\n      0x00\n        /* \"EnglishAuction.sol\":2455:2475  sender != address(0) */\n      0xffffffffffffffffffffffffffffffffffffffff\n      and\n        /* \"EnglishAuction.sol\":2455:2461  sender */\n      dup2\n        /* \"EnglishAuction.sol\":2455:2475  sender != address(0) */\n      0xffffffffffffffffffffffffffffffffffffffff\n      and\n      sub\n        /* \"EnglishAuction.sol\":2447:2501  require(sender != address(0), \"bidder address = zero\") */\n      tag_55\n      jumpi\n      mload(0x40)\n      0x08c379a000000000000000000000000000000000000000000000000000000000\n      dup2\n      mstore\n      0x04\n      add\n      tag_56\n      swap1\n      tag_57\n      jump\t// in\n    tag_56:\n      mload(0x40)\n      dup1\n      swap2\n      sub\n      swap1\n      revert\n    tag_55:\n        /* \"EnglishAuction.sol\":2520:2527  isStart */\n      0x05\n      0x00\n      swap1\n      sload\n      swap1\n      0x0100\n      exp\n      swap1\n      div\n      0xff\n      and\n        /* \"EnglishAuction.sol\":2512:2548  require(isStart,\"auction not start\") */\n      tag_58\n      jumpi\n      mload(0x40)\n      0x08c379a000000000000000000000000000000000000000000000000000000000\n      dup2\n      mstore\n      0x04\n      add\n      tag_59\n      swap1\n      tag_60\n      jump\t// in\n    tag_59:\n      mload(0x40)\n      dup1\n      swap2\n      sub\n      swap1\n      revert\n    tag_58:\n        /* \"EnglishAuction.sol\":2568:2576  isClosed */\n      0x05\n      0x01\n      swap1\n      sload\n      swap1\n      0x0100\n      exp\n      swap1\n      div\n      0xff\n      and\n        /* \"EnglishAuction.sol\":2567:2576  !isClosed */\n      iszero\n        /* \"EnglishAuction.sol\":2559:2599  require(!isClosed, \"auction has closed\") */\n      tag_61\n      jumpi\n      mload(0x40)\n      0x08c379a000000000000000000000000000000000000000000000000000000000\n      dup2\n      mstore\n      0x04\n      add\n      tag_62\n      swap1\n      tag_63\n      jump\t// in\n    tag_62:\n      mload(0x40)\n      dup1\n      swap2\n      sub\n      swap1\n      revert\n    tag_61:\n        /* \"EnglishAuction.sol\":2637:2642  endAt */\n      sload(0x04)\n        /* \"EnglishAuction.sol\":2618:2633  block.timestamp */\n      timestamp\n        /* \"EnglishAuction.sol\":2618:2642  block.timestamp <= endAt */\n      gt\n      iszero\n        /* \"EnglishAuction.sol\":2610:2665  require(block.timestamp <= endAt,\"auction has expired\") */\n      tag_64\n      jumpi\n      mload(0x40)\n      0x08c379a000000000000000000000000000000000000000000000000000000000\n      dup2\n      mstore\n      0x04\n      add\n      tag_65\n      swap1\n      tag_66\n      jump\t// in\n    tag_65:\n      mload(0x40)\n      dup1\n      swap2\n      sub\n      swap1\n      revert\n    tag_64:\n        /* \"EnglishAuction.sol\":2728:2741  uint bidPrice */\n      0x00\n        /* \"EnglishAuction.sol\":2744:2753  msg.value */\n      callvalue\n        /* \"EnglishAuction.sol\":2728:2753  uint bidPrice = msg.value */\n      swap1\n      pop\n        /* \"EnglishAuction.sol\":2783:2795  highestPrice */\n      sload(0x02)\n        /* \"EnglishAuction.sol\":2772:2780  bidPrice */\n      dup2\n        /* \"EnglishAuction.sol\":2772:2795  bidPrice > highestPrice */\n      gt\n        /* \"EnglishAuction.sol\":2772:2824  bidPrice > highestPrice && bidPrice >= startingPrice */\n      dup1\n      iszero\n      tag_67\n      jumpi\n      pop\n        /* \"EnglishAuction.sol\":2811:2824  startingPrice */\n      immutable(\"0x5bc0457d8881b800fd1bc0d6df907345b3bf287e43a5790ded3d08dbacf9c03a\")\n        /* \"EnglishAuction.sol\":2799:2807  bidPrice */\n      dup2\n        /* \"EnglishAuction.sol\":2799:2824  bidPrice >= startingPrice */\n      lt\n      iszero\n        /* \"EnglishAuction.sol\":2772:2824  bidPrice > highestPrice && bidPrice >= startingPrice */\n    tag_67:\n        /* \"EnglishAuction.sol\":2764:2852  require(bidPrice > highestPrice && bidPrice >= startingPrice, \"you bid < highest price\") */\n      tag_68\n      jumpi\n      mload(0x40)\n      0x08c379a000000000000000000000000000000000000000000000000000000000\n      dup2\n      mstore\n      0x04\n      add\n      tag_69\n      swap1\n      tag_70\n      jump\t// in\n    tag_69:\n      mload(0x40)\n      dup1\n      swap2\n      sub\n      swap1\n      revert\n    tag_68:\n        /* \"EnglishAuction.sol\":2962:2968  sender */\n      dup2\n        /* \"EnglishAuction.sol\":2946:2959  highestBidder */\n      0x01\n      0x00\n        /* \"EnglishAuction.sol\":2946:2968  highestBidder = sender */\n      0x0100\n      exp\n      dup2\n      sload\n      dup2\n      0xffffffffffffffffffffffffffffffffffffffff\n      mul\n      not\n      and\n      swap1\n      dup4\n      0xffffffffffffffffffffffffffffffffffffffff\n      and\n      mul\n      or\n      swap1\n      sstore\n      pop\n        /* \"EnglishAuction.sol\":2994:3002  bidPrice */\n      dup1\n        /* \"EnglishAuction.sol\":2979:2991  highestPrice */\n      0x02\n        /* \"EnglishAuction.sol\":2979:3002  highestPrice = bidPrice */\n      dup2\n      swap1\n      sstore\n      pop\n        /* \"EnglishAuction.sol\":3029:3037  bidPrice */\n      dup1\n        /* \"EnglishAuction.sol\":3013:3017  bids */\n      0x06\n        /* \"EnglishAuction.sol\":3013:3025  bids[sender] */\n      0x00\n        /* \"EnglishAuction.sol\":3018:3024  sender */\n      dup5\n        /* \"EnglishAuction.sol\":3013:3025  bids[sender] */\n      0xffffffffffffffffffffffffffffffffffffffff\n      and\n      0xffffffffffffffffffffffffffffffffffffffff\n      and\n      dup2\n      mstore\n      0x20\n      add\n      swap1\n      dup2\n      mstore\n      0x20\n      add\n      0x00\n      keccak256\n      0x00\n        /* \"EnglishAuction.sol\":3013:3037  bids[sender] += bidPrice */\n      dup3\n      dup3\n      sload\n      tag_71\n      swap2\n      swap1\n      tag_72\n      jump\t// in\n    tag_71:\n      swap3\n      pop\n      pop\n      dup2\n      swap1\n      sstore\n      pop\n        /* \"EnglishAuction.sol\":3078:3084  sender */\n      dup2\n        /* \"EnglishAuction.sol\":3074:3095  Bid(sender, bidPrice) */\n      0xffffffffffffffffffffffffffffffffffffffff\n      and\n      0xe684a55f31b79eca403df938249029212a5925ec6be8012e099b45bc1019e5d2\n        /* \"EnglishAuction.sol\":3086:3094  bidPrice */\n      dup3\n        /* \"EnglishAuction.sol\":3074:3095  Bid(sender, bidPrice) */\n      mload(0x40)\n      tag_73\n      swap2\n      swap1\n      tag_17\n      jump\t// in\n    tag_73:\n      mload(0x40)\n      dup1\n      swap2\n      sub\n      swap1\n      log2\n        /* \"EnglishAuction.sol\":2187:3105  {... */\n      pop\n      pop\n        /* \"EnglishAuction.sol\":2155:3105  function bid() external payable {... */\n      jump\t// out\n        /* \"EnglishAuction.sol\":3113:3913  function withdraw() external payable  {... */\n    tag_25:\n        /* \"EnglishAuction.sol\":3204:3226  address payable sender */\n      0x00\n        /* \"EnglishAuction.sol\":3237:3247  msg.sender */\n      caller\n        /* \"EnglishAuction.sol\":3204:3248  address payable sender = payable(msg.sender) */\n      swap1\n      pop\n        /* \"EnglishAuction.sol\":3281:3282  0 */\n      0x00\n        /* \"EnglishAuction.sol\":3267:3271  bids */\n      0x06\n        /* \"EnglishAuction.sol\":3267:3279  bids[sender] */\n      0x00\n        /* \"EnglishAuction.sol\":3272:3278  sender */\n      dup4\n        /* \"EnglishAuction.sol\":3267:3279  bids[sender] */\n      0xffffffffffffffffffffffffffffffffffffffff\n      and\n      0xffffffffffffffffffffffffffffffffffffffff\n      and\n      dup2\n      mstore\n      0x20\n      add\n      swap1\n      dup2\n      mstore\n      0x20\n      add\n      0x00\n      keccak256\n      sload\n        /* \"EnglishAuction.sol\":3267:3282  bids[sender]!=0 */\n      sub\n        /* \"EnglishAuction.sol\":3259:3314  require(bids[sender]!=0,\"your eth = 0, can't withdraw\") */\n      tag_75\n      jumpi\n      mload(0x40)\n      0x08c379a000000000000000000000000000000000000000000000000000000000\n      dup2\n      mstore\n      0x04\n      add\n      tag_76\n      swap1\n      tag_77\n      jump\t// in\n    tag_76:\n      mload(0x40)\n      dup1\n      swap2\n      sub\n      swap1\n      revert\n    tag_75:\n        /* \"EnglishAuction.sol\":3448:3459  uint refund */\n      0x00\n        /* \"EnglishAuction.sol\":3483:3496  highestBidder */\n      0x01\n      0x00\n      swap1\n      sload\n      swap1\n      0x0100\n      exp\n      swap1\n      div\n      0xffffffffffffffffffffffffffffffffffffffff\n      and\n        /* \"EnglishAuction.sol\":3473:3496  sender == highestBidder */\n      0xffffffffffffffffffffffffffffffffffffffff\n      and\n        /* \"EnglishAuction.sol\":3473:3479  sender */\n      dup3\n        /* \"EnglishAuction.sol\":3473:3496  sender == highestBidder */\n      0xffffffffffffffffffffffffffffffffffffffff\n      and\n      sub\n        /* \"EnglishAuction.sol\":3470:3712  if(sender == highestBidder){... */\n      tag_78\n      jumpi\n        /* \"EnglishAuction.sol\":3536:3548  highestPrice */\n      sload(0x02)\n        /* \"EnglishAuction.sol\":3521:3525  bids */\n      0x06\n        /* \"EnglishAuction.sol\":3521:3533  bids[sender] */\n      0x00\n        /* \"EnglishAuction.sol\":3526:3532  sender */\n      dup5\n        /* \"EnglishAuction.sol\":3521:3533  bids[sender] */\n      0xffffffffffffffffffffffffffffffffffffffff\n      and\n      0xffffffffffffffffffffffffffffffffffffffff\n      and\n      dup2\n      mstore\n      0x20\n      add\n      swap1\n      dup2\n      mstore\n      0x20\n      add\n      0x00\n      keccak256\n      sload\n        /* \"EnglishAuction.sol\":3521:3548  bids[sender] - highestPrice */\n      tag_79\n      swap2\n      swap1\n      tag_80\n      jump\t// in\n    tag_79:\n        /* \"EnglishAuction.sol\":3512:3548  refund = bids[sender] - highestPrice */\n      swap1\n      pop\n        /* \"EnglishAuction.sol\":3470:3712  if(sender == highestBidder){... */\n      jump(tag_81)\n    tag_78:\n        /* \"EnglishAuction.sol\":3688:3692  bids */\n      0x06\n        /* \"EnglishAuction.sol\":3688:3700  bids[sender] */\n      0x00\n        /* \"EnglishAuction.sol\":3693:3699  sender */\n      dup4\n        /* \"EnglishAuction.sol\":3688:3700  bids[sender] */\n      0xffffffffffffffffffffffffffffffffffffffff\n      and\n      0xffffffffffffffffffffffffffffffffffffffff\n      and\n      dup2\n      mstore\n      0x20\n      add\n      swap1\n      dup2\n      mstore\n      0x20\n      add\n      0x00\n      keccak256\n      sload\n        /* \"EnglishAuction.sol\":3679:3700  refund = bids[sender] */\n      swap1\n      pop\n        /* \"EnglishAuction.sol\":3470:3712  if(sender == highestBidder){... */\n    tag_81:\n        /* \"EnglishAuction.sol\":3765:3771  sender */\n      dup2\n        /* \"EnglishAuction.sol\":3765:3780  sender.transfer */\n      0xffffffffffffffffffffffffffffffffffffffff\n      and\n        /* \"EnglishAuction.sol\":3765:3788  sender.transfer(refund) */\n      0x08fc\n        /* \"EnglishAuction.sol\":3781:3787  refund */\n      dup3\n        /* \"EnglishAuction.sol\":3765:3788  sender.transfer(refund) */\n      swap1\n      dup2\n      iszero\n      mul\n      swap1\n      mload(0x40)\n      0x00\n      mload(0x40)\n      dup1\n      dup4\n      sub\n      dup2\n      dup6\n      dup9\n      dup9\n      call\n      swap4\n      pop\n      pop\n      pop\n      pop\n      iszero\n      dup1\n      iszero\n      tag_83\n      jumpi\n      returndatasize\n      0x00\n      dup1\n      returndatacopy\n      revert(0x00, returndatasize)\n    tag_83:\n      pop\n        /* \"EnglishAuction.sol\":3838:3844  refund */\n      dup1\n        /* \"EnglishAuction.sol\":3822:3826  bids */\n      0x06\n        /* \"EnglishAuction.sol\":3822:3834  bids[sender] */\n      0x00\n        /* \"EnglishAuction.sol\":3827:3833  sender */\n      dup5\n        /* \"EnglishAuction.sol\":3822:3834  bids[sender] */\n      0xffffffffffffffffffffffffffffffffffffffff\n      and\n      0xffffffffffffffffffffffffffffffffffffffff\n      and\n      dup2\n      mstore\n      0x20\n      add\n      swap1\n      dup2\n      mstore\n      0x20\n      add\n      0x00\n      keccak256\n      0x00\n        /* \"EnglishAuction.sol\":3822:3844  bids[sender] -= refund */\n      dup3\n      dup3\n      sload\n      tag_84\n      swap2\n      swap1\n      tag_80\n      jump\t// in\n    tag_84:\n      swap3\n      pop\n      pop\n      dup2\n      swap1\n      sstore\n      pop\n        /* \"EnglishAuction.sol\":3890:3896  sender */\n      dup2\n        /* \"EnglishAuction.sol\":3881:3905  Withdraw(sender, refund) */\n      0xffffffffffffffffffffffffffffffffffffffff\n      and\n      0x884edad9ce6fa2440d8a54cc123490eb96d2768479d49ff9c7366125a9424364\n        /* \"EnglishAuction.sol\":3898:3904  refund */\n      dup3\n        /* \"EnglishAuction.sol\":3881:3905  Withdraw(sender, refund) */\n      mload(0x40)\n      tag_85\n      swap2\n      swap1\n      tag_17\n      jump\t// in\n    tag_85:\n      mload(0x40)\n      dup1\n      swap2\n      sub\n      swap1\n      log2\n        /* \"EnglishAuction.sol\":3151:3913  {... */\n      pop\n      pop\n        /* \"EnglishAuction.sol\":3113:3913  function withdraw() external payable  {... */\n      jump\t// out\n        /* \"EnglishAuction.sol\":702:730  IERC721 public immutable nft */\n    tag_28:\n      immutable(\"0x6304e47846f882085b0f4b1a184252ae95ffe5e2a02daf39c014f492dcb1441c\")\n      dup2\n      jump\t// out\n        /* \"EnglishAuction.sol\":1516:2147  function startAuction() external {  // owner call, start auction... */\n    tag_33:\n        /* \"EnglishAuction.sol\":1663:1669  seller */\n      0x00\n      dup1\n      sload\n      swap1\n      0x0100\n      exp\n      swap1\n      div\n      0xffffffffffffffffffffffffffffffffffffffff\n      and\n        /* \"EnglishAuction.sol\":1649:1669  msg.sender == seller */\n      0xffffffffffffffffffffffffffffffffffffffff\n      and\n        /* \"EnglishAuction.sol\":1649:1659  msg.sender */\n      caller\n        /* \"EnglishAuction.sol\":1649:1669  msg.sender == seller */\n      0xffffffffffffffffffffffffffffffffffffffff\n      and\n      eq\n        /* \"EnglishAuction.sol\":1641:1704  require(msg.sender == seller,\"can't start, u a not autherized\") */\n      tag_87\n      jumpi\n      mload(0x40)\n      0x08c379a000000000000000000000000000000000000000000000000000000000\n      dup2\n      mstore\n      0x04\n      add\n      tag_88\n      swap1\n      tag_89\n      jump\t// in\n    tag_88:\n      mload(0x40)\n      dup1\n      swap2\n      sub\n      swap1\n      revert\n    tag_87:\n        /* \"EnglishAuction.sol\":1724:1731  isStart */\n      0x05\n      0x00\n      swap1\n      sload\n      swap1\n      0x0100\n      exp\n      swap1\n      div\n      0xff\n      and\n        /* \"EnglishAuction.sol\":1723:1731  !isStart */\n      iszero\n        /* \"EnglishAuction.sol\":1723:1744  !isStart && !isClosed */\n      dup1\n      iszero\n      tag_90\n      jumpi\n      pop\n        /* \"EnglishAuction.sol\":1736:1744  isClosed */\n      0x05\n      0x01\n      swap1\n      sload\n      swap1\n      0x0100\n      exp\n      swap1\n      div\n      0xff\n      and\n        /* \"EnglishAuction.sol\":1735:1744  !isClosed */\n      iszero\n        /* \"EnglishAuction.sol\":1723:1744  !isStart && !isClosed */\n    tag_90:\n        /* \"EnglishAuction.sol\":1715:1776  require(!isStart && !isClosed, \"auction has start or closed\") */\n      tag_91\n      jumpi\n      mload(0x40)\n      0x08c379a000000000000000000000000000000000000000000000000000000000\n      dup2\n      mstore\n      0x04\n      add\n      tag_92\n      swap1\n      tag_93\n      jump\t// in\n    tag_92:\n      mload(0x40)\n      dup1\n      swap2\n      sub\n      swap1\n      revert\n    tag_91:\n        /* \"EnglishAuction.sol\":1838:1854  uint timeCurrent */\n      0x00\n        /* \"EnglishAuction.sol\":1857:1872  block.timestamp */\n      timestamp\n        /* \"EnglishAuction.sol\":1838:1872  uint timeCurrent = block.timestamp */\n      swap1\n      pop\n        /* \"EnglishAuction.sol\":1893:1904  timeCurrent */\n      dup1\n        /* \"EnglishAuction.sol\":1883:1890  startAt */\n      0x03\n        /* \"EnglishAuction.sol\":1883:1904  startAt = timeCurrent */\n      dup2\n      swap1\n      sstore\n      pop\n        /* \"EnglishAuction.sol\":1937:1945  duration */\n      immutable(\"0x4dfb3440902001bce9b7ebf7be7d95fe9e2056bd5ce309ceb83b32f4e00e21ed\")\n        /* \"EnglishAuction.sol\":1923:1934  timeCurrent */\n      dup2\n        /* \"EnglishAuction.sol\":1923:1945  timeCurrent + duration */\n      tag_94\n      swap2\n      swap1\n      tag_72\n      jump\t// in\n    tag_94:\n        /* \"EnglishAuction.sol\":1915:1920  endAt */\n      0x04\n        /* \"EnglishAuction.sol\":1915:1945  endAt = timeCurrent + duration */\n      dup2\n      swap1\n      sstore\n      pop\n        /* \"EnglishAuction.sol\":1989:1993  true */\n      0x01\n        /* \"EnglishAuction.sol\":1979:1986  isStart */\n      0x05\n      0x00\n        /* \"EnglishAuction.sol\":1979:1993  isStart = true */\n      0x0100\n      exp\n      dup2\n      sload\n      dup2\n      0xff\n      mul\n      not\n      and\n      swap1\n      dup4\n      iszero\n      iszero\n      mul\n      or\n      swap1\n      sstore\n      pop\n        /* \"EnglishAuction.sol\":2049:2052  nft */\n      immutable(\"0x6304e47846f882085b0f4b1a184252ae95ffe5e2a02daf39c014f492dcb1441c\")\n        /* \"EnglishAuction.sol\":2049:2065  nft.transferFrom */\n      0xffffffffffffffffffffffffffffffffffffffff\n      and\n      0x23b872dd\n        /* \"EnglishAuction.sol\":2066:2072  seller */\n      0x00\n      dup1\n      sload\n      swap1\n      0x0100\n      exp\n      swap1\n      div\n      0xffffffffffffffffffffffffffffffffffffffff\n      and\n        /* \"EnglishAuction.sol\":2082:2086  this */\n      address\n        /* \"EnglishAuction.sol\":2089:2094  nftId */\n      immutable(\"0x215d56ac8bbcf4ec574772ebea743ba30ac9d1c5e1b1ff899e5de1045f5df803\")\n        /* \"EnglishAuction.sol\":2049:2095  nft.transferFrom(seller, address(this), nftId) */\n      mload(0x40)\n      dup5\n      0xffffffff\n      and\n      0xe0\n      shl\n      dup2\n      mstore\n      0x04\n      add\n      tag_95\n      swap4\n      swap3\n      swap2\n      swap1\n      tag_96\n      jump\t// in\n    tag_95:\n      0x00\n      mload(0x40)\n      dup1\n      dup4\n      sub\n      dup2\n      0x00\n      dup8\n      dup1\n      extcodesize\n      iszero\n      dup1\n      iszero\n      tag_97\n      jumpi\n      0x00\n      dup1\n      revert\n    tag_97:\n      pop\n      gas\n      call\n      iszero\n      dup1\n      iszero\n      tag_99\n      jumpi\n      returndatasize\n      0x00\n      dup1\n      returndatacopy\n      revert(0x00, returndatasize)\n    tag_99:\n      pop\n      pop\n      pop\n      pop\n        /* \"EnglishAuction.sol\":2132:2139  Start() */\n      0x1b55ba3aa851a46be3b365aee5b5c140edd620d578922f3e8466d2cbd96f954b\n      mload(0x40)\n      mload(0x40)\n      dup1\n      swap2\n      sub\n      swap1\n      log1\n        /* \"EnglishAuction.sol\":1549:2147  {  // owner call, start auction... */\n      pop\n        /* \"EnglishAuction.sol\":1516:2147  function startAuction() external {  // owner call, start auction... */\n      jump\t// out\n        /* \"EnglishAuction.sol\":676:693  uint public endAt */\n    tag_36:\n      sload(0x04)\n      dup2\n      jump\t// out\n        /* \"EnglishAuction.sol\":598:617  uint public startAt */\n    tag_40:\n      sload(0x03)\n      dup2\n      jump\t// out\n        /* \"EnglishAuction.sol\":512:547  uint public immutable startingPrice */\n    tag_44:\n      immutable(\"0x5bc0457d8881b800fd1bc0d6df907345b3bf287e43a5790ded3d08dbacf9c03a\")\n      dup2\n      jump\t// out\n        /* \"EnglishAuction.sol\":3921:5174  function endAuction() external payable {... */\n    tag_47:\n        /* \"EnglishAuction.sol\":4045:4066  address payable owner */\n      0x00\n        /* \"EnglishAuction.sol\":4078:4088  msg.sender */\n      caller\n        /* \"EnglishAuction.sol\":4045:4089  address payable owner = payable (msg.sender) */\n      swap1\n      pop\n        /* \"EnglishAuction.sol\":4117:4123  seller */\n      0x00\n      dup1\n      sload\n      swap1\n      0x0100\n      exp\n      swap1\n      div\n      0xffffffffffffffffffffffffffffffffffffffff\n      and\n        /* \"EnglishAuction.sol\":4108:4123  owner == seller */\n      0xffffffffffffffffffffffffffffffffffffffff\n      and\n        /* \"EnglishAuction.sol\":4108:4113  owner */\n      dup2\n        /* \"EnglishAuction.sol\":4108:4123  owner == seller */\n      0xffffffffffffffffffffffffffffffffffffffff\n      and\n      eq\n        /* \"EnglishAuction.sol\":4100:4155  require(owner == seller, \"Only seller can end auction\") */\n      tag_101\n      jumpi\n      mload(0x40)\n      0x08c379a000000000000000000000000000000000000000000000000000000000\n      dup2\n      mstore\n      0x04\n      add\n      tag_102\n      swap1\n      tag_103\n      jump\t// in\n    tag_102:\n      mload(0x40)\n      dup1\n      swap2\n      sub\n      swap1\n      revert\n    tag_101:\n        /* \"EnglishAuction.sol\":4174:4181  isStart */\n      0x05\n      0x00\n      swap1\n      sload\n      swap1\n      0x0100\n      exp\n      swap1\n      div\n      0xff\n      and\n        /* \"EnglishAuction.sol\":4166:4204  require(isStart,\"auction not started\") */\n      tag_104\n      jumpi\n      mload(0x40)\n      0x08c379a000000000000000000000000000000000000000000000000000000000\n      dup2\n      mstore\n      0x04\n      add\n      tag_105\n      swap1\n      tag_106\n      jump\t// in\n    tag_105:\n      mload(0x40)\n      dup1\n      swap2\n      sub\n      swap1\n      revert\n    tag_104:\n        /* \"EnglishAuction.sol\":4224:4232  isClosed */\n      0x05\n      0x01\n      swap1\n      sload\n      swap1\n      0x0100\n      exp\n      swap1\n      div\n      0xff\n      and\n        /* \"EnglishAuction.sol\":4223:4232  !isClosed */\n      iszero\n        /* \"EnglishAuction.sol\":4215:4263  require(!isClosed, \"auction is already closed.\") */\n      tag_107\n      jumpi\n      mload(0x40)\n      0x08c379a000000000000000000000000000000000000000000000000000000000\n      dup2\n      mstore\n      0x04\n      add\n      tag_108\n      swap1\n      tag_109\n      jump\t// in\n    tag_108:\n      mload(0x40)\n      dup1\n      swap2\n      sub\n      swap1\n      revert\n    tag_107:\n        /* \"EnglishAuction.sol\":4300:4305  endAt */\n      sload(0x04)\n        /* \"EnglishAuction.sol\":4282:4297  block.timestamp */\n      timestamp\n        /* \"EnglishAuction.sol\":4282:4305  block.timestamp > endAt */\n      gt\n        /* \"EnglishAuction.sol\":4274:4335  require(block.timestamp > endAt,\"time not expired,can't end\") */\n      tag_110\n      jumpi\n      mload(0x40)\n      0x08c379a000000000000000000000000000000000000000000000000000000000\n      dup2\n      mstore\n      0x04\n      add\n      tag_111\n      swap1\n      tag_112\n      jump\t// in\n    tag_111:\n      mload(0x40)\n      dup1\n      swap2\n      sub\n      swap1\n      revert\n    tag_110:\n        /* \"EnglishAuction.sol\":4439:4440  0 */\n      0x00\n        /* \"EnglishAuction.sol\":4414:4441  highestBidder != address(0) */\n      0xffffffffffffffffffffffffffffffffffffffff\n      and\n        /* \"EnglishAuction.sol\":4414:4427  highestBidder */\n      0x01\n      0x00\n      swap1\n      sload\n      swap1\n      0x0100\n      exp\n      swap1\n      div\n      0xffffffffffffffffffffffffffffffffffffffff\n      and\n        /* \"EnglishAuction.sol\":4414:4441  highestBidder != address(0) */\n      0xffffffffffffffffffffffffffffffffffffffff\n      and\n      eq\n        /* \"EnglishAuction.sol\":4411:4791  if(highestBidder != address(0)){... */\n      tag_113\n      jumpi\n        /* \"EnglishAuction.sol\":4512:4515  nft */\n      immutable(\"0x6304e47846f882085b0f4b1a184252ae95ffe5e2a02daf39c014f492dcb1441c\")\n        /* \"EnglishAuction.sol\":4512:4528  nft.transferFrom */\n      0xffffffffffffffffffffffffffffffffffffffff\n      and\n      0x23b872dd\n        /* \"EnglishAuction.sol\":4529:4535  seller */\n      0x00\n      dup1\n      sload\n      swap1\n      0x0100\n      exp\n      swap1\n      div\n      0xffffffffffffffffffffffffffffffffffffffff\n      and\n        /* \"EnglishAuction.sol\":4537:4550  highestBidder */\n      0x01\n      0x00\n      swap1\n      sload\n      swap1\n      0x0100\n      exp\n      swap1\n      div\n      0xffffffffffffffffffffffffffffffffffffffff\n      and\n        /* \"EnglishAuction.sol\":4552:4557  nftId */\n      immutable(\"0x215d56ac8bbcf4ec574772ebea743ba30ac9d1c5e1b1ff899e5de1045f5df803\")\n        /* \"EnglishAuction.sol\":4512:4558  nft.transferFrom(seller, highestBidder, nftId) */\n      mload(0x40)\n      dup5\n      0xffffffff\n      and\n      0xe0\n      shl\n      dup2\n      mstore\n      0x04\n      add\n      tag_114\n      swap4\n      swap3\n      swap2\n      swap1\n      tag_96\n      jump\t// in\n    tag_114:\n      0x00\n      mload(0x40)\n      dup1\n      dup4\n      sub\n      dup2\n      0x00\n      dup8\n      dup1\n      extcodesize\n      iszero\n      dup1\n      iszero\n      tag_115\n      jumpi\n      0x00\n      dup1\n      revert\n    tag_115:\n      pop\n      gas\n      call\n      iszero\n      dup1\n      iszero\n      tag_117\n      jumpi\n      returndatasize\n      0x00\n      dup1\n      returndatacopy\n      revert(0x00, returndatasize)\n    tag_117:\n      pop\n      pop\n      pop\n      pop\n        /* \"EnglishAuction.sol\":4573:4579  seller */\n      0x00\n      dup1\n      sload\n      swap1\n      0x0100\n      exp\n      swap1\n      div\n      0xffffffffffffffffffffffffffffffffffffffff\n      and\n        /* \"EnglishAuction.sol\":4573:4588  seller.transfer */\n      0xffffffffffffffffffffffffffffffffffffffff\n      and\n        /* \"EnglishAuction.sol\":4573:4602  seller.transfer(highestPrice) */\n      0x08fc\n        /* \"EnglishAuction.sol\":4589:4601  highestPrice */\n      sload(0x02)\n        /* \"EnglishAuction.sol\":4573:4602  seller.transfer(highestPrice) */\n      swap1\n      dup2\n      iszero\n      mul\n      swap1\n      mload(0x40)\n      0x00\n      mload(0x40)\n      dup1\n      dup4\n      sub\n      dup2\n      dup6\n      dup9\n      dup9\n      call\n      swap4\n      pop\n      pop\n      pop\n      pop\n      iszero\n      dup1\n      iszero\n      tag_119\n      jumpi\n      returndatasize\n      0x00\n      dup1\n      returndatacopy\n      revert(0x00, returndatasize)\n    tag_119:\n      pop\n        /* \"EnglishAuction.sol\":4640:4652  highestPrice */\n      sload(0x02)\n        /* \"EnglishAuction.sol\":4617:4621  bids */\n      0x06\n        /* \"EnglishAuction.sol\":4617:4636  bids[highestBidder] */\n      0x00\n        /* \"EnglishAuction.sol\":4622:4635  highestBidder */\n      0x01\n      0x00\n      swap1\n      sload\n      swap1\n      0x0100\n      exp\n      swap1\n      div\n      0xffffffffffffffffffffffffffffffffffffffff\n      and\n        /* \"EnglishAuction.sol\":4617:4636  bids[highestBidder] */\n      0xffffffffffffffffffffffffffffffffffffffff\n      and\n      0xffffffffffffffffffffffffffffffffffffffff\n      and\n      dup2\n      mstore\n      0x20\n      add\n      swap1\n      dup2\n      mstore\n      0x20\n      add\n      0x00\n      keccak256\n      0x00\n        /* \"EnglishAuction.sol\":4617:4652  bids[highestBidder] -= highestPrice */\n      dup3\n      dup3\n      sload\n      tag_120\n      swap2\n      swap1\n      tag_80\n      jump\t// in\n    tag_120:\n      swap3\n      pop\n      pop\n      dup2\n      swap1\n      sstore\n      pop\n        /* \"EnglishAuction.sol\":4411:4791  if(highestBidder != address(0)){... */\n      jump(tag_121)\n    tag_113:\n        /* \"EnglishAuction.sol\":4733:4736  nft */\n      immutable(\"0x6304e47846f882085b0f4b1a184252ae95ffe5e2a02daf39c014f492dcb1441c\")\n        /* \"EnglishAuction.sol\":4733:4749  nft.transferFrom */\n      0xffffffffffffffffffffffffffffffffffffffff\n      and\n      0x23b872dd\n        /* \"EnglishAuction.sol\":4758:4762  this */\n      address\n        /* \"EnglishAuction.sol\":4765:4771  seller */\n      0x00\n      dup1\n      sload\n      swap1\n      0x0100\n      exp\n      swap1\n      div\n      0xffffffffffffffffffffffffffffffffffffffff\n      and\n        /* \"EnglishAuction.sol\":4773:4778  nftId */\n      immutable(\"0x215d56ac8bbcf4ec574772ebea743ba30ac9d1c5e1b1ff899e5de1045f5df803\")\n        /* \"EnglishAuction.sol\":4733:4779  nft.transferFrom(address(this), seller, nftId) */\n      mload(0x40)\n      dup5\n      0xffffffff\n      and\n      0xe0\n      shl\n      dup2\n      mstore\n      0x04\n      add\n      tag_122\n      swap4\n      swap3\n      swap2\n      swap1\n      tag_123\n      jump\t// in\n    tag_122:\n      0x00\n      mload(0x40)\n      dup1\n      dup4\n      sub\n      dup2\n      0x00\n      dup8\n      dup1\n      extcodesize\n      iszero\n      dup1\n      iszero\n      tag_124\n      jumpi\n      0x00\n      dup1\n      revert\n    tag_124:\n      pop\n      gas\n      call\n      iszero\n      dup1\n      iszero\n      tag_126\n      jumpi\n      returndatasize\n      0x00\n      dup1\n      returndatacopy\n      revert(0x00, returndatasize)\n    tag_126:\n      pop\n      pop\n      pop\n      pop\n        /* \"EnglishAuction.sol\":4411:4791  if(highestBidder != address(0)){... */\n    tag_121:\n        /* \"EnglishAuction.sol\":4811:4816  false */\n      0x00\n        /* \"EnglishAuction.sol\":4801:4808  isStart */\n      0x05\n      0x00\n        /* \"EnglishAuction.sol\":4801:4816  isStart = false */\n      0x0100\n      exp\n      dup2\n      sload\n      dup2\n      0xff\n      mul\n      not\n      and\n      swap1\n      dup4\n      iszero\n      iszero\n      mul\n      or\n      swap1\n      sstore\n      pop\n        /* \"EnglishAuction.sol\":4838:4842  true */\n      0x01\n        /* \"EnglishAuction.sol\":4827:4835  isClosed */\n      0x05\n      0x01\n        /* \"EnglishAuction.sol\":4827:4842  isClosed = true */\n      0x0100\n      exp\n      dup2\n      sload\n      dup2\n      0xff\n      mul\n      not\n      and\n      swap1\n      dup4\n      iszero\n      iszero\n      mul\n      or\n      swap1\n      sstore\n      pop\n        /* \"EnglishAuction.sol\":5134:5166  End(highestBidder, highestPrice) */\n      0x7d7570b046e5ead3a4f3fbc9fa2445113625a1e79823776146316bafed6b8cc5\n        /* \"EnglishAuction.sol\":5138:5151  highestBidder */\n      0x01\n      0x00\n      swap1\n      sload\n      swap1\n      0x0100\n      exp\n      swap1\n      div\n      0xffffffffffffffffffffffffffffffffffffffff\n      and\n        /* \"EnglishAuction.sol\":5153:5165  highestPrice */\n      sload(0x02)\n        /* \"EnglishAuction.sol\":5134:5166  End(highestBidder, highestPrice) */\n      mload(0x40)\n      tag_127\n      swap3\n      swap2\n      swap1\n      tag_128\n      jump\t// in\n    tag_127:\n      mload(0x40)\n      dup1\n      swap2\n      sub\n      swap1\n      log1\n        /* \"EnglishAuction.sol\":3960:5174  {... */\n      pop\n        /* \"EnglishAuction.sol\":3921:5174  function endAuction() external payable {... */\n      jump\t// out\n        /* \"#utility.yul\":7:84   */\n    tag_129:\n        /* \"#utility.yul\":44:51   */\n      0x00\n        /* \"#utility.yul\":73:78   */\n      dup2\n        /* \"#utility.yul\":62:78   */\n      swap1\n      pop\n        /* \"#utility.yul\":7:84   */\n      swap2\n      swap1\n      pop\n      jump\t// out\n        /* \"#utility.yul\":90:208   */\n    tag_130:\n        /* \"#utility.yul\":177:201   */\n      tag_174\n        /* \"#utility.yul\":195:200   */\n      dup2\n        /* \"#utility.yul\":177:201   */\n      tag_129\n      jump\t// in\n    tag_174:\n        /* \"#utility.yul\":172:175   */\n      dup3\n        /* \"#utility.yul\":165:202   */\n      mstore\n        /* \"#utility.yul\":90:208   */\n      pop\n      pop\n      jump\t// out\n        /* \"#utility.yul\":214:436   */\n    tag_17:\n        /* \"#utility.yul\":307:311   */\n      0x00\n        /* \"#utility.yul\":345:347   */\n      0x20\n        /* \"#utility.yul\":334:343   */\n      dup3\n        /* \"#utility.yul\":330:348   */\n      add\n        /* \"#utility.yul\":322:348   */\n      swap1\n      pop\n        /* \"#utility.yul\":358:429   */\n      tag_176\n        /* \"#utility.yul\":426:427   */\n      0x00\n        /* \"#utility.yul\":415:424   */\n      dup4\n        /* \"#utility.yul\":411:428   */\n      add\n        /* \"#utility.yul\":402:408   */\n      dup5\n        /* \"#utility.yul\":358:429   */\n      tag_130\n      jump\t// in\n    tag_176:\n        /* \"#utility.yul\":214:436   */\n      swap3\n      swap2\n      pop\n      pop\n      jump\t// out\n        /* \"#utility.yul\":442:568   */\n    tag_131:\n        /* \"#utility.yul\":479:486   */\n      0x00\n        /* \"#utility.yul\":519:561   */\n      0xffffffffffffffffffffffffffffffffffffffff\n        /* \"#utility.yul\":512:517   */\n      dup3\n        /* \"#utility.yul\":508:562   */\n      and\n        /* \"#utility.yul\":497:562   */\n      swap1\n      pop\n        /* \"#utility.yul\":442:568   */\n      swap2\n      swap1\n      pop\n      jump\t// out\n        /* \"#utility.yul\":574:634   */\n    tag_132:\n        /* \"#utility.yul\":602:605   */\n      0x00\n        /* \"#utility.yul\":623:628   */\n      dup2\n        /* \"#utility.yul\":616:628   */\n      swap1\n      pop\n        /* \"#utility.yul\":574:634   */\n      swap2\n      swap1\n      pop\n      jump\t// out\n        /* \"#utility.yul\":640:782   */\n    tag_133:\n        /* \"#utility.yul\":690:699   */\n      0x00\n        /* \"#utility.yul\":723:776   */\n      tag_180\n        /* \"#utility.yul\":741:775   */\n      tag_181\n        /* \"#utility.yul\":750:774   */\n      tag_182\n        /* \"#utility.yul\":768:773   */\n      dup5\n        /* \"#utility.yul\":750:774   */\n      tag_131\n      jump\t// in\n    tag_182:\n        /* \"#utility.yul\":741:775   */\n      tag_132\n      jump\t// in\n    tag_181:\n        /* \"#utility.yul\":723:776   */\n      tag_131\n      jump\t// in\n    tag_180:\n        /* \"#utility.yul\":710:776   */\n      swap1\n      pop\n        /* \"#utility.yul\":640:782   */\n      swap2\n      swap1\n      pop\n      jump\t// out\n        /* \"#utility.yul\":788:914   */\n    tag_134:\n        /* \"#utility.yul\":838:847   */\n      0x00\n        /* \"#utility.yul\":871:908   */\n      tag_184\n        /* \"#utility.yul\":902:907   */\n      dup3\n        /* \"#utility.yul\":871:908   */\n      tag_133\n      jump\t// in\n    tag_184:\n        /* \"#utility.yul\":858:908   */\n      swap1\n      pop\n        /* \"#utility.yul\":788:914   */\n      swap2\n      swap1\n      pop\n      jump\t// out\n        /* \"#utility.yul\":920:1060   */\n    tag_135:\n        /* \"#utility.yul\":984:993   */\n      0x00\n        /* \"#utility.yul\":1017:1054   */\n      tag_186\n        /* \"#utility.yul\":1048:1053   */\n      dup3\n        /* \"#utility.yul\":1017:1054   */\n      tag_134\n      jump\t// in\n    tag_186:\n        /* \"#utility.yul\":1004:1054   */\n      swap1\n      pop\n        /* \"#utility.yul\":920:1060   */\n      swap2\n      swap1\n      pop\n      jump\t// out\n        /* \"#utility.yul\":1066:1225   */\n    tag_136:\n        /* \"#utility.yul\":1167:1218   */\n      tag_188\n        /* \"#utility.yul\":1212:1217   */\n      dup2\n        /* \"#utility.yul\":1167:1218   */\n      tag_135\n      jump\t// in\n    tag_188:\n        /* \"#utility.yul\":1162:1165   */\n      dup3\n        /* \"#utility.yul\":1155:1219   */\n      mstore\n        /* \"#utility.yul\":1066:1225   */\n      pop\n      pop\n      jump\t// out\n        /* \"#utility.yul\":1231:1481   */\n    tag_30:\n        /* \"#utility.yul\":1338:1342   */\n      0x00\n        /* \"#utility.yul\":1376:1378   */\n      0x20\n        /* \"#utility.yul\":1365:1374   */\n      dup3\n        /* \"#utility.yul\":1361:1379   */\n      add\n        /* \"#utility.yul\":1353:1379   */\n      swap1\n      pop\n        /* \"#utility.yul\":1389:1474   */\n      tag_190\n        /* \"#utility.yul\":1471:1472   */\n      0x00\n        /* \"#utility.yul\":1460:1469   */\n      dup4\n        /* \"#utility.yul\":1456:1473   */\n      add\n        /* \"#utility.yul\":1447:1453   */\n      dup5\n        /* \"#utility.yul\":1389:1474   */\n      tag_136\n      jump\t// in\n    tag_190:\n        /* \"#utility.yul\":1231:1481   */\n      swap3\n      swap2\n      pop\n      pop\n      jump\t// out\n        /* \"#utility.yul\":1487:1656   */\n    tag_137:\n        /* \"#utility.yul\":1571:1582   */\n      0x00\n        /* \"#utility.yul\":1605:1611   */\n      dup3\n        /* \"#utility.yul\":1600:1603   */\n      dup3\n        /* \"#utility.yul\":1593:1612   */\n      mstore\n        /* \"#utility.yul\":1645:1649   */\n      0x20\n        /* \"#utility.yul\":1640:1643   */\n      dup3\n        /* \"#utility.yul\":1636:1650   */\n      add\n        /* \"#utility.yul\":1621:1650   */\n      swap1\n      pop\n        /* \"#utility.yul\":1487:1656   */\n      swap3\n      swap2\n      pop\n      pop\n      jump\t// out\n        /* \"#utility.yul\":1662:1829   */\n    tag_138:\n        /* \"#utility.yul\":1802:1821   */\n      0x73656c6c6265722063616e277420627579000000000000000000000000000000\n        /* \"#utility.yul\":1798:1799   */\n      0x00\n        /* \"#utility.yul\":1790:1796   */\n      dup3\n        /* \"#utility.yul\":1786:1800   */\n      add\n        /* \"#utility.yul\":1779:1822   */\n      mstore\n        /* \"#utility.yul\":1662:1829   */\n      pop\n      jump\t// out\n        /* \"#utility.yul\":1835:2201   */\n    tag_139:\n        /* \"#utility.yul\":1977:1980   */\n      0x00\n        /* \"#utility.yul\":1998:2065   */\n      tag_194\n        /* \"#utility.yul\":2062:2064   */\n      0x11\n        /* \"#utility.yul\":2057:2060   */\n      dup4\n        /* \"#utility.yul\":1998:2065   */\n      tag_137\n      jump\t// in\n    tag_194:\n        /* \"#utility.yul\":1991:2065   */\n      swap2\n      pop\n        /* \"#utility.yul\":2074:2167   */\n      tag_195\n        /* \"#utility.yul\":2163:2166   */\n      dup3\n        /* \"#utility.yul\":2074:2167   */\n      tag_138\n      jump\t// in\n    tag_195:\n        /* \"#utility.yul\":2192:2194   */\n      0x20\n        /* \"#utility.yul\":2187:2190   */\n      dup3\n        /* \"#utility.yul\":2183:2195   */\n      add\n        /* \"#utility.yul\":2176:2195   */\n      swap1\n      pop\n        /* \"#utility.yul\":1835:2201   */\n      swap2\n      swap1\n      pop\n      jump\t// out\n        /* \"#utility.yul\":2207:2626   */\n    tag_51:\n        /* \"#utility.yul\":2373:2377   */\n      0x00\n        /* \"#utility.yul\":2411:2413   */\n      0x20\n        /* \"#utility.yul\":2400:2409   */\n      dup3\n        /* \"#utility.yul\":2396:2414   */\n      add\n        /* \"#utility.yul\":2388:2414   */\n      swap1\n      pop\n        /* \"#utility.yul\":2460:2469   */\n      dup2\n        /* \"#utility.yul\":2454:2458   */\n      dup2\n        /* \"#utility.yul\":2450:2470   */\n      sub\n        /* \"#utility.yul\":2446:2447   */\n      0x00\n        /* \"#utility.yul\":2435:2444   */\n      dup4\n        /* \"#utility.yul\":2431:2448   */\n      add\n        /* \"#utility.yul\":2424:2471   */\n      mstore\n        /* \"#utility.yul\":2488:2619   */\n      tag_197\n        /* \"#utility.yul\":2614:2618   */\n      dup2\n        /* \"#utility.yul\":2488:2619   */\n      tag_139\n      jump\t// in\n    tag_197:\n        /* \"#utility.yul\":2480:2619   */\n      swap1\n      pop\n        /* \"#utility.yul\":2207:2626   */\n      swap2\n      swap1\n      pop\n      jump\t// out\n        /* \"#utility.yul\":2632:2853   */\n    tag_140:\n        /* \"#utility.yul\":2772:2806   */\n      0x796f752061726520616c72656164792074686520686967686573742062696464\n        /* \"#utility.yul\":2768:2769   */\n      0x00\n        /* \"#utility.yul\":2760:2766   */\n      dup3\n        /* \"#utility.yul\":2756:2770   */\n      add\n        /* \"#utility.yul\":2749:2807   */\n      mstore\n        /* \"#utility.yul\":2841:2845   */\n      0x6572000000000000000000000000000000000000000000000000000000000000\n        /* \"#utility.yul\":2836:2838   */\n      0x20\n        /* \"#utility.yul\":2828:2834   */\n      dup3\n        /* \"#utility.yul\":2824:2839   */\n      add\n        /* \"#utility.yul\":2817:2846   */\n      mstore\n        /* \"#utility.yul\":2632:2853   */\n      pop\n      jump\t// out\n        /* \"#utility.yul\":2859:3225   */\n    tag_141:\n        /* \"#utility.yul\":3001:3004   */\n      0x00\n        /* \"#utility.yul\":3022:3089   */\n      tag_200\n        /* \"#utility.yul\":3086:3088   */\n      0x22\n        /* \"#utility.yul\":3081:3084   */\n      dup4\n        /* \"#utility.yul\":3022:3089   */\n      tag_137\n      jump\t// in\n    tag_200:\n        /* \"#utility.yul\":3015:3089   */\n      swap2\n      pop\n        /* \"#utility.yul\":3098:3191   */\n      tag_201\n        /* \"#utility.yul\":3187:3190   */\n      dup3\n        /* \"#utility.yul\":3098:3191   */\n      tag_140\n      jump\t// in\n    tag_201:\n        /* \"#utility.yul\":3216:3218   */\n      0x40\n        /* \"#utility.yul\":3211:3214   */\n      dup3\n        /* \"#utility.yul\":3207:3219   */\n      add\n        /* \"#utility.yul\":3200:3219   */\n      swap1\n      pop\n        /* \"#utility.yul\":2859:3225   */\n      swap2\n      swap1\n      pop\n      jump\t// out\n        /* \"#utility.yul\":3231:3650   */\n    tag_54:\n        /* \"#utility.yul\":3397:3401   */\n      0x00\n        /* \"#utility.yul\":3435:3437   */\n      0x20\n        /* \"#utility.yul\":3424:3433   */\n      dup3\n        /* \"#utility.yul\":3420:3438   */\n      add\n        /* \"#utility.yul\":3412:3438   */\n      swap1\n      pop\n        /* \"#utility.yul\":3484:3493   */\n      dup2\n        /* \"#utility.yul\":3478:3482   */\n      dup2\n        /* \"#utility.yul\":3474:3494   */\n      sub\n        /* \"#utility.yul\":3470:3471   */\n      0x00\n        /* \"#utility.yul\":3459:3468   */\n      dup4\n        /* \"#utility.yul\":3455:3472   */\n      add\n        /* \"#utility.yul\":3448:3495   */\n      mstore\n        /* \"#utility.yul\":3512:3643   */\n      tag_203\n        /* \"#utility.yul\":3638:3642   */\n      dup2\n        /* \"#utility.yul\":3512:3643   */\n      tag_141\n      jump\t// in\n    tag_203:\n        /* \"#utility.yul\":3504:3643   */\n      swap1\n      pop\n        /* \"#utility.yul\":3231:3650   */\n      swap2\n      swap1\n      pop\n      jump\t// out\n        /* \"#utility.yul\":3656:3827   */\n    tag_142:\n        /* \"#utility.yul\":3796:3819   */\n      0x6269646465722061646472657373203d207a65726f0000000000000000000000\n        /* \"#utility.yul\":3792:3793   */\n      0x00\n        /* \"#utility.yul\":3784:3790   */\n      dup3\n        /* \"#utility.yul\":3780:3794   */\n      add\n        /* \"#utility.yul\":3773:3820   */\n      mstore\n        /* \"#utility.yul\":3656:3827   */\n      pop\n      jump\t// out\n        /* \"#utility.yul\":3833:4199   */\n    tag_143:\n        /* \"#utility.yul\":3975:3978   */\n      0x00\n        /* \"#utility.yul\":3996:4063   */\n      tag_206\n        /* \"#utility.yul\":4060:4062   */\n      0x15\n        /* \"#utility.yul\":4055:4058   */\n      dup4\n        /* \"#utility.yul\":3996:4063   */\n      tag_137\n      jump\t// in\n    tag_206:\n        /* \"#utility.yul\":3989:4063   */\n      swap2\n      pop\n        /* \"#utility.yul\":4072:4165   */\n      tag_207\n        /* \"#utility.yul\":4161:4164   */\n      dup3\n        /* \"#utility.yul\":4072:4165   */\n      tag_142\n      jump\t// in\n    tag_207:\n        /* \"#utility.yul\":4190:4192   */\n      0x20\n        /* \"#utility.yul\":4185:4188   */\n      dup3\n        /* \"#utility.yul\":4181:4193   */\n      add\n        /* \"#utility.yul\":4174:4193   */\n      swap1\n      pop\n        /* \"#utility.yul\":3833:4199   */\n      swap2\n      swap1\n      pop\n      jump\t// out\n        /* \"#utility.yul\":4205:4624   */\n    tag_57:\n        /* \"#utility.yul\":4371:4375   */\n      0x00\n        /* \"#utility.yul\":4409:4411   */\n      0x20\n        /* \"#utility.yul\":4398:4407   */\n      dup3\n        /* \"#utility.yul\":4394:4412   */\n      add\n        /* \"#utility.yul\":4386:4412   */\n      swap1\n      pop\n        /* \"#utility.yul\":4458:4467   */\n      dup2\n        /* \"#utility.yul\":4452:4456   */\n      dup2\n        /* \"#utility.yul\":4448:4468   */\n      sub\n        /* \"#utility.yul\":4444:4445   */\n      0x00\n        /* \"#utility.yul\":4433:4442   */\n      dup4\n        /* \"#utility.yul\":4429:4446   */\n      add\n        /* \"#utility.yul\":4422:4469   */\n      mstore\n        /* \"#utility.yul\":4486:4617   */\n      tag_209\n        /* \"#utility.yul\":4612:4616   */\n      dup2\n        /* \"#utility.yul\":4486:4617   */\n      tag_143\n      jump\t// in\n    tag_209:\n        /* \"#utility.yul\":4478:4617   */\n      swap1\n      pop\n        /* \"#utility.yul\":4205:4624   */\n      swap2\n      swap1\n      pop\n      jump\t// out\n        /* \"#utility.yul\":4630:4797   */\n    tag_144:\n        /* \"#utility.yul\":4770:4789   */\n      0x61756374696f6e206e6f74207374617274000000000000000000000000000000\n        /* \"#utility.yul\":4766:4767   */\n      0x00\n        /* \"#utility.yul\":4758:4764   */\n      dup3\n        /* \"#utility.yul\":4754:4768   */\n      add\n        /* \"#utility.yul\":4747:4790   */\n      mstore\n        /* \"#utility.yul\":4630:4797   */\n      pop\n      jump\t// out\n        /* \"#utility.yul\":4803:5169   */\n    tag_145:\n        /* \"#utility.yul\":4945:4948   */\n      0x00\n        /* \"#utility.yul\":4966:5033   */\n      tag_212\n        /* \"#utility.yul\":5030:5032   */\n      0x11\n        /* \"#utility.yul\":5025:5028   */\n      dup4\n        /* \"#utility.yul\":4966:5033   */\n      tag_137\n      jump\t// in\n    tag_212:\n        /* \"#utility.yul\":4959:5033   */\n      swap2\n      pop\n        /* \"#utility.yul\":5042:5135   */\n      tag_213\n        /* \"#utility.yul\":5131:5134   */\n      dup3\n        /* \"#utility.yul\":5042:5135   */\n      tag_144\n      jump\t// in\n    tag_213:\n        /* \"#utility.yul\":5160:5162   */\n      0x20\n        /* \"#utility.yul\":5155:5158   */\n      dup3\n        /* \"#utility.yul\":5151:5163   */\n      add\n        /* \"#utility.yul\":5144:5163   */\n      swap1\n      pop\n        /* \"#utility.yul\":4803:5169   */\n      swap2\n      swap1\n      pop\n      jump\t// out\n        /* \"#utility.yul\":5175:5594   */\n    tag_60:\n        /* \"#utility.yul\":5341:5345   */\n      0x00\n        /* \"#utility.yul\":5379:5381   */\n      0x20\n        /* \"#utility.yul\":5368:5377   */\n      dup3\n        /* \"#utility.yul\":5364:5382   */\n      add\n        /* \"#utility.yul\":5356:5382   */\n      swap1\n      pop\n        /* \"#utility.yul\":5428:5437   */\n      dup2\n        /* \"#utility.yul\":5422:5426   */\n      dup2\n        /* \"#utility.yul\":5418:5438   */\n      sub\n        /* \"#utility.yul\":5414:5415   */\n      0x00\n        /* \"#utility.yul\":5403:5412   */\n      dup4\n        /* \"#utility.yul\":5399:5416   */\n      add\n        /* \"#utility.yul\":5392:5439   */\n      mstore\n        /* \"#utility.yul\":5456:5587   */\n      tag_215\n        /* \"#utility.yul\":5582:5586   */\n      dup2\n        /* \"#utility.yul\":5456:5587   */\n      tag_145\n      jump\t// in\n    tag_215:\n        /* \"#utility.yul\":5448:5587   */\n      swap1\n      pop\n        /* \"#utility.yul\":5175:5594   */\n      swap2\n      swap1\n      pop\n      jump\t// out\n        /* \"#utility.yul\":5600:5768   */\n    tag_146:\n        /* \"#utility.yul\":5740:5760   */\n      0x61756374696f6e2068617320636c6f7365640000000000000000000000000000\n        /* \"#utility.yul\":5736:5737   */\n      0x00\n        /* \"#utility.yul\":5728:5734   */\n      dup3\n        /* \"#utility.yul\":5724:5738   */\n      add\n        /* \"#utility.yul\":5717:5761   */\n      mstore\n        /* \"#utility.yul\":5600:5768   */\n      pop\n      jump\t// out\n        /* \"#utility.yul\":5774:6140   */\n    tag_147:\n        /* \"#utility.yul\":5916:5919   */\n      0x00\n        /* \"#utility.yul\":5937:6004   */\n      tag_218\n        /* \"#utility.yul\":6001:6003   */\n      0x12\n        /* \"#utility.yul\":5996:5999   */\n      dup4\n        /* \"#utility.yul\":5937:6004   */\n      tag_137\n      jump\t// in\n    tag_218:\n        /* \"#utility.yul\":5930:6004   */\n      swap2\n      pop\n        /* \"#utility.yul\":6013:6106   */\n      tag_219\n        /* \"#utility.yul\":6102:6105   */\n      dup3\n        /* \"#utility.yul\":6013:6106   */\n      tag_146\n      jump\t// in\n    tag_219:\n        /* \"#utility.yul\":6131:6133   */\n      0x20\n        /* \"#utility.yul\":6126:6129   */\n      dup3\n        /* \"#utility.yul\":6122:6134   */\n      add\n        /* \"#utility.yul\":6115:6134   */\n      swap1\n      pop\n        /* \"#utility.yul\":5774:6140   */\n      swap2\n      swap1\n      pop\n      jump\t// out\n        /* \"#utility.yul\":6146:6565   */\n    tag_63:\n        /* \"#utility.yul\":6312:6316   */\n      0x00\n        /* \"#utility.yul\":6350:6352   */\n      0x20\n        /* \"#utility.yul\":6339:6348   */\n      dup3\n        /* \"#utility.yul\":6335:6353   */\n      add\n        /* \"#utility.yul\":6327:6353   */\n      swap1\n      pop\n        /* \"#utility.yul\":6399:6408   */\n      dup2\n        /* \"#utility.yul\":6393:6397   */\n      dup2\n        /* \"#utility.yul\":6389:6409   */\n      sub\n        /* \"#utility.yul\":6385:6386   */\n      0x00\n        /* \"#utility.yul\":6374:6383   */\n      dup4\n        /* \"#utility.yul\":6370:6387   */\n      add\n        /* \"#utility.yul\":6363:6410   */\n      mstore\n        /* \"#utility.yul\":6427:6558   */\n      tag_221\n        /* \"#utility.yul\":6553:6557   */\n      dup2\n        /* \"#utility.yul\":6427:6558   */\n      tag_147\n      jump\t// in\n    tag_221:\n        /* \"#utility.yul\":6419:6558   */\n      swap1\n      pop\n        /* \"#utility.yul\":6146:6565   */\n      swap2\n      swap1\n      pop\n      jump\t// out\n        /* \"#utility.yul\":6571:6740   */\n    tag_148:\n        /* \"#utility.yul\":6711:6732   */\n      0x61756374696f6e20686173206578706972656400000000000000000000000000\n        /* \"#utility.yul\":6707:6708   */\n      0x00\n        /* \"#utility.yul\":6699:6705   */\n      dup3\n        /* \"#utility.yul\":6695:6709   */\n      add\n        /* \"#utility.yul\":6688:6733   */\n      mstore\n        /* \"#utility.yul\":6571:6740   */\n      pop\n      jump\t// out\n        /* \"#utility.yul\":6746:7112   */\n    tag_149:\n        /* \"#utility.yul\":6888:6891   */\n      0x00\n        /* \"#utility.yul\":6909:6976   */\n      tag_224\n        /* \"#utility.yul\":6973:6975   */\n      0x13\n        /* \"#utility.yul\":6968:6971   */\n      dup4\n        /* \"#utility.yul\":6909:6976   */\n      tag_137\n      jump\t// in\n    tag_224:\n        /* \"#utility.yul\":6902:6976   */\n      swap2\n      pop\n        /* \"#utility.yul\":6985:7078   */\n      tag_225\n        /* \"#utility.yul\":7074:7077   */\n      dup3\n        /* \"#utility.yul\":6985:7078   */\n      tag_148\n      jump\t// in\n    tag_225:\n        /* \"#utility.yul\":7103:7105   */\n      0x20\n        /* \"#utility.yul\":7098:7101   */\n      dup3\n        /* \"#utility.yul\":7094:7106   */\n      add\n        /* \"#utility.yul\":7087:7106   */\n      swap1\n      pop\n        /* \"#utility.yul\":6746:7112   */\n      swap2\n      swap1\n      pop\n      jump\t// out\n        /* \"#utility.yul\":7118:7537   */\n    tag_66:\n        /* \"#utility.yul\":7284:7288   */\n      0x00\n        /* \"#utility.yul\":7322:7324   */\n      0x20\n        /* \"#utility.yul\":7311:7320   */\n      dup3\n        /* \"#utility.yul\":7307:7325   */\n      add\n        /* \"#utility.yul\":7299:7325   */\n      swap1\n      pop\n        /* \"#utility.yul\":7371:7380   */\n      dup2\n        /* \"#utility.yul\":7365:7369   */\n      dup2\n        /* \"#utility.yul\":7361:7381   */\n      sub\n        /* \"#utility.yul\":7357:7358   */\n      0x00\n        /* \"#utility.yul\":7346:7355   */\n      dup4\n        /* \"#utility.yul\":7342:7359   */\n      add\n        /* \"#utility.yul\":7335:7382   */\n      mstore\n        /* \"#utility.yul\":7399:7530   */\n      tag_227\n        /* \"#utility.yul\":7525:7529   */\n      dup2\n        /* \"#utility.yul\":7399:7530   */\n      tag_149\n      jump\t// in\n    tag_227:\n        /* \"#utility.yul\":7391:7530   */\n      swap1\n      pop\n        /* \"#utility.yul\":7118:7537   */\n      swap2\n      swap1\n      pop\n      jump\t// out\n        /* \"#utility.yul\":7543:7716   */\n    tag_150:\n        /* \"#utility.yul\":7683:7708   */\n      0x796f7520626964203c2068696768657374207072696365000000000000000000\n        /* \"#utility.yul\":7679:7680   */\n      0x00\n        /* \"#utility.yul\":7671:7677   */\n      dup3\n        /* \"#utility.yul\":7667:7681   */\n      add\n        /* \"#utility.yul\":7660:7709   */\n      mstore\n        /* \"#utility.yul\":7543:7716   */\n      pop\n      jump\t// out\n        /* \"#utility.yul\":7722:8088   */\n    tag_151:\n        /* \"#utility.yul\":7864:7867   */\n      0x00\n        /* \"#utility.yul\":7885:7952   */\n      tag_230\n        /* \"#utility.yul\":7949:7951   */\n      0x17\n        /* \"#utility.yul\":7944:7947   */\n      dup4\n        /* \"#utility.yul\":7885:7952   */\n      tag_137\n      jump\t// in\n    tag_230:\n        /* \"#utility.yul\":7878:7952   */\n      swap2\n      pop\n        /* \"#utility.yul\":7961:8054   */\n      tag_231\n        /* \"#utility.yul\":8050:8053   */\n      dup3\n        /* \"#utility.yul\":7961:8054   */\n      tag_150\n      jump\t// in\n    tag_231:\n        /* \"#utility.yul\":8079:8081   */\n      0x20\n        /* \"#utility.yul\":8074:8077   */\n      dup3\n        /* \"#utility.yul\":8070:8082   */\n      add\n        /* \"#utility.yul\":8063:8082   */\n      swap1\n      pop\n        /* \"#utility.yul\":7722:8088   */\n      swap2\n      swap1\n      pop\n      jump\t// out\n        /* \"#utility.yul\":8094:8513   */\n    tag_70:\n        /* \"#utility.yul\":8260:8264   */\n      0x00\n        /* \"#utility.yul\":8298:8300   */\n      0x20\n        /* \"#utility.yul\":8287:8296   */\n      dup3\n        /* \"#utility.yul\":8283:8301   */\n      add\n        /* \"#utility.yul\":8275:8301   */\n      swap1\n      pop\n        /* \"#utility.yul\":8347:8356   */\n      dup2\n        /* \"#utility.yul\":8341:8345   */\n      dup2\n        /* \"#utility.yul\":8337:8357   */\n      sub\n        /* \"#utility.yul\":8333:8334   */\n      0x00\n        /* \"#utility.yul\":8322:8331   */\n      dup4\n        /* \"#utility.yul\":8318:8335   */\n      add\n        /* \"#utility.yul\":8311:8358   */\n      mstore\n        /* \"#utility.yul\":8375:8506   */\n      tag_233\n        /* \"#utility.yul\":8501:8505   */\n      dup2\n        /* \"#utility.yul\":8375:8506   */\n      tag_151\n      jump\t// in\n    tag_233:\n        /* \"#utility.yul\":8367:8506   */\n      swap1\n      pop\n        /* \"#utility.yul\":8094:8513   */\n      swap2\n      swap1\n      pop\n      jump\t// out\n        /* \"#utility.yul\":8519:8699   */\n    tag_152:\n        /* \"#utility.yul\":8567:8644   */\n      0x4e487b7100000000000000000000000000000000000000000000000000000000\n        /* \"#utility.yul\":8564:8565   */\n      0x00\n        /* \"#utility.yul\":8557:8645   */\n      mstore\n        /* \"#utility.yul\":8664:8668   */\n      0x11\n        /* \"#utility.yul\":8661:8662   */\n      0x04\n        /* \"#utility.yul\":8654:8669   */\n      mstore\n        /* \"#utility.yul\":8688:8692   */\n      0x24\n        /* \"#utility.yul\":8685:8686   */\n      0x00\n        /* \"#utility.yul\":8678:8693   */\n      revert\n        /* \"#utility.yul\":8705:8896   */\n    tag_72:\n        /* \"#utility.yul\":8745:8748   */\n      0x00\n        /* \"#utility.yul\":8764:8784   */\n      tag_236\n        /* \"#utility.yul\":8782:8783   */\n      dup3\n        /* \"#utility.yul\":8764:8784   */\n      tag_129\n      jump\t// in\n    tag_236:\n        /* \"#utility.yul\":8759:8784   */\n      swap2\n      pop\n        /* \"#utility.yul\":8798:8818   */\n      tag_237\n        /* \"#utility.yul\":8816:8817   */\n      dup4\n        /* \"#utility.yul\":8798:8818   */\n      tag_129\n      jump\t// in\n    tag_237:\n        /* \"#utility.yul\":8793:8818   */\n      swap3\n      pop\n        /* \"#utility.yul\":8841:8842   */\n      dup3\n        /* \"#utility.yul\":8838:8839   */\n      dup3\n        /* \"#utility.yul\":8834:8843   */\n      add\n        /* \"#utility.yul\":8827:8843   */\n      swap1\n      pop\n        /* \"#utility.yul\":8862:8865   */\n      dup1\n        /* \"#utility.yul\":8859:8860   */\n      dup3\n        /* \"#utility.yul\":8856:8866   */\n      gt\n        /* \"#utility.yul\":8853:8889   */\n      iszero\n      tag_238\n      jumpi\n        /* \"#utility.yul\":8869:8887   */\n      tag_239\n      tag_152\n      jump\t// in\n    tag_239:\n        /* \"#utility.yul\":8853:8889   */\n    tag_238:\n        /* \"#utility.yul\":8705:8896   */\n      swap3\n      swap2\n      pop\n      pop\n      jump\t// out\n        /* \"#utility.yul\":8902:9080   */\n    tag_153:\n        /* \"#utility.yul\":9042:9072   */\n      0x796f757220657468203d20302c2063616e277420776974686472617700000000\n        /* \"#utility.yul\":9038:9039   */\n      0x00\n        /* \"#utility.yul\":9030:9036   */\n      dup3\n        /* \"#utility.yul\":9026:9040   */\n      add\n        /* \"#utility.yul\":9019:9073   */\n      mstore\n        /* \"#utility.yul\":8902:9080   */\n      pop\n      jump\t// out\n        /* \"#utility.yul\":9086:9452   */\n    tag_154:\n        /* \"#utility.yul\":9228:9231   */\n      0x00\n        /* \"#utility.yul\":9249:9316   */\n      tag_242\n        /* \"#utility.yul\":9313:9315   */\n      0x1c\n        /* \"#utility.yul\":9308:9311   */\n      dup4\n        /* \"#utility.yul\":9249:9316   */\n      tag_137\n      jump\t// in\n    tag_242:\n        /* \"#utility.yul\":9242:9316   */\n      swap2\n      pop\n        /* \"#utility.yul\":9325:9418   */\n      tag_243\n        /* \"#utility.yul\":9414:9417   */\n      dup3\n        /* \"#utility.yul\":9325:9418   */\n      tag_153\n      jump\t// in\n    tag_243:\n        /* \"#utility.yul\":9443:9445   */\n      0x20\n        /* \"#utility.yul\":9438:9441   */\n      dup3\n        /* \"#utility.yul\":9434:9446   */\n      add\n        /* \"#utility.yul\":9427:9446   */\n      swap1\n      pop\n        /* \"#utility.yul\":9086:9452   */\n      swap2\n      swap1\n      pop\n      jump\t// out\n        /* \"#utility.yul\":9458:9877   */\n    tag_77:\n        /* \"#utility.yul\":9624:9628   */\n      0x00\n        /* \"#utility.yul\":9662:9664   */\n      0x20\n        /* \"#utility.yul\":9651:9660   */\n      dup3\n        /* \"#utility.yul\":9647:9665   */\n      add\n        /* \"#utility.yul\":9639:9665   */\n      swap1\n      pop\n        /* \"#utility.yul\":9711:9720   */\n      dup2\n        /* \"#utility.yul\":9705:9709   */\n      dup2\n        /* \"#utility.yul\":9701:9721   */\n      sub\n        /* \"#utility.yul\":9697:9698   */\n      0x00\n        /* \"#utility.yul\":9686:9695   */\n      dup4\n        /* \"#utility.yul\":9682:9699   */\n      add\n        /* \"#utility.yul\":9675:9722   */\n      mstore\n        /* \"#utility.yul\":9739:9870   */\n      tag_245\n        /* \"#utility.yul\":9865:9869   */\n      dup2\n        /* \"#utility.yul\":9739:9870   */\n      tag_154\n      jump\t// in\n    tag_245:\n        /* \"#utility.yul\":9731:9870   */\n      swap1\n      pop\n        /* \"#utility.yul\":9458:9877   */\n      swap2\n      swap1\n      pop\n      jump\t// out\n        /* \"#utility.yul\":9883:10077   */\n    tag_80:\n        /* \"#utility.yul\":9923:9927   */\n      0x00\n        /* \"#utility.yul\":9943:9963   */\n      tag_247\n        /* \"#utility.yul\":9961:9962   */\n      dup3\n        /* \"#utility.yul\":9943:9963   */\n      tag_129\n      jump\t// in\n    tag_247:\n        /* \"#utility.yul\":9938:9963   */\n      swap2\n      pop\n        /* \"#utility.yul\":9977:9997   */\n      tag_248\n        /* \"#utility.yul\":9995:9996   */\n      dup4\n        /* \"#utility.yul\":9977:9997   */\n      tag_129\n      jump\t// in\n    tag_248:\n        /* \"#utility.yul\":9972:9997   */\n      swap3\n      pop\n        /* \"#utility.yul\":10021:10022   */\n      dup3\n        /* \"#utility.yul\":10018:10019   */\n      dup3\n        /* \"#utility.yul\":10014:10023   */\n      sub\n        /* \"#utility.yul\":10006:10023   */\n      swap1\n      pop\n        /* \"#utility.yul\":10045:10046   */\n      dup2\n        /* \"#utility.yul\":10039:10043   */\n      dup2\n        /* \"#utility.yul\":10036:10047   */\n      gt\n        /* \"#utility.yul\":10033:10070   */\n      iszero\n      tag_249\n      jumpi\n        /* \"#utility.yul\":10050:10068   */\n      tag_250\n      tag_152\n      jump\t// in\n    tag_250:\n        /* \"#utility.yul\":10033:10070   */\n    tag_249:\n        /* \"#utility.yul\":9883:10077   */\n      swap3\n      swap2\n      pop\n      pop\n      jump\t// out\n        /* \"#utility.yul\":10083:10264   */\n    tag_155:\n        /* \"#utility.yul\":10223:10256   */\n      0x63616e27742073746172742c20752061206e6f7420617574686572697a656400\n        /* \"#utility.yul\":10219:10220   */\n      0x00\n        /* \"#utility.yul\":10211:10217   */\n      dup3\n        /* \"#utility.yul\":10207:10221   */\n      add\n        /* \"#utility.yul\":10200:10257   */\n      mstore\n        /* \"#utility.yul\":10083:10264   */\n      pop\n      jump\t// out\n        /* \"#utility.yul\":10270:10636   */\n    tag_156:\n        /* \"#utility.yul\":10412:10415   */\n      0x00\n        /* \"#utility.yul\":10433:10500   */\n      tag_253\n        /* \"#utility.yul\":10497:10499   */\n      0x1f\n        /* \"#utility.yul\":10492:10495   */\n      dup4\n        /* \"#utility.yul\":10433:10500   */\n      tag_137\n      jump\t// in\n    tag_253:\n        /* \"#utility.yul\":10426:10500   */\n      swap2\n      pop\n        /* \"#utility.yul\":10509:10602   */\n      tag_254\n        /* \"#utility.yul\":10598:10601   */\n      dup3\n        /* \"#utility.yul\":10509:10602   */\n      tag_155\n      jump\t// in\n    tag_254:\n        /* \"#utility.yul\":10627:10629   */\n      0x20\n        /* \"#utility.yul\":10622:10625   */\n      dup3\n        /* \"#utility.yul\":10618:10630   */\n      add\n        /* \"#utility.yul\":10611:10630   */\n      swap1\n      pop\n        /* \"#utility.yul\":10270:10636   */\n      swap2\n      swap1\n      pop\n      jump\t// out\n        /* \"#utility.yul\":10642:11061   */\n    tag_89:\n        /* \"#utility.yul\":10808:10812   */\n      0x00\n        /* \"#utility.yul\":10846:10848   */\n      0x20\n        /* \"#utility.yul\":10835:10844   */\n      dup3\n        /* \"#utility.yul\":10831:10849   */\n      add\n        /* \"#utility.yul\":10823:10849   */\n      swap1\n      pop\n        /* \"#utility.yul\":10895:10904   */\n      dup2\n        /* \"#utility.yul\":10889:10893   */\n      dup2\n        /* \"#utility.yul\":10885:10905   */\n      sub\n        /* \"#utility.yul\":10881:10882   */\n      0x00\n        /* \"#utility.yul\":10870:10879   */\n      dup4\n        /* \"#utility.yul\":10866:10883   */\n      add\n        /* \"#utility.yul\":10859:10906   */\n      mstore\n        /* \"#utility.yul\":10923:11054   */\n      tag_256\n        /* \"#utility.yul\":11049:11053   */\n      dup2\n        /* \"#utility.yul\":10923:11054   */\n      tag_156\n      jump\t// in\n    tag_256:\n        /* \"#utility.yul\":10915:11054   */\n      swap1\n      pop\n        /* \"#utility.yul\":10642:11061   */\n      swap2\n      swap1\n      pop\n      jump\t// out\n        /* \"#utility.yul\":11067:11244   */\n    tag_157:\n        /* \"#utility.yul\":11207:11236   */\n      0x61756374696f6e20686173207374617274206f7220636c6f7365640000000000\n        /* \"#utility.yul\":11203:11204   */\n      0x00\n        /* \"#utility.yul\":11195:11201   */\n      dup3\n        /* \"#utility.yul\":11191:11205   */\n      add\n        /* \"#utility.yul\":11184:11237   */\n      mstore\n        /* \"#utility.yul\":11067:11244   */\n      pop\n      jump\t// out\n        /* \"#utility.yul\":11250:11616   */\n    tag_158:\n        /* \"#utility.yul\":11392:11395   */\n      0x00\n        /* \"#utility.yul\":11413:11480   */\n      tag_259\n        /* \"#utility.yul\":11477:11479   */\n      0x1b\n        /* \"#utility.yul\":11472:11475   */\n      dup4\n        /* \"#utility.yul\":11413:11480   */\n      tag_137\n      jump\t// in\n    tag_259:\n        /* \"#utility.yul\":11406:11480   */\n      swap2\n      pop\n        /* \"#utility.yul\":11489:11582   */\n      tag_260\n        /* \"#utility.yul\":11578:11581   */\n      dup3\n        /* \"#utility.yul\":11489:11582   */\n      tag_157\n      jump\t// in\n    tag_260:\n        /* \"#utility.yul\":11607:11609   */\n      0x20\n        /* \"#utility.yul\":11602:11605   */\n      dup3\n        /* \"#utility.yul\":11598:11610   */\n      add\n        /* \"#utility.yul\":11591:11610   */\n      swap1\n      pop\n        /* \"#utility.yul\":11250:11616   */\n      swap2\n      swap1\n      pop\n      jump\t// out\n        /* \"#utility.yul\":11622:12041   */\n    tag_93:\n        /* \"#utility.yul\":11788:11792   */\n      0x00\n        /* \"#utility.yul\":11826:11828   */\n      0x20\n        /* \"#utility.yul\":11815:11824   */\n      dup3\n        /* \"#utility.yul\":11811:11829   */\n      add\n        /* \"#utility.yul\":11803:11829   */\n      swap1\n      pop\n        /* \"#utility.yul\":11875:11884   */\n      dup2\n        /* \"#utility.yul\":11869:11873   */\n      dup2\n        /* \"#utility.yul\":11865:11885   */\n      sub\n        /* \"#utility.yul\":11861:11862   */\n      0x00\n        /* \"#utility.yul\":11850:11859   */\n      dup4\n        /* \"#utility.yul\":11846:11863   */\n      add\n        /* \"#utility.yul\":11839:11886   */\n      mstore\n        /* \"#utility.yul\":11903:12034   */\n      tag_262\n        /* \"#utility.yul\":12029:12033   */\n      dup2\n        /* \"#utility.yul\":11903:12034   */\n      tag_158\n      jump\t// in\n    tag_262:\n        /* \"#utility.yul\":11895:12034   */\n      swap1\n      pop\n        /* \"#utility.yul\":11622:12041   */\n      swap2\n      swap1\n      pop\n      jump\t// out\n        /* \"#utility.yul\":12047:12181   */\n    tag_159:\n        /* \"#utility.yul\":12105:12114   */\n      0x00\n        /* \"#utility.yul\":12138:12175   */\n      tag_264\n        /* \"#utility.yul\":12169:12174   */\n      dup3\n        /* \"#utility.yul\":12138:12175   */\n      tag_134\n      jump\t// in\n    tag_264:\n        /* \"#utility.yul\":12125:12175   */\n      swap1\n      pop\n        /* \"#utility.yul\":12047:12181   */\n      swap2\n      swap1\n      pop\n      jump\t// out\n        /* \"#utility.yul\":12187:12334   */\n    tag_160:\n        /* \"#utility.yul\":12282:12327   */\n      tag_266\n        /* \"#utility.yul\":12321:12326   */\n      dup2\n        /* \"#utility.yul\":12282:12327   */\n      tag_159\n      jump\t// in\n    tag_266:\n        /* \"#utility.yul\":12277:12280   */\n      dup3\n        /* \"#utility.yul\":12270:12328   */\n      mstore\n        /* \"#utility.yul\":12187:12334   */\n      pop\n      pop\n      jump\t// out\n        /* \"#utility.yul\":12340:12436   */\n    tag_161:\n        /* \"#utility.yul\":12377:12384   */\n      0x00\n        /* \"#utility.yul\":12406:12430   */\n      tag_268\n        /* \"#utility.yul\":12424:12429   */\n      dup3\n        /* \"#utility.yul\":12406:12430   */\n      tag_131\n      jump\t// in\n    tag_268:\n        /* \"#utility.yul\":12395:12430   */\n      swap1\n      pop\n        /* \"#utility.yul\":12340:12436   */\n      swap2\n      swap1\n      pop\n      jump\t// out\n        /* \"#utility.yul\":12442:12560   */\n    tag_162:\n        /* \"#utility.yul\":12529:12553   */\n      tag_270\n        /* \"#utility.yul\":12547:12552   */\n      dup2\n        /* \"#utility.yul\":12529:12553   */\n      tag_161\n      jump\t// in\n    tag_270:\n        /* \"#utility.yul\":12524:12527   */\n      dup3\n        /* \"#utility.yul\":12517:12554   */\n      mstore\n        /* \"#utility.yul\":12442:12560   */\n      pop\n      pop\n      jump\t// out\n        /* \"#utility.yul\":12566:13024   */\n    tag_96:\n        /* \"#utility.yul\":12723:12727   */\n      0x00\n        /* \"#utility.yul\":12761:12763   */\n      0x60\n        /* \"#utility.yul\":12750:12759   */\n      dup3\n        /* \"#utility.yul\":12746:12764   */\n      add\n        /* \"#utility.yul\":12738:12764   */\n      swap1\n      pop\n        /* \"#utility.yul\":12774:12853   */\n      tag_272\n        /* \"#utility.yul\":12850:12851   */\n      0x00\n        /* \"#utility.yul\":12839:12848   */\n      dup4\n        /* \"#utility.yul\":12835:12852   */\n      add\n        /* \"#utility.yul\":12826:12832   */\n      dup7\n        /* \"#utility.yul\":12774:12853   */\n      tag_160\n      jump\t// in\n    tag_272:\n        /* \"#utility.yul\":12863:12935   */\n      tag_273\n        /* \"#utility.yul\":12931:12933   */\n      0x20\n        /* \"#utility.yul\":12920:12929   */\n      dup4\n        /* \"#utility.yul\":12916:12934   */\n      add\n        /* \"#utility.yul\":12907:12913   */\n      dup6\n        /* \"#utility.yul\":12863:12935   */\n      tag_162\n      jump\t// in\n    tag_273:\n        /* \"#utility.yul\":12945:13017   */\n      tag_274\n        /* \"#utility.yul\":13013:13015   */\n      0x40\n        /* \"#utility.yul\":13002:13011   */\n      dup4\n        /* \"#utility.yul\":12998:13016   */\n      add\n        /* \"#utility.yul\":12989:12995   */\n      dup5\n        /* \"#utility.yul\":12945:13017   */\n      tag_130\n      jump\t// in\n    tag_274:\n        /* \"#utility.yul\":12566:13024   */\n      swap5\n      swap4\n      pop\n      pop\n      pop\n      pop\n      jump\t// out\n        /* \"#utility.yul\":13030:13207   */\n    tag_163:\n        /* \"#utility.yul\":13170:13199   */\n      0x4f6e6c792073656c6c65722063616e20656e642061756374696f6e0000000000\n        /* \"#utility.yul\":13166:13167   */\n      0x00\n        /* \"#utility.yul\":13158:13164   */\n      dup3\n        /* \"#utility.yul\":13154:13168   */\n      add\n        /* \"#utility.yul\":13147:13200   */\n      mstore\n        /* \"#utility.yul\":13030:13207   */\n      pop\n      jump\t// out\n        /* \"#utility.yul\":13213:13579   */\n    tag_164:\n        /* \"#utility.yul\":13355:13358   */\n      0x00\n        /* \"#utility.yul\":13376:13443   */\n      tag_277\n        /* \"#utility.yul\":13440:13442   */\n      0x1b\n        /* \"#utility.yul\":13435:13438   */\n      dup4\n        /* \"#utility.yul\":13376:13443   */\n      tag_137\n      jump\t// in\n    tag_277:\n        /* \"#utility.yul\":13369:13443   */\n      swap2\n      pop\n        /* \"#utility.yul\":13452:13545   */\n      tag_278\n        /* \"#utility.yul\":13541:13544   */\n      dup3\n        /* \"#utility.yul\":13452:13545   */\n      tag_163\n      jump\t// in\n    tag_278:\n        /* \"#utility.yul\":13570:13572   */\n      0x20\n        /* \"#utility.yul\":13565:13568   */\n      dup3\n        /* \"#utility.yul\":13561:13573   */\n      add\n        /* \"#utility.yul\":13554:13573   */\n      swap1\n      pop\n        /* \"#utility.yul\":13213:13579   */\n      swap2\n      swap1\n      pop\n      jump\t// out\n        /* \"#utility.yul\":13585:14004   */\n    tag_103:\n        /* \"#utility.yul\":13751:13755   */\n      0x00\n        /* \"#utility.yul\":13789:13791   */\n      0x20\n        /* \"#utility.yul\":13778:13787   */\n      dup3\n        /* \"#utility.yul\":13774:13792   */\n      add\n        /* \"#utility.yul\":13766:13792   */\n      swap1\n      pop\n        /* \"#utility.yul\":13838:13847   */\n      dup2\n        /* \"#utility.yul\":13832:13836   */\n      dup2\n        /* \"#utility.yul\":13828:13848   */\n      sub\n        /* \"#utility.yul\":13824:13825   */\n      0x00\n        /* \"#utility.yul\":13813:13822   */\n      dup4\n        /* \"#utility.yul\":13809:13826   */\n      add\n        /* \"#utility.yul\":13802:13849   */\n      mstore\n        /* \"#utility.yul\":13866:13997   */\n      tag_280\n        /* \"#utility.yul\":13992:13996   */\n      dup2\n        /* \"#utility.yul\":13866:13997   */\n      tag_164\n      jump\t// in\n    tag_280:\n        /* \"#utility.yul\":13858:13997   */\n      swap1\n      pop\n        /* \"#utility.yul\":13585:14004   */\n      swap2\n      swap1\n      pop\n      jump\t// out\n        /* \"#utility.yul\":14010:14179   */\n    tag_165:\n        /* \"#utility.yul\":14150:14171   */\n      0x61756374696f6e206e6f74207374617274656400000000000000000000000000\n        /* \"#utility.yul\":14146:14147   */\n      0x00\n        /* \"#utility.yul\":14138:14144   */\n      dup3\n        /* \"#utility.yul\":14134:14148   */\n      add\n        /* \"#utility.yul\":14127:14172   */\n      mstore\n        /* \"#utility.yul\":14010:14179   */\n      pop\n      jump\t// out\n        /* \"#utility.yul\":14185:14551   */\n    tag_166:\n        /* \"#utility.yul\":14327:14330   */\n      0x00\n        /* \"#utility.yul\":14348:14415   */\n      tag_283\n        /* \"#utility.yul\":14412:14414   */\n      0x13\n        /* \"#utility.yul\":14407:14410   */\n      dup4\n        /* \"#utility.yul\":14348:14415   */\n      tag_137\n      jump\t// in\n    tag_283:\n        /* \"#utility.yul\":14341:14415   */\n      swap2\n      pop\n        /* \"#utility.yul\":14424:14517   */\n      tag_284\n        /* \"#utility.yul\":14513:14516   */\n      dup3\n        /* \"#utility.yul\":14424:14517   */\n      tag_165\n      jump\t// in\n    tag_284:\n        /* \"#utility.yul\":14542:14544   */\n      0x20\n        /* \"#utility.yul\":14537:14540   */\n      dup3\n        /* \"#utility.yul\":14533:14545   */\n      add\n        /* \"#utility.yul\":14526:14545   */\n      swap1\n      pop\n        /* \"#utility.yul\":14185:14551   */\n      swap2\n      swap1\n      pop\n      jump\t// out\n        /* \"#utility.yul\":14557:14976   */\n    tag_106:\n        /* \"#utility.yul\":14723:14727   */\n      0x00\n        /* \"#utility.yul\":14761:14763   */\n      0x20\n        /* \"#utility.yul\":14750:14759   */\n      dup3\n        /* \"#utility.yul\":14746:14764   */\n      add\n        /* \"#utility.yul\":14738:14764   */\n      swap1\n      pop\n        /* \"#utility.yul\":14810:14819   */\n      dup2\n        /* \"#utility.yul\":14804:14808   */\n      dup2\n        /* \"#utility.yul\":14800:14820   */\n      sub\n        /* \"#utility.yul\":14796:14797   */\n      0x00\n        /* \"#utility.yul\":14785:14794   */\n      dup4\n        /* \"#utility.yul\":14781:14798   */\n      add\n        /* \"#utility.yul\":14774:14821   */\n      mstore\n        /* \"#utility.yul\":14838:14969   */\n      tag_286\n        /* \"#utility.yul\":14964:14968   */\n      dup2\n        /* \"#utility.yul\":14838:14969   */\n      tag_166\n      jump\t// in\n    tag_286:\n        /* \"#utility.yul\":14830:14969   */\n      swap1\n      pop\n        /* \"#utility.yul\":14557:14976   */\n      swap2\n      swap1\n      pop\n      jump\t// out\n        /* \"#utility.yul\":14982:15158   */\n    tag_167:\n        /* \"#utility.yul\":15122:15150   */\n      0x61756374696f6e20697320616c726561647920636c6f7365642e000000000000\n        /* \"#utility.yul\":15118:15119   */\n      0x00\n        /* \"#utility.yul\":15110:15116   */\n      dup3\n        /* \"#utility.yul\":15106:15120   */\n      add\n        /* \"#utility.yul\":15099:15151   */\n      mstore\n        /* \"#utility.yul\":14982:15158   */\n      pop\n      jump\t// out\n        /* \"#utility.yul\":15164:15530   */\n    tag_168:\n        /* \"#utility.yul\":15306:15309   */\n      0x00\n        /* \"#utility.yul\":15327:15394   */\n      tag_289\n        /* \"#utility.yul\":15391:15393   */\n      0x1a\n        /* \"#utility.yul\":15386:15389   */\n      dup4\n        /* \"#utility.yul\":15327:15394   */\n      tag_137\n      jump\t// in\n    tag_289:\n        /* \"#utility.yul\":15320:15394   */\n      swap2\n      pop\n        /* \"#utility.yul\":15403:15496   */\n      tag_290\n        /* \"#utility.yul\":15492:15495   */\n      dup3\n        /* \"#utility.yul\":15403:15496   */\n      tag_167\n      jump\t// in\n    tag_290:\n        /* \"#utility.yul\":15521:15523   */\n      0x20\n        /* \"#utility.yul\":15516:15519   */\n      dup3\n        /* \"#utility.yul\":15512:15524   */\n      add\n        /* \"#utility.yul\":15505:15524   */\n      swap1\n      pop\n        /* \"#utility.yul\":15164:15530   */\n      swap2\n      swap1\n      pop\n      jump\t// out\n        /* \"#utility.yul\":15536:15955   */\n    tag_109:\n        /* \"#utility.yul\":15702:15706   */\n      0x00\n        /* \"#utility.yul\":15740:15742   */\n      0x20\n        /* \"#utility.yul\":15729:15738   */\n      dup3\n        /* \"#utility.yul\":15725:15743   */\n      add\n        /* \"#utility.yul\":15717:15743   */\n      swap1\n      pop\n        /* \"#utility.yul\":15789:15798   */\n      dup2\n        /* \"#utility.yul\":15783:15787   */\n      dup2\n        /* \"#utility.yul\":15779:15799   */\n      sub\n        /* \"#utility.yul\":15775:15776   */\n      0x00\n        /* \"#utility.yul\":15764:15773   */\n      dup4\n        /* \"#utility.yul\":15760:15777   */\n      add\n        /* \"#utility.yul\":15753:15800   */\n      mstore\n        /* \"#utility.yul\":15817:15948   */\n      tag_292\n        /* \"#utility.yul\":15943:15947   */\n      dup2\n        /* \"#utility.yul\":15817:15948   */\n      tag_168\n      jump\t// in\n    tag_292:\n        /* \"#utility.yul\":15809:15948   */\n      swap1\n      pop\n        /* \"#utility.yul\":15536:15955   */\n      swap2\n      swap1\n      pop\n      jump\t// out\n        /* \"#utility.yul\":15961:16137   */\n    tag_169:\n        /* \"#utility.yul\":16101:16129   */\n      0x74696d65206e6f7420657870697265642c63616e277420656e64000000000000\n        /* \"#utility.yul\":16097:16098   */\n      0x00\n        /* \"#utility.yul\":16089:16095   */\n      dup3\n        /* \"#utility.yul\":16085:16099   */\n      add\n        /* \"#utility.yul\":16078:16130   */\n      mstore\n        /* \"#utility.yul\":15961:16137   */\n      pop\n      jump\t// out\n        /* \"#utility.yul\":16143:16509   */\n    tag_170:\n        /* \"#utility.yul\":16285:16288   */\n      0x00\n        /* \"#utility.yul\":16306:16373   */\n      tag_295\n        /* \"#utility.yul\":16370:16372   */\n      0x1a\n        /* \"#utility.yul\":16365:16368   */\n      dup4\n        /* \"#utility.yul\":16306:16373   */\n      tag_137\n      jump\t// in\n    tag_295:\n        /* \"#utility.yul\":16299:16373   */\n      swap2\n      pop\n        /* \"#utility.yul\":16382:16475   */\n      tag_296\n        /* \"#utility.yul\":16471:16474   */\n      dup3\n        /* \"#utility.yul\":16382:16475   */\n      tag_169\n      jump\t// in\n    tag_296:\n        /* \"#utility.yul\":16500:16502   */\n      0x20\n        /* \"#utility.yul\":16495:16498   */\n      dup3\n        /* \"#utility.yul\":16491:16503   */\n      add\n        /* \"#utility.yul\":16484:16503   */\n      swap1\n      pop\n        /* \"#utility.yul\":16143:16509   */\n      swap2\n      swap1\n      pop\n      jump\t// out\n        /* \"#utility.yul\":16515:16934   */\n    tag_112:\n        /* \"#utility.yul\":16681:16685   */\n      0x00\n        /* \"#utility.yul\":16719:16721   */\n      0x20\n        /* \"#utility.yul\":16708:16717   */\n      dup3\n        /* \"#utility.yul\":16704:16722   */\n      add\n        /* \"#utility.yul\":16696:16722   */\n      swap1\n      pop\n        /* \"#utility.yul\":16768:16777   */\n      dup2\n        /* \"#utility.yul\":16762:16766   */\n      dup2\n        /* \"#utility.yul\":16758:16778   */\n      sub\n        /* \"#utility.yul\":16754:16755   */\n      0x00\n        /* \"#utility.yul\":16743:16752   */\n      dup4\n        /* \"#utility.yul\":16739:16756   */\n      add\n        /* \"#utility.yul\":16732:16779   */\n      mstore\n        /* \"#utility.yul\":16796:16927   */\n      tag_298\n        /* \"#utility.yul\":16922:16926   */\n      dup2\n        /* \"#utility.yul\":16796:16927   */\n      tag_170\n      jump\t// in\n    tag_298:\n        /* \"#utility.yul\":16788:16927   */\n      swap1\n      pop\n        /* \"#utility.yul\":16515:16934   */\n      swap2\n      swap1\n      pop\n      jump\t// out\n        /* \"#utility.yul\":16940:17398   */\n    tag_123:\n        /* \"#utility.yul\":17097:17101   */\n      0x00\n        /* \"#utility.yul\":17135:17137   */\n      0x60\n        /* \"#utility.yul\":17124:17133   */\n      dup3\n        /* \"#utility.yul\":17120:17138   */\n      add\n        /* \"#utility.yul\":17112:17138   */\n      swap1\n      pop\n        /* \"#utility.yul\":17148:17219   */\n      tag_300\n        /* \"#utility.yul\":17216:17217   */\n      0x00\n        /* \"#utility.yul\":17205:17214   */\n      dup4\n        /* \"#utility.yul\":17201:17218   */\n      add\n        /* \"#utility.yul\":17192:17198   */\n      dup7\n        /* \"#utility.yul\":17148:17219   */\n      tag_162\n      jump\t// in\n    tag_300:\n        /* \"#utility.yul\":17229:17309   */\n      tag_301\n        /* \"#utility.yul\":17305:17307   */\n      0x20\n        /* \"#utility.yul\":17294:17303   */\n      dup4\n        /* \"#utility.yul\":17290:17308   */\n      add\n        /* \"#utility.yul\":17281:17287   */\n      dup6\n        /* \"#utility.yul\":17229:17309   */\n      tag_160\n      jump\t// in\n    tag_301:\n        /* \"#utility.yul\":17319:17391   */\n      tag_302\n        /* \"#utility.yul\":17387:17389   */\n      0x40\n        /* \"#utility.yul\":17376:17385   */\n      dup4\n        /* \"#utility.yul\":17372:17390   */\n      add\n        /* \"#utility.yul\":17363:17369   */\n      dup5\n        /* \"#utility.yul\":17319:17391   */\n      tag_130\n      jump\t// in\n    tag_302:\n        /* \"#utility.yul\":16940:17398   */\n      swap5\n      swap4\n      pop\n      pop\n      pop\n      pop\n      jump\t// out\n        /* \"#utility.yul\":17404:17736   */\n    tag_128:\n        /* \"#utility.yul\":17525:17529   */\n      0x00\n        /* \"#utility.yul\":17563:17565   */\n      0x40\n        /* \"#utility.yul\":17552:17561   */\n      dup3\n        /* \"#utility.yul\":17548:17566   */\n      add\n        /* \"#utility.yul\":17540:17566   */\n      swap1\n      pop\n        /* \"#utility.yul\":17576:17647   */\n      tag_304\n        /* \"#utility.yul\":17644:17645   */\n      0x00\n        /* \"#utility.yul\":17633:17642   */\n      dup4\n        /* \"#utility.yul\":17629:17646   */\n      add\n        /* \"#utility.yul\":17620:17626   */\n      dup6\n        /* \"#utility.yul\":17576:17647   */\n      tag_162\n      jump\t// in\n    tag_304:\n        /* \"#utility.yul\":17657:17729   */\n      tag_305\n        /* \"#utility.yul\":17725:17727   */\n      0x20\n        /* \"#utility.yul\":17714:17723   */\n      dup4\n        /* \"#utility.yul\":17710:17728   */\n      add\n        /* \"#utility.yul\":17701:17707   */\n      dup5\n        /* \"#utility.yul\":17657:17729   */\n      tag_130\n      jump\t// in\n    tag_305:\n        /* \"#utility.yul\":17404:17736   */\n      swap4\n      swap3\n      pop\n      pop\n      pop\n      jump\t// out\n\n    auxdata: 0xa26469706673582212204acb3e1836bf703cf56ce47284a39ff55fb73fca359d493c4695e629ae90621c64736f6c634300081a0033\n}\n",
				"bytecode": {
					"linkReferences": {},
					"object": "610100604052348015610010575f80fd5b50604051611bc3380380611bc38339818101604052810190610032919061023e565b62015180831115610078576040517f08c379a000000000000000000000000000000000000000000000000000000000815260040161006f906102fc565b60405180910390fd5b5f73ffffffffffffffffffffffffffffffffffffffff168273ffffffffffffffffffffffffffffffffffffffff16036100e6576040517f08c379a00000000000000000000000000000000000000000000000000000000081526004016100dd90610364565b60405180910390fd5b335f806101000a81548173ffffffffffffffffffffffffffffffffffffffff021916908373ffffffffffffffffffffffffffffffffffffffff16021790555083608081815250508260a081815250508173ffffffffffffffffffffffffffffffffffffffff1660c08173ffffffffffffffffffffffffffffffffffffffff16815250508060e081815250505f60055f6101000a81548160ff0219169083151502179055505f600560016101000a81548160ff02191690831515021790555050505050610382565b5f80fd5b5f819050919050565b6101c3816101b1565b81146101cd575f80fd5b50565b5f815190506101de816101ba565b92915050565b5f73ffffffffffffffffffffffffffffffffffffffff82169050919050565b5f61020d826101e4565b9050919050565b61021d81610203565b8114610227575f80fd5b50565b5f8151905061023881610214565b92915050565b5f805f8060808587031215610256576102556101ad565b5b5f610263878288016101d0565b9450506020610274878288016101d0565b93505060406102858782880161022a565b9250506060610296878288016101d0565b91505092959194509250565b5f82825260208201905092915050565b7f64726174696f6e2073686f756c64203c3d2031206461790000000000000000005f82015250565b5f6102e66017836102a2565b91506102f1826102b2565b602082019050919050565b5f6020820190508181035f830152610313816102da565b9050919050565b7f6e66742061646472657373203d203000000000000000000000000000000000005f82015250565b5f61034e600f836102a2565b91506103598261031a565b602082019050919050565b5f6020820190508181035f83015261037b81610342565b9050919050565b60805160a05160c05160e0516117dd6103e65f395f81816109e201528181610cf20152610e9b01525f81816108150152818161098501528181610c740152610e3e01525f81816101cc015261093901525f81816104710152610a8901526117dd5ff3fe608060405260043610610090575f3560e01c80636b64c769116100585780636b64c769146101265780637cc3ae8c1461013c578063c744656514610166578063d6fbf20214610190578063fe67a54b146101ba57610090565b80630e8670e0146100945780630fb5a6b4146100be5780631998aeef146100e85780633ccfd60b146100f257806347ccca02146100fc575b5f80fd5b34801561009f575f80fd5b506100a86101c4565b6040516100b59190610fb1565b60405180910390f35b3480156100c9575f80fd5b506100d26101ca565b6040516100df9190610fb1565b60405180910390f35b6100f06101ee565b005b6100fa6105bf565b005b348015610107575f80fd5b50610110610813565b60405161011d9190611044565b60405180910390f35b348015610131575f80fd5b5061013a610837565b005b348015610147575f80fd5b50610150610a7b565b60405161015d9190610fb1565b60405180910390f35b348015610171575f80fd5b5061017a610a81565b6040516101879190610fb1565b60405180910390f35b34801561019b575f80fd5b506101a4610a87565b6040516101b19190610fb1565b60405180910390f35b6101c2610aab565b005b60025481565b7f000000000000000000000000000000000000000000000000000000000000000081565b5f3390505f8054906101000a900473ffffffffffffffffffffffffffffffffffffffff1673ffffffffffffffffffffffffffffffffffffffff168173ffffffffffffffffffffffffffffffffffffffff160361027f576040517f08c379a0000000000000000000000000000000000000000000000000000000008152600401610276906110b7565b60405180910390fd5b60015f9054906101000a900473ffffffffffffffffffffffffffffffffffffffff1673ffffffffffffffffffffffffffffffffffffffff168173ffffffffffffffffffffffffffffffffffffffff160361030e576040517f08c379a000000000000000000000000000000000000000000000000000000000815260040161030590611145565b60405180910390fd5b5f73ffffffffffffffffffffffffffffffffffffffff168173ffffffffffffffffffffffffffffffffffffffff160361037c576040517f08c379a0000000000000000000000000000000000000000000000000000000008152600401610373906111ad565b60405180910390fd5b60055f9054906101000a900460ff166103ca576040517f08c379a00000000000000000000000000000000000000000000000000000000081526004016103c190611215565b60405180910390fd5b600560019054906101000a900460ff161561041a576040517f08c379a00000000000000000000000000000000000000000000000000000000081526004016104119061127d565b60405180910390fd5b60045442111561045f576040517f08c379a0000000000000000000000000000000000000000000000000000000008152600401610456906112e5565b60405180910390fd5b5f3490506002548111801561049457507f00000000000000000000000000000000000000000000000000000000000000008110155b6104d3576040517f08c379a00000000000000000000000000000000000000000000000000000000081526004016104ca9061134d565b60405180910390fd5b8160015f6101000a81548173ffffffffffffffffffffffffffffffffffffffff021916908373ffffffffffffffffffffffffffffffffffffffff160217905550806002819055508060065f8473ffffffffffffffffffffffffffffffffffffffff1673ffffffffffffffffffffffffffffffffffffffff1681526020019081526020015f205f8282546105669190611398565b925050819055508173ffffffffffffffffffffffffffffffffffffffff167fe684a55f31b79eca403df938249029212a5925ec6be8012e099b45bc1019e5d2826040516105b39190610fb1565b60405180910390a25050565b5f3390505f60065f8373ffffffffffffffffffffffffffffffffffffffff1673ffffffffffffffffffffffffffffffffffffffff1681526020019081526020015f205403610642576040517f08c379a000000000000000000000000000000000000000000000000000000000815260040161063990611415565b60405180910390fd5b5f60015f9054906101000a900473ffffffffffffffffffffffffffffffffffffffff1673ffffffffffffffffffffffffffffffffffffffff168273ffffffffffffffffffffffffffffffffffffffff16036106e95760025460065f8473ffffffffffffffffffffffffffffffffffffffff1673ffffffffffffffffffffffffffffffffffffffff1681526020019081526020015f20546106e29190611433565b905061072a565b60065f8373ffffffffffffffffffffffffffffffffffffffff1673ffffffffffffffffffffffffffffffffffffffff1681526020019081526020015f205490505b8173ffffffffffffffffffffffffffffffffffffffff166108fc8290811502906040515f60405180830381858888f1935050505015801561076d573d5f803e3d5ffd5b508060065f8473ffffffffffffffffffffffffffffffffffffffff1673ffffffffffffffffffffffffffffffffffffffff1681526020019081526020015f205f8282546107ba9190611433565b925050819055508173ffffffffffffffffffffffffffffffffffffffff167f884edad9ce6fa2440d8a54cc123490eb96d2768479d49ff9c7366125a9424364826040516108079190610fb1565b60405180910390a25050565b7f000000000000000000000000000000000000000000000000000000000000000081565b5f8054906101000a900473ffffffffffffffffffffffffffffffffffffffff1673ffffffffffffffffffffffffffffffffffffffff163373ffffffffffffffffffffffffffffffffffffffff16146108c4576040517f08c379a00000000000000000000000000000000000000000000000000000000081526004016108bb906114b0565b60405180910390fd5b60055f9054906101000a900460ff161580156108ed5750600560019054906101000a900460ff16155b61092c576040517f08c379a000000000000000000000000000000000000000000000000000000000815260040161092390611518565b60405180910390fd5b5f429050806003819055507f0000000000000000000000000000000000000000000000000000000000000000816109639190611398565b600481905550600160055f6101000a81548160ff0219169083151502179055507f000000000000000000000000000000000000000000000000000000000000000073ffffffffffffffffffffffffffffffffffffffff166323b872dd5f8054906101000a900473ffffffffffffffffffffffffffffffffffffffff16307f00000000000000000000000000000000000000000000000000000000000000006040518463ffffffff1660e01b8152600401610a1f93929190611576565b5f604051808303815f87803b158015610a36575f80fd5b505af1158015610a48573d5f803e3d5ffd5b505050507f1b55ba3aa851a46be3b365aee5b5c140edd620d578922f3e8466d2cbd96f954b60405160405180910390a150565b60045481565b60035481565b7f000000000000000000000000000000000000000000000000000000000000000081565b5f3390505f8054906101000a900473ffffffffffffffffffffffffffffffffffffffff1673ffffffffffffffffffffffffffffffffffffffff168173ffffffffffffffffffffffffffffffffffffffff1614610b3c576040517f08c379a0000000000000000000000000000000000000000000000000000000008152600401610b33906115f5565b60405180910390fd5b60055f9054906101000a900460ff16610b8a576040517f08c379a0000000000000000000000000000000000000000000000000000000008152600401610b819061165d565b60405180910390fd5b600560019054906101000a900460ff1615610bda576040517f08c379a0000000000000000000000000000000000000000000000000000000008152600401610bd1906116c5565b60405180910390fd5b6004544211610c1e576040517f08c379a0000000000000000000000000000000000000000000000000000000008152600401610c159061172d565b60405180910390fd5b5f73ffffffffffffffffffffffffffffffffffffffff1660015f9054906101000a900473ffffffffffffffffffffffffffffffffffffffff1673ffffffffffffffffffffffffffffffffffffffff1614610e3c577f000000000000000000000000000000000000000000000000000000000000000073ffffffffffffffffffffffffffffffffffffffff166323b872dd5f8054906101000a900473ffffffffffffffffffffffffffffffffffffffff1660015f9054906101000a900473ffffffffffffffffffffffffffffffffffffffff167f00000000000000000000000000000000000000000000000000000000000000006040518463ffffffff1660e01b8152600401610d2f93929190611576565b5f604051808303815f87803b158015610d46575f80fd5b505af1158015610d58573d5f803e3d5ffd5b505050505f8054906101000a900473ffffffffffffffffffffffffffffffffffffffff1673ffffffffffffffffffffffffffffffffffffffff166108fc60025490811502906040515f60405180830381858888f19350505050158015610dc0573d5f803e3d5ffd5b5060025460065f60015f9054906101000a900473ffffffffffffffffffffffffffffffffffffffff1673ffffffffffffffffffffffffffffffffffffffff1673ffffffffffffffffffffffffffffffffffffffff1681526020019081526020015f205f828254610e309190611433565b92505081905550610f06565b7f000000000000000000000000000000000000000000000000000000000000000073ffffffffffffffffffffffffffffffffffffffff166323b872dd305f8054906101000a900473ffffffffffffffffffffffffffffffffffffffff167f00000000000000000000000000000000000000000000000000000000000000006040518463ffffffff1660e01b8152600401610ed89392919061174b565b5f604051808303815f87803b158015610eef575f80fd5b505af1158015610f01573d5f803e3d5ffd5b505050505b5f60055f6101000a81548160ff0219169083151502179055506001600560016101000a81548160ff0219169083151502179055507f7d7570b046e5ead3a4f3fbc9fa2445113625a1e79823776146316bafed6b8cc560015f9054906101000a900473ffffffffffffffffffffffffffffffffffffffff16600254604051610f8e929190611780565b60405180910390a150565b5f819050919050565b610fab81610f99565b82525050565b5f602082019050610fc45f830184610fa2565b92915050565b5f73ffffffffffffffffffffffffffffffffffffffff82169050919050565b5f819050919050565b5f61100c61100761100284610fca565b610fe9565b610fca565b9050919050565b5f61101d82610ff2565b9050919050565b5f61102e82611013565b9050919050565b61103e81611024565b82525050565b5f6020820190506110575f830184611035565b92915050565b5f82825260208201905092915050565b7f73656c6c6265722063616e2774206275790000000000000000000000000000005f82015250565b5f6110a160118361105d565b91506110ac8261106d565b602082019050919050565b5f6020820190508181035f8301526110ce81611095565b9050919050565b7f796f752061726520616c726561647920746865206869676865737420626964645f8201527f6572000000000000000000000000000000000000000000000000000000000000602082015250565b5f61112f60228361105d565b915061113a826110d5565b604082019050919050565b5f6020820190508181035f83015261115c81611123565b9050919050565b7f6269646465722061646472657373203d207a65726f00000000000000000000005f82015250565b5f61119760158361105d565b91506111a282611163565b602082019050919050565b5f6020820190508181035f8301526111c48161118b565b9050919050565b7f61756374696f6e206e6f742073746172740000000000000000000000000000005f82015250565b5f6111ff60118361105d565b915061120a826111cb565b602082019050919050565b5f6020820190508181035f83015261122c816111f3565b9050919050565b7f61756374696f6e2068617320636c6f73656400000000000000000000000000005f82015250565b5f61126760128361105d565b915061127282611233565b602082019050919050565b5f6020820190508181035f8301526112948161125b565b9050919050565b7f61756374696f6e206861732065787069726564000000000000000000000000005f82015250565b5f6112cf60138361105d565b91506112da8261129b565b602082019050919050565b5f6020820190508181035f8301526112fc816112c3565b9050919050565b7f796f7520626964203c20686967686573742070726963650000000000000000005f82015250565b5f61133760178361105d565b915061134282611303565b602082019050919050565b5f6020820190508181035f8301526113648161132b565b9050919050565b7f4e487b71000000000000000000000000000000000000000000000000000000005f52601160045260245ffd5b5f6113a282610f99565b91506113ad83610f99565b92508282019050808211156113c5576113c461136b565b5b92915050565b7f796f757220657468203d20302c2063616e2774207769746864726177000000005f82015250565b5f6113ff601c8361105d565b915061140a826113cb565b602082019050919050565b5f6020820190508181035f83015261142c816113f3565b9050919050565b5f61143d82610f99565b915061144883610f99565b92508282039050818111156114605761145f61136b565b5b92915050565b7f63616e27742073746172742c20752061206e6f7420617574686572697a6564005f82015250565b5f61149a601f8361105d565b91506114a582611466565b602082019050919050565b5f6020820190508181035f8301526114c78161148e565b9050919050565b7f61756374696f6e20686173207374617274206f7220636c6f73656400000000005f82015250565b5f611502601b8361105d565b915061150d826114ce565b602082019050919050565b5f6020820190508181035f83015261152f816114f6565b9050919050565b5f61154082611013565b9050919050565b61155081611536565b82525050565b5f61156082610fca565b9050919050565b61157081611556565b82525050565b5f6060820190506115895f830186611547565b6115966020830185611567565b6115a36040830184610fa2565b949350505050565b7f4f6e6c792073656c6c65722063616e20656e642061756374696f6e00000000005f82015250565b5f6115df601b8361105d565b91506115ea826115ab565b602082019050919050565b5f6020820190508181035f83015261160c816115d3565b9050919050565b7f61756374696f6e206e6f742073746172746564000000000000000000000000005f82015250565b5f61164760138361105d565b915061165282611613565b602082019050919050565b5f6020820190508181035f8301526116748161163b565b9050919050565b7f61756374696f6e20697320616c726561647920636c6f7365642e0000000000005f82015250565b5f6116af601a8361105d565b91506116ba8261167b565b602082019050919050565b5f6020820190508181035f8301526116dc816116a3565b9050919050565b7f74696d65206e6f7420657870697265642c63616e277420656e640000000000005f82015250565b5f611717601a8361105d565b9150611722826116e3565b602082019050919050565b5f6020820190508181035f8301526117448161170b565b9050919050565b5f60608201905061175e5f830186611567565b61176b6020830185611547565b6117786040830184610fa2565b949350505050565b5f6040820190506117935f830185611567565b6117a06020830184610fa2565b939250505056fea26469706673582212204acb3e1836bf703cf56ce47284a39ff55fb73fca359d493c4695e629ae90621c64736f6c634300081a0033",
					"opcodes": "PUSH2 0x100 PUSH1 0x40 MSTORE CALLVALUE DUP1 ISZERO PUSH2 0x10 JUMPI PUSH0 DUP1 REVERT JUMPDEST POP PUSH1 0x40 MLOAD PUSH2 0x1BC3 CODESIZE SUB DUP1 PUSH2 0x1BC3 DUP4 CODECOPY DUP2 DUP2 ADD PUSH1 0x40 MSTORE DUP2 ADD SWAP1 PUSH2 0x32 SWAP2 SWAP1 PUSH2 0x23E JUMP JUMPDEST PUSH3 0x15180 DUP4 GT ISZERO PUSH2 0x78 JUMPI PUSH1 0x40 MLOAD PUSH32 0x8C379A000000000000000000000000000000000000000000000000000000000 DUP2 MSTORE PUSH1 0x4 ADD PUSH2 0x6F SWAP1 PUSH2 0x2FC JUMP JUMPDEST PUSH1 0x40 MLOAD DUP1 SWAP2 SUB SWAP1 REVERT JUMPDEST PUSH0 PUSH20 0xFFFFFFFFFFFFFFFFFFFFFFFFFFFFFFFFFFFFFFFF AND DUP3 PUSH20 0xFFFFFFFFFFFFFFFFFFFFFFFFFFFFFFFFFFFFFFFF AND SUB PUSH2 0xE6 JUMPI PUSH1 0x40 MLOAD PUSH32 0x8C379A000000000000000000000000000000000000000000000000000000000 DUP2 MSTORE PUSH1 0x4 ADD PUSH2 0xDD SWAP1 PUSH2 0x364 JUMP JUMPDEST PUSH1 0x40 MLOAD DUP1 SWAP2 SUB SWAP1 REVERT JUMPDEST CALLER PUSH0 DUP1 PUSH2 0x100 EXP DUP2 SLOAD DUP2 PUSH20 0xFFFFFFFFFFFFFFFFFFFFFFFFFFFFFFFFFFFFFFFF MUL NOT AND SWAP1 DUP4 PUSH20 0xFFFFFFFFFFFFFFFFFFFFFFFFFFFFFFFFFFFFFFFF AND MUL OR SWAP1 SSTORE POP DUP4 PUSH1 0x80 DUP2 DUP2 MSTORE POP POP DUP3 PUSH1 0xA0 DUP2 DUP2 MSTORE POP POP DUP2 PUSH20 0xFFFFFFFFFFFFFFFFFFFFFFFFFFFFFFFFFFFFFFFF AND PUSH1 0xC0 DUP2 PUSH20 0xFFFFFFFFFFFFFFFFFFFFFFFFFFFFFFFFFFFFFFFF AND DUP2 MSTORE POP POP DUP1 PUSH1 0xE0 DUP2 DUP2 MSTORE POP POP PUSH0 PUSH1 0x5 PUSH0 PUSH2 0x100 EXP DUP2 SLOAD DUP2 PUSH1 0xFF MUL NOT AND SWAP1 DUP4 ISZERO ISZERO MUL OR SWAP1 SSTORE POP PUSH0 PUSH1 0x5 PUSH1 0x1 PUSH2 0x100 EXP DUP2 SLOAD DUP2 PUSH1 0xFF MUL NOT AND SWAP1 DUP4 ISZERO ISZERO MUL OR SWAP1 SSTORE POP POP POP POP POP PUSH2 0x382 JUMP JUMPDEST PUSH0 DUP1 REVERT JUMPDEST PUSH0 DUP2 SWAP1 POP SWAP2 SWAP1 POP JUMP JUMPDEST PUSH2 0x1C3 DUP2 PUSH2 0x1B1 JUMP JUMPDEST DUP2 EQ PUSH2 0x1CD JUMPI PUSH0 DUP1 REVERT JUMPDEST POP JUMP JUMPDEST PUSH0 DUP2 MLOAD SWAP1 POP PUSH2 0x1DE DUP2 PUSH2 0x1BA JUMP JUMPDEST SWAP3 SWAP2 POP POP JUMP JUMPDEST PUSH0 PUSH20 0xFFFFFFFFFFFFFFFFFFFFFFFFFFFFFFFFFFFFFFFF DUP3 AND SWAP1 POP SWAP2 SWAP1 POP JUMP JUMPDEST PUSH0 PUSH2 0x20D DUP3 PUSH2 0x1E4 JUMP JUMPDEST SWAP1 POP SWAP2 SWAP1 POP JUMP JUMPDEST PUSH2 0x21D DUP2 PUSH2 0x203 JUMP JUMPDEST DUP2 EQ PUSH2 0x227 JUMPI PUSH0 DUP1 REVERT JUMPDEST POP JUMP JUMPDEST PUSH0 DUP2 MLOAD SWAP1 POP PUSH2 0x238 DUP2 PUSH2 0x214 JUMP JUMPDEST SWAP3 SWAP2 POP POP JUMP JUMPDEST PUSH0 DUP1 PUSH0 DUP1 PUSH1 0x80 DUP6 DUP8 SUB SLT ISZERO PUSH2 0x256 JUMPI PUSH2 0x255 PUSH2 0x1AD JUMP JUMPDEST JUMPDEST PUSH0 PUSH2 0x263 DUP8 DUP3 DUP9 ADD PUSH2 0x1D0 JUMP JUMPDEST SWAP5 POP POP PUSH1 0x20 PUSH2 0x274 DUP8 DUP3 DUP9 ADD PUSH2 0x1D0 JUMP JUMPDEST SWAP4 POP POP PUSH1 0x40 PUSH2 0x285 DUP8 DUP3 DUP9 ADD PUSH2 0x22A JUMP JUMPDEST SWAP3 POP POP PUSH1 0x60 PUSH2 0x296 DUP8 DUP3 DUP9 ADD PUSH2 0x1D0 JUMP JUMPDEST SWAP2 POP POP SWAP3 SWAP6 SWAP2 SWAP5 POP SWAP3 POP JUMP JUMPDEST PUSH0 DUP3 DUP3 MSTORE PUSH1 0x20 DUP3 ADD SWAP1 POP SWAP3 SWAP2 POP POP JUMP JUMPDEST PUSH32 0x64726174696F6E2073686F756C64203C3D203120646179000000000000000000 PUSH0 DUP3 ADD MSTORE POP JUMP JUMPDEST PUSH0 PUSH2 0x2E6 PUSH1 0x17 DUP4 PUSH2 0x2A2 JUMP JUMPDEST SWAP2 POP PUSH2 0x2F1 DUP3 PUSH2 0x2B2 JUMP JUMPDEST PUSH1 0x20 DUP3 ADD SWAP1 POP SWAP2 SWAP1 POP JUMP JUMPDEST PUSH0 PUSH1 0x20 DUP3 ADD SWAP1 POP DUP2 DUP2 SUB PUSH0 DUP4 ADD MSTORE PUSH2 0x313 DUP2 PUSH2 0x2DA JUMP JUMPDEST SWAP1 POP SWAP2 SWAP1 POP JUMP JUMPDEST PUSH32 0x6E66742061646472657373203D20300000000000000000000000000000000000 PUSH0 DUP3 ADD MSTORE POP JUMP JUMPDEST PUSH0 PUSH2 0x34E PUSH1 0xF DUP4 PUSH2 0x2A2 JUMP JUMPDEST SWAP2 POP PUSH2 0x359 DUP3 PUSH2 0x31A JUMP JUMPDEST PUSH1 0x20 DUP3 ADD SWAP1 POP SWAP2 SWAP1 POP JUMP JUMPDEST PUSH0 PUSH1 0x20 DUP3 ADD SWAP1 POP DUP2 DUP2 SUB PUSH0 DUP4 ADD MSTORE PUSH2 0x37B DUP2 PUSH2 0x342 JUMP JUMPDEST SWAP1 POP SWAP2 SWAP1 POP JUMP JUMPDEST PUSH1 0x80 MLOAD PUSH1 0xA0 MLOAD PUSH1 0xC0 MLOAD PUSH1 0xE0 MLOAD PUSH2 0x17DD PUSH2 0x3E6 PUSH0 CODECOPY PUSH0 DUP2 DUP2 PUSH2 0x9E2 ADD MSTORE DUP2 DUP2 PUSH2 0xCF2 ADD MSTORE PUSH2 0xE9B ADD MSTORE PUSH0 DUP2 DUP2 PUSH2 0x815 ADD MSTORE DUP2 DUP2 PUSH2 0x985 ADD MSTORE DUP2 DUP2 PUSH2 0xC74 ADD MSTORE PUSH2 0xE3E ADD MSTORE PUSH0 DUP2 DUP2 PUSH2 0x1CC ADD MSTORE PUSH2 0x939 ADD MSTORE PUSH0 DUP2 DUP2 PUSH2 0x471 ADD MSTORE PUSH2 0xA89 ADD MSTORE PUSH2 0x17DD PUSH0 RETURN INVALID PUSH1 0x80 PUSH1 0x40 MSTORE PUSH1 0x4 CALLDATASIZE LT PUSH2 0x90 JUMPI PUSH0 CALLDATALOAD PUSH1 0xE0 SHR DUP1 PUSH4 0x6B64C769 GT PUSH2 0x58 JUMPI DUP1 PUSH4 0x6B64C769 EQ PUSH2 0x126 JUMPI DUP1 PUSH4 0x7CC3AE8C EQ PUSH2 0x13C JUMPI DUP1 PUSH4 0xC7446565 EQ PUSH2 0x166 JUMPI DUP1 PUSH4 0xD6FBF202 EQ PUSH2 0x190 JUMPI DUP1 PUSH4 0xFE67A54B EQ PUSH2 0x1BA JUMPI PUSH2 0x90 JUMP JUMPDEST DUP1 PUSH4 0xE8670E0 EQ PUSH2 0x94 JUMPI DUP1 PUSH4 0xFB5A6B4 EQ PUSH2 0xBE JUMPI DUP1 PUSH4 0x1998AEEF EQ PUSH2 0xE8 JUMPI DUP1 PUSH4 0x3CCFD60B EQ PUSH2 0xF2 JUMPI DUP1 PUSH4 0x47CCCA02 EQ PUSH2 0xFC JUMPI JUMPDEST PUSH0 DUP1 REVERT JUMPDEST CALLVALUE DUP1 ISZERO PUSH2 0x9F JUMPI PUSH0 DUP1 REVERT JUMPDEST POP PUSH2 0xA8 PUSH2 0x1C4 JUMP JUMPDEST PUSH1 0x40 MLOAD PUSH2 0xB5 SWAP2 SWAP1 PUSH2 0xFB1 JUMP JUMPDEST PUSH1 0x40 MLOAD DUP1 SWAP2 SUB SWAP1 RETURN JUMPDEST CALLVALUE DUP1 ISZERO PUSH2 0xC9 JUMPI PUSH0 DUP1 REVERT JUMPDEST POP PUSH2 0xD2 PUSH2 0x1CA JUMP JUMPDEST PUSH1 0x40 MLOAD PUSH2 0xDF SWAP2 SWAP1 PUSH2 0xFB1 JUMP JUMPDEST PUSH1 0x40 MLOAD DUP1 SWAP2 SUB SWAP1 RETURN JUMPDEST PUSH2 0xF0 PUSH2 0x1EE JUMP JUMPDEST STOP JUMPDEST PUSH2 0xFA PUSH2 0x5BF JUMP JUMPDEST STOP JUMPDEST CALLVALUE DUP1 ISZERO PUSH2 0x107 JUMPI PUSH0 DUP1 REVERT JUMPDEST POP PUSH2 0x110 PUSH2 0x813 JUMP JUMPDEST PUSH1 0x40 MLOAD PUSH2 0x11D SWAP2 SWAP1 PUSH2 0x1044 JUMP JUMPDEST PUSH1 0x40 MLOAD DUP1 SWAP2 SUB SWAP1 RETURN JUMPDEST CALLVALUE DUP1 ISZERO PUSH2 0x131 JUMPI PUSH0 DUP1 REVERT JUMPDEST POP PUSH2 0x13A PUSH2 0x837 JUMP JUMPDEST STOP JUMPDEST CALLVALUE DUP1 ISZERO PUSH2 0x147 JUMPI PUSH0 DUP1 REVERT JUMPDEST POP PUSH2 0x150 PUSH2 0xA7B JUMP JUMPDEST PUSH1 0x40 MLOAD PUSH2 0x15D SWAP2 SWAP1 PUSH2 0xFB1 JUMP JUMPDEST PUSH1 0x40 MLOAD DUP1 SWAP2 SUB SWAP1 RETURN JUMPDEST CALLVALUE DUP1 ISZERO PUSH2 0x171 JUMPI PUSH0 DUP1 REVERT JUMPDEST POP PUSH2 0x17A PUSH2 0xA81 JUMP JUMPDEST PUSH1 0x40 MLOAD PUSH2 0x187 SWAP2 SWAP1 PUSH2 0xFB1 JUMP JUMPDEST PUSH1 0x40 MLOAD DUP1 SWAP2 SUB SWAP1 RETURN JUMPDEST CALLVALUE DUP1 ISZERO PUSH2 0x19B JUMPI PUSH0 DUP1 REVERT JUMPDEST POP PUSH2 0x1A4 PUSH2 0xA87 JUMP JUMPDEST PUSH1 0x40 MLOAD PUSH2 0x1B1 SWAP2 SWAP1 PUSH2 0xFB1 JUMP JUMPDEST PUSH1 0x40 MLOAD DUP1 SWAP2 SUB SWAP1 RETURN JUMPDEST PUSH2 0x1C2 PUSH2 0xAAB JUMP JUMPDEST STOP JUMPDEST PUSH1 0x2 SLOAD DUP2 JUMP JUMPDEST PUSH32 0x0 DUP2 JUMP JUMPDEST PUSH0 CALLER SWAP1 POP PUSH0 DUP1 SLOAD SWAP1 PUSH2 0x100 EXP SWAP1 DIV PUSH20 0xFFFFFFFFFFFFFFFFFFFFFFFFFFFFFFFFFFFFFFFF AND PUSH20 0xFFFFFFFFFFFFFFFFFFFFFFFFFFFFFFFFFFFFFFFF AND DUP2 PUSH20 0xFFFFFFFFFFFFFFFFFFFFFFFFFFFFFFFFFFFFFFFF AND SUB PUSH2 0x27F JUMPI PUSH1 0x40 MLOAD PUSH32 0x8C379A000000000000000000000000000000000000000000000000000000000 DUP2 MSTORE PUSH1 0x4 ADD PUSH2 0x276 SWAP1 PUSH2 0x10B7 JUMP JUMPDEST PUSH1 0x40 MLOAD DUP1 SWAP2 SUB SWAP1 REVERT JUMPDEST PUSH1 0x1 PUSH0 SWAP1 SLOAD SWAP1 PUSH2 0x100 EXP SWAP1 DIV PUSH20 0xFFFFFFFFFFFFFFFFFFFFFFFFFFFFFFFFFFFFFFFF AND PUSH20 0xFFFFFFFFFFFFFFFFFFFFFFFFFFFFFFFFFFFFFFFF AND DUP2 PUSH20 0xFFFFFFFFFFFFFFFFFFFFFFFFFFFFFFFFFFFFFFFF AND SUB PUSH2 0x30E JUMPI PUSH1 0x40 MLOAD PUSH32 0x8C379A000000000000000000000000000000000000000000000000000000000 DUP2 MSTORE PUSH1 0x4 ADD PUSH2 0x305 SWAP1 PUSH2 0x1145 JUMP JUMPDEST PUSH1 0x40 MLOAD DUP1 SWAP2 SUB SWAP1 REVERT JUMPDEST PUSH0 PUSH20 0xFFFFFFFFFFFFFFFFFFFFFFFFFFFFFFFFFFFFFFFF AND DUP2 PUSH20 0xFFFFFFFFFFFFFFFFFFFFFFFFFFFFFFFFFFFFFFFF AND SUB PUSH2 0x37C JUMPI PUSH1 0x40 MLOAD PUSH32 0x8C379A000000000000000000000000000000000000000000000000000000000 DUP2 MSTORE PUSH1 0x4 ADD PUSH2 0x373 SWAP1 PUSH2 0x11AD JUMP JUMPDEST PUSH1 0x40 MLOAD DUP1 SWAP2 SUB SWAP1 REVERT JUMPDEST PUSH1 0x5 PUSH0 SWAP1 SLOAD SWAP1 PUSH2 0x100 EXP SWAP1 DIV PUSH1 0xFF AND PUSH2 0x3CA JUMPI PUSH1 0x40 MLOAD PUSH32 0x8C379A000000000000000000000000000000000000000000000000000000000 DUP2 MSTORE PUSH1 0x4 ADD PUSH2 0x3C1 SWAP1 PUSH2 0x1215 JUMP JUMPDEST PUSH1 0x40 MLOAD DUP1 SWAP2 SUB SWAP1 REVERT JUMPDEST PUSH1 0x5 PUSH1 0x1 SWAP1 SLOAD SWAP1 PUSH2 0x100 EXP SWAP1 DIV PUSH1 0xFF AND ISZERO PUSH2 0x41A JUMPI PUSH1 0x40 MLOAD PUSH32 0x8C379A000000000000000000000000000000000000000000000000000000000 DUP2 MSTORE PUSH1 0x4 ADD PUSH2 0x411 SWAP1 PUSH2 0x127D JUMP JUMPDEST PUSH1 0x40 MLOAD DUP1 SWAP2 SUB SWAP1 REVERT JUMPDEST PUSH1 0x4 SLOAD TIMESTAMP GT ISZERO PUSH2 0x45F JUMPI PUSH1 0x40 MLOAD PUSH32 0x8C379A000000000000000000000000000000000000000000000000000000000 DUP2 MSTORE PUSH1 0x4 ADD PUSH2 0x456 SWAP1 PUSH2 0x12E5 JUMP JUMPDEST PUSH1 0x40 MLOAD DUP1 SWAP2 SUB SWAP1 REVERT JUMPDEST PUSH0 CALLVALUE SWAP1 POP PUSH1 0x2 SLOAD DUP2 GT DUP1 ISZERO PUSH2 0x494 JUMPI POP PUSH32 0x0 DUP2 LT ISZERO JUMPDEST PUSH2 0x4D3 JUMPI PUSH1 0x40 MLOAD PUSH32 0x8C379A000000000000000000000000000000000000000000000000000000000 DUP2 MSTORE PUSH1 0x4 ADD PUSH2 0x4CA SWAP1 PUSH2 0x134D JUMP JUMPDEST PUSH1 0x40 MLOAD DUP1 SWAP2 SUB SWAP1 REVERT JUMPDEST DUP2 PUSH1 0x1 PUSH0 PUSH2 0x100 EXP DUP2 SLOAD DUP2 PUSH20 0xFFFFFFFFFFFFFFFFFFFFFFFFFFFFFFFFFFFFFFFF MUL NOT AND SWAP1 DUP4 PUSH20 0xFFFFFFFFFFFFFFFFFFFFFFFFFFFFFFFFFFFFFFFF AND MUL OR SWAP1 SSTORE POP DUP1 PUSH1 0x2 DUP2 SWAP1 SSTORE POP DUP1 PUSH1 0x6 PUSH0 DUP5 PUSH20 0xFFFFFFFFFFFFFFFFFFFFFFFFFFFFFFFFFFFFFFFF AND PUSH20 0xFFFFFFFFFFFFFFFFFFFFFFFFFFFFFFFFFFFFFFFF AND DUP2 MSTORE PUSH1 0x20 ADD SWAP1 DUP2 MSTORE PUSH1 0x20 ADD PUSH0 KECCAK256 PUSH0 DUP3 DUP3 SLOAD PUSH2 0x566 SWAP2 SWAP1 PUSH2 0x1398 JUMP JUMPDEST SWAP3 POP POP DUP2 SWAP1 SSTORE POP DUP2 PUSH20 0xFFFFFFFFFFFFFFFFFFFFFFFFFFFFFFFFFFFFFFFF AND PUSH32 0xE684A55F31B79ECA403DF938249029212A5925EC6BE8012E099B45BC1019E5D2 DUP3 PUSH1 0x40 MLOAD PUSH2 0x5B3 SWAP2 SWAP1 PUSH2 0xFB1 JUMP JUMPDEST PUSH1 0x40 MLOAD DUP1 SWAP2 SUB SWAP1 LOG2 POP POP JUMP JUMPDEST PUSH0 CALLER SWAP1 POP PUSH0 PUSH1 0x6 PUSH0 DUP4 PUSH20 0xFFFFFFFFFFFFFFFFFFFFFFFFFFFFFFFFFFFFFFFF AND PUSH20 0xFFFFFFFFFFFFFFFFFFFFFFFFFFFFFFFFFFFFFFFF AND DUP2 MSTORE PUSH1 0x20 ADD SWAP1 DUP2 MSTORE PUSH1 0x20 ADD PUSH0 KECCAK256 SLOAD SUB PUSH2 0x642 JUMPI PUSH1 0x40 MLOAD PUSH32 0x8C379A000000000000000000000000000000000000000000000000000000000 DUP2 MSTORE PUSH1 0x4 ADD PUSH2 0x639 SWAP1 PUSH2 0x1415 JUMP JUMPDEST PUSH1 0x40 MLOAD DUP1 SWAP2 SUB SWAP1 REVERT JUMPDEST PUSH0 PUSH1 0x1 PUSH0 SWAP1 SLOAD SWAP1 PUSH2 0x100 EXP SWAP1 DIV PUSH20 0xFFFFFFFFFFFFFFFFFFFFFFFFFFFFFFFFFFFFFFFF AND PUSH20 0xFFFFFFFFFFFFFFFFFFFFFFFFFFFFFFFFFFFFFFFF AND DUP3 PUSH20 0xFFFFFFFFFFFFFFFFFFFFFFFFFFFFFFFFFFFFFFFF AND SUB PUSH2 0x6E9 JUMPI PUSH1 0x2 SLOAD PUSH1 0x6 PUSH0 DUP5 PUSH20 0xFFFFFFFFFFFFFFFFFFFFFFFFFFFFFFFFFFFFFFFF AND PUSH20 0xFFFFFFFFFFFFFFFFFFFFFFFFFFFFFFFFFFFFFFFF AND DUP2 MSTORE PUSH1 0x20 ADD SWAP1 DUP2 MSTORE PUSH1 0x20 ADD PUSH0 KECCAK256 SLOAD PUSH2 0x6E2 SWAP2 SWAP1 PUSH2 0x1433 JUMP JUMPDEST SWAP1 POP PUSH2 0x72A JUMP JUMPDEST PUSH1 0x6 PUSH0 DUP4 PUSH20 0xFFFFFFFFFFFFFFFFFFFFFFFFFFFFFFFFFFFFFFFF AND PUSH20 0xFFFFFFFFFFFFFFFFFFFFFFFFFFFFFFFFFFFFFFFF AND DUP2 MSTORE PUSH1 0x20 ADD SWAP1 DUP2 MSTORE PUSH1 0x20 ADD PUSH0 KECCAK256 SLOAD SWAP1 POP JUMPDEST DUP2 PUSH20 0xFFFFFFFFFFFFFFFFFFFFFFFFFFFFFFFFFFFFFFFF AND PUSH2 0x8FC DUP3 SWAP1 DUP2 ISZERO MUL SWAP1 PUSH1 0x40 MLOAD PUSH0 PUSH1 0x40 MLOAD DUP1 DUP4 SUB DUP2 DUP6 DUP9 DUP9 CALL SWAP4 POP POP POP POP ISZERO DUP1 ISZERO PUSH2 0x76D JUMPI RETURNDATASIZE PUSH0 DUP1 RETURNDATACOPY RETURNDATASIZE PUSH0 REVERT JUMPDEST POP DUP1 PUSH1 0x6 PUSH0 DUP5 PUSH20 0xFFFFFFFFFFFFFFFFFFFFFFFFFFFFFFFFFFFFFFFF AND PUSH20 0xFFFFFFFFFFFFFFFFFFFFFFFFFFFFFFFFFFFFFFFF AND DUP2 MSTORE PUSH1 0x20 ADD SWAP1 DUP2 MSTORE PUSH1 0x20 ADD PUSH0 KECCAK256 PUSH0 DUP3 DUP3 SLOAD PUSH2 0x7BA SWAP2 SWAP1 PUSH2 0x1433 JUMP JUMPDEST SWAP3 POP POP DUP2 SWAP1 SSTORE POP DUP2 PUSH20 0xFFFFFFFFFFFFFFFFFFFFFFFFFFFFFFFFFFFFFFFF AND PUSH32 0x884EDAD9CE6FA2440D8A54CC123490EB96D2768479D49FF9C7366125A9424364 DUP3 PUSH1 0x40 MLOAD PUSH2 0x807 SWAP2 SWAP1 PUSH2 0xFB1 JUMP JUMPDEST PUSH1 0x40 MLOAD DUP1 SWAP2 SUB SWAP1 LOG2 POP POP JUMP JUMPDEST PUSH32 0x0 DUP2 JUMP JUMPDEST PUSH0 DUP1 SLOAD SWAP1 PUSH2 0x100 EXP SWAP1 DIV PUSH20 0xFFFFFFFFFFFFFFFFFFFFFFFFFFFFFFFFFFFFFFFF AND PUSH20 0xFFFFFFFFFFFFFFFFFFFFFFFFFFFFFFFFFFFFFFFF AND CALLER PUSH20 0xFFFFFFFFFFFFFFFFFFFFFFFFFFFFFFFFFFFFFFFF AND EQ PUSH2 0x8C4 JUMPI PUSH1 0x40 MLOAD PUSH32 0x8C379A000000000000000000000000000000000000000000000000000000000 DUP2 MSTORE PUSH1 0x4 ADD PUSH2 0x8BB SWAP1 PUSH2 0x14B0 JUMP JUMPDEST PUSH1 0x40 MLOAD DUP1 SWAP2 SUB SWAP1 REVERT JUMPDEST PUSH1 0x5 PUSH0 SWAP1 SLOAD SWAP1 PUSH2 0x100 EXP SWAP1 DIV PUSH1 0xFF AND ISZERO DUP1 ISZERO PUSH2 0x8ED JUMPI POP PUSH1 0x5 PUSH1 0x1 SWAP1 SLOAD SWAP1 PUSH2 0x100 EXP SWAP1 DIV PUSH1 0xFF AND ISZERO JUMPDEST PUSH2 0x92C JUMPI PUSH1 0x40 MLOAD PUSH32 0x8C379A000000000000000000000000000000000000000000000000000000000 DUP2 MSTORE PUSH1 0x4 ADD PUSH2 0x923 SWAP1 PUSH2 0x1518 JUMP JUMPDEST PUSH1 0x40 MLOAD DUP1 SWAP2 SUB SWAP1 REVERT JUMPDEST PUSH0 TIMESTAMP SWAP1 POP DUP1 PUSH1 0x3 DUP2 SWAP1 SSTORE POP PUSH32 0x0 DUP2 PUSH2 0x963 SWAP2 SWAP1 PUSH2 0x1398 JUMP JUMPDEST PUSH1 0x4 DUP2 SWAP1 SSTORE POP PUSH1 0x1 PUSH1 0x5 PUSH0 PUSH2 0x100 EXP DUP2 SLOAD DUP2 PUSH1 0xFF MUL NOT AND SWAP1 DUP4 ISZERO ISZERO MUL OR SWAP1 SSTORE POP PUSH32 0x0 PUSH20 0xFFFFFFFFFFFFFFFFFFFFFFFFFFFFFFFFFFFFFFFF AND PUSH4 0x23B872DD PUSH0 DUP1 SLOAD SWAP1 PUSH2 0x100 EXP SWAP1 DIV PUSH20 0xFFFFFFFFFFFFFFFFFFFFFFFFFFFFFFFFFFFFFFFF AND ADDRESS PUSH32 0x0 PUSH1 0x40 MLOAD DUP5 PUSH4 0xFFFFFFFF AND PUSH1 0xE0 SHL DUP2 MSTORE PUSH1 0x4 ADD PUSH2 0xA1F SWAP4 SWAP3 SWAP2 SWAP1 PUSH2 0x1576 JUMP JUMPDEST PUSH0 PUSH1 0x40 MLOAD DUP1 DUP4 SUB DUP2 PUSH0 DUP8 DUP1 EXTCODESIZE ISZERO DUP1 ISZERO PUSH2 0xA36 JUMPI PUSH0 DUP1 REVERT JUMPDEST POP GAS CALL ISZERO DUP1 ISZERO PUSH2 0xA48 JUMPI RETURNDATASIZE PUSH0 DUP1 RETURNDATACOPY RETURNDATASIZE PUSH0 REVERT JUMPDEST POP POP POP POP PUSH32 0x1B55BA3AA851A46BE3B365AEE5B5C140EDD620D578922F3E8466D2CBD96F954B PUSH1 0x40 MLOAD PUSH1 0x40 MLOAD DUP1 SWAP2 SUB SWAP1 LOG1 POP JUMP JUMPDEST PUSH1 0x4 SLOAD DUP2 JUMP JUMPDEST PUSH1 0x3 SLOAD DUP2 JUMP JUMPDEST PUSH32 0x0 DUP2 JUMP JUMPDEST PUSH0 CALLER SWAP1 POP PUSH0 DUP1 SLOAD SWAP1 PUSH2 0x100 EXP SWAP1 DIV PUSH20 0xFFFFFFFFFFFFFFFFFFFFFFFFFFFFFFFFFFFFFFFF AND PUSH20 0xFFFFFFFFFFFFFFFFFFFFFFFFFFFFFFFFFFFFFFFF AND DUP2 PUSH20 0xFFFFFFFFFFFFFFFFFFFFFFFFFFFFFFFFFFFFFFFF AND EQ PUSH2 0xB3C JUMPI PUSH1 0x40 MLOAD PUSH32 0x8C379A000000000000000000000000000000000000000000000000000000000 DUP2 MSTORE PUSH1 0x4 ADD PUSH2 0xB33 SWAP1 PUSH2 0x15F5 JUMP JUMPDEST PUSH1 0x40 MLOAD DUP1 SWAP2 SUB SWAP1 REVERT JUMPDEST PUSH1 0x5 PUSH0 SWAP1 SLOAD SWAP1 PUSH2 0x100 EXP SWAP1 DIV PUSH1 0xFF AND PUSH2 0xB8A JUMPI PUSH1 0x40 MLOAD PUSH32 0x8C379A000000000000000000000000000000000000000000000000000000000 DUP2 MSTORE PUSH1 0x4 ADD PUSH2 0xB81 SWAP1 PUSH2 0x165D JUMP JUMPDEST PUSH1 0x40 MLOAD DUP1 SWAP2 SUB SWAP1 REVERT JUMPDEST PUSH1 0x5 PUSH1 0x1 SWAP1 SLOAD SWAP1 PUSH2 0x100 EXP SWAP1 DIV PUSH1 0xFF AND ISZERO PUSH2 0xBDA JUMPI PUSH1 0x40 MLOAD PUSH32 0x8C379A000000000000000000000000000000000000000000000000000000000 DUP2 MSTORE PUSH1 0x4 ADD PUSH2 0xBD1 SWAP1 PUSH2 0x16C5 JUMP JUMPDEST PUSH1 0x40 MLOAD DUP1 SWAP2 SUB SWAP1 REVERT JUMPDEST PUSH1 0x4 SLOAD TIMESTAMP GT PUSH2 0xC1E JUMPI PUSH1 0x40 MLOAD PUSH32 0x8C379A000000000000000000000000000000000000000000000000000000000 DUP2 MSTORE PUSH1 0x4 ADD PUSH2 0xC15 SWAP1 PUSH2 0x172D JUMP JUMPDEST PUSH1 0x40 MLOAD DUP1 SWAP2 SUB SWAP1 REVERT JUMPDEST PUSH0 PUSH20 0xFFFFFFFFFFFFFFFFFFFFFFFFFFFFFFFFFFFFFFFF AND PUSH1 0x1 PUSH0 SWAP1 SLOAD SWAP1 PUSH2 0x100 EXP SWAP1 DIV PUSH20 0xFFFFFFFFFFFFFFFFFFFFFFFFFFFFFFFFFFFFFFFF AND PUSH20 0xFFFFFFFFFFFFFFFFFFFFFFFFFFFFFFFFFFFFFFFF AND EQ PUSH2 0xE3C JUMPI PUSH32 0x0 PUSH20 0xFFFFFFFFFFFFFFFFFFFFFFFFFFFFFFFFFFFFFFFF AND PUSH4 0x23B872DD PUSH0 DUP1 SLOAD SWAP1 PUSH2 0x100 EXP SWAP1 DIV PUSH20 0xFFFFFFFFFFFFFFFFFFFFFFFFFFFFFFFFFFFFFFFF AND PUSH1 0x1 PUSH0 SWAP1 SLOAD SWAP1 PUSH2 0x100 EXP SWAP1 DIV PUSH20 0xFFFFFFFFFFFFFFFFFFFFFFFFFFFFFFFFFFFFFFFF AND PUSH32 0x0 PUSH1 0x40 MLOAD DUP5 PUSH4 0xFFFFFFFF AND PUSH1 0xE0 SHL DUP2 MSTORE PUSH1 0x4 ADD PUSH2 0xD2F SWAP4 SWAP3 SWAP2 SWAP1 PUSH2 0x1576 JUMP JUMPDEST PUSH0 PUSH1 0x40 MLOAD DUP1 DUP4 SUB DUP2 PUSH0 DUP8 DUP1 EXTCODESIZE ISZERO DUP1 ISZERO PUSH2 0xD46 JUMPI PUSH0 DUP1 REVERT JUMPDEST POP GAS CALL ISZERO DUP1 ISZERO PUSH2 0xD58 JUMPI RETURNDATASIZE PUSH0 DUP1 RETURNDATACOPY RETURNDATASIZE PUSH0 REVERT JUMPDEST POP POP POP POP PUSH0 DUP1 SLOAD SWAP1 PUSH2 0x100 EXP SWAP1 DIV PUSH20 0xFFFFFFFFFFFFFFFFFFFFFFFFFFFFFFFFFFFFFFFF AND PUSH20 0xFFFFFFFFFFFFFFFFFFFFFFFFFFFFFFFFFFFFFFFF AND PUSH2 0x8FC PUSH1 0x2 SLOAD SWAP1 DUP2 ISZERO MUL SWAP1 PUSH1 0x40 MLOAD PUSH0 PUSH1 0x40 MLOAD DUP1 DUP4 SUB DUP2 DUP6 DUP9 DUP9 CALL SWAP4 POP POP POP POP ISZERO DUP1 ISZERO PUSH2 0xDC0 JUMPI RETURNDATASIZE PUSH0 DUP1 RETURNDATACOPY RETURNDATASIZE PUSH0 REVERT JUMPDEST POP PUSH1 0x2 SLOAD PUSH1 0x6 PUSH0 PUSH1 0x1 PUSH0 SWAP1 SLOAD SWAP1 PUSH2 0x100 EXP SWAP1 DIV PUSH20 0xFFFFFFFFFFFFFFFFFFFFFFFFFFFFFFFFFFFFFFFF AND PUSH20 0xFFFFFFFFFFFFFFFFFFFFFFFFFFFFFFFFFFFFFFFF AND PUSH20 0xFFFFFFFFFFFFFFFFFFFFFFFFFFFFFFFFFFFFFFFF AND DUP2 MSTORE PUSH1 0x20 ADD SWAP1 DUP2 MSTORE PUSH1 0x20 ADD PUSH0 KECCAK256 PUSH0 DUP3 DUP3 SLOAD PUSH2 0xE30 SWAP2 SWAP1 PUSH2 0x1433 JUMP JUMPDEST SWAP3 POP POP DUP2 SWAP1 SSTORE POP PUSH2 0xF06 JUMP JUMPDEST PUSH32 0x0 PUSH20 0xFFFFFFFFFFFFFFFFFFFFFFFFFFFFFFFFFFFFFFFF AND PUSH4 0x23B872DD ADDRESS PUSH0 DUP1 SLOAD SWAP1 PUSH2 0x100 EXP SWAP1 DIV PUSH20 0xFFFFFFFFFFFFFFFFFFFFFFFFFFFFFFFFFFFFFFFF AND PUSH32 0x0 PUSH1 0x40 MLOAD DUP5 PUSH4 0xFFFFFFFF AND PUSH1 0xE0 SHL DUP2 MSTORE PUSH1 0x4 ADD PUSH2 0xED8 SWAP4 SWAP3 SWAP2 SWAP1 PUSH2 0x174B JUMP JUMPDEST PUSH0 PUSH1 0x40 MLOAD DUP1 DUP4 SUB DUP2 PUSH0 DUP8 DUP1 EXTCODESIZE ISZERO DUP1 ISZERO PUSH2 0xEEF JUMPI PUSH0 DUP1 REVERT JUMPDEST POP GAS CALL ISZERO DUP1 ISZERO PUSH2 0xF01 JUMPI RETURNDATASIZE PUSH0 DUP1 RETURNDATACOPY RETURNDATASIZE PUSH0 REVERT JUMPDEST POP POP POP POP JUMPDEST PUSH0 PUSH1 0x5 PUSH0 PUSH2 0x100 EXP DUP2 SLOAD DUP2 PUSH1 0xFF MUL NOT AND SWAP1 DUP4 ISZERO ISZERO MUL OR SWAP1 SSTORE POP PUSH1 0x1 PUSH1 0x5 PUSH1 0x1 PUSH2 0x100 EXP DUP2 SLOAD DUP2 PUSH1 0xFF MUL NOT AND SWAP1 DUP4 ISZERO ISZERO MUL OR SWAP1 SSTORE POP PUSH32 0x7D7570B046E5EAD3A4F3FBC9FA2445113625A1E79823776146316BAFED6B8CC5 PUSH1 0x1 PUSH0 SWAP1 SLOAD SWAP1 PUSH2 0x100 EXP SWAP1 DIV PUSH20 0xFFFFFFFFFFFFFFFFFFFFFFFFFFFFFFFFFFFFFFFF AND PUSH1 0x2 SLOAD PUSH1 0x40 MLOAD PUSH2 0xF8E SWAP3 SWAP2 SWAP1 PUSH2 0x1780 JUMP JUMPDEST PUSH1 0x40 MLOAD DUP1 SWAP2 SUB SWAP1 LOG1 POP JUMP JUMPDEST PUSH0 DUP2 SWAP1 POP SWAP2 SWAP1 POP JUMP JUMPDEST PUSH2 0xFAB DUP2 PUSH2 0xF99 JUMP JUMPDEST DUP3 MSTORE POP POP JUMP JUMPDEST PUSH0 PUSH1 0x20 DUP3 ADD SWAP1 POP PUSH2 0xFC4 PUSH0 DUP4 ADD DUP5 PUSH2 0xFA2 JUMP JUMPDEST SWAP3 SWAP2 POP POP JUMP JUMPDEST PUSH0 PUSH20 0xFFFFFFFFFFFFFFFFFFFFFFFFFFFFFFFFFFFFFFFF DUP3 AND SWAP1 POP SWAP2 SWAP1 POP JUMP JUMPDEST PUSH0 DUP2 SWAP1 POP SWAP2 SWAP1 POP JUMP JUMPDEST PUSH0 PUSH2 0x100C PUSH2 0x1007 PUSH2 0x1002 DUP5 PUSH2 0xFCA JUMP JUMPDEST PUSH2 0xFE9 JUMP JUMPDEST PUSH2 0xFCA JUMP JUMPDEST SWAP1 POP SWAP2 SWAP1 POP JUMP JUMPDEST PUSH0 PUSH2 0x101D DUP3 PUSH2 0xFF2 JUMP JUMPDEST SWAP1 POP SWAP2 SWAP1 POP JUMP JUMPDEST PUSH0 PUSH2 0x102E DUP3 PUSH2 0x1013 JUMP JUMPDEST SWAP1 POP SWAP2 SWAP1 POP JUMP JUMPDEST PUSH2 0x103E DUP2 PUSH2 0x1024 JUMP JUMPDEST DUP3 MSTORE POP POP JUMP JUMPDEST PUSH0 PUSH1 0x20 DUP3 ADD SWAP1 POP PUSH2 0x1057 PUSH0 DUP4 ADD DUP5 PUSH2 0x1035 JUMP JUMPDEST SWAP3 SWAP2 POP POP JUMP JUMPDEST PUSH0 DUP3 DUP3 MSTORE PUSH1 0x20 DUP3 ADD SWAP1 POP SWAP3 SWAP2 POP POP JUMP JUMPDEST PUSH32 0x73656C6C6265722063616E277420627579000000000000000000000000000000 PUSH0 DUP3 ADD MSTORE POP JUMP JUMPDEST PUSH0 PUSH2 0x10A1 PUSH1 0x11 DUP4 PUSH2 0x105D JUMP JUMPDEST SWAP2 POP PUSH2 0x10AC DUP3 PUSH2 0x106D JUMP JUMPDEST PUSH1 0x20 DUP3 ADD SWAP1 POP SWAP2 SWAP1 POP JUMP JUMPDEST PUSH0 PUSH1 0x20 DUP3 ADD SWAP1 POP DUP2 DUP2 SUB PUSH0 DUP4 ADD MSTORE PUSH2 0x10CE DUP2 PUSH2 0x1095 JUMP JUMPDEST SWAP1 POP SWAP2 SWAP1 POP JUMP JUMPDEST PUSH32 0x796F752061726520616C72656164792074686520686967686573742062696464 PUSH0 DUP3 ADD MSTORE PUSH32 0x6572000000000000000000000000000000000000000000000000000000000000 PUSH1 0x20 DUP3 ADD MSTORE POP JUMP JUMPDEST PUSH0 PUSH2 0x112F PUSH1 0x22 DUP4 PUSH2 0x105D JUMP JUMPDEST SWAP2 POP PUSH2 0x113A DUP3 PUSH2 0x10D5 JUMP JUMPDEST PUSH1 0x40 DUP3 ADD SWAP1 POP SWAP2 SWAP1 POP JUMP JUMPDEST PUSH0 PUSH1 0x20 DUP3 ADD SWAP1 POP DUP2 DUP2 SUB PUSH0 DUP4 ADD MSTORE PUSH2 0x115C DUP2 PUSH2 0x1123 JUMP JUMPDEST SWAP1 POP SWAP2 SWAP1 POP JUMP JUMPDEST PUSH32 0x6269646465722061646472657373203D207A65726F0000000000000000000000 PUSH0 DUP3 ADD MSTORE POP JUMP JUMPDEST PUSH0 PUSH2 0x1197 PUSH1 0x15 DUP4 PUSH2 0x105D JUMP JUMPDEST SWAP2 POP PUSH2 0x11A2 DUP3 PUSH2 0x1163 JUMP JUMPDEST PUSH1 0x20 DUP3 ADD SWAP1 POP SWAP2 SWAP1 POP JUMP JUMPDEST PUSH0 PUSH1 0x20 DUP3 ADD SWAP1 POP DUP2 DUP2 SUB PUSH0 DUP4 ADD MSTORE PUSH2 0x11C4 DUP2 PUSH2 0x118B JUMP JUMPDEST SWAP1 POP SWAP2 SWAP1 POP JUMP JUMPDEST PUSH32 0x61756374696F6E206E6F74207374617274000000000000000000000000000000 PUSH0 DUP3 ADD MSTORE POP JUMP JUMPDEST PUSH0 PUSH2 0x11FF PUSH1 0x11 DUP4 PUSH2 0x105D JUMP JUMPDEST SWAP2 POP PUSH2 0x120A DUP3 PUSH2 0x11CB JUMP JUMPDEST PUSH1 0x20 DUP3 ADD SWAP1 POP SWAP2 SWAP1 POP JUMP JUMPDEST PUSH0 PUSH1 0x20 DUP3 ADD SWAP1 POP DUP2 DUP2 SUB PUSH0 DUP4 ADD MSTORE PUSH2 0x122C DUP2 PUSH2 0x11F3 JUMP JUMPDEST SWAP1 POP SWAP2 SWAP1 POP JUMP JUMPDEST PUSH32 0x61756374696F6E2068617320636C6F7365640000000000000000000000000000 PUSH0 DUP3 ADD MSTORE POP JUMP JUMPDEST PUSH0 PUSH2 0x1267 PUSH1 0x12 DUP4 PUSH2 0x105D JUMP JUMPDEST SWAP2 POP PUSH2 0x1272 DUP3 PUSH2 0x1233 JUMP JUMPDEST PUSH1 0x20 DUP3 ADD SWAP1 POP SWAP2 SWAP1 POP JUMP JUMPDEST PUSH0 PUSH1 0x20 DUP3 ADD SWAP1 POP DUP2 DUP2 SUB PUSH0 DUP4 ADD MSTORE PUSH2 0x1294 DUP2 PUSH2 0x125B JUMP JUMPDEST SWAP1 POP SWAP2 SWAP1 POP JUMP JUMPDEST PUSH32 0x61756374696F6E20686173206578706972656400000000000000000000000000 PUSH0 DUP3 ADD MSTORE POP JUMP JUMPDEST PUSH0 PUSH2 0x12CF PUSH1 0x13 DUP4 PUSH2 0x105D JUMP JUMPDEST SWAP2 POP PUSH2 0x12DA DUP3 PUSH2 0x129B JUMP JUMPDEST PUSH1 0x20 DUP3 ADD SWAP1 POP SWAP2 SWAP1 POP JUMP JUMPDEST PUSH0 PUSH1 0x20 DUP3 ADD SWAP1 POP DUP2 DUP2 SUB PUSH0 DUP4 ADD MSTORE PUSH2 0x12FC DUP2 PUSH2 0x12C3 JUMP JUMPDEST SWAP1 POP SWAP2 SWAP1 POP JUMP JUMPDEST PUSH32 0x796F7520626964203C2068696768657374207072696365000000000000000000 PUSH0 DUP3 ADD MSTORE POP JUMP JUMPDEST PUSH0 PUSH2 0x1337 PUSH1 0x17 DUP4 PUSH2 0x105D JUMP JUMPDEST SWAP2 POP PUSH2 0x1342 DUP3 PUSH2 0x1303 JUMP JUMPDEST PUSH1 0x20 DUP3 ADD SWAP1 POP SWAP2 SWAP1 POP JUMP JUMPDEST PUSH0 PUSH1 0x20 DUP3 ADD SWAP1 POP DUP2 DUP2 SUB PUSH0 DUP4 ADD MSTORE PUSH2 0x1364 DUP2 PUSH2 0x132B JUMP JUMPDEST SWAP1 POP SWAP2 SWAP1 POP JUMP JUMPDEST PUSH32 0x4E487B7100000000000000000000000000000000000000000000000000000000 PUSH0 MSTORE PUSH1 0x11 PUSH1 0x4 MSTORE PUSH1 0x24 PUSH0 REVERT JUMPDEST PUSH0 PUSH2 0x13A2 DUP3 PUSH2 0xF99 JUMP JUMPDEST SWAP2 POP PUSH2 0x13AD DUP4 PUSH2 0xF99 JUMP JUMPDEST SWAP3 POP DUP3 DUP3 ADD SWAP1 POP DUP1 DUP3 GT ISZERO PUSH2 0x13C5 JUMPI PUSH2 0x13C4 PUSH2 0x136B JUMP JUMPDEST JUMPDEST SWAP3 SWAP2 POP POP JUMP JUMPDEST PUSH32 0x796F757220657468203D20302C2063616E277420776974686472617700000000 PUSH0 DUP3 ADD MSTORE POP JUMP JUMPDEST PUSH0 PUSH2 0x13FF PUSH1 0x1C DUP4 PUSH2 0x105D JUMP JUMPDEST SWAP2 POP PUSH2 0x140A DUP3 PUSH2 0x13CB JUMP JUMPDEST PUSH1 0x20 DUP3 ADD SWAP1 POP SWAP2 SWAP1 POP JUMP JUMPDEST PUSH0 PUSH1 0x20 DUP3 ADD SWAP1 POP DUP2 DUP2 SUB PUSH0 DUP4 ADD MSTORE PUSH2 0x142C DUP2 PUSH2 0x13F3 JUMP JUMPDEST SWAP1 POP SWAP2 SWAP1 POP JUMP JUMPDEST PUSH0 PUSH2 0x143D DUP3 PUSH2 0xF99 JUMP JUMPDEST SWAP2 POP PUSH2 0x1448 DUP4 PUSH2 0xF99 JUMP JUMPDEST SWAP3 POP DUP3 DUP3 SUB SWAP1 POP DUP2 DUP2 GT ISZERO PUSH2 0x1460 JUMPI PUSH2 0x145F PUSH2 0x136B JUMP JUMPDEST JUMPDEST SWAP3 SWAP2 POP POP JUMP JUMPDEST PUSH32 0x63616E27742073746172742C20752061206E6F7420617574686572697A656400 PUSH0 DUP3 ADD MSTORE POP JUMP JUMPDEST PUSH0 PUSH2 0x149A PUSH1 0x1F DUP4 PUSH2 0x105D JUMP JUMPDEST SWAP2 POP PUSH2 0x14A5 DUP3 PUSH2 0x1466 JUMP JUMPDEST PUSH1 0x20 DUP3 ADD SWAP1 POP SWAP2 SWAP1 POP JUMP JUMPDEST PUSH0 PUSH1 0x20 DUP3 ADD SWAP1 POP DUP2 DUP2 SUB PUSH0 DUP4 ADD MSTORE PUSH2 0x14C7 DUP2 PUSH2 0x148E JUMP JUMPDEST SWAP1 POP SWAP2 SWAP1 POP JUMP JUMPDEST PUSH32 0x61756374696F6E20686173207374617274206F7220636C6F7365640000000000 PUSH0 DUP3 ADD MSTORE POP JUMP JUMPDEST PUSH0 PUSH2 0x1502 PUSH1 0x1B DUP4 PUSH2 0x105D JUMP JUMPDEST SWAP2 POP PUSH2 0x150D DUP3 PUSH2 0x14CE JUMP JUMPDEST PUSH1 0x20 DUP3 ADD SWAP1 POP SWAP2 SWAP1 POP JUMP JUMPDEST PUSH0 PUSH1 0x20 DUP3 ADD SWAP1 POP DUP2 DUP2 SUB PUSH0 DUP4 ADD MSTORE PUSH2 0x152F DUP2 PUSH2 0x14F6 JUMP JUMPDEST SWAP1 POP SWAP2 SWAP1 POP JUMP JUMPDEST PUSH0 PUSH2 0x1540 DUP3 PUSH2 0x1013 JUMP JUMPDEST SWAP1 POP SWAP2 SWAP1 POP JUMP JUMPDEST PUSH2 0x1550 DUP2 PUSH2 0x1536 JUMP JUMPDEST DUP3 MSTORE POP POP JUMP JUMPDEST PUSH0 PUSH2 0x1560 DUP3 PUSH2 0xFCA JUMP JUMPDEST SWAP1 POP SWAP2 SWAP1 POP JUMP JUMPDEST PUSH2 0x1570 DUP2 PUSH2 0x1556 JUMP JUMPDEST DUP3 MSTORE POP POP JUMP JUMPDEST PUSH0 PUSH1 0x60 DUP3 ADD SWAP1 POP PUSH2 0x1589 PUSH0 DUP4 ADD DUP7 PUSH2 0x1547 JUMP JUMPDEST PUSH2 0x1596 PUSH1 0x20 DUP4 ADD DUP6 PUSH2 0x1567 JUMP JUMPDEST PUSH2 0x15A3 PUSH1 0x40 DUP4 ADD DUP5 PUSH2 0xFA2 JUMP JUMPDEST SWAP5 SWAP4 POP POP POP POP JUMP JUMPDEST PUSH32 0x4F6E6C792073656C6C65722063616E20656E642061756374696F6E0000000000 PUSH0 DUP3 ADD MSTORE POP JUMP JUMPDEST PUSH0 PUSH2 0x15DF PUSH1 0x1B DUP4 PUSH2 0x105D JUMP JUMPDEST SWAP2 POP PUSH2 0x15EA DUP3 PUSH2 0x15AB JUMP JUMPDEST PUSH1 0x20 DUP3 ADD SWAP1 POP SWAP2 SWAP1 POP JUMP JUMPDEST PUSH0 PUSH1 0x20 DUP3 ADD SWAP1 POP DUP2 DUP2 SUB PUSH0 DUP4 ADD MSTORE PUSH2 0x160C DUP2 PUSH2 0x15D3 JUMP JUMPDEST SWAP1 POP SWAP2 SWAP1 POP JUMP JUMPDEST PUSH32 0x61756374696F6E206E6F74207374617274656400000000000000000000000000 PUSH0 DUP3 ADD MSTORE POP JUMP JUMPDEST PUSH0 PUSH2 0x1647 PUSH1 0x13 DUP4 PUSH2 0x105D JUMP JUMPDEST SWAP2 POP PUSH2 0x1652 DUP3 PUSH2 0x1613 JUMP JUMPDEST PUSH1 0x20 DUP3 ADD SWAP1 POP SWAP2 SWAP1 POP JUMP JUMPDEST PUSH0 PUSH1 0x20 DUP3 ADD SWAP1 POP DUP2 DUP2 SUB PUSH0 DUP4 ADD MSTORE PUSH2 0x1674 DUP2 PUSH2 0x163B JUMP JUMPDEST SWAP1 POP SWAP2 SWAP1 POP JUMP JUMPDEST PUSH32 0x61756374696F6E20697320616C726561647920636C6F7365642E000000000000 PUSH0 DUP3 ADD MSTORE POP JUMP JUMPDEST PUSH0 PUSH2 0x16AF PUSH1 0x1A DUP4 PUSH2 0x105D JUMP JUMPDEST SWAP2 POP PUSH2 0x16BA DUP3 PUSH2 0x167B JUMP JUMPDEST PUSH1 0x20 DUP3 ADD SWAP1 POP SWAP2 SWAP1 POP JUMP JUMPDEST PUSH0 PUSH1 0x20 DUP3 ADD SWAP1 POP DUP2 DUP2 SUB PUSH0 DUP4 ADD MSTORE PUSH2 0x16DC DUP2 PUSH2 0x16A3 JUMP JUMPDEST SWAP1 POP SWAP2 SWAP1 POP JUMP JUMPDEST PUSH32 0x74696D65206E6F7420657870697265642C63616E277420656E64000000000000 PUSH0 DUP3 ADD MSTORE POP JUMP JUMPDEST PUSH0 PUSH2 0x1717 PUSH1 0x1A DUP4 PUSH2 0x105D JUMP JUMPDEST SWAP2 POP PUSH2 0x1722 DUP3 PUSH2 0x16E3 JUMP JUMPDEST PUSH1 0x20 DUP3 ADD SWAP1 POP SWAP2 SWAP1 POP JUMP JUMPDEST PUSH0 PUSH1 0x20 DUP3 ADD SWAP1 POP DUP2 DUP2 SUB PUSH0 DUP4 ADD MSTORE PUSH2 0x1744 DUP2 PUSH2 0x170B JUMP JUMPDEST SWAP1 POP SWAP2 SWAP1 POP JUMP JUMPDEST PUSH0 PUSH1 0x60 DUP3 ADD SWAP1 POP PUSH2 0x175E PUSH0 DUP4 ADD DUP7 PUSH2 0x1567 JUMP JUMPDEST PUSH2 0x176B PUSH1 0x20 DUP4 ADD DUP6 PUSH2 0x1547 JUMP JUMPDEST PUSH2 0x1778 PUSH1 0x40 DUP4 ADD DUP5 PUSH2 0xFA2 JUMP JUMPDEST SWAP5 SWAP4 POP POP POP POP JUMP JUMPDEST PUSH0 PUSH1 0x40 DUP3 ADD SWAP1 POP PUSH2 0x1793 PUSH0 DUP4 ADD DUP6 PUSH2 0x1567 JUMP JUMPDEST PUSH2 0x17A0 PUSH1 0x20 DUP4 ADD DUP5 PUSH2 0xFA2 JUMP JUMPDEST SWAP4 SWAP3 POP POP POP JUMP INVALID LOG2 PUSH5 0x6970667358 0x22 SLT KECCAK256 BLOBBASEFEE 0xCB RETURNDATACOPY XOR CALLDATASIZE 0xBF PUSH17 0x3CF56CE47284A39FF55FB73FCA359D493C CHAINID SWAP6 0xE6 0x29 0xAE SWAP1 PUSH3 0x1C6473 PUSH16 0x6C634300081A00330000000000000000 "
				},
				"gasEstimates": {
					"creation": {
						"codeDepositCost": "1221800",
						"executionCost": "infinite",
						"totalCost": "infinite"
					},
					"external": {
						"bid()": "infinite",
						"duration()": "infinite",
						"endAt()": "2447",
						"endAuction()": "infinite",
						"highestPrice()": "2426",
						"nft()": "infinite",
						"startAt()": "2469",
						"startAuction()": "infinite",
						"startingPrice()": "infinite",
						"withdraw()": "infinite"
					}
				},
				"methodIdentifiers": {
					"bid()": "1998aeef",
					"duration()": "0fb5a6b4",
					"endAt()": "7cc3ae8c",
					"endAuction()": "fe67a54b",
					"highestPrice()": "0e8670e0",
					"nft()": "47ccca02",
					"startAt()": "c7446565",
					"startAuction()": "6b64c769",
					"startingPrice()": "d6fbf202",
					"withdraw()": "3ccfd60b"
				}
			},
			"storageLayout": {
				"storage": [
					{
						"astId": 33,
						"contract": "EnglishAuction.sol:EnglishAuction",
						"label": "seller",
						"offset": 0,
						"slot": "0",
						"type": "t_address_payable"
					},
					{
						"astId": 35,
						"contract": "EnglishAuction.sol:EnglishAuction",
						"label": "highestBidder",
						"offset": 0,
						"slot": "1",
						"type": "t_address"
					},
					{
						"astId": 39,
						"contract": "EnglishAuction.sol:EnglishAuction",
						"label": "highestPrice",
						"offset": 0,
						"slot": "2",
						"type": "t_uint256"
					},
					{
						"astId": 41,
						"contract": "EnglishAuction.sol:EnglishAuction",
						"label": "startAt",
						"offset": 0,
						"slot": "3",
						"type": "t_uint256"
					},
					{
						"astId": 45,
						"contract": "EnglishAuction.sol:EnglishAuction",
						"label": "endAt",
						"offset": 0,
						"slot": "4",
						"type": "t_uint256"
					},
					{
						"astId": 52,
						"contract": "EnglishAuction.sol:EnglishAuction",
						"label": "isStart",
						"offset": 0,
						"slot": "5",
						"type": "t_bool"
					},
					{
						"astId": 54,
						"contract": "EnglishAuction.sol:EnglishAuction",
						"label": "isClosed",
						"offset": 1,
						"slot": "5",
						"type": "t_bool"
					},
					{
						"astId": 58,
						"contract": "EnglishAuction.sol:EnglishAuction",
						"label": "bids",
						"offset": 0,
						"slot": "6",
						"type": "t_mapping(t_address,t_uint256)"
					}
				],
				"types": {
					"t_address": {
						"encoding": "inplace",
						"label": "address",
						"numberOfBytes": "20"
					},
					"t_address_payable": {
						"encoding": "inplace",
						"label": "address payable",
						"numberOfBytes": "20"
					},
					"t_bool": {
						"encoding": "inplace",
						"label": "bool",
						"numberOfBytes": "1"
					},
					"t_mapping(t_address,t_uint256)": {
						"encoding": "mapping",
						"key": "t_address",
						"label": "mapping(address => uint256)",
						"numberOfBytes": "32",
						"value": "t_uint256"
					},
					"t_uint256": {
						"encoding": "inplace",
						"label": "uint256",
						"numberOfBytes": "32"
					}
				}
			},
			"userdoc": {
				"kind": "user",
				"methods": {},
				"version": 1
			}
		}
	}
}