{
	"enum.sol": {
		"MyEnum": {
			"abi": [
				{
					"inputs": [
						{
							"internalType": "address",
							"name": "_owner",
							"type": "address"
						}
					],
					"name": "addOrder",
					"outputs": [],
					"stateMutability": "nonpayable",
					"type": "function"
				},
				{
					"inputs": [
						{
							"internalType": "address",
							"name": "_owner",
							"type": "address"
						}
					],
					"name": "getOrderStatus",
					"outputs": [
						{
							"internalType": "enum MyEnum.OrderStatus",
							"name": "ret",
							"type": "uint8"
						}
					],
					"stateMutability": "view",
					"type": "function"
				},
				{
					"inputs": [
						{
							"internalType": "uint256",
							"name": "",
							"type": "uint256"
						}
					],
					"name": "orders",
					"outputs": [
						{
							"internalType": "address",
							"name": "owner",
							"type": "address"
						},
						{
							"internalType": "enum MyEnum.OrderStatus",
							"name": "status",
							"type": "uint8"
						}
					],
					"stateMutability": "view",
					"type": "function"
				},
				{
					"inputs": [
						{
							"internalType": "address",
							"name": "_owner",
							"type": "address"
						}
					],
					"name": "resetOrderStatus",
					"outputs": [],
					"stateMutability": "nonpayable",
					"type": "function"
				},
				{
					"inputs": [],
					"name": "testmax",
					"outputs": [
						{
							"internalType": "enum MyEnum.OrderStatus",
							"name": "",
							"type": "uint8"
						}
					],
					"stateMutability": "pure",
					"type": "function"
				},
				{
					"inputs": [],
					"name": "testmin",
					"outputs": [
						{
							"internalType": "enum MyEnum.OrderStatus",
							"name": "",
							"type": "uint8"
						}
					],
					"stateMutability": "pure",
					"type": "function"
				},
				{
					"inputs": [
						{
							"internalType": "address",
							"name": "_owner",
							"type": "address"
						},
						{
							"internalType": "enum MyEnum.OrderStatus",
							"name": "_newStatus",
							"type": "uint8"
						}
					],
					"name": "updateOrderStatus",
					"outputs": [],
					"stateMutability": "nonpayable",
					"type": "function"
				}
			],
			"devdoc": {
				"kind": "dev",
				"methods": {},
				"version": 1
			},
			"evm": {
				"assembly": "    /* \"enum.sol\":60:2189  contract MyEnum{... */\n  mstore(0x40, 0x80)\n  callvalue\n  dup1\n  iszero\n  tag_1\n  jumpi\n  0x00\n  dup1\n  revert\ntag_1:\n  pop\n  dataSize(sub_0)\n  dup1\n  dataOffset(sub_0)\n  0x00\n  codecopy\n  0x00\n  return\nstop\n\nsub_0: assembly {\n        /* \"enum.sol\":60:2189  contract MyEnum{... */\n      mstore(0x40, 0x80)\n      callvalue\n      dup1\n      iszero\n      tag_1\n      jumpi\n      0x00\n      dup1\n      revert\n    tag_1:\n      pop\n      jumpi(tag_2, lt(calldatasize, 0x04))\n      shr(0xe0, calldataload(0x00))\n      dup1\n      0xa85c38ef\n      gt\n      tag_10\n      jumpi\n      dup1\n      0xa85c38ef\n      eq\n      tag_6\n      jumpi\n      dup1\n      0xb4aabc46\n      eq\n      tag_7\n      jumpi\n      dup1\n      0xece1ec33\n      eq\n      tag_8\n      jumpi\n      dup1\n      0xf04d2f71\n      eq\n      tag_9\n      jumpi\n      jump(tag_2)\n    tag_10:\n      dup1\n      0x3d1c40aa\n      eq\n      tag_3\n      jumpi\n      dup1\n      0x654bdcb0\n      eq\n      tag_4\n      jumpi\n      dup1\n      0x6f9d75cd\n      eq\n      tag_5\n      jumpi\n    tag_2:\n      0x00\n      dup1\n      revert\n        /* \"enum.sol\":383:876  function addOrder(address _owner) public {... */\n    tag_3:\n      tag_11\n      0x04\n      dup1\n      calldatasize\n      sub\n      dup2\n      add\n      swap1\n      tag_12\n      swap2\n      swap1\n      tag_13\n      jump\t// in\n    tag_12:\n      tag_14\n      jump\t// in\n    tag_11:\n      stop\n        /* \"enum.sol\":884:1290  function updateOrderStatus(address _owner, OrderStatus _newStatus)public{... */\n    tag_4:\n      tag_15\n      0x04\n      dup1\n      calldatasize\n      sub\n      dup2\n      add\n      swap1\n      tag_16\n      swap2\n      swap1\n      tag_17\n      jump\t// in\n    tag_16:\n      tag_18\n      jump\t// in\n    tag_15:\n      stop\n        /* \"enum.sol\":1298:1701  function getOrderStatus(address _owner) public view returns(OrderStatus ret){... */\n    tag_5:\n      tag_19\n      0x04\n      dup1\n      calldatasize\n      sub\n      dup2\n      add\n      swap1\n      tag_20\n      swap2\n      swap1\n      tag_13\n      jump\t// in\n    tag_20:\n      tag_21\n      jump\t// in\n    tag_19:\n      mload(0x40)\n      tag_22\n      swap2\n      swap1\n      tag_23\n      jump\t// in\n    tag_22:\n      mload(0x40)\n      dup1\n      swap2\n      sub\n      swap1\n      return\n        /* \"enum.sol\":353:374  Order[] public orders */\n    tag_6:\n      tag_24\n      0x04\n      dup1\n      calldatasize\n      sub\n      dup2\n      add\n      swap1\n      tag_25\n      swap2\n      swap1\n      tag_26\n      jump\t// in\n    tag_25:\n      tag_27\n      jump\t// in\n    tag_24:\n      mload(0x40)\n      tag_28\n      swap3\n      swap2\n      swap1\n      tag_29\n      jump\t// in\n    tag_28:\n      mload(0x40)\n      dup1\n      swap2\n      sub\n      swap1\n      return\n        /* \"enum.sol\":1709:2008  function resetOrderStatus(address _owner) public {... */\n    tag_7:\n      tag_30\n      0x04\n      dup1\n      calldatasize\n      sub\n      dup2\n      add\n      swap1\n      tag_31\n      swap2\n      swap1\n      tag_13\n      jump\t// in\n    tag_31:\n      tag_32\n      jump\t// in\n    tag_30:\n      stop\n        /* \"enum.sol\":2104:2186  function testmax() public pure returns(OrderStatus){return type(OrderStatus).max;} */\n    tag_8:\n      tag_33\n      tag_34\n      jump\t// in\n    tag_33:\n      mload(0x40)\n      tag_35\n      swap2\n      swap1\n      tag_23\n      jump\t// in\n    tag_35:\n      mload(0x40)\n      dup1\n      swap2\n      sub\n      swap1\n      return\n        /* \"enum.sol\":2016:2098  function testmin() public pure returns(OrderStatus){return type(OrderStatus).min;} */\n    tag_9:\n      tag_36\n      tag_37\n      jump\t// in\n    tag_36:\n      mload(0x40)\n      tag_38\n      swap2\n      swap1\n      tag_23\n      jump\t// in\n    tag_38:\n      mload(0x40)\n      dup1\n      swap2\n      sub\n      swap1\n      return\n        /* \"enum.sol\":383:876  function addOrder(address _owner) public {... */\n    tag_14:\n        /* \"enum.sol\":461:462  0 */\n      0x00\n        /* \"enum.sol\":443:463  _owner != address(0) */\n      0xffffffffffffffffffffffffffffffffffffffff\n      and\n        /* \"enum.sol\":443:449  _owner */\n      dup2\n        /* \"enum.sol\":443:463  _owner != address(0) */\n      0xffffffffffffffffffffffffffffffffffffffff\n      and\n      sub\n        /* \"enum.sol\":435:481  require(_owner != address(0), \"Invalid owner\") */\n      tag_40\n      jumpi\n      mload(0x40)\n      0x08c379a000000000000000000000000000000000000000000000000000000000\n      dup2\n      mstore\n      0x04\n      add\n      tag_41\n      swap1\n      tag_42\n      jump\t// in\n    tag_41:\n      mload(0x40)\n      dup1\n      swap2\n      sub\n      swap1\n      revert\n    tag_40:\n        /* \"enum.sol\":492:502  bool found */\n      0x00\n        /* \"enum.sol\":525:531  uint i */\n      dup1\n        /* \"enum.sol\":521:683  for(uint i = 0; i<orders.length;++i){... */\n    tag_43:\n        /* \"enum.sol\":539:545  orders */\n      0x00\n        /* \"enum.sol\":539:552  orders.length */\n      dup1\n      sload\n      swap1\n      pop\n        /* \"enum.sol\":537:538  i */\n      dup2\n        /* \"enum.sol\":537:552  i<orders.length */\n      lt\n        /* \"enum.sol\":521:683  for(uint i = 0; i<orders.length;++i){... */\n      iszero\n      tag_44\n      jumpi\n        /* \"enum.sol\":585:591  orders */\n      0x00\n        /* \"enum.sol\":592:593  i */\n      dup2\n        /* \"enum.sol\":585:594  orders[i] */\n      dup2\n      sload\n      dup2\n      lt\n      tag_46\n      jumpi\n      tag_47\n      tag_48\n      jump\t// in\n    tag_47:\n    tag_46:\n      swap1\n      0x00\n      mstore\n      keccak256(0x00, 0x20)\n      add\n        /* \"enum.sol\":585:600  orders[i].owner */\n      0x00\n      add\n      0x00\n      swap1\n      sload\n      swap1\n      0x0100\n      exp\n      swap1\n      div\n      0xffffffffffffffffffffffffffffffffffffffff\n      and\n        /* \"enum.sol\":575:600  _owner == orders[i].owner */\n      0xffffffffffffffffffffffffffffffffffffffff\n      and\n        /* \"enum.sol\":575:581  _owner */\n      dup4\n        /* \"enum.sol\":575:600  _owner == orders[i].owner */\n      0xffffffffffffffffffffffffffffffffffffffff\n      and\n      sub\n        /* \"enum.sol\":572:672  if(_owner == orders[i].owner){... */\n      tag_50\n      jumpi\n        /* \"enum.sol\":628:632  true */\n      0x01\n        /* \"enum.sol\":620:632  found = true */\n      swap2\n      pop\n        /* \"enum.sol\":651:656  break */\n      jump(tag_44)\n        /* \"enum.sol\":572:672  if(_owner == orders[i].owner){... */\n    tag_50:\n        /* \"enum.sol\":553:556  ++i */\n      dup1\n      0x01\n      add\n      swap1\n      pop\n        /* \"enum.sol\":521:683  for(uint i = 0; i<orders.length;++i){... */\n      jump(tag_43)\n    tag_44:\n      pop\n        /* \"enum.sol\":702:707  found */\n      dup1\n        /* \"enum.sol\":701:707  !found */\n      iszero\n        /* \"enum.sol\":693:750  require(!found, \"This owner's order has already exists.\") */\n      tag_51\n      jumpi\n      mload(0x40)\n      0x08c379a000000000000000000000000000000000000000000000000000000000\n      dup2\n      mstore\n      0x04\n      add\n      tag_52\n      swap1\n      tag_53\n      jump\t// in\n    tag_52:\n      mload(0x40)\n      dup1\n      swap2\n      sub\n      swap1\n      revert\n    tag_51:\n        /* \"enum.sol\":761:782  Order memory newOrder */\n      0x00\n        /* \"enum.sol\":785:836  Order({owner: _owner, status: OrderStatus.Pending}) */\n      mload(0x40)\n      dup1\n      0x40\n      add\n      0x40\n      mstore\n      dup1\n        /* \"enum.sol\":799:805  _owner */\n      dup5\n        /* \"enum.sol\":785:836  Order({owner: _owner, status: OrderStatus.Pending}) */\n      0xffffffffffffffffffffffffffffffffffffffff\n      and\n      dup2\n      mstore\n      0x20\n      add\n        /* \"enum.sol\":815:834  OrderStatus.Pending */\n      0x01\n        /* \"enum.sol\":785:836  Order({owner: _owner, status: OrderStatus.Pending}) */\n      0x05\n      dup2\n      gt\n      iszero\n      tag_54\n      jumpi\n      tag_55\n      tag_56\n      jump\t// in\n    tag_55:\n    tag_54:\n      dup2\n      mstore\n      pop\n        /* \"enum.sol\":761:836  Order memory newOrder = Order({owner: _owner, status: OrderStatus.Pending}) */\n      swap1\n      pop\n        /* \"enum.sol\":847:853  orders */\n      0x00\n        /* \"enum.sol\":859:867  newOrder */\n      dup2\n        /* \"enum.sol\":847:868  orders.push(newOrder) */\n      swap1\n      dup1\n      0x01\n      dup2\n      sload\n      add\n      dup1\n      dup3\n      sstore\n      dup1\n      swap2\n      pop\n      pop\n      0x01\n      swap1\n      sub\n      swap1\n      0x00\n      mstore\n      keccak256(0x00, 0x20)\n      add\n      0x00\n      swap1\n      swap2\n      swap1\n      swap2\n      swap1\n      swap2\n      pop\n      0x00\n      dup3\n      add\n      mload\n      dup2\n      0x00\n      add\n      exp(0x0100, 0x00)\n      dup2\n      sload\n      dup2\n      0xffffffffffffffffffffffffffffffffffffffff\n      mul\n      not\n      and\n      swap1\n      dup4\n      0xffffffffffffffffffffffffffffffffffffffff\n      and\n      mul\n      or\n      swap1\n      sstore\n      pop\n      0x20\n      dup3\n      add\n      mload\n      dup2\n      0x00\n      add\n      exp(0x0100, 0x14)\n      dup2\n      sload\n      dup2\n      0xff\n      mul\n      not\n      and\n      swap1\n      dup4\n      0x05\n      dup2\n      gt\n      iszero\n      tag_58\n      jumpi\n      tag_59\n      tag_56\n      jump\t// in\n    tag_59:\n    tag_58:\n      mul\n      or\n      swap1\n      sstore\n      pop\n      pop\n      pop\n        /* \"enum.sol\":424:876  {... */\n      pop\n      pop\n        /* \"enum.sol\":383:876  function addOrder(address _owner) public {... */\n      pop\n      jump\t// out\n        /* \"enum.sol\":884:1290  function updateOrderStatus(address _owner, OrderStatus _newStatus)public{... */\n    tag_18:\n        /* \"enum.sol\":967:977  bool found */\n      0x00\n        /* \"enum.sol\":1000:1006  uint i */\n      dup1\n        /* \"enum.sol\":996:1206  for(uint i = 0; i<orders.length;++i){... */\n    tag_61:\n        /* \"enum.sol\":1014:1020  orders */\n      0x00\n        /* \"enum.sol\":1014:1027  orders.length */\n      dup1\n      sload\n      swap1\n      pop\n        /* \"enum.sol\":1012:1013  i */\n      dup2\n        /* \"enum.sol\":1012:1027  i<orders.length */\n      lt\n        /* \"enum.sol\":996:1206  for(uint i = 0; i<orders.length;++i){... */\n      iszero\n      tag_62\n      jumpi\n        /* \"enum.sol\":1060:1066  orders */\n      0x00\n        /* \"enum.sol\":1067:1068  i */\n      dup2\n        /* \"enum.sol\":1060:1069  orders[i] */\n      dup2\n      sload\n      dup2\n      lt\n      tag_64\n      jumpi\n      tag_65\n      tag_48\n      jump\t// in\n    tag_65:\n    tag_64:\n      swap1\n      0x00\n      mstore\n      keccak256(0x00, 0x20)\n      add\n        /* \"enum.sol\":1060:1075  orders[i].owner */\n      0x00\n      add\n      0x00\n      swap1\n      sload\n      swap1\n      0x0100\n      exp\n      swap1\n      div\n      0xffffffffffffffffffffffffffffffffffffffff\n      and\n        /* \"enum.sol\":1050:1075  _owner == orders[i].owner */\n      0xffffffffffffffffffffffffffffffffffffffff\n      and\n        /* \"enum.sol\":1050:1056  _owner */\n      dup5\n        /* \"enum.sol\":1050:1075  _owner == orders[i].owner */\n      0xffffffffffffffffffffffffffffffffffffffff\n      and\n      sub\n        /* \"enum.sol\":1047:1195  if(_owner == orders[i].owner){... */\n      tag_67\n      jumpi\n        /* \"enum.sol\":1103:1107  true */\n      0x01\n        /* \"enum.sol\":1095:1107  found = true */\n      swap2\n      pop\n        /* \"enum.sol\":1145:1155  _newStatus */\n      dup3\n        /* \"enum.sol\":1126:1132  orders */\n      0x00\n        /* \"enum.sol\":1133:1134  i */\n      dup3\n        /* \"enum.sol\":1126:1135  orders[i] */\n      dup2\n      sload\n      dup2\n      lt\n      tag_68\n      jumpi\n      tag_69\n      tag_48\n      jump\t// in\n    tag_69:\n    tag_68:\n      swap1\n      0x00\n      mstore\n      keccak256(0x00, 0x20)\n      add\n        /* \"enum.sol\":1126:1142  orders[i].status */\n      0x00\n      add\n      0x14\n        /* \"enum.sol\":1126:1155  orders[i].status = _newStatus */\n      0x0100\n      exp\n      dup2\n      sload\n      dup2\n      0xff\n      mul\n      not\n      and\n      swap1\n      dup4\n      0x05\n      dup2\n      gt\n      iszero\n      tag_71\n      jumpi\n      tag_72\n      tag_56\n      jump\t// in\n    tag_72:\n    tag_71:\n      mul\n      or\n      swap1\n      sstore\n      pop\n        /* \"enum.sol\":1174:1179  break */\n      jump(tag_62)\n        /* \"enum.sol\":1047:1195  if(_owner == orders[i].owner){... */\n    tag_67:\n        /* \"enum.sol\":1028:1031  ++i */\n      dup1\n      0x01\n      add\n      swap1\n      pop\n        /* \"enum.sol\":996:1206  for(uint i = 0; i<orders.length;++i){... */\n      jump(tag_61)\n    tag_62:\n      pop\n        /* \"enum.sol\":1224:1229  found */\n      dup1\n        /* \"enum.sol\":1216:1282  require(found, \"The order specified by the address is not found.\") */\n      tag_73\n      jumpi\n      mload(0x40)\n      0x08c379a000000000000000000000000000000000000000000000000000000000\n      dup2\n      mstore\n      0x04\n      add\n      tag_74\n      swap1\n      tag_75\n      jump\t// in\n    tag_74:\n      mload(0x40)\n      dup1\n      swap2\n      sub\n      swap1\n      revert\n    tag_73:\n        /* \"enum.sol\":956:1290  {... */\n      pop\n        /* \"enum.sol\":884:1290  function updateOrderStatus(address _owner, OrderStatus _newStatus)public{... */\n      pop\n      pop\n      jump\t// out\n        /* \"enum.sol\":1298:1701  function getOrderStatus(address _owner) public view returns(OrderStatus ret){... */\n    tag_21:\n        /* \"enum.sol\":1358:1373  OrderStatus ret */\n      0x00\n        /* \"enum.sol\":1385:1395  bool found */\n      dup1\n        /* \"enum.sol\":1398:1403  false */\n      0x00\n        /* \"enum.sol\":1385:1403  bool found = false */\n      swap1\n      pop\n        /* \"enum.sol\":1418:1424  uint i */\n      0x00\n        /* \"enum.sol\":1414:1617  for(uint i = 0; i<orders.length;++i){... */\n    tag_77:\n        /* \"enum.sol\":1432:1438  orders */\n      0x00\n        /* \"enum.sol\":1432:1445  orders.length */\n      dup1\n      sload\n      swap1\n      pop\n        /* \"enum.sol\":1430:1431  i */\n      dup2\n        /* \"enum.sol\":1430:1445  i<orders.length */\n      lt\n        /* \"enum.sol\":1414:1617  for(uint i = 0; i<orders.length;++i){... */\n      iszero\n      tag_78\n      jumpi\n        /* \"enum.sol\":1478:1484  orders */\n      0x00\n        /* \"enum.sol\":1485:1486  i */\n      dup2\n        /* \"enum.sol\":1478:1487  orders[i] */\n      dup2\n      sload\n      dup2\n      lt\n      tag_80\n      jumpi\n      tag_81\n      tag_48\n      jump\t// in\n    tag_81:\n    tag_80:\n      swap1\n      0x00\n      mstore\n      keccak256(0x00, 0x20)\n      add\n        /* \"enum.sol\":1478:1493  orders[i].owner */\n      0x00\n      add\n      0x00\n      swap1\n      sload\n      swap1\n      0x0100\n      exp\n      swap1\n      div\n      0xffffffffffffffffffffffffffffffffffffffff\n      and\n        /* \"enum.sol\":1468:1493  _owner == orders[i].owner */\n      0xffffffffffffffffffffffffffffffffffffffff\n      and\n        /* \"enum.sol\":1468:1474  _owner */\n      dup5\n        /* \"enum.sol\":1468:1493  _owner == orders[i].owner */\n      0xffffffffffffffffffffffffffffffffffffffff\n      and\n      sub\n        /* \"enum.sol\":1465:1606  if(_owner == orders[i].owner){... */\n      tag_83\n      jumpi\n        /* \"enum.sol\":1521:1525  true */\n      0x01\n        /* \"enum.sol\":1513:1525  found = true */\n      swap2\n      pop\n        /* \"enum.sol\":1550:1556  orders */\n      0x00\n        /* \"enum.sol\":1557:1558  i */\n      dup2\n        /* \"enum.sol\":1550:1559  orders[i] */\n      dup2\n      sload\n      dup2\n      lt\n      tag_84\n      jumpi\n      tag_85\n      tag_48\n      jump\t// in\n    tag_85:\n    tag_84:\n      swap1\n      0x00\n      mstore\n      keccak256(0x00, 0x20)\n      add\n        /* \"enum.sol\":1550:1566  orders[i].status */\n      0x00\n      add\n      0x14\n      swap1\n      sload\n      swap1\n      0x0100\n      exp\n      swap1\n      div\n      0xff\n      and\n        /* \"enum.sol\":1544:1566  ret = orders[i].status */\n      swap3\n      pop\n        /* \"enum.sol\":1585:1590  break */\n      jump(tag_78)\n        /* \"enum.sol\":1465:1606  if(_owner == orders[i].owner){... */\n    tag_83:\n        /* \"enum.sol\":1446:1449  ++i */\n      dup1\n      0x01\n      add\n      swap1\n      pop\n        /* \"enum.sol\":1414:1617  for(uint i = 0; i<orders.length;++i){... */\n      jump(tag_77)\n    tag_78:\n      pop\n        /* \"enum.sol\":1635:1640  found */\n      dup1\n        /* \"enum.sol\":1627:1693  require(found, \"The order specified by the address is not found.\") */\n      tag_87\n      jumpi\n      mload(0x40)\n      0x08c379a000000000000000000000000000000000000000000000000000000000\n      dup2\n      mstore\n      0x04\n      add\n      tag_88\n      swap1\n      tag_75\n      jump\t// in\n    tag_88:\n      mload(0x40)\n      dup1\n      swap2\n      sub\n      swap1\n      revert\n    tag_87:\n        /* \"enum.sol\":1374:1701  {... */\n      pop\n        /* \"enum.sol\":1298:1701  function getOrderStatus(address _owner) public view returns(OrderStatus ret){... */\n      swap2\n      swap1\n      pop\n      jump\t// out\n        /* \"enum.sol\":353:374  Order[] public orders */\n    tag_27:\n      0x00\n      dup2\n      dup2\n      sload\n      dup2\n      lt\n      tag_89\n      jumpi\n      0x00\n      dup1\n      revert\n    tag_89:\n      swap1\n      0x00\n      mstore\n      keccak256(0x00, 0x20)\n      add\n      0x00\n      swap2\n      pop\n      swap1\n      pop\n      dup1\n      0x00\n      add\n      0x00\n      swap1\n      sload\n      swap1\n      0x0100\n      exp\n      swap1\n      div\n      0xffffffffffffffffffffffffffffffffffffffff\n      and\n      swap1\n      dup1\n      0x00\n      add\n      0x14\n      swap1\n      sload\n      swap1\n      0x0100\n      exp\n      swap1\n      div\n      0xff\n      and\n      swap1\n      pop\n      dup3\n      jump\t// out\n        /* \"enum.sol\":1709:2008  function resetOrderStatus(address _owner) public {... */\n    tag_32:\n        /* \"enum.sol\":1768:1778  bool found */\n      0x00\n        /* \"enum.sol\":1801:1807  uint i */\n      dup1\n        /* \"enum.sol\":1797:2001  for(uint i = 0; i<orders.length;++i){... */\n    tag_92:\n        /* \"enum.sol\":1815:1821  orders */\n      0x00\n        /* \"enum.sol\":1815:1828  orders.length */\n      dup1\n      sload\n      swap1\n      pop\n        /* \"enum.sol\":1813:1814  i */\n      dup2\n        /* \"enum.sol\":1813:1828  i<orders.length */\n      lt\n        /* \"enum.sol\":1797:2001  for(uint i = 0; i<orders.length;++i){... */\n      iszero\n      tag_93\n      jumpi\n        /* \"enum.sol\":1861:1867  orders */\n      0x00\n        /* \"enum.sol\":1868:1869  i */\n      dup2\n        /* \"enum.sol\":1861:1870  orders[i] */\n      dup2\n      sload\n      dup2\n      lt\n      tag_95\n      jumpi\n      tag_96\n      tag_48\n      jump\t// in\n    tag_96:\n    tag_95:\n      swap1\n      0x00\n      mstore\n      keccak256(0x00, 0x20)\n      add\n        /* \"enum.sol\":1861:1876  orders[i].owner */\n      0x00\n      add\n      0x00\n      swap1\n      sload\n      swap1\n      0x0100\n      exp\n      swap1\n      div\n      0xffffffffffffffffffffffffffffffffffffffff\n      and\n        /* \"enum.sol\":1851:1876  _owner == orders[i].owner */\n      0xffffffffffffffffffffffffffffffffffffffff\n      and\n        /* \"enum.sol\":1851:1857  _owner */\n      dup4\n        /* \"enum.sol\":1851:1876  _owner == orders[i].owner */\n      0xffffffffffffffffffffffffffffffffffffffff\n      and\n      sub\n        /* \"enum.sol\":1848:1990  if(_owner == orders[i].owner){... */\n      tag_98\n      jumpi\n        /* \"enum.sol\":1904:1908  true */\n      0x01\n        /* \"enum.sol\":1896:1908  found = true */\n      swap2\n      pop\n        /* \"enum.sol\":1934:1940  orders */\n      0x00\n        /* \"enum.sol\":1941:1942  i */\n      dup2\n        /* \"enum.sol\":1934:1943  orders[i] */\n      dup2\n      sload\n      dup2\n      lt\n      tag_99\n      jumpi\n      tag_100\n      tag_48\n      jump\t// in\n    tag_100:\n    tag_99:\n      swap1\n      0x00\n      mstore\n      keccak256(0x00, 0x20)\n      add\n        /* \"enum.sol\":1934:1950  orders[i].status */\n      0x00\n      add\n      0x14\n        /* \"enum.sol\":1927:1950  delete orders[i].status */\n      0x0100\n      exp\n      dup2\n      sload\n      swap1\n      0xff\n      mul\n      not\n      and\n      swap1\n      sstore\n        /* \"enum.sol\":1969:1974  break */\n      jump(tag_93)\n        /* \"enum.sol\":1848:1990  if(_owner == orders[i].owner){... */\n    tag_98:\n        /* \"enum.sol\":1829:1832  ++i */\n      dup1\n      0x01\n      add\n      swap1\n      pop\n        /* \"enum.sol\":1797:2001  for(uint i = 0; i<orders.length;++i){... */\n      jump(tag_92)\n    tag_93:\n      pop\n        /* \"enum.sol\":1758:2008  {... */\n      pop\n        /* \"enum.sol\":1709:2008  function resetOrderStatus(address _owner) public {... */\n      pop\n      jump\t// out\n        /* \"enum.sol\":2104:2186  function testmax() public pure returns(OrderStatus){return type(OrderStatus).max;} */\n    tag_34:\n        /* \"enum.sol\":2143:2154  OrderStatus */\n      0x00\n        /* \"enum.sol\":2163:2184  type(OrderStatus).max */\n      0x05\n        /* \"enum.sol\":2156:2184  return type(OrderStatus).max */\n      swap1\n      pop\n        /* \"enum.sol\":2104:2186  function testmax() public pure returns(OrderStatus){return type(OrderStatus).max;} */\n      swap1\n      jump\t// out\n        /* \"enum.sol\":2016:2098  function testmin() public pure returns(OrderStatus){return type(OrderStatus).min;} */\n    tag_37:\n        /* \"enum.sol\":2055:2066  OrderStatus */\n      0x00\n        /* \"enum.sol\":2016:2098  function testmin() public pure returns(OrderStatus){return type(OrderStatus).min;} */\n      swap1\n      jump\t// out\n        /* \"#utility.yul\":88:205   */\n    tag_105:\n        /* \"#utility.yul\":197:198   */\n      0x00\n        /* \"#utility.yul\":194:195   */\n      dup1\n        /* \"#utility.yul\":187:199   */\n      revert\n        /* \"#utility.yul\":334:460   */\n    tag_107:\n        /* \"#utility.yul\":371:378   */\n      0x00\n        /* \"#utility.yul\":411:453   */\n      0xffffffffffffffffffffffffffffffffffffffff\n        /* \"#utility.yul\":404:409   */\n      dup3\n        /* \"#utility.yul\":400:454   */\n      and\n        /* \"#utility.yul\":389:454   */\n      swap1\n      pop\n        /* \"#utility.yul\":334:460   */\n      swap2\n      swap1\n      pop\n      jump\t// out\n        /* \"#utility.yul\":466:562   */\n    tag_108:\n        /* \"#utility.yul\":503:510   */\n      0x00\n        /* \"#utility.yul\":532:556   */\n      tag_134\n        /* \"#utility.yul\":550:555   */\n      dup3\n        /* \"#utility.yul\":532:556   */\n      tag_107\n      jump\t// in\n    tag_134:\n        /* \"#utility.yul\":521:556   */\n      swap1\n      pop\n        /* \"#utility.yul\":466:562   */\n      swap2\n      swap1\n      pop\n      jump\t// out\n        /* \"#utility.yul\":568:690   */\n    tag_109:\n        /* \"#utility.yul\":641:665   */\n      tag_136\n        /* \"#utility.yul\":659:664   */\n      dup2\n        /* \"#utility.yul\":641:665   */\n      tag_108\n      jump\t// in\n    tag_136:\n        /* \"#utility.yul\":634:639   */\n      dup2\n        /* \"#utility.yul\":631:666   */\n      eq\n        /* \"#utility.yul\":621:684   */\n      tag_137\n      jumpi\n        /* \"#utility.yul\":680:681   */\n      0x00\n        /* \"#utility.yul\":677:678   */\n      dup1\n        /* \"#utility.yul\":670:682   */\n      revert\n        /* \"#utility.yul\":621:684   */\n    tag_137:\n        /* \"#utility.yul\":568:690   */\n      pop\n      jump\t// out\n        /* \"#utility.yul\":696:835   */\n    tag_110:\n        /* \"#utility.yul\":742:747   */\n      0x00\n        /* \"#utility.yul\":780:786   */\n      dup2\n        /* \"#utility.yul\":767:787   */\n      calldataload\n        /* \"#utility.yul\":758:787   */\n      swap1\n      pop\n        /* \"#utility.yul\":796:829   */\n      tag_139\n        /* \"#utility.yul\":823:828   */\n      dup2\n        /* \"#utility.yul\":796:829   */\n      tag_109\n      jump\t// in\n    tag_139:\n        /* \"#utility.yul\":696:835   */\n      swap3\n      swap2\n      pop\n      pop\n      jump\t// out\n        /* \"#utility.yul\":841:1170   */\n    tag_13:\n        /* \"#utility.yul\":900:906   */\n      0x00\n        /* \"#utility.yul\":949:951   */\n      0x20\n        /* \"#utility.yul\":937:946   */\n      dup3\n        /* \"#utility.yul\":928:935   */\n      dup5\n        /* \"#utility.yul\":924:947   */\n      sub\n        /* \"#utility.yul\":920:952   */\n      slt\n        /* \"#utility.yul\":917:1036   */\n      iszero\n      tag_141\n      jumpi\n        /* \"#utility.yul\":955:1034   */\n      tag_142\n      tag_105\n      jump\t// in\n    tag_142:\n        /* \"#utility.yul\":917:1036   */\n    tag_141:\n        /* \"#utility.yul\":1075:1076   */\n      0x00\n        /* \"#utility.yul\":1100:1153   */\n      tag_143\n        /* \"#utility.yul\":1145:1152   */\n      dup5\n        /* \"#utility.yul\":1136:1142   */\n      dup3\n        /* \"#utility.yul\":1125:1134   */\n      dup6\n        /* \"#utility.yul\":1121:1143   */\n      add\n        /* \"#utility.yul\":1100:1153   */\n      tag_110\n      jump\t// in\n    tag_143:\n        /* \"#utility.yul\":1090:1153   */\n      swap2\n      pop\n        /* \"#utility.yul\":1046:1163   */\n      pop\n        /* \"#utility.yul\":841:1170   */\n      swap3\n      swap2\n      pop\n      pop\n      jump\t// out\n        /* \"#utility.yul\":1176:1288   */\n    tag_111:\n        /* \"#utility.yul\":1262:1263   */\n      0x06\n        /* \"#utility.yul\":1255:1260   */\n      dup2\n        /* \"#utility.yul\":1252:1264   */\n      lt\n        /* \"#utility.yul\":1242:1282   */\n      tag_145\n      jumpi\n        /* \"#utility.yul\":1278:1279   */\n      0x00\n        /* \"#utility.yul\":1275:1276   */\n      dup1\n        /* \"#utility.yul\":1268:1280   */\n      revert\n        /* \"#utility.yul\":1242:1282   */\n    tag_145:\n        /* \"#utility.yul\":1176:1288   */\n      pop\n      jump\t// out\n        /* \"#utility.yul\":1294:1459   */\n    tag_112:\n        /* \"#utility.yul\":1353:1358   */\n      0x00\n        /* \"#utility.yul\":1391:1397   */\n      dup2\n        /* \"#utility.yul\":1378:1398   */\n      calldataload\n        /* \"#utility.yul\":1369:1398   */\n      swap1\n      pop\n        /* \"#utility.yul\":1407:1453   */\n      tag_147\n        /* \"#utility.yul\":1447:1452   */\n      dup2\n        /* \"#utility.yul\":1407:1453   */\n      tag_111\n      jump\t// in\n    tag_147:\n        /* \"#utility.yul\":1294:1459   */\n      swap3\n      swap2\n      pop\n      pop\n      jump\t// out\n        /* \"#utility.yul\":1465:1965   */\n    tag_17:\n        /* \"#utility.yul\":1546:1552   */\n      0x00\n        /* \"#utility.yul\":1554:1560   */\n      dup1\n        /* \"#utility.yul\":1603:1605   */\n      0x40\n        /* \"#utility.yul\":1591:1600   */\n      dup4\n        /* \"#utility.yul\":1582:1589   */\n      dup6\n        /* \"#utility.yul\":1578:1601   */\n      sub\n        /* \"#utility.yul\":1574:1606   */\n      slt\n        /* \"#utility.yul\":1571:1690   */\n      iszero\n      tag_149\n      jumpi\n        /* \"#utility.yul\":1609:1688   */\n      tag_150\n      tag_105\n      jump\t// in\n    tag_150:\n        /* \"#utility.yul\":1571:1690   */\n    tag_149:\n        /* \"#utility.yul\":1729:1730   */\n      0x00\n        /* \"#utility.yul\":1754:1807   */\n      tag_151\n        /* \"#utility.yul\":1799:1806   */\n      dup6\n        /* \"#utility.yul\":1790:1796   */\n      dup3\n        /* \"#utility.yul\":1779:1788   */\n      dup7\n        /* \"#utility.yul\":1775:1797   */\n      add\n        /* \"#utility.yul\":1754:1807   */\n      tag_110\n      jump\t// in\n    tag_151:\n        /* \"#utility.yul\":1744:1807   */\n      swap3\n      pop\n        /* \"#utility.yul\":1700:1817   */\n      pop\n        /* \"#utility.yul\":1856:1858   */\n      0x20\n        /* \"#utility.yul\":1882:1948   */\n      tag_152\n        /* \"#utility.yul\":1940:1947   */\n      dup6\n        /* \"#utility.yul\":1931:1937   */\n      dup3\n        /* \"#utility.yul\":1920:1929   */\n      dup7\n        /* \"#utility.yul\":1916:1938   */\n      add\n        /* \"#utility.yul\":1882:1948   */\n      tag_112\n      jump\t// in\n    tag_152:\n        /* \"#utility.yul\":1872:1948   */\n      swap2\n      pop\n        /* \"#utility.yul\":1827:1958   */\n      pop\n        /* \"#utility.yul\":1465:1965   */\n      swap3\n      pop\n      swap3\n      swap1\n      pop\n      jump\t// out\n        /* \"#utility.yul\":1971:2151   */\n    tag_56:\n        /* \"#utility.yul\":2019:2096   */\n      0x4e487b7100000000000000000000000000000000000000000000000000000000\n        /* \"#utility.yul\":2016:2017   */\n      0x00\n        /* \"#utility.yul\":2009:2097   */\n      mstore\n        /* \"#utility.yul\":2116:2120   */\n      0x21\n        /* \"#utility.yul\":2113:2114   */\n      0x04\n        /* \"#utility.yul\":2106:2121   */\n      mstore\n        /* \"#utility.yul\":2140:2144   */\n      0x24\n        /* \"#utility.yul\":2137:2138   */\n      0x00\n        /* \"#utility.yul\":2130:2145   */\n      revert\n        /* \"#utility.yul\":2157:2275   */\n    tag_113:\n        /* \"#utility.yul\":2243:2244   */\n      0x06\n        /* \"#utility.yul\":2236:2241   */\n      dup2\n        /* \"#utility.yul\":2233:2245   */\n      lt\n        /* \"#utility.yul\":2223:2269   */\n      tag_155\n      jumpi\n        /* \"#utility.yul\":2249:2267   */\n      tag_156\n      tag_56\n      jump\t// in\n    tag_156:\n        /* \"#utility.yul\":2223:2269   */\n    tag_155:\n        /* \"#utility.yul\":2157:2275   */\n      pop\n      jump\t// out\n        /* \"#utility.yul\":2281:2418   */\n    tag_114:\n        /* \"#utility.yul\":2331:2338   */\n      0x00\n        /* \"#utility.yul\":2360:2365   */\n      dup2\n        /* \"#utility.yul\":2349:2365   */\n      swap1\n      pop\n        /* \"#utility.yul\":2366:2412   */\n      tag_158\n        /* \"#utility.yul\":2406:2411   */\n      dup3\n        /* \"#utility.yul\":2366:2412   */\n      tag_113\n      jump\t// in\n    tag_158:\n        /* \"#utility.yul\":2281:2418   */\n      swap2\n      swap1\n      pop\n      jump\t// out\n        /* \"#utility.yul\":2424:2561   */\n    tag_115:\n        /* \"#utility.yul\":2485:2494   */\n      0x00\n        /* \"#utility.yul\":2518:2555   */\n      tag_160\n        /* \"#utility.yul\":2549:2554   */\n      dup3\n        /* \"#utility.yul\":2518:2555   */\n      tag_114\n      jump\t// in\n    tag_160:\n        /* \"#utility.yul\":2505:2555   */\n      swap1\n      pop\n        /* \"#utility.yul\":2424:2561   */\n      swap2\n      swap1\n      pop\n      jump\t// out\n        /* \"#utility.yul\":2567:2720   */\n    tag_116:\n        /* \"#utility.yul\":2665:2713   */\n      tag_162\n        /* \"#utility.yul\":2707:2712   */\n      dup2\n        /* \"#utility.yul\":2665:2713   */\n      tag_115\n      jump\t// in\n    tag_162:\n        /* \"#utility.yul\":2660:2663   */\n      dup3\n        /* \"#utility.yul\":2653:2714   */\n      mstore\n        /* \"#utility.yul\":2567:2720   */\n      pop\n      pop\n      jump\t// out\n        /* \"#utility.yul\":2726:2970   */\n    tag_23:\n        /* \"#utility.yul\":2830:2834   */\n      0x00\n        /* \"#utility.yul\":2868:2870   */\n      0x20\n        /* \"#utility.yul\":2857:2866   */\n      dup3\n        /* \"#utility.yul\":2853:2871   */\n      add\n        /* \"#utility.yul\":2845:2871   */\n      swap1\n      pop\n        /* \"#utility.yul\":2881:2963   */\n      tag_164\n        /* \"#utility.yul\":2960:2961   */\n      0x00\n        /* \"#utility.yul\":2949:2958   */\n      dup4\n        /* \"#utility.yul\":2945:2962   */\n      add\n        /* \"#utility.yul\":2936:2942   */\n      dup5\n        /* \"#utility.yul\":2881:2963   */\n      tag_116\n      jump\t// in\n    tag_164:\n        /* \"#utility.yul\":2726:2970   */\n      swap3\n      swap2\n      pop\n      pop\n      jump\t// out\n        /* \"#utility.yul\":2976:3053   */\n    tag_117:\n        /* \"#utility.yul\":3013:3020   */\n      0x00\n        /* \"#utility.yul\":3042:3047   */\n      dup2\n        /* \"#utility.yul\":3031:3047   */\n      swap1\n      pop\n        /* \"#utility.yul\":2976:3053   */\n      swap2\n      swap1\n      pop\n      jump\t// out\n        /* \"#utility.yul\":3059:3181   */\n    tag_118:\n        /* \"#utility.yul\":3132:3156   */\n      tag_167\n        /* \"#utility.yul\":3150:3155   */\n      dup2\n        /* \"#utility.yul\":3132:3156   */\n      tag_117\n      jump\t// in\n    tag_167:\n        /* \"#utility.yul\":3125:3130   */\n      dup2\n        /* \"#utility.yul\":3122:3157   */\n      eq\n        /* \"#utility.yul\":3112:3175   */\n      tag_168\n      jumpi\n        /* \"#utility.yul\":3171:3172   */\n      0x00\n        /* \"#utility.yul\":3168:3169   */\n      dup1\n        /* \"#utility.yul\":3161:3173   */\n      revert\n        /* \"#utility.yul\":3112:3175   */\n    tag_168:\n        /* \"#utility.yul\":3059:3181   */\n      pop\n      jump\t// out\n        /* \"#utility.yul\":3187:3326   */\n    tag_119:\n        /* \"#utility.yul\":3233:3238   */\n      0x00\n        /* \"#utility.yul\":3271:3277   */\n      dup2\n        /* \"#utility.yul\":3258:3278   */\n      calldataload\n        /* \"#utility.yul\":3249:3278   */\n      swap1\n      pop\n        /* \"#utility.yul\":3287:3320   */\n      tag_170\n        /* \"#utility.yul\":3314:3319   */\n      dup2\n        /* \"#utility.yul\":3287:3320   */\n      tag_118\n      jump\t// in\n    tag_170:\n        /* \"#utility.yul\":3187:3326   */\n      swap3\n      swap2\n      pop\n      pop\n      jump\t// out\n        /* \"#utility.yul\":3332:3661   */\n    tag_26:\n        /* \"#utility.yul\":3391:3397   */\n      0x00\n        /* \"#utility.yul\":3440:3442   */\n      0x20\n        /* \"#utility.yul\":3428:3437   */\n      dup3\n        /* \"#utility.yul\":3419:3426   */\n      dup5\n        /* \"#utility.yul\":3415:3438   */\n      sub\n        /* \"#utility.yul\":3411:3443   */\n      slt\n        /* \"#utility.yul\":3408:3527   */\n      iszero\n      tag_172\n      jumpi\n        /* \"#utility.yul\":3446:3525   */\n      tag_173\n      tag_105\n      jump\t// in\n    tag_173:\n        /* \"#utility.yul\":3408:3527   */\n    tag_172:\n        /* \"#utility.yul\":3566:3567   */\n      0x00\n        /* \"#utility.yul\":3591:3644   */\n      tag_174\n        /* \"#utility.yul\":3636:3643   */\n      dup5\n        /* \"#utility.yul\":3627:3633   */\n      dup3\n        /* \"#utility.yul\":3616:3625   */\n      dup6\n        /* \"#utility.yul\":3612:3634   */\n      add\n        /* \"#utility.yul\":3591:3644   */\n      tag_119\n      jump\t// in\n    tag_174:\n        /* \"#utility.yul\":3581:3644   */\n      swap2\n      pop\n        /* \"#utility.yul\":3537:3654   */\n      pop\n        /* \"#utility.yul\":3332:3661   */\n      swap3\n      swap2\n      pop\n      pop\n      jump\t// out\n        /* \"#utility.yul\":3667:3785   */\n    tag_120:\n        /* \"#utility.yul\":3754:3778   */\n      tag_176\n        /* \"#utility.yul\":3772:3777   */\n      dup2\n        /* \"#utility.yul\":3754:3778   */\n      tag_108\n      jump\t// in\n    tag_176:\n        /* \"#utility.yul\":3749:3752   */\n      dup3\n        /* \"#utility.yul\":3742:3779   */\n      mstore\n        /* \"#utility.yul\":3667:3785   */\n      pop\n      pop\n      jump\t// out\n        /* \"#utility.yul\":3791:4145   */\n    tag_29:\n        /* \"#utility.yul\":3923:3927   */\n      0x00\n        /* \"#utility.yul\":3961:3963   */\n      0x40\n        /* \"#utility.yul\":3950:3959   */\n      dup3\n        /* \"#utility.yul\":3946:3964   */\n      add\n        /* \"#utility.yul\":3938:3964   */\n      swap1\n      pop\n        /* \"#utility.yul\":3974:4045   */\n      tag_178\n        /* \"#utility.yul\":4042:4043   */\n      0x00\n        /* \"#utility.yul\":4031:4040   */\n      dup4\n        /* \"#utility.yul\":4027:4044   */\n      add\n        /* \"#utility.yul\":4018:4024   */\n      dup6\n        /* \"#utility.yul\":3974:4045   */\n      tag_120\n      jump\t// in\n    tag_178:\n        /* \"#utility.yul\":4055:4138   */\n      tag_179\n        /* \"#utility.yul\":4134:4136   */\n      0x20\n        /* \"#utility.yul\":4123:4132   */\n      dup4\n        /* \"#utility.yul\":4119:4137   */\n      add\n        /* \"#utility.yul\":4110:4116   */\n      dup5\n        /* \"#utility.yul\":4055:4138   */\n      tag_116\n      jump\t// in\n    tag_179:\n        /* \"#utility.yul\":3791:4145   */\n      swap4\n      swap3\n      pop\n      pop\n      pop\n      jump\t// out\n        /* \"#utility.yul\":4151:4320   */\n    tag_121:\n        /* \"#utility.yul\":4235:4246   */\n      0x00\n        /* \"#utility.yul\":4269:4275   */\n      dup3\n        /* \"#utility.yul\":4264:4267   */\n      dup3\n        /* \"#utility.yul\":4257:4276   */\n      mstore\n        /* \"#utility.yul\":4309:4313   */\n      0x20\n        /* \"#utility.yul\":4304:4307   */\n      dup3\n        /* \"#utility.yul\":4300:4314   */\n      add\n        /* \"#utility.yul\":4285:4314   */\n      swap1\n      pop\n        /* \"#utility.yul\":4151:4320   */\n      swap3\n      swap2\n      pop\n      pop\n      jump\t// out\n        /* \"#utility.yul\":4326:4489   */\n    tag_122:\n        /* \"#utility.yul\":4466:4481   */\n      0x496e76616c6964206f776e657200000000000000000000000000000000000000\n        /* \"#utility.yul\":4462:4463   */\n      0x00\n        /* \"#utility.yul\":4454:4460   */\n      dup3\n        /* \"#utility.yul\":4450:4464   */\n      add\n        /* \"#utility.yul\":4443:4482   */\n      mstore\n        /* \"#utility.yul\":4326:4489   */\n      pop\n      jump\t// out\n        /* \"#utility.yul\":4495:4861   */\n    tag_123:\n        /* \"#utility.yul\":4637:4640   */\n      0x00\n        /* \"#utility.yul\":4658:4725   */\n      tag_183\n        /* \"#utility.yul\":4722:4724   */\n      0x0d\n        /* \"#utility.yul\":4717:4720   */\n      dup4\n        /* \"#utility.yul\":4658:4725   */\n      tag_121\n      jump\t// in\n    tag_183:\n        /* \"#utility.yul\":4651:4725   */\n      swap2\n      pop\n        /* \"#utility.yul\":4734:4827   */\n      tag_184\n        /* \"#utility.yul\":4823:4826   */\n      dup3\n        /* \"#utility.yul\":4734:4827   */\n      tag_122\n      jump\t// in\n    tag_184:\n        /* \"#utility.yul\":4852:4854   */\n      0x20\n        /* \"#utility.yul\":4847:4850   */\n      dup3\n        /* \"#utility.yul\":4843:4855   */\n      add\n        /* \"#utility.yul\":4836:4855   */\n      swap1\n      pop\n        /* \"#utility.yul\":4495:4861   */\n      swap2\n      swap1\n      pop\n      jump\t// out\n        /* \"#utility.yul\":4867:5286   */\n    tag_42:\n        /* \"#utility.yul\":5033:5037   */\n      0x00\n        /* \"#utility.yul\":5071:5073   */\n      0x20\n        /* \"#utility.yul\":5060:5069   */\n      dup3\n        /* \"#utility.yul\":5056:5074   */\n      add\n        /* \"#utility.yul\":5048:5074   */\n      swap1\n      pop\n        /* \"#utility.yul\":5120:5129   */\n      dup2\n        /* \"#utility.yul\":5114:5118   */\n      dup2\n        /* \"#utility.yul\":5110:5130   */\n      sub\n        /* \"#utility.yul\":5106:5107   */\n      0x00\n        /* \"#utility.yul\":5095:5104   */\n      dup4\n        /* \"#utility.yul\":5091:5108   */\n      add\n        /* \"#utility.yul\":5084:5131   */\n      mstore\n        /* \"#utility.yul\":5148:5279   */\n      tag_186\n        /* \"#utility.yul\":5274:5278   */\n      dup2\n        /* \"#utility.yul\":5148:5279   */\n      tag_123\n      jump\t// in\n    tag_186:\n        /* \"#utility.yul\":5140:5279   */\n      swap1\n      pop\n        /* \"#utility.yul\":4867:5286   */\n      swap2\n      swap1\n      pop\n      jump\t// out\n        /* \"#utility.yul\":5292:5472   */\n    tag_48:\n        /* \"#utility.yul\":5340:5417   */\n      0x4e487b7100000000000000000000000000000000000000000000000000000000\n        /* \"#utility.yul\":5337:5338   */\n      0x00\n        /* \"#utility.yul\":5330:5418   */\n      mstore\n        /* \"#utility.yul\":5437:5441   */\n      0x32\n        /* \"#utility.yul\":5434:5435   */\n      0x04\n        /* \"#utility.yul\":5427:5442   */\n      mstore\n        /* \"#utility.yul\":5461:5465   */\n      0x24\n        /* \"#utility.yul\":5458:5459   */\n      0x00\n        /* \"#utility.yul\":5451:5466   */\n      revert\n        /* \"#utility.yul\":5478:5703   */\n    tag_124:\n        /* \"#utility.yul\":5618:5652   */\n      0x54686973206f776e65722773206f726465722068617320616c72656164792065\n        /* \"#utility.yul\":5614:5615   */\n      0x00\n        /* \"#utility.yul\":5606:5612   */\n      dup3\n        /* \"#utility.yul\":5602:5616   */\n      add\n        /* \"#utility.yul\":5595:5653   */\n      mstore\n        /* \"#utility.yul\":5687:5695   */\n      0x78697374732e0000000000000000000000000000000000000000000000000000\n        /* \"#utility.yul\":5682:5684   */\n      0x20\n        /* \"#utility.yul\":5674:5680   */\n      dup3\n        /* \"#utility.yul\":5670:5685   */\n      add\n        /* \"#utility.yul\":5663:5696   */\n      mstore\n        /* \"#utility.yul\":5478:5703   */\n      pop\n      jump\t// out\n        /* \"#utility.yul\":5709:6075   */\n    tag_125:\n        /* \"#utility.yul\":5851:5854   */\n      0x00\n        /* \"#utility.yul\":5872:5939   */\n      tag_190\n        /* \"#utility.yul\":5936:5938   */\n      0x26\n        /* \"#utility.yul\":5931:5934   */\n      dup4\n        /* \"#utility.yul\":5872:5939   */\n      tag_121\n      jump\t// in\n    tag_190:\n        /* \"#utility.yul\":5865:5939   */\n      swap2\n      pop\n        /* \"#utility.yul\":5948:6041   */\n      tag_191\n        /* \"#utility.yul\":6037:6040   */\n      dup3\n        /* \"#utility.yul\":5948:6041   */\n      tag_124\n      jump\t// in\n    tag_191:\n        /* \"#utility.yul\":6066:6068   */\n      0x40\n        /* \"#utility.yul\":6061:6064   */\n      dup3\n        /* \"#utility.yul\":6057:6069   */\n      add\n        /* \"#utility.yul\":6050:6069   */\n      swap1\n      pop\n        /* \"#utility.yul\":5709:6075   */\n      swap2\n      swap1\n      pop\n      jump\t// out\n        /* \"#utility.yul\":6081:6500   */\n    tag_53:\n        /* \"#utility.yul\":6247:6251   */\n      0x00\n        /* \"#utility.yul\":6285:6287   */\n      0x20\n        /* \"#utility.yul\":6274:6283   */\n      dup3\n        /* \"#utility.yul\":6270:6288   */\n      add\n        /* \"#utility.yul\":6262:6288   */\n      swap1\n      pop\n        /* \"#utility.yul\":6334:6343   */\n      dup2\n        /* \"#utility.yul\":6328:6332   */\n      dup2\n        /* \"#utility.yul\":6324:6344   */\n      sub\n        /* \"#utility.yul\":6320:6321   */\n      0x00\n        /* \"#utility.yul\":6309:6318   */\n      dup4\n        /* \"#utility.yul\":6305:6322   */\n      add\n        /* \"#utility.yul\":6298:6345   */\n      mstore\n        /* \"#utility.yul\":6362:6493   */\n      tag_193\n        /* \"#utility.yul\":6488:6492   */\n      dup2\n        /* \"#utility.yul\":6362:6493   */\n      tag_125\n      jump\t// in\n    tag_193:\n        /* \"#utility.yul\":6354:6493   */\n      swap1\n      pop\n        /* \"#utility.yul\":6081:6500   */\n      swap2\n      swap1\n      pop\n      jump\t// out\n        /* \"#utility.yul\":6506:6741   */\n    tag_126:\n        /* \"#utility.yul\":6646:6680   */\n      0x546865206f726465722073706563696669656420627920746865206164647265\n        /* \"#utility.yul\":6642:6643   */\n      0x00\n        /* \"#utility.yul\":6634:6640   */\n      dup3\n        /* \"#utility.yul\":6630:6644   */\n      add\n        /* \"#utility.yul\":6623:6681   */\n      mstore\n        /* \"#utility.yul\":6715:6733   */\n      0x7373206973206e6f7420666f756e642e00000000000000000000000000000000\n        /* \"#utility.yul\":6710:6712   */\n      0x20\n        /* \"#utility.yul\":6702:6708   */\n      dup3\n        /* \"#utility.yul\":6698:6713   */\n      add\n        /* \"#utility.yul\":6691:6734   */\n      mstore\n        /* \"#utility.yul\":6506:6741   */\n      pop\n      jump\t// out\n        /* \"#utility.yul\":6747:7113   */\n    tag_127:\n        /* \"#utility.yul\":6889:6892   */\n      0x00\n        /* \"#utility.yul\":6910:6977   */\n      tag_196\n        /* \"#utility.yul\":6974:6976   */\n      0x30\n        /* \"#utility.yul\":6969:6972   */\n      dup4\n        /* \"#utility.yul\":6910:6977   */\n      tag_121\n      jump\t// in\n    tag_196:\n        /* \"#utility.yul\":6903:6977   */\n      swap2\n      pop\n        /* \"#utility.yul\":6986:7079   */\n      tag_197\n        /* \"#utility.yul\":7075:7078   */\n      dup3\n        /* \"#utility.yul\":6986:7079   */\n      tag_126\n      jump\t// in\n    tag_197:\n        /* \"#utility.yul\":7104:7106   */\n      0x40\n        /* \"#utility.yul\":7099:7102   */\n      dup3\n        /* \"#utility.yul\":7095:7107   */\n      add\n        /* \"#utility.yul\":7088:7107   */\n      swap1\n      pop\n        /* \"#utility.yul\":6747:7113   */\n      swap2\n      swap1\n      pop\n      jump\t// out\n        /* \"#utility.yul\":7119:7538   */\n    tag_75:\n        /* \"#utility.yul\":7285:7289   */\n      0x00\n        /* \"#utility.yul\":7323:7325   */\n      0x20\n        /* \"#utility.yul\":7312:7321   */\n      dup3\n        /* \"#utility.yul\":7308:7326   */\n      add\n        /* \"#utility.yul\":7300:7326   */\n      swap1\n      pop\n        /* \"#utility.yul\":7372:7381   */\n      dup2\n        /* \"#utility.yul\":7366:7370   */\n      dup2\n        /* \"#utility.yul\":7362:7382   */\n      sub\n        /* \"#utility.yul\":7358:7359   */\n      0x00\n        /* \"#utility.yul\":7347:7356   */\n      dup4\n        /* \"#utility.yul\":7343:7360   */\n      add\n        /* \"#utility.yul\":7336:7383   */\n      mstore\n        /* \"#utility.yul\":7400:7531   */\n      tag_199\n        /* \"#utility.yul\":7526:7530   */\n      dup2\n        /* \"#utility.yul\":7400:7531   */\n      tag_127\n      jump\t// in\n    tag_199:\n        /* \"#utility.yul\":7392:7531   */\n      swap1\n      pop\n        /* \"#utility.yul\":7119:7538   */\n      swap2\n      swap1\n      pop\n      jump\t// out\n\n    auxdata: 0xa264697066735822122049b3835b77a90dc2b63067b780464cca6f3a4a0fa4bca3fb045312c8878a530d64736f6c634300081a0033\n}\n",
				"bytecode": {
					"linkReferences": {},
					"object": "6080604052348015600e575f80fd5b50610ade8061001c5f395ff3fe608060405234801561000f575f80fd5b506004361061007b575f3560e01c8063a85c38ef11610059578063a85c38ef146100e7578063b4aabc4614610118578063ece1ec3314610134578063f04d2f71146101525761007b565b80633d1c40aa1461007f578063654bdcb01461009b5780636f9d75cd146100b7575b5f80fd5b6100996004803603810190610094919061073b565b610170565b005b6100b560048036038101906100b09190610789565b610391565b005b6100d160048036038101906100cc919061073b565b6104ae565b6040516100de919061083a565b60405180910390f35b61010160048036038101906100fc9190610886565b6105b8565b60405161010f9291906108c0565b60405180910390f35b610132600480360381019061012d919061073b565b61060d565b005b61013c6106d1565b604051610149919061083a565b60405180910390f35b61015a6106d9565b604051610167919061083a565b60405180910390f35b5f73ffffffffffffffffffffffffffffffffffffffff168173ffffffffffffffffffffffffffffffffffffffff16036101de576040517f08c379a00000000000000000000000000000000000000000000000000000000081526004016101d590610941565b60405180910390fd5b5f805b5f80549050811015610270575f8181548110610200576101ff61095f565b5b905f5260205f20015f015f9054906101000a900473ffffffffffffffffffffffffffffffffffffffff1673ffffffffffffffffffffffffffffffffffffffff168373ffffffffffffffffffffffffffffffffffffffff16036102655760019150610270565b8060010190506101e1565b5080156102b2576040517f08c379a00000000000000000000000000000000000000000000000000000000081526004016102a9906109fc565b60405180910390fd5b5f60405180604001604052808473ffffffffffffffffffffffffffffffffffffffff168152602001600160058111156102ee576102ed6107c7565b5b81525090505f81908060018154018082558091505060019003905f5260205f20015f909190919091505f820151815f015f6101000a81548173ffffffffffffffffffffffffffffffffffffffff021916908373ffffffffffffffffffffffffffffffffffffffff1602179055506020820151815f0160146101000a81548160ff02191690836005811115610385576103846107c7565b5b02179055505050505050565b5f805b5f80549050811015610468575f81815481106103b3576103b261095f565b5b905f5260205f20015f015f9054906101000a900473ffffffffffffffffffffffffffffffffffffffff1673ffffffffffffffffffffffffffffffffffffffff168473ffffffffffffffffffffffffffffffffffffffff160361045d5760019150825f82815481106104275761042661095f565b5b905f5260205f20015f0160146101000a81548160ff02191690836005811115610453576104526107c7565b5b0217905550610468565b806001019050610394565b50806104a9576040517f08c379a00000000000000000000000000000000000000000000000000000000081526004016104a090610a8a565b60405180910390fd5b505050565b5f805f90505f5b5f80549050811015610571575f81815481106104d4576104d361095f565b5b905f5260205f20015f015f9054906101000a900473ffffffffffffffffffffffffffffffffffffffff1673ffffffffffffffffffffffffffffffffffffffff168473ffffffffffffffffffffffffffffffffffffffff160361056657600191505f81815481106105475761054661095f565b5b905f5260205f20015f0160149054906101000a900460ff169250610571565b8060010190506104b5565b50806105b2576040517f08c379a00000000000000000000000000000000000000000000000000000000081526004016105a990610a8a565b60405180910390fd5b50919050565b5f81815481106105c6575f80fd5b905f5260205f20015f91509050805f015f9054906101000a900473ffffffffffffffffffffffffffffffffffffffff1690805f0160149054906101000a900460ff16905082565b5f805b5f805490508110156106cc575f818154811061062f5761062e61095f565b5b905f5260205f20015f015f9054906101000a900473ffffffffffffffffffffffffffffffffffffffff1673ffffffffffffffffffffffffffffffffffffffff168373ffffffffffffffffffffffffffffffffffffffff16036106c157600191505f81815481106106a2576106a161095f565b5b905f5260205f20015f0160146101000a81549060ff02191690556106cc565b806001019050610610565b505050565b5f6005905090565b5f90565b5f80fd5b5f73ffffffffffffffffffffffffffffffffffffffff82169050919050565b5f61070a826106e1565b9050919050565b61071a81610700565b8114610724575f80fd5b50565b5f8135905061073581610711565b92915050565b5f602082840312156107505761074f6106dd565b5b5f61075d84828501610727565b91505092915050565b60068110610772575f80fd5b50565b5f8135905061078381610766565b92915050565b5f806040838503121561079f5761079e6106dd565b5b5f6107ac85828601610727565b92505060206107bd85828601610775565b9150509250929050565b7f4e487b71000000000000000000000000000000000000000000000000000000005f52602160045260245ffd5b60068110610805576108046107c7565b5b50565b5f819050610815826107f4565b919050565b5f61082482610808565b9050919050565b6108348161081a565b82525050565b5f60208201905061084d5f83018461082b565b92915050565b5f819050919050565b61086581610853565b811461086f575f80fd5b50565b5f813590506108808161085c565b92915050565b5f6020828403121561089b5761089a6106dd565b5b5f6108a884828501610872565b91505092915050565b6108ba81610700565b82525050565b5f6040820190506108d35f8301856108b1565b6108e0602083018461082b565b9392505050565b5f82825260208201905092915050565b7f496e76616c6964206f776e6572000000000000000000000000000000000000005f82015250565b5f61092b600d836108e7565b9150610936826108f7565b602082019050919050565b5f6020820190508181035f8301526109588161091f565b9050919050565b7f4e487b71000000000000000000000000000000000000000000000000000000005f52603260045260245ffd5b7f54686973206f776e65722773206f726465722068617320616c726561647920655f8201527f78697374732e0000000000000000000000000000000000000000000000000000602082015250565b5f6109e66026836108e7565b91506109f18261098c565b604082019050919050565b5f6020820190508181035f830152610a13816109da565b9050919050565b7f546865206f7264657220737065636966696564206279207468652061646472655f8201527f7373206973206e6f7420666f756e642e00000000000000000000000000000000602082015250565b5f610a746030836108e7565b9150610a7f82610a1a565b604082019050919050565b5f6020820190508181035f830152610aa181610a68565b905091905056fea264697066735822122049b3835b77a90dc2b63067b780464cca6f3a4a0fa4bca3fb045312c8878a530d64736f6c634300081a0033",
					"opcodes": "PUSH1 0x80 PUSH1 0x40 MSTORE CALLVALUE DUP1 ISZERO PUSH1 0xE JUMPI PUSH0 DUP1 REVERT JUMPDEST POP PUSH2 0xADE DUP1 PUSH2 0x1C PUSH0 CODECOPY PUSH0 RETURN INVALID PUSH1 0x80 PUSH1 0x40 MSTORE CALLVALUE DUP1 ISZERO PUSH2 0xF JUMPI PUSH0 DUP1 REVERT JUMPDEST POP PUSH1 0x4 CALLDATASIZE LT PUSH2 0x7B JUMPI PUSH0 CALLDATALOAD PUSH1 0xE0 SHR DUP1 PUSH4 0xA85C38EF GT PUSH2 0x59 JUMPI DUP1 PUSH4 0xA85C38EF EQ PUSH2 0xE7 JUMPI DUP1 PUSH4 0xB4AABC46 EQ PUSH2 0x118 JUMPI DUP1 PUSH4 0xECE1EC33 EQ PUSH2 0x134 JUMPI DUP1 PUSH4 0xF04D2F71 EQ PUSH2 0x152 JUMPI PUSH2 0x7B JUMP JUMPDEST DUP1 PUSH4 0x3D1C40AA EQ PUSH2 0x7F JUMPI DUP1 PUSH4 0x654BDCB0 EQ PUSH2 0x9B JUMPI DUP1 PUSH4 0x6F9D75CD EQ PUSH2 0xB7 JUMPI JUMPDEST PUSH0 DUP1 REVERT JUMPDEST PUSH2 0x99 PUSH1 0x4 DUP1 CALLDATASIZE SUB DUP2 ADD SWAP1 PUSH2 0x94 SWAP2 SWAP1 PUSH2 0x73B JUMP JUMPDEST PUSH2 0x170 JUMP JUMPDEST STOP JUMPDEST PUSH2 0xB5 PUSH1 0x4 DUP1 CALLDATASIZE SUB DUP2 ADD SWAP1 PUSH2 0xB0 SWAP2 SWAP1 PUSH2 0x789 JUMP JUMPDEST PUSH2 0x391 JUMP JUMPDEST STOP JUMPDEST PUSH2 0xD1 PUSH1 0x4 DUP1 CALLDATASIZE SUB DUP2 ADD SWAP1 PUSH2 0xCC SWAP2 SWAP1 PUSH2 0x73B JUMP JUMPDEST PUSH2 0x4AE JUMP JUMPDEST PUSH1 0x40 MLOAD PUSH2 0xDE SWAP2 SWAP1 PUSH2 0x83A JUMP JUMPDEST PUSH1 0x40 MLOAD DUP1 SWAP2 SUB SWAP1 RETURN JUMPDEST PUSH2 0x101 PUSH1 0x4 DUP1 CALLDATASIZE SUB DUP2 ADD SWAP1 PUSH2 0xFC SWAP2 SWAP1 PUSH2 0x886 JUMP JUMPDEST PUSH2 0x5B8 JUMP JUMPDEST PUSH1 0x40 MLOAD PUSH2 0x10F SWAP3 SWAP2 SWAP1 PUSH2 0x8C0 JUMP JUMPDEST PUSH1 0x40 MLOAD DUP1 SWAP2 SUB SWAP1 RETURN JUMPDEST PUSH2 0x132 PUSH1 0x4 DUP1 CALLDATASIZE SUB DUP2 ADD SWAP1 PUSH2 0x12D SWAP2 SWAP1 PUSH2 0x73B JUMP JUMPDEST PUSH2 0x60D JUMP JUMPDEST STOP JUMPDEST PUSH2 0x13C PUSH2 0x6D1 JUMP JUMPDEST PUSH1 0x40 MLOAD PUSH2 0x149 SWAP2 SWAP1 PUSH2 0x83A JUMP JUMPDEST PUSH1 0x40 MLOAD DUP1 SWAP2 SUB SWAP1 RETURN JUMPDEST PUSH2 0x15A PUSH2 0x6D9 JUMP JUMPDEST PUSH1 0x40 MLOAD PUSH2 0x167 SWAP2 SWAP1 PUSH2 0x83A JUMP JUMPDEST PUSH1 0x40 MLOAD DUP1 SWAP2 SUB SWAP1 RETURN JUMPDEST PUSH0 PUSH20 0xFFFFFFFFFFFFFFFFFFFFFFFFFFFFFFFFFFFFFFFF AND DUP2 PUSH20 0xFFFFFFFFFFFFFFFFFFFFFFFFFFFFFFFFFFFFFFFF AND SUB PUSH2 0x1DE JUMPI PUSH1 0x40 MLOAD PUSH32 0x8C379A000000000000000000000000000000000000000000000000000000000 DUP2 MSTORE PUSH1 0x4 ADD PUSH2 0x1D5 SWAP1 PUSH2 0x941 JUMP JUMPDEST PUSH1 0x40 MLOAD DUP1 SWAP2 SUB SWAP1 REVERT JUMPDEST PUSH0 DUP1 JUMPDEST PUSH0 DUP1 SLOAD SWAP1 POP DUP2 LT ISZERO PUSH2 0x270 JUMPI PUSH0 DUP2 DUP2 SLOAD DUP2 LT PUSH2 0x200 JUMPI PUSH2 0x1FF PUSH2 0x95F JUMP JUMPDEST JUMPDEST SWAP1 PUSH0 MSTORE PUSH1 0x20 PUSH0 KECCAK256 ADD PUSH0 ADD PUSH0 SWAP1 SLOAD SWAP1 PUSH2 0x100 EXP SWAP1 DIV PUSH20 0xFFFFFFFFFFFFFFFFFFFFFFFFFFFFFFFFFFFFFFFF AND PUSH20 0xFFFFFFFFFFFFFFFFFFFFFFFFFFFFFFFFFFFFFFFF AND DUP4 PUSH20 0xFFFFFFFFFFFFFFFFFFFFFFFFFFFFFFFFFFFFFFFF AND SUB PUSH2 0x265 JUMPI PUSH1 0x1 SWAP2 POP PUSH2 0x270 JUMP JUMPDEST DUP1 PUSH1 0x1 ADD SWAP1 POP PUSH2 0x1E1 JUMP JUMPDEST POP DUP1 ISZERO PUSH2 0x2B2 JUMPI PUSH1 0x40 MLOAD PUSH32 0x8C379A000000000000000000000000000000000000000000000000000000000 DUP2 MSTORE PUSH1 0x4 ADD PUSH2 0x2A9 SWAP1 PUSH2 0x9FC JUMP JUMPDEST PUSH1 0x40 MLOAD DUP1 SWAP2 SUB SWAP1 REVERT JUMPDEST PUSH0 PUSH1 0x40 MLOAD DUP1 PUSH1 0x40 ADD PUSH1 0x40 MSTORE DUP1 DUP5 PUSH20 0xFFFFFFFFFFFFFFFFFFFFFFFFFFFFFFFFFFFFFFFF AND DUP2 MSTORE PUSH1 0x20 ADD PUSH1 0x1 PUSH1 0x5 DUP2 GT ISZERO PUSH2 0x2EE JUMPI PUSH2 0x2ED PUSH2 0x7C7 JUMP JUMPDEST JUMPDEST DUP2 MSTORE POP SWAP1 POP PUSH0 DUP2 SWAP1 DUP1 PUSH1 0x1 DUP2 SLOAD ADD DUP1 DUP3 SSTORE DUP1 SWAP2 POP POP PUSH1 0x1 SWAP1 SUB SWAP1 PUSH0 MSTORE PUSH1 0x20 PUSH0 KECCAK256 ADD PUSH0 SWAP1 SWAP2 SWAP1 SWAP2 SWAP1 SWAP2 POP PUSH0 DUP3 ADD MLOAD DUP2 PUSH0 ADD PUSH0 PUSH2 0x100 EXP DUP2 SLOAD DUP2 PUSH20 0xFFFFFFFFFFFFFFFFFFFFFFFFFFFFFFFFFFFFFFFF MUL NOT AND SWAP1 DUP4 PUSH20 0xFFFFFFFFFFFFFFFFFFFFFFFFFFFFFFFFFFFFFFFF AND MUL OR SWAP1 SSTORE POP PUSH1 0x20 DUP3 ADD MLOAD DUP2 PUSH0 ADD PUSH1 0x14 PUSH2 0x100 EXP DUP2 SLOAD DUP2 PUSH1 0xFF MUL NOT AND SWAP1 DUP4 PUSH1 0x5 DUP2 GT ISZERO PUSH2 0x385 JUMPI PUSH2 0x384 PUSH2 0x7C7 JUMP JUMPDEST JUMPDEST MUL OR SWAP1 SSTORE POP POP POP POP POP POP JUMP JUMPDEST PUSH0 DUP1 JUMPDEST PUSH0 DUP1 SLOAD SWAP1 POP DUP2 LT ISZERO PUSH2 0x468 JUMPI PUSH0 DUP2 DUP2 SLOAD DUP2 LT PUSH2 0x3B3 JUMPI PUSH2 0x3B2 PUSH2 0x95F JUMP JUMPDEST JUMPDEST SWAP1 PUSH0 MSTORE PUSH1 0x20 PUSH0 KECCAK256 ADD PUSH0 ADD PUSH0 SWAP1 SLOAD SWAP1 PUSH2 0x100 EXP SWAP1 DIV PUSH20 0xFFFFFFFFFFFFFFFFFFFFFFFFFFFFFFFFFFFFFFFF AND PUSH20 0xFFFFFFFFFFFFFFFFFFFFFFFFFFFFFFFFFFFFFFFF AND DUP5 PUSH20 0xFFFFFFFFFFFFFFFFFFFFFFFFFFFFFFFFFFFFFFFF AND SUB PUSH2 0x45D JUMPI PUSH1 0x1 SWAP2 POP DUP3 PUSH0 DUP3 DUP2 SLOAD DUP2 LT PUSH2 0x427 JUMPI PUSH2 0x426 PUSH2 0x95F JUMP JUMPDEST JUMPDEST SWAP1 PUSH0 MSTORE PUSH1 0x20 PUSH0 KECCAK256 ADD PUSH0 ADD PUSH1 0x14 PUSH2 0x100 EXP DUP2 SLOAD DUP2 PUSH1 0xFF MUL NOT AND SWAP1 DUP4 PUSH1 0x5 DUP2 GT ISZERO PUSH2 0x453 JUMPI PUSH2 0x452 PUSH2 0x7C7 JUMP JUMPDEST JUMPDEST MUL OR SWAP1 SSTORE POP PUSH2 0x468 JUMP JUMPDEST DUP1 PUSH1 0x1 ADD SWAP1 POP PUSH2 0x394 JUMP JUMPDEST POP DUP1 PUSH2 0x4A9 JUMPI PUSH1 0x40 MLOAD PUSH32 0x8C379A000000000000000000000000000000000000000000000000000000000 DUP2 MSTORE PUSH1 0x4 ADD PUSH2 0x4A0 SWAP1 PUSH2 0xA8A JUMP JUMPDEST PUSH1 0x40 MLOAD DUP1 SWAP2 SUB SWAP1 REVERT JUMPDEST POP POP POP JUMP JUMPDEST PUSH0 DUP1 PUSH0 SWAP1 POP PUSH0 JUMPDEST PUSH0 DUP1 SLOAD SWAP1 POP DUP2 LT ISZERO PUSH2 0x571 JUMPI PUSH0 DUP2 DUP2 SLOAD DUP2 LT PUSH2 0x4D4 JUMPI PUSH2 0x4D3 PUSH2 0x95F JUMP JUMPDEST JUMPDEST SWAP1 PUSH0 MSTORE PUSH1 0x20 PUSH0 KECCAK256 ADD PUSH0 ADD PUSH0 SWAP1 SLOAD SWAP1 PUSH2 0x100 EXP SWAP1 DIV PUSH20 0xFFFFFFFFFFFFFFFFFFFFFFFFFFFFFFFFFFFFFFFF AND PUSH20 0xFFFFFFFFFFFFFFFFFFFFFFFFFFFFFFFFFFFFFFFF AND DUP5 PUSH20 0xFFFFFFFFFFFFFFFFFFFFFFFFFFFFFFFFFFFFFFFF AND SUB PUSH2 0x566 JUMPI PUSH1 0x1 SWAP2 POP PUSH0 DUP2 DUP2 SLOAD DUP2 LT PUSH2 0x547 JUMPI PUSH2 0x546 PUSH2 0x95F JUMP JUMPDEST JUMPDEST SWAP1 PUSH0 MSTORE PUSH1 0x20 PUSH0 KECCAK256 ADD PUSH0 ADD PUSH1 0x14 SWAP1 SLOAD SWAP1 PUSH2 0x100 EXP SWAP1 DIV PUSH1 0xFF AND SWAP3 POP PUSH2 0x571 JUMP JUMPDEST DUP1 PUSH1 0x1 ADD SWAP1 POP PUSH2 0x4B5 JUMP JUMPDEST POP DUP1 PUSH2 0x5B2 JUMPI PUSH1 0x40 MLOAD PUSH32 0x8C379A000000000000000000000000000000000000000000000000000000000 DUP2 MSTORE PUSH1 0x4 ADD PUSH2 0x5A9 SWAP1 PUSH2 0xA8A JUMP JUMPDEST PUSH1 0x40 MLOAD DUP1 SWAP2 SUB SWAP1 REVERT JUMPDEST POP SWAP2 SWAP1 POP JUMP JUMPDEST PUSH0 DUP2 DUP2 SLOAD DUP2 LT PUSH2 0x5C6 JUMPI PUSH0 DUP1 REVERT JUMPDEST SWAP1 PUSH0 MSTORE PUSH1 0x20 PUSH0 KECCAK256 ADD PUSH0 SWAP2 POP SWAP1 POP DUP1 PUSH0 ADD PUSH0 SWAP1 SLOAD SWAP1 PUSH2 0x100 EXP SWAP1 DIV PUSH20 0xFFFFFFFFFFFFFFFFFFFFFFFFFFFFFFFFFFFFFFFF AND SWAP1 DUP1 PUSH0 ADD PUSH1 0x14 SWAP1 SLOAD SWAP1 PUSH2 0x100 EXP SWAP1 DIV PUSH1 0xFF AND SWAP1 POP DUP3 JUMP JUMPDEST PUSH0 DUP1 JUMPDEST PUSH0 DUP1 SLOAD SWAP1 POP DUP2 LT ISZERO PUSH2 0x6CC JUMPI PUSH0 DUP2 DUP2 SLOAD DUP2 LT PUSH2 0x62F JUMPI PUSH2 0x62E PUSH2 0x95F JUMP JUMPDEST JUMPDEST SWAP1 PUSH0 MSTORE PUSH1 0x20 PUSH0 KECCAK256 ADD PUSH0 ADD PUSH0 SWAP1 SLOAD SWAP1 PUSH2 0x100 EXP SWAP1 DIV PUSH20 0xFFFFFFFFFFFFFFFFFFFFFFFFFFFFFFFFFFFFFFFF AND PUSH20 0xFFFFFFFFFFFFFFFFFFFFFFFFFFFFFFFFFFFFFFFF AND DUP4 PUSH20 0xFFFFFFFFFFFFFFFFFFFFFFFFFFFFFFFFFFFFFFFF AND SUB PUSH2 0x6C1 JUMPI PUSH1 0x1 SWAP2 POP PUSH0 DUP2 DUP2 SLOAD DUP2 LT PUSH2 0x6A2 JUMPI PUSH2 0x6A1 PUSH2 0x95F JUMP JUMPDEST JUMPDEST SWAP1 PUSH0 MSTORE PUSH1 0x20 PUSH0 KECCAK256 ADD PUSH0 ADD PUSH1 0x14 PUSH2 0x100 EXP DUP2 SLOAD SWAP1 PUSH1 0xFF MUL NOT AND SWAP1 SSTORE PUSH2 0x6CC JUMP JUMPDEST DUP1 PUSH1 0x1 ADD SWAP1 POP PUSH2 0x610 JUMP JUMPDEST POP POP POP JUMP JUMPDEST PUSH0 PUSH1 0x5 SWAP1 POP SWAP1 JUMP JUMPDEST PUSH0 SWAP1 JUMP JUMPDEST PUSH0 DUP1 REVERT JUMPDEST PUSH0 PUSH20 0xFFFFFFFFFFFFFFFFFFFFFFFFFFFFFFFFFFFFFFFF DUP3 AND SWAP1 POP SWAP2 SWAP1 POP JUMP JUMPDEST PUSH0 PUSH2 0x70A DUP3 PUSH2 0x6E1 JUMP JUMPDEST SWAP1 POP SWAP2 SWAP1 POP JUMP JUMPDEST PUSH2 0x71A DUP2 PUSH2 0x700 JUMP JUMPDEST DUP2 EQ PUSH2 0x724 JUMPI PUSH0 DUP1 REVERT JUMPDEST POP JUMP JUMPDEST PUSH0 DUP2 CALLDATALOAD SWAP1 POP PUSH2 0x735 DUP2 PUSH2 0x711 JUMP JUMPDEST SWAP3 SWAP2 POP POP JUMP JUMPDEST PUSH0 PUSH1 0x20 DUP3 DUP5 SUB SLT ISZERO PUSH2 0x750 JUMPI PUSH2 0x74F PUSH2 0x6DD JUMP JUMPDEST JUMPDEST PUSH0 PUSH2 0x75D DUP5 DUP3 DUP6 ADD PUSH2 0x727 JUMP JUMPDEST SWAP2 POP POP SWAP3 SWAP2 POP POP JUMP JUMPDEST PUSH1 0x6 DUP2 LT PUSH2 0x772 JUMPI PUSH0 DUP1 REVERT JUMPDEST POP JUMP JUMPDEST PUSH0 DUP2 CALLDATALOAD SWAP1 POP PUSH2 0x783 DUP2 PUSH2 0x766 JUMP JUMPDEST SWAP3 SWAP2 POP POP JUMP JUMPDEST PUSH0 DUP1 PUSH1 0x40 DUP4 DUP6 SUB SLT ISZERO PUSH2 0x79F JUMPI PUSH2 0x79E PUSH2 0x6DD JUMP JUMPDEST JUMPDEST PUSH0 PUSH2 0x7AC DUP6 DUP3 DUP7 ADD PUSH2 0x727 JUMP JUMPDEST SWAP3 POP POP PUSH1 0x20 PUSH2 0x7BD DUP6 DUP3 DUP7 ADD PUSH2 0x775 JUMP JUMPDEST SWAP2 POP POP SWAP3 POP SWAP3 SWAP1 POP JUMP JUMPDEST PUSH32 0x4E487B7100000000000000000000000000000000000000000000000000000000 PUSH0 MSTORE PUSH1 0x21 PUSH1 0x4 MSTORE PUSH1 0x24 PUSH0 REVERT JUMPDEST PUSH1 0x6 DUP2 LT PUSH2 0x805 JUMPI PUSH2 0x804 PUSH2 0x7C7 JUMP JUMPDEST JUMPDEST POP JUMP JUMPDEST PUSH0 DUP2 SWAP1 POP PUSH2 0x815 DUP3 PUSH2 0x7F4 JUMP JUMPDEST SWAP2 SWAP1 POP JUMP JUMPDEST PUSH0 PUSH2 0x824 DUP3 PUSH2 0x808 JUMP JUMPDEST SWAP1 POP SWAP2 SWAP1 POP JUMP JUMPDEST PUSH2 0x834 DUP2 PUSH2 0x81A JUMP JUMPDEST DUP3 MSTORE POP POP JUMP JUMPDEST PUSH0 PUSH1 0x20 DUP3 ADD SWAP1 POP PUSH2 0x84D PUSH0 DUP4 ADD DUP5 PUSH2 0x82B JUMP JUMPDEST SWAP3 SWAP2 POP POP JUMP JUMPDEST PUSH0 DUP2 SWAP1 POP SWAP2 SWAP1 POP JUMP JUMPDEST PUSH2 0x865 DUP2 PUSH2 0x853 JUMP JUMPDEST DUP2 EQ PUSH2 0x86F JUMPI PUSH0 DUP1 REVERT JUMPDEST POP JUMP JUMPDEST PUSH0 DUP2 CALLDATALOAD SWAP1 POP PUSH2 0x880 DUP2 PUSH2 0x85C JUMP JUMPDEST SWAP3 SWAP2 POP POP JUMP JUMPDEST PUSH0 PUSH1 0x20 DUP3 DUP5 SUB SLT ISZERO PUSH2 0x89B JUMPI PUSH2 0x89A PUSH2 0x6DD JUMP JUMPDEST JUMPDEST PUSH0 PUSH2 0x8A8 DUP5 DUP3 DUP6 ADD PUSH2 0x872 JUMP JUMPDEST SWAP2 POP POP SWAP3 SWAP2 POP POP JUMP JUMPDEST PUSH2 0x8BA DUP2 PUSH2 0x700 JUMP JUMPDEST DUP3 MSTORE POP POP JUMP JUMPDEST PUSH0 PUSH1 0x40 DUP3 ADD SWAP1 POP PUSH2 0x8D3 PUSH0 DUP4 ADD DUP6 PUSH2 0x8B1 JUMP JUMPDEST PUSH2 0x8E0 PUSH1 0x20 DUP4 ADD DUP5 PUSH2 0x82B JUMP JUMPDEST SWAP4 SWAP3 POP POP POP JUMP JUMPDEST PUSH0 DUP3 DUP3 MSTORE PUSH1 0x20 DUP3 ADD SWAP1 POP SWAP3 SWAP2 POP POP JUMP JUMPDEST PUSH32 0x496E76616C6964206F776E657200000000000000000000000000000000000000 PUSH0 DUP3 ADD MSTORE POP JUMP JUMPDEST PUSH0 PUSH2 0x92B PUSH1 0xD DUP4 PUSH2 0x8E7 JUMP JUMPDEST SWAP2 POP PUSH2 0x936 DUP3 PUSH2 0x8F7 JUMP JUMPDEST PUSH1 0x20 DUP3 ADD SWAP1 POP SWAP2 SWAP1 POP JUMP JUMPDEST PUSH0 PUSH1 0x20 DUP3 ADD SWAP1 POP DUP2 DUP2 SUB PUSH0 DUP4 ADD MSTORE PUSH2 0x958 DUP2 PUSH2 0x91F JUMP JUMPDEST SWAP1 POP SWAP2 SWAP1 POP JUMP JUMPDEST PUSH32 0x4E487B7100000000000000000000000000000000000000000000000000000000 PUSH0 MSTORE PUSH1 0x32 PUSH1 0x4 MSTORE PUSH1 0x24 PUSH0 REVERT JUMPDEST PUSH32 0x54686973206F776E65722773206F726465722068617320616C72656164792065 PUSH0 DUP3 ADD MSTORE PUSH32 0x78697374732E0000000000000000000000000000000000000000000000000000 PUSH1 0x20 DUP3 ADD MSTORE POP JUMP JUMPDEST PUSH0 PUSH2 0x9E6 PUSH1 0x26 DUP4 PUSH2 0x8E7 JUMP JUMPDEST SWAP2 POP PUSH2 0x9F1 DUP3 PUSH2 0x98C JUMP JUMPDEST PUSH1 0x40 DUP3 ADD SWAP1 POP SWAP2 SWAP1 POP JUMP JUMPDEST PUSH0 PUSH1 0x20 DUP3 ADD SWAP1 POP DUP2 DUP2 SUB PUSH0 DUP4 ADD MSTORE PUSH2 0xA13 DUP2 PUSH2 0x9DA JUMP JUMPDEST SWAP1 POP SWAP2 SWAP1 POP JUMP JUMPDEST PUSH32 0x546865206F726465722073706563696669656420627920746865206164647265 PUSH0 DUP3 ADD MSTORE PUSH32 0x7373206973206E6F7420666F756E642E00000000000000000000000000000000 PUSH1 0x20 DUP3 ADD MSTORE POP JUMP JUMPDEST PUSH0 PUSH2 0xA74 PUSH1 0x30 DUP4 PUSH2 0x8E7 JUMP JUMPDEST SWAP2 POP PUSH2 0xA7F DUP3 PUSH2 0xA1A JUMP JUMPDEST PUSH1 0x40 DUP3 ADD SWAP1 POP SWAP2 SWAP1 POP JUMP JUMPDEST PUSH0 PUSH1 0x20 DUP3 ADD SWAP1 POP DUP2 DUP2 SUB PUSH0 DUP4 ADD MSTORE PUSH2 0xAA1 DUP2 PUSH2 0xA68 JUMP JUMPDEST SWAP1 POP SWAP2 SWAP1 POP JUMP INVALID LOG2 PUSH5 0x6970667358 0x22 SLT KECCAK256 BLOBHASH 0xB3 DUP4 JUMPDEST PUSH24 0xA90DC2B63067B780464CCA6F3A4A0FA4BCA3FB045312C887 DUP11 MSTORE8 0xD PUSH5 0x736F6C6343 STOP ADDMOD BYTE STOP CALLER "
				},
				"gasEstimates": {
					"creation": {
						"codeDepositCost": "556400",
						"executionCost": "585",
						"totalCost": "556985"
					},
					"external": {
						"addOrder(address)": "infinite",
						"getOrderStatus(address)": "infinite",
						"orders(uint256)": "7356",
						"resetOrderStatus(address)": "infinite",
						"testmax()": "470",
						"testmin()": "484",
						"updateOrderStatus(address,uint8)": "infinite"
					}
				},
				"methodIdentifiers": {
					"addOrder(address)": "3d1c40aa",
					"getOrderStatus(address)": "6f9d75cd",
					"orders(uint256)": "a85c38ef",
					"resetOrderStatus(address)": "b4aabc46",
					"testmax()": "ece1ec33",
					"testmin()": "f04d2f71",
					"updateOrderStatus(address,uint8)": "654bdcb0"
				}
			},
			"storageLayout": {
				"storage": [
					{
						"astId": 18,
						"contract": "enum.sol:MyEnum",
						"label": "orders",
						"offset": 0,
						"slot": "0",
						"type": "t_array(t_struct(Order)14_storage)dyn_storage"
					}
				],
				"types": {
					"t_address": {
						"encoding": "inplace",
						"label": "address",
						"numberOfBytes": "20"
					},
					"t_array(t_struct(Order)14_storage)dyn_storage": {
						"base": "t_struct(Order)14_storage",
						"encoding": "dynamic_array",
						"label": "struct MyEnum.Order[]",
						"numberOfBytes": "32"
					},
					"t_enum(OrderStatus)8": {
						"encoding": "inplace",
						"label": "enum MyEnum.OrderStatus",
						"numberOfBytes": "1"
					},
					"t_struct(Order)14_storage": {
						"encoding": "inplace",
						"label": "struct MyEnum.Order",
						"members": [
							{
								"astId": 10,
								"contract": "enum.sol:MyEnum",
								"label": "owner",
								"offset": 0,
								"slot": "0",
								"type": "t_address"
							},
							{
								"astId": 13,
								"contract": "enum.sol:MyEnum",
								"label": "status",
								"offset": 20,
								"slot": "0",
								"type": "t_enum(OrderStatus)8"
							}
						],
						"numberOfBytes": "32"
					}
				}
			},
			"userdoc": {
				"kind": "user",
				"methods": {},
				"version": 1
			}
		}
	}
}