{
	"Deploy.sol": {
		"DeployProxy": {
			"abi": [
				{
					"anonymous": false,
					"inputs": [
						{
							"indexed": false,
							"internalType": "address",
							"name": "",
							"type": "address"
						}
					],
					"name": "deployEvent",
					"type": "event"
				},
				{
					"inputs": [],
					"name": "addrDepolyed",
					"outputs": [
						{
							"internalType": "address",
							"name": "",
							"type": "address"
						}
					],
					"stateMutability": "view",
					"type": "function"
				},
				{
					"inputs": [
						{
							"internalType": "bytes",
							"name": "_createCode",
							"type": "bytes"
						}
					],
					"name": "deployContract",
					"outputs": [
						{
							"internalType": "address",
							"name": "",
							"type": "address"
						}
					],
					"stateMutability": "payable",
					"type": "function"
				},
				{
					"stateMutability": "payable",
					"type": "receive"
				}
			],
			"devdoc": {
				"kind": "dev",
				"methods": {},
				"version": 1
			},
			"evm": {
				"assembly": "    /* \"Deploy.sol\":457:1101  contract DeployProxy{... */\n  mstore(0x40, 0x80)\n    /* \"Deploy.sol\":571:572  0 */\n  0x00\n    /* \"Deploy.sol\":532:573  address public addrDepolyed =  address(0) */\n  dup1\n  exp(0x0100, 0x00)\n  dup2\n  sload\n  dup2\n  0xffffffffffffffffffffffffffffffffffffffff\n  mul\n  not\n  and\n  swap1\n  dup4\n  0xffffffffffffffffffffffffffffffffffffffff\n  and\n  mul\n  or\n  swap1\n  sstore\n  pop\n    /* \"Deploy.sol\":457:1101  contract DeployProxy{... */\n  callvalue\n  dup1\n  iszero\n  tag_1\n  jumpi\n  0x00\n  dup1\n  revert\ntag_1:\n  pop\n  dataSize(sub_0)\n  dup1\n  dataOffset(sub_0)\n  0x00\n  codecopy\n  0x00\n  return\nstop\n\nsub_0: assembly {\n        /* \"Deploy.sol\":457:1101  contract DeployProxy{... */\n      mstore(0x40, 0x80)\n      jumpi(tag_1, lt(calldatasize, 0x04))\n      shr(0xe0, calldataload(0x00))\n      dup1\n      0x1353628e\n      eq\n      tag_3\n      jumpi\n      dup1\n      0x798133dd\n      eq\n      tag_4\n      jumpi\n      jump(tag_2)\n    tag_1:\n      jumpi(tag_2, calldatasize)\n      stop\n    tag_2:\n      0x00\n      dup1\n      revert\n        /* \"Deploy.sol\":532:573  address public addrDepolyed =  address(0) */\n    tag_3:\n      callvalue\n      dup1\n      iszero\n      tag_7\n      jumpi\n      0x00\n      dup1\n      revert\n    tag_7:\n      pop\n      tag_8\n      tag_9\n      jump\t// in\n    tag_8:\n      mload(0x40)\n      tag_10\n      swap2\n      swap1\n      tag_11\n      jump\t// in\n    tag_10:\n      mload(0x40)\n      dup1\n      swap2\n      sub\n      swap1\n      return\n        /* \"Deploy.sol\":617:1096  function deployContract(bytes memory _createCode) public payable  returns(address){... */\n    tag_4:\n      tag_12\n      0x04\n      dup1\n      calldatasize\n      sub\n      dup2\n      add\n      swap1\n      tag_13\n      swap2\n      swap1\n      tag_14\n      jump\t// in\n    tag_13:\n      tag_15\n      jump\t// in\n    tag_12:\n      mload(0x40)\n      tag_16\n      swap2\n      swap1\n      tag_11\n      jump\t// in\n    tag_16:\n      mload(0x40)\n      dup1\n      swap2\n      sub\n      swap1\n      return\n        /* \"Deploy.sol\":532:573  address public addrDepolyed =  address(0) */\n    tag_9:\n      0x00\n      dup1\n      sload\n      swap1\n      0x0100\n      exp\n      swap1\n      div\n      0xffffffffffffffffffffffffffffffffffffffff\n      and\n      dup2\n      jump\t// out\n        /* \"Deploy.sol\":617:1096  function deployContract(bytes memory _createCode) public payable  returns(address){... */\n    tag_15:\n        /* \"Deploy.sol\":691:698  address */\n      0x00\n        /* \"Deploy.sol\":763:775  address addr */\n      dup1\n        /* \"Deploy.sol\":897:908  _createCode */\n      dup3\n        /* \"Deploy.sol\":891:909  mload(_createCode) */\n      mload\n        /* \"Deploy.sol\":884:888  0x20 */\n      0x20\n        /* \"Deploy.sol\":871:882  _createCode */\n      dup5\n        /* \"Deploy.sol\":867:889  add(_createCode, 0x20) */\n      add\n        /* \"Deploy.sol\":854:865  callvalue() */\n      callvalue\n        /* \"Deploy.sol\":847:910  create(callvalue(), add(_createCode, 0x20), mload(_createCode)) */\n      create\n        /* \"Deploy.sol\":839:910  addr := create(callvalue(), add(_createCode, 0x20), mload(_createCode)) */\n      swap1\n      pop\n        /* \"Deploy.sol\":955:956  0 */\n      0x00\n        /* \"Deploy.sol\":939:957  addr != address(0) */\n      0xffffffffffffffffffffffffffffffffffffffff\n      and\n        /* \"Deploy.sol\":939:943  addr */\n      dup2\n        /* \"Deploy.sol\":939:957  addr != address(0) */\n      0xffffffffffffffffffffffffffffffffffffffff\n      and\n      sub\n        /* \"Deploy.sol\":931:976  require(addr != address(0), \"deploy failed.\") */\n      tag_18\n      jumpi\n      mload(0x40)\n      0x08c379a000000000000000000000000000000000000000000000000000000000\n      dup2\n      mstore\n      0x04\n      add\n      tag_19\n      swap1\n      tag_20\n      jump\t// in\n    tag_19:\n      mload(0x40)\n      dup1\n      swap2\n      sub\n      swap1\n      revert\n    tag_18:\n        /* \"Deploy.sol\":1017:1034  deployEvent(addr) */\n      0xcb9eb6cae5098afec3b9cd81ffdd5e883da96bd81e7c23cdb508463ebf7ec44d\n        /* \"Deploy.sol\":1029:1033  addr */\n      dup2\n        /* \"Deploy.sol\":1017:1034  deployEvent(addr) */\n      mload(0x40)\n      tag_21\n      swap2\n      swap1\n      tag_11\n      jump\t// in\n    tag_21:\n      mload(0x40)\n      dup1\n      swap2\n      sub\n      swap1\n      log1\n        /* \"Deploy.sol\":1060:1064  addr */\n      dup1\n        /* \"Deploy.sol\":1045:1057  addrDepolyed */\n      0x00\n      dup1\n        /* \"Deploy.sol\":1045:1064  addrDepolyed = addr */\n      0x0100\n      exp\n      dup2\n      sload\n      dup2\n      0xffffffffffffffffffffffffffffffffffffffff\n      mul\n      not\n      and\n      swap1\n      dup4\n      0xffffffffffffffffffffffffffffffffffffffff\n      and\n      mul\n      or\n      swap1\n      sstore\n      pop\n        /* \"Deploy.sol\":1084:1088  addr */\n      dup1\n        /* \"Deploy.sol\":1077:1088  return addr */\n      swap2\n      pop\n      pop\n        /* \"Deploy.sol\":617:1096  function deployContract(bytes memory _createCode) public payable  returns(address){... */\n      swap2\n      swap1\n      pop\n      jump\t// out\n        /* \"#utility.yul\":7:133   */\n    tag_22:\n        /* \"#utility.yul\":44:51   */\n      0x00\n        /* \"#utility.yul\":84:126   */\n      0xffffffffffffffffffffffffffffffffffffffff\n        /* \"#utility.yul\":77:82   */\n      dup3\n        /* \"#utility.yul\":73:127   */\n      and\n        /* \"#utility.yul\":62:127   */\n      swap1\n      pop\n        /* \"#utility.yul\":7:133   */\n      swap2\n      swap1\n      pop\n      jump\t// out\n        /* \"#utility.yul\":139:235   */\n    tag_23:\n        /* \"#utility.yul\":176:183   */\n      0x00\n        /* \"#utility.yul\":205:229   */\n      tag_44\n        /* \"#utility.yul\":223:228   */\n      dup3\n        /* \"#utility.yul\":205:229   */\n      tag_22\n      jump\t// in\n    tag_44:\n        /* \"#utility.yul\":194:229   */\n      swap1\n      pop\n        /* \"#utility.yul\":139:235   */\n      swap2\n      swap1\n      pop\n      jump\t// out\n        /* \"#utility.yul\":241:359   */\n    tag_24:\n        /* \"#utility.yul\":328:352   */\n      tag_46\n        /* \"#utility.yul\":346:351   */\n      dup2\n        /* \"#utility.yul\":328:352   */\n      tag_23\n      jump\t// in\n    tag_46:\n        /* \"#utility.yul\":323:326   */\n      dup3\n        /* \"#utility.yul\":316:353   */\n      mstore\n        /* \"#utility.yul\":241:359   */\n      pop\n      pop\n      jump\t// out\n        /* \"#utility.yul\":365:587   */\n    tag_11:\n        /* \"#utility.yul\":458:462   */\n      0x00\n        /* \"#utility.yul\":496:498   */\n      0x20\n        /* \"#utility.yul\":485:494   */\n      dup3\n        /* \"#utility.yul\":481:499   */\n      add\n        /* \"#utility.yul\":473:499   */\n      swap1\n      pop\n        /* \"#utility.yul\":509:580   */\n      tag_48\n        /* \"#utility.yul\":577:578   */\n      0x00\n        /* \"#utility.yul\":566:575   */\n      dup4\n        /* \"#utility.yul\":562:579   */\n      add\n        /* \"#utility.yul\":553:559   */\n      dup5\n        /* \"#utility.yul\":509:580   */\n      tag_24\n      jump\t// in\n    tag_48:\n        /* \"#utility.yul\":365:587   */\n      swap3\n      swap2\n      pop\n      pop\n      jump\t// out\n        /* \"#utility.yul\":593:668   */\n    tag_25:\n        /* \"#utility.yul\":626:632   */\n      0x00\n        /* \"#utility.yul\":659:661   */\n      0x40\n        /* \"#utility.yul\":653:662   */\n      mload\n        /* \"#utility.yul\":643:662   */\n      swap1\n      pop\n        /* \"#utility.yul\":593:668   */\n      swap1\n      jump\t// out\n        /* \"#utility.yul\":674:791   */\n    tag_26:\n        /* \"#utility.yul\":783:784   */\n      0x00\n        /* \"#utility.yul\":780:781   */\n      dup1\n        /* \"#utility.yul\":773:785   */\n      revert\n        /* \"#utility.yul\":797:914   */\n    tag_27:\n        /* \"#utility.yul\":906:907   */\n      0x00\n        /* \"#utility.yul\":903:904   */\n      dup1\n        /* \"#utility.yul\":896:908   */\n      revert\n        /* \"#utility.yul\":920:1037   */\n    tag_28:\n        /* \"#utility.yul\":1029:1030   */\n      0x00\n        /* \"#utility.yul\":1026:1027   */\n      dup1\n        /* \"#utility.yul\":1019:1031   */\n      revert\n        /* \"#utility.yul\":1043:1160   */\n    tag_29:\n        /* \"#utility.yul\":1152:1153   */\n      0x00\n        /* \"#utility.yul\":1149:1150   */\n      dup1\n        /* \"#utility.yul\":1142:1154   */\n      revert\n        /* \"#utility.yul\":1166:1268   */\n    tag_30:\n        /* \"#utility.yul\":1207:1213   */\n      0x00\n        /* \"#utility.yul\":1258:1260   */\n      0x1f\n        /* \"#utility.yul\":1254:1261   */\n      not\n        /* \"#utility.yul\":1249:1251   */\n      0x1f\n        /* \"#utility.yul\":1242:1247   */\n      dup4\n        /* \"#utility.yul\":1238:1252   */\n      add\n        /* \"#utility.yul\":1234:1262   */\n      and\n        /* \"#utility.yul\":1224:1262   */\n      swap1\n      pop\n        /* \"#utility.yul\":1166:1268   */\n      swap2\n      swap1\n      pop\n      jump\t// out\n        /* \"#utility.yul\":1274:1454   */\n    tag_31:\n        /* \"#utility.yul\":1322:1399   */\n      0x4e487b7100000000000000000000000000000000000000000000000000000000\n        /* \"#utility.yul\":1319:1320   */\n      0x00\n        /* \"#utility.yul\":1312:1400   */\n      mstore\n        /* \"#utility.yul\":1419:1423   */\n      0x41\n        /* \"#utility.yul\":1416:1417   */\n      0x04\n        /* \"#utility.yul\":1409:1424   */\n      mstore\n        /* \"#utility.yul\":1443:1447   */\n      0x24\n        /* \"#utility.yul\":1440:1441   */\n      0x00\n        /* \"#utility.yul\":1433:1448   */\n      revert\n        /* \"#utility.yul\":1460:1741   */\n    tag_32:\n        /* \"#utility.yul\":1543:1570   */\n      tag_57\n        /* \"#utility.yul\":1565:1569   */\n      dup3\n        /* \"#utility.yul\":1543:1570   */\n      tag_30\n      jump\t// in\n    tag_57:\n        /* \"#utility.yul\":1535:1541   */\n      dup2\n        /* \"#utility.yul\":1531:1571   */\n      add\n        /* \"#utility.yul\":1673:1679   */\n      dup2\n        /* \"#utility.yul\":1661:1671   */\n      dup2\n        /* \"#utility.yul\":1658:1680   */\n      lt\n        /* \"#utility.yul\":1637:1655   */\n      0xffffffffffffffff\n        /* \"#utility.yul\":1625:1635   */\n      dup3\n        /* \"#utility.yul\":1622:1656   */\n      gt\n        /* \"#utility.yul\":1619:1681   */\n      or\n        /* \"#utility.yul\":1616:1704   */\n      iszero\n      tag_58\n      jumpi\n        /* \"#utility.yul\":1684:1702   */\n      tag_59\n      tag_31\n      jump\t// in\n    tag_59:\n        /* \"#utility.yul\":1616:1704   */\n    tag_58:\n        /* \"#utility.yul\":1724:1734   */\n      dup1\n        /* \"#utility.yul\":1720:1722   */\n      0x40\n        /* \"#utility.yul\":1713:1735   */\n      mstore\n        /* \"#utility.yul\":1503:1741   */\n      pop\n        /* \"#utility.yul\":1460:1741   */\n      pop\n      pop\n      jump\t// out\n        /* \"#utility.yul\":1747:1876   */\n    tag_33:\n        /* \"#utility.yul\":1781:1787   */\n      0x00\n        /* \"#utility.yul\":1808:1828   */\n      tag_61\n      tag_25\n      jump\t// in\n    tag_61:\n        /* \"#utility.yul\":1798:1828   */\n      swap1\n      pop\n        /* \"#utility.yul\":1837:1870   */\n      tag_62\n        /* \"#utility.yul\":1865:1869   */\n      dup3\n        /* \"#utility.yul\":1857:1863   */\n      dup3\n        /* \"#utility.yul\":1837:1870   */\n      tag_32\n      jump\t// in\n    tag_62:\n        /* \"#utility.yul\":1747:1876   */\n      swap2\n      swap1\n      pop\n      jump\t// out\n        /* \"#utility.yul\":1882:2189   */\n    tag_34:\n        /* \"#utility.yul\":1943:1947   */\n      0x00\n        /* \"#utility.yul\":2033:2051   */\n      0xffffffffffffffff\n        /* \"#utility.yul\":2025:2031   */\n      dup3\n        /* \"#utility.yul\":2022:2052   */\n      gt\n        /* \"#utility.yul\":2019:2075   */\n      iszero\n      tag_64\n      jumpi\n        /* \"#utility.yul\":2055:2073   */\n      tag_65\n      tag_31\n      jump\t// in\n    tag_65:\n        /* \"#utility.yul\":2019:2075   */\n    tag_64:\n        /* \"#utility.yul\":2093:2122   */\n      tag_66\n        /* \"#utility.yul\":2115:2121   */\n      dup3\n        /* \"#utility.yul\":2093:2122   */\n      tag_30\n      jump\t// in\n    tag_66:\n        /* \"#utility.yul\":2085:2122   */\n      swap1\n      pop\n        /* \"#utility.yul\":2177:2181   */\n      0x20\n        /* \"#utility.yul\":2171:2175   */\n      dup2\n        /* \"#utility.yul\":2167:2182   */\n      add\n        /* \"#utility.yul\":2159:2182   */\n      swap1\n      pop\n        /* \"#utility.yul\":1882:2189   */\n      swap2\n      swap1\n      pop\n      jump\t// out\n        /* \"#utility.yul\":2195:2343   */\n    tag_35:\n        /* \"#utility.yul\":2293:2299   */\n      dup3\n        /* \"#utility.yul\":2288:2291   */\n      dup2\n        /* \"#utility.yul\":2283:2286   */\n      dup4\n        /* \"#utility.yul\":2270:2300   */\n      calldatacopy\n        /* \"#utility.yul\":2334:2335   */\n      0x00\n        /* \"#utility.yul\":2325:2331   */\n      dup4\n        /* \"#utility.yul\":2320:2323   */\n      dup4\n        /* \"#utility.yul\":2316:2332   */\n      add\n        /* \"#utility.yul\":2309:2336   */\n      mstore\n        /* \"#utility.yul\":2195:2343   */\n      pop\n      pop\n      pop\n      jump\t// out\n        /* \"#utility.yul\":2349:2772   */\n    tag_36:\n        /* \"#utility.yul\":2426:2431   */\n      0x00\n        /* \"#utility.yul\":2451:2516   */\n      tag_69\n        /* \"#utility.yul\":2467:2515   */\n      tag_70\n        /* \"#utility.yul\":2508:2514   */\n      dup5\n        /* \"#utility.yul\":2467:2515   */\n      tag_34\n      jump\t// in\n    tag_70:\n        /* \"#utility.yul\":2451:2516   */\n      tag_33\n      jump\t// in\n    tag_69:\n        /* \"#utility.yul\":2442:2516   */\n      swap1\n      pop\n        /* \"#utility.yul\":2539:2545   */\n      dup3\n        /* \"#utility.yul\":2532:2537   */\n      dup2\n        /* \"#utility.yul\":2525:2546   */\n      mstore\n        /* \"#utility.yul\":2577:2581   */\n      0x20\n        /* \"#utility.yul\":2570:2575   */\n      dup2\n        /* \"#utility.yul\":2566:2582   */\n      add\n        /* \"#utility.yul\":2615:2618   */\n      dup5\n        /* \"#utility.yul\":2606:2612   */\n      dup5\n        /* \"#utility.yul\":2601:2604   */\n      dup5\n        /* \"#utility.yul\":2597:2613   */\n      add\n        /* \"#utility.yul\":2594:2619   */\n      gt\n        /* \"#utility.yul\":2591:2703   */\n      iszero\n      tag_71\n      jumpi\n        /* \"#utility.yul\":2622:2701   */\n      tag_72\n      tag_29\n      jump\t// in\n    tag_72:\n        /* \"#utility.yul\":2591:2703   */\n    tag_71:\n        /* \"#utility.yul\":2712:2766   */\n      tag_73\n        /* \"#utility.yul\":2759:2765   */\n      dup5\n        /* \"#utility.yul\":2754:2757   */\n      dup3\n        /* \"#utility.yul\":2749:2752   */\n      dup6\n        /* \"#utility.yul\":2712:2766   */\n      tag_35\n      jump\t// in\n    tag_73:\n        /* \"#utility.yul\":2432:2772   */\n      pop\n        /* \"#utility.yul\":2349:2772   */\n      swap4\n      swap3\n      pop\n      pop\n      pop\n      jump\t// out\n        /* \"#utility.yul\":2791:3129   */\n    tag_37:\n        /* \"#utility.yul\":2846:2851   */\n      0x00\n        /* \"#utility.yul\":2895:2898   */\n      dup3\n        /* \"#utility.yul\":2888:2892   */\n      0x1f\n        /* \"#utility.yul\":2880:2886   */\n      dup4\n        /* \"#utility.yul\":2876:2893   */\n      add\n        /* \"#utility.yul\":2872:2899   */\n      slt\n        /* \"#utility.yul\":2862:2984   */\n      tag_75\n      jumpi\n        /* \"#utility.yul\":2903:2982   */\n      tag_76\n      tag_28\n      jump\t// in\n    tag_76:\n        /* \"#utility.yul\":2862:2984   */\n    tag_75:\n        /* \"#utility.yul\":3020:3026   */\n      dup2\n        /* \"#utility.yul\":3007:3027   */\n      calldataload\n        /* \"#utility.yul\":3045:3123   */\n      tag_77\n        /* \"#utility.yul\":3119:3122   */\n      dup5\n        /* \"#utility.yul\":3111:3117   */\n      dup3\n        /* \"#utility.yul\":3104:3108   */\n      0x20\n        /* \"#utility.yul\":3096:3102   */\n      dup7\n        /* \"#utility.yul\":3092:3109   */\n      add\n        /* \"#utility.yul\":3045:3123   */\n      tag_36\n      jump\t// in\n    tag_77:\n        /* \"#utility.yul\":3036:3123   */\n      swap2\n      pop\n        /* \"#utility.yul\":2852:3129   */\n      pop\n        /* \"#utility.yul\":2791:3129   */\n      swap3\n      swap2\n      pop\n      pop\n      jump\t// out\n        /* \"#utility.yul\":3135:3642   */\n    tag_14:\n        /* \"#utility.yul\":3203:3209   */\n      0x00\n        /* \"#utility.yul\":3252:3254   */\n      0x20\n        /* \"#utility.yul\":3240:3249   */\n      dup3\n        /* \"#utility.yul\":3231:3238   */\n      dup5\n        /* \"#utility.yul\":3227:3250   */\n      sub\n        /* \"#utility.yul\":3223:3255   */\n      slt\n        /* \"#utility.yul\":3220:3339   */\n      iszero\n      tag_79\n      jumpi\n        /* \"#utility.yul\":3258:3337   */\n      tag_80\n      tag_26\n      jump\t// in\n    tag_80:\n        /* \"#utility.yul\":3220:3339   */\n    tag_79:\n        /* \"#utility.yul\":3406:3407   */\n      0x00\n        /* \"#utility.yul\":3395:3404   */\n      dup3\n        /* \"#utility.yul\":3391:3408   */\n      add\n        /* \"#utility.yul\":3378:3409   */\n      calldataload\n        /* \"#utility.yul\":3436:3454   */\n      0xffffffffffffffff\n        /* \"#utility.yul\":3428:3434   */\n      dup2\n        /* \"#utility.yul\":3425:3455   */\n      gt\n        /* \"#utility.yul\":3422:3539   */\n      iszero\n      tag_81\n      jumpi\n        /* \"#utility.yul\":3458:3537   */\n      tag_82\n      tag_27\n      jump\t// in\n    tag_82:\n        /* \"#utility.yul\":3422:3539   */\n    tag_81:\n        /* \"#utility.yul\":3563:3625   */\n      tag_83\n        /* \"#utility.yul\":3617:3624   */\n      dup5\n        /* \"#utility.yul\":3608:3614   */\n      dup3\n        /* \"#utility.yul\":3597:3606   */\n      dup6\n        /* \"#utility.yul\":3593:3615   */\n      add\n        /* \"#utility.yul\":3563:3625   */\n      tag_37\n      jump\t// in\n    tag_83:\n        /* \"#utility.yul\":3553:3625   */\n      swap2\n      pop\n        /* \"#utility.yul\":3349:3635   */\n      pop\n        /* \"#utility.yul\":3135:3642   */\n      swap3\n      swap2\n      pop\n      pop\n      jump\t// out\n        /* \"#utility.yul\":3648:3817   */\n    tag_38:\n        /* \"#utility.yul\":3732:3743   */\n      0x00\n        /* \"#utility.yul\":3766:3772   */\n      dup3\n        /* \"#utility.yul\":3761:3764   */\n      dup3\n        /* \"#utility.yul\":3754:3773   */\n      mstore\n        /* \"#utility.yul\":3806:3810   */\n      0x20\n        /* \"#utility.yul\":3801:3804   */\n      dup3\n        /* \"#utility.yul\":3797:3811   */\n      add\n        /* \"#utility.yul\":3782:3811   */\n      swap1\n      pop\n        /* \"#utility.yul\":3648:3817   */\n      swap3\n      swap2\n      pop\n      pop\n      jump\t// out\n        /* \"#utility.yul\":3823:3987   */\n    tag_39:\n        /* \"#utility.yul\":3963:3979   */\n      0x6465706c6f79206661696c65642e000000000000000000000000000000000000\n        /* \"#utility.yul\":3959:3960   */\n      0x00\n        /* \"#utility.yul\":3951:3957   */\n      dup3\n        /* \"#utility.yul\":3947:3961   */\n      add\n        /* \"#utility.yul\":3940:3980   */\n      mstore\n        /* \"#utility.yul\":3823:3987   */\n      pop\n      jump\t// out\n        /* \"#utility.yul\":3993:4359   */\n    tag_40:\n        /* \"#utility.yul\":4135:4138   */\n      0x00\n        /* \"#utility.yul\":4156:4223   */\n      tag_87\n        /* \"#utility.yul\":4220:4222   */\n      0x0e\n        /* \"#utility.yul\":4215:4218   */\n      dup4\n        /* \"#utility.yul\":4156:4223   */\n      tag_38\n      jump\t// in\n    tag_87:\n        /* \"#utility.yul\":4149:4223   */\n      swap2\n      pop\n        /* \"#utility.yul\":4232:4325   */\n      tag_88\n        /* \"#utility.yul\":4321:4324   */\n      dup3\n        /* \"#utility.yul\":4232:4325   */\n      tag_39\n      jump\t// in\n    tag_88:\n        /* \"#utility.yul\":4350:4352   */\n      0x20\n        /* \"#utility.yul\":4345:4348   */\n      dup3\n        /* \"#utility.yul\":4341:4353   */\n      add\n        /* \"#utility.yul\":4334:4353   */\n      swap1\n      pop\n        /* \"#utility.yul\":3993:4359   */\n      swap2\n      swap1\n      pop\n      jump\t// out\n        /* \"#utility.yul\":4365:4784   */\n    tag_20:\n        /* \"#utility.yul\":4531:4535   */\n      0x00\n        /* \"#utility.yul\":4569:4571   */\n      0x20\n        /* \"#utility.yul\":4558:4567   */\n      dup3\n        /* \"#utility.yul\":4554:4572   */\n      add\n        /* \"#utility.yul\":4546:4572   */\n      swap1\n      pop\n        /* \"#utility.yul\":4618:4627   */\n      dup2\n        /* \"#utility.yul\":4612:4616   */\n      dup2\n        /* \"#utility.yul\":4608:4628   */\n      sub\n        /* \"#utility.yul\":4604:4605   */\n      0x00\n        /* \"#utility.yul\":4593:4602   */\n      dup4\n        /* \"#utility.yul\":4589:4606   */\n      add\n        /* \"#utility.yul\":4582:4629   */\n      mstore\n        /* \"#utility.yul\":4646:4777   */\n      tag_90\n        /* \"#utility.yul\":4772:4776   */\n      dup2\n        /* \"#utility.yul\":4646:4777   */\n      tag_40\n      jump\t// in\n    tag_90:\n        /* \"#utility.yul\":4638:4777   */\n      swap1\n      pop\n        /* \"#utility.yul\":4365:4784   */\n      swap2\n      swap1\n      pop\n      jump\t// out\n\n    auxdata: 0xa2646970667358221220e81ff2012083f5ae85d07c077fc7afcb529a231a1f0966f4ae8c5e5fdf213a1264736f6c634300081a0033\n}\n",
				"bytecode": {
					"linkReferences": {},
					"object": "60806040525f805f6101000a81548173ffffffffffffffffffffffffffffffffffffffff021916908373ffffffffffffffffffffffffffffffffffffffff160217905550348015604d575f80fd5b506104478061005b5f395ff3fe60806040526004361061002c575f3560e01c80631353628e14610037578063798133dd1461006157610033565b3661003357005b5f80fd5b348015610042575f80fd5b5061004b610091565b60405161005891906101ec565b60405180910390f35b61007b60048036038101906100769190610352565b6100b4565b60405161008891906101ec565b60405180910390f35b5f8054906101000a900473ffffffffffffffffffffffffffffffffffffffff1681565b5f8082516020840134f090505f73ffffffffffffffffffffffffffffffffffffffff168173ffffffffffffffffffffffffffffffffffffffff160361012e576040517f08c379a0000000000000000000000000000000000000000000000000000000008152600401610125906103f3565b60405180910390fd5b7fcb9eb6cae5098afec3b9cd81ffdd5e883da96bd81e7c23cdb508463ebf7ec44d8160405161015d91906101ec565b60405180910390a1805f806101000a81548173ffffffffffffffffffffffffffffffffffffffff021916908373ffffffffffffffffffffffffffffffffffffffff16021790555080915050919050565b5f73ffffffffffffffffffffffffffffffffffffffff82169050919050565b5f6101d6826101ad565b9050919050565b6101e6816101cc565b82525050565b5f6020820190506101ff5f8301846101dd565b92915050565b5f604051905090565b5f80fd5b5f80fd5b5f80fd5b5f80fd5b5f601f19601f8301169050919050565b7f4e487b71000000000000000000000000000000000000000000000000000000005f52604160045260245ffd5b6102648261021e565b810181811067ffffffffffffffff821117156102835761028261022e565b5b80604052505050565b5f610295610205565b90506102a1828261025b565b919050565b5f67ffffffffffffffff8211156102c0576102bf61022e565b5b6102c98261021e565b9050602081019050919050565b828183375f83830152505050565b5f6102f66102f1846102a6565b61028c565b9050828152602081018484840111156103125761031161021a565b5b61031d8482856102d6565b509392505050565b5f82601f83011261033957610338610216565b5b81356103498482602086016102e4565b91505092915050565b5f602082840312156103675761036661020e565b5b5f82013567ffffffffffffffff81111561038457610383610212565b5b61039084828501610325565b91505092915050565b5f82825260208201905092915050565b7f6465706c6f79206661696c65642e0000000000000000000000000000000000005f82015250565b5f6103dd600e83610399565b91506103e8826103a9565b602082019050919050565b5f6020820190508181035f83015261040a816103d1565b905091905056fea2646970667358221220e81ff2012083f5ae85d07c077fc7afcb529a231a1f0966f4ae8c5e5fdf213a1264736f6c634300081a0033",
					"opcodes": "PUSH1 0x80 PUSH1 0x40 MSTORE PUSH0 DUP1 PUSH0 PUSH2 0x100 EXP DUP2 SLOAD DUP2 PUSH20 0xFFFFFFFFFFFFFFFFFFFFFFFFFFFFFFFFFFFFFFFF MUL NOT AND SWAP1 DUP4 PUSH20 0xFFFFFFFFFFFFFFFFFFFFFFFFFFFFFFFFFFFFFFFF AND MUL OR SWAP1 SSTORE POP CALLVALUE DUP1 ISZERO PUSH1 0x4D JUMPI PUSH0 DUP1 REVERT JUMPDEST POP PUSH2 0x447 DUP1 PUSH2 0x5B PUSH0 CODECOPY PUSH0 RETURN INVALID PUSH1 0x80 PUSH1 0x40 MSTORE PUSH1 0x4 CALLDATASIZE LT PUSH2 0x2C JUMPI PUSH0 CALLDATALOAD PUSH1 0xE0 SHR DUP1 PUSH4 0x1353628E EQ PUSH2 0x37 JUMPI DUP1 PUSH4 0x798133DD EQ PUSH2 0x61 JUMPI PUSH2 0x33 JUMP JUMPDEST CALLDATASIZE PUSH2 0x33 JUMPI STOP JUMPDEST PUSH0 DUP1 REVERT JUMPDEST CALLVALUE DUP1 ISZERO PUSH2 0x42 JUMPI PUSH0 DUP1 REVERT JUMPDEST POP PUSH2 0x4B PUSH2 0x91 JUMP JUMPDEST PUSH1 0x40 MLOAD PUSH2 0x58 SWAP2 SWAP1 PUSH2 0x1EC JUMP JUMPDEST PUSH1 0x40 MLOAD DUP1 SWAP2 SUB SWAP1 RETURN JUMPDEST PUSH2 0x7B PUSH1 0x4 DUP1 CALLDATASIZE SUB DUP2 ADD SWAP1 PUSH2 0x76 SWAP2 SWAP1 PUSH2 0x352 JUMP JUMPDEST PUSH2 0xB4 JUMP JUMPDEST PUSH1 0x40 MLOAD PUSH2 0x88 SWAP2 SWAP1 PUSH2 0x1EC JUMP JUMPDEST PUSH1 0x40 MLOAD DUP1 SWAP2 SUB SWAP1 RETURN JUMPDEST PUSH0 DUP1 SLOAD SWAP1 PUSH2 0x100 EXP SWAP1 DIV PUSH20 0xFFFFFFFFFFFFFFFFFFFFFFFFFFFFFFFFFFFFFFFF AND DUP2 JUMP JUMPDEST PUSH0 DUP1 DUP3 MLOAD PUSH1 0x20 DUP5 ADD CALLVALUE CREATE SWAP1 POP PUSH0 PUSH20 0xFFFFFFFFFFFFFFFFFFFFFFFFFFFFFFFFFFFFFFFF AND DUP2 PUSH20 0xFFFFFFFFFFFFFFFFFFFFFFFFFFFFFFFFFFFFFFFF AND SUB PUSH2 0x12E JUMPI PUSH1 0x40 MLOAD PUSH32 0x8C379A000000000000000000000000000000000000000000000000000000000 DUP2 MSTORE PUSH1 0x4 ADD PUSH2 0x125 SWAP1 PUSH2 0x3F3 JUMP JUMPDEST PUSH1 0x40 MLOAD DUP1 SWAP2 SUB SWAP1 REVERT JUMPDEST PUSH32 0xCB9EB6CAE5098AFEC3B9CD81FFDD5E883DA96BD81E7C23CDB508463EBF7EC44D DUP2 PUSH1 0x40 MLOAD PUSH2 0x15D SWAP2 SWAP1 PUSH2 0x1EC JUMP JUMPDEST PUSH1 0x40 MLOAD DUP1 SWAP2 SUB SWAP1 LOG1 DUP1 PUSH0 DUP1 PUSH2 0x100 EXP DUP2 SLOAD DUP2 PUSH20 0xFFFFFFFFFFFFFFFFFFFFFFFFFFFFFFFFFFFFFFFF MUL NOT AND SWAP1 DUP4 PUSH20 0xFFFFFFFFFFFFFFFFFFFFFFFFFFFFFFFFFFFFFFFF AND MUL OR SWAP1 SSTORE POP DUP1 SWAP2 POP POP SWAP2 SWAP1 POP JUMP JUMPDEST PUSH0 PUSH20 0xFFFFFFFFFFFFFFFFFFFFFFFFFFFFFFFFFFFFFFFF DUP3 AND SWAP1 POP SWAP2 SWAP1 POP JUMP JUMPDEST PUSH0 PUSH2 0x1D6 DUP3 PUSH2 0x1AD JUMP JUMPDEST SWAP1 POP SWAP2 SWAP1 POP JUMP JUMPDEST PUSH2 0x1E6 DUP2 PUSH2 0x1CC JUMP JUMPDEST DUP3 MSTORE POP POP JUMP JUMPDEST PUSH0 PUSH1 0x20 DUP3 ADD SWAP1 POP PUSH2 0x1FF PUSH0 DUP4 ADD DUP5 PUSH2 0x1DD JUMP JUMPDEST SWAP3 SWAP2 POP POP JUMP JUMPDEST PUSH0 PUSH1 0x40 MLOAD SWAP1 POP SWAP1 JUMP JUMPDEST PUSH0 DUP1 REVERT JUMPDEST PUSH0 DUP1 REVERT JUMPDEST PUSH0 DUP1 REVERT JUMPDEST PUSH0 DUP1 REVERT JUMPDEST PUSH0 PUSH1 0x1F NOT PUSH1 0x1F DUP4 ADD AND SWAP1 POP SWAP2 SWAP1 POP JUMP JUMPDEST PUSH32 0x4E487B7100000000000000000000000000000000000000000000000000000000 PUSH0 MSTORE PUSH1 0x41 PUSH1 0x4 MSTORE PUSH1 0x24 PUSH0 REVERT JUMPDEST PUSH2 0x264 DUP3 PUSH2 0x21E JUMP JUMPDEST DUP2 ADD DUP2 DUP2 LT PUSH8 0xFFFFFFFFFFFFFFFF DUP3 GT OR ISZERO PUSH2 0x283 JUMPI PUSH2 0x282 PUSH2 0x22E JUMP JUMPDEST JUMPDEST DUP1 PUSH1 0x40 MSTORE POP POP POP JUMP JUMPDEST PUSH0 PUSH2 0x295 PUSH2 0x205 JUMP JUMPDEST SWAP1 POP PUSH2 0x2A1 DUP3 DUP3 PUSH2 0x25B JUMP JUMPDEST SWAP2 SWAP1 POP JUMP JUMPDEST PUSH0 PUSH8 0xFFFFFFFFFFFFFFFF DUP3 GT ISZERO PUSH2 0x2C0 JUMPI PUSH2 0x2BF PUSH2 0x22E JUMP JUMPDEST JUMPDEST PUSH2 0x2C9 DUP3 PUSH2 0x21E JUMP JUMPDEST SWAP1 POP PUSH1 0x20 DUP2 ADD SWAP1 POP SWAP2 SWAP1 POP JUMP JUMPDEST DUP3 DUP2 DUP4 CALLDATACOPY PUSH0 DUP4 DUP4 ADD MSTORE POP POP POP JUMP JUMPDEST PUSH0 PUSH2 0x2F6 PUSH2 0x2F1 DUP5 PUSH2 0x2A6 JUMP JUMPDEST PUSH2 0x28C JUMP JUMPDEST SWAP1 POP DUP3 DUP2 MSTORE PUSH1 0x20 DUP2 ADD DUP5 DUP5 DUP5 ADD GT ISZERO PUSH2 0x312 JUMPI PUSH2 0x311 PUSH2 0x21A JUMP JUMPDEST JUMPDEST PUSH2 0x31D DUP5 DUP3 DUP6 PUSH2 0x2D6 JUMP JUMPDEST POP SWAP4 SWAP3 POP POP POP JUMP JUMPDEST PUSH0 DUP3 PUSH1 0x1F DUP4 ADD SLT PUSH2 0x339 JUMPI PUSH2 0x338 PUSH2 0x216 JUMP JUMPDEST JUMPDEST DUP2 CALLDATALOAD PUSH2 0x349 DUP5 DUP3 PUSH1 0x20 DUP7 ADD PUSH2 0x2E4 JUMP JUMPDEST SWAP2 POP POP SWAP3 SWAP2 POP POP JUMP JUMPDEST PUSH0 PUSH1 0x20 DUP3 DUP5 SUB SLT ISZERO PUSH2 0x367 JUMPI PUSH2 0x366 PUSH2 0x20E JUMP JUMPDEST JUMPDEST PUSH0 DUP3 ADD CALLDATALOAD PUSH8 0xFFFFFFFFFFFFFFFF DUP2 GT ISZERO PUSH2 0x384 JUMPI PUSH2 0x383 PUSH2 0x212 JUMP JUMPDEST JUMPDEST PUSH2 0x390 DUP5 DUP3 DUP6 ADD PUSH2 0x325 JUMP JUMPDEST SWAP2 POP POP SWAP3 SWAP2 POP POP JUMP JUMPDEST PUSH0 DUP3 DUP3 MSTORE PUSH1 0x20 DUP3 ADD SWAP1 POP SWAP3 SWAP2 POP POP JUMP JUMPDEST PUSH32 0x6465706C6F79206661696C65642E000000000000000000000000000000000000 PUSH0 DUP3 ADD MSTORE POP JUMP JUMPDEST PUSH0 PUSH2 0x3DD PUSH1 0xE DUP4 PUSH2 0x399 JUMP JUMPDEST SWAP2 POP PUSH2 0x3E8 DUP3 PUSH2 0x3A9 JUMP JUMPDEST PUSH1 0x20 DUP3 ADD SWAP1 POP SWAP2 SWAP1 POP JUMP JUMPDEST PUSH0 PUSH1 0x20 DUP3 ADD SWAP1 POP DUP2 DUP2 SUB PUSH0 DUP4 ADD MSTORE PUSH2 0x40A DUP2 PUSH2 0x3D1 JUMP JUMPDEST SWAP1 POP SWAP2 SWAP1 POP JUMP INVALID LOG2 PUSH5 0x6970667358 0x22 SLT KECCAK256 0xE8 0x1F CALLCODE ADD KECCAK256 DUP4 CREATE2 0xAE DUP6 0xD0 PUSH29 0x77FC7AFCB529A231A1F0966F4AE8C5E5FDF213A1264736F6C63430008 BYTE STOP CALLER "
				},
				"gasEstimates": {
					"creation": {
						"codeDepositCost": "219000",
						"executionCost": "24526",
						"totalCost": "243526"
					},
					"external": {
						"addrDepolyed()": "2483",
						"deployContract(bytes)": "infinite"
					}
				},
				"methodIdentifiers": {
					"addrDepolyed()": "1353628e",
					"deployContract(bytes)": "798133dd"
				}
			},
			"storageLayout": {
				"storage": [
					{
						"astId": 56,
						"contract": "Deploy.sol:DeployProxy",
						"label": "addrDepolyed",
						"offset": 0,
						"slot": "0",
						"type": "t_address"
					}
				],
				"types": {
					"t_address": {
						"encoding": "inplace",
						"label": "address",
						"numberOfBytes": "20"
					}
				}
			},
			"userdoc": {
				"kind": "user",
				"methods": {},
				"version": 1
			}
		}
	}
}