{
	"StateLocalGlobalVariables.sol": {
		"StateLocalGlobalVar": {
			"abi": [
				{
					"inputs": [],
					"name": "GlobalInfoViewer",
					"outputs": [
						{
							"internalType": "address",
							"name": "",
							"type": "address"
						},
						{
							"internalType": "uint256",
							"name": "",
							"type": "uint256"
						},
						{
							"internalType": "uint256",
							"name": "",
							"type": "uint256"
						}
					],
					"stateMutability": "view",
					"type": "function"
				},
				{
					"inputs": [],
					"name": "StateStr",
					"outputs": [
						{
							"internalType": "string",
							"name": "",
							"type": "string"
						}
					],
					"stateMutability": "view",
					"type": "function"
				},
				{
					"inputs": [],
					"name": "a",
					"outputs": [
						{
							"internalType": "int256",
							"name": "",
							"type": "int256"
						}
					],
					"stateMutability": "view",
					"type": "function"
				},
				{
					"inputs": [],
					"name": "b",
					"outputs": [
						{
							"internalType": "int256",
							"name": "",
							"type": "int256"
						}
					],
					"stateMutability": "view",
					"type": "function"
				},
				{
					"inputs": [
						{
							"internalType": "uint256",
							"name": "x",
							"type": "uint256"
						},
						{
							"internalType": "uint256",
							"name": "y",
							"type": "uint256"
						}
					],
					"name": "divide",
					"outputs": [
						{
							"internalType": "uint256",
							"name": "",
							"type": "uint256"
						}
					],
					"stateMutability": "pure",
					"type": "function"
				},
				{
					"inputs": [
						{
							"internalType": "uint256",
							"name": "timestamp",
							"type": "uint256"
						}
					],
					"name": "getGmtTime",
					"outputs": [
						{
							"internalType": "string",
							"name": "",
							"type": "string"
						}
					],
					"stateMutability": "pure",
					"type": "function"
				},
				{
					"inputs": [],
					"name": "getStrVar",
					"outputs": [
						{
							"internalType": "string",
							"name": "",
							"type": "string"
						}
					],
					"stateMutability": "pure",
					"type": "function"
				},
				{
					"inputs": [
						{
							"internalType": "int256",
							"name": "x",
							"type": "int256"
						},
						{
							"internalType": "int256",
							"name": "y",
							"type": "int256"
						}
					],
					"name": "multiply",
					"outputs": [
						{
							"internalType": "int256",
							"name": "",
							"type": "int256"
						}
					],
					"stateMutability": "pure",
					"type": "function"
				},
				{
					"inputs": [
						{
							"internalType": "int256",
							"name": "x",
							"type": "int256"
						},
						{
							"internalType": "int256",
							"name": "y",
							"type": "int256"
						}
					],
					"name": "multiplyBy_a",
					"outputs": [
						{
							"internalType": "int256",
							"name": "",
							"type": "int256"
						}
					],
					"stateMutability": "view",
					"type": "function"
				},
				{
					"inputs": [
						{
							"internalType": "int256",
							"name": "x",
							"type": "int256"
						},
						{
							"internalType": "int256",
							"name": "y",
							"type": "int256"
						}
					],
					"name": "set_ab",
					"outputs": [],
					"stateMutability": "nonpayable",
					"type": "function"
				}
			],
			"devdoc": {
				"kind": "dev",
				"methods": {},
				"version": 1
			},
			"evm": {
				"assembly": "    /* \"StateLocalGlobalVariables.sol\":59:1944  contract StateLocalGlobalVar {\r... */\n  mstore(0x40, 0x80)\n    /* \"StateLocalGlobalVariables.sol\":95:134  string public  StateStr = \"stateString\" */\n  mload(0x40)\n  dup1\n  0x40\n  add\n  0x40\n  mstore\n  dup1\n  0x0b\n  dup2\n  mstore\n  0x20\n  add\n  0x7374617465537472696e67000000000000000000000000000000000000000000\n  dup2\n  mstore\n  pop\n  0x00\n  swap1\n  dup1\n  mload\n  swap1\n  0x20\n  add\n  swap1\n  tag_1\n  swap3\n  swap2\n  swap1\n  tag_2\n  jump\t// in\ntag_1:\n  pop\n    /* \"StateLocalGlobalVariables.sol\":156:157  3 */\n  0x03\n    /* \"StateLocalGlobalVariables.sol\":141:157  int public a = 3 */\n  0x01\n  sstore\n    /* \"StateLocalGlobalVariables.sol\":179:183  0x10 */\n  0x10\n    /* \"StateLocalGlobalVariables.sol\":164:183  int public b = 0x10 */\n  0x02\n  sstore\n    /* \"StateLocalGlobalVariables.sol\":59:1944  contract StateLocalGlobalVar {\r... */\n  callvalue\n  dup1\n  iszero\n  tag_3\n  jumpi\n  0x00\n  dup1\n  revert\ntag_3:\n  pop\n  jump(tag_4)\ntag_2:\n  dup3\n  dup1\n  sload\n  tag_5\n  swap1\n  tag_6\n  jump\t// in\ntag_5:\n  swap1\n  0x00\n  mstore\n  keccak256(0x00, 0x20)\n  swap1\n  0x1f\n  add\n  0x20\n  swap1\n  div\n  dup2\n  add\n  swap3\n  dup3\n  tag_8\n  jumpi\n  0x00\n  dup6\n  sstore\n  jump(tag_7)\ntag_8:\n  dup3\n  0x1f\n  lt\n  tag_9\n  jumpi\n  dup1\n  mload\n  not(0xff)\n  and\n  dup4\n  dup1\n  add\n  or\n  dup6\n  sstore\n  jump(tag_7)\ntag_9:\n  dup3\n  dup1\n  add\n  0x01\n  add\n  dup6\n  sstore\n  dup3\n  iszero\n  tag_7\n  jumpi\n  swap2\n  dup3\n  add\ntag_10:\n  dup3\n  dup2\n  gt\n  iszero\n  tag_11\n  jumpi\n  dup3\n  mload\n  dup3\n  sstore\n  swap2\n  0x20\n  add\n  swap2\n  swap1\n  0x01\n  add\n  swap1\n  jump(tag_10)\ntag_11:\ntag_7:\n  pop\n  swap1\n  pop\n  tag_12\n  swap2\n  swap1\n  tag_13\n  jump\t// in\ntag_12:\n  pop\n  swap1\n  jump\t// out\ntag_13:\ntag_14:\n  dup1\n  dup3\n  gt\n  iszero\n  tag_15\n  jumpi\n  0x00\n  dup2\n  0x00\n  swap1\n  sstore\n  pop\n  0x01\n  add\n  jump(tag_14)\ntag_15:\n  pop\n  swap1\n  jump\t// out\n    /* \"#utility.yul\":7:327   */\ntag_6:\n    /* \"#utility.yul\":51:57   */\n  0x00\n    /* \"#utility.yul\":88:89   */\n  0x02\n    /* \"#utility.yul\":82:86   */\n  dup3\n    /* \"#utility.yul\":78:90   */\n  div\n    /* \"#utility.yul\":68:90   */\n  swap1\n  pop\n    /* \"#utility.yul\":135:136   */\n  0x01\n    /* \"#utility.yul\":129:133   */\n  dup3\n    /* \"#utility.yul\":125:137   */\n  and\n    /* \"#utility.yul\":156:174   */\n  dup1\n    /* \"#utility.yul\":146:227   */\n  tag_18\n  jumpi\n    /* \"#utility.yul\":212:216   */\n  0x7f\n    /* \"#utility.yul\":204:210   */\n  dup3\n    /* \"#utility.yul\":200:217   */\n  and\n    /* \"#utility.yul\":190:217   */\n  swap2\n  pop\n    /* \"#utility.yul\":146:227   */\ntag_18:\n    /* \"#utility.yul\":274:276   */\n  0x20\n    /* \"#utility.yul\":266:272   */\n  dup3\n    /* \"#utility.yul\":263:277   */\n  lt\n    /* \"#utility.yul\":243:261   */\n  dup2\n    /* \"#utility.yul\":240:278   */\n  eq\n    /* \"#utility.yul\":237:321   */\n  iszero\n  tag_19\n  jumpi\n    /* \"#utility.yul\":293:311   */\n  tag_20\n  tag_21\n  jump\t// in\ntag_20:\n    /* \"#utility.yul\":237:321   */\ntag_19:\n    /* \"#utility.yul\":58:327   */\n  pop\n    /* \"#utility.yul\":7:327   */\n  swap2\n  swap1\n  pop\n  jump\t// out\n    /* \"#utility.yul\":333:513   */\ntag_21:\n    /* \"#utility.yul\":381:458   */\n  0x4e487b7100000000000000000000000000000000000000000000000000000000\n    /* \"#utility.yul\":378:379   */\n  0x00\n    /* \"#utility.yul\":371:459   */\n  mstore\n    /* \"#utility.yul\":478:482   */\n  0x22\n    /* \"#utility.yul\":475:476   */\n  0x04\n    /* \"#utility.yul\":468:483   */\n  mstore\n    /* \"#utility.yul\":502:506   */\n  0x24\n    /* \"#utility.yul\":499:500   */\n  0x00\n    /* \"#utility.yul\":492:507   */\n  revert\n    /* \"StateLocalGlobalVariables.sol\":59:1944  contract StateLocalGlobalVar {\r... */\ntag_4:\n  dataSize(sub_0)\n  dup1\n  dataOffset(sub_0)\n  0x00\n  codecopy\n  0x00\n  return\nstop\n\nsub_0: assembly {\n        /* \"StateLocalGlobalVariables.sol\":59:1944  contract StateLocalGlobalVar {\r... */\n      mstore(0x40, 0x80)\n      callvalue\n      dup1\n      iszero\n      tag_1\n      jumpi\n      0x00\n      dup1\n      revert\n    tag_1:\n      pop\n      jumpi(tag_2, lt(calldatasize, 0x04))\n      shr(0xe0, calldataload(0x00))\n      dup1\n      0x4df7e3d0\n      gt\n      tag_13\n      jumpi\n      dup1\n      0x4df7e3d0\n      eq\n      tag_8\n      jumpi\n      dup1\n      0x65c5b6f2\n      eq\n      tag_9\n      jumpi\n      dup1\n      0x6e86e183\n      eq\n      tag_10\n      jumpi\n      dup1\n      0xd2143839\n      eq\n      tag_11\n      jumpi\n      dup1\n      0xf88e9fbf\n      eq\n      tag_12\n      jumpi\n      jump(tag_2)\n    tag_13:\n      dup1\n      0x05f753a7\n      eq\n      tag_3\n      jumpi\n      dup1\n      0x0dbe671f\n      eq\n      tag_4\n      jumpi\n      dup1\n      0x23dd40dd\n      eq\n      tag_5\n      jumpi\n      dup1\n      0x28da260b\n      eq\n      tag_6\n      jumpi\n      dup1\n      0x3c4308a8\n      eq\n      tag_7\n      jumpi\n    tag_2:\n      0x00\n      dup1\n      revert\n        /* \"StateLocalGlobalVariables.sol\":864:1099  function getStrVar() external pure returns(string memory){\r... */\n    tag_3:\n      tag_14\n      tag_15\n      jump\t// in\n    tag_14:\n      mload(0x40)\n      tag_16\n      swap2\n      swap1\n      tag_17\n      jump\t// in\n    tag_16:\n      mload(0x40)\n      dup1\n      swap2\n      sub\n      swap1\n      return\n        /* \"StateLocalGlobalVariables.sol\":141:157  int public a = 3 */\n    tag_4:\n      tag_18\n      tag_19\n      jump\t// in\n    tag_18:\n      mload(0x40)\n      tag_20\n      swap2\n      swap1\n      tag_21\n      jump\t// in\n    tag_20:\n      mload(0x40)\n      dup1\n      swap2\n      sub\n      swap1\n      return\n        /* \"StateLocalGlobalVariables.sol\":422:715  function multiplyBy_a(int x, int y) external view returns(int) {\r... */\n    tag_5:\n      tag_22\n      0x04\n      dup1\n      calldatasize\n      sub\n      dup2\n      add\n      swap1\n      tag_23\n      swap2\n      swap1\n      tag_24\n      jump\t// in\n    tag_23:\n      tag_25\n      jump\t// in\n    tag_22:\n      mload(0x40)\n      tag_26\n      swap2\n      swap1\n      tag_21\n      jump\t// in\n    tag_26:\n      mload(0x40)\n      dup1\n      swap2\n      sub\n      swap1\n      return\n        /* \"StateLocalGlobalVariables.sol\":1552:1941  function GlobalInfoViewer() external view returns(address, uint, uint){\r... */\n    tag_6:\n      tag_27\n      tag_28\n      jump\t// in\n    tag_27:\n      mload(0x40)\n      tag_29\n      swap4\n      swap3\n      swap2\n      swap1\n      tag_30\n      jump\t// in\n    tag_29:\n      mload(0x40)\n      dup1\n      swap2\n      sub\n      swap1\n      return\n        /* \"StateLocalGlobalVariables.sol\":192:313  function multiply(int x, int y) external pure returns(int) {\r... */\n    tag_7:\n      tag_31\n      0x04\n      dup1\n      calldatasize\n      sub\n      dup2\n      add\n      swap1\n      tag_32\n      swap2\n      swap1\n      tag_24\n      jump\t// in\n    tag_32:\n      tag_33\n      jump\t// in\n    tag_31:\n      mload(0x40)\n      tag_34\n      swap2\n      swap1\n      tag_21\n      jump\t// in\n    tag_34:\n      mload(0x40)\n      dup1\n      swap2\n      sub\n      swap1\n      return\n        /* \"StateLocalGlobalVariables.sol\":164:183  int public b = 0x10 */\n    tag_8:\n      tag_35\n      tag_36\n      jump\t// in\n    tag_35:\n      mload(0x40)\n      tag_37\n      swap2\n      swap1\n      tag_21\n      jump\t// in\n    tag_37:\n      mload(0x40)\n      dup1\n      swap2\n      sub\n      swap1\n      return\n        /* \"StateLocalGlobalVariables.sol\":1107:1544  function getGmtTime(uint timestamp) public pure returns(string memory){\r... */\n    tag_9:\n      tag_38\n      0x04\n      dup1\n      calldatasize\n      sub\n      dup2\n      add\n      swap1\n      tag_39\n      swap2\n      swap1\n      tag_40\n      jump\t// in\n    tag_39:\n      tag_41\n      jump\t// in\n    tag_38:\n      mload(0x40)\n      tag_42\n      swap2\n      swap1\n      tag_17\n      jump\t// in\n    tag_42:\n      mload(0x40)\n      dup1\n      swap2\n      sub\n      swap1\n      return\n        /* \"StateLocalGlobalVariables.sol\":724:855  function set_ab(int x, int y) external {\r... */\n    tag_10:\n      tag_43\n      0x04\n      dup1\n      calldatasize\n      sub\n      dup2\n      add\n      swap1\n      tag_44\n      swap2\n      swap1\n      tag_24\n      jump\t// in\n    tag_44:\n      tag_45\n      jump\t// in\n    tag_43:\n      stop\n        /* \"StateLocalGlobalVariables.sol\":95:134  string public  StateStr = \"stateString\" */\n    tag_11:\n      tag_46\n      tag_47\n      jump\t// in\n    tag_46:\n      mload(0x40)\n      tag_48\n      swap2\n      swap1\n      tag_17\n      jump\t// in\n    tag_48:\n      mload(0x40)\n      dup1\n      swap2\n      sub\n      swap1\n      return\n        /* \"StateLocalGlobalVariables.sol\":322:413  function divide(uint x, uint y) external pure returns(uint) {\r... */\n    tag_12:\n      tag_49\n      0x04\n      dup1\n      calldatasize\n      sub\n      dup2\n      add\n      swap1\n      tag_50\n      swap2\n      swap1\n      tag_51\n      jump\t// in\n    tag_50:\n      tag_52\n      jump\t// in\n    tag_49:\n      mload(0x40)\n      tag_53\n      swap2\n      swap1\n      tag_54\n      jump\t// in\n    tag_53:\n      mload(0x40)\n      dup1\n      swap2\n      sub\n      swap1\n      return\n        /* \"StateLocalGlobalVariables.sol\":864:1099  function getStrVar() external pure returns(string memory){\r... */\n    tag_15:\n        /* \"StateLocalGlobalVariables.sol\":907:920  string memory */\n      0x60\n        /* \"StateLocalGlobalVariables.sol\":1059:1090  abi.encodePacked(\"aaa\", \" bbb\") */\n      add(0x20, mload(0x40))\n      tag_56\n      swap1\n      tag_57\n      jump\t// in\n    tag_56:\n      mload(0x40)\n      0x20\n      dup2\n      dup4\n      sub\n      sub\n      dup2\n      mstore\n      swap1\n      0x40\n      mstore\n        /* \"StateLocalGlobalVariables.sol\":1045:1091  return string(abi.encodePacked(\"aaa\", \" bbb\")) */\n      swap1\n      pop\n        /* \"StateLocalGlobalVariables.sol\":864:1099  function getStrVar() external pure returns(string memory){\r... */\n      swap1\n      jump\t// out\n        /* \"StateLocalGlobalVariables.sol\":141:157  int public a = 3 */\n    tag_19:\n      sload(0x01)\n      dup2\n      jump\t// out\n        /* \"StateLocalGlobalVariables.sol\":422:715  function multiplyBy_a(int x, int y) external view returns(int) {\r... */\n    tag_25:\n        /* \"StateLocalGlobalVariables.sol\":480:483  int */\n      0x00\n        /* \"StateLocalGlobalVariables.sol\":590:595  int z */\n      dup1\n        /* \"StateLocalGlobalVariables.sol\":598:600  10 */\n      0x0a\n        /* \"StateLocalGlobalVariables.sol\":590:600  int z = 10 */\n      swap1\n      pop\n        /* \"StateLocalGlobalVariables.sol\":706:707  a */\n      sload(0x01)\n        /* \"StateLocalGlobalVariables.sol\":702:703  z */\n      dup2\n        /* \"StateLocalGlobalVariables.sol\":699:700  y */\n      dup5\n        /* \"StateLocalGlobalVariables.sol\":695:696  x */\n      dup7\n        /* \"StateLocalGlobalVariables.sol\":695:700  x * y */\n      tag_59\n      swap2\n      swap1\n      tag_60\n      jump\t// in\n    tag_59:\n        /* \"StateLocalGlobalVariables.sol\":695:703  x * y *z */\n      tag_61\n      swap2\n      swap1\n      tag_60\n      jump\t// in\n    tag_61:\n        /* \"StateLocalGlobalVariables.sol\":695:707  x * y *z * a */\n      tag_62\n      swap2\n      swap1\n      tag_60\n      jump\t// in\n    tag_62:\n        /* \"StateLocalGlobalVariables.sol\":688:707  return x * y *z * a */\n      swap2\n      pop\n      pop\n        /* \"StateLocalGlobalVariables.sol\":422:715  function multiplyBy_a(int x, int y) external view returns(int) {\r... */\n      swap3\n      swap2\n      pop\n      pop\n      jump\t// out\n        /* \"StateLocalGlobalVariables.sol\":1552:1941  function GlobalInfoViewer() external view returns(address, uint, uint){\r... */\n    tag_28:\n        /* \"StateLocalGlobalVariables.sol\":1602:1609  address */\n      0x00\n        /* \"StateLocalGlobalVariables.sol\":1611:1615  uint */\n      dup1\n        /* \"StateLocalGlobalVariables.sol\":1617:1621  uint */\n      0x00\n        /* \"StateLocalGlobalVariables.sol\":1633:1651  address senderAddr */\n      dup1\n        /* \"StateLocalGlobalVariables.sol\":1654:1664  msg.sender */\n      caller\n        /* \"StateLocalGlobalVariables.sol\":1633:1664  address senderAddr = msg.sender */\n      swap1\n      pop\n        /* \"StateLocalGlobalVariables.sol\":1675:1693  uint blockTimestap */\n      0x00\n        /* \"StateLocalGlobalVariables.sol\":1696:1711  block.timestamp */\n      timestamp\n        /* \"StateLocalGlobalVariables.sol\":1675:1711  uint blockTimestap = block.timestamp */\n      swap1\n      pop\n        /* \"StateLocalGlobalVariables.sol\":1722:1736  uint blocckNum */\n      0x00\n        /* \"StateLocalGlobalVariables.sol\":1739:1751  block.number */\n      number\n        /* \"StateLocalGlobalVariables.sol\":1722:1751  uint blocckNum = block.number */\n      swap1\n      pop\n        /* \"StateLocalGlobalVariables.sol\":1896:1906  senderAddr */\n      dup3\n        /* \"StateLocalGlobalVariables.sol\":1908:1921  blockTimestap */\n      dup3\n        /* \"StateLocalGlobalVariables.sol\":1923:1932  blocckNum */\n      dup3\n        /* \"StateLocalGlobalVariables.sol\":1889:1933  return(senderAddr, blockTimestap, blocckNum) */\n      swap6\n      pop\n      swap6\n      pop\n      swap6\n      pop\n      pop\n      pop\n      pop\n        /* \"StateLocalGlobalVariables.sol\":1552:1941  function GlobalInfoViewer() external view returns(address, uint, uint){\r... */\n      swap1\n      swap2\n      swap3\n      jump\t// out\n        /* \"StateLocalGlobalVariables.sol\":192:313  function multiply(int x, int y) external pure returns(int) {\r... */\n    tag_33:\n        /* \"StateLocalGlobalVariables.sol\":246:249  int */\n      0x00\n        /* \"StateLocalGlobalVariables.sol\":262:267  int z */\n      dup1\n        /* \"StateLocalGlobalVariables.sol\":269:271  10 */\n      0x0a\n        /* \"StateLocalGlobalVariables.sol\":262:271  int z =10 */\n      swap1\n      pop\n        /* \"StateLocalGlobalVariables.sol\":296:297  z */\n      dup1\n        /* \"StateLocalGlobalVariables.sol\":293:294  y */\n      dup4\n        /* \"StateLocalGlobalVariables.sol\":289:290  x */\n      dup6\n        /* \"StateLocalGlobalVariables.sol\":289:294  x * y */\n      tag_65\n      swap2\n      swap1\n      tag_60\n      jump\t// in\n    tag_65:\n        /* \"StateLocalGlobalVariables.sol\":289:297  x * y *z */\n      tag_66\n      swap2\n      swap1\n      tag_60\n      jump\t// in\n    tag_66:\n        /* \"StateLocalGlobalVariables.sol\":282:297  return x * y *z */\n      swap2\n      pop\n      pop\n        /* \"StateLocalGlobalVariables.sol\":192:313  function multiply(int x, int y) external pure returns(int) {\r... */\n      swap3\n      swap2\n      pop\n      pop\n      jump\t// out\n        /* \"StateLocalGlobalVariables.sol\":164:183  int public b = 0x10 */\n    tag_36:\n      sload(0x02)\n      dup2\n      jump\t// out\n        /* \"StateLocalGlobalVariables.sol\":1107:1544  function getGmtTime(uint timestamp) public pure returns(string memory){\r... */\n    tag_41:\n        /* \"StateLocalGlobalVariables.sol\":1163:1176  string memory */\n      0x60\n        /* \"StateLocalGlobalVariables.sol\":1192:1201  uint year */\n      0x00\n        /* \"StateLocalGlobalVariables.sol\":1217:1225  31536000 */\n      0x01e13380\n        /* \"StateLocalGlobalVariables.sol\":1205:1214  timestamp */\n      dup4\n        /* \"StateLocalGlobalVariables.sol\":1205:1225  timestamp / 31536000 */\n      tag_68\n      swap2\n      swap1\n      tag_69\n      jump\t// in\n    tag_68:\n        /* \"StateLocalGlobalVariables.sol\":1192:1226  uint year = (timestamp / 31536000) */\n      swap1\n      pop\n        /* \"StateLocalGlobalVariables.sol\":1241:1251  uint month */\n      0x00\n        /* \"StateLocalGlobalVariables.sol\":1280:1287  2628000 */\n      0x2819a0\n        /* \"StateLocalGlobalVariables.sol\":1268:1276  31536000 */\n      0x01e13380\n        /* \"StateLocalGlobalVariables.sol\":1256:1265  timestamp */\n      dup6\n        /* \"StateLocalGlobalVariables.sol\":1256:1276  timestamp % 31536000 */\n      tag_70\n      swap2\n      swap1\n      tag_71\n      jump\t// in\n    tag_70:\n        /* \"StateLocalGlobalVariables.sol\":1255:1287  (timestamp % 31536000) / 2628000 */\n      tag_72\n      swap2\n      swap1\n      tag_69\n      jump\t// in\n    tag_72:\n        /* \"StateLocalGlobalVariables.sol\":1241:1288  uint month = ((timestamp % 31536000) / 2628000) */\n      swap1\n      pop\n        /* \"StateLocalGlobalVariables.sol\":1303:1311  uint day */\n      0x00\n        /* \"StateLocalGlobalVariables.sol\":1353:1359  864000 */\n      0x0d2f00\n        /* \"StateLocalGlobalVariables.sol\":1341:1348  2628000 */\n      0x2819a0\n        /* \"StateLocalGlobalVariables.sol\":1329:1337  31536000 */\n      0x01e13380\n        /* \"StateLocalGlobalVariables.sol\":1317:1326  timestamp */\n      dup8\n        /* \"StateLocalGlobalVariables.sol\":1317:1337  timestamp % 31536000 */\n      tag_73\n      swap2\n      swap1\n      tag_71\n      jump\t// in\n    tag_73:\n        /* \"StateLocalGlobalVariables.sol\":1316:1348  (timestamp % 31536000) % 2628000 */\n      tag_74\n      swap2\n      swap1\n      tag_71\n      jump\t// in\n    tag_74:\n        /* \"StateLocalGlobalVariables.sol\":1314:1359  (((timestamp % 31536000) % 2628000)) / 864000 */\n      tag_75\n      swap2\n      swap1\n      tag_69\n      jump\t// in\n    tag_75:\n        /* \"StateLocalGlobalVariables.sol\":1303:1359  uint day = (((timestamp % 31536000) % 2628000)) / 864000 */\n      swap1\n      pop\n        /* \"StateLocalGlobalVariables.sol\":1374:1383  uint hour */\n      0x00\n        /* \"StateLocalGlobalVariables.sol\":1436:1442  360000 */\n      0x057e40\n        /* \"StateLocalGlobalVariables.sol\":1426:1432  864000 */\n      0x0d2f00\n        /* \"StateLocalGlobalVariables.sol\":1414:1421  2628000 */\n      0x2819a0\n        /* \"StateLocalGlobalVariables.sol\":1402:1410  31536000 */\n      0x01e13380\n        /* \"StateLocalGlobalVariables.sol\":1390:1399  timestamp */\n      dup10\n        /* \"StateLocalGlobalVariables.sol\":1390:1410  timestamp % 31536000 */\n      tag_76\n      swap2\n      swap1\n      tag_71\n      jump\t// in\n    tag_76:\n        /* \"StateLocalGlobalVariables.sol\":1389:1421  (timestamp % 31536000) % 2628000 */\n      tag_77\n      swap2\n      swap1\n      tag_71\n      jump\t// in\n    tag_77:\n        /* \"StateLocalGlobalVariables.sol\":1387:1432  (((timestamp % 31536000) % 2628000)) % 864000 */\n      tag_78\n      swap2\n      swap1\n      tag_71\n      jump\t// in\n    tag_78:\n        /* \"StateLocalGlobalVariables.sol\":1386:1442  ((((timestamp % 31536000) % 2628000)) % 864000) / 360000 */\n      tag_79\n      swap2\n      swap1\n      tag_69\n      jump\t// in\n    tag_79:\n        /* \"StateLocalGlobalVariables.sol\":1374:1442  uint hour = ((((timestamp % 31536000) % 2628000)) % 864000) / 360000 */\n      swap1\n      pop\n        /* \"StateLocalGlobalVariables.sol\":1495:1499  year */\n      dup4\n        /* \"StateLocalGlobalVariables.sol\":1506:1511  month */\n      dup4\n        /* \"StateLocalGlobalVariables.sol\":1518:1521  day */\n      dup4\n        /* \"StateLocalGlobalVariables.sol\":1526:1530  hour */\n      dup4\n        /* \"StateLocalGlobalVariables.sol\":1471:1531  abi.encodePacked(\"GMT\", year, \"-\", month, \"-\", day,\" \",hour) */\n      add(0x20, mload(0x40))\n      tag_80\n      swap5\n      swap4\n      swap3\n      swap2\n      swap1\n      tag_81\n      jump\t// in\n    tag_80:\n      mload(0x40)\n      0x20\n      dup2\n      dup4\n      sub\n      sub\n      dup2\n      mstore\n      swap1\n      0x40\n      mstore\n        /* \"StateLocalGlobalVariables.sol\":1457:1532  return string(abi.encodePacked(\"GMT\", year, \"-\", month, \"-\", day,\" \",hour)) */\n      swap5\n      pop\n      pop\n      pop\n      pop\n      pop\n        /* \"StateLocalGlobalVariables.sol\":1107:1544  function getGmtTime(uint timestamp) public pure returns(string memory){\r... */\n      swap2\n      swap1\n      pop\n      jump\t// out\n        /* \"StateLocalGlobalVariables.sol\":724:855  function set_ab(int x, int y) external {\r... */\n    tag_45:\n        /* \"StateLocalGlobalVariables.sol\":778:779  x */\n      dup2\n        /* \"StateLocalGlobalVariables.sol\":774:775  a */\n      0x01\n        /* \"StateLocalGlobalVariables.sol\":774:779  a = x */\n      dup2\n      swap1\n      sstore\n      pop\n        /* \"StateLocalGlobalVariables.sol\":846:847  y */\n      dup1\n        /* \"StateLocalGlobalVariables.sol\":842:843  b */\n      0x02\n        /* \"StateLocalGlobalVariables.sol\":842:847  b = y */\n      dup2\n      swap1\n      sstore\n      pop\n        /* \"StateLocalGlobalVariables.sol\":724:855  function set_ab(int x, int y) external {\r... */\n      pop\n      pop\n      jump\t// out\n        /* \"StateLocalGlobalVariables.sol\":95:134  string public  StateStr = \"stateString\" */\n    tag_47:\n      0x00\n      dup1\n      sload\n      tag_83\n      swap1\n      tag_84\n      jump\t// in\n    tag_83:\n      dup1\n      0x1f\n      add\n      0x20\n      dup1\n      swap2\n      div\n      mul\n      0x20\n      add\n      mload(0x40)\n      swap1\n      dup2\n      add\n      0x40\n      mstore\n      dup1\n      swap3\n      swap2\n      swap1\n      dup2\n      dup2\n      mstore\n      0x20\n      add\n      dup3\n      dup1\n      sload\n      tag_85\n      swap1\n      tag_84\n      jump\t// in\n    tag_85:\n      dup1\n      iszero\n      tag_86\n      jumpi\n      dup1\n      0x1f\n      lt\n      tag_87\n      jumpi\n      0x0100\n      dup1\n      dup4\n      sload\n      div\n      mul\n      dup4\n      mstore\n      swap2\n      0x20\n      add\n      swap2\n      jump(tag_86)\n    tag_87:\n      dup3\n      add\n      swap2\n      swap1\n      0x00\n      mstore\n      keccak256(0x00, 0x20)\n      swap1\n    tag_88:\n      dup2\n      sload\n      dup2\n      mstore\n      swap1\n      0x01\n      add\n      swap1\n      0x20\n      add\n      dup1\n      dup4\n      gt\n      tag_88\n      jumpi\n      dup3\n      swap1\n      sub\n      0x1f\n      and\n      dup3\n      add\n      swap2\n    tag_86:\n      pop\n      pop\n      pop\n      pop\n      pop\n      dup2\n      jump\t// out\n        /* \"StateLocalGlobalVariables.sol\":322:413  function divide(uint x, uint y) external pure returns(uint) {\r... */\n    tag_52:\n        /* \"StateLocalGlobalVariables.sol\":376:380  uint */\n      0x00\n        /* \"StateLocalGlobalVariables.sol\":404:405  y */\n      dup2\n        /* \"StateLocalGlobalVariables.sol\":400:401  x */\n      dup4\n        /* \"StateLocalGlobalVariables.sol\":400:405  x / y */\n      tag_90\n      swap2\n      swap1\n      tag_69\n      jump\t// in\n    tag_90:\n        /* \"StateLocalGlobalVariables.sol\":393:405  return x / y */\n      swap1\n      pop\n        /* \"StateLocalGlobalVariables.sol\":322:413  function divide(uint x, uint y) external pure returns(uint) {\r... */\n      swap3\n      swap2\n      pop\n      pop\n      jump\t// out\n        /* \"#utility.yul\":7:144   */\n    tag_92:\n        /* \"#utility.yul\":52:57   */\n      0x00\n        /* \"#utility.yul\":90:96   */\n      dup2\n        /* \"#utility.yul\":77:97   */\n      calldataload\n        /* \"#utility.yul\":68:97   */\n      swap1\n      pop\n        /* \"#utility.yul\":106:138   */\n      tag_94\n        /* \"#utility.yul\":132:137   */\n      dup2\n        /* \"#utility.yul\":106:138   */\n      tag_95\n      jump\t// in\n    tag_94:\n        /* \"#utility.yul\":7:144   */\n      swap3\n      swap2\n      pop\n      pop\n      jump\t// out\n        /* \"#utility.yul\":150:289   */\n    tag_96:\n        /* \"#utility.yul\":196:201   */\n      0x00\n        /* \"#utility.yul\":234:240   */\n      dup2\n        /* \"#utility.yul\":221:241   */\n      calldataload\n        /* \"#utility.yul\":212:241   */\n      swap1\n      pop\n        /* \"#utility.yul\":250:283   */\n      tag_98\n        /* \"#utility.yul\":277:282   */\n      dup2\n        /* \"#utility.yul\":250:283   */\n      tag_99\n      jump\t// in\n    tag_98:\n        /* \"#utility.yul\":150:289   */\n      swap3\n      swap2\n      pop\n      pop\n      jump\t// out\n        /* \"#utility.yul\":295:765   */\n    tag_24:\n        /* \"#utility.yul\":361:367   */\n      0x00\n        /* \"#utility.yul\":369:375   */\n      dup1\n        /* \"#utility.yul\":418:420   */\n      0x40\n        /* \"#utility.yul\":406:415   */\n      dup4\n        /* \"#utility.yul\":397:404   */\n      dup6\n        /* \"#utility.yul\":393:416   */\n      sub\n        /* \"#utility.yul\":389:421   */\n      slt\n        /* \"#utility.yul\":386:505   */\n      iszero\n      tag_101\n      jumpi\n        /* \"#utility.yul\":424:503   */\n      tag_102\n      tag_103\n      jump\t// in\n    tag_102:\n        /* \"#utility.yul\":386:505   */\n    tag_101:\n        /* \"#utility.yul\":544:545   */\n      0x00\n        /* \"#utility.yul\":569:621   */\n      tag_104\n        /* \"#utility.yul\":613:620   */\n      dup6\n        /* \"#utility.yul\":604:610   */\n      dup3\n        /* \"#utility.yul\":593:602   */\n      dup7\n        /* \"#utility.yul\":589:611   */\n      add\n        /* \"#utility.yul\":569:621   */\n      tag_92\n      jump\t// in\n    tag_104:\n        /* \"#utility.yul\":559:621   */\n      swap3\n      pop\n        /* \"#utility.yul\":515:631   */\n      pop\n        /* \"#utility.yul\":670:672   */\n      0x20\n        /* \"#utility.yul\":696:748   */\n      tag_105\n        /* \"#utility.yul\":740:747   */\n      dup6\n        /* \"#utility.yul\":731:737   */\n      dup3\n        /* \"#utility.yul\":720:729   */\n      dup7\n        /* \"#utility.yul\":716:738   */\n      add\n        /* \"#utility.yul\":696:748   */\n      tag_92\n      jump\t// in\n    tag_105:\n        /* \"#utility.yul\":686:748   */\n      swap2\n      pop\n        /* \"#utility.yul\":641:758   */\n      pop\n        /* \"#utility.yul\":295:765   */\n      swap3\n      pop\n      swap3\n      swap1\n      pop\n      jump\t// out\n        /* \"#utility.yul\":771:1100   */\n    tag_40:\n        /* \"#utility.yul\":830:836   */\n      0x00\n        /* \"#utility.yul\":879:881   */\n      0x20\n        /* \"#utility.yul\":867:876   */\n      dup3\n        /* \"#utility.yul\":858:865   */\n      dup5\n        /* \"#utility.yul\":854:877   */\n      sub\n        /* \"#utility.yul\":850:882   */\n      slt\n        /* \"#utility.yul\":847:966   */\n      iszero\n      tag_107\n      jumpi\n        /* \"#utility.yul\":885:964   */\n      tag_108\n      tag_103\n      jump\t// in\n    tag_108:\n        /* \"#utility.yul\":847:966   */\n    tag_107:\n        /* \"#utility.yul\":1005:1006   */\n      0x00\n        /* \"#utility.yul\":1030:1083   */\n      tag_109\n        /* \"#utility.yul\":1075:1082   */\n      dup5\n        /* \"#utility.yul\":1066:1072   */\n      dup3\n        /* \"#utility.yul\":1055:1064   */\n      dup6\n        /* \"#utility.yul\":1051:1073   */\n      add\n        /* \"#utility.yul\":1030:1083   */\n      tag_96\n      jump\t// in\n    tag_109:\n        /* \"#utility.yul\":1020:1083   */\n      swap2\n      pop\n        /* \"#utility.yul\":976:1093   */\n      pop\n        /* \"#utility.yul\":771:1100   */\n      swap3\n      swap2\n      pop\n      pop\n      jump\t// out\n        /* \"#utility.yul\":1106:1580   */\n    tag_51:\n        /* \"#utility.yul\":1174:1180   */\n      0x00\n        /* \"#utility.yul\":1182:1188   */\n      dup1\n        /* \"#utility.yul\":1231:1233   */\n      0x40\n        /* \"#utility.yul\":1219:1228   */\n      dup4\n        /* \"#utility.yul\":1210:1217   */\n      dup6\n        /* \"#utility.yul\":1206:1229   */\n      sub\n        /* \"#utility.yul\":1202:1234   */\n      slt\n        /* \"#utility.yul\":1199:1318   */\n      iszero\n      tag_111\n      jumpi\n        /* \"#utility.yul\":1237:1316   */\n      tag_112\n      tag_103\n      jump\t// in\n    tag_112:\n        /* \"#utility.yul\":1199:1318   */\n    tag_111:\n        /* \"#utility.yul\":1357:1358   */\n      0x00\n        /* \"#utility.yul\":1382:1435   */\n      tag_113\n        /* \"#utility.yul\":1427:1434   */\n      dup6\n        /* \"#utility.yul\":1418:1424   */\n      dup3\n        /* \"#utility.yul\":1407:1416   */\n      dup7\n        /* \"#utility.yul\":1403:1425   */\n      add\n        /* \"#utility.yul\":1382:1435   */\n      tag_96\n      jump\t// in\n    tag_113:\n        /* \"#utility.yul\":1372:1435   */\n      swap3\n      pop\n        /* \"#utility.yul\":1328:1445   */\n      pop\n        /* \"#utility.yul\":1484:1486   */\n      0x20\n        /* \"#utility.yul\":1510:1563   */\n      tag_114\n        /* \"#utility.yul\":1555:1562   */\n      dup6\n        /* \"#utility.yul\":1546:1552   */\n      dup3\n        /* \"#utility.yul\":1535:1544   */\n      dup7\n        /* \"#utility.yul\":1531:1553   */\n      add\n        /* \"#utility.yul\":1510:1563   */\n      tag_96\n      jump\t// in\n    tag_114:\n        /* \"#utility.yul\":1500:1563   */\n      swap2\n      pop\n        /* \"#utility.yul\":1455:1573   */\n      pop\n        /* \"#utility.yul\":1106:1580   */\n      swap3\n      pop\n      swap3\n      swap1\n      pop\n      jump\t// out\n        /* \"#utility.yul\":1586:1704   */\n    tag_115:\n        /* \"#utility.yul\":1673:1697   */\n      tag_117\n        /* \"#utility.yul\":1691:1696   */\n      dup2\n        /* \"#utility.yul\":1673:1697   */\n      tag_118\n      jump\t// in\n    tag_117:\n        /* \"#utility.yul\":1668:1671   */\n      dup3\n        /* \"#utility.yul\":1661:1698   */\n      mstore\n        /* \"#utility.yul\":1586:1704   */\n      pop\n      pop\n      jump\t// out\n        /* \"#utility.yul\":1710:1825   */\n    tag_119:\n        /* \"#utility.yul\":1795:1818   */\n      tag_121\n        /* \"#utility.yul\":1812:1817   */\n      dup2\n        /* \"#utility.yul\":1795:1818   */\n      tag_122\n      jump\t// in\n    tag_121:\n        /* \"#utility.yul\":1790:1793   */\n      dup3\n        /* \"#utility.yul\":1783:1819   */\n      mstore\n        /* \"#utility.yul\":1710:1825   */\n      pop\n      pop\n      jump\t// out\n        /* \"#utility.yul\":1831:2195   */\n    tag_123:\n        /* \"#utility.yul\":1919:1922   */\n      0x00\n        /* \"#utility.yul\":1947:1986   */\n      tag_125\n        /* \"#utility.yul\":1980:1985   */\n      dup3\n        /* \"#utility.yul\":1947:1986   */\n      tag_126\n      jump\t// in\n    tag_125:\n        /* \"#utility.yul\":2002:2073   */\n      tag_127\n        /* \"#utility.yul\":2066:2072   */\n      dup2\n        /* \"#utility.yul\":2061:2064   */\n      dup6\n        /* \"#utility.yul\":2002:2073   */\n      tag_128\n      jump\t// in\n    tag_127:\n        /* \"#utility.yul\":1995:2073   */\n      swap4\n      pop\n        /* \"#utility.yul\":2082:2134   */\n      tag_129\n        /* \"#utility.yul\":2127:2133   */\n      dup2\n        /* \"#utility.yul\":2122:2125   */\n      dup6\n        /* \"#utility.yul\":2115:2119   */\n      0x20\n        /* \"#utility.yul\":2108:2113   */\n      dup7\n        /* \"#utility.yul\":2104:2120   */\n      add\n        /* \"#utility.yul\":2082:2134   */\n      tag_130\n      jump\t// in\n    tag_129:\n        /* \"#utility.yul\":2159:2188   */\n      tag_131\n        /* \"#utility.yul\":2181:2187   */\n      dup2\n        /* \"#utility.yul\":2159:2188   */\n      tag_132\n      jump\t// in\n    tag_131:\n        /* \"#utility.yul\":2154:2157   */\n      dup5\n        /* \"#utility.yul\":2150:2189   */\n      add\n        /* \"#utility.yul\":2143:2189   */\n      swap2\n      pop\n        /* \"#utility.yul\":1923:2195   */\n      pop\n        /* \"#utility.yul\":1831:2195   */\n      swap3\n      swap2\n      pop\n      pop\n      jump\t// out\n        /* \"#utility.yul\":2201:2601   */\n    tag_133:\n        /* \"#utility.yul\":2361:2364   */\n      0x00\n        /* \"#utility.yul\":2382:2466   */\n      tag_135\n        /* \"#utility.yul\":2464:2465   */\n      0x03\n        /* \"#utility.yul\":2459:2462   */\n      dup4\n        /* \"#utility.yul\":2382:2466   */\n      tag_136\n      jump\t// in\n    tag_135:\n        /* \"#utility.yul\":2375:2466   */\n      swap2\n      pop\n        /* \"#utility.yul\":2475:2568   */\n      tag_137\n        /* \"#utility.yul\":2564:2567   */\n      dup3\n        /* \"#utility.yul\":2475:2568   */\n      tag_138\n      jump\t// in\n    tag_137:\n        /* \"#utility.yul\":2593:2594   */\n      0x03\n        /* \"#utility.yul\":2588:2591   */\n      dup3\n        /* \"#utility.yul\":2584:2595   */\n      add\n        /* \"#utility.yul\":2577:2595   */\n      swap1\n      pop\n        /* \"#utility.yul\":2201:2601   */\n      swap2\n      swap1\n      pop\n      jump\t// out\n        /* \"#utility.yul\":2607:3007   */\n    tag_139:\n        /* \"#utility.yul\":2767:2770   */\n      0x00\n        /* \"#utility.yul\":2788:2872   */\n      tag_141\n        /* \"#utility.yul\":2870:2871   */\n      0x04\n        /* \"#utility.yul\":2865:2868   */\n      dup4\n        /* \"#utility.yul\":2788:2872   */\n      tag_136\n      jump\t// in\n    tag_141:\n        /* \"#utility.yul\":2781:2872   */\n      swap2\n      pop\n        /* \"#utility.yul\":2881:2974   */\n      tag_142\n        /* \"#utility.yul\":2970:2973   */\n      dup3\n        /* \"#utility.yul\":2881:2974   */\n      tag_143\n      jump\t// in\n    tag_142:\n        /* \"#utility.yul\":2999:3000   */\n      0x04\n        /* \"#utility.yul\":2994:2997   */\n      dup3\n        /* \"#utility.yul\":2990:3001   */\n      add\n        /* \"#utility.yul\":2983:3001   */\n      swap1\n      pop\n        /* \"#utility.yul\":2607:3007   */\n      swap2\n      swap1\n      pop\n      jump\t// out\n        /* \"#utility.yul\":3013:3413   */\n    tag_144:\n        /* \"#utility.yul\":3173:3176   */\n      0x00\n        /* \"#utility.yul\":3194:3278   */\n      tag_146\n        /* \"#utility.yul\":3276:3277   */\n      0x01\n        /* \"#utility.yul\":3271:3274   */\n      dup4\n        /* \"#utility.yul\":3194:3278   */\n      tag_136\n      jump\t// in\n    tag_146:\n        /* \"#utility.yul\":3187:3278   */\n      swap2\n      pop\n        /* \"#utility.yul\":3287:3380   */\n      tag_147\n        /* \"#utility.yul\":3376:3379   */\n      dup3\n        /* \"#utility.yul\":3287:3380   */\n      tag_148\n      jump\t// in\n    tag_147:\n        /* \"#utility.yul\":3405:3406   */\n      0x01\n        /* \"#utility.yul\":3400:3403   */\n      dup3\n        /* \"#utility.yul\":3396:3407   */\n      add\n        /* \"#utility.yul\":3389:3407   */\n      swap1\n      pop\n        /* \"#utility.yul\":3013:3413   */\n      swap2\n      swap1\n      pop\n      jump\t// out\n        /* \"#utility.yul\":3419:3819   */\n    tag_149:\n        /* \"#utility.yul\":3579:3582   */\n      0x00\n        /* \"#utility.yul\":3600:3684   */\n      tag_151\n        /* \"#utility.yul\":3682:3683   */\n      0x03\n        /* \"#utility.yul\":3677:3680   */\n      dup4\n        /* \"#utility.yul\":3600:3684   */\n      tag_136\n      jump\t// in\n    tag_151:\n        /* \"#utility.yul\":3593:3684   */\n      swap2\n      pop\n        /* \"#utility.yul\":3693:3786   */\n      tag_152\n        /* \"#utility.yul\":3782:3785   */\n      dup3\n        /* \"#utility.yul\":3693:3786   */\n      tag_153\n      jump\t// in\n    tag_152:\n        /* \"#utility.yul\":3811:3812   */\n      0x03\n        /* \"#utility.yul\":3806:3809   */\n      dup3\n        /* \"#utility.yul\":3802:3813   */\n      add\n        /* \"#utility.yul\":3795:3813   */\n      swap1\n      pop\n        /* \"#utility.yul\":3419:3819   */\n      swap2\n      swap1\n      pop\n      jump\t// out\n        /* \"#utility.yul\":3825:4225   */\n    tag_154:\n        /* \"#utility.yul\":3985:3988   */\n      0x00\n        /* \"#utility.yul\":4006:4090   */\n      tag_156\n        /* \"#utility.yul\":4088:4089   */\n      0x01\n        /* \"#utility.yul\":4083:4086   */\n      dup4\n        /* \"#utility.yul\":4006:4090   */\n      tag_136\n      jump\t// in\n    tag_156:\n        /* \"#utility.yul\":3999:4090   */\n      swap2\n      pop\n        /* \"#utility.yul\":4099:4192   */\n      tag_157\n        /* \"#utility.yul\":4188:4191   */\n      dup3\n        /* \"#utility.yul\":4099:4192   */\n      tag_158\n      jump\t// in\n    tag_157:\n        /* \"#utility.yul\":4217:4218   */\n      0x01\n        /* \"#utility.yul\":4212:4215   */\n      dup3\n        /* \"#utility.yul\":4208:4219   */\n      add\n        /* \"#utility.yul\":4201:4219   */\n      swap1\n      pop\n        /* \"#utility.yul\":3825:4225   */\n      swap2\n      swap1\n      pop\n      jump\t// out\n        /* \"#utility.yul\":4231:4349   */\n    tag_159:\n        /* \"#utility.yul\":4318:4342   */\n      tag_161\n        /* \"#utility.yul\":4336:4341   */\n      dup2\n        /* \"#utility.yul\":4318:4342   */\n      tag_162\n      jump\t// in\n    tag_161:\n        /* \"#utility.yul\":4313:4316   */\n      dup3\n        /* \"#utility.yul\":4306:4343   */\n      mstore\n        /* \"#utility.yul\":4231:4349   */\n      pop\n      pop\n      jump\t// out\n        /* \"#utility.yul\":4355:4512   */\n    tag_163:\n        /* \"#utility.yul\":4460:4505   */\n      tag_165\n        /* \"#utility.yul\":4480:4504   */\n      tag_166\n        /* \"#utility.yul\":4498:4503   */\n      dup3\n        /* \"#utility.yul\":4480:4504   */\n      tag_162\n      jump\t// in\n    tag_166:\n        /* \"#utility.yul\":4460:4505   */\n      tag_167\n      jump\t// in\n    tag_165:\n        /* \"#utility.yul\":4455:4458   */\n      dup3\n        /* \"#utility.yul\":4448:4506   */\n      mstore\n        /* \"#utility.yul\":4355:4512   */\n      pop\n      pop\n      jump\t// out\n        /* \"#utility.yul\":4518:6261   */\n    tag_81:\n        /* \"#utility.yul\":5118:5121   */\n      0x00\n        /* \"#utility.yul\":5140:5288   */\n      tag_169\n        /* \"#utility.yul\":5284:5287   */\n      dup3\n        /* \"#utility.yul\":5140:5288   */\n      tag_133\n      jump\t// in\n    tag_169:\n        /* \"#utility.yul\":5133:5288   */\n      swap2\n      pop\n        /* \"#utility.yul\":5298:5373   */\n      tag_170\n        /* \"#utility.yul\":5369:5372   */\n      dup3\n        /* \"#utility.yul\":5360:5366   */\n      dup8\n        /* \"#utility.yul\":5298:5373   */\n      tag_163\n      jump\t// in\n    tag_170:\n        /* \"#utility.yul\":5398:5400   */\n      0x20\n        /* \"#utility.yul\":5393:5396   */\n      dup3\n        /* \"#utility.yul\":5389:5401   */\n      add\n        /* \"#utility.yul\":5382:5401   */\n      swap2\n      pop\n        /* \"#utility.yul\":5418:5566   */\n      tag_171\n        /* \"#utility.yul\":5562:5565   */\n      dup3\n        /* \"#utility.yul\":5418:5566   */\n      tag_154\n      jump\t// in\n    tag_171:\n        /* \"#utility.yul\":5411:5566   */\n      swap2\n      pop\n        /* \"#utility.yul\":5576:5651   */\n      tag_172\n        /* \"#utility.yul\":5647:5650   */\n      dup3\n        /* \"#utility.yul\":5638:5644   */\n      dup7\n        /* \"#utility.yul\":5576:5651   */\n      tag_163\n      jump\t// in\n    tag_172:\n        /* \"#utility.yul\":5676:5678   */\n      0x20\n        /* \"#utility.yul\":5671:5674   */\n      dup3\n        /* \"#utility.yul\":5667:5679   */\n      add\n        /* \"#utility.yul\":5660:5679   */\n      swap2\n      pop\n        /* \"#utility.yul\":5696:5844   */\n      tag_173\n        /* \"#utility.yul\":5840:5843   */\n      dup3\n        /* \"#utility.yul\":5696:5844   */\n      tag_154\n      jump\t// in\n    tag_173:\n        /* \"#utility.yul\":5689:5844   */\n      swap2\n      pop\n        /* \"#utility.yul\":5854:5929   */\n      tag_174\n        /* \"#utility.yul\":5925:5928   */\n      dup3\n        /* \"#utility.yul\":5916:5922   */\n      dup6\n        /* \"#utility.yul\":5854:5929   */\n      tag_163\n      jump\t// in\n    tag_174:\n        /* \"#utility.yul\":5954:5956   */\n      0x20\n        /* \"#utility.yul\":5949:5952   */\n      dup3\n        /* \"#utility.yul\":5945:5957   */\n      add\n        /* \"#utility.yul\":5938:5957   */\n      swap2\n      pop\n        /* \"#utility.yul\":5974:6122   */\n      tag_175\n        /* \"#utility.yul\":6118:6121   */\n      dup3\n        /* \"#utility.yul\":5974:6122   */\n      tag_144\n      jump\t// in\n    tag_175:\n        /* \"#utility.yul\":5967:6122   */\n      swap2\n      pop\n        /* \"#utility.yul\":6132:6207   */\n      tag_176\n        /* \"#utility.yul\":6203:6206   */\n      dup3\n        /* \"#utility.yul\":6194:6200   */\n      dup5\n        /* \"#utility.yul\":6132:6207   */\n      tag_163\n      jump\t// in\n    tag_176:\n        /* \"#utility.yul\":6232:6234   */\n      0x20\n        /* \"#utility.yul\":6227:6230   */\n      dup3\n        /* \"#utility.yul\":6223:6235   */\n      add\n        /* \"#utility.yul\":6216:6235   */\n      swap2\n      pop\n        /* \"#utility.yul\":6252:6255   */\n      dup2\n        /* \"#utility.yul\":6245:6255   */\n      swap1\n      pop\n        /* \"#utility.yul\":4518:6261   */\n      swap6\n      swap5\n      pop\n      pop\n      pop\n      pop\n      pop\n      jump\t// out\n        /* \"#utility.yul\":6267:6914   */\n    tag_57:\n        /* \"#utility.yul\":6553:6556   */\n      0x00\n        /* \"#utility.yul\":6575:6723   */\n      tag_178\n        /* \"#utility.yul\":6719:6722   */\n      dup3\n        /* \"#utility.yul\":6575:6723   */\n      tag_149\n      jump\t// in\n    tag_178:\n        /* \"#utility.yul\":6568:6723   */\n      swap2\n      pop\n        /* \"#utility.yul\":6740:6888   */\n      tag_179\n        /* \"#utility.yul\":6884:6887   */\n      dup3\n        /* \"#utility.yul\":6740:6888   */\n      tag_139\n      jump\t// in\n    tag_179:\n        /* \"#utility.yul\":6733:6888   */\n      swap2\n      pop\n        /* \"#utility.yul\":6905:6908   */\n      dup2\n        /* \"#utility.yul\":6898:6908   */\n      swap1\n      pop\n        /* \"#utility.yul\":6267:6914   */\n      swap2\n      swap1\n      pop\n      jump\t// out\n        /* \"#utility.yul\":6920:7362   */\n    tag_30:\n        /* \"#utility.yul\":7069:7073   */\n      0x00\n        /* \"#utility.yul\":7107:7109   */\n      0x60\n        /* \"#utility.yul\":7096:7105   */\n      dup3\n        /* \"#utility.yul\":7092:7110   */\n      add\n        /* \"#utility.yul\":7084:7110   */\n      swap1\n      pop\n        /* \"#utility.yul\":7120:7191   */\n      tag_181\n        /* \"#utility.yul\":7188:7189   */\n      0x00\n        /* \"#utility.yul\":7177:7186   */\n      dup4\n        /* \"#utility.yul\":7173:7190   */\n      add\n        /* \"#utility.yul\":7164:7170   */\n      dup7\n        /* \"#utility.yul\":7120:7191   */\n      tag_115\n      jump\t// in\n    tag_181:\n        /* \"#utility.yul\":7201:7273   */\n      tag_182\n        /* \"#utility.yul\":7269:7271   */\n      0x20\n        /* \"#utility.yul\":7258:7267   */\n      dup4\n        /* \"#utility.yul\":7254:7272   */\n      add\n        /* \"#utility.yul\":7245:7251   */\n      dup6\n        /* \"#utility.yul\":7201:7273   */\n      tag_159\n      jump\t// in\n    tag_182:\n        /* \"#utility.yul\":7283:7355   */\n      tag_183\n        /* \"#utility.yul\":7351:7353   */\n      0x40\n        /* \"#utility.yul\":7340:7349   */\n      dup4\n        /* \"#utility.yul\":7336:7354   */\n      add\n        /* \"#utility.yul\":7327:7333   */\n      dup5\n        /* \"#utility.yul\":7283:7355   */\n      tag_159\n      jump\t// in\n    tag_183:\n        /* \"#utility.yul\":6920:7362   */\n      swap5\n      swap4\n      pop\n      pop\n      pop\n      pop\n      jump\t// out\n        /* \"#utility.yul\":7368:7586   */\n    tag_21:\n        /* \"#utility.yul\":7459:7463   */\n      0x00\n        /* \"#utility.yul\":7497:7499   */\n      0x20\n        /* \"#utility.yul\":7486:7495   */\n      dup3\n        /* \"#utility.yul\":7482:7500   */\n      add\n        /* \"#utility.yul\":7474:7500   */\n      swap1\n      pop\n        /* \"#utility.yul\":7510:7579   */\n      tag_185\n        /* \"#utility.yul\":7576:7577   */\n      0x00\n        /* \"#utility.yul\":7565:7574   */\n      dup4\n        /* \"#utility.yul\":7561:7578   */\n      add\n        /* \"#utility.yul\":7552:7558   */\n      dup5\n        /* \"#utility.yul\":7510:7579   */\n      tag_119\n      jump\t// in\n    tag_185:\n        /* \"#utility.yul\":7368:7586   */\n      swap3\n      swap2\n      pop\n      pop\n      jump\t// out\n        /* \"#utility.yul\":7592:7905   */\n    tag_17:\n        /* \"#utility.yul\":7705:7709   */\n      0x00\n        /* \"#utility.yul\":7743:7745   */\n      0x20\n        /* \"#utility.yul\":7732:7741   */\n      dup3\n        /* \"#utility.yul\":7728:7746   */\n      add\n        /* \"#utility.yul\":7720:7746   */\n      swap1\n      pop\n        /* \"#utility.yul\":7792:7801   */\n      dup2\n        /* \"#utility.yul\":7786:7790   */\n      dup2\n        /* \"#utility.yul\":7782:7802   */\n      sub\n        /* \"#utility.yul\":7778:7779   */\n      0x00\n        /* \"#utility.yul\":7767:7776   */\n      dup4\n        /* \"#utility.yul\":7763:7780   */\n      add\n        /* \"#utility.yul\":7756:7803   */\n      mstore\n        /* \"#utility.yul\":7820:7898   */\n      tag_187\n        /* \"#utility.yul\":7893:7897   */\n      dup2\n        /* \"#utility.yul\":7884:7890   */\n      dup5\n        /* \"#utility.yul\":7820:7898   */\n      tag_123\n      jump\t// in\n    tag_187:\n        /* \"#utility.yul\":7812:7898   */\n      swap1\n      pop\n        /* \"#utility.yul\":7592:7905   */\n      swap3\n      swap2\n      pop\n      pop\n      jump\t// out\n        /* \"#utility.yul\":7911:8133   */\n    tag_54:\n        /* \"#utility.yul\":8004:8008   */\n      0x00\n        /* \"#utility.yul\":8042:8044   */\n      0x20\n        /* \"#utility.yul\":8031:8040   */\n      dup3\n        /* \"#utility.yul\":8027:8045   */\n      add\n        /* \"#utility.yul\":8019:8045   */\n      swap1\n      pop\n        /* \"#utility.yul\":8055:8126   */\n      tag_189\n        /* \"#utility.yul\":8123:8124   */\n      0x00\n        /* \"#utility.yul\":8112:8121   */\n      dup4\n        /* \"#utility.yul\":8108:8125   */\n      add\n        /* \"#utility.yul\":8099:8105   */\n      dup5\n        /* \"#utility.yul\":8055:8126   */\n      tag_159\n      jump\t// in\n    tag_189:\n        /* \"#utility.yul\":7911:8133   */\n      swap3\n      swap2\n      pop\n      pop\n      jump\t// out\n        /* \"#utility.yul\":8220:8319   */\n    tag_126:\n        /* \"#utility.yul\":8272:8278   */\n      0x00\n        /* \"#utility.yul\":8306:8311   */\n      dup2\n        /* \"#utility.yul\":8300:8312   */\n      mload\n        /* \"#utility.yul\":8290:8312   */\n      swap1\n      pop\n        /* \"#utility.yul\":8220:8319   */\n      swap2\n      swap1\n      pop\n      jump\t// out\n        /* \"#utility.yul\":8325:8494   */\n    tag_128:\n        /* \"#utility.yul\":8409:8420   */\n      0x00\n        /* \"#utility.yul\":8443:8449   */\n      dup3\n        /* \"#utility.yul\":8438:8441   */\n      dup3\n        /* \"#utility.yul\":8431:8450   */\n      mstore\n        /* \"#utility.yul\":8483:8487   */\n      0x20\n        /* \"#utility.yul\":8478:8481   */\n      dup3\n        /* \"#utility.yul\":8474:8488   */\n      add\n        /* \"#utility.yul\":8459:8488   */\n      swap1\n      pop\n        /* \"#utility.yul\":8325:8494   */\n      swap3\n      swap2\n      pop\n      pop\n      jump\t// out\n        /* \"#utility.yul\":8500:8648   */\n    tag_136:\n        /* \"#utility.yul\":8602:8613   */\n      0x00\n        /* \"#utility.yul\":8639:8642   */\n      dup2\n        /* \"#utility.yul\":8624:8642   */\n      swap1\n      pop\n        /* \"#utility.yul\":8500:8648   */\n      swap3\n      swap2\n      pop\n      pop\n      jump\t// out\n        /* \"#utility.yul\":8654:8839   */\n    tag_69:\n        /* \"#utility.yul\":8694:8695   */\n      0x00\n        /* \"#utility.yul\":8711:8731   */\n      tag_196\n        /* \"#utility.yul\":8729:8730   */\n      dup3\n        /* \"#utility.yul\":8711:8731   */\n      tag_162\n      jump\t// in\n    tag_196:\n        /* \"#utility.yul\":8706:8731   */\n      swap2\n      pop\n        /* \"#utility.yul\":8745:8765   */\n      tag_197\n        /* \"#utility.yul\":8763:8764   */\n      dup4\n        /* \"#utility.yul\":8745:8765   */\n      tag_162\n      jump\t// in\n    tag_197:\n        /* \"#utility.yul\":8740:8765   */\n      swap3\n      pop\n        /* \"#utility.yul\":8784:8785   */\n      dup3\n        /* \"#utility.yul\":8774:8809   */\n      tag_198\n      jumpi\n        /* \"#utility.yul\":8789:8807   */\n      tag_199\n      tag_200\n      jump\t// in\n    tag_199:\n        /* \"#utility.yul\":8774:8809   */\n    tag_198:\n        /* \"#utility.yul\":8831:8832   */\n      dup3\n        /* \"#utility.yul\":8828:8829   */\n      dup3\n        /* \"#utility.yul\":8824:8833   */\n      div\n        /* \"#utility.yul\":8819:8833   */\n      swap1\n      pop\n        /* \"#utility.yul\":8654:8839   */\n      swap3\n      swap2\n      pop\n      pop\n      jump\t// out\n        /* \"#utility.yul\":8845:9836   */\n    tag_60:\n        /* \"#utility.yul\":8884:8891   */\n      0x00\n        /* \"#utility.yul\":8907:8926   */\n      tag_202\n        /* \"#utility.yul\":8924:8925   */\n      dup3\n        /* \"#utility.yul\":8907:8926   */\n      tag_122\n      jump\t// in\n    tag_202:\n        /* \"#utility.yul\":8902:8926   */\n      swap2\n      pop\n        /* \"#utility.yul\":8940:8959   */\n      tag_203\n        /* \"#utility.yul\":8957:8958   */\n      dup4\n        /* \"#utility.yul\":8940:8959   */\n      tag_122\n      jump\t// in\n    tag_203:\n        /* \"#utility.yul\":8935:8959   */\n      swap3\n      pop\n        /* \"#utility.yul\":9141:9142   */\n      dup3\n        /* \"#utility.yul\":9073:9139   */\n      0x7fffffffffffffffffffffffffffffffffffffffffffffffffffffffffffffff\n        /* \"#utility.yul\":9069:9143   */\n      div\n        /* \"#utility.yul\":9066:9067   */\n      dup3\n        /* \"#utility.yul\":9063:9144   */\n      gt\n        /* \"#utility.yul\":9058:9059   */\n      0x00\n        /* \"#utility.yul\":9055:9056   */\n      dup5\n        /* \"#utility.yul\":9051:9060   */\n      sgt\n        /* \"#utility.yul\":9047:9048   */\n      0x00\n        /* \"#utility.yul\":9044:9045   */\n      dup5\n        /* \"#utility.yul\":9040:9049   */\n      sgt\n        /* \"#utility.yul\":9036:9061   */\n      and\n        /* \"#utility.yul\":9032:9145   */\n      and\n        /* \"#utility.yul\":9029:9168   */\n      iszero\n      tag_204\n      jumpi\n        /* \"#utility.yul\":9148:9166   */\n      tag_205\n      tag_206\n      jump\t// in\n    tag_205:\n        /* \"#utility.yul\":9029:9168   */\n    tag_204:\n        /* \"#utility.yul\":9352:9353   */\n      dup2\n        /* \"#utility.yul\":9284:9350   */\n      0x8000000000000000000000000000000000000000000000000000000000000000\n        /* \"#utility.yul\":9279:9354   */\n      sdiv\n        /* \"#utility.yul\":9276:9277   */\n      dup4\n        /* \"#utility.yul\":9272:9355   */\n      slt\n        /* \"#utility.yul\":9267:9268   */\n      0x00\n        /* \"#utility.yul\":9264:9265   */\n      dup5\n        /* \"#utility.yul\":9260:9269   */\n      slt\n        /* \"#utility.yul\":9256:9257   */\n      0x00\n        /* \"#utility.yul\":9253:9254   */\n      dup5\n        /* \"#utility.yul\":9249:9258   */\n      sgt\n        /* \"#utility.yul\":9245:9270   */\n      and\n        /* \"#utility.yul\":9241:9356   */\n      and\n        /* \"#utility.yul\":9238:9379   */\n      iszero\n      tag_207\n      jumpi\n        /* \"#utility.yul\":9359:9377   */\n      tag_208\n      tag_206\n      jump\t// in\n    tag_208:\n        /* \"#utility.yul\":9238:9379   */\n    tag_207:\n        /* \"#utility.yul\":9563:9564   */\n      dup3\n        /* \"#utility.yul\":9495:9561   */\n      0x8000000000000000000000000000000000000000000000000000000000000000\n        /* \"#utility.yul\":9490:9565   */\n      sdiv\n        /* \"#utility.yul\":9487:9488   */\n      dup3\n        /* \"#utility.yul\":9483:9566   */\n      slt\n        /* \"#utility.yul\":9478:9479   */\n      0x00\n        /* \"#utility.yul\":9475:9476   */\n      dup5\n        /* \"#utility.yul\":9471:9480   */\n      sgt\n        /* \"#utility.yul\":9467:9468   */\n      0x00\n        /* \"#utility.yul\":9464:9465   */\n      dup5\n        /* \"#utility.yul\":9460:9469   */\n      slt\n        /* \"#utility.yul\":9456:9481   */\n      and\n        /* \"#utility.yul\":9452:9567   */\n      and\n        /* \"#utility.yul\":9449:9590   */\n      iszero\n      tag_209\n      jumpi\n        /* \"#utility.yul\":9570:9588   */\n      tag_210\n      tag_206\n      jump\t// in\n    tag_210:\n        /* \"#utility.yul\":9449:9590   */\n    tag_209:\n        /* \"#utility.yul\":9773:9774   */\n      dup3\n        /* \"#utility.yul\":9705:9771   */\n      0x7fffffffffffffffffffffffffffffffffffffffffffffffffffffffffffffff\n        /* \"#utility.yul\":9700:9775   */\n      sdiv\n        /* \"#utility.yul\":9697:9698   */\n      dup3\n        /* \"#utility.yul\":9693:9776   */\n      slt\n        /* \"#utility.yul\":9688:9689   */\n      0x00\n        /* \"#utility.yul\":9685:9686   */\n      dup5\n        /* \"#utility.yul\":9681:9690   */\n      slt\n        /* \"#utility.yul\":9677:9678   */\n      0x00\n        /* \"#utility.yul\":9674:9675   */\n      dup5\n        /* \"#utility.yul\":9670:9679   */\n      slt\n        /* \"#utility.yul\":9666:9691   */\n      and\n        /* \"#utility.yul\":9662:9777   */\n      and\n        /* \"#utility.yul\":9659:9800   */\n      iszero\n      tag_211\n      jumpi\n        /* \"#utility.yul\":9780:9798   */\n      tag_212\n      tag_206\n      jump\t// in\n    tag_212:\n        /* \"#utility.yul\":9659:9800   */\n    tag_211:\n        /* \"#utility.yul\":9828:9829   */\n      dup3\n        /* \"#utility.yul\":9825:9826   */\n      dup3\n        /* \"#utility.yul\":9821:9830   */\n      mul\n        /* \"#utility.yul\":9810:9830   */\n      swap1\n      pop\n        /* \"#utility.yul\":8845:9836   */\n      swap3\n      swap2\n      pop\n      pop\n      jump\t// out\n        /* \"#utility.yul\":9842:9938   */\n    tag_118:\n        /* \"#utility.yul\":9879:9886   */\n      0x00\n        /* \"#utility.yul\":9908:9932   */\n      tag_214\n        /* \"#utility.yul\":9926:9931   */\n      dup3\n        /* \"#utility.yul\":9908:9932   */\n      tag_215\n      jump\t// in\n    tag_214:\n        /* \"#utility.yul\":9897:9932   */\n      swap1\n      pop\n        /* \"#utility.yul\":9842:9938   */\n      swap2\n      swap1\n      pop\n      jump\t// out\n        /* \"#utility.yul\":9944:10020   */\n    tag_122:\n        /* \"#utility.yul\":9980:9987   */\n      0x00\n        /* \"#utility.yul\":10009:10014   */\n      dup2\n        /* \"#utility.yul\":9998:10014   */\n      swap1\n      pop\n        /* \"#utility.yul\":9944:10020   */\n      swap2\n      swap1\n      pop\n      jump\t// out\n        /* \"#utility.yul\":10026:10152   */\n    tag_215:\n        /* \"#utility.yul\":10063:10070   */\n      0x00\n        /* \"#utility.yul\":10103:10145   */\n      0xffffffffffffffffffffffffffffffffffffffff\n        /* \"#utility.yul\":10096:10101   */\n      dup3\n        /* \"#utility.yul\":10092:10146   */\n      and\n        /* \"#utility.yul\":10081:10146   */\n      swap1\n      pop\n        /* \"#utility.yul\":10026:10152   */\n      swap2\n      swap1\n      pop\n      jump\t// out\n        /* \"#utility.yul\":10158:10235   */\n    tag_162:\n        /* \"#utility.yul\":10195:10202   */\n      0x00\n        /* \"#utility.yul\":10224:10229   */\n      dup2\n        /* \"#utility.yul\":10213:10229   */\n      swap1\n      pop\n        /* \"#utility.yul\":10158:10235   */\n      swap2\n      swap1\n      pop\n      jump\t// out\n        /* \"#utility.yul\":10241:10548   */\n    tag_130:\n        /* \"#utility.yul\":10309:10310   */\n      0x00\n        /* \"#utility.yul\":10319:10432   */\n    tag_220:\n        /* \"#utility.yul\":10333:10339   */\n      dup4\n        /* \"#utility.yul\":10330:10331   */\n      dup2\n        /* \"#utility.yul\":10327:10340   */\n      lt\n        /* \"#utility.yul\":10319:10432   */\n      iszero\n      tag_222\n      jumpi\n        /* \"#utility.yul\":10418:10419   */\n      dup1\n        /* \"#utility.yul\":10413:10416   */\n      dup3\n        /* \"#utility.yul\":10409:10420   */\n      add\n        /* \"#utility.yul\":10403:10421   */\n      mload\n        /* \"#utility.yul\":10399:10400   */\n      dup2\n        /* \"#utility.yul\":10394:10397   */\n      dup5\n        /* \"#utility.yul\":10390:10401   */\n      add\n        /* \"#utility.yul\":10383:10422   */\n      mstore\n        /* \"#utility.yul\":10355:10357   */\n      0x20\n        /* \"#utility.yul\":10352:10353   */\n      dup2\n        /* \"#utility.yul\":10348:10358   */\n      add\n        /* \"#utility.yul\":10343:10358   */\n      swap1\n      pop\n        /* \"#utility.yul\":10319:10432   */\n      jump(tag_220)\n    tag_222:\n        /* \"#utility.yul\":10450:10456   */\n      dup4\n        /* \"#utility.yul\":10447:10448   */\n      dup2\n        /* \"#utility.yul\":10444:10457   */\n      gt\n        /* \"#utility.yul\":10441:10542   */\n      iszero\n      tag_223\n      jumpi\n        /* \"#utility.yul\":10530:10531   */\n      0x00\n        /* \"#utility.yul\":10521:10527   */\n      dup5\n        /* \"#utility.yul\":10516:10519   */\n      dup5\n        /* \"#utility.yul\":10512:10528   */\n      add\n        /* \"#utility.yul\":10505:10532   */\n      mstore\n        /* \"#utility.yul\":10441:10542   */\n    tag_223:\n        /* \"#utility.yul\":10290:10548   */\n      pop\n        /* \"#utility.yul\":10241:10548   */\n      pop\n      pop\n      pop\n      jump\t// out\n        /* \"#utility.yul\":10554:10874   */\n    tag_84:\n        /* \"#utility.yul\":10598:10604   */\n      0x00\n        /* \"#utility.yul\":10635:10636   */\n      0x02\n        /* \"#utility.yul\":10629:10633   */\n      dup3\n        /* \"#utility.yul\":10625:10637   */\n      div\n        /* \"#utility.yul\":10615:10637   */\n      swap1\n      pop\n        /* \"#utility.yul\":10682:10683   */\n      0x01\n        /* \"#utility.yul\":10676:10680   */\n      dup3\n        /* \"#utility.yul\":10672:10684   */\n      and\n        /* \"#utility.yul\":10703:10721   */\n      dup1\n        /* \"#utility.yul\":10693:10774   */\n      tag_225\n      jumpi\n        /* \"#utility.yul\":10759:10763   */\n      0x7f\n        /* \"#utility.yul\":10751:10757   */\n      dup3\n        /* \"#utility.yul\":10747:10764   */\n      and\n        /* \"#utility.yul\":10737:10764   */\n      swap2\n      pop\n        /* \"#utility.yul\":10693:10774   */\n    tag_225:\n        /* \"#utility.yul\":10821:10823   */\n      0x20\n        /* \"#utility.yul\":10813:10819   */\n      dup3\n        /* \"#utility.yul\":10810:10824   */\n      lt\n        /* \"#utility.yul\":10790:10808   */\n      dup2\n        /* \"#utility.yul\":10787:10825   */\n      eq\n        /* \"#utility.yul\":10784:10868   */\n      iszero\n      tag_226\n      jumpi\n        /* \"#utility.yul\":10840:10858   */\n      tag_227\n      tag_228\n      jump\t// in\n    tag_227:\n        /* \"#utility.yul\":10784:10868   */\n    tag_226:\n        /* \"#utility.yul\":10605:10874   */\n      pop\n        /* \"#utility.yul\":10554:10874   */\n      swap2\n      swap1\n      pop\n      jump\t// out\n        /* \"#utility.yul\":10880:10959   */\n    tag_167:\n        /* \"#utility.yul\":10919:10926   */\n      0x00\n        /* \"#utility.yul\":10948:10953   */\n      dup2\n        /* \"#utility.yul\":10937:10953   */\n      swap1\n      pop\n        /* \"#utility.yul\":10880:10959   */\n      swap2\n      swap1\n      pop\n      jump\t// out\n        /* \"#utility.yul\":10965:11141   */\n    tag_71:\n        /* \"#utility.yul\":10997:10998   */\n      0x00\n        /* \"#utility.yul\":11014:11034   */\n      tag_231\n        /* \"#utility.yul\":11032:11033   */\n      dup3\n        /* \"#utility.yul\":11014:11034   */\n      tag_162\n      jump\t// in\n    tag_231:\n        /* \"#utility.yul\":11009:11034   */\n      swap2\n      pop\n        /* \"#utility.yul\":11048:11068   */\n      tag_232\n        /* \"#utility.yul\":11066:11067   */\n      dup4\n        /* \"#utility.yul\":11048:11068   */\n      tag_162\n      jump\t// in\n    tag_232:\n        /* \"#utility.yul\":11043:11068   */\n      swap3\n      pop\n        /* \"#utility.yul\":11087:11088   */\n      dup3\n        /* \"#utility.yul\":11077:11112   */\n      tag_233\n      jumpi\n        /* \"#utility.yul\":11092:11110   */\n      tag_234\n      tag_200\n      jump\t// in\n    tag_234:\n        /* \"#utility.yul\":11077:11112   */\n    tag_233:\n        /* \"#utility.yul\":11133:11134   */\n      dup3\n        /* \"#utility.yul\":11130:11131   */\n      dup3\n        /* \"#utility.yul\":11126:11135   */\n      mod\n        /* \"#utility.yul\":11121:11135   */\n      swap1\n      pop\n        /* \"#utility.yul\":10965:11141   */\n      swap3\n      swap2\n      pop\n      pop\n      jump\t// out\n        /* \"#utility.yul\":11147:11327   */\n    tag_206:\n        /* \"#utility.yul\":11195:11272   */\n      0x4e487b7100000000000000000000000000000000000000000000000000000000\n        /* \"#utility.yul\":11192:11193   */\n      0x00\n        /* \"#utility.yul\":11185:11273   */\n      mstore\n        /* \"#utility.yul\":11292:11296   */\n      0x11\n        /* \"#utility.yul\":11289:11290   */\n      0x04\n        /* \"#utility.yul\":11282:11297   */\n      mstore\n        /* \"#utility.yul\":11316:11320   */\n      0x24\n        /* \"#utility.yul\":11313:11314   */\n      0x00\n        /* \"#utility.yul\":11306:11321   */\n      revert\n        /* \"#utility.yul\":11333:11513   */\n    tag_200:\n        /* \"#utility.yul\":11381:11458   */\n      0x4e487b7100000000000000000000000000000000000000000000000000000000\n        /* \"#utility.yul\":11378:11379   */\n      0x00\n        /* \"#utility.yul\":11371:11459   */\n      mstore\n        /* \"#utility.yul\":11478:11482   */\n      0x12\n        /* \"#utility.yul\":11475:11476   */\n      0x04\n        /* \"#utility.yul\":11468:11483   */\n      mstore\n        /* \"#utility.yul\":11502:11506   */\n      0x24\n        /* \"#utility.yul\":11499:11500   */\n      0x00\n        /* \"#utility.yul\":11492:11507   */\n      revert\n        /* \"#utility.yul\":11519:11699   */\n    tag_228:\n        /* \"#utility.yul\":11567:11644   */\n      0x4e487b7100000000000000000000000000000000000000000000000000000000\n        /* \"#utility.yul\":11564:11565   */\n      0x00\n        /* \"#utility.yul\":11557:11645   */\n      mstore\n        /* \"#utility.yul\":11664:11668   */\n      0x22\n        /* \"#utility.yul\":11661:11662   */\n      0x04\n        /* \"#utility.yul\":11654:11669   */\n      mstore\n        /* \"#utility.yul\":11688:11692   */\n      0x24\n        /* \"#utility.yul\":11685:11686   */\n      0x00\n        /* \"#utility.yul\":11678:11693   */\n      revert\n        /* \"#utility.yul\":11828:11945   */\n    tag_103:\n        /* \"#utility.yul\":11937:11938   */\n      0x00\n        /* \"#utility.yul\":11934:11935   */\n      dup1\n        /* \"#utility.yul\":11927:11939   */\n      revert\n        /* \"#utility.yul\":11951:12053   */\n    tag_132:\n        /* \"#utility.yul\":11992:11998   */\n      0x00\n        /* \"#utility.yul\":12043:12045   */\n      0x1f\n        /* \"#utility.yul\":12039:12046   */\n      not\n        /* \"#utility.yul\":12034:12036   */\n      0x1f\n        /* \"#utility.yul\":12027:12032   */\n      dup4\n        /* \"#utility.yul\":12023:12037   */\n      add\n        /* \"#utility.yul\":12019:12047   */\n      and\n        /* \"#utility.yul\":12009:12047   */\n      swap1\n      pop\n        /* \"#utility.yul\":11951:12053   */\n      swap2\n      swap1\n      pop\n      jump\t// out\n        /* \"#utility.yul\":12059:12212   */\n    tag_138:\n        /* \"#utility.yul\":12199:12204   */\n      0x474d540000000000000000000000000000000000000000000000000000000000\n        /* \"#utility.yul\":12195:12196   */\n      0x00\n        /* \"#utility.yul\":12187:12193   */\n      dup3\n        /* \"#utility.yul\":12183:12197   */\n      add\n        /* \"#utility.yul\":12176:12205   */\n      mstore\n        /* \"#utility.yul\":12059:12212   */\n      pop\n      jump\t// out\n        /* \"#utility.yul\":12218:12372   */\n    tag_143:\n        /* \"#utility.yul\":12358:12364   */\n      0x2062626200000000000000000000000000000000000000000000000000000000\n        /* \"#utility.yul\":12354:12355   */\n      0x00\n        /* \"#utility.yul\":12346:12352   */\n      dup3\n        /* \"#utility.yul\":12342:12356   */\n      add\n        /* \"#utility.yul\":12335:12365   */\n      mstore\n        /* \"#utility.yul\":12218:12372   */\n      pop\n      jump\t// out\n        /* \"#utility.yul\":12378:12529   */\n    tag_148:\n        /* \"#utility.yul\":12518:12521   */\n      0x2000000000000000000000000000000000000000000000000000000000000000\n        /* \"#utility.yul\":12514:12515   */\n      0x00\n        /* \"#utility.yul\":12506:12512   */\n      dup3\n        /* \"#utility.yul\":12502:12516   */\n      add\n        /* \"#utility.yul\":12495:12522   */\n      mstore\n        /* \"#utility.yul\":12378:12529   */\n      pop\n      jump\t// out\n        /* \"#utility.yul\":12535:12688   */\n    tag_153:\n        /* \"#utility.yul\":12675:12680   */\n      0x6161610000000000000000000000000000000000000000000000000000000000\n        /* \"#utility.yul\":12671:12672   */\n      0x00\n        /* \"#utility.yul\":12663:12669   */\n      dup3\n        /* \"#utility.yul\":12659:12673   */\n      add\n        /* \"#utility.yul\":12652:12681   */\n      mstore\n        /* \"#utility.yul\":12535:12688   */\n      pop\n      jump\t// out\n        /* \"#utility.yul\":12694:12845   */\n    tag_158:\n        /* \"#utility.yul\":12834:12837   */\n      0x2d00000000000000000000000000000000000000000000000000000000000000\n        /* \"#utility.yul\":12830:12831   */\n      0x00\n        /* \"#utility.yul\":12822:12828   */\n      dup3\n        /* \"#utility.yul\":12818:12832   */\n      add\n        /* \"#utility.yul\":12811:12838   */\n      mstore\n        /* \"#utility.yul\":12694:12845   */\n      pop\n      jump\t// out\n        /* \"#utility.yul\":12851:12971   */\n    tag_95:\n        /* \"#utility.yul\":12923:12946   */\n      tag_248\n        /* \"#utility.yul\":12940:12945   */\n      dup2\n        /* \"#utility.yul\":12923:12946   */\n      tag_122\n      jump\t// in\n    tag_248:\n        /* \"#utility.yul\":12916:12921   */\n      dup2\n        /* \"#utility.yul\":12913:12947   */\n      eq\n        /* \"#utility.yul\":12903:12965   */\n      tag_249\n      jumpi\n        /* \"#utility.yul\":12961:12962   */\n      0x00\n        /* \"#utility.yul\":12958:12959   */\n      dup1\n        /* \"#utility.yul\":12951:12963   */\n      revert\n        /* \"#utility.yul\":12903:12965   */\n    tag_249:\n        /* \"#utility.yul\":12851:12971   */\n      pop\n      jump\t// out\n        /* \"#utility.yul\":12977:13099   */\n    tag_99:\n        /* \"#utility.yul\":13050:13074   */\n      tag_251\n        /* \"#utility.yul\":13068:13073   */\n      dup2\n        /* \"#utility.yul\":13050:13074   */\n      tag_162\n      jump\t// in\n    tag_251:\n        /* \"#utility.yul\":13043:13048   */\n      dup2\n        /* \"#utility.yul\":13040:13075   */\n      eq\n        /* \"#utility.yul\":13030:13093   */\n      tag_252\n      jumpi\n        /* \"#utility.yul\":13089:13090   */\n      0x00\n        /* \"#utility.yul\":13086:13087   */\n      dup1\n        /* \"#utility.yul\":13079:13091   */\n      revert\n        /* \"#utility.yul\":13030:13093   */\n    tag_252:\n        /* \"#utility.yul\":12977:13099   */\n      pop\n      jump\t// out\n\n    auxdata: 0xa2646970667358221220f2610ab5208ba74f4adcaa45846a40dfb73daaf1e5cdd23ca3246aaf4d61d69d64736f6c63430008070033\n}\n",
				"bytecode": {
					"linkReferences": {},
					"object": "60806040526040518060400160405280600b81526020017f7374617465537472696e670000000000000000000000000000000000000000008152506000908051906020019061004f92919061006c565b506003600155601060025534801561006657600080fd5b50610170565b8280546100789061010f565b90600052602060002090601f01602090048101928261009a57600085556100e1565b82601f106100b357805160ff19168380011785556100e1565b828001600101855582156100e1579182015b828111156100e05782518255916020019190600101906100c5565b5b5090506100ee91906100f2565b5090565b5b8082111561010b5760008160009055506001016100f3565b5090565b6000600282049050600182168061012757607f821691505b6020821081141561013b5761013a610141565b5b50919050565b7f4e487b7100000000000000000000000000000000000000000000000000000000600052602260045260246000fd5b610ba980620001806000396000f3fe608060405234801561001057600080fd5b506004361061009e5760003560e01c80634df7e3d0116100665780634df7e3d01461015f57806365c5b6f21461017d5780636e86e183146101ad578063d2143839146101c9578063f88e9fbf146101e75761009e565b806305f753a7146100a35780630dbe671f146100c157806323dd40dd146100df57806328da260b1461010f5780633c4308a81461012f575b600080fd5b6100ab610217565b6040516100b89190610743565b60405180910390f35b6100c961023c565b6040516100d69190610728565b60405180910390f35b6100f960048036038101906100f4919061047e565b610242565b6040516101069190610728565b60405180910390f35b610117610276565b604051610126939291906106f1565b60405180910390f35b6101496004803603810190610144919061047e565b61029a565b6040516101569190610728565b60405180910390f35b6101676102c1565b6040516101749190610728565b60405180910390f35b610197600480360381019061019291906104be565b6102c7565b6040516101a49190610743565b60405180910390f35b6101c760048036038101906101c2919061047e565b61039e565b005b6101d16103b0565b6040516101de9190610743565b60405180910390f35b61020160048036038101906101fc91906104eb565b61043e565b60405161020e9190610765565b60405180910390f35b6060604051602001610228906106d1565b604051602081830303815290604052905090565b60015481565b600080600a905060015481848661025991906107d8565b61026391906107d8565b61026d91906107d8565b91505092915050565b60008060008033905060004290506000439050828282955095509550505050909192565b600080600a90508083856102ae91906107d8565b6102b891906107d8565b91505092915050565b60025481565b606060006301e13380836102db91906107a7565b90506000622819a06301e13380856102f391906109a4565b6102fd91906107a7565b90506000620d2f00622819a06301e133808761031991906109a4565b61032391906109a4565b61032d91906107a7565b9050600062057e40620d2f00622819a06301e133808961034d91906109a4565b61035791906109a4565b61036191906109a4565b61036b91906107a7565b9050838383836040516020016103849493929190610657565b604051602081830303815290604052945050505050919050565b81600181905550806002819055505050565b600080546103bd90610968565b80601f01602080910402602001604051908101604052809291908181526020018280546103e990610968565b80156104365780601f1061040b57610100808354040283529160200191610436565b820191906000526020600020905b81548152906001019060200180831161041957829003601f168201915b505050505081565b6000818361044c91906107a7565b905092915050565b60008135905061046381610b45565b92915050565b60008135905061047881610b5c565b92915050565b6000806040838503121561049557610494610a62565b5b60006104a385828601610454565b92505060206104b485828601610454565b9150509250929050565b6000602082840312156104d4576104d3610a62565b5b60006104e284828501610469565b91505092915050565b6000806040838503121561050257610501610a62565b5b600061051085828601610469565b925050602061052185828601610469565b9150509250929050565b610534816108ef565b82525050565b61054381610901565b82525050565b600061055482610780565b61055e818561078b565b935061056e818560208601610935565b61057781610a67565b840191505092915050565b600061058f60038361079c565b915061059a82610a78565b600382019050919050565b60006105b260048361079c565b91506105bd82610aa1565b600482019050919050565b60006105d560018361079c565b91506105e082610aca565b600182019050919050565b60006105f860038361079c565b915061060382610af3565b600382019050919050565b600061061b60018361079c565b915061062682610b1c565b600182019050919050565b61063a8161092b565b82525050565b61065161064c8261092b565b61099a565b82525050565b600061066282610582565b915061066e8287610640565b60208201915061067d8261060e565b91506106898286610640565b6020820191506106988261060e565b91506106a48285610640565b6020820191506106b3826105c8565b91506106bf8284610640565b60208201915081905095945050505050565b60006106dc826105eb565b91506106e7826105a5565b9150819050919050565b6000606082019050610706600083018661052b565b6107136020830185610631565b6107206040830184610631565b949350505050565b600060208201905061073d600083018461053a565b92915050565b6000602082019050818103600083015261075d8184610549565b905092915050565b600060208201905061077a6000830184610631565b92915050565b600081519050919050565b600082825260208201905092915050565b600081905092915050565b60006107b28261092b565b91506107bd8361092b565b9250826107cd576107cc610a04565b5b828204905092915050565b60006107e382610901565b91506107ee83610901565b9250827f7fffffffffffffffffffffffffffffffffffffffffffffffffffffffffffffff048211600084136000841316161561082d5761082c6109d5565b5b817f8000000000000000000000000000000000000000000000000000000000000000058312600084126000841316161561086a576108696109d5565b5b827f800000000000000000000000000000000000000000000000000000000000000005821260008413600084121616156108a7576108a66109d5565b5b827f7fffffffffffffffffffffffffffffffffffffffffffffffffffffffffffffff05821260008412600084121616156108e4576108e36109d5565b5b828202905092915050565b60006108fa8261090b565b9050919050565b6000819050919050565b600073ffffffffffffffffffffffffffffffffffffffff82169050919050565b6000819050919050565b60005b83811015610953578082015181840152602081019050610938565b83811115610962576000848401525b50505050565b6000600282049050600182168061098057607f821691505b6020821081141561099457610993610a33565b5b50919050565b6000819050919050565b60006109af8261092b565b91506109ba8361092b565b9250826109ca576109c9610a04565b5b828206905092915050565b7f4e487b7100000000000000000000000000000000000000000000000000000000600052601160045260246000fd5b7f4e487b7100000000000000000000000000000000000000000000000000000000600052601260045260246000fd5b7f4e487b7100000000000000000000000000000000000000000000000000000000600052602260045260246000fd5b600080fd5b6000601f19601f8301169050919050565b7f474d540000000000000000000000000000000000000000000000000000000000600082015250565b7f2062626200000000000000000000000000000000000000000000000000000000600082015250565b7f2000000000000000000000000000000000000000000000000000000000000000600082015250565b7f6161610000000000000000000000000000000000000000000000000000000000600082015250565b7f2d00000000000000000000000000000000000000000000000000000000000000600082015250565b610b4e81610901565b8114610b5957600080fd5b50565b610b658161092b565b8114610b7057600080fd5b5056fea2646970667358221220f2610ab5208ba74f4adcaa45846a40dfb73daaf1e5cdd23ca3246aaf4d61d69d64736f6c63430008070033",
					"opcodes": "PUSH1 0x80 PUSH1 0x40 MSTORE PUSH1 0x40 MLOAD DUP1 PUSH1 0x40 ADD PUSH1 0x40 MSTORE DUP1 PUSH1 0xB DUP2 MSTORE PUSH1 0x20 ADD PUSH32 0x7374617465537472696E67000000000000000000000000000000000000000000 DUP2 MSTORE POP PUSH1 0x0 SWAP1 DUP1 MLOAD SWAP1 PUSH1 0x20 ADD SWAP1 PUSH2 0x4F SWAP3 SWAP2 SWAP1 PUSH2 0x6C JUMP JUMPDEST POP PUSH1 0x3 PUSH1 0x1 SSTORE PUSH1 0x10 PUSH1 0x2 SSTORE CALLVALUE DUP1 ISZERO PUSH2 0x66 JUMPI PUSH1 0x0 DUP1 REVERT JUMPDEST POP PUSH2 0x170 JUMP JUMPDEST DUP3 DUP1 SLOAD PUSH2 0x78 SWAP1 PUSH2 0x10F JUMP JUMPDEST SWAP1 PUSH1 0x0 MSTORE PUSH1 0x20 PUSH1 0x0 KECCAK256 SWAP1 PUSH1 0x1F ADD PUSH1 0x20 SWAP1 DIV DUP2 ADD SWAP3 DUP3 PUSH2 0x9A JUMPI PUSH1 0x0 DUP6 SSTORE PUSH2 0xE1 JUMP JUMPDEST DUP3 PUSH1 0x1F LT PUSH2 0xB3 JUMPI DUP1 MLOAD PUSH1 0xFF NOT AND DUP4 DUP1 ADD OR DUP6 SSTORE PUSH2 0xE1 JUMP JUMPDEST DUP3 DUP1 ADD PUSH1 0x1 ADD DUP6 SSTORE DUP3 ISZERO PUSH2 0xE1 JUMPI SWAP2 DUP3 ADD JUMPDEST DUP3 DUP2 GT ISZERO PUSH2 0xE0 JUMPI DUP3 MLOAD DUP3 SSTORE SWAP2 PUSH1 0x20 ADD SWAP2 SWAP1 PUSH1 0x1 ADD SWAP1 PUSH2 0xC5 JUMP JUMPDEST JUMPDEST POP SWAP1 POP PUSH2 0xEE SWAP2 SWAP1 PUSH2 0xF2 JUMP JUMPDEST POP SWAP1 JUMP JUMPDEST JUMPDEST DUP1 DUP3 GT ISZERO PUSH2 0x10B JUMPI PUSH1 0x0 DUP2 PUSH1 0x0 SWAP1 SSTORE POP PUSH1 0x1 ADD PUSH2 0xF3 JUMP JUMPDEST POP SWAP1 JUMP JUMPDEST PUSH1 0x0 PUSH1 0x2 DUP3 DIV SWAP1 POP PUSH1 0x1 DUP3 AND DUP1 PUSH2 0x127 JUMPI PUSH1 0x7F DUP3 AND SWAP2 POP JUMPDEST PUSH1 0x20 DUP3 LT DUP2 EQ ISZERO PUSH2 0x13B JUMPI PUSH2 0x13A PUSH2 0x141 JUMP JUMPDEST JUMPDEST POP SWAP2 SWAP1 POP JUMP JUMPDEST PUSH32 0x4E487B7100000000000000000000000000000000000000000000000000000000 PUSH1 0x0 MSTORE PUSH1 0x22 PUSH1 0x4 MSTORE PUSH1 0x24 PUSH1 0x0 REVERT JUMPDEST PUSH2 0xBA9 DUP1 PUSH3 0x180 PUSH1 0x0 CODECOPY PUSH1 0x0 RETURN INVALID PUSH1 0x80 PUSH1 0x40 MSTORE CALLVALUE DUP1 ISZERO PUSH2 0x10 JUMPI PUSH1 0x0 DUP1 REVERT JUMPDEST POP PUSH1 0x4 CALLDATASIZE LT PUSH2 0x9E JUMPI PUSH1 0x0 CALLDATALOAD PUSH1 0xE0 SHR DUP1 PUSH4 0x4DF7E3D0 GT PUSH2 0x66 JUMPI DUP1 PUSH4 0x4DF7E3D0 EQ PUSH2 0x15F JUMPI DUP1 PUSH4 0x65C5B6F2 EQ PUSH2 0x17D JUMPI DUP1 PUSH4 0x6E86E183 EQ PUSH2 0x1AD JUMPI DUP1 PUSH4 0xD2143839 EQ PUSH2 0x1C9 JUMPI DUP1 PUSH4 0xF88E9FBF EQ PUSH2 0x1E7 JUMPI PUSH2 0x9E JUMP JUMPDEST DUP1 PUSH4 0x5F753A7 EQ PUSH2 0xA3 JUMPI DUP1 PUSH4 0xDBE671F EQ PUSH2 0xC1 JUMPI DUP1 PUSH4 0x23DD40DD EQ PUSH2 0xDF JUMPI DUP1 PUSH4 0x28DA260B EQ PUSH2 0x10F JUMPI DUP1 PUSH4 0x3C4308A8 EQ PUSH2 0x12F JUMPI JUMPDEST PUSH1 0x0 DUP1 REVERT JUMPDEST PUSH2 0xAB PUSH2 0x217 JUMP JUMPDEST PUSH1 0x40 MLOAD PUSH2 0xB8 SWAP2 SWAP1 PUSH2 0x743 JUMP JUMPDEST PUSH1 0x40 MLOAD DUP1 SWAP2 SUB SWAP1 RETURN JUMPDEST PUSH2 0xC9 PUSH2 0x23C JUMP JUMPDEST PUSH1 0x40 MLOAD PUSH2 0xD6 SWAP2 SWAP1 PUSH2 0x728 JUMP JUMPDEST PUSH1 0x40 MLOAD DUP1 SWAP2 SUB SWAP1 RETURN JUMPDEST PUSH2 0xF9 PUSH1 0x4 DUP1 CALLDATASIZE SUB DUP2 ADD SWAP1 PUSH2 0xF4 SWAP2 SWAP1 PUSH2 0x47E JUMP JUMPDEST PUSH2 0x242 JUMP JUMPDEST PUSH1 0x40 MLOAD PUSH2 0x106 SWAP2 SWAP1 PUSH2 0x728 JUMP JUMPDEST PUSH1 0x40 MLOAD DUP1 SWAP2 SUB SWAP1 RETURN JUMPDEST PUSH2 0x117 PUSH2 0x276 JUMP JUMPDEST PUSH1 0x40 MLOAD PUSH2 0x126 SWAP4 SWAP3 SWAP2 SWAP1 PUSH2 0x6F1 JUMP JUMPDEST PUSH1 0x40 MLOAD DUP1 SWAP2 SUB SWAP1 RETURN JUMPDEST PUSH2 0x149 PUSH1 0x4 DUP1 CALLDATASIZE SUB DUP2 ADD SWAP1 PUSH2 0x144 SWAP2 SWAP1 PUSH2 0x47E JUMP JUMPDEST PUSH2 0x29A JUMP JUMPDEST PUSH1 0x40 MLOAD PUSH2 0x156 SWAP2 SWAP1 PUSH2 0x728 JUMP JUMPDEST PUSH1 0x40 MLOAD DUP1 SWAP2 SUB SWAP1 RETURN JUMPDEST PUSH2 0x167 PUSH2 0x2C1 JUMP JUMPDEST PUSH1 0x40 MLOAD PUSH2 0x174 SWAP2 SWAP1 PUSH2 0x728 JUMP JUMPDEST PUSH1 0x40 MLOAD DUP1 SWAP2 SUB SWAP1 RETURN JUMPDEST PUSH2 0x197 PUSH1 0x4 DUP1 CALLDATASIZE SUB DUP2 ADD SWAP1 PUSH2 0x192 SWAP2 SWAP1 PUSH2 0x4BE JUMP JUMPDEST PUSH2 0x2C7 JUMP JUMPDEST PUSH1 0x40 MLOAD PUSH2 0x1A4 SWAP2 SWAP1 PUSH2 0x743 JUMP JUMPDEST PUSH1 0x40 MLOAD DUP1 SWAP2 SUB SWAP1 RETURN JUMPDEST PUSH2 0x1C7 PUSH1 0x4 DUP1 CALLDATASIZE SUB DUP2 ADD SWAP1 PUSH2 0x1C2 SWAP2 SWAP1 PUSH2 0x47E JUMP JUMPDEST PUSH2 0x39E JUMP JUMPDEST STOP JUMPDEST PUSH2 0x1D1 PUSH2 0x3B0 JUMP JUMPDEST PUSH1 0x40 MLOAD PUSH2 0x1DE SWAP2 SWAP1 PUSH2 0x743 JUMP JUMPDEST PUSH1 0x40 MLOAD DUP1 SWAP2 SUB SWAP1 RETURN JUMPDEST PUSH2 0x201 PUSH1 0x4 DUP1 CALLDATASIZE SUB DUP2 ADD SWAP1 PUSH2 0x1FC SWAP2 SWAP1 PUSH2 0x4EB JUMP JUMPDEST PUSH2 0x43E JUMP JUMPDEST PUSH1 0x40 MLOAD PUSH2 0x20E SWAP2 SWAP1 PUSH2 0x765 JUMP JUMPDEST PUSH1 0x40 MLOAD DUP1 SWAP2 SUB SWAP1 RETURN JUMPDEST PUSH1 0x60 PUSH1 0x40 MLOAD PUSH1 0x20 ADD PUSH2 0x228 SWAP1 PUSH2 0x6D1 JUMP JUMPDEST PUSH1 0x40 MLOAD PUSH1 0x20 DUP2 DUP4 SUB SUB DUP2 MSTORE SWAP1 PUSH1 0x40 MSTORE SWAP1 POP SWAP1 JUMP JUMPDEST PUSH1 0x1 SLOAD DUP2 JUMP JUMPDEST PUSH1 0x0 DUP1 PUSH1 0xA SWAP1 POP PUSH1 0x1 SLOAD DUP2 DUP5 DUP7 PUSH2 0x259 SWAP2 SWAP1 PUSH2 0x7D8 JUMP JUMPDEST PUSH2 0x263 SWAP2 SWAP1 PUSH2 0x7D8 JUMP JUMPDEST PUSH2 0x26D SWAP2 SWAP1 PUSH2 0x7D8 JUMP JUMPDEST SWAP2 POP POP SWAP3 SWAP2 POP POP JUMP JUMPDEST PUSH1 0x0 DUP1 PUSH1 0x0 DUP1 CALLER SWAP1 POP PUSH1 0x0 TIMESTAMP SWAP1 POP PUSH1 0x0 NUMBER SWAP1 POP DUP3 DUP3 DUP3 SWAP6 POP SWAP6 POP SWAP6 POP POP POP POP SWAP1 SWAP2 SWAP3 JUMP JUMPDEST PUSH1 0x0 DUP1 PUSH1 0xA SWAP1 POP DUP1 DUP4 DUP6 PUSH2 0x2AE SWAP2 SWAP1 PUSH2 0x7D8 JUMP JUMPDEST PUSH2 0x2B8 SWAP2 SWAP1 PUSH2 0x7D8 JUMP JUMPDEST SWAP2 POP POP SWAP3 SWAP2 POP POP JUMP JUMPDEST PUSH1 0x2 SLOAD DUP2 JUMP JUMPDEST PUSH1 0x60 PUSH1 0x0 PUSH4 0x1E13380 DUP4 PUSH2 0x2DB SWAP2 SWAP1 PUSH2 0x7A7 JUMP JUMPDEST SWAP1 POP PUSH1 0x0 PUSH3 0x2819A0 PUSH4 0x1E13380 DUP6 PUSH2 0x2F3 SWAP2 SWAP1 PUSH2 0x9A4 JUMP JUMPDEST PUSH2 0x2FD SWAP2 SWAP1 PUSH2 0x7A7 JUMP JUMPDEST SWAP1 POP PUSH1 0x0 PUSH3 0xD2F00 PUSH3 0x2819A0 PUSH4 0x1E13380 DUP8 PUSH2 0x319 SWAP2 SWAP1 PUSH2 0x9A4 JUMP JUMPDEST PUSH2 0x323 SWAP2 SWAP1 PUSH2 0x9A4 JUMP JUMPDEST PUSH2 0x32D SWAP2 SWAP1 PUSH2 0x7A7 JUMP JUMPDEST SWAP1 POP PUSH1 0x0 PUSH3 0x57E40 PUSH3 0xD2F00 PUSH3 0x2819A0 PUSH4 0x1E13380 DUP10 PUSH2 0x34D SWAP2 SWAP1 PUSH2 0x9A4 JUMP JUMPDEST PUSH2 0x357 SWAP2 SWAP1 PUSH2 0x9A4 JUMP JUMPDEST PUSH2 0x361 SWAP2 SWAP1 PUSH2 0x9A4 JUMP JUMPDEST PUSH2 0x36B SWAP2 SWAP1 PUSH2 0x7A7 JUMP JUMPDEST SWAP1 POP DUP4 DUP4 DUP4 DUP4 PUSH1 0x40 MLOAD PUSH1 0x20 ADD PUSH2 0x384 SWAP5 SWAP4 SWAP3 SWAP2 SWAP1 PUSH2 0x657 JUMP JUMPDEST PUSH1 0x40 MLOAD PUSH1 0x20 DUP2 DUP4 SUB SUB DUP2 MSTORE SWAP1 PUSH1 0x40 MSTORE SWAP5 POP POP POP POP POP SWAP2 SWAP1 POP JUMP JUMPDEST DUP2 PUSH1 0x1 DUP2 SWAP1 SSTORE POP DUP1 PUSH1 0x2 DUP2 SWAP1 SSTORE POP POP POP JUMP JUMPDEST PUSH1 0x0 DUP1 SLOAD PUSH2 0x3BD SWAP1 PUSH2 0x968 JUMP JUMPDEST DUP1 PUSH1 0x1F ADD PUSH1 0x20 DUP1 SWAP2 DIV MUL PUSH1 0x20 ADD PUSH1 0x40 MLOAD SWAP1 DUP2 ADD PUSH1 0x40 MSTORE DUP1 SWAP3 SWAP2 SWAP1 DUP2 DUP2 MSTORE PUSH1 0x20 ADD DUP3 DUP1 SLOAD PUSH2 0x3E9 SWAP1 PUSH2 0x968 JUMP JUMPDEST DUP1 ISZERO PUSH2 0x436 JUMPI DUP1 PUSH1 0x1F LT PUSH2 0x40B JUMPI PUSH2 0x100 DUP1 DUP4 SLOAD DIV MUL DUP4 MSTORE SWAP2 PUSH1 0x20 ADD SWAP2 PUSH2 0x436 JUMP JUMPDEST DUP3 ADD SWAP2 SWAP1 PUSH1 0x0 MSTORE PUSH1 0x20 PUSH1 0x0 KECCAK256 SWAP1 JUMPDEST DUP2 SLOAD DUP2 MSTORE SWAP1 PUSH1 0x1 ADD SWAP1 PUSH1 0x20 ADD DUP1 DUP4 GT PUSH2 0x419 JUMPI DUP3 SWAP1 SUB PUSH1 0x1F AND DUP3 ADD SWAP2 JUMPDEST POP POP POP POP POP DUP2 JUMP JUMPDEST PUSH1 0x0 DUP2 DUP4 PUSH2 0x44C SWAP2 SWAP1 PUSH2 0x7A7 JUMP JUMPDEST SWAP1 POP SWAP3 SWAP2 POP POP JUMP JUMPDEST PUSH1 0x0 DUP2 CALLDATALOAD SWAP1 POP PUSH2 0x463 DUP2 PUSH2 0xB45 JUMP JUMPDEST SWAP3 SWAP2 POP POP JUMP JUMPDEST PUSH1 0x0 DUP2 CALLDATALOAD SWAP1 POP PUSH2 0x478 DUP2 PUSH2 0xB5C JUMP JUMPDEST SWAP3 SWAP2 POP POP JUMP JUMPDEST PUSH1 0x0 DUP1 PUSH1 0x40 DUP4 DUP6 SUB SLT ISZERO PUSH2 0x495 JUMPI PUSH2 0x494 PUSH2 0xA62 JUMP JUMPDEST JUMPDEST PUSH1 0x0 PUSH2 0x4A3 DUP6 DUP3 DUP7 ADD PUSH2 0x454 JUMP JUMPDEST SWAP3 POP POP PUSH1 0x20 PUSH2 0x4B4 DUP6 DUP3 DUP7 ADD PUSH2 0x454 JUMP JUMPDEST SWAP2 POP POP SWAP3 POP SWAP3 SWAP1 POP JUMP JUMPDEST PUSH1 0x0 PUSH1 0x20 DUP3 DUP5 SUB SLT ISZERO PUSH2 0x4D4 JUMPI PUSH2 0x4D3 PUSH2 0xA62 JUMP JUMPDEST JUMPDEST PUSH1 0x0 PUSH2 0x4E2 DUP5 DUP3 DUP6 ADD PUSH2 0x469 JUMP JUMPDEST SWAP2 POP POP SWAP3 SWAP2 POP POP JUMP JUMPDEST PUSH1 0x0 DUP1 PUSH1 0x40 DUP4 DUP6 SUB SLT ISZERO PUSH2 0x502 JUMPI PUSH2 0x501 PUSH2 0xA62 JUMP JUMPDEST JUMPDEST PUSH1 0x0 PUSH2 0x510 DUP6 DUP3 DUP7 ADD PUSH2 0x469 JUMP JUMPDEST SWAP3 POP POP PUSH1 0x20 PUSH2 0x521 DUP6 DUP3 DUP7 ADD PUSH2 0x469 JUMP JUMPDEST SWAP2 POP POP SWAP3 POP SWAP3 SWAP1 POP JUMP JUMPDEST PUSH2 0x534 DUP2 PUSH2 0x8EF JUMP JUMPDEST DUP3 MSTORE POP POP JUMP JUMPDEST PUSH2 0x543 DUP2 PUSH2 0x901 JUMP JUMPDEST DUP3 MSTORE POP POP JUMP JUMPDEST PUSH1 0x0 PUSH2 0x554 DUP3 PUSH2 0x780 JUMP JUMPDEST PUSH2 0x55E DUP2 DUP6 PUSH2 0x78B JUMP JUMPDEST SWAP4 POP PUSH2 0x56E DUP2 DUP6 PUSH1 0x20 DUP7 ADD PUSH2 0x935 JUMP JUMPDEST PUSH2 0x577 DUP2 PUSH2 0xA67 JUMP JUMPDEST DUP5 ADD SWAP2 POP POP SWAP3 SWAP2 POP POP JUMP JUMPDEST PUSH1 0x0 PUSH2 0x58F PUSH1 0x3 DUP4 PUSH2 0x79C JUMP JUMPDEST SWAP2 POP PUSH2 0x59A DUP3 PUSH2 0xA78 JUMP JUMPDEST PUSH1 0x3 DUP3 ADD SWAP1 POP SWAP2 SWAP1 POP JUMP JUMPDEST PUSH1 0x0 PUSH2 0x5B2 PUSH1 0x4 DUP4 PUSH2 0x79C JUMP JUMPDEST SWAP2 POP PUSH2 0x5BD DUP3 PUSH2 0xAA1 JUMP JUMPDEST PUSH1 0x4 DUP3 ADD SWAP1 POP SWAP2 SWAP1 POP JUMP JUMPDEST PUSH1 0x0 PUSH2 0x5D5 PUSH1 0x1 DUP4 PUSH2 0x79C JUMP JUMPDEST SWAP2 POP PUSH2 0x5E0 DUP3 PUSH2 0xACA JUMP JUMPDEST PUSH1 0x1 DUP3 ADD SWAP1 POP SWAP2 SWAP1 POP JUMP JUMPDEST PUSH1 0x0 PUSH2 0x5F8 PUSH1 0x3 DUP4 PUSH2 0x79C JUMP JUMPDEST SWAP2 POP PUSH2 0x603 DUP3 PUSH2 0xAF3 JUMP JUMPDEST PUSH1 0x3 DUP3 ADD SWAP1 POP SWAP2 SWAP1 POP JUMP JUMPDEST PUSH1 0x0 PUSH2 0x61B PUSH1 0x1 DUP4 PUSH2 0x79C JUMP JUMPDEST SWAP2 POP PUSH2 0x626 DUP3 PUSH2 0xB1C JUMP JUMPDEST PUSH1 0x1 DUP3 ADD SWAP1 POP SWAP2 SWAP1 POP JUMP JUMPDEST PUSH2 0x63A DUP2 PUSH2 0x92B JUMP JUMPDEST DUP3 MSTORE POP POP JUMP JUMPDEST PUSH2 0x651 PUSH2 0x64C DUP3 PUSH2 0x92B JUMP JUMPDEST PUSH2 0x99A JUMP JUMPDEST DUP3 MSTORE POP POP JUMP JUMPDEST PUSH1 0x0 PUSH2 0x662 DUP3 PUSH2 0x582 JUMP JUMPDEST SWAP2 POP PUSH2 0x66E DUP3 DUP8 PUSH2 0x640 JUMP JUMPDEST PUSH1 0x20 DUP3 ADD SWAP2 POP PUSH2 0x67D DUP3 PUSH2 0x60E JUMP JUMPDEST SWAP2 POP PUSH2 0x689 DUP3 DUP7 PUSH2 0x640 JUMP JUMPDEST PUSH1 0x20 DUP3 ADD SWAP2 POP PUSH2 0x698 DUP3 PUSH2 0x60E JUMP JUMPDEST SWAP2 POP PUSH2 0x6A4 DUP3 DUP6 PUSH2 0x640 JUMP JUMPDEST PUSH1 0x20 DUP3 ADD SWAP2 POP PUSH2 0x6B3 DUP3 PUSH2 0x5C8 JUMP JUMPDEST SWAP2 POP PUSH2 0x6BF DUP3 DUP5 PUSH2 0x640 JUMP JUMPDEST PUSH1 0x20 DUP3 ADD SWAP2 POP DUP2 SWAP1 POP SWAP6 SWAP5 POP POP POP POP POP JUMP JUMPDEST PUSH1 0x0 PUSH2 0x6DC DUP3 PUSH2 0x5EB JUMP JUMPDEST SWAP2 POP PUSH2 0x6E7 DUP3 PUSH2 0x5A5 JUMP JUMPDEST SWAP2 POP DUP2 SWAP1 POP SWAP2 SWAP1 POP JUMP JUMPDEST PUSH1 0x0 PUSH1 0x60 DUP3 ADD SWAP1 POP PUSH2 0x706 PUSH1 0x0 DUP4 ADD DUP7 PUSH2 0x52B JUMP JUMPDEST PUSH2 0x713 PUSH1 0x20 DUP4 ADD DUP6 PUSH2 0x631 JUMP JUMPDEST PUSH2 0x720 PUSH1 0x40 DUP4 ADD DUP5 PUSH2 0x631 JUMP JUMPDEST SWAP5 SWAP4 POP POP POP POP JUMP JUMPDEST PUSH1 0x0 PUSH1 0x20 DUP3 ADD SWAP1 POP PUSH2 0x73D PUSH1 0x0 DUP4 ADD DUP5 PUSH2 0x53A JUMP JUMPDEST SWAP3 SWAP2 POP POP JUMP JUMPDEST PUSH1 0x0 PUSH1 0x20 DUP3 ADD SWAP1 POP DUP2 DUP2 SUB PUSH1 0x0 DUP4 ADD MSTORE PUSH2 0x75D DUP2 DUP5 PUSH2 0x549 JUMP JUMPDEST SWAP1 POP SWAP3 SWAP2 POP POP JUMP JUMPDEST PUSH1 0x0 PUSH1 0x20 DUP3 ADD SWAP1 POP PUSH2 0x77A PUSH1 0x0 DUP4 ADD DUP5 PUSH2 0x631 JUMP JUMPDEST SWAP3 SWAP2 POP POP JUMP JUMPDEST PUSH1 0x0 DUP2 MLOAD SWAP1 POP SWAP2 SWAP1 POP JUMP JUMPDEST PUSH1 0x0 DUP3 DUP3 MSTORE PUSH1 0x20 DUP3 ADD SWAP1 POP SWAP3 SWAP2 POP POP JUMP JUMPDEST PUSH1 0x0 DUP2 SWAP1 POP SWAP3 SWAP2 POP POP JUMP JUMPDEST PUSH1 0x0 PUSH2 0x7B2 DUP3 PUSH2 0x92B JUMP JUMPDEST SWAP2 POP PUSH2 0x7BD DUP4 PUSH2 0x92B JUMP JUMPDEST SWAP3 POP DUP3 PUSH2 0x7CD JUMPI PUSH2 0x7CC PUSH2 0xA04 JUMP JUMPDEST JUMPDEST DUP3 DUP3 DIV SWAP1 POP SWAP3 SWAP2 POP POP JUMP JUMPDEST PUSH1 0x0 PUSH2 0x7E3 DUP3 PUSH2 0x901 JUMP JUMPDEST SWAP2 POP PUSH2 0x7EE DUP4 PUSH2 0x901 JUMP JUMPDEST SWAP3 POP DUP3 PUSH32 0x7FFFFFFFFFFFFFFFFFFFFFFFFFFFFFFFFFFFFFFFFFFFFFFFFFFFFFFFFFFFFFFF DIV DUP3 GT PUSH1 0x0 DUP5 SGT PUSH1 0x0 DUP5 SGT AND AND ISZERO PUSH2 0x82D JUMPI PUSH2 0x82C PUSH2 0x9D5 JUMP JUMPDEST JUMPDEST DUP2 PUSH32 0x8000000000000000000000000000000000000000000000000000000000000000 SDIV DUP4 SLT PUSH1 0x0 DUP5 SLT PUSH1 0x0 DUP5 SGT AND AND ISZERO PUSH2 0x86A JUMPI PUSH2 0x869 PUSH2 0x9D5 JUMP JUMPDEST JUMPDEST DUP3 PUSH32 0x8000000000000000000000000000000000000000000000000000000000000000 SDIV DUP3 SLT PUSH1 0x0 DUP5 SGT PUSH1 0x0 DUP5 SLT AND AND ISZERO PUSH2 0x8A7 JUMPI PUSH2 0x8A6 PUSH2 0x9D5 JUMP JUMPDEST JUMPDEST DUP3 PUSH32 0x7FFFFFFFFFFFFFFFFFFFFFFFFFFFFFFFFFFFFFFFFFFFFFFFFFFFFFFFFFFFFFFF SDIV DUP3 SLT PUSH1 0x0 DUP5 SLT PUSH1 0x0 DUP5 SLT AND AND ISZERO PUSH2 0x8E4 JUMPI PUSH2 0x8E3 PUSH2 0x9D5 JUMP JUMPDEST JUMPDEST DUP3 DUP3 MUL SWAP1 POP SWAP3 SWAP2 POP POP JUMP JUMPDEST PUSH1 0x0 PUSH2 0x8FA DUP3 PUSH2 0x90B JUMP JUMPDEST SWAP1 POP SWAP2 SWAP1 POP JUMP JUMPDEST PUSH1 0x0 DUP2 SWAP1 POP SWAP2 SWAP1 POP JUMP JUMPDEST PUSH1 0x0 PUSH20 0xFFFFFFFFFFFFFFFFFFFFFFFFFFFFFFFFFFFFFFFF DUP3 AND SWAP1 POP SWAP2 SWAP1 POP JUMP JUMPDEST PUSH1 0x0 DUP2 SWAP1 POP SWAP2 SWAP1 POP JUMP JUMPDEST PUSH1 0x0 JUMPDEST DUP4 DUP2 LT ISZERO PUSH2 0x953 JUMPI DUP1 DUP3 ADD MLOAD DUP2 DUP5 ADD MSTORE PUSH1 0x20 DUP2 ADD SWAP1 POP PUSH2 0x938 JUMP JUMPDEST DUP4 DUP2 GT ISZERO PUSH2 0x962 JUMPI PUSH1 0x0 DUP5 DUP5 ADD MSTORE JUMPDEST POP POP POP POP JUMP JUMPDEST PUSH1 0x0 PUSH1 0x2 DUP3 DIV SWAP1 POP PUSH1 0x1 DUP3 AND DUP1 PUSH2 0x980 JUMPI PUSH1 0x7F DUP3 AND SWAP2 POP JUMPDEST PUSH1 0x20 DUP3 LT DUP2 EQ ISZERO PUSH2 0x994 JUMPI PUSH2 0x993 PUSH2 0xA33 JUMP JUMPDEST JUMPDEST POP SWAP2 SWAP1 POP JUMP JUMPDEST PUSH1 0x0 DUP2 SWAP1 POP SWAP2 SWAP1 POP JUMP JUMPDEST PUSH1 0x0 PUSH2 0x9AF DUP3 PUSH2 0x92B JUMP JUMPDEST SWAP2 POP PUSH2 0x9BA DUP4 PUSH2 0x92B JUMP JUMPDEST SWAP3 POP DUP3 PUSH2 0x9CA JUMPI PUSH2 0x9C9 PUSH2 0xA04 JUMP JUMPDEST JUMPDEST DUP3 DUP3 MOD SWAP1 POP SWAP3 SWAP2 POP POP JUMP JUMPDEST PUSH32 0x4E487B7100000000000000000000000000000000000000000000000000000000 PUSH1 0x0 MSTORE PUSH1 0x11 PUSH1 0x4 MSTORE PUSH1 0x24 PUSH1 0x0 REVERT JUMPDEST PUSH32 0x4E487B7100000000000000000000000000000000000000000000000000000000 PUSH1 0x0 MSTORE PUSH1 0x12 PUSH1 0x4 MSTORE PUSH1 0x24 PUSH1 0x0 REVERT JUMPDEST PUSH32 0x4E487B7100000000000000000000000000000000000000000000000000000000 PUSH1 0x0 MSTORE PUSH1 0x22 PUSH1 0x4 MSTORE PUSH1 0x24 PUSH1 0x0 REVERT JUMPDEST PUSH1 0x0 DUP1 REVERT JUMPDEST PUSH1 0x0 PUSH1 0x1F NOT PUSH1 0x1F DUP4 ADD AND SWAP1 POP SWAP2 SWAP1 POP JUMP JUMPDEST PUSH32 0x474D540000000000000000000000000000000000000000000000000000000000 PUSH1 0x0 DUP3 ADD MSTORE POP JUMP JUMPDEST PUSH32 0x2062626200000000000000000000000000000000000000000000000000000000 PUSH1 0x0 DUP3 ADD MSTORE POP JUMP JUMPDEST PUSH32 0x2000000000000000000000000000000000000000000000000000000000000000 PUSH1 0x0 DUP3 ADD MSTORE POP JUMP JUMPDEST PUSH32 0x6161610000000000000000000000000000000000000000000000000000000000 PUSH1 0x0 DUP3 ADD MSTORE POP JUMP JUMPDEST PUSH32 0x2D00000000000000000000000000000000000000000000000000000000000000 PUSH1 0x0 DUP3 ADD MSTORE POP JUMP JUMPDEST PUSH2 0xB4E DUP2 PUSH2 0x901 JUMP JUMPDEST DUP2 EQ PUSH2 0xB59 JUMPI PUSH1 0x0 DUP1 REVERT JUMPDEST POP JUMP JUMPDEST PUSH2 0xB65 DUP2 PUSH2 0x92B JUMP JUMPDEST DUP2 EQ PUSH2 0xB70 JUMPI PUSH1 0x0 DUP1 REVERT JUMPDEST POP JUMP INVALID LOG2 PUSH5 0x6970667358 0x22 SLT KECCAK256 CALLCODE PUSH2 0xAB5 KECCAK256 DUP12 0xA7 0x4F 0x4A 0xDC 0xAA GASLIMIT DUP5 PUSH11 0x40DFB73DAAF1E5CDD23CA3 0x24 PUSH11 0xAF4D61D69D64736F6C6343 STOP ADDMOD SMOD STOP CALLER "
				},
				"gasEstimates": {
					"creation": {
						"codeDepositCost": "597000",
						"executionCost": "infinite",
						"totalCost": "infinite"
					},
					"external": {
						"GlobalInfoViewer()": "infinite",
						"StateStr()": "infinite",
						"a()": "2452",
						"b()": "2429",
						"divide(uint256,uint256)": "infinite",
						"getGmtTime(uint256)": "infinite",
						"getStrVar()": "infinite",
						"multiply(int256,int256)": "infinite",
						"multiplyBy_a(int256,int256)": "infinite",
						"set_ab(int256,int256)": "infinite"
					}
				},
				"methodIdentifiers": {
					"GlobalInfoViewer()": "28da260b",
					"StateStr()": "d2143839",
					"a()": "0dbe671f",
					"b()": "4df7e3d0",
					"divide(uint256,uint256)": "f88e9fbf",
					"getGmtTime(uint256)": "65c5b6f2",
					"getStrVar()": "05f753a7",
					"multiply(int256,int256)": "3c4308a8",
					"multiplyBy_a(int256,int256)": "23dd40dd",
					"set_ab(int256,int256)": "6e86e183"
				}
			},
			"storageLayout": {
				"storage": [
					{
						"astId": 4,
						"contract": "StateLocalGlobalVariables.sol:StateLocalGlobalVar",
						"label": "StateStr",
						"offset": 0,
						"slot": "0",
						"type": "t_string_storage"
					},
					{
						"astId": 7,
						"contract": "StateLocalGlobalVariables.sol:StateLocalGlobalVar",
						"label": "a",
						"offset": 0,
						"slot": "1",
						"type": "t_int256"
					},
					{
						"astId": 10,
						"contract": "StateLocalGlobalVariables.sol:StateLocalGlobalVar",
						"label": "b",
						"offset": 0,
						"slot": "2",
						"type": "t_int256"
					}
				],
				"types": {
					"t_int256": {
						"encoding": "inplace",
						"label": "int256",
						"numberOfBytes": "32"
					},
					"t_string_storage": {
						"encoding": "bytes",
						"label": "string",
						"numberOfBytes": "32"
					}
				}
			},
			"userdoc": {
				"kind": "user",
				"methods": {},
				"version": 1
			}
		}
	}
}