{
	"MultiSigWallet.sol": {
		"MultiSigWallet": {
			"abi": [
				{
					"inputs": [
						{
							"internalType": "address[]",
							"name": "_owners",
							"type": "address[]"
						},
						{
							"internalType": "uint256",
							"name": "_required",
							"type": "uint256"
						}
					],
					"stateMutability": "nonpayable",
					"type": "constructor"
				},
				{
					"anonymous": false,
					"inputs": [
						{
							"indexed": true,
							"internalType": "address",
							"name": "approver",
							"type": "address"
						},
						{
							"indexed": true,
							"internalType": "uint256",
							"name": "txIdx",
							"type": "uint256"
						}
					],
					"name": "ApproveTx",
					"type": "event"
				},
				{
					"anonymous": false,
					"inputs": [
						{
							"indexed": true,
							"internalType": "address",
							"name": "sender",
							"type": "address"
						},
						{
							"indexed": false,
							"internalType": "uint256",
							"name": "amout",
							"type": "uint256"
						}
					],
					"name": "Deposit",
					"type": "event"
				},
				{
					"anonymous": false,
					"inputs": [
						{
							"indexed": true,
							"internalType": "address",
							"name": "executer",
							"type": "address"
						},
						{
							"indexed": true,
							"internalType": "uint256",
							"name": "txIdx",
							"type": "uint256"
						}
					],
					"name": "ExecuteTx",
					"type": "event"
				},
				{
					"anonymous": false,
					"inputs": [
						{
							"indexed": true,
							"internalType": "address",
							"name": "revoker",
							"type": "address"
						},
						{
							"indexed": true,
							"internalType": "uint256",
							"name": "txIdx",
							"type": "uint256"
						}
					],
					"name": "RevokeTx",
					"type": "event"
				},
				{
					"anonymous": false,
					"inputs": [
						{
							"indexed": false,
							"internalType": "address",
							"name": "to",
							"type": "address"
						},
						{
							"indexed": false,
							"internalType": "uint256",
							"name": "amount",
							"type": "uint256"
						},
						{
							"indexed": false,
							"internalType": "bytes",
							"name": "data",
							"type": "bytes"
						},
						{
							"indexed": true,
							"internalType": "uint256",
							"name": "Txidx",
							"type": "uint256"
						}
					],
					"name": "SubmitTx",
					"type": "event"
				},
				{
					"inputs": [
						{
							"internalType": "uint256",
							"name": "_idx",
							"type": "uint256"
						}
					],
					"name": "approve",
					"outputs": [
						{
							"internalType": "bool",
							"name": "",
							"type": "bool"
						}
					],
					"stateMutability": "nonpayable",
					"type": "function"
				},
				{
					"inputs": [
						{
							"internalType": "uint256",
							"name": "_idx",
							"type": "uint256"
						}
					],
					"name": "execute",
					"outputs": [
						{
							"internalType": "bool",
							"name": "",
							"type": "bool"
						}
					],
					"stateMutability": "nonpayable",
					"type": "function"
				},
				{
					"inputs": [
						{
							"internalType": "address",
							"name": "",
							"type": "address"
						}
					],
					"name": "isOwner",
					"outputs": [
						{
							"internalType": "bool",
							"name": "",
							"type": "bool"
						}
					],
					"stateMutability": "view",
					"type": "function"
				},
				{
					"inputs": [
						{
							"internalType": "uint256",
							"name": "",
							"type": "uint256"
						}
					],
					"name": "myTransactions",
					"outputs": [
						{
							"internalType": "address",
							"name": "to",
							"type": "address"
						},
						{
							"internalType": "uint256",
							"name": "amount",
							"type": "uint256"
						},
						{
							"internalType": "bytes",
							"name": "txdata",
							"type": "bytes"
						},
						{
							"internalType": "bool",
							"name": "completed",
							"type": "bool"
						}
					],
					"stateMutability": "view",
					"type": "function"
				},
				{
					"inputs": [
						{
							"internalType": "uint256",
							"name": "",
							"type": "uint256"
						}
					],
					"name": "owners",
					"outputs": [
						{
							"internalType": "address",
							"name": "",
							"type": "address"
						}
					],
					"stateMutability": "view",
					"type": "function"
				},
				{
					"inputs": [],
					"name": "required",
					"outputs": [
						{
							"internalType": "uint256",
							"name": "",
							"type": "uint256"
						}
					],
					"stateMutability": "view",
					"type": "function"
				},
				{
					"inputs": [
						{
							"internalType": "uint256",
							"name": "_idx",
							"type": "uint256"
						}
					],
					"name": "revoke",
					"outputs": [
						{
							"internalType": "bool",
							"name": "",
							"type": "bool"
						}
					],
					"stateMutability": "nonpayable",
					"type": "function"
				},
				{
					"inputs": [
						{
							"internalType": "address",
							"name": "_to",
							"type": "address"
						},
						{
							"internalType": "uint256",
							"name": "_amount",
							"type": "uint256"
						},
						{
							"internalType": "bytes",
							"name": "_data",
							"type": "bytes"
						}
					],
					"name": "submit",
					"outputs": [
						{
							"internalType": "bool",
							"name": "",
							"type": "bool"
						}
					],
					"stateMutability": "nonpayable",
					"type": "function"
				},
				{
					"stateMutability": "payable",
					"type": "receive"
				}
			],
			"devdoc": {
				"kind": "dev",
				"methods": {},
				"version": 1
			},
			"evm": {
				"assembly": "    /* \"MultiSigWallet.sol\":60:4539  contract MultiSigWallet{... */\n  mstore(0x40, 0x80)\n    /* \"MultiSigWallet.sol\":1031:1760  constructor (address[] memory _owners, uint _required){... */\n  callvalue\n  dup1\n  iszero\n  tag_1\n  jumpi\n  0x00\n  dup1\n  revert\ntag_1:\n  pop\n  mload(0x40)\n  sub(codesize, bytecodeSize)\n  dup1\n  bytecodeSize\n  dup4\n  codecopy\n  dup2\n  dup2\n  add\n  0x40\n  mstore\n  dup2\n  add\n  swap1\n  tag_2\n  swap2\n  swap1\n  tag_3\n  jump\t// in\ntag_2:\n    /* \"MultiSigWallet.sol\":1096:1110  uint ownersNum */\n  0x00\n    /* \"MultiSigWallet.sol\":1113:1120  _owners */\n  dup3\n    /* \"MultiSigWallet.sol\":1113:1127  _owners.length */\n  mload\n    /* \"MultiSigWallet.sol\":1096:1127  uint ownersNum = _owners.length */\n  swap1\n  pop\n    /* \"MultiSigWallet.sol\":1158:1159  0 */\n  0x00\n    /* \"MultiSigWallet.sol\":1146:1155  ownersNum */\n  dup2\n    /* \"MultiSigWallet.sol\":1146:1159  ownersNum > 0 */\n  gt\n    /* \"MultiSigWallet.sol\":1138:1204  require(ownersNum > 0, \"At lease one owner should be initialized\") */\n  tag_6\n  jumpi\n  mload(0x40)\n  0x08c379a000000000000000000000000000000000000000000000000000000000\n  dup2\n  mstore\n  0x04\n  add\n  tag_7\n  swap1\n  tag_8\n  jump\t// in\ntag_7:\n  mload(0x40)\n  dup1\n  swap2\n  sub\n  swap1\n  revert\ntag_6:\n    /* \"MultiSigWallet.sol\":1235:1236  0 */\n  0x00\n    /* \"MultiSigWallet.sol\":1223:1232  _required */\n  dup3\n    /* \"MultiSigWallet.sol\":1223:1236  _required > 0 */\n  gt\n    /* \"MultiSigWallet.sol\":1215:1275  require(_required > 0, \"require approved number should > 0\") */\n  tag_9\n  jumpi\n  mload(0x40)\n  0x08c379a000000000000000000000000000000000000000000000000000000000\n  dup2\n  mstore\n  0x04\n  add\n  tag_10\n  swap1\n  tag_11\n  jump\t// in\ntag_10:\n  mload(0x40)\n  dup1\n  swap2\n  sub\n  swap1\n  revert\ntag_9:\n    /* \"MultiSigWallet.sol\":1307:1316  ownersNum */\n  dup1\n    /* \"MultiSigWallet.sol\":1294:1303  _required */\n  dup3\n    /* \"MultiSigWallet.sol\":1294:1316  _required <= ownersNum */\n  gt\n  iszero\n    /* \"MultiSigWallet.sol\":1286:1364  require(_required <= ownersNum, \"requires should be no more than the owners\" ) */\n  tag_12\n  jumpi\n  mload(0x40)\n  0x08c379a000000000000000000000000000000000000000000000000000000000\n  dup2\n  mstore\n  0x04\n  add\n  tag_13\n  swap1\n  tag_14\n  jump\t// in\ntag_13:\n  mload(0x40)\n  dup1\n  swap2\n  sub\n  swap1\n  revert\ntag_12:\n    /* \"MultiSigWallet.sol\":1381:1387  uint i */\n  0x00\n    /* \"MultiSigWallet.sol\":1377:1670  for(uint i=0; i<ownersNum;++i){... */\ntag_15:\n    /* \"MultiSigWallet.sol\":1393:1402  ownersNum */\n  dup2\n    /* \"MultiSigWallet.sol\":1391:1392  i */\n  dup2\n    /* \"MultiSigWallet.sol\":1391:1402  i<ownersNum */\n  lt\n    /* \"MultiSigWallet.sol\":1377:1670  for(uint i=0; i<ownersNum;++i){... */\n  iszero\n  tag_16\n  jumpi\n    /* \"MultiSigWallet.sol\":1422:1438  address tmpOwner */\n  0x00\n    /* \"MultiSigWallet.sol\":1441:1448  _owners */\n  dup5\n    /* \"MultiSigWallet.sol\":1449:1450  i */\n  dup3\n    /* \"MultiSigWallet.sol\":1441:1451  _owners[i] */\n  dup2\n  mload\n  dup2\n  lt\n  tag_18\n  jumpi\n  tag_19\n  tag_20\n  jump\t// in\ntag_19:\ntag_18:\n  0x20\n  mul\n  0x20\n  add\n  add\n  mload\n    /* \"MultiSigWallet.sol\":1422:1451  address tmpOwner = _owners[i] */\n  swap1\n  pop\n    /* \"MultiSigWallet.sol\":1494:1495  0 */\n  0x00\n    /* \"MultiSigWallet.sol\":1474:1496  tmpOwner != address(0) */\n  0xffffffffffffffffffffffffffffffffffffffff\n  and\n    /* \"MultiSigWallet.sol\":1474:1482  tmpOwner */\n  dup2\n    /* \"MultiSigWallet.sol\":1474:1496  tmpOwner != address(0) */\n  0xffffffffffffffffffffffffffffffffffffffff\n  and\n  sub\n    /* \"MultiSigWallet.sol\":1466:1519  require(tmpOwner != address(0),\"address 0 not valid\") */\n  tag_21\n  jumpi\n  mload(0x40)\n  0x08c379a000000000000000000000000000000000000000000000000000000000\n  dup2\n  mstore\n  0x04\n  add\n  tag_22\n  swap1\n  tag_23\n  jump\t// in\ntag_22:\n  mload(0x40)\n  dup1\n  swap2\n  sub\n  swap1\n  revert\ntag_21:\n    /* \"MultiSigWallet.sol\":1543:1550  isOwner */\n  0x01\n    /* \"MultiSigWallet.sol\":1543:1560  isOwner[tmpOwner] */\n  0x00\n    /* \"MultiSigWallet.sol\":1551:1559  tmpOwner */\n  dup3\n    /* \"MultiSigWallet.sol\":1543:1560  isOwner[tmpOwner] */\n  0xffffffffffffffffffffffffffffffffffffffff\n  and\n  0xffffffffffffffffffffffffffffffffffffffff\n  and\n  dup2\n  mstore\n  0x20\n  add\n  swap1\n  dup2\n  mstore\n  0x20\n  add\n  0x00\n  keccak256\n  0x00\n  swap1\n  sload\n  swap1\n  0x0100\n  exp\n  swap1\n  div\n  0xff\n  and\n    /* \"MultiSigWallet.sol\":1542:1560  !isOwner[tmpOwner] */\n  iszero\n    /* \"MultiSigWallet.sol\":1534:1581  require(!isOwner[tmpOwner], \"owner duplicated\") */\n  tag_24\n  jumpi\n  mload(0x40)\n  0x08c379a000000000000000000000000000000000000000000000000000000000\n  dup2\n  mstore\n  0x04\n  add\n  tag_25\n  swap1\n  tag_26\n  jump\t// in\ntag_25:\n  mload(0x40)\n  dup1\n  swap2\n  sub\n  swap1\n  revert\ntag_24:\n    /* \"MultiSigWallet.sol\":1598:1604  owners */\n  0x00\n    /* \"MultiSigWallet.sol\":1610:1618  tmpOwner */\n  dup2\n    /* \"MultiSigWallet.sol\":1598:1619  owners.push(tmpOwner) */\n  swap1\n  dup1\n  0x01\n  dup2\n  sload\n  add\n  dup1\n  dup3\n  sstore\n  dup1\n  swap2\n  pop\n  pop\n  0x01\n  swap1\n  sub\n  swap1\n  0x00\n  mstore\n  keccak256(0x00, 0x20)\n  add\n  0x00\n  swap1\n  swap2\n  swap1\n  swap2\n  swap1\n  swap2\n  0x0100\n  exp\n  dup2\n  sload\n  dup2\n  0xffffffffffffffffffffffffffffffffffffffff\n  mul\n  not\n  and\n  swap1\n  dup4\n  0xffffffffffffffffffffffffffffffffffffffff\n  and\n  mul\n  or\n  swap1\n  sstore\n  pop\n    /* \"MultiSigWallet.sol\":1654:1658  true */\n  0x01\n    /* \"MultiSigWallet.sol\":1634:1641  isOwner */\n  dup1\n    /* \"MultiSigWallet.sol\":1634:1651  isOwner[tmpOwner] */\n  0x00\n    /* \"MultiSigWallet.sol\":1642:1650  tmpOwner */\n  dup4\n    /* \"MultiSigWallet.sol\":1634:1651  isOwner[tmpOwner] */\n  0xffffffffffffffffffffffffffffffffffffffff\n  and\n  0xffffffffffffffffffffffffffffffffffffffff\n  and\n  dup2\n  mstore\n  0x20\n  add\n  swap1\n  dup2\n  mstore\n  0x20\n  add\n  0x00\n  keccak256\n  0x00\n    /* \"MultiSigWallet.sol\":1634:1658  isOwner[tmpOwner] = true */\n  0x0100\n  exp\n  dup2\n  sload\n  dup2\n  0xff\n  mul\n  not\n  and\n  swap1\n  dup4\n  iszero\n  iszero\n  mul\n  or\n  swap1\n  sstore\n  pop\n    /* \"MultiSigWallet.sol\":1407:1670  {... */\n  pop\n    /* \"MultiSigWallet.sol\":1403:1406  ++i */\n  dup1\n  0x01\n  add\n  swap1\n  pop\n    /* \"MultiSigWallet.sol\":1377:1670  for(uint i=0; i<ownersNum;++i){... */\n  jump(tag_15)\ntag_16:\n  pop\n    /* \"MultiSigWallet.sol\":1743:1752  _required */\n  dup2\n    /* \"MultiSigWallet.sol\":1732:1740  required */\n  0x02\n    /* \"MultiSigWallet.sol\":1732:1752  required = _required */\n  dup2\n  swap1\n  sstore\n  pop\n    /* \"MultiSigWallet.sol\":1085:1760  {... */\n  pop\n    /* \"MultiSigWallet.sol\":1031:1760  constructor (address[] memory _owners, uint _required){... */\n  pop\n  pop\n    /* \"MultiSigWallet.sol\":60:4539  contract MultiSigWallet{... */\n  jump(tag_28)\n    /* \"#utility.yul\":7:82   */\ntag_29:\n    /* \"#utility.yul\":40:46   */\n  0x00\n    /* \"#utility.yul\":73:75   */\n  0x40\n    /* \"#utility.yul\":67:76   */\n  mload\n    /* \"#utility.yul\":57:76   */\n  swap1\n  pop\n    /* \"#utility.yul\":7:82   */\n  swap1\n  jump\t// out\n    /* \"#utility.yul\":88:205   */\ntag_30:\n    /* \"#utility.yul\":197:198   */\n  0x00\n    /* \"#utility.yul\":194:195   */\n  dup1\n    /* \"#utility.yul\":187:199   */\n  revert\n    /* \"#utility.yul\":211:328   */\ntag_31:\n    /* \"#utility.yul\":320:321   */\n  0x00\n    /* \"#utility.yul\":317:318   */\n  dup1\n    /* \"#utility.yul\":310:322   */\n  revert\n    /* \"#utility.yul\":334:451   */\ntag_32:\n    /* \"#utility.yul\":443:444   */\n  0x00\n    /* \"#utility.yul\":440:441   */\n  dup1\n    /* \"#utility.yul\":433:445   */\n  revert\n    /* \"#utility.yul\":457:559   */\ntag_33:\n    /* \"#utility.yul\":498:504   */\n  0x00\n    /* \"#utility.yul\":549:551   */\n  0x1f\n    /* \"#utility.yul\":545:552   */\n  not\n    /* \"#utility.yul\":540:542   */\n  0x1f\n    /* \"#utility.yul\":533:538   */\n  dup4\n    /* \"#utility.yul\":529:543   */\n  add\n    /* \"#utility.yul\":525:553   */\n  and\n    /* \"#utility.yul\":515:553   */\n  swap1\n  pop\n    /* \"#utility.yul\":457:559   */\n  swap2\n  swap1\n  pop\n  jump\t// out\n    /* \"#utility.yul\":565:745   */\ntag_34:\n    /* \"#utility.yul\":613:690   */\n  0x4e487b7100000000000000000000000000000000000000000000000000000000\n    /* \"#utility.yul\":610:611   */\n  0x00\n    /* \"#utility.yul\":603:691   */\n  mstore\n    /* \"#utility.yul\":710:714   */\n  0x41\n    /* \"#utility.yul\":707:708   */\n  0x04\n    /* \"#utility.yul\":700:715   */\n  mstore\n    /* \"#utility.yul\":734:738   */\n  0x24\n    /* \"#utility.yul\":731:732   */\n  0x00\n    /* \"#utility.yul\":724:739   */\n  revert\n    /* \"#utility.yul\":751:1032   */\ntag_35:\n    /* \"#utility.yul\":834:861   */\n  tag_67\n    /* \"#utility.yul\":856:860   */\n  dup3\n    /* \"#utility.yul\":834:861   */\n  tag_33\n  jump\t// in\ntag_67:\n    /* \"#utility.yul\":826:832   */\n  dup2\n    /* \"#utility.yul\":822:862   */\n  add\n    /* \"#utility.yul\":964:970   */\n  dup2\n    /* \"#utility.yul\":952:962   */\n  dup2\n    /* \"#utility.yul\":949:971   */\n  lt\n    /* \"#utility.yul\":928:946   */\n  0xffffffffffffffff\n    /* \"#utility.yul\":916:926   */\n  dup3\n    /* \"#utility.yul\":913:947   */\n  gt\n    /* \"#utility.yul\":910:972   */\n  or\n    /* \"#utility.yul\":907:995   */\n  iszero\n  tag_68\n  jumpi\n    /* \"#utility.yul\":975:993   */\n  tag_69\n  tag_34\n  jump\t// in\ntag_69:\n    /* \"#utility.yul\":907:995   */\ntag_68:\n    /* \"#utility.yul\":1015:1025   */\n  dup1\n    /* \"#utility.yul\":1011:1013   */\n  0x40\n    /* \"#utility.yul\":1004:1026   */\n  mstore\n    /* \"#utility.yul\":794:1032   */\n  pop\n    /* \"#utility.yul\":751:1032   */\n  pop\n  pop\n  jump\t// out\n    /* \"#utility.yul\":1038:1167   */\ntag_36:\n    /* \"#utility.yul\":1072:1078   */\n  0x00\n    /* \"#utility.yul\":1099:1119   */\n  tag_71\n  tag_29\n  jump\t// in\ntag_71:\n    /* \"#utility.yul\":1089:1119   */\n  swap1\n  pop\n    /* \"#utility.yul\":1128:1161   */\n  tag_72\n    /* \"#utility.yul\":1156:1160   */\n  dup3\n    /* \"#utility.yul\":1148:1154   */\n  dup3\n    /* \"#utility.yul\":1128:1161   */\n  tag_35\n  jump\t// in\ntag_72:\n    /* \"#utility.yul\":1038:1167   */\n  swap2\n  swap1\n  pop\n  jump\t// out\n    /* \"#utility.yul\":1173:1484   */\ntag_37:\n    /* \"#utility.yul\":1250:1254   */\n  0x00\n    /* \"#utility.yul\":1340:1358   */\n  0xffffffffffffffff\n    /* \"#utility.yul\":1332:1338   */\n  dup3\n    /* \"#utility.yul\":1329:1359   */\n  gt\n    /* \"#utility.yul\":1326:1382   */\n  iszero\n  tag_74\n  jumpi\n    /* \"#utility.yul\":1362:1380   */\n  tag_75\n  tag_34\n  jump\t// in\ntag_75:\n    /* \"#utility.yul\":1326:1382   */\ntag_74:\n    /* \"#utility.yul\":1412:1416   */\n  0x20\n    /* \"#utility.yul\":1404:1410   */\n  dup3\n    /* \"#utility.yul\":1400:1417   */\n  mul\n    /* \"#utility.yul\":1392:1417   */\n  swap1\n  pop\n    /* \"#utility.yul\":1472:1476   */\n  0x20\n    /* \"#utility.yul\":1466:1470   */\n  dup2\n    /* \"#utility.yul\":1462:1477   */\n  add\n    /* \"#utility.yul\":1454:1477   */\n  swap1\n  pop\n    /* \"#utility.yul\":1173:1484   */\n  swap2\n  swap1\n  pop\n  jump\t// out\n    /* \"#utility.yul\":1490:1607   */\ntag_38:\n    /* \"#utility.yul\":1599:1600   */\n  0x00\n    /* \"#utility.yul\":1596:1597   */\n  dup1\n    /* \"#utility.yul\":1589:1601   */\n  revert\n    /* \"#utility.yul\":1613:1739   */\ntag_39:\n    /* \"#utility.yul\":1650:1657   */\n  0x00\n    /* \"#utility.yul\":1690:1732   */\n  0xffffffffffffffffffffffffffffffffffffffff\n    /* \"#utility.yul\":1683:1688   */\n  dup3\n    /* \"#utility.yul\":1679:1733   */\n  and\n    /* \"#utility.yul\":1668:1733   */\n  swap1\n  pop\n    /* \"#utility.yul\":1613:1739   */\n  swap2\n  swap1\n  pop\n  jump\t// out\n    /* \"#utility.yul\":1745:1841   */\ntag_40:\n    /* \"#utility.yul\":1782:1789   */\n  0x00\n    /* \"#utility.yul\":1811:1835   */\n  tag_79\n    /* \"#utility.yul\":1829:1834   */\n  dup3\n    /* \"#utility.yul\":1811:1835   */\n  tag_39\n  jump\t// in\ntag_79:\n    /* \"#utility.yul\":1800:1835   */\n  swap1\n  pop\n    /* \"#utility.yul\":1745:1841   */\n  swap2\n  swap1\n  pop\n  jump\t// out\n    /* \"#utility.yul\":1847:1969   */\ntag_41:\n    /* \"#utility.yul\":1920:1944   */\n  tag_81\n    /* \"#utility.yul\":1938:1943   */\n  dup2\n    /* \"#utility.yul\":1920:1944   */\n  tag_40\n  jump\t// in\ntag_81:\n    /* \"#utility.yul\":1913:1918   */\n  dup2\n    /* \"#utility.yul\":1910:1945   */\n  eq\n    /* \"#utility.yul\":1900:1963   */\n  tag_82\n  jumpi\n    /* \"#utility.yul\":1959:1960   */\n  0x00\n    /* \"#utility.yul\":1956:1957   */\n  dup1\n    /* \"#utility.yul\":1949:1961   */\n  revert\n    /* \"#utility.yul\":1900:1963   */\ntag_82:\n    /* \"#utility.yul\":1847:1969   */\n  pop\n  jump\t// out\n    /* \"#utility.yul\":1975:2118   */\ntag_42:\n    /* \"#utility.yul\":2032:2037   */\n  0x00\n    /* \"#utility.yul\":2063:2069   */\n  dup2\n    /* \"#utility.yul\":2057:2070   */\n  mload\n    /* \"#utility.yul\":2048:2070   */\n  swap1\n  pop\n    /* \"#utility.yul\":2079:2112   */\n  tag_84\n    /* \"#utility.yul\":2106:2111   */\n  dup2\n    /* \"#utility.yul\":2079:2112   */\n  tag_41\n  jump\t// in\ntag_84:\n    /* \"#utility.yul\":1975:2118   */\n  swap3\n  swap2\n  pop\n  pop\n  jump\t// out\n    /* \"#utility.yul\":2141:2873   */\ntag_43:\n    /* \"#utility.yul\":2248:2253   */\n  0x00\n    /* \"#utility.yul\":2273:2354   */\n  tag_86\n    /* \"#utility.yul\":2289:2353   */\n  tag_87\n    /* \"#utility.yul\":2346:2352   */\n  dup5\n    /* \"#utility.yul\":2289:2353   */\n  tag_37\n  jump\t// in\ntag_87:\n    /* \"#utility.yul\":2273:2354   */\n  tag_36\n  jump\t// in\ntag_86:\n    /* \"#utility.yul\":2264:2354   */\n  swap1\n  pop\n    /* \"#utility.yul\":2374:2379   */\n  dup1\n    /* \"#utility.yul\":2403:2409   */\n  dup4\n    /* \"#utility.yul\":2396:2401   */\n  dup3\n    /* \"#utility.yul\":2389:2410   */\n  mstore\n    /* \"#utility.yul\":2437:2441   */\n  0x20\n    /* \"#utility.yul\":2430:2435   */\n  dup3\n    /* \"#utility.yul\":2426:2442   */\n  add\n    /* \"#utility.yul\":2419:2442   */\n  swap1\n  pop\n    /* \"#utility.yul\":2490:2494   */\n  0x20\n    /* \"#utility.yul\":2482:2488   */\n  dup5\n    /* \"#utility.yul\":2478:2495   */\n  mul\n    /* \"#utility.yul\":2470:2476   */\n  dup4\n    /* \"#utility.yul\":2466:2496   */\n  add\n    /* \"#utility.yul\":2519:2522   */\n  dup6\n    /* \"#utility.yul\":2511:2517   */\n  dup2\n    /* \"#utility.yul\":2508:2523   */\n  gt\n    /* \"#utility.yul\":2505:2627   */\n  iszero\n  tag_88\n  jumpi\n    /* \"#utility.yul\":2538:2617   */\n  tag_89\n  tag_38\n  jump\t// in\ntag_89:\n    /* \"#utility.yul\":2505:2627   */\ntag_88:\n    /* \"#utility.yul\":2653:2659   */\n  dup4\n    /* \"#utility.yul\":2636:2867   */\ntag_90:\n    /* \"#utility.yul\":2670:2676   */\n  dup2\n    /* \"#utility.yul\":2665:2668   */\n  dup2\n    /* \"#utility.yul\":2662:2677   */\n  lt\n    /* \"#utility.yul\":2636:2867   */\n  iszero\n  tag_92\n  jumpi\n    /* \"#utility.yul\":2745:2748   */\n  dup1\n    /* \"#utility.yul\":2774:2822   */\n  tag_93\n    /* \"#utility.yul\":2818:2821   */\n  dup9\n    /* \"#utility.yul\":2806:2816   */\n  dup3\n    /* \"#utility.yul\":2774:2822   */\n  tag_42\n  jump\t// in\ntag_93:\n    /* \"#utility.yul\":2769:2772   */\n  dup5\n    /* \"#utility.yul\":2762:2823   */\n  mstore\n    /* \"#utility.yul\":2852:2856   */\n  0x20\n    /* \"#utility.yul\":2847:2850   */\n  dup5\n    /* \"#utility.yul\":2843:2857   */\n  add\n    /* \"#utility.yul\":2836:2857   */\n  swap4\n  pop\n    /* \"#utility.yul\":2712:2867   */\n  pop\n    /* \"#utility.yul\":2696:2700   */\n  0x20\n    /* \"#utility.yul\":2691:2694   */\n  dup2\n    /* \"#utility.yul\":2687:2701   */\n  add\n    /* \"#utility.yul\":2680:2701   */\n  swap1\n  pop\n    /* \"#utility.yul\":2636:2867   */\n  jump(tag_90)\ntag_92:\n    /* \"#utility.yul\":2640:2661   */\n  pop\n    /* \"#utility.yul\":2254:2873   */\n  pop\n  pop\n    /* \"#utility.yul\":2141:2873   */\n  swap4\n  swap3\n  pop\n  pop\n  pop\n  jump\t// out\n    /* \"#utility.yul\":2896:3281   */\ntag_44:\n    /* \"#utility.yul\":2978:2983   */\n  0x00\n    /* \"#utility.yul\":3027:3030   */\n  dup3\n    /* \"#utility.yul\":3020:3024   */\n  0x1f\n    /* \"#utility.yul\":3012:3018   */\n  dup4\n    /* \"#utility.yul\":3008:3025   */\n  add\n    /* \"#utility.yul\":3004:3031   */\n  slt\n    /* \"#utility.yul\":2994:3116   */\n  tag_95\n  jumpi\n    /* \"#utility.yul\":3035:3114   */\n  tag_96\n  tag_32\n  jump\t// in\ntag_96:\n    /* \"#utility.yul\":2994:3116   */\ntag_95:\n    /* \"#utility.yul\":3145:3151   */\n  dup2\n    /* \"#utility.yul\":3139:3152   */\n  mload\n    /* \"#utility.yul\":3170:3275   */\n  tag_97\n    /* \"#utility.yul\":3271:3274   */\n  dup5\n    /* \"#utility.yul\":3263:3269   */\n  dup3\n    /* \"#utility.yul\":3256:3260   */\n  0x20\n    /* \"#utility.yul\":3248:3254   */\n  dup7\n    /* \"#utility.yul\":3244:3261   */\n  add\n    /* \"#utility.yul\":3170:3275   */\n  tag_43\n  jump\t// in\ntag_97:\n    /* \"#utility.yul\":3161:3275   */\n  swap2\n  pop\n    /* \"#utility.yul\":2984:3281   */\n  pop\n    /* \"#utility.yul\":2896:3281   */\n  swap3\n  swap2\n  pop\n  pop\n  jump\t// out\n    /* \"#utility.yul\":3287:3364   */\ntag_45:\n    /* \"#utility.yul\":3324:3331   */\n  0x00\n    /* \"#utility.yul\":3353:3358   */\n  dup2\n    /* \"#utility.yul\":3342:3358   */\n  swap1\n  pop\n    /* \"#utility.yul\":3287:3364   */\n  swap2\n  swap1\n  pop\n  jump\t// out\n    /* \"#utility.yul\":3370:3492   */\ntag_46:\n    /* \"#utility.yul\":3443:3467   */\n  tag_100\n    /* \"#utility.yul\":3461:3466   */\n  dup2\n    /* \"#utility.yul\":3443:3467   */\n  tag_45\n  jump\t// in\ntag_100:\n    /* \"#utility.yul\":3436:3441   */\n  dup2\n    /* \"#utility.yul\":3433:3468   */\n  eq\n    /* \"#utility.yul\":3423:3486   */\n  tag_101\n  jumpi\n    /* \"#utility.yul\":3482:3483   */\n  0x00\n    /* \"#utility.yul\":3479:3480   */\n  dup1\n    /* \"#utility.yul\":3472:3484   */\n  revert\n    /* \"#utility.yul\":3423:3486   */\ntag_101:\n    /* \"#utility.yul\":3370:3492   */\n  pop\n  jump\t// out\n    /* \"#utility.yul\":3498:3641   */\ntag_47:\n    /* \"#utility.yul\":3555:3560   */\n  0x00\n    /* \"#utility.yul\":3586:3592   */\n  dup2\n    /* \"#utility.yul\":3580:3593   */\n  mload\n    /* \"#utility.yul\":3571:3593   */\n  swap1\n  pop\n    /* \"#utility.yul\":3602:3635   */\n  tag_103\n    /* \"#utility.yul\":3629:3634   */\n  dup2\n    /* \"#utility.yul\":3602:3635   */\n  tag_46\n  jump\t// in\ntag_103:\n    /* \"#utility.yul\":3498:3641   */\n  swap3\n  swap2\n  pop\n  pop\n  jump\t// out\n    /* \"#utility.yul\":3647:4357   */\ntag_3:\n    /* \"#utility.yul\":3751:3757   */\n  0x00\n    /* \"#utility.yul\":3759:3765   */\n  dup1\n    /* \"#utility.yul\":3808:3810   */\n  0x40\n    /* \"#utility.yul\":3796:3805   */\n  dup4\n    /* \"#utility.yul\":3787:3794   */\n  dup6\n    /* \"#utility.yul\":3783:3806   */\n  sub\n    /* \"#utility.yul\":3779:3811   */\n  slt\n    /* \"#utility.yul\":3776:3895   */\n  iszero\n  tag_105\n  jumpi\n    /* \"#utility.yul\":3814:3893   */\n  tag_106\n  tag_30\n  jump\t// in\ntag_106:\n    /* \"#utility.yul\":3776:3895   */\ntag_105:\n    /* \"#utility.yul\":3955:3956   */\n  0x00\n    /* \"#utility.yul\":3944:3953   */\n  dup4\n    /* \"#utility.yul\":3940:3957   */\n  add\n    /* \"#utility.yul\":3934:3958   */\n  mload\n    /* \"#utility.yul\":3985:4003   */\n  0xffffffffffffffff\n    /* \"#utility.yul\":3977:3983   */\n  dup2\n    /* \"#utility.yul\":3974:4004   */\n  gt\n    /* \"#utility.yul\":3971:4088   */\n  iszero\n  tag_107\n  jumpi\n    /* \"#utility.yul\":4007:4086   */\n  tag_108\n  tag_31\n  jump\t// in\ntag_108:\n    /* \"#utility.yul\":3971:4088   */\ntag_107:\n    /* \"#utility.yul\":4112:4201   */\n  tag_109\n    /* \"#utility.yul\":4193:4200   */\n  dup6\n    /* \"#utility.yul\":4184:4190   */\n  dup3\n    /* \"#utility.yul\":4173:4182   */\n  dup7\n    /* \"#utility.yul\":4169:4191   */\n  add\n    /* \"#utility.yul\":4112:4201   */\n  tag_44\n  jump\t// in\ntag_109:\n    /* \"#utility.yul\":4102:4201   */\n  swap3\n  pop\n    /* \"#utility.yul\":3905:4211   */\n  pop\n    /* \"#utility.yul\":4250:4252   */\n  0x20\n    /* \"#utility.yul\":4276:4340   */\n  tag_110\n    /* \"#utility.yul\":4332:4339   */\n  dup6\n    /* \"#utility.yul\":4323:4329   */\n  dup3\n    /* \"#utility.yul\":4312:4321   */\n  dup7\n    /* \"#utility.yul\":4308:4330   */\n  add\n    /* \"#utility.yul\":4276:4340   */\n  tag_47\n  jump\t// in\ntag_110:\n    /* \"#utility.yul\":4266:4340   */\n  swap2\n  pop\n    /* \"#utility.yul\":4221:4350   */\n  pop\n    /* \"#utility.yul\":3647:4357   */\n  swap3\n  pop\n  swap3\n  swap1\n  pop\n  jump\t// out\n    /* \"#utility.yul\":4363:4532   */\ntag_48:\n    /* \"#utility.yul\":4447:4458   */\n  0x00\n    /* \"#utility.yul\":4481:4487   */\n  dup3\n    /* \"#utility.yul\":4476:4479   */\n  dup3\n    /* \"#utility.yul\":4469:4488   */\n  mstore\n    /* \"#utility.yul\":4521:4525   */\n  0x20\n    /* \"#utility.yul\":4516:4519   */\n  dup3\n    /* \"#utility.yul\":4512:4526   */\n  add\n    /* \"#utility.yul\":4497:4526   */\n  swap1\n  pop\n    /* \"#utility.yul\":4363:4532   */\n  swap3\n  swap2\n  pop\n  pop\n  jump\t// out\n    /* \"#utility.yul\":4538:4765   */\ntag_49:\n    /* \"#utility.yul\":4678:4712   */\n  0x4174206c65617365206f6e65206f776e65722073686f756c6420626520696e69\n    /* \"#utility.yul\":4674:4675   */\n  0x00\n    /* \"#utility.yul\":4666:4672   */\n  dup3\n    /* \"#utility.yul\":4662:4676   */\n  add\n    /* \"#utility.yul\":4655:4713   */\n  mstore\n    /* \"#utility.yul\":4747:4757   */\n  0x7469616c697a6564000000000000000000000000000000000000000000000000\n    /* \"#utility.yul\":4742:4744   */\n  0x20\n    /* \"#utility.yul\":4734:4740   */\n  dup3\n    /* \"#utility.yul\":4730:4745   */\n  add\n    /* \"#utility.yul\":4723:4758   */\n  mstore\n    /* \"#utility.yul\":4538:4765   */\n  pop\n  jump\t// out\n    /* \"#utility.yul\":4771:5137   */\ntag_50:\n    /* \"#utility.yul\":4913:4916   */\n  0x00\n    /* \"#utility.yul\":4934:5001   */\n  tag_114\n    /* \"#utility.yul\":4998:5000   */\n  0x28\n    /* \"#utility.yul\":4993:4996   */\n  dup4\n    /* \"#utility.yul\":4934:5001   */\n  tag_48\n  jump\t// in\ntag_114:\n    /* \"#utility.yul\":4927:5001   */\n  swap2\n  pop\n    /* \"#utility.yul\":5010:5103   */\n  tag_115\n    /* \"#utility.yul\":5099:5102   */\n  dup3\n    /* \"#utility.yul\":5010:5103   */\n  tag_49\n  jump\t// in\ntag_115:\n    /* \"#utility.yul\":5128:5130   */\n  0x40\n    /* \"#utility.yul\":5123:5126   */\n  dup3\n    /* \"#utility.yul\":5119:5131   */\n  add\n    /* \"#utility.yul\":5112:5131   */\n  swap1\n  pop\n    /* \"#utility.yul\":4771:5137   */\n  swap2\n  swap1\n  pop\n  jump\t// out\n    /* \"#utility.yul\":5143:5562   */\ntag_8:\n    /* \"#utility.yul\":5309:5313   */\n  0x00\n    /* \"#utility.yul\":5347:5349   */\n  0x20\n    /* \"#utility.yul\":5336:5345   */\n  dup3\n    /* \"#utility.yul\":5332:5350   */\n  add\n    /* \"#utility.yul\":5324:5350   */\n  swap1\n  pop\n    /* \"#utility.yul\":5396:5405   */\n  dup2\n    /* \"#utility.yul\":5390:5394   */\n  dup2\n    /* \"#utility.yul\":5386:5406   */\n  sub\n    /* \"#utility.yul\":5382:5383   */\n  0x00\n    /* \"#utility.yul\":5371:5380   */\n  dup4\n    /* \"#utility.yul\":5367:5384   */\n  add\n    /* \"#utility.yul\":5360:5407   */\n  mstore\n    /* \"#utility.yul\":5424:5555   */\n  tag_117\n    /* \"#utility.yul\":5550:5554   */\n  dup2\n    /* \"#utility.yul\":5424:5555   */\n  tag_50\n  jump\t// in\ntag_117:\n    /* \"#utility.yul\":5416:5555   */\n  swap1\n  pop\n    /* \"#utility.yul\":5143:5562   */\n  swap2\n  swap1\n  pop\n  jump\t// out\n    /* \"#utility.yul\":5568:5789   */\ntag_51:\n    /* \"#utility.yul\":5708:5742   */\n  0x7265717569726520617070726f766564206e756d6265722073686f756c64203e\n    /* \"#utility.yul\":5704:5705   */\n  0x00\n    /* \"#utility.yul\":5696:5702   */\n  dup3\n    /* \"#utility.yul\":5692:5706   */\n  add\n    /* \"#utility.yul\":5685:5743   */\n  mstore\n    /* \"#utility.yul\":5777:5781   */\n  0x2030000000000000000000000000000000000000000000000000000000000000\n    /* \"#utility.yul\":5772:5774   */\n  0x20\n    /* \"#utility.yul\":5764:5770   */\n  dup3\n    /* \"#utility.yul\":5760:5775   */\n  add\n    /* \"#utility.yul\":5753:5782   */\n  mstore\n    /* \"#utility.yul\":5568:5789   */\n  pop\n  jump\t// out\n    /* \"#utility.yul\":5795:6161   */\ntag_52:\n    /* \"#utility.yul\":5937:5940   */\n  0x00\n    /* \"#utility.yul\":5958:6025   */\n  tag_120\n    /* \"#utility.yul\":6022:6024   */\n  0x22\n    /* \"#utility.yul\":6017:6020   */\n  dup4\n    /* \"#utility.yul\":5958:6025   */\n  tag_48\n  jump\t// in\ntag_120:\n    /* \"#utility.yul\":5951:6025   */\n  swap2\n  pop\n    /* \"#utility.yul\":6034:6127   */\n  tag_121\n    /* \"#utility.yul\":6123:6126   */\n  dup3\n    /* \"#utility.yul\":6034:6127   */\n  tag_51\n  jump\t// in\ntag_121:\n    /* \"#utility.yul\":6152:6154   */\n  0x40\n    /* \"#utility.yul\":6147:6150   */\n  dup3\n    /* \"#utility.yul\":6143:6155   */\n  add\n    /* \"#utility.yul\":6136:6155   */\n  swap1\n  pop\n    /* \"#utility.yul\":5795:6161   */\n  swap2\n  swap1\n  pop\n  jump\t// out\n    /* \"#utility.yul\":6167:6586   */\ntag_11:\n    /* \"#utility.yul\":6333:6337   */\n  0x00\n    /* \"#utility.yul\":6371:6373   */\n  0x20\n    /* \"#utility.yul\":6360:6369   */\n  dup3\n    /* \"#utility.yul\":6356:6374   */\n  add\n    /* \"#utility.yul\":6348:6374   */\n  swap1\n  pop\n    /* \"#utility.yul\":6420:6429   */\n  dup2\n    /* \"#utility.yul\":6414:6418   */\n  dup2\n    /* \"#utility.yul\":6410:6430   */\n  sub\n    /* \"#utility.yul\":6406:6407   */\n  0x00\n    /* \"#utility.yul\":6395:6404   */\n  dup4\n    /* \"#utility.yul\":6391:6408   */\n  add\n    /* \"#utility.yul\":6384:6431   */\n  mstore\n    /* \"#utility.yul\":6448:6579   */\n  tag_123\n    /* \"#utility.yul\":6574:6578   */\n  dup2\n    /* \"#utility.yul\":6448:6579   */\n  tag_52\n  jump\t// in\ntag_123:\n    /* \"#utility.yul\":6440:6579   */\n  swap1\n  pop\n    /* \"#utility.yul\":6167:6586   */\n  swap2\n  swap1\n  pop\n  jump\t// out\n    /* \"#utility.yul\":6592:6821   */\ntag_53:\n    /* \"#utility.yul\":6732:6766   */\n  0x72657175697265732073686f756c64206265206e6f206d6f7265207468616e20\n    /* \"#utility.yul\":6728:6729   */\n  0x00\n    /* \"#utility.yul\":6720:6726   */\n  dup3\n    /* \"#utility.yul\":6716:6730   */\n  add\n    /* \"#utility.yul\":6709:6767   */\n  mstore\n    /* \"#utility.yul\":6801:6813   */\n  0x746865206f776e65727300000000000000000000000000000000000000000000\n    /* \"#utility.yul\":6796:6798   */\n  0x20\n    /* \"#utility.yul\":6788:6794   */\n  dup3\n    /* \"#utility.yul\":6784:6799   */\n  add\n    /* \"#utility.yul\":6777:6814   */\n  mstore\n    /* \"#utility.yul\":6592:6821   */\n  pop\n  jump\t// out\n    /* \"#utility.yul\":6827:7193   */\ntag_54:\n    /* \"#utility.yul\":6969:6972   */\n  0x00\n    /* \"#utility.yul\":6990:7057   */\n  tag_126\n    /* \"#utility.yul\":7054:7056   */\n  0x2a\n    /* \"#utility.yul\":7049:7052   */\n  dup4\n    /* \"#utility.yul\":6990:7057   */\n  tag_48\n  jump\t// in\ntag_126:\n    /* \"#utility.yul\":6983:7057   */\n  swap2\n  pop\n    /* \"#utility.yul\":7066:7159   */\n  tag_127\n    /* \"#utility.yul\":7155:7158   */\n  dup3\n    /* \"#utility.yul\":7066:7159   */\n  tag_53\n  jump\t// in\ntag_127:\n    /* \"#utility.yul\":7184:7186   */\n  0x40\n    /* \"#utility.yul\":7179:7182   */\n  dup3\n    /* \"#utility.yul\":7175:7187   */\n  add\n    /* \"#utility.yul\":7168:7187   */\n  swap1\n  pop\n    /* \"#utility.yul\":6827:7193   */\n  swap2\n  swap1\n  pop\n  jump\t// out\n    /* \"#utility.yul\":7199:7618   */\ntag_14:\n    /* \"#utility.yul\":7365:7369   */\n  0x00\n    /* \"#utility.yul\":7403:7405   */\n  0x20\n    /* \"#utility.yul\":7392:7401   */\n  dup3\n    /* \"#utility.yul\":7388:7406   */\n  add\n    /* \"#utility.yul\":7380:7406   */\n  swap1\n  pop\n    /* \"#utility.yul\":7452:7461   */\n  dup2\n    /* \"#utility.yul\":7446:7450   */\n  dup2\n    /* \"#utility.yul\":7442:7462   */\n  sub\n    /* \"#utility.yul\":7438:7439   */\n  0x00\n    /* \"#utility.yul\":7427:7436   */\n  dup4\n    /* \"#utility.yul\":7423:7440   */\n  add\n    /* \"#utility.yul\":7416:7463   */\n  mstore\n    /* \"#utility.yul\":7480:7611   */\n  tag_129\n    /* \"#utility.yul\":7606:7610   */\n  dup2\n    /* \"#utility.yul\":7480:7611   */\n  tag_54\n  jump\t// in\ntag_129:\n    /* \"#utility.yul\":7472:7611   */\n  swap1\n  pop\n    /* \"#utility.yul\":7199:7618   */\n  swap2\n  swap1\n  pop\n  jump\t// out\n    /* \"#utility.yul\":7624:7804   */\ntag_20:\n    /* \"#utility.yul\":7672:7749   */\n  0x4e487b7100000000000000000000000000000000000000000000000000000000\n    /* \"#utility.yul\":7669:7670   */\n  0x00\n    /* \"#utility.yul\":7662:7750   */\n  mstore\n    /* \"#utility.yul\":7769:7773   */\n  0x32\n    /* \"#utility.yul\":7766:7767   */\n  0x04\n    /* \"#utility.yul\":7759:7774   */\n  mstore\n    /* \"#utility.yul\":7793:7797   */\n  0x24\n    /* \"#utility.yul\":7790:7791   */\n  0x00\n    /* \"#utility.yul\":7783:7798   */\n  revert\n    /* \"#utility.yul\":7810:7979   */\ntag_55:\n    /* \"#utility.yul\":7950:7971   */\n  0x616464726573732030206e6f742076616c696400000000000000000000000000\n    /* \"#utility.yul\":7946:7947   */\n  0x00\n    /* \"#utility.yul\":7938:7944   */\n  dup3\n    /* \"#utility.yul\":7934:7948   */\n  add\n    /* \"#utility.yul\":7927:7972   */\n  mstore\n    /* \"#utility.yul\":7810:7979   */\n  pop\n  jump\t// out\n    /* \"#utility.yul\":7985:8351   */\ntag_56:\n    /* \"#utility.yul\":8127:8130   */\n  0x00\n    /* \"#utility.yul\":8148:8215   */\n  tag_133\n    /* \"#utility.yul\":8212:8214   */\n  0x13\n    /* \"#utility.yul\":8207:8210   */\n  dup4\n    /* \"#utility.yul\":8148:8215   */\n  tag_48\n  jump\t// in\ntag_133:\n    /* \"#utility.yul\":8141:8215   */\n  swap2\n  pop\n    /* \"#utility.yul\":8224:8317   */\n  tag_134\n    /* \"#utility.yul\":8313:8316   */\n  dup3\n    /* \"#utility.yul\":8224:8317   */\n  tag_55\n  jump\t// in\ntag_134:\n    /* \"#utility.yul\":8342:8344   */\n  0x20\n    /* \"#utility.yul\":8337:8340   */\n  dup3\n    /* \"#utility.yul\":8333:8345   */\n  add\n    /* \"#utility.yul\":8326:8345   */\n  swap1\n  pop\n    /* \"#utility.yul\":7985:8351   */\n  swap2\n  swap1\n  pop\n  jump\t// out\n    /* \"#utility.yul\":8357:8776   */\ntag_23:\n    /* \"#utility.yul\":8523:8527   */\n  0x00\n    /* \"#utility.yul\":8561:8563   */\n  0x20\n    /* \"#utility.yul\":8550:8559   */\n  dup3\n    /* \"#utility.yul\":8546:8564   */\n  add\n    /* \"#utility.yul\":8538:8564   */\n  swap1\n  pop\n    /* \"#utility.yul\":8610:8619   */\n  dup2\n    /* \"#utility.yul\":8604:8608   */\n  dup2\n    /* \"#utility.yul\":8600:8620   */\n  sub\n    /* \"#utility.yul\":8596:8597   */\n  0x00\n    /* \"#utility.yul\":8585:8594   */\n  dup4\n    /* \"#utility.yul\":8581:8598   */\n  add\n    /* \"#utility.yul\":8574:8621   */\n  mstore\n    /* \"#utility.yul\":8638:8769   */\n  tag_136\n    /* \"#utility.yul\":8764:8768   */\n  dup2\n    /* \"#utility.yul\":8638:8769   */\n  tag_56\n  jump\t// in\ntag_136:\n    /* \"#utility.yul\":8630:8769   */\n  swap1\n  pop\n    /* \"#utility.yul\":8357:8776   */\n  swap2\n  swap1\n  pop\n  jump\t// out\n    /* \"#utility.yul\":8782:8948   */\ntag_57:\n    /* \"#utility.yul\":8922:8940   */\n  0x6f776e6572206475706c69636174656400000000000000000000000000000000\n    /* \"#utility.yul\":8918:8919   */\n  0x00\n    /* \"#utility.yul\":8910:8916   */\n  dup3\n    /* \"#utility.yul\":8906:8920   */\n  add\n    /* \"#utility.yul\":8899:8941   */\n  mstore\n    /* \"#utility.yul\":8782:8948   */\n  pop\n  jump\t// out\n    /* \"#utility.yul\":8954:9320   */\ntag_58:\n    /* \"#utility.yul\":9096:9099   */\n  0x00\n    /* \"#utility.yul\":9117:9184   */\n  tag_139\n    /* \"#utility.yul\":9181:9183   */\n  0x10\n    /* \"#utility.yul\":9176:9179   */\n  dup4\n    /* \"#utility.yul\":9117:9184   */\n  tag_48\n  jump\t// in\ntag_139:\n    /* \"#utility.yul\":9110:9184   */\n  swap2\n  pop\n    /* \"#utility.yul\":9193:9286   */\n  tag_140\n    /* \"#utility.yul\":9282:9285   */\n  dup3\n    /* \"#utility.yul\":9193:9286   */\n  tag_57\n  jump\t// in\ntag_140:\n    /* \"#utility.yul\":9311:9313   */\n  0x20\n    /* \"#utility.yul\":9306:9309   */\n  dup3\n    /* \"#utility.yul\":9302:9314   */\n  add\n    /* \"#utility.yul\":9295:9314   */\n  swap1\n  pop\n    /* \"#utility.yul\":8954:9320   */\n  swap2\n  swap1\n  pop\n  jump\t// out\n    /* \"#utility.yul\":9326:9745   */\ntag_26:\n    /* \"#utility.yul\":9492:9496   */\n  0x00\n    /* \"#utility.yul\":9530:9532   */\n  0x20\n    /* \"#utility.yul\":9519:9528   */\n  dup3\n    /* \"#utility.yul\":9515:9533   */\n  add\n    /* \"#utility.yul\":9507:9533   */\n  swap1\n  pop\n    /* \"#utility.yul\":9579:9588   */\n  dup2\n    /* \"#utility.yul\":9573:9577   */\n  dup2\n    /* \"#utility.yul\":9569:9589   */\n  sub\n    /* \"#utility.yul\":9565:9566   */\n  0x00\n    /* \"#utility.yul\":9554:9563   */\n  dup4\n    /* \"#utility.yul\":9550:9567   */\n  add\n    /* \"#utility.yul\":9543:9590   */\n  mstore\n    /* \"#utility.yul\":9607:9738   */\n  tag_142\n    /* \"#utility.yul\":9733:9737   */\n  dup2\n    /* \"#utility.yul\":9607:9738   */\n  tag_58\n  jump\t// in\ntag_142:\n    /* \"#utility.yul\":9599:9738   */\n  swap1\n  pop\n    /* \"#utility.yul\":9326:9745   */\n  swap2\n  swap1\n  pop\n  jump\t// out\n    /* \"MultiSigWallet.sol\":60:4539  contract MultiSigWallet{... */\ntag_28:\n  dataSize(sub_0)\n  dup1\n  dataOffset(sub_0)\n  0x00\n  codecopy\n  0x00\n  return\nstop\n\nsub_0: assembly {\n        /* \"MultiSigWallet.sol\":60:4539  contract MultiSigWallet{... */\n      mstore(0x40, 0x80)\n      jumpi(tag_1, lt(calldatasize, 0x04))\n      shr(0xe0, calldataload(0x00))\n      dup1\n      0x4446630d\n      gt\n      tag_11\n      jumpi\n      dup1\n      0x4446630d\n      eq\n      tag_7\n      jumpi\n      dup1\n      0xb759f954\n      eq\n      tag_8\n      jumpi\n      dup1\n      0xdc8452cd\n      eq\n      tag_9\n      jumpi\n      dup1\n      0xfe0d94c1\n      eq\n      tag_10\n      jumpi\n      jump(tag_2)\n    tag_11:\n      dup1\n      0x025e7c27\n      eq\n      tag_3\n      jumpi\n      dup1\n      0x14de327f\n      eq\n      tag_4\n      jumpi\n      dup1\n      0x20c5429b\n      eq\n      tag_5\n      jumpi\n      dup1\n      0x2f54bf6e\n      eq\n      tag_6\n      jumpi\n      jump(tag_2)\n    tag_1:\n      jumpi(tag_2, calldatasize)\n        /* \"MultiSigWallet.sol\":1820:1830  msg.sender */\n      caller\n        /* \"MultiSigWallet.sol\":1812:1842  Deposit(msg.sender, msg.value) */\n      0xffffffffffffffffffffffffffffffffffffffff\n      and\n      0xe1fffcc4923d04b559f4d29a8bfc6cda04eb5b0d3c460751c2402c5c5cc9109c\n        /* \"MultiSigWallet.sol\":1832:1841  msg.value */\n      callvalue\n        /* \"MultiSigWallet.sol\":1812:1842  Deposit(msg.sender, msg.value) */\n      mload(0x40)\n      tag_14\n      swap2\n      swap1\n      tag_15\n      jump\t// in\n    tag_14:\n      mload(0x40)\n      dup1\n      swap2\n      sub\n      swap1\n      log2\n        /* \"MultiSigWallet.sol\":60:4539  contract MultiSigWallet{... */\n      stop\n    tag_2:\n      0x00\n      dup1\n      revert\n        /* \"MultiSigWallet.sol\":457:480  address[] public owners */\n    tag_3:\n      callvalue\n      dup1\n      iszero\n      tag_16\n      jumpi\n      0x00\n      dup1\n      revert\n    tag_16:\n      pop\n      tag_17\n      0x04\n      dup1\n      calldatasize\n      sub\n      dup2\n      add\n      swap1\n      tag_18\n      swap2\n      swap1\n      tag_19\n      jump\t// in\n    tag_18:\n      tag_20\n      jump\t// in\n    tag_17:\n      mload(0x40)\n      tag_21\n      swap2\n      swap1\n      tag_22\n      jump\t// in\n    tag_21:\n      mload(0x40)\n      dup1\n      swap2\n      sub\n      swap1\n      return\n        /* \"MultiSigWallet.sol\":3007:3430  function submit(address _to, uint _amount, bytes calldata _data) external OnlyOwner() returns(bool){... */\n    tag_4:\n      callvalue\n      dup1\n      iszero\n      tag_23\n      jumpi\n      0x00\n      dup1\n      revert\n    tag_23:\n      pop\n      tag_24\n      0x04\n      dup1\n      calldatasize\n      sub\n      dup2\n      add\n      swap1\n      tag_25\n      swap2\n      swap1\n      tag_26\n      jump\t// in\n    tag_25:\n      tag_27\n      jump\t// in\n    tag_24:\n      mload(0x40)\n      tag_28\n      swap2\n      swap1\n      tag_29\n      jump\t// in\n    tag_28:\n      mload(0x40)\n      dup1\n      swap2\n      sub\n      swap1\n      return\n        /* \"MultiSigWallet.sol\":4226:4533  function revoke(uint _idx) external OnlyOwner txExisted(_idx) txNotExecuted(_idx) returns(bool){... */\n    tag_5:\n      callvalue\n      dup1\n      iszero\n      tag_30\n      jumpi\n      0x00\n      dup1\n      revert\n    tag_30:\n      pop\n      tag_31\n      0x04\n      dup1\n      calldatasize\n      sub\n      dup2\n      add\n      swap1\n      tag_32\n      swap2\n      swap1\n      tag_19\n      jump\t// in\n    tag_32:\n      tag_33\n      jump\t// in\n    tag_31:\n      mload(0x40)\n      tag_34\n      swap2\n      swap1\n      tag_29\n      jump\t// in\n    tag_34:\n      mload(0x40)\n      dup1\n      swap2\n      sub\n      swap1\n      return\n        /* \"MultiSigWallet.sol\":513:553  mapping (address => bool) public isOwner */\n    tag_6:\n      callvalue\n      dup1\n      iszero\n      tag_35\n      jumpi\n      0x00\n      dup1\n      revert\n    tag_35:\n      pop\n      tag_36\n      0x04\n      dup1\n      calldatasize\n      sub\n      dup2\n      add\n      swap1\n      tag_37\n      swap2\n      swap1\n      tag_38\n      jump\t// in\n    tag_37:\n      tag_39\n      jump\t// in\n    tag_36:\n      mload(0x40)\n      tag_40\n      swap2\n      swap1\n      tag_29\n      jump\t// in\n    tag_40:\n      mload(0x40)\n      dup1\n      swap2\n      sub\n      swap1\n      return\n        /* \"MultiSigWallet.sol\":923:960  MyTransaction[] public myTransactions */\n    tag_7:\n      callvalue\n      dup1\n      iszero\n      tag_41\n      jumpi\n      0x00\n      dup1\n      revert\n    tag_41:\n      pop\n      tag_42\n      0x04\n      dup1\n      calldatasize\n      sub\n      dup2\n      add\n      swap1\n      tag_43\n      swap2\n      swap1\n      tag_19\n      jump\t// in\n    tag_43:\n      tag_44\n      jump\t// in\n    tag_42:\n      mload(0x40)\n      tag_45\n      swap5\n      swap4\n      swap3\n      swap2\n      swap1\n      tag_46\n      jump\t// in\n    tag_45:\n      mload(0x40)\n      dup1\n      swap2\n      sub\n      swap1\n      return\n        /* \"MultiSigWallet.sol\":3438:3747  function approve(uint _idx) ... */\n    tag_8:\n      callvalue\n      dup1\n      iszero\n      tag_47\n      jumpi\n      0x00\n      dup1\n      revert\n    tag_47:\n      pop\n      tag_48\n      0x04\n      dup1\n      calldatasize\n      sub\n      dup2\n      add\n      swap1\n      tag_49\n      swap2\n      swap1\n      tag_19\n      jump\t// in\n    tag_49:\n      tag_50\n      jump\t// in\n    tag_48:\n      mload(0x40)\n      tag_51\n      swap2\n      swap1\n      tag_29\n      jump\t// in\n    tag_51:\n      mload(0x40)\n      dup1\n      swap2\n      sub\n      swap1\n      return\n        /* \"MultiSigWallet.sol\":632:652  uint public required */\n    tag_9:\n      callvalue\n      dup1\n      iszero\n      tag_52\n      jumpi\n      0x00\n      dup1\n      revert\n    tag_52:\n      pop\n      tag_53\n      tag_54\n      jump\t// in\n    tag_53:\n      mload(0x40)\n      tag_55\n      swap2\n      swap1\n      tag_15\n      jump\t// in\n    tag_55:\n      mload(0x40)\n      dup1\n      swap2\n      sub\n      swap1\n      return\n        /* \"MultiSigWallet.sol\":3755:4218  function execute(uint _idx) external  txExisted(_idx) txNotExecuted(_idx) returns(bool){... */\n    tag_10:\n      callvalue\n      dup1\n      iszero\n      tag_56\n      jumpi\n      0x00\n      dup1\n      revert\n    tag_56:\n      pop\n      tag_57\n      0x04\n      dup1\n      calldatasize\n      sub\n      dup2\n      add\n      swap1\n      tag_58\n      swap2\n      swap1\n      tag_19\n      jump\t// in\n    tag_58:\n      tag_59\n      jump\t// in\n    tag_57:\n      mload(0x40)\n      tag_60\n      swap2\n      swap1\n      tag_29\n      jump\t// in\n    tag_60:\n      mload(0x40)\n      dup1\n      swap2\n      sub\n      swap1\n      return\n        /* \"MultiSigWallet.sol\":457:480  address[] public owners */\n    tag_20:\n      0x00\n      dup2\n      dup2\n      sload\n      dup2\n      lt\n      tag_61\n      jumpi\n      0x00\n      dup1\n      revert\n    tag_61:\n      swap1\n      0x00\n      mstore\n      keccak256(0x00, 0x20)\n      add\n      0x00\n      swap2\n      pop\n      sload\n      swap1\n      0x0100\n      exp\n      swap1\n      div\n      0xffffffffffffffffffffffffffffffffffffffff\n      and\n      dup2\n      jump\t// out\n        /* \"MultiSigWallet.sol\":3007:3430  function submit(address _to, uint _amount, bytes calldata _data) external OnlyOwner() returns(bool){... */\n    tag_27:\n        /* \"MultiSigWallet.sol\":3101:3105  bool */\n      0x00\n        /* \"MultiSigWallet.sol\":1897:1917  _isOwner(msg.sender) */\n      tag_64\n        /* \"MultiSigWallet.sol\":1906:1916  msg.sender */\n      caller\n        /* \"MultiSigWallet.sol\":1897:1905  _isOwner */\n      tag_65\n        /* \"MultiSigWallet.sol\":1897:1917  _isOwner(msg.sender) */\n      jump\t// in\n    tag_64:\n        /* \"MultiSigWallet.sol\":1889:1941  require(_isOwner(msg.sender), \"Only owner allowed.\") */\n      tag_66\n      jumpi\n      mload(0x40)\n      0x08c379a000000000000000000000000000000000000000000000000000000000\n      dup2\n      mstore\n      0x04\n      add\n      tag_67\n      swap1\n      tag_68\n      jump\t// in\n    tag_67:\n      mload(0x40)\n      dup1\n      swap2\n      sub\n      swap1\n      revert\n    tag_66:\n        /* \"MultiSigWallet.sol\":3117:3144  MyTransaction memory tempTx */\n      0x00\n        /* \"MultiSigWallet.sol\":3147:3288  MyTransaction({... */\n      mload(0x40)\n      dup1\n      0x80\n      add\n      0x40\n      mstore\n      dup1\n        /* \"MultiSigWallet.sol\":3181:3184  _to */\n      dup8\n        /* \"MultiSigWallet.sol\":3147:3288  MyTransaction({... */\n      0xffffffffffffffffffffffffffffffffffffffff\n      and\n      dup2\n      mstore\n      0x20\n      add\n        /* \"MultiSigWallet.sol\":3208:3215  _amount */\n      dup7\n        /* \"MultiSigWallet.sol\":3147:3288  MyTransaction({... */\n      dup2\n      mstore\n      0x20\n      add\n        /* \"MultiSigWallet.sol\":3239:3244  _data */\n      dup6\n      dup6\n        /* \"MultiSigWallet.sol\":3147:3288  MyTransaction({... */\n      dup1\n      dup1\n      0x1f\n      add\n      0x20\n      dup1\n      swap2\n      div\n      mul\n      0x20\n      add\n      mload(0x40)\n      swap1\n      dup2\n      add\n      0x40\n      mstore\n      dup1\n      swap4\n      swap3\n      swap2\n      swap1\n      dup2\n      dup2\n      mstore\n      0x20\n      add\n      dup4\n      dup4\n      dup1\n      dup3\n      dup5\n      calldatacopy\n      0x00\n      dup2\n      dup5\n      add\n      mstore\n      not(0x1f)\n      0x1f\n      dup3\n      add\n      and\n      swap1\n      pop\n      dup1\n      dup4\n      add\n      swap3\n      pop\n      pop\n      pop\n      pop\n      pop\n      pop\n      pop\n      dup2\n      mstore\n      0x20\n      add\n        /* \"MultiSigWallet.sol\":3271:3276  false */\n      0x00\n        /* \"MultiSigWallet.sol\":3147:3288  MyTransaction({... */\n      iszero\n      iszero\n      dup2\n      mstore\n      pop\n        /* \"MultiSigWallet.sol\":3117:3288  MyTransaction memory tempTx = MyTransaction({... */\n      swap1\n      pop\n        /* \"MultiSigWallet.sol\":3299:3313  myTransactions */\n      0x03\n        /* \"MultiSigWallet.sol\":3319:3325  tempTx */\n      dup2\n        /* \"MultiSigWallet.sol\":3299:3326  myTransactions.push(tempTx) */\n      swap1\n      dup1\n      0x01\n      dup2\n      sload\n      add\n      dup1\n      dup3\n      sstore\n      dup1\n      swap2\n      pop\n      pop\n      0x01\n      swap1\n      sub\n      swap1\n      0x00\n      mstore\n      keccak256(0x00, 0x20)\n      swap1\n      0x04\n      mul\n      add\n      0x00\n      swap1\n      swap2\n      swap1\n      swap2\n      swap1\n      swap2\n      pop\n      0x00\n      dup3\n      add\n      mload\n      dup2\n      0x00\n      add\n      exp(0x0100, 0x00)\n      dup2\n      sload\n      dup2\n      0xffffffffffffffffffffffffffffffffffffffff\n      mul\n      not\n      and\n      swap1\n      dup4\n      0xffffffffffffffffffffffffffffffffffffffff\n      and\n      mul\n      or\n      swap1\n      sstore\n      pop\n      0x20\n      dup3\n      add\n      mload\n      dup2\n      0x01\n      add\n      sstore\n      0x40\n      dup3\n      add\n      mload\n      dup2\n      0x02\n      add\n      swap1\n      dup2\n      tag_71\n      swap2\n      swap1\n      tag_72\n      jump\t// in\n    tag_71:\n      pop\n      0x60\n      dup3\n      add\n      mload\n      dup2\n      0x03\n      add\n      exp(0x0100, 0x00)\n      dup2\n      sload\n      dup2\n      0xff\n      mul\n      not\n      and\n      swap1\n      dup4\n      iszero\n      iszero\n      mul\n      or\n      swap1\n      sstore\n      pop\n      pop\n      pop\n        /* \"MultiSigWallet.sol\":3398:3399  1 */\n      0x01\n        /* \"MultiSigWallet.sol\":3374:3388  myTransactions */\n      0x03\n        /* \"MultiSigWallet.sol\":3374:3395  myTransactions.length */\n      dup1\n      sload\n      swap1\n      pop\n        /* \"MultiSigWallet.sol\":3374:3399  myTransactions.length - 1 */\n      tag_73\n      swap2\n      swap1\n      tag_74\n      jump\t// in\n    tag_73:\n        /* \"MultiSigWallet.sol\":3344:3400  SubmitTx(_to, _amount, _data, myTransactions.length - 1) */\n      0x7db432c67f1d1fc67a6efc8e24cf224f9ae9fc5d7f333e7f2a6f75379a8f135e\n        /* \"MultiSigWallet.sol\":3353:3356  _to */\n      dup8\n        /* \"MultiSigWallet.sol\":3358:3365  _amount */\n      dup8\n        /* \"MultiSigWallet.sol\":3367:3372  _data */\n      dup8\n      dup8\n        /* \"MultiSigWallet.sol\":3344:3400  SubmitTx(_to, _amount, _data, myTransactions.length - 1) */\n      mload(0x40)\n      tag_75\n      swap5\n      swap4\n      swap3\n      swap2\n      swap1\n      tag_76\n      jump\t// in\n    tag_75:\n      mload(0x40)\n      dup1\n      swap2\n      sub\n      swap1\n      log2\n        /* \"MultiSigWallet.sol\":3418:3422  true */\n      0x01\n        /* \"MultiSigWallet.sol\":3411:3422  return true */\n      swap2\n      pop\n      pop\n        /* \"MultiSigWallet.sol\":3007:3430  function submit(address _to, uint _amount, bytes calldata _data) external OnlyOwner() returns(bool){... */\n      swap5\n      swap4\n      pop\n      pop\n      pop\n      pop\n      jump\t// out\n        /* \"MultiSigWallet.sol\":4226:4533  function revoke(uint _idx) external OnlyOwner txExisted(_idx) txNotExecuted(_idx) returns(bool){... */\n    tag_33:\n        /* \"MultiSigWallet.sol\":4316:4320  bool */\n      0x00\n        /* \"MultiSigWallet.sol\":1897:1917  _isOwner(msg.sender) */\n      tag_78\n        /* \"MultiSigWallet.sol\":1906:1916  msg.sender */\n      caller\n        /* \"MultiSigWallet.sol\":1897:1905  _isOwner */\n      tag_65\n        /* \"MultiSigWallet.sol\":1897:1917  _isOwner(msg.sender) */\n      jump\t// in\n    tag_78:\n        /* \"MultiSigWallet.sol\":1889:1941  require(_isOwner(msg.sender), \"Only owner allowed.\") */\n      tag_79\n      jumpi\n      mload(0x40)\n      0x08c379a000000000000000000000000000000000000000000000000000000000\n      dup2\n      mstore\n      0x04\n      add\n      tag_80\n      swap1\n      tag_68\n      jump\t// in\n    tag_80:\n      mload(0x40)\n      dup1\n      swap2\n      sub\n      swap1\n      revert\n    tag_79:\n        /* \"MultiSigWallet.sol\":4282:4286  _idx */\n      dup2\n        /* \"MultiSigWallet.sol\":2015:2033  _isTxExisted(_idx) */\n      tag_82\n        /* \"MultiSigWallet.sol\":2028:2032  _idx */\n      dup2\n        /* \"MultiSigWallet.sol\":2015:2027  _isTxExisted */\n      tag_83\n        /* \"MultiSigWallet.sol\":2015:2033  _isTxExisted(_idx) */\n      jump\t// in\n    tag_82:\n        /* \"MultiSigWallet.sol\":2007:2063  require(_isTxExisted(_idx), \"The tx index out of range\") */\n      tag_84\n      jumpi\n      mload(0x40)\n      0x08c379a000000000000000000000000000000000000000000000000000000000\n      dup2\n      mstore\n      0x04\n      add\n      tag_85\n      swap1\n      tag_86\n      jump\t// in\n    tag_85:\n      mload(0x40)\n      dup1\n      swap2\n      sub\n      swap1\n      revert\n    tag_84:\n        /* \"MultiSigWallet.sol\":4302:4306  _idx */\n      dup3\n        /* \"MultiSigWallet.sol\":2339:2344  false */\n      0x00\n        /* \"MultiSigWallet.sol\":2305:2344  myTransactions[_idx].completed == false */\n      iszero\n      iszero\n        /* \"MultiSigWallet.sol\":2305:2319  myTransactions */\n      0x03\n        /* \"MultiSigWallet.sol\":2320:2324  _idx */\n      dup3\n        /* \"MultiSigWallet.sol\":2305:2325  myTransactions[_idx] */\n      dup2\n      sload\n      dup2\n      lt\n      tag_88\n      jumpi\n      tag_89\n      tag_90\n      jump\t// in\n    tag_89:\n    tag_88:\n      swap1\n      0x00\n      mstore\n      keccak256(0x00, 0x20)\n      swap1\n      0x04\n      mul\n      add\n        /* \"MultiSigWallet.sol\":2305:2335  myTransactions[_idx].completed */\n      0x03\n      add\n      0x00\n      swap1\n      sload\n      swap1\n      0x0100\n      exp\n      swap1\n      div\n      0xff\n      and\n        /* \"MultiSigWallet.sol\":2305:2344  myTransactions[_idx].completed == false */\n      iszero\n      iszero\n      eq\n        /* \"MultiSigWallet.sol\":2297:2370  require(myTransactions[_idx].completed == false, \"This tx has completed\") */\n      tag_92\n      jumpi\n      mload(0x40)\n      0x08c379a000000000000000000000000000000000000000000000000000000000\n      dup2\n      mstore\n      0x04\n      add\n      tag_93\n      swap1\n      tag_94\n      jump\t// in\n    tag_93:\n      mload(0x40)\n      dup1\n      swap2\n      sub\n      swap1\n      revert\n    tag_92:\n        /* \"MultiSigWallet.sol\":4374:4378  true */\n      0x01\n        /* \"MultiSigWallet.sol\":4340:4378  approvesList[_idx][msg.sender] == true */\n      iszero\n      iszero\n        /* \"MultiSigWallet.sol\":4340:4352  approvesList */\n      0x04\n        /* \"MultiSigWallet.sol\":4340:4358  approvesList[_idx] */\n      0x00\n        /* \"MultiSigWallet.sol\":4353:4357  _idx */\n      dup7\n        /* \"MultiSigWallet.sol\":4340:4358  approvesList[_idx] */\n      dup2\n      mstore\n      0x20\n      add\n      swap1\n      dup2\n      mstore\n      0x20\n      add\n      0x00\n      keccak256\n        /* \"MultiSigWallet.sol\":4340:4370  approvesList[_idx][msg.sender] */\n      0x00\n        /* \"MultiSigWallet.sol\":4359:4369  msg.sender */\n      caller\n        /* \"MultiSigWallet.sol\":4340:4370  approvesList[_idx][msg.sender] */\n      0xffffffffffffffffffffffffffffffffffffffff\n      and\n      0xffffffffffffffffffffffffffffffffffffffff\n      and\n      dup2\n      mstore\n      0x20\n      add\n      swap1\n      dup2\n      mstore\n      0x20\n      add\n      0x00\n      keccak256\n      0x00\n      swap1\n      sload\n      swap1\n      0x0100\n      exp\n      swap1\n      div\n      0xff\n      and\n        /* \"MultiSigWallet.sol\":4340:4378  approvesList[_idx][msg.sender] == true */\n      iszero\n      iszero\n      eq\n        /* \"MultiSigWallet.sol\":4332:4410  require(approvesList[_idx][msg.sender] == true, \"You didn't approve this tx.\") */\n      tag_96\n      jumpi\n      mload(0x40)\n      0x08c379a000000000000000000000000000000000000000000000000000000000\n      dup2\n      mstore\n      0x04\n      add\n      tag_97\n      swap1\n      tag_98\n      jump\t// in\n    tag_97:\n      mload(0x40)\n      dup1\n      swap2\n      sub\n      swap1\n      revert\n    tag_96:\n        /* \"MultiSigWallet.sol\":4454:4459  false */\n      0x00\n        /* \"MultiSigWallet.sol\":4421:4433  approvesList */\n      0x04\n        /* \"MultiSigWallet.sol\":4421:4439  approvesList[_idx] */\n      0x00\n        /* \"MultiSigWallet.sol\":4434:4438  _idx */\n      dup7\n        /* \"MultiSigWallet.sol\":4421:4439  approvesList[_idx] */\n      dup2\n      mstore\n      0x20\n      add\n      swap1\n      dup2\n      mstore\n      0x20\n      add\n      0x00\n      keccak256\n        /* \"MultiSigWallet.sol\":4421:4451  approvesList[_idx][msg.sender] */\n      0x00\n        /* \"MultiSigWallet.sol\":4440:4450  msg.sender */\n      caller\n        /* \"MultiSigWallet.sol\":4421:4451  approvesList[_idx][msg.sender] */\n      0xffffffffffffffffffffffffffffffffffffffff\n      and\n      0xffffffffffffffffffffffffffffffffffffffff\n      and\n      dup2\n      mstore\n      0x20\n      add\n      swap1\n      dup2\n      mstore\n      0x20\n      add\n      0x00\n      keccak256\n      0x00\n        /* \"MultiSigWallet.sol\":4421:4459  approvesList[_idx][msg.sender] = false */\n      0x0100\n      exp\n      dup2\n      sload\n      dup2\n      0xff\n      mul\n      not\n      and\n      swap1\n      dup4\n      iszero\n      iszero\n      mul\n      or\n      swap1\n      sstore\n      pop\n        /* \"MultiSigWallet.sol\":4497:4501  _idx */\n      dup4\n        /* \"MultiSigWallet.sol\":4485:4495  msg.sender */\n      caller\n        /* \"MultiSigWallet.sol\":4476:4502  RevokeTx(msg.sender, _idx) */\n      0xffffffffffffffffffffffffffffffffffffffff\n      and\n      0xb4b3fe19795269f5d157c6f9469a0dd772aacbf45168826417750298ee9a6e93\n      mload(0x40)\n      mload(0x40)\n      dup1\n      swap2\n      sub\n      swap1\n      log3\n        /* \"MultiSigWallet.sol\":4521:4525  true */\n      0x01\n        /* \"MultiSigWallet.sol\":4514:4525  return true */\n      swap3\n      pop\n        /* \"MultiSigWallet.sol\":2074:2075  _ */\n      pop\n        /* \"MultiSigWallet.sol\":1952:1953  _ */\n      pop\n        /* \"MultiSigWallet.sol\":4226:4533  function revoke(uint _idx) external OnlyOwner txExisted(_idx) txNotExecuted(_idx) returns(bool){... */\n      swap2\n      swap1\n      pop\n      jump\t// out\n        /* \"MultiSigWallet.sol\":513:553  mapping (address => bool) public isOwner */\n    tag_39:\n      mstore(0x20, 0x01)\n      dup1\n      0x00\n      mstore\n      keccak256(0x00, 0x40)\n      0x00\n      swap2\n      pop\n      sload\n      swap1\n      0x0100\n      exp\n      swap1\n      div\n      0xff\n      and\n      dup2\n      jump\t// out\n        /* \"MultiSigWallet.sol\":923:960  MyTransaction[] public myTransactions */\n    tag_44:\n      0x03\n      dup2\n      dup2\n      sload\n      dup2\n      lt\n      tag_99\n      jumpi\n      0x00\n      dup1\n      revert\n    tag_99:\n      swap1\n      0x00\n      mstore\n      keccak256(0x00, 0x20)\n      swap1\n      0x04\n      mul\n      add\n      0x00\n      swap2\n      pop\n      swap1\n      pop\n      dup1\n      0x00\n      add\n      0x00\n      swap1\n      sload\n      swap1\n      0x0100\n      exp\n      swap1\n      div\n      0xffffffffffffffffffffffffffffffffffffffff\n      and\n      swap1\n      dup1\n      0x01\n      add\n      sload\n      swap1\n      dup1\n      0x02\n      add\n      dup1\n      sload\n      tag_101\n      swap1\n      tag_102\n      jump\t// in\n    tag_101:\n      dup1\n      0x1f\n      add\n      0x20\n      dup1\n      swap2\n      div\n      mul\n      0x20\n      add\n      mload(0x40)\n      swap1\n      dup2\n      add\n      0x40\n      mstore\n      dup1\n      swap3\n      swap2\n      swap1\n      dup2\n      dup2\n      mstore\n      0x20\n      add\n      dup3\n      dup1\n      sload\n      tag_103\n      swap1\n      tag_102\n      jump\t// in\n    tag_103:\n      dup1\n      iszero\n      tag_104\n      jumpi\n      dup1\n      0x1f\n      lt\n      tag_105\n      jumpi\n      0x0100\n      dup1\n      dup4\n      sload\n      div\n      mul\n      dup4\n      mstore\n      swap2\n      0x20\n      add\n      swap2\n      jump(tag_104)\n    tag_105:\n      dup3\n      add\n      swap2\n      swap1\n      0x00\n      mstore\n      keccak256(0x00, 0x20)\n      swap1\n    tag_106:\n      dup2\n      sload\n      dup2\n      mstore\n      swap1\n      0x01\n      add\n      swap1\n      0x20\n      add\n      dup1\n      dup4\n      gt\n      tag_106\n      jumpi\n      dup3\n      swap1\n      sub\n      0x1f\n      and\n      dup3\n      add\n      swap2\n    tag_104:\n      pop\n      pop\n      pop\n      pop\n      pop\n      swap1\n      dup1\n      0x03\n      add\n      0x00\n      swap1\n      sload\n      swap1\n      0x0100\n      exp\n      swap1\n      div\n      0xff\n      and\n      swap1\n      pop\n      dup5\n      jump\t// out\n        /* \"MultiSigWallet.sol\":3438:3747  function approve(uint _idx) ... */\n    tag_50:\n        /* \"MultiSigWallet.sol\":3609:3613  bool */\n      0x00\n        /* \"MultiSigWallet.sol\":1897:1917  _isOwner(msg.sender) */\n      tag_108\n        /* \"MultiSigWallet.sol\":1906:1916  msg.sender */\n      caller\n        /* \"MultiSigWallet.sol\":1897:1905  _isOwner */\n      tag_65\n        /* \"MultiSigWallet.sol\":1897:1917  _isOwner(msg.sender) */\n      jump\t// in\n    tag_108:\n        /* \"MultiSigWallet.sol\":1889:1941  require(_isOwner(msg.sender), \"Only owner allowed.\") */\n      tag_109\n      jumpi\n      mload(0x40)\n      0x08c379a000000000000000000000000000000000000000000000000000000000\n      dup2\n      mstore\n      0x04\n      add\n      tag_110\n      swap1\n      tag_68\n      jump\t// in\n    tag_110:\n      mload(0x40)\n      dup1\n      swap2\n      sub\n      swap1\n      revert\n    tag_109:\n        /* \"MultiSigWallet.sol\":3525:3529  _idx */\n      dup2\n        /* \"MultiSigWallet.sol\":2015:2033  _isTxExisted(_idx) */\n      tag_112\n        /* \"MultiSigWallet.sol\":2028:2032  _idx */\n      dup2\n        /* \"MultiSigWallet.sol\":2015:2027  _isTxExisted */\n      tag_83\n        /* \"MultiSigWallet.sol\":2015:2033  _isTxExisted(_idx) */\n      jump\t// in\n    tag_112:\n        /* \"MultiSigWallet.sol\":2007:2063  require(_isTxExisted(_idx), \"The tx index out of range\") */\n      tag_113\n      jumpi\n      mload(0x40)\n      0x08c379a000000000000000000000000000000000000000000000000000000000\n      dup2\n      mstore\n      0x04\n      add\n      tag_114\n      swap1\n      tag_86\n      jump\t// in\n    tag_114:\n      mload(0x40)\n      dup1\n      swap2\n      sub\n      swap1\n      revert\n    tag_113:\n        /* \"MultiSigWallet.sol\":3555:3559  _idx */\n      dup3\n        /* \"MultiSigWallet.sol\":2175:2180  false */\n      0x00\n        /* \"MultiSigWallet.sol\":2141:2180  approvesList[_idx][msg.sender] == false */\n      iszero\n      iszero\n        /* \"MultiSigWallet.sol\":2141:2153  approvesList */\n      0x04\n        /* \"MultiSigWallet.sol\":2141:2159  approvesList[_idx] */\n      0x00\n        /* \"MultiSigWallet.sol\":2154:2158  _idx */\n      dup4\n        /* \"MultiSigWallet.sol\":2141:2159  approvesList[_idx] */\n      dup2\n      mstore\n      0x20\n      add\n      swap1\n      dup2\n      mstore\n      0x20\n      add\n      0x00\n      keccak256\n        /* \"MultiSigWallet.sol\":2141:2171  approvesList[_idx][msg.sender] */\n      0x00\n        /* \"MultiSigWallet.sol\":2160:2170  msg.sender */\n      caller\n        /* \"MultiSigWallet.sol\":2141:2171  approvesList[_idx][msg.sender] */\n      0xffffffffffffffffffffffffffffffffffffffff\n      and\n      0xffffffffffffffffffffffffffffffffffffffff\n      and\n      dup2\n      mstore\n      0x20\n      add\n      swap1\n      dup2\n      mstore\n      0x20\n      add\n      0x00\n      keccak256\n      0x00\n      swap1\n      sload\n      swap1\n      0x0100\n      exp\n      swap1\n      div\n      0xff\n      and\n        /* \"MultiSigWallet.sol\":2141:2180  approvesList[_idx][msg.sender] == false */\n      iszero\n      iszero\n      eq\n        /* \"MultiSigWallet.sol\":2133:2227  require(approvesList[_idx][msg.sender] == false, \"You have already approved this transction.\") */\n      tag_116\n      jumpi\n      mload(0x40)\n      0x08c379a000000000000000000000000000000000000000000000000000000000\n      dup2\n      mstore\n      0x04\n      add\n      tag_117\n      swap1\n      tag_118\n      jump\t// in\n    tag_117:\n      mload(0x40)\n      dup1\n      swap2\n      sub\n      swap1\n      revert\n    tag_116:\n        /* \"MultiSigWallet.sol\":3585:3589  _idx */\n      dup4\n        /* \"MultiSigWallet.sol\":2339:2344  false */\n      0x00\n        /* \"MultiSigWallet.sol\":2305:2344  myTransactions[_idx].completed == false */\n      iszero\n      iszero\n        /* \"MultiSigWallet.sol\":2305:2319  myTransactions */\n      0x03\n        /* \"MultiSigWallet.sol\":2320:2324  _idx */\n      dup3\n        /* \"MultiSigWallet.sol\":2305:2325  myTransactions[_idx] */\n      dup2\n      sload\n      dup2\n      lt\n      tag_120\n      jumpi\n      tag_121\n      tag_90\n      jump\t// in\n    tag_121:\n    tag_120:\n      swap1\n      0x00\n      mstore\n      keccak256(0x00, 0x20)\n      swap1\n      0x04\n      mul\n      add\n        /* \"MultiSigWallet.sol\":2305:2335  myTransactions[_idx].completed */\n      0x03\n      add\n      0x00\n      swap1\n      sload\n      swap1\n      0x0100\n      exp\n      swap1\n      div\n      0xff\n      and\n        /* \"MultiSigWallet.sol\":2305:2344  myTransactions[_idx].completed == false */\n      iszero\n      iszero\n      eq\n        /* \"MultiSigWallet.sol\":2297:2370  require(myTransactions[_idx].completed == false, \"This tx has completed\") */\n      tag_123\n      jumpi\n      mload(0x40)\n      0x08c379a000000000000000000000000000000000000000000000000000000000\n      dup2\n      mstore\n      0x04\n      add\n      tag_124\n      swap1\n      tag_94\n      jump\t// in\n    tag_124:\n      mload(0x40)\n      dup1\n      swap2\n      sub\n      swap1\n      revert\n    tag_123:\n        /* \"MultiSigWallet.sol\":3662:3666  true */\n      0x01\n        /* \"MultiSigWallet.sol\":3629:3641  approvesList */\n      0x04\n        /* \"MultiSigWallet.sol\":3629:3647  approvesList[_idx] */\n      0x00\n        /* \"MultiSigWallet.sol\":3642:3646  _idx */\n      dup8\n        /* \"MultiSigWallet.sol\":3629:3647  approvesList[_idx] */\n      dup2\n      mstore\n      0x20\n      add\n      swap1\n      dup2\n      mstore\n      0x20\n      add\n      0x00\n      keccak256\n        /* \"MultiSigWallet.sol\":3629:3659  approvesList[_idx][msg.sender] */\n      0x00\n        /* \"MultiSigWallet.sol\":3648:3658  msg.sender */\n      caller\n        /* \"MultiSigWallet.sol\":3629:3659  approvesList[_idx][msg.sender] */\n      0xffffffffffffffffffffffffffffffffffffffff\n      and\n      0xffffffffffffffffffffffffffffffffffffffff\n      and\n      dup2\n      mstore\n      0x20\n      add\n      swap1\n      dup2\n      mstore\n      0x20\n      add\n      0x00\n      keccak256\n      0x00\n        /* \"MultiSigWallet.sol\":3629:3666  approvesList[_idx][msg.sender] = true */\n      0x0100\n      exp\n      dup2\n      sload\n      dup2\n      0xff\n      mul\n      not\n      and\n      swap1\n      dup4\n      iszero\n      iszero\n      mul\n      or\n      swap1\n      sstore\n      pop\n        /* \"MultiSigWallet.sol\":3708:3712  _idx */\n      dup5\n        /* \"MultiSigWallet.sol\":3696:3706  msg.sender */\n      caller\n        /* \"MultiSigWallet.sol\":3686:3713  ApproveTx(msg.sender, _idx) */\n      0xffffffffffffffffffffffffffffffffffffffff\n      and\n      0x945242f7e1728d98aaa75300f98846a7cd4a996e7a22a4e23963ffaf0210e64e\n      mload(0x40)\n      mload(0x40)\n      dup1\n      swap2\n      sub\n      swap1\n      log3\n        /* \"MultiSigWallet.sol\":3735:3739  true */\n      0x01\n        /* \"MultiSigWallet.sol\":3728:3739  return true */\n      swap4\n      pop\n        /* \"MultiSigWallet.sol\":2238:2239  _ */\n      pop\n        /* \"MultiSigWallet.sol\":2074:2075  _ */\n      pop\n        /* \"MultiSigWallet.sol\":1952:1953  _ */\n      pop\n        /* \"MultiSigWallet.sol\":3438:3747  function approve(uint _idx) ... */\n      swap2\n      swap1\n      pop\n      jump\t// out\n        /* \"MultiSigWallet.sol\":632:652  uint public required */\n    tag_54:\n      sload(0x02)\n      dup2\n      jump\t// out\n        /* \"MultiSigWallet.sol\":3755:4218  function execute(uint _idx) external  txExisted(_idx) txNotExecuted(_idx) returns(bool){... */\n    tag_59:\n        /* \"MultiSigWallet.sol\":3837:3841  bool */\n      0x00\n        /* \"MultiSigWallet.sol\":3803:3807  _idx */\n      dup2\n        /* \"MultiSigWallet.sol\":2015:2033  _isTxExisted(_idx) */\n      tag_127\n        /* \"MultiSigWallet.sol\":2028:2032  _idx */\n      dup2\n        /* \"MultiSigWallet.sol\":2015:2027  _isTxExisted */\n      tag_83\n        /* \"MultiSigWallet.sol\":2015:2033  _isTxExisted(_idx) */\n      jump\t// in\n    tag_127:\n        /* \"MultiSigWallet.sol\":2007:2063  require(_isTxExisted(_idx), \"The tx index out of range\") */\n      tag_128\n      jumpi\n      mload(0x40)\n      0x08c379a000000000000000000000000000000000000000000000000000000000\n      dup2\n      mstore\n      0x04\n      add\n      tag_129\n      swap1\n      tag_86\n      jump\t// in\n    tag_129:\n      mload(0x40)\n      dup1\n      swap2\n      sub\n      swap1\n      revert\n    tag_128:\n        /* \"MultiSigWallet.sol\":3823:3827  _idx */\n      dup3\n        /* \"MultiSigWallet.sol\":2339:2344  false */\n      0x00\n        /* \"MultiSigWallet.sol\":2305:2344  myTransactions[_idx].completed == false */\n      iszero\n      iszero\n        /* \"MultiSigWallet.sol\":2305:2319  myTransactions */\n      0x03\n        /* \"MultiSigWallet.sol\":2320:2324  _idx */\n      dup3\n        /* \"MultiSigWallet.sol\":2305:2325  myTransactions[_idx] */\n      dup2\n      sload\n      dup2\n      lt\n      tag_131\n      jumpi\n      tag_132\n      tag_90\n      jump\t// in\n    tag_132:\n    tag_131:\n      swap1\n      0x00\n      mstore\n      keccak256(0x00, 0x20)\n      swap1\n      0x04\n      mul\n      add\n        /* \"MultiSigWallet.sol\":2305:2335  myTransactions[_idx].completed */\n      0x03\n      add\n      0x00\n      swap1\n      sload\n      swap1\n      0x0100\n      exp\n      swap1\n      div\n      0xff\n      and\n        /* \"MultiSigWallet.sol\":2305:2344  myTransactions[_idx].completed == false */\n      iszero\n      iszero\n      eq\n        /* \"MultiSigWallet.sol\":2297:2370  require(myTransactions[_idx].completed == false, \"This tx has completed\") */\n      tag_134\n      jumpi\n      mload(0x40)\n      0x08c379a000000000000000000000000000000000000000000000000000000000\n      dup2\n      mstore\n      0x04\n      add\n      tag_135\n      swap1\n      tag_94\n      jump\t// in\n    tag_135:\n      mload(0x40)\n      dup1\n      swap2\n      sub\n      swap1\n      revert\n    tag_134:\n        /* \"MultiSigWallet.sol\":3861:3878  _isApproved(_idx) */\n      tag_137\n        /* \"MultiSigWallet.sol\":3873:3877  _idx */\n      dup5\n        /* \"MultiSigWallet.sol\":3861:3872  _isApproved */\n      tag_138\n        /* \"MultiSigWallet.sol\":3861:3878  _isApproved(_idx) */\n      jump\t// in\n    tag_137:\n        /* \"MultiSigWallet.sol\":3853:3918  require(_isApproved(_idx),\"This txIndex needs more approbations\") */\n      tag_139\n      jumpi\n      mload(0x40)\n      0x08c379a000000000000000000000000000000000000000000000000000000000\n      dup2\n      mstore\n      0x04\n      add\n      tag_140\n      swap1\n      tag_141\n      jump\t// in\n    tag_140:\n      mload(0x40)\n      dup1\n      swap2\n      sub\n      swap1\n      revert\n    tag_139:\n        /* \"MultiSigWallet.sol\":3929:3956  MyTransaction storage tmpTx */\n      0x00\n        /* \"MultiSigWallet.sol\":3959:3973  myTransactions */\n      0x03\n        /* \"MultiSigWallet.sol\":3974:3978  _idx */\n      dup6\n        /* \"MultiSigWallet.sol\":3959:3979  myTransactions[_idx] */\n      dup2\n      sload\n      dup2\n      lt\n      tag_142\n      jumpi\n      tag_143\n      tag_90\n      jump\t// in\n    tag_143:\n    tag_142:\n      swap1\n      0x00\n      mstore\n      keccak256(0x00, 0x20)\n      swap1\n      0x04\n      mul\n      add\n        /* \"MultiSigWallet.sol\":3929:3979  MyTransaction storage tmpTx = myTransactions[_idx] */\n      swap1\n      pop\n        /* \"MultiSigWallet.sol\":4008:4012  true */\n      0x01\n        /* \"MultiSigWallet.sol\":3990:3995  tmpTx */\n      dup2\n        /* \"MultiSigWallet.sol\":3990:4005  tmpTx.completed */\n      0x03\n      add\n      0x00\n        /* \"MultiSigWallet.sol\":3990:4012  tmpTx.completed = true */\n      0x0100\n      exp\n      dup2\n      sload\n      dup2\n      0xff\n      mul\n      not\n      and\n      swap1\n      dup4\n      iszero\n      iszero\n      mul\n      or\n      swap1\n      sstore\n      pop\n        /* \"MultiSigWallet.sol\":4024:4036  bool success */\n      0x00\n        /* \"MultiSigWallet.sol\":4041:4046  tmpTx */\n      dup2\n        /* \"MultiSigWallet.sol\":4041:4049  tmpTx.to */\n      0x00\n      add\n      0x00\n      swap1\n      sload\n      swap1\n      0x0100\n      exp\n      swap1\n      div\n      0xffffffffffffffffffffffffffffffffffffffff\n      and\n        /* \"MultiSigWallet.sol\":4041:4054  tmpTx.to.call */\n      0xffffffffffffffffffffffffffffffffffffffff\n      and\n        /* \"MultiSigWallet.sol\":4063:4068  tmpTx */\n      dup3\n        /* \"MultiSigWallet.sol\":4063:4075  tmpTx.amount */\n      0x01\n      add\n      sload\n        /* \"MultiSigWallet.sol\":4077:4082  tmpTx */\n      dup4\n        /* \"MultiSigWallet.sol\":4077:4089  tmpTx.txdata */\n      0x02\n      add\n        /* \"MultiSigWallet.sol\":4041:4090  tmpTx.to.call{value : tmpTx.amount}(tmpTx.txdata) */\n      mload(0x40)\n      tag_145\n      swap2\n      swap1\n      tag_146\n      jump\t// in\n    tag_145:\n      0x00\n      mload(0x40)\n      dup1\n      dup4\n      sub\n      dup2\n      dup6\n      dup8\n      gas\n      call\n      swap3\n      pop\n      pop\n      pop\n      returndatasize\n      dup1\n      0x00\n      dup2\n      eq\n      tag_149\n      jumpi\n      mload(0x40)\n      swap2\n      pop\n      and(add(returndatasize, 0x3f), not(0x1f))\n      dup3\n      add\n      0x40\n      mstore\n      returndatasize\n      dup3\n      mstore\n      returndatasize\n      0x00\n      0x20\n      dup5\n      add\n      returndatacopy\n      jump(tag_148)\n    tag_149:\n      0x60\n      swap2\n      pop\n    tag_148:\n      pop\n        /* \"MultiSigWallet.sol\":4023:4090  (bool success,) = tmpTx.to.call{value : tmpTx.amount}(tmpTx.txdata) */\n      pop\n      swap1\n      pop\n        /* \"MultiSigWallet.sol\":4109:4116  success */\n      dup1\n        /* \"MultiSigWallet.sol\":4101:4145  require(success, \"execute transaction fail\") */\n      tag_150\n      jumpi\n      mload(0x40)\n      0x08c379a000000000000000000000000000000000000000000000000000000000\n      dup2\n      mstore\n      0x04\n      add\n      tag_151\n      swap1\n      tag_152\n      jump\t// in\n    tag_151:\n      mload(0x40)\n      dup1\n      swap2\n      sub\n      swap1\n      revert\n    tag_150:\n        /* \"MultiSigWallet.sol\":4183:4187  _idx */\n      dup6\n        /* \"MultiSigWallet.sol\":4171:4181  msg.sender */\n      caller\n        /* \"MultiSigWallet.sol\":4161:4188  ExecuteTx(msg.sender, _idx) */\n      0xffffffffffffffffffffffffffffffffffffffff\n      and\n      0x39bf31f4588071daaa9c395053bda7fb7fab807ac7e3d18f77dc5a6322423eba\n      mload(0x40)\n      mload(0x40)\n      dup1\n      swap2\n      sub\n      swap1\n      log3\n        /* \"MultiSigWallet.sol\":4206:4210  true */\n      0x01\n        /* \"MultiSigWallet.sol\":4199:4210  return true */\n      swap5\n      pop\n      pop\n      pop\n        /* \"MultiSigWallet.sol\":2074:2075  _ */\n      pop\n        /* \"MultiSigWallet.sol\":3755:4218  function execute(uint _idx) external  txExisted(_idx) txNotExecuted(_idx) returns(bool){... */\n      pop\n      swap2\n      swap1\n      pop\n      jump\t// out\n        /* \"MultiSigWallet.sol\":2402:2503  function _isOwner(address _addr) internal view returns(bool) {... */\n    tag_65:\n        /* \"MultiSigWallet.sol\":2457:2461  bool */\n      0x00\n        /* \"MultiSigWallet.sol\":2481:2488  isOwner */\n      0x01\n        /* \"MultiSigWallet.sol\":2481:2495  isOwner[_addr] */\n      0x00\n        /* \"MultiSigWallet.sol\":2489:2494  _addr */\n      dup4\n        /* \"MultiSigWallet.sol\":2481:2495  isOwner[_addr] */\n      0xffffffffffffffffffffffffffffffffffffffff\n      and\n      0xffffffffffffffffffffffffffffffffffffffff\n      and\n      dup2\n      mstore\n      0x20\n      add\n      swap1\n      dup2\n      mstore\n      0x20\n      add\n      0x00\n      keccak256\n      0x00\n      swap1\n      sload\n      swap1\n      0x0100\n      exp\n      swap1\n      div\n      0xff\n      and\n        /* \"MultiSigWallet.sol\":2474:2495  return isOwner[_addr] */\n      swap1\n      pop\n        /* \"MultiSigWallet.sol\":2402:2503  function _isOwner(address _addr) internal view returns(bool) {... */\n      swap2\n      swap1\n      pop\n      jump\t// out\n        /* \"MultiSigWallet.sol\":2509:2623  function _isTxExisted(uint _idx) internal view returns(bool){... */\n    tag_83:\n        /* \"MultiSigWallet.sol\":2564:2568  bool */\n      0x00\n        /* \"MultiSigWallet.sol\":2594:2608  myTransactions */\n      0x03\n        /* \"MultiSigWallet.sol\":2594:2615  myTransactions.length */\n      dup1\n      sload\n      swap1\n      pop\n        /* \"MultiSigWallet.sol\":2587:2591  _idx */\n      dup3\n        /* \"MultiSigWallet.sol\":2587:2615  _idx < myTransactions.length */\n      lt\n        /* \"MultiSigWallet.sol\":2580:2615  return _idx < myTransactions.length */\n      swap1\n      pop\n        /* \"MultiSigWallet.sol\":2509:2623  function _isTxExisted(uint _idx) internal view returns(bool){... */\n      swap2\n      swap1\n      pop\n      jump\t// out\n        /* \"MultiSigWallet.sol\":2629:2969  function _isApproved(uint _idx) internal view returns(bool){... */\n    tag_138:\n        /* \"MultiSigWallet.sol\":2683:2687  bool */\n      0x00\n        /* \"MultiSigWallet.sol\":2699:2712  uint ownerNum */\n      dup1\n        /* \"MultiSigWallet.sol\":2715:2721  owners */\n      0x00\n        /* \"MultiSigWallet.sol\":2715:2728  owners.length */\n      dup1\n      sload\n      swap1\n      pop\n        /* \"MultiSigWallet.sol\":2699:2728  uint ownerNum = owners.length */\n      swap1\n      pop\n        /* \"MultiSigWallet.sol\":2739:2755  uint approvedNum */\n      0x00\n        /* \"MultiSigWallet.sol\":2775:2781  uint i */\n      dup1\n        /* \"MultiSigWallet.sol\":2770:2921  for (uint i = 0; i < ownerNum; ++i){... */\n    tag_156:\n        /* \"MultiSigWallet.sol\":2791:2799  ownerNum */\n      dup3\n        /* \"MultiSigWallet.sol\":2787:2788  i */\n      dup2\n        /* \"MultiSigWallet.sol\":2787:2799  i < ownerNum */\n      lt\n        /* \"MultiSigWallet.sol\":2770:2921  for (uint i = 0; i < ownerNum; ++i){... */\n      iszero\n      tag_157\n      jumpi\n        /* \"MultiSigWallet.sol\":2857:2861  true */\n      0x01\n        /* \"MultiSigWallet.sol\":2824:2861  approvesList[_idx][owners[i]] == true */\n      iszero\n      iszero\n        /* \"MultiSigWallet.sol\":2824:2836  approvesList */\n      0x04\n        /* \"MultiSigWallet.sol\":2824:2842  approvesList[_idx] */\n      0x00\n        /* \"MultiSigWallet.sol\":2837:2841  _idx */\n      dup8\n        /* \"MultiSigWallet.sol\":2824:2842  approvesList[_idx] */\n      dup2\n      mstore\n      0x20\n      add\n      swap1\n      dup2\n      mstore\n      0x20\n      add\n      0x00\n      keccak256\n        /* \"MultiSigWallet.sol\":2824:2853  approvesList[_idx][owners[i]] */\n      0x00\n        /* \"MultiSigWallet.sol\":2843:2849  owners */\n      dup1\n        /* \"MultiSigWallet.sol\":2850:2851  i */\n      dup5\n        /* \"MultiSigWallet.sol\":2843:2852  owners[i] */\n      dup2\n      sload\n      dup2\n      lt\n      tag_159\n      jumpi\n      tag_160\n      tag_90\n      jump\t// in\n    tag_160:\n    tag_159:\n      swap1\n      0x00\n      mstore\n      keccak256(0x00, 0x20)\n      add\n      0x00\n      swap1\n      sload\n      swap1\n      0x0100\n      exp\n      swap1\n      div\n      0xffffffffffffffffffffffffffffffffffffffff\n      and\n        /* \"MultiSigWallet.sol\":2824:2853  approvesList[_idx][owners[i]] */\n      0xffffffffffffffffffffffffffffffffffffffff\n      and\n      0xffffffffffffffffffffffffffffffffffffffff\n      and\n      dup2\n      mstore\n      0x20\n      add\n      swap1\n      dup2\n      mstore\n      0x20\n      add\n      0x00\n      keccak256\n      0x00\n      swap1\n      sload\n      swap1\n      0x0100\n      exp\n      swap1\n      div\n      0xff\n      and\n        /* \"MultiSigWallet.sol\":2824:2861  approvesList[_idx][owners[i]] == true */\n      iszero\n      iszero\n      sub\n        /* \"MultiSigWallet.sol\":2820:2910  if (approvesList[_idx][owners[i]] == true){... */\n      tag_162\n      jumpi\n        /* \"MultiSigWallet.sol\":2881:2894  approvedNum++ */\n      dup2\n      dup1\n      tag_163\n      swap1\n      tag_164\n      jump\t// in\n    tag_163:\n      swap3\n      pop\n      pop\n        /* \"MultiSigWallet.sol\":2820:2910  if (approvesList[_idx][owners[i]] == true){... */\n    tag_162:\n        /* \"MultiSigWallet.sol\":2801:2804  ++i */\n      dup1\n      0x01\n      add\n      swap1\n      pop\n        /* \"MultiSigWallet.sol\":2770:2921  for (uint i = 0; i < ownerNum; ++i){... */\n      jump(tag_156)\n    tag_157:\n      pop\n        /* \"MultiSigWallet.sol\":2953:2961  required */\n      sload(0x02)\n        /* \"MultiSigWallet.sol\":2938:2949  approvedNum */\n      dup2\n        /* \"MultiSigWallet.sol\":2938:2961  approvedNum >= required */\n      lt\n      iszero\n        /* \"MultiSigWallet.sol\":2931:2961  return approvedNum >= required */\n      swap3\n      pop\n      pop\n      pop\n        /* \"MultiSigWallet.sol\":2629:2969  function _isApproved(uint _idx) internal view returns(bool){... */\n      swap2\n      swap1\n      pop\n      jump\t// out\n        /* \"#utility.yul\":7:84   */\n    tag_165:\n        /* \"#utility.yul\":44:51   */\n      0x00\n        /* \"#utility.yul\":73:78   */\n      dup2\n        /* \"#utility.yul\":62:78   */\n      swap1\n      pop\n        /* \"#utility.yul\":7:84   */\n      swap2\n      swap1\n      pop\n      jump\t// out\n        /* \"#utility.yul\":90:208   */\n    tag_166:\n        /* \"#utility.yul\":177:201   */\n      tag_228\n        /* \"#utility.yul\":195:200   */\n      dup2\n        /* \"#utility.yul\":177:201   */\n      tag_165\n      jump\t// in\n    tag_228:\n        /* \"#utility.yul\":172:175   */\n      dup3\n        /* \"#utility.yul\":165:202   */\n      mstore\n        /* \"#utility.yul\":90:208   */\n      pop\n      pop\n      jump\t// out\n        /* \"#utility.yul\":214:436   */\n    tag_15:\n        /* \"#utility.yul\":307:311   */\n      0x00\n        /* \"#utility.yul\":345:347   */\n      0x20\n        /* \"#utility.yul\":334:343   */\n      dup3\n        /* \"#utility.yul\":330:348   */\n      add\n        /* \"#utility.yul\":322:348   */\n      swap1\n      pop\n        /* \"#utility.yul\":358:429   */\n      tag_230\n        /* \"#utility.yul\":426:427   */\n      0x00\n        /* \"#utility.yul\":415:424   */\n      dup4\n        /* \"#utility.yul\":411:428   */\n      add\n        /* \"#utility.yul\":402:408   */\n      dup5\n        /* \"#utility.yul\":358:429   */\n      tag_166\n      jump\t// in\n    tag_230:\n        /* \"#utility.yul\":214:436   */\n      swap3\n      swap2\n      pop\n      pop\n      jump\t// out\n        /* \"#utility.yul\":523:640   */\n    tag_168:\n        /* \"#utility.yul\":632:633   */\n      0x00\n        /* \"#utility.yul\":629:630   */\n      dup1\n        /* \"#utility.yul\":622:634   */\n      revert\n        /* \"#utility.yul\":646:763   */\n    tag_169:\n        /* \"#utility.yul\":755:756   */\n      0x00\n        /* \"#utility.yul\":752:753   */\n      dup1\n        /* \"#utility.yul\":745:757   */\n      revert\n        /* \"#utility.yul\":769:891   */\n    tag_170:\n        /* \"#utility.yul\":842:866   */\n      tag_235\n        /* \"#utility.yul\":860:865   */\n      dup2\n        /* \"#utility.yul\":842:866   */\n      tag_165\n      jump\t// in\n    tag_235:\n        /* \"#utility.yul\":835:840   */\n      dup2\n        /* \"#utility.yul\":832:867   */\n      eq\n        /* \"#utility.yul\":822:885   */\n      tag_236\n      jumpi\n        /* \"#utility.yul\":881:882   */\n      0x00\n        /* \"#utility.yul\":878:879   */\n      dup1\n        /* \"#utility.yul\":871:883   */\n      revert\n        /* \"#utility.yul\":822:885   */\n    tag_236:\n        /* \"#utility.yul\":769:891   */\n      pop\n      jump\t// out\n        /* \"#utility.yul\":897:1036   */\n    tag_171:\n        /* \"#utility.yul\":943:948   */\n      0x00\n        /* \"#utility.yul\":981:987   */\n      dup2\n        /* \"#utility.yul\":968:988   */\n      calldataload\n        /* \"#utility.yul\":959:988   */\n      swap1\n      pop\n        /* \"#utility.yul\":997:1030   */\n      tag_238\n        /* \"#utility.yul\":1024:1029   */\n      dup2\n        /* \"#utility.yul\":997:1030   */\n      tag_170\n      jump\t// in\n    tag_238:\n        /* \"#utility.yul\":897:1036   */\n      swap3\n      swap2\n      pop\n      pop\n      jump\t// out\n        /* \"#utility.yul\":1042:1371   */\n    tag_19:\n        /* \"#utility.yul\":1101:1107   */\n      0x00\n        /* \"#utility.yul\":1150:1152   */\n      0x20\n        /* \"#utility.yul\":1138:1147   */\n      dup3\n        /* \"#utility.yul\":1129:1136   */\n      dup5\n        /* \"#utility.yul\":1125:1148   */\n      sub\n        /* \"#utility.yul\":1121:1153   */\n      slt\n        /* \"#utility.yul\":1118:1237   */\n      iszero\n      tag_240\n      jumpi\n        /* \"#utility.yul\":1156:1235   */\n      tag_241\n      tag_168\n      jump\t// in\n    tag_241:\n        /* \"#utility.yul\":1118:1237   */\n    tag_240:\n        /* \"#utility.yul\":1276:1277   */\n      0x00\n        /* \"#utility.yul\":1301:1354   */\n      tag_242\n        /* \"#utility.yul\":1346:1353   */\n      dup5\n        /* \"#utility.yul\":1337:1343   */\n      dup3\n        /* \"#utility.yul\":1326:1335   */\n      dup6\n        /* \"#utility.yul\":1322:1344   */\n      add\n        /* \"#utility.yul\":1301:1354   */\n      tag_171\n      jump\t// in\n    tag_242:\n        /* \"#utility.yul\":1291:1354   */\n      swap2\n      pop\n        /* \"#utility.yul\":1247:1364   */\n      pop\n        /* \"#utility.yul\":1042:1371   */\n      swap3\n      swap2\n      pop\n      pop\n      jump\t// out\n        /* \"#utility.yul\":1377:1503   */\n    tag_172:\n        /* \"#utility.yul\":1414:1421   */\n      0x00\n        /* \"#utility.yul\":1454:1496   */\n      0xffffffffffffffffffffffffffffffffffffffff\n        /* \"#utility.yul\":1447:1452   */\n      dup3\n        /* \"#utility.yul\":1443:1497   */\n      and\n        /* \"#utility.yul\":1432:1497   */\n      swap1\n      pop\n        /* \"#utility.yul\":1377:1503   */\n      swap2\n      swap1\n      pop\n      jump\t// out\n        /* \"#utility.yul\":1509:1605   */\n    tag_173:\n        /* \"#utility.yul\":1546:1553   */\n      0x00\n        /* \"#utility.yul\":1575:1599   */\n      tag_245\n        /* \"#utility.yul\":1593:1598   */\n      dup3\n        /* \"#utility.yul\":1575:1599   */\n      tag_172\n      jump\t// in\n    tag_245:\n        /* \"#utility.yul\":1564:1599   */\n      swap1\n      pop\n        /* \"#utility.yul\":1509:1605   */\n      swap2\n      swap1\n      pop\n      jump\t// out\n        /* \"#utility.yul\":1611:1729   */\n    tag_174:\n        /* \"#utility.yul\":1698:1722   */\n      tag_247\n        /* \"#utility.yul\":1716:1721   */\n      dup2\n        /* \"#utility.yul\":1698:1722   */\n      tag_173\n      jump\t// in\n    tag_247:\n        /* \"#utility.yul\":1693:1696   */\n      dup3\n        /* \"#utility.yul\":1686:1723   */\n      mstore\n        /* \"#utility.yul\":1611:1729   */\n      pop\n      pop\n      jump\t// out\n        /* \"#utility.yul\":1735:1957   */\n    tag_22:\n        /* \"#utility.yul\":1828:1832   */\n      0x00\n        /* \"#utility.yul\":1866:1868   */\n      0x20\n        /* \"#utility.yul\":1855:1864   */\n      dup3\n        /* \"#utility.yul\":1851:1869   */\n      add\n        /* \"#utility.yul\":1843:1869   */\n      swap1\n      pop\n        /* \"#utility.yul\":1879:1950   */\n      tag_249\n        /* \"#utility.yul\":1947:1948   */\n      0x00\n        /* \"#utility.yul\":1936:1945   */\n      dup4\n        /* \"#utility.yul\":1932:1949   */\n      add\n        /* \"#utility.yul\":1923:1929   */\n      dup5\n        /* \"#utility.yul\":1879:1950   */\n      tag_174\n      jump\t// in\n    tag_249:\n        /* \"#utility.yul\":1735:1957   */\n      swap3\n      swap2\n      pop\n      pop\n      jump\t// out\n        /* \"#utility.yul\":1963:2085   */\n    tag_175:\n        /* \"#utility.yul\":2036:2060   */\n      tag_251\n        /* \"#utility.yul\":2054:2059   */\n      dup2\n        /* \"#utility.yul\":2036:2060   */\n      tag_173\n      jump\t// in\n    tag_251:\n        /* \"#utility.yul\":2029:2034   */\n      dup2\n        /* \"#utility.yul\":2026:2061   */\n      eq\n        /* \"#utility.yul\":2016:2079   */\n      tag_252\n      jumpi\n        /* \"#utility.yul\":2075:2076   */\n      0x00\n        /* \"#utility.yul\":2072:2073   */\n      dup1\n        /* \"#utility.yul\":2065:2077   */\n      revert\n        /* \"#utility.yul\":2016:2079   */\n    tag_252:\n        /* \"#utility.yul\":1963:2085   */\n      pop\n      jump\t// out\n        /* \"#utility.yul\":2091:2230   */\n    tag_176:\n        /* \"#utility.yul\":2137:2142   */\n      0x00\n        /* \"#utility.yul\":2175:2181   */\n      dup2\n        /* \"#utility.yul\":2162:2182   */\n      calldataload\n        /* \"#utility.yul\":2153:2182   */\n      swap1\n      pop\n        /* \"#utility.yul\":2191:2224   */\n      tag_254\n        /* \"#utility.yul\":2218:2223   */\n      dup2\n        /* \"#utility.yul\":2191:2224   */\n      tag_175\n      jump\t// in\n    tag_254:\n        /* \"#utility.yul\":2091:2230   */\n      swap3\n      swap2\n      pop\n      pop\n      jump\t// out\n        /* \"#utility.yul\":2236:2353   */\n    tag_177:\n        /* \"#utility.yul\":2345:2346   */\n      0x00\n        /* \"#utility.yul\":2342:2343   */\n      dup1\n        /* \"#utility.yul\":2335:2347   */\n      revert\n        /* \"#utility.yul\":2359:2476   */\n    tag_178:\n        /* \"#utility.yul\":2468:2469   */\n      0x00\n        /* \"#utility.yul\":2465:2466   */\n      dup1\n        /* \"#utility.yul\":2458:2470   */\n      revert\n        /* \"#utility.yul\":2482:2599   */\n    tag_179:\n        /* \"#utility.yul\":2591:2592   */\n      0x00\n        /* \"#utility.yul\":2588:2589   */\n      dup1\n        /* \"#utility.yul\":2581:2593   */\n      revert\n        /* \"#utility.yul\":2618:3170   */\n    tag_180:\n        /* \"#utility.yul\":2675:2683   */\n      0x00\n        /* \"#utility.yul\":2685:2691   */\n      dup1\n        /* \"#utility.yul\":2735:2738   */\n      dup4\n        /* \"#utility.yul\":2728:2732   */\n      0x1f\n        /* \"#utility.yul\":2720:2726   */\n      dup5\n        /* \"#utility.yul\":2716:2733   */\n      add\n        /* \"#utility.yul\":2712:2739   */\n      slt\n        /* \"#utility.yul\":2702:2824   */\n      tag_259\n      jumpi\n        /* \"#utility.yul\":2743:2822   */\n      tag_260\n      tag_177\n      jump\t// in\n    tag_260:\n        /* \"#utility.yul\":2702:2824   */\n    tag_259:\n        /* \"#utility.yul\":2856:2862   */\n      dup3\n        /* \"#utility.yul\":2843:2863   */\n      calldataload\n        /* \"#utility.yul\":2833:2863   */\n      swap1\n      pop\n        /* \"#utility.yul\":2886:2904   */\n      0xffffffffffffffff\n        /* \"#utility.yul\":2878:2884   */\n      dup2\n        /* \"#utility.yul\":2875:2905   */\n      gt\n        /* \"#utility.yul\":2872:2989   */\n      iszero\n      tag_261\n      jumpi\n        /* \"#utility.yul\":2908:2987   */\n      tag_262\n      tag_178\n      jump\t// in\n    tag_262:\n        /* \"#utility.yul\":2872:2989   */\n    tag_261:\n        /* \"#utility.yul\":3022:3026   */\n      0x20\n        /* \"#utility.yul\":3014:3020   */\n      dup4\n        /* \"#utility.yul\":3010:3027   */\n      add\n        /* \"#utility.yul\":2998:3027   */\n      swap2\n      pop\n        /* \"#utility.yul\":3076:3079   */\n      dup4\n        /* \"#utility.yul\":3068:3072   */\n      0x01\n        /* \"#utility.yul\":3060:3066   */\n      dup3\n        /* \"#utility.yul\":3056:3073   */\n      mul\n        /* \"#utility.yul\":3046:3054   */\n      dup4\n        /* \"#utility.yul\":3042:3074   */\n      add\n        /* \"#utility.yul\":3039:3080   */\n      gt\n        /* \"#utility.yul\":3036:3164   */\n      iszero\n      tag_263\n      jumpi\n        /* \"#utility.yul\":3083:3162   */\n      tag_264\n      tag_179\n      jump\t// in\n    tag_264:\n        /* \"#utility.yul\":3036:3164   */\n    tag_263:\n        /* \"#utility.yul\":2618:3170   */\n      swap3\n      pop\n      swap3\n      swap1\n      pop\n      jump\t// out\n        /* \"#utility.yul\":3176:3993   */\n    tag_26:\n        /* \"#utility.yul\":3264:3270   */\n      0x00\n        /* \"#utility.yul\":3272:3278   */\n      dup1\n        /* \"#utility.yul\":3280:3286   */\n      0x00\n        /* \"#utility.yul\":3288:3294   */\n      dup1\n        /* \"#utility.yul\":3337:3339   */\n      0x60\n        /* \"#utility.yul\":3325:3334   */\n      dup6\n        /* \"#utility.yul\":3316:3323   */\n      dup8\n        /* \"#utility.yul\":3312:3335   */\n      sub\n        /* \"#utility.yul\":3308:3340   */\n      slt\n        /* \"#utility.yul\":3305:3424   */\n      iszero\n      tag_266\n      jumpi\n        /* \"#utility.yul\":3343:3422   */\n      tag_267\n      tag_168\n      jump\t// in\n    tag_267:\n        /* \"#utility.yul\":3305:3424   */\n    tag_266:\n        /* \"#utility.yul\":3463:3464   */\n      0x00\n        /* \"#utility.yul\":3488:3541   */\n      tag_268\n        /* \"#utility.yul\":3533:3540   */\n      dup8\n        /* \"#utility.yul\":3524:3530   */\n      dup3\n        /* \"#utility.yul\":3513:3522   */\n      dup9\n        /* \"#utility.yul\":3509:3531   */\n      add\n        /* \"#utility.yul\":3488:3541   */\n      tag_176\n      jump\t// in\n    tag_268:\n        /* \"#utility.yul\":3478:3541   */\n      swap5\n      pop\n        /* \"#utility.yul\":3434:3551   */\n      pop\n        /* \"#utility.yul\":3590:3592   */\n      0x20\n        /* \"#utility.yul\":3616:3669   */\n      tag_269\n        /* \"#utility.yul\":3661:3668   */\n      dup8\n        /* \"#utility.yul\":3652:3658   */\n      dup3\n        /* \"#utility.yul\":3641:3650   */\n      dup9\n        /* \"#utility.yul\":3637:3659   */\n      add\n        /* \"#utility.yul\":3616:3669   */\n      tag_171\n      jump\t// in\n    tag_269:\n        /* \"#utility.yul\":3606:3669   */\n      swap4\n      pop\n        /* \"#utility.yul\":3561:3679   */\n      pop\n        /* \"#utility.yul\":3746:3748   */\n      0x40\n        /* \"#utility.yul\":3735:3744   */\n      dup6\n        /* \"#utility.yul\":3731:3749   */\n      add\n        /* \"#utility.yul\":3718:3750   */\n      calldataload\n        /* \"#utility.yul\":3777:3795   */\n      0xffffffffffffffff\n        /* \"#utility.yul\":3769:3775   */\n      dup2\n        /* \"#utility.yul\":3766:3796   */\n      gt\n        /* \"#utility.yul\":3763:3880   */\n      iszero\n      tag_270\n      jumpi\n        /* \"#utility.yul\":3799:3878   */\n      tag_271\n      tag_169\n      jump\t// in\n    tag_271:\n        /* \"#utility.yul\":3763:3880   */\n    tag_270:\n        /* \"#utility.yul\":3912:3976   */\n      tag_272\n        /* \"#utility.yul\":3968:3975   */\n      dup8\n        /* \"#utility.yul\":3959:3965   */\n      dup3\n        /* \"#utility.yul\":3948:3957   */\n      dup9\n        /* \"#utility.yul\":3944:3966   */\n      add\n        /* \"#utility.yul\":3912:3976   */\n      tag_180\n      jump\t// in\n    tag_272:\n        /* \"#utility.yul\":3894:3976   */\n      swap3\n      pop\n      swap3\n      pop\n        /* \"#utility.yul\":3689:3986   */\n      pop\n        /* \"#utility.yul\":3176:3993   */\n      swap3\n      swap6\n      swap2\n      swap5\n      pop\n      swap3\n      pop\n      jump\t// out\n        /* \"#utility.yul\":3999:4089   */\n    tag_181:\n        /* \"#utility.yul\":4033:4040   */\n      0x00\n        /* \"#utility.yul\":4076:4081   */\n      dup2\n        /* \"#utility.yul\":4069:4082   */\n      iszero\n        /* \"#utility.yul\":4062:4083   */\n      iszero\n        /* \"#utility.yul\":4051:4083   */\n      swap1\n      pop\n        /* \"#utility.yul\":3999:4089   */\n      swap2\n      swap1\n      pop\n      jump\t// out\n        /* \"#utility.yul\":4095:4204   */\n    tag_182:\n        /* \"#utility.yul\":4176:4197   */\n      tag_275\n        /* \"#utility.yul\":4191:4196   */\n      dup2\n        /* \"#utility.yul\":4176:4197   */\n      tag_181\n      jump\t// in\n    tag_275:\n        /* \"#utility.yul\":4171:4174   */\n      dup3\n        /* \"#utility.yul\":4164:4198   */\n      mstore\n        /* \"#utility.yul\":4095:4204   */\n      pop\n      pop\n      jump\t// out\n        /* \"#utility.yul\":4210:4420   */\n    tag_29:\n        /* \"#utility.yul\":4297:4301   */\n      0x00\n        /* \"#utility.yul\":4335:4337   */\n      0x20\n        /* \"#utility.yul\":4324:4333   */\n      dup3\n        /* \"#utility.yul\":4320:4338   */\n      add\n        /* \"#utility.yul\":4312:4338   */\n      swap1\n      pop\n        /* \"#utility.yul\":4348:4413   */\n      tag_277\n        /* \"#utility.yul\":4410:4411   */\n      0x00\n        /* \"#utility.yul\":4399:4408   */\n      dup4\n        /* \"#utility.yul\":4395:4412   */\n      add\n        /* \"#utility.yul\":4386:4392   */\n      dup5\n        /* \"#utility.yul\":4348:4413   */\n      tag_182\n      jump\t// in\n    tag_277:\n        /* \"#utility.yul\":4210:4420   */\n      swap3\n      swap2\n      pop\n      pop\n      jump\t// out\n        /* \"#utility.yul\":4426:4755   */\n    tag_38:\n        /* \"#utility.yul\":4485:4491   */\n      0x00\n        /* \"#utility.yul\":4534:4536   */\n      0x20\n        /* \"#utility.yul\":4522:4531   */\n      dup3\n        /* \"#utility.yul\":4513:4520   */\n      dup5\n        /* \"#utility.yul\":4509:4532   */\n      sub\n        /* \"#utility.yul\":4505:4537   */\n      slt\n        /* \"#utility.yul\":4502:4621   */\n      iszero\n      tag_279\n      jumpi\n        /* \"#utility.yul\":4540:4619   */\n      tag_280\n      tag_168\n      jump\t// in\n    tag_280:\n        /* \"#utility.yul\":4502:4621   */\n    tag_279:\n        /* \"#utility.yul\":4660:4661   */\n      0x00\n        /* \"#utility.yul\":4685:4738   */\n      tag_281\n        /* \"#utility.yul\":4730:4737   */\n      dup5\n        /* \"#utility.yul\":4721:4727   */\n      dup3\n        /* \"#utility.yul\":4710:4719   */\n      dup6\n        /* \"#utility.yul\":4706:4728   */\n      add\n        /* \"#utility.yul\":4685:4738   */\n      tag_176\n      jump\t// in\n    tag_281:\n        /* \"#utility.yul\":4675:4738   */\n      swap2\n      pop\n        /* \"#utility.yul\":4631:4748   */\n      pop\n        /* \"#utility.yul\":4426:4755   */\n      swap3\n      swap2\n      pop\n      pop\n      jump\t// out\n        /* \"#utility.yul\":4761:4859   */\n    tag_183:\n        /* \"#utility.yul\":4812:4818   */\n      0x00\n        /* \"#utility.yul\":4846:4851   */\n      dup2\n        /* \"#utility.yul\":4840:4852   */\n      mload\n        /* \"#utility.yul\":4830:4852   */\n      swap1\n      pop\n        /* \"#utility.yul\":4761:4859   */\n      swap2\n      swap1\n      pop\n      jump\t// out\n        /* \"#utility.yul\":4865:5033   */\n    tag_184:\n        /* \"#utility.yul\":4948:4959   */\n      0x00\n        /* \"#utility.yul\":4982:4988   */\n      dup3\n        /* \"#utility.yul\":4977:4980   */\n      dup3\n        /* \"#utility.yul\":4970:4989   */\n      mstore\n        /* \"#utility.yul\":5022:5026   */\n      0x20\n        /* \"#utility.yul\":5017:5020   */\n      dup3\n        /* \"#utility.yul\":5013:5027   */\n      add\n        /* \"#utility.yul\":4998:5027   */\n      swap1\n      pop\n        /* \"#utility.yul\":4865:5033   */\n      swap3\n      swap2\n      pop\n      pop\n      jump\t// out\n        /* \"#utility.yul\":5039:5178   */\n    tag_185:\n        /* \"#utility.yul\":5128:5134   */\n      dup3\n        /* \"#utility.yul\":5123:5126   */\n      dup2\n        /* \"#utility.yul\":5118:5121   */\n      dup4\n        /* \"#utility.yul\":5112:5135   */\n      mcopy\n        /* \"#utility.yul\":5169:5170   */\n      0x00\n        /* \"#utility.yul\":5160:5166   */\n      dup4\n        /* \"#utility.yul\":5155:5158   */\n      dup4\n        /* \"#utility.yul\":5151:5167   */\n      add\n        /* \"#utility.yul\":5144:5171   */\n      mstore\n        /* \"#utility.yul\":5039:5178   */\n      pop\n      pop\n      pop\n      jump\t// out\n        /* \"#utility.yul\":5184:5286   */\n    tag_186:\n        /* \"#utility.yul\":5225:5231   */\n      0x00\n        /* \"#utility.yul\":5276:5278   */\n      0x1f\n        /* \"#utility.yul\":5272:5279   */\n      not\n        /* \"#utility.yul\":5267:5269   */\n      0x1f\n        /* \"#utility.yul\":5260:5265   */\n      dup4\n        /* \"#utility.yul\":5256:5270   */\n      add\n        /* \"#utility.yul\":5252:5280   */\n      and\n        /* \"#utility.yul\":5242:5280   */\n      swap1\n      pop\n        /* \"#utility.yul\":5184:5286   */\n      swap2\n      swap1\n      pop\n      jump\t// out\n        /* \"#utility.yul\":5292:5665   */\n    tag_187:\n        /* \"#utility.yul\":5378:5381   */\n      0x00\n        /* \"#utility.yul\":5406:5444   */\n      tag_287\n        /* \"#utility.yul\":5438:5443   */\n      dup3\n        /* \"#utility.yul\":5406:5444   */\n      tag_183\n      jump\t// in\n    tag_287:\n        /* \"#utility.yul\":5460:5530   */\n      tag_288\n        /* \"#utility.yul\":5523:5529   */\n      dup2\n        /* \"#utility.yul\":5518:5521   */\n      dup6\n        /* \"#utility.yul\":5460:5530   */\n      tag_184\n      jump\t// in\n    tag_288:\n        /* \"#utility.yul\":5453:5530   */\n      swap4\n      pop\n        /* \"#utility.yul\":5539:5604   */\n      tag_289\n        /* \"#utility.yul\":5597:5603   */\n      dup2\n        /* \"#utility.yul\":5592:5595   */\n      dup6\n        /* \"#utility.yul\":5585:5589   */\n      0x20\n        /* \"#utility.yul\":5578:5583   */\n      dup7\n        /* \"#utility.yul\":5574:5590   */\n      add\n        /* \"#utility.yul\":5539:5604   */\n      tag_185\n      jump\t// in\n    tag_289:\n        /* \"#utility.yul\":5629:5658   */\n      tag_290\n        /* \"#utility.yul\":5651:5657   */\n      dup2\n        /* \"#utility.yul\":5629:5658   */\n      tag_186\n      jump\t// in\n    tag_290:\n        /* \"#utility.yul\":5624:5627   */\n      dup5\n        /* \"#utility.yul\":5620:5659   */\n      add\n        /* \"#utility.yul\":5613:5659   */\n      swap2\n      pop\n        /* \"#utility.yul\":5382:5665   */\n      pop\n        /* \"#utility.yul\":5292:5665   */\n      swap3\n      swap2\n      pop\n      pop\n      jump\t// out\n        /* \"#utility.yul\":5671:6299   */\n    tag_46:\n        /* \"#utility.yul\":5860:5864   */\n      0x00\n        /* \"#utility.yul\":5898:5901   */\n      0x80\n        /* \"#utility.yul\":5887:5896   */\n      dup3\n        /* \"#utility.yul\":5883:5902   */\n      add\n        /* \"#utility.yul\":5875:5902   */\n      swap1\n      pop\n        /* \"#utility.yul\":5912:5983   */\n      tag_292\n        /* \"#utility.yul\":5980:5981   */\n      0x00\n        /* \"#utility.yul\":5969:5978   */\n      dup4\n        /* \"#utility.yul\":5965:5982   */\n      add\n        /* \"#utility.yul\":5956:5962   */\n      dup8\n        /* \"#utility.yul\":5912:5983   */\n      tag_174\n      jump\t// in\n    tag_292:\n        /* \"#utility.yul\":5993:6065   */\n      tag_293\n        /* \"#utility.yul\":6061:6063   */\n      0x20\n        /* \"#utility.yul\":6050:6059   */\n      dup4\n        /* \"#utility.yul\":6046:6064   */\n      add\n        /* \"#utility.yul\":6037:6043   */\n      dup7\n        /* \"#utility.yul\":5993:6065   */\n      tag_166\n      jump\t// in\n    tag_293:\n        /* \"#utility.yul\":6112:6121   */\n      dup2\n        /* \"#utility.yul\":6106:6110   */\n      dup2\n        /* \"#utility.yul\":6102:6122   */\n      sub\n        /* \"#utility.yul\":6097:6099   */\n      0x40\n        /* \"#utility.yul\":6086:6095   */\n      dup4\n        /* \"#utility.yul\":6082:6100   */\n      add\n        /* \"#utility.yul\":6075:6123   */\n      mstore\n        /* \"#utility.yul\":6140:6216   */\n      tag_294\n        /* \"#utility.yul\":6211:6215   */\n      dup2\n        /* \"#utility.yul\":6202:6208   */\n      dup6\n        /* \"#utility.yul\":6140:6216   */\n      tag_187\n      jump\t// in\n    tag_294:\n        /* \"#utility.yul\":6132:6216   */\n      swap1\n      pop\n        /* \"#utility.yul\":6226:6292   */\n      tag_295\n        /* \"#utility.yul\":6288:6290   */\n      0x60\n        /* \"#utility.yul\":6277:6286   */\n      dup4\n        /* \"#utility.yul\":6273:6291   */\n      add\n        /* \"#utility.yul\":6264:6270   */\n      dup5\n        /* \"#utility.yul\":6226:6292   */\n      tag_182\n      jump\t// in\n    tag_295:\n        /* \"#utility.yul\":5671:6299   */\n      swap6\n      swap5\n      pop\n      pop\n      pop\n      pop\n      pop\n      jump\t// out\n        /* \"#utility.yul\":6305:6474   */\n    tag_188:\n        /* \"#utility.yul\":6389:6400   */\n      0x00\n        /* \"#utility.yul\":6423:6429   */\n      dup3\n        /* \"#utility.yul\":6418:6421   */\n      dup3\n        /* \"#utility.yul\":6411:6430   */\n      mstore\n        /* \"#utility.yul\":6463:6467   */\n      0x20\n        /* \"#utility.yul\":6458:6461   */\n      dup3\n        /* \"#utility.yul\":6454:6468   */\n      add\n        /* \"#utility.yul\":6439:6468   */\n      swap1\n      pop\n        /* \"#utility.yul\":6305:6474   */\n      swap3\n      swap2\n      pop\n      pop\n      jump\t// out\n        /* \"#utility.yul\":6480:6649   */\n    tag_189:\n        /* \"#utility.yul\":6620:6641   */\n      0x4f6e6c79206f776e657220616c6c6f7765642e00000000000000000000000000\n        /* \"#utility.yul\":6616:6617   */\n      0x00\n        /* \"#utility.yul\":6608:6614   */\n      dup3\n        /* \"#utility.yul\":6604:6618   */\n      add\n        /* \"#utility.yul\":6597:6642   */\n      mstore\n        /* \"#utility.yul\":6480:6649   */\n      pop\n      jump\t// out\n        /* \"#utility.yul\":6655:7021   */\n    tag_190:\n        /* \"#utility.yul\":6797:6800   */\n      0x00\n        /* \"#utility.yul\":6818:6885   */\n      tag_299\n        /* \"#utility.yul\":6882:6884   */\n      0x13\n        /* \"#utility.yul\":6877:6880   */\n      dup4\n        /* \"#utility.yul\":6818:6885   */\n      tag_188\n      jump\t// in\n    tag_299:\n        /* \"#utility.yul\":6811:6885   */\n      swap2\n      pop\n        /* \"#utility.yul\":6894:6987   */\n      tag_300\n        /* \"#utility.yul\":6983:6986   */\n      dup3\n        /* \"#utility.yul\":6894:6987   */\n      tag_189\n      jump\t// in\n    tag_300:\n        /* \"#utility.yul\":7012:7014   */\n      0x20\n        /* \"#utility.yul\":7007:7010   */\n      dup3\n        /* \"#utility.yul\":7003:7015   */\n      add\n        /* \"#utility.yul\":6996:7015   */\n      swap1\n      pop\n        /* \"#utility.yul\":6655:7021   */\n      swap2\n      swap1\n      pop\n      jump\t// out\n        /* \"#utility.yul\":7027:7446   */\n    tag_68:\n        /* \"#utility.yul\":7193:7197   */\n      0x00\n        /* \"#utility.yul\":7231:7233   */\n      0x20\n        /* \"#utility.yul\":7220:7229   */\n      dup3\n        /* \"#utility.yul\":7216:7234   */\n      add\n        /* \"#utility.yul\":7208:7234   */\n      swap1\n      pop\n        /* \"#utility.yul\":7280:7289   */\n      dup2\n        /* \"#utility.yul\":7274:7278   */\n      dup2\n        /* \"#utility.yul\":7270:7290   */\n      sub\n        /* \"#utility.yul\":7266:7267   */\n      0x00\n        /* \"#utility.yul\":7255:7264   */\n      dup4\n        /* \"#utility.yul\":7251:7268   */\n      add\n        /* \"#utility.yul\":7244:7291   */\n      mstore\n        /* \"#utility.yul\":7308:7439   */\n      tag_302\n        /* \"#utility.yul\":7434:7438   */\n      dup2\n        /* \"#utility.yul\":7308:7439   */\n      tag_190\n      jump\t// in\n    tag_302:\n        /* \"#utility.yul\":7300:7439   */\n      swap1\n      pop\n        /* \"#utility.yul\":7027:7446   */\n      swap2\n      swap1\n      pop\n      jump\t// out\n        /* \"#utility.yul\":7452:7632   */\n    tag_191:\n        /* \"#utility.yul\":7500:7577   */\n      0x4e487b7100000000000000000000000000000000000000000000000000000000\n        /* \"#utility.yul\":7497:7498   */\n      0x00\n        /* \"#utility.yul\":7490:7578   */\n      mstore\n        /* \"#utility.yul\":7597:7601   */\n      0x41\n        /* \"#utility.yul\":7594:7595   */\n      0x04\n        /* \"#utility.yul\":7587:7602   */\n      mstore\n        /* \"#utility.yul\":7621:7625   */\n      0x24\n        /* \"#utility.yul\":7618:7619   */\n      0x00\n        /* \"#utility.yul\":7611:7626   */\n      revert\n        /* \"#utility.yul\":7638:7818   */\n    tag_192:\n        /* \"#utility.yul\":7686:7763   */\n      0x4e487b7100000000000000000000000000000000000000000000000000000000\n        /* \"#utility.yul\":7683:7684   */\n      0x00\n        /* \"#utility.yul\":7676:7764   */\n      mstore\n        /* \"#utility.yul\":7783:7787   */\n      0x22\n        /* \"#utility.yul\":7780:7781   */\n      0x04\n        /* \"#utility.yul\":7773:7788   */\n      mstore\n        /* \"#utility.yul\":7807:7811   */\n      0x24\n        /* \"#utility.yul\":7804:7805   */\n      0x00\n        /* \"#utility.yul\":7797:7812   */\n      revert\n        /* \"#utility.yul\":7824:8144   */\n    tag_102:\n        /* \"#utility.yul\":7868:7874   */\n      0x00\n        /* \"#utility.yul\":7905:7906   */\n      0x02\n        /* \"#utility.yul\":7899:7903   */\n      dup3\n        /* \"#utility.yul\":7895:7907   */\n      div\n        /* \"#utility.yul\":7885:7907   */\n      swap1\n      pop\n        /* \"#utility.yul\":7952:7953   */\n      0x01\n        /* \"#utility.yul\":7946:7950   */\n      dup3\n        /* \"#utility.yul\":7942:7954   */\n      and\n        /* \"#utility.yul\":7973:7991   */\n      dup1\n        /* \"#utility.yul\":7963:8044   */\n      tag_306\n      jumpi\n        /* \"#utility.yul\":8029:8033   */\n      0x7f\n        /* \"#utility.yul\":8021:8027   */\n      dup3\n        /* \"#utility.yul\":8017:8034   */\n      and\n        /* \"#utility.yul\":8007:8034   */\n      swap2\n      pop\n        /* \"#utility.yul\":7963:8044   */\n    tag_306:\n        /* \"#utility.yul\":8091:8093   */\n      0x20\n        /* \"#utility.yul\":8083:8089   */\n      dup3\n        /* \"#utility.yul\":8080:8094   */\n      lt\n        /* \"#utility.yul\":8060:8078   */\n      dup2\n        /* \"#utility.yul\":8057:8095   */\n      sub\n        /* \"#utility.yul\":8054:8138   */\n      tag_307\n      jumpi\n        /* \"#utility.yul\":8110:8128   */\n      tag_308\n      tag_192\n      jump\t// in\n    tag_308:\n        /* \"#utility.yul\":8054:8138   */\n    tag_307:\n        /* \"#utility.yul\":7875:8144   */\n      pop\n        /* \"#utility.yul\":7824:8144   */\n      swap2\n      swap1\n      pop\n      jump\t// out\n        /* \"#utility.yul\":8150:8290   */\n    tag_193:\n        /* \"#utility.yul\":8198:8202   */\n      0x00\n        /* \"#utility.yul\":8221:8224   */\n      dup2\n        /* \"#utility.yul\":8213:8224   */\n      swap1\n      pop\n        /* \"#utility.yul\":8244:8247   */\n      dup2\n        /* \"#utility.yul\":8241:8242   */\n      0x00\n        /* \"#utility.yul\":8234:8248   */\n      mstore\n        /* \"#utility.yul\":8278:8282   */\n      0x20\n        /* \"#utility.yul\":8275:8276   */\n      0x00\n        /* \"#utility.yul\":8265:8283   */\n      keccak256\n        /* \"#utility.yul\":8257:8283   */\n      swap1\n      pop\n        /* \"#utility.yul\":8150:8290   */\n      swap2\n      swap1\n      pop\n      jump\t// out\n        /* \"#utility.yul\":8296:8389   */\n    tag_194:\n        /* \"#utility.yul\":8333:8339   */\n      0x00\n        /* \"#utility.yul\":8380:8382   */\n      0x20\n        /* \"#utility.yul\":8375:8377   */\n      0x1f\n        /* \"#utility.yul\":8368:8373   */\n      dup4\n        /* \"#utility.yul\":8364:8378   */\n      add\n        /* \"#utility.yul\":8360:8383   */\n      div\n        /* \"#utility.yul\":8350:8383   */\n      swap1\n      pop\n        /* \"#utility.yul\":8296:8389   */\n      swap2\n      swap1\n      pop\n      jump\t// out\n        /* \"#utility.yul\":8395:8502   */\n    tag_195:\n        /* \"#utility.yul\":8439:8447   */\n      0x00\n        /* \"#utility.yul\":8489:8494   */\n      dup3\n        /* \"#utility.yul\":8483:8487   */\n      dup3\n        /* \"#utility.yul\":8479:8495   */\n      shl\n        /* \"#utility.yul\":8458:8495   */\n      swap1\n      pop\n        /* \"#utility.yul\":8395:8502   */\n      swap3\n      swap2\n      pop\n      pop\n      jump\t// out\n        /* \"#utility.yul\":8508:8901   */\n    tag_196:\n        /* \"#utility.yul\":8577:8583   */\n      0x00\n        /* \"#utility.yul\":8627:8628   */\n      0x08\n        /* \"#utility.yul\":8615:8625   */\n      dup4\n        /* \"#utility.yul\":8611:8629   */\n      mul\n        /* \"#utility.yul\":8650:8747   */\n      tag_313\n        /* \"#utility.yul\":8680:8746   */\n      0xffffffffffffffffffffffffffffffffffffffffffffffffffffffffffffffff\n        /* \"#utility.yul\":8669:8678   */\n      dup3\n        /* \"#utility.yul\":8650:8747   */\n      tag_195\n      jump\t// in\n    tag_313:\n        /* \"#utility.yul\":8768:8807   */\n      tag_314\n        /* \"#utility.yul\":8798:8806   */\n      dup7\n        /* \"#utility.yul\":8787:8796   */\n      dup4\n        /* \"#utility.yul\":8768:8807   */\n      tag_195\n      jump\t// in\n    tag_314:\n        /* \"#utility.yul\":8756:8807   */\n      swap6\n      pop\n        /* \"#utility.yul\":8840:8844   */\n      dup1\n        /* \"#utility.yul\":8836:8845   */\n      not\n        /* \"#utility.yul\":8829:8834   */\n      dup5\n        /* \"#utility.yul\":8825:8846   */\n      and\n        /* \"#utility.yul\":8816:8846   */\n      swap4\n      pop\n        /* \"#utility.yul\":8889:8893   */\n      dup1\n        /* \"#utility.yul\":8879:8887   */\n      dup7\n        /* \"#utility.yul\":8875:8894   */\n      and\n        /* \"#utility.yul\":8868:8873   */\n      dup5\n        /* \"#utility.yul\":8865:8895   */\n      or\n        /* \"#utility.yul\":8855:8895   */\n      swap3\n      pop\n        /* \"#utility.yul\":8584:8901   */\n      pop\n      pop\n        /* \"#utility.yul\":8508:8901   */\n      swap4\n      swap3\n      pop\n      pop\n      pop\n      jump\t// out\n        /* \"#utility.yul\":8907:8967   */\n    tag_197:\n        /* \"#utility.yul\":8935:8938   */\n      0x00\n        /* \"#utility.yul\":8956:8961   */\n      dup2\n        /* \"#utility.yul\":8949:8961   */\n      swap1\n      pop\n        /* \"#utility.yul\":8907:8967   */\n      swap2\n      swap1\n      pop\n      jump\t// out\n        /* \"#utility.yul\":8973:9115   */\n    tag_198:\n        /* \"#utility.yul\":9023:9032   */\n      0x00\n        /* \"#utility.yul\":9056:9109   */\n      tag_317\n        /* \"#utility.yul\":9074:9108   */\n      tag_318\n        /* \"#utility.yul\":9083:9107   */\n      tag_319\n        /* \"#utility.yul\":9101:9106   */\n      dup5\n        /* \"#utility.yul\":9083:9107   */\n      tag_165\n      jump\t// in\n    tag_319:\n        /* \"#utility.yul\":9074:9108   */\n      tag_197\n      jump\t// in\n    tag_318:\n        /* \"#utility.yul\":9056:9109   */\n      tag_165\n      jump\t// in\n    tag_317:\n        /* \"#utility.yul\":9043:9109   */\n      swap1\n      pop\n        /* \"#utility.yul\":8973:9115   */\n      swap2\n      swap1\n      pop\n      jump\t// out\n        /* \"#utility.yul\":9121:9196   */\n    tag_199:\n        /* \"#utility.yul\":9164:9167   */\n      0x00\n        /* \"#utility.yul\":9185:9190   */\n      dup2\n        /* \"#utility.yul\":9178:9190   */\n      swap1\n      pop\n        /* \"#utility.yul\":9121:9196   */\n      swap2\n      swap1\n      pop\n      jump\t// out\n        /* \"#utility.yul\":9202:9471   */\n    tag_200:\n        /* \"#utility.yul\":9312:9351   */\n      tag_322\n        /* \"#utility.yul\":9343:9350   */\n      dup4\n        /* \"#utility.yul\":9312:9351   */\n      tag_198\n      jump\t// in\n    tag_322:\n        /* \"#utility.yul\":9373:9464   */\n      tag_323\n        /* \"#utility.yul\":9422:9463   */\n      tag_324\n        /* \"#utility.yul\":9446:9462   */\n      dup3\n        /* \"#utility.yul\":9422:9463   */\n      tag_199\n      jump\t// in\n    tag_324:\n        /* \"#utility.yul\":9414:9420   */\n      dup5\n        /* \"#utility.yul\":9407:9411   */\n      dup5\n        /* \"#utility.yul\":9401:9412   */\n      sload\n        /* \"#utility.yul\":9373:9464   */\n      tag_196\n      jump\t// in\n    tag_323:\n        /* \"#utility.yul\":9367:9371   */\n      dup3\n        /* \"#utility.yul\":9360:9465   */\n      sstore\n        /* \"#utility.yul\":9278:9471   */\n      pop\n        /* \"#utility.yul\":9202:9471   */\n      pop\n      pop\n      pop\n      jump\t// out\n        /* \"#utility.yul\":9477:9550   */\n    tag_201:\n        /* \"#utility.yul\":9522:9525   */\n      0x00\n        /* \"#utility.yul\":9477:9550   */\n      swap1\n      jump\t// out\n        /* \"#utility.yul\":9556:9745   */\n    tag_202:\n        /* \"#utility.yul\":9633:9665   */\n      tag_327\n      tag_201\n      jump\t// in\n    tag_327:\n        /* \"#utility.yul\":9674:9739   */\n      tag_328\n        /* \"#utility.yul\":9732:9738   */\n      dup2\n        /* \"#utility.yul\":9724:9730   */\n      dup5\n        /* \"#utility.yul\":9718:9722   */\n      dup5\n        /* \"#utility.yul\":9674:9739   */\n      tag_200\n      jump\t// in\n    tag_328:\n        /* \"#utility.yul\":9609:9745   */\n      pop\n        /* \"#utility.yul\":9556:9745   */\n      pop\n      pop\n      jump\t// out\n        /* \"#utility.yul\":9751:9937   */\n    tag_203:\n        /* \"#utility.yul\":9811:9931   */\n    tag_330:\n        /* \"#utility.yul\":9828:9831   */\n      dup2\n        /* \"#utility.yul\":9821:9826   */\n      dup2\n        /* \"#utility.yul\":9818:9832   */\n      lt\n        /* \"#utility.yul\":9811:9931   */\n      iszero\n      tag_332\n      jumpi\n        /* \"#utility.yul\":9882:9921   */\n      tag_333\n        /* \"#utility.yul\":9919:9920   */\n      0x00\n        /* \"#utility.yul\":9912:9917   */\n      dup3\n        /* \"#utility.yul\":9882:9921   */\n      tag_202\n      jump\t// in\n    tag_333:\n        /* \"#utility.yul\":9855:9856   */\n      0x01\n        /* \"#utility.yul\":9848:9853   */\n      dup2\n        /* \"#utility.yul\":9844:9857   */\n      add\n        /* \"#utility.yul\":9835:9857   */\n      swap1\n      pop\n        /* \"#utility.yul\":9811:9931   */\n      jump(tag_330)\n    tag_332:\n        /* \"#utility.yul\":9751:9937   */\n      pop\n      pop\n      jump\t// out\n        /* \"#utility.yul\":9943:10484   */\n    tag_204:\n        /* \"#utility.yul\":10043:10045   */\n      0x1f\n        /* \"#utility.yul\":10038:10041   */\n      dup3\n        /* \"#utility.yul\":10035:10046   */\n      gt\n        /* \"#utility.yul\":10032:10477   */\n      iszero\n      tag_335\n      jumpi\n        /* \"#utility.yul\":10077:10114   */\n      tag_336\n        /* \"#utility.yul\":10108:10113   */\n      dup2\n        /* \"#utility.yul\":10077:10114   */\n      tag_193\n      jump\t// in\n    tag_336:\n        /* \"#utility.yul\":10160:10189   */\n      tag_337\n        /* \"#utility.yul\":10178:10188   */\n      dup5\n        /* \"#utility.yul\":10160:10189   */\n      tag_194\n      jump\t// in\n    tag_337:\n        /* \"#utility.yul\":10150:10158   */\n      dup2\n        /* \"#utility.yul\":10146:10190   */\n      add\n        /* \"#utility.yul\":10343:10345   */\n      0x20\n        /* \"#utility.yul\":10331:10341   */\n      dup6\n        /* \"#utility.yul\":10328:10346   */\n      lt\n        /* \"#utility.yul\":10325:10374   */\n      iszero\n      tag_338\n      jumpi\n        /* \"#utility.yul\":10364:10372   */\n      dup2\n        /* \"#utility.yul\":10349:10372   */\n      swap1\n      pop\n        /* \"#utility.yul\":10325:10374   */\n    tag_338:\n        /* \"#utility.yul\":10387:10467   */\n      tag_339\n        /* \"#utility.yul\":10443:10465   */\n      tag_340\n        /* \"#utility.yul\":10461:10464   */\n      dup6\n        /* \"#utility.yul\":10443:10465   */\n      tag_194\n      jump\t// in\n    tag_340:\n        /* \"#utility.yul\":10433:10441   */\n      dup4\n        /* \"#utility.yul\":10429:10466   */\n      add\n        /* \"#utility.yul\":10416:10427   */\n      dup3\n        /* \"#utility.yul\":10387:10467   */\n      tag_203\n      jump\t// in\n    tag_339:\n        /* \"#utility.yul\":10047:10477   */\n      pop\n      pop\n        /* \"#utility.yul\":10032:10477   */\n    tag_335:\n        /* \"#utility.yul\":9943:10484   */\n      pop\n      pop\n      pop\n      jump\t// out\n        /* \"#utility.yul\":10490:10607   */\n    tag_205:\n        /* \"#utility.yul\":10544:10552   */\n      0x00\n        /* \"#utility.yul\":10594:10599   */\n      dup3\n        /* \"#utility.yul\":10588:10592   */\n      dup3\n        /* \"#utility.yul\":10584:10600   */\n      shr\n        /* \"#utility.yul\":10563:10600   */\n      swap1\n      pop\n        /* \"#utility.yul\":10490:10607   */\n      swap3\n      swap2\n      pop\n      pop\n      jump\t// out\n        /* \"#utility.yul\":10613:10782   */\n    tag_206:\n        /* \"#utility.yul\":10657:10663   */\n      0x00\n        /* \"#utility.yul\":10690:10741   */\n      tag_343\n        /* \"#utility.yul\":10738:10739   */\n      0x00\n        /* \"#utility.yul\":10734:10740   */\n      not\n        /* \"#utility.yul\":10726:10731   */\n      dup5\n        /* \"#utility.yul\":10723:10724   */\n      0x08\n        /* \"#utility.yul\":10719:10732   */\n      mul\n        /* \"#utility.yul\":10690:10741   */\n      tag_205\n      jump\t// in\n    tag_343:\n        /* \"#utility.yul\":10686:10742   */\n      not\n        /* \"#utility.yul\":10771:10775   */\n      dup1\n        /* \"#utility.yul\":10765:10769   */\n      dup4\n        /* \"#utility.yul\":10761:10776   */\n      and\n        /* \"#utility.yul\":10751:10776   */\n      swap2\n      pop\n        /* \"#utility.yul\":10664:10782   */\n      pop\n        /* \"#utility.yul\":10613:10782   */\n      swap3\n      swap2\n      pop\n      pop\n      jump\t// out\n        /* \"#utility.yul\":10787:11082   */\n    tag_207:\n        /* \"#utility.yul\":10863:10867   */\n      0x00\n        /* \"#utility.yul\":11009:11038   */\n      tag_345\n        /* \"#utility.yul\":11034:11037   */\n      dup4\n        /* \"#utility.yul\":11028:11032   */\n      dup4\n        /* \"#utility.yul\":11009:11038   */\n      tag_206\n      jump\t// in\n    tag_345:\n        /* \"#utility.yul\":11001:11038   */\n      swap2\n      pop\n        /* \"#utility.yul\":11071:11074   */\n      dup3\n        /* \"#utility.yul\":11068:11069   */\n      0x02\n        /* \"#utility.yul\":11064:11075   */\n      mul\n        /* \"#utility.yul\":11058:11062   */\n      dup3\n        /* \"#utility.yul\":11055:11076   */\n      or\n        /* \"#utility.yul\":11047:11076   */\n      swap1\n      pop\n        /* \"#utility.yul\":10787:11082   */\n      swap3\n      swap2\n      pop\n      pop\n      jump\t// out\n        /* \"#utility.yul\":11087:12477   */\n    tag_72:\n        /* \"#utility.yul\":11202:11238   */\n      tag_347\n        /* \"#utility.yul\":11234:11237   */\n      dup3\n        /* \"#utility.yul\":11202:11238   */\n      tag_183\n      jump\t// in\n    tag_347:\n        /* \"#utility.yul\":11303:11321   */\n      0xffffffffffffffff\n        /* \"#utility.yul\":11295:11301   */\n      dup2\n        /* \"#utility.yul\":11292:11322   */\n      gt\n        /* \"#utility.yul\":11289:11345   */\n      iszero\n      tag_348\n      jumpi\n        /* \"#utility.yul\":11325:11343   */\n      tag_349\n      tag_191\n      jump\t// in\n    tag_349:\n        /* \"#utility.yul\":11289:11345   */\n    tag_348:\n        /* \"#utility.yul\":11369:11407   */\n      tag_350\n        /* \"#utility.yul\":11401:11405   */\n      dup3\n        /* \"#utility.yul\":11395:11406   */\n      sload\n        /* \"#utility.yul\":11369:11407   */\n      tag_102\n      jump\t// in\n    tag_350:\n        /* \"#utility.yul\":11454:11520   */\n      tag_351\n        /* \"#utility.yul\":11513:11519   */\n      dup3\n        /* \"#utility.yul\":11505:11511   */\n      dup3\n        /* \"#utility.yul\":11499:11503   */\n      dup6\n        /* \"#utility.yul\":11454:11520   */\n      tag_204\n      jump\t// in\n    tag_351:\n        /* \"#utility.yul\":11547:11548   */\n      0x00\n        /* \"#utility.yul\":11571:11575   */\n      0x20\n        /* \"#utility.yul\":11558:11575   */\n      swap1\n      pop\n        /* \"#utility.yul\":11603:11605   */\n      0x1f\n        /* \"#utility.yul\":11595:11601   */\n      dup4\n        /* \"#utility.yul\":11592:11606   */\n      gt\n        /* \"#utility.yul\":11620:11621   */\n      0x01\n        /* \"#utility.yul\":11615:12232   */\n      dup2\n      eq\n      tag_353\n      jumpi\n        /* \"#utility.yul\":12276:12277   */\n      0x00\n        /* \"#utility.yul\":12293:12299   */\n      dup5\n        /* \"#utility.yul\":12290:12367   */\n      iszero\n      tag_354\n      jumpi\n        /* \"#utility.yul\":12342:12351   */\n      dup3\n        /* \"#utility.yul\":12337:12340   */\n      dup8\n        /* \"#utility.yul\":12333:12352   */\n      add\n        /* \"#utility.yul\":12327:12353   */\n      mload\n        /* \"#utility.yul\":12318:12353   */\n      swap1\n      pop\n        /* \"#utility.yul\":12290:12367   */\n    tag_354:\n        /* \"#utility.yul\":12393:12460   */\n      tag_355\n        /* \"#utility.yul\":12453:12459   */\n      dup6\n        /* \"#utility.yul\":12446:12451   */\n      dup3\n        /* \"#utility.yul\":12393:12460   */\n      tag_207\n      jump\t// in\n    tag_355:\n        /* \"#utility.yul\":12387:12391   */\n      dup7\n        /* \"#utility.yul\":12380:12461   */\n      sstore\n        /* \"#utility.yul\":12249:12471   */\n      pop\n        /* \"#utility.yul\":11585:12471   */\n      jump(tag_352)\n        /* \"#utility.yul\":11615:12232   */\n    tag_353:\n        /* \"#utility.yul\":11667:11671   */\n      0x1f\n        /* \"#utility.yul\":11663:11672   */\n      not\n        /* \"#utility.yul\":11655:11661   */\n      dup5\n        /* \"#utility.yul\":11651:11673   */\n      and\n        /* \"#utility.yul\":11701:11737   */\n      tag_356\n        /* \"#utility.yul\":11732:11736   */\n      dup7\n        /* \"#utility.yul\":11701:11737   */\n      tag_193\n      jump\t// in\n    tag_356:\n        /* \"#utility.yul\":11759:11760   */\n      0x00\n        /* \"#utility.yul\":11773:11981   */\n    tag_357:\n        /* \"#utility.yul\":11787:11794   */\n      dup3\n        /* \"#utility.yul\":11784:11785   */\n      dup2\n        /* \"#utility.yul\":11781:11795   */\n      lt\n        /* \"#utility.yul\":11773:11981   */\n      iszero\n      tag_359\n      jumpi\n        /* \"#utility.yul\":11866:11875   */\n      dup5\n        /* \"#utility.yul\":11861:11864   */\n      dup10\n        /* \"#utility.yul\":11857:11876   */\n      add\n        /* \"#utility.yul\":11851:11877   */\n      mload\n        /* \"#utility.yul\":11843:11849   */\n      dup3\n        /* \"#utility.yul\":11836:11878   */\n      sstore\n        /* \"#utility.yul\":11917:11918   */\n      0x01\n        /* \"#utility.yul\":11909:11915   */\n      dup3\n        /* \"#utility.yul\":11905:11919   */\n      add\n        /* \"#utility.yul\":11895:11919   */\n      swap2\n      pop\n        /* \"#utility.yul\":11964:11966   */\n      0x20\n        /* \"#utility.yul\":11953:11962   */\n      dup6\n        /* \"#utility.yul\":11949:11967   */\n      add\n        /* \"#utility.yul\":11936:11967   */\n      swap5\n      pop\n        /* \"#utility.yul\":11810:11814   */\n      0x20\n        /* \"#utility.yul\":11807:11808   */\n      dup2\n        /* \"#utility.yul\":11803:11815   */\n      add\n        /* \"#utility.yul\":11798:11815   */\n      swap1\n      pop\n        /* \"#utility.yul\":11773:11981   */\n      jump(tag_357)\n    tag_359:\n        /* \"#utility.yul\":12009:12015   */\n      dup7\n        /* \"#utility.yul\":12000:12007   */\n      dup4\n        /* \"#utility.yul\":11997:12016   */\n      lt\n        /* \"#utility.yul\":11994:12173   */\n      iszero\n      tag_360\n      jumpi\n        /* \"#utility.yul\":12067:12076   */\n      dup5\n        /* \"#utility.yul\":12062:12065   */\n      dup10\n        /* \"#utility.yul\":12058:12077   */\n      add\n        /* \"#utility.yul\":12052:12078   */\n      mload\n        /* \"#utility.yul\":12110:12158   */\n      tag_361\n        /* \"#utility.yul\":12152:12156   */\n      0x1f\n        /* \"#utility.yul\":12144:12150   */\n      dup10\n        /* \"#utility.yul\":12140:12157   */\n      and\n        /* \"#utility.yul\":12129:12138   */\n      dup3\n        /* \"#utility.yul\":12110:12158   */\n      tag_206\n      jump\t// in\n    tag_361:\n        /* \"#utility.yul\":12102:12108   */\n      dup4\n        /* \"#utility.yul\":12095:12159   */\n      sstore\n        /* \"#utility.yul\":12017:12173   */\n      pop\n        /* \"#utility.yul\":11994:12173   */\n    tag_360:\n        /* \"#utility.yul\":12219:12220   */\n      0x01\n        /* \"#utility.yul\":12215:12216   */\n      0x02\n        /* \"#utility.yul\":12207:12213   */\n      dup9\n        /* \"#utility.yul\":12203:12217   */\n      mul\n        /* \"#utility.yul\":12199:12221   */\n      add\n        /* \"#utility.yul\":12193:12197   */\n      dup9\n        /* \"#utility.yul\":12186:12222   */\n      sstore\n        /* \"#utility.yul\":11622:12232   */\n      pop\n      pop\n      pop\n        /* \"#utility.yul\":11585:12471   */\n    tag_352:\n      pop\n        /* \"#utility.yul\":11177:12477   */\n      pop\n      pop\n      pop\n        /* \"#utility.yul\":11087:12477   */\n      pop\n      pop\n      jump\t// out\n        /* \"#utility.yul\":12483:12663   */\n    tag_208:\n        /* \"#utility.yul\":12531:12608   */\n      0x4e487b7100000000000000000000000000000000000000000000000000000000\n        /* \"#utility.yul\":12528:12529   */\n      0x00\n        /* \"#utility.yul\":12521:12609   */\n      mstore\n        /* \"#utility.yul\":12628:12632   */\n      0x11\n        /* \"#utility.yul\":12625:12626   */\n      0x04\n        /* \"#utility.yul\":12618:12633   */\n      mstore\n        /* \"#utility.yul\":12652:12656   */\n      0x24\n        /* \"#utility.yul\":12649:12650   */\n      0x00\n        /* \"#utility.yul\":12642:12657   */\n      revert\n        /* \"#utility.yul\":12669:12863   */\n    tag_74:\n        /* \"#utility.yul\":12709:12713   */\n      0x00\n        /* \"#utility.yul\":12729:12749   */\n      tag_364\n        /* \"#utility.yul\":12747:12748   */\n      dup3\n        /* \"#utility.yul\":12729:12749   */\n      tag_165\n      jump\t// in\n    tag_364:\n        /* \"#utility.yul\":12724:12749   */\n      swap2\n      pop\n        /* \"#utility.yul\":12763:12783   */\n      tag_365\n        /* \"#utility.yul\":12781:12782   */\n      dup4\n        /* \"#utility.yul\":12763:12783   */\n      tag_165\n      jump\t// in\n    tag_365:\n        /* \"#utility.yul\":12758:12783   */\n      swap3\n      pop\n        /* \"#utility.yul\":12807:12808   */\n      dup3\n        /* \"#utility.yul\":12804:12805   */\n      dup3\n        /* \"#utility.yul\":12800:12809   */\n      sub\n        /* \"#utility.yul\":12792:12809   */\n      swap1\n      pop\n        /* \"#utility.yul\":12831:12832   */\n      dup2\n        /* \"#utility.yul\":12825:12829   */\n      dup2\n        /* \"#utility.yul\":12822:12833   */\n      gt\n        /* \"#utility.yul\":12819:12856   */\n      iszero\n      tag_366\n      jumpi\n        /* \"#utility.yul\":12836:12854   */\n      tag_367\n      tag_208\n      jump\t// in\n    tag_367:\n        /* \"#utility.yul\":12819:12856   */\n    tag_366:\n        /* \"#utility.yul\":12669:12863   */\n      swap3\n      swap2\n      pop\n      pop\n      jump\t// out\n        /* \"#utility.yul\":12869:13017   */\n    tag_209:\n        /* \"#utility.yul\":12967:12973   */\n      dup3\n        /* \"#utility.yul\":12962:12965   */\n      dup2\n        /* \"#utility.yul\":12957:12960   */\n      dup4\n        /* \"#utility.yul\":12944:12974   */\n      calldatacopy\n        /* \"#utility.yul\":13008:13009   */\n      0x00\n        /* \"#utility.yul\":12999:13005   */\n      dup4\n        /* \"#utility.yul\":12994:12997   */\n      dup4\n        /* \"#utility.yul\":12990:13006   */\n      add\n        /* \"#utility.yul\":12983:13010   */\n      mstore\n        /* \"#utility.yul\":12869:13017   */\n      pop\n      pop\n      pop\n      jump\t// out\n        /* \"#utility.yul\":13045:13359   */\n    tag_210:\n        /* \"#utility.yul\":13141:13144   */\n      0x00\n        /* \"#utility.yul\":13162:13232   */\n      tag_370\n        /* \"#utility.yul\":13225:13231   */\n      dup4\n        /* \"#utility.yul\":13220:13223   */\n      dup6\n        /* \"#utility.yul\":13162:13232   */\n      tag_184\n      jump\t// in\n    tag_370:\n        /* \"#utility.yul\":13155:13232   */\n      swap4\n      pop\n        /* \"#utility.yul\":13242:13298   */\n      tag_371\n        /* \"#utility.yul\":13291:13297   */\n      dup4\n        /* \"#utility.yul\":13286:13289   */\n      dup6\n        /* \"#utility.yul\":13279:13284   */\n      dup5\n        /* \"#utility.yul\":13242:13298   */\n      tag_209\n      jump\t// in\n    tag_371:\n        /* \"#utility.yul\":13323:13352   */\n      tag_372\n        /* \"#utility.yul\":13345:13351   */\n      dup4\n        /* \"#utility.yul\":13323:13352   */\n      tag_186\n      jump\t// in\n    tag_372:\n        /* \"#utility.yul\":13318:13321   */\n      dup5\n        /* \"#utility.yul\":13314:13353   */\n      add\n        /* \"#utility.yul\":13307:13353   */\n      swap1\n      pop\n        /* \"#utility.yul\":13045:13359   */\n      swap4\n      swap3\n      pop\n      pop\n      pop\n      jump\t// out\n        /* \"#utility.yul\":13365:13914   */\n    tag_76:\n        /* \"#utility.yul\":13542:13546   */\n      0x00\n        /* \"#utility.yul\":13580:13582   */\n      0x60\n        /* \"#utility.yul\":13569:13578   */\n      dup3\n        /* \"#utility.yul\":13565:13583   */\n      add\n        /* \"#utility.yul\":13557:13583   */\n      swap1\n      pop\n        /* \"#utility.yul\":13593:13664   */\n      tag_374\n        /* \"#utility.yul\":13661:13662   */\n      0x00\n        /* \"#utility.yul\":13650:13659   */\n      dup4\n        /* \"#utility.yul\":13646:13663   */\n      add\n        /* \"#utility.yul\":13637:13643   */\n      dup8\n        /* \"#utility.yul\":13593:13664   */\n      tag_174\n      jump\t// in\n    tag_374:\n        /* \"#utility.yul\":13674:13746   */\n      tag_375\n        /* \"#utility.yul\":13742:13744   */\n      0x20\n        /* \"#utility.yul\":13731:13740   */\n      dup4\n        /* \"#utility.yul\":13727:13745   */\n      add\n        /* \"#utility.yul\":13718:13724   */\n      dup7\n        /* \"#utility.yul\":13674:13746   */\n      tag_166\n      jump\t// in\n    tag_375:\n        /* \"#utility.yul\":13793:13802   */\n      dup2\n        /* \"#utility.yul\":13787:13791   */\n      dup2\n        /* \"#utility.yul\":13783:13803   */\n      sub\n        /* \"#utility.yul\":13778:13780   */\n      0x40\n        /* \"#utility.yul\":13767:13776   */\n      dup4\n        /* \"#utility.yul\":13763:13781   */\n      add\n        /* \"#utility.yul\":13756:13804   */\n      mstore\n        /* \"#utility.yul\":13821:13907   */\n      tag_376\n        /* \"#utility.yul\":13902:13906   */\n      dup2\n        /* \"#utility.yul\":13893:13899   */\n      dup5\n        /* \"#utility.yul\":13885:13891   */\n      dup7\n        /* \"#utility.yul\":13821:13907   */\n      tag_210\n      jump\t// in\n    tag_376:\n        /* \"#utility.yul\":13813:13907   */\n      swap1\n      pop\n        /* \"#utility.yul\":13365:13914   */\n      swap6\n      swap5\n      pop\n      pop\n      pop\n      pop\n      pop\n      jump\t// out\n        /* \"#utility.yul\":13920:14095   */\n    tag_211:\n        /* \"#utility.yul\":14060:14087   */\n      0x54686520747820696e646578206f7574206f662072616e676500000000000000\n        /* \"#utility.yul\":14056:14057   */\n      0x00\n        /* \"#utility.yul\":14048:14054   */\n      dup3\n        /* \"#utility.yul\":14044:14058   */\n      add\n        /* \"#utility.yul\":14037:14088   */\n      mstore\n        /* \"#utility.yul\":13920:14095   */\n      pop\n      jump\t// out\n        /* \"#utility.yul\":14101:14467   */\n    tag_212:\n        /* \"#utility.yul\":14243:14246   */\n      0x00\n        /* \"#utility.yul\":14264:14331   */\n      tag_379\n        /* \"#utility.yul\":14328:14330   */\n      0x19\n        /* \"#utility.yul\":14323:14326   */\n      dup4\n        /* \"#utility.yul\":14264:14331   */\n      tag_188\n      jump\t// in\n    tag_379:\n        /* \"#utility.yul\":14257:14331   */\n      swap2\n      pop\n        /* \"#utility.yul\":14340:14433   */\n      tag_380\n        /* \"#utility.yul\":14429:14432   */\n      dup3\n        /* \"#utility.yul\":14340:14433   */\n      tag_211\n      jump\t// in\n    tag_380:\n        /* \"#utility.yul\":14458:14460   */\n      0x20\n        /* \"#utility.yul\":14453:14456   */\n      dup3\n        /* \"#utility.yul\":14449:14461   */\n      add\n        /* \"#utility.yul\":14442:14461   */\n      swap1\n      pop\n        /* \"#utility.yul\":14101:14467   */\n      swap2\n      swap1\n      pop\n      jump\t// out\n        /* \"#utility.yul\":14473:14892   */\n    tag_86:\n        /* \"#utility.yul\":14639:14643   */\n      0x00\n        /* \"#utility.yul\":14677:14679   */\n      0x20\n        /* \"#utility.yul\":14666:14675   */\n      dup3\n        /* \"#utility.yul\":14662:14680   */\n      add\n        /* \"#utility.yul\":14654:14680   */\n      swap1\n      pop\n        /* \"#utility.yul\":14726:14735   */\n      dup2\n        /* \"#utility.yul\":14720:14724   */\n      dup2\n        /* \"#utility.yul\":14716:14736   */\n      sub\n        /* \"#utility.yul\":14712:14713   */\n      0x00\n        /* \"#utility.yul\":14701:14710   */\n      dup4\n        /* \"#utility.yul\":14697:14714   */\n      add\n        /* \"#utility.yul\":14690:14737   */\n      mstore\n        /* \"#utility.yul\":14754:14885   */\n      tag_382\n        /* \"#utility.yul\":14880:14884   */\n      dup2\n        /* \"#utility.yul\":14754:14885   */\n      tag_212\n      jump\t// in\n    tag_382:\n        /* \"#utility.yul\":14746:14885   */\n      swap1\n      pop\n        /* \"#utility.yul\":14473:14892   */\n      swap2\n      swap1\n      pop\n      jump\t// out\n        /* \"#utility.yul\":14898:15078   */\n    tag_90:\n        /* \"#utility.yul\":14946:15023   */\n      0x4e487b7100000000000000000000000000000000000000000000000000000000\n        /* \"#utility.yul\":14943:14944   */\n      0x00\n        /* \"#utility.yul\":14936:15024   */\n      mstore\n        /* \"#utility.yul\":15043:15047   */\n      0x32\n        /* \"#utility.yul\":15040:15041   */\n      0x04\n        /* \"#utility.yul\":15033:15048   */\n      mstore\n        /* \"#utility.yul\":15067:15071   */\n      0x24\n        /* \"#utility.yul\":15064:15065   */\n      0x00\n        /* \"#utility.yul\":15057:15072   */\n      revert\n        /* \"#utility.yul\":15084:15255   */\n    tag_213:\n        /* \"#utility.yul\":15224:15247   */\n      0x546869732074782068617320636f6d706c657465640000000000000000000000\n        /* \"#utility.yul\":15220:15221   */\n      0x00\n        /* \"#utility.yul\":15212:15218   */\n      dup3\n        /* \"#utility.yul\":15208:15222   */\n      add\n        /* \"#utility.yul\":15201:15248   */\n      mstore\n        /* \"#utility.yul\":15084:15255   */\n      pop\n      jump\t// out\n        /* \"#utility.yul\":15261:15627   */\n    tag_214:\n        /* \"#utility.yul\":15403:15406   */\n      0x00\n        /* \"#utility.yul\":15424:15491   */\n      tag_386\n        /* \"#utility.yul\":15488:15490   */\n      0x15\n        /* \"#utility.yul\":15483:15486   */\n      dup4\n        /* \"#utility.yul\":15424:15491   */\n      tag_188\n      jump\t// in\n    tag_386:\n        /* \"#utility.yul\":15417:15491   */\n      swap2\n      pop\n        /* \"#utility.yul\":15500:15593   */\n      tag_387\n        /* \"#utility.yul\":15589:15592   */\n      dup3\n        /* \"#utility.yul\":15500:15593   */\n      tag_213\n      jump\t// in\n    tag_387:\n        /* \"#utility.yul\":15618:15620   */\n      0x20\n        /* \"#utility.yul\":15613:15616   */\n      dup3\n        /* \"#utility.yul\":15609:15621   */\n      add\n        /* \"#utility.yul\":15602:15621   */\n      swap1\n      pop\n        /* \"#utility.yul\":15261:15627   */\n      swap2\n      swap1\n      pop\n      jump\t// out\n        /* \"#utility.yul\":15633:16052   */\n    tag_94:\n        /* \"#utility.yul\":15799:15803   */\n      0x00\n        /* \"#utility.yul\":15837:15839   */\n      0x20\n        /* \"#utility.yul\":15826:15835   */\n      dup3\n        /* \"#utility.yul\":15822:15840   */\n      add\n        /* \"#utility.yul\":15814:15840   */\n      swap1\n      pop\n        /* \"#utility.yul\":15886:15895   */\n      dup2\n        /* \"#utility.yul\":15880:15884   */\n      dup2\n        /* \"#utility.yul\":15876:15896   */\n      sub\n        /* \"#utility.yul\":15872:15873   */\n      0x00\n        /* \"#utility.yul\":15861:15870   */\n      dup4\n        /* \"#utility.yul\":15857:15874   */\n      add\n        /* \"#utility.yul\":15850:15897   */\n      mstore\n        /* \"#utility.yul\":15914:16045   */\n      tag_389\n        /* \"#utility.yul\":16040:16044   */\n      dup2\n        /* \"#utility.yul\":15914:16045   */\n      tag_214\n      jump\t// in\n    tag_389:\n        /* \"#utility.yul\":15906:16045   */\n      swap1\n      pop\n        /* \"#utility.yul\":15633:16052   */\n      swap2\n      swap1\n      pop\n      jump\t// out\n        /* \"#utility.yul\":16058:16235   */\n    tag_215:\n        /* \"#utility.yul\":16198:16227   */\n      0x596f75206469646e277420617070726f766520746869732074782e0000000000\n        /* \"#utility.yul\":16194:16195   */\n      0x00\n        /* \"#utility.yul\":16186:16192   */\n      dup3\n        /* \"#utility.yul\":16182:16196   */\n      add\n        /* \"#utility.yul\":16175:16228   */\n      mstore\n        /* \"#utility.yul\":16058:16235   */\n      pop\n      jump\t// out\n        /* \"#utility.yul\":16241:16607   */\n    tag_216:\n        /* \"#utility.yul\":16383:16386   */\n      0x00\n        /* \"#utility.yul\":16404:16471   */\n      tag_392\n        /* \"#utility.yul\":16468:16470   */\n      0x1b\n        /* \"#utility.yul\":16463:16466   */\n      dup4\n        /* \"#utility.yul\":16404:16471   */\n      tag_188\n      jump\t// in\n    tag_392:\n        /* \"#utility.yul\":16397:16471   */\n      swap2\n      pop\n        /* \"#utility.yul\":16480:16573   */\n      tag_393\n        /* \"#utility.yul\":16569:16572   */\n      dup3\n        /* \"#utility.yul\":16480:16573   */\n      tag_215\n      jump\t// in\n    tag_393:\n        /* \"#utility.yul\":16598:16600   */\n      0x20\n        /* \"#utility.yul\":16593:16596   */\n      dup3\n        /* \"#utility.yul\":16589:16601   */\n      add\n        /* \"#utility.yul\":16582:16601   */\n      swap1\n      pop\n        /* \"#utility.yul\":16241:16607   */\n      swap2\n      swap1\n      pop\n      jump\t// out\n        /* \"#utility.yul\":16613:17032   */\n    tag_98:\n        /* \"#utility.yul\":16779:16783   */\n      0x00\n        /* \"#utility.yul\":16817:16819   */\n      0x20\n        /* \"#utility.yul\":16806:16815   */\n      dup3\n        /* \"#utility.yul\":16802:16820   */\n      add\n        /* \"#utility.yul\":16794:16820   */\n      swap1\n      pop\n        /* \"#utility.yul\":16866:16875   */\n      dup2\n        /* \"#utility.yul\":16860:16864   */\n      dup2\n        /* \"#utility.yul\":16856:16876   */\n      sub\n        /* \"#utility.yul\":16852:16853   */\n      0x00\n        /* \"#utility.yul\":16841:16850   */\n      dup4\n        /* \"#utility.yul\":16837:16854   */\n      add\n        /* \"#utility.yul\":16830:16877   */\n      mstore\n        /* \"#utility.yul\":16894:17025   */\n      tag_395\n        /* \"#utility.yul\":17020:17024   */\n      dup2\n        /* \"#utility.yul\":16894:17025   */\n      tag_216\n      jump\t// in\n    tag_395:\n        /* \"#utility.yul\":16886:17025   */\n      swap1\n      pop\n        /* \"#utility.yul\":16613:17032   */\n      swap2\n      swap1\n      pop\n      jump\t// out\n        /* \"#utility.yul\":17038:17267   */\n    tag_217:\n        /* \"#utility.yul\":17178:17212   */\n      0x596f75206861766520616c726561647920617070726f76656420746869732074\n        /* \"#utility.yul\":17174:17175   */\n      0x00\n        /* \"#utility.yul\":17166:17172   */\n      dup3\n        /* \"#utility.yul\":17162:17176   */\n      add\n        /* \"#utility.yul\":17155:17213   */\n      mstore\n        /* \"#utility.yul\":17247:17259   */\n      0x72616e736374696f6e2e00000000000000000000000000000000000000000000\n        /* \"#utility.yul\":17242:17244   */\n      0x20\n        /* \"#utility.yul\":17234:17240   */\n      dup3\n        /* \"#utility.yul\":17230:17245   */\n      add\n        /* \"#utility.yul\":17223:17260   */\n      mstore\n        /* \"#utility.yul\":17038:17267   */\n      pop\n      jump\t// out\n        /* \"#utility.yul\":17273:17639   */\n    tag_218:\n        /* \"#utility.yul\":17415:17418   */\n      0x00\n        /* \"#utility.yul\":17436:17503   */\n      tag_398\n        /* \"#utility.yul\":17500:17502   */\n      0x2a\n        /* \"#utility.yul\":17495:17498   */\n      dup4\n        /* \"#utility.yul\":17436:17503   */\n      tag_188\n      jump\t// in\n    tag_398:\n        /* \"#utility.yul\":17429:17503   */\n      swap2\n      pop\n        /* \"#utility.yul\":17512:17605   */\n      tag_399\n        /* \"#utility.yul\":17601:17604   */\n      dup3\n        /* \"#utility.yul\":17512:17605   */\n      tag_217\n      jump\t// in\n    tag_399:\n        /* \"#utility.yul\":17630:17632   */\n      0x40\n        /* \"#utility.yul\":17625:17628   */\n      dup3\n        /* \"#utility.yul\":17621:17633   */\n      add\n        /* \"#utility.yul\":17614:17633   */\n      swap1\n      pop\n        /* \"#utility.yul\":17273:17639   */\n      swap2\n      swap1\n      pop\n      jump\t// out\n        /* \"#utility.yul\":17645:18064   */\n    tag_118:\n        /* \"#utility.yul\":17811:17815   */\n      0x00\n        /* \"#utility.yul\":17849:17851   */\n      0x20\n        /* \"#utility.yul\":17838:17847   */\n      dup3\n        /* \"#utility.yul\":17834:17852   */\n      add\n        /* \"#utility.yul\":17826:17852   */\n      swap1\n      pop\n        /* \"#utility.yul\":17898:17907   */\n      dup2\n        /* \"#utility.yul\":17892:17896   */\n      dup2\n        /* \"#utility.yul\":17888:17908   */\n      sub\n        /* \"#utility.yul\":17884:17885   */\n      0x00\n        /* \"#utility.yul\":17873:17882   */\n      dup4\n        /* \"#utility.yul\":17869:17886   */\n      add\n        /* \"#utility.yul\":17862:17909   */\n      mstore\n        /* \"#utility.yul\":17926:18057   */\n      tag_401\n        /* \"#utility.yul\":18052:18056   */\n      dup2\n        /* \"#utility.yul\":17926:18057   */\n      tag_218\n      jump\t// in\n    tag_401:\n        /* \"#utility.yul\":17918:18057   */\n      swap1\n      pop\n        /* \"#utility.yul\":17645:18064   */\n      swap2\n      swap1\n      pop\n      jump\t// out\n        /* \"#utility.yul\":18070:18293   */\n    tag_219:\n        /* \"#utility.yul\":18210:18244   */\n      0x54686973207478496e646578206e65656473206d6f726520617070726f626174\n        /* \"#utility.yul\":18206:18207   */\n      0x00\n        /* \"#utility.yul\":18198:18204   */\n      dup3\n        /* \"#utility.yul\":18194:18208   */\n      add\n        /* \"#utility.yul\":18187:18245   */\n      mstore\n        /* \"#utility.yul\":18279:18285   */\n      0x696f6e7300000000000000000000000000000000000000000000000000000000\n        /* \"#utility.yul\":18274:18276   */\n      0x20\n        /* \"#utility.yul\":18266:18272   */\n      dup3\n        /* \"#utility.yul\":18262:18277   */\n      add\n        /* \"#utility.yul\":18255:18286   */\n      mstore\n        /* \"#utility.yul\":18070:18293   */\n      pop\n      jump\t// out\n        /* \"#utility.yul\":18299:18665   */\n    tag_220:\n        /* \"#utility.yul\":18441:18444   */\n      0x00\n        /* \"#utility.yul\":18462:18529   */\n      tag_404\n        /* \"#utility.yul\":18526:18528   */\n      0x24\n        /* \"#utility.yul\":18521:18524   */\n      dup4\n        /* \"#utility.yul\":18462:18529   */\n      tag_188\n      jump\t// in\n    tag_404:\n        /* \"#utility.yul\":18455:18529   */\n      swap2\n      pop\n        /* \"#utility.yul\":18538:18631   */\n      tag_405\n        /* \"#utility.yul\":18627:18630   */\n      dup3\n        /* \"#utility.yul\":18538:18631   */\n      tag_219\n      jump\t// in\n    tag_405:\n        /* \"#utility.yul\":18656:18658   */\n      0x40\n        /* \"#utility.yul\":18651:18654   */\n      dup3\n        /* \"#utility.yul\":18647:18659   */\n      add\n        /* \"#utility.yul\":18640:18659   */\n      swap1\n      pop\n        /* \"#utility.yul\":18299:18665   */\n      swap2\n      swap1\n      pop\n      jump\t// out\n        /* \"#utility.yul\":18671:19090   */\n    tag_141:\n        /* \"#utility.yul\":18837:18841   */\n      0x00\n        /* \"#utility.yul\":18875:18877   */\n      0x20\n        /* \"#utility.yul\":18864:18873   */\n      dup3\n        /* \"#utility.yul\":18860:18878   */\n      add\n        /* \"#utility.yul\":18852:18878   */\n      swap1\n      pop\n        /* \"#utility.yul\":18924:18933   */\n      dup2\n        /* \"#utility.yul\":18918:18922   */\n      dup2\n        /* \"#utility.yul\":18914:18934   */\n      sub\n        /* \"#utility.yul\":18910:18911   */\n      0x00\n        /* \"#utility.yul\":18899:18908   */\n      dup4\n        /* \"#utility.yul\":18895:18912   */\n      add\n        /* \"#utility.yul\":18888:18935   */\n      mstore\n        /* \"#utility.yul\":18952:19083   */\n      tag_407\n        /* \"#utility.yul\":19078:19082   */\n      dup2\n        /* \"#utility.yul\":18952:19083   */\n      tag_220\n      jump\t// in\n    tag_407:\n        /* \"#utility.yul\":18944:19083   */\n      swap1\n      pop\n        /* \"#utility.yul\":18671:19090   */\n      swap2\n      swap1\n      pop\n      jump\t// out\n        /* \"#utility.yul\":19096:19243   */\n    tag_221:\n        /* \"#utility.yul\":19197:19208   */\n      0x00\n        /* \"#utility.yul\":19234:19237   */\n      dup2\n        /* \"#utility.yul\":19219:19237   */\n      swap1\n      pop\n        /* \"#utility.yul\":19096:19243   */\n      swap3\n      swap2\n      pop\n      pop\n      jump\t// out\n        /* \"#utility.yul\":19271:20141   */\n    tag_222:\n        /* \"#utility.yul\":19372:19375   */\n      0x00\n        /* \"#utility.yul\":19409:19414   */\n      dup2\n        /* \"#utility.yul\":19403:19415   */\n      sload\n        /* \"#utility.yul\":19438:19474   */\n      tag_410\n        /* \"#utility.yul\":19464:19473   */\n      dup2\n        /* \"#utility.yul\":19438:19474   */\n      tag_102\n      jump\t// in\n    tag_410:\n        /* \"#utility.yul\":19490:19578   */\n      tag_411\n        /* \"#utility.yul\":19571:19577   */\n      dup2\n        /* \"#utility.yul\":19566:19569   */\n      dup7\n        /* \"#utility.yul\":19490:19578   */\n      tag_221\n      jump\t// in\n    tag_411:\n        /* \"#utility.yul\":19483:19578   */\n      swap5\n      pop\n        /* \"#utility.yul\":19609:19610   */\n      0x01\n        /* \"#utility.yul\":19598:19607   */\n      dup3\n        /* \"#utility.yul\":19594:19611   */\n      and\n        /* \"#utility.yul\":19625:19626   */\n      0x00\n        /* \"#utility.yul\":19620:19786   */\n      dup2\n      eq\n      tag_413\n      jumpi\n        /* \"#utility.yul\":19800:19801   */\n      0x01\n        /* \"#utility.yul\":19795:20135   */\n      dup2\n      eq\n      tag_414\n      jumpi\n        /* \"#utility.yul\":19587:20135   */\n      jump(tag_412)\n        /* \"#utility.yul\":19620:19786   */\n    tag_413:\n        /* \"#utility.yul\":19704:19708   */\n      0xff\n        /* \"#utility.yul\":19700:19709   */\n      not\n        /* \"#utility.yul\":19689:19698   */\n      dup4\n        /* \"#utility.yul\":19685:19710   */\n      and\n        /* \"#utility.yul\":19680:19683   */\n      dup7\n        /* \"#utility.yul\":19673:19711   */\n      mstore\n        /* \"#utility.yul\":19766:19772   */\n      dup2\n        /* \"#utility.yul\":19759:19773   */\n      iszero\n        /* \"#utility.yul\":19752:19774   */\n      iszero\n        /* \"#utility.yul\":19744:19750   */\n      dup3\n        /* \"#utility.yul\":19740:19775   */\n      mul\n        /* \"#utility.yul\":19735:19738   */\n      dup7\n        /* \"#utility.yul\":19731:19776   */\n      add\n        /* \"#utility.yul\":19724:19776   */\n      swap4\n      pop\n        /* \"#utility.yul\":19620:19786   */\n      jump(tag_412)\n        /* \"#utility.yul\":19795:20135   */\n    tag_414:\n        /* \"#utility.yul\":19862:19899   */\n      tag_415\n        /* \"#utility.yul\":19893:19898   */\n      dup6\n        /* \"#utility.yul\":19862:19899   */\n      tag_193\n      jump\t// in\n    tag_415:\n        /* \"#utility.yul\":19921:19922   */\n      0x00\n        /* \"#utility.yul\":19935:20089   */\n    tag_416:\n        /* \"#utility.yul\":19949:19955   */\n      dup4\n        /* \"#utility.yul\":19946:19947   */\n      dup2\n        /* \"#utility.yul\":19943:19956   */\n      lt\n        /* \"#utility.yul\":19935:20089   */\n      iszero\n      tag_418\n      jumpi\n        /* \"#utility.yul\":20023:20030   */\n      dup2\n        /* \"#utility.yul\":20017:20031   */\n      sload\n        /* \"#utility.yul\":20013:20014   */\n      dup2\n        /* \"#utility.yul\":20008:20011   */\n      dup10\n        /* \"#utility.yul\":20004:20015   */\n      add\n        /* \"#utility.yul\":19997:20032   */\n      mstore\n        /* \"#utility.yul\":20073:20074   */\n      0x01\n        /* \"#utility.yul\":20064:20071   */\n      dup3\n        /* \"#utility.yul\":20060:20075   */\n      add\n        /* \"#utility.yul\":20049:20075   */\n      swap2\n      pop\n        /* \"#utility.yul\":19971:19975   */\n      0x20\n        /* \"#utility.yul\":19968:19969   */\n      dup2\n        /* \"#utility.yul\":19964:19976   */\n      add\n        /* \"#utility.yul\":19959:19976   */\n      swap1\n      pop\n        /* \"#utility.yul\":19935:20089   */\n      jump(tag_416)\n    tag_418:\n        /* \"#utility.yul\":20118:20124   */\n      dup4\n        /* \"#utility.yul\":20113:20116   */\n      dup9\n        /* \"#utility.yul\":20109:20125   */\n      add\n        /* \"#utility.yul\":20102:20125   */\n      swap6\n      pop\n        /* \"#utility.yul\":19802:20135   */\n      pop\n      pop\n        /* \"#utility.yul\":19587:20135   */\n    tag_412:\n      pop\n        /* \"#utility.yul\":19376:20141   */\n      pop\n      pop\n        /* \"#utility.yul\":19271:20141   */\n      swap3\n      swap2\n      pop\n      pop\n      jump\t// out\n        /* \"#utility.yul\":20147:20412   */\n    tag_146:\n        /* \"#utility.yul\":20274:20277   */\n      0x00\n        /* \"#utility.yul\":20296:20386   */\n      tag_420\n        /* \"#utility.yul\":20382:20385   */\n      dup3\n        /* \"#utility.yul\":20373:20379   */\n      dup5\n        /* \"#utility.yul\":20296:20386   */\n      tag_222\n      jump\t// in\n    tag_420:\n        /* \"#utility.yul\":20289:20386   */\n      swap2\n      pop\n        /* \"#utility.yul\":20403:20406   */\n      dup2\n        /* \"#utility.yul\":20396:20406   */\n      swap1\n      pop\n        /* \"#utility.yul\":20147:20412   */\n      swap3\n      swap2\n      pop\n      pop\n      jump\t// out\n        /* \"#utility.yul\":20418:20592   */\n    tag_223:\n        /* \"#utility.yul\":20558:20584   */\n      0x65786563757465207472616e73616374696f6e206661696c0000000000000000\n        /* \"#utility.yul\":20554:20555   */\n      0x00\n        /* \"#utility.yul\":20546:20552   */\n      dup3\n        /* \"#utility.yul\":20542:20556   */\n      add\n        /* \"#utility.yul\":20535:20585   */\n      mstore\n        /* \"#utility.yul\":20418:20592   */\n      pop\n      jump\t// out\n        /* \"#utility.yul\":20598:20964   */\n    tag_224:\n        /* \"#utility.yul\":20740:20743   */\n      0x00\n        /* \"#utility.yul\":20761:20828   */\n      tag_423\n        /* \"#utility.yul\":20825:20827   */\n      0x18\n        /* \"#utility.yul\":20820:20823   */\n      dup4\n        /* \"#utility.yul\":20761:20828   */\n      tag_188\n      jump\t// in\n    tag_423:\n        /* \"#utility.yul\":20754:20828   */\n      swap2\n      pop\n        /* \"#utility.yul\":20837:20930   */\n      tag_424\n        /* \"#utility.yul\":20926:20929   */\n      dup3\n        /* \"#utility.yul\":20837:20930   */\n      tag_223\n      jump\t// in\n    tag_424:\n        /* \"#utility.yul\":20955:20957   */\n      0x20\n        /* \"#utility.yul\":20950:20953   */\n      dup3\n        /* \"#utility.yul\":20946:20958   */\n      add\n        /* \"#utility.yul\":20939:20958   */\n      swap1\n      pop\n        /* \"#utility.yul\":20598:20964   */\n      swap2\n      swap1\n      pop\n      jump\t// out\n        /* \"#utility.yul\":20970:21389   */\n    tag_152:\n        /* \"#utility.yul\":21136:21140   */\n      0x00\n        /* \"#utility.yul\":21174:21176   */\n      0x20\n        /* \"#utility.yul\":21163:21172   */\n      dup3\n        /* \"#utility.yul\":21159:21177   */\n      add\n        /* \"#utility.yul\":21151:21177   */\n      swap1\n      pop\n        /* \"#utility.yul\":21223:21232   */\n      dup2\n        /* \"#utility.yul\":21217:21221   */\n      dup2\n        /* \"#utility.yul\":21213:21233   */\n      sub\n        /* \"#utility.yul\":21209:21210   */\n      0x00\n        /* \"#utility.yul\":21198:21207   */\n      dup4\n        /* \"#utility.yul\":21194:21211   */\n      add\n        /* \"#utility.yul\":21187:21234   */\n      mstore\n        /* \"#utility.yul\":21251:21382   */\n      tag_426\n        /* \"#utility.yul\":21377:21381   */\n      dup2\n        /* \"#utility.yul\":21251:21382   */\n      tag_224\n      jump\t// in\n    tag_426:\n        /* \"#utility.yul\":21243:21382   */\n      swap1\n      pop\n        /* \"#utility.yul\":20970:21389   */\n      swap2\n      swap1\n      pop\n      jump\t// out\n        /* \"#utility.yul\":21395:21628   */\n    tag_164:\n        /* \"#utility.yul\":21434:21437   */\n      0x00\n        /* \"#utility.yul\":21457:21481   */\n      tag_428\n        /* \"#utility.yul\":21475:21480   */\n      dup3\n        /* \"#utility.yul\":21457:21481   */\n      tag_165\n      jump\t// in\n    tag_428:\n        /* \"#utility.yul\":21448:21481   */\n      swap2\n      pop\n        /* \"#utility.yul\":21503:21569   */\n      0xffffffffffffffffffffffffffffffffffffffffffffffffffffffffffffffff\n        /* \"#utility.yul\":21496:21501   */\n      dup3\n        /* \"#utility.yul\":21493:21570   */\n      sub\n        /* \"#utility.yul\":21490:21593   */\n      tag_429\n      jumpi\n        /* \"#utility.yul\":21573:21591   */\n      tag_430\n      tag_208\n      jump\t// in\n    tag_430:\n        /* \"#utility.yul\":21490:21593   */\n    tag_429:\n        /* \"#utility.yul\":21620:21621   */\n      0x01\n        /* \"#utility.yul\":21613:21618   */\n      dup3\n        /* \"#utility.yul\":21609:21622   */\n      add\n        /* \"#utility.yul\":21602:21622   */\n      swap1\n      pop\n        /* \"#utility.yul\":21395:21628   */\n      swap2\n      swap1\n      pop\n      jump\t// out\n\n    auxdata: 0xa264697066735822122092f3d0b096fcbcd7ad5f07fcae131336911489b0cc4e5fa5d8abdcb5e13a0aae64736f6c634300081a0033\n}\n",
				"bytecode": {
					"linkReferences": {},
					"object": "608060405234801561000f575f80fd5b5060405161215e38038061215e833981810160405281019061003191906104da565b5f825190505f8111610078576040517f08c379a000000000000000000000000000000000000000000000000000000000815260040161006f906105b4565b60405180910390fd5b5f82116100ba576040517f08c379a00000000000000000000000000000000000000000000000000000000081526004016100b190610642565b60405180910390fd5b808211156100fd576040517f08c379a00000000000000000000000000000000000000000000000000000000081526004016100f4906106d0565b60405180910390fd5b5f5b818110156102dc575f84828151811061011b5761011a6106ee565b5b602002602001015190505f73ffffffffffffffffffffffffffffffffffffffff168173ffffffffffffffffffffffffffffffffffffffff1603610193576040517f08c379a000000000000000000000000000000000000000000000000000000000815260040161018a90610765565b60405180910390fd5b60015f8273ffffffffffffffffffffffffffffffffffffffff1673ffffffffffffffffffffffffffffffffffffffff1681526020019081526020015f205f9054906101000a900460ff161561021d576040517f08c379a0000000000000000000000000000000000000000000000000000000008152600401610214906107cd565b60405180910390fd5b5f81908060018154018082558091505060019003905f5260205f20015f9091909190916101000a81548173ffffffffffffffffffffffffffffffffffffffff021916908373ffffffffffffffffffffffffffffffffffffffff1602179055506001805f8373ffffffffffffffffffffffffffffffffffffffff1673ffffffffffffffffffffffffffffffffffffffff1681526020019081526020015f205f6101000a81548160ff021916908315150217905550508060010190506100ff565b50816002819055505050506107eb565b5f604051905090565b5f80fd5b5f80fd5b5f80fd5b5f601f19601f8301169050919050565b7f4e487b71000000000000000000000000000000000000000000000000000000005f52604160045260245ffd5b61034782610301565b810181811067ffffffffffffffff8211171561036657610365610311565b5b80604052505050565b5f6103786102ec565b9050610384828261033e565b919050565b5f67ffffffffffffffff8211156103a3576103a2610311565b5b602082029050602081019050919050565b5f80fd5b5f73ffffffffffffffffffffffffffffffffffffffff82169050919050565b5f6103e1826103b8565b9050919050565b6103f1816103d7565b81146103fb575f80fd5b50565b5f8151905061040c816103e8565b92915050565b5f61042461041f84610389565b61036f565b90508083825260208201905060208402830185811115610447576104466103b4565b5b835b81811015610470578061045c88826103fe565b845260208401935050602081019050610449565b5050509392505050565b5f82601f83011261048e5761048d6102fd565b5b815161049e848260208601610412565b91505092915050565b5f819050919050565b6104b9816104a7565b81146104c3575f80fd5b50565b5f815190506104d4816104b0565b92915050565b5f80604083850312156104f0576104ef6102f5565b5b5f83015167ffffffffffffffff81111561050d5761050c6102f9565b5b6105198582860161047a565b925050602061052a858286016104c6565b9150509250929050565b5f82825260208201905092915050565b7f4174206c65617365206f6e65206f776e65722073686f756c6420626520696e695f8201527f7469616c697a6564000000000000000000000000000000000000000000000000602082015250565b5f61059e602883610534565b91506105a982610544565b604082019050919050565b5f6020820190508181035f8301526105cb81610592565b9050919050565b7f7265717569726520617070726f766564206e756d6265722073686f756c64203e5f8201527f2030000000000000000000000000000000000000000000000000000000000000602082015250565b5f61062c602283610534565b9150610637826105d2565b604082019050919050565b5f6020820190508181035f83015261065981610620565b9050919050565b7f72657175697265732073686f756c64206265206e6f206d6f7265207468616e205f8201527f746865206f776e65727300000000000000000000000000000000000000000000602082015250565b5f6106ba602a83610534565b91506106c582610660565b604082019050919050565b5f6020820190508181035f8301526106e7816106ae565b9050919050565b7f4e487b71000000000000000000000000000000000000000000000000000000005f52603260045260245ffd5b7f616464726573732030206e6f742076616c6964000000000000000000000000005f82015250565b5f61074f601383610534565b915061075a8261071b565b602082019050919050565b5f6020820190508181035f83015261077c81610743565b9050919050565b7f6f776e6572206475706c696361746564000000000000000000000000000000005f82015250565b5f6107b7601083610534565b91506107c282610783565b602082019050919050565b5f6020820190508181035f8301526107e4816107ab565b9050919050565b611966806107f85f395ff3fe60806040526004361061007e575f3560e01c80634446630d1161004d5780634446630d146101c7578063b759f95414610206578063dc8452cd14610242578063fe0d94c11461026c576100d3565b8063025e7c27146100d757806314de327f1461011357806320c5429b1461014f5780632f54bf6e1461018b576100d3565b366100d3573373ffffffffffffffffffffffffffffffffffffffff167fe1fffcc4923d04b559f4d29a8bfc6cda04eb5b0d3c460751c2402c5c5cc9109c346040516100c99190610e38565b60405180910390a2005b5f80fd5b3480156100e2575f80fd5b506100fd60048036038101906100f89190610e83565b6102a8565b60405161010a9190610eed565b60405180910390f35b34801561011e575f80fd5b5061013960048036038101906101349190610f91565b6102e2565b604051610146919061101c565b60405180910390f35b34801561015a575f80fd5b5061017560048036038101906101709190610e83565b6104b4565b604051610182919061101c565b60405180910390f35b348015610196575f80fd5b506101b160048036038101906101ac9190611035565b61070d565b6040516101be919061101c565b60405180910390f35b3480156101d2575f80fd5b506101ed60048036038101906101e89190610e83565b61072a565b6040516101fd94939291906110d0565b60405180910390f35b348015610211575f80fd5b5061022c60048036038101906102279190610e83565b610816565b604051610239919061101c565b60405180910390f35b34801561024d575f80fd5b50610256610a71565b6040516102639190610e38565b60405180910390f35b348015610277575f80fd5b50610292600480360381019061028d9190610e83565b610a77565b60405161029f919061101c565b60405180910390f35b5f81815481106102b6575f80fd5b905f5260205f20015f915054906101000a900473ffffffffffffffffffffffffffffffffffffffff1681565b5f6102ec33610ce2565b61032b576040517f08c379a000000000000000000000000000000000000000000000000000000000815260040161032290611174565b60405180910390fd5b5f60405180608001604052808773ffffffffffffffffffffffffffffffffffffffff16815260200186815260200185858080601f0160208091040260200160405190810160405280939291908181526020018383808284375f81840152601f19601f8201169050808301925050505050505081526020015f15158152509050600381908060018154018082558091505060019003905f5260205f2090600402015f909190919091505f820151815f015f6101000a81548173ffffffffffffffffffffffffffffffffffffffff021916908373ffffffffffffffffffffffffffffffffffffffff16021790555060208201518160010155604082015181600201908161043691906113b9565b506060820151816003015f6101000a81548160ff0219169083151502179055505050600160038054905061046a91906114b5565b7f7db432c67f1d1fc67a6efc8e24cf224f9ae9fc5d7f333e7f2a6f75379a8f135e8787878760405161049f9493929190611522565b60405180910390a26001915050949350505050565b5f6104be33610ce2565b6104fd576040517f08c379a00000000000000000000000000000000000000000000000000000000081526004016104f490611174565b60405180910390fd5b8161050781610d34565b610546576040517f08c379a000000000000000000000000000000000000000000000000000000000815260040161053d906115aa565b60405180910390fd5b825f15156003828154811061055e5761055d6115c8565b5b905f5260205f2090600402016003015f9054906101000a900460ff161515146105bc576040517f08c379a00000000000000000000000000000000000000000000000000000000081526004016105b39061163f565b60405180910390fd5b6001151560045f8681526020019081526020015f205f3373ffffffffffffffffffffffffffffffffffffffff1673ffffffffffffffffffffffffffffffffffffffff1681526020019081526020015f205f9054906101000a900460ff1615151461065b576040517f08c379a0000000000000000000000000000000000000000000000000000000008152600401610652906116a7565b60405180910390fd5b5f60045f8681526020019081526020015f205f3373ffffffffffffffffffffffffffffffffffffffff1673ffffffffffffffffffffffffffffffffffffffff1681526020019081526020015f205f6101000a81548160ff021916908315150217905550833373ffffffffffffffffffffffffffffffffffffffff167fb4b3fe19795269f5d157c6f9469a0dd772aacbf45168826417750298ee9a6e9360405160405180910390a3600192505050919050565b6001602052805f5260405f205f915054906101000a900460ff1681565b60038181548110610739575f80fd5b905f5260205f2090600402015f91509050805f015f9054906101000a900473ffffffffffffffffffffffffffffffffffffffff1690806001015490806002018054610783906111ec565b80601f01602080910402602001604051908101604052809291908181526020018280546107af906111ec565b80156107fa5780601f106107d1576101008083540402835291602001916107fa565b820191905f5260205f20905b8154815290600101906020018083116107dd57829003601f168201915b505050505090806003015f9054906101000a900460ff16905084565b5f61082033610ce2565b61085f576040517f08c379a000000000000000000000000000000000000000000000000000000000815260040161085690611174565b60405180910390fd5b8161086981610d34565b6108a8576040517f08c379a000000000000000000000000000000000000000000000000000000000815260040161089f906115aa565b60405180910390fd5b825f151560045f8381526020019081526020015f205f3373ffffffffffffffffffffffffffffffffffffffff1673ffffffffffffffffffffffffffffffffffffffff1681526020019081526020015f205f9054906101000a900460ff16151514610947576040517f08c379a000000000000000000000000000000000000000000000000000000000815260040161093e90611735565b60405180910390fd5b835f15156003828154811061095f5761095e6115c8565b5b905f5260205f2090600402016003015f9054906101000a900460ff161515146109bd576040517f08c379a00000000000000000000000000000000000000000000000000000000081526004016109b49061163f565b60405180910390fd5b600160045f8781526020019081526020015f205f3373ffffffffffffffffffffffffffffffffffffffff1673ffffffffffffffffffffffffffffffffffffffff1681526020019081526020015f205f6101000a81548160ff021916908315150217905550843373ffffffffffffffffffffffffffffffffffffffff167f945242f7e1728d98aaa75300f98846a7cd4a996e7a22a4e23963ffaf0210e64e60405160405180910390a360019350505050919050565b60025481565b5f81610a8281610d34565b610ac1576040517f08c379a0000000000000000000000000000000000000000000000000000000008152600401610ab8906115aa565b60405180910390fd5b825f151560038281548110610ad957610ad86115c8565b5b905f5260205f2090600402016003015f9054906101000a900460ff16151514610b37576040517f08c379a0000000000000000000000000000000000000000000000000000000008152600401610b2e9061163f565b60405180910390fd5b610b4084610d44565b610b7f576040517f08c379a0000000000000000000000000000000000000000000000000000000008152600401610b76906117c3565b60405180910390fd5b5f60038581548110610b9457610b936115c8565b5b905f5260205f20906004020190506001816003015f6101000a81548160ff0219169083151502179055505f815f015f9054906101000a900473ffffffffffffffffffffffffffffffffffffffff1673ffffffffffffffffffffffffffffffffffffffff16826001015483600201604051610c0e919061186b565b5f6040518083038185875af1925050503d805f8114610c48576040519150601f19603f3d011682016040523d82523d5f602084013e610c4d565b606091505b5050905080610c91576040517f08c379a0000000000000000000000000000000000000000000000000000000008152600401610c88906118cb565b60405180910390fd5b853373ffffffffffffffffffffffffffffffffffffffff167f39bf31f4588071daaa9c395053bda7fb7fab807ac7e3d18f77dc5a6322423eba60405160405180910390a36001945050505050919050565b5f60015f8373ffffffffffffffffffffffffffffffffffffffff1673ffffffffffffffffffffffffffffffffffffffff1681526020019081526020015f205f9054906101000a900460ff169050919050565b5f60038054905082109050919050565b5f805f8054905090505f805b82811015610e10576001151560045f8781526020019081526020015f205f808481548110610d8157610d806115c8565b5b905f5260205f20015f9054906101000a900473ffffffffffffffffffffffffffffffffffffffff1673ffffffffffffffffffffffffffffffffffffffff1673ffffffffffffffffffffffffffffffffffffffff1681526020019081526020015f205f9054906101000a900460ff16151503610e05578180610e01906118e9565b9250505b806001019050610d50565b5060025481101592505050919050565b5f819050919050565b610e3281610e20565b82525050565b5f602082019050610e4b5f830184610e29565b92915050565b5f80fd5b5f80fd5b610e6281610e20565b8114610e6c575f80fd5b50565b5f81359050610e7d81610e59565b92915050565b5f60208284031215610e9857610e97610e51565b5b5f610ea584828501610e6f565b91505092915050565b5f73ffffffffffffffffffffffffffffffffffffffff82169050919050565b5f610ed782610eae565b9050919050565b610ee781610ecd565b82525050565b5f602082019050610f005f830184610ede565b92915050565b610f0f81610ecd565b8114610f19575f80fd5b50565b5f81359050610f2a81610f06565b92915050565b5f80fd5b5f80fd5b5f80fd5b5f8083601f840112610f5157610f50610f30565b5b8235905067ffffffffffffffff811115610f6e57610f6d610f34565b5b602083019150836001820283011115610f8a57610f89610f38565b5b9250929050565b5f805f8060608587031215610fa957610fa8610e51565b5b5f610fb687828801610f1c565b9450506020610fc787828801610e6f565b935050604085013567ffffffffffffffff811115610fe857610fe7610e55565b5b610ff487828801610f3c565b925092505092959194509250565b5f8115159050919050565b61101681611002565b82525050565b5f60208201905061102f5f83018461100d565b92915050565b5f6020828403121561104a57611049610e51565b5b5f61105784828501610f1c565b91505092915050565b5f81519050919050565b5f82825260208201905092915050565b8281835e5f83830152505050565b5f601f19601f8301169050919050565b5f6110a282611060565b6110ac818561106a565b93506110bc81856020860161107a565b6110c581611088565b840191505092915050565b5f6080820190506110e35f830187610ede565b6110f06020830186610e29565b81810360408301526111028185611098565b9050611111606083018461100d565b95945050505050565b5f82825260208201905092915050565b7f4f6e6c79206f776e657220616c6c6f7765642e000000000000000000000000005f82015250565b5f61115e60138361111a565b91506111698261112a565b602082019050919050565b5f6020820190508181035f83015261118b81611152565b9050919050565b7f4e487b71000000000000000000000000000000000000000000000000000000005f52604160045260245ffd5b7f4e487b71000000000000000000000000000000000000000000000000000000005f52602260045260245ffd5b5f600282049050600182168061120357607f821691505b602082108103611216576112156111bf565b5b50919050565b5f819050815f5260205f209050919050565b5f6020601f8301049050919050565b5f82821b905092915050565b5f600883026112787fffffffffffffffffffffffffffffffffffffffffffffffffffffffffffffffff8261123d565b611282868361123d565b95508019841693508086168417925050509392505050565b5f819050919050565b5f6112bd6112b86112b384610e20565b61129a565b610e20565b9050919050565b5f819050919050565b6112d6836112a3565b6112ea6112e2826112c4565b848454611249565b825550505050565b5f90565b6112fe6112f2565b6113098184846112cd565b505050565b5b8181101561132c576113215f826112f6565b60018101905061130f565b5050565b601f821115611371576113428161121c565b61134b8461122e565b8101602085101561135a578190505b61136e6113668561122e565b83018261130e565b50505b505050565b5f82821c905092915050565b5f6113915f1984600802611376565b1980831691505092915050565b5f6113a98383611382565b9150826002028217905092915050565b6113c282611060565b67ffffffffffffffff8111156113db576113da611192565b5b6113e582546111ec565b6113f0828285611330565b5f60209050601f831160018114611421575f841561140f578287015190505b611419858261139e565b865550611480565b601f19841661142f8661121c565b5f5b8281101561145657848901518255600182019150602085019450602081019050611431565b86831015611473578489015161146f601f891682611382565b8355505b6001600288020188555050505b505050505050565b7f4e487b71000000000000000000000000000000000000000000000000000000005f52601160045260245ffd5b5f6114bf82610e20565b91506114ca83610e20565b92508282039050818111156114e2576114e1611488565b5b92915050565b828183375f83830152505050565b5f611501838561106a565b935061150e8385846114e8565b61151783611088565b840190509392505050565b5f6060820190506115355f830187610ede565b6115426020830186610e29565b81810360408301526115558184866114f6565b905095945050505050565b7f54686520747820696e646578206f7574206f662072616e6765000000000000005f82015250565b5f61159460198361111a565b915061159f82611560565b602082019050919050565b5f6020820190508181035f8301526115c181611588565b9050919050565b7f4e487b71000000000000000000000000000000000000000000000000000000005f52603260045260245ffd5b7f546869732074782068617320636f6d706c6574656400000000000000000000005f82015250565b5f61162960158361111a565b9150611634826115f5565b602082019050919050565b5f6020820190508181035f8301526116568161161d565b9050919050565b7f596f75206469646e277420617070726f766520746869732074782e00000000005f82015250565b5f611691601b8361111a565b915061169c8261165d565b602082019050919050565b5f6020820190508181035f8301526116be81611685565b9050919050565b7f596f75206861766520616c726561647920617070726f766564207468697320745f8201527f72616e736374696f6e2e00000000000000000000000000000000000000000000602082015250565b5f61171f602a8361111a565b915061172a826116c5565b604082019050919050565b5f6020820190508181035f83015261174c81611713565b9050919050565b7f54686973207478496e646578206e65656473206d6f726520617070726f6261745f8201527f696f6e7300000000000000000000000000000000000000000000000000000000602082015250565b5f6117ad60248361111a565b91506117b882611753565b604082019050919050565b5f6020820190508181035f8301526117da816117a1565b9050919050565b5f81905092915050565b5f81546117f7816111ec565b61180181866117e1565b9450600182165f811461181b576001811461183057611862565b60ff1983168652811515820286019350611862565b6118398561121c565b5f5b8381101561185a5781548189015260018201915060208101905061183b565b838801955050505b50505092915050565b5f61187682846117eb565b915081905092915050565b7f65786563757465207472616e73616374696f6e206661696c00000000000000005f82015250565b5f6118b560188361111a565b91506118c082611881565b602082019050919050565b5f6020820190508181035f8301526118e2816118a9565b9050919050565b5f6118f382610e20565b91507fffffffffffffffffffffffffffffffffffffffffffffffffffffffffffffffff820361192557611924611488565b5b60018201905091905056fea264697066735822122092f3d0b096fcbcd7ad5f07fcae131336911489b0cc4e5fa5d8abdcb5e13a0aae64736f6c634300081a0033",
					"opcodes": "PUSH1 0x80 PUSH1 0x40 MSTORE CALLVALUE DUP1 ISZERO PUSH2 0xF JUMPI PUSH0 DUP1 REVERT JUMPDEST POP PUSH1 0x40 MLOAD PUSH2 0x215E CODESIZE SUB DUP1 PUSH2 0x215E DUP4 CODECOPY DUP2 DUP2 ADD PUSH1 0x40 MSTORE DUP2 ADD SWAP1 PUSH2 0x31 SWAP2 SWAP1 PUSH2 0x4DA JUMP JUMPDEST PUSH0 DUP3 MLOAD SWAP1 POP PUSH0 DUP2 GT PUSH2 0x78 JUMPI PUSH1 0x40 MLOAD PUSH32 0x8C379A000000000000000000000000000000000000000000000000000000000 DUP2 MSTORE PUSH1 0x4 ADD PUSH2 0x6F SWAP1 PUSH2 0x5B4 JUMP JUMPDEST PUSH1 0x40 MLOAD DUP1 SWAP2 SUB SWAP1 REVERT JUMPDEST PUSH0 DUP3 GT PUSH2 0xBA JUMPI PUSH1 0x40 MLOAD PUSH32 0x8C379A000000000000000000000000000000000000000000000000000000000 DUP2 MSTORE PUSH1 0x4 ADD PUSH2 0xB1 SWAP1 PUSH2 0x642 JUMP JUMPDEST PUSH1 0x40 MLOAD DUP1 SWAP2 SUB SWAP1 REVERT JUMPDEST DUP1 DUP3 GT ISZERO PUSH2 0xFD JUMPI PUSH1 0x40 MLOAD PUSH32 0x8C379A000000000000000000000000000000000000000000000000000000000 DUP2 MSTORE PUSH1 0x4 ADD PUSH2 0xF4 SWAP1 PUSH2 0x6D0 JUMP JUMPDEST PUSH1 0x40 MLOAD DUP1 SWAP2 SUB SWAP1 REVERT JUMPDEST PUSH0 JUMPDEST DUP2 DUP2 LT ISZERO PUSH2 0x2DC JUMPI PUSH0 DUP5 DUP3 DUP2 MLOAD DUP2 LT PUSH2 0x11B JUMPI PUSH2 0x11A PUSH2 0x6EE JUMP JUMPDEST JUMPDEST PUSH1 0x20 MUL PUSH1 0x20 ADD ADD MLOAD SWAP1 POP PUSH0 PUSH20 0xFFFFFFFFFFFFFFFFFFFFFFFFFFFFFFFFFFFFFFFF AND DUP2 PUSH20 0xFFFFFFFFFFFFFFFFFFFFFFFFFFFFFFFFFFFFFFFF AND SUB PUSH2 0x193 JUMPI PUSH1 0x40 MLOAD PUSH32 0x8C379A000000000000000000000000000000000000000000000000000000000 DUP2 MSTORE PUSH1 0x4 ADD PUSH2 0x18A SWAP1 PUSH2 0x765 JUMP JUMPDEST PUSH1 0x40 MLOAD DUP1 SWAP2 SUB SWAP1 REVERT JUMPDEST PUSH1 0x1 PUSH0 DUP3 PUSH20 0xFFFFFFFFFFFFFFFFFFFFFFFFFFFFFFFFFFFFFFFF AND PUSH20 0xFFFFFFFFFFFFFFFFFFFFFFFFFFFFFFFFFFFFFFFF AND DUP2 MSTORE PUSH1 0x20 ADD SWAP1 DUP2 MSTORE PUSH1 0x20 ADD PUSH0 KECCAK256 PUSH0 SWAP1 SLOAD SWAP1 PUSH2 0x100 EXP SWAP1 DIV PUSH1 0xFF AND ISZERO PUSH2 0x21D JUMPI PUSH1 0x40 MLOAD PUSH32 0x8C379A000000000000000000000000000000000000000000000000000000000 DUP2 MSTORE PUSH1 0x4 ADD PUSH2 0x214 SWAP1 PUSH2 0x7CD JUMP JUMPDEST PUSH1 0x40 MLOAD DUP1 SWAP2 SUB SWAP1 REVERT JUMPDEST PUSH0 DUP2 SWAP1 DUP1 PUSH1 0x1 DUP2 SLOAD ADD DUP1 DUP3 SSTORE DUP1 SWAP2 POP POP PUSH1 0x1 SWAP1 SUB SWAP1 PUSH0 MSTORE PUSH1 0x20 PUSH0 KECCAK256 ADD PUSH0 SWAP1 SWAP2 SWAP1 SWAP2 SWAP1 SWAP2 PUSH2 0x100 EXP DUP2 SLOAD DUP2 PUSH20 0xFFFFFFFFFFFFFFFFFFFFFFFFFFFFFFFFFFFFFFFF MUL NOT AND SWAP1 DUP4 PUSH20 0xFFFFFFFFFFFFFFFFFFFFFFFFFFFFFFFFFFFFFFFF AND MUL OR SWAP1 SSTORE POP PUSH1 0x1 DUP1 PUSH0 DUP4 PUSH20 0xFFFFFFFFFFFFFFFFFFFFFFFFFFFFFFFFFFFFFFFF AND PUSH20 0xFFFFFFFFFFFFFFFFFFFFFFFFFFFFFFFFFFFFFFFF AND DUP2 MSTORE PUSH1 0x20 ADD SWAP1 DUP2 MSTORE PUSH1 0x20 ADD PUSH0 KECCAK256 PUSH0 PUSH2 0x100 EXP DUP2 SLOAD DUP2 PUSH1 0xFF MUL NOT AND SWAP1 DUP4 ISZERO ISZERO MUL OR SWAP1 SSTORE POP POP DUP1 PUSH1 0x1 ADD SWAP1 POP PUSH2 0xFF JUMP JUMPDEST POP DUP2 PUSH1 0x2 DUP2 SWAP1 SSTORE POP POP POP POP PUSH2 0x7EB JUMP JUMPDEST PUSH0 PUSH1 0x40 MLOAD SWAP1 POP SWAP1 JUMP JUMPDEST PUSH0 DUP1 REVERT JUMPDEST PUSH0 DUP1 REVERT JUMPDEST PUSH0 DUP1 REVERT JUMPDEST PUSH0 PUSH1 0x1F NOT PUSH1 0x1F DUP4 ADD AND SWAP1 POP SWAP2 SWAP1 POP JUMP JUMPDEST PUSH32 0x4E487B7100000000000000000000000000000000000000000000000000000000 PUSH0 MSTORE PUSH1 0x41 PUSH1 0x4 MSTORE PUSH1 0x24 PUSH0 REVERT JUMPDEST PUSH2 0x347 DUP3 PUSH2 0x301 JUMP JUMPDEST DUP2 ADD DUP2 DUP2 LT PUSH8 0xFFFFFFFFFFFFFFFF DUP3 GT OR ISZERO PUSH2 0x366 JUMPI PUSH2 0x365 PUSH2 0x311 JUMP JUMPDEST JUMPDEST DUP1 PUSH1 0x40 MSTORE POP POP POP JUMP JUMPDEST PUSH0 PUSH2 0x378 PUSH2 0x2EC JUMP JUMPDEST SWAP1 POP PUSH2 0x384 DUP3 DUP3 PUSH2 0x33E JUMP JUMPDEST SWAP2 SWAP1 POP JUMP JUMPDEST PUSH0 PUSH8 0xFFFFFFFFFFFFFFFF DUP3 GT ISZERO PUSH2 0x3A3 JUMPI PUSH2 0x3A2 PUSH2 0x311 JUMP JUMPDEST JUMPDEST PUSH1 0x20 DUP3 MUL SWAP1 POP PUSH1 0x20 DUP2 ADD SWAP1 POP SWAP2 SWAP1 POP JUMP JUMPDEST PUSH0 DUP1 REVERT JUMPDEST PUSH0 PUSH20 0xFFFFFFFFFFFFFFFFFFFFFFFFFFFFFFFFFFFFFFFF DUP3 AND SWAP1 POP SWAP2 SWAP1 POP JUMP JUMPDEST PUSH0 PUSH2 0x3E1 DUP3 PUSH2 0x3B8 JUMP JUMPDEST SWAP1 POP SWAP2 SWAP1 POP JUMP JUMPDEST PUSH2 0x3F1 DUP2 PUSH2 0x3D7 JUMP JUMPDEST DUP2 EQ PUSH2 0x3FB JUMPI PUSH0 DUP1 REVERT JUMPDEST POP JUMP JUMPDEST PUSH0 DUP2 MLOAD SWAP1 POP PUSH2 0x40C DUP2 PUSH2 0x3E8 JUMP JUMPDEST SWAP3 SWAP2 POP POP JUMP JUMPDEST PUSH0 PUSH2 0x424 PUSH2 0x41F DUP5 PUSH2 0x389 JUMP JUMPDEST PUSH2 0x36F JUMP JUMPDEST SWAP1 POP DUP1 DUP4 DUP3 MSTORE PUSH1 0x20 DUP3 ADD SWAP1 POP PUSH1 0x20 DUP5 MUL DUP4 ADD DUP6 DUP2 GT ISZERO PUSH2 0x447 JUMPI PUSH2 0x446 PUSH2 0x3B4 JUMP JUMPDEST JUMPDEST DUP4 JUMPDEST DUP2 DUP2 LT ISZERO PUSH2 0x470 JUMPI DUP1 PUSH2 0x45C DUP9 DUP3 PUSH2 0x3FE JUMP JUMPDEST DUP5 MSTORE PUSH1 0x20 DUP5 ADD SWAP4 POP POP PUSH1 0x20 DUP2 ADD SWAP1 POP PUSH2 0x449 JUMP JUMPDEST POP POP POP SWAP4 SWAP3 POP POP POP JUMP JUMPDEST PUSH0 DUP3 PUSH1 0x1F DUP4 ADD SLT PUSH2 0x48E JUMPI PUSH2 0x48D PUSH2 0x2FD JUMP JUMPDEST JUMPDEST DUP2 MLOAD PUSH2 0x49E DUP5 DUP3 PUSH1 0x20 DUP7 ADD PUSH2 0x412 JUMP JUMPDEST SWAP2 POP POP SWAP3 SWAP2 POP POP JUMP JUMPDEST PUSH0 DUP2 SWAP1 POP SWAP2 SWAP1 POP JUMP JUMPDEST PUSH2 0x4B9 DUP2 PUSH2 0x4A7 JUMP JUMPDEST DUP2 EQ PUSH2 0x4C3 JUMPI PUSH0 DUP1 REVERT JUMPDEST POP JUMP JUMPDEST PUSH0 DUP2 MLOAD SWAP1 POP PUSH2 0x4D4 DUP2 PUSH2 0x4B0 JUMP JUMPDEST SWAP3 SWAP2 POP POP JUMP JUMPDEST PUSH0 DUP1 PUSH1 0x40 DUP4 DUP6 SUB SLT ISZERO PUSH2 0x4F0 JUMPI PUSH2 0x4EF PUSH2 0x2F5 JUMP JUMPDEST JUMPDEST PUSH0 DUP4 ADD MLOAD PUSH8 0xFFFFFFFFFFFFFFFF DUP2 GT ISZERO PUSH2 0x50D JUMPI PUSH2 0x50C PUSH2 0x2F9 JUMP JUMPDEST JUMPDEST PUSH2 0x519 DUP6 DUP3 DUP7 ADD PUSH2 0x47A JUMP JUMPDEST SWAP3 POP POP PUSH1 0x20 PUSH2 0x52A DUP6 DUP3 DUP7 ADD PUSH2 0x4C6 JUMP JUMPDEST SWAP2 POP POP SWAP3 POP SWAP3 SWAP1 POP JUMP JUMPDEST PUSH0 DUP3 DUP3 MSTORE PUSH1 0x20 DUP3 ADD SWAP1 POP SWAP3 SWAP2 POP POP JUMP JUMPDEST PUSH32 0x4174206C65617365206F6E65206F776E65722073686F756C6420626520696E69 PUSH0 DUP3 ADD MSTORE PUSH32 0x7469616C697A6564000000000000000000000000000000000000000000000000 PUSH1 0x20 DUP3 ADD MSTORE POP JUMP JUMPDEST PUSH0 PUSH2 0x59E PUSH1 0x28 DUP4 PUSH2 0x534 JUMP JUMPDEST SWAP2 POP PUSH2 0x5A9 DUP3 PUSH2 0x544 JUMP JUMPDEST PUSH1 0x40 DUP3 ADD SWAP1 POP SWAP2 SWAP1 POP JUMP JUMPDEST PUSH0 PUSH1 0x20 DUP3 ADD SWAP1 POP DUP2 DUP2 SUB PUSH0 DUP4 ADD MSTORE PUSH2 0x5CB DUP2 PUSH2 0x592 JUMP JUMPDEST SWAP1 POP SWAP2 SWAP1 POP JUMP JUMPDEST PUSH32 0x7265717569726520617070726F766564206E756D6265722073686F756C64203E PUSH0 DUP3 ADD MSTORE PUSH32 0x2030000000000000000000000000000000000000000000000000000000000000 PUSH1 0x20 DUP3 ADD MSTORE POP JUMP JUMPDEST PUSH0 PUSH2 0x62C PUSH1 0x22 DUP4 PUSH2 0x534 JUMP JUMPDEST SWAP2 POP PUSH2 0x637 DUP3 PUSH2 0x5D2 JUMP JUMPDEST PUSH1 0x40 DUP3 ADD SWAP1 POP SWAP2 SWAP1 POP JUMP JUMPDEST PUSH0 PUSH1 0x20 DUP3 ADD SWAP1 POP DUP2 DUP2 SUB PUSH0 DUP4 ADD MSTORE PUSH2 0x659 DUP2 PUSH2 0x620 JUMP JUMPDEST SWAP1 POP SWAP2 SWAP1 POP JUMP JUMPDEST PUSH32 0x72657175697265732073686F756C64206265206E6F206D6F7265207468616E20 PUSH0 DUP3 ADD MSTORE PUSH32 0x746865206F776E65727300000000000000000000000000000000000000000000 PUSH1 0x20 DUP3 ADD MSTORE POP JUMP JUMPDEST PUSH0 PUSH2 0x6BA PUSH1 0x2A DUP4 PUSH2 0x534 JUMP JUMPDEST SWAP2 POP PUSH2 0x6C5 DUP3 PUSH2 0x660 JUMP JUMPDEST PUSH1 0x40 DUP3 ADD SWAP1 POP SWAP2 SWAP1 POP JUMP JUMPDEST PUSH0 PUSH1 0x20 DUP3 ADD SWAP1 POP DUP2 DUP2 SUB PUSH0 DUP4 ADD MSTORE PUSH2 0x6E7 DUP2 PUSH2 0x6AE JUMP JUMPDEST SWAP1 POP SWAP2 SWAP1 POP JUMP JUMPDEST PUSH32 0x4E487B7100000000000000000000000000000000000000000000000000000000 PUSH0 MSTORE PUSH1 0x32 PUSH1 0x4 MSTORE PUSH1 0x24 PUSH0 REVERT JUMPDEST PUSH32 0x616464726573732030206E6F742076616C696400000000000000000000000000 PUSH0 DUP3 ADD MSTORE POP JUMP JUMPDEST PUSH0 PUSH2 0x74F PUSH1 0x13 DUP4 PUSH2 0x534 JUMP JUMPDEST SWAP2 POP PUSH2 0x75A DUP3 PUSH2 0x71B JUMP JUMPDEST PUSH1 0x20 DUP3 ADD SWAP1 POP SWAP2 SWAP1 POP JUMP JUMPDEST PUSH0 PUSH1 0x20 DUP3 ADD SWAP1 POP DUP2 DUP2 SUB PUSH0 DUP4 ADD MSTORE PUSH2 0x77C DUP2 PUSH2 0x743 JUMP JUMPDEST SWAP1 POP SWAP2 SWAP1 POP JUMP JUMPDEST PUSH32 0x6F776E6572206475706C69636174656400000000000000000000000000000000 PUSH0 DUP3 ADD MSTORE POP JUMP JUMPDEST PUSH0 PUSH2 0x7B7 PUSH1 0x10 DUP4 PUSH2 0x534 JUMP JUMPDEST SWAP2 POP PUSH2 0x7C2 DUP3 PUSH2 0x783 JUMP JUMPDEST PUSH1 0x20 DUP3 ADD SWAP1 POP SWAP2 SWAP1 POP JUMP JUMPDEST PUSH0 PUSH1 0x20 DUP3 ADD SWAP1 POP DUP2 DUP2 SUB PUSH0 DUP4 ADD MSTORE PUSH2 0x7E4 DUP2 PUSH2 0x7AB JUMP JUMPDEST SWAP1 POP SWAP2 SWAP1 POP JUMP JUMPDEST PUSH2 0x1966 DUP1 PUSH2 0x7F8 PUSH0 CODECOPY PUSH0 RETURN INVALID PUSH1 0x80 PUSH1 0x40 MSTORE PUSH1 0x4 CALLDATASIZE LT PUSH2 0x7E JUMPI PUSH0 CALLDATALOAD PUSH1 0xE0 SHR DUP1 PUSH4 0x4446630D GT PUSH2 0x4D JUMPI DUP1 PUSH4 0x4446630D EQ PUSH2 0x1C7 JUMPI DUP1 PUSH4 0xB759F954 EQ PUSH2 0x206 JUMPI DUP1 PUSH4 0xDC8452CD EQ PUSH2 0x242 JUMPI DUP1 PUSH4 0xFE0D94C1 EQ PUSH2 0x26C JUMPI PUSH2 0xD3 JUMP JUMPDEST DUP1 PUSH4 0x25E7C27 EQ PUSH2 0xD7 JUMPI DUP1 PUSH4 0x14DE327F EQ PUSH2 0x113 JUMPI DUP1 PUSH4 0x20C5429B EQ PUSH2 0x14F JUMPI DUP1 PUSH4 0x2F54BF6E EQ PUSH2 0x18B JUMPI PUSH2 0xD3 JUMP JUMPDEST CALLDATASIZE PUSH2 0xD3 JUMPI CALLER PUSH20 0xFFFFFFFFFFFFFFFFFFFFFFFFFFFFFFFFFFFFFFFF AND PUSH32 0xE1FFFCC4923D04B559F4D29A8BFC6CDA04EB5B0D3C460751C2402C5C5CC9109C CALLVALUE PUSH1 0x40 MLOAD PUSH2 0xC9 SWAP2 SWAP1 PUSH2 0xE38 JUMP JUMPDEST PUSH1 0x40 MLOAD DUP1 SWAP2 SUB SWAP1 LOG2 STOP JUMPDEST PUSH0 DUP1 REVERT JUMPDEST CALLVALUE DUP1 ISZERO PUSH2 0xE2 JUMPI PUSH0 DUP1 REVERT JUMPDEST POP PUSH2 0xFD PUSH1 0x4 DUP1 CALLDATASIZE SUB DUP2 ADD SWAP1 PUSH2 0xF8 SWAP2 SWAP1 PUSH2 0xE83 JUMP JUMPDEST PUSH2 0x2A8 JUMP JUMPDEST PUSH1 0x40 MLOAD PUSH2 0x10A SWAP2 SWAP1 PUSH2 0xEED JUMP JUMPDEST PUSH1 0x40 MLOAD DUP1 SWAP2 SUB SWAP1 RETURN JUMPDEST CALLVALUE DUP1 ISZERO PUSH2 0x11E JUMPI PUSH0 DUP1 REVERT JUMPDEST POP PUSH2 0x139 PUSH1 0x4 DUP1 CALLDATASIZE SUB DUP2 ADD SWAP1 PUSH2 0x134 SWAP2 SWAP1 PUSH2 0xF91 JUMP JUMPDEST PUSH2 0x2E2 JUMP JUMPDEST PUSH1 0x40 MLOAD PUSH2 0x146 SWAP2 SWAP1 PUSH2 0x101C JUMP JUMPDEST PUSH1 0x40 MLOAD DUP1 SWAP2 SUB SWAP1 RETURN JUMPDEST CALLVALUE DUP1 ISZERO PUSH2 0x15A JUMPI PUSH0 DUP1 REVERT JUMPDEST POP PUSH2 0x175 PUSH1 0x4 DUP1 CALLDATASIZE SUB DUP2 ADD SWAP1 PUSH2 0x170 SWAP2 SWAP1 PUSH2 0xE83 JUMP JUMPDEST PUSH2 0x4B4 JUMP JUMPDEST PUSH1 0x40 MLOAD PUSH2 0x182 SWAP2 SWAP1 PUSH2 0x101C JUMP JUMPDEST PUSH1 0x40 MLOAD DUP1 SWAP2 SUB SWAP1 RETURN JUMPDEST CALLVALUE DUP1 ISZERO PUSH2 0x196 JUMPI PUSH0 DUP1 REVERT JUMPDEST POP PUSH2 0x1B1 PUSH1 0x4 DUP1 CALLDATASIZE SUB DUP2 ADD SWAP1 PUSH2 0x1AC SWAP2 SWAP1 PUSH2 0x1035 JUMP JUMPDEST PUSH2 0x70D JUMP JUMPDEST PUSH1 0x40 MLOAD PUSH2 0x1BE SWAP2 SWAP1 PUSH2 0x101C JUMP JUMPDEST PUSH1 0x40 MLOAD DUP1 SWAP2 SUB SWAP1 RETURN JUMPDEST CALLVALUE DUP1 ISZERO PUSH2 0x1D2 JUMPI PUSH0 DUP1 REVERT JUMPDEST POP PUSH2 0x1ED PUSH1 0x4 DUP1 CALLDATASIZE SUB DUP2 ADD SWAP1 PUSH2 0x1E8 SWAP2 SWAP1 PUSH2 0xE83 JUMP JUMPDEST PUSH2 0x72A JUMP JUMPDEST PUSH1 0x40 MLOAD PUSH2 0x1FD SWAP5 SWAP4 SWAP3 SWAP2 SWAP1 PUSH2 0x10D0 JUMP JUMPDEST PUSH1 0x40 MLOAD DUP1 SWAP2 SUB SWAP1 RETURN JUMPDEST CALLVALUE DUP1 ISZERO PUSH2 0x211 JUMPI PUSH0 DUP1 REVERT JUMPDEST POP PUSH2 0x22C PUSH1 0x4 DUP1 CALLDATASIZE SUB DUP2 ADD SWAP1 PUSH2 0x227 SWAP2 SWAP1 PUSH2 0xE83 JUMP JUMPDEST PUSH2 0x816 JUMP JUMPDEST PUSH1 0x40 MLOAD PUSH2 0x239 SWAP2 SWAP1 PUSH2 0x101C JUMP JUMPDEST PUSH1 0x40 MLOAD DUP1 SWAP2 SUB SWAP1 RETURN JUMPDEST CALLVALUE DUP1 ISZERO PUSH2 0x24D JUMPI PUSH0 DUP1 REVERT JUMPDEST POP PUSH2 0x256 PUSH2 0xA71 JUMP JUMPDEST PUSH1 0x40 MLOAD PUSH2 0x263 SWAP2 SWAP1 PUSH2 0xE38 JUMP JUMPDEST PUSH1 0x40 MLOAD DUP1 SWAP2 SUB SWAP1 RETURN JUMPDEST CALLVALUE DUP1 ISZERO PUSH2 0x277 JUMPI PUSH0 DUP1 REVERT JUMPDEST POP PUSH2 0x292 PUSH1 0x4 DUP1 CALLDATASIZE SUB DUP2 ADD SWAP1 PUSH2 0x28D SWAP2 SWAP1 PUSH2 0xE83 JUMP JUMPDEST PUSH2 0xA77 JUMP JUMPDEST PUSH1 0x40 MLOAD PUSH2 0x29F SWAP2 SWAP1 PUSH2 0x101C JUMP JUMPDEST PUSH1 0x40 MLOAD DUP1 SWAP2 SUB SWAP1 RETURN JUMPDEST PUSH0 DUP2 DUP2 SLOAD DUP2 LT PUSH2 0x2B6 JUMPI PUSH0 DUP1 REVERT JUMPDEST SWAP1 PUSH0 MSTORE PUSH1 0x20 PUSH0 KECCAK256 ADD PUSH0 SWAP2 POP SLOAD SWAP1 PUSH2 0x100 EXP SWAP1 DIV PUSH20 0xFFFFFFFFFFFFFFFFFFFFFFFFFFFFFFFFFFFFFFFF AND DUP2 JUMP JUMPDEST PUSH0 PUSH2 0x2EC CALLER PUSH2 0xCE2 JUMP JUMPDEST PUSH2 0x32B JUMPI PUSH1 0x40 MLOAD PUSH32 0x8C379A000000000000000000000000000000000000000000000000000000000 DUP2 MSTORE PUSH1 0x4 ADD PUSH2 0x322 SWAP1 PUSH2 0x1174 JUMP JUMPDEST PUSH1 0x40 MLOAD DUP1 SWAP2 SUB SWAP1 REVERT JUMPDEST PUSH0 PUSH1 0x40 MLOAD DUP1 PUSH1 0x80 ADD PUSH1 0x40 MSTORE DUP1 DUP8 PUSH20 0xFFFFFFFFFFFFFFFFFFFFFFFFFFFFFFFFFFFFFFFF AND DUP2 MSTORE PUSH1 0x20 ADD DUP7 DUP2 MSTORE PUSH1 0x20 ADD DUP6 DUP6 DUP1 DUP1 PUSH1 0x1F ADD PUSH1 0x20 DUP1 SWAP2 DIV MUL PUSH1 0x20 ADD PUSH1 0x40 MLOAD SWAP1 DUP2 ADD PUSH1 0x40 MSTORE DUP1 SWAP4 SWAP3 SWAP2 SWAP1 DUP2 DUP2 MSTORE PUSH1 0x20 ADD DUP4 DUP4 DUP1 DUP3 DUP5 CALLDATACOPY PUSH0 DUP2 DUP5 ADD MSTORE PUSH1 0x1F NOT PUSH1 0x1F DUP3 ADD AND SWAP1 POP DUP1 DUP4 ADD SWAP3 POP POP POP POP POP POP POP DUP2 MSTORE PUSH1 0x20 ADD PUSH0 ISZERO ISZERO DUP2 MSTORE POP SWAP1 POP PUSH1 0x3 DUP2 SWAP1 DUP1 PUSH1 0x1 DUP2 SLOAD ADD DUP1 DUP3 SSTORE DUP1 SWAP2 POP POP PUSH1 0x1 SWAP1 SUB SWAP1 PUSH0 MSTORE PUSH1 0x20 PUSH0 KECCAK256 SWAP1 PUSH1 0x4 MUL ADD PUSH0 SWAP1 SWAP2 SWAP1 SWAP2 SWAP1 SWAP2 POP PUSH0 DUP3 ADD MLOAD DUP2 PUSH0 ADD PUSH0 PUSH2 0x100 EXP DUP2 SLOAD DUP2 PUSH20 0xFFFFFFFFFFFFFFFFFFFFFFFFFFFFFFFFFFFFFFFF MUL NOT AND SWAP1 DUP4 PUSH20 0xFFFFFFFFFFFFFFFFFFFFFFFFFFFFFFFFFFFFFFFF AND MUL OR SWAP1 SSTORE POP PUSH1 0x20 DUP3 ADD MLOAD DUP2 PUSH1 0x1 ADD SSTORE PUSH1 0x40 DUP3 ADD MLOAD DUP2 PUSH1 0x2 ADD SWAP1 DUP2 PUSH2 0x436 SWAP2 SWAP1 PUSH2 0x13B9 JUMP JUMPDEST POP PUSH1 0x60 DUP3 ADD MLOAD DUP2 PUSH1 0x3 ADD PUSH0 PUSH2 0x100 EXP DUP2 SLOAD DUP2 PUSH1 0xFF MUL NOT AND SWAP1 DUP4 ISZERO ISZERO MUL OR SWAP1 SSTORE POP POP POP PUSH1 0x1 PUSH1 0x3 DUP1 SLOAD SWAP1 POP PUSH2 0x46A SWAP2 SWAP1 PUSH2 0x14B5 JUMP JUMPDEST PUSH32 0x7DB432C67F1D1FC67A6EFC8E24CF224F9AE9FC5D7F333E7F2A6F75379A8F135E DUP8 DUP8 DUP8 DUP8 PUSH1 0x40 MLOAD PUSH2 0x49F SWAP5 SWAP4 SWAP3 SWAP2 SWAP1 PUSH2 0x1522 JUMP JUMPDEST PUSH1 0x40 MLOAD DUP1 SWAP2 SUB SWAP1 LOG2 PUSH1 0x1 SWAP2 POP POP SWAP5 SWAP4 POP POP POP POP JUMP JUMPDEST PUSH0 PUSH2 0x4BE CALLER PUSH2 0xCE2 JUMP JUMPDEST PUSH2 0x4FD JUMPI PUSH1 0x40 MLOAD PUSH32 0x8C379A000000000000000000000000000000000000000000000000000000000 DUP2 MSTORE PUSH1 0x4 ADD PUSH2 0x4F4 SWAP1 PUSH2 0x1174 JUMP JUMPDEST PUSH1 0x40 MLOAD DUP1 SWAP2 SUB SWAP1 REVERT JUMPDEST DUP2 PUSH2 0x507 DUP2 PUSH2 0xD34 JUMP JUMPDEST PUSH2 0x546 JUMPI PUSH1 0x40 MLOAD PUSH32 0x8C379A000000000000000000000000000000000000000000000000000000000 DUP2 MSTORE PUSH1 0x4 ADD PUSH2 0x53D SWAP1 PUSH2 0x15AA JUMP JUMPDEST PUSH1 0x40 MLOAD DUP1 SWAP2 SUB SWAP1 REVERT JUMPDEST DUP3 PUSH0 ISZERO ISZERO PUSH1 0x3 DUP3 DUP2 SLOAD DUP2 LT PUSH2 0x55E JUMPI PUSH2 0x55D PUSH2 0x15C8 JUMP JUMPDEST JUMPDEST SWAP1 PUSH0 MSTORE PUSH1 0x20 PUSH0 KECCAK256 SWAP1 PUSH1 0x4 MUL ADD PUSH1 0x3 ADD PUSH0 SWAP1 SLOAD SWAP1 PUSH2 0x100 EXP SWAP1 DIV PUSH1 0xFF AND ISZERO ISZERO EQ PUSH2 0x5BC JUMPI PUSH1 0x40 MLOAD PUSH32 0x8C379A000000000000000000000000000000000000000000000000000000000 DUP2 MSTORE PUSH1 0x4 ADD PUSH2 0x5B3 SWAP1 PUSH2 0x163F JUMP JUMPDEST PUSH1 0x40 MLOAD DUP1 SWAP2 SUB SWAP1 REVERT JUMPDEST PUSH1 0x1 ISZERO ISZERO PUSH1 0x4 PUSH0 DUP7 DUP2 MSTORE PUSH1 0x20 ADD SWAP1 DUP2 MSTORE PUSH1 0x20 ADD PUSH0 KECCAK256 PUSH0 CALLER PUSH20 0xFFFFFFFFFFFFFFFFFFFFFFFFFFFFFFFFFFFFFFFF AND PUSH20 0xFFFFFFFFFFFFFFFFFFFFFFFFFFFFFFFFFFFFFFFF AND DUP2 MSTORE PUSH1 0x20 ADD SWAP1 DUP2 MSTORE PUSH1 0x20 ADD PUSH0 KECCAK256 PUSH0 SWAP1 SLOAD SWAP1 PUSH2 0x100 EXP SWAP1 DIV PUSH1 0xFF AND ISZERO ISZERO EQ PUSH2 0x65B JUMPI PUSH1 0x40 MLOAD PUSH32 0x8C379A000000000000000000000000000000000000000000000000000000000 DUP2 MSTORE PUSH1 0x4 ADD PUSH2 0x652 SWAP1 PUSH2 0x16A7 JUMP JUMPDEST PUSH1 0x40 MLOAD DUP1 SWAP2 SUB SWAP1 REVERT JUMPDEST PUSH0 PUSH1 0x4 PUSH0 DUP7 DUP2 MSTORE PUSH1 0x20 ADD SWAP1 DUP2 MSTORE PUSH1 0x20 ADD PUSH0 KECCAK256 PUSH0 CALLER PUSH20 0xFFFFFFFFFFFFFFFFFFFFFFFFFFFFFFFFFFFFFFFF AND PUSH20 0xFFFFFFFFFFFFFFFFFFFFFFFFFFFFFFFFFFFFFFFF AND DUP2 MSTORE PUSH1 0x20 ADD SWAP1 DUP2 MSTORE PUSH1 0x20 ADD PUSH0 KECCAK256 PUSH0 PUSH2 0x100 EXP DUP2 SLOAD DUP2 PUSH1 0xFF MUL NOT AND SWAP1 DUP4 ISZERO ISZERO MUL OR SWAP1 SSTORE POP DUP4 CALLER PUSH20 0xFFFFFFFFFFFFFFFFFFFFFFFFFFFFFFFFFFFFFFFF AND PUSH32 0xB4B3FE19795269F5D157C6F9469A0DD772AACBF45168826417750298EE9A6E93 PUSH1 0x40 MLOAD PUSH1 0x40 MLOAD DUP1 SWAP2 SUB SWAP1 LOG3 PUSH1 0x1 SWAP3 POP POP POP SWAP2 SWAP1 POP JUMP JUMPDEST PUSH1 0x1 PUSH1 0x20 MSTORE DUP1 PUSH0 MSTORE PUSH1 0x40 PUSH0 KECCAK256 PUSH0 SWAP2 POP SLOAD SWAP1 PUSH2 0x100 EXP SWAP1 DIV PUSH1 0xFF AND DUP2 JUMP JUMPDEST PUSH1 0x3 DUP2 DUP2 SLOAD DUP2 LT PUSH2 0x739 JUMPI PUSH0 DUP1 REVERT JUMPDEST SWAP1 PUSH0 MSTORE PUSH1 0x20 PUSH0 KECCAK256 SWAP1 PUSH1 0x4 MUL ADD PUSH0 SWAP2 POP SWAP1 POP DUP1 PUSH0 ADD PUSH0 SWAP1 SLOAD SWAP1 PUSH2 0x100 EXP SWAP1 DIV PUSH20 0xFFFFFFFFFFFFFFFFFFFFFFFFFFFFFFFFFFFFFFFF AND SWAP1 DUP1 PUSH1 0x1 ADD SLOAD SWAP1 DUP1 PUSH1 0x2 ADD DUP1 SLOAD PUSH2 0x783 SWAP1 PUSH2 0x11EC JUMP JUMPDEST DUP1 PUSH1 0x1F ADD PUSH1 0x20 DUP1 SWAP2 DIV MUL PUSH1 0x20 ADD PUSH1 0x40 MLOAD SWAP1 DUP2 ADD PUSH1 0x40 MSTORE DUP1 SWAP3 SWAP2 SWAP1 DUP2 DUP2 MSTORE PUSH1 0x20 ADD DUP3 DUP1 SLOAD PUSH2 0x7AF SWAP1 PUSH2 0x11EC JUMP JUMPDEST DUP1 ISZERO PUSH2 0x7FA JUMPI DUP1 PUSH1 0x1F LT PUSH2 0x7D1 JUMPI PUSH2 0x100 DUP1 DUP4 SLOAD DIV MUL DUP4 MSTORE SWAP2 PUSH1 0x20 ADD SWAP2 PUSH2 0x7FA JUMP JUMPDEST DUP3 ADD SWAP2 SWAP1 PUSH0 MSTORE PUSH1 0x20 PUSH0 KECCAK256 SWAP1 JUMPDEST DUP2 SLOAD DUP2 MSTORE SWAP1 PUSH1 0x1 ADD SWAP1 PUSH1 0x20 ADD DUP1 DUP4 GT PUSH2 0x7DD JUMPI DUP3 SWAP1 SUB PUSH1 0x1F AND DUP3 ADD SWAP2 JUMPDEST POP POP POP POP POP SWAP1 DUP1 PUSH1 0x3 ADD PUSH0 SWAP1 SLOAD SWAP1 PUSH2 0x100 EXP SWAP1 DIV PUSH1 0xFF AND SWAP1 POP DUP5 JUMP JUMPDEST PUSH0 PUSH2 0x820 CALLER PUSH2 0xCE2 JUMP JUMPDEST PUSH2 0x85F JUMPI PUSH1 0x40 MLOAD PUSH32 0x8C379A000000000000000000000000000000000000000000000000000000000 DUP2 MSTORE PUSH1 0x4 ADD PUSH2 0x856 SWAP1 PUSH2 0x1174 JUMP JUMPDEST PUSH1 0x40 MLOAD DUP1 SWAP2 SUB SWAP1 REVERT JUMPDEST DUP2 PUSH2 0x869 DUP2 PUSH2 0xD34 JUMP JUMPDEST PUSH2 0x8A8 JUMPI PUSH1 0x40 MLOAD PUSH32 0x8C379A000000000000000000000000000000000000000000000000000000000 DUP2 MSTORE PUSH1 0x4 ADD PUSH2 0x89F SWAP1 PUSH2 0x15AA JUMP JUMPDEST PUSH1 0x40 MLOAD DUP1 SWAP2 SUB SWAP1 REVERT JUMPDEST DUP3 PUSH0 ISZERO ISZERO PUSH1 0x4 PUSH0 DUP4 DUP2 MSTORE PUSH1 0x20 ADD SWAP1 DUP2 MSTORE PUSH1 0x20 ADD PUSH0 KECCAK256 PUSH0 CALLER PUSH20 0xFFFFFFFFFFFFFFFFFFFFFFFFFFFFFFFFFFFFFFFF AND PUSH20 0xFFFFFFFFFFFFFFFFFFFFFFFFFFFFFFFFFFFFFFFF AND DUP2 MSTORE PUSH1 0x20 ADD SWAP1 DUP2 MSTORE PUSH1 0x20 ADD PUSH0 KECCAK256 PUSH0 SWAP1 SLOAD SWAP1 PUSH2 0x100 EXP SWAP1 DIV PUSH1 0xFF AND ISZERO ISZERO EQ PUSH2 0x947 JUMPI PUSH1 0x40 MLOAD PUSH32 0x8C379A000000000000000000000000000000000000000000000000000000000 DUP2 MSTORE PUSH1 0x4 ADD PUSH2 0x93E SWAP1 PUSH2 0x1735 JUMP JUMPDEST PUSH1 0x40 MLOAD DUP1 SWAP2 SUB SWAP1 REVERT JUMPDEST DUP4 PUSH0 ISZERO ISZERO PUSH1 0x3 DUP3 DUP2 SLOAD DUP2 LT PUSH2 0x95F JUMPI PUSH2 0x95E PUSH2 0x15C8 JUMP JUMPDEST JUMPDEST SWAP1 PUSH0 MSTORE PUSH1 0x20 PUSH0 KECCAK256 SWAP1 PUSH1 0x4 MUL ADD PUSH1 0x3 ADD PUSH0 SWAP1 SLOAD SWAP1 PUSH2 0x100 EXP SWAP1 DIV PUSH1 0xFF AND ISZERO ISZERO EQ PUSH2 0x9BD JUMPI PUSH1 0x40 MLOAD PUSH32 0x8C379A000000000000000000000000000000000000000000000000000000000 DUP2 MSTORE PUSH1 0x4 ADD PUSH2 0x9B4 SWAP1 PUSH2 0x163F JUMP JUMPDEST PUSH1 0x40 MLOAD DUP1 SWAP2 SUB SWAP1 REVERT JUMPDEST PUSH1 0x1 PUSH1 0x4 PUSH0 DUP8 DUP2 MSTORE PUSH1 0x20 ADD SWAP1 DUP2 MSTORE PUSH1 0x20 ADD PUSH0 KECCAK256 PUSH0 CALLER PUSH20 0xFFFFFFFFFFFFFFFFFFFFFFFFFFFFFFFFFFFFFFFF AND PUSH20 0xFFFFFFFFFFFFFFFFFFFFFFFFFFFFFFFFFFFFFFFF AND DUP2 MSTORE PUSH1 0x20 ADD SWAP1 DUP2 MSTORE PUSH1 0x20 ADD PUSH0 KECCAK256 PUSH0 PUSH2 0x100 EXP DUP2 SLOAD DUP2 PUSH1 0xFF MUL NOT AND SWAP1 DUP4 ISZERO ISZERO MUL OR SWAP1 SSTORE POP DUP5 CALLER PUSH20 0xFFFFFFFFFFFFFFFFFFFFFFFFFFFFFFFFFFFFFFFF AND PUSH32 0x945242F7E1728D98AAA75300F98846A7CD4A996E7A22A4E23963FFAF0210E64E PUSH1 0x40 MLOAD PUSH1 0x40 MLOAD DUP1 SWAP2 SUB SWAP1 LOG3 PUSH1 0x1 SWAP4 POP POP POP POP SWAP2 SWAP1 POP JUMP JUMPDEST PUSH1 0x2 SLOAD DUP2 JUMP JUMPDEST PUSH0 DUP2 PUSH2 0xA82 DUP2 PUSH2 0xD34 JUMP JUMPDEST PUSH2 0xAC1 JUMPI PUSH1 0x40 MLOAD PUSH32 0x8C379A000000000000000000000000000000000000000000000000000000000 DUP2 MSTORE PUSH1 0x4 ADD PUSH2 0xAB8 SWAP1 PUSH2 0x15AA JUMP JUMPDEST PUSH1 0x40 MLOAD DUP1 SWAP2 SUB SWAP1 REVERT JUMPDEST DUP3 PUSH0 ISZERO ISZERO PUSH1 0x3 DUP3 DUP2 SLOAD DUP2 LT PUSH2 0xAD9 JUMPI PUSH2 0xAD8 PUSH2 0x15C8 JUMP JUMPDEST JUMPDEST SWAP1 PUSH0 MSTORE PUSH1 0x20 PUSH0 KECCAK256 SWAP1 PUSH1 0x4 MUL ADD PUSH1 0x3 ADD PUSH0 SWAP1 SLOAD SWAP1 PUSH2 0x100 EXP SWAP1 DIV PUSH1 0xFF AND ISZERO ISZERO EQ PUSH2 0xB37 JUMPI PUSH1 0x40 MLOAD PUSH32 0x8C379A000000000000000000000000000000000000000000000000000000000 DUP2 MSTORE PUSH1 0x4 ADD PUSH2 0xB2E SWAP1 PUSH2 0x163F JUMP JUMPDEST PUSH1 0x40 MLOAD DUP1 SWAP2 SUB SWAP1 REVERT JUMPDEST PUSH2 0xB40 DUP5 PUSH2 0xD44 JUMP JUMPDEST PUSH2 0xB7F JUMPI PUSH1 0x40 MLOAD PUSH32 0x8C379A000000000000000000000000000000000000000000000000000000000 DUP2 MSTORE PUSH1 0x4 ADD PUSH2 0xB76 SWAP1 PUSH2 0x17C3 JUMP JUMPDEST PUSH1 0x40 MLOAD DUP1 SWAP2 SUB SWAP1 REVERT JUMPDEST PUSH0 PUSH1 0x3 DUP6 DUP2 SLOAD DUP2 LT PUSH2 0xB94 JUMPI PUSH2 0xB93 PUSH2 0x15C8 JUMP JUMPDEST JUMPDEST SWAP1 PUSH0 MSTORE PUSH1 0x20 PUSH0 KECCAK256 SWAP1 PUSH1 0x4 MUL ADD SWAP1 POP PUSH1 0x1 DUP2 PUSH1 0x3 ADD PUSH0 PUSH2 0x100 EXP DUP2 SLOAD DUP2 PUSH1 0xFF MUL NOT AND SWAP1 DUP4 ISZERO ISZERO MUL OR SWAP1 SSTORE POP PUSH0 DUP2 PUSH0 ADD PUSH0 SWAP1 SLOAD SWAP1 PUSH2 0x100 EXP SWAP1 DIV PUSH20 0xFFFFFFFFFFFFFFFFFFFFFFFFFFFFFFFFFFFFFFFF AND PUSH20 0xFFFFFFFFFFFFFFFFFFFFFFFFFFFFFFFFFFFFFFFF AND DUP3 PUSH1 0x1 ADD SLOAD DUP4 PUSH1 0x2 ADD PUSH1 0x40 MLOAD PUSH2 0xC0E SWAP2 SWAP1 PUSH2 0x186B JUMP JUMPDEST PUSH0 PUSH1 0x40 MLOAD DUP1 DUP4 SUB DUP2 DUP6 DUP8 GAS CALL SWAP3 POP POP POP RETURNDATASIZE DUP1 PUSH0 DUP2 EQ PUSH2 0xC48 JUMPI PUSH1 0x40 MLOAD SWAP2 POP PUSH1 0x1F NOT PUSH1 0x3F RETURNDATASIZE ADD AND DUP3 ADD PUSH1 0x40 MSTORE RETURNDATASIZE DUP3 MSTORE RETURNDATASIZE PUSH0 PUSH1 0x20 DUP5 ADD RETURNDATACOPY PUSH2 0xC4D JUMP JUMPDEST PUSH1 0x60 SWAP2 POP JUMPDEST POP POP SWAP1 POP DUP1 PUSH2 0xC91 JUMPI PUSH1 0x40 MLOAD PUSH32 0x8C379A000000000000000000000000000000000000000000000000000000000 DUP2 MSTORE PUSH1 0x4 ADD PUSH2 0xC88 SWAP1 PUSH2 0x18CB JUMP JUMPDEST PUSH1 0x40 MLOAD DUP1 SWAP2 SUB SWAP1 REVERT JUMPDEST DUP6 CALLER PUSH20 0xFFFFFFFFFFFFFFFFFFFFFFFFFFFFFFFFFFFFFFFF AND PUSH32 0x39BF31F4588071DAAA9C395053BDA7FB7FAB807AC7E3D18F77DC5A6322423EBA PUSH1 0x40 MLOAD PUSH1 0x40 MLOAD DUP1 SWAP2 SUB SWAP1 LOG3 PUSH1 0x1 SWAP5 POP POP POP POP POP SWAP2 SWAP1 POP JUMP JUMPDEST PUSH0 PUSH1 0x1 PUSH0 DUP4 PUSH20 0xFFFFFFFFFFFFFFFFFFFFFFFFFFFFFFFFFFFFFFFF AND PUSH20 0xFFFFFFFFFFFFFFFFFFFFFFFFFFFFFFFFFFFFFFFF AND DUP2 MSTORE PUSH1 0x20 ADD SWAP1 DUP2 MSTORE PUSH1 0x20 ADD PUSH0 KECCAK256 PUSH0 SWAP1 SLOAD SWAP1 PUSH2 0x100 EXP SWAP1 DIV PUSH1 0xFF AND SWAP1 POP SWAP2 SWAP1 POP JUMP JUMPDEST PUSH0 PUSH1 0x3 DUP1 SLOAD SWAP1 POP DUP3 LT SWAP1 POP SWAP2 SWAP1 POP JUMP JUMPDEST PUSH0 DUP1 PUSH0 DUP1 SLOAD SWAP1 POP SWAP1 POP PUSH0 DUP1 JUMPDEST DUP3 DUP2 LT ISZERO PUSH2 0xE10 JUMPI PUSH1 0x1 ISZERO ISZERO PUSH1 0x4 PUSH0 DUP8 DUP2 MSTORE PUSH1 0x20 ADD SWAP1 DUP2 MSTORE PUSH1 0x20 ADD PUSH0 KECCAK256 PUSH0 DUP1 DUP5 DUP2 SLOAD DUP2 LT PUSH2 0xD81 JUMPI PUSH2 0xD80 PUSH2 0x15C8 JUMP JUMPDEST JUMPDEST SWAP1 PUSH0 MSTORE PUSH1 0x20 PUSH0 KECCAK256 ADD PUSH0 SWAP1 SLOAD SWAP1 PUSH2 0x100 EXP SWAP1 DIV PUSH20 0xFFFFFFFFFFFFFFFFFFFFFFFFFFFFFFFFFFFFFFFF AND PUSH20 0xFFFFFFFFFFFFFFFFFFFFFFFFFFFFFFFFFFFFFFFF AND PUSH20 0xFFFFFFFFFFFFFFFFFFFFFFFFFFFFFFFFFFFFFFFF AND DUP2 MSTORE PUSH1 0x20 ADD SWAP1 DUP2 MSTORE PUSH1 0x20 ADD PUSH0 KECCAK256 PUSH0 SWAP1 SLOAD SWAP1 PUSH2 0x100 EXP SWAP1 DIV PUSH1 0xFF AND ISZERO ISZERO SUB PUSH2 0xE05 JUMPI DUP2 DUP1 PUSH2 0xE01 SWAP1 PUSH2 0x18E9 JUMP JUMPDEST SWAP3 POP POP JUMPDEST DUP1 PUSH1 0x1 ADD SWAP1 POP PUSH2 0xD50 JUMP JUMPDEST POP PUSH1 0x2 SLOAD DUP2 LT ISZERO SWAP3 POP POP POP SWAP2 SWAP1 POP JUMP JUMPDEST PUSH0 DUP2 SWAP1 POP SWAP2 SWAP1 POP JUMP JUMPDEST PUSH2 0xE32 DUP2 PUSH2 0xE20 JUMP JUMPDEST DUP3 MSTORE POP POP JUMP JUMPDEST PUSH0 PUSH1 0x20 DUP3 ADD SWAP1 POP PUSH2 0xE4B PUSH0 DUP4 ADD DUP5 PUSH2 0xE29 JUMP JUMPDEST SWAP3 SWAP2 POP POP JUMP JUMPDEST PUSH0 DUP1 REVERT JUMPDEST PUSH0 DUP1 REVERT JUMPDEST PUSH2 0xE62 DUP2 PUSH2 0xE20 JUMP JUMPDEST DUP2 EQ PUSH2 0xE6C JUMPI PUSH0 DUP1 REVERT JUMPDEST POP JUMP JUMPDEST PUSH0 DUP2 CALLDATALOAD SWAP1 POP PUSH2 0xE7D DUP2 PUSH2 0xE59 JUMP JUMPDEST SWAP3 SWAP2 POP POP JUMP JUMPDEST PUSH0 PUSH1 0x20 DUP3 DUP5 SUB SLT ISZERO PUSH2 0xE98 JUMPI PUSH2 0xE97 PUSH2 0xE51 JUMP JUMPDEST JUMPDEST PUSH0 PUSH2 0xEA5 DUP5 DUP3 DUP6 ADD PUSH2 0xE6F JUMP JUMPDEST SWAP2 POP POP SWAP3 SWAP2 POP POP JUMP JUMPDEST PUSH0 PUSH20 0xFFFFFFFFFFFFFFFFFFFFFFFFFFFFFFFFFFFFFFFF DUP3 AND SWAP1 POP SWAP2 SWAP1 POP JUMP JUMPDEST PUSH0 PUSH2 0xED7 DUP3 PUSH2 0xEAE JUMP JUMPDEST SWAP1 POP SWAP2 SWAP1 POP JUMP JUMPDEST PUSH2 0xEE7 DUP2 PUSH2 0xECD JUMP JUMPDEST DUP3 MSTORE POP POP JUMP JUMPDEST PUSH0 PUSH1 0x20 DUP3 ADD SWAP1 POP PUSH2 0xF00 PUSH0 DUP4 ADD DUP5 PUSH2 0xEDE JUMP JUMPDEST SWAP3 SWAP2 POP POP JUMP JUMPDEST PUSH2 0xF0F DUP2 PUSH2 0xECD JUMP JUMPDEST DUP2 EQ PUSH2 0xF19 JUMPI PUSH0 DUP1 REVERT JUMPDEST POP JUMP JUMPDEST PUSH0 DUP2 CALLDATALOAD SWAP1 POP PUSH2 0xF2A DUP2 PUSH2 0xF06 JUMP JUMPDEST SWAP3 SWAP2 POP POP JUMP JUMPDEST PUSH0 DUP1 REVERT JUMPDEST PUSH0 DUP1 REVERT JUMPDEST PUSH0 DUP1 REVERT JUMPDEST PUSH0 DUP1 DUP4 PUSH1 0x1F DUP5 ADD SLT PUSH2 0xF51 JUMPI PUSH2 0xF50 PUSH2 0xF30 JUMP JUMPDEST JUMPDEST DUP3 CALLDATALOAD SWAP1 POP PUSH8 0xFFFFFFFFFFFFFFFF DUP2 GT ISZERO PUSH2 0xF6E JUMPI PUSH2 0xF6D PUSH2 0xF34 JUMP JUMPDEST JUMPDEST PUSH1 0x20 DUP4 ADD SWAP2 POP DUP4 PUSH1 0x1 DUP3 MUL DUP4 ADD GT ISZERO PUSH2 0xF8A JUMPI PUSH2 0xF89 PUSH2 0xF38 JUMP JUMPDEST JUMPDEST SWAP3 POP SWAP3 SWAP1 POP JUMP JUMPDEST PUSH0 DUP1 PUSH0 DUP1 PUSH1 0x60 DUP6 DUP8 SUB SLT ISZERO PUSH2 0xFA9 JUMPI PUSH2 0xFA8 PUSH2 0xE51 JUMP JUMPDEST JUMPDEST PUSH0 PUSH2 0xFB6 DUP8 DUP3 DUP9 ADD PUSH2 0xF1C JUMP JUMPDEST SWAP5 POP POP PUSH1 0x20 PUSH2 0xFC7 DUP8 DUP3 DUP9 ADD PUSH2 0xE6F JUMP JUMPDEST SWAP4 POP POP PUSH1 0x40 DUP6 ADD CALLDATALOAD PUSH8 0xFFFFFFFFFFFFFFFF DUP2 GT ISZERO PUSH2 0xFE8 JUMPI PUSH2 0xFE7 PUSH2 0xE55 JUMP JUMPDEST JUMPDEST PUSH2 0xFF4 DUP8 DUP3 DUP9 ADD PUSH2 0xF3C JUMP JUMPDEST SWAP3 POP SWAP3 POP POP SWAP3 SWAP6 SWAP2 SWAP5 POP SWAP3 POP JUMP JUMPDEST PUSH0 DUP2 ISZERO ISZERO SWAP1 POP SWAP2 SWAP1 POP JUMP JUMPDEST PUSH2 0x1016 DUP2 PUSH2 0x1002 JUMP JUMPDEST DUP3 MSTORE POP POP JUMP JUMPDEST PUSH0 PUSH1 0x20 DUP3 ADD SWAP1 POP PUSH2 0x102F PUSH0 DUP4 ADD DUP5 PUSH2 0x100D JUMP JUMPDEST SWAP3 SWAP2 POP POP JUMP JUMPDEST PUSH0 PUSH1 0x20 DUP3 DUP5 SUB SLT ISZERO PUSH2 0x104A JUMPI PUSH2 0x1049 PUSH2 0xE51 JUMP JUMPDEST JUMPDEST PUSH0 PUSH2 0x1057 DUP5 DUP3 DUP6 ADD PUSH2 0xF1C JUMP JUMPDEST SWAP2 POP POP SWAP3 SWAP2 POP POP JUMP JUMPDEST PUSH0 DUP2 MLOAD SWAP1 POP SWAP2 SWAP1 POP JUMP JUMPDEST PUSH0 DUP3 DUP3 MSTORE PUSH1 0x20 DUP3 ADD SWAP1 POP SWAP3 SWAP2 POP POP JUMP JUMPDEST DUP3 DUP2 DUP4 MCOPY PUSH0 DUP4 DUP4 ADD MSTORE POP POP POP JUMP JUMPDEST PUSH0 PUSH1 0x1F NOT PUSH1 0x1F DUP4 ADD AND SWAP1 POP SWAP2 SWAP1 POP JUMP JUMPDEST PUSH0 PUSH2 0x10A2 DUP3 PUSH2 0x1060 JUMP JUMPDEST PUSH2 0x10AC DUP2 DUP6 PUSH2 0x106A JUMP JUMPDEST SWAP4 POP PUSH2 0x10BC DUP2 DUP6 PUSH1 0x20 DUP7 ADD PUSH2 0x107A JUMP JUMPDEST PUSH2 0x10C5 DUP2 PUSH2 0x1088 JUMP JUMPDEST DUP5 ADD SWAP2 POP POP SWAP3 SWAP2 POP POP JUMP JUMPDEST PUSH0 PUSH1 0x80 DUP3 ADD SWAP1 POP PUSH2 0x10E3 PUSH0 DUP4 ADD DUP8 PUSH2 0xEDE JUMP JUMPDEST PUSH2 0x10F0 PUSH1 0x20 DUP4 ADD DUP7 PUSH2 0xE29 JUMP JUMPDEST DUP2 DUP2 SUB PUSH1 0x40 DUP4 ADD MSTORE PUSH2 0x1102 DUP2 DUP6 PUSH2 0x1098 JUMP JUMPDEST SWAP1 POP PUSH2 0x1111 PUSH1 0x60 DUP4 ADD DUP5 PUSH2 0x100D JUMP JUMPDEST SWAP6 SWAP5 POP POP POP POP POP JUMP JUMPDEST PUSH0 DUP3 DUP3 MSTORE PUSH1 0x20 DUP3 ADD SWAP1 POP SWAP3 SWAP2 POP POP JUMP JUMPDEST PUSH32 0x4F6E6C79206F776E657220616C6C6F7765642E00000000000000000000000000 PUSH0 DUP3 ADD MSTORE POP JUMP JUMPDEST PUSH0 PUSH2 0x115E PUSH1 0x13 DUP4 PUSH2 0x111A JUMP JUMPDEST SWAP2 POP PUSH2 0x1169 DUP3 PUSH2 0x112A JUMP JUMPDEST PUSH1 0x20 DUP3 ADD SWAP1 POP SWAP2 SWAP1 POP JUMP JUMPDEST PUSH0 PUSH1 0x20 DUP3 ADD SWAP1 POP DUP2 DUP2 SUB PUSH0 DUP4 ADD MSTORE PUSH2 0x118B DUP2 PUSH2 0x1152 JUMP JUMPDEST SWAP1 POP SWAP2 SWAP1 POP JUMP JUMPDEST PUSH32 0x4E487B7100000000000000000000000000000000000000000000000000000000 PUSH0 MSTORE PUSH1 0x41 PUSH1 0x4 MSTORE PUSH1 0x24 PUSH0 REVERT JUMPDEST PUSH32 0x4E487B7100000000000000000000000000000000000000000000000000000000 PUSH0 MSTORE PUSH1 0x22 PUSH1 0x4 MSTORE PUSH1 0x24 PUSH0 REVERT JUMPDEST PUSH0 PUSH1 0x2 DUP3 DIV SWAP1 POP PUSH1 0x1 DUP3 AND DUP1 PUSH2 0x1203 JUMPI PUSH1 0x7F DUP3 AND SWAP2 POP JUMPDEST PUSH1 0x20 DUP3 LT DUP2 SUB PUSH2 0x1216 JUMPI PUSH2 0x1215 PUSH2 0x11BF JUMP JUMPDEST JUMPDEST POP SWAP2 SWAP1 POP JUMP JUMPDEST PUSH0 DUP2 SWAP1 POP DUP2 PUSH0 MSTORE PUSH1 0x20 PUSH0 KECCAK256 SWAP1 POP SWAP2 SWAP1 POP JUMP JUMPDEST PUSH0 PUSH1 0x20 PUSH1 0x1F DUP4 ADD DIV SWAP1 POP SWAP2 SWAP1 POP JUMP JUMPDEST PUSH0 DUP3 DUP3 SHL SWAP1 POP SWAP3 SWAP2 POP POP JUMP JUMPDEST PUSH0 PUSH1 0x8 DUP4 MUL PUSH2 0x1278 PUSH32 0xFFFFFFFFFFFFFFFFFFFFFFFFFFFFFFFFFFFFFFFFFFFFFFFFFFFFFFFFFFFFFFFF DUP3 PUSH2 0x123D JUMP JUMPDEST PUSH2 0x1282 DUP7 DUP4 PUSH2 0x123D JUMP JUMPDEST SWAP6 POP DUP1 NOT DUP5 AND SWAP4 POP DUP1 DUP7 AND DUP5 OR SWAP3 POP POP POP SWAP4 SWAP3 POP POP POP JUMP JUMPDEST PUSH0 DUP2 SWAP1 POP SWAP2 SWAP1 POP JUMP JUMPDEST PUSH0 PUSH2 0x12BD PUSH2 0x12B8 PUSH2 0x12B3 DUP5 PUSH2 0xE20 JUMP JUMPDEST PUSH2 0x129A JUMP JUMPDEST PUSH2 0xE20 JUMP JUMPDEST SWAP1 POP SWAP2 SWAP1 POP JUMP JUMPDEST PUSH0 DUP2 SWAP1 POP SWAP2 SWAP1 POP JUMP JUMPDEST PUSH2 0x12D6 DUP4 PUSH2 0x12A3 JUMP JUMPDEST PUSH2 0x12EA PUSH2 0x12E2 DUP3 PUSH2 0x12C4 JUMP JUMPDEST DUP5 DUP5 SLOAD PUSH2 0x1249 JUMP JUMPDEST DUP3 SSTORE POP POP POP POP JUMP JUMPDEST PUSH0 SWAP1 JUMP JUMPDEST PUSH2 0x12FE PUSH2 0x12F2 JUMP JUMPDEST PUSH2 0x1309 DUP2 DUP5 DUP5 PUSH2 0x12CD JUMP JUMPDEST POP POP POP JUMP JUMPDEST JUMPDEST DUP2 DUP2 LT ISZERO PUSH2 0x132C JUMPI PUSH2 0x1321 PUSH0 DUP3 PUSH2 0x12F6 JUMP JUMPDEST PUSH1 0x1 DUP2 ADD SWAP1 POP PUSH2 0x130F JUMP JUMPDEST POP POP JUMP JUMPDEST PUSH1 0x1F DUP3 GT ISZERO PUSH2 0x1371 JUMPI PUSH2 0x1342 DUP2 PUSH2 0x121C JUMP JUMPDEST PUSH2 0x134B DUP5 PUSH2 0x122E JUMP JUMPDEST DUP2 ADD PUSH1 0x20 DUP6 LT ISZERO PUSH2 0x135A JUMPI DUP2 SWAP1 POP JUMPDEST PUSH2 0x136E PUSH2 0x1366 DUP6 PUSH2 0x122E JUMP JUMPDEST DUP4 ADD DUP3 PUSH2 0x130E JUMP JUMPDEST POP POP JUMPDEST POP POP POP JUMP JUMPDEST PUSH0 DUP3 DUP3 SHR SWAP1 POP SWAP3 SWAP2 POP POP JUMP JUMPDEST PUSH0 PUSH2 0x1391 PUSH0 NOT DUP5 PUSH1 0x8 MUL PUSH2 0x1376 JUMP JUMPDEST NOT DUP1 DUP4 AND SWAP2 POP POP SWAP3 SWAP2 POP POP JUMP JUMPDEST PUSH0 PUSH2 0x13A9 DUP4 DUP4 PUSH2 0x1382 JUMP JUMPDEST SWAP2 POP DUP3 PUSH1 0x2 MUL DUP3 OR SWAP1 POP SWAP3 SWAP2 POP POP JUMP JUMPDEST PUSH2 0x13C2 DUP3 PUSH2 0x1060 JUMP JUMPDEST PUSH8 0xFFFFFFFFFFFFFFFF DUP2 GT ISZERO PUSH2 0x13DB JUMPI PUSH2 0x13DA PUSH2 0x1192 JUMP JUMPDEST JUMPDEST PUSH2 0x13E5 DUP3 SLOAD PUSH2 0x11EC JUMP JUMPDEST PUSH2 0x13F0 DUP3 DUP3 DUP6 PUSH2 0x1330 JUMP JUMPDEST PUSH0 PUSH1 0x20 SWAP1 POP PUSH1 0x1F DUP4 GT PUSH1 0x1 DUP2 EQ PUSH2 0x1421 JUMPI PUSH0 DUP5 ISZERO PUSH2 0x140F JUMPI DUP3 DUP8 ADD MLOAD SWAP1 POP JUMPDEST PUSH2 0x1419 DUP6 DUP3 PUSH2 0x139E JUMP JUMPDEST DUP7 SSTORE POP PUSH2 0x1480 JUMP JUMPDEST PUSH1 0x1F NOT DUP5 AND PUSH2 0x142F DUP7 PUSH2 0x121C JUMP JUMPDEST PUSH0 JUMPDEST DUP3 DUP2 LT ISZERO PUSH2 0x1456 JUMPI DUP5 DUP10 ADD MLOAD DUP3 SSTORE PUSH1 0x1 DUP3 ADD SWAP2 POP PUSH1 0x20 DUP6 ADD SWAP5 POP PUSH1 0x20 DUP2 ADD SWAP1 POP PUSH2 0x1431 JUMP JUMPDEST DUP7 DUP4 LT ISZERO PUSH2 0x1473 JUMPI DUP5 DUP10 ADD MLOAD PUSH2 0x146F PUSH1 0x1F DUP10 AND DUP3 PUSH2 0x1382 JUMP JUMPDEST DUP4 SSTORE POP JUMPDEST PUSH1 0x1 PUSH1 0x2 DUP9 MUL ADD DUP9 SSTORE POP POP POP JUMPDEST POP POP POP POP POP POP JUMP JUMPDEST PUSH32 0x4E487B7100000000000000000000000000000000000000000000000000000000 PUSH0 MSTORE PUSH1 0x11 PUSH1 0x4 MSTORE PUSH1 0x24 PUSH0 REVERT JUMPDEST PUSH0 PUSH2 0x14BF DUP3 PUSH2 0xE20 JUMP JUMPDEST SWAP2 POP PUSH2 0x14CA DUP4 PUSH2 0xE20 JUMP JUMPDEST SWAP3 POP DUP3 DUP3 SUB SWAP1 POP DUP2 DUP2 GT ISZERO PUSH2 0x14E2 JUMPI PUSH2 0x14E1 PUSH2 0x1488 JUMP JUMPDEST JUMPDEST SWAP3 SWAP2 POP POP JUMP JUMPDEST DUP3 DUP2 DUP4 CALLDATACOPY PUSH0 DUP4 DUP4 ADD MSTORE POP POP POP JUMP JUMPDEST PUSH0 PUSH2 0x1501 DUP4 DUP6 PUSH2 0x106A JUMP JUMPDEST SWAP4 POP PUSH2 0x150E DUP4 DUP6 DUP5 PUSH2 0x14E8 JUMP JUMPDEST PUSH2 0x1517 DUP4 PUSH2 0x1088 JUMP JUMPDEST DUP5 ADD SWAP1 POP SWAP4 SWAP3 POP POP POP JUMP JUMPDEST PUSH0 PUSH1 0x60 DUP3 ADD SWAP1 POP PUSH2 0x1535 PUSH0 DUP4 ADD DUP8 PUSH2 0xEDE JUMP JUMPDEST PUSH2 0x1542 PUSH1 0x20 DUP4 ADD DUP7 PUSH2 0xE29 JUMP JUMPDEST DUP2 DUP2 SUB PUSH1 0x40 DUP4 ADD MSTORE PUSH2 0x1555 DUP2 DUP5 DUP7 PUSH2 0x14F6 JUMP JUMPDEST SWAP1 POP SWAP6 SWAP5 POP POP POP POP POP JUMP JUMPDEST PUSH32 0x54686520747820696E646578206F7574206F662072616E676500000000000000 PUSH0 DUP3 ADD MSTORE POP JUMP JUMPDEST PUSH0 PUSH2 0x1594 PUSH1 0x19 DUP4 PUSH2 0x111A JUMP JUMPDEST SWAP2 POP PUSH2 0x159F DUP3 PUSH2 0x1560 JUMP JUMPDEST PUSH1 0x20 DUP3 ADD SWAP1 POP SWAP2 SWAP1 POP JUMP JUMPDEST PUSH0 PUSH1 0x20 DUP3 ADD SWAP1 POP DUP2 DUP2 SUB PUSH0 DUP4 ADD MSTORE PUSH2 0x15C1 DUP2 PUSH2 0x1588 JUMP JUMPDEST SWAP1 POP SWAP2 SWAP1 POP JUMP JUMPDEST PUSH32 0x4E487B7100000000000000000000000000000000000000000000000000000000 PUSH0 MSTORE PUSH1 0x32 PUSH1 0x4 MSTORE PUSH1 0x24 PUSH0 REVERT JUMPDEST PUSH32 0x546869732074782068617320636F6D706C657465640000000000000000000000 PUSH0 DUP3 ADD MSTORE POP JUMP JUMPDEST PUSH0 PUSH2 0x1629 PUSH1 0x15 DUP4 PUSH2 0x111A JUMP JUMPDEST SWAP2 POP PUSH2 0x1634 DUP3 PUSH2 0x15F5 JUMP JUMPDEST PUSH1 0x20 DUP3 ADD SWAP1 POP SWAP2 SWAP1 POP JUMP JUMPDEST PUSH0 PUSH1 0x20 DUP3 ADD SWAP1 POP DUP2 DUP2 SUB PUSH0 DUP4 ADD MSTORE PUSH2 0x1656 DUP2 PUSH2 0x161D JUMP JUMPDEST SWAP1 POP SWAP2 SWAP1 POP JUMP JUMPDEST PUSH32 0x596F75206469646E277420617070726F766520746869732074782E0000000000 PUSH0 DUP3 ADD MSTORE POP JUMP JUMPDEST PUSH0 PUSH2 0x1691 PUSH1 0x1B DUP4 PUSH2 0x111A JUMP JUMPDEST SWAP2 POP PUSH2 0x169C DUP3 PUSH2 0x165D JUMP JUMPDEST PUSH1 0x20 DUP3 ADD SWAP1 POP SWAP2 SWAP1 POP JUMP JUMPDEST PUSH0 PUSH1 0x20 DUP3 ADD SWAP1 POP DUP2 DUP2 SUB PUSH0 DUP4 ADD MSTORE PUSH2 0x16BE DUP2 PUSH2 0x1685 JUMP JUMPDEST SWAP1 POP SWAP2 SWAP1 POP JUMP JUMPDEST PUSH32 0x596F75206861766520616C726561647920617070726F76656420746869732074 PUSH0 DUP3 ADD MSTORE PUSH32 0x72616E736374696F6E2E00000000000000000000000000000000000000000000 PUSH1 0x20 DUP3 ADD MSTORE POP JUMP JUMPDEST PUSH0 PUSH2 0x171F PUSH1 0x2A DUP4 PUSH2 0x111A JUMP JUMPDEST SWAP2 POP PUSH2 0x172A DUP3 PUSH2 0x16C5 JUMP JUMPDEST PUSH1 0x40 DUP3 ADD SWAP1 POP SWAP2 SWAP1 POP JUMP JUMPDEST PUSH0 PUSH1 0x20 DUP3 ADD SWAP1 POP DUP2 DUP2 SUB PUSH0 DUP4 ADD MSTORE PUSH2 0x174C DUP2 PUSH2 0x1713 JUMP JUMPDEST SWAP1 POP SWAP2 SWAP1 POP JUMP JUMPDEST PUSH32 0x54686973207478496E646578206E65656473206D6F726520617070726F626174 PUSH0 DUP3 ADD MSTORE PUSH32 0x696F6E7300000000000000000000000000000000000000000000000000000000 PUSH1 0x20 DUP3 ADD MSTORE POP JUMP JUMPDEST PUSH0 PUSH2 0x17AD PUSH1 0x24 DUP4 PUSH2 0x111A JUMP JUMPDEST SWAP2 POP PUSH2 0x17B8 DUP3 PUSH2 0x1753 JUMP JUMPDEST PUSH1 0x40 DUP3 ADD SWAP1 POP SWAP2 SWAP1 POP JUMP JUMPDEST PUSH0 PUSH1 0x20 DUP3 ADD SWAP1 POP DUP2 DUP2 SUB PUSH0 DUP4 ADD MSTORE PUSH2 0x17DA DUP2 PUSH2 0x17A1 JUMP JUMPDEST SWAP1 POP SWAP2 SWAP1 POP JUMP JUMPDEST PUSH0 DUP2 SWAP1 POP SWAP3 SWAP2 POP POP JUMP JUMPDEST PUSH0 DUP2 SLOAD PUSH2 0x17F7 DUP2 PUSH2 0x11EC JUMP JUMPDEST PUSH2 0x1801 DUP2 DUP7 PUSH2 0x17E1 JUMP JUMPDEST SWAP5 POP PUSH1 0x1 DUP3 AND PUSH0 DUP2 EQ PUSH2 0x181B JUMPI PUSH1 0x1 DUP2 EQ PUSH2 0x1830 JUMPI PUSH2 0x1862 JUMP JUMPDEST PUSH1 0xFF NOT DUP4 AND DUP7 MSTORE DUP2 ISZERO ISZERO DUP3 MUL DUP7 ADD SWAP4 POP PUSH2 0x1862 JUMP JUMPDEST PUSH2 0x1839 DUP6 PUSH2 0x121C JUMP JUMPDEST PUSH0 JUMPDEST DUP4 DUP2 LT ISZERO PUSH2 0x185A JUMPI DUP2 SLOAD DUP2 DUP10 ADD MSTORE PUSH1 0x1 DUP3 ADD SWAP2 POP PUSH1 0x20 DUP2 ADD SWAP1 POP PUSH2 0x183B JUMP JUMPDEST DUP4 DUP9 ADD SWAP6 POP POP POP JUMPDEST POP POP POP SWAP3 SWAP2 POP POP JUMP JUMPDEST PUSH0 PUSH2 0x1876 DUP3 DUP5 PUSH2 0x17EB JUMP JUMPDEST SWAP2 POP DUP2 SWAP1 POP SWAP3 SWAP2 POP POP JUMP JUMPDEST PUSH32 0x65786563757465207472616E73616374696F6E206661696C0000000000000000 PUSH0 DUP3 ADD MSTORE POP JUMP JUMPDEST PUSH0 PUSH2 0x18B5 PUSH1 0x18 DUP4 PUSH2 0x111A JUMP JUMPDEST SWAP2 POP PUSH2 0x18C0 DUP3 PUSH2 0x1881 JUMP JUMPDEST PUSH1 0x20 DUP3 ADD SWAP1 POP SWAP2 SWAP1 POP JUMP JUMPDEST PUSH0 PUSH1 0x20 DUP3 ADD SWAP1 POP DUP2 DUP2 SUB PUSH0 DUP4 ADD MSTORE PUSH2 0x18E2 DUP2 PUSH2 0x18A9 JUMP JUMPDEST SWAP1 POP SWAP2 SWAP1 POP JUMP JUMPDEST PUSH0 PUSH2 0x18F3 DUP3 PUSH2 0xE20 JUMP JUMPDEST SWAP2 POP PUSH32 0xFFFFFFFFFFFFFFFFFFFFFFFFFFFFFFFFFFFFFFFFFFFFFFFFFFFFFFFFFFFFFFFF DUP3 SUB PUSH2 0x1925 JUMPI PUSH2 0x1924 PUSH2 0x1488 JUMP JUMPDEST JUMPDEST PUSH1 0x1 DUP3 ADD SWAP1 POP SWAP2 SWAP1 POP JUMP INVALID LOG2 PUSH5 0x6970667358 0x22 SLT KECCAK256 SWAP3 RETURN 0xD0 0xB0 SWAP7 0xFC 0xBC 0xD7 0xAD PUSH0 SMOD 0xFC 0xAE SGT SGT CALLDATASIZE SWAP2 EQ DUP10 0xB0 0xCC 0x4E PUSH0 0xA5 0xD8 0xAB 0xDC 0xB5 0xE1 GASPRICE EXP 0xAE PUSH5 0x736F6C6343 STOP ADDMOD BYTE STOP CALLER "
				},
				"gasEstimates": {
					"creation": {
						"codeDepositCost": "1300400",
						"executionCost": "infinite",
						"totalCost": "infinite"
					},
					"external": {
						"approve(uint256)": "37753",
						"execute(uint256)": "infinite",
						"isOwner(address)": "2900",
						"myTransactions(uint256)": "infinite",
						"owners(uint256)": "4944",
						"required()": "2469",
						"revoke(uint256)": "37771",
						"submit(address,uint256,bytes)": "infinite"
					},
					"internal": {
						"_isApproved(uint256)": "infinite",
						"_isOwner(address)": "2256",
						"_isTxExisted(uint256)": "2141"
					}
				},
				"methodIdentifiers": {
					"approve(uint256)": "b759f954",
					"execute(uint256)": "fe0d94c1",
					"isOwner(address)": "2f54bf6e",
					"myTransactions(uint256)": "4446630d",
					"owners(uint256)": "025e7c27",
					"required()": "dc8452cd",
					"revoke(uint256)": "20c5429b",
					"submit(address,uint256,bytes)": "14de327f"
				}
			},
			"storageLayout": {
				"storage": [
					{
						"astId": 38,
						"contract": "MultiSigWallet.sol:MultiSigWallet",
						"label": "owners",
						"offset": 0,
						"slot": "0",
						"type": "t_array(t_address)dyn_storage"
					},
					{
						"astId": 42,
						"contract": "MultiSigWallet.sol:MultiSigWallet",
						"label": "isOwner",
						"offset": 0,
						"slot": "1",
						"type": "t_mapping(t_address,t_bool)"
					},
					{
						"astId": 44,
						"contract": "MultiSigWallet.sol:MultiSigWallet",
						"label": "required",
						"offset": 0,
						"slot": "2",
						"type": "t_uint256"
					},
					{
						"astId": 57,
						"contract": "MultiSigWallet.sol:MultiSigWallet",
						"label": "myTransactions",
						"offset": 0,
						"slot": "3",
						"type": "t_array(t_struct(MyTransaction)53_storage)dyn_storage"
					},
					{
						"astId": 63,
						"contract": "MultiSigWallet.sol:MultiSigWallet",
						"label": "approvesList",
						"offset": 0,
						"slot": "4",
						"type": "t_mapping(t_uint256,t_mapping(t_address,t_bool))"
					}
				],
				"types": {
					"t_address": {
						"encoding": "inplace",
						"label": "address",
						"numberOfBytes": "20"
					},
					"t_array(t_address)dyn_storage": {
						"base": "t_address",
						"encoding": "dynamic_array",
						"label": "address[]",
						"numberOfBytes": "32"
					},
					"t_array(t_struct(MyTransaction)53_storage)dyn_storage": {
						"base": "t_struct(MyTransaction)53_storage",
						"encoding": "dynamic_array",
						"label": "struct MultiSigWallet.MyTransaction[]",
						"numberOfBytes": "32"
					},
					"t_bool": {
						"encoding": "inplace",
						"label": "bool",
						"numberOfBytes": "1"
					},
					"t_bytes_storage": {
						"encoding": "bytes",
						"label": "bytes",
						"numberOfBytes": "32"
					},
					"t_mapping(t_address,t_bool)": {
						"encoding": "mapping",
						"key": "t_address",
						"label": "mapping(address => bool)",
						"numberOfBytes": "32",
						"value": "t_bool"
					},
					"t_mapping(t_uint256,t_mapping(t_address,t_bool))": {
						"encoding": "mapping",
						"key": "t_uint256",
						"label": "mapping(uint256 => mapping(address => bool))",
						"numberOfBytes": "32",
						"value": "t_mapping(t_address,t_bool)"
					},
					"t_struct(MyTransaction)53_storage": {
						"encoding": "inplace",
						"label": "struct MultiSigWallet.MyTransaction",
						"members": [
							{
								"astId": 46,
								"contract": "MultiSigWallet.sol:MultiSigWallet",
								"label": "to",
								"offset": 0,
								"slot": "0",
								"type": "t_address"
							},
							{
								"astId": 48,
								"contract": "MultiSigWallet.sol:MultiSigWallet",
								"label": "amount",
								"offset": 0,
								"slot": "1",
								"type": "t_uint256"
							},
							{
								"astId": 50,
								"contract": "MultiSigWallet.sol:MultiSigWallet",
								"label": "txdata",
								"offset": 0,
								"slot": "2",
								"type": "t_bytes_storage"
							},
							{
								"astId": 52,
								"contract": "MultiSigWallet.sol:MultiSigWallet",
								"label": "completed",
								"offset": 0,
								"slot": "3",
								"type": "t_bool"
							}
						],
						"numberOfBytes": "128"
					},
					"t_uint256": {
						"encoding": "inplace",
						"label": "uint256",
						"numberOfBytes": "32"
					}
				}
			},
			"userdoc": {
				"kind": "user",
				"methods": {},
				"version": 1
			}
		}
	}
}