{
	"modifier.sol": {
		"modifierTest": {
			"abi": [
				{
					"inputs": [
						{
							"internalType": "int256",
							"name": "x",
							"type": "int256"
						},
						{
							"internalType": "int256",
							"name": "y",
							"type": "int256"
						}
					],
					"name": "changeNumber",
					"outputs": [],
					"stateMutability": "nonpayable",
					"type": "function"
				},
				{
					"inputs": [],
					"name": "doubleNumber",
					"outputs": [],
					"stateMutability": "nonpayable",
					"type": "function"
				},
				{
					"inputs": [],
					"name": "getNumber",
					"outputs": [
						{
							"internalType": "int256",
							"name": "",
							"type": "int256"
						}
					],
					"stateMutability": "view",
					"type": "function"
				},
				{
					"inputs": [],
					"name": "resetNumber",
					"outputs": [],
					"stateMutability": "nonpayable",
					"type": "function"
				},
				{
					"inputs": [
						{
							"internalType": "int256",
							"name": "x",
							"type": "int256"
						}
					],
					"name": "setNumber",
					"outputs": [],
					"stateMutability": "nonpayable",
					"type": "function"
				}
			],
			"devdoc": {
				"kind": "dev",
				"methods": {},
				"version": 1
			},
			"evm": {
				"assembly": "    /* \"modifier.sol\":60:898  contract modifierTest{... */\n  mstore(0x40, 0x80)\n  callvalue\n  dup1\n  iszero\n  tag_1\n  jumpi\n  0x00\n  dup1\n  revert\ntag_1:\n  pop\n  dataSize(sub_0)\n  dup1\n  dataOffset(sub_0)\n  0x00\n  codecopy\n  0x00\n  return\nstop\n\nsub_0: assembly {\n        /* \"modifier.sol\":60:898  contract modifierTest{... */\n      mstore(0x40, 0x80)\n      callvalue\n      dup1\n      iszero\n      tag_1\n      jumpi\n      0x00\n      dup1\n      revert\n    tag_1:\n      pop\n      jumpi(tag_2, lt(calldatasize, 0x04))\n      shr(0xe0, calldataload(0x00))\n      dup1\n      0x5035df81\n      eq\n      tag_3\n      jumpi\n      dup1\n      0x60362514\n      eq\n      tag_4\n      jumpi\n      dup1\n      0x9cf27f37\n      eq\n      tag_5\n      jumpi\n      dup1\n      0xca86850b\n      eq\n      tag_6\n      jumpi\n      dup1\n      0xf2c9ecd8\n      eq\n      tag_7\n      jumpi\n    tag_2:\n      0x00\n      dup1\n      revert\n        /* \"modifier.sol\":722:793  function resetNumber() external nonZero {... */\n    tag_3:\n      tag_8\n      tag_9\n      jump\t// in\n    tag_8:\n      stop\n        /* \"modifier.sol\":641:714  function doubleNumber() external nonZero {... */\n    tag_4:\n      tag_10\n      tag_11\n      jump\t// in\n    tag_10:\n      stop\n        /* \"modifier.sol\":560:633  function setNumber(int x) external addx(x){... */\n    tag_5:\n      tag_12\n      0x04\n      dup1\n      calldatasize\n      sub\n      dup2\n      add\n      swap1\n      tag_13\n      swap2\n      swap1\n      tag_14\n      jump\t// in\n    tag_13:\n      tag_15\n      jump\t// in\n    tag_12:\n      stop\n        /* \"modifier.sol\":801:895  function changeNumber(int x, int y) external sandwich(x, y){... */\n    tag_6:\n      tag_16\n      0x04\n      dup1\n      calldatasize\n      sub\n      dup2\n      add\n      swap1\n      tag_17\n      swap2\n      swap1\n      tag_18\n      jump\t// in\n    tag_17:\n      tag_19\n      jump\t// in\n    tag_16:\n      stop\n        /* \"modifier.sol\":471:552  function getNumber() external view returns(int){... */\n    tag_7:\n      tag_20\n      tag_21\n      jump\t// in\n    tag_20:\n      mload(0x40)\n      tag_22\n      swap2\n      swap1\n      tag_23\n      jump\t// in\n    tag_22:\n      mload(0x40)\n      dup1\n      swap2\n      sub\n      swap1\n      return\n        /* \"modifier.sol\":722:793  function resetNumber() external nonZero {... */\n    tag_9:\n        /* \"modifier.sol\":166:167  0 */\n      0x00\n        /* \"modifier.sol\":154:162  m_number */\n      dup1\n      sload\n        /* \"modifier.sol\":154:167  m_number != 0 */\n      sub\n        /* \"modifier.sol\":146:206  require(m_number != 0, \"number is 0, execution is stopped.\") */\n      tag_25\n      jumpi\n      mload(0x40)\n      0x08c379a000000000000000000000000000000000000000000000000000000000\n      dup2\n      mstore\n      0x04\n      add\n      tag_26\n      swap1\n      tag_27\n      jump\t// in\n    tag_26:\n      mload(0x40)\n      dup1\n      swap2\n      sub\n      swap1\n      revert\n    tag_25:\n        /* \"modifier.sol\":784:785  0 */\n      0x00\n        /* \"modifier.sol\":773:781  m_number */\n      dup1\n        /* \"modifier.sol\":773:785  m_number = 0 */\n      dup2\n      swap1\n      sstore\n      pop\n        /* \"modifier.sol\":722:793  function resetNumber() external nonZero {... */\n      jump\t// out\n        /* \"modifier.sol\":641:714  function doubleNumber() external nonZero {... */\n    tag_11:\n        /* \"modifier.sol\":166:167  0 */\n      0x00\n        /* \"modifier.sol\":154:162  m_number */\n      dup1\n      sload\n        /* \"modifier.sol\":154:167  m_number != 0 */\n      sub\n        /* \"modifier.sol\":146:206  require(m_number != 0, \"number is 0, execution is stopped.\") */\n      tag_30\n      jumpi\n      mload(0x40)\n      0x08c379a000000000000000000000000000000000000000000000000000000000\n      dup2\n      mstore\n      0x04\n      add\n      tag_31\n      swap1\n      tag_27\n      jump\t// in\n    tag_31:\n      mload(0x40)\n      dup1\n      swap2\n      sub\n      swap1\n      revert\n    tag_30:\n        /* \"modifier.sol\":705:706  2 */\n      0x02\n        /* \"modifier.sol\":693:701  m_number */\n      0x00\n      dup1\n        /* \"modifier.sol\":693:706  m_number *= 2 */\n      dup3\n      dup3\n      sload\n      tag_33\n      swap2\n      swap1\n      tag_34\n      jump\t// in\n    tag_33:\n      swap3\n      pop\n      pop\n      dup2\n      swap1\n      sstore\n      pop\n        /* \"modifier.sol\":641:714  function doubleNumber() external nonZero {... */\n      jump\t// out\n        /* \"modifier.sol\":560:633  function setNumber(int x) external addx(x){... */\n    tag_15:\n        /* \"modifier.sol\":600:601  x */\n      dup1\n        /* \"modifier.sol\":273:274  0 */\n      0x00\n        /* \"modifier.sol\":268:269  x */\n      dup2\n        /* \"modifier.sol\":268:274  x <= 0 */\n      sgt\n        /* \"modifier.sol\":265:298  if(x <= 0) revert(\"x should > 0\") */\n      tag_36\n      jumpi\n        /* \"modifier.sol\":276:298  revert(\"x should > 0\") */\n      mload(0x40)\n      0x08c379a000000000000000000000000000000000000000000000000000000000\n      dup2\n      mstore\n      0x04\n      add\n      tag_37\n      swap1\n      tag_38\n      jump\t// in\n    tag_37:\n      mload(0x40)\n      dup1\n      swap2\n      sub\n      swap1\n      revert\n        /* \"modifier.sol\":265:298  if(x <= 0) revert(\"x should > 0\") */\n    tag_36:\n        /* \"modifier.sol\":624:625  x */\n      dup2\n        /* \"modifier.sol\":613:621  m_number */\n      0x00\n        /* \"modifier.sol\":613:625  m_number = x */\n      dup2\n      swap1\n      sstore\n      pop\n        /* \"modifier.sol\":560:633  function setNumber(int x) external addx(x){... */\n      pop\n      pop\n      jump\t// out\n        /* \"modifier.sol\":801:895  function changeNumber(int x, int y) external sandwich(x, y){... */\n    tag_19:\n        /* \"modifier.sol\":855:856  x */\n      dup2\n        /* \"modifier.sol\":858:859  y */\n      dup2\n        /* \"modifier.sol\":374:375  0 */\n      0x00\n        /* \"modifier.sol\":369:370  x */\n      dup3\n        /* \"modifier.sol\":369:375  x <= 0 */\n      sgt\n      iszero\n        /* \"modifier.sol\":369:384  x <= 0 || y <=0 */\n      dup1\n      tag_41\n      jumpi\n      pop\n        /* \"modifier.sol\":383:384  0 */\n      0x00\n        /* \"modifier.sol\":379:380  y */\n      dup2\n        /* \"modifier.sol\":379:384  y <=0 */\n      sgt\n      iszero\n        /* \"modifier.sol\":369:384  x <= 0 || y <=0 */\n    tag_41:\n        /* \"modifier.sol\":366:419  if(x <= 0 || y <=0)    revert(\"x, y should both > 0\") */\n      iszero\n      tag_42\n      jumpi\n        /* \"modifier.sol\":389:419  revert(\"x, y should both > 0\") */\n      mload(0x40)\n      0x08c379a000000000000000000000000000000000000000000000000000000000\n      dup2\n      mstore\n      0x04\n      add\n      tag_43\n      swap1\n      tag_44\n      jump\t// in\n    tag_43:\n      mload(0x40)\n      dup1\n      swap2\n      sub\n      swap1\n      revert\n        /* \"modifier.sol\":366:419  if(x <= 0 || y <=0)    revert(\"x, y should both > 0\") */\n    tag_42:\n        /* \"modifier.sol\":886:887  y */\n      dup3\n        /* \"modifier.sol\":882:883  x */\n      dup5\n        /* \"modifier.sol\":882:887  x + y */\n      tag_46\n      swap2\n      swap1\n      tag_47\n      jump\t// in\n    tag_46:\n        /* \"modifier.sol\":871:879  m_number */\n      0x00\n        /* \"modifier.sol\":871:887  m_number = x + y */\n      dup2\n      swap1\n      sstore\n      pop\n        /* \"modifier.sol\":454:455  y */\n      dup1\n        /* \"modifier.sol\":442:450  m_number */\n      0x00\n      dup1\n        /* \"modifier.sol\":442:455  m_number += y */\n      dup3\n      dup3\n      sload\n      tag_48\n      swap2\n      swap1\n      tag_47\n      jump\t// in\n    tag_48:\n      swap3\n      pop\n      pop\n      dup2\n      swap1\n      sstore\n      pop\n        /* \"modifier.sol\":801:895  function changeNumber(int x, int y) external sandwich(x, y){... */\n      pop\n      pop\n      pop\n      pop\n      jump\t// out\n        /* \"modifier.sol\":471:552  function getNumber() external view returns(int){... */\n    tag_21:\n        /* \"modifier.sol\":514:517  int */\n      0x00\n        /* \"modifier.sol\":536:544  m_number */\n      dup1\n      sload\n        /* \"modifier.sol\":529:544  return m_number */\n      swap1\n      pop\n        /* \"modifier.sol\":471:552  function getNumber() external view returns(int){... */\n      swap1\n      jump\t// out\n        /* \"#utility.yul\":88:205   */\n    tag_51:\n        /* \"#utility.yul\":197:198   */\n      0x00\n        /* \"#utility.yul\":194:195   */\n      dup1\n        /* \"#utility.yul\":187:199   */\n      revert\n        /* \"#utility.yul\":334:410   */\n    tag_53:\n        /* \"#utility.yul\":370:377   */\n      0x00\n        /* \"#utility.yul\":399:404   */\n      dup2\n        /* \"#utility.yul\":388:404   */\n      swap1\n      pop\n        /* \"#utility.yul\":334:410   */\n      swap2\n      swap1\n      pop\n      jump\t// out\n        /* \"#utility.yul\":416:536   */\n    tag_54:\n        /* \"#utility.yul\":488:511   */\n      tag_71\n        /* \"#utility.yul\":505:510   */\n      dup2\n        /* \"#utility.yul\":488:511   */\n      tag_53\n      jump\t// in\n    tag_71:\n        /* \"#utility.yul\":481:486   */\n      dup2\n        /* \"#utility.yul\":478:512   */\n      eq\n        /* \"#utility.yul\":468:530   */\n      tag_72\n      jumpi\n        /* \"#utility.yul\":526:527   */\n      0x00\n        /* \"#utility.yul\":523:524   */\n      dup1\n        /* \"#utility.yul\":516:528   */\n      revert\n        /* \"#utility.yul\":468:530   */\n    tag_72:\n        /* \"#utility.yul\":416:536   */\n      pop\n      jump\t// out\n        /* \"#utility.yul\":542:679   */\n    tag_55:\n        /* \"#utility.yul\":587:592   */\n      0x00\n        /* \"#utility.yul\":625:631   */\n      dup2\n        /* \"#utility.yul\":612:632   */\n      calldataload\n        /* \"#utility.yul\":603:632   */\n      swap1\n      pop\n        /* \"#utility.yul\":641:673   */\n      tag_74\n        /* \"#utility.yul\":667:672   */\n      dup2\n        /* \"#utility.yul\":641:673   */\n      tag_54\n      jump\t// in\n    tag_74:\n        /* \"#utility.yul\":542:679   */\n      swap3\n      swap2\n      pop\n      pop\n      jump\t// out\n        /* \"#utility.yul\":685:1012   */\n    tag_14:\n        /* \"#utility.yul\":743:749   */\n      0x00\n        /* \"#utility.yul\":792:794   */\n      0x20\n        /* \"#utility.yul\":780:789   */\n      dup3\n        /* \"#utility.yul\":771:778   */\n      dup5\n        /* \"#utility.yul\":767:790   */\n      sub\n        /* \"#utility.yul\":763:795   */\n      slt\n        /* \"#utility.yul\":760:879   */\n      iszero\n      tag_76\n      jumpi\n        /* \"#utility.yul\":798:877   */\n      tag_77\n      tag_51\n      jump\t// in\n    tag_77:\n        /* \"#utility.yul\":760:879   */\n    tag_76:\n        /* \"#utility.yul\":918:919   */\n      0x00\n        /* \"#utility.yul\":943:995   */\n      tag_78\n        /* \"#utility.yul\":987:994   */\n      dup5\n        /* \"#utility.yul\":978:984   */\n      dup3\n        /* \"#utility.yul\":967:976   */\n      dup6\n        /* \"#utility.yul\":963:985   */\n      add\n        /* \"#utility.yul\":943:995   */\n      tag_55\n      jump\t// in\n    tag_78:\n        /* \"#utility.yul\":933:995   */\n      swap2\n      pop\n        /* \"#utility.yul\":889:1005   */\n      pop\n        /* \"#utility.yul\":685:1012   */\n      swap3\n      swap2\n      pop\n      pop\n      jump\t// out\n        /* \"#utility.yul\":1018:1488   */\n    tag_18:\n        /* \"#utility.yul\":1084:1090   */\n      0x00\n        /* \"#utility.yul\":1092:1098   */\n      dup1\n        /* \"#utility.yul\":1141:1143   */\n      0x40\n        /* \"#utility.yul\":1129:1138   */\n      dup4\n        /* \"#utility.yul\":1120:1127   */\n      dup6\n        /* \"#utility.yul\":1116:1139   */\n      sub\n        /* \"#utility.yul\":1112:1144   */\n      slt\n        /* \"#utility.yul\":1109:1228   */\n      iszero\n      tag_80\n      jumpi\n        /* \"#utility.yul\":1147:1226   */\n      tag_81\n      tag_51\n      jump\t// in\n    tag_81:\n        /* \"#utility.yul\":1109:1228   */\n    tag_80:\n        /* \"#utility.yul\":1267:1268   */\n      0x00\n        /* \"#utility.yul\":1292:1344   */\n      tag_82\n        /* \"#utility.yul\":1336:1343   */\n      dup6\n        /* \"#utility.yul\":1327:1333   */\n      dup3\n        /* \"#utility.yul\":1316:1325   */\n      dup7\n        /* \"#utility.yul\":1312:1334   */\n      add\n        /* \"#utility.yul\":1292:1344   */\n      tag_55\n      jump\t// in\n    tag_82:\n        /* \"#utility.yul\":1282:1344   */\n      swap3\n      pop\n        /* \"#utility.yul\":1238:1354   */\n      pop\n        /* \"#utility.yul\":1393:1395   */\n      0x20\n        /* \"#utility.yul\":1419:1471   */\n      tag_83\n        /* \"#utility.yul\":1463:1470   */\n      dup6\n        /* \"#utility.yul\":1454:1460   */\n      dup3\n        /* \"#utility.yul\":1443:1452   */\n      dup7\n        /* \"#utility.yul\":1439:1461   */\n      add\n        /* \"#utility.yul\":1419:1471   */\n      tag_55\n      jump\t// in\n    tag_83:\n        /* \"#utility.yul\":1409:1471   */\n      swap2\n      pop\n        /* \"#utility.yul\":1364:1481   */\n      pop\n        /* \"#utility.yul\":1018:1488   */\n      swap3\n      pop\n      swap3\n      swap1\n      pop\n      jump\t// out\n        /* \"#utility.yul\":1494:1609   */\n    tag_56:\n        /* \"#utility.yul\":1579:1602   */\n      tag_85\n        /* \"#utility.yul\":1596:1601   */\n      dup2\n        /* \"#utility.yul\":1579:1602   */\n      tag_53\n      jump\t// in\n    tag_85:\n        /* \"#utility.yul\":1574:1577   */\n      dup3\n        /* \"#utility.yul\":1567:1603   */\n      mstore\n        /* \"#utility.yul\":1494:1609   */\n      pop\n      pop\n      jump\t// out\n        /* \"#utility.yul\":1615:1833   */\n    tag_23:\n        /* \"#utility.yul\":1706:1710   */\n      0x00\n        /* \"#utility.yul\":1744:1746   */\n      0x20\n        /* \"#utility.yul\":1733:1742   */\n      dup3\n        /* \"#utility.yul\":1729:1747   */\n      add\n        /* \"#utility.yul\":1721:1747   */\n      swap1\n      pop\n        /* \"#utility.yul\":1757:1826   */\n      tag_87\n        /* \"#utility.yul\":1823:1824   */\n      0x00\n        /* \"#utility.yul\":1812:1821   */\n      dup4\n        /* \"#utility.yul\":1808:1825   */\n      add\n        /* \"#utility.yul\":1799:1805   */\n      dup5\n        /* \"#utility.yul\":1757:1826   */\n      tag_56\n      jump\t// in\n    tag_87:\n        /* \"#utility.yul\":1615:1833   */\n      swap3\n      swap2\n      pop\n      pop\n      jump\t// out\n        /* \"#utility.yul\":1839:2008   */\n    tag_57:\n        /* \"#utility.yul\":1923:1934   */\n      0x00\n        /* \"#utility.yul\":1957:1963   */\n      dup3\n        /* \"#utility.yul\":1952:1955   */\n      dup3\n        /* \"#utility.yul\":1945:1964   */\n      mstore\n        /* \"#utility.yul\":1997:2001   */\n      0x20\n        /* \"#utility.yul\":1992:1995   */\n      dup3\n        /* \"#utility.yul\":1988:2002   */\n      add\n        /* \"#utility.yul\":1973:2002   */\n      swap1\n      pop\n        /* \"#utility.yul\":1839:2008   */\n      swap3\n      swap2\n      pop\n      pop\n      jump\t// out\n        /* \"#utility.yul\":2014:2235   */\n    tag_58:\n        /* \"#utility.yul\":2154:2188   */\n      0x6e756d62657220697320302c20657865637574696f6e2069732073746f707065\n        /* \"#utility.yul\":2150:2151   */\n      0x00\n        /* \"#utility.yul\":2142:2148   */\n      dup3\n        /* \"#utility.yul\":2138:2152   */\n      add\n        /* \"#utility.yul\":2131:2189   */\n      mstore\n        /* \"#utility.yul\":2223:2227   */\n      0x642e000000000000000000000000000000000000000000000000000000000000\n        /* \"#utility.yul\":2218:2220   */\n      0x20\n        /* \"#utility.yul\":2210:2216   */\n      dup3\n        /* \"#utility.yul\":2206:2221   */\n      add\n        /* \"#utility.yul\":2199:2228   */\n      mstore\n        /* \"#utility.yul\":2014:2235   */\n      pop\n      jump\t// out\n        /* \"#utility.yul\":2241:2607   */\n    tag_59:\n        /* \"#utility.yul\":2383:2386   */\n      0x00\n        /* \"#utility.yul\":2404:2471   */\n      tag_91\n        /* \"#utility.yul\":2468:2470   */\n      0x22\n        /* \"#utility.yul\":2463:2466   */\n      dup4\n        /* \"#utility.yul\":2404:2471   */\n      tag_57\n      jump\t// in\n    tag_91:\n        /* \"#utility.yul\":2397:2471   */\n      swap2\n      pop\n        /* \"#utility.yul\":2480:2573   */\n      tag_92\n        /* \"#utility.yul\":2569:2572   */\n      dup3\n        /* \"#utility.yul\":2480:2573   */\n      tag_58\n      jump\t// in\n    tag_92:\n        /* \"#utility.yul\":2598:2600   */\n      0x40\n        /* \"#utility.yul\":2593:2596   */\n      dup3\n        /* \"#utility.yul\":2589:2601   */\n      add\n        /* \"#utility.yul\":2582:2601   */\n      swap1\n      pop\n        /* \"#utility.yul\":2241:2607   */\n      swap2\n      swap1\n      pop\n      jump\t// out\n        /* \"#utility.yul\":2613:3032   */\n    tag_27:\n        /* \"#utility.yul\":2779:2783   */\n      0x00\n        /* \"#utility.yul\":2817:2819   */\n      0x20\n        /* \"#utility.yul\":2806:2815   */\n      dup3\n        /* \"#utility.yul\":2802:2820   */\n      add\n        /* \"#utility.yul\":2794:2820   */\n      swap1\n      pop\n        /* \"#utility.yul\":2866:2875   */\n      dup2\n        /* \"#utility.yul\":2860:2864   */\n      dup2\n        /* \"#utility.yul\":2856:2876   */\n      sub\n        /* \"#utility.yul\":2852:2853   */\n      0x00\n        /* \"#utility.yul\":2841:2850   */\n      dup4\n        /* \"#utility.yul\":2837:2854   */\n      add\n        /* \"#utility.yul\":2830:2877   */\n      mstore\n        /* \"#utility.yul\":2894:3025   */\n      tag_94\n        /* \"#utility.yul\":3020:3024   */\n      dup2\n        /* \"#utility.yul\":2894:3025   */\n      tag_59\n      jump\t// in\n    tag_94:\n        /* \"#utility.yul\":2886:3025   */\n      swap1\n      pop\n        /* \"#utility.yul\":2613:3032   */\n      swap2\n      swap1\n      pop\n      jump\t// out\n        /* \"#utility.yul\":3038:3218   */\n    tag_60:\n        /* \"#utility.yul\":3086:3163   */\n      0x4e487b7100000000000000000000000000000000000000000000000000000000\n        /* \"#utility.yul\":3083:3084   */\n      0x00\n        /* \"#utility.yul\":3076:3164   */\n      mstore\n        /* \"#utility.yul\":3183:3187   */\n      0x11\n        /* \"#utility.yul\":3180:3181   */\n      0x04\n        /* \"#utility.yul\":3173:3188   */\n      mstore\n        /* \"#utility.yul\":3207:3211   */\n      0x24\n        /* \"#utility.yul\":3204:3205   */\n      0x00\n        /* \"#utility.yul\":3197:3212   */\n      revert\n        /* \"#utility.yul\":3224:3780   */\n    tag_34:\n        /* \"#utility.yul\":3263:3270   */\n      0x00\n        /* \"#utility.yul\":3286:3305   */\n      tag_97\n        /* \"#utility.yul\":3303:3304   */\n      dup3\n        /* \"#utility.yul\":3286:3305   */\n      tag_53\n      jump\t// in\n    tag_97:\n        /* \"#utility.yul\":3281:3305   */\n      swap2\n      pop\n        /* \"#utility.yul\":3319:3338   */\n      tag_98\n        /* \"#utility.yul\":3336:3337   */\n      dup4\n        /* \"#utility.yul\":3319:3338   */\n      tag_53\n      jump\t// in\n    tag_98:\n        /* \"#utility.yul\":3314:3338   */\n      swap3\n      pop\n        /* \"#utility.yul\":3373:3374   */\n      dup3\n        /* \"#utility.yul\":3370:3371   */\n      dup3\n        /* \"#utility.yul\":3366:3375   */\n      mul\n        /* \"#utility.yul\":3395:3424   */\n      tag_99\n        /* \"#utility.yul\":3412:3423   */\n      dup2\n        /* \"#utility.yul\":3395:3424   */\n      tag_53\n      jump\t// in\n    tag_99:\n        /* \"#utility.yul\":3384:3424   */\n      swap2\n      pop\n        /* \"#utility.yul\":3482:3548   */\n      0x8000000000000000000000000000000000000000000000000000000000000000\n        /* \"#utility.yul\":3479:3480   */\n      dup5\n        /* \"#utility.yul\":3476:3549   */\n      eq\n        /* \"#utility.yul\":3472:3473   */\n      0x00\n        /* \"#utility.yul\":3469:3470   */\n      dup5\n        /* \"#utility.yul\":3465:3474   */\n      slt\n        /* \"#utility.yul\":3461:3550   */\n      and\n        /* \"#utility.yul\":3458:3573   */\n      iszero\n      tag_100\n      jumpi\n        /* \"#utility.yul\":3553:3571   */\n      tag_101\n      tag_60\n      jump\t// in\n    tag_101:\n        /* \"#utility.yul\":3458:3573   */\n    tag_100:\n        /* \"#utility.yul\":3723:3724   */\n      dup3\n        /* \"#utility.yul\":3714:3721   */\n      dup3\n        /* \"#utility.yul\":3709:3725   */\n      sdiv\n        /* \"#utility.yul\":3706:3707   */\n      dup5\n        /* \"#utility.yul\":3703:3726   */\n      eq\n        /* \"#utility.yul\":3683:3684   */\n      dup4\n        /* \"#utility.yul\":3676:3685   */\n      iszero\n        /* \"#utility.yul\":3656:3740   */\n      or\n        /* \"#utility.yul\":3633:3773   */\n      tag_102\n      jumpi\n        /* \"#utility.yul\":3753:3771   */\n      tag_103\n      tag_60\n      jump\t// in\n    tag_103:\n        /* \"#utility.yul\":3633:3773   */\n    tag_102:\n        /* \"#utility.yul\":3271:3780   */\n      pop\n        /* \"#utility.yul\":3224:3780   */\n      swap3\n      swap2\n      pop\n      pop\n      jump\t// out\n        /* \"#utility.yul\":3786:3948   */\n    tag_61:\n        /* \"#utility.yul\":3926:3940   */\n      0x782073686f756c64203e20300000000000000000000000000000000000000000\n        /* \"#utility.yul\":3922:3923   */\n      0x00\n        /* \"#utility.yul\":3914:3920   */\n      dup3\n        /* \"#utility.yul\":3910:3924   */\n      add\n        /* \"#utility.yul\":3903:3941   */\n      mstore\n        /* \"#utility.yul\":3786:3948   */\n      pop\n      jump\t// out\n        /* \"#utility.yul\":3954:4320   */\n    tag_62:\n        /* \"#utility.yul\":4096:4099   */\n      0x00\n        /* \"#utility.yul\":4117:4184   */\n      tag_106\n        /* \"#utility.yul\":4181:4183   */\n      0x0c\n        /* \"#utility.yul\":4176:4179   */\n      dup4\n        /* \"#utility.yul\":4117:4184   */\n      tag_57\n      jump\t// in\n    tag_106:\n        /* \"#utility.yul\":4110:4184   */\n      swap2\n      pop\n        /* \"#utility.yul\":4193:4286   */\n      tag_107\n        /* \"#utility.yul\":4282:4285   */\n      dup3\n        /* \"#utility.yul\":4193:4286   */\n      tag_61\n      jump\t// in\n    tag_107:\n        /* \"#utility.yul\":4311:4313   */\n      0x20\n        /* \"#utility.yul\":4306:4309   */\n      dup3\n        /* \"#utility.yul\":4302:4314   */\n      add\n        /* \"#utility.yul\":4295:4314   */\n      swap1\n      pop\n        /* \"#utility.yul\":3954:4320   */\n      swap2\n      swap1\n      pop\n      jump\t// out\n        /* \"#utility.yul\":4326:4745   */\n    tag_38:\n        /* \"#utility.yul\":4492:4496   */\n      0x00\n        /* \"#utility.yul\":4530:4532   */\n      0x20\n        /* \"#utility.yul\":4519:4528   */\n      dup3\n        /* \"#utility.yul\":4515:4533   */\n      add\n        /* \"#utility.yul\":4507:4533   */\n      swap1\n      pop\n        /* \"#utility.yul\":4579:4588   */\n      dup2\n        /* \"#utility.yul\":4573:4577   */\n      dup2\n        /* \"#utility.yul\":4569:4589   */\n      sub\n        /* \"#utility.yul\":4565:4566   */\n      0x00\n        /* \"#utility.yul\":4554:4563   */\n      dup4\n        /* \"#utility.yul\":4550:4567   */\n      add\n        /* \"#utility.yul\":4543:4590   */\n      mstore\n        /* \"#utility.yul\":4607:4738   */\n      tag_109\n        /* \"#utility.yul\":4733:4737   */\n      dup2\n        /* \"#utility.yul\":4607:4738   */\n      tag_62\n      jump\t// in\n    tag_109:\n        /* \"#utility.yul\":4599:4738   */\n      swap1\n      pop\n        /* \"#utility.yul\":4326:4745   */\n      swap2\n      swap1\n      pop\n      jump\t// out\n        /* \"#utility.yul\":4751:4921   */\n    tag_63:\n        /* \"#utility.yul\":4891:4913   */\n      0x782c20792073686f756c6420626f7468203e2030000000000000000000000000\n        /* \"#utility.yul\":4887:4888   */\n      0x00\n        /* \"#utility.yul\":4879:4885   */\n      dup3\n        /* \"#utility.yul\":4875:4889   */\n      add\n        /* \"#utility.yul\":4868:4914   */\n      mstore\n        /* \"#utility.yul\":4751:4921   */\n      pop\n      jump\t// out\n        /* \"#utility.yul\":4927:5293   */\n    tag_64:\n        /* \"#utility.yul\":5069:5072   */\n      0x00\n        /* \"#utility.yul\":5090:5157   */\n      tag_112\n        /* \"#utility.yul\":5154:5156   */\n      0x14\n        /* \"#utility.yul\":5149:5152   */\n      dup4\n        /* \"#utility.yul\":5090:5157   */\n      tag_57\n      jump\t// in\n    tag_112:\n        /* \"#utility.yul\":5083:5157   */\n      swap2\n      pop\n        /* \"#utility.yul\":5166:5259   */\n      tag_113\n        /* \"#utility.yul\":5255:5258   */\n      dup3\n        /* \"#utility.yul\":5166:5259   */\n      tag_63\n      jump\t// in\n    tag_113:\n        /* \"#utility.yul\":5284:5286   */\n      0x20\n        /* \"#utility.yul\":5279:5282   */\n      dup3\n        /* \"#utility.yul\":5275:5287   */\n      add\n        /* \"#utility.yul\":5268:5287   */\n      swap1\n      pop\n        /* \"#utility.yul\":4927:5293   */\n      swap2\n      swap1\n      pop\n      jump\t// out\n        /* \"#utility.yul\":5299:5718   */\n    tag_44:\n        /* \"#utility.yul\":5465:5469   */\n      0x00\n        /* \"#utility.yul\":5503:5505   */\n      0x20\n        /* \"#utility.yul\":5492:5501   */\n      dup3\n        /* \"#utility.yul\":5488:5506   */\n      add\n        /* \"#utility.yul\":5480:5506   */\n      swap1\n      pop\n        /* \"#utility.yul\":5552:5561   */\n      dup2\n        /* \"#utility.yul\":5546:5550   */\n      dup2\n        /* \"#utility.yul\":5542:5562   */\n      sub\n        /* \"#utility.yul\":5538:5539   */\n      0x00\n        /* \"#utility.yul\":5527:5536   */\n      dup4\n        /* \"#utility.yul\":5523:5540   */\n      add\n        /* \"#utility.yul\":5516:5563   */\n      mstore\n        /* \"#utility.yul\":5580:5711   */\n      tag_115\n        /* \"#utility.yul\":5706:5710   */\n      dup2\n        /* \"#utility.yul\":5580:5711   */\n      tag_64\n      jump\t// in\n    tag_115:\n        /* \"#utility.yul\":5572:5711   */\n      swap1\n      pop\n        /* \"#utility.yul\":5299:5718   */\n      swap2\n      swap1\n      pop\n      jump\t// out\n        /* \"#utility.yul\":5724:6099   */\n    tag_47:\n        /* \"#utility.yul\":5763:5766   */\n      0x00\n        /* \"#utility.yul\":5782:5801   */\n      tag_117\n        /* \"#utility.yul\":5799:5800   */\n      dup3\n        /* \"#utility.yul\":5782:5801   */\n      tag_53\n      jump\t// in\n    tag_117:\n        /* \"#utility.yul\":5777:5801   */\n      swap2\n      pop\n        /* \"#utility.yul\":5815:5834   */\n      tag_118\n        /* \"#utility.yul\":5832:5833   */\n      dup4\n        /* \"#utility.yul\":5815:5834   */\n      tag_53\n      jump\t// in\n    tag_118:\n        /* \"#utility.yul\":5810:5834   */\n      swap3\n      pop\n        /* \"#utility.yul\":5857:5858   */\n      dup3\n        /* \"#utility.yul\":5854:5855   */\n      dup3\n        /* \"#utility.yul\":5850:5859   */\n      add\n        /* \"#utility.yul\":5843:5859   */\n      swap1\n      pop\n        /* \"#utility.yul\":6055:6056   */\n      dup3\n        /* \"#utility.yul\":6050:6053   */\n      dup2\n        /* \"#utility.yul\":6046:6057   */\n      slt\n        /* \"#utility.yul\":6039:6058   */\n      iszero\n        /* \"#utility.yul\":6035:6036   */\n      0x00\n        /* \"#utility.yul\":6032:6033   */\n      dup4\n        /* \"#utility.yul\":6028:6037   */\n      slt\n        /* \"#utility.yul\":6024:6059   */\n      and\n        /* \"#utility.yul\":6007:6008   */\n      dup4\n        /* \"#utility.yul\":6002:6005   */\n      dup3\n        /* \"#utility.yul\":5998:6009   */\n      slt\n        /* \"#utility.yul\":5993:5994   */\n      0x00\n        /* \"#utility.yul\":5990:5991   */\n      dup5\n        /* \"#utility.yul\":5986:5995   */\n      slt\n        /* \"#utility.yul\":5979:5996   */\n      iszero\n        /* \"#utility.yul\":5975:6010   */\n      and\n        /* \"#utility.yul\":5959:6069   */\n      or\n        /* \"#utility.yul\":5956:6092   */\n      iszero\n      tag_119\n      jumpi\n        /* \"#utility.yul\":6072:6090   */\n      tag_120\n      tag_60\n      jump\t// in\n    tag_120:\n        /* \"#utility.yul\":5956:6092   */\n    tag_119:\n        /* \"#utility.yul\":5724:6099   */\n      swap3\n      swap2\n      pop\n      pop\n      jump\t// out\n\n    auxdata: 0xa26469706673582212209d9fbcd3da4d3bffb6379c03299648d0fa1f7463d4cf392167cf000fa1834aa264736f6c634300081a0033\n}\n",
				"bytecode": {
					"linkReferences": {},
					"object": "6080604052348015600e575f80fd5b5061058f8061001c5f395ff3fe608060405234801561000f575f80fd5b5060043610610055575f3560e01c80635035df811461005957806360362514146100635780639cf27f371461006d578063ca86850b14610089578063f2c9ecd8146100a5575b5f80fd5b6100616100c3565b005b61006b61010e565b005b61008760048036038101906100829190610276565b61016b565b005b6100a3600480360381019061009e91906102a1565b6101b8565b005b6100ad610237565b6040516100ba91906102ee565b60405180910390f35b5f805403610106576040517f08c379a00000000000000000000000000000000000000000000000000000000081526004016100fd90610387565b60405180910390fd5b5f8081905550565b5f805403610151576040517f08c379a000000000000000000000000000000000000000000000000000000000815260040161014890610387565b60405180910390fd5b60025f8082825461016291906103d2565b92505081905550565b805f81136101ae576040517f08c379a00000000000000000000000000000000000000000000000000000000081526004016101a590610492565b60405180910390fd5b815f819055505050565b81815f821315806101c957505f8113155b15610209576040517f08c379a0000000000000000000000000000000000000000000000000000000008152600401610200906104fa565b60405180910390fd5b82846102159190610518565b5f81905550805f8082825461022a9190610518565b9250508190555050505050565b5f8054905090565b5f80fd5b5f819050919050565b61025581610243565b811461025f575f80fd5b50565b5f813590506102708161024c565b92915050565b5f6020828403121561028b5761028a61023f565b5b5f61029884828501610262565b91505092915050565b5f80604083850312156102b7576102b661023f565b5b5f6102c485828601610262565b92505060206102d585828601610262565b9150509250929050565b6102e881610243565b82525050565b5f6020820190506103015f8301846102df565b92915050565b5f82825260208201905092915050565b7f6e756d62657220697320302c20657865637574696f6e2069732073746f7070655f8201527f642e000000000000000000000000000000000000000000000000000000000000602082015250565b5f610371602283610307565b915061037c82610317565b604082019050919050565b5f6020820190508181035f83015261039e81610365565b9050919050565b7f4e487b71000000000000000000000000000000000000000000000000000000005f52601160045260245ffd5b5f6103dc82610243565b91506103e783610243565b92508282026103f581610243565b91507f800000000000000000000000000000000000000000000000000000000000000084145f8412161561042c5761042b6103a5565b5b8282058414831517610441576104406103a5565b5b5092915050565b7f782073686f756c64203e203000000000000000000000000000000000000000005f82015250565b5f61047c600c83610307565b915061048782610448565b602082019050919050565b5f6020820190508181035f8301526104a981610470565b9050919050565b7f782c20792073686f756c6420626f7468203e20300000000000000000000000005f82015250565b5f6104e4601483610307565b91506104ef826104b0565b602082019050919050565b5f6020820190508181035f830152610511816104d8565b9050919050565b5f61052282610243565b915061052d83610243565b92508282019050828112155f8312168382125f841215161715610553576105526103a5565b5b9291505056fea26469706673582212209d9fbcd3da4d3bffb6379c03299648d0fa1f7463d4cf392167cf000fa1834aa264736f6c634300081a0033",
					"opcodes": "PUSH1 0x80 PUSH1 0x40 MSTORE CALLVALUE DUP1 ISZERO PUSH1 0xE JUMPI PUSH0 DUP1 REVERT JUMPDEST POP PUSH2 0x58F DUP1 PUSH2 0x1C PUSH0 CODECOPY PUSH0 RETURN INVALID PUSH1 0x80 PUSH1 0x40 MSTORE CALLVALUE DUP1 ISZERO PUSH2 0xF JUMPI PUSH0 DUP1 REVERT JUMPDEST POP PUSH1 0x4 CALLDATASIZE LT PUSH2 0x55 JUMPI PUSH0 CALLDATALOAD PUSH1 0xE0 SHR DUP1 PUSH4 0x5035DF81 EQ PUSH2 0x59 JUMPI DUP1 PUSH4 0x60362514 EQ PUSH2 0x63 JUMPI DUP1 PUSH4 0x9CF27F37 EQ PUSH2 0x6D JUMPI DUP1 PUSH4 0xCA86850B EQ PUSH2 0x89 JUMPI DUP1 PUSH4 0xF2C9ECD8 EQ PUSH2 0xA5 JUMPI JUMPDEST PUSH0 DUP1 REVERT JUMPDEST PUSH2 0x61 PUSH2 0xC3 JUMP JUMPDEST STOP JUMPDEST PUSH2 0x6B PUSH2 0x10E JUMP JUMPDEST STOP JUMPDEST PUSH2 0x87 PUSH1 0x4 DUP1 CALLDATASIZE SUB DUP2 ADD SWAP1 PUSH2 0x82 SWAP2 SWAP1 PUSH2 0x276 JUMP JUMPDEST PUSH2 0x16B JUMP JUMPDEST STOP JUMPDEST PUSH2 0xA3 PUSH1 0x4 DUP1 CALLDATASIZE SUB DUP2 ADD SWAP1 PUSH2 0x9E SWAP2 SWAP1 PUSH2 0x2A1 JUMP JUMPDEST PUSH2 0x1B8 JUMP JUMPDEST STOP JUMPDEST PUSH2 0xAD PUSH2 0x237 JUMP JUMPDEST PUSH1 0x40 MLOAD PUSH2 0xBA SWAP2 SWAP1 PUSH2 0x2EE JUMP JUMPDEST PUSH1 0x40 MLOAD DUP1 SWAP2 SUB SWAP1 RETURN JUMPDEST PUSH0 DUP1 SLOAD SUB PUSH2 0x106 JUMPI PUSH1 0x40 MLOAD PUSH32 0x8C379A000000000000000000000000000000000000000000000000000000000 DUP2 MSTORE PUSH1 0x4 ADD PUSH2 0xFD SWAP1 PUSH2 0x387 JUMP JUMPDEST PUSH1 0x40 MLOAD DUP1 SWAP2 SUB SWAP1 REVERT JUMPDEST PUSH0 DUP1 DUP2 SWAP1 SSTORE POP JUMP JUMPDEST PUSH0 DUP1 SLOAD SUB PUSH2 0x151 JUMPI PUSH1 0x40 MLOAD PUSH32 0x8C379A000000000000000000000000000000000000000000000000000000000 DUP2 MSTORE PUSH1 0x4 ADD PUSH2 0x148 SWAP1 PUSH2 0x387 JUMP JUMPDEST PUSH1 0x40 MLOAD DUP1 SWAP2 SUB SWAP1 REVERT JUMPDEST PUSH1 0x2 PUSH0 DUP1 DUP3 DUP3 SLOAD PUSH2 0x162 SWAP2 SWAP1 PUSH2 0x3D2 JUMP JUMPDEST SWAP3 POP POP DUP2 SWAP1 SSTORE POP JUMP JUMPDEST DUP1 PUSH0 DUP2 SGT PUSH2 0x1AE JUMPI PUSH1 0x40 MLOAD PUSH32 0x8C379A000000000000000000000000000000000000000000000000000000000 DUP2 MSTORE PUSH1 0x4 ADD PUSH2 0x1A5 SWAP1 PUSH2 0x492 JUMP JUMPDEST PUSH1 0x40 MLOAD DUP1 SWAP2 SUB SWAP1 REVERT JUMPDEST DUP2 PUSH0 DUP2 SWAP1 SSTORE POP POP POP JUMP JUMPDEST DUP2 DUP2 PUSH0 DUP3 SGT ISZERO DUP1 PUSH2 0x1C9 JUMPI POP PUSH0 DUP2 SGT ISZERO JUMPDEST ISZERO PUSH2 0x209 JUMPI PUSH1 0x40 MLOAD PUSH32 0x8C379A000000000000000000000000000000000000000000000000000000000 DUP2 MSTORE PUSH1 0x4 ADD PUSH2 0x200 SWAP1 PUSH2 0x4FA JUMP JUMPDEST PUSH1 0x40 MLOAD DUP1 SWAP2 SUB SWAP1 REVERT JUMPDEST DUP3 DUP5 PUSH2 0x215 SWAP2 SWAP1 PUSH2 0x518 JUMP JUMPDEST PUSH0 DUP2 SWAP1 SSTORE POP DUP1 PUSH0 DUP1 DUP3 DUP3 SLOAD PUSH2 0x22A SWAP2 SWAP1 PUSH2 0x518 JUMP JUMPDEST SWAP3 POP POP DUP2 SWAP1 SSTORE POP POP POP POP POP JUMP JUMPDEST PUSH0 DUP1 SLOAD SWAP1 POP SWAP1 JUMP JUMPDEST PUSH0 DUP1 REVERT JUMPDEST PUSH0 DUP2 SWAP1 POP SWAP2 SWAP1 POP JUMP JUMPDEST PUSH2 0x255 DUP2 PUSH2 0x243 JUMP JUMPDEST DUP2 EQ PUSH2 0x25F JUMPI PUSH0 DUP1 REVERT JUMPDEST POP JUMP JUMPDEST PUSH0 DUP2 CALLDATALOAD SWAP1 POP PUSH2 0x270 DUP2 PUSH2 0x24C JUMP JUMPDEST SWAP3 SWAP2 POP POP JUMP JUMPDEST PUSH0 PUSH1 0x20 DUP3 DUP5 SUB SLT ISZERO PUSH2 0x28B JUMPI PUSH2 0x28A PUSH2 0x23F JUMP JUMPDEST JUMPDEST PUSH0 PUSH2 0x298 DUP5 DUP3 DUP6 ADD PUSH2 0x262 JUMP JUMPDEST SWAP2 POP POP SWAP3 SWAP2 POP POP JUMP JUMPDEST PUSH0 DUP1 PUSH1 0x40 DUP4 DUP6 SUB SLT ISZERO PUSH2 0x2B7 JUMPI PUSH2 0x2B6 PUSH2 0x23F JUMP JUMPDEST JUMPDEST PUSH0 PUSH2 0x2C4 DUP6 DUP3 DUP7 ADD PUSH2 0x262 JUMP JUMPDEST SWAP3 POP POP PUSH1 0x20 PUSH2 0x2D5 DUP6 DUP3 DUP7 ADD PUSH2 0x262 JUMP JUMPDEST SWAP2 POP POP SWAP3 POP SWAP3 SWAP1 POP JUMP JUMPDEST PUSH2 0x2E8 DUP2 PUSH2 0x243 JUMP JUMPDEST DUP3 MSTORE POP POP JUMP JUMPDEST PUSH0 PUSH1 0x20 DUP3 ADD SWAP1 POP PUSH2 0x301 PUSH0 DUP4 ADD DUP5 PUSH2 0x2DF JUMP JUMPDEST SWAP3 SWAP2 POP POP JUMP JUMPDEST PUSH0 DUP3 DUP3 MSTORE PUSH1 0x20 DUP3 ADD SWAP1 POP SWAP3 SWAP2 POP POP JUMP JUMPDEST PUSH32 0x6E756D62657220697320302C20657865637574696F6E2069732073746F707065 PUSH0 DUP3 ADD MSTORE PUSH32 0x642E000000000000000000000000000000000000000000000000000000000000 PUSH1 0x20 DUP3 ADD MSTORE POP JUMP JUMPDEST PUSH0 PUSH2 0x371 PUSH1 0x22 DUP4 PUSH2 0x307 JUMP JUMPDEST SWAP2 POP PUSH2 0x37C DUP3 PUSH2 0x317 JUMP JUMPDEST PUSH1 0x40 DUP3 ADD SWAP1 POP SWAP2 SWAP1 POP JUMP JUMPDEST PUSH0 PUSH1 0x20 DUP3 ADD SWAP1 POP DUP2 DUP2 SUB PUSH0 DUP4 ADD MSTORE PUSH2 0x39E DUP2 PUSH2 0x365 JUMP JUMPDEST SWAP1 POP SWAP2 SWAP1 POP JUMP JUMPDEST PUSH32 0x4E487B7100000000000000000000000000000000000000000000000000000000 PUSH0 MSTORE PUSH1 0x11 PUSH1 0x4 MSTORE PUSH1 0x24 PUSH0 REVERT JUMPDEST PUSH0 PUSH2 0x3DC DUP3 PUSH2 0x243 JUMP JUMPDEST SWAP2 POP PUSH2 0x3E7 DUP4 PUSH2 0x243 JUMP JUMPDEST SWAP3 POP DUP3 DUP3 MUL PUSH2 0x3F5 DUP2 PUSH2 0x243 JUMP JUMPDEST SWAP2 POP PUSH32 0x8000000000000000000000000000000000000000000000000000000000000000 DUP5 EQ PUSH0 DUP5 SLT AND ISZERO PUSH2 0x42C JUMPI PUSH2 0x42B PUSH2 0x3A5 JUMP JUMPDEST JUMPDEST DUP3 DUP3 SDIV DUP5 EQ DUP4 ISZERO OR PUSH2 0x441 JUMPI PUSH2 0x440 PUSH2 0x3A5 JUMP JUMPDEST JUMPDEST POP SWAP3 SWAP2 POP POP JUMP JUMPDEST PUSH32 0x782073686F756C64203E20300000000000000000000000000000000000000000 PUSH0 DUP3 ADD MSTORE POP JUMP JUMPDEST PUSH0 PUSH2 0x47C PUSH1 0xC DUP4 PUSH2 0x307 JUMP JUMPDEST SWAP2 POP PUSH2 0x487 DUP3 PUSH2 0x448 JUMP JUMPDEST PUSH1 0x20 DUP3 ADD SWAP1 POP SWAP2 SWAP1 POP JUMP JUMPDEST PUSH0 PUSH1 0x20 DUP3 ADD SWAP1 POP DUP2 DUP2 SUB PUSH0 DUP4 ADD MSTORE PUSH2 0x4A9 DUP2 PUSH2 0x470 JUMP JUMPDEST SWAP1 POP SWAP2 SWAP1 POP JUMP JUMPDEST PUSH32 0x782C20792073686F756C6420626F7468203E2030000000000000000000000000 PUSH0 DUP3 ADD MSTORE POP JUMP JUMPDEST PUSH0 PUSH2 0x4E4 PUSH1 0x14 DUP4 PUSH2 0x307 JUMP JUMPDEST SWAP2 POP PUSH2 0x4EF DUP3 PUSH2 0x4B0 JUMP JUMPDEST PUSH1 0x20 DUP3 ADD SWAP1 POP SWAP2 SWAP1 POP JUMP JUMPDEST PUSH0 PUSH1 0x20 DUP3 ADD SWAP1 POP DUP2 DUP2 SUB PUSH0 DUP4 ADD MSTORE PUSH2 0x511 DUP2 PUSH2 0x4D8 JUMP JUMPDEST SWAP1 POP SWAP2 SWAP1 POP JUMP JUMPDEST PUSH0 PUSH2 0x522 DUP3 PUSH2 0x243 JUMP JUMPDEST SWAP2 POP PUSH2 0x52D DUP4 PUSH2 0x243 JUMP JUMPDEST SWAP3 POP DUP3 DUP3 ADD SWAP1 POP DUP3 DUP2 SLT ISZERO PUSH0 DUP4 SLT AND DUP4 DUP3 SLT PUSH0 DUP5 SLT ISZERO AND OR ISZERO PUSH2 0x553 JUMPI PUSH2 0x552 PUSH2 0x3A5 JUMP JUMPDEST JUMPDEST SWAP3 SWAP2 POP POP JUMP INVALID LOG2 PUSH5 0x6970667358 0x22 SLT KECCAK256 SWAP14 SWAP16 0xBC 0xD3 0xDA 0x4D EXTCODESIZE SELFDESTRUCT 0xB6 CALLDATACOPY SWAP13 SUB 0x29 SWAP7 BASEFEE 0xD0 STATICCALL 0x1F PUSH21 0x63D4CF392167CF000FA1834AA264736F6C63430008 BYTE STOP CALLER "
				},
				"gasEstimates": {
					"creation": {
						"codeDepositCost": "284600",
						"executionCost": "322",
						"totalCost": "284922"
					},
					"external": {
						"changeNumber(int256,int256)": "infinite",
						"doubleNumber()": "infinite",
						"getNumber()": "2498",
						"resetNumber()": "7256",
						"setNumber(int256)": "22563"
					}
				},
				"methodIdentifiers": {
					"changeNumber(int256,int256)": "ca86850b",
					"doubleNumber()": "60362514",
					"getNumber()": "f2c9ecd8",
					"resetNumber()": "5035df81",
					"setNumber(int256)": "9cf27f37"
				}
			},
			"storageLayout": {
				"storage": [
					{
						"astId": 3,
						"contract": "modifier.sol:modifierTest",
						"label": "m_number",
						"offset": 0,
						"slot": "0",
						"type": "t_int256"
					}
				],
				"types": {
					"t_int256": {
						"encoding": "inplace",
						"label": "int256",
						"numberOfBytes": "32"
					}
				}
			},
			"userdoc": {
				"kind": "user",
				"methods": {},
				"version": 1
			}
		}
	}
}