{
	"UUPS/UUPSLogic.sol": {
		"UUPSBoxV1": {
			"abi": [
				{
					"inputs": [
						{
							"internalType": "address",
							"name": "target",
							"type": "address"
						}
					],
					"name": "AddressEmptyCode",
					"type": "error"
				},
				{
					"inputs": [
						{
							"internalType": "address",
							"name": "implementation",
							"type": "address"
						}
					],
					"name": "ERC1967InvalidImplementation",
					"type": "error"
				},
				{
					"inputs": [],
					"name": "ERC1967NonPayable",
					"type": "error"
				},
				{
					"inputs": [],
					"name": "FailedCall",
					"type": "error"
				},
				{
					"inputs": [],
					"name": "InvalidInitialization",
					"type": "error"
				},
				{
					"inputs": [],
					"name": "NotInitializing",
					"type": "error"
				},
				{
					"inputs": [
						{
							"internalType": "address",
							"name": "owner",
							"type": "address"
						}
					],
					"name": "OwnableInvalidOwner",
					"type": "error"
				},
				{
					"inputs": [
						{
							"internalType": "address",
							"name": "account",
							"type": "address"
						}
					],
					"name": "OwnableUnauthorizedAccount",
					"type": "error"
				},
				{
					"inputs": [],
					"name": "UUPSUnauthorizedCallContext",
					"type": "error"
				},
				{
					"inputs": [
						{
							"internalType": "bytes32",
							"name": "slot",
							"type": "bytes32"
						}
					],
					"name": "UUPSUnsupportedProxiableUUID",
					"type": "error"
				},
				{
					"anonymous": false,
					"inputs": [
						{
							"indexed": false,
							"internalType": "uint64",
							"name": "version",
							"type": "uint64"
						}
					],
					"name": "Initialized",
					"type": "event"
				},
				{
					"anonymous": false,
					"inputs": [
						{
							"indexed": true,
							"internalType": "address",
							"name": "previousOwner",
							"type": "address"
						},
						{
							"indexed": true,
							"internalType": "address",
							"name": "newOwner",
							"type": "address"
						}
					],
					"name": "OwnershipTransferred",
					"type": "event"
				},
				{
					"anonymous": false,
					"inputs": [
						{
							"indexed": true,
							"internalType": "address",
							"name": "implementation",
							"type": "address"
						}
					],
					"name": "Upgraded",
					"type": "event"
				},
				{
					"inputs": [],
					"name": "UPGRADE_INTERFACE_VERSION",
					"outputs": [
						{
							"internalType": "string",
							"name": "",
							"type": "string"
						}
					],
					"stateMutability": "view",
					"type": "function"
				},
				{
					"inputs": [],
					"name": "cal",
					"outputs": [
						{
							"internalType": "uint256",
							"name": "",
							"type": "uint256"
						}
					],
					"stateMutability": "nonpayable",
					"type": "function"
				},
				{
					"inputs": [],
					"name": "getCaller",
					"outputs": [
						{
							"internalType": "address",
							"name": "",
							"type": "address"
						}
					],
					"stateMutability": "view",
					"type": "function"
				},
				{
					"inputs": [],
					"name": "getCount",
					"outputs": [
						{
							"internalType": "uint256",
							"name": "",
							"type": "uint256"
						}
					],
					"stateMutability": "view",
					"type": "function"
				},
				{
					"inputs": [
						{
							"internalType": "uint256",
							"name": "_x",
							"type": "uint256"
						}
					],
					"name": "getInitCalldata",
					"outputs": [
						{
							"internalType": "bytes",
							"name": "",
							"type": "bytes"
						}
					],
					"stateMutability": "pure",
					"type": "function"
				},
				{
					"inputs": [],
					"name": "getOwner",
					"outputs": [
						{
							"internalType": "address",
							"name": "",
							"type": "address"
						}
					],
					"stateMutability": "view",
					"type": "function"
				},
				{
					"inputs": [],
					"name": "getThisAddr",
					"outputs": [
						{
							"internalType": "address",
							"name": "",
							"type": "address"
						}
					],
					"stateMutability": "view",
					"type": "function"
				},
				{
					"inputs": [
						{
							"internalType": "uint256",
							"name": "_x",
							"type": "uint256"
						}
					],
					"name": "initialize",
					"outputs": [],
					"stateMutability": "nonpayable",
					"type": "function"
				},
				{
					"inputs": [],
					"name": "owner",
					"outputs": [
						{
							"internalType": "address",
							"name": "",
							"type": "address"
						}
					],
					"stateMutability": "view",
					"type": "function"
				},
				{
					"inputs": [],
					"name": "proxiableUUID",
					"outputs": [
						{
							"internalType": "bytes32",
							"name": "",
							"type": "bytes32"
						}
					],
					"stateMutability": "view",
					"type": "function"
				},
				{
					"inputs": [],
					"name": "renounceOwnership",
					"outputs": [],
					"stateMutability": "nonpayable",
					"type": "function"
				},
				{
					"inputs": [
						{
							"internalType": "address",
							"name": "newOwner",
							"type": "address"
						}
					],
					"name": "transferOwnership",
					"outputs": [],
					"stateMutability": "nonpayable",
					"type": "function"
				},
				{
					"inputs": [
						{
							"internalType": "address",
							"name": "newImplementation",
							"type": "address"
						},
						{
							"internalType": "bytes",
							"name": "data",
							"type": "bytes"
						}
					],
					"name": "upgradeToAndCall",
					"outputs": [],
					"stateMutability": "payable",
					"type": "function"
				},
				{
					"stateMutability": "payable",
					"type": "receive"
				}
			],
			"devdoc": {
				"errors": {
					"AddressEmptyCode(address)": [
						{
							"details": "There's no code at `target` (it is not a contract)."
						}
					],
					"ERC1967InvalidImplementation(address)": [
						{
							"details": "The `implementation` of the proxy is invalid."
						}
					],
					"ERC1967NonPayable()": [
						{
							"details": "An upgrade function sees `msg.value > 0` that may be lost."
						}
					],
					"FailedCall()": [
						{
							"details": "A call to an address target failed. The target may have reverted."
						}
					],
					"InvalidInitialization()": [
						{
							"details": "The contract is already initialized."
						}
					],
					"NotInitializing()": [
						{
							"details": "The contract is not initializing."
						}
					],
					"OwnableInvalidOwner(address)": [
						{
							"details": "The owner is not a valid owner account. (eg. `address(0)`)"
						}
					],
					"OwnableUnauthorizedAccount(address)": [
						{
							"details": "The caller account is not authorized to perform an operation."
						}
					],
					"UUPSUnauthorizedCallContext()": [
						{
							"details": "The call is from an unauthorized context."
						}
					],
					"UUPSUnsupportedProxiableUUID(bytes32)": [
						{
							"details": "The storage `slot` is unsupported as a UUID."
						}
					]
				},
				"events": {
					"Initialized(uint64)": {
						"details": "Triggered when the contract has been initialized or reinitialized."
					},
					"Upgraded(address)": {
						"details": "Emitted when the implementation is upgraded."
					}
				},
				"kind": "dev",
				"methods": {
					"owner()": {
						"details": "Returns the address of the current owner."
					},
					"proxiableUUID()": {
						"details": "Implementation of the ERC-1822 {proxiableUUID} function. This returns the storage slot used by the implementation. It is used to validate the implementation's compatibility when performing an upgrade. IMPORTANT: A proxy pointing at a proxiable contract should not be considered proxiable itself, because this risks bricking a proxy that upgrades to it, by delegating to itself until out of gas. Thus it is critical that this function revert if invoked through a proxy. This is guaranteed by the `notDelegated` modifier."
					},
					"renounceOwnership()": {
						"details": "Leaves the contract without owner. It will not be possible to call `onlyOwner` functions. Can only be called by the current owner. NOTE: Renouncing ownership will leave the contract without an owner, thereby disabling any functionality that is only available to the owner."
					},
					"transferOwnership(address)": {
						"details": "Transfers ownership of the contract to a new account (`newOwner`). Can only be called by the current owner."
					},
					"upgradeToAndCall(address,bytes)": {
						"custom:oz-upgrades-unsafe-allow-reachable": "delegatecall",
						"details": "Upgrade the implementation of the proxy to `newImplementation`, and subsequently execute the function call encoded in `data`. Calls {_authorizeUpgrade}. Emits an {Upgraded} event."
					}
				},
				"version": 1
			},
			"evm": {
				"assembly": "    /* \"UUPS/UUPSLogic.sol\":481:1461  contract UUPSBoxV1 is UUPSUpgradeable, OwnableUpgradeable  {... */\n  mstore(0x40, 0xa0)\n    /* \"@openzeppelin/contracts/proxy/utils/UUPSUpgradeable.sol\":1060:1064  this */\n  address\n    /* \"@openzeppelin/contracts/proxy/utils/UUPSUpgradeable.sol\":1017:1065  address private immutable __self = address(this) */\n  0xffffffffffffffffffffffffffffffffffffffff\n  and\n  0x80\n  swap1\n  0xffffffffffffffffffffffffffffffffffffffff\n  and\n  dup2\n  mstore\n  pop\n    /* \"UUPS/UUPSLogic.sol\":481:1461  contract UUPSBoxV1 is UUPSUpgradeable, OwnableUpgradeable  {... */\n  callvalue\n  dup1\n  iszero\n  tag_1\n  jumpi\n  0x00\n  dup1\n  revert\ntag_1:\n  pop\n  mload(0x80)\n  codecopy(0x00, dataOffset(sub_0), dataSize(sub_0))\n  0x00\n  assignImmutable(\"0x87b8181f2525747f7c2388fad45fd6fdeca8961ce0728225de7247b6a04dc463\")\n  return(0x00, dataSize(sub_0))\nstop\n\nsub_0: assembly {\n        /* \"UUPS/UUPSLogic.sol\":481:1461  contract UUPSBoxV1 is UUPSUpgradeable, OwnableUpgradeable  {... */\n      mstore(0x40, 0x80)\n      jumpi(tag_1, lt(calldatasize, 0x04))\n      shr(0xe0, calldataload(0x00))\n      dup1\n      0xa87d942c\n      gt\n      tag_16\n      jumpi\n      dup1\n      0xb7c738f4\n      gt\n      tag_17\n      jumpi\n      dup1\n      0xb7c738f4\n      eq\n      tag_12\n      jumpi\n      dup1\n      0xc39911cf\n      eq\n      tag_13\n      jumpi\n      dup1\n      0xf2fde38b\n      eq\n      tag_14\n      jumpi\n      dup1\n      0xfe4b84df\n      eq\n      tag_15\n      jumpi\n      jump(tag_2)\n    tag_17:\n      dup1\n      0xa87d942c\n      eq\n      tag_9\n      jumpi\n      dup1\n      0xab470f05\n      eq\n      tag_10\n      jumpi\n      dup1\n      0xad3cb1cc\n      eq\n      tag_11\n      jumpi\n      jump(tag_2)\n    tag_16:\n      dup1\n      0x1d54036f\n      eq\n      tag_3\n      jumpi\n      dup1\n      0x4f1ef286\n      eq\n      tag_4\n      jumpi\n      dup1\n      0x52d1902d\n      eq\n      tag_5\n      jumpi\n      dup1\n      0x715018a6\n      eq\n      tag_6\n      jumpi\n      dup1\n      0x893d20e8\n      eq\n      tag_7\n      jumpi\n      dup1\n      0x8da5cb5b\n      eq\n      tag_8\n      jumpi\n      jump(tag_2)\n    tag_1:\n      jumpi(tag_2, calldatasize)\n      stop\n    tag_2:\n      0x00\n      dup1\n      revert\n        /* \"UUPS/UUPSLogic.sol\":1310:1458  function getInitCalldata(uint _x) external  pure returns(bytes memory){... */\n    tag_3:\n      callvalue\n      dup1\n      iszero\n      tag_20\n      jumpi\n      0x00\n      dup1\n      revert\n    tag_20:\n      pop\n      tag_21\n      0x04\n      dup1\n      calldatasize\n      sub\n      dup2\n      add\n      swap1\n      tag_22\n      swap2\n      swap1\n      tag_23\n      jump\t// in\n    tag_22:\n      tag_24\n      jump\t// in\n    tag_21:\n      mload(0x40)\n      tag_25\n      swap2\n      swap1\n      tag_26\n      jump\t// in\n    tag_25:\n      mload(0x40)\n      dup1\n      swap2\n      sub\n      swap1\n      return\n        /* \"@openzeppelin/contracts/proxy/utils/UUPSUpgradeable.sol\":3895:4109  function upgradeToAndCall(address newImplementation, bytes memory data) public payable virtual onlyProxy {... */\n    tag_4:\n      tag_27\n      0x04\n      dup1\n      calldatasize\n      sub\n      dup2\n      add\n      swap1\n      tag_28\n      swap2\n      swap1\n      tag_29\n      jump\t// in\n    tag_28:\n      tag_30\n      jump\t// in\n    tag_27:\n      stop\n        /* \"@openzeppelin/contracts/proxy/utils/UUPSUpgradeable.sol\":3442:3576  function proxiableUUID() external view virtual notDelegated returns (bytes32) {... */\n    tag_5:\n      callvalue\n      dup1\n      iszero\n      tag_31\n      jumpi\n      0x00\n      dup1\n      revert\n    tag_31:\n      pop\n      tag_32\n      tag_33\n      jump\t// in\n    tag_32:\n      mload(0x40)\n      tag_34\n      swap2\n      swap1\n      tag_35\n      jump\t// in\n    tag_34:\n      mload(0x40)\n      dup1\n      swap2\n      sub\n      swap1\n      return\n        /* \"@openzeppelin/contracts-upgradeable/access/OwnableUpgradeable.sol\":3155:3256  function renounceOwnership() public virtual onlyOwner {... */\n    tag_6:\n      callvalue\n      dup1\n      iszero\n      tag_36\n      jumpi\n      0x00\n      dup1\n      revert\n    tag_36:\n      pop\n      tag_37\n      tag_38\n      jump\t// in\n    tag_37:\n      stop\n        /* \"UUPS/UUPSLogic.sol\":1030:1113  function getOwner() external view returns(address){... */\n    tag_7:\n      callvalue\n      dup1\n      iszero\n      tag_39\n      jumpi\n      0x00\n      dup1\n      revert\n    tag_39:\n      pop\n      tag_40\n      tag_41\n      jump\t// in\n    tag_40:\n      mload(0x40)\n      tag_42\n      swap2\n      swap1\n      tag_43\n      jump\t// in\n    tag_42:\n      mload(0x40)\n      dup1\n      swap2\n      sub\n      swap1\n      return\n        /* \"@openzeppelin/contracts-upgradeable/access/OwnableUpgradeable.sol\":2441:2585  function owner() public view virtual returns (address) {... */\n    tag_8:\n      callvalue\n      dup1\n      iszero\n      tag_44\n      jumpi\n      0x00\n      dup1\n      revert\n    tag_44:\n      pop\n      tag_45\n      tag_46\n      jump\t// in\n    tag_45:\n      mload(0x40)\n      tag_47\n      swap2\n      swap1\n      tag_43\n      jump\t// in\n    tag_47:\n      mload(0x40)\n      dup1\n      swap2\n      sub\n      swap1\n      return\n        /* \"UUPS/UUPSLogic.sol\":735:814  function getCount() external view returns(uint){... */\n    tag_9:\n      callvalue\n      dup1\n      iszero\n      tag_48\n      jumpi\n      0x00\n      dup1\n      revert\n    tag_48:\n      pop\n      tag_49\n      tag_50\n      jump\t// in\n    tag_49:\n      mload(0x40)\n      tag_51\n      swap2\n      swap1\n      tag_52\n      jump\t// in\n    tag_51:\n      mload(0x40)\n      dup1\n      swap2\n      sub\n      swap1\n      return\n        /* \"UUPS/UUPSLogic.sol\":1217:1304  function getCaller() external view returns(address){... */\n    tag_10:\n      callvalue\n      dup1\n      iszero\n      tag_53\n      jumpi\n      0x00\n      dup1\n      revert\n    tag_53:\n      pop\n      tag_54\n      tag_55\n      jump\t// in\n    tag_54:\n      mload(0x40)\n      tag_56\n      swap2\n      swap1\n      tag_43\n      jump\t// in\n    tag_56:\n      mload(0x40)\n      dup1\n      swap2\n      sub\n      swap1\n      return\n        /* \"@openzeppelin/contracts/proxy/utils/UUPSUpgradeable.sol\":1708:1766  string public constant UPGRADE_INTERFACE_VERSION = \"5.0.0\" */\n    tag_11:\n      callvalue\n      dup1\n      iszero\n      tag_57\n      jumpi\n      0x00\n      dup1\n      revert\n    tag_57:\n      pop\n      tag_58\n      tag_59\n      jump\t// in\n    tag_58:\n      mload(0x40)\n      tag_60\n      swap2\n      swap1\n      tag_61\n      jump\t// in\n    tag_60:\n      mload(0x40)\n      dup1\n      swap2\n      sub\n      swap1\n      return\n        /* \"UUPS/UUPSLogic.sol\":822:896  function cal() external returns(uint){... */\n    tag_12:\n      callvalue\n      dup1\n      iszero\n      tag_62\n      jumpi\n      0x00\n      dup1\n      revert\n    tag_62:\n      pop\n      tag_63\n      tag_64\n      jump\t// in\n    tag_63:\n      mload(0x40)\n      tag_65\n      swap2\n      swap1\n      tag_52\n      jump\t// in\n    tag_65:\n      mload(0x40)\n      dup1\n      swap2\n      sub\n      swap1\n      return\n        /* \"UUPS/UUPSLogic.sol\":1119:1211  function getThisAddr() external view returns(address){... */\n    tag_13:\n      callvalue\n      dup1\n      iszero\n      tag_66\n      jumpi\n      0x00\n      dup1\n      revert\n    tag_66:\n      pop\n      tag_67\n      tag_68\n      jump\t// in\n    tag_67:\n      mload(0x40)\n      tag_69\n      swap2\n      swap1\n      tag_43\n      jump\t// in\n    tag_69:\n      mload(0x40)\n      dup1\n      swap2\n      sub\n      swap1\n      return\n        /* \"@openzeppelin/contracts-upgradeable/access/OwnableUpgradeable.sol\":3405:3620  function transferOwnership(address newOwner) public virtual onlyOwner {... */\n    tag_14:\n      callvalue\n      dup1\n      iszero\n      tag_70\n      jumpi\n      0x00\n      dup1\n      revert\n    tag_70:\n      pop\n      tag_71\n      0x04\n      dup1\n      calldatasize\n      sub\n      dup2\n      add\n      swap1\n      tag_72\n      swap2\n      swap1\n      tag_73\n      jump\t// in\n    tag_72:\n      tag_74\n      jump\t// in\n    tag_71:\n      stop\n        /* \"UUPS/UUPSLogic.sol\":611:726  function initialize(uint _x) public initializer {... */\n    tag_15:\n      callvalue\n      dup1\n      iszero\n      tag_75\n      jumpi\n      0x00\n      dup1\n      revert\n    tag_75:\n      pop\n      tag_76\n      0x04\n      dup1\n      calldatasize\n      sub\n      dup2\n      add\n      swap1\n      tag_77\n      swap2\n      swap1\n      tag_23\n      jump\t// in\n    tag_77:\n      tag_78\n      jump\t// in\n    tag_76:\n      stop\n        /* \"UUPS/UUPSLogic.sol\":1310:1458  function getInitCalldata(uint _x) external  pure returns(bytes memory){... */\n    tag_24:\n        /* \"UUPS/UUPSLogic.sol\":1367:1379  bytes memory */\n      0x60\n        /* \"UUPS/UUPSLogic.sol\":1421:1445  this.initialize.selector */\n      shl(0xe0, 0xfe4b84df)\n        /* \"UUPS/UUPSLogic.sol\":1447:1449  _x */\n      dup3\n        /* \"UUPS/UUPSLogic.sol\":1398:1450  abi.encodeWithSelector(this.initialize.selector, _x) */\n      add(0x24, mload(0x40))\n      tag_80\n      swap2\n      swap1\n      tag_52\n      jump\t// in\n    tag_80:\n      mload(0x40)\n      0x20\n      dup2\n      dup4\n      sub\n      sub\n      dup2\n      mstore\n      swap1\n      0x40\n      mstore\n      swap1\n      not(0xffffffffffffffffffffffffffffffffffffffffffffffffffffffff)\n      and\n      0x20\n      dup3\n      add\n      dup1\n      mload\n      0xffffffffffffffffffffffffffffffffffffffffffffffffffffffff\n      dup4\n      dup2\n      dup4\n      and\n      or\n      dup4\n      mstore\n      pop\n      pop\n      pop\n      pop\n        /* \"UUPS/UUPSLogic.sol\":1391:1450  return abi.encodeWithSelector(this.initialize.selector, _x) */\n      swap1\n      pop\n        /* \"UUPS/UUPSLogic.sol\":1310:1458  function getInitCalldata(uint _x) external  pure returns(bytes memory){... */\n      swap2\n      swap1\n      pop\n      jump\t// out\n        /* \"@openzeppelin/contracts/proxy/utils/UUPSUpgradeable.sol\":3895:4109  function upgradeToAndCall(address newImplementation, bytes memory data) public payable virtual onlyProxy {... */\n    tag_30:\n        /* \"@openzeppelin/contracts/proxy/utils/UUPSUpgradeable.sol\":2544:2557  _checkProxy() */\n      tag_82\n        /* \"@openzeppelin/contracts/proxy/utils/UUPSUpgradeable.sol\":2544:2555  _checkProxy */\n      tag_83\n        /* \"@openzeppelin/contracts/proxy/utils/UUPSUpgradeable.sol\":2544:2557  _checkProxy() */\n      jump\t// in\n    tag_82:\n        /* \"@openzeppelin/contracts/proxy/utils/UUPSUpgradeable.sol\":4010:4046  _authorizeUpgrade(newImplementation) */\n      tag_85\n        /* \"@openzeppelin/contracts/proxy/utils/UUPSUpgradeable.sol\":4028:4045  newImplementation */\n      dup3\n        /* \"@openzeppelin/contracts/proxy/utils/UUPSUpgradeable.sol\":4010:4027  _authorizeUpgrade */\n      tag_86\n        /* \"@openzeppelin/contracts/proxy/utils/UUPSUpgradeable.sol\":4010:4046  _authorizeUpgrade(newImplementation) */\n      jump\t// in\n    tag_85:\n        /* \"@openzeppelin/contracts/proxy/utils/UUPSUpgradeable.sol\":4056:4102  _upgradeToAndCallUUPS(newImplementation, data) */\n      tag_87\n        /* \"@openzeppelin/contracts/proxy/utils/UUPSUpgradeable.sol\":4078:4095  newImplementation */\n      dup3\n        /* \"@openzeppelin/contracts/proxy/utils/UUPSUpgradeable.sol\":4097:4101  data */\n      dup3\n        /* \"@openzeppelin/contracts/proxy/utils/UUPSUpgradeable.sol\":4056:4077  _upgradeToAndCallUUPS */\n      tag_88\n        /* \"@openzeppelin/contracts/proxy/utils/UUPSUpgradeable.sol\":4056:4102  _upgradeToAndCallUUPS(newImplementation, data) */\n      jump\t// in\n    tag_87:\n        /* \"@openzeppelin/contracts/proxy/utils/UUPSUpgradeable.sol\":3895:4109  function upgradeToAndCall(address newImplementation, bytes memory data) public payable virtual onlyProxy {... */\n      pop\n      pop\n      jump\t// out\n        /* \"@openzeppelin/contracts/proxy/utils/UUPSUpgradeable.sol\":3442:3576  function proxiableUUID() external view virtual notDelegated returns (bytes32) {... */\n    tag_33:\n        /* \"@openzeppelin/contracts/proxy/utils/UUPSUpgradeable.sol\":3511:3518  bytes32 */\n      0x00\n        /* \"@openzeppelin/contracts/proxy/utils/UUPSUpgradeable.sol\":2815:2835  _checkNotDelegated() */\n      tag_90\n        /* \"@openzeppelin/contracts/proxy/utils/UUPSUpgradeable.sol\":2815:2833  _checkNotDelegated */\n      tag_91\n        /* \"@openzeppelin/contracts/proxy/utils/UUPSUpgradeable.sol\":2815:2835  _checkNotDelegated() */\n      jump\t// in\n    tag_90:\n        /* \"@openzeppelin/contracts/proxy/ERC1967/ERC1967Utils.sol\":811:877  0x360894a13ba1a3210667c828492db98dca3e2076cc3735a920a3ca505d382bbc */\n      0x360894a13ba1a3210667c828492db98dca3e2076cc3735a920a3ca505d382bbc\n        /* \"@openzeppelin/contracts/proxy/utils/UUPSUpgradeable.sol\":3537:3569  ERC1967Utils.IMPLEMENTATION_SLOT */\n      0x00\n      shl\n        /* \"@openzeppelin/contracts/proxy/utils/UUPSUpgradeable.sol\":3530:3569  return ERC1967Utils.IMPLEMENTATION_SLOT */\n      swap1\n      pop\n        /* \"@openzeppelin/contracts/proxy/utils/UUPSUpgradeable.sol\":3442:3576  function proxiableUUID() external view virtual notDelegated returns (bytes32) {... */\n      swap1\n      jump\t// out\n        /* \"@openzeppelin/contracts-upgradeable/access/OwnableUpgradeable.sol\":3155:3256  function renounceOwnership() public virtual onlyOwner {... */\n    tag_38:\n        /* \"@openzeppelin/contracts-upgradeable/access/OwnableUpgradeable.sol\":2334:2347  _checkOwner() */\n      tag_94\n        /* \"@openzeppelin/contracts-upgradeable/access/OwnableUpgradeable.sol\":2334:2345  _checkOwner */\n      tag_95\n        /* \"@openzeppelin/contracts-upgradeable/access/OwnableUpgradeable.sol\":2334:2347  _checkOwner() */\n      jump\t// in\n    tag_94:\n        /* \"@openzeppelin/contracts-upgradeable/access/OwnableUpgradeable.sol\":3219:3249  _transferOwnership(address(0)) */\n      tag_97\n        /* \"@openzeppelin/contracts-upgradeable/access/OwnableUpgradeable.sol\":3246:3247  0 */\n      0x00\n        /* \"@openzeppelin/contracts-upgradeable/access/OwnableUpgradeable.sol\":3219:3237  _transferOwnership */\n      tag_98\n        /* \"@openzeppelin/contracts-upgradeable/access/OwnableUpgradeable.sol\":3219:3249  _transferOwnership(address(0)) */\n      jump\t// in\n    tag_97:\n        /* \"@openzeppelin/contracts-upgradeable/access/OwnableUpgradeable.sol\":3155:3256  function renounceOwnership() public virtual onlyOwner {... */\n      jump\t// out\n        /* \"UUPS/UUPSLogic.sol\":1030:1113  function getOwner() external view returns(address){... */\n    tag_41:\n        /* \"UUPS/UUPSLogic.sol\":1072:1079  address */\n      0x00\n        /* \"UUPS/UUPSLogic.sol\":1098:1105  owner() */\n      tag_100\n        /* \"UUPS/UUPSLogic.sol\":1098:1103  owner */\n      tag_46\n        /* \"UUPS/UUPSLogic.sol\":1098:1105  owner() */\n      jump\t// in\n    tag_100:\n        /* \"UUPS/UUPSLogic.sol\":1091:1105  return owner() */\n      swap1\n      pop\n        /* \"UUPS/UUPSLogic.sol\":1030:1113  function getOwner() external view returns(address){... */\n      swap1\n      jump\t// out\n        /* \"@openzeppelin/contracts-upgradeable/access/OwnableUpgradeable.sol\":2441:2585  function owner() public view virtual returns (address) {... */\n    tag_46:\n        /* \"@openzeppelin/contracts-upgradeable/access/OwnableUpgradeable.sol\":2487:2494  address */\n      0x00\n        /* \"@openzeppelin/contracts-upgradeable/access/OwnableUpgradeable.sol\":2506:2530  OwnableStorage storage $ */\n      dup1\n        /* \"@openzeppelin/contracts-upgradeable/access/OwnableUpgradeable.sol\":2533:2553  _getOwnableStorage() */\n      tag_102\n        /* \"@openzeppelin/contracts-upgradeable/access/OwnableUpgradeable.sol\":2533:2551  _getOwnableStorage */\n      tag_103\n        /* \"@openzeppelin/contracts-upgradeable/access/OwnableUpgradeable.sol\":2533:2553  _getOwnableStorage() */\n      jump\t// in\n    tag_102:\n        /* \"@openzeppelin/contracts-upgradeable/access/OwnableUpgradeable.sol\":2506:2553  OwnableStorage storage $ = _getOwnableStorage() */\n      swap1\n      pop\n        /* \"@openzeppelin/contracts-upgradeable/access/OwnableUpgradeable.sol\":2570:2571  $ */\n      dup1\n        /* \"@openzeppelin/contracts-upgradeable/access/OwnableUpgradeable.sol\":2570:2578  $._owner */\n      0x00\n      add\n      0x00\n      swap1\n      sload\n      swap1\n      0x0100\n      exp\n      swap1\n      div\n      0xffffffffffffffffffffffffffffffffffffffff\n      and\n        /* \"@openzeppelin/contracts-upgradeable/access/OwnableUpgradeable.sol\":2563:2578  return $._owner */\n      swap2\n      pop\n      pop\n        /* \"@openzeppelin/contracts-upgradeable/access/OwnableUpgradeable.sol\":2441:2585  function owner() public view virtual returns (address) {... */\n      swap1\n      jump\t// out\n        /* \"UUPS/UUPSLogic.sol\":735:814  function getCount() external view returns(uint){... */\n    tag_50:\n        /* \"UUPS/UUPSLogic.sol\":777:781  uint */\n      0x00\n        /* \"UUPS/UUPSLogic.sol\":800:806  _count */\n      dup1\n      sload\n        /* \"UUPS/UUPSLogic.sol\":793:806  return _count */\n      swap1\n      pop\n        /* \"UUPS/UUPSLogic.sol\":735:814  function getCount() external view returns(uint){... */\n      swap1\n      jump\t// out\n        /* \"UUPS/UUPSLogic.sol\":1217:1304  function getCaller() external view returns(address){... */\n    tag_55:\n        /* \"UUPS/UUPSLogic.sol\":1260:1267  address */\n      0x00\n        /* \"UUPS/UUPSLogic.sol\":1286:1296  msg.sender */\n      caller\n        /* \"UUPS/UUPSLogic.sol\":1279:1296  return msg.sender */\n      swap1\n      pop\n        /* \"UUPS/UUPSLogic.sol\":1217:1304  function getCaller() external view returns(address){... */\n      swap1\n      jump\t// out\n        /* \"@openzeppelin/contracts/proxy/utils/UUPSUpgradeable.sol\":1708:1766  string public constant UPGRADE_INTERFACE_VERSION = \"5.0.0\" */\n    tag_59:\n      mload(0x40)\n      dup1\n      0x40\n      add\n      0x40\n      mstore\n      dup1\n      0x05\n      dup2\n      mstore\n      0x20\n      add\n      0x352e302e30000000000000000000000000000000000000000000000000000000\n      dup2\n      mstore\n      pop\n      dup2\n      jump\t// out\n        /* \"UUPS/UUPSLogic.sol\":822:896  function cal() external returns(uint){... */\n    tag_64:\n        /* \"UUPS/UUPSLogic.sol\":854:858  uint */\n      0x00\n        /* \"UUPS/UUPSLogic.sol\":887:888  1 */\n      0x01\n        /* \"UUPS/UUPSLogic.sol\":877:883  _count */\n      0x00\n      dup1\n        /* \"UUPS/UUPSLogic.sol\":877:888  _count += 1 */\n      dup3\n      dup3\n      sload\n      tag_107\n      swap2\n      swap1\n      tag_108\n      jump\t// in\n    tag_107:\n      swap3\n      pop\n      pop\n      dup2\n      swap1\n      sstore\n        /* \"UUPS/UUPSLogic.sol\":870:888  return _count += 1 */\n      swap1\n      pop\n        /* \"UUPS/UUPSLogic.sol\":822:896  function cal() external returns(uint){... */\n      swap1\n      jump\t// out\n        /* \"UUPS/UUPSLogic.sol\":1119:1211  function getThisAddr() external view returns(address){... */\n    tag_68:\n        /* \"UUPS/UUPSLogic.sol\":1164:1171  address */\n      0x00\n        /* \"UUPS/UUPSLogic.sol\":1198:1202  this */\n      address\n        /* \"UUPS/UUPSLogic.sol\":1183:1203  return address(this) */\n      swap1\n      pop\n        /* \"UUPS/UUPSLogic.sol\":1119:1211  function getThisAddr() external view returns(address){... */\n      swap1\n      jump\t// out\n        /* \"@openzeppelin/contracts-upgradeable/access/OwnableUpgradeable.sol\":3405:3620  function transferOwnership(address newOwner) public virtual onlyOwner {... */\n    tag_74:\n        /* \"@openzeppelin/contracts-upgradeable/access/OwnableUpgradeable.sol\":2334:2347  _checkOwner() */\n      tag_111\n        /* \"@openzeppelin/contracts-upgradeable/access/OwnableUpgradeable.sol\":2334:2345  _checkOwner */\n      tag_95\n        /* \"@openzeppelin/contracts-upgradeable/access/OwnableUpgradeable.sol\":2334:2347  _checkOwner() */\n      jump\t// in\n    tag_111:\n        /* \"@openzeppelin/contracts-upgradeable/access/OwnableUpgradeable.sol\":3509:3510  0 */\n      0x00\n        /* \"@openzeppelin/contracts-upgradeable/access/OwnableUpgradeable.sol\":3489:3511  newOwner == address(0) */\n      0xffffffffffffffffffffffffffffffffffffffff\n      and\n        /* \"@openzeppelin/contracts-upgradeable/access/OwnableUpgradeable.sol\":3489:3497  newOwner */\n      dup2\n        /* \"@openzeppelin/contracts-upgradeable/access/OwnableUpgradeable.sol\":3489:3511  newOwner == address(0) */\n      0xffffffffffffffffffffffffffffffffffffffff\n      and\n      sub\n        /* \"@openzeppelin/contracts-upgradeable/access/OwnableUpgradeable.sol\":3485:3576  if (newOwner == address(0)) {... */\n      tag_113\n      jumpi\n        /* \"@openzeppelin/contracts-upgradeable/access/OwnableUpgradeable.sol\":3562:3563  0 */\n      0x00\n        /* \"@openzeppelin/contracts-upgradeable/access/OwnableUpgradeable.sol\":3534:3565  OwnableInvalidOwner(address(0)) */\n      mload(0x40)\n      0x1e4fbdf700000000000000000000000000000000000000000000000000000000\n      dup2\n      mstore\n      0x04\n      add\n      tag_114\n      swap2\n      swap1\n      tag_43\n      jump\t// in\n    tag_114:\n      mload(0x40)\n      dup1\n      swap2\n      sub\n      swap1\n      revert\n        /* \"@openzeppelin/contracts-upgradeable/access/OwnableUpgradeable.sol\":3485:3576  if (newOwner == address(0)) {... */\n    tag_113:\n        /* \"@openzeppelin/contracts-upgradeable/access/OwnableUpgradeable.sol\":3585:3613  _transferOwnership(newOwner) */\n      tag_115\n        /* \"@openzeppelin/contracts-upgradeable/access/OwnableUpgradeable.sol\":3604:3612  newOwner */\n      dup2\n        /* \"@openzeppelin/contracts-upgradeable/access/OwnableUpgradeable.sol\":3585:3603  _transferOwnership */\n      tag_98\n        /* \"@openzeppelin/contracts-upgradeable/access/OwnableUpgradeable.sol\":3585:3613  _transferOwnership(newOwner) */\n      jump\t// in\n    tag_115:\n        /* \"@openzeppelin/contracts-upgradeable/access/OwnableUpgradeable.sol\":3405:3620  function transferOwnership(address newOwner) public virtual onlyOwner {... */\n      pop\n      jump\t// out\n        /* \"UUPS/UUPSLogic.sol\":611:726  function initialize(uint _x) public initializer {... */\n    tag_78:\n        /* \"@openzeppelin/contracts-upgradeable/proxy/utils/Initializable.sol\":4158:4188  InitializableStorage storage $ */\n      0x00\n        /* \"@openzeppelin/contracts-upgradeable/proxy/utils/Initializable.sol\":4191:4217  _getInitializableStorage() */\n      tag_117\n        /* \"@openzeppelin/contracts-upgradeable/proxy/utils/Initializable.sol\":4191:4215  _getInitializableStorage */\n      tag_118\n        /* \"@openzeppelin/contracts-upgradeable/proxy/utils/Initializable.sol\":4191:4217  _getInitializableStorage() */\n      jump\t// in\n    tag_117:\n        /* \"@openzeppelin/contracts-upgradeable/proxy/utils/Initializable.sol\":4158:4217  InitializableStorage storage $ = _getInitializableStorage() */\n      swap1\n      pop\n        /* \"@openzeppelin/contracts-upgradeable/proxy/utils/Initializable.sol\":4279:4298  bool isTopLevelCall */\n      0x00\n        /* \"@openzeppelin/contracts-upgradeable/proxy/utils/Initializable.sol\":4302:4303  $ */\n      dup2\n        /* \"@openzeppelin/contracts-upgradeable/proxy/utils/Initializable.sol\":4302:4317  $._initializing */\n      0x00\n      add\n      0x08\n      swap1\n      sload\n      swap1\n      0x0100\n      exp\n      swap1\n      div\n      0xff\n      and\n        /* \"@openzeppelin/contracts-upgradeable/proxy/utils/Initializable.sol\":4301:4317  !$._initializing */\n      iszero\n        /* \"@openzeppelin/contracts-upgradeable/proxy/utils/Initializable.sol\":4279:4317  bool isTopLevelCall = !$._initializing */\n      swap1\n      pop\n        /* \"@openzeppelin/contracts-upgradeable/proxy/utils/Initializable.sol\":4327:4345  uint64 initialized */\n      0x00\n        /* \"@openzeppelin/contracts-upgradeable/proxy/utils/Initializable.sol\":4348:4349  $ */\n      dup3\n        /* \"@openzeppelin/contracts-upgradeable/proxy/utils/Initializable.sol\":4348:4362  $._initialized */\n      0x00\n      add\n      0x00\n      swap1\n      sload\n      swap1\n      0x0100\n      exp\n      swap1\n      div\n      0xffffffffffffffff\n      and\n        /* \"@openzeppelin/contracts-upgradeable/proxy/utils/Initializable.sol\":4327:4362  uint64 initialized = $._initialized */\n      swap1\n      pop\n        /* \"@openzeppelin/contracts-upgradeable/proxy/utils/Initializable.sol\":4706:4723  bool initialSetup */\n      0x00\n        /* \"@openzeppelin/contracts-upgradeable/proxy/utils/Initializable.sol\":4741:4742  0 */\n      dup1\n        /* \"@openzeppelin/contracts-upgradeable/proxy/utils/Initializable.sol\":4726:4737  initialized */\n      dup3\n        /* \"@openzeppelin/contracts-upgradeable/proxy/utils/Initializable.sol\":4726:4742  initialized == 0 */\n      0xffffffffffffffff\n      and\n      eq\n        /* \"@openzeppelin/contracts-upgradeable/proxy/utils/Initializable.sol\":4726:4760  initialized == 0 && isTopLevelCall */\n      dup1\n      iszero\n      tag_119\n      jumpi\n      pop\n        /* \"@openzeppelin/contracts-upgradeable/proxy/utils/Initializable.sol\":4746:4760  isTopLevelCall */\n      dup3\n        /* \"@openzeppelin/contracts-upgradeable/proxy/utils/Initializable.sol\":4726:4760  initialized == 0 && isTopLevelCall */\n    tag_119:\n        /* \"@openzeppelin/contracts-upgradeable/proxy/utils/Initializable.sol\":4706:4760  bool initialSetup = initialized == 0 && isTopLevelCall */\n      swap1\n      pop\n        /* \"@openzeppelin/contracts-upgradeable/proxy/utils/Initializable.sol\":4770:4787  bool construction */\n      0x00\n        /* \"@openzeppelin/contracts-upgradeable/proxy/utils/Initializable.sol\":4805:4806  1 */\n      0x01\n        /* \"@openzeppelin/contracts-upgradeable/proxy/utils/Initializable.sol\":4790:4801  initialized */\n      dup4\n        /* \"@openzeppelin/contracts-upgradeable/proxy/utils/Initializable.sol\":4790:4806  initialized == 1 */\n      0xffffffffffffffff\n      and\n      eq\n        /* \"@openzeppelin/contracts-upgradeable/proxy/utils/Initializable.sol\":4790:4840  initialized == 1 && address(this).code.length == 0 */\n      dup1\n      iszero\n      tag_120\n      jumpi\n      pop\n        /* \"@openzeppelin/contracts-upgradeable/proxy/utils/Initializable.sol\":4839:4840  0 */\n      0x00\n        /* \"@openzeppelin/contracts-upgradeable/proxy/utils/Initializable.sol\":4818:4822  this */\n      address\n        /* \"@openzeppelin/contracts-upgradeable/proxy/utils/Initializable.sol\":4810:4835  address(this).code.length */\n      0xffffffffffffffffffffffffffffffffffffffff\n      and\n      extcodesize\n        /* \"@openzeppelin/contracts-upgradeable/proxy/utils/Initializable.sol\":4810:4840  address(this).code.length == 0 */\n      eq\n        /* \"@openzeppelin/contracts-upgradeable/proxy/utils/Initializable.sol\":4790:4840  initialized == 1 && address(this).code.length == 0 */\n    tag_120:\n        /* \"@openzeppelin/contracts-upgradeable/proxy/utils/Initializable.sol\":4770:4840  bool construction = initialized == 1 && address(this).code.length == 0 */\n      swap1\n      pop\n        /* \"@openzeppelin/contracts-upgradeable/proxy/utils/Initializable.sol\":4856:4868  initialSetup */\n      dup2\n        /* \"@openzeppelin/contracts-upgradeable/proxy/utils/Initializable.sol\":4855:4868  !initialSetup */\n      iszero\n        /* \"@openzeppelin/contracts-upgradeable/proxy/utils/Initializable.sol\":4855:4885  !initialSetup && !construction */\n      dup1\n      iszero\n      tag_121\n      jumpi\n      pop\n        /* \"@openzeppelin/contracts-upgradeable/proxy/utils/Initializable.sol\":4873:4885  construction */\n      dup1\n        /* \"@openzeppelin/contracts-upgradeable/proxy/utils/Initializable.sol\":4872:4885  !construction */\n      iszero\n        /* \"@openzeppelin/contracts-upgradeable/proxy/utils/Initializable.sol\":4855:4885  !initialSetup && !construction */\n    tag_121:\n        /* \"@openzeppelin/contracts-upgradeable/proxy/utils/Initializable.sol\":4851:4942  if (!initialSetup && !construction) {... */\n      iszero\n      tag_122\n      jumpi\n        /* \"@openzeppelin/contracts-upgradeable/proxy/utils/Initializable.sol\":4908:4931  InvalidInitialization() */\n      mload(0x40)\n      0xf92ee8a900000000000000000000000000000000000000000000000000000000\n      dup2\n      mstore\n      0x04\n      add\n      mload(0x40)\n      dup1\n      swap2\n      sub\n      swap1\n      revert\n        /* \"@openzeppelin/contracts-upgradeable/proxy/utils/Initializable.sol\":4851:4942  if (!initialSetup && !construction) {... */\n    tag_122:\n        /* \"@openzeppelin/contracts-upgradeable/proxy/utils/Initializable.sol\":4968:4969  1 */\n      0x01\n        /* \"@openzeppelin/contracts-upgradeable/proxy/utils/Initializable.sol\":4951:4952  $ */\n      dup6\n        /* \"@openzeppelin/contracts-upgradeable/proxy/utils/Initializable.sol\":4951:4965  $._initialized */\n      0x00\n      add\n      0x00\n        /* \"@openzeppelin/contracts-upgradeable/proxy/utils/Initializable.sol\":4951:4969  $._initialized = 1 */\n      0x0100\n      exp\n      dup2\n      sload\n      dup2\n      0xffffffffffffffff\n      mul\n      not\n      and\n      swap1\n      dup4\n      0xffffffffffffffff\n      and\n      mul\n      or\n      swap1\n      sstore\n      pop\n        /* \"@openzeppelin/contracts-upgradeable/proxy/utils/Initializable.sol\":4983:4997  isTopLevelCall */\n      dup4\n        /* \"@openzeppelin/contracts-upgradeable/proxy/utils/Initializable.sol\":4979:5046  if (isTopLevelCall) {... */\n      iszero\n      tag_123\n      jumpi\n        /* \"@openzeppelin/contracts-upgradeable/proxy/utils/Initializable.sol\":5031:5035  true */\n      0x01\n        /* \"@openzeppelin/contracts-upgradeable/proxy/utils/Initializable.sol\":5013:5014  $ */\n      dup6\n        /* \"@openzeppelin/contracts-upgradeable/proxy/utils/Initializable.sol\":5013:5028  $._initializing */\n      0x00\n      add\n      0x08\n        /* \"@openzeppelin/contracts-upgradeable/proxy/utils/Initializable.sol\":5013:5035  $._initializing = true */\n      0x0100\n      exp\n      dup2\n      sload\n      dup2\n      0xff\n      mul\n      not\n      and\n      swap1\n      dup4\n      iszero\n      iszero\n      mul\n      or\n      swap1\n      sstore\n      pop\n        /* \"@openzeppelin/contracts-upgradeable/proxy/utils/Initializable.sol\":4979:5046  if (isTopLevelCall) {... */\n    tag_123:\n        /* \"UUPS/UUPSLogic.sol\":679:681  _x */\n      dup6\n        /* \"UUPS/UUPSLogic.sol\":670:676  _count */\n      0x00\n        /* \"UUPS/UUPSLogic.sol\":670:681  _count = _x */\n      dup2\n      swap1\n      sstore\n      pop\n        /* \"UUPS/UUPSLogic.sol\":692:718  __Ownable_init(msg.sender) */\n      tag_125\n        /* \"UUPS/UUPSLogic.sol\":707:717  msg.sender */\n      caller\n        /* \"UUPS/UUPSLogic.sol\":692:706  __Ownable_init */\n      tag_126\n        /* \"UUPS/UUPSLogic.sol\":692:718  __Ownable_init(msg.sender) */\n      jump\t// in\n    tag_125:\n        /* \"@openzeppelin/contracts-upgradeable/proxy/utils/Initializable.sol\":5070:5084  isTopLevelCall */\n      dup4\n        /* \"@openzeppelin/contracts-upgradeable/proxy/utils/Initializable.sol\":5066:5167  if (isTopLevelCall) {... */\n      iszero\n      tag_127\n      jumpi\n        /* \"@openzeppelin/contracts-upgradeable/proxy/utils/Initializable.sol\":5118:5123  false */\n      0x00\n        /* \"@openzeppelin/contracts-upgradeable/proxy/utils/Initializable.sol\":5100:5101  $ */\n      dup6\n        /* \"@openzeppelin/contracts-upgradeable/proxy/utils/Initializable.sol\":5100:5115  $._initializing */\n      0x00\n      add\n      0x08\n        /* \"@openzeppelin/contracts-upgradeable/proxy/utils/Initializable.sol\":5100:5123  $._initializing = false */\n      0x0100\n      exp\n      dup2\n      sload\n      dup2\n      0xff\n      mul\n      not\n      and\n      swap1\n      dup4\n      iszero\n      iszero\n      mul\n      or\n      swap1\n      sstore\n      pop\n        /* \"@openzeppelin/contracts-upgradeable/proxy/utils/Initializable.sol\":5142:5156  Initialized(1) */\n      0xc7f505b2f371ae2175ee4913f4499e1f2633a7b5936321eed1cdaeb6115181d2\n        /* \"@openzeppelin/contracts-upgradeable/proxy/utils/Initializable.sol\":5154:5155  1 */\n      0x01\n        /* \"@openzeppelin/contracts-upgradeable/proxy/utils/Initializable.sol\":5142:5156  Initialized(1) */\n      mload(0x40)\n      tag_128\n      swap2\n      swap1\n      tag_129\n      jump\t// in\n    tag_128:\n      mload(0x40)\n      dup1\n      swap2\n      sub\n      swap1\n      log1\n        /* \"@openzeppelin/contracts-upgradeable/proxy/utils/Initializable.sol\":5066:5167  if (isTopLevelCall) {... */\n    tag_127:\n        /* \"@openzeppelin/contracts-upgradeable/proxy/utils/Initializable.sol\":4092:5173  {... */\n      pop\n      pop\n      pop\n      pop\n      pop\n        /* \"UUPS/UUPSLogic.sol\":611:726  function initialize(uint _x) public initializer {... */\n      pop\n      jump\t// out\n        /* \"@openzeppelin/contracts/proxy/utils/UUPSUpgradeable.sol\":4337:4649  function _checkProxy() internal view virtual {... */\n    tag_83:\n        /* \"@openzeppelin/contracts/proxy/utils/UUPSUpgradeable.sol\":4426:4432  __self */\n      immutable(\"0x87b8181f2525747f7c2388fad45fd6fdeca8961ce0728225de7247b6a04dc463\")\n        /* \"@openzeppelin/contracts/proxy/utils/UUPSUpgradeable.sol\":4409:4432  address(this) == __self */\n      0xffffffffffffffffffffffffffffffffffffffff\n      and\n        /* \"@openzeppelin/contracts/proxy/utils/UUPSUpgradeable.sol\":4417:4421  this */\n      address\n        /* \"@openzeppelin/contracts/proxy/utils/UUPSUpgradeable.sol\":4409:4432  address(this) == __self */\n      0xffffffffffffffffffffffffffffffffffffffff\n      and\n      eq\n        /* \"@openzeppelin/contracts/proxy/utils/UUPSUpgradeable.sol\":4409:4529  address(this) == __self || // Must be called through delegatecall... */\n      dup1\n      tag_131\n      jumpi\n      pop\n        /* \"@openzeppelin/contracts/proxy/utils/UUPSUpgradeable.sol\":4523:4529  __self */\n      immutable(\"0x87b8181f2525747f7c2388fad45fd6fdeca8961ce0728225de7247b6a04dc463\")\n        /* \"@openzeppelin/contracts/proxy/utils/UUPSUpgradeable.sol\":4487:4529  ERC1967Utils.getImplementation() != __self */\n      0xffffffffffffffffffffffffffffffffffffffff\n      and\n        /* \"@openzeppelin/contracts/proxy/utils/UUPSUpgradeable.sol\":4487:4519  ERC1967Utils.getImplementation() */\n      tag_132\n        /* \"@openzeppelin/contracts/proxy/utils/UUPSUpgradeable.sol\":4487:4517  ERC1967Utils.getImplementation */\n      tag_133\n        /* \"@openzeppelin/contracts/proxy/utils/UUPSUpgradeable.sol\":4487:4519  ERC1967Utils.getImplementation() */\n      jump\t// in\n    tag_132:\n        /* \"@openzeppelin/contracts/proxy/utils/UUPSUpgradeable.sol\":4487:4529  ERC1967Utils.getImplementation() != __self */\n      0xffffffffffffffffffffffffffffffffffffffff\n      and\n      eq\n      iszero\n        /* \"@openzeppelin/contracts/proxy/utils/UUPSUpgradeable.sol\":4409:4529  address(this) == __self || // Must be called through delegatecall... */\n    tag_131:\n        /* \"@openzeppelin/contracts/proxy/utils/UUPSUpgradeable.sol\":4392:4643  if (... */\n      iszero\n      tag_134\n      jumpi\n        /* \"@openzeppelin/contracts/proxy/utils/UUPSUpgradeable.sol\":4603:4632  UUPSUnauthorizedCallContext() */\n      mload(0x40)\n      0xe07c8dba00000000000000000000000000000000000000000000000000000000\n      dup2\n      mstore\n      0x04\n      add\n      mload(0x40)\n      dup1\n      swap2\n      sub\n      swap1\n      revert\n        /* \"@openzeppelin/contracts/proxy/utils/UUPSUpgradeable.sol\":4392:4643  if (... */\n    tag_134:\n        /* \"@openzeppelin/contracts/proxy/utils/UUPSUpgradeable.sol\":4337:4649  function _checkProxy() internal view virtual {... */\n      jump\t// out\n        /* \"UUPS/UUPSLogic.sol\":902:1021  function _authorizeUpgrade(address newImplementation) internal override onlyOwner{... */\n    tag_86:\n        /* \"@openzeppelin/contracts-upgradeable/access/OwnableUpgradeable.sol\":2334:2347  _checkOwner() */\n      tag_136\n        /* \"@openzeppelin/contracts-upgradeable/access/OwnableUpgradeable.sol\":2334:2345  _checkOwner */\n      tag_95\n        /* \"@openzeppelin/contracts-upgradeable/access/OwnableUpgradeable.sol\":2334:2347  _checkOwner() */\n      jump\t// in\n    tag_136:\n        /* \"UUPS/UUPSLogic.sol\":902:1021  function _authorizeUpgrade(address newImplementation) internal override onlyOwner{... */\n      pop\n      jump\t// out\n        /* \"@openzeppelin/contracts/proxy/utils/UUPSUpgradeable.sol\":5791:6329  function _upgradeToAndCallUUPS(address newImplementation, bytes memory data) private {... */\n    tag_88:\n        /* \"@openzeppelin/contracts/proxy/utils/UUPSUpgradeable.sol\":5908:5925  newImplementation */\n      dup2\n        /* \"@openzeppelin/contracts/proxy/utils/UUPSUpgradeable.sol\":5890:5940  IERC1822Proxiable(newImplementation).proxiableUUID */\n      0xffffffffffffffffffffffffffffffffffffffff\n      and\n      0x52d1902d\n        /* \"@openzeppelin/contracts/proxy/utils/UUPSUpgradeable.sol\":5890:5942  IERC1822Proxiable(newImplementation).proxiableUUID() */\n      mload(0x40)\n      dup2\n      0xffffffff\n      and\n      0xe0\n      shl\n      dup2\n      mstore\n      0x04\n      add\n      0x20\n      mload(0x40)\n      dup1\n      dup4\n      sub\n      dup2\n      dup7\n      gas\n      staticcall\n      swap3\n      pop\n      pop\n      pop\n      dup1\n      iszero\n      tag_139\n      jumpi\n      pop\n      mload(0x40)\n      returndatasize\n      not(0x1f)\n      0x1f\n      dup3\n      add\n      and\n      dup3\n      add\n      dup1\n      0x40\n      mstore\n      pop\n      dup2\n      add\n      swap1\n      tag_140\n      swap2\n      swap1\n      tag_141\n      jump\t// in\n    tag_140:\n      0x01\n    tag_139:\n        /* \"@openzeppelin/contracts/proxy/utils/UUPSUpgradeable.sol\":5886:6323  try IERC1822Proxiable(newImplementation).proxiableUUID() returns (bytes32 slot) {... */\n      tag_142\n      jumpi\n        /* \"@openzeppelin/contracts/proxy/utils/UUPSUpgradeable.sol\":6294:6311  newImplementation */\n      dup2\n        /* \"@openzeppelin/contracts/proxy/utils/UUPSUpgradeable.sol\":6252:6312  ERC1967Utils.ERC1967InvalidImplementation(newImplementation) */\n      mload(0x40)\n      0x4c9c8ce300000000000000000000000000000000000000000000000000000000\n      dup2\n      mstore\n      0x04\n      add\n      tag_146\n      swap2\n      swap1\n      tag_43\n      jump\t// in\n    tag_146:\n      mload(0x40)\n      dup1\n      swap2\n      sub\n      swap1\n      revert\n        /* \"@openzeppelin/contracts/proxy/utils/UUPSUpgradeable.sol\":5886:6323  try IERC1822Proxiable(newImplementation).proxiableUUID() returns (bytes32 slot) {... */\n    tag_142:\n        /* \"@openzeppelin/contracts/proxy/ERC1967/ERC1967Utils.sol\":811:877  0x360894a13ba1a3210667c828492db98dca3e2076cc3735a920a3ca505d382bbc */\n      0x360894a13ba1a3210667c828492db98dca3e2076cc3735a920a3ca505d382bbc\n        /* \"@openzeppelin/contracts/proxy/utils/UUPSUpgradeable.sol\":5992:6024  ERC1967Utils.IMPLEMENTATION_SLOT */\n      0x00\n      shl\n        /* \"@openzeppelin/contracts/proxy/utils/UUPSUpgradeable.sol\":5984:5988  slot */\n      dup2\n        /* \"@openzeppelin/contracts/proxy/utils/UUPSUpgradeable.sol\":5984:6024  slot != ERC1967Utils.IMPLEMENTATION_SLOT */\n      eq\n        /* \"@openzeppelin/contracts/proxy/utils/UUPSUpgradeable.sol\":5980:6100  if (slot != ERC1967Utils.IMPLEMENTATION_SLOT) {... */\n      tag_148\n      jumpi\n        /* \"@openzeppelin/contracts/proxy/utils/UUPSUpgradeable.sol\":6080:6084  slot */\n      dup1\n        /* \"@openzeppelin/contracts/proxy/utils/UUPSUpgradeable.sol\":6051:6085  UUPSUnsupportedProxiableUUID(slot) */\n      mload(0x40)\n      0xaa1d49a400000000000000000000000000000000000000000000000000000000\n      dup2\n      mstore\n      0x04\n      add\n      tag_149\n      swap2\n      swap1\n      tag_35\n      jump\t// in\n    tag_149:\n      mload(0x40)\n      dup1\n      swap2\n      sub\n      swap1\n      revert\n        /* \"@openzeppelin/contracts/proxy/utils/UUPSUpgradeable.sol\":5980:6100  if (slot != ERC1967Utils.IMPLEMENTATION_SLOT) {... */\n    tag_148:\n        /* \"@openzeppelin/contracts/proxy/utils/UUPSUpgradeable.sol\":6113:6167  ERC1967Utils.upgradeToAndCall(newImplementation, data) */\n      tag_150\n        /* \"@openzeppelin/contracts/proxy/utils/UUPSUpgradeable.sol\":6143:6160  newImplementation */\n      dup4\n        /* \"@openzeppelin/contracts/proxy/utils/UUPSUpgradeable.sol\":6162:6166  data */\n      dup4\n        /* \"@openzeppelin/contracts/proxy/utils/UUPSUpgradeable.sol\":6113:6142  ERC1967Utils.upgradeToAndCall */\n      tag_151\n        /* \"@openzeppelin/contracts/proxy/utils/UUPSUpgradeable.sol\":6113:6167  ERC1967Utils.upgradeToAndCall(newImplementation, data) */\n      jump\t// in\n    tag_150:\n        /* \"@openzeppelin/contracts/proxy/utils/UUPSUpgradeable.sol\":5943:6178  returns (bytes32 slot) {... */\n      pop\n        /* \"@openzeppelin/contracts/proxy/utils/UUPSUpgradeable.sol\":5791:6329  function _upgradeToAndCallUUPS(address newImplementation, bytes memory data) private {... */\n      pop\n      pop\n      jump\t// out\n        /* \"@openzeppelin/contracts/proxy/utils/UUPSUpgradeable.sol\":4766:4979  function _checkNotDelegated() internal view virtual {... */\n    tag_91:\n        /* \"@openzeppelin/contracts/proxy/utils/UUPSUpgradeable.sol\":4849:4855  __self */\n      immutable(\"0x87b8181f2525747f7c2388fad45fd6fdeca8961ce0728225de7247b6a04dc463\")\n        /* \"@openzeppelin/contracts/proxy/utils/UUPSUpgradeable.sol\":4832:4855  address(this) != __self */\n      0xffffffffffffffffffffffffffffffffffffffff\n      and\n        /* \"@openzeppelin/contracts/proxy/utils/UUPSUpgradeable.sol\":4840:4844  this */\n      address\n        /* \"@openzeppelin/contracts/proxy/utils/UUPSUpgradeable.sol\":4832:4855  address(this) != __self */\n      0xffffffffffffffffffffffffffffffffffffffff\n      and\n      eq\n        /* \"@openzeppelin/contracts/proxy/utils/UUPSUpgradeable.sol\":4828:4973  if (address(this) != __self) {... */\n      tag_153\n      jumpi\n        /* \"@openzeppelin/contracts/proxy/utils/UUPSUpgradeable.sol\":4933:4962  UUPSUnauthorizedCallContext() */\n      mload(0x40)\n      0xe07c8dba00000000000000000000000000000000000000000000000000000000\n      dup2\n      mstore\n      0x04\n      add\n      mload(0x40)\n      dup1\n      swap2\n      sub\n      swap1\n      revert\n        /* \"@openzeppelin/contracts/proxy/utils/UUPSUpgradeable.sol\":4828:4973  if (address(this) != __self) {... */\n    tag_153:\n        /* \"@openzeppelin/contracts/proxy/utils/UUPSUpgradeable.sol\":4766:4979  function _checkNotDelegated() internal view virtual {... */\n      jump\t// out\n        /* \"@openzeppelin/contracts-upgradeable/access/OwnableUpgradeable.sol\":2658:2820  function _checkOwner() internal view virtual {... */\n    tag_95:\n        /* \"@openzeppelin/contracts-upgradeable/access/OwnableUpgradeable.sol\":2728:2740  _msgSender() */\n      tag_155\n        /* \"@openzeppelin/contracts-upgradeable/access/OwnableUpgradeable.sol\":2728:2738  _msgSender */\n      tag_156\n        /* \"@openzeppelin/contracts-upgradeable/access/OwnableUpgradeable.sol\":2728:2740  _msgSender() */\n      jump\t// in\n    tag_155:\n        /* \"@openzeppelin/contracts-upgradeable/access/OwnableUpgradeable.sol\":2717:2740  owner() != _msgSender() */\n      0xffffffffffffffffffffffffffffffffffffffff\n      and\n        /* \"@openzeppelin/contracts-upgradeable/access/OwnableUpgradeable.sol\":2717:2724  owner() */\n      tag_157\n        /* \"@openzeppelin/contracts-upgradeable/access/OwnableUpgradeable.sol\":2717:2722  owner */\n      tag_46\n        /* \"@openzeppelin/contracts-upgradeable/access/OwnableUpgradeable.sol\":2717:2724  owner() */\n      jump\t// in\n    tag_157:\n        /* \"@openzeppelin/contracts-upgradeable/access/OwnableUpgradeable.sol\":2717:2740  owner() != _msgSender() */\n      0xffffffffffffffffffffffffffffffffffffffff\n      and\n      eq\n        /* \"@openzeppelin/contracts-upgradeable/access/OwnableUpgradeable.sol\":2713:2814  if (owner() != _msgSender()) {... */\n      tag_158\n      jumpi\n        /* \"@openzeppelin/contracts-upgradeable/access/OwnableUpgradeable.sol\":2790:2802  _msgSender() */\n      tag_159\n        /* \"@openzeppelin/contracts-upgradeable/access/OwnableUpgradeable.sol\":2790:2800  _msgSender */\n      tag_156\n        /* \"@openzeppelin/contracts-upgradeable/access/OwnableUpgradeable.sol\":2790:2802  _msgSender() */\n      jump\t// in\n    tag_159:\n        /* \"@openzeppelin/contracts-upgradeable/access/OwnableUpgradeable.sol\":2763:2803  OwnableUnauthorizedAccount(_msgSender()) */\n      mload(0x40)\n      0x118cdaa700000000000000000000000000000000000000000000000000000000\n      dup2\n      mstore\n      0x04\n      add\n      tag_160\n      swap2\n      swap1\n      tag_43\n      jump\t// in\n    tag_160:\n      mload(0x40)\n      dup1\n      swap2\n      sub\n      swap1\n      revert\n        /* \"@openzeppelin/contracts-upgradeable/access/OwnableUpgradeable.sol\":2713:2814  if (owner() != _msgSender()) {... */\n    tag_158:\n        /* \"@openzeppelin/contracts-upgradeable/access/OwnableUpgradeable.sol\":2658:2820  function _checkOwner() internal view virtual {... */\n      jump\t// out\n        /* \"@openzeppelin/contracts-upgradeable/access/OwnableUpgradeable.sol\":3774:4022  function _transferOwnership(address newOwner) internal virtual {... */\n    tag_98:\n        /* \"@openzeppelin/contracts-upgradeable/access/OwnableUpgradeable.sol\":3847:3871  OwnableStorage storage $ */\n      0x00\n        /* \"@openzeppelin/contracts-upgradeable/access/OwnableUpgradeable.sol\":3874:3894  _getOwnableStorage() */\n      tag_162\n        /* \"@openzeppelin/contracts-upgradeable/access/OwnableUpgradeable.sol\":3874:3892  _getOwnableStorage */\n      tag_103\n        /* \"@openzeppelin/contracts-upgradeable/access/OwnableUpgradeable.sol\":3874:3894  _getOwnableStorage() */\n      jump\t// in\n    tag_162:\n        /* \"@openzeppelin/contracts-upgradeable/access/OwnableUpgradeable.sol\":3847:3894  OwnableStorage storage $ = _getOwnableStorage() */\n      swap1\n      pop\n        /* \"@openzeppelin/contracts-upgradeable/access/OwnableUpgradeable.sol\":3904:3920  address oldOwner */\n      0x00\n        /* \"@openzeppelin/contracts-upgradeable/access/OwnableUpgradeable.sol\":3923:3924  $ */\n      dup2\n        /* \"@openzeppelin/contracts-upgradeable/access/OwnableUpgradeable.sol\":3923:3931  $._owner */\n      0x00\n      add\n      0x00\n      swap1\n      sload\n      swap1\n      0x0100\n      exp\n      swap1\n      div\n      0xffffffffffffffffffffffffffffffffffffffff\n      and\n        /* \"@openzeppelin/contracts-upgradeable/access/OwnableUpgradeable.sol\":3904:3931  address oldOwner = $._owner */\n      swap1\n      pop\n        /* \"@openzeppelin/contracts-upgradeable/access/OwnableUpgradeable.sol\":3952:3960  newOwner */\n      dup3\n        /* \"@openzeppelin/contracts-upgradeable/access/OwnableUpgradeable.sol\":3941:3942  $ */\n      dup3\n        /* \"@openzeppelin/contracts-upgradeable/access/OwnableUpgradeable.sol\":3941:3949  $._owner */\n      0x00\n      add\n      0x00\n        /* \"@openzeppelin/contracts-upgradeable/access/OwnableUpgradeable.sol\":3941:3960  $._owner = newOwner */\n      0x0100\n      exp\n      dup2\n      sload\n      dup2\n      0xffffffffffffffffffffffffffffffffffffffff\n      mul\n      not\n      and\n      swap1\n      dup4\n      0xffffffffffffffffffffffffffffffffffffffff\n      and\n      mul\n      or\n      swap1\n      sstore\n      pop\n        /* \"@openzeppelin/contracts-upgradeable/access/OwnableUpgradeable.sol\":4006:4014  newOwner */\n      dup3\n        /* \"@openzeppelin/contracts-upgradeable/access/OwnableUpgradeable.sol\":3975:4015  OwnershipTransferred(oldOwner, newOwner) */\n      0xffffffffffffffffffffffffffffffffffffffff\n      and\n        /* \"@openzeppelin/contracts-upgradeable/access/OwnableUpgradeable.sol\":3996:4004  oldOwner */\n      dup2\n        /* \"@openzeppelin/contracts-upgradeable/access/OwnableUpgradeable.sol\":3975:4015  OwnershipTransferred(oldOwner, newOwner) */\n      0xffffffffffffffffffffffffffffffffffffffff\n      and\n      0x8be0079c531659141344cd1fd0a4f28419497f9722a3daafe3b4186f6b6457e0\n      mload(0x40)\n      mload(0x40)\n      dup1\n      swap2\n      sub\n      swap1\n      log3\n        /* \"@openzeppelin/contracts-upgradeable/access/OwnableUpgradeable.sol\":3837:4022  {... */\n      pop\n      pop\n        /* \"@openzeppelin/contracts-upgradeable/access/OwnableUpgradeable.sol\":3774:4022  function _transferOwnership(address newOwner) internal virtual {... */\n      pop\n      jump\t// out\n        /* \"@openzeppelin/contracts-upgradeable/access/OwnableUpgradeable.sol\":1192:1351  function _getOwnableStorage() private pure returns (OwnableStorage storage $) {... */\n    tag_103:\n        /* \"@openzeppelin/contracts-upgradeable/access/OwnableUpgradeable.sol\":1244:1268  OwnableStorage storage $ */\n      0x00\n        /* \"@openzeppelin/contracts-upgradeable/access/OwnableUpgradeable.sol\":1313:1335  OwnableStorageLocation */\n      0x9016d09d72d40fdae2fd8ceac6b6234c7706214fd39c1cd1e609a0528c199300\n        /* \"@openzeppelin/contracts-upgradeable/access/OwnableUpgradeable.sol\":1303:1335  $.slot := OwnableStorageLocation */\n      swap1\n      pop\n        /* \"@openzeppelin/contracts-upgradeable/access/OwnableUpgradeable.sol\":1192:1351  function _getOwnableStorage() private pure returns (OwnableStorage storage $) {... */\n      swap1\n      jump\t// out\n        /* \"@openzeppelin/contracts-upgradeable/proxy/utils/Initializable.sol\":8737:8907  function _getInitializableStorage() private pure returns (InitializableStorage storage $) {... */\n    tag_118:\n        /* \"@openzeppelin/contracts-upgradeable/proxy/utils/Initializable.sol\":8795:8825  InitializableStorage storage $ */\n      0x00\n        /* \"@openzeppelin/contracts-upgradeable/proxy/utils/Initializable.sol\":8870:8891  INITIALIZABLE_STORAGE */\n      0xf0c57e16840df040f15088dc2f81fe391c3923bec73e23a9662efc9c229c6a00\n        /* \"@openzeppelin/contracts-upgradeable/proxy/utils/Initializable.sol\":8860:8891  $.slot := INITIALIZABLE_STORAGE */\n      swap1\n      pop\n        /* \"@openzeppelin/contracts-upgradeable/proxy/utils/Initializable.sol\":8737:8907  function _getInitializableStorage() private pure returns (InitializableStorage storage $) {... */\n      swap1\n      jump\t// out\n        /* \"@openzeppelin/contracts-upgradeable/access/OwnableUpgradeable.sol\":1847:1974  function __Ownable_init(address initialOwner) internal onlyInitializing {... */\n    tag_126:\n        /* \"@openzeppelin/contracts-upgradeable/proxy/utils/Initializable.sol\":6931:6951  _checkInitializing() */\n      tag_166\n        /* \"@openzeppelin/contracts-upgradeable/proxy/utils/Initializable.sol\":6931:6949  _checkInitializing */\n      tag_167\n        /* \"@openzeppelin/contracts-upgradeable/proxy/utils/Initializable.sol\":6931:6951  _checkInitializing() */\n      jump\t// in\n    tag_166:\n        /* \"@openzeppelin/contracts-upgradeable/access/OwnableUpgradeable.sol\":1929:1967  __Ownable_init_unchained(initialOwner) */\n      tag_169\n        /* \"@openzeppelin/contracts-upgradeable/access/OwnableUpgradeable.sol\":1954:1966  initialOwner */\n      dup2\n        /* \"@openzeppelin/contracts-upgradeable/access/OwnableUpgradeable.sol\":1929:1953  __Ownable_init_unchained */\n      tag_170\n        /* \"@openzeppelin/contracts-upgradeable/access/OwnableUpgradeable.sol\":1929:1967  __Ownable_init_unchained(initialOwner) */\n      jump\t// in\n    tag_169:\n        /* \"@openzeppelin/contracts-upgradeable/access/OwnableUpgradeable.sol\":1847:1974  function __Ownable_init(address initialOwner) internal onlyInitializing {... */\n      pop\n      jump\t// out\n        /* \"@openzeppelin/contracts/proxy/ERC1967/ERC1967Utils.sol\":1441:1579  function getImplementation() internal view returns (address) {... */\n    tag_133:\n        /* \"@openzeppelin/contracts/proxy/ERC1967/ERC1967Utils.sol\":1493:1500  address */\n      0x00\n        /* \"@openzeppelin/contracts/proxy/ERC1967/ERC1967Utils.sol\":1519:1566  StorageSlot.getAddressSlot(IMPLEMENTATION_SLOT) */\n      tag_172\n        /* \"@openzeppelin/contracts/proxy/ERC1967/ERC1967Utils.sol\":811:877  0x360894a13ba1a3210667c828492db98dca3e2076cc3735a920a3ca505d382bbc */\n      0x360894a13ba1a3210667c828492db98dca3e2076cc3735a920a3ca505d382bbc\n        /* \"@openzeppelin/contracts/proxy/ERC1967/ERC1967Utils.sol\":1546:1565  IMPLEMENTATION_SLOT */\n      0x00\n      shl\n        /* \"@openzeppelin/contracts/proxy/ERC1967/ERC1967Utils.sol\":1519:1545  StorageSlot.getAddressSlot */\n      tag_173\n        /* \"@openzeppelin/contracts/proxy/ERC1967/ERC1967Utils.sol\":1519:1566  StorageSlot.getAddressSlot(IMPLEMENTATION_SLOT) */\n      jump\t// in\n    tag_172:\n        /* \"@openzeppelin/contracts/proxy/ERC1967/ERC1967Utils.sol\":1519:1572  StorageSlot.getAddressSlot(IMPLEMENTATION_SLOT).value */\n      0x00\n      add\n      0x00\n      swap1\n      sload\n      swap1\n      0x0100\n      exp\n      swap1\n      div\n      0xffffffffffffffffffffffffffffffffffffffff\n      and\n        /* \"@openzeppelin/contracts/proxy/ERC1967/ERC1967Utils.sol\":1512:1572  return StorageSlot.getAddressSlot(IMPLEMENTATION_SLOT).value */\n      swap1\n      pop\n        /* \"@openzeppelin/contracts/proxy/ERC1967/ERC1967Utils.sol\":1441:1579  function getImplementation() internal view returns (address) {... */\n      swap1\n      jump\t// out\n        /* \"@openzeppelin/contracts/proxy/ERC1967/ERC1967Utils.sol\":2264:2608  function upgradeToAndCall(address newImplementation, bytes memory data) internal {... */\n    tag_151:\n        /* \"@openzeppelin/contracts/proxy/ERC1967/ERC1967Utils.sol\":2355:2392  _setImplementation(newImplementation) */\n      tag_175\n        /* \"@openzeppelin/contracts/proxy/ERC1967/ERC1967Utils.sol\":2374:2391  newImplementation */\n      dup3\n        /* \"@openzeppelin/contracts/proxy/ERC1967/ERC1967Utils.sol\":2355:2373  _setImplementation */\n      tag_176\n        /* \"@openzeppelin/contracts/proxy/ERC1967/ERC1967Utils.sol\":2355:2392  _setImplementation(newImplementation) */\n      jump\t// in\n    tag_175:\n        /* \"@openzeppelin/contracts/proxy/ERC1967/ERC1967Utils.sol\":2425:2442  newImplementation */\n      dup2\n        /* \"@openzeppelin/contracts/proxy/ERC1967/ERC1967Utils.sol\":2407:2443  IERC1967.Upgraded(newImplementation) */\n      0xffffffffffffffffffffffffffffffffffffffff\n      and\n      0xbc7cd75a20ee27fd9adebab32041f755214dbc6bffa90cc0225b39da2e5c2d3b\n      mload(0x40)\n      mload(0x40)\n      dup1\n      swap2\n      sub\n      swap1\n      log2\n        /* \"@openzeppelin/contracts/proxy/ERC1967/ERC1967Utils.sol\":2472:2473  0 */\n      0x00\n        /* \"@openzeppelin/contracts/proxy/ERC1967/ERC1967Utils.sol\":2458:2462  data */\n      dup2\n        /* \"@openzeppelin/contracts/proxy/ERC1967/ERC1967Utils.sol\":2458:2469  data.length */\n      mload\n        /* \"@openzeppelin/contracts/proxy/ERC1967/ERC1967Utils.sol\":2458:2473  data.length > 0 */\n      gt\n        /* \"@openzeppelin/contracts/proxy/ERC1967/ERC1967Utils.sol\":2454:2602  if (data.length > 0) {... */\n      iszero\n      tag_177\n      jumpi\n        /* \"@openzeppelin/contracts/proxy/ERC1967/ERC1967Utils.sol\":2489:2542  Address.functionDelegateCall(newImplementation, data) */\n      tag_178\n        /* \"@openzeppelin/contracts/proxy/ERC1967/ERC1967Utils.sol\":2518:2535  newImplementation */\n      dup3\n        /* \"@openzeppelin/contracts/proxy/ERC1967/ERC1967Utils.sol\":2537:2541  data */\n      dup3\n        /* \"@openzeppelin/contracts/proxy/ERC1967/ERC1967Utils.sol\":2489:2517  Address.functionDelegateCall */\n      tag_179\n        /* \"@openzeppelin/contracts/proxy/ERC1967/ERC1967Utils.sol\":2489:2542  Address.functionDelegateCall(newImplementation, data) */\n      jump\t// in\n    tag_178:\n      pop\n        /* \"@openzeppelin/contracts/proxy/ERC1967/ERC1967Utils.sol\":2454:2602  if (data.length > 0) {... */\n      jump(tag_180)\n    tag_177:\n        /* \"@openzeppelin/contracts/proxy/ERC1967/ERC1967Utils.sol\":2573:2591  _checkNonPayable() */\n      tag_181\n        /* \"@openzeppelin/contracts/proxy/ERC1967/ERC1967Utils.sol\":2573:2589  _checkNonPayable */\n      tag_182\n        /* \"@openzeppelin/contracts/proxy/ERC1967/ERC1967Utils.sol\":2573:2591  _checkNonPayable() */\n      jump\t// in\n    tag_181:\n        /* \"@openzeppelin/contracts/proxy/ERC1967/ERC1967Utils.sol\":2454:2602  if (data.length > 0) {... */\n    tag_180:\n        /* \"@openzeppelin/contracts/proxy/ERC1967/ERC1967Utils.sol\":2264:2608  function upgradeToAndCall(address newImplementation, bytes memory data) internal {... */\n      pop\n      pop\n      jump\t// out\n        /* \"@openzeppelin/contracts-upgradeable/utils/ContextUpgradeable.sol\":887:983  function _msgSender() internal view virtual returns (address) {... */\n    tag_156:\n        /* \"@openzeppelin/contracts-upgradeable/utils/ContextUpgradeable.sol\":940:947  address */\n      0x00\n        /* \"@openzeppelin/contracts-upgradeable/utils/ContextUpgradeable.sol\":966:976  msg.sender */\n      caller\n        /* \"@openzeppelin/contracts-upgradeable/utils/ContextUpgradeable.sol\":959:976  return msg.sender */\n      swap1\n      pop\n        /* \"@openzeppelin/contracts-upgradeable/utils/ContextUpgradeable.sol\":887:983  function _msgSender() internal view virtual returns (address) {... */\n      swap1\n      jump\t// out\n        /* \"@openzeppelin/contracts-upgradeable/proxy/utils/Initializable.sol\":7084:7225  function _checkInitializing() internal view virtual {... */\n    tag_167:\n        /* \"@openzeppelin/contracts-upgradeable/proxy/utils/Initializable.sol\":7151:7168  _isInitializing() */\n      tag_185\n        /* \"@openzeppelin/contracts-upgradeable/proxy/utils/Initializable.sol\":7151:7166  _isInitializing */\n      tag_186\n        /* \"@openzeppelin/contracts-upgradeable/proxy/utils/Initializable.sol\":7151:7168  _isInitializing() */\n      jump\t// in\n    tag_185:\n        /* \"@openzeppelin/contracts-upgradeable/proxy/utils/Initializable.sol\":7146:7219  if (!_isInitializing()) {... */\n      tag_187\n      jumpi\n        /* \"@openzeppelin/contracts-upgradeable/proxy/utils/Initializable.sol\":7191:7208  NotInitializing() */\n      mload(0x40)\n      0xd7e6bcf800000000000000000000000000000000000000000000000000000000\n      dup2\n      mstore\n      0x04\n      add\n      mload(0x40)\n      dup1\n      swap2\n      sub\n      swap1\n      revert\n        /* \"@openzeppelin/contracts-upgradeable/proxy/utils/Initializable.sol\":7146:7219  if (!_isInitializing()) {... */\n    tag_187:\n        /* \"@openzeppelin/contracts-upgradeable/proxy/utils/Initializable.sol\":7084:7225  function _checkInitializing() internal view virtual {... */\n      jump\t// out\n        /* \"@openzeppelin/contracts-upgradeable/access/OwnableUpgradeable.sol\":1980:2215  function __Ownable_init_unchained(address initialOwner) internal onlyInitializing {... */\n    tag_170:\n        /* \"@openzeppelin/contracts-upgradeable/proxy/utils/Initializable.sol\":6931:6951  _checkInitializing() */\n      tag_189\n        /* \"@openzeppelin/contracts-upgradeable/proxy/utils/Initializable.sol\":6931:6949  _checkInitializing */\n      tag_167\n        /* \"@openzeppelin/contracts-upgradeable/proxy/utils/Initializable.sol\":6931:6951  _checkInitializing() */\n      jump\t// in\n    tag_189:\n        /* \"@openzeppelin/contracts-upgradeable/access/OwnableUpgradeable.sol\":2100:2101  0 */\n      0x00\n        /* \"@openzeppelin/contracts-upgradeable/access/OwnableUpgradeable.sol\":2076:2102  initialOwner == address(0) */\n      0xffffffffffffffffffffffffffffffffffffffff\n      and\n        /* \"@openzeppelin/contracts-upgradeable/access/OwnableUpgradeable.sol\":2076:2088  initialOwner */\n      dup2\n        /* \"@openzeppelin/contracts-upgradeable/access/OwnableUpgradeable.sol\":2076:2102  initialOwner == address(0) */\n      0xffffffffffffffffffffffffffffffffffffffff\n      and\n      sub\n        /* \"@openzeppelin/contracts-upgradeable/access/OwnableUpgradeable.sol\":2072:2167  if (initialOwner == address(0)) {... */\n      tag_191\n      jumpi\n        /* \"@openzeppelin/contracts-upgradeable/access/OwnableUpgradeable.sol\":2153:2154  0 */\n      0x00\n        /* \"@openzeppelin/contracts-upgradeable/access/OwnableUpgradeable.sol\":2125:2156  OwnableInvalidOwner(address(0)) */\n      mload(0x40)\n      0x1e4fbdf700000000000000000000000000000000000000000000000000000000\n      dup2\n      mstore\n      0x04\n      add\n      tag_192\n      swap2\n      swap1\n      tag_43\n      jump\t// in\n    tag_192:\n      mload(0x40)\n      dup1\n      swap2\n      sub\n      swap1\n      revert\n        /* \"@openzeppelin/contracts-upgradeable/access/OwnableUpgradeable.sol\":2072:2167  if (initialOwner == address(0)) {... */\n    tag_191:\n        /* \"@openzeppelin/contracts-upgradeable/access/OwnableUpgradeable.sol\":2176:2208  _transferOwnership(initialOwner) */\n      tag_193\n        /* \"@openzeppelin/contracts-upgradeable/access/OwnableUpgradeable.sol\":2195:2207  initialOwner */\n      dup2\n        /* \"@openzeppelin/contracts-upgradeable/access/OwnableUpgradeable.sol\":2176:2194  _transferOwnership */\n      tag_98\n        /* \"@openzeppelin/contracts-upgradeable/access/OwnableUpgradeable.sol\":2176:2208  _transferOwnership(initialOwner) */\n      jump\t// in\n    tag_193:\n        /* \"@openzeppelin/contracts-upgradeable/access/OwnableUpgradeable.sol\":1980:2215  function __Ownable_init_unchained(address initialOwner) internal onlyInitializing {... */\n      pop\n      jump\t// out\n        /* \"@openzeppelin/contracts/utils/StorageSlot.sol\":1899:2062  function getAddressSlot(bytes32 slot) internal pure returns (AddressSlot storage r) {... */\n    tag_173:\n        /* \"@openzeppelin/contracts/utils/StorageSlot.sol\":1960:1981  AddressSlot storage r */\n      0x00\n        /* \"@openzeppelin/contracts/utils/StorageSlot.sol\":2042:2046  slot */\n      dup2\n        /* \"@openzeppelin/contracts/utils/StorageSlot.sol\":2032:2046  r.slot := slot */\n      swap1\n      pop\n        /* \"@openzeppelin/contracts/utils/StorageSlot.sol\":1899:2062  function getAddressSlot(bytes32 slot) internal pure returns (AddressSlot storage r) {... */\n      swap2\n      swap1\n      pop\n      jump\t// out\n        /* \"@openzeppelin/contracts/proxy/ERC1967/ERC1967Utils.sol\":1671:1952  function _setImplementation(address newImplementation) private {... */\n    tag_176:\n        /* \"@openzeppelin/contracts/proxy/ERC1967/ERC1967Utils.sol\":1781:1782  0 */\n      0x00\n        /* \"@openzeppelin/contracts/proxy/ERC1967/ERC1967Utils.sol\":1748:1765  newImplementation */\n      dup2\n        /* \"@openzeppelin/contracts/proxy/ERC1967/ERC1967Utils.sol\":1748:1777  newImplementation.code.length */\n      0xffffffffffffffffffffffffffffffffffffffff\n      and\n      extcodesize\n        /* \"@openzeppelin/contracts/proxy/ERC1967/ERC1967Utils.sol\":1748:1782  newImplementation.code.length == 0 */\n      sub\n        /* \"@openzeppelin/contracts/proxy/ERC1967/ERC1967Utils.sol\":1744:1863  if (newImplementation.code.length == 0) {... */\n      tag_196\n      jumpi\n        /* \"@openzeppelin/contracts/proxy/ERC1967/ERC1967Utils.sol\":1834:1851  newImplementation */\n      dup1\n        /* \"@openzeppelin/contracts/proxy/ERC1967/ERC1967Utils.sol\":1805:1852  ERC1967InvalidImplementation(newImplementation) */\n      mload(0x40)\n      0x4c9c8ce300000000000000000000000000000000000000000000000000000000\n      dup2\n      mstore\n      0x04\n      add\n      tag_197\n      swap2\n      swap1\n      tag_43\n      jump\t// in\n    tag_197:\n      mload(0x40)\n      dup1\n      swap2\n      sub\n      swap1\n      revert\n        /* \"@openzeppelin/contracts/proxy/ERC1967/ERC1967Utils.sol\":1744:1863  if (newImplementation.code.length == 0) {... */\n    tag_196:\n        /* \"@openzeppelin/contracts/proxy/ERC1967/ERC1967Utils.sol\":1928:1945  newImplementation */\n      dup1\n        /* \"@openzeppelin/contracts/proxy/ERC1967/ERC1967Utils.sol\":1872:1919  StorageSlot.getAddressSlot(IMPLEMENTATION_SLOT) */\n      tag_198\n        /* \"@openzeppelin/contracts/proxy/ERC1967/ERC1967Utils.sol\":811:877  0x360894a13ba1a3210667c828492db98dca3e2076cc3735a920a3ca505d382bbc */\n      0x360894a13ba1a3210667c828492db98dca3e2076cc3735a920a3ca505d382bbc\n        /* \"@openzeppelin/contracts/proxy/ERC1967/ERC1967Utils.sol\":1899:1918  IMPLEMENTATION_SLOT */\n      0x00\n      shl\n        /* \"@openzeppelin/contracts/proxy/ERC1967/ERC1967Utils.sol\":1872:1898  StorageSlot.getAddressSlot */\n      tag_173\n        /* \"@openzeppelin/contracts/proxy/ERC1967/ERC1967Utils.sol\":1872:1919  StorageSlot.getAddressSlot(IMPLEMENTATION_SLOT) */\n      jump\t// in\n    tag_198:\n        /* \"@openzeppelin/contracts/proxy/ERC1967/ERC1967Utils.sol\":1872:1925  StorageSlot.getAddressSlot(IMPLEMENTATION_SLOT).value */\n      0x00\n      add\n      0x00\n        /* \"@openzeppelin/contracts/proxy/ERC1967/ERC1967Utils.sol\":1872:1945  StorageSlot.getAddressSlot(IMPLEMENTATION_SLOT).value = newImplementation */\n      0x0100\n      exp\n      dup2\n      sload\n      dup2\n      0xffffffffffffffffffffffffffffffffffffffff\n      mul\n      not\n      and\n      swap1\n      dup4\n      0xffffffffffffffffffffffffffffffffffffffff\n      and\n      mul\n      or\n      swap1\n      sstore\n      pop\n        /* \"@openzeppelin/contracts/proxy/ERC1967/ERC1967Utils.sol\":1671:1952  function _setImplementation(address newImplementation) private {... */\n      pop\n      jump\t// out\n        /* \"@openzeppelin/contracts/utils/Address.sol\":3900:4153  function functionDelegateCall(address target, bytes memory data) internal returns (bytes memory) {... */\n    tag_179:\n        /* \"@openzeppelin/contracts/utils/Address.sol\":3983:3995  bytes memory */\n      0x60\n        /* \"@openzeppelin/contracts/utils/Address.sol\":4008:4020  bool success */\n      0x00\n        /* \"@openzeppelin/contracts/utils/Address.sol\":4022:4045  bytes memory returndata */\n      dup1\n        /* \"@openzeppelin/contracts/utils/Address.sol\":4049:4055  target */\n      dup5\n        /* \"@openzeppelin/contracts/utils/Address.sol\":4049:4068  target.delegatecall */\n      0xffffffffffffffffffffffffffffffffffffffff\n      and\n        /* \"@openzeppelin/contracts/utils/Address.sol\":4069:4073  data */\n      dup5\n        /* \"@openzeppelin/contracts/utils/Address.sol\":4049:4074  target.delegatecall(data) */\n      mload(0x40)\n      tag_200\n      swap2\n      swap1\n      tag_201\n      jump\t// in\n    tag_200:\n      0x00\n      mload(0x40)\n      dup1\n      dup4\n      sub\n      dup2\n      dup6\n      gas\n      delegatecall\n      swap2\n      pop\n      pop\n      returndatasize\n      dup1\n      0x00\n      dup2\n      eq\n      tag_204\n      jumpi\n      mload(0x40)\n      swap2\n      pop\n      and(add(returndatasize, 0x3f), not(0x1f))\n      dup3\n      add\n      0x40\n      mstore\n      returndatasize\n      dup3\n      mstore\n      returndatasize\n      0x00\n      0x20\n      dup5\n      add\n      returndatacopy\n      jump(tag_203)\n    tag_204:\n      0x60\n      swap2\n      pop\n    tag_203:\n      pop\n        /* \"@openzeppelin/contracts/utils/Address.sol\":4007:4074  (bool success, bytes memory returndata) = target.delegatecall(data) */\n      swap2\n      pop\n      swap2\n      pop\n        /* \"@openzeppelin/contracts/utils/Address.sol\":4091:4146  verifyCallResultFromTarget(target, success, returndata) */\n      tag_205\n        /* \"@openzeppelin/contracts/utils/Address.sol\":4118:4124  target */\n      dup6\n        /* \"@openzeppelin/contracts/utils/Address.sol\":4126:4133  success */\n      dup4\n        /* \"@openzeppelin/contracts/utils/Address.sol\":4135:4145  returndata */\n      dup4\n        /* \"@openzeppelin/contracts/utils/Address.sol\":4091:4117  verifyCallResultFromTarget */\n      tag_206\n        /* \"@openzeppelin/contracts/utils/Address.sol\":4091:4146  verifyCallResultFromTarget(target, success, returndata) */\n      jump\t// in\n    tag_205:\n        /* \"@openzeppelin/contracts/utils/Address.sol\":4084:4146  return verifyCallResultFromTarget(target, success, returndata) */\n      swap3\n      pop\n      pop\n      pop\n        /* \"@openzeppelin/contracts/utils/Address.sol\":3900:4153  function functionDelegateCall(address target, bytes memory data) internal returns (bytes memory) {... */\n      swap3\n      swap2\n      pop\n      pop\n      jump\t// out\n        /* \"@openzeppelin/contracts/proxy/ERC1967/ERC1967Utils.sol\":6113:6235  function _checkNonPayable() private {... */\n    tag_182:\n        /* \"@openzeppelin/contracts/proxy/ERC1967/ERC1967Utils.sol\":6175:6176  0 */\n      0x00\n        /* \"@openzeppelin/contracts/proxy/ERC1967/ERC1967Utils.sol\":6163:6172  msg.value */\n      callvalue\n        /* \"@openzeppelin/contracts/proxy/ERC1967/ERC1967Utils.sol\":6163:6176  msg.value > 0 */\n      gt\n        /* \"@openzeppelin/contracts/proxy/ERC1967/ERC1967Utils.sol\":6159:6229  if (msg.value > 0) {... */\n      iszero\n      tag_208\n      jumpi\n        /* \"@openzeppelin/contracts/proxy/ERC1967/ERC1967Utils.sol\":6199:6218  ERC1967NonPayable() */\n      mload(0x40)\n      0xb398979f00000000000000000000000000000000000000000000000000000000\n      dup2\n      mstore\n      0x04\n      add\n      mload(0x40)\n      dup1\n      swap2\n      sub\n      swap1\n      revert\n        /* \"@openzeppelin/contracts/proxy/ERC1967/ERC1967Utils.sol\":6159:6229  if (msg.value > 0) {... */\n    tag_208:\n        /* \"@openzeppelin/contracts/proxy/ERC1967/ERC1967Utils.sol\":6113:6235  function _checkNonPayable() private {... */\n      jump\t// out\n        /* \"@openzeppelin/contracts-upgradeable/proxy/utils/Initializable.sol\":8487:8607  function _isInitializing() internal view returns (bool) {... */\n    tag_186:\n        /* \"@openzeppelin/contracts-upgradeable/proxy/utils/Initializable.sol\":8537:8541  bool */\n      0x00\n        /* \"@openzeppelin/contracts-upgradeable/proxy/utils/Initializable.sol\":8560:8586  _getInitializableStorage() */\n      tag_210\n        /* \"@openzeppelin/contracts-upgradeable/proxy/utils/Initializable.sol\":8560:8584  _getInitializableStorage */\n      tag_118\n        /* \"@openzeppelin/contracts-upgradeable/proxy/utils/Initializable.sol\":8560:8586  _getInitializableStorage() */\n      jump\t// in\n    tag_210:\n        /* \"@openzeppelin/contracts-upgradeable/proxy/utils/Initializable.sol\":8560:8600  _getInitializableStorage()._initializing */\n      0x00\n      add\n      0x08\n      swap1\n      sload\n      swap1\n      0x0100\n      exp\n      swap1\n      div\n      0xff\n      and\n        /* \"@openzeppelin/contracts-upgradeable/proxy/utils/Initializable.sol\":8553:8600  return _getInitializableStorage()._initializing */\n      swap1\n      pop\n        /* \"@openzeppelin/contracts-upgradeable/proxy/utils/Initializable.sol\":8487:8607  function _isInitializing() internal view returns (bool) {... */\n      swap1\n      jump\t// out\n        /* \"@openzeppelin/contracts/utils/Address.sol\":4421:5003  function verifyCallResultFromTarget(... */\n    tag_206:\n        /* \"@openzeppelin/contracts/utils/Address.sol\":4565:4577  bytes memory */\n      0x60\n        /* \"@openzeppelin/contracts/utils/Address.sol\":4594:4601  success */\n      dup3\n        /* \"@openzeppelin/contracts/utils/Address.sol\":4589:4997  if (!success) {... */\n      tag_212\n      jumpi\n        /* \"@openzeppelin/contracts/utils/Address.sol\":4617:4636  _revert(returndata) */\n      tag_213\n        /* \"@openzeppelin/contracts/utils/Address.sol\":4625:4635  returndata */\n      dup3\n        /* \"@openzeppelin/contracts/utils/Address.sol\":4617:4624  _revert */\n      tag_214\n        /* \"@openzeppelin/contracts/utils/Address.sol\":4617:4636  _revert(returndata) */\n      jump\t// in\n    tag_213:\n        /* \"@openzeppelin/contracts/utils/Address.sol\":4589:4997  if (!success) {... */\n      jump(tag_215)\n    tag_212:\n        /* \"@openzeppelin/contracts/utils/Address.sol\":4862:4863  0 */\n      0x00\n        /* \"@openzeppelin/contracts/utils/Address.sol\":4841:4851  returndata */\n      dup3\n        /* \"@openzeppelin/contracts/utils/Address.sol\":4841:4858  returndata.length */\n      mload\n        /* \"@openzeppelin/contracts/utils/Address.sol\":4841:4863  returndata.length == 0 */\n      eq\n        /* \"@openzeppelin/contracts/utils/Address.sol\":4841:4890  returndata.length == 0 && target.code.length == 0 */\n      dup1\n      iszero\n      tag_216\n      jumpi\n      pop\n        /* \"@openzeppelin/contracts/utils/Address.sol\":4889:4890  0 */\n      0x00\n        /* \"@openzeppelin/contracts/utils/Address.sol\":4867:4873  target */\n      dup5\n        /* \"@openzeppelin/contracts/utils/Address.sol\":4867:4885  target.code.length */\n      0xffffffffffffffffffffffffffffffffffffffff\n      and\n      extcodesize\n        /* \"@openzeppelin/contracts/utils/Address.sol\":4867:4890  target.code.length == 0 */\n      eq\n        /* \"@openzeppelin/contracts/utils/Address.sol\":4841:4890  returndata.length == 0 && target.code.length == 0 */\n    tag_216:\n        /* \"@openzeppelin/contracts/utils/Address.sol\":4837:4956  if (returndata.length == 0 && target.code.length == 0) {... */\n      iszero\n      tag_217\n      jumpi\n        /* \"@openzeppelin/contracts/utils/Address.sol\":4934:4940  target */\n      dup4\n        /* \"@openzeppelin/contracts/utils/Address.sol\":4917:4941  AddressEmptyCode(target) */\n      mload(0x40)\n      0x9996b31500000000000000000000000000000000000000000000000000000000\n      dup2\n      mstore\n      0x04\n      add\n      tag_218\n      swap2\n      swap1\n      tag_43\n      jump\t// in\n    tag_218:\n      mload(0x40)\n      dup1\n      swap2\n      sub\n      swap1\n      revert\n        /* \"@openzeppelin/contracts/utils/Address.sol\":4837:4956  if (returndata.length == 0 && target.code.length == 0) {... */\n    tag_217:\n        /* \"@openzeppelin/contracts/utils/Address.sol\":4976:4986  returndata */\n      dup2\n        /* \"@openzeppelin/contracts/utils/Address.sol\":4969:4986  return returndata */\n      swap1\n      pop\n      jump(tag_211)\n        /* \"@openzeppelin/contracts/utils/Address.sol\":4589:4997  if (!success) {... */\n    tag_215:\n        /* \"@openzeppelin/contracts/utils/Address.sol\":4421:5003  function verifyCallResultFromTarget(... */\n    tag_211:\n      swap4\n      swap3\n      pop\n      pop\n      pop\n      jump\t// out\n        /* \"@openzeppelin/contracts/utils/Address.sol\":5543:6030  function _revert(bytes memory returndata) private pure {... */\n    tag_214:\n        /* \"@openzeppelin/contracts/utils/Address.sol\":5694:5695  0 */\n      0x00\n        /* \"@openzeppelin/contracts/utils/Address.sol\":5674:5684  returndata */\n      dup2\n        /* \"@openzeppelin/contracts/utils/Address.sol\":5674:5691  returndata.length */\n      mload\n        /* \"@openzeppelin/contracts/utils/Address.sol\":5674:5695  returndata.length > 0 */\n      gt\n        /* \"@openzeppelin/contracts/utils/Address.sol\":5670:6024  if (returndata.length > 0) {... */\n      iszero\n      tag_220\n      jumpi\n        /* \"@openzeppelin/contracts/utils/Address.sol\":5871:5881  returndata */\n      dup1\n        /* \"@openzeppelin/contracts/utils/Address.sol\":5865:5882  mload(returndata) */\n      mload\n        /* \"@openzeppelin/contracts/utils/Address.sol\":5927:5942  returndata_size */\n      dup1\n        /* \"@openzeppelin/contracts/utils/Address.sol\":5914:5924  returndata */\n      dup3\n        /* \"@openzeppelin/contracts/utils/Address.sol\":5910:5912  32 */\n      0x20\n        /* \"@openzeppelin/contracts/utils/Address.sol\":5906:5925  add(32, returndata) */\n      add\n        /* \"@openzeppelin/contracts/utils/Address.sol\":5899:5943  revert(add(32, returndata), returndata_size) */\n      revert\n        /* \"@openzeppelin/contracts/utils/Address.sol\":5670:6024  if (returndata.length > 0) {... */\n    tag_220:\n        /* \"@openzeppelin/contracts/utils/Address.sol\":5994:6013  Errors.FailedCall() */\n      mload(0x40)\n      0xd6bda27500000000000000000000000000000000000000000000000000000000\n      dup2\n      mstore\n      0x04\n      add\n      mload(0x40)\n      dup1\n      swap2\n      sub\n      swap1\n      revert\n        /* \"#utility.yul\":7:82   */\n    tag_222:\n        /* \"#utility.yul\":40:46   */\n      0x00\n        /* \"#utility.yul\":73:75   */\n      0x40\n        /* \"#utility.yul\":67:76   */\n      mload\n        /* \"#utility.yul\":57:76   */\n      swap1\n      pop\n        /* \"#utility.yul\":7:82   */\n      swap1\n      jump\t// out\n        /* \"#utility.yul\":88:205   */\n    tag_223:\n        /* \"#utility.yul\":197:198   */\n      0x00\n        /* \"#utility.yul\":194:195   */\n      dup1\n        /* \"#utility.yul\":187:199   */\n      revert\n        /* \"#utility.yul\":211:328   */\n    tag_224:\n        /* \"#utility.yul\":320:321   */\n      0x00\n        /* \"#utility.yul\":317:318   */\n      dup1\n        /* \"#utility.yul\":310:322   */\n      revert\n        /* \"#utility.yul\":334:411   */\n    tag_225:\n        /* \"#utility.yul\":371:378   */\n      0x00\n        /* \"#utility.yul\":400:405   */\n      dup2\n        /* \"#utility.yul\":389:405   */\n      swap1\n      pop\n        /* \"#utility.yul\":334:411   */\n      swap2\n      swap1\n      pop\n      jump\t// out\n        /* \"#utility.yul\":417:539   */\n    tag_226:\n        /* \"#utility.yul\":490:514   */\n      tag_269\n        /* \"#utility.yul\":508:513   */\n      dup2\n        /* \"#utility.yul\":490:514   */\n      tag_225\n      jump\t// in\n    tag_269:\n        /* \"#utility.yul\":483:488   */\n      dup2\n        /* \"#utility.yul\":480:515   */\n      eq\n        /* \"#utility.yul\":470:533   */\n      tag_270\n      jumpi\n        /* \"#utility.yul\":529:530   */\n      0x00\n        /* \"#utility.yul\":526:527   */\n      dup1\n        /* \"#utility.yul\":519:531   */\n      revert\n        /* \"#utility.yul\":470:533   */\n    tag_270:\n        /* \"#utility.yul\":417:539   */\n      pop\n      jump\t// out\n        /* \"#utility.yul\":545:684   */\n    tag_227:\n        /* \"#utility.yul\":591:596   */\n      0x00\n        /* \"#utility.yul\":629:635   */\n      dup2\n        /* \"#utility.yul\":616:636   */\n      calldataload\n        /* \"#utility.yul\":607:636   */\n      swap1\n      pop\n        /* \"#utility.yul\":645:678   */\n      tag_272\n        /* \"#utility.yul\":672:677   */\n      dup2\n        /* \"#utility.yul\":645:678   */\n      tag_226\n      jump\t// in\n    tag_272:\n        /* \"#utility.yul\":545:684   */\n      swap3\n      swap2\n      pop\n      pop\n      jump\t// out\n        /* \"#utility.yul\":690:1019   */\n    tag_23:\n        /* \"#utility.yul\":749:755   */\n      0x00\n        /* \"#utility.yul\":798:800   */\n      0x20\n        /* \"#utility.yul\":786:795   */\n      dup3\n        /* \"#utility.yul\":777:784   */\n      dup5\n        /* \"#utility.yul\":773:796   */\n      sub\n        /* \"#utility.yul\":769:801   */\n      slt\n        /* \"#utility.yul\":766:885   */\n      iszero\n      tag_274\n      jumpi\n        /* \"#utility.yul\":804:883   */\n      tag_275\n      tag_223\n      jump\t// in\n    tag_275:\n        /* \"#utility.yul\":766:885   */\n    tag_274:\n        /* \"#utility.yul\":924:925   */\n      0x00\n        /* \"#utility.yul\":949:1002   */\n      tag_276\n        /* \"#utility.yul\":994:1001   */\n      dup5\n        /* \"#utility.yul\":985:991   */\n      dup3\n        /* \"#utility.yul\":974:983   */\n      dup6\n        /* \"#utility.yul\":970:992   */\n      add\n        /* \"#utility.yul\":949:1002   */\n      tag_227\n      jump\t// in\n    tag_276:\n        /* \"#utility.yul\":939:1002   */\n      swap2\n      pop\n        /* \"#utility.yul\":895:1012   */\n      pop\n        /* \"#utility.yul\":690:1019   */\n      swap3\n      swap2\n      pop\n      pop\n      jump\t// out\n        /* \"#utility.yul\":1025:1123   */\n    tag_228:\n        /* \"#utility.yul\":1076:1082   */\n      0x00\n        /* \"#utility.yul\":1110:1115   */\n      dup2\n        /* \"#utility.yul\":1104:1116   */\n      mload\n        /* \"#utility.yul\":1094:1116   */\n      swap1\n      pop\n        /* \"#utility.yul\":1025:1123   */\n      swap2\n      swap1\n      pop\n      jump\t// out\n        /* \"#utility.yul\":1129:1297   */\n    tag_229:\n        /* \"#utility.yul\":1212:1223   */\n      0x00\n        /* \"#utility.yul\":1246:1252   */\n      dup3\n        /* \"#utility.yul\":1241:1244   */\n      dup3\n        /* \"#utility.yul\":1234:1253   */\n      mstore\n        /* \"#utility.yul\":1286:1290   */\n      0x20\n        /* \"#utility.yul\":1281:1284   */\n      dup3\n        /* \"#utility.yul\":1277:1291   */\n      add\n        /* \"#utility.yul\":1262:1291   */\n      swap1\n      pop\n        /* \"#utility.yul\":1129:1297   */\n      swap3\n      swap2\n      pop\n      pop\n      jump\t// out\n        /* \"#utility.yul\":1303:1442   */\n    tag_230:\n        /* \"#utility.yul\":1392:1398   */\n      dup3\n        /* \"#utility.yul\":1387:1390   */\n      dup2\n        /* \"#utility.yul\":1382:1385   */\n      dup4\n        /* \"#utility.yul\":1376:1399   */\n      mcopy\n        /* \"#utility.yul\":1433:1434   */\n      0x00\n        /* \"#utility.yul\":1424:1430   */\n      dup4\n        /* \"#utility.yul\":1419:1422   */\n      dup4\n        /* \"#utility.yul\":1415:1431   */\n      add\n        /* \"#utility.yul\":1408:1435   */\n      mstore\n        /* \"#utility.yul\":1303:1442   */\n      pop\n      pop\n      pop\n      jump\t// out\n        /* \"#utility.yul\":1448:1550   */\n    tag_231:\n        /* \"#utility.yul\":1489:1495   */\n      0x00\n        /* \"#utility.yul\":1540:1542   */\n      0x1f\n        /* \"#utility.yul\":1536:1543   */\n      not\n        /* \"#utility.yul\":1531:1533   */\n      0x1f\n        /* \"#utility.yul\":1524:1529   */\n      dup4\n        /* \"#utility.yul\":1520:1534   */\n      add\n        /* \"#utility.yul\":1516:1544   */\n      and\n        /* \"#utility.yul\":1506:1544   */\n      swap1\n      pop\n        /* \"#utility.yul\":1448:1550   */\n      swap2\n      swap1\n      pop\n      jump\t// out\n        /* \"#utility.yul\":1556:1929   */\n    tag_232:\n        /* \"#utility.yul\":1642:1645   */\n      0x00\n        /* \"#utility.yul\":1670:1708   */\n      tag_282\n        /* \"#utility.yul\":1702:1707   */\n      dup3\n        /* \"#utility.yul\":1670:1708   */\n      tag_228\n      jump\t// in\n    tag_282:\n        /* \"#utility.yul\":1724:1794   */\n      tag_283\n        /* \"#utility.yul\":1787:1793   */\n      dup2\n        /* \"#utility.yul\":1782:1785   */\n      dup6\n        /* \"#utility.yul\":1724:1794   */\n      tag_229\n      jump\t// in\n    tag_283:\n        /* \"#utility.yul\":1717:1794   */\n      swap4\n      pop\n        /* \"#utility.yul\":1803:1868   */\n      tag_284\n        /* \"#utility.yul\":1861:1867   */\n      dup2\n        /* \"#utility.yul\":1856:1859   */\n      dup6\n        /* \"#utility.yul\":1849:1853   */\n      0x20\n        /* \"#utility.yul\":1842:1847   */\n      dup7\n        /* \"#utility.yul\":1838:1854   */\n      add\n        /* \"#utility.yul\":1803:1868   */\n      tag_230\n      jump\t// in\n    tag_284:\n        /* \"#utility.yul\":1893:1922   */\n      tag_285\n        /* \"#utility.yul\":1915:1921   */\n      dup2\n        /* \"#utility.yul\":1893:1922   */\n      tag_231\n      jump\t// in\n    tag_285:\n        /* \"#utility.yul\":1888:1891   */\n      dup5\n        /* \"#utility.yul\":1884:1923   */\n      add\n        /* \"#utility.yul\":1877:1923   */\n      swap2\n      pop\n        /* \"#utility.yul\":1646:1929   */\n      pop\n        /* \"#utility.yul\":1556:1929   */\n      swap3\n      swap2\n      pop\n      pop\n      jump\t// out\n        /* \"#utility.yul\":1935:2244   */\n    tag_26:\n        /* \"#utility.yul\":2046:2050   */\n      0x00\n        /* \"#utility.yul\":2084:2086   */\n      0x20\n        /* \"#utility.yul\":2073:2082   */\n      dup3\n        /* \"#utility.yul\":2069:2087   */\n      add\n        /* \"#utility.yul\":2061:2087   */\n      swap1\n      pop\n        /* \"#utility.yul\":2133:2142   */\n      dup2\n        /* \"#utility.yul\":2127:2131   */\n      dup2\n        /* \"#utility.yul\":2123:2143   */\n      sub\n        /* \"#utility.yul\":2119:2120   */\n      0x00\n        /* \"#utility.yul\":2108:2117   */\n      dup4\n        /* \"#utility.yul\":2104:2121   */\n      add\n        /* \"#utility.yul\":2097:2144   */\n      mstore\n        /* \"#utility.yul\":2161:2237   */\n      tag_287\n        /* \"#utility.yul\":2232:2236   */\n      dup2\n        /* \"#utility.yul\":2223:2229   */\n      dup5\n        /* \"#utility.yul\":2161:2237   */\n      tag_232\n      jump\t// in\n    tag_287:\n        /* \"#utility.yul\":2153:2237   */\n      swap1\n      pop\n        /* \"#utility.yul\":1935:2244   */\n      swap3\n      swap2\n      pop\n      pop\n      jump\t// out\n        /* \"#utility.yul\":2250:2376   */\n    tag_233:\n        /* \"#utility.yul\":2287:2294   */\n      0x00\n        /* \"#utility.yul\":2327:2369   */\n      0xffffffffffffffffffffffffffffffffffffffff\n        /* \"#utility.yul\":2320:2325   */\n      dup3\n        /* \"#utility.yul\":2316:2370   */\n      and\n        /* \"#utility.yul\":2305:2370   */\n      swap1\n      pop\n        /* \"#utility.yul\":2250:2376   */\n      swap2\n      swap1\n      pop\n      jump\t// out\n        /* \"#utility.yul\":2382:2478   */\n    tag_234:\n        /* \"#utility.yul\":2419:2426   */\n      0x00\n        /* \"#utility.yul\":2448:2472   */\n      tag_290\n        /* \"#utility.yul\":2466:2471   */\n      dup3\n        /* \"#utility.yul\":2448:2472   */\n      tag_233\n      jump\t// in\n    tag_290:\n        /* \"#utility.yul\":2437:2472   */\n      swap1\n      pop\n        /* \"#utility.yul\":2382:2478   */\n      swap2\n      swap1\n      pop\n      jump\t// out\n        /* \"#utility.yul\":2484:2606   */\n    tag_235:\n        /* \"#utility.yul\":2557:2581   */\n      tag_292\n        /* \"#utility.yul\":2575:2580   */\n      dup2\n        /* \"#utility.yul\":2557:2581   */\n      tag_234\n      jump\t// in\n    tag_292:\n        /* \"#utility.yul\":2550:2555   */\n      dup2\n        /* \"#utility.yul\":2547:2582   */\n      eq\n        /* \"#utility.yul\":2537:2600   */\n      tag_293\n      jumpi\n        /* \"#utility.yul\":2596:2597   */\n      0x00\n        /* \"#utility.yul\":2593:2594   */\n      dup1\n        /* \"#utility.yul\":2586:2598   */\n      revert\n        /* \"#utility.yul\":2537:2600   */\n    tag_293:\n        /* \"#utility.yul\":2484:2606   */\n      pop\n      jump\t// out\n        /* \"#utility.yul\":2612:2751   */\n    tag_236:\n        /* \"#utility.yul\":2658:2663   */\n      0x00\n        /* \"#utility.yul\":2696:2702   */\n      dup2\n        /* \"#utility.yul\":2683:2703   */\n      calldataload\n        /* \"#utility.yul\":2674:2703   */\n      swap1\n      pop\n        /* \"#utility.yul\":2712:2745   */\n      tag_295\n        /* \"#utility.yul\":2739:2744   */\n      dup2\n        /* \"#utility.yul\":2712:2745   */\n      tag_235\n      jump\t// in\n    tag_295:\n        /* \"#utility.yul\":2612:2751   */\n      swap3\n      swap2\n      pop\n      pop\n      jump\t// out\n        /* \"#utility.yul\":2757:2874   */\n    tag_237:\n        /* \"#utility.yul\":2866:2867   */\n      0x00\n        /* \"#utility.yul\":2863:2864   */\n      dup1\n        /* \"#utility.yul\":2856:2868   */\n      revert\n        /* \"#utility.yul\":2880:2997   */\n    tag_238:\n        /* \"#utility.yul\":2989:2990   */\n      0x00\n        /* \"#utility.yul\":2986:2987   */\n      dup1\n        /* \"#utility.yul\":2979:2991   */\n      revert\n        /* \"#utility.yul\":3003:3183   */\n    tag_239:\n        /* \"#utility.yul\":3051:3128   */\n      0x4e487b7100000000000000000000000000000000000000000000000000000000\n        /* \"#utility.yul\":3048:3049   */\n      0x00\n        /* \"#utility.yul\":3041:3129   */\n      mstore\n        /* \"#utility.yul\":3148:3152   */\n      0x41\n        /* \"#utility.yul\":3145:3146   */\n      0x04\n        /* \"#utility.yul\":3138:3153   */\n      mstore\n        /* \"#utility.yul\":3172:3176   */\n      0x24\n        /* \"#utility.yul\":3169:3170   */\n      0x00\n        /* \"#utility.yul\":3162:3177   */\n      revert\n        /* \"#utility.yul\":3189:3470   */\n    tag_240:\n        /* \"#utility.yul\":3272:3299   */\n      tag_300\n        /* \"#utility.yul\":3294:3298   */\n      dup3\n        /* \"#utility.yul\":3272:3299   */\n      tag_231\n      jump\t// in\n    tag_300:\n        /* \"#utility.yul\":3264:3270   */\n      dup2\n        /* \"#utility.yul\":3260:3300   */\n      add\n        /* \"#utility.yul\":3402:3408   */\n      dup2\n        /* \"#utility.yul\":3390:3400   */\n      dup2\n        /* \"#utility.yul\":3387:3409   */\n      lt\n        /* \"#utility.yul\":3366:3384   */\n      0xffffffffffffffff\n        /* \"#utility.yul\":3354:3364   */\n      dup3\n        /* \"#utility.yul\":3351:3385   */\n      gt\n        /* \"#utility.yul\":3348:3410   */\n      or\n        /* \"#utility.yul\":3345:3433   */\n      iszero\n      tag_301\n      jumpi\n        /* \"#utility.yul\":3413:3431   */\n      tag_302\n      tag_239\n      jump\t// in\n    tag_302:\n        /* \"#utility.yul\":3345:3433   */\n    tag_301:\n        /* \"#utility.yul\":3453:3463   */\n      dup1\n        /* \"#utility.yul\":3449:3451   */\n      0x40\n        /* \"#utility.yul\":3442:3464   */\n      mstore\n        /* \"#utility.yul\":3232:3470   */\n      pop\n        /* \"#utility.yul\":3189:3470   */\n      pop\n      pop\n      jump\t// out\n        /* \"#utility.yul\":3476:3605   */\n    tag_241:\n        /* \"#utility.yul\":3510:3516   */\n      0x00\n        /* \"#utility.yul\":3537:3557   */\n      tag_304\n      tag_222\n      jump\t// in\n    tag_304:\n        /* \"#utility.yul\":3527:3557   */\n      swap1\n      pop\n        /* \"#utility.yul\":3566:3599   */\n      tag_305\n        /* \"#utility.yul\":3594:3598   */\n      dup3\n        /* \"#utility.yul\":3586:3592   */\n      dup3\n        /* \"#utility.yul\":3566:3599   */\n      tag_240\n      jump\t// in\n    tag_305:\n        /* \"#utility.yul\":3476:3605   */\n      swap2\n      swap1\n      pop\n      jump\t// out\n        /* \"#utility.yul\":3611:3918   */\n    tag_242:\n        /* \"#utility.yul\":3672:3676   */\n      0x00\n        /* \"#utility.yul\":3762:3780   */\n      0xffffffffffffffff\n        /* \"#utility.yul\":3754:3760   */\n      dup3\n        /* \"#utility.yul\":3751:3781   */\n      gt\n        /* \"#utility.yul\":3748:3804   */\n      iszero\n      tag_307\n      jumpi\n        /* \"#utility.yul\":3784:3802   */\n      tag_308\n      tag_239\n      jump\t// in\n    tag_308:\n        /* \"#utility.yul\":3748:3804   */\n    tag_307:\n        /* \"#utility.yul\":3822:3851   */\n      tag_309\n        /* \"#utility.yul\":3844:3850   */\n      dup3\n        /* \"#utility.yul\":3822:3851   */\n      tag_231\n      jump\t// in\n    tag_309:\n        /* \"#utility.yul\":3814:3851   */\n      swap1\n      pop\n        /* \"#utility.yul\":3906:3910   */\n      0x20\n        /* \"#utility.yul\":3900:3904   */\n      dup2\n        /* \"#utility.yul\":3896:3911   */\n      add\n        /* \"#utility.yul\":3888:3911   */\n      swap1\n      pop\n        /* \"#utility.yul\":3611:3918   */\n      swap2\n      swap1\n      pop\n      jump\t// out\n        /* \"#utility.yul\":3924:4072   */\n    tag_243:\n        /* \"#utility.yul\":4022:4028   */\n      dup3\n        /* \"#utility.yul\":4017:4020   */\n      dup2\n        /* \"#utility.yul\":4012:4015   */\n      dup4\n        /* \"#utility.yul\":3999:4029   */\n      calldatacopy\n        /* \"#utility.yul\":4063:4064   */\n      0x00\n        /* \"#utility.yul\":4054:4060   */\n      dup4\n        /* \"#utility.yul\":4049:4052   */\n      dup4\n        /* \"#utility.yul\":4045:4061   */\n      add\n        /* \"#utility.yul\":4038:4065   */\n      mstore\n        /* \"#utility.yul\":3924:4072   */\n      pop\n      pop\n      pop\n      jump\t// out\n        /* \"#utility.yul\":4078:4501   */\n    tag_244:\n        /* \"#utility.yul\":4155:4160   */\n      0x00\n        /* \"#utility.yul\":4180:4245   */\n      tag_312\n        /* \"#utility.yul\":4196:4244   */\n      tag_313\n        /* \"#utility.yul\":4237:4243   */\n      dup5\n        /* \"#utility.yul\":4196:4244   */\n      tag_242\n      jump\t// in\n    tag_313:\n        /* \"#utility.yul\":4180:4245   */\n      tag_241\n      jump\t// in\n    tag_312:\n        /* \"#utility.yul\":4171:4245   */\n      swap1\n      pop\n        /* \"#utility.yul\":4268:4274   */\n      dup3\n        /* \"#utility.yul\":4261:4266   */\n      dup2\n        /* \"#utility.yul\":4254:4275   */\n      mstore\n        /* \"#utility.yul\":4306:4310   */\n      0x20\n        /* \"#utility.yul\":4299:4304   */\n      dup2\n        /* \"#utility.yul\":4295:4311   */\n      add\n        /* \"#utility.yul\":4344:4347   */\n      dup5\n        /* \"#utility.yul\":4335:4341   */\n      dup5\n        /* \"#utility.yul\":4330:4333   */\n      dup5\n        /* \"#utility.yul\":4326:4342   */\n      add\n        /* \"#utility.yul\":4323:4348   */\n      gt\n        /* \"#utility.yul\":4320:4432   */\n      iszero\n      tag_314\n      jumpi\n        /* \"#utility.yul\":4351:4430   */\n      tag_315\n      tag_238\n      jump\t// in\n    tag_315:\n        /* \"#utility.yul\":4320:4432   */\n    tag_314:\n        /* \"#utility.yul\":4441:4495   */\n      tag_316\n        /* \"#utility.yul\":4488:4494   */\n      dup5\n        /* \"#utility.yul\":4483:4486   */\n      dup3\n        /* \"#utility.yul\":4478:4481   */\n      dup6\n        /* \"#utility.yul\":4441:4495   */\n      tag_243\n      jump\t// in\n    tag_316:\n        /* \"#utility.yul\":4161:4501   */\n      pop\n        /* \"#utility.yul\":4078:4501   */\n      swap4\n      swap3\n      pop\n      pop\n      pop\n      jump\t// out\n        /* \"#utility.yul\":4520:4858   */\n    tag_245:\n        /* \"#utility.yul\":4575:4580   */\n      0x00\n        /* \"#utility.yul\":4624:4627   */\n      dup3\n        /* \"#utility.yul\":4617:4621   */\n      0x1f\n        /* \"#utility.yul\":4609:4615   */\n      dup4\n        /* \"#utility.yul\":4605:4622   */\n      add\n        /* \"#utility.yul\":4601:4628   */\n      slt\n        /* \"#utility.yul\":4591:4713   */\n      tag_318\n      jumpi\n        /* \"#utility.yul\":4632:4711   */\n      tag_319\n      tag_237\n      jump\t// in\n    tag_319:\n        /* \"#utility.yul\":4591:4713   */\n    tag_318:\n        /* \"#utility.yul\":4749:4755   */\n      dup2\n        /* \"#utility.yul\":4736:4756   */\n      calldataload\n        /* \"#utility.yul\":4774:4852   */\n      tag_320\n        /* \"#utility.yul\":4848:4851   */\n      dup5\n        /* \"#utility.yul\":4840:4846   */\n      dup3\n        /* \"#utility.yul\":4833:4837   */\n      0x20\n        /* \"#utility.yul\":4825:4831   */\n      dup7\n        /* \"#utility.yul\":4821:4838   */\n      add\n        /* \"#utility.yul\":4774:4852   */\n      tag_244\n      jump\t// in\n    tag_320:\n        /* \"#utility.yul\":4765:4852   */\n      swap2\n      pop\n        /* \"#utility.yul\":4581:4858   */\n      pop\n        /* \"#utility.yul\":4520:4858   */\n      swap3\n      swap2\n      pop\n      pop\n      jump\t// out\n        /* \"#utility.yul\":4864:5516   */\n    tag_29:\n        /* \"#utility.yul\":4941:4947   */\n      0x00\n        /* \"#utility.yul\":4949:4955   */\n      dup1\n        /* \"#utility.yul\":4998:5000   */\n      0x40\n        /* \"#utility.yul\":4986:4995   */\n      dup4\n        /* \"#utility.yul\":4977:4984   */\n      dup6\n        /* \"#utility.yul\":4973:4996   */\n      sub\n        /* \"#utility.yul\":4969:5001   */\n      slt\n        /* \"#utility.yul\":4966:5085   */\n      iszero\n      tag_322\n      jumpi\n        /* \"#utility.yul\":5004:5083   */\n      tag_323\n      tag_223\n      jump\t// in\n    tag_323:\n        /* \"#utility.yul\":4966:5085   */\n    tag_322:\n        /* \"#utility.yul\":5124:5125   */\n      0x00\n        /* \"#utility.yul\":5149:5202   */\n      tag_324\n        /* \"#utility.yul\":5194:5201   */\n      dup6\n        /* \"#utility.yul\":5185:5191   */\n      dup3\n        /* \"#utility.yul\":5174:5183   */\n      dup7\n        /* \"#utility.yul\":5170:5192   */\n      add\n        /* \"#utility.yul\":5149:5202   */\n      tag_236\n      jump\t// in\n    tag_324:\n        /* \"#utility.yul\":5139:5202   */\n      swap3\n      pop\n        /* \"#utility.yul\":5095:5212   */\n      pop\n        /* \"#utility.yul\":5279:5281   */\n      0x20\n        /* \"#utility.yul\":5268:5277   */\n      dup4\n        /* \"#utility.yul\":5264:5282   */\n      add\n        /* \"#utility.yul\":5251:5283   */\n      calldataload\n        /* \"#utility.yul\":5310:5328   */\n      0xffffffffffffffff\n        /* \"#utility.yul\":5302:5308   */\n      dup2\n        /* \"#utility.yul\":5299:5329   */\n      gt\n        /* \"#utility.yul\":5296:5413   */\n      iszero\n      tag_325\n      jumpi\n        /* \"#utility.yul\":5332:5411   */\n      tag_326\n      tag_224\n      jump\t// in\n    tag_326:\n        /* \"#utility.yul\":5296:5413   */\n    tag_325:\n        /* \"#utility.yul\":5437:5499   */\n      tag_327\n        /* \"#utility.yul\":5491:5498   */\n      dup6\n        /* \"#utility.yul\":5482:5488   */\n      dup3\n        /* \"#utility.yul\":5471:5480   */\n      dup7\n        /* \"#utility.yul\":5467:5489   */\n      add\n        /* \"#utility.yul\":5437:5499   */\n      tag_245\n      jump\t// in\n    tag_327:\n        /* \"#utility.yul\":5427:5499   */\n      swap2\n      pop\n        /* \"#utility.yul\":5222:5509   */\n      pop\n        /* \"#utility.yul\":4864:5516   */\n      swap3\n      pop\n      swap3\n      swap1\n      pop\n      jump\t// out\n        /* \"#utility.yul\":5522:5599   */\n    tag_246:\n        /* \"#utility.yul\":5559:5566   */\n      0x00\n        /* \"#utility.yul\":5588:5593   */\n      dup2\n        /* \"#utility.yul\":5577:5593   */\n      swap1\n      pop\n        /* \"#utility.yul\":5522:5599   */\n      swap2\n      swap1\n      pop\n      jump\t// out\n        /* \"#utility.yul\":5605:5723   */\n    tag_247:\n        /* \"#utility.yul\":5692:5716   */\n      tag_330\n        /* \"#utility.yul\":5710:5715   */\n      dup2\n        /* \"#utility.yul\":5692:5716   */\n      tag_246\n      jump\t// in\n    tag_330:\n        /* \"#utility.yul\":5687:5690   */\n      dup3\n        /* \"#utility.yul\":5680:5717   */\n      mstore\n        /* \"#utility.yul\":5605:5723   */\n      pop\n      pop\n      jump\t// out\n        /* \"#utility.yul\":5729:5951   */\n    tag_35:\n        /* \"#utility.yul\":5822:5826   */\n      0x00\n        /* \"#utility.yul\":5860:5862   */\n      0x20\n        /* \"#utility.yul\":5849:5858   */\n      dup3\n        /* \"#utility.yul\":5845:5863   */\n      add\n        /* \"#utility.yul\":5837:5863   */\n      swap1\n      pop\n        /* \"#utility.yul\":5873:5944   */\n      tag_332\n        /* \"#utility.yul\":5941:5942   */\n      0x00\n        /* \"#utility.yul\":5930:5939   */\n      dup4\n        /* \"#utility.yul\":5926:5943   */\n      add\n        /* \"#utility.yul\":5917:5923   */\n      dup5\n        /* \"#utility.yul\":5873:5944   */\n      tag_247\n      jump\t// in\n    tag_332:\n        /* \"#utility.yul\":5729:5951   */\n      swap3\n      swap2\n      pop\n      pop\n      jump\t// out\n        /* \"#utility.yul\":5957:6075   */\n    tag_248:\n        /* \"#utility.yul\":6044:6068   */\n      tag_334\n        /* \"#utility.yul\":6062:6067   */\n      dup2\n        /* \"#utility.yul\":6044:6068   */\n      tag_234\n      jump\t// in\n    tag_334:\n        /* \"#utility.yul\":6039:6042   */\n      dup3\n        /* \"#utility.yul\":6032:6069   */\n      mstore\n        /* \"#utility.yul\":5957:6075   */\n      pop\n      pop\n      jump\t// out\n        /* \"#utility.yul\":6081:6303   */\n    tag_43:\n        /* \"#utility.yul\":6174:6178   */\n      0x00\n        /* \"#utility.yul\":6212:6214   */\n      0x20\n        /* \"#utility.yul\":6201:6210   */\n      dup3\n        /* \"#utility.yul\":6197:6215   */\n      add\n        /* \"#utility.yul\":6189:6215   */\n      swap1\n      pop\n        /* \"#utility.yul\":6225:6296   */\n      tag_336\n        /* \"#utility.yul\":6293:6294   */\n      0x00\n        /* \"#utility.yul\":6282:6291   */\n      dup4\n        /* \"#utility.yul\":6278:6295   */\n      add\n        /* \"#utility.yul\":6269:6275   */\n      dup5\n        /* \"#utility.yul\":6225:6296   */\n      tag_248\n      jump\t// in\n    tag_336:\n        /* \"#utility.yul\":6081:6303   */\n      swap3\n      swap2\n      pop\n      pop\n      jump\t// out\n        /* \"#utility.yul\":6309:6427   */\n    tag_249:\n        /* \"#utility.yul\":6396:6420   */\n      tag_338\n        /* \"#utility.yul\":6414:6419   */\n      dup2\n        /* \"#utility.yul\":6396:6420   */\n      tag_225\n      jump\t// in\n    tag_338:\n        /* \"#utility.yul\":6391:6394   */\n      dup3\n        /* \"#utility.yul\":6384:6421   */\n      mstore\n        /* \"#utility.yul\":6309:6427   */\n      pop\n      pop\n      jump\t// out\n        /* \"#utility.yul\":6433:6655   */\n    tag_52:\n        /* \"#utility.yul\":6526:6530   */\n      0x00\n        /* \"#utility.yul\":6564:6566   */\n      0x20\n        /* \"#utility.yul\":6553:6562   */\n      dup3\n        /* \"#utility.yul\":6549:6567   */\n      add\n        /* \"#utility.yul\":6541:6567   */\n      swap1\n      pop\n        /* \"#utility.yul\":6577:6648   */\n      tag_340\n        /* \"#utility.yul\":6645:6646   */\n      0x00\n        /* \"#utility.yul\":6634:6643   */\n      dup4\n        /* \"#utility.yul\":6630:6647   */\n      add\n        /* \"#utility.yul\":6621:6627   */\n      dup5\n        /* \"#utility.yul\":6577:6648   */\n      tag_249\n      jump\t// in\n    tag_340:\n        /* \"#utility.yul\":6433:6655   */\n      swap3\n      swap2\n      pop\n      pop\n      jump\t// out\n        /* \"#utility.yul\":6661:6760   */\n    tag_250:\n        /* \"#utility.yul\":6713:6719   */\n      0x00\n        /* \"#utility.yul\":6747:6752   */\n      dup2\n        /* \"#utility.yul\":6741:6753   */\n      mload\n        /* \"#utility.yul\":6731:6753   */\n      swap1\n      pop\n        /* \"#utility.yul\":6661:6760   */\n      swap2\n      swap1\n      pop\n      jump\t// out\n        /* \"#utility.yul\":6766:6935   */\n    tag_251:\n        /* \"#utility.yul\":6850:6861   */\n      0x00\n        /* \"#utility.yul\":6884:6890   */\n      dup3\n        /* \"#utility.yul\":6879:6882   */\n      dup3\n        /* \"#utility.yul\":6872:6891   */\n      mstore\n        /* \"#utility.yul\":6924:6928   */\n      0x20\n        /* \"#utility.yul\":6919:6922   */\n      dup3\n        /* \"#utility.yul\":6915:6929   */\n      add\n        /* \"#utility.yul\":6900:6929   */\n      swap1\n      pop\n        /* \"#utility.yul\":6766:6935   */\n      swap3\n      swap2\n      pop\n      pop\n      jump\t// out\n        /* \"#utility.yul\":6941:7318   */\n    tag_252:\n        /* \"#utility.yul\":7029:7032   */\n      0x00\n        /* \"#utility.yul\":7057:7096   */\n      tag_344\n        /* \"#utility.yul\":7090:7095   */\n      dup3\n        /* \"#utility.yul\":7057:7096   */\n      tag_250\n      jump\t// in\n    tag_344:\n        /* \"#utility.yul\":7112:7183   */\n      tag_345\n        /* \"#utility.yul\":7176:7182   */\n      dup2\n        /* \"#utility.yul\":7171:7174   */\n      dup6\n        /* \"#utility.yul\":7112:7183   */\n      tag_251\n      jump\t// in\n    tag_345:\n        /* \"#utility.yul\":7105:7183   */\n      swap4\n      pop\n        /* \"#utility.yul\":7192:7257   */\n      tag_346\n        /* \"#utility.yul\":7250:7256   */\n      dup2\n        /* \"#utility.yul\":7245:7248   */\n      dup6\n        /* \"#utility.yul\":7238:7242   */\n      0x20\n        /* \"#utility.yul\":7231:7236   */\n      dup7\n        /* \"#utility.yul\":7227:7243   */\n      add\n        /* \"#utility.yul\":7192:7257   */\n      tag_230\n      jump\t// in\n    tag_346:\n        /* \"#utility.yul\":7282:7311   */\n      tag_347\n        /* \"#utility.yul\":7304:7310   */\n      dup2\n        /* \"#utility.yul\":7282:7311   */\n      tag_231\n      jump\t// in\n    tag_347:\n        /* \"#utility.yul\":7277:7280   */\n      dup5\n        /* \"#utility.yul\":7273:7312   */\n      add\n        /* \"#utility.yul\":7266:7312   */\n      swap2\n      pop\n        /* \"#utility.yul\":7033:7318   */\n      pop\n        /* \"#utility.yul\":6941:7318   */\n      swap3\n      swap2\n      pop\n      pop\n      jump\t// out\n        /* \"#utility.yul\":7324:7637   */\n    tag_61:\n        /* \"#utility.yul\":7437:7441   */\n      0x00\n        /* \"#utility.yul\":7475:7477   */\n      0x20\n        /* \"#utility.yul\":7464:7473   */\n      dup3\n        /* \"#utility.yul\":7460:7478   */\n      add\n        /* \"#utility.yul\":7452:7478   */\n      swap1\n      pop\n        /* \"#utility.yul\":7524:7533   */\n      dup2\n        /* \"#utility.yul\":7518:7522   */\n      dup2\n        /* \"#utility.yul\":7514:7534   */\n      sub\n        /* \"#utility.yul\":7510:7511   */\n      0x00\n        /* \"#utility.yul\":7499:7508   */\n      dup4\n        /* \"#utility.yul\":7495:7512   */\n      add\n        /* \"#utility.yul\":7488:7535   */\n      mstore\n        /* \"#utility.yul\":7552:7630   */\n      tag_349\n        /* \"#utility.yul\":7625:7629   */\n      dup2\n        /* \"#utility.yul\":7616:7622   */\n      dup5\n        /* \"#utility.yul\":7552:7630   */\n      tag_252\n      jump\t// in\n    tag_349:\n        /* \"#utility.yul\":7544:7630   */\n      swap1\n      pop\n        /* \"#utility.yul\":7324:7637   */\n      swap3\n      swap2\n      pop\n      pop\n      jump\t// out\n        /* \"#utility.yul\":7643:7972   */\n    tag_73:\n        /* \"#utility.yul\":7702:7708   */\n      0x00\n        /* \"#utility.yul\":7751:7753   */\n      0x20\n        /* \"#utility.yul\":7739:7748   */\n      dup3\n        /* \"#utility.yul\":7730:7737   */\n      dup5\n        /* \"#utility.yul\":7726:7749   */\n      sub\n        /* \"#utility.yul\":7722:7754   */\n      slt\n        /* \"#utility.yul\":7719:7838   */\n      iszero\n      tag_351\n      jumpi\n        /* \"#utility.yul\":7757:7836   */\n      tag_352\n      tag_223\n      jump\t// in\n    tag_352:\n        /* \"#utility.yul\":7719:7838   */\n    tag_351:\n        /* \"#utility.yul\":7877:7878   */\n      0x00\n        /* \"#utility.yul\":7902:7955   */\n      tag_353\n        /* \"#utility.yul\":7947:7954   */\n      dup5\n        /* \"#utility.yul\":7938:7944   */\n      dup3\n        /* \"#utility.yul\":7927:7936   */\n      dup6\n        /* \"#utility.yul\":7923:7945   */\n      add\n        /* \"#utility.yul\":7902:7955   */\n      tag_236\n      jump\t// in\n    tag_353:\n        /* \"#utility.yul\":7892:7955   */\n      swap2\n      pop\n        /* \"#utility.yul\":7848:7965   */\n      pop\n        /* \"#utility.yul\":7643:7972   */\n      swap3\n      swap2\n      pop\n      pop\n      jump\t// out\n        /* \"#utility.yul\":7978:8158   */\n    tag_253:\n        /* \"#utility.yul\":8026:8103   */\n      0x4e487b7100000000000000000000000000000000000000000000000000000000\n        /* \"#utility.yul\":8023:8024   */\n      0x00\n        /* \"#utility.yul\":8016:8104   */\n      mstore\n        /* \"#utility.yul\":8123:8127   */\n      0x11\n        /* \"#utility.yul\":8120:8121   */\n      0x04\n        /* \"#utility.yul\":8113:8128   */\n      mstore\n        /* \"#utility.yul\":8147:8151   */\n      0x24\n        /* \"#utility.yul\":8144:8145   */\n      0x00\n        /* \"#utility.yul\":8137:8152   */\n      revert\n        /* \"#utility.yul\":8164:8355   */\n    tag_108:\n        /* \"#utility.yul\":8204:8207   */\n      0x00\n        /* \"#utility.yul\":8223:8243   */\n      tag_356\n        /* \"#utility.yul\":8241:8242   */\n      dup3\n        /* \"#utility.yul\":8223:8243   */\n      tag_225\n      jump\t// in\n    tag_356:\n        /* \"#utility.yul\":8218:8243   */\n      swap2\n      pop\n        /* \"#utility.yul\":8257:8277   */\n      tag_357\n        /* \"#utility.yul\":8275:8276   */\n      dup4\n        /* \"#utility.yul\":8257:8277   */\n      tag_225\n      jump\t// in\n    tag_357:\n        /* \"#utility.yul\":8252:8277   */\n      swap3\n      pop\n        /* \"#utility.yul\":8300:8301   */\n      dup3\n        /* \"#utility.yul\":8297:8298   */\n      dup3\n        /* \"#utility.yul\":8293:8302   */\n      add\n        /* \"#utility.yul\":8286:8302   */\n      swap1\n      pop\n        /* \"#utility.yul\":8321:8324   */\n      dup1\n        /* \"#utility.yul\":8318:8319   */\n      dup3\n        /* \"#utility.yul\":8315:8325   */\n      gt\n        /* \"#utility.yul\":8312:8348   */\n      iszero\n      tag_358\n      jumpi\n        /* \"#utility.yul\":8328:8346   */\n      tag_359\n      tag_253\n      jump\t// in\n    tag_359:\n        /* \"#utility.yul\":8312:8348   */\n    tag_358:\n        /* \"#utility.yul\":8164:8355   */\n      swap3\n      swap2\n      pop\n      pop\n      jump\t// out\n        /* \"#utility.yul\":8361:8446   */\n    tag_254:\n        /* \"#utility.yul\":8406:8413   */\n      0x00\n        /* \"#utility.yul\":8435:8440   */\n      dup2\n        /* \"#utility.yul\":8424:8440   */\n      swap1\n      pop\n        /* \"#utility.yul\":8361:8446   */\n      swap2\n      swap1\n      pop\n      jump\t// out\n        /* \"#utility.yul\":8452:8553   */\n    tag_255:\n        /* \"#utility.yul\":8488:8495   */\n      0x00\n        /* \"#utility.yul\":8528:8546   */\n      0xffffffffffffffff\n        /* \"#utility.yul\":8521:8526   */\n      dup3\n        /* \"#utility.yul\":8517:8547   */\n      and\n        /* \"#utility.yul\":8506:8547   */\n      swap1\n      pop\n        /* \"#utility.yul\":8452:8553   */\n      swap2\n      swap1\n      pop\n      jump\t// out\n        /* \"#utility.yul\":8559:8619   */\n    tag_256:\n        /* \"#utility.yul\":8587:8590   */\n      0x00\n        /* \"#utility.yul\":8608:8613   */\n      dup2\n        /* \"#utility.yul\":8601:8613   */\n      swap1\n      pop\n        /* \"#utility.yul\":8559:8619   */\n      swap2\n      swap1\n      pop\n      jump\t// out\n        /* \"#utility.yul\":8625:8781   */\n    tag_257:\n        /* \"#utility.yul\":8682:8691   */\n      0x00\n        /* \"#utility.yul\":8715:8775   */\n      tag_364\n        /* \"#utility.yul\":8732:8774   */\n      tag_365\n        /* \"#utility.yul\":8741:8773   */\n      tag_366\n        /* \"#utility.yul\":8767:8772   */\n      dup5\n        /* \"#utility.yul\":8741:8773   */\n      tag_254\n      jump\t// in\n    tag_366:\n        /* \"#utility.yul\":8732:8774   */\n      tag_256\n      jump\t// in\n    tag_365:\n        /* \"#utility.yul\":8715:8775   */\n      tag_255\n      jump\t// in\n    tag_364:\n        /* \"#utility.yul\":8702:8775   */\n      swap1\n      pop\n        /* \"#utility.yul\":8625:8781   */\n      swap2\n      swap1\n      pop\n      jump\t// out\n        /* \"#utility.yul\":8787:8932   */\n    tag_258:\n        /* \"#utility.yul\":8881:8925   */\n      tag_368\n        /* \"#utility.yul\":8919:8924   */\n      dup2\n        /* \"#utility.yul\":8881:8925   */\n      tag_257\n      jump\t// in\n    tag_368:\n        /* \"#utility.yul\":8876:8879   */\n      dup3\n        /* \"#utility.yul\":8869:8926   */\n      mstore\n        /* \"#utility.yul\":8787:8932   */\n      pop\n      pop\n      jump\t// out\n        /* \"#utility.yul\":8938:9174   */\n    tag_129:\n        /* \"#utility.yul\":9038:9042   */\n      0x00\n        /* \"#utility.yul\":9076:9078   */\n      0x20\n        /* \"#utility.yul\":9065:9074   */\n      dup3\n        /* \"#utility.yul\":9061:9079   */\n      add\n        /* \"#utility.yul\":9053:9079   */\n      swap1\n      pop\n        /* \"#utility.yul\":9089:9167   */\n      tag_370\n        /* \"#utility.yul\":9164:9165   */\n      0x00\n        /* \"#utility.yul\":9153:9162   */\n      dup4\n        /* \"#utility.yul\":9149:9166   */\n      add\n        /* \"#utility.yul\":9140:9146   */\n      dup5\n        /* \"#utility.yul\":9089:9167   */\n      tag_258\n      jump\t// in\n    tag_370:\n        /* \"#utility.yul\":8938:9174   */\n      swap3\n      swap2\n      pop\n      pop\n      jump\t// out\n        /* \"#utility.yul\":9180:9302   */\n    tag_259:\n        /* \"#utility.yul\":9253:9277   */\n      tag_372\n        /* \"#utility.yul\":9271:9276   */\n      dup2\n        /* \"#utility.yul\":9253:9277   */\n      tag_246\n      jump\t// in\n    tag_372:\n        /* \"#utility.yul\":9246:9251   */\n      dup2\n        /* \"#utility.yul\":9243:9278   */\n      eq\n        /* \"#utility.yul\":9233:9296   */\n      tag_373\n      jumpi\n        /* \"#utility.yul\":9292:9293   */\n      0x00\n        /* \"#utility.yul\":9289:9290   */\n      dup1\n        /* \"#utility.yul\":9282:9294   */\n      revert\n        /* \"#utility.yul\":9233:9296   */\n    tag_373:\n        /* \"#utility.yul\":9180:9302   */\n      pop\n      jump\t// out\n        /* \"#utility.yul\":9308:9451   */\n    tag_260:\n        /* \"#utility.yul\":9365:9370   */\n      0x00\n        /* \"#utility.yul\":9396:9402   */\n      dup2\n        /* \"#utility.yul\":9390:9403   */\n      mload\n        /* \"#utility.yul\":9381:9403   */\n      swap1\n      pop\n        /* \"#utility.yul\":9412:9445   */\n      tag_375\n        /* \"#utility.yul\":9439:9444   */\n      dup2\n        /* \"#utility.yul\":9412:9445   */\n      tag_259\n      jump\t// in\n    tag_375:\n        /* \"#utility.yul\":9308:9451   */\n      swap3\n      swap2\n      pop\n      pop\n      jump\t// out\n        /* \"#utility.yul\":9457:9808   */\n    tag_141:\n        /* \"#utility.yul\":9527:9533   */\n      0x00\n        /* \"#utility.yul\":9576:9578   */\n      0x20\n        /* \"#utility.yul\":9564:9573   */\n      dup3\n        /* \"#utility.yul\":9555:9562   */\n      dup5\n        /* \"#utility.yul\":9551:9574   */\n      sub\n        /* \"#utility.yul\":9547:9579   */\n      slt\n        /* \"#utility.yul\":9544:9663   */\n      iszero\n      tag_377\n      jumpi\n        /* \"#utility.yul\":9582:9661   */\n      tag_378\n      tag_223\n      jump\t// in\n    tag_378:\n        /* \"#utility.yul\":9544:9663   */\n    tag_377:\n        /* \"#utility.yul\":9702:9703   */\n      0x00\n        /* \"#utility.yul\":9727:9791   */\n      tag_379\n        /* \"#utility.yul\":9783:9790   */\n      dup5\n        /* \"#utility.yul\":9774:9780   */\n      dup3\n        /* \"#utility.yul\":9763:9772   */\n      dup6\n        /* \"#utility.yul\":9759:9781   */\n      add\n        /* \"#utility.yul\":9727:9791   */\n      tag_260\n      jump\t// in\n    tag_379:\n        /* \"#utility.yul\":9717:9791   */\n      swap2\n      pop\n        /* \"#utility.yul\":9673:9801   */\n      pop\n        /* \"#utility.yul\":9457:9808   */\n      swap3\n      swap2\n      pop\n      pop\n      jump\t// out\n        /* \"#utility.yul\":9814:9961   */\n    tag_261:\n        /* \"#utility.yul\":9915:9926   */\n      0x00\n        /* \"#utility.yul\":9952:9955   */\n      dup2\n        /* \"#utility.yul\":9937:9955   */\n      swap1\n      pop\n        /* \"#utility.yul\":9814:9961   */\n      swap3\n      swap2\n      pop\n      pop\n      jump\t// out\n        /* \"#utility.yul\":9967:10353   */\n    tag_262:\n        /* \"#utility.yul\":10071:10074   */\n      0x00\n        /* \"#utility.yul\":10099:10137   */\n      tag_382\n        /* \"#utility.yul\":10131:10136   */\n      dup3\n        /* \"#utility.yul\":10099:10137   */\n      tag_228\n      jump\t// in\n    tag_382:\n        /* \"#utility.yul\":10153:10241   */\n      tag_383\n        /* \"#utility.yul\":10234:10240   */\n      dup2\n        /* \"#utility.yul\":10229:10232   */\n      dup6\n        /* \"#utility.yul\":10153:10241   */\n      tag_261\n      jump\t// in\n    tag_383:\n        /* \"#utility.yul\":10146:10241   */\n      swap4\n      pop\n        /* \"#utility.yul\":10250:10315   */\n      tag_384\n        /* \"#utility.yul\":10308:10314   */\n      dup2\n        /* \"#utility.yul\":10303:10306   */\n      dup6\n        /* \"#utility.yul\":10296:10300   */\n      0x20\n        /* \"#utility.yul\":10289:10294   */\n      dup7\n        /* \"#utility.yul\":10285:10301   */\n      add\n        /* \"#utility.yul\":10250:10315   */\n      tag_230\n      jump\t// in\n    tag_384:\n        /* \"#utility.yul\":10340:10346   */\n      dup1\n        /* \"#utility.yul\":10335:10338   */\n      dup5\n        /* \"#utility.yul\":10331:10347   */\n      add\n        /* \"#utility.yul\":10324:10347   */\n      swap2\n      pop\n        /* \"#utility.yul\":10075:10353   */\n      pop\n        /* \"#utility.yul\":9967:10353   */\n      swap3\n      swap2\n      pop\n      pop\n      jump\t// out\n        /* \"#utility.yul\":10359:10630   */\n    tag_201:\n        /* \"#utility.yul\":10489:10492   */\n      0x00\n        /* \"#utility.yul\":10511:10604   */\n      tag_386\n        /* \"#utility.yul\":10600:10603   */\n      dup3\n        /* \"#utility.yul\":10591:10597   */\n      dup5\n        /* \"#utility.yul\":10511:10604   */\n      tag_262\n      jump\t// in\n    tag_386:\n        /* \"#utility.yul\":10504:10604   */\n      swap2\n      pop\n        /* \"#utility.yul\":10621:10624   */\n      dup2\n        /* \"#utility.yul\":10614:10624   */\n      swap1\n      pop\n        /* \"#utility.yul\":10359:10630   */\n      swap3\n      swap2\n      pop\n      pop\n      jump\t// out\n\n    auxdata: 0xa264697066735822122018e9a79dff7c545fa9e60efadd28c810e760b1bd688b8c0d4926540b710372e164736f6c634300081a0033\n}\n",
				"bytecode": {
					"linkReferences": {},
					"object": "60a06040523073ffffffffffffffffffffffffffffffffffffffff1660809073ffffffffffffffffffffffffffffffffffffffff168152503480156041575f80fd5b5060805161147d6100685f395f818161067c015281816106d1015261088b015261147d5ff3fe6080604052600436106100c5575f3560e01c8063a87d942c1161007e578063b7c738f411610058578063b7c738f41461023a578063c39911cf14610264578063f2fde38b1461028e578063fe4b84df146102b6576100cc565b8063a87d942c146101bc578063ab470f05146101e6578063ad3cb1cc14610210576100cc565b80631d54036f146100d05780634f1ef2861461010c57806352d1902d14610128578063715018a614610152578063893d20e8146101685780638da5cb5b14610192576100cc565b366100cc57005b5f80fd5b3480156100db575f80fd5b506100f660048036038101906100f19190610f1b565b6102de565b6040516101039190610fb6565b60405180910390f35b6101266004803603810190610121919061115c565b61035d565b005b348015610133575f80fd5b5061013c61037c565b60405161014991906111ce565b60405180910390f35b34801561015d575f80fd5b506101666103ad565b005b348015610173575f80fd5b5061017c6103c0565b60405161018991906111f6565b60405180910390f35b34801561019d575f80fd5b506101a66103ce565b6040516101b391906111f6565b60405180910390f35b3480156101c7575f80fd5b506101d0610403565b6040516101dd919061121e565b60405180910390f35b3480156101f1575f80fd5b506101fa61040b565b60405161020791906111f6565b60405180910390f35b34801561021b575f80fd5b50610224610412565b6040516102319190611289565b60405180910390f35b348015610245575f80fd5b5061024e61044b565b60405161025b919061121e565b60405180910390f35b34801561026f575f80fd5b50610278610468565b60405161028591906111f6565b60405180910390f35b348015610299575f80fd5b506102b460048036038101906102af91906112a9565b61046f565b005b3480156102c1575f80fd5b506102dc60048036038101906102d79190610f1b565b6104f3565b005b606063fe4b84df60e01b826040516024016102f9919061121e565b604051602081830303815290604052907bffffffffffffffffffffffffffffffffffffffffffffffffffffffff19166020820180517bffffffffffffffffffffffffffffffffffffffffffffffffffffffff83818316178352505050509050919050565b61036561067a565b61036e82610760565b610378828261076b565b5050565b5f610385610889565b7f360894a13ba1a3210667c828492db98dca3e2076cc3735a920a3ca505d382bbc5f1b905090565b6103b5610910565b6103be5f610997565b565b5f6103c96103ce565b905090565b5f806103d8610a68565b9050805f015f9054906101000a900473ffffffffffffffffffffffffffffffffffffffff1691505090565b5f8054905090565b5f33905090565b6040518060400160405280600581526020017f352e302e3000000000000000000000000000000000000000000000000000000081525081565b5f60015f8082825461045d9190611301565b925050819055905090565b5f30905090565b610477610910565b5f73ffffffffffffffffffffffffffffffffffffffff168173ffffffffffffffffffffffffffffffffffffffff16036104e7575f6040517f1e4fbdf70000000000000000000000000000000000000000000000000000000081526004016104de91906111f6565b60405180910390fd5b6104f081610997565b50565b5f6104fc610a8f565b90505f815f0160089054906101000a900460ff161590505f825f015f9054906101000a900467ffffffffffffffff1690505f808267ffffffffffffffff161480156105445750825b90505f60018367ffffffffffffffff1614801561057757505f3073ffffffffffffffffffffffffffffffffffffffff163b145b905081158015610585575080155b156105bc576040517ff92ee8a900000000000000000000000000000000000000000000000000000000815260040160405180910390fd5b6001855f015f6101000a81548167ffffffffffffffff021916908367ffffffffffffffff1602179055508315610609576001855f0160086101000a81548160ff0219169083151502179055505b855f8190555061061833610ab6565b8315610672575f855f0160086101000a81548160ff0219169083151502179055507fc7f505b2f371ae2175ee4913f4499e1f2633a7b5936321eed1cdaeb6115181d260016040516106699190611389565b60405180910390a15b505050505050565b7f000000000000000000000000000000000000000000000000000000000000000073ffffffffffffffffffffffffffffffffffffffff163073ffffffffffffffffffffffffffffffffffffffff16148061072757507f000000000000000000000000000000000000000000000000000000000000000073ffffffffffffffffffffffffffffffffffffffff1661070e610aca565b73ffffffffffffffffffffffffffffffffffffffff1614155b1561075e576040517fe07c8dba00000000000000000000000000000000000000000000000000000000815260040160405180910390fd5b565b610768610910565b50565b8173ffffffffffffffffffffffffffffffffffffffff166352d1902d6040518163ffffffff1660e01b8152600401602060405180830381865afa9250505080156107d357506040513d601f19601f820116820180604052508101906107d091906113cc565b60015b61081457816040517f4c9c8ce300000000000000000000000000000000000000000000000000000000815260040161080b91906111f6565b60405180910390fd5b7f360894a13ba1a3210667c828492db98dca3e2076cc3735a920a3ca505d382bbc5f1b811461087a57806040517faa1d49a400000000000000000000000000000000000000000000000000000000815260040161087191906111ce565b60405180910390fd5b6108848383610b1d565b505050565b7f000000000000000000000000000000000000000000000000000000000000000073ffffffffffffffffffffffffffffffffffffffff163073ffffffffffffffffffffffffffffffffffffffff161461090e576040517fe07c8dba00000000000000000000000000000000000000000000000000000000815260040160405180910390fd5b565b610918610b8f565b73ffffffffffffffffffffffffffffffffffffffff166109366103ce565b73ffffffffffffffffffffffffffffffffffffffff161461099557610959610b8f565b6040517f118cdaa700000000000000000000000000000000000000000000000000000000815260040161098c91906111f6565b60405180910390fd5b565b5f6109a0610a68565b90505f815f015f9054906101000a900473ffffffffffffffffffffffffffffffffffffffff16905082825f015f6101000a81548173ffffffffffffffffffffffffffffffffffffffff021916908373ffffffffffffffffffffffffffffffffffffffff1602179055508273ffffffffffffffffffffffffffffffffffffffff168173ffffffffffffffffffffffffffffffffffffffff167f8be0079c531659141344cd1fd0a4f28419497f9722a3daafe3b4186f6b6457e060405160405180910390a3505050565b5f7f9016d09d72d40fdae2fd8ceac6b6234c7706214fd39c1cd1e609a0528c199300905090565b5f7ff0c57e16840df040f15088dc2f81fe391c3923bec73e23a9662efc9c229c6a00905090565b610abe610b96565b610ac781610bd6565b50565b5f610af67f360894a13ba1a3210667c828492db98dca3e2076cc3735a920a3ca505d382bbc5f1b610c5a565b5f015f9054906101000a900473ffffffffffffffffffffffffffffffffffffffff16905090565b610b2682610c63565b8173ffffffffffffffffffffffffffffffffffffffff167fbc7cd75a20ee27fd9adebab32041f755214dbc6bffa90cc0225b39da2e5c2d3b60405160405180910390a25f81511115610b8257610b7c8282610d2c565b50610b8b565b610b8a610dac565b5b5050565b5f33905090565b610b9e610de8565b610bd4576040517fd7e6bcf800000000000000000000000000000000000000000000000000000000815260040160405180910390fd5b565b610bde610b96565b5f73ffffffffffffffffffffffffffffffffffffffff168173ffffffffffffffffffffffffffffffffffffffff1603610c4e575f6040517f1e4fbdf7000000000000000000000000000000000000000000000000000000008152600401610c4591906111f6565b60405180910390fd5b610c5781610997565b50565b5f819050919050565b5f8173ffffffffffffffffffffffffffffffffffffffff163b03610cbe57806040517f4c9c8ce3000000000000000000000000000000000000000000000000000000008152600401610cb591906111f6565b60405180910390fd5b80610cea7f360894a13ba1a3210667c828492db98dca3e2076cc3735a920a3ca505d382bbc5f1b610c5a565b5f015f6101000a81548173ffffffffffffffffffffffffffffffffffffffff021916908373ffffffffffffffffffffffffffffffffffffffff16021790555050565b60605f808473ffffffffffffffffffffffffffffffffffffffff1684604051610d559190611431565b5f60405180830381855af49150503d805f8114610d8d576040519150601f19603f3d011682016040523d82523d5f602084013e610d92565b606091505b5091509150610da2858383610e06565b9250505092915050565b5f341115610de6576040517fb398979f00000000000000000000000000000000000000000000000000000000815260040160405180910390fd5b565b5f610df1610a8f565b5f0160089054906101000a900460ff16905090565b606082610e1b57610e1682610e93565b610e8b565b5f8251148015610e4157505f8473ffffffffffffffffffffffffffffffffffffffff163b145b15610e8357836040517f9996b315000000000000000000000000000000000000000000000000000000008152600401610e7a91906111f6565b60405180910390fd5b819050610e8c565b5b9392505050565b5f81511115610ea55780518082602001fd5b6040517fd6bda27500000000000000000000000000000000000000000000000000000000815260040160405180910390fd5b5f604051905090565b5f80fd5b5f80fd5b5f819050919050565b610efa81610ee8565b8114610f04575f80fd5b50565b5f81359050610f1581610ef1565b92915050565b5f60208284031215610f3057610f2f610ee0565b5b5f610f3d84828501610f07565b91505092915050565b5f81519050919050565b5f82825260208201905092915050565b8281835e5f83830152505050565b5f601f19601f8301169050919050565b5f610f8882610f46565b610f928185610f50565b9350610fa2818560208601610f60565b610fab81610f6e565b840191505092915050565b5f6020820190508181035f830152610fce8184610f7e565b905092915050565b5f73ffffffffffffffffffffffffffffffffffffffff82169050919050565b5f610fff82610fd6565b9050919050565b61100f81610ff5565b8114611019575f80fd5b50565b5f8135905061102a81611006565b92915050565b5f80fd5b5f80fd5b7f4e487b71000000000000000000000000000000000000000000000000000000005f52604160045260245ffd5b61106e82610f6e565b810181811067ffffffffffffffff8211171561108d5761108c611038565b5b80604052505050565b5f61109f610ed7565b90506110ab8282611065565b919050565b5f67ffffffffffffffff8211156110ca576110c9611038565b5b6110d382610f6e565b9050602081019050919050565b828183375f83830152505050565b5f6111006110fb846110b0565b611096565b90508281526020810184848401111561111c5761111b611034565b5b6111278482856110e0565b509392505050565b5f82601f83011261114357611142611030565b5b81356111538482602086016110ee565b91505092915050565b5f806040838503121561117257611171610ee0565b5b5f61117f8582860161101c565b925050602083013567ffffffffffffffff8111156111a05761119f610ee4565b5b6111ac8582860161112f565b9150509250929050565b5f819050919050565b6111c8816111b6565b82525050565b5f6020820190506111e15f8301846111bf565b92915050565b6111f081610ff5565b82525050565b5f6020820190506112095f8301846111e7565b92915050565b61121881610ee8565b82525050565b5f6020820190506112315f83018461120f565b92915050565b5f81519050919050565b5f82825260208201905092915050565b5f61125b82611237565b6112658185611241565b9350611275818560208601610f60565b61127e81610f6e565b840191505092915050565b5f6020820190508181035f8301526112a18184611251565b905092915050565b5f602082840312156112be576112bd610ee0565b5b5f6112cb8482850161101c565b91505092915050565b7f4e487b71000000000000000000000000000000000000000000000000000000005f52601160045260245ffd5b5f61130b82610ee8565b915061131683610ee8565b925082820190508082111561132e5761132d6112d4565b5b92915050565b5f819050919050565b5f67ffffffffffffffff82169050919050565b5f819050919050565b5f61137361136e61136984611334565b611350565b61133d565b9050919050565b61138381611359565b82525050565b5f60208201905061139c5f83018461137a565b92915050565b6113ab816111b6565b81146113b5575f80fd5b50565b5f815190506113c6816113a2565b92915050565b5f602082840312156113e1576113e0610ee0565b5b5f6113ee848285016113b8565b91505092915050565b5f81905092915050565b5f61140b82610f46565b61141581856113f7565b9350611425818560208601610f60565b80840191505092915050565b5f61143c8284611401565b91508190509291505056fea264697066735822122018e9a79dff7c545fa9e60efadd28c810e760b1bd688b8c0d4926540b710372e164736f6c634300081a0033",
					"opcodes": "PUSH1 0xA0 PUSH1 0x40 MSTORE ADDRESS PUSH20 0xFFFFFFFFFFFFFFFFFFFFFFFFFFFFFFFFFFFFFFFF AND PUSH1 0x80 SWAP1 PUSH20 0xFFFFFFFFFFFFFFFFFFFFFFFFFFFFFFFFFFFFFFFF AND DUP2 MSTORE POP CALLVALUE DUP1 ISZERO PUSH1 0x41 JUMPI PUSH0 DUP1 REVERT JUMPDEST POP PUSH1 0x80 MLOAD PUSH2 0x147D PUSH2 0x68 PUSH0 CODECOPY PUSH0 DUP2 DUP2 PUSH2 0x67C ADD MSTORE DUP2 DUP2 PUSH2 0x6D1 ADD MSTORE PUSH2 0x88B ADD MSTORE PUSH2 0x147D PUSH0 RETURN INVALID PUSH1 0x80 PUSH1 0x40 MSTORE PUSH1 0x4 CALLDATASIZE LT PUSH2 0xC5 JUMPI PUSH0 CALLDATALOAD PUSH1 0xE0 SHR DUP1 PUSH4 0xA87D942C GT PUSH2 0x7E JUMPI DUP1 PUSH4 0xB7C738F4 GT PUSH2 0x58 JUMPI DUP1 PUSH4 0xB7C738F4 EQ PUSH2 0x23A JUMPI DUP1 PUSH4 0xC39911CF EQ PUSH2 0x264 JUMPI DUP1 PUSH4 0xF2FDE38B EQ PUSH2 0x28E JUMPI DUP1 PUSH4 0xFE4B84DF EQ PUSH2 0x2B6 JUMPI PUSH2 0xCC JUMP JUMPDEST DUP1 PUSH4 0xA87D942C EQ PUSH2 0x1BC JUMPI DUP1 PUSH4 0xAB470F05 EQ PUSH2 0x1E6 JUMPI DUP1 PUSH4 0xAD3CB1CC EQ PUSH2 0x210 JUMPI PUSH2 0xCC JUMP JUMPDEST DUP1 PUSH4 0x1D54036F EQ PUSH2 0xD0 JUMPI DUP1 PUSH4 0x4F1EF286 EQ PUSH2 0x10C JUMPI DUP1 PUSH4 0x52D1902D EQ PUSH2 0x128 JUMPI DUP1 PUSH4 0x715018A6 EQ PUSH2 0x152 JUMPI DUP1 PUSH4 0x893D20E8 EQ PUSH2 0x168 JUMPI DUP1 PUSH4 0x8DA5CB5B EQ PUSH2 0x192 JUMPI PUSH2 0xCC JUMP JUMPDEST CALLDATASIZE PUSH2 0xCC JUMPI STOP JUMPDEST PUSH0 DUP1 REVERT JUMPDEST CALLVALUE DUP1 ISZERO PUSH2 0xDB JUMPI PUSH0 DUP1 REVERT JUMPDEST POP PUSH2 0xF6 PUSH1 0x4 DUP1 CALLDATASIZE SUB DUP2 ADD SWAP1 PUSH2 0xF1 SWAP2 SWAP1 PUSH2 0xF1B JUMP JUMPDEST PUSH2 0x2DE JUMP JUMPDEST PUSH1 0x40 MLOAD PUSH2 0x103 SWAP2 SWAP1 PUSH2 0xFB6 JUMP JUMPDEST PUSH1 0x40 MLOAD DUP1 SWAP2 SUB SWAP1 RETURN JUMPDEST PUSH2 0x126 PUSH1 0x4 DUP1 CALLDATASIZE SUB DUP2 ADD SWAP1 PUSH2 0x121 SWAP2 SWAP1 PUSH2 0x115C JUMP JUMPDEST PUSH2 0x35D JUMP JUMPDEST STOP JUMPDEST CALLVALUE DUP1 ISZERO PUSH2 0x133 JUMPI PUSH0 DUP1 REVERT JUMPDEST POP PUSH2 0x13C PUSH2 0x37C JUMP JUMPDEST PUSH1 0x40 MLOAD PUSH2 0x149 SWAP2 SWAP1 PUSH2 0x11CE JUMP JUMPDEST PUSH1 0x40 MLOAD DUP1 SWAP2 SUB SWAP1 RETURN JUMPDEST CALLVALUE DUP1 ISZERO PUSH2 0x15D JUMPI PUSH0 DUP1 REVERT JUMPDEST POP PUSH2 0x166 PUSH2 0x3AD JUMP JUMPDEST STOP JUMPDEST CALLVALUE DUP1 ISZERO PUSH2 0x173 JUMPI PUSH0 DUP1 REVERT JUMPDEST POP PUSH2 0x17C PUSH2 0x3C0 JUMP JUMPDEST PUSH1 0x40 MLOAD PUSH2 0x189 SWAP2 SWAP1 PUSH2 0x11F6 JUMP JUMPDEST PUSH1 0x40 MLOAD DUP1 SWAP2 SUB SWAP1 RETURN JUMPDEST CALLVALUE DUP1 ISZERO PUSH2 0x19D JUMPI PUSH0 DUP1 REVERT JUMPDEST POP PUSH2 0x1A6 PUSH2 0x3CE JUMP JUMPDEST PUSH1 0x40 MLOAD PUSH2 0x1B3 SWAP2 SWAP1 PUSH2 0x11F6 JUMP JUMPDEST PUSH1 0x40 MLOAD DUP1 SWAP2 SUB SWAP1 RETURN JUMPDEST CALLVALUE DUP1 ISZERO PUSH2 0x1C7 JUMPI PUSH0 DUP1 REVERT JUMPDEST POP PUSH2 0x1D0 PUSH2 0x403 JUMP JUMPDEST PUSH1 0x40 MLOAD PUSH2 0x1DD SWAP2 SWAP1 PUSH2 0x121E JUMP JUMPDEST PUSH1 0x40 MLOAD DUP1 SWAP2 SUB SWAP1 RETURN JUMPDEST CALLVALUE DUP1 ISZERO PUSH2 0x1F1 JUMPI PUSH0 DUP1 REVERT JUMPDEST POP PUSH2 0x1FA PUSH2 0x40B JUMP JUMPDEST PUSH1 0x40 MLOAD PUSH2 0x207 SWAP2 SWAP1 PUSH2 0x11F6 JUMP JUMPDEST PUSH1 0x40 MLOAD DUP1 SWAP2 SUB SWAP1 RETURN JUMPDEST CALLVALUE DUP1 ISZERO PUSH2 0x21B JUMPI PUSH0 DUP1 REVERT JUMPDEST POP PUSH2 0x224 PUSH2 0x412 JUMP JUMPDEST PUSH1 0x40 MLOAD PUSH2 0x231 SWAP2 SWAP1 PUSH2 0x1289 JUMP JUMPDEST PUSH1 0x40 MLOAD DUP1 SWAP2 SUB SWAP1 RETURN JUMPDEST CALLVALUE DUP1 ISZERO PUSH2 0x245 JUMPI PUSH0 DUP1 REVERT JUMPDEST POP PUSH2 0x24E PUSH2 0x44B JUMP JUMPDEST PUSH1 0x40 MLOAD PUSH2 0x25B SWAP2 SWAP1 PUSH2 0x121E JUMP JUMPDEST PUSH1 0x40 MLOAD DUP1 SWAP2 SUB SWAP1 RETURN JUMPDEST CALLVALUE DUP1 ISZERO PUSH2 0x26F JUMPI PUSH0 DUP1 REVERT JUMPDEST POP PUSH2 0x278 PUSH2 0x468 JUMP JUMPDEST PUSH1 0x40 MLOAD PUSH2 0x285 SWAP2 SWAP1 PUSH2 0x11F6 JUMP JUMPDEST PUSH1 0x40 MLOAD DUP1 SWAP2 SUB SWAP1 RETURN JUMPDEST CALLVALUE DUP1 ISZERO PUSH2 0x299 JUMPI PUSH0 DUP1 REVERT JUMPDEST POP PUSH2 0x2B4 PUSH1 0x4 DUP1 CALLDATASIZE SUB DUP2 ADD SWAP1 PUSH2 0x2AF SWAP2 SWAP1 PUSH2 0x12A9 JUMP JUMPDEST PUSH2 0x46F JUMP JUMPDEST STOP JUMPDEST CALLVALUE DUP1 ISZERO PUSH2 0x2C1 JUMPI PUSH0 DUP1 REVERT JUMPDEST POP PUSH2 0x2DC PUSH1 0x4 DUP1 CALLDATASIZE SUB DUP2 ADD SWAP1 PUSH2 0x2D7 SWAP2 SWAP1 PUSH2 0xF1B JUMP JUMPDEST PUSH2 0x4F3 JUMP JUMPDEST STOP JUMPDEST PUSH1 0x60 PUSH4 0xFE4B84DF PUSH1 0xE0 SHL DUP3 PUSH1 0x40 MLOAD PUSH1 0x24 ADD PUSH2 0x2F9 SWAP2 SWAP1 PUSH2 0x121E JUMP JUMPDEST PUSH1 0x40 MLOAD PUSH1 0x20 DUP2 DUP4 SUB SUB DUP2 MSTORE SWAP1 PUSH1 0x40 MSTORE SWAP1 PUSH28 0xFFFFFFFFFFFFFFFFFFFFFFFFFFFFFFFFFFFFFFFFFFFFFFFFFFFFFFFF NOT AND PUSH1 0x20 DUP3 ADD DUP1 MLOAD PUSH28 0xFFFFFFFFFFFFFFFFFFFFFFFFFFFFFFFFFFFFFFFFFFFFFFFFFFFFFFFF DUP4 DUP2 DUP4 AND OR DUP4 MSTORE POP POP POP POP SWAP1 POP SWAP2 SWAP1 POP JUMP JUMPDEST PUSH2 0x365 PUSH2 0x67A JUMP JUMPDEST PUSH2 0x36E DUP3 PUSH2 0x760 JUMP JUMPDEST PUSH2 0x378 DUP3 DUP3 PUSH2 0x76B JUMP JUMPDEST POP POP JUMP JUMPDEST PUSH0 PUSH2 0x385 PUSH2 0x889 JUMP JUMPDEST PUSH32 0x360894A13BA1A3210667C828492DB98DCA3E2076CC3735A920A3CA505D382BBC PUSH0 SHL SWAP1 POP SWAP1 JUMP JUMPDEST PUSH2 0x3B5 PUSH2 0x910 JUMP JUMPDEST PUSH2 0x3BE PUSH0 PUSH2 0x997 JUMP JUMPDEST JUMP JUMPDEST PUSH0 PUSH2 0x3C9 PUSH2 0x3CE JUMP JUMPDEST SWAP1 POP SWAP1 JUMP JUMPDEST PUSH0 DUP1 PUSH2 0x3D8 PUSH2 0xA68 JUMP JUMPDEST SWAP1 POP DUP1 PUSH0 ADD PUSH0 SWAP1 SLOAD SWAP1 PUSH2 0x100 EXP SWAP1 DIV PUSH20 0xFFFFFFFFFFFFFFFFFFFFFFFFFFFFFFFFFFFFFFFF AND SWAP2 POP POP SWAP1 JUMP JUMPDEST PUSH0 DUP1 SLOAD SWAP1 POP SWAP1 JUMP JUMPDEST PUSH0 CALLER SWAP1 POP SWAP1 JUMP JUMPDEST PUSH1 0x40 MLOAD DUP1 PUSH1 0x40 ADD PUSH1 0x40 MSTORE DUP1 PUSH1 0x5 DUP2 MSTORE PUSH1 0x20 ADD PUSH32 0x352E302E30000000000000000000000000000000000000000000000000000000 DUP2 MSTORE POP DUP2 JUMP JUMPDEST PUSH0 PUSH1 0x1 PUSH0 DUP1 DUP3 DUP3 SLOAD PUSH2 0x45D SWAP2 SWAP1 PUSH2 0x1301 JUMP JUMPDEST SWAP3 POP POP DUP2 SWAP1 SSTORE SWAP1 POP SWAP1 JUMP JUMPDEST PUSH0 ADDRESS SWAP1 POP SWAP1 JUMP JUMPDEST PUSH2 0x477 PUSH2 0x910 JUMP JUMPDEST PUSH0 PUSH20 0xFFFFFFFFFFFFFFFFFFFFFFFFFFFFFFFFFFFFFFFF AND DUP2 PUSH20 0xFFFFFFFFFFFFFFFFFFFFFFFFFFFFFFFFFFFFFFFF AND SUB PUSH2 0x4E7 JUMPI PUSH0 PUSH1 0x40 MLOAD PUSH32 0x1E4FBDF700000000000000000000000000000000000000000000000000000000 DUP2 MSTORE PUSH1 0x4 ADD PUSH2 0x4DE SWAP2 SWAP1 PUSH2 0x11F6 JUMP JUMPDEST PUSH1 0x40 MLOAD DUP1 SWAP2 SUB SWAP1 REVERT JUMPDEST PUSH2 0x4F0 DUP2 PUSH2 0x997 JUMP JUMPDEST POP JUMP JUMPDEST PUSH0 PUSH2 0x4FC PUSH2 0xA8F JUMP JUMPDEST SWAP1 POP PUSH0 DUP2 PUSH0 ADD PUSH1 0x8 SWAP1 SLOAD SWAP1 PUSH2 0x100 EXP SWAP1 DIV PUSH1 0xFF AND ISZERO SWAP1 POP PUSH0 DUP3 PUSH0 ADD PUSH0 SWAP1 SLOAD SWAP1 PUSH2 0x100 EXP SWAP1 DIV PUSH8 0xFFFFFFFFFFFFFFFF AND SWAP1 POP PUSH0 DUP1 DUP3 PUSH8 0xFFFFFFFFFFFFFFFF AND EQ DUP1 ISZERO PUSH2 0x544 JUMPI POP DUP3 JUMPDEST SWAP1 POP PUSH0 PUSH1 0x1 DUP4 PUSH8 0xFFFFFFFFFFFFFFFF AND EQ DUP1 ISZERO PUSH2 0x577 JUMPI POP PUSH0 ADDRESS PUSH20 0xFFFFFFFFFFFFFFFFFFFFFFFFFFFFFFFFFFFFFFFF AND EXTCODESIZE EQ JUMPDEST SWAP1 POP DUP2 ISZERO DUP1 ISZERO PUSH2 0x585 JUMPI POP DUP1 ISZERO JUMPDEST ISZERO PUSH2 0x5BC JUMPI PUSH1 0x40 MLOAD PUSH32 0xF92EE8A900000000000000000000000000000000000000000000000000000000 DUP2 MSTORE PUSH1 0x4 ADD PUSH1 0x40 MLOAD DUP1 SWAP2 SUB SWAP1 REVERT JUMPDEST PUSH1 0x1 DUP6 PUSH0 ADD PUSH0 PUSH2 0x100 EXP DUP2 SLOAD DUP2 PUSH8 0xFFFFFFFFFFFFFFFF MUL NOT AND SWAP1 DUP4 PUSH8 0xFFFFFFFFFFFFFFFF AND MUL OR SWAP1 SSTORE POP DUP4 ISZERO PUSH2 0x609 JUMPI PUSH1 0x1 DUP6 PUSH0 ADD PUSH1 0x8 PUSH2 0x100 EXP DUP2 SLOAD DUP2 PUSH1 0xFF MUL NOT AND SWAP1 DUP4 ISZERO ISZERO MUL OR SWAP1 SSTORE POP JUMPDEST DUP6 PUSH0 DUP2 SWAP1 SSTORE POP PUSH2 0x618 CALLER PUSH2 0xAB6 JUMP JUMPDEST DUP4 ISZERO PUSH2 0x672 JUMPI PUSH0 DUP6 PUSH0 ADD PUSH1 0x8 PUSH2 0x100 EXP DUP2 SLOAD DUP2 PUSH1 0xFF MUL NOT AND SWAP1 DUP4 ISZERO ISZERO MUL OR SWAP1 SSTORE POP PUSH32 0xC7F505B2F371AE2175EE4913F4499E1F2633A7B5936321EED1CDAEB6115181D2 PUSH1 0x1 PUSH1 0x40 MLOAD PUSH2 0x669 SWAP2 SWAP1 PUSH2 0x1389 JUMP JUMPDEST PUSH1 0x40 MLOAD DUP1 SWAP2 SUB SWAP1 LOG1 JUMPDEST POP POP POP POP POP POP JUMP JUMPDEST PUSH32 0x0 PUSH20 0xFFFFFFFFFFFFFFFFFFFFFFFFFFFFFFFFFFFFFFFF AND ADDRESS PUSH20 0xFFFFFFFFFFFFFFFFFFFFFFFFFFFFFFFFFFFFFFFF AND EQ DUP1 PUSH2 0x727 JUMPI POP PUSH32 0x0 PUSH20 0xFFFFFFFFFFFFFFFFFFFFFFFFFFFFFFFFFFFFFFFF AND PUSH2 0x70E PUSH2 0xACA JUMP JUMPDEST PUSH20 0xFFFFFFFFFFFFFFFFFFFFFFFFFFFFFFFFFFFFFFFF AND EQ ISZERO JUMPDEST ISZERO PUSH2 0x75E JUMPI PUSH1 0x40 MLOAD PUSH32 0xE07C8DBA00000000000000000000000000000000000000000000000000000000 DUP2 MSTORE PUSH1 0x4 ADD PUSH1 0x40 MLOAD DUP1 SWAP2 SUB SWAP1 REVERT JUMPDEST JUMP JUMPDEST PUSH2 0x768 PUSH2 0x910 JUMP JUMPDEST POP JUMP JUMPDEST DUP2 PUSH20 0xFFFFFFFFFFFFFFFFFFFFFFFFFFFFFFFFFFFFFFFF AND PUSH4 0x52D1902D PUSH1 0x40 MLOAD DUP2 PUSH4 0xFFFFFFFF AND PUSH1 0xE0 SHL DUP2 MSTORE PUSH1 0x4 ADD PUSH1 0x20 PUSH1 0x40 MLOAD DUP1 DUP4 SUB DUP2 DUP7 GAS STATICCALL SWAP3 POP POP POP DUP1 ISZERO PUSH2 0x7D3 JUMPI POP PUSH1 0x40 MLOAD RETURNDATASIZE PUSH1 0x1F NOT PUSH1 0x1F DUP3 ADD AND DUP3 ADD DUP1 PUSH1 0x40 MSTORE POP DUP2 ADD SWAP1 PUSH2 0x7D0 SWAP2 SWAP1 PUSH2 0x13CC JUMP JUMPDEST PUSH1 0x1 JUMPDEST PUSH2 0x814 JUMPI DUP2 PUSH1 0x40 MLOAD PUSH32 0x4C9C8CE300000000000000000000000000000000000000000000000000000000 DUP2 MSTORE PUSH1 0x4 ADD PUSH2 0x80B SWAP2 SWAP1 PUSH2 0x11F6 JUMP JUMPDEST PUSH1 0x40 MLOAD DUP1 SWAP2 SUB SWAP1 REVERT JUMPDEST PUSH32 0x360894A13BA1A3210667C828492DB98DCA3E2076CC3735A920A3CA505D382BBC PUSH0 SHL DUP2 EQ PUSH2 0x87A JUMPI DUP1 PUSH1 0x40 MLOAD PUSH32 0xAA1D49A400000000000000000000000000000000000000000000000000000000 DUP2 MSTORE PUSH1 0x4 ADD PUSH2 0x871 SWAP2 SWAP1 PUSH2 0x11CE JUMP JUMPDEST PUSH1 0x40 MLOAD DUP1 SWAP2 SUB SWAP1 REVERT JUMPDEST PUSH2 0x884 DUP4 DUP4 PUSH2 0xB1D JUMP JUMPDEST POP POP POP JUMP JUMPDEST PUSH32 0x0 PUSH20 0xFFFFFFFFFFFFFFFFFFFFFFFFFFFFFFFFFFFFFFFF AND ADDRESS PUSH20 0xFFFFFFFFFFFFFFFFFFFFFFFFFFFFFFFFFFFFFFFF AND EQ PUSH2 0x90E JUMPI PUSH1 0x40 MLOAD PUSH32 0xE07C8DBA00000000000000000000000000000000000000000000000000000000 DUP2 MSTORE PUSH1 0x4 ADD PUSH1 0x40 MLOAD DUP1 SWAP2 SUB SWAP1 REVERT JUMPDEST JUMP JUMPDEST PUSH2 0x918 PUSH2 0xB8F JUMP JUMPDEST PUSH20 0xFFFFFFFFFFFFFFFFFFFFFFFFFFFFFFFFFFFFFFFF AND PUSH2 0x936 PUSH2 0x3CE JUMP JUMPDEST PUSH20 0xFFFFFFFFFFFFFFFFFFFFFFFFFFFFFFFFFFFFFFFF AND EQ PUSH2 0x995 JUMPI PUSH2 0x959 PUSH2 0xB8F JUMP JUMPDEST PUSH1 0x40 MLOAD PUSH32 0x118CDAA700000000000000000000000000000000000000000000000000000000 DUP2 MSTORE PUSH1 0x4 ADD PUSH2 0x98C SWAP2 SWAP1 PUSH2 0x11F6 JUMP JUMPDEST PUSH1 0x40 MLOAD DUP1 SWAP2 SUB SWAP1 REVERT JUMPDEST JUMP JUMPDEST PUSH0 PUSH2 0x9A0 PUSH2 0xA68 JUMP JUMPDEST SWAP1 POP PUSH0 DUP2 PUSH0 ADD PUSH0 SWAP1 SLOAD SWAP1 PUSH2 0x100 EXP SWAP1 DIV PUSH20 0xFFFFFFFFFFFFFFFFFFFFFFFFFFFFFFFFFFFFFFFF AND SWAP1 POP DUP3 DUP3 PUSH0 ADD PUSH0 PUSH2 0x100 EXP DUP2 SLOAD DUP2 PUSH20 0xFFFFFFFFFFFFFFFFFFFFFFFFFFFFFFFFFFFFFFFF MUL NOT AND SWAP1 DUP4 PUSH20 0xFFFFFFFFFFFFFFFFFFFFFFFFFFFFFFFFFFFFFFFF AND MUL OR SWAP1 SSTORE POP DUP3 PUSH20 0xFFFFFFFFFFFFFFFFFFFFFFFFFFFFFFFFFFFFFFFF AND DUP2 PUSH20 0xFFFFFFFFFFFFFFFFFFFFFFFFFFFFFFFFFFFFFFFF AND PUSH32 0x8BE0079C531659141344CD1FD0A4F28419497F9722A3DAAFE3B4186F6B6457E0 PUSH1 0x40 MLOAD PUSH1 0x40 MLOAD DUP1 SWAP2 SUB SWAP1 LOG3 POP POP POP JUMP JUMPDEST PUSH0 PUSH32 0x9016D09D72D40FDAE2FD8CEAC6B6234C7706214FD39C1CD1E609A0528C199300 SWAP1 POP SWAP1 JUMP JUMPDEST PUSH0 PUSH32 0xF0C57E16840DF040F15088DC2F81FE391C3923BEC73E23A9662EFC9C229C6A00 SWAP1 POP SWAP1 JUMP JUMPDEST PUSH2 0xABE PUSH2 0xB96 JUMP JUMPDEST PUSH2 0xAC7 DUP2 PUSH2 0xBD6 JUMP JUMPDEST POP JUMP JUMPDEST PUSH0 PUSH2 0xAF6 PUSH32 0x360894A13BA1A3210667C828492DB98DCA3E2076CC3735A920A3CA505D382BBC PUSH0 SHL PUSH2 0xC5A JUMP JUMPDEST PUSH0 ADD PUSH0 SWAP1 SLOAD SWAP1 PUSH2 0x100 EXP SWAP1 DIV PUSH20 0xFFFFFFFFFFFFFFFFFFFFFFFFFFFFFFFFFFFFFFFF AND SWAP1 POP SWAP1 JUMP JUMPDEST PUSH2 0xB26 DUP3 PUSH2 0xC63 JUMP JUMPDEST DUP2 PUSH20 0xFFFFFFFFFFFFFFFFFFFFFFFFFFFFFFFFFFFFFFFF AND PUSH32 0xBC7CD75A20EE27FD9ADEBAB32041F755214DBC6BFFA90CC0225B39DA2E5C2D3B PUSH1 0x40 MLOAD PUSH1 0x40 MLOAD DUP1 SWAP2 SUB SWAP1 LOG2 PUSH0 DUP2 MLOAD GT ISZERO PUSH2 0xB82 JUMPI PUSH2 0xB7C DUP3 DUP3 PUSH2 0xD2C JUMP JUMPDEST POP PUSH2 0xB8B JUMP JUMPDEST PUSH2 0xB8A PUSH2 0xDAC JUMP JUMPDEST JUMPDEST POP POP JUMP JUMPDEST PUSH0 CALLER SWAP1 POP SWAP1 JUMP JUMPDEST PUSH2 0xB9E PUSH2 0xDE8 JUMP JUMPDEST PUSH2 0xBD4 JUMPI PUSH1 0x40 MLOAD PUSH32 0xD7E6BCF800000000000000000000000000000000000000000000000000000000 DUP2 MSTORE PUSH1 0x4 ADD PUSH1 0x40 MLOAD DUP1 SWAP2 SUB SWAP1 REVERT JUMPDEST JUMP JUMPDEST PUSH2 0xBDE PUSH2 0xB96 JUMP JUMPDEST PUSH0 PUSH20 0xFFFFFFFFFFFFFFFFFFFFFFFFFFFFFFFFFFFFFFFF AND DUP2 PUSH20 0xFFFFFFFFFFFFFFFFFFFFFFFFFFFFFFFFFFFFFFFF AND SUB PUSH2 0xC4E JUMPI PUSH0 PUSH1 0x40 MLOAD PUSH32 0x1E4FBDF700000000000000000000000000000000000000000000000000000000 DUP2 MSTORE PUSH1 0x4 ADD PUSH2 0xC45 SWAP2 SWAP1 PUSH2 0x11F6 JUMP JUMPDEST PUSH1 0x40 MLOAD DUP1 SWAP2 SUB SWAP1 REVERT JUMPDEST PUSH2 0xC57 DUP2 PUSH2 0x997 JUMP JUMPDEST POP JUMP JUMPDEST PUSH0 DUP2 SWAP1 POP SWAP2 SWAP1 POP JUMP JUMPDEST PUSH0 DUP2 PUSH20 0xFFFFFFFFFFFFFFFFFFFFFFFFFFFFFFFFFFFFFFFF AND EXTCODESIZE SUB PUSH2 0xCBE JUMPI DUP1 PUSH1 0x40 MLOAD PUSH32 0x4C9C8CE300000000000000000000000000000000000000000000000000000000 DUP2 MSTORE PUSH1 0x4 ADD PUSH2 0xCB5 SWAP2 SWAP1 PUSH2 0x11F6 JUMP JUMPDEST PUSH1 0x40 MLOAD DUP1 SWAP2 SUB SWAP1 REVERT JUMPDEST DUP1 PUSH2 0xCEA PUSH32 0x360894A13BA1A3210667C828492DB98DCA3E2076CC3735A920A3CA505D382BBC PUSH0 SHL PUSH2 0xC5A JUMP JUMPDEST PUSH0 ADD PUSH0 PUSH2 0x100 EXP DUP2 SLOAD DUP2 PUSH20 0xFFFFFFFFFFFFFFFFFFFFFFFFFFFFFFFFFFFFFFFF MUL NOT AND SWAP1 DUP4 PUSH20 0xFFFFFFFFFFFFFFFFFFFFFFFFFFFFFFFFFFFFFFFF AND MUL OR SWAP1 SSTORE POP POP JUMP JUMPDEST PUSH1 0x60 PUSH0 DUP1 DUP5 PUSH20 0xFFFFFFFFFFFFFFFFFFFFFFFFFFFFFFFFFFFFFFFF AND DUP5 PUSH1 0x40 MLOAD PUSH2 0xD55 SWAP2 SWAP1 PUSH2 0x1431 JUMP JUMPDEST PUSH0 PUSH1 0x40 MLOAD DUP1 DUP4 SUB DUP2 DUP6 GAS DELEGATECALL SWAP2 POP POP RETURNDATASIZE DUP1 PUSH0 DUP2 EQ PUSH2 0xD8D JUMPI PUSH1 0x40 MLOAD SWAP2 POP PUSH1 0x1F NOT PUSH1 0x3F RETURNDATASIZE ADD AND DUP3 ADD PUSH1 0x40 MSTORE RETURNDATASIZE DUP3 MSTORE RETURNDATASIZE PUSH0 PUSH1 0x20 DUP5 ADD RETURNDATACOPY PUSH2 0xD92 JUMP JUMPDEST PUSH1 0x60 SWAP2 POP JUMPDEST POP SWAP2 POP SWAP2 POP PUSH2 0xDA2 DUP6 DUP4 DUP4 PUSH2 0xE06 JUMP JUMPDEST SWAP3 POP POP POP SWAP3 SWAP2 POP POP JUMP JUMPDEST PUSH0 CALLVALUE GT ISZERO PUSH2 0xDE6 JUMPI PUSH1 0x40 MLOAD PUSH32 0xB398979F00000000000000000000000000000000000000000000000000000000 DUP2 MSTORE PUSH1 0x4 ADD PUSH1 0x40 MLOAD DUP1 SWAP2 SUB SWAP1 REVERT JUMPDEST JUMP JUMPDEST PUSH0 PUSH2 0xDF1 PUSH2 0xA8F JUMP JUMPDEST PUSH0 ADD PUSH1 0x8 SWAP1 SLOAD SWAP1 PUSH2 0x100 EXP SWAP1 DIV PUSH1 0xFF AND SWAP1 POP SWAP1 JUMP JUMPDEST PUSH1 0x60 DUP3 PUSH2 0xE1B JUMPI PUSH2 0xE16 DUP3 PUSH2 0xE93 JUMP JUMPDEST PUSH2 0xE8B JUMP JUMPDEST PUSH0 DUP3 MLOAD EQ DUP1 ISZERO PUSH2 0xE41 JUMPI POP PUSH0 DUP5 PUSH20 0xFFFFFFFFFFFFFFFFFFFFFFFFFFFFFFFFFFFFFFFF AND EXTCODESIZE EQ JUMPDEST ISZERO PUSH2 0xE83 JUMPI DUP4 PUSH1 0x40 MLOAD PUSH32 0x9996B31500000000000000000000000000000000000000000000000000000000 DUP2 MSTORE PUSH1 0x4 ADD PUSH2 0xE7A SWAP2 SWAP1 PUSH2 0x11F6 JUMP JUMPDEST PUSH1 0x40 MLOAD DUP1 SWAP2 SUB SWAP1 REVERT JUMPDEST DUP2 SWAP1 POP PUSH2 0xE8C JUMP JUMPDEST JUMPDEST SWAP4 SWAP3 POP POP POP JUMP JUMPDEST PUSH0 DUP2 MLOAD GT ISZERO PUSH2 0xEA5 JUMPI DUP1 MLOAD DUP1 DUP3 PUSH1 0x20 ADD REVERT JUMPDEST PUSH1 0x40 MLOAD PUSH32 0xD6BDA27500000000000000000000000000000000000000000000000000000000 DUP2 MSTORE PUSH1 0x4 ADD PUSH1 0x40 MLOAD DUP1 SWAP2 SUB SWAP1 REVERT JUMPDEST PUSH0 PUSH1 0x40 MLOAD SWAP1 POP SWAP1 JUMP JUMPDEST PUSH0 DUP1 REVERT JUMPDEST PUSH0 DUP1 REVERT JUMPDEST PUSH0 DUP2 SWAP1 POP SWAP2 SWAP1 POP JUMP JUMPDEST PUSH2 0xEFA DUP2 PUSH2 0xEE8 JUMP JUMPDEST DUP2 EQ PUSH2 0xF04 JUMPI PUSH0 DUP1 REVERT JUMPDEST POP JUMP JUMPDEST PUSH0 DUP2 CALLDATALOAD SWAP1 POP PUSH2 0xF15 DUP2 PUSH2 0xEF1 JUMP JUMPDEST SWAP3 SWAP2 POP POP JUMP JUMPDEST PUSH0 PUSH1 0x20 DUP3 DUP5 SUB SLT ISZERO PUSH2 0xF30 JUMPI PUSH2 0xF2F PUSH2 0xEE0 JUMP JUMPDEST JUMPDEST PUSH0 PUSH2 0xF3D DUP5 DUP3 DUP6 ADD PUSH2 0xF07 JUMP JUMPDEST SWAP2 POP POP SWAP3 SWAP2 POP POP JUMP JUMPDEST PUSH0 DUP2 MLOAD SWAP1 POP SWAP2 SWAP1 POP JUMP JUMPDEST PUSH0 DUP3 DUP3 MSTORE PUSH1 0x20 DUP3 ADD SWAP1 POP SWAP3 SWAP2 POP POP JUMP JUMPDEST DUP3 DUP2 DUP4 MCOPY PUSH0 DUP4 DUP4 ADD MSTORE POP POP POP JUMP JUMPDEST PUSH0 PUSH1 0x1F NOT PUSH1 0x1F DUP4 ADD AND SWAP1 POP SWAP2 SWAP1 POP JUMP JUMPDEST PUSH0 PUSH2 0xF88 DUP3 PUSH2 0xF46 JUMP JUMPDEST PUSH2 0xF92 DUP2 DUP6 PUSH2 0xF50 JUMP JUMPDEST SWAP4 POP PUSH2 0xFA2 DUP2 DUP6 PUSH1 0x20 DUP7 ADD PUSH2 0xF60 JUMP JUMPDEST PUSH2 0xFAB DUP2 PUSH2 0xF6E JUMP JUMPDEST DUP5 ADD SWAP2 POP POP SWAP3 SWAP2 POP POP JUMP JUMPDEST PUSH0 PUSH1 0x20 DUP3 ADD SWAP1 POP DUP2 DUP2 SUB PUSH0 DUP4 ADD MSTORE PUSH2 0xFCE DUP2 DUP5 PUSH2 0xF7E JUMP JUMPDEST SWAP1 POP SWAP3 SWAP2 POP POP JUMP JUMPDEST PUSH0 PUSH20 0xFFFFFFFFFFFFFFFFFFFFFFFFFFFFFFFFFFFFFFFF DUP3 AND SWAP1 POP SWAP2 SWAP1 POP JUMP JUMPDEST PUSH0 PUSH2 0xFFF DUP3 PUSH2 0xFD6 JUMP JUMPDEST SWAP1 POP SWAP2 SWAP1 POP JUMP JUMPDEST PUSH2 0x100F DUP2 PUSH2 0xFF5 JUMP JUMPDEST DUP2 EQ PUSH2 0x1019 JUMPI PUSH0 DUP1 REVERT JUMPDEST POP JUMP JUMPDEST PUSH0 DUP2 CALLDATALOAD SWAP1 POP PUSH2 0x102A DUP2 PUSH2 0x1006 JUMP JUMPDEST SWAP3 SWAP2 POP POP JUMP JUMPDEST PUSH0 DUP1 REVERT JUMPDEST PUSH0 DUP1 REVERT JUMPDEST PUSH32 0x4E487B7100000000000000000000000000000000000000000000000000000000 PUSH0 MSTORE PUSH1 0x41 PUSH1 0x4 MSTORE PUSH1 0x24 PUSH0 REVERT JUMPDEST PUSH2 0x106E DUP3 PUSH2 0xF6E JUMP JUMPDEST DUP2 ADD DUP2 DUP2 LT PUSH8 0xFFFFFFFFFFFFFFFF DUP3 GT OR ISZERO PUSH2 0x108D JUMPI PUSH2 0x108C PUSH2 0x1038 JUMP JUMPDEST JUMPDEST DUP1 PUSH1 0x40 MSTORE POP POP POP JUMP JUMPDEST PUSH0 PUSH2 0x109F PUSH2 0xED7 JUMP JUMPDEST SWAP1 POP PUSH2 0x10AB DUP3 DUP3 PUSH2 0x1065 JUMP JUMPDEST SWAP2 SWAP1 POP JUMP JUMPDEST PUSH0 PUSH8 0xFFFFFFFFFFFFFFFF DUP3 GT ISZERO PUSH2 0x10CA JUMPI PUSH2 0x10C9 PUSH2 0x1038 JUMP JUMPDEST JUMPDEST PUSH2 0x10D3 DUP3 PUSH2 0xF6E JUMP JUMPDEST SWAP1 POP PUSH1 0x20 DUP2 ADD SWAP1 POP SWAP2 SWAP1 POP JUMP JUMPDEST DUP3 DUP2 DUP4 CALLDATACOPY PUSH0 DUP4 DUP4 ADD MSTORE POP POP POP JUMP JUMPDEST PUSH0 PUSH2 0x1100 PUSH2 0x10FB DUP5 PUSH2 0x10B0 JUMP JUMPDEST PUSH2 0x1096 JUMP JUMPDEST SWAP1 POP DUP3 DUP2 MSTORE PUSH1 0x20 DUP2 ADD DUP5 DUP5 DUP5 ADD GT ISZERO PUSH2 0x111C JUMPI PUSH2 0x111B PUSH2 0x1034 JUMP JUMPDEST JUMPDEST PUSH2 0x1127 DUP5 DUP3 DUP6 PUSH2 0x10E0 JUMP JUMPDEST POP SWAP4 SWAP3 POP POP POP JUMP JUMPDEST PUSH0 DUP3 PUSH1 0x1F DUP4 ADD SLT PUSH2 0x1143 JUMPI PUSH2 0x1142 PUSH2 0x1030 JUMP JUMPDEST JUMPDEST DUP2 CALLDATALOAD PUSH2 0x1153 DUP5 DUP3 PUSH1 0x20 DUP7 ADD PUSH2 0x10EE JUMP JUMPDEST SWAP2 POP POP SWAP3 SWAP2 POP POP JUMP JUMPDEST PUSH0 DUP1 PUSH1 0x40 DUP4 DUP6 SUB SLT ISZERO PUSH2 0x1172 JUMPI PUSH2 0x1171 PUSH2 0xEE0 JUMP JUMPDEST JUMPDEST PUSH0 PUSH2 0x117F DUP6 DUP3 DUP7 ADD PUSH2 0x101C JUMP JUMPDEST SWAP3 POP POP PUSH1 0x20 DUP4 ADD CALLDATALOAD PUSH8 0xFFFFFFFFFFFFFFFF DUP2 GT ISZERO PUSH2 0x11A0 JUMPI PUSH2 0x119F PUSH2 0xEE4 JUMP JUMPDEST JUMPDEST PUSH2 0x11AC DUP6 DUP3 DUP7 ADD PUSH2 0x112F JUMP JUMPDEST SWAP2 POP POP SWAP3 POP SWAP3 SWAP1 POP JUMP JUMPDEST PUSH0 DUP2 SWAP1 POP SWAP2 SWAP1 POP JUMP JUMPDEST PUSH2 0x11C8 DUP2 PUSH2 0x11B6 JUMP JUMPDEST DUP3 MSTORE POP POP JUMP JUMPDEST PUSH0 PUSH1 0x20 DUP3 ADD SWAP1 POP PUSH2 0x11E1 PUSH0 DUP4 ADD DUP5 PUSH2 0x11BF JUMP JUMPDEST SWAP3 SWAP2 POP POP JUMP JUMPDEST PUSH2 0x11F0 DUP2 PUSH2 0xFF5 JUMP JUMPDEST DUP3 MSTORE POP POP JUMP JUMPDEST PUSH0 PUSH1 0x20 DUP3 ADD SWAP1 POP PUSH2 0x1209 PUSH0 DUP4 ADD DUP5 PUSH2 0x11E7 JUMP JUMPDEST SWAP3 SWAP2 POP POP JUMP JUMPDEST PUSH2 0x1218 DUP2 PUSH2 0xEE8 JUMP JUMPDEST DUP3 MSTORE POP POP JUMP JUMPDEST PUSH0 PUSH1 0x20 DUP3 ADD SWAP1 POP PUSH2 0x1231 PUSH0 DUP4 ADD DUP5 PUSH2 0x120F JUMP JUMPDEST SWAP3 SWAP2 POP POP JUMP JUMPDEST PUSH0 DUP2 MLOAD SWAP1 POP SWAP2 SWAP1 POP JUMP JUMPDEST PUSH0 DUP3 DUP3 MSTORE PUSH1 0x20 DUP3 ADD SWAP1 POP SWAP3 SWAP2 POP POP JUMP JUMPDEST PUSH0 PUSH2 0x125B DUP3 PUSH2 0x1237 JUMP JUMPDEST PUSH2 0x1265 DUP2 DUP6 PUSH2 0x1241 JUMP JUMPDEST SWAP4 POP PUSH2 0x1275 DUP2 DUP6 PUSH1 0x20 DUP7 ADD PUSH2 0xF60 JUMP JUMPDEST PUSH2 0x127E DUP2 PUSH2 0xF6E JUMP JUMPDEST DUP5 ADD SWAP2 POP POP SWAP3 SWAP2 POP POP JUMP JUMPDEST PUSH0 PUSH1 0x20 DUP3 ADD SWAP1 POP DUP2 DUP2 SUB PUSH0 DUP4 ADD MSTORE PUSH2 0x12A1 DUP2 DUP5 PUSH2 0x1251 JUMP JUMPDEST SWAP1 POP SWAP3 SWAP2 POP POP JUMP JUMPDEST PUSH0 PUSH1 0x20 DUP3 DUP5 SUB SLT ISZERO PUSH2 0x12BE JUMPI PUSH2 0x12BD PUSH2 0xEE0 JUMP JUMPDEST JUMPDEST PUSH0 PUSH2 0x12CB DUP5 DUP3 DUP6 ADD PUSH2 0x101C JUMP JUMPDEST SWAP2 POP POP SWAP3 SWAP2 POP POP JUMP JUMPDEST PUSH32 0x4E487B7100000000000000000000000000000000000000000000000000000000 PUSH0 MSTORE PUSH1 0x11 PUSH1 0x4 MSTORE PUSH1 0x24 PUSH0 REVERT JUMPDEST PUSH0 PUSH2 0x130B DUP3 PUSH2 0xEE8 JUMP JUMPDEST SWAP2 POP PUSH2 0x1316 DUP4 PUSH2 0xEE8 JUMP JUMPDEST SWAP3 POP DUP3 DUP3 ADD SWAP1 POP DUP1 DUP3 GT ISZERO PUSH2 0x132E JUMPI PUSH2 0x132D PUSH2 0x12D4 JUMP JUMPDEST JUMPDEST SWAP3 SWAP2 POP POP JUMP JUMPDEST PUSH0 DUP2 SWAP1 POP SWAP2 SWAP1 POP JUMP JUMPDEST PUSH0 PUSH8 0xFFFFFFFFFFFFFFFF DUP3 AND SWAP1 POP SWAP2 SWAP1 POP JUMP JUMPDEST PUSH0 DUP2 SWAP1 POP SWAP2 SWAP1 POP JUMP JUMPDEST PUSH0 PUSH2 0x1373 PUSH2 0x136E PUSH2 0x1369 DUP5 PUSH2 0x1334 JUMP JUMPDEST PUSH2 0x1350 JUMP JUMPDEST PUSH2 0x133D JUMP JUMPDEST SWAP1 POP SWAP2 SWAP1 POP JUMP JUMPDEST PUSH2 0x1383 DUP2 PUSH2 0x1359 JUMP JUMPDEST DUP3 MSTORE POP POP JUMP JUMPDEST PUSH0 PUSH1 0x20 DUP3 ADD SWAP1 POP PUSH2 0x139C PUSH0 DUP4 ADD DUP5 PUSH2 0x137A JUMP JUMPDEST SWAP3 SWAP2 POP POP JUMP JUMPDEST PUSH2 0x13AB DUP2 PUSH2 0x11B6 JUMP JUMPDEST DUP2 EQ PUSH2 0x13B5 JUMPI PUSH0 DUP1 REVERT JUMPDEST POP JUMP JUMPDEST PUSH0 DUP2 MLOAD SWAP1 POP PUSH2 0x13C6 DUP2 PUSH2 0x13A2 JUMP JUMPDEST SWAP3 SWAP2 POP POP JUMP JUMPDEST PUSH0 PUSH1 0x20 DUP3 DUP5 SUB SLT ISZERO PUSH2 0x13E1 JUMPI PUSH2 0x13E0 PUSH2 0xEE0 JUMP JUMPDEST JUMPDEST PUSH0 PUSH2 0x13EE DUP5 DUP3 DUP6 ADD PUSH2 0x13B8 JUMP JUMPDEST SWAP2 POP POP SWAP3 SWAP2 POP POP JUMP JUMPDEST PUSH0 DUP2 SWAP1 POP SWAP3 SWAP2 POP POP JUMP JUMPDEST PUSH0 PUSH2 0x140B DUP3 PUSH2 0xF46 JUMP JUMPDEST PUSH2 0x1415 DUP2 DUP6 PUSH2 0x13F7 JUMP JUMPDEST SWAP4 POP PUSH2 0x1425 DUP2 DUP6 PUSH1 0x20 DUP7 ADD PUSH2 0xF60 JUMP JUMPDEST DUP1 DUP5 ADD SWAP2 POP POP SWAP3 SWAP2 POP POP JUMP JUMPDEST PUSH0 PUSH2 0x143C DUP3 DUP5 PUSH2 0x1401 JUMP JUMPDEST SWAP2 POP DUP2 SWAP1 POP SWAP3 SWAP2 POP POP JUMP INVALID LOG2 PUSH5 0x6970667358 0x22 SLT KECCAK256 XOR 0xE9 0xA7 SWAP14 SELFDESTRUCT PUSH29 0x545FA9E60EFADD28C810E760B1BD688B8C0D4926540B710372E164736F PUSH13 0x634300081A0033000000000000 "
				},
				"gasEstimates": {
					"creation": {
						"codeDepositCost": "1049000",
						"executionCost": "infinite",
						"totalCost": "infinite"
					},
					"external": {
						"UPGRADE_INTERFACE_VERSION()": "infinite",
						"cal()": "infinite",
						"getCaller()": "424",
						"getCount()": "2455",
						"getInitCalldata(uint256)": "infinite",
						"getOwner()": "2690",
						"getThisAddr()": "423",
						"initialize(uint256)": "infinite",
						"owner()": "2678",
						"proxiableUUID()": "infinite",
						"renounceOwnership()": "infinite",
						"transferOwnership(address)": "infinite",
						"upgradeToAndCall(address,bytes)": "infinite"
					},
					"internal": {
						"_authorizeUpgrade(address)": "infinite"
					}
				},
				"methodIdentifiers": {
					"UPGRADE_INTERFACE_VERSION()": "ad3cb1cc",
					"cal()": "b7c738f4",
					"getCaller()": "ab470f05",
					"getCount()": "a87d942c",
					"getInitCalldata(uint256)": "1d54036f",
					"getOwner()": "893d20e8",
					"getThisAddr()": "c39911cf",
					"initialize(uint256)": "fe4b84df",
					"owner()": "8da5cb5b",
					"proxiableUUID()": "52d1902d",
					"renounceOwnership()": "715018a6",
					"transferOwnership(address)": "f2fde38b",
					"upgradeToAndCall(address,bytes)": "4f1ef286"
				}
			},
			"storageLayout": {
				"storage": [
					{
						"astId": 1410,
						"contract": "UUPS/UUPSLogic.sol:UUPSBoxV1",
						"label": "_count",
						"offset": 0,
						"slot": "0",
						"type": "t_uint256"
					}
				],
				"types": {
					"t_uint256": {
						"encoding": "inplace",
						"label": "uint256",
						"numberOfBytes": "32"
					}
				}
			},
			"userdoc": {
				"kind": "user",
				"methods": {},
				"version": 1
			}
		}
	}
}