{
	"data": {
		"bytecode": {
			"linkReferences": {},
			"object": "610180604052348015610010575f80fd5b50604051616fe9380380616fe983398181016040528101906100329190610955565b6004816040518060400160405280600a81526020017f4d79476f7665726e6f72000000000000000000000000000000000000000000008152508061007a61018060201b60201c565b61008d5f836101bd60201b90919060201c565b61012081815250506100a96001826101bd60201b90919060201c565b6101408181525050818051906020012060e08181525050808051906020012061010081815250504660a081815250506100e661020a60201b60201c565b608081815250503073ffffffffffffffffffffffffffffffffffffffff1660c08173ffffffffffffffffffffffffffffffffffffffff1681525050505080600390816101329190610bba565b50508073ffffffffffffffffffffffffffffffffffffffff166101608173ffffffffffffffffffffffffffffffffffffffff1681525050506101798161026460201b60201c565b5050610fe2565b60606040518060400160405280600181526020017f3100000000000000000000000000000000000000000000000000000000000000815250905090565b5f6020835110156101de576101d78361033e60201b60201c565b9050610204565b826101ee836103a360201b60201c565b5f0190816101fc9190610bba565b5060ff5f1b90505b92915050565b5f7f8b73c3c69bb8fe3d512ecc4cf759cc79239f7b179b0ffacaa9a75d522b39400f60e051610100514630604051602001610249959493929190610cbf565b60405160208183030381529060405280519060200120905090565b5f6102736103ac60201b60201c565b9050808211156102bc5781816040517f243e54450000000000000000000000000000000000000000000000000000000081526004016102b3929190610d10565b60405180910390fd5b5f6102cb6103b460201b60201c565b90506102fe6102de6103e660201b60201c565b6102ed8561047d60201b60201c565b60086104ea60201b9092919060201c565b50507f0553476bf02ef2726e8ce5ced78d63e26e602e4a2257b1f559418e24b46339978184604051610331929190610d10565b60405180910390a1505050565b5f80829050601f8151111561038a57826040517f305a27a90000000000000000000000000000000000000000000000000000000081526004016103819190610d9d565b60405180910390fd5b80518161039690610dea565b5f1c175f1b915050919050565b5f819050919050565b5f6064905090565b5f6103c5600861050b60201b60201c565b79ffffffffffffffffffffffffffffffffffffffffffffffffffff16905090565b5f6103f561057360201b60201c565b73ffffffffffffffffffffffffffffffffffffffff166391ddadf46040518163ffffffff1660e01b8152600401602060405180830381865afa92505050801561045c57506040513d601f19601f820116820180604052508101906104599190610e8b565b60015b6104755761046e61057d60201b60201c565b905061047a565b809150505b90565b5f79ffffffffffffffffffffffffffffffffffffffffffffffffffff80168211156104e25760d0826040517f6dfcc6500000000000000000000000000000000000000000000000000000000081526004016104d9929190610efb565b60405180910390fd5b819050919050565b5f806104ff855f01858561059260201b60201c565b91509150935093915050565b5f80825f018054905090505f81146105695761053b835f016001836105309190610f4f565b61088c60201b60201c565b5f0160069054906101000a900479ffffffffffffffffffffffffffffffffffffffffffffffffffff1661056b565b5f5b915050919050565b5f61016051905090565b5f61058d4361089e60201b60201c565b905090565b5f805f858054905090505f8111156107a4575f6105c1876001846105b69190610f4f565b61088c60201b60201c565b90505f815f015f9054906101000a900465ffffffffffff1690505f825f0160069054906101000a900479ffffffffffffffffffffffffffffffffffffffffffffffffffff1690508765ffffffffffff168265ffffffffffff161115610652576040517f2520601d00000000000000000000000000000000000000000000000000000000815260040160405180910390fd5b8765ffffffffffff168265ffffffffffff16036106bc5786835f0160066101000a81548179ffffffffffffffffffffffffffffffffffffffffffffffffffff021916908379ffffffffffffffffffffffffffffffffffffffffffffffffffff160217905550610795565b8860405180604001604052808a65ffffffffffff1681526020018979ffffffffffffffffffffffffffffffffffffffffffffffffffff16815250908060018154018082558091505060019003905f5260205f20015f909190919091505f820151815f015f6101000a81548165ffffffffffff021916908365ffffffffffff1602179055506020820151815f0160066101000a81548179ffffffffffffffffffffffffffffffffffffffffffffffffffff021916908379ffffffffffffffffffffffffffffffffffffffffffffffffffff16021790555050505b80879550955050505050610884565b8560405180604001604052808765ffffffffffff1681526020018679ffffffffffffffffffffffffffffffffffffffffffffffffffff16815250908060018154018082558091505060019003905f5260205f20015f909190919091505f820151815f015f6101000a81548165ffffffffffff021916908365ffffffffffff1602179055506020820151815f0160066101000a81548179ffffffffffffffffffffffffffffffffffffffffffffffffffff021916908379ffffffffffffffffffffffffffffffffffffffffffffffffffff16021790555050505f8492509250505b935093915050565b5f825f528160205f2001905092915050565b5f65ffffffffffff80168211156108ef576030826040517f6dfcc6500000000000000000000000000000000000000000000000000000000081526004016108e6929190610fbb565b60405180910390fd5b819050919050565b5f80fd5b5f73ffffffffffffffffffffffffffffffffffffffff82169050919050565b5f610924826108fb565b9050919050565b6109348161091a565b811461093e575f80fd5b50565b5f8151905061094f8161092b565b92915050565b5f6020828403121561096a576109696108f7565b5b5f61097784828501610941565b91505092915050565b5f81519050919050565b7f4e487b71000000000000000000000000000000000000000000000000000000005f52604160045260245ffd5b7f4e487b71000000000000000000000000000000000000000000000000000000005f52602260045260245ffd5b5f60028204905060018216806109fb57607f821691505b602082108103610a0e57610a0d6109b7565b5b50919050565b5f819050815f5260205f209050919050565b5f6020601f8301049050919050565b5f82821b905092915050565b5f60088302610a707fffffffffffffffffffffffffffffffffffffffffffffffffffffffffffffffff82610a35565b610a7a8683610a35565b95508019841693508086168417925050509392505050565b5f819050919050565b5f819050919050565b5f610abe610ab9610ab484610a92565b610a9b565b610a92565b9050919050565b5f819050919050565b610ad783610aa4565b610aeb610ae382610ac5565b848454610a41565b825550505050565b5f90565b610aff610af3565b610b0a818484610ace565b505050565b5b81811015610b2d57610b225f82610af7565b600181019050610b10565b5050565b601f821115610b7257610b4381610a14565b610b4c84610a26565b81016020851015610b5b578190505b610b6f610b6785610a26565b830182610b0f565b50505b505050565b5f82821c905092915050565b5f610b925f1984600802610b77565b1980831691505092915050565b5f610baa8383610b83565b9150826002028217905092915050565b610bc382610980565b67ffffffffffffffff811115610bdc57610bdb61098a565b5b610be682546109e4565b610bf1828285610b31565b5f60209050601f831160018114610c22575f8415610c10578287015190505b610c1a8582610b9f565b865550610c81565b601f198416610c3086610a14565b5f5b82811015610c5757848901518255600182019150602085019450602081019050610c32565b86831015610c745784890151610c70601f891682610b83565b8355505b6001600288020188555050505b505050505050565b5f819050919050565b610c9b81610c89565b82525050565b610caa81610a92565b82525050565b610cb98161091a565b82525050565b5f60a082019050610cd25f830188610c92565b610cdf6020830187610c92565b610cec6040830186610c92565b610cf96060830185610ca1565b610d066080830184610cb0565b9695505050505050565b5f604082019050610d235f830185610ca1565b610d306020830184610ca1565b9392505050565b5f82825260208201905092915050565b8281835e5f83830152505050565b5f601f19601f8301169050919050565b5f610d6f82610980565b610d798185610d37565b9350610d89818560208601610d47565b610d9281610d55565b840191505092915050565b5f6020820190508181035f830152610db58184610d65565b905092915050565b5f81519050919050565b5f819050602082019050919050565b5f610de18251610c89565b80915050919050565b5f610df482610dbd565b82610dfe84610dc7565b9050610e0981610dd6565b92506020821015610e4957610e447fffffffffffffffffffffffffffffffffffffffffffffffffffffffffffffffff83602003600802610a35565b831692505b5050919050565b5f65ffffffffffff82169050919050565b610e6a81610e50565b8114610e74575f80fd5b50565b5f81519050610e8581610e61565b92915050565b5f60208284031215610ea057610e9f6108f7565b5b5f610ead84828501610e77565b91505092915050565b5f819050919050565b5f60ff82169050919050565b5f610ee5610ee0610edb84610eb6565b610a9b565b610ebf565b9050919050565b610ef581610ecb565b82525050565b5f604082019050610f0e5f830185610eec565b610f1b6020830184610ca1565b9392505050565b7f4e487b71000000000000000000000000000000000000000000000000000000005f52601160045260245ffd5b5f610f5982610a92565b9150610f6483610a92565b9250828203905081811115610f7c57610f7b610f22565b5b92915050565b5f819050919050565b5f610fa5610fa0610f9b84610f82565b610a9b565b610ebf565b9050919050565b610fb581610f8b565b82525050565b5f604082019050610fce5f830185610fac565b610fdb6020830184610ca1565b9392505050565b60805160a05160c05160e05161010051610120516101405161016051615fac61103d5f395f611f2501525f612da301525f612d6801525f613c7601525f613c5501525f6130e101525f61313701525f6131600152615fac5ff3fe60806040526004361061025f575f3560e01c80637b3c71d311610143578063b58131b0116100b5578063dd4e2ba511610079578063dd4e2ba514610a84578063deaaa7cc14610aae578063eb9019d414610ad8578063f23a6e6114610b14578063f8ce560a14610b50578063fc0c546a14610b8c576102d2565b8063b58131b01461098a578063bc197c81146109b4578063c01f9e37146109f0578063c28bc2fa14610a2c578063c59057e414610a48576102d2565b806391ddadf41161010757806391ddadf41461085857806397c3d334146108825780639a802a6d146108ac578063a7713a70146108e8578063a9a9529414610912578063ab58fb8e1461094e576102d2565b80637b3c71d3146107385780637d5e81e2146107745780637ecebe00146107b057806384b0196e146107ec5780638ff262e31461081c576102d2565b80633932abb1116101dc578063544ffc9c116101a0578063544ffc9c146105e057806354fd4d501461061e57806356781388146106485780635b8d0e0d146106845780635f398a14146106c057806360c4247f146106fc576102d2565b80633932abb1146104d85780633e4f49e614610502578063438596321461053e578063452115d61461057a5780634bf5d7e9146105b6576102d2565b8063150b7a0211610223578063150b7a02146103ca578063160cbed7146104065780632656227d146104425780632d63f693146104725780632fe3e261146104ae576102d2565b806301ffc9a7146102d657806302a251a31461031257806306f3f9e61461033c57806306fdde0314610364578063143489d01461038e576102d2565b366102d2573073ffffffffffffffffffffffffffffffffffffffff16610283610bb6565b73ffffffffffffffffffffffffffffffffffffffff16146102d0576040517fe90a651e00000000000000000000000000000000000000000000000000000000815260040160405180910390fd5b005b5f80fd5b3480156102e1575f80fd5b506102fc60048036038101906102f79190613f03565b610bbd565b6040516103099190613f48565b60405180910390f35b34801561031d575f80fd5b50610326610c9e565b6040516103339190613f79565b60405180910390f35b348015610347575f80fd5b50610362600480360381019061035d9190613fbc565b610ca6565b005b34801561036f575f80fd5b50610378610cba565b6040516103859190614057565b60405180910390f35b348015610399575f80fd5b506103b460048036038101906103af9190613fbc565b610d4a565b6040516103c191906140b6565b60405180910390f35b3480156103d5575f80fd5b506103f060048036038101906103eb9190614225565b610d85565b6040516103fd91906142b4565b60405180910390f35b348015610411575f80fd5b5061042c60048036038101906104279190614562565b610e04565b6040516104399190613f79565b60405180910390f35b61045c60048036038101906104579190614562565b610efa565b6040516104699190613f79565b60405180910390f35b34801561047d575f80fd5b5061049860048036038101906104939190613fbc565b6110d4565b6040516104a59190613f79565b60405180910390f35b3480156104b9575f80fd5b506104c261110a565b6040516104cf9190614629565b60405180910390f35b3480156104e3575f80fd5b506104ec61112e565b6040516104f99190613f79565b60405180910390f35b34801561050d575f80fd5b5061052860048036038101906105239190613fbc565b611136565b60405161053591906146b5565b60405180910390f35b348015610549575f80fd5b50610564600480360381019061055f91906146ce565b61128d565b6040516105719190613f48565b60405180910390f35b348015610585575f80fd5b506105a0600480360381019061059b9190614562565b6112f2565b6040516105ad9190613f79565b60405180910390f35b3480156105c1575f80fd5b506105ca6113b2565b6040516105d79190614057565b60405180910390f35b3480156105eb575f80fd5b5061060660048036038101906106019190613fbc565b61146f565b6040516106159392919061470c565b60405180910390f35b348015610629575f80fd5b506106326114a2565b60405161063f9190614057565b60405180910390f35b348015610653575f80fd5b5061066e60048036038101906106699190614777565b6114df565b60405161067b9190613f79565b60405180910390f35b34801561068f575f80fd5b506106aa60048036038101906106a5919061480e565b61150e565b6040516106b79190613f79565b60405180910390f35b3480156106cb575f80fd5b506106e660048036038101906106e191906148f0565b61163d565b6040516106f39190613f79565b60405180910390f35b348015610707575f80fd5b50610722600480360381019061071d9190613fbc565b6116a5565b60405161072f9190613f79565b60405180910390f35b348015610743575f80fd5b5061075e60048036038101906107599190614990565b61179e565b60405161076b9190613f79565b60405180910390f35b34801561077f575f80fd5b5061079a60048036038101906107959190614a9f565b611804565b6040516107a79190613f79565b60405180910390f35b3480156107bb575f80fd5b506107d660048036038101906107d19190614b73565b6118fa565b6040516107e39190613f79565b60405180910390f35b3480156107f7575f80fd5b50610800611940565b6040516108139796959493929190614c8f565b60405180910390f35b348015610827575f80fd5b50610842600480360381019061083d9190614d11565b6119e5565b60405161084f9190613f79565b60405180910390f35b348015610863575f80fd5b5061086c611ab9565b6040516108799190614db1565b60405180910390f35b34801561088d575f80fd5b50610896611b44565b6040516108a39190613f79565b60405180910390f35b3480156108b7575f80fd5b506108d260048036038101906108cd9190614dca565b611b4c565b6040516108df9190613f79565b60405180910390f35b3480156108f3575f80fd5b506108fc611b61565b6040516109099190613f79565b60405180910390f35b34801561091d575f80fd5b5061093860048036038101906109339190613fbc565b611b8d565b6040516109459190613f48565b60405180910390f35b348015610959575f80fd5b50610974600480360381019061096f9190613fbc565b611b93565b6040516109819190613f79565b60405180910390f35b348015610995575f80fd5b5061099e611bc9565b6040516109ab9190613f79565b60405180910390f35b3480156109bf575f80fd5b506109da60048036038101906109d59190614e36565b611bcd565b6040516109e791906142b4565b60405180910390f35b3480156109fb575f80fd5b50610a166004803603810190610a119190613fbc565b611c4d565b604051610a239190613f79565b60405180910390f35b610a466004803603810190610a419190614f56565b611cb7565b005b348015610a53575f80fd5b50610a6e6004803603810190610a699190614562565b611d40565b604051610a7b9190613f79565b60405180910390f35b348015610a8f575f80fd5b50610a98611d7a565b604051610aa59190614057565b60405180910390f35b348015610ab9575f80fd5b50610ac2611db7565b604051610acf9190614629565b60405180910390f35b348015610ae3575f80fd5b50610afe6004803603810190610af99190614fc7565b611ddb565b604051610b0b9190613f79565b60405180910390f35b348015610b1f575f80fd5b50610b3a6004803603810190610b359190615005565b611df6565b604051610b4791906142b4565b60405180910390f35b348015610b5b575f80fd5b50610b766004803603810190610b719190613fbc565b611e76565b604051610b839190613f79565b60405180910390f35b348015610b97575f80fd5b50610ba0611f22565b604051610bad91906150f3565b60405180910390f35b5f30905090565b5f7f65455a86000000000000000000000000000000000000000000000000000000007bffffffffffffffffffffffffffffffffffffffffffffffffffffffff1916827bffffffffffffffffffffffffffffffffffffffffffffffffffffffff19161480610c8757507f4e2312e0000000000000000000000000000000000000000000000000000000007bffffffffffffffffffffffffffffffffffffffffffffffffffffffff1916827bffffffffffffffffffffffffffffffffffffffffffffffffffffffff1916145b80610c975750610c9682611f49565b5b9050919050565b5f6002905090565b610cae611fb2565b610cb7816120a7565b50565b606060038054610cc990615139565b80601f0160208091040260200160405190810160405280929190818152602001828054610cf590615139565b8015610d405780601f10610d1757610100808354040283529160200191610d40565b820191905f5260205f20905b815481529060010190602001808311610d2357829003601f168201915b5050505050905090565b5f60045f8381526020019081526020015f205f015f9054906101000a900473ffffffffffffffffffffffffffffffffffffffff169050919050565b5f3073ffffffffffffffffffffffffffffffffffffffff16610da5610bb6565b73ffffffffffffffffffffffffffffffffffffffff1614610df2576040517fe90a651e00000000000000000000000000000000000000000000000000000000815260040160405180910390fd5b63150b7a0260e01b9050949350505050565b5f80610e1286868686611d40565b9050610e2781610e226004612169565b61218d565b505f610e3682888888886121f8565b90505f8165ffffffffffff1614610ebb578060045f8481526020019081526020015f206001015f6101000a81548165ffffffffffff021916908365ffffffffffff1602179055507f9a2e42fd6722813d69113e7d0079d3d940171428df7373df9c7f7617cfda28928282604051610eae929190615199565b60405180910390a1610eed565b6040517f90884a4600000000000000000000000000000000000000000000000000000000815260040160405180910390fd5b8192505050949350505050565b5f80610f0886868686611d40565b9050610f2881610f186005612169565b610f226004612169565b1761218d565b50600160045f8381526020019081526020015f205f01601e6101000a81548160ff0219169083151502179055503073ffffffffffffffffffffffffffffffffffffffff16610f74610bb6565b73ffffffffffffffffffffffffffffffffffffffff161461102a575f5b8651811015611028573073ffffffffffffffffffffffffffffffffffffffff16878281518110610fc457610fc36151c0565b5b602002602001015173ffffffffffffffffffffffffffffffffffffffff160361101d5761101c858281518110610ffd57610ffc6151c0565b5b602002602001015180519060200120600561220290919063ffffffff16565b5b806001019050610f91565b505b61103781878787876122fa565b3073ffffffffffffffffffffffffffffffffffffffff16611056610bb6565b73ffffffffffffffffffffffffffffffffffffffff1614158015611081575061107f60056123df565b155b1561109157611090600561244b565b5b7f712ae1383f79ac853f8d882153778e0260ef8f03b504e2866e0593e04d2b291f816040516110c09190613f79565b60405180910390a180915050949350505050565b5f60045f8381526020019081526020015f205f0160149054906101000a900465ffffffffffff1665ffffffffffff169050919050565b7f3e83946653575f9a39005e1545185629e92736b7528ab20ca3816f315424a81181565b5f6002905090565b5f8060045f8481526020019081526020015f2090505f815f01601e9054906101000a900460ff1690505f825f01601f9054906101000a900460ff16905081156111855760079350505050611288565b80156111975760029350505050611288565b5f6111a1866110d4565b90505f81036111e757856040517f6ad060750000000000000000000000000000000000000000000000000000000081526004016111de9190613f79565b60405180910390fd5b5f6111f0611ab9565b65ffffffffffff16905080821061120e575f95505050505050611288565b5f61121888611c4d565b90508181106112305760019650505050505050611288565b611239886124c1565b158061124b575061124988612505565b155b1561125f5760039650505050505050611288565b5f61126989611b93565b0361127d5760049650505050505050611288565b600596505050505050505b919050565b5f60075f8481526020019081526020015f206003015f8373ffffffffffffffffffffffffffffffffffffffff1673ffffffffffffffffffffffffffffffffffffffff1681526020019081526020015f205f9054906101000a900460ff16905092915050565b5f8061130086868686611d40565b90506113148161130f5f612169565b61218d565b5061131e81610d4a565b73ffffffffffffffffffffffffffffffffffffffff1661133c61252c565b73ffffffffffffffffffffffffffffffffffffffff161461139b5761135f61252c565b6040517f233d98e300000000000000000000000000000000000000000000000000000000815260040161139291906140b6565b60405180910390fd5b6113a786868686612533565b915050949350505050565b60606113bc611f22565b73ffffffffffffffffffffffffffffffffffffffff16634bf5d7e96040518163ffffffff1660e01b81526004015f60405180830381865afa92505050801561142657506040513d5f823e3d601f19601f82011682018060405250810190611423919061525b565b60015b611467576040518060400160405280601d81526020017f6d6f64653d626c6f636b6e756d6265722666726f6d3d64656661756c74000000815250905061146c565b809150505b90565b5f805f8060075f8681526020019081526020015f209050805f015481600101548260020154935093509350509193909250565b60606040518060400160405280600181526020017f3100000000000000000000000000000000000000000000000000000000000000815250905090565b5f806114e961252c565b905061150584828560405180602001604052805f815250612615565b91505092915050565b5f8061159b876115957f3e83946653575f9a39005e1545185629e92736b7528ab20ca3816f315424a8118c8c8c6115448e612634565b8d8d6040516115549291906152d0565b60405180910390208c8051906020012060405160200161157a97969594939291906152f7565b60405160208183030381529060405280519060200120612687565b856126a0565b9050806115df57866040517f94ab6c070000000000000000000000000000000000000000000000000000000081526004016115d691906140b6565b60405180910390fd5b61162f89888a89898080601f0160208091040260200160405190810160405280939291908181526020018383808284375f81840152601f19601f820116905080830192505050505050508861274c565b915050979650505050505050565b5f8061164761252c565b905061169987828888888080601f0160208091040260200160405190810160405280939291908181526020018383808284375f81840152601f19601f820116905080830192505050505050508761274c565b91505095945050505050565b5f8060085f018054905090505f60085f016001836116c39190615391565b815481106116d4576116d36151c0565b5b905f5260205f200190505f815f015f9054906101000a900465ffffffffffff1690505f825f0160069054906101000a900479ffffffffffffffffffffffffffffffffffffffffffffffffffff169050858265ffffffffffff161161175a578079ffffffffffffffffffffffffffffffffffffffffffffffffffff16945050505050611799565b6117766117668761284d565b60086128a690919063ffffffff16565b79ffffffffffffffffffffffffffffffffffffffffffffffffffff169450505050505b919050565b5f806117a861252c565b90506117f986828787878080601f0160208091040260200160405190810160405280939291908181526020018383808284375f81840152601f19601f82011690508083019250505050505050612615565b915050949350505050565b5f8061180e61252c565b905061181a8184612993565b61185b57806040517fd9b3955700000000000000000000000000000000000000000000000000000000815260040161185291906140b6565b60405180910390fd5b5f611864611bc9565b90505f8111156118e1575f61189483600161187d611ab9565b61188791906153c4565b65ffffffffffff16611ddb565b9050818110156118df578281836040517fc242ee160000000000000000000000000000000000000000000000000000000081526004016118d6939291906153fd565b60405180910390fd5b505b6118ee8787878786612adb565b92505050949350505050565b5f60025f8373ffffffffffffffffffffffffffffffffffffffff1673ffffffffffffffffffffffffffffffffffffffff1681526020019081526020015f20549050919050565b5f6060805f805f6060611951612d60565b611959612d9a565b46305f801b5f67ffffffffffffffff81111561197857611977614101565b5b6040519080825280602002602001820160405280156119a65781602001602082028036833780820191505090505b507f0f00000000000000000000000000000000000000000000000000000000000000959493929190965096509650965096509650965090919293949596565b5f80611a5084611a4a7ff2aad550cf55f045cb27e9c559f9889fdfb6e6cdaa032301d6ea397784ae51d7898989611a1b8b612634565b604051602001611a2f959493929190615432565b60405160208183030381529060405280519060200120612687565b856126a0565b905080611a9457836040517f94ab6c07000000000000000000000000000000000000000000000000000000008152600401611a8b91906140b6565b60405180910390fd5b611aae86858760405180602001604052805f815250612615565b915050949350505050565b5f611ac2611f22565b73ffffffffffffffffffffffffffffffffffffffff166391ddadf46040518163ffffffff1660e01b8152600401602060405180830381865afa925050508015611b2957506040513d601f19601f82011682018060405250810190611b2691906154ad565b60015b611b3c57611b35612dd5565b9050611b41565b809150505b90565b5f6064905090565b5f611b58848484612de4565b90509392505050565b5f611b6c6008612e6f565b79ffffffffffffffffffffffffffffffffffffffffffffffffffff16905090565b5f919050565b5f60045f8381526020019081526020015f206001015f9054906101000a900465ffffffffffff1665ffffffffffff169050919050565b5f90565b5f3073ffffffffffffffffffffffffffffffffffffffff16611bed610bb6565b73ffffffffffffffffffffffffffffffffffffffff1614611c3a576040517fe90a651e00000000000000000000000000000000000000000000000000000000815260040160405180910390fd5b63bc197c8160e01b905095945050505050565b5f60045f8381526020019081526020015f205f01601a9054906101000a900463ffffffff1663ffffffff1660045f8481526020019081526020015f205f0160149054906101000a900465ffffffffffff16611ca891906154d8565b65ffffffffffff169050919050565b611cbf611fb2565b5f808573ffffffffffffffffffffffffffffffffffffffff16858585604051611ce99291906152d0565b5f6040518083038185875af1925050503d805f8114611d23576040519150601f19603f3d011682016040523d82523d5f602084013e611d28565b606091505b5091509150611d378282612ed1565b50505050505050565b5f84848484604051602001611d5894939291906156d5565b604051602081830303815290604052805190602001205f1c9050949350505050565b60606040518060400160405280602081526020017f737570706f72743d627261766f2671756f72756d3d666f722c6162737461696e815250905090565b7ff2aad550cf55f045cb27e9c559f9889fdfb6e6cdaa032301d6ea397784ae51d781565b5f611dee8383611de9612ef5565b612de4565b905092915050565b5f3073ffffffffffffffffffffffffffffffffffffffff16611e16610bb6565b73ffffffffffffffffffffffffffffffffffffffff1614611e63576040517fe90a651e00000000000000000000000000000000000000000000000000000000815260040160405180910390fd5b63f23a6e6160e01b905095945050505050565b5f611e7f611b44565b611e88836116a5565b611e90611f22565b73ffffffffffffffffffffffffffffffffffffffff16638e539e8c856040518263ffffffff1660e01b8152600401611ec89190613f79565b602060405180830381865afa158015611ee3573d5f803e3d5ffd5b505050506040513d601f19601f82011682018060405250810190611f079190615741565b611f11919061576c565b611f1b91906157da565b9050919050565b5f7f0000000000000000000000000000000000000000000000000000000000000000905090565b5f7f01ffc9a7000000000000000000000000000000000000000000000000000000007bffffffffffffffffffffffffffffffffffffffffffffffffffffffff1916827bffffffffffffffffffffffffffffffffffffffffffffffffffffffff1916149050919050565b611fba61252c565b73ffffffffffffffffffffffffffffffffffffffff16611fd8610bb6565b73ffffffffffffffffffffffffffffffffffffffff161461203757611ffb61252c565b6040517f47096e4700000000000000000000000000000000000000000000000000000000815260040161202e91906140b6565b60405180910390fd5b3073ffffffffffffffffffffffffffffffffffffffff16612056610bb6565b73ffffffffffffffffffffffffffffffffffffffff16146120a5575f61207a612f0b565b6040516120889291906152d0565b604051809103902090505b8061209e6005612f17565b0361209357505b565b5f6120b0611b44565b9050808211156120f95781816040517f243e54450000000000000000000000000000000000000000000000000000000081526004016120f092919061580a565b60405180910390fd5b5f612102611b61565b905061212961210f611ab9565b61211885613045565b60086130b29092919063ffffffff16565b50507f0553476bf02ef2726e8ce5ced78d63e26e602e4a2257b1f559418e24b4633997818460405161215c92919061580a565b60405180910390a1505050565b5f81600781111561217d5761217c614642565b5b60ff166001901b5f1b9050919050565b5f8061219884611136565b90505f801b836121a783612169565b16036121ee578381846040517f31b75e4d0000000000000000000000000000000000000000000000000000000081526004016121e593929190615831565b60405180910390fd5b8091505092915050565b5f95945050505050565b5f825f0160109054906101000a90046fffffffffffffffffffffffffffffffff169050825f015f9054906101000a90046fffffffffffffffffffffffffffffffff166fffffffffffffffffffffffffffffffff16600182016fffffffffffffffffffffffffffffffff160361227c5761227b60416130cd565b5b81836001015f836fffffffffffffffffffffffffffffffff166fffffffffffffffffffffffffffffffff1681526020019081526020015f208190555060018101835f0160106101000a8154816fffffffffffffffffffffffffffffffff02191690836fffffffffffffffffffffffffffffffff160217905550505050565b5f5b84518110156123d7575f8086838151811061231a576123196151c0565b5b602002602001015173ffffffffffffffffffffffffffffffffffffffff1686848151811061234b5761234a6151c0565b5b6020026020010151868581518110612366576123656151c0565b5b602002602001015160405161237b9190615896565b5f6040518083038185875af1925050503d805f81146123b5576040519150601f19603f3d011682016040523d82523d5f602084013e6123ba565b606091505b50915091506123c98282612ed1565b5050508060010190506122fc565b505050505050565b5f815f015f9054906101000a90046fffffffffffffffffffffffffffffffff166fffffffffffffffffffffffffffffffff16825f0160109054906101000a90046fffffffffffffffffffffffffffffffff166fffffffffffffffffffffffffffffffff16149050919050565b5f815f015f6101000a8154816fffffffffffffffffffffffffffffffff02191690836fffffffffffffffffffffffffffffffff1602179055505f815f0160106101000a8154816fffffffffffffffffffffffffffffffff02191690836fffffffffffffffffffffffffffffffff16021790555050565b5f8060075f8481526020019081526020015f209050806002015481600101546124ea91906158ac565b6124fb6124f6856110d4565b611e76565b1115915050919050565b5f8060075f8481526020019081526020015f209050805f0154816001015411915050919050565b5f33905090565b5f8061254186868686611d40565b90506125a5816125516007612169565b61255b6006612169565b6125656002612169565b60018060078081111561257b5761257a614642565b5b61258591906158df565b60026125919190615a42565b61259b9190615391565b5f1b18181861218d565b50600160045f8381526020019081526020015f205f01601f6101000a81548160ff0219169083151502179055507f789cf55be980739dad1d0699b93b58e806b51c9d96619bfa8fe0a28abaa7b30c816040516126019190613f79565b60405180910390a180915050949350505050565b5f61262a85858585612625612ef5565b61274c565b9050949350505050565b5f60025f8373ffffffffffffffffffffffffffffffffffffffff1673ffffffffffffffffffffffffffffffffffffffff1681526020019081526020015f205f815480929190600101919050559050919050565b5f6126996126936130de565b83613194565b9050919050565b5f808473ffffffffffffffffffffffffffffffffffffffff163b03612737575f806126cb85856131d4565b50915091505f60038111156126e3576126e2614642565b5b8160038111156126f6576126f5614642565b5b14801561272e57508573ffffffffffffffffffffffffffffffffffffffff168273ffffffffffffffffffffffffffffffffffffffff16145b92505050612745565b612742848484613229565b90505b9392505050565b5f6127608661275b6001612169565b61218d565b505f6127758661276f896110d4565b85612de4565b90505f6127858888888588613348565b90505f8451036127e8578673ffffffffffffffffffffffffffffffffffffffff167fb8e138887d0aa13bab447e82de9d5c1777041ecd21ca36ba824ff1e6c07ddda4898884896040516127db9493929190615a8c565b60405180910390a261283f565b8673ffffffffffffffffffffffffffffffffffffffff167fe2babfbac5889a709b63bb7f598b324e08bc5a4fb9ec647fb3cbc9ec07eb87128988848989604051612836959493929190615b1e565b60405180910390a25b809250505095945050505050565b5f65ffffffffffff801682111561289e576030826040517f6dfcc650000000000000000000000000000000000000000000000000000000008152600401612895929190615bb6565b60405180910390fd5b819050919050565b5f80835f018054905090505f808290506005831115612927575f6128c98461353d565b846128d49190615391565b90506128e2875f01826136d7565b5f015f9054906101000a900465ffffffffffff1665ffffffffffff168665ffffffffffff16101561291557809150612925565b60018161292291906158ac565b92505b505b5f612936875f018785856136e9565b90505f811461298557612957875f016001836129529190615391565b6136d7565b5f0160069054906101000a900479ffffffffffffffffffffffffffffffffffffffffffffffffffff16612987565b5f5b94505050505092915050565b5f808251905060348110156129ac576001915050612ad5565b5f6014820384015190507f2370726f706f7365723d3078000000000000000000000000000000000000000073ffffffffffffffffffffffffffffffffffffffff19168173ffffffffffffffffffffffffffffffffffffffff191614612a1657600192505050612ad5565b5f80602884612a259190615391565b90505b83811015612a9f575f80612a58888481518110612a4857612a476151c0565b5b602001015160f81c60f81b61375e565b9150915081612a705760019650505050505050612ad5565b8060ff1660048573ffffffffffffffffffffffffffffffffffffffff16901b1793505050806001019050612a28565b508573ffffffffffffffffffffffffffffffffffffffff168173ffffffffffffffffffffffffffffffffffffffff161493505050505b92915050565b5f612aef8686868680519060200120611d40565b905084518651141580612b0457508351865114155b80612b0f57505f8651145b15612b58578551845186516040517f447b05d0000000000000000000000000000000000000000000000000000000008152600401612b4f9392919061470c565b60405180910390fd5b5f60045f8381526020019081526020015f205f0160149054906101000a900465ffffffffffff1665ffffffffffff1614612bd75780612b9682611136565b5f801b6040517f31b75e4d000000000000000000000000000000000000000000000000000000008152600401612bce93929190615831565b60405180910390fd5b5f612be061112e565b612be8611ab9565b65ffffffffffff16612bfa91906158ac565b90505f612c05610c9e565b90505f60045f8581526020019081526020015f20905084815f015f6101000a81548173ffffffffffffffffffffffffffffffffffffffff021916908373ffffffffffffffffffffffffffffffffffffffff160217905550612c658361284d565b815f0160146101000a81548165ffffffffffff021916908365ffffffffffff160217905550612c93826137f5565b815f01601a6101000a81548163ffffffff021916908363ffffffff1602179055507f7d84a6263ae0d98d3329bd7b46bb4e8d6f98cd35a7adb45c274c8b7fd5ebd5e084868b8b8d5167ffffffffffffffff811115612cf457612cf3614101565b5b604051908082528060200260200182016040528015612d2757816020015b6060815260200190600190039081612d125790505b508c89898b612d3691906158ac565b8e604051612d4c99989796959493929190615ce0565b60405180910390a150505095945050505050565b6060612d955f7f000000000000000000000000000000000000000000000000000000000000000061384c90919063ffffffff16565b905090565b6060612dd060017f000000000000000000000000000000000000000000000000000000000000000061384c90919063ffffffff16565b905090565b5f612ddf4361284d565b905090565b5f612ded611f22565b73ffffffffffffffffffffffffffffffffffffffff16633a46b1a885856040518363ffffffff1660e01b8152600401612e27929190615d8e565b602060405180830381865afa158015612e42573d5f803e3d5ffd5b505050506040513d601f19601f82011682018060405250810190612e669190615741565b90509392505050565b5f80825f018054905090505f8114612ec757612e99835f01600183612e949190615391565b6136d7565b5f0160069054906101000a900479ffffffffffffffffffffffffffffffffffffffffffffffffffff16612ec9565b5f5b915050919050565b606082612ee657612ee1826138f9565b612eee565b819050612eef565b5b92915050565b606060405180602001604052805f815250905090565b365f8036915091509091565b5f80825f015f9054906101000a90046fffffffffffffffffffffffffffffffff169050825f0160109054906101000a90046fffffffffffffffffffffffffffffffff166fffffffffffffffffffffffffffffffff16816fffffffffffffffffffffffffffffffff1603612f8f57612f8e60316130cd565b5b826001015f826fffffffffffffffffffffffffffffffff166fffffffffffffffffffffffffffffffff1681526020019081526020015f20549150826001015f826fffffffffffffffffffffffffffffffff166fffffffffffffffffffffffffffffffff1681526020019081526020015f205f905560018101835f015f6101000a8154816fffffffffffffffffffffffffffffffff02191690836fffffffffffffffffffffffffffffffff16021790555050919050565b5f79ffffffffffffffffffffffffffffffffffffffffffffffffffff80168211156130aa5760d0826040517f6dfcc6500000000000000000000000000000000000000000000000000000000081526004016130a1929190615dee565b60405180910390fd5b819050919050565b5f806130c1855f01858561393d565b91509150935093915050565b634e487b715f52806020526024601cfd5b5f7f000000000000000000000000000000000000000000000000000000000000000073ffffffffffffffffffffffffffffffffffffffff163073ffffffffffffffffffffffffffffffffffffffff1614801561315957507f000000000000000000000000000000000000000000000000000000000000000046145b15613186577f00000000000000000000000000000000000000000000000000000000000000009050613191565b61318e613c31565b90505b90565b5f6040517f190100000000000000000000000000000000000000000000000000000000000081528360028201528260228201526042812091505092915050565b5f805f6041845103613214575f805f602087015192506040870151915060608701515f1a905061320688828585613cc6565b955095509550505050613222565b5f600285515f1b9250925092505b9250925092565b5f805f8573ffffffffffffffffffffffffffffffffffffffff168585604051602401613256929190615e15565b604051602081830303815290604052631626ba7e60e01b6020820180517bffffffffffffffffffffffffffffffffffffffffffffffffffffffff83818316178352505050506040516132a89190615896565b5f60405180830381855afa9150503d805f81146132e0576040519150601f19603f3d011682016040523d82523d5f602084013e6132e5565b606091505b50915091508180156132f957506020815110155b801561333d5750631626ba7e60e01b7bffffffffffffffffffffffffffffffffffffffffffffffffffffffff19168180602001905181019061333b9190615e57565b145b925050509392505050565b5f8060075f8881526020019081526020015f209050806003015f8773ffffffffffffffffffffffffffffffffffffffff1673ffffffffffffffffffffffffffffffffffffffff1681526020019081526020015f205f9054906101000a900460ff16156133eb57856040517f71c6af490000000000000000000000000000000000000000000000000000000081526004016133e291906140b6565b60405180910390fd5b6001816003015f8873ffffffffffffffffffffffffffffffffffffffff1673ffffffffffffffffffffffffffffffffffffffff1681526020019081526020015f205f6101000a81548160ff0219169083151502179055505f600281111561345557613454614642565b5b60ff168560ff160361347f5783815f015f82825461347391906158ac565b92505081905550613530565b6001600281111561349357613492614642565b5b60ff168560ff16036134be5783816001015f8282546134b291906158ac565b9250508190555061352f565b6002808111156134d1576134d0614642565b5b60ff168560ff16036134fc5783816002015f8282546134f091906158ac565b9250508190555061352e565b6040517f06b337c200000000000000000000000000000000000000000000000000000000815260040160405180910390fd5b5b5b8391505095945050505050565b5f6001821161354e578190506136d2565b5f8290505f60019050700100000000000000000000000000000000821061357e57608082901c9150604081901b90505b68010000000000000000821061359d57604082901c9150602081901b90505b64010000000082106135b857602082901c9150601081901b90505b6201000082106135d157601082901c9150600881901b90505b61010082106135e957600882901c9150600481901b90505b6010821061360057600482901c9150600281901b90505b6004821061361057600181901b90505b600181600302901c9050600181858161362c5761362b6157ad565b5b048201901c90506001818581613645576136446157ad565b5b048201901c9050600181858161365e5761365d6157ad565b5b048201901c90506001818581613677576136766157ad565b5b048201901c905060018185816136905761368f6157ad565b5b048201901c905060018185816136a9576136a86157ad565b5b048201901c90506136cb8185816136c3576136c26157ad565b5b048211613dad565b8103925050505b919050565b5f825f528160205f2001905092915050565b5f5b81831015613753575f6136fe8484613db8565b90508465ffffffffffff1661371387836136d7565b5f015f9054906101000a900465ffffffffffff1665ffffffffffff16111561373d5780925061374d565b60018161374a91906158ac565b93505b506136eb565b819050949350505050565b5f805f8360f81c90508060ff16602f10801561377d5750603a8160ff16105b156137925760016030820392509250506137f0565b8060ff1660401080156137a8575060478160ff16105b156137bd5760016037820392509250506137f0565b8060ff1660601080156137d3575060678160ff16105b156137e85760016057820392509250506137f0565b5f8092509250505b915091565b5f63ffffffff8016821115613844576020826040517f6dfcc65000000000000000000000000000000000000000000000000000000000815260040161383b929190615ebb565b60405180910390fd5b819050919050565b606060ff5f1b83146138685761386183613ddd565b90506138f3565b81805461387490615139565b80601f01602080910402602001604051908101604052809291908181526020018280546138a090615139565b80156138eb5780601f106138c2576101008083540402835291602001916138eb565b820191905f5260205f20905b8154815290600101906020018083116138ce57829003601f168201915b505050505090505b92915050565b5f8151111561390b5780518082602001fd5b6040517fd6bda27500000000000000000000000000000000000000000000000000000000815260040160405180910390fd5b5f805f858054905090505f811115613b49575f613966876001846139619190615391565b6136d7565b90505f815f015f9054906101000a900465ffffffffffff1690505f825f0160069054906101000a900479ffffffffffffffffffffffffffffffffffffffffffffffffffff1690508765ffffffffffff168265ffffffffffff1611156139f7576040517f2520601d00000000000000000000000000000000000000000000000000000000815260040160405180910390fd5b8765ffffffffffff168265ffffffffffff1603613a615786835f0160066101000a81548179ffffffffffffffffffffffffffffffffffffffffffffffffffff021916908379ffffffffffffffffffffffffffffffffffffffffffffffffffff160217905550613b3a565b8860405180604001604052808a65ffffffffffff1681526020018979ffffffffffffffffffffffffffffffffffffffffffffffffffff16815250908060018154018082558091505060019003905f5260205f20015f909190919091505f820151815f015f6101000a81548165ffffffffffff021916908365ffffffffffff1602179055506020820151815f0160066101000a81548179ffffffffffffffffffffffffffffffffffffffffffffffffffff021916908379ffffffffffffffffffffffffffffffffffffffffffffffffffff16021790555050505b80879550955050505050613c29565b8560405180604001604052808765ffffffffffff1681526020018679ffffffffffffffffffffffffffffffffffffffffffffffffffff16815250908060018154018082558091505060019003905f5260205f20015f909190919091505f820151815f015f6101000a81548165ffffffffffff021916908365ffffffffffff1602179055506020820151815f0160066101000a81548179ffffffffffffffffffffffffffffffffffffffffffffffffffff021916908379ffffffffffffffffffffffffffffffffffffffffffffffffffff16021790555050505f8492509250505b935093915050565b5f7f8b73c3c69bb8fe3d512ecc4cf759cc79239f7b179b0ffacaa9a75d522b39400f7f00000000000000000000000000000000000000000000000000000000000000007f00000000000000000000000000000000000000000000000000000000000000004630604051602001613cab959493929190615ee2565b60405160208183030381529060405280519060200120905090565b5f805f7f7fffffffffffffffffffffffffffffff5d576e7357a4501ddfe92f46681b20a0845f1c1115613d02575f600385925092509250613da3565b5f6001888888886040515f8152602001604052604051613d259493929190615f33565b6020604051602081039080840390855afa158015613d45573d5f803e3d5ffd5b5050506020604051035190505f73ffffffffffffffffffffffffffffffffffffffff168173ffffffffffffffffffffffffffffffffffffffff1603613d96575f60015f801b93509350935050613da3565b805f805f1b935093509350505b9450945094915050565b5f8115159050919050565b5f6002828418613dc891906157da565b828416613dd591906158ac565b905092915050565b60605f613de983613e4f565b90505f602067ffffffffffffffff811115613e0757613e06614101565b5b6040519080825280601f01601f191660200182016040528015613e395781602001600182028036833780820191505090505b5090508181528360208201528092505050919050565b5f8060ff835f1c169050601f811115613e94576040517fb3512b0c00000000000000000000000000000000000000000000000000000000815260040160405180910390fd5b80915050919050565b5f604051905090565b5f80fd5b5f80fd5b5f7fffffffff0000000000000000000000000000000000000000000000000000000082169050919050565b613ee281613eae565b8114613eec575f80fd5b50565b5f81359050613efd81613ed9565b92915050565b5f60208284031215613f1857613f17613ea6565b5b5f613f2584828501613eef565b91505092915050565b5f8115159050919050565b613f4281613f2e565b82525050565b5f602082019050613f5b5f830184613f39565b92915050565b5f819050919050565b613f7381613f61565b82525050565b5f602082019050613f8c5f830184613f6a565b92915050565b613f9b81613f61565b8114613fa5575f80fd5b50565b5f81359050613fb681613f92565b92915050565b5f60208284031215613fd157613fd0613ea6565b5b5f613fde84828501613fa8565b91505092915050565b5f81519050919050565b5f82825260208201905092915050565b8281835e5f83830152505050565b5f601f19601f8301169050919050565b5f61402982613fe7565b6140338185613ff1565b9350614043818560208601614001565b61404c8161400f565b840191505092915050565b5f6020820190508181035f83015261406f818461401f565b905092915050565b5f73ffffffffffffffffffffffffffffffffffffffff82169050919050565b5f6140a082614077565b9050919050565b6140b081614096565b82525050565b5f6020820190506140c95f8301846140a7565b92915050565b6140d881614096565b81146140e2575f80fd5b50565b5f813590506140f3816140cf565b92915050565b5f80fd5b5f80fd5b7f4e487b71000000000000000000000000000000000000000000000000000000005f52604160045260245ffd5b6141378261400f565b810181811067ffffffffffffffff8211171561415657614155614101565b5b80604052505050565b5f614168613e9d565b9050614174828261412e565b919050565b5f67ffffffffffffffff82111561419357614192614101565b5b61419c8261400f565b9050602081019050919050565b828183375f83830152505050565b5f6141c96141c484614179565b61415f565b9050828152602081018484840111156141e5576141e46140fd565b5b6141f08482856141a9565b509392505050565b5f82601f83011261420c5761420b6140f9565b5b813561421c8482602086016141b7565b91505092915050565b5f805f806080858703121561423d5761423c613ea6565b5b5f61424a878288016140e5565b945050602061425b878288016140e5565b935050604061426c87828801613fa8565b925050606085013567ffffffffffffffff81111561428d5761428c613eaa565b5b614299878288016141f8565b91505092959194509250565b6142ae81613eae565b82525050565b5f6020820190506142c75f8301846142a5565b92915050565b5f67ffffffffffffffff8211156142e7576142e6614101565b5b602082029050602081019050919050565b5f80fd5b5f61430e614309846142cd565b61415f565b90508083825260208201905060208402830185811115614331576143306142f8565b5b835b8181101561435a578061434688826140e5565b845260208401935050602081019050614333565b5050509392505050565b5f82601f830112614378576143776140f9565b5b81356143888482602086016142fc565b91505092915050565b5f67ffffffffffffffff8211156143ab576143aa614101565b5b602082029050602081019050919050565b5f6143ce6143c984614391565b61415f565b905080838252602082019050602084028301858111156143f1576143f06142f8565b5b835b8181101561441a57806144068882613fa8565b8452602084019350506020810190506143f3565b5050509392505050565b5f82601f830112614438576144376140f9565b5b81356144488482602086016143bc565b91505092915050565b5f67ffffffffffffffff82111561446b5761446a614101565b5b602082029050602081019050919050565b5f61448e61448984614451565b61415f565b905080838252602082019050602084028301858111156144b1576144b06142f8565b5b835b818110156144f857803567ffffffffffffffff8111156144d6576144d56140f9565b5b8086016144e389826141f8565b855260208501945050506020810190506144b3565b5050509392505050565b5f82601f830112614516576145156140f9565b5b813561452684826020860161447c565b91505092915050565b5f819050919050565b6145418161452f565b811461454b575f80fd5b50565b5f8135905061455c81614538565b92915050565b5f805f806080858703121561457a57614579613ea6565b5b5f85013567ffffffffffffffff81111561459757614596613eaa565b5b6145a387828801614364565b945050602085013567ffffffffffffffff8111156145c4576145c3613eaa565b5b6145d087828801614424565b935050604085013567ffffffffffffffff8111156145f1576145f0613eaa565b5b6145fd87828801614502565b925050606061460e8782880161454e565b91505092959194509250565b6146238161452f565b82525050565b5f60208201905061463c5f83018461461a565b92915050565b7f4e487b71000000000000000000000000000000000000000000000000000000005f52602160045260245ffd5b600881106146805761467f614642565b5b50565b5f8190506146908261466f565b919050565b5f61469f82614683565b9050919050565b6146af81614695565b82525050565b5f6020820190506146c85f8301846146a6565b92915050565b5f80604083850312156146e4576146e3613ea6565b5b5f6146f185828601613fa8565b9250506020614702858286016140e5565b9150509250929050565b5f60608201905061471f5f830186613f6a565b61472c6020830185613f6a565b6147396040830184613f6a565b949350505050565b5f60ff82169050919050565b61475681614741565b8114614760575f80fd5b50565b5f813590506147718161474d565b92915050565b5f806040838503121561478d5761478c613ea6565b5b5f61479a85828601613fa8565b92505060206147ab85828601614763565b9150509250929050565b5f80fd5b5f8083601f8401126147ce576147cd6140f9565b5b8235905067ffffffffffffffff8111156147eb576147ea6147b5565b5b602083019150836001820283011115614807576148066142f8565b5b9250929050565b5f805f805f805f60c0888a03121561482957614828613ea6565b5b5f6148368a828b01613fa8565b97505060206148478a828b01614763565b96505060406148588a828b016140e5565b955050606088013567ffffffffffffffff81111561487957614878613eaa565b5b6148858a828b016147b9565b9450945050608088013567ffffffffffffffff8111156148a8576148a7613eaa565b5b6148b48a828b016141f8565b92505060a088013567ffffffffffffffff8111156148d5576148d4613eaa565b5b6148e18a828b016141f8565b91505092959891949750929550565b5f805f805f6080868803121561490957614908613ea6565b5b5f61491688828901613fa8565b955050602061492788828901614763565b945050604086013567ffffffffffffffff81111561494857614947613eaa565b5b614954888289016147b9565b9350935050606086013567ffffffffffffffff81111561497757614976613eaa565b5b614983888289016141f8565b9150509295509295909350565b5f805f80606085870312156149a8576149a7613ea6565b5b5f6149b587828801613fa8565b94505060206149c687828801614763565b935050604085013567ffffffffffffffff8111156149e7576149e6613eaa565b5b6149f3878288016147b9565b925092505092959194509250565b5f67ffffffffffffffff821115614a1b57614a1a614101565b5b614a248261400f565b9050602081019050919050565b5f614a43614a3e84614a01565b61415f565b905082815260208101848484011115614a5f57614a5e6140fd565b5b614a6a8482856141a9565b509392505050565b5f82601f830112614a8657614a856140f9565b5b8135614a96848260208601614a31565b91505092915050565b5f805f8060808587031215614ab757614ab6613ea6565b5b5f85013567ffffffffffffffff811115614ad457614ad3613eaa565b5b614ae087828801614364565b945050602085013567ffffffffffffffff811115614b0157614b00613eaa565b5b614b0d87828801614424565b935050604085013567ffffffffffffffff811115614b2e57614b2d613eaa565b5b614b3a87828801614502565b925050606085013567ffffffffffffffff811115614b5b57614b5a613eaa565b5b614b6787828801614a72565b91505092959194509250565b5f60208284031215614b8857614b87613ea6565b5b5f614b95848285016140e5565b91505092915050565b5f7fff0000000000000000000000000000000000000000000000000000000000000082169050919050565b614bd281614b9e565b82525050565b5f81519050919050565b5f82825260208201905092915050565b5f819050602082019050919050565b614c0a81613f61565b82525050565b5f614c1b8383614c01565b60208301905092915050565b5f602082019050919050565b5f614c3d82614bd8565b614c478185614be2565b9350614c5283614bf2565b805f5b83811015614c82578151614c698882614c10565b9750614c7483614c27565b925050600181019050614c55565b5085935050505092915050565b5f60e082019050614ca25f83018a614bc9565b8181036020830152614cb4818961401f565b90508181036040830152614cc8818861401f565b9050614cd76060830187613f6a565b614ce460808301866140a7565b614cf160a083018561461a565b81810360c0830152614d038184614c33565b905098975050505050505050565b5f805f8060808587031215614d2957614d28613ea6565b5b5f614d3687828801613fa8565b9450506020614d4787828801614763565b9350506040614d58878288016140e5565b925050606085013567ffffffffffffffff811115614d7957614d78613eaa565b5b614d85878288016141f8565b91505092959194509250565b5f65ffffffffffff82169050919050565b614dab81614d91565b82525050565b5f602082019050614dc45f830184614da2565b92915050565b5f805f60608486031215614de157614de0613ea6565b5b5f614dee868287016140e5565b9350506020614dff86828701613fa8565b925050604084013567ffffffffffffffff811115614e2057614e1f613eaa565b5b614e2c868287016141f8565b9150509250925092565b5f805f805f60a08688031215614e4f57614e4e613ea6565b5b5f614e5c888289016140e5565b9550506020614e6d888289016140e5565b945050604086013567ffffffffffffffff811115614e8e57614e8d613eaa565b5b614e9a88828901614424565b935050606086013567ffffffffffffffff811115614ebb57614eba613eaa565b5b614ec788828901614424565b925050608086013567ffffffffffffffff811115614ee857614ee7613eaa565b5b614ef4888289016141f8565b9150509295509295909350565b5f8083601f840112614f1657614f156140f9565b5b8235905067ffffffffffffffff811115614f3357614f326147b5565b5b602083019150836001820283011115614f4f57614f4e6142f8565b5b9250929050565b5f805f8060608587031215614f6e57614f6d613ea6565b5b5f614f7b878288016140e5565b9450506020614f8c87828801613fa8565b935050604085013567ffffffffffffffff811115614fad57614fac613eaa565b5b614fb987828801614f01565b925092505092959194509250565b5f8060408385031215614fdd57614fdc613ea6565b5b5f614fea858286016140e5565b9250506020614ffb85828601613fa8565b9150509250929050565b5f805f805f60a0868803121561501e5761501d613ea6565b5b5f61502b888289016140e5565b955050602061503c888289016140e5565b945050604061504d88828901613fa8565b935050606061505e88828901613fa8565b925050608086013567ffffffffffffffff81111561507f5761507e613eaa565b5b61508b888289016141f8565b9150509295509295909350565b5f819050919050565b5f6150bb6150b66150b184614077565b615098565b614077565b9050919050565b5f6150cc826150a1565b9050919050565b5f6150dd826150c2565b9050919050565b6150ed816150d3565b82525050565b5f6020820190506151065f8301846150e4565b92915050565b7f4e487b71000000000000000000000000000000000000000000000000000000005f52602260045260245ffd5b5f600282049050600182168061515057607f821691505b6020821081036151635761516261510c565b5b50919050565b5f61518361517e61517984614d91565b615098565b613f61565b9050919050565b61519381615169565b82525050565b5f6040820190506151ac5f830185613f6a565b6151b9602083018461518a565b9392505050565b7f4e487b71000000000000000000000000000000000000000000000000000000005f52603260045260245ffd5b5f6151ff6151fa84614a01565b61415f565b90508281526020810184848401111561521b5761521a6140fd565b5b615226848285614001565b509392505050565b5f82601f830112615242576152416140f9565b5b81516152528482602086016151ed565b91505092915050565b5f602082840312156152705761526f613ea6565b5b5f82015167ffffffffffffffff81111561528d5761528c613eaa565b5b6152998482850161522e565b91505092915050565b5f81905092915050565b5f6152b783856152a2565b93506152c48385846141a9565b82840190509392505050565b5f6152dc8284866152ac565b91508190509392505050565b6152f181614741565b82525050565b5f60e08201905061530a5f83018a61461a565b6153176020830189613f6a565b61532460408301886152e8565b61533160608301876140a7565b61533e6080830186613f6a565b61534b60a083018561461a565b61535860c083018461461a565b98975050505050505050565b7f4e487b71000000000000000000000000000000000000000000000000000000005f52601160045260245ffd5b5f61539b82613f61565b91506153a683613f61565b92508282039050818111156153be576153bd615364565b5b92915050565b5f6153ce82614d91565b91506153d983614d91565b9250828203905065ffffffffffff8111156153f7576153f6615364565b5b92915050565b5f6060820190506154105f8301866140a7565b61541d6020830185613f6a565b61542a6040830184613f6a565b949350505050565b5f60a0820190506154455f83018861461a565b6154526020830187613f6a565b61545f60408301866152e8565b61546c60608301856140a7565b6154796080830184613f6a565b9695505050505050565b61548c81614d91565b8114615496575f80fd5b50565b5f815190506154a781615483565b92915050565b5f602082840312156154c2576154c1613ea6565b5b5f6154cf84828501615499565b91505092915050565b5f6154e282614d91565b91506154ed83614d91565b9250828201905065ffffffffffff81111561550b5761550a615364565b5b92915050565b5f81519050919050565b5f82825260208201905092915050565b5f819050602082019050919050565b61554381614096565b82525050565b5f615554838361553a565b60208301905092915050565b5f602082019050919050565b5f61557682615511565b615580818561551b565b935061558b8361552b565b805f5b838110156155bb5781516155a28882615549565b97506155ad83615560565b92505060018101905061558e565b5085935050505092915050565b5f81519050919050565b5f82825260208201905092915050565b5f819050602082019050919050565b5f81519050919050565b5f82825260208201905092915050565b5f615615826155f1565b61561f81856155fb565b935061562f818560208601614001565b6156388161400f565b840191505092915050565b5f61564e838361560b565b905092915050565b5f602082019050919050565b5f61566c826155c8565b61567681856155d2565b935083602082028501615688856155e2565b805f5b858110156156c357848403895281516156a48582615643565b94506156af83615656565b925060208a0199505060018101905061568b565b50829750879550505050505092915050565b5f6080820190508181035f8301526156ed818761556c565b905081810360208301526157018186614c33565b905081810360408301526157158185615662565b9050615724606083018461461a565b95945050505050565b5f8151905061573b81613f92565b92915050565b5f6020828403121561575657615755613ea6565b5b5f6157638482850161572d565b91505092915050565b5f61577682613f61565b915061578183613f61565b925082820261578f81613f61565b915082820484148315176157a6576157a5615364565b5b5092915050565b7f4e487b71000000000000000000000000000000000000000000000000000000005f52601260045260245ffd5b5f6157e482613f61565b91506157ef83613f61565b9250826157ff576157fe6157ad565b5b828204905092915050565b5f60408201905061581d5f830185613f6a565b61582a6020830184613f6a565b9392505050565b5f6060820190506158445f830186613f6a565b61585160208301856146a6565b61585e604083018461461a565b949350505050565b5f615870826155f1565b61587a81856152a2565b935061588a818560208601614001565b80840191505092915050565b5f6158a18284615866565b915081905092915050565b5f6158b682613f61565b91506158c183613f61565b92508282019050808211156158d9576158d8615364565b5b92915050565b5f6158e982614741565b91506158f483614741565b9250828201905060ff81111561590d5761590c615364565b5b92915050565b5f8160011c9050919050565b5f808291508390505b60018511156159685780860481111561594457615943615364565b5b60018516156159535780820291505b808102905061596185615913565b9450615928565b94509492505050565b5f826159805760019050615a3b565b8161598d575f9050615a3b565b81600181146159a357600281146159ad576159dc565b6001915050615a3b565b60ff8411156159bf576159be615364565b5b8360020a9150848211156159d6576159d5615364565b5b50615a3b565b5060208310610133831016604e8410600b8410161715615a115782820a905083811115615a0c57615a0b615364565b5b615a3b565b615a1e848484600161591f565b92509050818404811115615a3557615a34615364565b5b81810290505b9392505050565b5f615a4c82613f61565b9150615a5783614741565b9250615a847fffffffffffffffffffffffffffffffffffffffffffffffffffffffffffffffff8484615971565b905092915050565b5f608082019050615a9f5f830187613f6a565b615aac60208301866152e8565b615ab96040830185613f6a565b8181036060830152615acb818461401f565b905095945050505050565b5f82825260208201905092915050565b5f615af0826155f1565b615afa8185615ad6565b9350615b0a818560208601614001565b615b138161400f565b840191505092915050565b5f60a082019050615b315f830188613f6a565b615b3e60208301876152e8565b615b4b6040830186613f6a565b8181036060830152615b5d818561401f565b90508181036080830152615b718184615ae6565b90509695505050505050565b5f819050919050565b5f615ba0615b9b615b9684615b7d565b615098565b614741565b9050919050565b615bb081615b86565b82525050565b5f604082019050615bc95f830185615ba7565b615bd66020830184613f6a565b9392505050565b5f81519050919050565b5f82825260208201905092915050565b5f819050602082019050919050565b5f82825260208201905092915050565b5f615c2082613fe7565b615c2a8185615c06565b9350615c3a818560208601614001565b615c438161400f565b840191505092915050565b5f615c598383615c16565b905092915050565b5f602082019050919050565b5f615c7782615bdd565b615c818185615be7565b935083602082028501615c9385615bf7565b805f5b85811015615cce5784840389528151615caf8582615c4e565b9450615cba83615c61565b925060208a01995050600181019050615c96565b50829750879550505050505092915050565b5f61012082019050615cf45f83018c613f6a565b615d01602083018b6140a7565b8181036040830152615d13818a61556c565b90508181036060830152615d278189614c33565b90508181036080830152615d3b8188615c6d565b905081810360a0830152615d4f8187615662565b9050615d5e60c0830186613f6a565b615d6b60e0830185613f6a565b818103610100830152615d7e818461401f565b90509a9950505050505050505050565b5f604082019050615da15f8301856140a7565b615dae6020830184613f6a565b9392505050565b5f819050919050565b5f615dd8615dd3615dce84615db5565b615098565b614741565b9050919050565b615de881615dbe565b82525050565b5f604082019050615e015f830185615ddf565b615e0e6020830184613f6a565b9392505050565b5f604082019050615e285f83018561461a565b8181036020830152615e3a8184615ae6565b90509392505050565b5f81519050615e5181614538565b92915050565b5f60208284031215615e6c57615e6b613ea6565b5b5f615e7984828501615e43565b91505092915050565b5f819050919050565b5f615ea5615ea0615e9b84615e82565b615098565b614741565b9050919050565b615eb581615e8b565b82525050565b5f604082019050615ece5f830185615eac565b615edb6020830184613f6a565b9392505050565b5f60a082019050615ef55f83018861461a565b615f02602083018761461a565b615f0f604083018661461a565b615f1c6060830185613f6a565b615f2960808301846140a7565b9695505050505050565b5f608082019050615f465f83018761461a565b615f5360208301866152e8565b615f60604083018561461a565b615f6d606083018461461a565b9594505050505056fea2646970667358221220ec190980cabd4a8cc31848bc6bf2090d3c60c85bcb09cc06901687a008e6af8f64736f6c634300081a0033",
			"opcodes": "PUSH2 0x180 PUSH1 0x40 MSTORE CALLVALUE DUP1 ISZERO PUSH2 0x10 JUMPI PUSH0 DUP1 REVERT JUMPDEST POP PUSH1 0x40 MLOAD PUSH2 0x6FE9 CODESIZE SUB DUP1 PUSH2 0x6FE9 DUP4 CODECOPY DUP2 DUP2 ADD PUSH1 0x40 MSTORE DUP2 ADD SWAP1 PUSH2 0x32 SWAP2 SWAP1 PUSH2 0x955 JUMP JUMPDEST PUSH1 0x4 DUP2 PUSH1 0x40 MLOAD DUP1 PUSH1 0x40 ADD PUSH1 0x40 MSTORE DUP1 PUSH1 0xA DUP2 MSTORE PUSH1 0x20 ADD PUSH32 0x4D79476F7665726E6F7200000000000000000000000000000000000000000000 DUP2 MSTORE POP DUP1 PUSH2 0x7A PUSH2 0x180 PUSH1 0x20 SHL PUSH1 0x20 SHR JUMP JUMPDEST PUSH2 0x8D PUSH0 DUP4 PUSH2 0x1BD PUSH1 0x20 SHL SWAP1 SWAP2 SWAP1 PUSH1 0x20 SHR JUMP JUMPDEST PUSH2 0x120 DUP2 DUP2 MSTORE POP POP PUSH2 0xA9 PUSH1 0x1 DUP3 PUSH2 0x1BD PUSH1 0x20 SHL SWAP1 SWAP2 SWAP1 PUSH1 0x20 SHR JUMP JUMPDEST PUSH2 0x140 DUP2 DUP2 MSTORE POP POP DUP2 DUP1 MLOAD SWAP1 PUSH1 0x20 ADD KECCAK256 PUSH1 0xE0 DUP2 DUP2 MSTORE POP POP DUP1 DUP1 MLOAD SWAP1 PUSH1 0x20 ADD KECCAK256 PUSH2 0x100 DUP2 DUP2 MSTORE POP POP CHAINID PUSH1 0xA0 DUP2 DUP2 MSTORE POP POP PUSH2 0xE6 PUSH2 0x20A PUSH1 0x20 SHL PUSH1 0x20 SHR JUMP JUMPDEST PUSH1 0x80 DUP2 DUP2 MSTORE POP POP ADDRESS PUSH20 0xFFFFFFFFFFFFFFFFFFFFFFFFFFFFFFFFFFFFFFFF AND PUSH1 0xC0 DUP2 PUSH20 0xFFFFFFFFFFFFFFFFFFFFFFFFFFFFFFFFFFFFFFFF AND DUP2 MSTORE POP POP POP POP DUP1 PUSH1 0x3 SWAP1 DUP2 PUSH2 0x132 SWAP2 SWAP1 PUSH2 0xBBA JUMP JUMPDEST POP POP DUP1 PUSH20 0xFFFFFFFFFFFFFFFFFFFFFFFFFFFFFFFFFFFFFFFF AND PUSH2 0x160 DUP2 PUSH20 0xFFFFFFFFFFFFFFFFFFFFFFFFFFFFFFFFFFFFFFFF AND DUP2 MSTORE POP POP POP PUSH2 0x179 DUP2 PUSH2 0x264 PUSH1 0x20 SHL PUSH1 0x20 SHR JUMP JUMPDEST POP POP PUSH2 0xFE2 JUMP JUMPDEST PUSH1 0x60 PUSH1 0x40 MLOAD DUP1 PUSH1 0x40 ADD PUSH1 0x40 MSTORE DUP1 PUSH1 0x1 DUP2 MSTORE PUSH1 0x20 ADD PUSH32 0x3100000000000000000000000000000000000000000000000000000000000000 DUP2 MSTORE POP SWAP1 POP SWAP1 JUMP JUMPDEST PUSH0 PUSH1 0x20 DUP4 MLOAD LT ISZERO PUSH2 0x1DE JUMPI PUSH2 0x1D7 DUP4 PUSH2 0x33E PUSH1 0x20 SHL PUSH1 0x20 SHR JUMP JUMPDEST SWAP1 POP PUSH2 0x204 JUMP JUMPDEST DUP3 PUSH2 0x1EE DUP4 PUSH2 0x3A3 PUSH1 0x20 SHL PUSH1 0x20 SHR JUMP JUMPDEST PUSH0 ADD SWAP1 DUP2 PUSH2 0x1FC SWAP2 SWAP1 PUSH2 0xBBA JUMP JUMPDEST POP PUSH1 0xFF PUSH0 SHL SWAP1 POP JUMPDEST SWAP3 SWAP2 POP POP JUMP JUMPDEST PUSH0 PUSH32 0x8B73C3C69BB8FE3D512ECC4CF759CC79239F7B179B0FFACAA9A75D522B39400F PUSH1 0xE0 MLOAD PUSH2 0x100 MLOAD CHAINID ADDRESS PUSH1 0x40 MLOAD PUSH1 0x20 ADD PUSH2 0x249 SWAP6 SWAP5 SWAP4 SWAP3 SWAP2 SWAP1 PUSH2 0xCBF JUMP JUMPDEST PUSH1 0x40 MLOAD PUSH1 0x20 DUP2 DUP4 SUB SUB DUP2 MSTORE SWAP1 PUSH1 0x40 MSTORE DUP1 MLOAD SWAP1 PUSH1 0x20 ADD KECCAK256 SWAP1 POP SWAP1 JUMP JUMPDEST PUSH0 PUSH2 0x273 PUSH2 0x3AC PUSH1 0x20 SHL PUSH1 0x20 SHR JUMP JUMPDEST SWAP1 POP DUP1 DUP3 GT ISZERO PUSH2 0x2BC JUMPI DUP2 DUP2 PUSH1 0x40 MLOAD PUSH32 0x243E544500000000000000000000000000000000000000000000000000000000 DUP2 MSTORE PUSH1 0x4 ADD PUSH2 0x2B3 SWAP3 SWAP2 SWAP1 PUSH2 0xD10 JUMP JUMPDEST PUSH1 0x40 MLOAD DUP1 SWAP2 SUB SWAP1 REVERT JUMPDEST PUSH0 PUSH2 0x2CB PUSH2 0x3B4 PUSH1 0x20 SHL PUSH1 0x20 SHR JUMP JUMPDEST SWAP1 POP PUSH2 0x2FE PUSH2 0x2DE PUSH2 0x3E6 PUSH1 0x20 SHL PUSH1 0x20 SHR JUMP JUMPDEST PUSH2 0x2ED DUP6 PUSH2 0x47D PUSH1 0x20 SHL PUSH1 0x20 SHR JUMP JUMPDEST PUSH1 0x8 PUSH2 0x4EA PUSH1 0x20 SHL SWAP1 SWAP3 SWAP2 SWAP1 PUSH1 0x20 SHR JUMP JUMPDEST POP POP PUSH32 0x553476BF02EF2726E8CE5CED78D63E26E602E4A2257B1F559418E24B4633997 DUP2 DUP5 PUSH1 0x40 MLOAD PUSH2 0x331 SWAP3 SWAP2 SWAP1 PUSH2 0xD10 JUMP JUMPDEST PUSH1 0x40 MLOAD DUP1 SWAP2 SUB SWAP1 LOG1 POP POP POP JUMP JUMPDEST PUSH0 DUP1 DUP3 SWAP1 POP PUSH1 0x1F DUP2 MLOAD GT ISZERO PUSH2 0x38A JUMPI DUP3 PUSH1 0x40 MLOAD PUSH32 0x305A27A900000000000000000000000000000000000000000000000000000000 DUP2 MSTORE PUSH1 0x4 ADD PUSH2 0x381 SWAP2 SWAP1 PUSH2 0xD9D JUMP JUMPDEST PUSH1 0x40 MLOAD DUP1 SWAP2 SUB SWAP1 REVERT JUMPDEST DUP1 MLOAD DUP2 PUSH2 0x396 SWAP1 PUSH2 0xDEA JUMP JUMPDEST PUSH0 SHR OR PUSH0 SHL SWAP2 POP POP SWAP2 SWAP1 POP JUMP JUMPDEST PUSH0 DUP2 SWAP1 POP SWAP2 SWAP1 POP JUMP JUMPDEST PUSH0 PUSH1 0x64 SWAP1 POP SWAP1 JUMP JUMPDEST PUSH0 PUSH2 0x3C5 PUSH1 0x8 PUSH2 0x50B PUSH1 0x20 SHL PUSH1 0x20 SHR JUMP JUMPDEST PUSH26 0xFFFFFFFFFFFFFFFFFFFFFFFFFFFFFFFFFFFFFFFFFFFFFFFFFFFF AND SWAP1 POP SWAP1 JUMP JUMPDEST PUSH0 PUSH2 0x3F5 PUSH2 0x573 PUSH1 0x20 SHL PUSH1 0x20 SHR JUMP JUMPDEST PUSH20 0xFFFFFFFFFFFFFFFFFFFFFFFFFFFFFFFFFFFFFFFF AND PUSH4 0x91DDADF4 PUSH1 0x40 MLOAD DUP2 PUSH4 0xFFFFFFFF AND PUSH1 0xE0 SHL DUP2 MSTORE PUSH1 0x4 ADD PUSH1 0x20 PUSH1 0x40 MLOAD DUP1 DUP4 SUB DUP2 DUP7 GAS STATICCALL SWAP3 POP POP POP DUP1 ISZERO PUSH2 0x45C JUMPI POP PUSH1 0x40 MLOAD RETURNDATASIZE PUSH1 0x1F NOT PUSH1 0x1F DUP3 ADD AND DUP3 ADD DUP1 PUSH1 0x40 MSTORE POP DUP2 ADD SWAP1 PUSH2 0x459 SWAP2 SWAP1 PUSH2 0xE8B JUMP JUMPDEST PUSH1 0x1 JUMPDEST PUSH2 0x475 JUMPI PUSH2 0x46E PUSH2 0x57D PUSH1 0x20 SHL PUSH1 0x20 SHR JUMP JUMPDEST SWAP1 POP PUSH2 0x47A JUMP JUMPDEST DUP1 SWAP2 POP POP JUMPDEST SWAP1 JUMP JUMPDEST PUSH0 PUSH26 0xFFFFFFFFFFFFFFFFFFFFFFFFFFFFFFFFFFFFFFFFFFFFFFFFFFFF DUP1 AND DUP3 GT ISZERO PUSH2 0x4E2 JUMPI PUSH1 0xD0 DUP3 PUSH1 0x40 MLOAD PUSH32 0x6DFCC65000000000000000000000000000000000000000000000000000000000 DUP2 MSTORE PUSH1 0x4 ADD PUSH2 0x4D9 SWAP3 SWAP2 SWAP1 PUSH2 0xEFB JUMP JUMPDEST PUSH1 0x40 MLOAD DUP1 SWAP2 SUB SWAP1 REVERT JUMPDEST DUP2 SWAP1 POP SWAP2 SWAP1 POP JUMP JUMPDEST PUSH0 DUP1 PUSH2 0x4FF DUP6 PUSH0 ADD DUP6 DUP6 PUSH2 0x592 PUSH1 0x20 SHL PUSH1 0x20 SHR JUMP JUMPDEST SWAP2 POP SWAP2 POP SWAP4 POP SWAP4 SWAP2 POP POP JUMP JUMPDEST PUSH0 DUP1 DUP3 PUSH0 ADD DUP1 SLOAD SWAP1 POP SWAP1 POP PUSH0 DUP2 EQ PUSH2 0x569 JUMPI PUSH2 0x53B DUP4 PUSH0 ADD PUSH1 0x1 DUP4 PUSH2 0x530 SWAP2 SWAP1 PUSH2 0xF4F JUMP JUMPDEST PUSH2 0x88C PUSH1 0x20 SHL PUSH1 0x20 SHR JUMP JUMPDEST PUSH0 ADD PUSH1 0x6 SWAP1 SLOAD SWAP1 PUSH2 0x100 EXP SWAP1 DIV PUSH26 0xFFFFFFFFFFFFFFFFFFFFFFFFFFFFFFFFFFFFFFFFFFFFFFFFFFFF AND PUSH2 0x56B JUMP JUMPDEST PUSH0 JUMPDEST SWAP2 POP POP SWAP2 SWAP1 POP JUMP JUMPDEST PUSH0 PUSH2 0x160 MLOAD SWAP1 POP SWAP1 JUMP JUMPDEST PUSH0 PUSH2 0x58D NUMBER PUSH2 0x89E PUSH1 0x20 SHL PUSH1 0x20 SHR JUMP JUMPDEST SWAP1 POP SWAP1 JUMP JUMPDEST PUSH0 DUP1 PUSH0 DUP6 DUP1 SLOAD SWAP1 POP SWAP1 POP PUSH0 DUP2 GT ISZERO PUSH2 0x7A4 JUMPI PUSH0 PUSH2 0x5C1 DUP8 PUSH1 0x1 DUP5 PUSH2 0x5B6 SWAP2 SWAP1 PUSH2 0xF4F JUMP JUMPDEST PUSH2 0x88C PUSH1 0x20 SHL PUSH1 0x20 SHR JUMP JUMPDEST SWAP1 POP PUSH0 DUP2 PUSH0 ADD PUSH0 SWAP1 SLOAD SWAP1 PUSH2 0x100 EXP SWAP1 DIV PUSH6 0xFFFFFFFFFFFF AND SWAP1 POP PUSH0 DUP3 PUSH0 ADD PUSH1 0x6 SWAP1 SLOAD SWAP1 PUSH2 0x100 EXP SWAP1 DIV PUSH26 0xFFFFFFFFFFFFFFFFFFFFFFFFFFFFFFFFFFFFFFFFFFFFFFFFFFFF AND SWAP1 POP DUP8 PUSH6 0xFFFFFFFFFFFF AND DUP3 PUSH6 0xFFFFFFFFFFFF AND GT ISZERO PUSH2 0x652 JUMPI PUSH1 0x40 MLOAD PUSH32 0x2520601D00000000000000000000000000000000000000000000000000000000 DUP2 MSTORE PUSH1 0x4 ADD PUSH1 0x40 MLOAD DUP1 SWAP2 SUB SWAP1 REVERT JUMPDEST DUP8 PUSH6 0xFFFFFFFFFFFF AND DUP3 PUSH6 0xFFFFFFFFFFFF AND SUB PUSH2 0x6BC JUMPI DUP7 DUP4 PUSH0 ADD PUSH1 0x6 PUSH2 0x100 EXP DUP2 SLOAD DUP2 PUSH26 0xFFFFFFFFFFFFFFFFFFFFFFFFFFFFFFFFFFFFFFFFFFFFFFFFFFFF MUL NOT AND SWAP1 DUP4 PUSH26 0xFFFFFFFFFFFFFFFFFFFFFFFFFFFFFFFFFFFFFFFFFFFFFFFFFFFF AND MUL OR SWAP1 SSTORE POP PUSH2 0x795 JUMP JUMPDEST DUP9 PUSH1 0x40 MLOAD DUP1 PUSH1 0x40 ADD PUSH1 0x40 MSTORE DUP1 DUP11 PUSH6 0xFFFFFFFFFFFF AND DUP2 MSTORE PUSH1 0x20 ADD DUP10 PUSH26 0xFFFFFFFFFFFFFFFFFFFFFFFFFFFFFFFFFFFFFFFFFFFFFFFFFFFF AND DUP2 MSTORE POP SWAP1 DUP1 PUSH1 0x1 DUP2 SLOAD ADD DUP1 DUP3 SSTORE DUP1 SWAP2 POP POP PUSH1 0x1 SWAP1 SUB SWAP1 PUSH0 MSTORE PUSH1 0x20 PUSH0 KECCAK256 ADD PUSH0 SWAP1 SWAP2 SWAP1 SWAP2 SWAP1 SWAP2 POP PUSH0 DUP3 ADD MLOAD DUP2 PUSH0 ADD PUSH0 PUSH2 0x100 EXP DUP2 SLOAD DUP2 PUSH6 0xFFFFFFFFFFFF MUL NOT AND SWAP1 DUP4 PUSH6 0xFFFFFFFFFFFF AND MUL OR SWAP1 SSTORE POP PUSH1 0x20 DUP3 ADD MLOAD DUP2 PUSH0 ADD PUSH1 0x6 PUSH2 0x100 EXP DUP2 SLOAD DUP2 PUSH26 0xFFFFFFFFFFFFFFFFFFFFFFFFFFFFFFFFFFFFFFFFFFFFFFFFFFFF MUL NOT AND SWAP1 DUP4 PUSH26 0xFFFFFFFFFFFFFFFFFFFFFFFFFFFFFFFFFFFFFFFFFFFFFFFFFFFF AND MUL OR SWAP1 SSTORE POP POP POP JUMPDEST DUP1 DUP8 SWAP6 POP SWAP6 POP POP POP POP POP PUSH2 0x884 JUMP JUMPDEST DUP6 PUSH1 0x40 MLOAD DUP1 PUSH1 0x40 ADD PUSH1 0x40 MSTORE DUP1 DUP8 PUSH6 0xFFFFFFFFFFFF AND DUP2 MSTORE PUSH1 0x20 ADD DUP7 PUSH26 0xFFFFFFFFFFFFFFFFFFFFFFFFFFFFFFFFFFFFFFFFFFFFFFFFFFFF AND DUP2 MSTORE POP SWAP1 DUP1 PUSH1 0x1 DUP2 SLOAD ADD DUP1 DUP3 SSTORE DUP1 SWAP2 POP POP PUSH1 0x1 SWAP1 SUB SWAP1 PUSH0 MSTORE PUSH1 0x20 PUSH0 KECCAK256 ADD PUSH0 SWAP1 SWAP2 SWAP1 SWAP2 SWAP1 SWAP2 POP PUSH0 DUP3 ADD MLOAD DUP2 PUSH0 ADD PUSH0 PUSH2 0x100 EXP DUP2 SLOAD DUP2 PUSH6 0xFFFFFFFFFFFF MUL NOT AND SWAP1 DUP4 PUSH6 0xFFFFFFFFFFFF AND MUL OR SWAP1 SSTORE POP PUSH1 0x20 DUP3 ADD MLOAD DUP2 PUSH0 ADD PUSH1 0x6 PUSH2 0x100 EXP DUP2 SLOAD DUP2 PUSH26 0xFFFFFFFFFFFFFFFFFFFFFFFFFFFFFFFFFFFFFFFFFFFFFFFFFFFF MUL NOT AND SWAP1 DUP4 PUSH26 0xFFFFFFFFFFFFFFFFFFFFFFFFFFFFFFFFFFFFFFFFFFFFFFFFFFFF AND MUL OR SWAP1 SSTORE POP POP POP PUSH0 DUP5 SWAP3 POP SWAP3 POP POP JUMPDEST SWAP4 POP SWAP4 SWAP2 POP POP JUMP JUMPDEST PUSH0 DUP3 PUSH0 MSTORE DUP2 PUSH1 0x20 PUSH0 KECCAK256 ADD SWAP1 POP SWAP3 SWAP2 POP POP JUMP JUMPDEST PUSH0 PUSH6 0xFFFFFFFFFFFF DUP1 AND DUP3 GT ISZERO PUSH2 0x8EF JUMPI PUSH1 0x30 DUP3 PUSH1 0x40 MLOAD PUSH32 0x6DFCC65000000000000000000000000000000000000000000000000000000000 DUP2 MSTORE PUSH1 0x4 ADD PUSH2 0x8E6 SWAP3 SWAP2 SWAP1 PUSH2 0xFBB JUMP JUMPDEST PUSH1 0x40 MLOAD DUP1 SWAP2 SUB SWAP1 REVERT JUMPDEST DUP2 SWAP1 POP SWAP2 SWAP1 POP JUMP JUMPDEST PUSH0 DUP1 REVERT JUMPDEST PUSH0 PUSH20 0xFFFFFFFFFFFFFFFFFFFFFFFFFFFFFFFFFFFFFFFF DUP3 AND SWAP1 POP SWAP2 SWAP1 POP JUMP JUMPDEST PUSH0 PUSH2 0x924 DUP3 PUSH2 0x8FB JUMP JUMPDEST SWAP1 POP SWAP2 SWAP1 POP JUMP JUMPDEST PUSH2 0x934 DUP2 PUSH2 0x91A JUMP JUMPDEST DUP2 EQ PUSH2 0x93E JUMPI PUSH0 DUP1 REVERT JUMPDEST POP JUMP JUMPDEST PUSH0 DUP2 MLOAD SWAP1 POP PUSH2 0x94F DUP2 PUSH2 0x92B JUMP JUMPDEST SWAP3 SWAP2 POP POP JUMP JUMPDEST PUSH0 PUSH1 0x20 DUP3 DUP5 SUB SLT ISZERO PUSH2 0x96A JUMPI PUSH2 0x969 PUSH2 0x8F7 JUMP JUMPDEST JUMPDEST PUSH0 PUSH2 0x977 DUP5 DUP3 DUP6 ADD PUSH2 0x941 JUMP JUMPDEST SWAP2 POP POP SWAP3 SWAP2 POP POP JUMP JUMPDEST PUSH0 DUP2 MLOAD SWAP1 POP SWAP2 SWAP1 POP JUMP JUMPDEST PUSH32 0x4E487B7100000000000000000000000000000000000000000000000000000000 PUSH0 MSTORE PUSH1 0x41 PUSH1 0x4 MSTORE PUSH1 0x24 PUSH0 REVERT JUMPDEST PUSH32 0x4E487B7100000000000000000000000000000000000000000000000000000000 PUSH0 MSTORE PUSH1 0x22 PUSH1 0x4 MSTORE PUSH1 0x24 PUSH0 REVERT JUMPDEST PUSH0 PUSH1 0x2 DUP3 DIV SWAP1 POP PUSH1 0x1 DUP3 AND DUP1 PUSH2 0x9FB JUMPI PUSH1 0x7F DUP3 AND SWAP2 POP JUMPDEST PUSH1 0x20 DUP3 LT DUP2 SUB PUSH2 0xA0E JUMPI PUSH2 0xA0D PUSH2 0x9B7 JUMP JUMPDEST JUMPDEST POP SWAP2 SWAP1 POP JUMP JUMPDEST PUSH0 DUP2 SWAP1 POP DUP2 PUSH0 MSTORE PUSH1 0x20 PUSH0 KECCAK256 SWAP1 POP SWAP2 SWAP1 POP JUMP JUMPDEST PUSH0 PUSH1 0x20 PUSH1 0x1F DUP4 ADD DIV SWAP1 POP SWAP2 SWAP1 POP JUMP JUMPDEST PUSH0 DUP3 DUP3 SHL SWAP1 POP SWAP3 SWAP2 POP POP JUMP JUMPDEST PUSH0 PUSH1 0x8 DUP4 MUL PUSH2 0xA70 PUSH32 0xFFFFFFFFFFFFFFFFFFFFFFFFFFFFFFFFFFFFFFFFFFFFFFFFFFFFFFFFFFFFFFFF DUP3 PUSH2 0xA35 JUMP JUMPDEST PUSH2 0xA7A DUP7 DUP4 PUSH2 0xA35 JUMP JUMPDEST SWAP6 POP DUP1 NOT DUP5 AND SWAP4 POP DUP1 DUP7 AND DUP5 OR SWAP3 POP POP POP SWAP4 SWAP3 POP POP POP JUMP JUMPDEST PUSH0 DUP2 SWAP1 POP SWAP2 SWAP1 POP JUMP JUMPDEST PUSH0 DUP2 SWAP1 POP SWAP2 SWAP1 POP JUMP JUMPDEST PUSH0 PUSH2 0xABE PUSH2 0xAB9 PUSH2 0xAB4 DUP5 PUSH2 0xA92 JUMP JUMPDEST PUSH2 0xA9B JUMP JUMPDEST PUSH2 0xA92 JUMP JUMPDEST SWAP1 POP SWAP2 SWAP1 POP JUMP JUMPDEST PUSH0 DUP2 SWAP1 POP SWAP2 SWAP1 POP JUMP JUMPDEST PUSH2 0xAD7 DUP4 PUSH2 0xAA4 JUMP JUMPDEST PUSH2 0xAEB PUSH2 0xAE3 DUP3 PUSH2 0xAC5 JUMP JUMPDEST DUP5 DUP5 SLOAD PUSH2 0xA41 JUMP JUMPDEST DUP3 SSTORE POP POP POP POP JUMP JUMPDEST PUSH0 SWAP1 JUMP JUMPDEST PUSH2 0xAFF PUSH2 0xAF3 JUMP JUMPDEST PUSH2 0xB0A DUP2 DUP5 DUP5 PUSH2 0xACE JUMP JUMPDEST POP POP POP JUMP JUMPDEST JUMPDEST DUP2 DUP2 LT ISZERO PUSH2 0xB2D JUMPI PUSH2 0xB22 PUSH0 DUP3 PUSH2 0xAF7 JUMP JUMPDEST PUSH1 0x1 DUP2 ADD SWAP1 POP PUSH2 0xB10 JUMP JUMPDEST POP POP JUMP JUMPDEST PUSH1 0x1F DUP3 GT ISZERO PUSH2 0xB72 JUMPI PUSH2 0xB43 DUP2 PUSH2 0xA14 JUMP JUMPDEST PUSH2 0xB4C DUP5 PUSH2 0xA26 JUMP JUMPDEST DUP2 ADD PUSH1 0x20 DUP6 LT ISZERO PUSH2 0xB5B JUMPI DUP2 SWAP1 POP JUMPDEST PUSH2 0xB6F PUSH2 0xB67 DUP6 PUSH2 0xA26 JUMP JUMPDEST DUP4 ADD DUP3 PUSH2 0xB0F JUMP JUMPDEST POP POP JUMPDEST POP POP POP JUMP JUMPDEST PUSH0 DUP3 DUP3 SHR SWAP1 POP SWAP3 SWAP2 POP POP JUMP JUMPDEST PUSH0 PUSH2 0xB92 PUSH0 NOT DUP5 PUSH1 0x8 MUL PUSH2 0xB77 JUMP JUMPDEST NOT DUP1 DUP4 AND SWAP2 POP POP SWAP3 SWAP2 POP POP JUMP JUMPDEST PUSH0 PUSH2 0xBAA DUP4 DUP4 PUSH2 0xB83 JUMP JUMPDEST SWAP2 POP DUP3 PUSH1 0x2 MUL DUP3 OR SWAP1 POP SWAP3 SWAP2 POP POP JUMP JUMPDEST PUSH2 0xBC3 DUP3 PUSH2 0x980 JUMP JUMPDEST PUSH8 0xFFFFFFFFFFFFFFFF DUP2 GT ISZERO PUSH2 0xBDC JUMPI PUSH2 0xBDB PUSH2 0x98A JUMP JUMPDEST JUMPDEST PUSH2 0xBE6 DUP3 SLOAD PUSH2 0x9E4 JUMP JUMPDEST PUSH2 0xBF1 DUP3 DUP3 DUP6 PUSH2 0xB31 JUMP JUMPDEST PUSH0 PUSH1 0x20 SWAP1 POP PUSH1 0x1F DUP4 GT PUSH1 0x1 DUP2 EQ PUSH2 0xC22 JUMPI PUSH0 DUP5 ISZERO PUSH2 0xC10 JUMPI DUP3 DUP8 ADD MLOAD SWAP1 POP JUMPDEST PUSH2 0xC1A DUP6 DUP3 PUSH2 0xB9F JUMP JUMPDEST DUP7 SSTORE POP PUSH2 0xC81 JUMP JUMPDEST PUSH1 0x1F NOT DUP5 AND PUSH2 0xC30 DUP7 PUSH2 0xA14 JUMP JUMPDEST PUSH0 JUMPDEST DUP3 DUP2 LT ISZERO PUSH2 0xC57 JUMPI DUP5 DUP10 ADD MLOAD DUP3 SSTORE PUSH1 0x1 DUP3 ADD SWAP2 POP PUSH1 0x20 DUP6 ADD SWAP5 POP PUSH1 0x20 DUP2 ADD SWAP1 POP PUSH2 0xC32 JUMP JUMPDEST DUP7 DUP4 LT ISZERO PUSH2 0xC74 JUMPI DUP5 DUP10 ADD MLOAD PUSH2 0xC70 PUSH1 0x1F DUP10 AND DUP3 PUSH2 0xB83 JUMP JUMPDEST DUP4 SSTORE POP JUMPDEST PUSH1 0x1 PUSH1 0x2 DUP9 MUL ADD DUP9 SSTORE POP POP POP JUMPDEST POP POP POP POP POP POP JUMP JUMPDEST PUSH0 DUP2 SWAP1 POP SWAP2 SWAP1 POP JUMP JUMPDEST PUSH2 0xC9B DUP2 PUSH2 0xC89 JUMP JUMPDEST DUP3 MSTORE POP POP JUMP JUMPDEST PUSH2 0xCAA DUP2 PUSH2 0xA92 JUMP JUMPDEST DUP3 MSTORE POP POP JUMP JUMPDEST PUSH2 0xCB9 DUP2 PUSH2 0x91A JUMP JUMPDEST DUP3 MSTORE POP POP JUMP JUMPDEST PUSH0 PUSH1 0xA0 DUP3 ADD SWAP1 POP PUSH2 0xCD2 PUSH0 DUP4 ADD DUP9 PUSH2 0xC92 JUMP JUMPDEST PUSH2 0xCDF PUSH1 0x20 DUP4 ADD DUP8 PUSH2 0xC92 JUMP JUMPDEST PUSH2 0xCEC PUSH1 0x40 DUP4 ADD DUP7 PUSH2 0xC92 JUMP JUMPDEST PUSH2 0xCF9 PUSH1 0x60 DUP4 ADD DUP6 PUSH2 0xCA1 JUMP JUMPDEST PUSH2 0xD06 PUSH1 0x80 DUP4 ADD DUP5 PUSH2 0xCB0 JUMP JUMPDEST SWAP7 SWAP6 POP POP POP POP POP POP JUMP JUMPDEST PUSH0 PUSH1 0x40 DUP3 ADD SWAP1 POP PUSH2 0xD23 PUSH0 DUP4 ADD DUP6 PUSH2 0xCA1 JUMP JUMPDEST PUSH2 0xD30 PUSH1 0x20 DUP4 ADD DUP5 PUSH2 0xCA1 JUMP JUMPDEST SWAP4 SWAP3 POP POP POP JUMP JUMPDEST PUSH0 DUP3 DUP3 MSTORE PUSH1 0x20 DUP3 ADD SWAP1 POP SWAP3 SWAP2 POP POP JUMP JUMPDEST DUP3 DUP2 DUP4 MCOPY PUSH0 DUP4 DUP4 ADD MSTORE POP POP POP JUMP JUMPDEST PUSH0 PUSH1 0x1F NOT PUSH1 0x1F DUP4 ADD AND SWAP1 POP SWAP2 SWAP1 POP JUMP JUMPDEST PUSH0 PUSH2 0xD6F DUP3 PUSH2 0x980 JUMP JUMPDEST PUSH2 0xD79 DUP2 DUP6 PUSH2 0xD37 JUMP JUMPDEST SWAP4 POP PUSH2 0xD89 DUP2 DUP6 PUSH1 0x20 DUP7 ADD PUSH2 0xD47 JUMP JUMPDEST PUSH2 0xD92 DUP2 PUSH2 0xD55 JUMP JUMPDEST DUP5 ADD SWAP2 POP POP SWAP3 SWAP2 POP POP JUMP JUMPDEST PUSH0 PUSH1 0x20 DUP3 ADD SWAP1 POP DUP2 DUP2 SUB PUSH0 DUP4 ADD MSTORE PUSH2 0xDB5 DUP2 DUP5 PUSH2 0xD65 JUMP JUMPDEST SWAP1 POP SWAP3 SWAP2 POP POP JUMP JUMPDEST PUSH0 DUP2 MLOAD SWAP1 POP SWAP2 SWAP1 POP JUMP JUMPDEST PUSH0 DUP2 SWAP1 POP PUSH1 0x20 DUP3 ADD SWAP1 POP SWAP2 SWAP1 POP JUMP JUMPDEST PUSH0 PUSH2 0xDE1 DUP3 MLOAD PUSH2 0xC89 JUMP JUMPDEST DUP1 SWAP2 POP POP SWAP2 SWAP1 POP JUMP JUMPDEST PUSH0 PUSH2 0xDF4 DUP3 PUSH2 0xDBD JUMP JUMPDEST DUP3 PUSH2 0xDFE DUP5 PUSH2 0xDC7 JUMP JUMPDEST SWAP1 POP PUSH2 0xE09 DUP2 PUSH2 0xDD6 JUMP JUMPDEST SWAP3 POP PUSH1 0x20 DUP3 LT ISZERO PUSH2 0xE49 JUMPI PUSH2 0xE44 PUSH32 0xFFFFFFFFFFFFFFFFFFFFFFFFFFFFFFFFFFFFFFFFFFFFFFFFFFFFFFFFFFFFFFFF DUP4 PUSH1 0x20 SUB PUSH1 0x8 MUL PUSH2 0xA35 JUMP JUMPDEST DUP4 AND SWAP3 POP JUMPDEST POP POP SWAP2 SWAP1 POP JUMP JUMPDEST PUSH0 PUSH6 0xFFFFFFFFFFFF DUP3 AND SWAP1 POP SWAP2 SWAP1 POP JUMP JUMPDEST PUSH2 0xE6A DUP2 PUSH2 0xE50 JUMP JUMPDEST DUP2 EQ PUSH2 0xE74 JUMPI PUSH0 DUP1 REVERT JUMPDEST POP JUMP JUMPDEST PUSH0 DUP2 MLOAD SWAP1 POP PUSH2 0xE85 DUP2 PUSH2 0xE61 JUMP JUMPDEST SWAP3 SWAP2 POP POP JUMP JUMPDEST PUSH0 PUSH1 0x20 DUP3 DUP5 SUB SLT ISZERO PUSH2 0xEA0 JUMPI PUSH2 0xE9F PUSH2 0x8F7 JUMP JUMPDEST JUMPDEST PUSH0 PUSH2 0xEAD DUP5 DUP3 DUP6 ADD PUSH2 0xE77 JUMP JUMPDEST SWAP2 POP POP SWAP3 SWAP2 POP POP JUMP JUMPDEST PUSH0 DUP2 SWAP1 POP SWAP2 SWAP1 POP JUMP JUMPDEST PUSH0 PUSH1 0xFF DUP3 AND SWAP1 POP SWAP2 SWAP1 POP JUMP JUMPDEST PUSH0 PUSH2 0xEE5 PUSH2 0xEE0 PUSH2 0xEDB DUP5 PUSH2 0xEB6 JUMP JUMPDEST PUSH2 0xA9B JUMP JUMPDEST PUSH2 0xEBF JUMP JUMPDEST SWAP1 POP SWAP2 SWAP1 POP JUMP JUMPDEST PUSH2 0xEF5 DUP2 PUSH2 0xECB JUMP JUMPDEST DUP3 MSTORE POP POP JUMP JUMPDEST PUSH0 PUSH1 0x40 DUP3 ADD SWAP1 POP PUSH2 0xF0E PUSH0 DUP4 ADD DUP6 PUSH2 0xEEC JUMP JUMPDEST PUSH2 0xF1B PUSH1 0x20 DUP4 ADD DUP5 PUSH2 0xCA1 JUMP JUMPDEST SWAP4 SWAP3 POP POP POP JUMP JUMPDEST PUSH32 0x4E487B7100000000000000000000000000000000000000000000000000000000 PUSH0 MSTORE PUSH1 0x11 PUSH1 0x4 MSTORE PUSH1 0x24 PUSH0 REVERT JUMPDEST PUSH0 PUSH2 0xF59 DUP3 PUSH2 0xA92 JUMP JUMPDEST SWAP2 POP PUSH2 0xF64 DUP4 PUSH2 0xA92 JUMP JUMPDEST SWAP3 POP DUP3 DUP3 SUB SWAP1 POP DUP2 DUP2 GT ISZERO PUSH2 0xF7C JUMPI PUSH2 0xF7B PUSH2 0xF22 JUMP JUMPDEST JUMPDEST SWAP3 SWAP2 POP POP JUMP JUMPDEST PUSH0 DUP2 SWAP1 POP SWAP2 SWAP1 POP JUMP JUMPDEST PUSH0 PUSH2 0xFA5 PUSH2 0xFA0 PUSH2 0xF9B DUP5 PUSH2 0xF82 JUMP JUMPDEST PUSH2 0xA9B JUMP JUMPDEST PUSH2 0xEBF JUMP JUMPDEST SWAP1 POP SWAP2 SWAP1 POP JUMP JUMPDEST PUSH2 0xFB5 DUP2 PUSH2 0xF8B JUMP JUMPDEST DUP3 MSTORE POP POP JUMP JUMPDEST PUSH0 PUSH1 0x40 DUP3 ADD SWAP1 POP PUSH2 0xFCE PUSH0 DUP4 ADD DUP6 PUSH2 0xFAC JUMP JUMPDEST PUSH2 0xFDB PUSH1 0x20 DUP4 ADD DUP5 PUSH2 0xCA1 JUMP JUMPDEST SWAP4 SWAP3 POP POP POP JUMP JUMPDEST PUSH1 0x80 MLOAD PUSH1 0xA0 MLOAD PUSH1 0xC0 MLOAD PUSH1 0xE0 MLOAD PUSH2 0x100 MLOAD PUSH2 0x120 MLOAD PUSH2 0x140 MLOAD PUSH2 0x160 MLOAD PUSH2 0x5FAC PUSH2 0x103D PUSH0 CODECOPY PUSH0 PUSH2 0x1F25 ADD MSTORE PUSH0 PUSH2 0x2DA3 ADD MSTORE PUSH0 PUSH2 0x2D68 ADD MSTORE PUSH0 PUSH2 0x3C76 ADD MSTORE PUSH0 PUSH2 0x3C55 ADD MSTORE PUSH0 PUSH2 0x30E1 ADD MSTORE PUSH0 PUSH2 0x3137 ADD MSTORE PUSH0 PUSH2 0x3160 ADD MSTORE PUSH2 0x5FAC PUSH0 RETURN INVALID PUSH1 0x80 PUSH1 0x40 MSTORE PUSH1 0x4 CALLDATASIZE LT PUSH2 0x25F JUMPI PUSH0 CALLDATALOAD PUSH1 0xE0 SHR DUP1 PUSH4 0x7B3C71D3 GT PUSH2 0x143 JUMPI DUP1 PUSH4 0xB58131B0 GT PUSH2 0xB5 JUMPI DUP1 PUSH4 0xDD4E2BA5 GT PUSH2 0x79 JUMPI DUP1 PUSH4 0xDD4E2BA5 EQ PUSH2 0xA84 JUMPI DUP1 PUSH4 0xDEAAA7CC EQ PUSH2 0xAAE JUMPI DUP1 PUSH4 0xEB9019D4 EQ PUSH2 0xAD8 JUMPI DUP1 PUSH4 0xF23A6E61 EQ PUSH2 0xB14 JUMPI DUP1 PUSH4 0xF8CE560A EQ PUSH2 0xB50 JUMPI DUP1 PUSH4 0xFC0C546A EQ PUSH2 0xB8C JUMPI PUSH2 0x2D2 JUMP JUMPDEST DUP1 PUSH4 0xB58131B0 EQ PUSH2 0x98A JUMPI DUP1 PUSH4 0xBC197C81 EQ PUSH2 0x9B4 JUMPI DUP1 PUSH4 0xC01F9E37 EQ PUSH2 0x9F0 JUMPI DUP1 PUSH4 0xC28BC2FA EQ PUSH2 0xA2C JUMPI DUP1 PUSH4 0xC59057E4 EQ PUSH2 0xA48 JUMPI PUSH2 0x2D2 JUMP JUMPDEST DUP1 PUSH4 0x91DDADF4 GT PUSH2 0x107 JUMPI DUP1 PUSH4 0x91DDADF4 EQ PUSH2 0x858 JUMPI DUP1 PUSH4 0x97C3D334 EQ PUSH2 0x882 JUMPI DUP1 PUSH4 0x9A802A6D EQ PUSH2 0x8AC JUMPI DUP1 PUSH4 0xA7713A70 EQ PUSH2 0x8E8 JUMPI DUP1 PUSH4 0xA9A95294 EQ PUSH2 0x912 JUMPI DUP1 PUSH4 0xAB58FB8E EQ PUSH2 0x94E JUMPI PUSH2 0x2D2 JUMP JUMPDEST DUP1 PUSH4 0x7B3C71D3 EQ PUSH2 0x738 JUMPI DUP1 PUSH4 0x7D5E81E2 EQ PUSH2 0x774 JUMPI DUP1 PUSH4 0x7ECEBE00 EQ PUSH2 0x7B0 JUMPI DUP1 PUSH4 0x84B0196E EQ PUSH2 0x7EC JUMPI DUP1 PUSH4 0x8FF262E3 EQ PUSH2 0x81C JUMPI PUSH2 0x2D2 JUMP JUMPDEST DUP1 PUSH4 0x3932ABB1 GT PUSH2 0x1DC JUMPI DUP1 PUSH4 0x544FFC9C GT PUSH2 0x1A0 JUMPI DUP1 PUSH4 0x544FFC9C EQ PUSH2 0x5E0 JUMPI DUP1 PUSH4 0x54FD4D50 EQ PUSH2 0x61E JUMPI DUP1 PUSH4 0x56781388 EQ PUSH2 0x648 JUMPI DUP1 PUSH4 0x5B8D0E0D EQ PUSH2 0x684 JUMPI DUP1 PUSH4 0x5F398A14 EQ PUSH2 0x6C0 JUMPI DUP1 PUSH4 0x60C4247F EQ PUSH2 0x6FC JUMPI PUSH2 0x2D2 JUMP JUMPDEST DUP1 PUSH4 0x3932ABB1 EQ PUSH2 0x4D8 JUMPI DUP1 PUSH4 0x3E4F49E6 EQ PUSH2 0x502 JUMPI DUP1 PUSH4 0x43859632 EQ PUSH2 0x53E JUMPI DUP1 PUSH4 0x452115D6 EQ PUSH2 0x57A JUMPI DUP1 PUSH4 0x4BF5D7E9 EQ PUSH2 0x5B6 JUMPI PUSH2 0x2D2 JUMP JUMPDEST DUP1 PUSH4 0x150B7A02 GT PUSH2 0x223 JUMPI DUP1 PUSH4 0x150B7A02 EQ PUSH2 0x3CA JUMPI DUP1 PUSH4 0x160CBED7 EQ PUSH2 0x406 JUMPI DUP1 PUSH4 0x2656227D EQ PUSH2 0x442 JUMPI DUP1 PUSH4 0x2D63F693 EQ PUSH2 0x472 JUMPI DUP1 PUSH4 0x2FE3E261 EQ PUSH2 0x4AE JUMPI PUSH2 0x2D2 JUMP JUMPDEST DUP1 PUSH4 0x1FFC9A7 EQ PUSH2 0x2D6 JUMPI DUP1 PUSH4 0x2A251A3 EQ PUSH2 0x312 JUMPI DUP1 PUSH4 0x6F3F9E6 EQ PUSH2 0x33C JUMPI DUP1 PUSH4 0x6FDDE03 EQ PUSH2 0x364 JUMPI DUP1 PUSH4 0x143489D0 EQ PUSH2 0x38E JUMPI PUSH2 0x2D2 JUMP JUMPDEST CALLDATASIZE PUSH2 0x2D2 JUMPI ADDRESS PUSH20 0xFFFFFFFFFFFFFFFFFFFFFFFFFFFFFFFFFFFFFFFF AND PUSH2 0x283 PUSH2 0xBB6 JUMP JUMPDEST PUSH20 0xFFFFFFFFFFFFFFFFFFFFFFFFFFFFFFFFFFFFFFFF AND EQ PUSH2 0x2D0 JUMPI PUSH1 0x40 MLOAD PUSH32 0xE90A651E00000000000000000000000000000000000000000000000000000000 DUP2 MSTORE PUSH1 0x4 ADD PUSH1 0x40 MLOAD DUP1 SWAP2 SUB SWAP1 REVERT JUMPDEST STOP JUMPDEST PUSH0 DUP1 REVERT JUMPDEST CALLVALUE DUP1 ISZERO PUSH2 0x2E1 JUMPI PUSH0 DUP1 REVERT JUMPDEST POP PUSH2 0x2FC PUSH1 0x4 DUP1 CALLDATASIZE SUB DUP2 ADD SWAP1 PUSH2 0x2F7 SWAP2 SWAP1 PUSH2 0x3F03 JUMP JUMPDEST PUSH2 0xBBD JUMP JUMPDEST PUSH1 0x40 MLOAD PUSH2 0x309 SWAP2 SWAP1 PUSH2 0x3F48 JUMP JUMPDEST PUSH1 0x40 MLOAD DUP1 SWAP2 SUB SWAP1 RETURN JUMPDEST CALLVALUE DUP1 ISZERO PUSH2 0x31D JUMPI PUSH0 DUP1 REVERT JUMPDEST POP PUSH2 0x326 PUSH2 0xC9E JUMP JUMPDEST PUSH1 0x40 MLOAD PUSH2 0x333 SWAP2 SWAP1 PUSH2 0x3F79 JUMP JUMPDEST PUSH1 0x40 MLOAD DUP1 SWAP2 SUB SWAP1 RETURN JUMPDEST CALLVALUE DUP1 ISZERO PUSH2 0x347 JUMPI PUSH0 DUP1 REVERT JUMPDEST POP PUSH2 0x362 PUSH1 0x4 DUP1 CALLDATASIZE SUB DUP2 ADD SWAP1 PUSH2 0x35D SWAP2 SWAP1 PUSH2 0x3FBC JUMP JUMPDEST PUSH2 0xCA6 JUMP JUMPDEST STOP JUMPDEST CALLVALUE DUP1 ISZERO PUSH2 0x36F JUMPI PUSH0 DUP1 REVERT JUMPDEST POP PUSH2 0x378 PUSH2 0xCBA JUMP JUMPDEST PUSH1 0x40 MLOAD PUSH2 0x385 SWAP2 SWAP1 PUSH2 0x4057 JUMP JUMPDEST PUSH1 0x40 MLOAD DUP1 SWAP2 SUB SWAP1 RETURN JUMPDEST CALLVALUE DUP1 ISZERO PUSH2 0x399 JUMPI PUSH0 DUP1 REVERT JUMPDEST POP PUSH2 0x3B4 PUSH1 0x4 DUP1 CALLDATASIZE SUB DUP2 ADD SWAP1 PUSH2 0x3AF SWAP2 SWAP1 PUSH2 0x3FBC JUMP JUMPDEST PUSH2 0xD4A JUMP JUMPDEST PUSH1 0x40 MLOAD PUSH2 0x3C1 SWAP2 SWAP1 PUSH2 0x40B6 JUMP JUMPDEST PUSH1 0x40 MLOAD DUP1 SWAP2 SUB SWAP1 RETURN JUMPDEST CALLVALUE DUP1 ISZERO PUSH2 0x3D5 JUMPI PUSH0 DUP1 REVERT JUMPDEST POP PUSH2 0x3F0 PUSH1 0x4 DUP1 CALLDATASIZE SUB DUP2 ADD SWAP1 PUSH2 0x3EB SWAP2 SWAP1 PUSH2 0x4225 JUMP JUMPDEST PUSH2 0xD85 JUMP JUMPDEST PUSH1 0x40 MLOAD PUSH2 0x3FD SWAP2 SWAP1 PUSH2 0x42B4 JUMP JUMPDEST PUSH1 0x40 MLOAD DUP1 SWAP2 SUB SWAP1 RETURN JUMPDEST CALLVALUE DUP1 ISZERO PUSH2 0x411 JUMPI PUSH0 DUP1 REVERT JUMPDEST POP PUSH2 0x42C PUSH1 0x4 DUP1 CALLDATASIZE SUB DUP2 ADD SWAP1 PUSH2 0x427 SWAP2 SWAP1 PUSH2 0x4562 JUMP JUMPDEST PUSH2 0xE04 JUMP JUMPDEST PUSH1 0x40 MLOAD PUSH2 0x439 SWAP2 SWAP1 PUSH2 0x3F79 JUMP JUMPDEST PUSH1 0x40 MLOAD DUP1 SWAP2 SUB SWAP1 RETURN JUMPDEST PUSH2 0x45C PUSH1 0x4 DUP1 CALLDATASIZE SUB DUP2 ADD SWAP1 PUSH2 0x457 SWAP2 SWAP1 PUSH2 0x4562 JUMP JUMPDEST PUSH2 0xEFA JUMP JUMPDEST PUSH1 0x40 MLOAD PUSH2 0x469 SWAP2 SWAP1 PUSH2 0x3F79 JUMP JUMPDEST PUSH1 0x40 MLOAD DUP1 SWAP2 SUB SWAP1 RETURN JUMPDEST CALLVALUE DUP1 ISZERO PUSH2 0x47D JUMPI PUSH0 DUP1 REVERT JUMPDEST POP PUSH2 0x498 PUSH1 0x4 DUP1 CALLDATASIZE SUB DUP2 ADD SWAP1 PUSH2 0x493 SWAP2 SWAP1 PUSH2 0x3FBC JUMP JUMPDEST PUSH2 0x10D4 JUMP JUMPDEST PUSH1 0x40 MLOAD PUSH2 0x4A5 SWAP2 SWAP1 PUSH2 0x3F79 JUMP JUMPDEST PUSH1 0x40 MLOAD DUP1 SWAP2 SUB SWAP1 RETURN JUMPDEST CALLVALUE DUP1 ISZERO PUSH2 0x4B9 JUMPI PUSH0 DUP1 REVERT JUMPDEST POP PUSH2 0x4C2 PUSH2 0x110A JUMP JUMPDEST PUSH1 0x40 MLOAD PUSH2 0x4CF SWAP2 SWAP1 PUSH2 0x4629 JUMP JUMPDEST PUSH1 0x40 MLOAD DUP1 SWAP2 SUB SWAP1 RETURN JUMPDEST CALLVALUE DUP1 ISZERO PUSH2 0x4E3 JUMPI PUSH0 DUP1 REVERT JUMPDEST POP PUSH2 0x4EC PUSH2 0x112E JUMP JUMPDEST PUSH1 0x40 MLOAD PUSH2 0x4F9 SWAP2 SWAP1 PUSH2 0x3F79 JUMP JUMPDEST PUSH1 0x40 MLOAD DUP1 SWAP2 SUB SWAP1 RETURN JUMPDEST CALLVALUE DUP1 ISZERO PUSH2 0x50D JUMPI PUSH0 DUP1 REVERT JUMPDEST POP PUSH2 0x528 PUSH1 0x4 DUP1 CALLDATASIZE SUB DUP2 ADD SWAP1 PUSH2 0x523 SWAP2 SWAP1 PUSH2 0x3FBC JUMP JUMPDEST PUSH2 0x1136 JUMP JUMPDEST PUSH1 0x40 MLOAD PUSH2 0x535 SWAP2 SWAP1 PUSH2 0x46B5 JUMP JUMPDEST PUSH1 0x40 MLOAD DUP1 SWAP2 SUB SWAP1 RETURN JUMPDEST CALLVALUE DUP1 ISZERO PUSH2 0x549 JUMPI PUSH0 DUP1 REVERT JUMPDEST POP PUSH2 0x564 PUSH1 0x4 DUP1 CALLDATASIZE SUB DUP2 ADD SWAP1 PUSH2 0x55F SWAP2 SWAP1 PUSH2 0x46CE JUMP JUMPDEST PUSH2 0x128D JUMP JUMPDEST PUSH1 0x40 MLOAD PUSH2 0x571 SWAP2 SWAP1 PUSH2 0x3F48 JUMP JUMPDEST PUSH1 0x40 MLOAD DUP1 SWAP2 SUB SWAP1 RETURN JUMPDEST CALLVALUE DUP1 ISZERO PUSH2 0x585 JUMPI PUSH0 DUP1 REVERT JUMPDEST POP PUSH2 0x5A0 PUSH1 0x4 DUP1 CALLDATASIZE SUB DUP2 ADD SWAP1 PUSH2 0x59B SWAP2 SWAP1 PUSH2 0x4562 JUMP JUMPDEST PUSH2 0x12F2 JUMP JUMPDEST PUSH1 0x40 MLOAD PUSH2 0x5AD SWAP2 SWAP1 PUSH2 0x3F79 JUMP JUMPDEST PUSH1 0x40 MLOAD DUP1 SWAP2 SUB SWAP1 RETURN JUMPDEST CALLVALUE DUP1 ISZERO PUSH2 0x5C1 JUMPI PUSH0 DUP1 REVERT JUMPDEST POP PUSH2 0x5CA PUSH2 0x13B2 JUMP JUMPDEST PUSH1 0x40 MLOAD PUSH2 0x5D7 SWAP2 SWAP1 PUSH2 0x4057 JUMP JUMPDEST PUSH1 0x40 MLOAD DUP1 SWAP2 SUB SWAP1 RETURN JUMPDEST CALLVALUE DUP1 ISZERO PUSH2 0x5EB JUMPI PUSH0 DUP1 REVERT JUMPDEST POP PUSH2 0x606 PUSH1 0x4 DUP1 CALLDATASIZE SUB DUP2 ADD SWAP1 PUSH2 0x601 SWAP2 SWAP1 PUSH2 0x3FBC JUMP JUMPDEST PUSH2 0x146F JUMP JUMPDEST PUSH1 0x40 MLOAD PUSH2 0x615 SWAP4 SWAP3 SWAP2 SWAP1 PUSH2 0x470C JUMP JUMPDEST PUSH1 0x40 MLOAD DUP1 SWAP2 SUB SWAP1 RETURN JUMPDEST CALLVALUE DUP1 ISZERO PUSH2 0x629 JUMPI PUSH0 DUP1 REVERT JUMPDEST POP PUSH2 0x632 PUSH2 0x14A2 JUMP JUMPDEST PUSH1 0x40 MLOAD PUSH2 0x63F SWAP2 SWAP1 PUSH2 0x4057 JUMP JUMPDEST PUSH1 0x40 MLOAD DUP1 SWAP2 SUB SWAP1 RETURN JUMPDEST CALLVALUE DUP1 ISZERO PUSH2 0x653 JUMPI PUSH0 DUP1 REVERT JUMPDEST POP PUSH2 0x66E PUSH1 0x4 DUP1 CALLDATASIZE SUB DUP2 ADD SWAP1 PUSH2 0x669 SWAP2 SWAP1 PUSH2 0x4777 JUMP JUMPDEST PUSH2 0x14DF JUMP JUMPDEST PUSH1 0x40 MLOAD PUSH2 0x67B SWAP2 SWAP1 PUSH2 0x3F79 JUMP JUMPDEST PUSH1 0x40 MLOAD DUP1 SWAP2 SUB SWAP1 RETURN JUMPDEST CALLVALUE DUP1 ISZERO PUSH2 0x68F JUMPI PUSH0 DUP1 REVERT JUMPDEST POP PUSH2 0x6AA PUSH1 0x4 DUP1 CALLDATASIZE SUB DUP2 ADD SWAP1 PUSH2 0x6A5 SWAP2 SWAP1 PUSH2 0x480E JUMP JUMPDEST PUSH2 0x150E JUMP JUMPDEST PUSH1 0x40 MLOAD PUSH2 0x6B7 SWAP2 SWAP1 PUSH2 0x3F79 JUMP JUMPDEST PUSH1 0x40 MLOAD DUP1 SWAP2 SUB SWAP1 RETURN JUMPDEST CALLVALUE DUP1 ISZERO PUSH2 0x6CB JUMPI PUSH0 DUP1 REVERT JUMPDEST POP PUSH2 0x6E6 PUSH1 0x4 DUP1 CALLDATASIZE SUB DUP2 ADD SWAP1 PUSH2 0x6E1 SWAP2 SWAP1 PUSH2 0x48F0 JUMP JUMPDEST PUSH2 0x163D JUMP JUMPDEST PUSH1 0x40 MLOAD PUSH2 0x6F3 SWAP2 SWAP1 PUSH2 0x3F79 JUMP JUMPDEST PUSH1 0x40 MLOAD DUP1 SWAP2 SUB SWAP1 RETURN JUMPDEST CALLVALUE DUP1 ISZERO PUSH2 0x707 JUMPI PUSH0 DUP1 REVERT JUMPDEST POP PUSH2 0x722 PUSH1 0x4 DUP1 CALLDATASIZE SUB DUP2 ADD SWAP1 PUSH2 0x71D SWAP2 SWAP1 PUSH2 0x3FBC JUMP JUMPDEST PUSH2 0x16A5 JUMP JUMPDEST PUSH1 0x40 MLOAD PUSH2 0x72F SWAP2 SWAP1 PUSH2 0x3F79 JUMP JUMPDEST PUSH1 0x40 MLOAD DUP1 SWAP2 SUB SWAP1 RETURN JUMPDEST CALLVALUE DUP1 ISZERO PUSH2 0x743 JUMPI PUSH0 DUP1 REVERT JUMPDEST POP PUSH2 0x75E PUSH1 0x4 DUP1 CALLDATASIZE SUB DUP2 ADD SWAP1 PUSH2 0x759 SWAP2 SWAP1 PUSH2 0x4990 JUMP JUMPDEST PUSH2 0x179E JUMP JUMPDEST PUSH1 0x40 MLOAD PUSH2 0x76B SWAP2 SWAP1 PUSH2 0x3F79 JUMP JUMPDEST PUSH1 0x40 MLOAD DUP1 SWAP2 SUB SWAP1 RETURN JUMPDEST CALLVALUE DUP1 ISZERO PUSH2 0x77F JUMPI PUSH0 DUP1 REVERT JUMPDEST POP PUSH2 0x79A PUSH1 0x4 DUP1 CALLDATASIZE SUB DUP2 ADD SWAP1 PUSH2 0x795 SWAP2 SWAP1 PUSH2 0x4A9F JUMP JUMPDEST PUSH2 0x1804 JUMP JUMPDEST PUSH1 0x40 MLOAD PUSH2 0x7A7 SWAP2 SWAP1 PUSH2 0x3F79 JUMP JUMPDEST PUSH1 0x40 MLOAD DUP1 SWAP2 SUB SWAP1 RETURN JUMPDEST CALLVALUE DUP1 ISZERO PUSH2 0x7BB JUMPI PUSH0 DUP1 REVERT JUMPDEST POP PUSH2 0x7D6 PUSH1 0x4 DUP1 CALLDATASIZE SUB DUP2 ADD SWAP1 PUSH2 0x7D1 SWAP2 SWAP1 PUSH2 0x4B73 JUMP JUMPDEST PUSH2 0x18FA JUMP JUMPDEST PUSH1 0x40 MLOAD PUSH2 0x7E3 SWAP2 SWAP1 PUSH2 0x3F79 JUMP JUMPDEST PUSH1 0x40 MLOAD DUP1 SWAP2 SUB SWAP1 RETURN JUMPDEST CALLVALUE DUP1 ISZERO PUSH2 0x7F7 JUMPI PUSH0 DUP1 REVERT JUMPDEST POP PUSH2 0x800 PUSH2 0x1940 JUMP JUMPDEST PUSH1 0x40 MLOAD PUSH2 0x813 SWAP8 SWAP7 SWAP6 SWAP5 SWAP4 SWAP3 SWAP2 SWAP1 PUSH2 0x4C8F JUMP JUMPDEST PUSH1 0x40 MLOAD DUP1 SWAP2 SUB SWAP1 RETURN JUMPDEST CALLVALUE DUP1 ISZERO PUSH2 0x827 JUMPI PUSH0 DUP1 REVERT JUMPDEST POP PUSH2 0x842 PUSH1 0x4 DUP1 CALLDATASIZE SUB DUP2 ADD SWAP1 PUSH2 0x83D SWAP2 SWAP1 PUSH2 0x4D11 JUMP JUMPDEST PUSH2 0x19E5 JUMP JUMPDEST PUSH1 0x40 MLOAD PUSH2 0x84F SWAP2 SWAP1 PUSH2 0x3F79 JUMP JUMPDEST PUSH1 0x40 MLOAD DUP1 SWAP2 SUB SWAP1 RETURN JUMPDEST CALLVALUE DUP1 ISZERO PUSH2 0x863 JUMPI PUSH0 DUP1 REVERT JUMPDEST POP PUSH2 0x86C PUSH2 0x1AB9 JUMP JUMPDEST PUSH1 0x40 MLOAD PUSH2 0x879 SWAP2 SWAP1 PUSH2 0x4DB1 JUMP JUMPDEST PUSH1 0x40 MLOAD DUP1 SWAP2 SUB SWAP1 RETURN JUMPDEST CALLVALUE DUP1 ISZERO PUSH2 0x88D JUMPI PUSH0 DUP1 REVERT JUMPDEST POP PUSH2 0x896 PUSH2 0x1B44 JUMP JUMPDEST PUSH1 0x40 MLOAD PUSH2 0x8A3 SWAP2 SWAP1 PUSH2 0x3F79 JUMP JUMPDEST PUSH1 0x40 MLOAD DUP1 SWAP2 SUB SWAP1 RETURN JUMPDEST CALLVALUE DUP1 ISZERO PUSH2 0x8B7 JUMPI PUSH0 DUP1 REVERT JUMPDEST POP PUSH2 0x8D2 PUSH1 0x4 DUP1 CALLDATASIZE SUB DUP2 ADD SWAP1 PUSH2 0x8CD SWAP2 SWAP1 PUSH2 0x4DCA JUMP JUMPDEST PUSH2 0x1B4C JUMP JUMPDEST PUSH1 0x40 MLOAD PUSH2 0x8DF SWAP2 SWAP1 PUSH2 0x3F79 JUMP JUMPDEST PUSH1 0x40 MLOAD DUP1 SWAP2 SUB SWAP1 RETURN JUMPDEST CALLVALUE DUP1 ISZERO PUSH2 0x8F3 JUMPI PUSH0 DUP1 REVERT JUMPDEST POP PUSH2 0x8FC PUSH2 0x1B61 JUMP JUMPDEST PUSH1 0x40 MLOAD PUSH2 0x909 SWAP2 SWAP1 PUSH2 0x3F79 JUMP JUMPDEST PUSH1 0x40 MLOAD DUP1 SWAP2 SUB SWAP1 RETURN JUMPDEST CALLVALUE DUP1 ISZERO PUSH2 0x91D JUMPI PUSH0 DUP1 REVERT JUMPDEST POP PUSH2 0x938 PUSH1 0x4 DUP1 CALLDATASIZE SUB DUP2 ADD SWAP1 PUSH2 0x933 SWAP2 SWAP1 PUSH2 0x3FBC JUMP JUMPDEST PUSH2 0x1B8D JUMP JUMPDEST PUSH1 0x40 MLOAD PUSH2 0x945 SWAP2 SWAP1 PUSH2 0x3F48 JUMP JUMPDEST PUSH1 0x40 MLOAD DUP1 SWAP2 SUB SWAP1 RETURN JUMPDEST CALLVALUE DUP1 ISZERO PUSH2 0x959 JUMPI PUSH0 DUP1 REVERT JUMPDEST POP PUSH2 0x974 PUSH1 0x4 DUP1 CALLDATASIZE SUB DUP2 ADD SWAP1 PUSH2 0x96F SWAP2 SWAP1 PUSH2 0x3FBC JUMP JUMPDEST PUSH2 0x1B93 JUMP JUMPDEST PUSH1 0x40 MLOAD PUSH2 0x981 SWAP2 SWAP1 PUSH2 0x3F79 JUMP JUMPDEST PUSH1 0x40 MLOAD DUP1 SWAP2 SUB SWAP1 RETURN JUMPDEST CALLVALUE DUP1 ISZERO PUSH2 0x995 JUMPI PUSH0 DUP1 REVERT JUMPDEST POP PUSH2 0x99E PUSH2 0x1BC9 JUMP JUMPDEST PUSH1 0x40 MLOAD PUSH2 0x9AB SWAP2 SWAP1 PUSH2 0x3F79 JUMP JUMPDEST PUSH1 0x40 MLOAD DUP1 SWAP2 SUB SWAP1 RETURN JUMPDEST CALLVALUE DUP1 ISZERO PUSH2 0x9BF JUMPI PUSH0 DUP1 REVERT JUMPDEST POP PUSH2 0x9DA PUSH1 0x4 DUP1 CALLDATASIZE SUB DUP2 ADD SWAP1 PUSH2 0x9D5 SWAP2 SWAP1 PUSH2 0x4E36 JUMP JUMPDEST PUSH2 0x1BCD JUMP JUMPDEST PUSH1 0x40 MLOAD PUSH2 0x9E7 SWAP2 SWAP1 PUSH2 0x42B4 JUMP JUMPDEST PUSH1 0x40 MLOAD DUP1 SWAP2 SUB SWAP1 RETURN JUMPDEST CALLVALUE DUP1 ISZERO PUSH2 0x9FB JUMPI PUSH0 DUP1 REVERT JUMPDEST POP PUSH2 0xA16 PUSH1 0x4 DUP1 CALLDATASIZE SUB DUP2 ADD SWAP1 PUSH2 0xA11 SWAP2 SWAP1 PUSH2 0x3FBC JUMP JUMPDEST PUSH2 0x1C4D JUMP JUMPDEST PUSH1 0x40 MLOAD PUSH2 0xA23 SWAP2 SWAP1 PUSH2 0x3F79 JUMP JUMPDEST PUSH1 0x40 MLOAD DUP1 SWAP2 SUB SWAP1 RETURN JUMPDEST PUSH2 0xA46 PUSH1 0x4 DUP1 CALLDATASIZE SUB DUP2 ADD SWAP1 PUSH2 0xA41 SWAP2 SWAP1 PUSH2 0x4F56 JUMP JUMPDEST PUSH2 0x1CB7 JUMP JUMPDEST STOP JUMPDEST CALLVALUE DUP1 ISZERO PUSH2 0xA53 JUMPI PUSH0 DUP1 REVERT JUMPDEST POP PUSH2 0xA6E PUSH1 0x4 DUP1 CALLDATASIZE SUB DUP2 ADD SWAP1 PUSH2 0xA69 SWAP2 SWAP1 PUSH2 0x4562 JUMP JUMPDEST PUSH2 0x1D40 JUMP JUMPDEST PUSH1 0x40 MLOAD PUSH2 0xA7B SWAP2 SWAP1 PUSH2 0x3F79 JUMP JUMPDEST PUSH1 0x40 MLOAD DUP1 SWAP2 SUB SWAP1 RETURN JUMPDEST CALLVALUE DUP1 ISZERO PUSH2 0xA8F JUMPI PUSH0 DUP1 REVERT JUMPDEST POP PUSH2 0xA98 PUSH2 0x1D7A JUMP JUMPDEST PUSH1 0x40 MLOAD PUSH2 0xAA5 SWAP2 SWAP1 PUSH2 0x4057 JUMP JUMPDEST PUSH1 0x40 MLOAD DUP1 SWAP2 SUB SWAP1 RETURN JUMPDEST CALLVALUE DUP1 ISZERO PUSH2 0xAB9 JUMPI PUSH0 DUP1 REVERT JUMPDEST POP PUSH2 0xAC2 PUSH2 0x1DB7 JUMP JUMPDEST PUSH1 0x40 MLOAD PUSH2 0xACF SWAP2 SWAP1 PUSH2 0x4629 JUMP JUMPDEST PUSH1 0x40 MLOAD DUP1 SWAP2 SUB SWAP1 RETURN JUMPDEST CALLVALUE DUP1 ISZERO PUSH2 0xAE3 JUMPI PUSH0 DUP1 REVERT JUMPDEST POP PUSH2 0xAFE PUSH1 0x4 DUP1 CALLDATASIZE SUB DUP2 ADD SWAP1 PUSH2 0xAF9 SWAP2 SWAP1 PUSH2 0x4FC7 JUMP JUMPDEST PUSH2 0x1DDB JUMP JUMPDEST PUSH1 0x40 MLOAD PUSH2 0xB0B SWAP2 SWAP1 PUSH2 0x3F79 JUMP JUMPDEST PUSH1 0x40 MLOAD DUP1 SWAP2 SUB SWAP1 RETURN JUMPDEST CALLVALUE DUP1 ISZERO PUSH2 0xB1F JUMPI PUSH0 DUP1 REVERT JUMPDEST POP PUSH2 0xB3A PUSH1 0x4 DUP1 CALLDATASIZE SUB DUP2 ADD SWAP1 PUSH2 0xB35 SWAP2 SWAP1 PUSH2 0x5005 JUMP JUMPDEST PUSH2 0x1DF6 JUMP JUMPDEST PUSH1 0x40 MLOAD PUSH2 0xB47 SWAP2 SWAP1 PUSH2 0x42B4 JUMP JUMPDEST PUSH1 0x40 MLOAD DUP1 SWAP2 SUB SWAP1 RETURN JUMPDEST CALLVALUE DUP1 ISZERO PUSH2 0xB5B JUMPI PUSH0 DUP1 REVERT JUMPDEST POP PUSH2 0xB76 PUSH1 0x4 DUP1 CALLDATASIZE SUB DUP2 ADD SWAP1 PUSH2 0xB71 SWAP2 SWAP1 PUSH2 0x3FBC JUMP JUMPDEST PUSH2 0x1E76 JUMP JUMPDEST PUSH1 0x40 MLOAD PUSH2 0xB83 SWAP2 SWAP1 PUSH2 0x3F79 JUMP JUMPDEST PUSH1 0x40 MLOAD DUP1 SWAP2 SUB SWAP1 RETURN JUMPDEST CALLVALUE DUP1 ISZERO PUSH2 0xB97 JUMPI PUSH0 DUP1 REVERT JUMPDEST POP PUSH2 0xBA0 PUSH2 0x1F22 JUMP JUMPDEST PUSH1 0x40 MLOAD PUSH2 0xBAD SWAP2 SWAP1 PUSH2 0x50F3 JUMP JUMPDEST PUSH1 0x40 MLOAD DUP1 SWAP2 SUB SWAP1 RETURN JUMPDEST PUSH0 ADDRESS SWAP1 POP SWAP1 JUMP JUMPDEST PUSH0 PUSH32 0x65455A8600000000000000000000000000000000000000000000000000000000 PUSH28 0xFFFFFFFFFFFFFFFFFFFFFFFFFFFFFFFFFFFFFFFFFFFFFFFFFFFFFFFF NOT AND DUP3 PUSH28 0xFFFFFFFFFFFFFFFFFFFFFFFFFFFFFFFFFFFFFFFFFFFFFFFFFFFFFFFF NOT AND EQ DUP1 PUSH2 0xC87 JUMPI POP PUSH32 0x4E2312E000000000000000000000000000000000000000000000000000000000 PUSH28 0xFFFFFFFFFFFFFFFFFFFFFFFFFFFFFFFFFFFFFFFFFFFFFFFFFFFFFFFF NOT AND DUP3 PUSH28 0xFFFFFFFFFFFFFFFFFFFFFFFFFFFFFFFFFFFFFFFFFFFFFFFFFFFFFFFF NOT AND EQ JUMPDEST DUP1 PUSH2 0xC97 JUMPI POP PUSH2 0xC96 DUP3 PUSH2 0x1F49 JUMP JUMPDEST JUMPDEST SWAP1 POP SWAP2 SWAP1 POP JUMP JUMPDEST PUSH0 PUSH1 0x2 SWAP1 POP SWAP1 JUMP JUMPDEST PUSH2 0xCAE PUSH2 0x1FB2 JUMP JUMPDEST PUSH2 0xCB7 DUP2 PUSH2 0x20A7 JUMP JUMPDEST POP JUMP JUMPDEST PUSH1 0x60 PUSH1 0x3 DUP1 SLOAD PUSH2 0xCC9 SWAP1 PUSH2 0x5139 JUMP JUMPDEST DUP1 PUSH1 0x1F ADD PUSH1 0x20 DUP1 SWAP2 DIV MUL PUSH1 0x20 ADD PUSH1 0x40 MLOAD SWAP1 DUP2 ADD PUSH1 0x40 MSTORE DUP1 SWAP3 SWAP2 SWAP1 DUP2 DUP2 MSTORE PUSH1 0x20 ADD DUP3 DUP1 SLOAD PUSH2 0xCF5 SWAP1 PUSH2 0x5139 JUMP JUMPDEST DUP1 ISZERO PUSH2 0xD40 JUMPI DUP1 PUSH1 0x1F LT PUSH2 0xD17 JUMPI PUSH2 0x100 DUP1 DUP4 SLOAD DIV MUL DUP4 MSTORE SWAP2 PUSH1 0x20 ADD SWAP2 PUSH2 0xD40 JUMP JUMPDEST DUP3 ADD SWAP2 SWAP1 PUSH0 MSTORE PUSH1 0x20 PUSH0 KECCAK256 SWAP1 JUMPDEST DUP2 SLOAD DUP2 MSTORE SWAP1 PUSH1 0x1 ADD SWAP1 PUSH1 0x20 ADD DUP1 DUP4 GT PUSH2 0xD23 JUMPI DUP3 SWAP1 SUB PUSH1 0x1F AND DUP3 ADD SWAP2 JUMPDEST POP POP POP POP POP SWAP1 POP SWAP1 JUMP JUMPDEST PUSH0 PUSH1 0x4 PUSH0 DUP4 DUP2 MSTORE PUSH1 0x20 ADD SWAP1 DUP2 MSTORE PUSH1 0x20 ADD PUSH0 KECCAK256 PUSH0 ADD PUSH0 SWAP1 SLOAD SWAP1 PUSH2 0x100 EXP SWAP1 DIV PUSH20 0xFFFFFFFFFFFFFFFFFFFFFFFFFFFFFFFFFFFFFFFF AND SWAP1 POP SWAP2 SWAP1 POP JUMP JUMPDEST PUSH0 ADDRESS PUSH20 0xFFFFFFFFFFFFFFFFFFFFFFFFFFFFFFFFFFFFFFFF AND PUSH2 0xDA5 PUSH2 0xBB6 JUMP JUMPDEST PUSH20 0xFFFFFFFFFFFFFFFFFFFFFFFFFFFFFFFFFFFFFFFF AND EQ PUSH2 0xDF2 JUMPI PUSH1 0x40 MLOAD PUSH32 0xE90A651E00000000000000000000000000000000000000000000000000000000 DUP2 MSTORE PUSH1 0x4 ADD PUSH1 0x40 MLOAD DUP1 SWAP2 SUB SWAP1 REVERT JUMPDEST PUSH4 0x150B7A02 PUSH1 0xE0 SHL SWAP1 POP SWAP5 SWAP4 POP POP POP POP JUMP JUMPDEST PUSH0 DUP1 PUSH2 0xE12 DUP7 DUP7 DUP7 DUP7 PUSH2 0x1D40 JUMP JUMPDEST SWAP1 POP PUSH2 0xE27 DUP2 PUSH2 0xE22 PUSH1 0x4 PUSH2 0x2169 JUMP JUMPDEST PUSH2 0x218D JUMP JUMPDEST POP PUSH0 PUSH2 0xE36 DUP3 DUP9 DUP9 DUP9 DUP9 PUSH2 0x21F8 JUMP JUMPDEST SWAP1 POP PUSH0 DUP2 PUSH6 0xFFFFFFFFFFFF AND EQ PUSH2 0xEBB JUMPI DUP1 PUSH1 0x4 PUSH0 DUP5 DUP2 MSTORE PUSH1 0x20 ADD SWAP1 DUP2 MSTORE PUSH1 0x20 ADD PUSH0 KECCAK256 PUSH1 0x1 ADD PUSH0 PUSH2 0x100 EXP DUP2 SLOAD DUP2 PUSH6 0xFFFFFFFFFFFF MUL NOT AND SWAP1 DUP4 PUSH6 0xFFFFFFFFFFFF AND MUL OR SWAP1 SSTORE POP PUSH32 0x9A2E42FD6722813D69113E7D0079D3D940171428DF7373DF9C7F7617CFDA2892 DUP3 DUP3 PUSH1 0x40 MLOAD PUSH2 0xEAE SWAP3 SWAP2 SWAP1 PUSH2 0x5199 JUMP JUMPDEST PUSH1 0x40 MLOAD DUP1 SWAP2 SUB SWAP1 LOG1 PUSH2 0xEED JUMP JUMPDEST PUSH1 0x40 MLOAD PUSH32 0x90884A4600000000000000000000000000000000000000000000000000000000 DUP2 MSTORE PUSH1 0x4 ADD PUSH1 0x40 MLOAD DUP1 SWAP2 SUB SWAP1 REVERT JUMPDEST DUP2 SWAP3 POP POP POP SWAP5 SWAP4 POP POP POP POP JUMP JUMPDEST PUSH0 DUP1 PUSH2 0xF08 DUP7 DUP7 DUP7 DUP7 PUSH2 0x1D40 JUMP JUMPDEST SWAP1 POP PUSH2 0xF28 DUP2 PUSH2 0xF18 PUSH1 0x5 PUSH2 0x2169 JUMP JUMPDEST PUSH2 0xF22 PUSH1 0x4 PUSH2 0x2169 JUMP JUMPDEST OR PUSH2 0x218D JUMP JUMPDEST POP PUSH1 0x1 PUSH1 0x4 PUSH0 DUP4 DUP2 MSTORE PUSH1 0x20 ADD SWAP1 DUP2 MSTORE PUSH1 0x20 ADD PUSH0 KECCAK256 PUSH0 ADD PUSH1 0x1E PUSH2 0x100 EXP DUP2 SLOAD DUP2 PUSH1 0xFF MUL NOT AND SWAP1 DUP4 ISZERO ISZERO MUL OR SWAP1 SSTORE POP ADDRESS PUSH20 0xFFFFFFFFFFFFFFFFFFFFFFFFFFFFFFFFFFFFFFFF AND PUSH2 0xF74 PUSH2 0xBB6 JUMP JUMPDEST PUSH20 0xFFFFFFFFFFFFFFFFFFFFFFFFFFFFFFFFFFFFFFFF AND EQ PUSH2 0x102A JUMPI PUSH0 JUMPDEST DUP7 MLOAD DUP2 LT ISZERO PUSH2 0x1028 JUMPI ADDRESS PUSH20 0xFFFFFFFFFFFFFFFFFFFFFFFFFFFFFFFFFFFFFFFF AND DUP8 DUP3 DUP2 MLOAD DUP2 LT PUSH2 0xFC4 JUMPI PUSH2 0xFC3 PUSH2 0x51C0 JUMP JUMPDEST JUMPDEST PUSH1 0x20 MUL PUSH1 0x20 ADD ADD MLOAD PUSH20 0xFFFFFFFFFFFFFFFFFFFFFFFFFFFFFFFFFFFFFFFF AND SUB PUSH2 0x101D JUMPI PUSH2 0x101C DUP6 DUP3 DUP2 MLOAD DUP2 LT PUSH2 0xFFD JUMPI PUSH2 0xFFC PUSH2 0x51C0 JUMP JUMPDEST JUMPDEST PUSH1 0x20 MUL PUSH1 0x20 ADD ADD MLOAD DUP1 MLOAD SWAP1 PUSH1 0x20 ADD KECCAK256 PUSH1 0x5 PUSH2 0x2202 SWAP1 SWAP2 SWAP1 PUSH4 0xFFFFFFFF AND JUMP JUMPDEST JUMPDEST DUP1 PUSH1 0x1 ADD SWAP1 POP PUSH2 0xF91 JUMP JUMPDEST POP JUMPDEST PUSH2 0x1037 DUP2 DUP8 DUP8 DUP8 DUP8 PUSH2 0x22FA JUMP JUMPDEST ADDRESS PUSH20 0xFFFFFFFFFFFFFFFFFFFFFFFFFFFFFFFFFFFFFFFF AND PUSH2 0x1056 PUSH2 0xBB6 JUMP JUMPDEST PUSH20 0xFFFFFFFFFFFFFFFFFFFFFFFFFFFFFFFFFFFFFFFF AND EQ ISZERO DUP1 ISZERO PUSH2 0x1081 JUMPI POP PUSH2 0x107F PUSH1 0x5 PUSH2 0x23DF JUMP JUMPDEST ISZERO JUMPDEST ISZERO PUSH2 0x1091 JUMPI PUSH2 0x1090 PUSH1 0x5 PUSH2 0x244B JUMP JUMPDEST JUMPDEST PUSH32 0x712AE1383F79AC853F8D882153778E0260EF8F03B504E2866E0593E04D2B291F DUP2 PUSH1 0x40 MLOAD PUSH2 0x10C0 SWAP2 SWAP1 PUSH2 0x3F79 JUMP JUMPDEST PUSH1 0x40 MLOAD DUP1 SWAP2 SUB SWAP1 LOG1 DUP1 SWAP2 POP POP SWAP5 SWAP4 POP POP POP POP JUMP JUMPDEST PUSH0 PUSH1 0x4 PUSH0 DUP4 DUP2 MSTORE PUSH1 0x20 ADD SWAP1 DUP2 MSTORE PUSH1 0x20 ADD PUSH0 KECCAK256 PUSH0 ADD PUSH1 0x14 SWAP1 SLOAD SWAP1 PUSH2 0x100 EXP SWAP1 DIV PUSH6 0xFFFFFFFFFFFF AND PUSH6 0xFFFFFFFFFFFF AND SWAP1 POP SWAP2 SWAP1 POP JUMP JUMPDEST PUSH32 0x3E83946653575F9A39005E1545185629E92736B7528AB20CA3816F315424A811 DUP2 JUMP JUMPDEST PUSH0 PUSH1 0x2 SWAP1 POP SWAP1 JUMP JUMPDEST PUSH0 DUP1 PUSH1 0x4 PUSH0 DUP5 DUP2 MSTORE PUSH1 0x20 ADD SWAP1 DUP2 MSTORE PUSH1 0x20 ADD PUSH0 KECCAK256 SWAP1 POP PUSH0 DUP2 PUSH0 ADD PUSH1 0x1E SWAP1 SLOAD SWAP1 PUSH2 0x100 EXP SWAP1 DIV PUSH1 0xFF AND SWAP1 POP PUSH0 DUP3 PUSH0 ADD PUSH1 0x1F SWAP1 SLOAD SWAP1 PUSH2 0x100 EXP SWAP1 DIV PUSH1 0xFF AND SWAP1 POP DUP2 ISZERO PUSH2 0x1185 JUMPI PUSH1 0x7 SWAP4 POP POP POP POP PUSH2 0x1288 JUMP JUMPDEST DUP1 ISZERO PUSH2 0x1197 JUMPI PUSH1 0x2 SWAP4 POP POP POP POP PUSH2 0x1288 JUMP JUMPDEST PUSH0 PUSH2 0x11A1 DUP7 PUSH2 0x10D4 JUMP JUMPDEST SWAP1 POP PUSH0 DUP2 SUB PUSH2 0x11E7 JUMPI DUP6 PUSH1 0x40 MLOAD PUSH32 0x6AD0607500000000000000000000000000000000000000000000000000000000 DUP2 MSTORE PUSH1 0x4 ADD PUSH2 0x11DE SWAP2 SWAP1 PUSH2 0x3F79 JUMP JUMPDEST PUSH1 0x40 MLOAD DUP1 SWAP2 SUB SWAP1 REVERT JUMPDEST PUSH0 PUSH2 0x11F0 PUSH2 0x1AB9 JUMP JUMPDEST PUSH6 0xFFFFFFFFFFFF AND SWAP1 POP DUP1 DUP3 LT PUSH2 0x120E JUMPI PUSH0 SWAP6 POP POP POP POP POP POP PUSH2 0x1288 JUMP JUMPDEST PUSH0 PUSH2 0x1218 DUP9 PUSH2 0x1C4D JUMP JUMPDEST SWAP1 POP DUP2 DUP2 LT PUSH2 0x1230 JUMPI PUSH1 0x1 SWAP7 POP POP POP POP POP POP POP PUSH2 0x1288 JUMP JUMPDEST PUSH2 0x1239 DUP9 PUSH2 0x24C1 JUMP JUMPDEST ISZERO DUP1 PUSH2 0x124B JUMPI POP PUSH2 0x1249 DUP9 PUSH2 0x2505 JUMP JUMPDEST ISZERO JUMPDEST ISZERO PUSH2 0x125F JUMPI PUSH1 0x3 SWAP7 POP POP POP POP POP POP POP PUSH2 0x1288 JUMP JUMPDEST PUSH0 PUSH2 0x1269 DUP10 PUSH2 0x1B93 JUMP JUMPDEST SUB PUSH2 0x127D JUMPI PUSH1 0x4 SWAP7 POP POP POP POP POP POP POP PUSH2 0x1288 JUMP JUMPDEST PUSH1 0x5 SWAP7 POP POP POP POP POP POP POP JUMPDEST SWAP2 SWAP1 POP JUMP JUMPDEST PUSH0 PUSH1 0x7 PUSH0 DUP5 DUP2 MSTORE PUSH1 0x20 ADD SWAP1 DUP2 MSTORE PUSH1 0x20 ADD PUSH0 KECCAK256 PUSH1 0x3 ADD PUSH0 DUP4 PUSH20 0xFFFFFFFFFFFFFFFFFFFFFFFFFFFFFFFFFFFFFFFF AND PUSH20 0xFFFFFFFFFFFFFFFFFFFFFFFFFFFFFFFFFFFFFFFF AND DUP2 MSTORE PUSH1 0x20 ADD SWAP1 DUP2 MSTORE PUSH1 0x20 ADD PUSH0 KECCAK256 PUSH0 SWAP1 SLOAD SWAP1 PUSH2 0x100 EXP SWAP1 DIV PUSH1 0xFF AND SWAP1 POP SWAP3 SWAP2 POP POP JUMP JUMPDEST PUSH0 DUP1 PUSH2 0x1300 DUP7 DUP7 DUP7 DUP7 PUSH2 0x1D40 JUMP JUMPDEST SWAP1 POP PUSH2 0x1314 DUP2 PUSH2 0x130F PUSH0 PUSH2 0x2169 JUMP JUMPDEST PUSH2 0x218D JUMP JUMPDEST POP PUSH2 0x131E DUP2 PUSH2 0xD4A JUMP JUMPDEST PUSH20 0xFFFFFFFFFFFFFFFFFFFFFFFFFFFFFFFFFFFFFFFF AND PUSH2 0x133C PUSH2 0x252C JUMP JUMPDEST PUSH20 0xFFFFFFFFFFFFFFFFFFFFFFFFFFFFFFFFFFFFFFFF AND EQ PUSH2 0x139B JUMPI PUSH2 0x135F PUSH2 0x252C JUMP JUMPDEST PUSH1 0x40 MLOAD PUSH32 0x233D98E300000000000000000000000000000000000000000000000000000000 DUP2 MSTORE PUSH1 0x4 ADD PUSH2 0x1392 SWAP2 SWAP1 PUSH2 0x40B6 JUMP JUMPDEST PUSH1 0x40 MLOAD DUP1 SWAP2 SUB SWAP1 REVERT JUMPDEST PUSH2 0x13A7 DUP7 DUP7 DUP7 DUP7 PUSH2 0x2533 JUMP JUMPDEST SWAP2 POP POP SWAP5 SWAP4 POP POP POP POP JUMP JUMPDEST PUSH1 0x60 PUSH2 0x13BC PUSH2 0x1F22 JUMP JUMPDEST PUSH20 0xFFFFFFFFFFFFFFFFFFFFFFFFFFFFFFFFFFFFFFFF AND PUSH4 0x4BF5D7E9 PUSH1 0x40 MLOAD DUP2 PUSH4 0xFFFFFFFF AND PUSH1 0xE0 SHL DUP2 MSTORE PUSH1 0x4 ADD PUSH0 PUSH1 0x40 MLOAD DUP1 DUP4 SUB DUP2 DUP7 GAS STATICCALL SWAP3 POP POP POP DUP1 ISZERO PUSH2 0x1426 JUMPI POP PUSH1 0x40 MLOAD RETURNDATASIZE PUSH0 DUP3 RETURNDATACOPY RETURNDATASIZE PUSH1 0x1F NOT PUSH1 0x1F DUP3 ADD AND DUP3 ADD DUP1 PUSH1 0x40 MSTORE POP DUP2 ADD SWAP1 PUSH2 0x1423 SWAP2 SWAP1 PUSH2 0x525B JUMP JUMPDEST PUSH1 0x1 JUMPDEST PUSH2 0x1467 JUMPI PUSH1 0x40 MLOAD DUP1 PUSH1 0x40 ADD PUSH1 0x40 MSTORE DUP1 PUSH1 0x1D DUP2 MSTORE PUSH1 0x20 ADD PUSH32 0x6D6F64653D626C6F636B6E756D6265722666726F6D3D64656661756C74000000 DUP2 MSTORE POP SWAP1 POP PUSH2 0x146C JUMP JUMPDEST DUP1 SWAP2 POP POP JUMPDEST SWAP1 JUMP JUMPDEST PUSH0 DUP1 PUSH0 DUP1 PUSH1 0x7 PUSH0 DUP7 DUP2 MSTORE PUSH1 0x20 ADD SWAP1 DUP2 MSTORE PUSH1 0x20 ADD PUSH0 KECCAK256 SWAP1 POP DUP1 PUSH0 ADD SLOAD DUP2 PUSH1 0x1 ADD SLOAD DUP3 PUSH1 0x2 ADD SLOAD SWAP4 POP SWAP4 POP SWAP4 POP POP SWAP2 SWAP4 SWAP1 SWAP3 POP JUMP JUMPDEST PUSH1 0x60 PUSH1 0x40 MLOAD DUP1 PUSH1 0x40 ADD PUSH1 0x40 MSTORE DUP1 PUSH1 0x1 DUP2 MSTORE PUSH1 0x20 ADD PUSH32 0x3100000000000000000000000000000000000000000000000000000000000000 DUP2 MSTORE POP SWAP1 POP SWAP1 JUMP JUMPDEST PUSH0 DUP1 PUSH2 0x14E9 PUSH2 0x252C JUMP JUMPDEST SWAP1 POP PUSH2 0x1505 DUP5 DUP3 DUP6 PUSH1 0x40 MLOAD DUP1 PUSH1 0x20 ADD PUSH1 0x40 MSTORE DUP1 PUSH0 DUP2 MSTORE POP PUSH2 0x2615 JUMP JUMPDEST SWAP2 POP POP SWAP3 SWAP2 POP POP JUMP JUMPDEST PUSH0 DUP1 PUSH2 0x159B DUP8 PUSH2 0x1595 PUSH32 0x3E83946653575F9A39005E1545185629E92736B7528AB20CA3816F315424A811 DUP13 DUP13 DUP13 PUSH2 0x1544 DUP15 PUSH2 0x2634 JUMP JUMPDEST DUP14 DUP14 PUSH1 0x40 MLOAD PUSH2 0x1554 SWAP3 SWAP2 SWAP1 PUSH2 0x52D0 JUMP JUMPDEST PUSH1 0x40 MLOAD DUP1 SWAP2 SUB SWAP1 KECCAK256 DUP13 DUP1 MLOAD SWAP1 PUSH1 0x20 ADD KECCAK256 PUSH1 0x40 MLOAD PUSH1 0x20 ADD PUSH2 0x157A SWAP8 SWAP7 SWAP6 SWAP5 SWAP4 SWAP3 SWAP2 SWAP1 PUSH2 0x52F7 JUMP JUMPDEST PUSH1 0x40 MLOAD PUSH1 0x20 DUP2 DUP4 SUB SUB DUP2 MSTORE SWAP1 PUSH1 0x40 MSTORE DUP1 MLOAD SWAP1 PUSH1 0x20 ADD KECCAK256 PUSH2 0x2687 JUMP JUMPDEST DUP6 PUSH2 0x26A0 JUMP JUMPDEST SWAP1 POP DUP1 PUSH2 0x15DF JUMPI DUP7 PUSH1 0x40 MLOAD PUSH32 0x94AB6C0700000000000000000000000000000000000000000000000000000000 DUP2 MSTORE PUSH1 0x4 ADD PUSH2 0x15D6 SWAP2 SWAP1 PUSH2 0x40B6 JUMP JUMPDEST PUSH1 0x40 MLOAD DUP1 SWAP2 SUB SWAP1 REVERT JUMPDEST PUSH2 0x162F DUP10 DUP9 DUP11 DUP10 DUP10 DUP1 DUP1 PUSH1 0x1F ADD PUSH1 0x20 DUP1 SWAP2 DIV MUL PUSH1 0x20 ADD PUSH1 0x40 MLOAD SWAP1 DUP2 ADD PUSH1 0x40 MSTORE DUP1 SWAP4 SWAP3 SWAP2 SWAP1 DUP2 DUP2 MSTORE PUSH1 0x20 ADD DUP4 DUP4 DUP1 DUP3 DUP5 CALLDATACOPY PUSH0 DUP2 DUP5 ADD MSTORE PUSH1 0x1F NOT PUSH1 0x1F DUP3 ADD AND SWAP1 POP DUP1 DUP4 ADD SWAP3 POP POP POP POP POP POP POP DUP9 PUSH2 0x274C JUMP JUMPDEST SWAP2 POP POP SWAP8 SWAP7 POP POP POP POP POP POP POP JUMP JUMPDEST PUSH0 DUP1 PUSH2 0x1647 PUSH2 0x252C JUMP JUMPDEST SWAP1 POP PUSH2 0x1699 DUP8 DUP3 DUP9 DUP9 DUP9 DUP1 DUP1 PUSH1 0x1F ADD PUSH1 0x20 DUP1 SWAP2 DIV MUL PUSH1 0x20 ADD PUSH1 0x40 MLOAD SWAP1 DUP2 ADD PUSH1 0x40 MSTORE DUP1 SWAP4 SWAP3 SWAP2 SWAP1 DUP2 DUP2 MSTORE PUSH1 0x20 ADD DUP4 DUP4 DUP1 DUP3 DUP5 CALLDATACOPY PUSH0 DUP2 DUP5 ADD MSTORE PUSH1 0x1F NOT PUSH1 0x1F DUP3 ADD AND SWAP1 POP DUP1 DUP4 ADD SWAP3 POP POP POP POP POP POP POP DUP8 PUSH2 0x274C JUMP JUMPDEST SWAP2 POP POP SWAP6 SWAP5 POP POP POP POP POP JUMP JUMPDEST PUSH0 DUP1 PUSH1 0x8 PUSH0 ADD DUP1 SLOAD SWAP1 POP SWAP1 POP PUSH0 PUSH1 0x8 PUSH0 ADD PUSH1 0x1 DUP4 PUSH2 0x16C3 SWAP2 SWAP1 PUSH2 0x5391 JUMP JUMPDEST DUP2 SLOAD DUP2 LT PUSH2 0x16D4 JUMPI PUSH2 0x16D3 PUSH2 0x51C0 JUMP JUMPDEST JUMPDEST SWAP1 PUSH0 MSTORE PUSH1 0x20 PUSH0 KECCAK256 ADD SWAP1 POP PUSH0 DUP2 PUSH0 ADD PUSH0 SWAP1 SLOAD SWAP1 PUSH2 0x100 EXP SWAP1 DIV PUSH6 0xFFFFFFFFFFFF AND SWAP1 POP PUSH0 DUP3 PUSH0 ADD PUSH1 0x6 SWAP1 SLOAD SWAP1 PUSH2 0x100 EXP SWAP1 DIV PUSH26 0xFFFFFFFFFFFFFFFFFFFFFFFFFFFFFFFFFFFFFFFFFFFFFFFFFFFF AND SWAP1 POP DUP6 DUP3 PUSH6 0xFFFFFFFFFFFF AND GT PUSH2 0x175A JUMPI DUP1 PUSH26 0xFFFFFFFFFFFFFFFFFFFFFFFFFFFFFFFFFFFFFFFFFFFFFFFFFFFF AND SWAP5 POP POP POP POP POP PUSH2 0x1799 JUMP JUMPDEST PUSH2 0x1776 PUSH2 0x1766 DUP8 PUSH2 0x284D JUMP JUMPDEST PUSH1 0x8 PUSH2 0x28A6 SWAP1 SWAP2 SWAP1 PUSH4 0xFFFFFFFF AND JUMP JUMPDEST PUSH26 0xFFFFFFFFFFFFFFFFFFFFFFFFFFFFFFFFFFFFFFFFFFFFFFFFFFFF AND SWAP5 POP POP POP POP POP JUMPDEST SWAP2 SWAP1 POP JUMP JUMPDEST PUSH0 DUP1 PUSH2 0x17A8 PUSH2 0x252C JUMP JUMPDEST SWAP1 POP PUSH2 0x17F9 DUP7 DUP3 DUP8 DUP8 DUP8 DUP1 DUP1 PUSH1 0x1F ADD PUSH1 0x20 DUP1 SWAP2 DIV MUL PUSH1 0x20 ADD PUSH1 0x40 MLOAD SWAP1 DUP2 ADD PUSH1 0x40 MSTORE DUP1 SWAP4 SWAP3 SWAP2 SWAP1 DUP2 DUP2 MSTORE PUSH1 0x20 ADD DUP4 DUP4 DUP1 DUP3 DUP5 CALLDATACOPY PUSH0 DUP2 DUP5 ADD MSTORE PUSH1 0x1F NOT PUSH1 0x1F DUP3 ADD AND SWAP1 POP DUP1 DUP4 ADD SWAP3 POP POP POP POP POP POP POP PUSH2 0x2615 JUMP JUMPDEST SWAP2 POP POP SWAP5 SWAP4 POP POP POP POP JUMP JUMPDEST PUSH0 DUP1 PUSH2 0x180E PUSH2 0x252C JUMP JUMPDEST SWAP1 POP PUSH2 0x181A DUP2 DUP5 PUSH2 0x2993 JUMP JUMPDEST PUSH2 0x185B JUMPI DUP1 PUSH1 0x40 MLOAD PUSH32 0xD9B3955700000000000000000000000000000000000000000000000000000000 DUP2 MSTORE PUSH1 0x4 ADD PUSH2 0x1852 SWAP2 SWAP1 PUSH2 0x40B6 JUMP JUMPDEST PUSH1 0x40 MLOAD DUP1 SWAP2 SUB SWAP1 REVERT JUMPDEST PUSH0 PUSH2 0x1864 PUSH2 0x1BC9 JUMP JUMPDEST SWAP1 POP PUSH0 DUP2 GT ISZERO PUSH2 0x18E1 JUMPI PUSH0 PUSH2 0x1894 DUP4 PUSH1 0x1 PUSH2 0x187D PUSH2 0x1AB9 JUMP JUMPDEST PUSH2 0x1887 SWAP2 SWAP1 PUSH2 0x53C4 JUMP JUMPDEST PUSH6 0xFFFFFFFFFFFF AND PUSH2 0x1DDB JUMP JUMPDEST SWAP1 POP DUP2 DUP2 LT ISZERO PUSH2 0x18DF JUMPI DUP3 DUP2 DUP4 PUSH1 0x40 MLOAD PUSH32 0xC242EE1600000000000000000000000000000000000000000000000000000000 DUP2 MSTORE PUSH1 0x4 ADD PUSH2 0x18D6 SWAP4 SWAP3 SWAP2 SWAP1 PUSH2 0x53FD JUMP JUMPDEST PUSH1 0x40 MLOAD DUP1 SWAP2 SUB SWAP1 REVERT JUMPDEST POP JUMPDEST PUSH2 0x18EE DUP8 DUP8 DUP8 DUP8 DUP7 PUSH2 0x2ADB JUMP JUMPDEST SWAP3 POP POP POP SWAP5 SWAP4 POP POP POP POP JUMP JUMPDEST PUSH0 PUSH1 0x2 PUSH0 DUP4 PUSH20 0xFFFFFFFFFFFFFFFFFFFFFFFFFFFFFFFFFFFFFFFF AND PUSH20 0xFFFFFFFFFFFFFFFFFFFFFFFFFFFFFFFFFFFFFFFF AND DUP2 MSTORE PUSH1 0x20 ADD SWAP1 DUP2 MSTORE PUSH1 0x20 ADD PUSH0 KECCAK256 SLOAD SWAP1 POP SWAP2 SWAP1 POP JUMP JUMPDEST PUSH0 PUSH1 0x60 DUP1 PUSH0 DUP1 PUSH0 PUSH1 0x60 PUSH2 0x1951 PUSH2 0x2D60 JUMP JUMPDEST PUSH2 0x1959 PUSH2 0x2D9A JUMP JUMPDEST CHAINID ADDRESS PUSH0 DUP1 SHL PUSH0 PUSH8 0xFFFFFFFFFFFFFFFF DUP2 GT ISZERO PUSH2 0x1978 JUMPI PUSH2 0x1977 PUSH2 0x4101 JUMP JUMPDEST JUMPDEST PUSH1 0x40 MLOAD SWAP1 DUP1 DUP3 MSTORE DUP1 PUSH1 0x20 MUL PUSH1 0x20 ADD DUP3 ADD PUSH1 0x40 MSTORE DUP1 ISZERO PUSH2 0x19A6 JUMPI DUP2 PUSH1 0x20 ADD PUSH1 0x20 DUP3 MUL DUP1 CALLDATASIZE DUP4 CALLDATACOPY DUP1 DUP3 ADD SWAP2 POP POP SWAP1 POP JUMPDEST POP PUSH32 0xF00000000000000000000000000000000000000000000000000000000000000 SWAP6 SWAP5 SWAP4 SWAP3 SWAP2 SWAP1 SWAP7 POP SWAP7 POP SWAP7 POP SWAP7 POP SWAP7 POP SWAP7 POP SWAP7 POP SWAP1 SWAP2 SWAP3 SWAP4 SWAP5 SWAP6 SWAP7 JUMP JUMPDEST PUSH0 DUP1 PUSH2 0x1A50 DUP5 PUSH2 0x1A4A PUSH32 0xF2AAD550CF55F045CB27E9C559F9889FDFB6E6CDAA032301D6EA397784AE51D7 DUP10 DUP10 DUP10 PUSH2 0x1A1B DUP12 PUSH2 0x2634 JUMP JUMPDEST PUSH1 0x40 MLOAD PUSH1 0x20 ADD PUSH2 0x1A2F SWAP6 SWAP5 SWAP4 SWAP3 SWAP2 SWAP1 PUSH2 0x5432 JUMP JUMPDEST PUSH1 0x40 MLOAD PUSH1 0x20 DUP2 DUP4 SUB SUB DUP2 MSTORE SWAP1 PUSH1 0x40 MSTORE DUP1 MLOAD SWAP1 PUSH1 0x20 ADD KECCAK256 PUSH2 0x2687 JUMP JUMPDEST DUP6 PUSH2 0x26A0 JUMP JUMPDEST SWAP1 POP DUP1 PUSH2 0x1A94 JUMPI DUP4 PUSH1 0x40 MLOAD PUSH32 0x94AB6C0700000000000000000000000000000000000000000000000000000000 DUP2 MSTORE PUSH1 0x4 ADD PUSH2 0x1A8B SWAP2 SWAP1 PUSH2 0x40B6 JUMP JUMPDEST PUSH1 0x40 MLOAD DUP1 SWAP2 SUB SWAP1 REVERT JUMPDEST PUSH2 0x1AAE DUP7 DUP6 DUP8 PUSH1 0x40 MLOAD DUP1 PUSH1 0x20 ADD PUSH1 0x40 MSTORE DUP1 PUSH0 DUP2 MSTORE POP PUSH2 0x2615 JUMP JUMPDEST SWAP2 POP POP SWAP5 SWAP4 POP POP POP POP JUMP JUMPDEST PUSH0 PUSH2 0x1AC2 PUSH2 0x1F22 JUMP JUMPDEST PUSH20 0xFFFFFFFFFFFFFFFFFFFFFFFFFFFFFFFFFFFFFFFF AND PUSH4 0x91DDADF4 PUSH1 0x40 MLOAD DUP2 PUSH4 0xFFFFFFFF AND PUSH1 0xE0 SHL DUP2 MSTORE PUSH1 0x4 ADD PUSH1 0x20 PUSH1 0x40 MLOAD DUP1 DUP4 SUB DUP2 DUP7 GAS STATICCALL SWAP3 POP POP POP DUP1 ISZERO PUSH2 0x1B29 JUMPI POP PUSH1 0x40 MLOAD RETURNDATASIZE PUSH1 0x1F NOT PUSH1 0x1F DUP3 ADD AND DUP3 ADD DUP1 PUSH1 0x40 MSTORE POP DUP2 ADD SWAP1 PUSH2 0x1B26 SWAP2 SWAP1 PUSH2 0x54AD JUMP JUMPDEST PUSH1 0x1 JUMPDEST PUSH2 0x1B3C JUMPI PUSH2 0x1B35 PUSH2 0x2DD5 JUMP JUMPDEST SWAP1 POP PUSH2 0x1B41 JUMP JUMPDEST DUP1 SWAP2 POP POP JUMPDEST SWAP1 JUMP JUMPDEST PUSH0 PUSH1 0x64 SWAP1 POP SWAP1 JUMP JUMPDEST PUSH0 PUSH2 0x1B58 DUP5 DUP5 DUP5 PUSH2 0x2DE4 JUMP JUMPDEST SWAP1 POP SWAP4 SWAP3 POP POP POP JUMP JUMPDEST PUSH0 PUSH2 0x1B6C PUSH1 0x8 PUSH2 0x2E6F JUMP JUMPDEST PUSH26 0xFFFFFFFFFFFFFFFFFFFFFFFFFFFFFFFFFFFFFFFFFFFFFFFFFFFF AND SWAP1 POP SWAP1 JUMP JUMPDEST PUSH0 SWAP2 SWAP1 POP JUMP JUMPDEST PUSH0 PUSH1 0x4 PUSH0 DUP4 DUP2 MSTORE PUSH1 0x20 ADD SWAP1 DUP2 MSTORE PUSH1 0x20 ADD PUSH0 KECCAK256 PUSH1 0x1 ADD PUSH0 SWAP1 SLOAD SWAP1 PUSH2 0x100 EXP SWAP1 DIV PUSH6 0xFFFFFFFFFFFF AND PUSH6 0xFFFFFFFFFFFF AND SWAP1 POP SWAP2 SWAP1 POP JUMP JUMPDEST PUSH0 SWAP1 JUMP JUMPDEST PUSH0 ADDRESS PUSH20 0xFFFFFFFFFFFFFFFFFFFFFFFFFFFFFFFFFFFFFFFF AND PUSH2 0x1BED PUSH2 0xBB6 JUMP JUMPDEST PUSH20 0xFFFFFFFFFFFFFFFFFFFFFFFFFFFFFFFFFFFFFFFF AND EQ PUSH2 0x1C3A JUMPI PUSH1 0x40 MLOAD PUSH32 0xE90A651E00000000000000000000000000000000000000000000000000000000 DUP2 MSTORE PUSH1 0x4 ADD PUSH1 0x40 MLOAD DUP1 SWAP2 SUB SWAP1 REVERT JUMPDEST PUSH4 0xBC197C81 PUSH1 0xE0 SHL SWAP1 POP SWAP6 SWAP5 POP POP POP POP POP JUMP JUMPDEST PUSH0 PUSH1 0x4 PUSH0 DUP4 DUP2 MSTORE PUSH1 0x20 ADD SWAP1 DUP2 MSTORE PUSH1 0x20 ADD PUSH0 KECCAK256 PUSH0 ADD PUSH1 0x1A SWAP1 SLOAD SWAP1 PUSH2 0x100 EXP SWAP1 DIV PUSH4 0xFFFFFFFF AND PUSH4 0xFFFFFFFF AND PUSH1 0x4 PUSH0 DUP5 DUP2 MSTORE PUSH1 0x20 ADD SWAP1 DUP2 MSTORE PUSH1 0x20 ADD PUSH0 KECCAK256 PUSH0 ADD PUSH1 0x14 SWAP1 SLOAD SWAP1 PUSH2 0x100 EXP SWAP1 DIV PUSH6 0xFFFFFFFFFFFF AND PUSH2 0x1CA8 SWAP2 SWAP1 PUSH2 0x54D8 JUMP JUMPDEST PUSH6 0xFFFFFFFFFFFF AND SWAP1 POP SWAP2 SWAP1 POP JUMP JUMPDEST PUSH2 0x1CBF PUSH2 0x1FB2 JUMP JUMPDEST PUSH0 DUP1 DUP6 PUSH20 0xFFFFFFFFFFFFFFFFFFFFFFFFFFFFFFFFFFFFFFFF AND DUP6 DUP6 DUP6 PUSH1 0x40 MLOAD PUSH2 0x1CE9 SWAP3 SWAP2 SWAP1 PUSH2 0x52D0 JUMP JUMPDEST PUSH0 PUSH1 0x40 MLOAD DUP1 DUP4 SUB DUP2 DUP6 DUP8 GAS CALL SWAP3 POP POP POP RETURNDATASIZE DUP1 PUSH0 DUP2 EQ PUSH2 0x1D23 JUMPI PUSH1 0x40 MLOAD SWAP2 POP PUSH1 0x1F NOT PUSH1 0x3F RETURNDATASIZE ADD AND DUP3 ADD PUSH1 0x40 MSTORE RETURNDATASIZE DUP3 MSTORE RETURNDATASIZE PUSH0 PUSH1 0x20 DUP5 ADD RETURNDATACOPY PUSH2 0x1D28 JUMP JUMPDEST PUSH1 0x60 SWAP2 POP JUMPDEST POP SWAP2 POP SWAP2 POP PUSH2 0x1D37 DUP3 DUP3 PUSH2 0x2ED1 JUMP JUMPDEST POP POP POP POP POP POP POP JUMP JUMPDEST PUSH0 DUP5 DUP5 DUP5 DUP5 PUSH1 0x40 MLOAD PUSH1 0x20 ADD PUSH2 0x1D58 SWAP5 SWAP4 SWAP3 SWAP2 SWAP1 PUSH2 0x56D5 JUMP JUMPDEST PUSH1 0x40 MLOAD PUSH1 0x20 DUP2 DUP4 SUB SUB DUP2 MSTORE SWAP1 PUSH1 0x40 MSTORE DUP1 MLOAD SWAP1 PUSH1 0x20 ADD KECCAK256 PUSH0 SHR SWAP1 POP SWAP5 SWAP4 POP POP POP POP JUMP JUMPDEST PUSH1 0x60 PUSH1 0x40 MLOAD DUP1 PUSH1 0x40 ADD PUSH1 0x40 MSTORE DUP1 PUSH1 0x20 DUP2 MSTORE PUSH1 0x20 ADD PUSH32 0x737570706F72743D627261766F2671756F72756D3D666F722C6162737461696E DUP2 MSTORE POP SWAP1 POP SWAP1 JUMP JUMPDEST PUSH32 0xF2AAD550CF55F045CB27E9C559F9889FDFB6E6CDAA032301D6EA397784AE51D7 DUP2 JUMP JUMPDEST PUSH0 PUSH2 0x1DEE DUP4 DUP4 PUSH2 0x1DE9 PUSH2 0x2EF5 JUMP JUMPDEST PUSH2 0x2DE4 JUMP JUMPDEST SWAP1 POP SWAP3 SWAP2 POP POP JUMP JUMPDEST PUSH0 ADDRESS PUSH20 0xFFFFFFFFFFFFFFFFFFFFFFFFFFFFFFFFFFFFFFFF AND PUSH2 0x1E16 PUSH2 0xBB6 JUMP JUMPDEST PUSH20 0xFFFFFFFFFFFFFFFFFFFFFFFFFFFFFFFFFFFFFFFF AND EQ PUSH2 0x1E63 JUMPI PUSH1 0x40 MLOAD PUSH32 0xE90A651E00000000000000000000000000000000000000000000000000000000 DUP2 MSTORE PUSH1 0x4 ADD PUSH1 0x40 MLOAD DUP1 SWAP2 SUB SWAP1 REVERT JUMPDEST PUSH4 0xF23A6E61 PUSH1 0xE0 SHL SWAP1 POP SWAP6 SWAP5 POP POP POP POP POP JUMP JUMPDEST PUSH0 PUSH2 0x1E7F PUSH2 0x1B44 JUMP JUMPDEST PUSH2 0x1E88 DUP4 PUSH2 0x16A5 JUMP JUMPDEST PUSH2 0x1E90 PUSH2 0x1F22 JUMP JUMPDEST PUSH20 0xFFFFFFFFFFFFFFFFFFFFFFFFFFFFFFFFFFFFFFFF AND PUSH4 0x8E539E8C DUP6 PUSH1 0x40 MLOAD DUP3 PUSH4 0xFFFFFFFF AND PUSH1 0xE0 SHL DUP2 MSTORE PUSH1 0x4 ADD PUSH2 0x1EC8 SWAP2 SWAP1 PUSH2 0x3F79 JUMP JUMPDEST PUSH1 0x20 PUSH1 0x40 MLOAD DUP1 DUP4 SUB DUP2 DUP7 GAS STATICCALL ISZERO DUP1 ISZERO PUSH2 0x1EE3 JUMPI RETURNDATASIZE PUSH0 DUP1 RETURNDATACOPY RETURNDATASIZE PUSH0 REVERT JUMPDEST POP POP POP POP PUSH1 0x40 MLOAD RETURNDATASIZE PUSH1 0x1F NOT PUSH1 0x1F DUP3 ADD AND DUP3 ADD DUP1 PUSH1 0x40 MSTORE POP DUP2 ADD SWAP1 PUSH2 0x1F07 SWAP2 SWAP1 PUSH2 0x5741 JUMP JUMPDEST PUSH2 0x1F11 SWAP2 SWAP1 PUSH2 0x576C JUMP JUMPDEST PUSH2 0x1F1B SWAP2 SWAP1 PUSH2 0x57DA JUMP JUMPDEST SWAP1 POP SWAP2 SWAP1 POP JUMP JUMPDEST PUSH0 PUSH32 0x0 SWAP1 POP SWAP1 JUMP JUMPDEST PUSH0 PUSH32 0x1FFC9A700000000000000000000000000000000000000000000000000000000 PUSH28 0xFFFFFFFFFFFFFFFFFFFFFFFFFFFFFFFFFFFFFFFFFFFFFFFFFFFFFFFF NOT AND DUP3 PUSH28 0xFFFFFFFFFFFFFFFFFFFFFFFFFFFFFFFFFFFFFFFFFFFFFFFFFFFFFFFF NOT AND EQ SWAP1 POP SWAP2 SWAP1 POP JUMP JUMPDEST PUSH2 0x1FBA PUSH2 0x252C JUMP JUMPDEST PUSH20 0xFFFFFFFFFFFFFFFFFFFFFFFFFFFFFFFFFFFFFFFF AND PUSH2 0x1FD8 PUSH2 0xBB6 JUMP JUMPDEST PUSH20 0xFFFFFFFFFFFFFFFFFFFFFFFFFFFFFFFFFFFFFFFF AND EQ PUSH2 0x2037 JUMPI PUSH2 0x1FFB PUSH2 0x252C JUMP JUMPDEST PUSH1 0x40 MLOAD PUSH32 0x47096E4700000000000000000000000000000000000000000000000000000000 DUP2 MSTORE PUSH1 0x4 ADD PUSH2 0x202E SWAP2 SWAP1 PUSH2 0x40B6 JUMP JUMPDEST PUSH1 0x40 MLOAD DUP1 SWAP2 SUB SWAP1 REVERT JUMPDEST ADDRESS PUSH20 0xFFFFFFFFFFFFFFFFFFFFFFFFFFFFFFFFFFFFFFFF AND PUSH2 0x2056 PUSH2 0xBB6 JUMP JUMPDEST PUSH20 0xFFFFFFFFFFFFFFFFFFFFFFFFFFFFFFFFFFFFFFFF AND EQ PUSH2 0x20A5 JUMPI PUSH0 PUSH2 0x207A PUSH2 0x2F0B JUMP JUMPDEST PUSH1 0x40 MLOAD PUSH2 0x2088 SWAP3 SWAP2 SWAP1 PUSH2 0x52D0 JUMP JUMPDEST PUSH1 0x40 MLOAD DUP1 SWAP2 SUB SWAP1 KECCAK256 SWAP1 POP JUMPDEST DUP1 PUSH2 0x209E PUSH1 0x5 PUSH2 0x2F17 JUMP JUMPDEST SUB PUSH2 0x2093 JUMPI POP JUMPDEST JUMP JUMPDEST PUSH0 PUSH2 0x20B0 PUSH2 0x1B44 JUMP JUMPDEST SWAP1 POP DUP1 DUP3 GT ISZERO PUSH2 0x20F9 JUMPI DUP2 DUP2 PUSH1 0x40 MLOAD PUSH32 0x243E544500000000000000000000000000000000000000000000000000000000 DUP2 MSTORE PUSH1 0x4 ADD PUSH2 0x20F0 SWAP3 SWAP2 SWAP1 PUSH2 0x580A JUMP JUMPDEST PUSH1 0x40 MLOAD DUP1 SWAP2 SUB SWAP1 REVERT JUMPDEST PUSH0 PUSH2 0x2102 PUSH2 0x1B61 JUMP JUMPDEST SWAP1 POP PUSH2 0x2129 PUSH2 0x210F PUSH2 0x1AB9 JUMP JUMPDEST PUSH2 0x2118 DUP6 PUSH2 0x3045 JUMP JUMPDEST PUSH1 0x8 PUSH2 0x30B2 SWAP1 SWAP3 SWAP2 SWAP1 PUSH4 0xFFFFFFFF AND JUMP JUMPDEST POP POP PUSH32 0x553476BF02EF2726E8CE5CED78D63E26E602E4A2257B1F559418E24B4633997 DUP2 DUP5 PUSH1 0x40 MLOAD PUSH2 0x215C SWAP3 SWAP2 SWAP1 PUSH2 0x580A JUMP JUMPDEST PUSH1 0x40 MLOAD DUP1 SWAP2 SUB SWAP1 LOG1 POP POP POP JUMP JUMPDEST PUSH0 DUP2 PUSH1 0x7 DUP2 GT ISZERO PUSH2 0x217D JUMPI PUSH2 0x217C PUSH2 0x4642 JUMP JUMPDEST JUMPDEST PUSH1 0xFF AND PUSH1 0x1 SWAP1 SHL PUSH0 SHL SWAP1 POP SWAP2 SWAP1 POP JUMP JUMPDEST PUSH0 DUP1 PUSH2 0x2198 DUP5 PUSH2 0x1136 JUMP JUMPDEST SWAP1 POP PUSH0 DUP1 SHL DUP4 PUSH2 0x21A7 DUP4 PUSH2 0x2169 JUMP JUMPDEST AND SUB PUSH2 0x21EE JUMPI DUP4 DUP2 DUP5 PUSH1 0x40 MLOAD PUSH32 0x31B75E4D00000000000000000000000000000000000000000000000000000000 DUP2 MSTORE PUSH1 0x4 ADD PUSH2 0x21E5 SWAP4 SWAP3 SWAP2 SWAP1 PUSH2 0x5831 JUMP JUMPDEST PUSH1 0x40 MLOAD DUP1 SWAP2 SUB SWAP1 REVERT JUMPDEST DUP1 SWAP2 POP POP SWAP3 SWAP2 POP POP JUMP JUMPDEST PUSH0 SWAP6 SWAP5 POP POP POP POP POP JUMP JUMPDEST PUSH0 DUP3 PUSH0 ADD PUSH1 0x10 SWAP1 SLOAD SWAP1 PUSH2 0x100 EXP SWAP1 DIV PUSH16 0xFFFFFFFFFFFFFFFFFFFFFFFFFFFFFFFF AND SWAP1 POP DUP3 PUSH0 ADD PUSH0 SWAP1 SLOAD SWAP1 PUSH2 0x100 EXP SWAP1 DIV PUSH16 0xFFFFFFFFFFFFFFFFFFFFFFFFFFFFFFFF AND PUSH16 0xFFFFFFFFFFFFFFFFFFFFFFFFFFFFFFFF AND PUSH1 0x1 DUP3 ADD PUSH16 0xFFFFFFFFFFFFFFFFFFFFFFFFFFFFFFFF AND SUB PUSH2 0x227C JUMPI PUSH2 0x227B PUSH1 0x41 PUSH2 0x30CD JUMP JUMPDEST JUMPDEST DUP2 DUP4 PUSH1 0x1 ADD PUSH0 DUP4 PUSH16 0xFFFFFFFFFFFFFFFFFFFFFFFFFFFFFFFF AND PUSH16 0xFFFFFFFFFFFFFFFFFFFFFFFFFFFFFFFF AND DUP2 MSTORE PUSH1 0x20 ADD SWAP1 DUP2 MSTORE PUSH1 0x20 ADD PUSH0 KECCAK256 DUP2 SWAP1 SSTORE POP PUSH1 0x1 DUP2 ADD DUP4 PUSH0 ADD PUSH1 0x10 PUSH2 0x100 EXP DUP2 SLOAD DUP2 PUSH16 0xFFFFFFFFFFFFFFFFFFFFFFFFFFFFFFFF MUL NOT AND SWAP1 DUP4 PUSH16 0xFFFFFFFFFFFFFFFFFFFFFFFFFFFFFFFF AND MUL OR SWAP1 SSTORE POP POP POP POP JUMP JUMPDEST PUSH0 JUMPDEST DUP5 MLOAD DUP2 LT ISZERO PUSH2 0x23D7 JUMPI PUSH0 DUP1 DUP7 DUP4 DUP2 MLOAD DUP2 LT PUSH2 0x231A JUMPI PUSH2 0x2319 PUSH2 0x51C0 JUMP JUMPDEST JUMPDEST PUSH1 0x20 MUL PUSH1 0x20 ADD ADD MLOAD PUSH20 0xFFFFFFFFFFFFFFFFFFFFFFFFFFFFFFFFFFFFFFFF AND DUP7 DUP5 DUP2 MLOAD DUP2 LT PUSH2 0x234B JUMPI PUSH2 0x234A PUSH2 0x51C0 JUMP JUMPDEST JUMPDEST PUSH1 0x20 MUL PUSH1 0x20 ADD ADD MLOAD DUP7 DUP6 DUP2 MLOAD DUP2 LT PUSH2 0x2366 JUMPI PUSH2 0x2365 PUSH2 0x51C0 JUMP JUMPDEST JUMPDEST PUSH1 0x20 MUL PUSH1 0x20 ADD ADD MLOAD PUSH1 0x40 MLOAD PUSH2 0x237B SWAP2 SWAP1 PUSH2 0x5896 JUMP JUMPDEST PUSH0 PUSH1 0x40 MLOAD DUP1 DUP4 SUB DUP2 DUP6 DUP8 GAS CALL SWAP3 POP POP POP RETURNDATASIZE DUP1 PUSH0 DUP2 EQ PUSH2 0x23B5 JUMPI PUSH1 0x40 MLOAD SWAP2 POP PUSH1 0x1F NOT PUSH1 0x3F RETURNDATASIZE ADD AND DUP3 ADD PUSH1 0x40 MSTORE RETURNDATASIZE DUP3 MSTORE RETURNDATASIZE PUSH0 PUSH1 0x20 DUP5 ADD RETURNDATACOPY PUSH2 0x23BA JUMP JUMPDEST PUSH1 0x60 SWAP2 POP JUMPDEST POP SWAP2 POP SWAP2 POP PUSH2 0x23C9 DUP3 DUP3 PUSH2 0x2ED1 JUMP JUMPDEST POP POP POP DUP1 PUSH1 0x1 ADD SWAP1 POP PUSH2 0x22FC JUMP JUMPDEST POP POP POP POP POP POP JUMP JUMPDEST PUSH0 DUP2 PUSH0 ADD PUSH0 SWAP1 SLOAD SWAP1 PUSH2 0x100 EXP SWAP1 DIV PUSH16 0xFFFFFFFFFFFFFFFFFFFFFFFFFFFFFFFF AND PUSH16 0xFFFFFFFFFFFFFFFFFFFFFFFFFFFFFFFF AND DUP3 PUSH0 ADD PUSH1 0x10 SWAP1 SLOAD SWAP1 PUSH2 0x100 EXP SWAP1 DIV PUSH16 0xFFFFFFFFFFFFFFFFFFFFFFFFFFFFFFFF AND PUSH16 0xFFFFFFFFFFFFFFFFFFFFFFFFFFFFFFFF AND EQ SWAP1 POP SWAP2 SWAP1 POP JUMP JUMPDEST PUSH0 DUP2 PUSH0 ADD PUSH0 PUSH2 0x100 EXP DUP2 SLOAD DUP2 PUSH16 0xFFFFFFFFFFFFFFFFFFFFFFFFFFFFFFFF MUL NOT AND SWAP1 DUP4 PUSH16 0xFFFFFFFFFFFFFFFFFFFFFFFFFFFFFFFF AND MUL OR SWAP1 SSTORE POP PUSH0 DUP2 PUSH0 ADD PUSH1 0x10 PUSH2 0x100 EXP DUP2 SLOAD DUP2 PUSH16 0xFFFFFFFFFFFFFFFFFFFFFFFFFFFFFFFF MUL NOT AND SWAP1 DUP4 PUSH16 0xFFFFFFFFFFFFFFFFFFFFFFFFFFFFFFFF AND MUL OR SWAP1 SSTORE POP POP JUMP JUMPDEST PUSH0 DUP1 PUSH1 0x7 PUSH0 DUP5 DUP2 MSTORE PUSH1 0x20 ADD SWAP1 DUP2 MSTORE PUSH1 0x20 ADD PUSH0 KECCAK256 SWAP1 POP DUP1 PUSH1 0x2 ADD SLOAD DUP2 PUSH1 0x1 ADD SLOAD PUSH2 0x24EA SWAP2 SWAP1 PUSH2 0x58AC JUMP JUMPDEST PUSH2 0x24FB PUSH2 0x24F6 DUP6 PUSH2 0x10D4 JUMP JUMPDEST PUSH2 0x1E76 JUMP JUMPDEST GT ISZERO SWAP2 POP POP SWAP2 SWAP1 POP JUMP JUMPDEST PUSH0 DUP1 PUSH1 0x7 PUSH0 DUP5 DUP2 MSTORE PUSH1 0x20 ADD SWAP1 DUP2 MSTORE PUSH1 0x20 ADD PUSH0 KECCAK256 SWAP1 POP DUP1 PUSH0 ADD SLOAD DUP2 PUSH1 0x1 ADD SLOAD GT SWAP2 POP POP SWAP2 SWAP1 POP JUMP JUMPDEST PUSH0 CALLER SWAP1 POP SWAP1 JUMP JUMPDEST PUSH0 DUP1 PUSH2 0x2541 DUP7 DUP7 DUP7 DUP7 PUSH2 0x1D40 JUMP JUMPDEST SWAP1 POP PUSH2 0x25A5 DUP2 PUSH2 0x2551 PUSH1 0x7 PUSH2 0x2169 JUMP JUMPDEST PUSH2 0x255B PUSH1 0x6 PUSH2 0x2169 JUMP JUMPDEST PUSH2 0x2565 PUSH1 0x2 PUSH2 0x2169 JUMP JUMPDEST PUSH1 0x1 DUP1 PUSH1 0x7 DUP1 DUP2 GT ISZERO PUSH2 0x257B JUMPI PUSH2 0x257A PUSH2 0x4642 JUMP JUMPDEST JUMPDEST PUSH2 0x2585 SWAP2 SWAP1 PUSH2 0x58DF JUMP JUMPDEST PUSH1 0x2 PUSH2 0x2591 SWAP2 SWAP1 PUSH2 0x5A42 JUMP JUMPDEST PUSH2 0x259B SWAP2 SWAP1 PUSH2 0x5391 JUMP JUMPDEST PUSH0 SHL XOR XOR XOR PUSH2 0x218D JUMP JUMPDEST POP PUSH1 0x1 PUSH1 0x4 PUSH0 DUP4 DUP2 MSTORE PUSH1 0x20 ADD SWAP1 DUP2 MSTORE PUSH1 0x20 ADD PUSH0 KECCAK256 PUSH0 ADD PUSH1 0x1F PUSH2 0x100 EXP DUP2 SLOAD DUP2 PUSH1 0xFF MUL NOT AND SWAP1 DUP4 ISZERO ISZERO MUL OR SWAP1 SSTORE POP PUSH32 0x789CF55BE980739DAD1D0699B93B58E806B51C9D96619BFA8FE0A28ABAA7B30C DUP2 PUSH1 0x40 MLOAD PUSH2 0x2601 SWAP2 SWAP1 PUSH2 0x3F79 JUMP JUMPDEST PUSH1 0x40 MLOAD DUP1 SWAP2 SUB SWAP1 LOG1 DUP1 SWAP2 POP POP SWAP5 SWAP4 POP POP POP POP JUMP JUMPDEST PUSH0 PUSH2 0x262A DUP6 DUP6 DUP6 DUP6 PUSH2 0x2625 PUSH2 0x2EF5 JUMP JUMPDEST PUSH2 0x274C JUMP JUMPDEST SWAP1 POP SWAP5 SWAP4 POP POP POP POP JUMP JUMPDEST PUSH0 PUSH1 0x2 PUSH0 DUP4 PUSH20 0xFFFFFFFFFFFFFFFFFFFFFFFFFFFFFFFFFFFFFFFF AND PUSH20 0xFFFFFFFFFFFFFFFFFFFFFFFFFFFFFFFFFFFFFFFF AND DUP2 MSTORE PUSH1 0x20 ADD SWAP1 DUP2 MSTORE PUSH1 0x20 ADD PUSH0 KECCAK256 PUSH0 DUP2 SLOAD DUP1 SWAP3 SWAP2 SWAP1 PUSH1 0x1 ADD SWAP2 SWAP1 POP SSTORE SWAP1 POP SWAP2 SWAP1 POP JUMP JUMPDEST PUSH0 PUSH2 0x2699 PUSH2 0x2693 PUSH2 0x30DE JUMP JUMPDEST DUP4 PUSH2 0x3194 JUMP JUMPDEST SWAP1 POP SWAP2 SWAP1 POP JUMP JUMPDEST PUSH0 DUP1 DUP5 PUSH20 0xFFFFFFFFFFFFFFFFFFFFFFFFFFFFFFFFFFFFFFFF AND EXTCODESIZE SUB PUSH2 0x2737 JUMPI PUSH0 DUP1 PUSH2 0x26CB DUP6 DUP6 PUSH2 0x31D4 JUMP JUMPDEST POP SWAP2 POP SWAP2 POP PUSH0 PUSH1 0x3 DUP2 GT ISZERO PUSH2 0x26E3 JUMPI PUSH2 0x26E2 PUSH2 0x4642 JUMP JUMPDEST JUMPDEST DUP2 PUSH1 0x3 DUP2 GT ISZERO PUSH2 0x26F6 JUMPI PUSH2 0x26F5 PUSH2 0x4642 JUMP JUMPDEST JUMPDEST EQ DUP1 ISZERO PUSH2 0x272E JUMPI POP DUP6 PUSH20 0xFFFFFFFFFFFFFFFFFFFFFFFFFFFFFFFFFFFFFFFF AND DUP3 PUSH20 0xFFFFFFFFFFFFFFFFFFFFFFFFFFFFFFFFFFFFFFFF AND EQ JUMPDEST SWAP3 POP POP POP PUSH2 0x2745 JUMP JUMPDEST PUSH2 0x2742 DUP5 DUP5 DUP5 PUSH2 0x3229 JUMP JUMPDEST SWAP1 POP JUMPDEST SWAP4 SWAP3 POP POP POP JUMP JUMPDEST PUSH0 PUSH2 0x2760 DUP7 PUSH2 0x275B PUSH1 0x1 PUSH2 0x2169 JUMP JUMPDEST PUSH2 0x218D JUMP JUMPDEST POP PUSH0 PUSH2 0x2775 DUP7 PUSH2 0x276F DUP10 PUSH2 0x10D4 JUMP JUMPDEST DUP6 PUSH2 0x2DE4 JUMP JUMPDEST SWAP1 POP PUSH0 PUSH2 0x2785 DUP9 DUP9 DUP9 DUP6 DUP9 PUSH2 0x3348 JUMP JUMPDEST SWAP1 POP PUSH0 DUP5 MLOAD SUB PUSH2 0x27E8 JUMPI DUP7 PUSH20 0xFFFFFFFFFFFFFFFFFFFFFFFFFFFFFFFFFFFFFFFF AND PUSH32 0xB8E138887D0AA13BAB447E82DE9D5C1777041ECD21CA36BA824FF1E6C07DDDA4 DUP10 DUP9 DUP5 DUP10 PUSH1 0x40 MLOAD PUSH2 0x27DB SWAP5 SWAP4 SWAP3 SWAP2 SWAP1 PUSH2 0x5A8C JUMP JUMPDEST PUSH1 0x40 MLOAD DUP1 SWAP2 SUB SWAP1 LOG2 PUSH2 0x283F JUMP JUMPDEST DUP7 PUSH20 0xFFFFFFFFFFFFFFFFFFFFFFFFFFFFFFFFFFFFFFFF AND PUSH32 0xE2BABFBAC5889A709B63BB7F598B324E08BC5A4FB9EC647FB3CBC9EC07EB8712 DUP10 DUP9 DUP5 DUP10 DUP10 PUSH1 0x40 MLOAD PUSH2 0x2836 SWAP6 SWAP5 SWAP4 SWAP3 SWAP2 SWAP1 PUSH2 0x5B1E JUMP JUMPDEST PUSH1 0x40 MLOAD DUP1 SWAP2 SUB SWAP1 LOG2 JUMPDEST DUP1 SWAP3 POP POP POP SWAP6 SWAP5 POP POP POP POP POP JUMP JUMPDEST PUSH0 PUSH6 0xFFFFFFFFFFFF DUP1 AND DUP3 GT ISZERO PUSH2 0x289E JUMPI PUSH1 0x30 DUP3 PUSH1 0x40 MLOAD PUSH32 0x6DFCC65000000000000000000000000000000000000000000000000000000000 DUP2 MSTORE PUSH1 0x4 ADD PUSH2 0x2895 SWAP3 SWAP2 SWAP1 PUSH2 0x5BB6 JUMP JUMPDEST PUSH1 0x40 MLOAD DUP1 SWAP2 SUB SWAP1 REVERT JUMPDEST DUP2 SWAP1 POP SWAP2 SWAP1 POP JUMP JUMPDEST PUSH0 DUP1 DUP4 PUSH0 ADD DUP1 SLOAD SWAP1 POP SWAP1 POP PUSH0 DUP1 DUP3 SWAP1 POP PUSH1 0x5 DUP4 GT ISZERO PUSH2 0x2927 JUMPI PUSH0 PUSH2 0x28C9 DUP5 PUSH2 0x353D JUMP JUMPDEST DUP5 PUSH2 0x28D4 SWAP2 SWAP1 PUSH2 0x5391 JUMP JUMPDEST SWAP1 POP PUSH2 0x28E2 DUP8 PUSH0 ADD DUP3 PUSH2 0x36D7 JUMP JUMPDEST PUSH0 ADD PUSH0 SWAP1 SLOAD SWAP1 PUSH2 0x100 EXP SWAP1 DIV PUSH6 0xFFFFFFFFFFFF AND PUSH6 0xFFFFFFFFFFFF AND DUP7 PUSH6 0xFFFFFFFFFFFF AND LT ISZERO PUSH2 0x2915 JUMPI DUP1 SWAP2 POP PUSH2 0x2925 JUMP JUMPDEST PUSH1 0x1 DUP2 PUSH2 0x2922 SWAP2 SWAP1 PUSH2 0x58AC JUMP JUMPDEST SWAP3 POP JUMPDEST POP JUMPDEST PUSH0 PUSH2 0x2936 DUP8 PUSH0 ADD DUP8 DUP6 DUP6 PUSH2 0x36E9 JUMP JUMPDEST SWAP1 POP PUSH0 DUP2 EQ PUSH2 0x2985 JUMPI PUSH2 0x2957 DUP8 PUSH0 ADD PUSH1 0x1 DUP4 PUSH2 0x2952 SWAP2 SWAP1 PUSH2 0x5391 JUMP JUMPDEST PUSH2 0x36D7 JUMP JUMPDEST PUSH0 ADD PUSH1 0x6 SWAP1 SLOAD SWAP1 PUSH2 0x100 EXP SWAP1 DIV PUSH26 0xFFFFFFFFFFFFFFFFFFFFFFFFFFFFFFFFFFFFFFFFFFFFFFFFFFFF AND PUSH2 0x2987 JUMP JUMPDEST PUSH0 JUMPDEST SWAP5 POP POP POP POP POP SWAP3 SWAP2 POP POP JUMP JUMPDEST PUSH0 DUP1 DUP3 MLOAD SWAP1 POP PUSH1 0x34 DUP2 LT ISZERO PUSH2 0x29AC JUMPI PUSH1 0x1 SWAP2 POP POP PUSH2 0x2AD5 JUMP JUMPDEST PUSH0 PUSH1 0x14 DUP3 SUB DUP5 ADD MLOAD SWAP1 POP PUSH32 0x2370726F706F7365723D30780000000000000000000000000000000000000000 PUSH20 0xFFFFFFFFFFFFFFFFFFFFFFFFFFFFFFFFFFFFFFFF NOT AND DUP2 PUSH20 0xFFFFFFFFFFFFFFFFFFFFFFFFFFFFFFFFFFFFFFFF NOT AND EQ PUSH2 0x2A16 JUMPI PUSH1 0x1 SWAP3 POP POP POP PUSH2 0x2AD5 JUMP JUMPDEST PUSH0 DUP1 PUSH1 0x28 DUP5 PUSH2 0x2A25 SWAP2 SWAP1 PUSH2 0x5391 JUMP JUMPDEST SWAP1 POP JUMPDEST DUP4 DUP2 LT ISZERO PUSH2 0x2A9F JUMPI PUSH0 DUP1 PUSH2 0x2A58 DUP9 DUP5 DUP2 MLOAD DUP2 LT PUSH2 0x2A48 JUMPI PUSH2 0x2A47 PUSH2 0x51C0 JUMP JUMPDEST JUMPDEST PUSH1 0x20 ADD ADD MLOAD PUSH1 0xF8 SHR PUSH1 0xF8 SHL PUSH2 0x375E JUMP JUMPDEST SWAP2 POP SWAP2 POP DUP2 PUSH2 0x2A70 JUMPI PUSH1 0x1 SWAP7 POP POP POP POP POP POP POP PUSH2 0x2AD5 JUMP JUMPDEST DUP1 PUSH1 0xFF AND PUSH1 0x4 DUP6 PUSH20 0xFFFFFFFFFFFFFFFFFFFFFFFFFFFFFFFFFFFFFFFF AND SWAP1 SHL OR SWAP4 POP POP POP DUP1 PUSH1 0x1 ADD SWAP1 POP PUSH2 0x2A28 JUMP JUMPDEST POP DUP6 PUSH20 0xFFFFFFFFFFFFFFFFFFFFFFFFFFFFFFFFFFFFFFFF AND DUP2 PUSH20 0xFFFFFFFFFFFFFFFFFFFFFFFFFFFFFFFFFFFFFFFF AND EQ SWAP4 POP POP POP POP JUMPDEST SWAP3 SWAP2 POP POP JUMP JUMPDEST PUSH0 PUSH2 0x2AEF DUP7 DUP7 DUP7 DUP7 DUP1 MLOAD SWAP1 PUSH1 0x20 ADD KECCAK256 PUSH2 0x1D40 JUMP JUMPDEST SWAP1 POP DUP5 MLOAD DUP7 MLOAD EQ ISZERO DUP1 PUSH2 0x2B04 JUMPI POP DUP4 MLOAD DUP7 MLOAD EQ ISZERO JUMPDEST DUP1 PUSH2 0x2B0F JUMPI POP PUSH0 DUP7 MLOAD EQ JUMPDEST ISZERO PUSH2 0x2B58 JUMPI DUP6 MLOAD DUP5 MLOAD DUP7 MLOAD PUSH1 0x40 MLOAD PUSH32 0x447B05D000000000000000000000000000000000000000000000000000000000 DUP2 MSTORE PUSH1 0x4 ADD PUSH2 0x2B4F SWAP4 SWAP3 SWAP2 SWAP1 PUSH2 0x470C JUMP JUMPDEST PUSH1 0x40 MLOAD DUP1 SWAP2 SUB SWAP1 REVERT JUMPDEST PUSH0 PUSH1 0x4 PUSH0 DUP4 DUP2 MSTORE PUSH1 0x20 ADD SWAP1 DUP2 MSTORE PUSH1 0x20 ADD PUSH0 KECCAK256 PUSH0 ADD PUSH1 0x14 SWAP1 SLOAD SWAP1 PUSH2 0x100 EXP SWAP1 DIV PUSH6 0xFFFFFFFFFFFF AND PUSH6 0xFFFFFFFFFFFF AND EQ PUSH2 0x2BD7 JUMPI DUP1 PUSH2 0x2B96 DUP3 PUSH2 0x1136 JUMP JUMPDEST PUSH0 DUP1 SHL PUSH1 0x40 MLOAD PUSH32 0x31B75E4D00000000000000000000000000000000000000000000000000000000 DUP2 MSTORE PUSH1 0x4 ADD PUSH2 0x2BCE SWAP4 SWAP3 SWAP2 SWAP1 PUSH2 0x5831 JUMP JUMPDEST PUSH1 0x40 MLOAD DUP1 SWAP2 SUB SWAP1 REVERT JUMPDEST PUSH0 PUSH2 0x2BE0 PUSH2 0x112E JUMP JUMPDEST PUSH2 0x2BE8 PUSH2 0x1AB9 JUMP JUMPDEST PUSH6 0xFFFFFFFFFFFF AND PUSH2 0x2BFA SWAP2 SWAP1 PUSH2 0x58AC JUMP JUMPDEST SWAP1 POP PUSH0 PUSH2 0x2C05 PUSH2 0xC9E JUMP JUMPDEST SWAP1 POP PUSH0 PUSH1 0x4 PUSH0 DUP6 DUP2 MSTORE PUSH1 0x20 ADD SWAP1 DUP2 MSTORE PUSH1 0x20 ADD PUSH0 KECCAK256 SWAP1 POP DUP5 DUP2 PUSH0 ADD PUSH0 PUSH2 0x100 EXP DUP2 SLOAD DUP2 PUSH20 0xFFFFFFFFFFFFFFFFFFFFFFFFFFFFFFFFFFFFFFFF MUL NOT AND SWAP1 DUP4 PUSH20 0xFFFFFFFFFFFFFFFFFFFFFFFFFFFFFFFFFFFFFFFF AND MUL OR SWAP1 SSTORE POP PUSH2 0x2C65 DUP4 PUSH2 0x284D JUMP JUMPDEST DUP2 PUSH0 ADD PUSH1 0x14 PUSH2 0x100 EXP DUP2 SLOAD DUP2 PUSH6 0xFFFFFFFFFFFF MUL NOT AND SWAP1 DUP4 PUSH6 0xFFFFFFFFFFFF AND MUL OR SWAP1 SSTORE POP PUSH2 0x2C93 DUP3 PUSH2 0x37F5 JUMP JUMPDEST DUP2 PUSH0 ADD PUSH1 0x1A PUSH2 0x100 EXP DUP2 SLOAD DUP2 PUSH4 0xFFFFFFFF MUL NOT AND SWAP1 DUP4 PUSH4 0xFFFFFFFF AND MUL OR SWAP1 SSTORE POP PUSH32 0x7D84A6263AE0D98D3329BD7B46BB4E8D6F98CD35A7ADB45C274C8B7FD5EBD5E0 DUP5 DUP7 DUP12 DUP12 DUP14 MLOAD PUSH8 0xFFFFFFFFFFFFFFFF DUP2 GT ISZERO PUSH2 0x2CF4 JUMPI PUSH2 0x2CF3 PUSH2 0x4101 JUMP JUMPDEST JUMPDEST PUSH1 0x40 MLOAD SWAP1 DUP1 DUP3 MSTORE DUP1 PUSH1 0x20 MUL PUSH1 0x20 ADD DUP3 ADD PUSH1 0x40 MSTORE DUP1 ISZERO PUSH2 0x2D27 JUMPI DUP2 PUSH1 0x20 ADD JUMPDEST PUSH1 0x60 DUP2 MSTORE PUSH1 0x20 ADD SWAP1 PUSH1 0x1 SWAP1 SUB SWAP1 DUP2 PUSH2 0x2D12 JUMPI SWAP1 POP JUMPDEST POP DUP13 DUP10 DUP10 DUP12 PUSH2 0x2D36 SWAP2 SWAP1 PUSH2 0x58AC JUMP JUMPDEST DUP15 PUSH1 0x40 MLOAD PUSH2 0x2D4C SWAP10 SWAP9 SWAP8 SWAP7 SWAP6 SWAP5 SWAP4 SWAP3 SWAP2 SWAP1 PUSH2 0x5CE0 JUMP JUMPDEST PUSH1 0x40 MLOAD DUP1 SWAP2 SUB SWAP1 LOG1 POP POP POP SWAP6 SWAP5 POP POP POP POP POP JUMP JUMPDEST PUSH1 0x60 PUSH2 0x2D95 PUSH0 PUSH32 0x0 PUSH2 0x384C SWAP1 SWAP2 SWAP1 PUSH4 0xFFFFFFFF AND JUMP JUMPDEST SWAP1 POP SWAP1 JUMP JUMPDEST PUSH1 0x60 PUSH2 0x2DD0 PUSH1 0x1 PUSH32 0x0 PUSH2 0x384C SWAP1 SWAP2 SWAP1 PUSH4 0xFFFFFFFF AND JUMP JUMPDEST SWAP1 POP SWAP1 JUMP JUMPDEST PUSH0 PUSH2 0x2DDF NUMBER PUSH2 0x284D JUMP JUMPDEST SWAP1 POP SWAP1 JUMP JUMPDEST PUSH0 PUSH2 0x2DED PUSH2 0x1F22 JUMP JUMPDEST PUSH20 0xFFFFFFFFFFFFFFFFFFFFFFFFFFFFFFFFFFFFFFFF AND PUSH4 0x3A46B1A8 DUP6 DUP6 PUSH1 0x40 MLOAD DUP4 PUSH4 0xFFFFFFFF AND PUSH1 0xE0 SHL DUP2 MSTORE PUSH1 0x4 ADD PUSH2 0x2E27 SWAP3 SWAP2 SWAP1 PUSH2 0x5D8E JUMP JUMPDEST PUSH1 0x20 PUSH1 0x40 MLOAD DUP1 DUP4 SUB DUP2 DUP7 GAS STATICCALL ISZERO DUP1 ISZERO PUSH2 0x2E42 JUMPI RETURNDATASIZE PUSH0 DUP1 RETURNDATACOPY RETURNDATASIZE PUSH0 REVERT JUMPDEST POP POP POP POP PUSH1 0x40 MLOAD RETURNDATASIZE PUSH1 0x1F NOT PUSH1 0x1F DUP3 ADD AND DUP3 ADD DUP1 PUSH1 0x40 MSTORE POP DUP2 ADD SWAP1 PUSH2 0x2E66 SWAP2 SWAP1 PUSH2 0x5741 JUMP JUMPDEST SWAP1 POP SWAP4 SWAP3 POP POP POP JUMP JUMPDEST PUSH0 DUP1 DUP3 PUSH0 ADD DUP1 SLOAD SWAP1 POP SWAP1 POP PUSH0 DUP2 EQ PUSH2 0x2EC7 JUMPI PUSH2 0x2E99 DUP4 PUSH0 ADD PUSH1 0x1 DUP4 PUSH2 0x2E94 SWAP2 SWAP1 PUSH2 0x5391 JUMP JUMPDEST PUSH2 0x36D7 JUMP JUMPDEST PUSH0 ADD PUSH1 0x6 SWAP1 SLOAD SWAP1 PUSH2 0x100 EXP SWAP1 DIV PUSH26 0xFFFFFFFFFFFFFFFFFFFFFFFFFFFFFFFFFFFFFFFFFFFFFFFFFFFF AND PUSH2 0x2EC9 JUMP JUMPDEST PUSH0 JUMPDEST SWAP2 POP POP SWAP2 SWAP1 POP JUMP JUMPDEST PUSH1 0x60 DUP3 PUSH2 0x2EE6 JUMPI PUSH2 0x2EE1 DUP3 PUSH2 0x38F9 JUMP JUMPDEST PUSH2 0x2EEE JUMP JUMPDEST DUP2 SWAP1 POP PUSH2 0x2EEF JUMP JUMPDEST JUMPDEST SWAP3 SWAP2 POP POP JUMP JUMPDEST PUSH1 0x60 PUSH1 0x40 MLOAD DUP1 PUSH1 0x20 ADD PUSH1 0x40 MSTORE DUP1 PUSH0 DUP2 MSTORE POP SWAP1 POP SWAP1 JUMP JUMPDEST CALLDATASIZE PUSH0 DUP1 CALLDATASIZE SWAP2 POP SWAP2 POP SWAP1 SWAP2 JUMP JUMPDEST PUSH0 DUP1 DUP3 PUSH0 ADD PUSH0 SWAP1 SLOAD SWAP1 PUSH2 0x100 EXP SWAP1 DIV PUSH16 0xFFFFFFFFFFFFFFFFFFFFFFFFFFFFFFFF AND SWAP1 POP DUP3 PUSH0 ADD PUSH1 0x10 SWAP1 SLOAD SWAP1 PUSH2 0x100 EXP SWAP1 DIV PUSH16 0xFFFFFFFFFFFFFFFFFFFFFFFFFFFFFFFF AND PUSH16 0xFFFFFFFFFFFFFFFFFFFFFFFFFFFFFFFF AND DUP2 PUSH16 0xFFFFFFFFFFFFFFFFFFFFFFFFFFFFFFFF AND SUB PUSH2 0x2F8F JUMPI PUSH2 0x2F8E PUSH1 0x31 PUSH2 0x30CD JUMP JUMPDEST JUMPDEST DUP3 PUSH1 0x1 ADD PUSH0 DUP3 PUSH16 0xFFFFFFFFFFFFFFFFFFFFFFFFFFFFFFFF AND PUSH16 0xFFFFFFFFFFFFFFFFFFFFFFFFFFFFFFFF AND DUP2 MSTORE PUSH1 0x20 ADD SWAP1 DUP2 MSTORE PUSH1 0x20 ADD PUSH0 KECCAK256 SLOAD SWAP2 POP DUP3 PUSH1 0x1 ADD PUSH0 DUP3 PUSH16 0xFFFFFFFFFFFFFFFFFFFFFFFFFFFFFFFF AND PUSH16 0xFFFFFFFFFFFFFFFFFFFFFFFFFFFFFFFF AND DUP2 MSTORE PUSH1 0x20 ADD SWAP1 DUP2 MSTORE PUSH1 0x20 ADD PUSH0 KECCAK256 PUSH0 SWAP1 SSTORE PUSH1 0x1 DUP2 ADD DUP4 PUSH0 ADD PUSH0 PUSH2 0x100 EXP DUP2 SLOAD DUP2 PUSH16 0xFFFFFFFFFFFFFFFFFFFFFFFFFFFFFFFF MUL NOT AND SWAP1 DUP4 PUSH16 0xFFFFFFFFFFFFFFFFFFFFFFFFFFFFFFFF AND MUL OR SWAP1 SSTORE POP POP SWAP2 SWAP1 POP JUMP JUMPDEST PUSH0 PUSH26 0xFFFFFFFFFFFFFFFFFFFFFFFFFFFFFFFFFFFFFFFFFFFFFFFFFFFF DUP1 AND DUP3 GT ISZERO PUSH2 0x30AA JUMPI PUSH1 0xD0 DUP3 PUSH1 0x40 MLOAD PUSH32 0x6DFCC65000000000000000000000000000000000000000000000000000000000 DUP2 MSTORE PUSH1 0x4 ADD PUSH2 0x30A1 SWAP3 SWAP2 SWAP1 PUSH2 0x5DEE JUMP JUMPDEST PUSH1 0x40 MLOAD DUP1 SWAP2 SUB SWAP1 REVERT JUMPDEST DUP2 SWAP1 POP SWAP2 SWAP1 POP JUMP JUMPDEST PUSH0 DUP1 PUSH2 0x30C1 DUP6 PUSH0 ADD DUP6 DUP6 PUSH2 0x393D JUMP JUMPDEST SWAP2 POP SWAP2 POP SWAP4 POP SWAP4 SWAP2 POP POP JUMP JUMPDEST PUSH4 0x4E487B71 PUSH0 MSTORE DUP1 PUSH1 0x20 MSTORE PUSH1 0x24 PUSH1 0x1C REVERT JUMPDEST PUSH0 PUSH32 0x0 PUSH20 0xFFFFFFFFFFFFFFFFFFFFFFFFFFFFFFFFFFFFFFFF AND ADDRESS PUSH20 0xFFFFFFFFFFFFFFFFFFFFFFFFFFFFFFFFFFFFFFFF AND EQ DUP1 ISZERO PUSH2 0x3159 JUMPI POP PUSH32 0x0 CHAINID EQ JUMPDEST ISZERO PUSH2 0x3186 JUMPI PUSH32 0x0 SWAP1 POP PUSH2 0x3191 JUMP JUMPDEST PUSH2 0x318E PUSH2 0x3C31 JUMP JUMPDEST SWAP1 POP JUMPDEST SWAP1 JUMP JUMPDEST PUSH0 PUSH1 0x40 MLOAD PUSH32 0x1901000000000000000000000000000000000000000000000000000000000000 DUP2 MSTORE DUP4 PUSH1 0x2 DUP3 ADD MSTORE DUP3 PUSH1 0x22 DUP3 ADD MSTORE PUSH1 0x42 DUP2 KECCAK256 SWAP2 POP POP SWAP3 SWAP2 POP POP JUMP JUMPDEST PUSH0 DUP1 PUSH0 PUSH1 0x41 DUP5 MLOAD SUB PUSH2 0x3214 JUMPI PUSH0 DUP1 PUSH0 PUSH1 0x20 DUP8 ADD MLOAD SWAP3 POP PUSH1 0x40 DUP8 ADD MLOAD SWAP2 POP PUSH1 0x60 DUP8 ADD MLOAD PUSH0 BYTE SWAP1 POP PUSH2 0x3206 DUP9 DUP3 DUP6 DUP6 PUSH2 0x3CC6 JUMP JUMPDEST SWAP6 POP SWAP6 POP SWAP6 POP POP POP POP PUSH2 0x3222 JUMP JUMPDEST PUSH0 PUSH1 0x2 DUP6 MLOAD PUSH0 SHL SWAP3 POP SWAP3 POP SWAP3 POP JUMPDEST SWAP3 POP SWAP3 POP SWAP3 JUMP JUMPDEST PUSH0 DUP1 PUSH0 DUP6 PUSH20 0xFFFFFFFFFFFFFFFFFFFFFFFFFFFFFFFFFFFFFFFF AND DUP6 DUP6 PUSH1 0x40 MLOAD PUSH1 0x24 ADD PUSH2 0x3256 SWAP3 SWAP2 SWAP1 PUSH2 0x5E15 JUMP JUMPDEST PUSH1 0x40 MLOAD PUSH1 0x20 DUP2 DUP4 SUB SUB DUP2 MSTORE SWAP1 PUSH1 0x40 MSTORE PUSH4 0x1626BA7E PUSH1 0xE0 SHL PUSH1 0x20 DUP3 ADD DUP1 MLOAD PUSH28 0xFFFFFFFFFFFFFFFFFFFFFFFFFFFFFFFFFFFFFFFFFFFFFFFFFFFFFFFF DUP4 DUP2 DUP4 AND OR DUP4 MSTORE POP POP POP POP PUSH1 0x40 MLOAD PUSH2 0x32A8 SWAP2 SWAP1 PUSH2 0x5896 JUMP JUMPDEST PUSH0 PUSH1 0x40 MLOAD DUP1 DUP4 SUB DUP2 DUP6 GAS STATICCALL SWAP2 POP POP RETURNDATASIZE DUP1 PUSH0 DUP2 EQ PUSH2 0x32E0 JUMPI PUSH1 0x40 MLOAD SWAP2 POP PUSH1 0x1F NOT PUSH1 0x3F RETURNDATASIZE ADD AND DUP3 ADD PUSH1 0x40 MSTORE RETURNDATASIZE DUP3 MSTORE RETURNDATASIZE PUSH0 PUSH1 0x20 DUP5 ADD RETURNDATACOPY PUSH2 0x32E5 JUMP JUMPDEST PUSH1 0x60 SWAP2 POP JUMPDEST POP SWAP2 POP SWAP2 POP DUP2 DUP1 ISZERO PUSH2 0x32F9 JUMPI POP PUSH1 0x20 DUP2 MLOAD LT ISZERO JUMPDEST DUP1 ISZERO PUSH2 0x333D JUMPI POP PUSH4 0x1626BA7E PUSH1 0xE0 SHL PUSH28 0xFFFFFFFFFFFFFFFFFFFFFFFFFFFFFFFFFFFFFFFFFFFFFFFFFFFFFFFF NOT AND DUP2 DUP1 PUSH1 0x20 ADD SWAP1 MLOAD DUP2 ADD SWAP1 PUSH2 0x333B SWAP2 SWAP1 PUSH2 0x5E57 JUMP JUMPDEST EQ JUMPDEST SWAP3 POP POP POP SWAP4 SWAP3 POP POP POP JUMP JUMPDEST PUSH0 DUP1 PUSH1 0x7 PUSH0 DUP9 DUP2 MSTORE PUSH1 0x20 ADD SWAP1 DUP2 MSTORE PUSH1 0x20 ADD PUSH0 KECCAK256 SWAP1 POP DUP1 PUSH1 0x3 ADD PUSH0 DUP8 PUSH20 0xFFFFFFFFFFFFFFFFFFFFFFFFFFFFFFFFFFFFFFFF AND PUSH20 0xFFFFFFFFFFFFFFFFFFFFFFFFFFFFFFFFFFFFFFFF AND DUP2 MSTORE PUSH1 0x20 ADD SWAP1 DUP2 MSTORE PUSH1 0x20 ADD PUSH0 KECCAK256 PUSH0 SWAP1 SLOAD SWAP1 PUSH2 0x100 EXP SWAP1 DIV PUSH1 0xFF AND ISZERO PUSH2 0x33EB JUMPI DUP6 PUSH1 0x40 MLOAD PUSH32 0x71C6AF4900000000000000000000000000000000000000000000000000000000 DUP2 MSTORE PUSH1 0x4 ADD PUSH2 0x33E2 SWAP2 SWAP1 PUSH2 0x40B6 JUMP JUMPDEST PUSH1 0x40 MLOAD DUP1 SWAP2 SUB SWAP1 REVERT JUMPDEST PUSH1 0x1 DUP2 PUSH1 0x3 ADD PUSH0 DUP9 PUSH20 0xFFFFFFFFFFFFFFFFFFFFFFFFFFFFFFFFFFFFFFFF AND PUSH20 0xFFFFFFFFFFFFFFFFFFFFFFFFFFFFFFFFFFFFFFFF AND DUP2 MSTORE PUSH1 0x20 ADD SWAP1 DUP2 MSTORE PUSH1 0x20 ADD PUSH0 KECCAK256 PUSH0 PUSH2 0x100 EXP DUP2 SLOAD DUP2 PUSH1 0xFF MUL NOT AND SWAP1 DUP4 ISZERO ISZERO MUL OR SWAP1 SSTORE POP PUSH0 PUSH1 0x2 DUP2 GT ISZERO PUSH2 0x3455 JUMPI PUSH2 0x3454 PUSH2 0x4642 JUMP JUMPDEST JUMPDEST PUSH1 0xFF AND DUP6 PUSH1 0xFF AND SUB PUSH2 0x347F JUMPI DUP4 DUP2 PUSH0 ADD PUSH0 DUP3 DUP3 SLOAD PUSH2 0x3473 SWAP2 SWAP1 PUSH2 0x58AC JUMP JUMPDEST SWAP3 POP POP DUP2 SWAP1 SSTORE POP PUSH2 0x3530 JUMP JUMPDEST PUSH1 0x1 PUSH1 0x2 DUP2 GT ISZERO PUSH2 0x3493 JUMPI PUSH2 0x3492 PUSH2 0x4642 JUMP JUMPDEST JUMPDEST PUSH1 0xFF AND DUP6 PUSH1 0xFF AND SUB PUSH2 0x34BE JUMPI DUP4 DUP2 PUSH1 0x1 ADD PUSH0 DUP3 DUP3 SLOAD PUSH2 0x34B2 SWAP2 SWAP1 PUSH2 0x58AC JUMP JUMPDEST SWAP3 POP POP DUP2 SWAP1 SSTORE POP PUSH2 0x352F JUMP JUMPDEST PUSH1 0x2 DUP1 DUP2 GT ISZERO PUSH2 0x34D1 JUMPI PUSH2 0x34D0 PUSH2 0x4642 JUMP JUMPDEST JUMPDEST PUSH1 0xFF AND DUP6 PUSH1 0xFF AND SUB PUSH2 0x34FC JUMPI DUP4 DUP2 PUSH1 0x2 ADD PUSH0 DUP3 DUP3 SLOAD PUSH2 0x34F0 SWAP2 SWAP1 PUSH2 0x58AC JUMP JUMPDEST SWAP3 POP POP DUP2 SWAP1 SSTORE POP PUSH2 0x352E JUMP JUMPDEST PUSH1 0x40 MLOAD PUSH32 0x6B337C200000000000000000000000000000000000000000000000000000000 DUP2 MSTORE PUSH1 0x4 ADD PUSH1 0x40 MLOAD DUP1 SWAP2 SUB SWAP1 REVERT JUMPDEST JUMPDEST JUMPDEST DUP4 SWAP2 POP POP SWAP6 SWAP5 POP POP POP POP POP JUMP JUMPDEST PUSH0 PUSH1 0x1 DUP3 GT PUSH2 0x354E JUMPI DUP2 SWAP1 POP PUSH2 0x36D2 JUMP JUMPDEST PUSH0 DUP3 SWAP1 POP PUSH0 PUSH1 0x1 SWAP1 POP PUSH17 0x100000000000000000000000000000000 DUP3 LT PUSH2 0x357E JUMPI PUSH1 0x80 DUP3 SWAP1 SHR SWAP2 POP PUSH1 0x40 DUP2 SWAP1 SHL SWAP1 POP JUMPDEST PUSH9 0x10000000000000000 DUP3 LT PUSH2 0x359D JUMPI PUSH1 0x40 DUP3 SWAP1 SHR SWAP2 POP PUSH1 0x20 DUP2 SWAP1 SHL SWAP1 POP JUMPDEST PUSH5 0x100000000 DUP3 LT PUSH2 0x35B8 JUMPI PUSH1 0x20 DUP3 SWAP1 SHR SWAP2 POP PUSH1 0x10 DUP2 SWAP1 SHL SWAP1 POP JUMPDEST PUSH3 0x10000 DUP3 LT PUSH2 0x35D1 JUMPI PUSH1 0x10 DUP3 SWAP1 SHR SWAP2 POP PUSH1 0x8 DUP2 SWAP1 SHL SWAP1 POP JUMPDEST PUSH2 0x100 DUP3 LT PUSH2 0x35E9 JUMPI PUSH1 0x8 DUP3 SWAP1 SHR SWAP2 POP PUSH1 0x4 DUP2 SWAP1 SHL SWAP1 POP JUMPDEST PUSH1 0x10 DUP3 LT PUSH2 0x3600 JUMPI PUSH1 0x4 DUP3 SWAP1 SHR SWAP2 POP PUSH1 0x2 DUP2 SWAP1 SHL SWAP1 POP JUMPDEST PUSH1 0x4 DUP3 LT PUSH2 0x3610 JUMPI PUSH1 0x1 DUP2 SWAP1 SHL SWAP1 POP JUMPDEST PUSH1 0x1 DUP2 PUSH1 0x3 MUL SWAP1 SHR SWAP1 POP PUSH1 0x1 DUP2 DUP6 DUP2 PUSH2 0x362C JUMPI PUSH2 0x362B PUSH2 0x57AD JUMP JUMPDEST JUMPDEST DIV DUP3 ADD SWAP1 SHR SWAP1 POP PUSH1 0x1 DUP2 DUP6 DUP2 PUSH2 0x3645 JUMPI PUSH2 0x3644 PUSH2 0x57AD JUMP JUMPDEST JUMPDEST DIV DUP3 ADD SWAP1 SHR SWAP1 POP PUSH1 0x1 DUP2 DUP6 DUP2 PUSH2 0x365E JUMPI PUSH2 0x365D PUSH2 0x57AD JUMP JUMPDEST JUMPDEST DIV DUP3 ADD SWAP1 SHR SWAP1 POP PUSH1 0x1 DUP2 DUP6 DUP2 PUSH2 0x3677 JUMPI PUSH2 0x3676 PUSH2 0x57AD JUMP JUMPDEST JUMPDEST DIV DUP3 ADD SWAP1 SHR SWAP1 POP PUSH1 0x1 DUP2 DUP6 DUP2 PUSH2 0x3690 JUMPI PUSH2 0x368F PUSH2 0x57AD JUMP JUMPDEST JUMPDEST DIV DUP3 ADD SWAP1 SHR SWAP1 POP PUSH1 0x1 DUP2 DUP6 DUP2 PUSH2 0x36A9 JUMPI PUSH2 0x36A8 PUSH2 0x57AD JUMP JUMPDEST JUMPDEST DIV DUP3 ADD SWAP1 SHR SWAP1 POP PUSH2 0x36CB DUP2 DUP6 DUP2 PUSH2 0x36C3 JUMPI PUSH2 0x36C2 PUSH2 0x57AD JUMP JUMPDEST JUMPDEST DIV DUP3 GT PUSH2 0x3DAD JUMP JUMPDEST DUP2 SUB SWAP3 POP POP POP JUMPDEST SWAP2 SWAP1 POP JUMP JUMPDEST PUSH0 DUP3 PUSH0 MSTORE DUP2 PUSH1 0x20 PUSH0 KECCAK256 ADD SWAP1 POP SWAP3 SWAP2 POP POP JUMP JUMPDEST PUSH0 JUMPDEST DUP2 DUP4 LT ISZERO PUSH2 0x3753 JUMPI PUSH0 PUSH2 0x36FE DUP5 DUP5 PUSH2 0x3DB8 JUMP JUMPDEST SWAP1 POP DUP5 PUSH6 0xFFFFFFFFFFFF AND PUSH2 0x3713 DUP8 DUP4 PUSH2 0x36D7 JUMP JUMPDEST PUSH0 ADD PUSH0 SWAP1 SLOAD SWAP1 PUSH2 0x100 EXP SWAP1 DIV PUSH6 0xFFFFFFFFFFFF AND PUSH6 0xFFFFFFFFFFFF AND GT ISZERO PUSH2 0x373D JUMPI DUP1 SWAP3 POP PUSH2 0x374D JUMP JUMPDEST PUSH1 0x1 DUP2 PUSH2 0x374A SWAP2 SWAP1 PUSH2 0x58AC JUMP JUMPDEST SWAP4 POP JUMPDEST POP PUSH2 0x36EB JUMP JUMPDEST DUP2 SWAP1 POP SWAP5 SWAP4 POP POP POP POP JUMP JUMPDEST PUSH0 DUP1 PUSH0 DUP4 PUSH1 0xF8 SHR SWAP1 POP DUP1 PUSH1 0xFF AND PUSH1 0x2F LT DUP1 ISZERO PUSH2 0x377D JUMPI POP PUSH1 0x3A DUP2 PUSH1 0xFF AND LT JUMPDEST ISZERO PUSH2 0x3792 JUMPI PUSH1 0x1 PUSH1 0x30 DUP3 SUB SWAP3 POP SWAP3 POP POP PUSH2 0x37F0 JUMP JUMPDEST DUP1 PUSH1 0xFF AND PUSH1 0x40 LT DUP1 ISZERO PUSH2 0x37A8 JUMPI POP PUSH1 0x47 DUP2 PUSH1 0xFF AND LT JUMPDEST ISZERO PUSH2 0x37BD JUMPI PUSH1 0x1 PUSH1 0x37 DUP3 SUB SWAP3 POP SWAP3 POP POP PUSH2 0x37F0 JUMP JUMPDEST DUP1 PUSH1 0xFF AND PUSH1 0x60 LT DUP1 ISZERO PUSH2 0x37D3 JUMPI POP PUSH1 0x67 DUP2 PUSH1 0xFF AND LT JUMPDEST ISZERO PUSH2 0x37E8 JUMPI PUSH1 0x1 PUSH1 0x57 DUP3 SUB SWAP3 POP SWAP3 POP POP PUSH2 0x37F0 JUMP JUMPDEST PUSH0 DUP1 SWAP3 POP SWAP3 POP POP JUMPDEST SWAP2 POP SWAP2 JUMP JUMPDEST PUSH0 PUSH4 0xFFFFFFFF DUP1 AND DUP3 GT ISZERO PUSH2 0x3844 JUMPI PUSH1 0x20 DUP3 PUSH1 0x40 MLOAD PUSH32 0x6DFCC65000000000000000000000000000000000000000000000000000000000 DUP2 MSTORE PUSH1 0x4 ADD PUSH2 0x383B SWAP3 SWAP2 SWAP1 PUSH2 0x5EBB JUMP JUMPDEST PUSH1 0x40 MLOAD DUP1 SWAP2 SUB SWAP1 REVERT JUMPDEST DUP2 SWAP1 POP SWAP2 SWAP1 POP JUMP JUMPDEST PUSH1 0x60 PUSH1 0xFF PUSH0 SHL DUP4 EQ PUSH2 0x3868 JUMPI PUSH2 0x3861 DUP4 PUSH2 0x3DDD JUMP JUMPDEST SWAP1 POP PUSH2 0x38F3 JUMP JUMPDEST DUP2 DUP1 SLOAD PUSH2 0x3874 SWAP1 PUSH2 0x5139 JUMP JUMPDEST DUP1 PUSH1 0x1F ADD PUSH1 0x20 DUP1 SWAP2 DIV MUL PUSH1 0x20 ADD PUSH1 0x40 MLOAD SWAP1 DUP2 ADD PUSH1 0x40 MSTORE DUP1 SWAP3 SWAP2 SWAP1 DUP2 DUP2 MSTORE PUSH1 0x20 ADD DUP3 DUP1 SLOAD PUSH2 0x38A0 SWAP1 PUSH2 0x5139 JUMP JUMPDEST DUP1 ISZERO PUSH2 0x38EB JUMPI DUP1 PUSH1 0x1F LT PUSH2 0x38C2 JUMPI PUSH2 0x100 DUP1 DUP4 SLOAD DIV MUL DUP4 MSTORE SWAP2 PUSH1 0x20 ADD SWAP2 PUSH2 0x38EB JUMP JUMPDEST DUP3 ADD SWAP2 SWAP1 PUSH0 MSTORE PUSH1 0x20 PUSH0 KECCAK256 SWAP1 JUMPDEST DUP2 SLOAD DUP2 MSTORE SWAP1 PUSH1 0x1 ADD SWAP1 PUSH1 0x20 ADD DUP1 DUP4 GT PUSH2 0x38CE JUMPI DUP3 SWAP1 SUB PUSH1 0x1F AND DUP3 ADD SWAP2 JUMPDEST POP POP POP POP POP SWAP1 POP JUMPDEST SWAP3 SWAP2 POP POP JUMP JUMPDEST PUSH0 DUP2 MLOAD GT ISZERO PUSH2 0x390B JUMPI DUP1 MLOAD DUP1 DUP3 PUSH1 0x20 ADD REVERT JUMPDEST PUSH1 0x40 MLOAD PUSH32 0xD6BDA27500000000000000000000000000000000000000000000000000000000 DUP2 MSTORE PUSH1 0x4 ADD PUSH1 0x40 MLOAD DUP1 SWAP2 SUB SWAP1 REVERT JUMPDEST PUSH0 DUP1 PUSH0 DUP6 DUP1 SLOAD SWAP1 POP SWAP1 POP PUSH0 DUP2 GT ISZERO PUSH2 0x3B49 JUMPI PUSH0 PUSH2 0x3966 DUP8 PUSH1 0x1 DUP5 PUSH2 0x3961 SWAP2 SWAP1 PUSH2 0x5391 JUMP JUMPDEST PUSH2 0x36D7 JUMP JUMPDEST SWAP1 POP PUSH0 DUP2 PUSH0 ADD PUSH0 SWAP1 SLOAD SWAP1 PUSH2 0x100 EXP SWAP1 DIV PUSH6 0xFFFFFFFFFFFF AND SWAP1 POP PUSH0 DUP3 PUSH0 ADD PUSH1 0x6 SWAP1 SLOAD SWAP1 PUSH2 0x100 EXP SWAP1 DIV PUSH26 0xFFFFFFFFFFFFFFFFFFFFFFFFFFFFFFFFFFFFFFFFFFFFFFFFFFFF AND SWAP1 POP DUP8 PUSH6 0xFFFFFFFFFFFF AND DUP3 PUSH6 0xFFFFFFFFFFFF AND GT ISZERO PUSH2 0x39F7 JUMPI PUSH1 0x40 MLOAD PUSH32 0x2520601D00000000000000000000000000000000000000000000000000000000 DUP2 MSTORE PUSH1 0x4 ADD PUSH1 0x40 MLOAD DUP1 SWAP2 SUB SWAP1 REVERT JUMPDEST DUP8 PUSH6 0xFFFFFFFFFFFF AND DUP3 PUSH6 0xFFFFFFFFFFFF AND SUB PUSH2 0x3A61 JUMPI DUP7 DUP4 PUSH0 ADD PUSH1 0x6 PUSH2 0x100 EXP DUP2 SLOAD DUP2 PUSH26 0xFFFFFFFFFFFFFFFFFFFFFFFFFFFFFFFFFFFFFFFFFFFFFFFFFFFF MUL NOT AND SWAP1 DUP4 PUSH26 0xFFFFFFFFFFFFFFFFFFFFFFFFFFFFFFFFFFFFFFFFFFFFFFFFFFFF AND MUL OR SWAP1 SSTORE POP PUSH2 0x3B3A JUMP JUMPDEST DUP9 PUSH1 0x40 MLOAD DUP1 PUSH1 0x40 ADD PUSH1 0x40 MSTORE DUP1 DUP11 PUSH6 0xFFFFFFFFFFFF AND DUP2 MSTORE PUSH1 0x20 ADD DUP10 PUSH26 0xFFFFFFFFFFFFFFFFFFFFFFFFFFFFFFFFFFFFFFFFFFFFFFFFFFFF AND DUP2 MSTORE POP SWAP1 DUP1 PUSH1 0x1 DUP2 SLOAD ADD DUP1 DUP3 SSTORE DUP1 SWAP2 POP POP PUSH1 0x1 SWAP1 SUB SWAP1 PUSH0 MSTORE PUSH1 0x20 PUSH0 KECCAK256 ADD PUSH0 SWAP1 SWAP2 SWAP1 SWAP2 SWAP1 SWAP2 POP PUSH0 DUP3 ADD MLOAD DUP2 PUSH0 ADD PUSH0 PUSH2 0x100 EXP DUP2 SLOAD DUP2 PUSH6 0xFFFFFFFFFFFF MUL NOT AND SWAP1 DUP4 PUSH6 0xFFFFFFFFFFFF AND MUL OR SWAP1 SSTORE POP PUSH1 0x20 DUP3 ADD MLOAD DUP2 PUSH0 ADD PUSH1 0x6 PUSH2 0x100 EXP DUP2 SLOAD DUP2 PUSH26 0xFFFFFFFFFFFFFFFFFFFFFFFFFFFFFFFFFFFFFFFFFFFFFFFFFFFF MUL NOT AND SWAP1 DUP4 PUSH26 0xFFFFFFFFFFFFFFFFFFFFFFFFFFFFFFFFFFFFFFFFFFFFFFFFFFFF AND MUL OR SWAP1 SSTORE POP POP POP JUMPDEST DUP1 DUP8 SWAP6 POP SWAP6 POP POP POP POP POP PUSH2 0x3C29 JUMP JUMPDEST DUP6 PUSH1 0x40 MLOAD DUP1 PUSH1 0x40 ADD PUSH1 0x40 MSTORE DUP1 DUP8 PUSH6 0xFFFFFFFFFFFF AND DUP2 MSTORE PUSH1 0x20 ADD DUP7 PUSH26 0xFFFFFFFFFFFFFFFFFFFFFFFFFFFFFFFFFFFFFFFFFFFFFFFFFFFF AND DUP2 MSTORE POP SWAP1 DUP1 PUSH1 0x1 DUP2 SLOAD ADD DUP1 DUP3 SSTORE DUP1 SWAP2 POP POP PUSH1 0x1 SWAP1 SUB SWAP1 PUSH0 MSTORE PUSH1 0x20 PUSH0 KECCAK256 ADD PUSH0 SWAP1 SWAP2 SWAP1 SWAP2 SWAP1 SWAP2 POP PUSH0 DUP3 ADD MLOAD DUP2 PUSH0 ADD PUSH0 PUSH2 0x100 EXP DUP2 SLOAD DUP2 PUSH6 0xFFFFFFFFFFFF MUL NOT AND SWAP1 DUP4 PUSH6 0xFFFFFFFFFFFF AND MUL OR SWAP1 SSTORE POP PUSH1 0x20 DUP3 ADD MLOAD DUP2 PUSH0 ADD PUSH1 0x6 PUSH2 0x100 EXP DUP2 SLOAD DUP2 PUSH26 0xFFFFFFFFFFFFFFFFFFFFFFFFFFFFFFFFFFFFFFFFFFFFFFFFFFFF MUL NOT AND SWAP1 DUP4 PUSH26 0xFFFFFFFFFFFFFFFFFFFFFFFFFFFFFFFFFFFFFFFFFFFFFFFFFFFF AND MUL OR SWAP1 SSTORE POP POP POP PUSH0 DUP5 SWAP3 POP SWAP3 POP POP JUMPDEST SWAP4 POP SWAP4 SWAP2 POP POP JUMP JUMPDEST PUSH0 PUSH32 0x8B73C3C69BB8FE3D512ECC4CF759CC79239F7B179B0FFACAA9A75D522B39400F PUSH32 0x0 PUSH32 0x0 CHAINID ADDRESS PUSH1 0x40 MLOAD PUSH1 0x20 ADD PUSH2 0x3CAB SWAP6 SWAP5 SWAP4 SWAP3 SWAP2 SWAP1 PUSH2 0x5EE2 JUMP JUMPDEST PUSH1 0x40 MLOAD PUSH1 0x20 DUP2 DUP4 SUB SUB DUP2 MSTORE SWAP1 PUSH1 0x40 MSTORE DUP1 MLOAD SWAP1 PUSH1 0x20 ADD KECCAK256 SWAP1 POP SWAP1 JUMP JUMPDEST PUSH0 DUP1 PUSH0 PUSH32 0x7FFFFFFFFFFFFFFFFFFFFFFFFFFFFFFF5D576E7357A4501DDFE92F46681B20A0 DUP5 PUSH0 SHR GT ISZERO PUSH2 0x3D02 JUMPI PUSH0 PUSH1 0x3 DUP6 SWAP3 POP SWAP3 POP SWAP3 POP PUSH2 0x3DA3 JUMP JUMPDEST PUSH0 PUSH1 0x1 DUP9 DUP9 DUP9 DUP9 PUSH1 0x40 MLOAD PUSH0 DUP2 MSTORE PUSH1 0x20 ADD PUSH1 0x40 MSTORE PUSH1 0x40 MLOAD PUSH2 0x3D25 SWAP5 SWAP4 SWAP3 SWAP2 SWAP1 PUSH2 0x5F33 JUMP JUMPDEST PUSH1 0x20 PUSH1 0x40 MLOAD PUSH1 0x20 DUP2 SUB SWAP1 DUP1 DUP5 SUB SWAP1 DUP6 GAS STATICCALL ISZERO DUP1 ISZERO PUSH2 0x3D45 JUMPI RETURNDATASIZE PUSH0 DUP1 RETURNDATACOPY RETURNDATASIZE PUSH0 REVERT JUMPDEST POP POP POP PUSH1 0x20 PUSH1 0x40 MLOAD SUB MLOAD SWAP1 POP PUSH0 PUSH20 0xFFFFFFFFFFFFFFFFFFFFFFFFFFFFFFFFFFFFFFFF AND DUP2 PUSH20 0xFFFFFFFFFFFFFFFFFFFFFFFFFFFFFFFFFFFFFFFF AND SUB PUSH2 0x3D96 JUMPI PUSH0 PUSH1 0x1 PUSH0 DUP1 SHL SWAP4 POP SWAP4 POP SWAP4 POP POP PUSH2 0x3DA3 JUMP JUMPDEST DUP1 PUSH0 DUP1 PUSH0 SHL SWAP4 POP SWAP4 POP SWAP4 POP POP JUMPDEST SWAP5 POP SWAP5 POP SWAP5 SWAP2 POP POP JUMP JUMPDEST PUSH0 DUP2 ISZERO ISZERO SWAP1 POP SWAP2 SWAP1 POP JUMP JUMPDEST PUSH0 PUSH1 0x2 DUP3 DUP5 XOR PUSH2 0x3DC8 SWAP2 SWAP1 PUSH2 0x57DA JUMP JUMPDEST DUP3 DUP5 AND PUSH2 0x3DD5 SWAP2 SWAP1 PUSH2 0x58AC JUMP JUMPDEST SWAP1 POP SWAP3 SWAP2 POP POP JUMP JUMPDEST PUSH1 0x60 PUSH0 PUSH2 0x3DE9 DUP4 PUSH2 0x3E4F JUMP JUMPDEST SWAP1 POP PUSH0 PUSH1 0x20 PUSH8 0xFFFFFFFFFFFFFFFF DUP2 GT ISZERO PUSH2 0x3E07 JUMPI PUSH2 0x3E06 PUSH2 0x4101 JUMP JUMPDEST JUMPDEST PUSH1 0x40 MLOAD SWAP1 DUP1 DUP3 MSTORE DUP1 PUSH1 0x1F ADD PUSH1 0x1F NOT AND PUSH1 0x20 ADD DUP3 ADD PUSH1 0x40 MSTORE DUP1 ISZERO PUSH2 0x3E39 JUMPI DUP2 PUSH1 0x20 ADD PUSH1 0x1 DUP3 MUL DUP1 CALLDATASIZE DUP4 CALLDATACOPY DUP1 DUP3 ADD SWAP2 POP POP SWAP1 POP JUMPDEST POP SWAP1 POP DUP2 DUP2 MSTORE DUP4 PUSH1 0x20 DUP3 ADD MSTORE DUP1 SWAP3 POP POP POP SWAP2 SWAP1 POP JUMP JUMPDEST PUSH0 DUP1 PUSH1 0xFF DUP4 PUSH0 SHR AND SWAP1 POP PUSH1 0x1F DUP2 GT ISZERO PUSH2 0x3E94 JUMPI PUSH1 0x40 MLOAD PUSH32 0xB3512B0C00000000000000000000000000000000000000000000000000000000 DUP2 MSTORE PUSH1 0x4 ADD PUSH1 0x40 MLOAD DUP1 SWAP2 SUB SWAP1 REVERT JUMPDEST DUP1 SWAP2 POP POP SWAP2 SWAP1 POP JUMP JUMPDEST PUSH0 PUSH1 0x40 MLOAD SWAP1 POP SWAP1 JUMP JUMPDEST PUSH0 DUP1 REVERT JUMPDEST PUSH0 DUP1 REVERT JUMPDEST PUSH0 PUSH32 0xFFFFFFFF00000000000000000000000000000000000000000000000000000000 DUP3 AND SWAP1 POP SWAP2 SWAP1 POP JUMP JUMPDEST PUSH2 0x3EE2 DUP2 PUSH2 0x3EAE JUMP JUMPDEST DUP2 EQ PUSH2 0x3EEC JUMPI PUSH0 DUP1 REVERT JUMPDEST POP JUMP JUMPDEST PUSH0 DUP2 CALLDATALOAD SWAP1 POP PUSH2 0x3EFD DUP2 PUSH2 0x3ED9 JUMP JUMPDEST SWAP3 SWAP2 POP POP JUMP JUMPDEST PUSH0 PUSH1 0x20 DUP3 DUP5 SUB SLT ISZERO PUSH2 0x3F18 JUMPI PUSH2 0x3F17 PUSH2 0x3EA6 JUMP JUMPDEST JUMPDEST PUSH0 PUSH2 0x3F25 DUP5 DUP3 DUP6 ADD PUSH2 0x3EEF JUMP JUMPDEST SWAP2 POP POP SWAP3 SWAP2 POP POP JUMP JUMPDEST PUSH0 DUP2 ISZERO ISZERO SWAP1 POP SWAP2 SWAP1 POP JUMP JUMPDEST PUSH2 0x3F42 DUP2 PUSH2 0x3F2E JUMP JUMPDEST DUP3 MSTORE POP POP JUMP JUMPDEST PUSH0 PUSH1 0x20 DUP3 ADD SWAP1 POP PUSH2 0x3F5B PUSH0 DUP4 ADD DUP5 PUSH2 0x3F39 JUMP JUMPDEST SWAP3 SWAP2 POP POP JUMP JUMPDEST PUSH0 DUP2 SWAP1 POP SWAP2 SWAP1 POP JUMP JUMPDEST PUSH2 0x3F73 DUP2 PUSH2 0x3F61 JUMP JUMPDEST DUP3 MSTORE POP POP JUMP JUMPDEST PUSH0 PUSH1 0x20 DUP3 ADD SWAP1 POP PUSH2 0x3F8C PUSH0 DUP4 ADD DUP5 PUSH2 0x3F6A JUMP JUMPDEST SWAP3 SWAP2 POP POP JUMP JUMPDEST PUSH2 0x3F9B DUP2 PUSH2 0x3F61 JUMP JUMPDEST DUP2 EQ PUSH2 0x3FA5 JUMPI PUSH0 DUP1 REVERT JUMPDEST POP JUMP JUMPDEST PUSH0 DUP2 CALLDATALOAD SWAP1 POP PUSH2 0x3FB6 DUP2 PUSH2 0x3F92 JUMP JUMPDEST SWAP3 SWAP2 POP POP JUMP JUMPDEST PUSH0 PUSH1 0x20 DUP3 DUP5 SUB SLT ISZERO PUSH2 0x3FD1 JUMPI PUSH2 0x3FD0 PUSH2 0x3EA6 JUMP JUMPDEST JUMPDEST PUSH0 PUSH2 0x3FDE DUP5 DUP3 DUP6 ADD PUSH2 0x3FA8 JUMP JUMPDEST SWAP2 POP POP SWAP3 SWAP2 POP POP JUMP JUMPDEST PUSH0 DUP2 MLOAD SWAP1 POP SWAP2 SWAP1 POP JUMP JUMPDEST PUSH0 DUP3 DUP3 MSTORE PUSH1 0x20 DUP3 ADD SWAP1 POP SWAP3 SWAP2 POP POP JUMP JUMPDEST DUP3 DUP2 DUP4 MCOPY PUSH0 DUP4 DUP4 ADD MSTORE POP POP POP JUMP JUMPDEST PUSH0 PUSH1 0x1F NOT PUSH1 0x1F DUP4 ADD AND SWAP1 POP SWAP2 SWAP1 POP JUMP JUMPDEST PUSH0 PUSH2 0x4029 DUP3 PUSH2 0x3FE7 JUMP JUMPDEST PUSH2 0x4033 DUP2 DUP6 PUSH2 0x3FF1 JUMP JUMPDEST SWAP4 POP PUSH2 0x4043 DUP2 DUP6 PUSH1 0x20 DUP7 ADD PUSH2 0x4001 JUMP JUMPDEST PUSH2 0x404C DUP2 PUSH2 0x400F JUMP JUMPDEST DUP5 ADD SWAP2 POP POP SWAP3 SWAP2 POP POP JUMP JUMPDEST PUSH0 PUSH1 0x20 DUP3 ADD SWAP1 POP DUP2 DUP2 SUB PUSH0 DUP4 ADD MSTORE PUSH2 0x406F DUP2 DUP5 PUSH2 0x401F JUMP JUMPDEST SWAP1 POP SWAP3 SWAP2 POP POP JUMP JUMPDEST PUSH0 PUSH20 0xFFFFFFFFFFFFFFFFFFFFFFFFFFFFFFFFFFFFFFFF DUP3 AND SWAP1 POP SWAP2 SWAP1 POP JUMP JUMPDEST PUSH0 PUSH2 0x40A0 DUP3 PUSH2 0x4077 JUMP JUMPDEST SWAP1 POP SWAP2 SWAP1 POP JUMP JUMPDEST PUSH2 0x40B0 DUP2 PUSH2 0x4096 JUMP JUMPDEST DUP3 MSTORE POP POP JUMP JUMPDEST PUSH0 PUSH1 0x20 DUP3 ADD SWAP1 POP PUSH2 0x40C9 PUSH0 DUP4 ADD DUP5 PUSH2 0x40A7 JUMP JUMPDEST SWAP3 SWAP2 POP POP JUMP JUMPDEST PUSH2 0x40D8 DUP2 PUSH2 0x4096 JUMP JUMPDEST DUP2 EQ PUSH2 0x40E2 JUMPI PUSH0 DUP1 REVERT JUMPDEST POP JUMP JUMPDEST PUSH0 DUP2 CALLDATALOAD SWAP1 POP PUSH2 0x40F3 DUP2 PUSH2 0x40CF JUMP JUMPDEST SWAP3 SWAP2 POP POP JUMP JUMPDEST PUSH0 DUP1 REVERT JUMPDEST PUSH0 DUP1 REVERT JUMPDEST PUSH32 0x4E487B7100000000000000000000000000000000000000000000000000000000 PUSH0 MSTORE PUSH1 0x41 PUSH1 0x4 MSTORE PUSH1 0x24 PUSH0 REVERT JUMPDEST PUSH2 0x4137 DUP3 PUSH2 0x400F JUMP JUMPDEST DUP2 ADD DUP2 DUP2 LT PUSH8 0xFFFFFFFFFFFFFFFF DUP3 GT OR ISZERO PUSH2 0x4156 JUMPI PUSH2 0x4155 PUSH2 0x4101 JUMP JUMPDEST JUMPDEST DUP1 PUSH1 0x40 MSTORE POP POP POP JUMP JUMPDEST PUSH0 PUSH2 0x4168 PUSH2 0x3E9D JUMP JUMPDEST SWAP1 POP PUSH2 0x4174 DUP3 DUP3 PUSH2 0x412E JUMP JUMPDEST SWAP2 SWAP1 POP JUMP JUMPDEST PUSH0 PUSH8 0xFFFFFFFFFFFFFFFF DUP3 GT ISZERO PUSH2 0x4193 JUMPI PUSH2 0x4192 PUSH2 0x4101 JUMP JUMPDEST JUMPDEST PUSH2 0x419C DUP3 PUSH2 0x400F JUMP JUMPDEST SWAP1 POP PUSH1 0x20 DUP2 ADD SWAP1 POP SWAP2 SWAP1 POP JUMP JUMPDEST DUP3 DUP2 DUP4 CALLDATACOPY PUSH0 DUP4 DUP4 ADD MSTORE POP POP POP JUMP JUMPDEST PUSH0 PUSH2 0x41C9 PUSH2 0x41C4 DUP5 PUSH2 0x4179 JUMP JUMPDEST PUSH2 0x415F JUMP JUMPDEST SWAP1 POP DUP3 DUP2 MSTORE PUSH1 0x20 DUP2 ADD DUP5 DUP5 DUP5 ADD GT ISZERO PUSH2 0x41E5 JUMPI PUSH2 0x41E4 PUSH2 0x40FD JUMP JUMPDEST JUMPDEST PUSH2 0x41F0 DUP5 DUP3 DUP6 PUSH2 0x41A9 JUMP JUMPDEST POP SWAP4 SWAP3 POP POP POP JUMP JUMPDEST PUSH0 DUP3 PUSH1 0x1F DUP4 ADD SLT PUSH2 0x420C JUMPI PUSH2 0x420B PUSH2 0x40F9 JUMP JUMPDEST JUMPDEST DUP2 CALLDATALOAD PUSH2 0x421C DUP5 DUP3 PUSH1 0x20 DUP7 ADD PUSH2 0x41B7 JUMP JUMPDEST SWAP2 POP POP SWAP3 SWAP2 POP POP JUMP JUMPDEST PUSH0 DUP1 PUSH0 DUP1 PUSH1 0x80 DUP6 DUP8 SUB SLT ISZERO PUSH2 0x423D JUMPI PUSH2 0x423C PUSH2 0x3EA6 JUMP JUMPDEST JUMPDEST PUSH0 PUSH2 0x424A DUP8 DUP3 DUP9 ADD PUSH2 0x40E5 JUMP JUMPDEST SWAP5 POP POP PUSH1 0x20 PUSH2 0x425B DUP8 DUP3 DUP9 ADD PUSH2 0x40E5 JUMP JUMPDEST SWAP4 POP POP PUSH1 0x40 PUSH2 0x426C DUP8 DUP3 DUP9 ADD PUSH2 0x3FA8 JUMP JUMPDEST SWAP3 POP POP PUSH1 0x60 DUP6 ADD CALLDATALOAD PUSH8 0xFFFFFFFFFFFFFFFF DUP2 GT ISZERO PUSH2 0x428D JUMPI PUSH2 0x428C PUSH2 0x3EAA JUMP JUMPDEST JUMPDEST PUSH2 0x4299 DUP8 DUP3 DUP9 ADD PUSH2 0x41F8 JUMP JUMPDEST SWAP2 POP POP SWAP3 SWAP6 SWAP2 SWAP5 POP SWAP3 POP JUMP JUMPDEST PUSH2 0x42AE DUP2 PUSH2 0x3EAE JUMP JUMPDEST DUP3 MSTORE POP POP JUMP JUMPDEST PUSH0 PUSH1 0x20 DUP3 ADD SWAP1 POP PUSH2 0x42C7 PUSH0 DUP4 ADD DUP5 PUSH2 0x42A5 JUMP JUMPDEST SWAP3 SWAP2 POP POP JUMP JUMPDEST PUSH0 PUSH8 0xFFFFFFFFFFFFFFFF DUP3 GT ISZERO PUSH2 0x42E7 JUMPI PUSH2 0x42E6 PUSH2 0x4101 JUMP JUMPDEST JUMPDEST PUSH1 0x20 DUP3 MUL SWAP1 POP PUSH1 0x20 DUP2 ADD SWAP1 POP SWAP2 SWAP1 POP JUMP JUMPDEST PUSH0 DUP1 REVERT JUMPDEST PUSH0 PUSH2 0x430E PUSH2 0x4309 DUP5 PUSH2 0x42CD JUMP JUMPDEST PUSH2 0x415F JUMP JUMPDEST SWAP1 POP DUP1 DUP4 DUP3 MSTORE PUSH1 0x20 DUP3 ADD SWAP1 POP PUSH1 0x20 DUP5 MUL DUP4 ADD DUP6 DUP2 GT ISZERO PUSH2 0x4331 JUMPI PUSH2 0x4330 PUSH2 0x42F8 JUMP JUMPDEST JUMPDEST DUP4 JUMPDEST DUP2 DUP2 LT ISZERO PUSH2 0x435A JUMPI DUP1 PUSH2 0x4346 DUP9 DUP3 PUSH2 0x40E5 JUMP JUMPDEST DUP5 MSTORE PUSH1 0x20 DUP5 ADD SWAP4 POP POP PUSH1 0x20 DUP2 ADD SWAP1 POP PUSH2 0x4333 JUMP JUMPDEST POP POP POP SWAP4 SWAP3 POP POP POP JUMP JUMPDEST PUSH0 DUP3 PUSH1 0x1F DUP4 ADD SLT PUSH2 0x4378 JUMPI PUSH2 0x4377 PUSH2 0x40F9 JUMP JUMPDEST JUMPDEST DUP2 CALLDATALOAD PUSH2 0x4388 DUP5 DUP3 PUSH1 0x20 DUP7 ADD PUSH2 0x42FC JUMP JUMPDEST SWAP2 POP POP SWAP3 SWAP2 POP POP JUMP JUMPDEST PUSH0 PUSH8 0xFFFFFFFFFFFFFFFF DUP3 GT ISZERO PUSH2 0x43AB JUMPI PUSH2 0x43AA PUSH2 0x4101 JUMP JUMPDEST JUMPDEST PUSH1 0x20 DUP3 MUL SWAP1 POP PUSH1 0x20 DUP2 ADD SWAP1 POP SWAP2 SWAP1 POP JUMP JUMPDEST PUSH0 PUSH2 0x43CE PUSH2 0x43C9 DUP5 PUSH2 0x4391 JUMP JUMPDEST PUSH2 0x415F JUMP JUMPDEST SWAP1 POP DUP1 DUP4 DUP3 MSTORE PUSH1 0x20 DUP3 ADD SWAP1 POP PUSH1 0x20 DUP5 MUL DUP4 ADD DUP6 DUP2 GT ISZERO PUSH2 0x43F1 JUMPI PUSH2 0x43F0 PUSH2 0x42F8 JUMP JUMPDEST JUMPDEST DUP4 JUMPDEST DUP2 DUP2 LT ISZERO PUSH2 0x441A JUMPI DUP1 PUSH2 0x4406 DUP9 DUP3 PUSH2 0x3FA8 JUMP JUMPDEST DUP5 MSTORE PUSH1 0x20 DUP5 ADD SWAP4 POP POP PUSH1 0x20 DUP2 ADD SWAP1 POP PUSH2 0x43F3 JUMP JUMPDEST POP POP POP SWAP4 SWAP3 POP POP POP JUMP JUMPDEST PUSH0 DUP3 PUSH1 0x1F DUP4 ADD SLT PUSH2 0x4438 JUMPI PUSH2 0x4437 PUSH2 0x40F9 JUMP JUMPDEST JUMPDEST DUP2 CALLDATALOAD PUSH2 0x4448 DUP5 DUP3 PUSH1 0x20 DUP7 ADD PUSH2 0x43BC JUMP JUMPDEST SWAP2 POP POP SWAP3 SWAP2 POP POP JUMP JUMPDEST PUSH0 PUSH8 0xFFFFFFFFFFFFFFFF DUP3 GT ISZERO PUSH2 0x446B JUMPI PUSH2 0x446A PUSH2 0x4101 JUMP JUMPDEST JUMPDEST PUSH1 0x20 DUP3 MUL SWAP1 POP PUSH1 0x20 DUP2 ADD SWAP1 POP SWAP2 SWAP1 POP JUMP JUMPDEST PUSH0 PUSH2 0x448E PUSH2 0x4489 DUP5 PUSH2 0x4451 JUMP JUMPDEST PUSH2 0x415F JUMP JUMPDEST SWAP1 POP DUP1 DUP4 DUP3 MSTORE PUSH1 0x20 DUP3 ADD SWAP1 POP PUSH1 0x20 DUP5 MUL DUP4 ADD DUP6 DUP2 GT ISZERO PUSH2 0x44B1 JUMPI PUSH2 0x44B0 PUSH2 0x42F8 JUMP JUMPDEST JUMPDEST DUP4 JUMPDEST DUP2 DUP2 LT ISZERO PUSH2 0x44F8 JUMPI DUP1 CALLDATALOAD PUSH8 0xFFFFFFFFFFFFFFFF DUP2 GT ISZERO PUSH2 0x44D6 JUMPI PUSH2 0x44D5 PUSH2 0x40F9 JUMP JUMPDEST JUMPDEST DUP1 DUP7 ADD PUSH2 0x44E3 DUP10 DUP3 PUSH2 0x41F8 JUMP JUMPDEST DUP6 MSTORE PUSH1 0x20 DUP6 ADD SWAP5 POP POP POP PUSH1 0x20 DUP2 ADD SWAP1 POP PUSH2 0x44B3 JUMP JUMPDEST POP POP POP SWAP4 SWAP3 POP POP POP JUMP JUMPDEST PUSH0 DUP3 PUSH1 0x1F DUP4 ADD SLT PUSH2 0x4516 JUMPI PUSH2 0x4515 PUSH2 0x40F9 JUMP JUMPDEST JUMPDEST DUP2 CALLDATALOAD PUSH2 0x4526 DUP5 DUP3 PUSH1 0x20 DUP7 ADD PUSH2 0x447C JUMP JUMPDEST SWAP2 POP POP SWAP3 SWAP2 POP POP JUMP JUMPDEST PUSH0 DUP2 SWAP1 POP SWAP2 SWAP1 POP JUMP JUMPDEST PUSH2 0x4541 DUP2 PUSH2 0x452F JUMP JUMPDEST DUP2 EQ PUSH2 0x454B JUMPI PUSH0 DUP1 REVERT JUMPDEST POP JUMP JUMPDEST PUSH0 DUP2 CALLDATALOAD SWAP1 POP PUSH2 0x455C DUP2 PUSH2 0x4538 JUMP JUMPDEST SWAP3 SWAP2 POP POP JUMP JUMPDEST PUSH0 DUP1 PUSH0 DUP1 PUSH1 0x80 DUP6 DUP8 SUB SLT ISZERO PUSH2 0x457A JUMPI PUSH2 0x4579 PUSH2 0x3EA6 JUMP JUMPDEST JUMPDEST PUSH0 DUP6 ADD CALLDATALOAD PUSH8 0xFFFFFFFFFFFFFFFF DUP2 GT ISZERO PUSH2 0x4597 JUMPI PUSH2 0x4596 PUSH2 0x3EAA JUMP JUMPDEST JUMPDEST PUSH2 0x45A3 DUP8 DUP3 DUP9 ADD PUSH2 0x4364 JUMP JUMPDEST SWAP5 POP POP PUSH1 0x20 DUP6 ADD CALLDATALOAD PUSH8 0xFFFFFFFFFFFFFFFF DUP2 GT ISZERO PUSH2 0x45C4 JUMPI PUSH2 0x45C3 PUSH2 0x3EAA JUMP JUMPDEST JUMPDEST PUSH2 0x45D0 DUP8 DUP3 DUP9 ADD PUSH2 0x4424 JUMP JUMPDEST SWAP4 POP POP PUSH1 0x40 DUP6 ADD CALLDATALOAD PUSH8 0xFFFFFFFFFFFFFFFF DUP2 GT ISZERO PUSH2 0x45F1 JUMPI PUSH2 0x45F0 PUSH2 0x3EAA JUMP JUMPDEST JUMPDEST PUSH2 0x45FD DUP8 DUP3 DUP9 ADD PUSH2 0x4502 JUMP JUMPDEST SWAP3 POP POP PUSH1 0x60 PUSH2 0x460E DUP8 DUP3 DUP9 ADD PUSH2 0x454E JUMP JUMPDEST SWAP2 POP POP SWAP3 SWAP6 SWAP2 SWAP5 POP SWAP3 POP JUMP JUMPDEST PUSH2 0x4623 DUP2 PUSH2 0x452F JUMP JUMPDEST DUP3 MSTORE POP POP JUMP JUMPDEST PUSH0 PUSH1 0x20 DUP3 ADD SWAP1 POP PUSH2 0x463C PUSH0 DUP4 ADD DUP5 PUSH2 0x461A JUMP JUMPDEST SWAP3 SWAP2 POP POP JUMP JUMPDEST PUSH32 0x4E487B7100000000000000000000000000000000000000000000000000000000 PUSH0 MSTORE PUSH1 0x21 PUSH1 0x4 MSTORE PUSH1 0x24 PUSH0 REVERT JUMPDEST PUSH1 0x8 DUP2 LT PUSH2 0x4680 JUMPI PUSH2 0x467F PUSH2 0x4642 JUMP JUMPDEST JUMPDEST POP JUMP JUMPDEST PUSH0 DUP2 SWAP1 POP PUSH2 0x4690 DUP3 PUSH2 0x466F JUMP JUMPDEST SWAP2 SWAP1 POP JUMP JUMPDEST PUSH0 PUSH2 0x469F DUP3 PUSH2 0x4683 JUMP JUMPDEST SWAP1 POP SWAP2 SWAP1 POP JUMP JUMPDEST PUSH2 0x46AF DUP2 PUSH2 0x4695 JUMP JUMPDEST DUP3 MSTORE POP POP JUMP JUMPDEST PUSH0 PUSH1 0x20 DUP3 ADD SWAP1 POP PUSH2 0x46C8 PUSH0 DUP4 ADD DUP5 PUSH2 0x46A6 JUMP JUMPDEST SWAP3 SWAP2 POP POP JUMP JUMPDEST PUSH0 DUP1 PUSH1 0x40 DUP4 DUP6 SUB SLT ISZERO PUSH2 0x46E4 JUMPI PUSH2 0x46E3 PUSH2 0x3EA6 JUMP JUMPDEST JUMPDEST PUSH0 PUSH2 0x46F1 DUP6 DUP3 DUP7 ADD PUSH2 0x3FA8 JUMP JUMPDEST SWAP3 POP POP PUSH1 0x20 PUSH2 0x4702 DUP6 DUP3 DUP7 ADD PUSH2 0x40E5 JUMP JUMPDEST SWAP2 POP POP SWAP3 POP SWAP3 SWAP1 POP JUMP JUMPDEST PUSH0 PUSH1 0x60 DUP3 ADD SWAP1 POP PUSH2 0x471F PUSH0 DUP4 ADD DUP7 PUSH2 0x3F6A JUMP JUMPDEST PUSH2 0x472C PUSH1 0x20 DUP4 ADD DUP6 PUSH2 0x3F6A JUMP JUMPDEST PUSH2 0x4739 PUSH1 0x40 DUP4 ADD DUP5 PUSH2 0x3F6A JUMP JUMPDEST SWAP5 SWAP4 POP POP POP POP JUMP JUMPDEST PUSH0 PUSH1 0xFF DUP3 AND SWAP1 POP SWAP2 SWAP1 POP JUMP JUMPDEST PUSH2 0x4756 DUP2 PUSH2 0x4741 JUMP JUMPDEST DUP2 EQ PUSH2 0x4760 JUMPI PUSH0 DUP1 REVERT JUMPDEST POP JUMP JUMPDEST PUSH0 DUP2 CALLDATALOAD SWAP1 POP PUSH2 0x4771 DUP2 PUSH2 0x474D JUMP JUMPDEST SWAP3 SWAP2 POP POP JUMP JUMPDEST PUSH0 DUP1 PUSH1 0x40 DUP4 DUP6 SUB SLT ISZERO PUSH2 0x478D JUMPI PUSH2 0x478C PUSH2 0x3EA6 JUMP JUMPDEST JUMPDEST PUSH0 PUSH2 0x479A DUP6 DUP3 DUP7 ADD PUSH2 0x3FA8 JUMP JUMPDEST SWAP3 POP POP PUSH1 0x20 PUSH2 0x47AB DUP6 DUP3 DUP7 ADD PUSH2 0x4763 JUMP JUMPDEST SWAP2 POP POP SWAP3 POP SWAP3 SWAP1 POP JUMP JUMPDEST PUSH0 DUP1 REVERT JUMPDEST PUSH0 DUP1 DUP4 PUSH1 0x1F DUP5 ADD SLT PUSH2 0x47CE JUMPI PUSH2 0x47CD PUSH2 0x40F9 JUMP JUMPDEST JUMPDEST DUP3 CALLDATALOAD SWAP1 POP PUSH8 0xFFFFFFFFFFFFFFFF DUP2 GT ISZERO PUSH2 0x47EB JUMPI PUSH2 0x47EA PUSH2 0x47B5 JUMP JUMPDEST JUMPDEST PUSH1 0x20 DUP4 ADD SWAP2 POP DUP4 PUSH1 0x1 DUP3 MUL DUP4 ADD GT ISZERO PUSH2 0x4807 JUMPI PUSH2 0x4806 PUSH2 0x42F8 JUMP JUMPDEST JUMPDEST SWAP3 POP SWAP3 SWAP1 POP JUMP JUMPDEST PUSH0 DUP1 PUSH0 DUP1 PUSH0 DUP1 PUSH0 PUSH1 0xC0 DUP9 DUP11 SUB SLT ISZERO PUSH2 0x4829 JUMPI PUSH2 0x4828 PUSH2 0x3EA6 JUMP JUMPDEST JUMPDEST PUSH0 PUSH2 0x4836 DUP11 DUP3 DUP12 ADD PUSH2 0x3FA8 JUMP JUMPDEST SWAP8 POP POP PUSH1 0x20 PUSH2 0x4847 DUP11 DUP3 DUP12 ADD PUSH2 0x4763 JUMP JUMPDEST SWAP7 POP POP PUSH1 0x40 PUSH2 0x4858 DUP11 DUP3 DUP12 ADD PUSH2 0x40E5 JUMP JUMPDEST SWAP6 POP POP PUSH1 0x60 DUP9 ADD CALLDATALOAD PUSH8 0xFFFFFFFFFFFFFFFF DUP2 GT ISZERO PUSH2 0x4879 JUMPI PUSH2 0x4878 PUSH2 0x3EAA JUMP JUMPDEST JUMPDEST PUSH2 0x4885 DUP11 DUP3 DUP12 ADD PUSH2 0x47B9 JUMP JUMPDEST SWAP5 POP SWAP5 POP POP PUSH1 0x80 DUP9 ADD CALLDATALOAD PUSH8 0xFFFFFFFFFFFFFFFF DUP2 GT ISZERO PUSH2 0x48A8 JUMPI PUSH2 0x48A7 PUSH2 0x3EAA JUMP JUMPDEST JUMPDEST PUSH2 0x48B4 DUP11 DUP3 DUP12 ADD PUSH2 0x41F8 JUMP JUMPDEST SWAP3 POP POP PUSH1 0xA0 DUP9 ADD CALLDATALOAD PUSH8 0xFFFFFFFFFFFFFFFF DUP2 GT ISZERO PUSH2 0x48D5 JUMPI PUSH2 0x48D4 PUSH2 0x3EAA JUMP JUMPDEST JUMPDEST PUSH2 0x48E1 DUP11 DUP3 DUP12 ADD PUSH2 0x41F8 JUMP JUMPDEST SWAP2 POP POP SWAP3 SWAP6 SWAP9 SWAP2 SWAP5 SWAP8 POP SWAP3 SWAP6 POP JUMP JUMPDEST PUSH0 DUP1 PUSH0 DUP1 PUSH0 PUSH1 0x80 DUP7 DUP9 SUB SLT ISZERO PUSH2 0x4909 JUMPI PUSH2 0x4908 PUSH2 0x3EA6 JUMP JUMPDEST JUMPDEST PUSH0 PUSH2 0x4916 DUP9 DUP3 DUP10 ADD PUSH2 0x3FA8 JUMP JUMPDEST SWAP6 POP POP PUSH1 0x20 PUSH2 0x4927 DUP9 DUP3 DUP10 ADD PUSH2 0x4763 JUMP JUMPDEST SWAP5 POP POP PUSH1 0x40 DUP7 ADD CALLDATALOAD PUSH8 0xFFFFFFFFFFFFFFFF DUP2 GT ISZERO PUSH2 0x4948 JUMPI PUSH2 0x4947 PUSH2 0x3EAA JUMP JUMPDEST JUMPDEST PUSH2 0x4954 DUP9 DUP3 DUP10 ADD PUSH2 0x47B9 JUMP JUMPDEST SWAP4 POP SWAP4 POP POP PUSH1 0x60 DUP7 ADD CALLDATALOAD PUSH8 0xFFFFFFFFFFFFFFFF DUP2 GT ISZERO PUSH2 0x4977 JUMPI PUSH2 0x4976 PUSH2 0x3EAA JUMP JUMPDEST JUMPDEST PUSH2 0x4983 DUP9 DUP3 DUP10 ADD PUSH2 0x41F8 JUMP JUMPDEST SWAP2 POP POP SWAP3 SWAP6 POP SWAP3 SWAP6 SWAP1 SWAP4 POP JUMP JUMPDEST PUSH0 DUP1 PUSH0 DUP1 PUSH1 0x60 DUP6 DUP8 SUB SLT ISZERO PUSH2 0x49A8 JUMPI PUSH2 0x49A7 PUSH2 0x3EA6 JUMP JUMPDEST JUMPDEST PUSH0 PUSH2 0x49B5 DUP8 DUP3 DUP9 ADD PUSH2 0x3FA8 JUMP JUMPDEST SWAP5 POP POP PUSH1 0x20 PUSH2 0x49C6 DUP8 DUP3 DUP9 ADD PUSH2 0x4763 JUMP JUMPDEST SWAP4 POP POP PUSH1 0x40 DUP6 ADD CALLDATALOAD PUSH8 0xFFFFFFFFFFFFFFFF DUP2 GT ISZERO PUSH2 0x49E7 JUMPI PUSH2 0x49E6 PUSH2 0x3EAA JUMP JUMPDEST JUMPDEST PUSH2 0x49F3 DUP8 DUP3 DUP9 ADD PUSH2 0x47B9 JUMP JUMPDEST SWAP3 POP SWAP3 POP POP SWAP3 SWAP6 SWAP2 SWAP5 POP SWAP3 POP JUMP JUMPDEST PUSH0 PUSH8 0xFFFFFFFFFFFFFFFF DUP3 GT ISZERO PUSH2 0x4A1B JUMPI PUSH2 0x4A1A PUSH2 0x4101 JUMP JUMPDEST JUMPDEST PUSH2 0x4A24 DUP3 PUSH2 0x400F JUMP JUMPDEST SWAP1 POP PUSH1 0x20 DUP2 ADD SWAP1 POP SWAP2 SWAP1 POP JUMP JUMPDEST PUSH0 PUSH2 0x4A43 PUSH2 0x4A3E DUP5 PUSH2 0x4A01 JUMP JUMPDEST PUSH2 0x415F JUMP JUMPDEST SWAP1 POP DUP3 DUP2 MSTORE PUSH1 0x20 DUP2 ADD DUP5 DUP5 DUP5 ADD GT ISZERO PUSH2 0x4A5F JUMPI PUSH2 0x4A5E PUSH2 0x40FD JUMP JUMPDEST JUMPDEST PUSH2 0x4A6A DUP5 DUP3 DUP6 PUSH2 0x41A9 JUMP JUMPDEST POP SWAP4 SWAP3 POP POP POP JUMP JUMPDEST PUSH0 DUP3 PUSH1 0x1F DUP4 ADD SLT PUSH2 0x4A86 JUMPI PUSH2 0x4A85 PUSH2 0x40F9 JUMP JUMPDEST JUMPDEST DUP2 CALLDATALOAD PUSH2 0x4A96 DUP5 DUP3 PUSH1 0x20 DUP7 ADD PUSH2 0x4A31 JUMP JUMPDEST SWAP2 POP POP SWAP3 SWAP2 POP POP JUMP JUMPDEST PUSH0 DUP1 PUSH0 DUP1 PUSH1 0x80 DUP6 DUP8 SUB SLT ISZERO PUSH2 0x4AB7 JUMPI PUSH2 0x4AB6 PUSH2 0x3EA6 JUMP JUMPDEST JUMPDEST PUSH0 DUP6 ADD CALLDATALOAD PUSH8 0xFFFFFFFFFFFFFFFF DUP2 GT ISZERO PUSH2 0x4AD4 JUMPI PUSH2 0x4AD3 PUSH2 0x3EAA JUMP JUMPDEST JUMPDEST PUSH2 0x4AE0 DUP8 DUP3 DUP9 ADD PUSH2 0x4364 JUMP JUMPDEST SWAP5 POP POP PUSH1 0x20 DUP6 ADD CALLDATALOAD PUSH8 0xFFFFFFFFFFFFFFFF DUP2 GT ISZERO PUSH2 0x4B01 JUMPI PUSH2 0x4B00 PUSH2 0x3EAA JUMP JUMPDEST JUMPDEST PUSH2 0x4B0D DUP8 DUP3 DUP9 ADD PUSH2 0x4424 JUMP JUMPDEST SWAP4 POP POP PUSH1 0x40 DUP6 ADD CALLDATALOAD PUSH8 0xFFFFFFFFFFFFFFFF DUP2 GT ISZERO PUSH2 0x4B2E JUMPI PUSH2 0x4B2D PUSH2 0x3EAA JUMP JUMPDEST JUMPDEST PUSH2 0x4B3A DUP8 DUP3 DUP9 ADD PUSH2 0x4502 JUMP JUMPDEST SWAP3 POP POP PUSH1 0x60 DUP6 ADD CALLDATALOAD PUSH8 0xFFFFFFFFFFFFFFFF DUP2 GT ISZERO PUSH2 0x4B5B JUMPI PUSH2 0x4B5A PUSH2 0x3EAA JUMP JUMPDEST JUMPDEST PUSH2 0x4B67 DUP8 DUP3 DUP9 ADD PUSH2 0x4A72 JUMP JUMPDEST SWAP2 POP POP SWAP3 SWAP6 SWAP2 SWAP5 POP SWAP3 POP JUMP JUMPDEST PUSH0 PUSH1 0x20 DUP3 DUP5 SUB SLT ISZERO PUSH2 0x4B88 JUMPI PUSH2 0x4B87 PUSH2 0x3EA6 JUMP JUMPDEST JUMPDEST PUSH0 PUSH2 0x4B95 DUP5 DUP3 DUP6 ADD PUSH2 0x40E5 JUMP JUMPDEST SWAP2 POP POP SWAP3 SWAP2 POP POP JUMP JUMPDEST PUSH0 PUSH32 0xFF00000000000000000000000000000000000000000000000000000000000000 DUP3 AND SWAP1 POP SWAP2 SWAP1 POP JUMP JUMPDEST PUSH2 0x4BD2 DUP2 PUSH2 0x4B9E JUMP JUMPDEST DUP3 MSTORE POP POP JUMP JUMPDEST PUSH0 DUP2 MLOAD SWAP1 POP SWAP2 SWAP1 POP JUMP JUMPDEST PUSH0 DUP3 DUP3 MSTORE PUSH1 0x20 DUP3 ADD SWAP1 POP SWAP3 SWAP2 POP POP JUMP JUMPDEST PUSH0 DUP2 SWAP1 POP PUSH1 0x20 DUP3 ADD SWAP1 POP SWAP2 SWAP1 POP JUMP JUMPDEST PUSH2 0x4C0A DUP2 PUSH2 0x3F61 JUMP JUMPDEST DUP3 MSTORE POP POP JUMP JUMPDEST PUSH0 PUSH2 0x4C1B DUP4 DUP4 PUSH2 0x4C01 JUMP JUMPDEST PUSH1 0x20 DUP4 ADD SWAP1 POP SWAP3 SWAP2 POP POP JUMP JUMPDEST PUSH0 PUSH1 0x20 DUP3 ADD SWAP1 POP SWAP2 SWAP1 POP JUMP JUMPDEST PUSH0 PUSH2 0x4C3D DUP3 PUSH2 0x4BD8 JUMP JUMPDEST PUSH2 0x4C47 DUP2 DUP6 PUSH2 0x4BE2 JUMP JUMPDEST SWAP4 POP PUSH2 0x4C52 DUP4 PUSH2 0x4BF2 JUMP JUMPDEST DUP1 PUSH0 JUMPDEST DUP4 DUP2 LT ISZERO PUSH2 0x4C82 JUMPI DUP2 MLOAD PUSH2 0x4C69 DUP9 DUP3 PUSH2 0x4C10 JUMP JUMPDEST SWAP8 POP PUSH2 0x4C74 DUP4 PUSH2 0x4C27 JUMP JUMPDEST SWAP3 POP POP PUSH1 0x1 DUP2 ADD SWAP1 POP PUSH2 0x4C55 JUMP JUMPDEST POP DUP6 SWAP4 POP POP POP POP SWAP3 SWAP2 POP POP JUMP JUMPDEST PUSH0 PUSH1 0xE0 DUP3 ADD SWAP1 POP PUSH2 0x4CA2 PUSH0 DUP4 ADD DUP11 PUSH2 0x4BC9 JUMP JUMPDEST DUP2 DUP2 SUB PUSH1 0x20 DUP4 ADD MSTORE PUSH2 0x4CB4 DUP2 DUP10 PUSH2 0x401F JUMP JUMPDEST SWAP1 POP DUP2 DUP2 SUB PUSH1 0x40 DUP4 ADD MSTORE PUSH2 0x4CC8 DUP2 DUP9 PUSH2 0x401F JUMP JUMPDEST SWAP1 POP PUSH2 0x4CD7 PUSH1 0x60 DUP4 ADD DUP8 PUSH2 0x3F6A JUMP JUMPDEST PUSH2 0x4CE4 PUSH1 0x80 DUP4 ADD DUP7 PUSH2 0x40A7 JUMP JUMPDEST PUSH2 0x4CF1 PUSH1 0xA0 DUP4 ADD DUP6 PUSH2 0x461A JUMP JUMPDEST DUP2 DUP2 SUB PUSH1 0xC0 DUP4 ADD MSTORE PUSH2 0x4D03 DUP2 DUP5 PUSH2 0x4C33 JUMP JUMPDEST SWAP1 POP SWAP9 SWAP8 POP POP POP POP POP POP POP POP JUMP JUMPDEST PUSH0 DUP1 PUSH0 DUP1 PUSH1 0x80 DUP6 DUP8 SUB SLT ISZERO PUSH2 0x4D29 JUMPI PUSH2 0x4D28 PUSH2 0x3EA6 JUMP JUMPDEST JUMPDEST PUSH0 PUSH2 0x4D36 DUP8 DUP3 DUP9 ADD PUSH2 0x3FA8 JUMP JUMPDEST SWAP5 POP POP PUSH1 0x20 PUSH2 0x4D47 DUP8 DUP3 DUP9 ADD PUSH2 0x4763 JUMP JUMPDEST SWAP4 POP POP PUSH1 0x40 PUSH2 0x4D58 DUP8 DUP3 DUP9 ADD PUSH2 0x40E5 JUMP JUMPDEST SWAP3 POP POP PUSH1 0x60 DUP6 ADD CALLDATALOAD PUSH8 0xFFFFFFFFFFFFFFFF DUP2 GT ISZERO PUSH2 0x4D79 JUMPI PUSH2 0x4D78 PUSH2 0x3EAA JUMP JUMPDEST JUMPDEST PUSH2 0x4D85 DUP8 DUP3 DUP9 ADD PUSH2 0x41F8 JUMP JUMPDEST SWAP2 POP POP SWAP3 SWAP6 SWAP2 SWAP5 POP SWAP3 POP JUMP JUMPDEST PUSH0 PUSH6 0xFFFFFFFFFFFF DUP3 AND SWAP1 POP SWAP2 SWAP1 POP JUMP JUMPDEST PUSH2 0x4DAB DUP2 PUSH2 0x4D91 JUMP JUMPDEST DUP3 MSTORE POP POP JUMP JUMPDEST PUSH0 PUSH1 0x20 DUP3 ADD SWAP1 POP PUSH2 0x4DC4 PUSH0 DUP4 ADD DUP5 PUSH2 0x4DA2 JUMP JUMPDEST SWAP3 SWAP2 POP POP JUMP JUMPDEST PUSH0 DUP1 PUSH0 PUSH1 0x60 DUP5 DUP7 SUB SLT ISZERO PUSH2 0x4DE1 JUMPI PUSH2 0x4DE0 PUSH2 0x3EA6 JUMP JUMPDEST JUMPDEST PUSH0 PUSH2 0x4DEE DUP7 DUP3 DUP8 ADD PUSH2 0x40E5 JUMP JUMPDEST SWAP4 POP POP PUSH1 0x20 PUSH2 0x4DFF DUP7 DUP3 DUP8 ADD PUSH2 0x3FA8 JUMP JUMPDEST SWAP3 POP POP PUSH1 0x40 DUP5 ADD CALLDATALOAD PUSH8 0xFFFFFFFFFFFFFFFF DUP2 GT ISZERO PUSH2 0x4E20 JUMPI PUSH2 0x4E1F PUSH2 0x3EAA JUMP JUMPDEST JUMPDEST PUSH2 0x4E2C DUP7 DUP3 DUP8 ADD PUSH2 0x41F8 JUMP JUMPDEST SWAP2 POP POP SWAP3 POP SWAP3 POP SWAP3 JUMP JUMPDEST PUSH0 DUP1 PUSH0 DUP1 PUSH0 PUSH1 0xA0 DUP7 DUP9 SUB SLT ISZERO PUSH2 0x4E4F JUMPI PUSH2 0x4E4E PUSH2 0x3EA6 JUMP JUMPDEST JUMPDEST PUSH0 PUSH2 0x4E5C DUP9 DUP3 DUP10 ADD PUSH2 0x40E5 JUMP JUMPDEST SWAP6 POP POP PUSH1 0x20 PUSH2 0x4E6D DUP9 DUP3 DUP10 ADD PUSH2 0x40E5 JUMP JUMPDEST SWAP5 POP POP PUSH1 0x40 DUP7 ADD CALLDATALOAD PUSH8 0xFFFFFFFFFFFFFFFF DUP2 GT ISZERO PUSH2 0x4E8E JUMPI PUSH2 0x4E8D PUSH2 0x3EAA JUMP JUMPDEST JUMPDEST PUSH2 0x4E9A DUP9 DUP3 DUP10 ADD PUSH2 0x4424 JUMP JUMPDEST SWAP4 POP POP PUSH1 0x60 DUP7 ADD CALLDATALOAD PUSH8 0xFFFFFFFFFFFFFFFF DUP2 GT ISZERO PUSH2 0x4EBB JUMPI PUSH2 0x4EBA PUSH2 0x3EAA JUMP JUMPDEST JUMPDEST PUSH2 0x4EC7 DUP9 DUP3 DUP10 ADD PUSH2 0x4424 JUMP JUMPDEST SWAP3 POP POP PUSH1 0x80 DUP7 ADD CALLDATALOAD PUSH8 0xFFFFFFFFFFFFFFFF DUP2 GT ISZERO PUSH2 0x4EE8 JUMPI PUSH2 0x4EE7 PUSH2 0x3EAA JUMP JUMPDEST JUMPDEST PUSH2 0x4EF4 DUP9 DUP3 DUP10 ADD PUSH2 0x41F8 JUMP JUMPDEST SWAP2 POP POP SWAP3 SWAP6 POP SWAP3 SWAP6 SWAP1 SWAP4 POP JUMP JUMPDEST PUSH0 DUP1 DUP4 PUSH1 0x1F DUP5 ADD SLT PUSH2 0x4F16 JUMPI PUSH2 0x4F15 PUSH2 0x40F9 JUMP JUMPDEST JUMPDEST DUP3 CALLDATALOAD SWAP1 POP PUSH8 0xFFFFFFFFFFFFFFFF DUP2 GT ISZERO PUSH2 0x4F33 JUMPI PUSH2 0x4F32 PUSH2 0x47B5 JUMP JUMPDEST JUMPDEST PUSH1 0x20 DUP4 ADD SWAP2 POP DUP4 PUSH1 0x1 DUP3 MUL DUP4 ADD GT ISZERO PUSH2 0x4F4F JUMPI PUSH2 0x4F4E PUSH2 0x42F8 JUMP JUMPDEST JUMPDEST SWAP3 POP SWAP3 SWAP1 POP JUMP JUMPDEST PUSH0 DUP1 PUSH0 DUP1 PUSH1 0x60 DUP6 DUP8 SUB SLT ISZERO PUSH2 0x4F6E JUMPI PUSH2 0x4F6D PUSH2 0x3EA6 JUMP JUMPDEST JUMPDEST PUSH0 PUSH2 0x4F7B DUP8 DUP3 DUP9 ADD PUSH2 0x40E5 JUMP JUMPDEST SWAP5 POP POP PUSH1 0x20 PUSH2 0x4F8C DUP8 DUP3 DUP9 ADD PUSH2 0x3FA8 JUMP JUMPDEST SWAP4 POP POP PUSH1 0x40 DUP6 ADD CALLDATALOAD PUSH8 0xFFFFFFFFFFFFFFFF DUP2 GT ISZERO PUSH2 0x4FAD JUMPI PUSH2 0x4FAC PUSH2 0x3EAA JUMP JUMPDEST JUMPDEST PUSH2 0x4FB9 DUP8 DUP3 DUP9 ADD PUSH2 0x4F01 JUMP JUMPDEST SWAP3 POP SWAP3 POP POP SWAP3 SWAP6 SWAP2 SWAP5 POP SWAP3 POP JUMP JUMPDEST PUSH0 DUP1 PUSH1 0x40 DUP4 DUP6 SUB SLT ISZERO PUSH2 0x4FDD JUMPI PUSH2 0x4FDC PUSH2 0x3EA6 JUMP JUMPDEST JUMPDEST PUSH0 PUSH2 0x4FEA DUP6 DUP3 DUP7 ADD PUSH2 0x40E5 JUMP JUMPDEST SWAP3 POP POP PUSH1 0x20 PUSH2 0x4FFB DUP6 DUP3 DUP7 ADD PUSH2 0x3FA8 JUMP JUMPDEST SWAP2 POP POP SWAP3 POP SWAP3 SWAP1 POP JUMP JUMPDEST PUSH0 DUP1 PUSH0 DUP1 PUSH0 PUSH1 0xA0 DUP7 DUP9 SUB SLT ISZERO PUSH2 0x501E JUMPI PUSH2 0x501D PUSH2 0x3EA6 JUMP JUMPDEST JUMPDEST PUSH0 PUSH2 0x502B DUP9 DUP3 DUP10 ADD PUSH2 0x40E5 JUMP JUMPDEST SWAP6 POP POP PUSH1 0x20 PUSH2 0x503C DUP9 DUP3 DUP10 ADD PUSH2 0x40E5 JUMP JUMPDEST SWAP5 POP POP PUSH1 0x40 PUSH2 0x504D DUP9 DUP3 DUP10 ADD PUSH2 0x3FA8 JUMP JUMPDEST SWAP4 POP POP PUSH1 0x60 PUSH2 0x505E DUP9 DUP3 DUP10 ADD PUSH2 0x3FA8 JUMP JUMPDEST SWAP3 POP POP PUSH1 0x80 DUP7 ADD CALLDATALOAD PUSH8 0xFFFFFFFFFFFFFFFF DUP2 GT ISZERO PUSH2 0x507F JUMPI PUSH2 0x507E PUSH2 0x3EAA JUMP JUMPDEST JUMPDEST PUSH2 0x508B DUP9 DUP3 DUP10 ADD PUSH2 0x41F8 JUMP JUMPDEST SWAP2 POP POP SWAP3 SWAP6 POP SWAP3 SWAP6 SWAP1 SWAP4 POP JUMP JUMPDEST PUSH0 DUP2 SWAP1 POP SWAP2 SWAP1 POP JUMP JUMPDEST PUSH0 PUSH2 0x50BB PUSH2 0x50B6 PUSH2 0x50B1 DUP5 PUSH2 0x4077 JUMP JUMPDEST PUSH2 0x5098 JUMP JUMPDEST PUSH2 0x4077 JUMP JUMPDEST SWAP1 POP SWAP2 SWAP1 POP JUMP JUMPDEST PUSH0 PUSH2 0x50CC DUP3 PUSH2 0x50A1 JUMP JUMPDEST SWAP1 POP SWAP2 SWAP1 POP JUMP JUMPDEST PUSH0 PUSH2 0x50DD DUP3 PUSH2 0x50C2 JUMP JUMPDEST SWAP1 POP SWAP2 SWAP1 POP JUMP JUMPDEST PUSH2 0x50ED DUP2 PUSH2 0x50D3 JUMP JUMPDEST DUP3 MSTORE POP POP JUMP JUMPDEST PUSH0 PUSH1 0x20 DUP3 ADD SWAP1 POP PUSH2 0x5106 PUSH0 DUP4 ADD DUP5 PUSH2 0x50E4 JUMP JUMPDEST SWAP3 SWAP2 POP POP JUMP JUMPDEST PUSH32 0x4E487B7100000000000000000000000000000000000000000000000000000000 PUSH0 MSTORE PUSH1 0x22 PUSH1 0x4 MSTORE PUSH1 0x24 PUSH0 REVERT JUMPDEST PUSH0 PUSH1 0x2 DUP3 DIV SWAP1 POP PUSH1 0x1 DUP3 AND DUP1 PUSH2 0x5150 JUMPI PUSH1 0x7F DUP3 AND SWAP2 POP JUMPDEST PUSH1 0x20 DUP3 LT DUP2 SUB PUSH2 0x5163 JUMPI PUSH2 0x5162 PUSH2 0x510C JUMP JUMPDEST JUMPDEST POP SWAP2 SWAP1 POP JUMP JUMPDEST PUSH0 PUSH2 0x5183 PUSH2 0x517E PUSH2 0x5179 DUP5 PUSH2 0x4D91 JUMP JUMPDEST PUSH2 0x5098 JUMP JUMPDEST PUSH2 0x3F61 JUMP JUMPDEST SWAP1 POP SWAP2 SWAP1 POP JUMP JUMPDEST PUSH2 0x5193 DUP2 PUSH2 0x5169 JUMP JUMPDEST DUP3 MSTORE POP POP JUMP JUMPDEST PUSH0 PUSH1 0x40 DUP3 ADD SWAP1 POP PUSH2 0x51AC PUSH0 DUP4 ADD DUP6 PUSH2 0x3F6A JUMP JUMPDEST PUSH2 0x51B9 PUSH1 0x20 DUP4 ADD DUP5 PUSH2 0x518A JUMP JUMPDEST SWAP4 SWAP3 POP POP POP JUMP JUMPDEST PUSH32 0x4E487B7100000000000000000000000000000000000000000000000000000000 PUSH0 MSTORE PUSH1 0x32 PUSH1 0x4 MSTORE PUSH1 0x24 PUSH0 REVERT JUMPDEST PUSH0 PUSH2 0x51FF PUSH2 0x51FA DUP5 PUSH2 0x4A01 JUMP JUMPDEST PUSH2 0x415F JUMP JUMPDEST SWAP1 POP DUP3 DUP2 MSTORE PUSH1 0x20 DUP2 ADD DUP5 DUP5 DUP5 ADD GT ISZERO PUSH2 0x521B JUMPI PUSH2 0x521A PUSH2 0x40FD JUMP JUMPDEST JUMPDEST PUSH2 0x5226 DUP5 DUP3 DUP6 PUSH2 0x4001 JUMP JUMPDEST POP SWAP4 SWAP3 POP POP POP JUMP JUMPDEST PUSH0 DUP3 PUSH1 0x1F DUP4 ADD SLT PUSH2 0x5242 JUMPI PUSH2 0x5241 PUSH2 0x40F9 JUMP JUMPDEST JUMPDEST DUP2 MLOAD PUSH2 0x5252 DUP5 DUP3 PUSH1 0x20 DUP7 ADD PUSH2 0x51ED JUMP JUMPDEST SWAP2 POP POP SWAP3 SWAP2 POP POP JUMP JUMPDEST PUSH0 PUSH1 0x20 DUP3 DUP5 SUB SLT ISZERO PUSH2 0x5270 JUMPI PUSH2 0x526F PUSH2 0x3EA6 JUMP JUMPDEST JUMPDEST PUSH0 DUP3 ADD MLOAD PUSH8 0xFFFFFFFFFFFFFFFF DUP2 GT ISZERO PUSH2 0x528D JUMPI PUSH2 0x528C PUSH2 0x3EAA JUMP JUMPDEST JUMPDEST PUSH2 0x5299 DUP5 DUP3 DUP6 ADD PUSH2 0x522E JUMP JUMPDEST SWAP2 POP POP SWAP3 SWAP2 POP POP JUMP JUMPDEST PUSH0 DUP2 SWAP1 POP SWAP3 SWAP2 POP POP JUMP JUMPDEST PUSH0 PUSH2 0x52B7 DUP4 DUP6 PUSH2 0x52A2 JUMP JUMPDEST SWAP4 POP PUSH2 0x52C4 DUP4 DUP6 DUP5 PUSH2 0x41A9 JUMP JUMPDEST DUP3 DUP5 ADD SWAP1 POP SWAP4 SWAP3 POP POP POP JUMP JUMPDEST PUSH0 PUSH2 0x52DC DUP3 DUP5 DUP7 PUSH2 0x52AC JUMP JUMPDEST SWAP2 POP DUP2 SWAP1 POP SWAP4 SWAP3 POP POP POP JUMP JUMPDEST PUSH2 0x52F1 DUP2 PUSH2 0x4741 JUMP JUMPDEST DUP3 MSTORE POP POP JUMP JUMPDEST PUSH0 PUSH1 0xE0 DUP3 ADD SWAP1 POP PUSH2 0x530A PUSH0 DUP4 ADD DUP11 PUSH2 0x461A JUMP JUMPDEST PUSH2 0x5317 PUSH1 0x20 DUP4 ADD DUP10 PUSH2 0x3F6A JUMP JUMPDEST PUSH2 0x5324 PUSH1 0x40 DUP4 ADD DUP9 PUSH2 0x52E8 JUMP JUMPDEST PUSH2 0x5331 PUSH1 0x60 DUP4 ADD DUP8 PUSH2 0x40A7 JUMP JUMPDEST PUSH2 0x533E PUSH1 0x80 DUP4 ADD DUP7 PUSH2 0x3F6A JUMP JUMPDEST PUSH2 0x534B PUSH1 0xA0 DUP4 ADD DUP6 PUSH2 0x461A JUMP JUMPDEST PUSH2 0x5358 PUSH1 0xC0 DUP4 ADD DUP5 PUSH2 0x461A JUMP JUMPDEST SWAP9 SWAP8 POP POP POP POP POP POP POP POP JUMP JUMPDEST PUSH32 0x4E487B7100000000000000000000000000000000000000000000000000000000 PUSH0 MSTORE PUSH1 0x11 PUSH1 0x4 MSTORE PUSH1 0x24 PUSH0 REVERT JUMPDEST PUSH0 PUSH2 0x539B DUP3 PUSH2 0x3F61 JUMP JUMPDEST SWAP2 POP PUSH2 0x53A6 DUP4 PUSH2 0x3F61 JUMP JUMPDEST SWAP3 POP DUP3 DUP3 SUB SWAP1 POP DUP2 DUP2 GT ISZERO PUSH2 0x53BE JUMPI PUSH2 0x53BD PUSH2 0x5364 JUMP JUMPDEST JUMPDEST SWAP3 SWAP2 POP POP JUMP JUMPDEST PUSH0 PUSH2 0x53CE DUP3 PUSH2 0x4D91 JUMP JUMPDEST SWAP2 POP PUSH2 0x53D9 DUP4 PUSH2 0x4D91 JUMP JUMPDEST SWAP3 POP DUP3 DUP3 SUB SWAP1 POP PUSH6 0xFFFFFFFFFFFF DUP2 GT ISZERO PUSH2 0x53F7 JUMPI PUSH2 0x53F6 PUSH2 0x5364 JUMP JUMPDEST JUMPDEST SWAP3 SWAP2 POP POP JUMP JUMPDEST PUSH0 PUSH1 0x60 DUP3 ADD SWAP1 POP PUSH2 0x5410 PUSH0 DUP4 ADD DUP7 PUSH2 0x40A7 JUMP JUMPDEST PUSH2 0x541D PUSH1 0x20 DUP4 ADD DUP6 PUSH2 0x3F6A JUMP JUMPDEST PUSH2 0x542A PUSH1 0x40 DUP4 ADD DUP5 PUSH2 0x3F6A JUMP JUMPDEST SWAP5 SWAP4 POP POP POP POP JUMP JUMPDEST PUSH0 PUSH1 0xA0 DUP3 ADD SWAP1 POP PUSH2 0x5445 PUSH0 DUP4 ADD DUP9 PUSH2 0x461A JUMP JUMPDEST PUSH2 0x5452 PUSH1 0x20 DUP4 ADD DUP8 PUSH2 0x3F6A JUMP JUMPDEST PUSH2 0x545F PUSH1 0x40 DUP4 ADD DUP7 PUSH2 0x52E8 JUMP JUMPDEST PUSH2 0x546C PUSH1 0x60 DUP4 ADD DUP6 PUSH2 0x40A7 JUMP JUMPDEST PUSH2 0x5479 PUSH1 0x80 DUP4 ADD DUP5 PUSH2 0x3F6A JUMP JUMPDEST SWAP7 SWAP6 POP POP POP POP POP POP JUMP JUMPDEST PUSH2 0x548C DUP2 PUSH2 0x4D91 JUMP JUMPDEST DUP2 EQ PUSH2 0x5496 JUMPI PUSH0 DUP1 REVERT JUMPDEST POP JUMP JUMPDEST PUSH0 DUP2 MLOAD SWAP1 POP PUSH2 0x54A7 DUP2 PUSH2 0x5483 JUMP JUMPDEST SWAP3 SWAP2 POP POP JUMP JUMPDEST PUSH0 PUSH1 0x20 DUP3 DUP5 SUB SLT ISZERO PUSH2 0x54C2 JUMPI PUSH2 0x54C1 PUSH2 0x3EA6 JUMP JUMPDEST JUMPDEST PUSH0 PUSH2 0x54CF DUP5 DUP3 DUP6 ADD PUSH2 0x5499 JUMP JUMPDEST SWAP2 POP POP SWAP3 SWAP2 POP POP JUMP JUMPDEST PUSH0 PUSH2 0x54E2 DUP3 PUSH2 0x4D91 JUMP JUMPDEST SWAP2 POP PUSH2 0x54ED DUP4 PUSH2 0x4D91 JUMP JUMPDEST SWAP3 POP DUP3 DUP3 ADD SWAP1 POP PUSH6 0xFFFFFFFFFFFF DUP2 GT ISZERO PUSH2 0x550B JUMPI PUSH2 0x550A PUSH2 0x5364 JUMP JUMPDEST JUMPDEST SWAP3 SWAP2 POP POP JUMP JUMPDEST PUSH0 DUP2 MLOAD SWAP1 POP SWAP2 SWAP1 POP JUMP JUMPDEST PUSH0 DUP3 DUP3 MSTORE PUSH1 0x20 DUP3 ADD SWAP1 POP SWAP3 SWAP2 POP POP JUMP JUMPDEST PUSH0 DUP2 SWAP1 POP PUSH1 0x20 DUP3 ADD SWAP1 POP SWAP2 SWAP1 POP JUMP JUMPDEST PUSH2 0x5543 DUP2 PUSH2 0x4096 JUMP JUMPDEST DUP3 MSTORE POP POP JUMP JUMPDEST PUSH0 PUSH2 0x5554 DUP4 DUP4 PUSH2 0x553A JUMP JUMPDEST PUSH1 0x20 DUP4 ADD SWAP1 POP SWAP3 SWAP2 POP POP JUMP JUMPDEST PUSH0 PUSH1 0x20 DUP3 ADD SWAP1 POP SWAP2 SWAP1 POP JUMP JUMPDEST PUSH0 PUSH2 0x5576 DUP3 PUSH2 0x5511 JUMP JUMPDEST PUSH2 0x5580 DUP2 DUP6 PUSH2 0x551B JUMP JUMPDEST SWAP4 POP PUSH2 0x558B DUP4 PUSH2 0x552B JUMP JUMPDEST DUP1 PUSH0 JUMPDEST DUP4 DUP2 LT ISZERO PUSH2 0x55BB JUMPI DUP2 MLOAD PUSH2 0x55A2 DUP9 DUP3 PUSH2 0x5549 JUMP JUMPDEST SWAP8 POP PUSH2 0x55AD DUP4 PUSH2 0x5560 JUMP JUMPDEST SWAP3 POP POP PUSH1 0x1 DUP2 ADD SWAP1 POP PUSH2 0x558E JUMP JUMPDEST POP DUP6 SWAP4 POP POP POP POP SWAP3 SWAP2 POP POP JUMP JUMPDEST PUSH0 DUP2 MLOAD SWAP1 POP SWAP2 SWAP1 POP JUMP JUMPDEST PUSH0 DUP3 DUP3 MSTORE PUSH1 0x20 DUP3 ADD SWAP1 POP SWAP3 SWAP2 POP POP JUMP JUMPDEST PUSH0 DUP2 SWAP1 POP PUSH1 0x20 DUP3 ADD SWAP1 POP SWAP2 SWAP1 POP JUMP JUMPDEST PUSH0 DUP2 MLOAD SWAP1 POP SWAP2 SWAP1 POP JUMP JUMPDEST PUSH0 DUP3 DUP3 MSTORE PUSH1 0x20 DUP3 ADD SWAP1 POP SWAP3 SWAP2 POP POP JUMP JUMPDEST PUSH0 PUSH2 0x5615 DUP3 PUSH2 0x55F1 JUMP JUMPDEST PUSH2 0x561F DUP2 DUP6 PUSH2 0x55FB JUMP JUMPDEST SWAP4 POP PUSH2 0x562F DUP2 DUP6 PUSH1 0x20 DUP7 ADD PUSH2 0x4001 JUMP JUMPDEST PUSH2 0x5638 DUP2 PUSH2 0x400F JUMP JUMPDEST DUP5 ADD SWAP2 POP POP SWAP3 SWAP2 POP POP JUMP JUMPDEST PUSH0 PUSH2 0x564E DUP4 DUP4 PUSH2 0x560B JUMP JUMPDEST SWAP1 POP SWAP3 SWAP2 POP POP JUMP JUMPDEST PUSH0 PUSH1 0x20 DUP3 ADD SWAP1 POP SWAP2 SWAP1 POP JUMP JUMPDEST PUSH0 PUSH2 0x566C DUP3 PUSH2 0x55C8 JUMP JUMPDEST PUSH2 0x5676 DUP2 DUP6 PUSH2 0x55D2 JUMP JUMPDEST SWAP4 POP DUP4 PUSH1 0x20 DUP3 MUL DUP6 ADD PUSH2 0x5688 DUP6 PUSH2 0x55E2 JUMP JUMPDEST DUP1 PUSH0 JUMPDEST DUP6 DUP2 LT ISZERO PUSH2 0x56C3 JUMPI DUP5 DUP5 SUB DUP10 MSTORE DUP2 MLOAD PUSH2 0x56A4 DUP6 DUP3 PUSH2 0x5643 JUMP JUMPDEST SWAP5 POP PUSH2 0x56AF DUP4 PUSH2 0x5656 JUMP JUMPDEST SWAP3 POP PUSH1 0x20 DUP11 ADD SWAP10 POP POP PUSH1 0x1 DUP2 ADD SWAP1 POP PUSH2 0x568B JUMP JUMPDEST POP DUP3 SWAP8 POP DUP8 SWAP6 POP POP POP POP POP POP SWAP3 SWAP2 POP POP JUMP JUMPDEST PUSH0 PUSH1 0x80 DUP3 ADD SWAP1 POP DUP2 DUP2 SUB PUSH0 DUP4 ADD MSTORE PUSH2 0x56ED DUP2 DUP8 PUSH2 0x556C JUMP JUMPDEST SWAP1 POP DUP2 DUP2 SUB PUSH1 0x20 DUP4 ADD MSTORE PUSH2 0x5701 DUP2 DUP7 PUSH2 0x4C33 JUMP JUMPDEST SWAP1 POP DUP2 DUP2 SUB PUSH1 0x40 DUP4 ADD MSTORE PUSH2 0x5715 DUP2 DUP6 PUSH2 0x5662 JUMP JUMPDEST SWAP1 POP PUSH2 0x5724 PUSH1 0x60 DUP4 ADD DUP5 PUSH2 0x461A JUMP JUMPDEST SWAP6 SWAP5 POP POP POP POP POP JUMP JUMPDEST PUSH0 DUP2 MLOAD SWAP1 POP PUSH2 0x573B DUP2 PUSH2 0x3F92 JUMP JUMPDEST SWAP3 SWAP2 POP POP JUMP JUMPDEST PUSH0 PUSH1 0x20 DUP3 DUP5 SUB SLT ISZERO PUSH2 0x5756 JUMPI PUSH2 0x5755 PUSH2 0x3EA6 JUMP JUMPDEST JUMPDEST PUSH0 PUSH2 0x5763 DUP5 DUP3 DUP6 ADD PUSH2 0x572D JUMP JUMPDEST SWAP2 POP POP SWAP3 SWAP2 POP POP JUMP JUMPDEST PUSH0 PUSH2 0x5776 DUP3 PUSH2 0x3F61 JUMP JUMPDEST SWAP2 POP PUSH2 0x5781 DUP4 PUSH2 0x3F61 JUMP JUMPDEST SWAP3 POP DUP3 DUP3 MUL PUSH2 0x578F DUP2 PUSH2 0x3F61 JUMP JUMPDEST SWAP2 POP DUP3 DUP3 DIV DUP5 EQ DUP4 ISZERO OR PUSH2 0x57A6 JUMPI PUSH2 0x57A5 PUSH2 0x5364 JUMP JUMPDEST JUMPDEST POP SWAP3 SWAP2 POP POP JUMP JUMPDEST PUSH32 0x4E487B7100000000000000000000000000000000000000000000000000000000 PUSH0 MSTORE PUSH1 0x12 PUSH1 0x4 MSTORE PUSH1 0x24 PUSH0 REVERT JUMPDEST PUSH0 PUSH2 0x57E4 DUP3 PUSH2 0x3F61 JUMP JUMPDEST SWAP2 POP PUSH2 0x57EF DUP4 PUSH2 0x3F61 JUMP JUMPDEST SWAP3 POP DUP3 PUSH2 0x57FF JUMPI PUSH2 0x57FE PUSH2 0x57AD JUMP JUMPDEST JUMPDEST DUP3 DUP3 DIV SWAP1 POP SWAP3 SWAP2 POP POP JUMP JUMPDEST PUSH0 PUSH1 0x40 DUP3 ADD SWAP1 POP PUSH2 0x581D PUSH0 DUP4 ADD DUP6 PUSH2 0x3F6A JUMP JUMPDEST PUSH2 0x582A PUSH1 0x20 DUP4 ADD DUP5 PUSH2 0x3F6A JUMP JUMPDEST SWAP4 SWAP3 POP POP POP JUMP JUMPDEST PUSH0 PUSH1 0x60 DUP3 ADD SWAP1 POP PUSH2 0x5844 PUSH0 DUP4 ADD DUP7 PUSH2 0x3F6A JUMP JUMPDEST PUSH2 0x5851 PUSH1 0x20 DUP4 ADD DUP6 PUSH2 0x46A6 JUMP JUMPDEST PUSH2 0x585E PUSH1 0x40 DUP4 ADD DUP5 PUSH2 0x461A JUMP JUMPDEST SWAP5 SWAP4 POP POP POP POP JUMP JUMPDEST PUSH0 PUSH2 0x5870 DUP3 PUSH2 0x55F1 JUMP JUMPDEST PUSH2 0x587A DUP2 DUP6 PUSH2 0x52A2 JUMP JUMPDEST SWAP4 POP PUSH2 0x588A DUP2 DUP6 PUSH1 0x20 DUP7 ADD PUSH2 0x4001 JUMP JUMPDEST DUP1 DUP5 ADD SWAP2 POP POP SWAP3 SWAP2 POP POP JUMP JUMPDEST PUSH0 PUSH2 0x58A1 DUP3 DUP5 PUSH2 0x5866 JUMP JUMPDEST SWAP2 POP DUP2 SWAP1 POP SWAP3 SWAP2 POP POP JUMP JUMPDEST PUSH0 PUSH2 0x58B6 DUP3 PUSH2 0x3F61 JUMP JUMPDEST SWAP2 POP PUSH2 0x58C1 DUP4 PUSH2 0x3F61 JUMP JUMPDEST SWAP3 POP DUP3 DUP3 ADD SWAP1 POP DUP1 DUP3 GT ISZERO PUSH2 0x58D9 JUMPI PUSH2 0x58D8 PUSH2 0x5364 JUMP JUMPDEST JUMPDEST SWAP3 SWAP2 POP POP JUMP JUMPDEST PUSH0 PUSH2 0x58E9 DUP3 PUSH2 0x4741 JUMP JUMPDEST SWAP2 POP PUSH2 0x58F4 DUP4 PUSH2 0x4741 JUMP JUMPDEST SWAP3 POP DUP3 DUP3 ADD SWAP1 POP PUSH1 0xFF DUP2 GT ISZERO PUSH2 0x590D JUMPI PUSH2 0x590C PUSH2 0x5364 JUMP JUMPDEST JUMPDEST SWAP3 SWAP2 POP POP JUMP JUMPDEST PUSH0 DUP2 PUSH1 0x1 SHR SWAP1 POP SWAP2 SWAP1 POP JUMP JUMPDEST PUSH0 DUP1 DUP3 SWAP2 POP DUP4 SWAP1 POP JUMPDEST PUSH1 0x1 DUP6 GT ISZERO PUSH2 0x5968 JUMPI DUP1 DUP7 DIV DUP2 GT ISZERO PUSH2 0x5944 JUMPI PUSH2 0x5943 PUSH2 0x5364 JUMP JUMPDEST JUMPDEST PUSH1 0x1 DUP6 AND ISZERO PUSH2 0x5953 JUMPI DUP1 DUP3 MUL SWAP2 POP JUMPDEST DUP1 DUP2 MUL SWAP1 POP PUSH2 0x5961 DUP6 PUSH2 0x5913 JUMP JUMPDEST SWAP5 POP PUSH2 0x5928 JUMP JUMPDEST SWAP5 POP SWAP5 SWAP3 POP POP POP JUMP JUMPDEST PUSH0 DUP3 PUSH2 0x5980 JUMPI PUSH1 0x1 SWAP1 POP PUSH2 0x5A3B JUMP JUMPDEST DUP2 PUSH2 0x598D JUMPI PUSH0 SWAP1 POP PUSH2 0x5A3B JUMP JUMPDEST DUP2 PUSH1 0x1 DUP2 EQ PUSH2 0x59A3 JUMPI PUSH1 0x2 DUP2 EQ PUSH2 0x59AD JUMPI PUSH2 0x59DC JUMP JUMPDEST PUSH1 0x1 SWAP2 POP POP PUSH2 0x5A3B JUMP JUMPDEST PUSH1 0xFF DUP5 GT ISZERO PUSH2 0x59BF JUMPI PUSH2 0x59BE PUSH2 0x5364 JUMP JUMPDEST JUMPDEST DUP4 PUSH1 0x2 EXP SWAP2 POP DUP5 DUP3 GT ISZERO PUSH2 0x59D6 JUMPI PUSH2 0x59D5 PUSH2 0x5364 JUMP JUMPDEST JUMPDEST POP PUSH2 0x5A3B JUMP JUMPDEST POP PUSH1 0x20 DUP4 LT PUSH2 0x133 DUP4 LT AND PUSH1 0x4E DUP5 LT PUSH1 0xB DUP5 LT AND OR ISZERO PUSH2 0x5A11 JUMPI DUP3 DUP3 EXP SWAP1 POP DUP4 DUP2 GT ISZERO PUSH2 0x5A0C JUMPI PUSH2 0x5A0B PUSH2 0x5364 JUMP JUMPDEST JUMPDEST PUSH2 0x5A3B JUMP JUMPDEST PUSH2 0x5A1E DUP5 DUP5 DUP5 PUSH1 0x1 PUSH2 0x591F JUMP JUMPDEST SWAP3 POP SWAP1 POP DUP2 DUP5 DIV DUP2 GT ISZERO PUSH2 0x5A35 JUMPI PUSH2 0x5A34 PUSH2 0x5364 JUMP JUMPDEST JUMPDEST DUP2 DUP2 MUL SWAP1 POP JUMPDEST SWAP4 SWAP3 POP POP POP JUMP JUMPDEST PUSH0 PUSH2 0x5A4C DUP3 PUSH2 0x3F61 JUMP JUMPDEST SWAP2 POP PUSH2 0x5A57 DUP4 PUSH2 0x4741 JUMP JUMPDEST SWAP3 POP PUSH2 0x5A84 PUSH32 0xFFFFFFFFFFFFFFFFFFFFFFFFFFFFFFFFFFFFFFFFFFFFFFFFFFFFFFFFFFFFFFFF DUP5 DUP5 PUSH2 0x5971 JUMP JUMPDEST SWAP1 POP SWAP3 SWAP2 POP POP JUMP JUMPDEST PUSH0 PUSH1 0x80 DUP3 ADD SWAP1 POP PUSH2 0x5A9F PUSH0 DUP4 ADD DUP8 PUSH2 0x3F6A JUMP JUMPDEST PUSH2 0x5AAC PUSH1 0x20 DUP4 ADD DUP7 PUSH2 0x52E8 JUMP JUMPDEST PUSH2 0x5AB9 PUSH1 0x40 DUP4 ADD DUP6 PUSH2 0x3F6A JUMP JUMPDEST DUP2 DUP2 SUB PUSH1 0x60 DUP4 ADD MSTORE PUSH2 0x5ACB DUP2 DUP5 PUSH2 0x401F JUMP JUMPDEST SWAP1 POP SWAP6 SWAP5 POP POP POP POP POP JUMP JUMPDEST PUSH0 DUP3 DUP3 MSTORE PUSH1 0x20 DUP3 ADD SWAP1 POP SWAP3 SWAP2 POP POP JUMP JUMPDEST PUSH0 PUSH2 0x5AF0 DUP3 PUSH2 0x55F1 JUMP JUMPDEST PUSH2 0x5AFA DUP2 DUP6 PUSH2 0x5AD6 JUMP JUMPDEST SWAP4 POP PUSH2 0x5B0A DUP2 DUP6 PUSH1 0x20 DUP7 ADD PUSH2 0x4001 JUMP JUMPDEST PUSH2 0x5B13 DUP2 PUSH2 0x400F JUMP JUMPDEST DUP5 ADD SWAP2 POP POP SWAP3 SWAP2 POP POP JUMP JUMPDEST PUSH0 PUSH1 0xA0 DUP3 ADD SWAP1 POP PUSH2 0x5B31 PUSH0 DUP4 ADD DUP9 PUSH2 0x3F6A JUMP JUMPDEST PUSH2 0x5B3E PUSH1 0x20 DUP4 ADD DUP8 PUSH2 0x52E8 JUMP JUMPDEST PUSH2 0x5B4B PUSH1 0x40 DUP4 ADD DUP7 PUSH2 0x3F6A JUMP JUMPDEST DUP2 DUP2 SUB PUSH1 0x60 DUP4 ADD MSTORE PUSH2 0x5B5D DUP2 DUP6 PUSH2 0x401F JUMP JUMPDEST SWAP1 POP DUP2 DUP2 SUB PUSH1 0x80 DUP4 ADD MSTORE PUSH2 0x5B71 DUP2 DUP5 PUSH2 0x5AE6 JUMP JUMPDEST SWAP1 POP SWAP7 SWAP6 POP POP POP POP POP POP JUMP JUMPDEST PUSH0 DUP2 SWAP1 POP SWAP2 SWAP1 POP JUMP JUMPDEST PUSH0 PUSH2 0x5BA0 PUSH2 0x5B9B PUSH2 0x5B96 DUP5 PUSH2 0x5B7D JUMP JUMPDEST PUSH2 0x5098 JUMP JUMPDEST PUSH2 0x4741 JUMP JUMPDEST SWAP1 POP SWAP2 SWAP1 POP JUMP JUMPDEST PUSH2 0x5BB0 DUP2 PUSH2 0x5B86 JUMP JUMPDEST DUP3 MSTORE POP POP JUMP JUMPDEST PUSH0 PUSH1 0x40 DUP3 ADD SWAP1 POP PUSH2 0x5BC9 PUSH0 DUP4 ADD DUP6 PUSH2 0x5BA7 JUMP JUMPDEST PUSH2 0x5BD6 PUSH1 0x20 DUP4 ADD DUP5 PUSH2 0x3F6A JUMP JUMPDEST SWAP4 SWAP3 POP POP POP JUMP JUMPDEST PUSH0 DUP2 MLOAD SWAP1 POP SWAP2 SWAP1 POP JUMP JUMPDEST PUSH0 DUP3 DUP3 MSTORE PUSH1 0x20 DUP3 ADD SWAP1 POP SWAP3 SWAP2 POP POP JUMP JUMPDEST PUSH0 DUP2 SWAP1 POP PUSH1 0x20 DUP3 ADD SWAP1 POP SWAP2 SWAP1 POP JUMP JUMPDEST PUSH0 DUP3 DUP3 MSTORE PUSH1 0x20 DUP3 ADD SWAP1 POP SWAP3 SWAP2 POP POP JUMP JUMPDEST PUSH0 PUSH2 0x5C20 DUP3 PUSH2 0x3FE7 JUMP JUMPDEST PUSH2 0x5C2A DUP2 DUP6 PUSH2 0x5C06 JUMP JUMPDEST SWAP4 POP PUSH2 0x5C3A DUP2 DUP6 PUSH1 0x20 DUP7 ADD PUSH2 0x4001 JUMP JUMPDEST PUSH2 0x5C43 DUP2 PUSH2 0x400F JUMP JUMPDEST DUP5 ADD SWAP2 POP POP SWAP3 SWAP2 POP POP JUMP JUMPDEST PUSH0 PUSH2 0x5C59 DUP4 DUP4 PUSH2 0x5C16 JUMP JUMPDEST SWAP1 POP SWAP3 SWAP2 POP POP JUMP JUMPDEST PUSH0 PUSH1 0x20 DUP3 ADD SWAP1 POP SWAP2 SWAP1 POP JUMP JUMPDEST PUSH0 PUSH2 0x5C77 DUP3 PUSH2 0x5BDD JUMP JUMPDEST PUSH2 0x5C81 DUP2 DUP6 PUSH2 0x5BE7 JUMP JUMPDEST SWAP4 POP DUP4 PUSH1 0x20 DUP3 MUL DUP6 ADD PUSH2 0x5C93 DUP6 PUSH2 0x5BF7 JUMP JUMPDEST DUP1 PUSH0 JUMPDEST DUP6 DUP2 LT ISZERO PUSH2 0x5CCE JUMPI DUP5 DUP5 SUB DUP10 MSTORE DUP2 MLOAD PUSH2 0x5CAF DUP6 DUP3 PUSH2 0x5C4E JUMP JUMPDEST SWAP5 POP PUSH2 0x5CBA DUP4 PUSH2 0x5C61 JUMP JUMPDEST SWAP3 POP PUSH1 0x20 DUP11 ADD SWAP10 POP POP PUSH1 0x1 DUP2 ADD SWAP1 POP PUSH2 0x5C96 JUMP JUMPDEST POP DUP3 SWAP8 POP DUP8 SWAP6 POP POP POP POP POP POP SWAP3 SWAP2 POP POP JUMP JUMPDEST PUSH0 PUSH2 0x120 DUP3 ADD SWAP1 POP PUSH2 0x5CF4 PUSH0 DUP4 ADD DUP13 PUSH2 0x3F6A JUMP JUMPDEST PUSH2 0x5D01 PUSH1 0x20 DUP4 ADD DUP12 PUSH2 0x40A7 JUMP JUMPDEST DUP2 DUP2 SUB PUSH1 0x40 DUP4 ADD MSTORE PUSH2 0x5D13 DUP2 DUP11 PUSH2 0x556C JUMP JUMPDEST SWAP1 POP DUP2 DUP2 SUB PUSH1 0x60 DUP4 ADD MSTORE PUSH2 0x5D27 DUP2 DUP10 PUSH2 0x4C33 JUMP JUMPDEST SWAP1 POP DUP2 DUP2 SUB PUSH1 0x80 DUP4 ADD MSTORE PUSH2 0x5D3B DUP2 DUP9 PUSH2 0x5C6D JUMP JUMPDEST SWAP1 POP DUP2 DUP2 SUB PUSH1 0xA0 DUP4 ADD MSTORE PUSH2 0x5D4F DUP2 DUP8 PUSH2 0x5662 JUMP JUMPDEST SWAP1 POP PUSH2 0x5D5E PUSH1 0xC0 DUP4 ADD DUP7 PUSH2 0x3F6A JUMP JUMPDEST PUSH2 0x5D6B PUSH1 0xE0 DUP4 ADD DUP6 PUSH2 0x3F6A JUMP JUMPDEST DUP2 DUP2 SUB PUSH2 0x100 DUP4 ADD MSTORE PUSH2 0x5D7E DUP2 DUP5 PUSH2 0x401F JUMP JUMPDEST SWAP1 POP SWAP11 SWAP10 POP POP POP POP POP POP POP POP POP POP JUMP JUMPDEST PUSH0 PUSH1 0x40 DUP3 ADD SWAP1 POP PUSH2 0x5DA1 PUSH0 DUP4 ADD DUP6 PUSH2 0x40A7 JUMP JUMPDEST PUSH2 0x5DAE PUSH1 0x20 DUP4 ADD DUP5 PUSH2 0x3F6A JUMP JUMPDEST SWAP4 SWAP3 POP POP POP JUMP JUMPDEST PUSH0 DUP2 SWAP1 POP SWAP2 SWAP1 POP JUMP JUMPDEST PUSH0 PUSH2 0x5DD8 PUSH2 0x5DD3 PUSH2 0x5DCE DUP5 PUSH2 0x5DB5 JUMP JUMPDEST PUSH2 0x5098 JUMP JUMPDEST PUSH2 0x4741 JUMP JUMPDEST SWAP1 POP SWAP2 SWAP1 POP JUMP JUMPDEST PUSH2 0x5DE8 DUP2 PUSH2 0x5DBE JUMP JUMPDEST DUP3 MSTORE POP POP JUMP JUMPDEST PUSH0 PUSH1 0x40 DUP3 ADD SWAP1 POP PUSH2 0x5E01 PUSH0 DUP4 ADD DUP6 PUSH2 0x5DDF JUMP JUMPDEST PUSH2 0x5E0E PUSH1 0x20 DUP4 ADD DUP5 PUSH2 0x3F6A JUMP JUMPDEST SWAP4 SWAP3 POP POP POP JUMP JUMPDEST PUSH0 PUSH1 0x40 DUP3 ADD SWAP1 POP PUSH2 0x5E28 PUSH0 DUP4 ADD DUP6 PUSH2 0x461A JUMP JUMPDEST DUP2 DUP2 SUB PUSH1 0x20 DUP4 ADD MSTORE PUSH2 0x5E3A DUP2 DUP5 PUSH2 0x5AE6 JUMP JUMPDEST SWAP1 POP SWAP4 SWAP3 POP POP POP JUMP JUMPDEST PUSH0 DUP2 MLOAD SWAP1 POP PUSH2 0x5E51 DUP2 PUSH2 0x4538 JUMP JUMPDEST SWAP3 SWAP2 POP POP JUMP JUMPDEST PUSH0 PUSH1 0x20 DUP3 DUP5 SUB SLT ISZERO PUSH2 0x5E6C JUMPI PUSH2 0x5E6B PUSH2 0x3EA6 JUMP JUMPDEST JUMPDEST PUSH0 PUSH2 0x5E79 DUP5 DUP3 DUP6 ADD PUSH2 0x5E43 JUMP JUMPDEST SWAP2 POP POP SWAP3 SWAP2 POP POP JUMP JUMPDEST PUSH0 DUP2 SWAP1 POP SWAP2 SWAP1 POP JUMP JUMPDEST PUSH0 PUSH2 0x5EA5 PUSH2 0x5EA0 PUSH2 0x5E9B DUP5 PUSH2 0x5E82 JUMP JUMPDEST PUSH2 0x5098 JUMP JUMPDEST PUSH2 0x4741 JUMP JUMPDEST SWAP1 POP SWAP2 SWAP1 POP JUMP JUMPDEST PUSH2 0x5EB5 DUP2 PUSH2 0x5E8B JUMP JUMPDEST DUP3 MSTORE POP POP JUMP JUMPDEST PUSH0 PUSH1 0x40 DUP3 ADD SWAP1 POP PUSH2 0x5ECE PUSH0 DUP4 ADD DUP6 PUSH2 0x5EAC JUMP JUMPDEST PUSH2 0x5EDB PUSH1 0x20 DUP4 ADD DUP5 PUSH2 0x3F6A JUMP JUMPDEST SWAP4 SWAP3 POP POP POP JUMP JUMPDEST PUSH0 PUSH1 0xA0 DUP3 ADD SWAP1 POP PUSH2 0x5EF5 PUSH0 DUP4 ADD DUP9 PUSH2 0x461A JUMP JUMPDEST PUSH2 0x5F02 PUSH1 0x20 DUP4 ADD DUP8 PUSH2 0x461A JUMP JUMPDEST PUSH2 0x5F0F PUSH1 0x40 DUP4 ADD DUP7 PUSH2 0x461A JUMP JUMPDEST PUSH2 0x5F1C PUSH1 0x60 DUP4 ADD DUP6 PUSH2 0x3F6A JUMP JUMPDEST PUSH2 0x5F29 PUSH1 0x80 DUP4 ADD DUP5 PUSH2 0x40A7 JUMP JUMPDEST SWAP7 SWAP6 POP POP POP POP POP POP JUMP JUMPDEST PUSH0 PUSH1 0x80 DUP3 ADD SWAP1 POP PUSH2 0x5F46 PUSH0 DUP4 ADD DUP8 PUSH2 0x461A JUMP JUMPDEST PUSH2 0x5F53 PUSH1 0x20 DUP4 ADD DUP7 PUSH2 0x52E8 JUMP JUMPDEST PUSH2 0x5F60 PUSH1 0x40 DUP4 ADD DUP6 PUSH2 0x461A JUMP JUMPDEST PUSH2 0x5F6D PUSH1 0x60 DUP4 ADD DUP5 PUSH2 0x461A JUMP JUMPDEST SWAP6 SWAP5 POP POP POP POP POP JUMP INVALID LOG2 PUSH5 0x6970667358 0x22 SLT KECCAK256 0xEC NOT MULMOD DUP1 0xCA 0xBD BLOBBASEFEE DUP13 0xC3 XOR BASEFEE 0xBC PUSH12 0xF2090D3C60C85BCB09CC0690 AND DUP8 LOG0 ADDMOD 0xE6 0xAF DUP16 PUSH5 0x736F6C6343 STOP ADDMOD BYTE STOP CALLER "
		},
		"gasEstimates": {
			"creation": {
				"codeDepositCost": "4898400",
				"executionCost": "infinite",
				"totalCost": "infinite"
			},
			"external": {
				"BALLOT_TYPEHASH()": "391",
				"CLOCK_MODE()": "infinite",
				"COUNTING_MODE()": "infinite",
				"EXTENDED_BALLOT_TYPEHASH()": "459",
				"cancel(address[],uint256[],bytes[],bytes32)": "infinite",
				"castVote(uint256,uint8)": "infinite",
				"castVoteBySig(uint256,uint8,address,bytes)": "infinite",
				"castVoteWithReason(uint256,uint8,string)": "infinite",
				"castVoteWithReasonAndParams(uint256,uint8,string,bytes)": "infinite",
				"castVoteWithReasonAndParamsBySig(uint256,uint8,address,string,bytes,bytes)": "infinite",
				"clock()": "infinite",
				"eip712Domain()": "infinite",
				"execute(address[],uint256[],bytes[],bytes32)": "infinite",
				"getVotes(address,uint256)": "infinite",
				"getVotesWithParams(address,uint256,bytes)": "infinite",
				"hasVoted(uint256,address)": "3213",
				"hashProposal(address[],uint256[],bytes[],bytes32)": "infinite",
				"name()": "infinite",
				"nonces(address)": "2919",
				"onERC1155BatchReceived(address,address,uint256[],uint256[],bytes)": "infinite",
				"onERC1155Received(address,address,uint256,uint256,bytes)": "infinite",
				"onERC721Received(address,address,uint256,bytes)": "infinite",
				"proposalDeadline(uint256)": "infinite",
				"proposalEta(uint256)": "infinite",
				"proposalNeedsQueuing(uint256)": "724",
				"proposalProposer(uint256)": "2992",
				"proposalSnapshot(uint256)": "infinite",
				"proposalThreshold()": "369",
				"proposalVotes(uint256)": "infinite",
				"propose(address[],uint256[],bytes[],string)": "infinite",
				"queue(address[],uint256[],bytes[],bytes32)": "infinite",
				"quorum(uint256)": "infinite",
				"quorumDenominator()": "399",
				"quorumNumerator()": "infinite",
				"quorumNumerator(uint256)": "infinite",
				"relay(address,uint256,bytes)": "infinite",
				"state(uint256)": "infinite",
				"supportsInterface(bytes4)": "810",
				"token()": "infinite",
				"updateQuorumNumerator(uint256)": "infinite",
				"version()": "infinite",
				"votingDelay()": "378",
				"votingPeriod()": "401"
			}
		},
		"methodIdentifiers": {
			"BALLOT_TYPEHASH()": "deaaa7cc",
			"CLOCK_MODE()": "4bf5d7e9",
			"COUNTING_MODE()": "dd4e2ba5",
			"EXTENDED_BALLOT_TYPEHASH()": "2fe3e261",
			"cancel(address[],uint256[],bytes[],bytes32)": "452115d6",
			"castVote(uint256,uint8)": "56781388",
			"castVoteBySig(uint256,uint8,address,bytes)": "8ff262e3",
			"castVoteWithReason(uint256,uint8,string)": "7b3c71d3",
			"castVoteWithReasonAndParams(uint256,uint8,string,bytes)": "5f398a14",
			"castVoteWithReasonAndParamsBySig(uint256,uint8,address,string,bytes,bytes)": "5b8d0e0d",
			"clock()": "91ddadf4",
			"eip712Domain()": "84b0196e",
			"execute(address[],uint256[],bytes[],bytes32)": "2656227d",
			"getVotes(address,uint256)": "eb9019d4",
			"getVotesWithParams(address,uint256,bytes)": "9a802a6d",
			"hasVoted(uint256,address)": "43859632",
			"hashProposal(address[],uint256[],bytes[],bytes32)": "c59057e4",
			"name()": "06fdde03",
			"nonces(address)": "7ecebe00",
			"onERC1155BatchReceived(address,address,uint256[],uint256[],bytes)": "bc197c81",
			"onERC1155Received(address,address,uint256,uint256,bytes)": "f23a6e61",
			"onERC721Received(address,address,uint256,bytes)": "150b7a02",
			"proposalDeadline(uint256)": "c01f9e37",
			"proposalEta(uint256)": "ab58fb8e",
			"proposalNeedsQueuing(uint256)": "a9a95294",
			"proposalProposer(uint256)": "143489d0",
			"proposalSnapshot(uint256)": "2d63f693",
			"proposalThreshold()": "b58131b0",
			"proposalVotes(uint256)": "544ffc9c",
			"propose(address[],uint256[],bytes[],string)": "7d5e81e2",
			"queue(address[],uint256[],bytes[],bytes32)": "160cbed7",
			"quorum(uint256)": "f8ce560a",
			"quorumDenominator()": "97c3d334",
			"quorumNumerator()": "a7713a70",
			"quorumNumerator(uint256)": "60c4247f",
			"relay(address,uint256,bytes)": "c28bc2fa",
			"state(uint256)": "3e4f49e6",
			"supportsInterface(bytes4)": "01ffc9a7",
			"token()": "fc0c546a",
			"updateQuorumNumerator(uint256)": "06f3f9e6",
			"version()": "54fd4d50",
			"votingDelay()": "3932abb1",
			"votingPeriod()": "02a251a3"
		}
	},
	"abi": [
		{
			"inputs": [
				{
					"internalType": "address",
					"name": "tokenAddre",
					"type": "address"
				}
			],
			"stateMutability": "nonpayable",
			"type": "constructor"
		},
		{
			"inputs": [],
			"name": "CheckpointUnorderedInsertion",
			"type": "error"
		},
		{
			"inputs": [],
			"name": "FailedCall",
			"type": "error"
		},
		{
			"inputs": [
				{
					"internalType": "address",
					"name": "voter",
					"type": "address"
				}
			],
			"name": "GovernorAlreadyCastVote",
			"type": "error"
		},
		{
			"inputs": [
				{
					"internalType": "uint256",
					"name": "proposalId",
					"type": "uint256"
				}
			],
			"name": "GovernorAlreadyQueuedProposal",
			"type": "error"
		},
		{
			"inputs": [],
			"name": "GovernorDisabledDeposit",
			"type": "error"
		},
		{
			"inputs": [
				{
					"internalType": "address",
					"name": "proposer",
					"type": "address"
				},
				{
					"internalType": "uint256",
					"name": "votes",
					"type": "uint256"
				},
				{
					"internalType": "uint256",
					"name": "threshold",
					"type": "uint256"
				}
			],
			"name": "GovernorInsufficientProposerVotes",
			"type": "error"
		},
		{
			"inputs": [
				{
					"internalType": "uint256",
					"name": "targets",
					"type": "uint256"
				},
				{
					"internalType": "uint256",
					"name": "calldatas",
					"type": "uint256"
				},
				{
					"internalType": "uint256",
					"name": "values",
					"type": "uint256"
				}
			],
			"name": "GovernorInvalidProposalLength",
			"type": "error"
		},
		{
			"inputs": [
				{
					"internalType": "uint256",
					"name": "quorumNumerator",
					"type": "uint256"
				},
				{
					"internalType": "uint256",
					"name": "quorumDenominator",
					"type": "uint256"
				}
			],
			"name": "GovernorInvalidQuorumFraction",
			"type": "error"
		},
		{
			"inputs": [
				{
					"internalType": "address",
					"name": "voter",
					"type": "address"
				}
			],
			"name": "GovernorInvalidSignature",
			"type": "error"
		},
		{
			"inputs": [],
			"name": "GovernorInvalidVoteParams",
			"type": "error"
		},
		{
			"inputs": [],
			"name": "GovernorInvalidVoteType",
			"type": "error"
		},
		{
			"inputs": [
				{
					"internalType": "uint256",
					"name": "votingPeriod",
					"type": "uint256"
				}
			],
			"name": "GovernorInvalidVotingPeriod",
			"type": "error"
		},
		{
			"inputs": [
				{
					"internalType": "uint256",
					"name": "proposalId",
					"type": "uint256"
				}
			],
			"name": "GovernorNonexistentProposal",
			"type": "error"
		},
		{
			"inputs": [
				{
					"internalType": "uint256",
					"name": "proposalId",
					"type": "uint256"
				}
			],
			"name": "GovernorNotQueuedProposal",
			"type": "error"
		},
		{
			"inputs": [
				{
					"internalType": "address",
					"name": "account",
					"type": "address"
				}
			],
			"name": "GovernorOnlyExecutor",
			"type": "error"
		},
		{
			"inputs": [
				{
					"internalType": "address",
					"name": "account",
					"type": "address"
				}
			],
			"name": "GovernorOnlyProposer",
			"type": "error"
		},
		{
			"inputs": [],
			"name": "GovernorQueueNotImplemented",
			"type": "error"
		},
		{
			"inputs": [
				{
					"internalType": "address",
					"name": "proposer",
					"type": "address"
				}
			],
			"name": "GovernorRestrictedProposer",
			"type": "error"
		},
		{
			"inputs": [
				{
					"internalType": "uint256",
					"name": "proposalId",
					"type": "uint256"
				},
				{
					"internalType": "enum IGovernor.ProposalState",
					"name": "current",
					"type": "uint8"
				},
				{
					"internalType": "bytes32",
					"name": "expectedStates",
					"type": "bytes32"
				}
			],
			"name": "GovernorUnexpectedProposalState",
			"type": "error"
		},
		{
			"inputs": [
				{
					"internalType": "address",
					"name": "account",
					"type": "address"
				},
				{
					"internalType": "uint256",
					"name": "currentNonce",
					"type": "uint256"
				}
			],
			"name": "InvalidAccountNonce",
			"type": "error"
		},
		{
			"inputs": [],
			"name": "InvalidShortString",
			"type": "error"
		},
		{
			"inputs": [
				{
					"internalType": "uint8",
					"name": "bits",
					"type": "uint8"
				},
				{
					"internalType": "uint256",
					"name": "value",
					"type": "uint256"
				}
			],
			"name": "SafeCastOverflowedUintDowncast",
			"type": "error"
		},
		{
			"inputs": [
				{
					"internalType": "string",
					"name": "str",
					"type": "string"
				}
			],
			"name": "StringTooLong",
			"type": "error"
		},
		{
			"anonymous": false,
			"inputs": [],
			"name": "EIP712DomainChanged",
			"type": "event"
		},
		{
			"anonymous": false,
			"inputs": [
				{
					"indexed": false,
					"internalType": "uint256",
					"name": "proposalId",
					"type": "uint256"
				}
			],
			"name": "ProposalCanceled",
			"type": "event"
		},
		{
			"anonymous": false,
			"inputs": [
				{
					"indexed": false,
					"internalType": "uint256",
					"name": "proposalId",
					"type": "uint256"
				},
				{
					"indexed": false,
					"internalType": "address",
					"name": "proposer",
					"type": "address"
				},
				{
					"indexed": false,
					"internalType": "address[]",
					"name": "targets",
					"type": "address[]"
				},
				{
					"indexed": false,
					"internalType": "uint256[]",
					"name": "values",
					"type": "uint256[]"
				},
				{
					"indexed": false,
					"internalType": "string[]",
					"name": "signatures",
					"type": "string[]"
				},
				{
					"indexed": false,
					"internalType": "bytes[]",
					"name": "calldatas",
					"type": "bytes[]"
				},
				{
					"indexed": false,
					"internalType": "uint256",
					"name": "voteStart",
					"type": "uint256"
				},
				{
					"indexed": false,
					"internalType": "uint256",
					"name": "voteEnd",
					"type": "uint256"
				},
				{
					"indexed": false,
					"internalType": "string",
					"name": "description",
					"type": "string"
				}
			],
			"name": "ProposalCreated",
			"type": "event"
		},
		{
			"anonymous": false,
			"inputs": [
				{
					"indexed": false,
					"internalType": "uint256",
					"name": "proposalId",
					"type": "uint256"
				}
			],
			"name": "ProposalExecuted",
			"type": "event"
		},
		{
			"anonymous": false,
			"inputs": [
				{
					"indexed": false,
					"internalType": "uint256",
					"name": "proposalId",
					"type": "uint256"
				},
				{
					"indexed": false,
					"internalType": "uint256",
					"name": "etaSeconds",
					"type": "uint256"
				}
			],
			"name": "ProposalQueued",
			"type": "event"
		},
		{
			"anonymous": false,
			"inputs": [
				{
					"indexed": false,
					"internalType": "uint256",
					"name": "oldQuorumNumerator",
					"type": "uint256"
				},
				{
					"indexed": false,
					"internalType": "uint256",
					"name": "newQuorumNumerator",
					"type": "uint256"
				}
			],
			"name": "QuorumNumeratorUpdated",
			"type": "event"
		},
		{
			"anonymous": false,
			"inputs": [
				{
					"indexed": true,
					"internalType": "address",
					"name": "voter",
					"type": "address"
				},
				{
					"indexed": false,
					"internalType": "uint256",
					"name": "proposalId",
					"type": "uint256"
				},
				{
					"indexed": false,
					"internalType": "uint8",
					"name": "support",
					"type": "uint8"
				},
				{
					"indexed": false,
					"internalType": "uint256",
					"name": "weight",
					"type": "uint256"
				},
				{
					"indexed": false,
					"internalType": "string",
					"name": "reason",
					"type": "string"
				}
			],
			"name": "VoteCast",
			"type": "event"
		},
		{
			"anonymous": false,
			"inputs": [
				{
					"indexed": true,
					"internalType": "address",
					"name": "voter",
					"type": "address"
				},
				{
					"indexed": false,
					"internalType": "uint256",
					"name": "proposalId",
					"type": "uint256"
				},
				{
					"indexed": false,
					"internalType": "uint8",
					"name": "support",
					"type": "uint8"
				},
				{
					"indexed": false,
					"internalType": "uint256",
					"name": "weight",
					"type": "uint256"
				},
				{
					"indexed": false,
					"internalType": "string",
					"name": "reason",
					"type": "string"
				},
				{
					"indexed": false,
					"internalType": "bytes",
					"name": "params",
					"type": "bytes"
				}
			],
			"name": "VoteCastWithParams",
			"type": "event"
		},
		{
			"inputs": [],
			"name": "BALLOT_TYPEHASH",
			"outputs": [
				{
					"internalType": "bytes32",
					"name": "",
					"type": "bytes32"
				}
			],
			"stateMutability": "view",
			"type": "function"
		},
		{
			"inputs": [],
			"name": "CLOCK_MODE",
			"outputs": [
				{
					"internalType": "string",
					"name": "",
					"type": "string"
				}
			],
			"stateMutability": "view",
			"type": "function"
		},
		{
			"inputs": [],
			"name": "COUNTING_MODE",
			"outputs": [
				{
					"internalType": "string",
					"name": "",
					"type": "string"
				}
			],
			"stateMutability": "pure",
			"type": "function"
		},
		{
			"inputs": [],
			"name": "EXTENDED_BALLOT_TYPEHASH",
			"outputs": [
				{
					"internalType": "bytes32",
					"name": "",
					"type": "bytes32"
				}
			],
			"stateMutability": "view",
			"type": "function"
		},
		{
			"inputs": [
				{
					"internalType": "address[]",
					"name": "targets",
					"type": "address[]"
				},
				{
					"internalType": "uint256[]",
					"name": "values",
					"type": "uint256[]"
				},
				{
					"internalType": "bytes[]",
					"name": "calldatas",
					"type": "bytes[]"
				},
				{
					"internalType": "bytes32",
					"name": "descriptionHash",
					"type": "bytes32"
				}
			],
			"name": "cancel",
			"outputs": [
				{
					"internalType": "uint256",
					"name": "",
					"type": "uint256"
				}
			],
			"stateMutability": "nonpayable",
			"type": "function"
		},
		{
			"inputs": [
				{
					"internalType": "uint256",
					"name": "proposalId",
					"type": "uint256"
				},
				{
					"internalType": "uint8",
					"name": "support",
					"type": "uint8"
				}
			],
			"name": "castVote",
			"outputs": [
				{
					"internalType": "uint256",
					"name": "",
					"type": "uint256"
				}
			],
			"stateMutability": "nonpayable",
			"type": "function"
		},
		{
			"inputs": [
				{
					"internalType": "uint256",
					"name": "proposalId",
					"type": "uint256"
				},
				{
					"internalType": "uint8",
					"name": "support",
					"type": "uint8"
				},
				{
					"internalType": "address",
					"name": "voter",
					"type": "address"
				},
				{
					"internalType": "bytes",
					"name": "signature",
					"type": "bytes"
				}
			],
			"name": "castVoteBySig",
			"outputs": [
				{
					"internalType": "uint256",
					"name": "",
					"type": "uint256"
				}
			],
			"stateMutability": "nonpayable",
			"type": "function"
		},
		{
			"inputs": [
				{
					"internalType": "uint256",
					"name": "proposalId",
					"type": "uint256"
				},
				{
					"internalType": "uint8",
					"name": "support",
					"type": "uint8"
				},
				{
					"internalType": "string",
					"name": "reason",
					"type": "string"
				}
			],
			"name": "castVoteWithReason",
			"outputs": [
				{
					"internalType": "uint256",
					"name": "",
					"type": "uint256"
				}
			],
			"stateMutability": "nonpayable",
			"type": "function"
		},
		{
			"inputs": [
				{
					"internalType": "uint256",
					"name": "proposalId",
					"type": "uint256"
				},
				{
					"internalType": "uint8",
					"name": "support",
					"type": "uint8"
				},
				{
					"internalType": "string",
					"name": "reason",
					"type": "string"
				},
				{
					"internalType": "bytes",
					"name": "params",
					"type": "bytes"
				}
			],
			"name": "castVoteWithReasonAndParams",
			"outputs": [
				{
					"internalType": "uint256",
					"name": "",
					"type": "uint256"
				}
			],
			"stateMutability": "nonpayable",
			"type": "function"
		},
		{
			"inputs": [
				{
					"internalType": "uint256",
					"name": "proposalId",
					"type": "uint256"
				},
				{
					"internalType": "uint8",
					"name": "support",
					"type": "uint8"
				},
				{
					"internalType": "address",
					"name": "voter",
					"type": "address"
				},
				{
					"internalType": "string",
					"name": "reason",
					"type": "string"
				},
				{
					"internalType": "bytes",
					"name": "params",
					"type": "bytes"
				},
				{
					"internalType": "bytes",
					"name": "signature",
					"type": "bytes"
				}
			],
			"name": "castVoteWithReasonAndParamsBySig",
			"outputs": [
				{
					"internalType": "uint256",
					"name": "",
					"type": "uint256"
				}
			],
			"stateMutability": "nonpayable",
			"type": "function"
		},
		{
			"inputs": [],
			"name": "clock",
			"outputs": [
				{
					"internalType": "uint48",
					"name": "",
					"type": "uint48"
				}
			],
			"stateMutability": "view",
			"type": "function"
		},
		{
			"inputs": [],
			"name": "eip712Domain",
			"outputs": [
				{
					"internalType": "bytes1",
					"name": "fields",
					"type": "bytes1"
				},
				{
					"internalType": "string",
					"name": "name",
					"type": "string"
				},
				{
					"internalType": "string",
					"name": "version",
					"type": "string"
				},
				{
					"internalType": "uint256",
					"name": "chainId",
					"type": "uint256"
				},
				{
					"internalType": "address",
					"name": "verifyingContract",
					"type": "address"
				},
				{
					"internalType": "bytes32",
					"name": "salt",
					"type": "bytes32"
				},
				{
					"internalType": "uint256[]",
					"name": "extensions",
					"type": "uint256[]"
				}
			],
			"stateMutability": "view",
			"type": "function"
		},
		{
			"inputs": [
				{
					"internalType": "address[]",
					"name": "targets",
					"type": "address[]"
				},
				{
					"internalType": "uint256[]",
					"name": "values",
					"type": "uint256[]"
				},
				{
					"internalType": "bytes[]",
					"name": "calldatas",
					"type": "bytes[]"
				},
				{
					"internalType": "bytes32",
					"name": "descriptionHash",
					"type": "bytes32"
				}
			],
			"name": "execute",
			"outputs": [
				{
					"internalType": "uint256",
					"name": "",
					"type": "uint256"
				}
			],
			"stateMutability": "payable",
			"type": "function"
		},
		{
			"inputs": [
				{
					"internalType": "address",
					"name": "account",
					"type": "address"
				},
				{
					"internalType": "uint256",
					"name": "timepoint",
					"type": "uint256"
				}
			],
			"name": "getVotes",
			"outputs": [
				{
					"internalType": "uint256",
					"name": "",
					"type": "uint256"
				}
			],
			"stateMutability": "view",
			"type": "function"
		},
		{
			"inputs": [
				{
					"internalType": "address",
					"name": "account",
					"type": "address"
				},
				{
					"internalType": "uint256",
					"name": "timepoint",
					"type": "uint256"
				},
				{
					"internalType": "bytes",
					"name": "params",
					"type": "bytes"
				}
			],
			"name": "getVotesWithParams",
			"outputs": [
				{
					"internalType": "uint256",
					"name": "",
					"type": "uint256"
				}
			],
			"stateMutability": "view",
			"type": "function"
		},
		{
			"inputs": [
				{
					"internalType": "uint256",
					"name": "proposalId",
					"type": "uint256"
				},
				{
					"internalType": "address",
					"name": "account",
					"type": "address"
				}
			],
			"name": "hasVoted",
			"outputs": [
				{
					"internalType": "bool",
					"name": "",
					"type": "bool"
				}
			],
			"stateMutability": "view",
			"type": "function"
		},
		{
			"inputs": [
				{
					"internalType": "address[]",
					"name": "targets",
					"type": "address[]"
				},
				{
					"internalType": "uint256[]",
					"name": "values",
					"type": "uint256[]"
				},
				{
					"internalType": "bytes[]",
					"name": "calldatas",
					"type": "bytes[]"
				},
				{
					"internalType": "bytes32",
					"name": "descriptionHash",
					"type": "bytes32"
				}
			],
			"name": "hashProposal",
			"outputs": [
				{
					"internalType": "uint256",
					"name": "",
					"type": "uint256"
				}
			],
			"stateMutability": "pure",
			"type": "function"
		},
		{
			"inputs": [],
			"name": "name",
			"outputs": [
				{
					"internalType": "string",
					"name": "",
					"type": "string"
				}
			],
			"stateMutability": "view",
			"type": "function"
		},
		{
			"inputs": [
				{
					"internalType": "address",
					"name": "owner",
					"type": "address"
				}
			],
			"name": "nonces",
			"outputs": [
				{
					"internalType": "uint256",
					"name": "",
					"type": "uint256"
				}
			],
			"stateMutability": "view",
			"type": "function"
		},
		{
			"inputs": [
				{
					"internalType": "address",
					"name": "",
					"type": "address"
				},
				{
					"internalType": "address",
					"name": "",
					"type": "address"
				},
				{
					"internalType": "uint256[]",
					"name": "",
					"type": "uint256[]"
				},
				{
					"internalType": "uint256[]",
					"name": "",
					"type": "uint256[]"
				},
				{
					"internalType": "bytes",
					"name": "",
					"type": "bytes"
				}
			],
			"name": "onERC1155BatchReceived",
			"outputs": [
				{
					"internalType": "bytes4",
					"name": "",
					"type": "bytes4"
				}
			],
			"stateMutability": "nonpayable",
			"type": "function"
		},
		{
			"inputs": [
				{
					"internalType": "address",
					"name": "",
					"type": "address"
				},
				{
					"internalType": "address",
					"name": "",
					"type": "address"
				},
				{
					"internalType": "uint256",
					"name": "",
					"type": "uint256"
				},
				{
					"internalType": "uint256",
					"name": "",
					"type": "uint256"
				},
				{
					"internalType": "bytes",
					"name": "",
					"type": "bytes"
				}
			],
			"name": "onERC1155Received",
			"outputs": [
				{
					"internalType": "bytes4",
					"name": "",
					"type": "bytes4"
				}
			],
			"stateMutability": "nonpayable",
			"type": "function"
		},
		{
			"inputs": [
				{
					"internalType": "address",
					"name": "",
					"type": "address"
				},
				{
					"internalType": "address",
					"name": "",
					"type": "address"
				},
				{
					"internalType": "uint256",
					"name": "",
					"type": "uint256"
				},
				{
					"internalType": "bytes",
					"name": "",
					"type": "bytes"
				}
			],
			"name": "onERC721Received",
			"outputs": [
				{
					"internalType": "bytes4",
					"name": "",
					"type": "bytes4"
				}
			],
			"stateMutability": "nonpayable",
			"type": "function"
		},
		{
			"inputs": [
				{
					"internalType": "uint256",
					"name": "proposalId",
					"type": "uint256"
				}
			],
			"name": "proposalDeadline",
			"outputs": [
				{
					"internalType": "uint256",
					"name": "",
					"type": "uint256"
				}
			],
			"stateMutability": "view",
			"type": "function"
		},
		{
			"inputs": [
				{
					"internalType": "uint256",
					"name": "proposalId",
					"type": "uint256"
				}
			],
			"name": "proposalEta",
			"outputs": [
				{
					"internalType": "uint256",
					"name": "",
					"type": "uint256"
				}
			],
			"stateMutability": "view",
			"type": "function"
		},
		{
			"inputs": [
				{
					"internalType": "uint256",
					"name": "",
					"type": "uint256"
				}
			],
			"name": "proposalNeedsQueuing",
			"outputs": [
				{
					"internalType": "bool",
					"name": "",
					"type": "bool"
				}
			],
			"stateMutability": "view",
			"type": "function"
		},
		{
			"inputs": [
				{
					"internalType": "uint256",
					"name": "proposalId",
					"type": "uint256"
				}
			],
			"name": "proposalProposer",
			"outputs": [
				{
					"internalType": "address",
					"name": "",
					"type": "address"
				}
			],
			"stateMutability": "view",
			"type": "function"
		},
		{
			"inputs": [
				{
					"internalType": "uint256",
					"name": "proposalId",
					"type": "uint256"
				}
			],
			"name": "proposalSnapshot",
			"outputs": [
				{
					"internalType": "uint256",
					"name": "",
					"type": "uint256"
				}
			],
			"stateMutability": "view",
			"type": "function"
		},
		{
			"inputs": [],
			"name": "proposalThreshold",
			"outputs": [
				{
					"internalType": "uint256",
					"name": "",
					"type": "uint256"
				}
			],
			"stateMutability": "view",
			"type": "function"
		},
		{
			"inputs": [
				{
					"internalType": "uint256",
					"name": "proposalId",
					"type": "uint256"
				}
			],
			"name": "proposalVotes",
			"outputs": [
				{
					"internalType": "uint256",
					"name": "againstVotes",
					"type": "uint256"
				},
				{
					"internalType": "uint256",
					"name": "forVotes",
					"type": "uint256"
				},
				{
					"internalType": "uint256",
					"name": "abstainVotes",
					"type": "uint256"
				}
			],
			"stateMutability": "view",
			"type": "function"
		},
		{
			"inputs": [
				{
					"internalType": "address[]",
					"name": "targets",
					"type": "address[]"
				},
				{
					"internalType": "uint256[]",
					"name": "values",
					"type": "uint256[]"
				},
				{
					"internalType": "bytes[]",
					"name": "calldatas",
					"type": "bytes[]"
				},
				{
					"internalType": "string",
					"name": "description",
					"type": "string"
				}
			],
			"name": "propose",
			"outputs": [
				{
					"internalType": "uint256",
					"name": "",
					"type": "uint256"
				}
			],
			"stateMutability": "nonpayable",
			"type": "function"
		},
		{
			"inputs": [
				{
					"internalType": "address[]",
					"name": "targets",
					"type": "address[]"
				},
				{
					"internalType": "uint256[]",
					"name": "values",
					"type": "uint256[]"
				},
				{
					"internalType": "bytes[]",
					"name": "calldatas",
					"type": "bytes[]"
				},
				{
					"internalType": "bytes32",
					"name": "descriptionHash",
					"type": "bytes32"
				}
			],
			"name": "queue",
			"outputs": [
				{
					"internalType": "uint256",
					"name": "",
					"type": "uint256"
				}
			],
			"stateMutability": "nonpayable",
			"type": "function"
		},
		{
			"inputs": [
				{
					"internalType": "uint256",
					"name": "timepoint",
					"type": "uint256"
				}
			],
			"name": "quorum",
			"outputs": [
				{
					"internalType": "uint256",
					"name": "",
					"type": "uint256"
				}
			],
			"stateMutability": "view",
			"type": "function"
		},
		{
			"inputs": [],
			"name": "quorumDenominator",
			"outputs": [
				{
					"internalType": "uint256",
					"name": "",
					"type": "uint256"
				}
			],
			"stateMutability": "view",
			"type": "function"
		},
		{
			"inputs": [
				{
					"internalType": "uint256",
					"name": "timepoint",
					"type": "uint256"
				}
			],
			"name": "quorumNumerator",
			"outputs": [
				{
					"internalType": "uint256",
					"name": "",
					"type": "uint256"
				}
			],
			"stateMutability": "view",
			"type": "function"
		},
		{
			"inputs": [],
			"name": "quorumNumerator",
			"outputs": [
				{
					"internalType": "uint256",
					"name": "",
					"type": "uint256"
				}
			],
			"stateMutability": "view",
			"type": "function"
		},
		{
			"inputs": [
				{
					"internalType": "address",
					"name": "target",
					"type": "address"
				},
				{
					"internalType": "uint256",
					"name": "value",
					"type": "uint256"
				},
				{
					"internalType": "bytes",
					"name": "data",
					"type": "bytes"
				}
			],
			"name": "relay",
			"outputs": [],
			"stateMutability": "payable",
			"type": "function"
		},
		{
			"inputs": [
				{
					"internalType": "uint256",
					"name": "proposalId",
					"type": "uint256"
				}
			],
			"name": "state",
			"outputs": [
				{
					"internalType": "enum IGovernor.ProposalState",
					"name": "",
					"type": "uint8"
				}
			],
			"stateMutability": "view",
			"type": "function"
		},
		{
			"inputs": [
				{
					"internalType": "bytes4",
					"name": "interfaceId",
					"type": "bytes4"
				}
			],
			"name": "supportsInterface",
			"outputs": [
				{
					"internalType": "bool",
					"name": "",
					"type": "bool"
				}
			],
			"stateMutability": "view",
			"type": "function"
		},
		{
			"inputs": [],
			"name": "token",
			"outputs": [
				{
					"internalType": "contract IERC5805",
					"name": "",
					"type": "address"
				}
			],
			"stateMutability": "view",
			"type": "function"
		},
		{
			"inputs": [
				{
					"internalType": "uint256",
					"name": "newQuorumNumerator",
					"type": "uint256"
				}
			],
			"name": "updateQuorumNumerator",
			"outputs": [],
			"stateMutability": "nonpayable",
			"type": "function"
		},
		{
			"inputs": [],
			"name": "version",
			"outputs": [
				{
					"internalType": "string",
					"name": "",
					"type": "string"
				}
			],
			"stateMutability": "view",
			"type": "function"
		},
		{
			"inputs": [],
			"name": "votingDelay",
			"outputs": [
				{
					"internalType": "uint256",
					"name": "",
					"type": "uint256"
				}
			],
			"stateMutability": "view",
			"type": "function"
		},
		{
			"inputs": [],
			"name": "votingPeriod",
			"outputs": [
				{
					"internalType": "uint256",
					"name": "",
					"type": "uint256"
				}
			],
			"stateMutability": "view",
			"type": "function"
		},
		{
			"stateMutability": "payable",
			"type": "receive"
		}
	]
}