{
	"data": {
		"bytecode": {
			"linkReferences": {},
			"object": "608060405234801561000f575f80fd5b506040518060800160405280600b60ff168152602001601660ff168152602001602160ff168152602001602c60ff168152505f9060046100509291906100a5565b506040518060600160405280606f61ffff16815260200160de61ffff16815260200161014d61ffff16815250600190600361008c9291906100f5565b505f805490506004819055506003600581905550610156565b828054828255905f5260205f209081019282156100e4579160200282015b828111156100e3578251829060ff169055916020019190600101906100c3565b5b5090506100f1919061013b565b5090565b826003810192821561012a579160200282015b82811115610129578251829061ffff16905591602001919060010190610108565b5b509050610137919061013b565b5090565b5b80821115610152575f815f90555060010161013c565b5090565b610dce806101635f395ff3fe608060405234801561000f575f80fd5b50600436106100b2575f3560e01c8063cc84e4b91161006f578063cc84e4b9146101a0578063d12c412d146101be578063e9395679146101dc578063f00861f81461020c578063fc430d5c1461022a578063ff74927b1461025a576100b2565b806326028a06146100b657806355f45e26146100d45780638e9b3e89146100f257806391d6df7d14610122578063966fa99214610152578063a214a93b14610182575b5f80fd5b6100be61028a565b6040516100cb91906108ec565b60405180910390f35b6100dc610290565b6040516100e99190610975565b60405180910390f35b61010c600480360381019061010791906109d0565b610328565b60405161011991906108ec565b60405180910390f35b61013c600480360381019061013791906109d0565b610347565b6040516101499190610975565b60405180910390f35b61016c600480360381019061016791906109d0565b61049b565b60405161017991906108ec565b60405180910390f35b61018a6104b4565b6040516101979190610975565b60405180910390f35b6101a8610546565b6040516101b591906108ec565b60405180910390f35b6101c661054c565b6040516101d391906108ec565b60405180910390f35b6101f660048036038101906101f191906109d0565b610558565b6040516102039190610975565b60405180910390f35b6102146105e5565b60405161022191906108ec565b60405180910390f35b610244600480360381019061023f91906109d0565b610732565b60405161025191906108ec565b60405180910390f35b610274600480360381019061026f9190610b27565b610752565b6040516102819190610975565b60405180910390f35b60045481565b60605f600454905060605f5b8281101561031f576102d1826102cc5f84815481106102be576102bd610b9d565b5b905f5260205f200154610558565b610752565b9150610312826040518060400160405280600281526020017f2020000000000000000000000000000000000000000000000000000000000000815250610752565b915080600101905061029c565b50809250505090565b5f8181548110610336575f80fd5b905f5260205f20015f915090505481565b60605f6040518060400160405280601081526020017f303132333435363738396162636465660000000000000000000000000000000081525090505f836040516020016103949190610bea565b60405160208183030381529060405290505f600167ffffffffffffffff8111156103c1576103c0610a03565b5b6040519080825280601f01601f1916602001820160405280156103f35781602001600182028036833780820191505090505b5090505f600183516104059190610c31565b905083600f60f81b8483815181106104205761041f610b9d565b5b602001015160f81c60f81b1660f81c60ff168151811061044357610442610b9d565b5b602001015160f81c60f81b825f8151811061046157610460610b9d565b5b60200101907effffffffffffffffffffffffffffffffffffffffffffffffffffffffffffff191690815f1a90535081945050505050919050565b600181600381106104aa575f80fd5b015f915090505481565b60605f600554905060605f5b8281101561053d576104ef826104ea600184600381106104e3576104e2610b9d565b5b0154610558565b610752565b9150610530826040518060400160405280600281526020017f2020000000000000000000000000000000000000000000000000000000000000815250610752565b91508060010190506104c0565b50809250505090565b60055481565b5f600680549050905090565b60605f820361059e576040518060400160405280600181526020017f300000000000000000000000000000000000000000000000000000000000000081525090506105e0565b5b5f82146105df575f600a836105b49190610c91565b9050600a836105c39190610cc1565b92506105d76105d182610347565b83610752565b91505061059f565b5b919050565b5f604d5f6002815481106105fc576105fb610b9d565b5b905f5260205f2001819055505f6058908060018154018082558091505060019003905f5260205f20015f90919091909150555f6063908060018154018082558091505060019003905f5260205f20015f90919091909150555f808060018154018082558091505060019003905f5260205f20015f90919091909150555f80548061068957610688610cf1565b5b600190038181905f5260205f20015f905590555f80815481106106af576106ae610b9d565b5b905f5260205f20015f9055600180600381106106ce576106cd610b9d565b5b015f90556103785f80815481106106e8576106e7610b9d565b5b905f5260205f20018190555061270f6001806003811061070b5761070a610b9d565b5b01819055505f808054905090505f8054905060048190555060036005819055508091505090565b60068181548110610741575f80fd5b905f5260205f20015f915090505481565b60605f8390505f8390505f8151835161076b9190610d1e565b67ffffffffffffffff81111561078457610783610a03565b5b6040519080825280601f01601f1916602001820160405280156107b65781602001600182028036833780820191505090505b5090505f8190505f805b8551811015610841578581815181106107dc576107db610b9d565b5b602001015160f81c60f81b8383806107f390610d51565b94508151811061080657610805610b9d565b5b60200101907effffffffffffffffffffffffffffffffffffffffffffffffffffffffffffff191690815f1a90535080806001019150506107c0565b505f5b84518110156108c5578481815181106108605761085f610b9d565b5b602001015160f81c60f81b83838061087790610d51565b94508151811061088a57610889610b9d565b5b60200101907effffffffffffffffffffffffffffffffffffffffffffffffffffffffffffff191690815f1a9053508080600101915050610844565b50829550505050505092915050565b5f819050919050565b6108e6816108d4565b82525050565b5f6020820190506108ff5f8301846108dd565b92915050565b5f81519050919050565b5f82825260208201905092915050565b8281835e5f83830152505050565b5f601f19601f8301169050919050565b5f61094782610905565b610951818561090f565b935061096181856020860161091f565b61096a8161092d565b840191505092915050565b5f6020820190508181035f83015261098d818461093d565b905092915050565b5f604051905090565b5f80fd5b5f80fd5b6109af816108d4565b81146109b9575f80fd5b50565b5f813590506109ca816109a6565b92915050565b5f602082840312156109e5576109e461099e565b5b5f6109f2848285016109bc565b91505092915050565b5f80fd5b5f80fd5b7f4e487b71000000000000000000000000000000000000000000000000000000005f52604160045260245ffd5b610a398261092d565b810181811067ffffffffffffffff82111715610a5857610a57610a03565b5b80604052505050565b5f610a6a610995565b9050610a768282610a30565b919050565b5f67ffffffffffffffff821115610a9557610a94610a03565b5b610a9e8261092d565b9050602081019050919050565b828183375f83830152505050565b5f610acb610ac684610a7b565b610a61565b905082815260208101848484011115610ae757610ae66109ff565b5b610af2848285610aab565b509392505050565b5f82601f830112610b0e57610b0d6109fb565b5b8135610b1e848260208601610ab9565b91505092915050565b5f8060408385031215610b3d57610b3c61099e565b5b5f83013567ffffffffffffffff811115610b5a57610b596109a2565b5b610b6685828601610afa565b925050602083013567ffffffffffffffff811115610b8757610b866109a2565b5b610b9385828601610afa565b9150509250929050565b7f4e487b71000000000000000000000000000000000000000000000000000000005f52603260045260245ffd5b5f819050919050565b610be4610bdf826108d4565b610bca565b82525050565b5f610bf58284610bd3565b60208201915081905092915050565b7f4e487b71000000000000000000000000000000000000000000000000000000005f52601160045260245ffd5b5f610c3b826108d4565b9150610c46836108d4565b9250828203905081811115610c5e57610c5d610c04565b5b92915050565b7f4e487b71000000000000000000000000000000000000000000000000000000005f52601260045260245ffd5b5f610c9b826108d4565b9150610ca6836108d4565b925082610cb657610cb5610c64565b5b828206905092915050565b5f610ccb826108d4565b9150610cd6836108d4565b925082610ce657610ce5610c64565b5b828204905092915050565b7f4e487b71000000000000000000000000000000000000000000000000000000005f52603160045260245ffd5b5f610d28826108d4565b9150610d33836108d4565b9250828201905080821115610d4b57610d4a610c04565b5b92915050565b5f610d5b826108d4565b91507fffffffffffffffffffffffffffffffffffffffffffffffffffffffffffffffff8203610d8d57610d8c610c04565b5b60018201905091905056fea2646970667358221220b90b5febcc298fe6036654699c1de17bd9f35f9eb0c01c58b05bd9157dd1a24164736f6c634300081a0033",
			"opcodes": "PUSH1 0x80 PUSH1 0x40 MSTORE CALLVALUE DUP1 ISZERO PUSH2 0xF JUMPI PUSH0 DUP1 REVERT JUMPDEST POP PUSH1 0x40 MLOAD DUP1 PUSH1 0x80 ADD PUSH1 0x40 MSTORE DUP1 PUSH1 0xB PUSH1 0xFF AND DUP2 MSTORE PUSH1 0x20 ADD PUSH1 0x16 PUSH1 0xFF AND DUP2 MSTORE PUSH1 0x20 ADD PUSH1 0x21 PUSH1 0xFF AND DUP2 MSTORE PUSH1 0x20 ADD PUSH1 0x2C PUSH1 0xFF AND DUP2 MSTORE POP PUSH0 SWAP1 PUSH1 0x4 PUSH2 0x50 SWAP3 SWAP2 SWAP1 PUSH2 0xA5 JUMP JUMPDEST POP PUSH1 0x40 MLOAD DUP1 PUSH1 0x60 ADD PUSH1 0x40 MSTORE DUP1 PUSH1 0x6F PUSH2 0xFFFF AND DUP2 MSTORE PUSH1 0x20 ADD PUSH1 0xDE PUSH2 0xFFFF AND DUP2 MSTORE PUSH1 0x20 ADD PUSH2 0x14D PUSH2 0xFFFF AND DUP2 MSTORE POP PUSH1 0x1 SWAP1 PUSH1 0x3 PUSH2 0x8C SWAP3 SWAP2 SWAP1 PUSH2 0xF5 JUMP JUMPDEST POP PUSH0 DUP1 SLOAD SWAP1 POP PUSH1 0x4 DUP2 SWAP1 SSTORE POP PUSH1 0x3 PUSH1 0x5 DUP2 SWAP1 SSTORE POP PUSH2 0x156 JUMP JUMPDEST DUP3 DUP1 SLOAD DUP3 DUP3 SSTORE SWAP1 PUSH0 MSTORE PUSH1 0x20 PUSH0 KECCAK256 SWAP1 DUP2 ADD SWAP3 DUP3 ISZERO PUSH2 0xE4 JUMPI SWAP2 PUSH1 0x20 MUL DUP3 ADD JUMPDEST DUP3 DUP2 GT ISZERO PUSH2 0xE3 JUMPI DUP3 MLOAD DUP3 SWAP1 PUSH1 0xFF AND SWAP1 SSTORE SWAP2 PUSH1 0x20 ADD SWAP2 SWAP1 PUSH1 0x1 ADD SWAP1 PUSH2 0xC3 JUMP JUMPDEST JUMPDEST POP SWAP1 POP PUSH2 0xF1 SWAP2 SWAP1 PUSH2 0x13B JUMP JUMPDEST POP SWAP1 JUMP JUMPDEST DUP3 PUSH1 0x3 DUP2 ADD SWAP3 DUP3 ISZERO PUSH2 0x12A JUMPI SWAP2 PUSH1 0x20 MUL DUP3 ADD JUMPDEST DUP3 DUP2 GT ISZERO PUSH2 0x129 JUMPI DUP3 MLOAD DUP3 SWAP1 PUSH2 0xFFFF AND SWAP1 SSTORE SWAP2 PUSH1 0x20 ADD SWAP2 SWAP1 PUSH1 0x1 ADD SWAP1 PUSH2 0x108 JUMP JUMPDEST JUMPDEST POP SWAP1 POP PUSH2 0x137 SWAP2 SWAP1 PUSH2 0x13B JUMP JUMPDEST POP SWAP1 JUMP JUMPDEST JUMPDEST DUP1 DUP3 GT ISZERO PUSH2 0x152 JUMPI PUSH0 DUP2 PUSH0 SWAP1 SSTORE POP PUSH1 0x1 ADD PUSH2 0x13C JUMP JUMPDEST POP SWAP1 JUMP JUMPDEST PUSH2 0xDCE DUP1 PUSH2 0x163 PUSH0 CODECOPY PUSH0 RETURN INVALID PUSH1 0x80 PUSH1 0x40 MSTORE CALLVALUE DUP1 ISZERO PUSH2 0xF JUMPI PUSH0 DUP1 REVERT JUMPDEST POP PUSH1 0x4 CALLDATASIZE LT PUSH2 0xB2 JUMPI PUSH0 CALLDATALOAD PUSH1 0xE0 SHR DUP1 PUSH4 0xCC84E4B9 GT PUSH2 0x6F JUMPI DUP1 PUSH4 0xCC84E4B9 EQ PUSH2 0x1A0 JUMPI DUP1 PUSH4 0xD12C412D EQ PUSH2 0x1BE JUMPI DUP1 PUSH4 0xE9395679 EQ PUSH2 0x1DC JUMPI DUP1 PUSH4 0xF00861F8 EQ PUSH2 0x20C JUMPI DUP1 PUSH4 0xFC430D5C EQ PUSH2 0x22A JUMPI DUP1 PUSH4 0xFF74927B EQ PUSH2 0x25A JUMPI PUSH2 0xB2 JUMP JUMPDEST DUP1 PUSH4 0x26028A06 EQ PUSH2 0xB6 JUMPI DUP1 PUSH4 0x55F45E26 EQ PUSH2 0xD4 JUMPI DUP1 PUSH4 0x8E9B3E89 EQ PUSH2 0xF2 JUMPI DUP1 PUSH4 0x91D6DF7D EQ PUSH2 0x122 JUMPI DUP1 PUSH4 0x966FA992 EQ PUSH2 0x152 JUMPI DUP1 PUSH4 0xA214A93B EQ PUSH2 0x182 JUMPI JUMPDEST PUSH0 DUP1 REVERT JUMPDEST PUSH2 0xBE PUSH2 0x28A JUMP JUMPDEST PUSH1 0x40 MLOAD PUSH2 0xCB SWAP2 SWAP1 PUSH2 0x8EC JUMP JUMPDEST PUSH1 0x40 MLOAD DUP1 SWAP2 SUB SWAP1 RETURN JUMPDEST PUSH2 0xDC PUSH2 0x290 JUMP JUMPDEST PUSH1 0x40 MLOAD PUSH2 0xE9 SWAP2 SWAP1 PUSH2 0x975 JUMP JUMPDEST PUSH1 0x40 MLOAD DUP1 SWAP2 SUB SWAP1 RETURN JUMPDEST PUSH2 0x10C PUSH1 0x4 DUP1 CALLDATASIZE SUB DUP2 ADD SWAP1 PUSH2 0x107 SWAP2 SWAP1 PUSH2 0x9D0 JUMP JUMPDEST PUSH2 0x328 JUMP JUMPDEST PUSH1 0x40 MLOAD PUSH2 0x119 SWAP2 SWAP1 PUSH2 0x8EC JUMP JUMPDEST PUSH1 0x40 MLOAD DUP1 SWAP2 SUB SWAP1 RETURN JUMPDEST PUSH2 0x13C PUSH1 0x4 DUP1 CALLDATASIZE SUB DUP2 ADD SWAP1 PUSH2 0x137 SWAP2 SWAP1 PUSH2 0x9D0 JUMP JUMPDEST PUSH2 0x347 JUMP JUMPDEST PUSH1 0x40 MLOAD PUSH2 0x149 SWAP2 SWAP1 PUSH2 0x975 JUMP JUMPDEST PUSH1 0x40 MLOAD DUP1 SWAP2 SUB SWAP1 RETURN JUMPDEST PUSH2 0x16C PUSH1 0x4 DUP1 CALLDATASIZE SUB DUP2 ADD SWAP1 PUSH2 0x167 SWAP2 SWAP1 PUSH2 0x9D0 JUMP JUMPDEST PUSH2 0x49B JUMP JUMPDEST PUSH1 0x40 MLOAD PUSH2 0x179 SWAP2 SWAP1 PUSH2 0x8EC JUMP JUMPDEST PUSH1 0x40 MLOAD DUP1 SWAP2 SUB SWAP1 RETURN JUMPDEST PUSH2 0x18A PUSH2 0x4B4 JUMP JUMPDEST PUSH1 0x40 MLOAD PUSH2 0x197 SWAP2 SWAP1 PUSH2 0x975 JUMP JUMPDEST PUSH1 0x40 MLOAD DUP1 SWAP2 SUB SWAP1 RETURN JUMPDEST PUSH2 0x1A8 PUSH2 0x546 JUMP JUMPDEST PUSH1 0x40 MLOAD PUSH2 0x1B5 SWAP2 SWAP1 PUSH2 0x8EC JUMP JUMPDEST PUSH1 0x40 MLOAD DUP1 SWAP2 SUB SWAP1 RETURN JUMPDEST PUSH2 0x1C6 PUSH2 0x54C JUMP JUMPDEST PUSH1 0x40 MLOAD PUSH2 0x1D3 SWAP2 SWAP1 PUSH2 0x8EC JUMP JUMPDEST PUSH1 0x40 MLOAD DUP1 SWAP2 SUB SWAP1 RETURN JUMPDEST PUSH2 0x1F6 PUSH1 0x4 DUP1 CALLDATASIZE SUB DUP2 ADD SWAP1 PUSH2 0x1F1 SWAP2 SWAP1 PUSH2 0x9D0 JUMP JUMPDEST PUSH2 0x558 JUMP JUMPDEST PUSH1 0x40 MLOAD PUSH2 0x203 SWAP2 SWAP1 PUSH2 0x975 JUMP JUMPDEST PUSH1 0x40 MLOAD DUP1 SWAP2 SUB SWAP1 RETURN JUMPDEST PUSH2 0x214 PUSH2 0x5E5 JUMP JUMPDEST PUSH1 0x40 MLOAD PUSH2 0x221 SWAP2 SWAP1 PUSH2 0x8EC JUMP JUMPDEST PUSH1 0x40 MLOAD DUP1 SWAP2 SUB SWAP1 RETURN JUMPDEST PUSH2 0x244 PUSH1 0x4 DUP1 CALLDATASIZE SUB DUP2 ADD SWAP1 PUSH2 0x23F SWAP2 SWAP1 PUSH2 0x9D0 JUMP JUMPDEST PUSH2 0x732 JUMP JUMPDEST PUSH1 0x40 MLOAD PUSH2 0x251 SWAP2 SWAP1 PUSH2 0x8EC JUMP JUMPDEST PUSH1 0x40 MLOAD DUP1 SWAP2 SUB SWAP1 RETURN JUMPDEST PUSH2 0x274 PUSH1 0x4 DUP1 CALLDATASIZE SUB DUP2 ADD SWAP1 PUSH2 0x26F SWAP2 SWAP1 PUSH2 0xB27 JUMP JUMPDEST PUSH2 0x752 JUMP JUMPDEST PUSH1 0x40 MLOAD PUSH2 0x281 SWAP2 SWAP1 PUSH2 0x975 JUMP JUMPDEST PUSH1 0x40 MLOAD DUP1 SWAP2 SUB SWAP1 RETURN JUMPDEST PUSH1 0x4 SLOAD DUP2 JUMP JUMPDEST PUSH1 0x60 PUSH0 PUSH1 0x4 SLOAD SWAP1 POP PUSH1 0x60 PUSH0 JUMPDEST DUP3 DUP2 LT ISZERO PUSH2 0x31F JUMPI PUSH2 0x2D1 DUP3 PUSH2 0x2CC PUSH0 DUP5 DUP2 SLOAD DUP2 LT PUSH2 0x2BE JUMPI PUSH2 0x2BD PUSH2 0xB9D JUMP JUMPDEST JUMPDEST SWAP1 PUSH0 MSTORE PUSH1 0x20 PUSH0 KECCAK256 ADD SLOAD PUSH2 0x558 JUMP JUMPDEST PUSH2 0x752 JUMP JUMPDEST SWAP2 POP PUSH2 0x312 DUP3 PUSH1 0x40 MLOAD DUP1 PUSH1 0x40 ADD PUSH1 0x40 MSTORE DUP1 PUSH1 0x2 DUP2 MSTORE PUSH1 0x20 ADD PUSH32 0x2020000000000000000000000000000000000000000000000000000000000000 DUP2 MSTORE POP PUSH2 0x752 JUMP JUMPDEST SWAP2 POP DUP1 PUSH1 0x1 ADD SWAP1 POP PUSH2 0x29C JUMP JUMPDEST POP DUP1 SWAP3 POP POP POP SWAP1 JUMP JUMPDEST PUSH0 DUP2 DUP2 SLOAD DUP2 LT PUSH2 0x336 JUMPI PUSH0 DUP1 REVERT JUMPDEST SWAP1 PUSH0 MSTORE PUSH1 0x20 PUSH0 KECCAK256 ADD PUSH0 SWAP2 POP SWAP1 POP SLOAD DUP2 JUMP JUMPDEST PUSH1 0x60 PUSH0 PUSH1 0x40 MLOAD DUP1 PUSH1 0x40 ADD PUSH1 0x40 MSTORE DUP1 PUSH1 0x10 DUP2 MSTORE PUSH1 0x20 ADD PUSH32 0x3031323334353637383961626364656600000000000000000000000000000000 DUP2 MSTORE POP SWAP1 POP PUSH0 DUP4 PUSH1 0x40 MLOAD PUSH1 0x20 ADD PUSH2 0x394 SWAP2 SWAP1 PUSH2 0xBEA JUMP JUMPDEST PUSH1 0x40 MLOAD PUSH1 0x20 DUP2 DUP4 SUB SUB DUP2 MSTORE SWAP1 PUSH1 0x40 MSTORE SWAP1 POP PUSH0 PUSH1 0x1 PUSH8 0xFFFFFFFFFFFFFFFF DUP2 GT ISZERO PUSH2 0x3C1 JUMPI PUSH2 0x3C0 PUSH2 0xA03 JUMP JUMPDEST JUMPDEST PUSH1 0x40 MLOAD SWAP1 DUP1 DUP3 MSTORE DUP1 PUSH1 0x1F ADD PUSH1 0x1F NOT AND PUSH1 0x20 ADD DUP3 ADD PUSH1 0x40 MSTORE DUP1 ISZERO PUSH2 0x3F3 JUMPI DUP2 PUSH1 0x20 ADD PUSH1 0x1 DUP3 MUL DUP1 CALLDATASIZE DUP4 CALLDATACOPY DUP1 DUP3 ADD SWAP2 POP POP SWAP1 POP JUMPDEST POP SWAP1 POP PUSH0 PUSH1 0x1 DUP4 MLOAD PUSH2 0x405 SWAP2 SWAP1 PUSH2 0xC31 JUMP JUMPDEST SWAP1 POP DUP4 PUSH1 0xF PUSH1 0xF8 SHL DUP5 DUP4 DUP2 MLOAD DUP2 LT PUSH2 0x420 JUMPI PUSH2 0x41F PUSH2 0xB9D JUMP JUMPDEST JUMPDEST PUSH1 0x20 ADD ADD MLOAD PUSH1 0xF8 SHR PUSH1 0xF8 SHL AND PUSH1 0xF8 SHR PUSH1 0xFF AND DUP2 MLOAD DUP2 LT PUSH2 0x443 JUMPI PUSH2 0x442 PUSH2 0xB9D JUMP JUMPDEST JUMPDEST PUSH1 0x20 ADD ADD MLOAD PUSH1 0xF8 SHR PUSH1 0xF8 SHL DUP3 PUSH0 DUP2 MLOAD DUP2 LT PUSH2 0x461 JUMPI PUSH2 0x460 PUSH2 0xB9D JUMP JUMPDEST JUMPDEST PUSH1 0x20 ADD ADD SWAP1 PUSH31 0xFFFFFFFFFFFFFFFFFFFFFFFFFFFFFFFFFFFFFFFFFFFFFFFFFFFFFFFFFFFFFF NOT AND SWAP1 DUP2 PUSH0 BYTE SWAP1 MSTORE8 POP DUP2 SWAP5 POP POP POP POP POP SWAP2 SWAP1 POP JUMP JUMPDEST PUSH1 0x1 DUP2 PUSH1 0x3 DUP2 LT PUSH2 0x4AA JUMPI PUSH0 DUP1 REVERT JUMPDEST ADD PUSH0 SWAP2 POP SWAP1 POP SLOAD DUP2 JUMP JUMPDEST PUSH1 0x60 PUSH0 PUSH1 0x5 SLOAD SWAP1 POP PUSH1 0x60 PUSH0 JUMPDEST DUP3 DUP2 LT ISZERO PUSH2 0x53D JUMPI PUSH2 0x4EF DUP3 PUSH2 0x4EA PUSH1 0x1 DUP5 PUSH1 0x3 DUP2 LT PUSH2 0x4E3 JUMPI PUSH2 0x4E2 PUSH2 0xB9D JUMP JUMPDEST JUMPDEST ADD SLOAD PUSH2 0x558 JUMP JUMPDEST PUSH2 0x752 JUMP JUMPDEST SWAP2 POP PUSH2 0x530 DUP3 PUSH1 0x40 MLOAD DUP1 PUSH1 0x40 ADD PUSH1 0x40 MSTORE DUP1 PUSH1 0x2 DUP2 MSTORE PUSH1 0x20 ADD PUSH32 0x2020000000000000000000000000000000000000000000000000000000000000 DUP2 MSTORE POP PUSH2 0x752 JUMP JUMPDEST SWAP2 POP DUP1 PUSH1 0x1 ADD SWAP1 POP PUSH2 0x4C0 JUMP JUMPDEST POP DUP1 SWAP3 POP POP POP SWAP1 JUMP JUMPDEST PUSH1 0x5 SLOAD DUP2 JUMP JUMPDEST PUSH0 PUSH1 0x6 DUP1 SLOAD SWAP1 POP SWAP1 POP SWAP1 JUMP JUMPDEST PUSH1 0x60 PUSH0 DUP3 SUB PUSH2 0x59E JUMPI PUSH1 0x40 MLOAD DUP1 PUSH1 0x40 ADD PUSH1 0x40 MSTORE DUP1 PUSH1 0x1 DUP2 MSTORE PUSH1 0x20 ADD PUSH32 0x3000000000000000000000000000000000000000000000000000000000000000 DUP2 MSTORE POP SWAP1 POP PUSH2 0x5E0 JUMP JUMPDEST JUMPDEST PUSH0 DUP3 EQ PUSH2 0x5DF JUMPI PUSH0 PUSH1 0xA DUP4 PUSH2 0x5B4 SWAP2 SWAP1 PUSH2 0xC91 JUMP JUMPDEST SWAP1 POP PUSH1 0xA DUP4 PUSH2 0x5C3 SWAP2 SWAP1 PUSH2 0xCC1 JUMP JUMPDEST SWAP3 POP PUSH2 0x5D7 PUSH2 0x5D1 DUP3 PUSH2 0x347 JUMP JUMPDEST DUP4 PUSH2 0x752 JUMP JUMPDEST SWAP2 POP POP PUSH2 0x59F JUMP JUMPDEST JUMPDEST SWAP2 SWAP1 POP JUMP JUMPDEST PUSH0 PUSH1 0x4D PUSH0 PUSH1 0x2 DUP2 SLOAD DUP2 LT PUSH2 0x5FC JUMPI PUSH2 0x5FB PUSH2 0xB9D JUMP JUMPDEST JUMPDEST SWAP1 PUSH0 MSTORE PUSH1 0x20 PUSH0 KECCAK256 ADD DUP2 SWAP1 SSTORE POP PUSH0 PUSH1 0x58 SWAP1 DUP1 PUSH1 0x1 DUP2 SLOAD ADD DUP1 DUP3 SSTORE DUP1 SWAP2 POP POP PUSH1 0x1 SWAP1 SUB SWAP1 PUSH0 MSTORE PUSH1 0x20 PUSH0 KECCAK256 ADD PUSH0 SWAP1 SWAP2 SWAP1 SWAP2 SWAP1 SWAP2 POP SSTORE PUSH0 PUSH1 0x63 SWAP1 DUP1 PUSH1 0x1 DUP2 SLOAD ADD DUP1 DUP3 SSTORE DUP1 SWAP2 POP POP PUSH1 0x1 SWAP1 SUB SWAP1 PUSH0 MSTORE PUSH1 0x20 PUSH0 KECCAK256 ADD PUSH0 SWAP1 SWAP2 SWAP1 SWAP2 SWAP1 SWAP2 POP SSTORE PUSH0 DUP1 DUP1 PUSH1 0x1 DUP2 SLOAD ADD DUP1 DUP3 SSTORE DUP1 SWAP2 POP POP PUSH1 0x1 SWAP1 SUB SWAP1 PUSH0 MSTORE PUSH1 0x20 PUSH0 KECCAK256 ADD PUSH0 SWAP1 SWAP2 SWAP1 SWAP2 SWAP1 SWAP2 POP SSTORE PUSH0 DUP1 SLOAD DUP1 PUSH2 0x689 JUMPI PUSH2 0x688 PUSH2 0xCF1 JUMP JUMPDEST JUMPDEST PUSH1 0x1 SWAP1 SUB DUP2 DUP2 SWAP1 PUSH0 MSTORE PUSH1 0x20 PUSH0 KECCAK256 ADD PUSH0 SWAP1 SSTORE SWAP1 SSTORE PUSH0 DUP1 DUP2 SLOAD DUP2 LT PUSH2 0x6AF JUMPI PUSH2 0x6AE PUSH2 0xB9D JUMP JUMPDEST JUMPDEST SWAP1 PUSH0 MSTORE PUSH1 0x20 PUSH0 KECCAK256 ADD PUSH0 SWAP1 SSTORE PUSH1 0x1 DUP1 PUSH1 0x3 DUP2 LT PUSH2 0x6CE JUMPI PUSH2 0x6CD PUSH2 0xB9D JUMP JUMPDEST JUMPDEST ADD PUSH0 SWAP1 SSTORE PUSH2 0x378 PUSH0 DUP1 DUP2 SLOAD DUP2 LT PUSH2 0x6E8 JUMPI PUSH2 0x6E7 PUSH2 0xB9D JUMP JUMPDEST JUMPDEST SWAP1 PUSH0 MSTORE PUSH1 0x20 PUSH0 KECCAK256 ADD DUP2 SWAP1 SSTORE POP PUSH2 0x270F PUSH1 0x1 DUP1 PUSH1 0x3 DUP2 LT PUSH2 0x70B JUMPI PUSH2 0x70A PUSH2 0xB9D JUMP JUMPDEST JUMPDEST ADD DUP2 SWAP1 SSTORE POP PUSH0 DUP1 DUP1 SLOAD SWAP1 POP SWAP1 POP PUSH0 DUP1 SLOAD SWAP1 POP PUSH1 0x4 DUP2 SWAP1 SSTORE POP PUSH1 0x3 PUSH1 0x5 DUP2 SWAP1 SSTORE POP DUP1 SWAP2 POP POP SWAP1 JUMP JUMPDEST PUSH1 0x6 DUP2 DUP2 SLOAD DUP2 LT PUSH2 0x741 JUMPI PUSH0 DUP1 REVERT JUMPDEST SWAP1 PUSH0 MSTORE PUSH1 0x20 PUSH0 KECCAK256 ADD PUSH0 SWAP2 POP SWAP1 POP SLOAD DUP2 JUMP JUMPDEST PUSH1 0x60 PUSH0 DUP4 SWAP1 POP PUSH0 DUP4 SWAP1 POP PUSH0 DUP2 MLOAD DUP4 MLOAD PUSH2 0x76B SWAP2 SWAP1 PUSH2 0xD1E JUMP JUMPDEST PUSH8 0xFFFFFFFFFFFFFFFF DUP2 GT ISZERO PUSH2 0x784 JUMPI PUSH2 0x783 PUSH2 0xA03 JUMP JUMPDEST JUMPDEST PUSH1 0x40 MLOAD SWAP1 DUP1 DUP3 MSTORE DUP1 PUSH1 0x1F ADD PUSH1 0x1F NOT AND PUSH1 0x20 ADD DUP3 ADD PUSH1 0x40 MSTORE DUP1 ISZERO PUSH2 0x7B6 JUMPI DUP2 PUSH1 0x20 ADD PUSH1 0x1 DUP3 MUL DUP1 CALLDATASIZE DUP4 CALLDATACOPY DUP1 DUP3 ADD SWAP2 POP POP SWAP1 POP JUMPDEST POP SWAP1 POP PUSH0 DUP2 SWAP1 POP PUSH0 DUP1 JUMPDEST DUP6 MLOAD DUP2 LT ISZERO PUSH2 0x841 JUMPI DUP6 DUP2 DUP2 MLOAD DUP2 LT PUSH2 0x7DC JUMPI PUSH2 0x7DB PUSH2 0xB9D JUMP JUMPDEST JUMPDEST PUSH1 0x20 ADD ADD MLOAD PUSH1 0xF8 SHR PUSH1 0xF8 SHL DUP4 DUP4 DUP1 PUSH2 0x7F3 SWAP1 PUSH2 0xD51 JUMP JUMPDEST SWAP5 POP DUP2 MLOAD DUP2 LT PUSH2 0x806 JUMPI PUSH2 0x805 PUSH2 0xB9D JUMP JUMPDEST JUMPDEST PUSH1 0x20 ADD ADD SWAP1 PUSH31 0xFFFFFFFFFFFFFFFFFFFFFFFFFFFFFFFFFFFFFFFFFFFFFFFFFFFFFFFFFFFFFF NOT AND SWAP1 DUP2 PUSH0 BYTE SWAP1 MSTORE8 POP DUP1 DUP1 PUSH1 0x1 ADD SWAP2 POP POP PUSH2 0x7C0 JUMP JUMPDEST POP PUSH0 JUMPDEST DUP5 MLOAD DUP2 LT ISZERO PUSH2 0x8C5 JUMPI DUP5 DUP2 DUP2 MLOAD DUP2 LT PUSH2 0x860 JUMPI PUSH2 0x85F PUSH2 0xB9D JUMP JUMPDEST JUMPDEST PUSH1 0x20 ADD ADD MLOAD PUSH1 0xF8 SHR PUSH1 0xF8 SHL DUP4 DUP4 DUP1 PUSH2 0x877 SWAP1 PUSH2 0xD51 JUMP JUMPDEST SWAP5 POP DUP2 MLOAD DUP2 LT PUSH2 0x88A JUMPI PUSH2 0x889 PUSH2 0xB9D JUMP JUMPDEST JUMPDEST PUSH1 0x20 ADD ADD SWAP1 PUSH31 0xFFFFFFFFFFFFFFFFFFFFFFFFFFFFFFFFFFFFFFFFFFFFFFFFFFFFFFFFFFFFFF NOT AND SWAP1 DUP2 PUSH0 BYTE SWAP1 MSTORE8 POP DUP1 DUP1 PUSH1 0x1 ADD SWAP2 POP POP PUSH2 0x844 JUMP JUMPDEST POP DUP3 SWAP6 POP POP POP POP POP POP SWAP3 SWAP2 POP POP JUMP JUMPDEST PUSH0 DUP2 SWAP1 POP SWAP2 SWAP1 POP JUMP JUMPDEST PUSH2 0x8E6 DUP2 PUSH2 0x8D4 JUMP JUMPDEST DUP3 MSTORE POP POP JUMP JUMPDEST PUSH0 PUSH1 0x20 DUP3 ADD SWAP1 POP PUSH2 0x8FF PUSH0 DUP4 ADD DUP5 PUSH2 0x8DD JUMP JUMPDEST SWAP3 SWAP2 POP POP JUMP JUMPDEST PUSH0 DUP2 MLOAD SWAP1 POP SWAP2 SWAP1 POP JUMP JUMPDEST PUSH0 DUP3 DUP3 MSTORE PUSH1 0x20 DUP3 ADD SWAP1 POP SWAP3 SWAP2 POP POP JUMP JUMPDEST DUP3 DUP2 DUP4 MCOPY PUSH0 DUP4 DUP4 ADD MSTORE POP POP POP JUMP JUMPDEST PUSH0 PUSH1 0x1F NOT PUSH1 0x1F DUP4 ADD AND SWAP1 POP SWAP2 SWAP1 POP JUMP JUMPDEST PUSH0 PUSH2 0x947 DUP3 PUSH2 0x905 JUMP JUMPDEST PUSH2 0x951 DUP2 DUP6 PUSH2 0x90F JUMP JUMPDEST SWAP4 POP PUSH2 0x961 DUP2 DUP6 PUSH1 0x20 DUP7 ADD PUSH2 0x91F JUMP JUMPDEST PUSH2 0x96A DUP2 PUSH2 0x92D JUMP JUMPDEST DUP5 ADD SWAP2 POP POP SWAP3 SWAP2 POP POP JUMP JUMPDEST PUSH0 PUSH1 0x20 DUP3 ADD SWAP1 POP DUP2 DUP2 SUB PUSH0 DUP4 ADD MSTORE PUSH2 0x98D DUP2 DUP5 PUSH2 0x93D JUMP JUMPDEST SWAP1 POP SWAP3 SWAP2 POP POP JUMP JUMPDEST PUSH0 PUSH1 0x40 MLOAD SWAP1 POP SWAP1 JUMP JUMPDEST PUSH0 DUP1 REVERT JUMPDEST PUSH0 DUP1 REVERT JUMPDEST PUSH2 0x9AF DUP2 PUSH2 0x8D4 JUMP JUMPDEST DUP2 EQ PUSH2 0x9B9 JUMPI PUSH0 DUP1 REVERT JUMPDEST POP JUMP JUMPDEST PUSH0 DUP2 CALLDATALOAD SWAP1 POP PUSH2 0x9CA DUP2 PUSH2 0x9A6 JUMP JUMPDEST SWAP3 SWAP2 POP POP JUMP JUMPDEST PUSH0 PUSH1 0x20 DUP3 DUP5 SUB SLT ISZERO PUSH2 0x9E5 JUMPI PUSH2 0x9E4 PUSH2 0x99E JUMP JUMPDEST JUMPDEST PUSH0 PUSH2 0x9F2 DUP5 DUP3 DUP6 ADD PUSH2 0x9BC JUMP JUMPDEST SWAP2 POP POP SWAP3 SWAP2 POP POP JUMP JUMPDEST PUSH0 DUP1 REVERT JUMPDEST PUSH0 DUP1 REVERT JUMPDEST PUSH32 0x4E487B7100000000000000000000000000000000000000000000000000000000 PUSH0 MSTORE PUSH1 0x41 PUSH1 0x4 MSTORE PUSH1 0x24 PUSH0 REVERT JUMPDEST PUSH2 0xA39 DUP3 PUSH2 0x92D JUMP JUMPDEST DUP2 ADD DUP2 DUP2 LT PUSH8 0xFFFFFFFFFFFFFFFF DUP3 GT OR ISZERO PUSH2 0xA58 JUMPI PUSH2 0xA57 PUSH2 0xA03 JUMP JUMPDEST JUMPDEST DUP1 PUSH1 0x40 MSTORE POP POP POP JUMP JUMPDEST PUSH0 PUSH2 0xA6A PUSH2 0x995 JUMP JUMPDEST SWAP1 POP PUSH2 0xA76 DUP3 DUP3 PUSH2 0xA30 JUMP JUMPDEST SWAP2 SWAP1 POP JUMP JUMPDEST PUSH0 PUSH8 0xFFFFFFFFFFFFFFFF DUP3 GT ISZERO PUSH2 0xA95 JUMPI PUSH2 0xA94 PUSH2 0xA03 JUMP JUMPDEST JUMPDEST PUSH2 0xA9E DUP3 PUSH2 0x92D JUMP JUMPDEST SWAP1 POP PUSH1 0x20 DUP2 ADD SWAP1 POP SWAP2 SWAP1 POP JUMP JUMPDEST DUP3 DUP2 DUP4 CALLDATACOPY PUSH0 DUP4 DUP4 ADD MSTORE POP POP POP JUMP JUMPDEST PUSH0 PUSH2 0xACB PUSH2 0xAC6 DUP5 PUSH2 0xA7B JUMP JUMPDEST PUSH2 0xA61 JUMP JUMPDEST SWAP1 POP DUP3 DUP2 MSTORE PUSH1 0x20 DUP2 ADD DUP5 DUP5 DUP5 ADD GT ISZERO PUSH2 0xAE7 JUMPI PUSH2 0xAE6 PUSH2 0x9FF JUMP JUMPDEST JUMPDEST PUSH2 0xAF2 DUP5 DUP3 DUP6 PUSH2 0xAAB JUMP JUMPDEST POP SWAP4 SWAP3 POP POP POP JUMP JUMPDEST PUSH0 DUP3 PUSH1 0x1F DUP4 ADD SLT PUSH2 0xB0E JUMPI PUSH2 0xB0D PUSH2 0x9FB JUMP JUMPDEST JUMPDEST DUP2 CALLDATALOAD PUSH2 0xB1E DUP5 DUP3 PUSH1 0x20 DUP7 ADD PUSH2 0xAB9 JUMP JUMPDEST SWAP2 POP POP SWAP3 SWAP2 POP POP JUMP JUMPDEST PUSH0 DUP1 PUSH1 0x40 DUP4 DUP6 SUB SLT ISZERO PUSH2 0xB3D JUMPI PUSH2 0xB3C PUSH2 0x99E JUMP JUMPDEST JUMPDEST PUSH0 DUP4 ADD CALLDATALOAD PUSH8 0xFFFFFFFFFFFFFFFF DUP2 GT ISZERO PUSH2 0xB5A JUMPI PUSH2 0xB59 PUSH2 0x9A2 JUMP JUMPDEST JUMPDEST PUSH2 0xB66 DUP6 DUP3 DUP7 ADD PUSH2 0xAFA JUMP JUMPDEST SWAP3 POP POP PUSH1 0x20 DUP4 ADD CALLDATALOAD PUSH8 0xFFFFFFFFFFFFFFFF DUP2 GT ISZERO PUSH2 0xB87 JUMPI PUSH2 0xB86 PUSH2 0x9A2 JUMP JUMPDEST JUMPDEST PUSH2 0xB93 DUP6 DUP3 DUP7 ADD PUSH2 0xAFA JUMP JUMPDEST SWAP2 POP POP SWAP3 POP SWAP3 SWAP1 POP JUMP JUMPDEST PUSH32 0x4E487B7100000000000000000000000000000000000000000000000000000000 PUSH0 MSTORE PUSH1 0x32 PUSH1 0x4 MSTORE PUSH1 0x24 PUSH0 REVERT JUMPDEST PUSH0 DUP2 SWAP1 POP SWAP2 SWAP1 POP JUMP JUMPDEST PUSH2 0xBE4 PUSH2 0xBDF DUP3 PUSH2 0x8D4 JUMP JUMPDEST PUSH2 0xBCA JUMP JUMPDEST DUP3 MSTORE POP POP JUMP JUMPDEST PUSH0 PUSH2 0xBF5 DUP3 DUP5 PUSH2 0xBD3 JUMP JUMPDEST PUSH1 0x20 DUP3 ADD SWAP2 POP DUP2 SWAP1 POP SWAP3 SWAP2 POP POP JUMP JUMPDEST PUSH32 0x4E487B7100000000000000000000000000000000000000000000000000000000 PUSH0 MSTORE PUSH1 0x11 PUSH1 0x4 MSTORE PUSH1 0x24 PUSH0 REVERT JUMPDEST PUSH0 PUSH2 0xC3B DUP3 PUSH2 0x8D4 JUMP JUMPDEST SWAP2 POP PUSH2 0xC46 DUP4 PUSH2 0x8D4 JUMP JUMPDEST SWAP3 POP DUP3 DUP3 SUB SWAP1 POP DUP2 DUP2 GT ISZERO PUSH2 0xC5E JUMPI PUSH2 0xC5D PUSH2 0xC04 JUMP JUMPDEST JUMPDEST SWAP3 SWAP2 POP POP JUMP JUMPDEST PUSH32 0x4E487B7100000000000000000000000000000000000000000000000000000000 PUSH0 MSTORE PUSH1 0x12 PUSH1 0x4 MSTORE PUSH1 0x24 PUSH0 REVERT JUMPDEST PUSH0 PUSH2 0xC9B DUP3 PUSH2 0x8D4 JUMP JUMPDEST SWAP2 POP PUSH2 0xCA6 DUP4 PUSH2 0x8D4 JUMP JUMPDEST SWAP3 POP DUP3 PUSH2 0xCB6 JUMPI PUSH2 0xCB5 PUSH2 0xC64 JUMP JUMPDEST JUMPDEST DUP3 DUP3 MOD SWAP1 POP SWAP3 SWAP2 POP POP JUMP JUMPDEST PUSH0 PUSH2 0xCCB DUP3 PUSH2 0x8D4 JUMP JUMPDEST SWAP2 POP PUSH2 0xCD6 DUP4 PUSH2 0x8D4 JUMP JUMPDEST SWAP3 POP DUP3 PUSH2 0xCE6 JUMPI PUSH2 0xCE5 PUSH2 0xC64 JUMP JUMPDEST JUMPDEST DUP3 DUP3 DIV SWAP1 POP SWAP3 SWAP2 POP POP JUMP JUMPDEST PUSH32 0x4E487B7100000000000000000000000000000000000000000000000000000000 PUSH0 MSTORE PUSH1 0x31 PUSH1 0x4 MSTORE PUSH1 0x24 PUSH0 REVERT JUMPDEST PUSH0 PUSH2 0xD28 DUP3 PUSH2 0x8D4 JUMP JUMPDEST SWAP2 POP PUSH2 0xD33 DUP4 PUSH2 0x8D4 JUMP JUMPDEST SWAP3 POP DUP3 DUP3 ADD SWAP1 POP DUP1 DUP3 GT ISZERO PUSH2 0xD4B JUMPI PUSH2 0xD4A PUSH2 0xC04 JUMP JUMPDEST JUMPDEST SWAP3 SWAP2 POP POP JUMP JUMPDEST PUSH0 PUSH2 0xD5B DUP3 PUSH2 0x8D4 JUMP JUMPDEST SWAP2 POP PUSH32 0xFFFFFFFFFFFFFFFFFFFFFFFFFFFFFFFFFFFFFFFFFFFFFFFFFFFFFFFFFFFFFFFF DUP3 SUB PUSH2 0xD8D JUMPI PUSH2 0xD8C PUSH2 0xC04 JUMP JUMPDEST JUMPDEST PUSH1 0x1 DUP3 ADD SWAP1 POP SWAP2 SWAP1 POP JUMP INVALID LOG2 PUSH5 0x6970667358 0x22 SLT KECCAK256 0xB9 SIGNEXTEND PUSH0 0xEB 0xCC 0x29 DUP16 0xE6 SUB PUSH7 0x54699C1DE17BD9 RETURN PUSH0 SWAP15 0xB0 0xC0 SHR PC 0xB0 JUMPDEST 0xD9 ISZERO PUSH30 0xD1A24164736F6C634300081A003300000000000000000000000000000000 "
		},
		"gasEstimates": {
			"creation": {
				"codeDepositCost": "706800",
				"executionCost": "infinite",
				"totalCost": "infinite"
			},
			"external": {
				"StateDynamicArray(uint256)": "infinite",
				"StateFixedArray(uint256)": "infinite",
				"emptyArray(uint256)": "infinite",
				"getEmptyArrayLength()": "2462",
				"lenDyn()": "2426",
				"lenFix()": "2425",
				"showarrayDyn()": "infinite",
				"showarrayFix()": "infinite",
				"strConcat(string,string)": "infinite",
				"testStateArray()": "283251",
				"toStr(uint256)": "infinite",
				"uintToString(uint256)": "infinite"
			}
		},
		"methodIdentifiers": {
			"StateDynamicArray(uint256)": "8e9b3e89",
			"StateFixedArray(uint256)": "966fa992",
			"emptyArray(uint256)": "fc430d5c",
			"getEmptyArrayLength()": "d12c412d",
			"lenDyn()": "26028a06",
			"lenFix()": "cc84e4b9",
			"showarrayDyn()": "55f45e26",
			"showarrayFix()": "a214a93b",
			"strConcat(string,string)": "ff74927b",
			"testStateArray()": "f00861f8",
			"toStr(uint256)": "91d6df7d",
			"uintToString(uint256)": "e9395679"
		}
	},
	"abi": [
		{
			"inputs": [],
			"stateMutability": "nonpayable",
			"type": "constructor"
		},
		{
			"inputs": [
				{
					"internalType": "uint256",
					"name": "",
					"type": "uint256"
				}
			],
			"name": "StateDynamicArray",
			"outputs": [
				{
					"internalType": "uint256",
					"name": "",
					"type": "uint256"
				}
			],
			"stateMutability": "view",
			"type": "function"
		},
		{
			"inputs": [
				{
					"internalType": "uint256",
					"name": "",
					"type": "uint256"
				}
			],
			"name": "StateFixedArray",
			"outputs": [
				{
					"internalType": "uint256",
					"name": "",
					"type": "uint256"
				}
			],
			"stateMutability": "view",
			"type": "function"
		},
		{
			"inputs": [
				{
					"internalType": "uint256",
					"name": "",
					"type": "uint256"
				}
			],
			"name": "emptyArray",
			"outputs": [
				{
					"internalType": "uint256",
					"name": "",
					"type": "uint256"
				}
			],
			"stateMutability": "view",
			"type": "function"
		},
		{
			"inputs": [],
			"name": "getEmptyArrayLength",
			"outputs": [
				{
					"internalType": "uint256",
					"name": "",
					"type": "uint256"
				}
			],
			"stateMutability": "view",
			"type": "function"
		},
		{
			"inputs": [],
			"name": "lenDyn",
			"outputs": [
				{
					"internalType": "uint256",
					"name": "",
					"type": "uint256"
				}
			],
			"stateMutability": "view",
			"type": "function"
		},
		{
			"inputs": [],
			"name": "lenFix",
			"outputs": [
				{
					"internalType": "uint256",
					"name": "",
					"type": "uint256"
				}
			],
			"stateMutability": "view",
			"type": "function"
		},
		{
			"inputs": [],
			"name": "showarrayDyn",
			"outputs": [
				{
					"internalType": "string",
					"name": "",
					"type": "string"
				}
			],
			"stateMutability": "view",
			"type": "function"
		},
		{
			"inputs": [],
			"name": "showarrayFix",
			"outputs": [
				{
					"internalType": "string",
					"name": "",
					"type": "string"
				}
			],
			"stateMutability": "view",
			"type": "function"
		},
		{
			"inputs": [
				{
					"internalType": "string",
					"name": "_a",
					"type": "string"
				},
				{
					"internalType": "string",
					"name": "_b",
					"type": "string"
				}
			],
			"name": "strConcat",
			"outputs": [
				{
					"internalType": "string",
					"name": "",
					"type": "string"
				}
			],
			"stateMutability": "pure",
			"type": "function"
		},
		{
			"inputs": [],
			"name": "testStateArray",
			"outputs": [
				{
					"internalType": "uint256",
					"name": "",
					"type": "uint256"
				}
			],
			"stateMutability": "nonpayable",
			"type": "function"
		},
		{
			"inputs": [
				{
					"internalType": "uint256",
					"name": "value",
					"type": "uint256"
				}
			],
			"name": "toStr",
			"outputs": [
				{
					"internalType": "string",
					"name": "",
					"type": "string"
				}
			],
			"stateMutability": "pure",
			"type": "function"
		},
		{
			"inputs": [
				{
					"internalType": "uint256",
					"name": "_uint",
					"type": "uint256"
				}
			],
			"name": "uintToString",
			"outputs": [
				{
					"internalType": "string",
					"name": "str",
					"type": "string"
				}
			],
			"stateMutability": "pure",
			"type": "function"
		}
	]
}