{
	"data": {
		"bytecode": {
			"linkReferences": {},
			"object": "6080604052348015600e575f80fd5b5061090f8061001c5f395ff3fe608060405234801561000f575f80fd5b5060043610610034575f3560e01c80632f570a2314610038578063c65bb0a314610054575b5f80fd5b610052600480360381019061004d91906102fe565b61008a565b005b61006e6004803603810190610069919061051c565b610149565b60405161008197969594939291906106ee565b60405180910390f35b5f602067ffffffffffffffff8111156100a6576100a56101da565b5b6040519080825280602002602001820160405280156100d45781602001602082028036833780820191505090505b5090507ff241ef20af999704d22f2fa6155b387d5497148b1552812e5184c8af0604cdf4826040516101069190610769565b60405180910390a17f33186ac97b459eb71c9745297a852f8947ab7f8c4b56d49284afbb2c72b2701d8160405161013d919061086b565b60405180910390a15050565b5f805f8060605f60607ff241ef20af999704d22f2fa6155b387d5497148b1552812e5184c8af0604cdf45f366040516101839291906108b7565b60405180910390a18d8d8d8d8d8d8d9650965096509650965096509650975097509750975097509750979050565b5f604051905090565b5f80fd5b5f80fd5b5f80fd5b5f80fd5b5f601f19601f8301169050919050565b7f4e487b71000000000000000000000000000000000000000000000000000000005f52604160045260245ffd5b610210826101ca565b810181811067ffffffffffffffff8211171561022f5761022e6101da565b5b80604052505050565b5f6102416101b1565b905061024d8282610207565b919050565b5f67ffffffffffffffff82111561026c5761026b6101da565b5b610275826101ca565b9050602081019050919050565b828183375f83830152505050565b5f6102a261029d84610252565b610238565b9050828152602081018484840111156102be576102bd6101c6565b5b6102c9848285610282565b509392505050565b5f82601f8301126102e5576102e46101c2565b5b81356102f5848260208601610290565b91505092915050565b5f60208284031215610313576103126101ba565b5b5f82013567ffffffffffffffff8111156103305761032f6101be565b5b61033c848285016102d1565b91505092915050565b5f819050919050565b61035781610345565b8114610361575f80fd5b50565b5f813590506103728161034e565b92915050565b5f60ff82169050919050565b61038d81610378565b8114610397575f80fd5b50565b5f813590506103a881610384565b92915050565b5f63ffffffff82169050919050565b6103c6816103ae565b81146103d0575f80fd5b50565b5f813590506103e1816103bd565b92915050565b5f67ffffffffffffffff82169050919050565b610403816103e7565b811461040d575f80fd5b50565b5f8135905061041e816103fa565b92915050565b5f67ffffffffffffffff82111561043e5761043d6101da565b5b610447826101ca565b9050602081019050919050565b5f61046661046184610424565b610238565b905082815260208101848484011115610482576104816101c6565b5b61048d848285610282565b509392505050565b5f82601f8301126104a9576104a86101c2565b5b81356104b9848260208601610454565b91505092915050565b5f73ffffffffffffffffffffffffffffffffffffffff82169050919050565b5f6104eb826104c2565b9050919050565b6104fb816104e1565b8114610505575f80fd5b50565b5f81359050610516816104f2565b92915050565b5f805f805f805f60e0888a031215610537576105366101ba565b5b5f6105448a828b01610364565b97505060206105558a828b0161039a565b96505060406105668a828b016103d3565b95505060606105778a828b01610410565b945050608088013567ffffffffffffffff811115610598576105976101be565b5b6105a48a828b01610495565b93505060a06105b58a828b01610508565b92505060c088013567ffffffffffffffff8111156105d6576105d56101be565b5b6105e28a828b016102d1565b91505092959891949750929550565b6105fa81610345565b82525050565b61060981610378565b82525050565b610618816103ae565b82525050565b610627816103e7565b82525050565b5f81519050919050565b5f82825260208201905092915050565b8281835e5f83830152505050565b5f61065f8261062d565b6106698185610637565b9350610679818560208601610647565b610682816101ca565b840191505092915050565b610696816104e1565b82525050565b5f81519050919050565b5f82825260208201905092915050565b5f6106c08261069c565b6106ca81856106a6565b93506106da818560208601610647565b6106e3816101ca565b840191505092915050565b5f60e0820190506107015f83018a6105f1565b61070e6020830189610600565b61071b604083018861060f565b610728606083018761061e565b818103608083015261073a8186610655565b905061074960a083018561068d565b81810360c083015261075b81846106b6565b905098975050505050505050565b5f6020820190508181035f83015261078181846106b6565b905092915050565b5f81519050919050565b5f82825260208201905092915050565b5f819050602082019050919050565b5f7fff0000000000000000000000000000000000000000000000000000000000000082169050919050565b6107e6816107b2565b82525050565b5f6107f783836107dd565b60208301905092915050565b5f602082019050919050565b5f61081982610789565b6108238185610793565b935061082e836107a3565b805f5b8381101561085e57815161084588826107ec565b975061085083610803565b925050600181019050610831565b5085935050505092915050565b5f6020820190508181035f830152610883818461080f565b905092915050565b5f61089683856106a6565b93506108a3838584610282565b6108ac836101ca565b840190509392505050565b5f6020820190508181035f8301526108d081848661088b565b9050939250505056fea2646970667358221220da413c243a9f63a4aebd56e4b6a458a47a2a15ae89923dc0ce8f431589159e5064736f6c634300081a0033",
			"opcodes": "PUSH1 0x80 PUSH1 0x40 MSTORE CALLVALUE DUP1 ISZERO PUSH1 0xE JUMPI PUSH0 DUP1 REVERT JUMPDEST POP PUSH2 0x90F DUP1 PUSH2 0x1C PUSH0 CODECOPY PUSH0 RETURN INVALID PUSH1 0x80 PUSH1 0x40 MSTORE CALLVALUE DUP1 ISZERO PUSH2 0xF JUMPI PUSH0 DUP1 REVERT JUMPDEST POP PUSH1 0x4 CALLDATASIZE LT PUSH2 0x34 JUMPI PUSH0 CALLDATALOAD PUSH1 0xE0 SHR DUP1 PUSH4 0x2F570A23 EQ PUSH2 0x38 JUMPI DUP1 PUSH4 0xC65BB0A3 EQ PUSH2 0x54 JUMPI JUMPDEST PUSH0 DUP1 REVERT JUMPDEST PUSH2 0x52 PUSH1 0x4 DUP1 CALLDATASIZE SUB DUP2 ADD SWAP1 PUSH2 0x4D SWAP2 SWAP1 PUSH2 0x2FE JUMP JUMPDEST PUSH2 0x8A JUMP JUMPDEST STOP JUMPDEST PUSH2 0x6E PUSH1 0x4 DUP1 CALLDATASIZE SUB DUP2 ADD SWAP1 PUSH2 0x69 SWAP2 SWAP1 PUSH2 0x51C JUMP JUMPDEST PUSH2 0x149 JUMP JUMPDEST PUSH1 0x40 MLOAD PUSH2 0x81 SWAP8 SWAP7 SWAP6 SWAP5 SWAP4 SWAP3 SWAP2 SWAP1 PUSH2 0x6EE JUMP JUMPDEST PUSH1 0x40 MLOAD DUP1 SWAP2 SUB SWAP1 RETURN JUMPDEST PUSH0 PUSH1 0x20 PUSH8 0xFFFFFFFFFFFFFFFF DUP2 GT ISZERO PUSH2 0xA6 JUMPI PUSH2 0xA5 PUSH2 0x1DA JUMP JUMPDEST JUMPDEST PUSH1 0x40 MLOAD SWAP1 DUP1 DUP3 MSTORE DUP1 PUSH1 0x20 MUL PUSH1 0x20 ADD DUP3 ADD PUSH1 0x40 MSTORE DUP1 ISZERO PUSH2 0xD4 JUMPI DUP2 PUSH1 0x20 ADD PUSH1 0x20 DUP3 MUL DUP1 CALLDATASIZE DUP4 CALLDATACOPY DUP1 DUP3 ADD SWAP2 POP POP SWAP1 POP JUMPDEST POP SWAP1 POP PUSH32 0xF241EF20AF999704D22F2FA6155B387D5497148B1552812E5184C8AF0604CDF4 DUP3 PUSH1 0x40 MLOAD PUSH2 0x106 SWAP2 SWAP1 PUSH2 0x769 JUMP JUMPDEST PUSH1 0x40 MLOAD DUP1 SWAP2 SUB SWAP1 LOG1 PUSH32 0x33186AC97B459EB71C9745297A852F8947AB7F8C4B56D49284AFBB2C72B2701D DUP2 PUSH1 0x40 MLOAD PUSH2 0x13D SWAP2 SWAP1 PUSH2 0x86B JUMP JUMPDEST PUSH1 0x40 MLOAD DUP1 SWAP2 SUB SWAP1 LOG1 POP POP JUMP JUMPDEST PUSH0 DUP1 PUSH0 DUP1 PUSH1 0x60 PUSH0 PUSH1 0x60 PUSH32 0xF241EF20AF999704D22F2FA6155B387D5497148B1552812E5184C8AF0604CDF4 PUSH0 CALLDATASIZE PUSH1 0x40 MLOAD PUSH2 0x183 SWAP3 SWAP2 SWAP1 PUSH2 0x8B7 JUMP JUMPDEST PUSH1 0x40 MLOAD DUP1 SWAP2 SUB SWAP1 LOG1 DUP14 DUP14 DUP14 DUP14 DUP14 DUP14 DUP14 SWAP7 POP SWAP7 POP SWAP7 POP SWAP7 POP SWAP7 POP SWAP7 POP SWAP7 POP SWAP8 POP SWAP8 POP SWAP8 POP SWAP8 POP SWAP8 POP SWAP8 POP SWAP8 SWAP1 POP JUMP JUMPDEST PUSH0 PUSH1 0x40 MLOAD SWAP1 POP SWAP1 JUMP JUMPDEST PUSH0 DUP1 REVERT JUMPDEST PUSH0 DUP1 REVERT JUMPDEST PUSH0 DUP1 REVERT JUMPDEST PUSH0 DUP1 REVERT JUMPDEST PUSH0 PUSH1 0x1F NOT PUSH1 0x1F DUP4 ADD AND SWAP1 POP SWAP2 SWAP1 POP JUMP JUMPDEST PUSH32 0x4E487B7100000000000000000000000000000000000000000000000000000000 PUSH0 MSTORE PUSH1 0x41 PUSH1 0x4 MSTORE PUSH1 0x24 PUSH0 REVERT JUMPDEST PUSH2 0x210 DUP3 PUSH2 0x1CA JUMP JUMPDEST DUP2 ADD DUP2 DUP2 LT PUSH8 0xFFFFFFFFFFFFFFFF DUP3 GT OR ISZERO PUSH2 0x22F JUMPI PUSH2 0x22E PUSH2 0x1DA JUMP JUMPDEST JUMPDEST DUP1 PUSH1 0x40 MSTORE POP POP POP JUMP JUMPDEST PUSH0 PUSH2 0x241 PUSH2 0x1B1 JUMP JUMPDEST SWAP1 POP PUSH2 0x24D DUP3 DUP3 PUSH2 0x207 JUMP JUMPDEST SWAP2 SWAP1 POP JUMP JUMPDEST PUSH0 PUSH8 0xFFFFFFFFFFFFFFFF DUP3 GT ISZERO PUSH2 0x26C JUMPI PUSH2 0x26B PUSH2 0x1DA JUMP JUMPDEST JUMPDEST PUSH2 0x275 DUP3 PUSH2 0x1CA JUMP JUMPDEST SWAP1 POP PUSH1 0x20 DUP2 ADD SWAP1 POP SWAP2 SWAP1 POP JUMP JUMPDEST DUP3 DUP2 DUP4 CALLDATACOPY PUSH0 DUP4 DUP4 ADD MSTORE POP POP POP JUMP JUMPDEST PUSH0 PUSH2 0x2A2 PUSH2 0x29D DUP5 PUSH2 0x252 JUMP JUMPDEST PUSH2 0x238 JUMP JUMPDEST SWAP1 POP DUP3 DUP2 MSTORE PUSH1 0x20 DUP2 ADD DUP5 DUP5 DUP5 ADD GT ISZERO PUSH2 0x2BE JUMPI PUSH2 0x2BD PUSH2 0x1C6 JUMP JUMPDEST JUMPDEST PUSH2 0x2C9 DUP5 DUP3 DUP6 PUSH2 0x282 JUMP JUMPDEST POP SWAP4 SWAP3 POP POP POP JUMP JUMPDEST PUSH0 DUP3 PUSH1 0x1F DUP4 ADD SLT PUSH2 0x2E5 JUMPI PUSH2 0x2E4 PUSH2 0x1C2 JUMP JUMPDEST JUMPDEST DUP2 CALLDATALOAD PUSH2 0x2F5 DUP5 DUP3 PUSH1 0x20 DUP7 ADD PUSH2 0x290 JUMP JUMPDEST SWAP2 POP POP SWAP3 SWAP2 POP POP JUMP JUMPDEST PUSH0 PUSH1 0x20 DUP3 DUP5 SUB SLT ISZERO PUSH2 0x313 JUMPI PUSH2 0x312 PUSH2 0x1BA JUMP JUMPDEST JUMPDEST PUSH0 DUP3 ADD CALLDATALOAD PUSH8 0xFFFFFFFFFFFFFFFF DUP2 GT ISZERO PUSH2 0x330 JUMPI PUSH2 0x32F PUSH2 0x1BE JUMP JUMPDEST JUMPDEST PUSH2 0x33C DUP5 DUP3 DUP6 ADD PUSH2 0x2D1 JUMP JUMPDEST SWAP2 POP POP SWAP3 SWAP2 POP POP JUMP JUMPDEST PUSH0 DUP2 SWAP1 POP SWAP2 SWAP1 POP JUMP JUMPDEST PUSH2 0x357 DUP2 PUSH2 0x345 JUMP JUMPDEST DUP2 EQ PUSH2 0x361 JUMPI PUSH0 DUP1 REVERT JUMPDEST POP JUMP JUMPDEST PUSH0 DUP2 CALLDATALOAD SWAP1 POP PUSH2 0x372 DUP2 PUSH2 0x34E JUMP JUMPDEST SWAP3 SWAP2 POP POP JUMP JUMPDEST PUSH0 PUSH1 0xFF DUP3 AND SWAP1 POP SWAP2 SWAP1 POP JUMP JUMPDEST PUSH2 0x38D DUP2 PUSH2 0x378 JUMP JUMPDEST DUP2 EQ PUSH2 0x397 JUMPI PUSH0 DUP1 REVERT JUMPDEST POP JUMP JUMPDEST PUSH0 DUP2 CALLDATALOAD SWAP1 POP PUSH2 0x3A8 DUP2 PUSH2 0x384 JUMP JUMPDEST SWAP3 SWAP2 POP POP JUMP JUMPDEST PUSH0 PUSH4 0xFFFFFFFF DUP3 AND SWAP1 POP SWAP2 SWAP1 POP JUMP JUMPDEST PUSH2 0x3C6 DUP2 PUSH2 0x3AE JUMP JUMPDEST DUP2 EQ PUSH2 0x3D0 JUMPI PUSH0 DUP1 REVERT JUMPDEST POP JUMP JUMPDEST PUSH0 DUP2 CALLDATALOAD SWAP1 POP PUSH2 0x3E1 DUP2 PUSH2 0x3BD JUMP JUMPDEST SWAP3 SWAP2 POP POP JUMP JUMPDEST PUSH0 PUSH8 0xFFFFFFFFFFFFFFFF DUP3 AND SWAP1 POP SWAP2 SWAP1 POP JUMP JUMPDEST PUSH2 0x403 DUP2 PUSH2 0x3E7 JUMP JUMPDEST DUP2 EQ PUSH2 0x40D JUMPI PUSH0 DUP1 REVERT JUMPDEST POP JUMP JUMPDEST PUSH0 DUP2 CALLDATALOAD SWAP1 POP PUSH2 0x41E DUP2 PUSH2 0x3FA JUMP JUMPDEST SWAP3 SWAP2 POP POP JUMP JUMPDEST PUSH0 PUSH8 0xFFFFFFFFFFFFFFFF DUP3 GT ISZERO PUSH2 0x43E JUMPI PUSH2 0x43D PUSH2 0x1DA JUMP JUMPDEST JUMPDEST PUSH2 0x447 DUP3 PUSH2 0x1CA JUMP JUMPDEST SWAP1 POP PUSH1 0x20 DUP2 ADD SWAP1 POP SWAP2 SWAP1 POP JUMP JUMPDEST PUSH0 PUSH2 0x466 PUSH2 0x461 DUP5 PUSH2 0x424 JUMP JUMPDEST PUSH2 0x238 JUMP JUMPDEST SWAP1 POP DUP3 DUP2 MSTORE PUSH1 0x20 DUP2 ADD DUP5 DUP5 DUP5 ADD GT ISZERO PUSH2 0x482 JUMPI PUSH2 0x481 PUSH2 0x1C6 JUMP JUMPDEST JUMPDEST PUSH2 0x48D DUP5 DUP3 DUP6 PUSH2 0x282 JUMP JUMPDEST POP SWAP4 SWAP3 POP POP POP JUMP JUMPDEST PUSH0 DUP3 PUSH1 0x1F DUP4 ADD SLT PUSH2 0x4A9 JUMPI PUSH2 0x4A8 PUSH2 0x1C2 JUMP JUMPDEST JUMPDEST DUP2 CALLDATALOAD PUSH2 0x4B9 DUP5 DUP3 PUSH1 0x20 DUP7 ADD PUSH2 0x454 JUMP JUMPDEST SWAP2 POP POP SWAP3 SWAP2 POP POP JUMP JUMPDEST PUSH0 PUSH20 0xFFFFFFFFFFFFFFFFFFFFFFFFFFFFFFFFFFFFFFFF DUP3 AND SWAP1 POP SWAP2 SWAP1 POP JUMP JUMPDEST PUSH0 PUSH2 0x4EB DUP3 PUSH2 0x4C2 JUMP JUMPDEST SWAP1 POP SWAP2 SWAP1 POP JUMP JUMPDEST PUSH2 0x4FB DUP2 PUSH2 0x4E1 JUMP JUMPDEST DUP2 EQ PUSH2 0x505 JUMPI PUSH0 DUP1 REVERT JUMPDEST POP JUMP JUMPDEST PUSH0 DUP2 CALLDATALOAD SWAP1 POP PUSH2 0x516 DUP2 PUSH2 0x4F2 JUMP JUMPDEST SWAP3 SWAP2 POP POP JUMP JUMPDEST PUSH0 DUP1 PUSH0 DUP1 PUSH0 DUP1 PUSH0 PUSH1 0xE0 DUP9 DUP11 SUB SLT ISZERO PUSH2 0x537 JUMPI PUSH2 0x536 PUSH2 0x1BA JUMP JUMPDEST JUMPDEST PUSH0 PUSH2 0x544 DUP11 DUP3 DUP12 ADD PUSH2 0x364 JUMP JUMPDEST SWAP8 POP POP PUSH1 0x20 PUSH2 0x555 DUP11 DUP3 DUP12 ADD PUSH2 0x39A JUMP JUMPDEST SWAP7 POP POP PUSH1 0x40 PUSH2 0x566 DUP11 DUP3 DUP12 ADD PUSH2 0x3D3 JUMP JUMPDEST SWAP6 POP POP PUSH1 0x60 PUSH2 0x577 DUP11 DUP3 DUP12 ADD PUSH2 0x410 JUMP JUMPDEST SWAP5 POP POP PUSH1 0x80 DUP9 ADD CALLDATALOAD PUSH8 0xFFFFFFFFFFFFFFFF DUP2 GT ISZERO PUSH2 0x598 JUMPI PUSH2 0x597 PUSH2 0x1BE JUMP JUMPDEST JUMPDEST PUSH2 0x5A4 DUP11 DUP3 DUP12 ADD PUSH2 0x495 JUMP JUMPDEST SWAP4 POP POP PUSH1 0xA0 PUSH2 0x5B5 DUP11 DUP3 DUP12 ADD PUSH2 0x508 JUMP JUMPDEST SWAP3 POP POP PUSH1 0xC0 DUP9 ADD CALLDATALOAD PUSH8 0xFFFFFFFFFFFFFFFF DUP2 GT ISZERO PUSH2 0x5D6 JUMPI PUSH2 0x5D5 PUSH2 0x1BE JUMP JUMPDEST JUMPDEST PUSH2 0x5E2 DUP11 DUP3 DUP12 ADD PUSH2 0x2D1 JUMP JUMPDEST SWAP2 POP POP SWAP3 SWAP6 SWAP9 SWAP2 SWAP5 SWAP8 POP SWAP3 SWAP6 POP JUMP JUMPDEST PUSH2 0x5FA DUP2 PUSH2 0x345 JUMP JUMPDEST DUP3 MSTORE POP POP JUMP JUMPDEST PUSH2 0x609 DUP2 PUSH2 0x378 JUMP JUMPDEST DUP3 MSTORE POP POP JUMP JUMPDEST PUSH2 0x618 DUP2 PUSH2 0x3AE JUMP JUMPDEST DUP3 MSTORE POP POP JUMP JUMPDEST PUSH2 0x627 DUP2 PUSH2 0x3E7 JUMP JUMPDEST DUP3 MSTORE POP POP JUMP JUMPDEST PUSH0 DUP2 MLOAD SWAP1 POP SWAP2 SWAP1 POP JUMP JUMPDEST PUSH0 DUP3 DUP3 MSTORE PUSH1 0x20 DUP3 ADD SWAP1 POP SWAP3 SWAP2 POP POP JUMP JUMPDEST DUP3 DUP2 DUP4 MCOPY PUSH0 DUP4 DUP4 ADD MSTORE POP POP POP JUMP JUMPDEST PUSH0 PUSH2 0x65F DUP3 PUSH2 0x62D JUMP JUMPDEST PUSH2 0x669 DUP2 DUP6 PUSH2 0x637 JUMP JUMPDEST SWAP4 POP PUSH2 0x679 DUP2 DUP6 PUSH1 0x20 DUP7 ADD PUSH2 0x647 JUMP JUMPDEST PUSH2 0x682 DUP2 PUSH2 0x1CA JUMP JUMPDEST DUP5 ADD SWAP2 POP POP SWAP3 SWAP2 POP POP JUMP JUMPDEST PUSH2 0x696 DUP2 PUSH2 0x4E1 JUMP JUMPDEST DUP3 MSTORE POP POP JUMP JUMPDEST PUSH0 DUP2 MLOAD SWAP1 POP SWAP2 SWAP1 POP JUMP JUMPDEST PUSH0 DUP3 DUP3 MSTORE PUSH1 0x20 DUP3 ADD SWAP1 POP SWAP3 SWAP2 POP POP JUMP JUMPDEST PUSH0 PUSH2 0x6C0 DUP3 PUSH2 0x69C JUMP JUMPDEST PUSH2 0x6CA DUP2 DUP6 PUSH2 0x6A6 JUMP JUMPDEST SWAP4 POP PUSH2 0x6DA DUP2 DUP6 PUSH1 0x20 DUP7 ADD PUSH2 0x647 JUMP JUMPDEST PUSH2 0x6E3 DUP2 PUSH2 0x1CA JUMP JUMPDEST DUP5 ADD SWAP2 POP POP SWAP3 SWAP2 POP POP JUMP JUMPDEST PUSH0 PUSH1 0xE0 DUP3 ADD SWAP1 POP PUSH2 0x701 PUSH0 DUP4 ADD DUP11 PUSH2 0x5F1 JUMP JUMPDEST PUSH2 0x70E PUSH1 0x20 DUP4 ADD DUP10 PUSH2 0x600 JUMP JUMPDEST PUSH2 0x71B PUSH1 0x40 DUP4 ADD DUP9 PUSH2 0x60F JUMP JUMPDEST PUSH2 0x728 PUSH1 0x60 DUP4 ADD DUP8 PUSH2 0x61E JUMP JUMPDEST DUP2 DUP2 SUB PUSH1 0x80 DUP4 ADD MSTORE PUSH2 0x73A DUP2 DUP7 PUSH2 0x655 JUMP JUMPDEST SWAP1 POP PUSH2 0x749 PUSH1 0xA0 DUP4 ADD DUP6 PUSH2 0x68D JUMP JUMPDEST DUP2 DUP2 SUB PUSH1 0xC0 DUP4 ADD MSTORE PUSH2 0x75B DUP2 DUP5 PUSH2 0x6B6 JUMP JUMPDEST SWAP1 POP SWAP9 SWAP8 POP POP POP POP POP POP POP POP JUMP JUMPDEST PUSH0 PUSH1 0x20 DUP3 ADD SWAP1 POP DUP2 DUP2 SUB PUSH0 DUP4 ADD MSTORE PUSH2 0x781 DUP2 DUP5 PUSH2 0x6B6 JUMP JUMPDEST SWAP1 POP SWAP3 SWAP2 POP POP JUMP JUMPDEST PUSH0 DUP2 MLOAD SWAP1 POP SWAP2 SWAP1 POP JUMP JUMPDEST PUSH0 DUP3 DUP3 MSTORE PUSH1 0x20 DUP3 ADD SWAP1 POP SWAP3 SWAP2 POP POP JUMP JUMPDEST PUSH0 DUP2 SWAP1 POP PUSH1 0x20 DUP3 ADD SWAP1 POP SWAP2 SWAP1 POP JUMP JUMPDEST PUSH0 PUSH32 0xFF00000000000000000000000000000000000000000000000000000000000000 DUP3 AND SWAP1 POP SWAP2 SWAP1 POP JUMP JUMPDEST PUSH2 0x7E6 DUP2 PUSH2 0x7B2 JUMP JUMPDEST DUP3 MSTORE POP POP JUMP JUMPDEST PUSH0 PUSH2 0x7F7 DUP4 DUP4 PUSH2 0x7DD JUMP JUMPDEST PUSH1 0x20 DUP4 ADD SWAP1 POP SWAP3 SWAP2 POP POP JUMP JUMPDEST PUSH0 PUSH1 0x20 DUP3 ADD SWAP1 POP SWAP2 SWAP1 POP JUMP JUMPDEST PUSH0 PUSH2 0x819 DUP3 PUSH2 0x789 JUMP JUMPDEST PUSH2 0x823 DUP2 DUP6 PUSH2 0x793 JUMP JUMPDEST SWAP4 POP PUSH2 0x82E DUP4 PUSH2 0x7A3 JUMP JUMPDEST DUP1 PUSH0 JUMPDEST DUP4 DUP2 LT ISZERO PUSH2 0x85E JUMPI DUP2 MLOAD PUSH2 0x845 DUP9 DUP3 PUSH2 0x7EC JUMP JUMPDEST SWAP8 POP PUSH2 0x850 DUP4 PUSH2 0x803 JUMP JUMPDEST SWAP3 POP POP PUSH1 0x1 DUP2 ADD SWAP1 POP PUSH2 0x831 JUMP JUMPDEST POP DUP6 SWAP4 POP POP POP POP SWAP3 SWAP2 POP POP JUMP JUMPDEST PUSH0 PUSH1 0x20 DUP3 ADD SWAP1 POP DUP2 DUP2 SUB PUSH0 DUP4 ADD MSTORE PUSH2 0x883 DUP2 DUP5 PUSH2 0x80F JUMP JUMPDEST SWAP1 POP SWAP3 SWAP2 POP POP JUMP JUMPDEST PUSH0 PUSH2 0x896 DUP4 DUP6 PUSH2 0x6A6 JUMP JUMPDEST SWAP4 POP PUSH2 0x8A3 DUP4 DUP6 DUP5 PUSH2 0x282 JUMP JUMPDEST PUSH2 0x8AC DUP4 PUSH2 0x1CA JUMP JUMPDEST DUP5 ADD SWAP1 POP SWAP4 SWAP3 POP POP POP JUMP JUMPDEST PUSH0 PUSH1 0x20 DUP3 ADD SWAP1 POP DUP2 DUP2 SUB PUSH0 DUP4 ADD MSTORE PUSH2 0x8D0 DUP2 DUP5 DUP7 PUSH2 0x88B JUMP JUMPDEST SWAP1 POP SWAP4 SWAP3 POP POP POP JUMP INVALID LOG2 PUSH5 0x6970667358 0x22 SLT KECCAK256 0xDA COINBASE EXTCODECOPY 0x24 GASPRICE SWAP16 PUSH4 0xA4AEBD56 0xE4 0xB6 LOG4 PC LOG4 PUSH27 0x2A15AE89923DC0CE8F431589159E5064736F6C634300081A003300 "
		},
		"gasEstimates": {
			"creation": {
				"codeDepositCost": "463800",
				"executionCost": "497",
				"totalCost": "464297"
			},
			"external": {
				"recFunc(uint256,uint8,uint32,uint64,string,address,bytes)": "infinite",
				"test(bytes)": "infinite"
			}
		},
		"methodIdentifiers": {
			"recFunc(uint256,uint8,uint32,uint64,string,address,bytes)": "c65bb0a3",
			"test(bytes)": "2f570a23"
		}
	},
	"abi": [
		{
			"anonymous": false,
			"inputs": [
				{
					"indexed": false,
					"internalType": "bytes",
					"name": "",
					"type": "bytes"
				}
			],
			"name": "DisplayMsgData",
			"type": "event"
		},
		{
			"anonymous": false,
			"inputs": [
				{
					"indexed": false,
					"internalType": "bytes1[]",
					"name": "",
					"type": "bytes1[]"
				}
			],
			"name": "displayresults",
			"type": "event"
		},
		{
			"inputs": [
				{
					"internalType": "uint256",
					"name": "u256",
					"type": "uint256"
				},
				{
					"internalType": "uint8",
					"name": "u8",
					"type": "uint8"
				},
				{
					"internalType": "uint32",
					"name": "u32",
					"type": "uint32"
				},
				{
					"internalType": "uint64",
					"name": "u64",
					"type": "uint64"
				},
				{
					"internalType": "string",
					"name": "inputstr",
					"type": "string"
				},
				{
					"internalType": "address",
					"name": "addr",
					"type": "address"
				},
				{
					"internalType": "bytes",
					"name": "inputbytes",
					"type": "bytes"
				}
			],
			"name": "recFunc",
			"outputs": [
				{
					"internalType": "uint256",
					"name": "",
					"type": "uint256"
				},
				{
					"internalType": "uint8",
					"name": "",
					"type": "uint8"
				},
				{
					"internalType": "uint32",
					"name": "",
					"type": "uint32"
				},
				{
					"internalType": "uint64",
					"name": "",
					"type": "uint64"
				},
				{
					"internalType": "string",
					"name": "",
					"type": "string"
				},
				{
					"internalType": "address",
					"name": "",
					"type": "address"
				},
				{
					"internalType": "bytes",
					"name": "",
					"type": "bytes"
				}
			],
			"stateMutability": "nonpayable",
			"type": "function"
		},
		{
			"inputs": [
				{
					"internalType": "bytes",
					"name": "aa",
					"type": "bytes"
				}
			],
			"name": "test",
			"outputs": [],
			"stateMutability": "nonpayable",
			"type": "function"
		}
	]
}